{
  "_format": "hh-sol-artifact-1",
  "contractName": "VotingSystem",
  "sourceName": "contracts/VotingSystem.sol",
  "abi": [
    {
      "inputs": [
        {
          "internalType": "string",
          "name": "_name",
          "type": "string"
        }
      ],
      "stateMutability": "nonpayable",
      "type": "constructor"
    },
    {
      "inputs": [],
      "name": "CurrentVotingStatus",
      "outputs": [
        {
          "components": [
            {
              "internalType": "string",
              "name": "name",
              "type": "string"
            },
            {
              "internalType": "string",
              "name": "message",
              "type": "string"
            },
            {
              "internalType": "uint256",
              "name": "registeredId",
              "type": "uint256"
            },
            {
              "internalType": "uint256",
              "name": "voteCalculation",
              "type": "uint256"
            },
            {
              "internalType": "address",
              "name": "candidatesAddress",
              "type": "address"
            },
            {
              "internalType": "enum VotingSystem.ConfirmationStatus",
              "name": "status",
              "type": "uint8"
            }
          ],
          "internalType": "struct VotingSystem.Candidate",
          "name": "",
          "type": "tuple"
        }
      ],
      "stateMutability": "view",
      "type": "function"
    },
    {
      "inputs": [],
      "name": "ListofAcceptedCandidates",
      "outputs": [
        {
          "components": [
            {
              "internalType": "string",
              "name": "name",
              "type": "string"
            },
            {
              "internalType": "string",
              "name": "message",
              "type": "string"
            },
            {
              "internalType": "uint256",
              "name": "registeredId",
              "type": "uint256"
            },
            {
              "internalType": "uint256",
              "name": "voteCalculation",
              "type": "uint256"
            },
            {
              "internalType": "address",
              "name": "candidatesAddress",
              "type": "address"
            },
            {
              "internalType": "enum VotingSystem.ConfirmationStatus",
              "name": "status",
              "type": "uint8"
            }
          ],
          "internalType": "struct VotingSystem.Candidate[]",
          "name": "",
          "type": "tuple[]"
        }
      ],
      "stateMutability": "view",
      "type": "function"
    },
    {
      "inputs": [],
      "name": "ListofAcceptedVoters",
      "outputs": [
        {
          "components": [
            {
              "internalType": "bool",
              "name": "alreadyVoted",
              "type": "bool"
            },
            {
              "internalType": "string",
              "name": "name",
              "type": "string"
            },
            {
              "internalType": "string",
              "name": "message",
              "type": "string"
            },
            {
              "internalType": "uint256",
              "name": "registeredId",
              "type": "uint256"
            },
            {
              "internalType": "address",
              "name": "votersAddress",
              "type": "address"
            },
            {
              "internalType": "enum VotingSystem.ConfirmationStatus",
              "name": "status",
              "type": "uint8"
            }
          ],
          "internalType": "struct VotingSystem.Voter[]",
          "name": "",
          "type": "tuple[]"
        }
      ],
      "stateMutability": "view",
      "type": "function"
    },
    {
      "inputs": [],
      "name": "ListofRegisteredCandidates",
      "outputs": [
        {
          "components": [
            {
              "internalType": "string",
              "name": "name",
              "type": "string"
            },
            {
              "internalType": "string",
              "name": "message",
              "type": "string"
            },
            {
              "internalType": "uint256",
              "name": "registeredId",
              "type": "uint256"
            },
            {
              "internalType": "uint256",
              "name": "voteCalculation",
              "type": "uint256"
            },
            {
              "internalType": "address",
              "name": "candidatesAddress",
              "type": "address"
            },
            {
              "internalType": "enum VotingSystem.ConfirmationStatus",
              "name": "status",
              "type": "uint8"
            }
          ],
          "internalType": "struct VotingSystem.Candidate[]",
          "name": "",
          "type": "tuple[]"
        }
      ],
      "stateMutability": "view",
      "type": "function"
    },
    {
      "inputs": [],
      "name": "ListofRegisteredVoters",
      "outputs": [
        {
          "components": [
            {
              "internalType": "bool",
              "name": "alreadyVoted",
              "type": "bool"
            },
            {
              "internalType": "string",
              "name": "name",
              "type": "string"
            },
            {
              "internalType": "string",
              "name": "message",
              "type": "string"
            },
            {
              "internalType": "uint256",
              "name": "registeredId",
              "type": "uint256"
            },
            {
              "internalType": "address",
              "name": "votersAddress",
              "type": "address"
            },
            {
              "internalType": "enum VotingSystem.ConfirmationStatus",
              "name": "status",
              "type": "uint8"
            }
          ],
          "internalType": "struct VotingSystem.Voter[]",
          "name": "",
          "type": "tuple[]"
        }
      ],
      "stateMutability": "view",
      "type": "function"
    },
    {
      "inputs": [
        {
          "internalType": "uint256",
          "name": "",
          "type": "uint256"
        }
      ],
      "name": "acceptedCandidates",
      "outputs": [
        {
          "internalType": "address",
          "name": "",
          "type": "address"
        }
      ],
      "stateMutability": "view",
      "type": "function"
    },
    {
      "inputs": [
        {
          "internalType": "uint256",
          "name": "",
          "type": "uint256"
        }
      ],
      "name": "acceptedVoters",
      "outputs": [
        {
          "internalType": "address",
          "name": "",
          "type": "address"
        }
      ],
      "stateMutability": "view",
      "type": "function"
    },
    {
      "inputs": [
        {
          "internalType": "address",
          "name": "_candidatesAddress",
          "type": "address"
        },
        {
          "internalType": "string",
          "name": "_message",
          "type": "string"
        }
      ],
      "name": "approveCandidate",
      "outputs": [],
      "stateMutability": "nonpayable",
      "type": "function"
    },
    {
      "inputs": [
        {
          "internalType": "address",
          "name": "_votersAddress",
          "type": "address"
        },
        {
          "internalType": "string",
          "name": "_message",
          "type": "string"
        }
      ],
      "name": "approveVoter",
      "outputs": [],
      "stateMutability": "nonpayable",
      "type": "function"
    },
    {
      "inputs": [
        {
          "internalType": "address",
          "name": "",
          "type": "address"
        }
      ],
      "name": "candidates",
      "outputs": [
        {
          "internalType": "string",
          "name": "name",
          "type": "string"
        },
        {
          "internalType": "string",
          "name": "message",
          "type": "string"
        },
        {
          "internalType": "uint256",
          "name": "registeredId",
          "type": "uint256"
        },
        {
          "internalType": "uint256",
          "name": "voteCalculation",
          "type": "uint256"
        },
        {
          "internalType": "address",
          "name": "candidatesAddress",
          "type": "address"
        },
        {
          "internalType": "enum VotingSystem.ConfirmationStatus",
          "name": "status",
          "type": "uint8"
        }
      ],
      "stateMutability": "view",
      "type": "function"
    },
    {
      "inputs": [
        {
          "internalType": "uint256",
          "name": "",
          "type": "uint256"
        }
      ],
      "name": "candidatesRegistered",
      "outputs": [
        {
          "internalType": "address",
          "name": "",
          "type": "address"
        }
      ],
      "stateMutability": "view",
      "type": "function"
    },
    {
      "inputs": [],
      "name": "electionEndTime",
      "outputs": [
        {
          "internalType": "uint256",
          "name": "",
          "type": "uint256"
        }
      ],
      "stateMutability": "view",
      "type": "function"
    },
    {
      "inputs": [],
      "name": "electionName",
      "outputs": [
        {
          "internalType": "string",
          "name": "",
          "type": "string"
        }
      ],
      "stateMutability": "view",
      "type": "function"
    },
    {
      "inputs": [],
      "name": "electionStartTime",
      "outputs": [
        {
          "internalType": "uint256",
          "name": "",
          "type": "uint256"
        }
      ],
      "stateMutability": "view",
      "type": "function"
    },
    {
      "inputs": [
        {
          "internalType": "address",
          "name": "_candidatesAddress",
          "type": "address"
        }
      ],
      "name": "findCandidate",
      "outputs": [
        {
          "components": [
            {
              "internalType": "string",
              "name": "name",
              "type": "string"
            },
            {
              "internalType": "string",
              "name": "message",
              "type": "string"
            },
            {
              "internalType": "uint256",
              "name": "registeredId",
              "type": "uint256"
            },
            {
              "internalType": "uint256",
              "name": "voteCalculation",
              "type": "uint256"
            },
            {
              "internalType": "address",
              "name": "candidatesAddress",
              "type": "address"
            },
            {
              "internalType": "enum VotingSystem.ConfirmationStatus",
              "name": "status",
              "type": "uint8"
            }
          ],
          "internalType": "struct VotingSystem.Candidate",
          "name": "",
          "type": "tuple"
        }
      ],
      "stateMutability": "view",
      "type": "function"
    },
    {
      "inputs": [
        {
          "internalType": "address",
          "name": "_votersAddress",
          "type": "address"
        }
      ],
      "name": "findVoter",
      "outputs": [
        {
          "components": [
            {
              "internalType": "bool",
              "name": "alreadyVoted",
              "type": "bool"
            },
            {
              "internalType": "string",
              "name": "name",
              "type": "string"
            },
            {
              "internalType": "string",
              "name": "message",
              "type": "string"
            },
            {
              "internalType": "uint256",
              "name": "registeredId",
              "type": "uint256"
            },
            {
              "internalType": "address",
              "name": "votersAddress",
              "type": "address"
            },
            {
              "internalType": "enum VotingSystem.ConfirmationStatus",
              "name": "status",
              "type": "uint8"
            }
          ],
          "internalType": "struct VotingSystem.Voter",
          "name": "",
          "type": "tuple"
        }
      ],
      "stateMutability": "view",
      "type": "function"
    },
    {
      "inputs": [],
      "name": "getAllVotersWhoCasted",
      "outputs": [
        {
          "components": [
            {
              "internalType": "bool",
              "name": "alreadyVoted",
              "type": "bool"
            },
            {
              "internalType": "string",
              "name": "name",
              "type": "string"
            },
            {
              "internalType": "string",
              "name": "message",
              "type": "string"
            },
            {
              "internalType": "uint256",
              "name": "registeredId",
              "type": "uint256"
            },
            {
              "internalType": "address",
              "name": "votersAddress",
              "type": "address"
            },
            {
              "internalType": "enum VotingSystem.ConfirmationStatus",
              "name": "status",
              "type": "uint8"
            }
          ],
          "internalType": "struct VotingSystem.Voter[]",
          "name": "",
          "type": "tuple[]"
        }
      ],
      "stateMutability": "view",
      "type": "function"
    },
    {
      "inputs": [],
      "name": "owner",
      "outputs": [
        {
          "internalType": "address",
          "name": "",
          "type": "address"
        }
      ],
      "stateMutability": "view",
      "type": "function"
    },
    {
      "inputs": [
        {
          "internalType": "string",
          "name": "_name",
          "type": "string"
        }
      ],
      "name": "registerCandidate",
      "outputs": [],
      "stateMutability": "nonpayable",
      "type": "function"
    },
    {
      "inputs": [
        {
          "internalType": "string",
          "name": "_name",
          "type": "string"
        }
      ],
      "name": "registerVoter",
      "outputs": [],
      "stateMutability": "nonpayable",
      "type": "function"
    },
    {
      "inputs": [
        {
          "internalType": "address",
          "name": "_candidatesAddress",
          "type": "address"
        },
        {
          "internalType": "string",
          "name": "_message",
          "type": "string"
        }
      ],
      "name": "rejectCandidate",
      "outputs": [],
      "stateMutability": "nonpayable",
      "type": "function"
    },
    {
      "inputs": [
        {
          "internalType": "address",
          "name": "_votersAddress",
          "type": "address"
        },
        {
          "internalType": "string",
          "name": "_message",
          "type": "string"
        }
      ],
      "name": "rejectVoter",
      "outputs": [],
      "stateMutability": "nonpayable",
      "type": "function"
    },
    {
      "inputs": [
        {
          "internalType": "string",
          "name": "_name",
          "type": "string"
        }
      ],
      "name": "updateCandidate",
      "outputs": [],
      "stateMutability": "nonpayable",
      "type": "function"
    },
    {
      "inputs": [
        {
          "internalType": "string",
          "name": "_name",
          "type": "string"
        }
      ],
      "name": "updateVoter",
      "outputs": [],
      "stateMutability": "nonpayable",
      "type": "function"
    },
    {
      "inputs": [
        {
          "internalType": "address",
          "name": "_candidatesAddress",
          "type": "address"
        }
      ],
      "name": "vote",
      "outputs": [],
      "stateMutability": "nonpayable",
      "type": "function"
    },
    {
      "inputs": [
        {
          "internalType": "address",
          "name": "",
          "type": "address"
        }
      ],
      "name": "voters",
      "outputs": [
        {
          "internalType": "bool",
          "name": "alreadyVoted",
          "type": "bool"
        },
        {
          "internalType": "string",
          "name": "name",
          "type": "string"
        },
        {
          "internalType": "string",
          "name": "message",
          "type": "string"
        },
        {
          "internalType": "uint256",
          "name": "registeredId",
          "type": "uint256"
        },
        {
          "internalType": "address",
          "name": "votersAddress",
          "type": "address"
        },
        {
          "internalType": "enum VotingSystem.ConfirmationStatus",
          "name": "status",
          "type": "uint8"
        }
      ],
      "stateMutability": "view",
      "type": "function"
    },
    {
      "inputs": [
        {
          "internalType": "uint256",
          "name": "",
          "type": "uint256"
        }
      ],
      "name": "votersRegistered",
      "outputs": [
        {
          "internalType": "address",
          "name": "",
          "type": "address"
        }
      ],
      "stateMutability": "view",
      "type": "function"
    },
    {
      "inputs": [
        {
          "internalType": "uint256",
          "name": "",
          "type": "uint256"
        }
      ],
      "name": "votersWhoCasted",
      "outputs": [
        {
          "internalType": "address",
          "name": "",
          "type": "address"
        }
      ],
      "stateMutability": "view",
      "type": "function"
    },
    {
      "inputs": [],
      "name": "winningCandidate",
      "outputs": [
        {
          "components": [
            {
              "internalType": "string",
              "name": "name",
              "type": "string"
            },
            {
              "internalType": "string",
              "name": "message",
              "type": "string"
            },
            {
              "internalType": "uint256",
              "name": "registeredId",
              "type": "uint256"
            },
            {
              "internalType": "uint256",
              "name": "voteCalculation",
              "type": "uint256"
            },
            {
              "internalType": "address",
              "name": "candidatesAddress",
              "type": "address"
            },
            {
              "internalType": "enum VotingSystem.ConfirmationStatus",
              "name": "status",
              "type": "uint8"
            }
          ],
          "internalType": "struct VotingSystem.Candidate",
          "name": "",
          "type": "tuple"
        }
      ],
      "stateMutability": "view",
      "type": "function"
    }
  ],
  "bytecode": "0x608060405234801561001057600080fd5b50604051614b78380380614b788339818101604052810190610032919061020d565b336000806101000a81548173ffffffffffffffffffffffffffffffffffffffff021916908373ffffffffffffffffffffffffffffffffffffffff16021790555080600190816100819190610477565b506001600481905550600160058190555050610549565b6000604051905090565b600080fd5b600080fd5b600080fd5b600080fd5b6000601f19601f8301169050919050565b7f4e487b7100000000000000000000000000000000000000000000000000000000600052604160045260246000fd5b6100ff826100b6565b810181811067ffffffffffffffff8211171561011e5761011d6100c7565b5b80604052505050565b6000610131610098565b905061013d82826100f6565b919050565b600067ffffffffffffffff82111561015d5761015c6100c7565b5b610166826100b6565b9050602081019050919050565b60005b83811015610191578082015181840152602081019050610176565b60008484015250505050565b60006101b06101ab84610142565b610127565b9050828152602081018484840111156101cc576101cb6100b1565b5b6101d7848285610173565b509392505050565b600082601f8301126101f4576101f36100ac565b5b815161020484826020860161019d565b91505092915050565b600060208284031215610223576102226100a2565b5b600082015167ffffffffffffffff811115610241576102406100a7565b5b61024d848285016101df565b91505092915050565b600081519050919050565b7f4e487b7100000000000000000000000000000000000000000000000000000000600052602260045260246000fd5b600060028204905060018216806102a857607f821691505b6020821081036102bb576102ba610261565b5b50919050565b60008190508160005260206000209050919050565b60006020601f8301049050919050565b600082821b905092915050565b6000600883026103237fffffffffffffffffffffffffffffffffffffffffffffffffffffffffffffffff826102e6565b61032d86836102e6565b95508019841693508086168417925050509392505050565b6000819050919050565b6000819050919050565b600061037461036f61036a84610345565b61034f565b610345565b9050919050565b6000819050919050565b61038e83610359565b6103a261039a8261037b565b8484546102f3565b825550505050565b600090565b6103b76103aa565b6103c2818484610385565b505050565b5b818110156103e6576103db6000826103af565b6001810190506103c8565b5050565b601f82111561042b576103fc816102c1565b610405846102d6565b81016020851015610414578190505b610428610420856102d6565b8301826103c7565b50505b505050565b600082821c905092915050565b600061044e60001984600802610430565b1980831691505092915050565b6000610467838361043d565b9150826002028217905092915050565b61048082610256565b67ffffffffffffffff811115610499576104986100c7565b5b6104a38254610290565b6104ae8282856103ea565b600060209050601f8311600181146104e157600084156104cf578287015190505b6104d9858261045b565b865550610541565b601f1984166104ef866102c1565b60005b82811015610517578489015182556001820191506020850194506020810190506104f2565b868310156105345784890151610530601f89168261043d565b8355505b6001600288020188555050505b505050505050565b614620806105586000396000f3fe608060405234801561001057600080fd5b50600436106101cf5760003560e01c806382ff2aeb116101045780639e7a8145116100a2578063c5980c9411610071578063c5980c941461054c578063d28178d71461056a578063dbf7be4714610588578063fad761d3146105b8576101cf565b80639e7a8145146104ad5780639eb88db6146104dd578063a3ec138d146104f9578063bab912a21461052e576101cf565b80638987cb32116100de5780638987cb321461041e5780638ab66a901461043c5780638da5cb5b146104715780639e136e641461048f576101cf565b806382ff2aeb146103b4578063849c5657146103d057806385e8e7a714610400576101cf565b806359632c22116101715780636428a4861161014b5780636428a486146103445780636dd7d8ea1461036057806379432db51461037c5780637eb21b5114610398576101cf565b806359632c22146102da5780635f1bc34e146102f657806360fc4e3214610326576101cf565b80633cfde26c116101ad5780633cfde26c146102405780634a2846a81461025e57806353dd128c1461027a57806357f3a8e5146102aa576101cf565b80630366ac37146101d45780631ee9367c1461020457806323a2b2ed14610222575b600080fd5b6101ee60048036038101906101e99190613335565b6105d4565b6040516101fb91906133a3565b60405180910390f35b61020c610613565b6040516102199190613635565b60405180910390f35b61022a610906565b60405161023791906137c4565b60405180910390f35b610248610c0a565b6040516102559190613635565b60405180910390f35b61027860048036038101906102739190613947565b610efd565b005b610294600480360381019061028f9190613335565b6110a5565b6040516102a191906133a3565b60405180910390f35b6102c460048036038101906102bf91906139a3565b6110e4565b6040516102d19190613a60565b60405180910390f35b6102f460048036038101906102ef9190613947565b6113fb565b005b610310600480360381019061030b9190613335565b6115a3565b60405161031d91906133a3565b60405180910390f35b61032e6115e2565b60405161033b91906137c4565b60405180910390f35b61035e60048036038101906103599190613a82565b6118e6565b005b61037a600480360381019061037591906139a3565b611aec565b005b61039660048036038101906103919190613a82565b611d53565b005b6103b260048036038101906103ad9190613947565b611e3f565b005b6103ce60048036038101906103c99190613a82565b61204a565b005b6103ea60048036038101906103e59190613335565b612136565b6040516103f791906133a3565b60405180910390f35b610408612175565b6040516104159190613b15565b60405180910390f35b610426612203565b60405161043391906137c4565b60405180910390f35b610456600480360381019061045191906139a3565b612507565b60405161046896959493929190613b55565b60405180910390f35b610479612680565b60405161048691906133a3565b60405180910390f35b6104976126a4565b6040516104a49190613bc4565b60405180910390f35b6104c760048036038101906104c29190613335565b6126aa565b6040516104d491906133a3565b60405180910390f35b6104f760048036038101906104f29190613a82565b6126e9565b005b610513600480360381019061050e91906139a3565b6128d7565b60405161052596959493929190613bee565b60405180910390f35b610536612a5d565b6040516105439190613ced565b60405180910390f35b610554612d01565b6040516105619190613bc4565b60405180910390f35b610572612d07565b60405161057f9190613ced565b60405180910390f35b6105a2600480360381019061059d91906139a3565b612d1c565b6040516105af9190613ced565b60405180910390f35b6105d260048036038101906105cd9190613947565b613022565b005b600881815481106105e457600080fd5b906000526020600020016000915054906101000a900473ffffffffffffffffffffffffffffffffffffffff1681565b6060600060088054905067ffffffffffffffff8111156106365761063561381c565b5b60405190808252806020026020018201604052801561066f57816020015b61065c61322d565b8152602001906001900390816106545790505b50905060005b6008805490508110156108fe57600760006008838154811061069a57610699613d0f565b5b9060005260206000200160009054906101000a900473ffffffffffffffffffffffffffffffffffffffff1673ffffffffffffffffffffffffffffffffffffffff1673ffffffffffffffffffffffffffffffffffffffff1681526020019081526020016000206040518060c001604052908160008201805461071a90613d6d565b80601f016020809104026020016040519081016040528092919081815260200182805461074690613d6d565b80156107935780601f1061076857610100808354040283529160200191610793565b820191906000526020600020905b81548152906001019060200180831161077657829003601f168201915b505050505081526020016001820180546107ac90613d6d565b80601f01602080910402602001604051908101604052809291908181526020018280546107d890613d6d565b80156108255780601f106107fa57610100808354040283529160200191610825565b820191906000526020600020905b81548152906001019060200180831161080857829003601f168201915b5050505050815260200160028201548152602001600382015481526020016004820160009054906101000a900473ffffffffffffffffffffffffffffffffffffffff1673ffffffffffffffffffffffffffffffffffffffff1673ffffffffffffffffffffffffffffffffffffffff1681526020016004820160149054906101000a900460ff1660028111156108bd576108bc613498565b5b60028111156108cf576108ce613498565b5b815250508282815181106108e6576108e5613d0f565b5b60200260200101819052508080600101915050610675565b508091505090565b60606000600b8054905067ffffffffffffffff8111156109295761092861381c565b5b60405190808252806020026020018201604052801561096257816020015b61094f61328b565b8152602001906001900390816109475790505b50905060005b600b80549050811015610c025760066000600b838154811061098d5761098c613d0f565b5b9060005260206000200160009054906101000a900473ffffffffffffffffffffffffffffffffffffffff1673ffffffffffffffffffffffffffffffffffffffff1673ffffffffffffffffffffffffffffffffffffffff1681526020019081526020016000206040518060c00160405290816000820160009054906101000a900460ff16151515158152602001600182018054610a2890613d6d565b80601f0160208091040260200160405190810160405280929190818152602001828054610a5490613d6d565b8015610aa15780601f10610a7657610100808354040283529160200191610aa1565b820191906000526020600020905b815481529060010190602001808311610a8457829003601f168201915b50505050508152602001600282018054610aba90613d6d565b80601f0160208091040260200160405190810160405280929190818152602001828054610ae690613d6d565b8015610b335780601f10610b0857610100808354040283529160200191610b33565b820191906000526020600020905b815481529060010190602001808311610b1657829003601f168201915b50505050508152602001600382015481526020016004820160009054906101000a900473ffffffffffffffffffffffffffffffffffffffff1673ffffffffffffffffffffffffffffffffffffffff1673ffffffffffffffffffffffffffffffffffffffff1681526020016004820160149054906101000a900460ff166002811115610bc157610bc0613498565b5b6002811115610bd357610bd2613498565b5b81525050828281518110610bea57610be9613d0f565b5b60200260200101819052508080600101915050610968565b508091505090565b60606000600a8054905067ffffffffffffffff811115610c2d57610c2c61381c565b5b604051908082528060200260200182016040528015610c6657816020015b610c5361322d565b815260200190600190039081610c4b5790505b50905060005b600a80549050811015610ef55760076000600a8381548110610c9157610c90613d0f565b5b9060005260206000200160009054906101000a900473ffffffffffffffffffffffffffffffffffffffff1673ffffffffffffffffffffffffffffffffffffffff1673ffffffffffffffffffffffffffffffffffffffff1681526020019081526020016000206040518060c0016040529081600082018054610d1190613d6d565b80601f0160208091040260200160405190810160405280929190818152602001828054610d3d90613d6d565b8015610d8a5780601f10610d5f57610100808354040283529160200191610d8a565b820191906000526020600020905b815481529060010190602001808311610d6d57829003601f168201915b50505050508152602001600182018054610da390613d6d565b80601f0160208091040260200160405190810160405280929190818152602001828054610dcf90613d6d565b8015610e1c5780601f10610df157610100808354040283529160200191610e1c565b820191906000526020600020905b815481529060010190602001808311610dff57829003601f168201915b5050505050815260200160028201548152602001600382015481526020016004820160009054906101000a900473ffffffffffffffffffffffffffffffffffffffff1673ffffffffffffffffffffffffffffffffffffffff1673ffffffffffffffffffffffffffffffffffffffff1681526020016004820160149054906101000a900460ff166002811115610eb457610eb3613498565b5b6002811115610ec657610ec5613498565b5b81525050828281518110610edd57610edc613d0f565b5b60200260200101819052508080600101915050610c6c565b508091505090565b60008054906101000a900473ffffffffffffffffffffffffffffffffffffffff1673ffffffffffffffffffffffffffffffffffffffff163373ffffffffffffffffffffffffffffffffffffffff1614610f8b576040517f08c379a0000000000000000000000000000000000000000000000000000000008152600401610f8290613dea565b60405180910390fd5b6000600660008473ffffffffffffffffffffffffffffffffffffffff1673ffffffffffffffffffffffffffffffffffffffff1681526020019081526020016000209050600073ffffffffffffffffffffffffffffffffffffffff168160040160009054906101000a900473ffffffffffffffffffffffffffffffffffffffff1673ffffffffffffffffffffffffffffffffffffffff1603611061576040517f08c379a000000000000000000000000000000000000000000000000000000000815260040161105890613e56565b60405180910390fd5b60028160040160146101000a81548160ff0219169083600281111561108957611088613498565b5b02179055508181600201908161109f9190614022565b50505050565b600b81815481106110b557600080fd5b906000526020600020016000915054906101000a900473ffffffffffffffffffffffffffffffffffffffff1681565b6110ec61328b565b6000600660008473ffffffffffffffffffffffffffffffffffffffff1673ffffffffffffffffffffffffffffffffffffffff1681526020019081526020016000206040518060c00160405290816000820160009054906101000a900460ff1615151515815260200160018201805461116390613d6d565b80601f016020809104026020016040519081016040528092919081815260200182805461118f90613d6d565b80156111dc5780601f106111b1576101008083540402835291602001916111dc565b820191906000526020600020905b8154815290600101906020018083116111bf57829003601f168201915b505050505081526020016002820180546111f590613d6d565b80601f016020809104026020016040519081016040528092919081815260200182805461122190613d6d565b801561126e5780601f106112435761010080835404028352916020019161126e565b820191906000526020600020905b81548152906001019060200180831161125157829003601f168201915b50505050508152602001600382015481526020016004820160009054906101000a900473ffffffffffffffffffffffffffffffffffffffff1673ffffffffffffffffffffffffffffffffffffffff1673ffffffffffffffffffffffffffffffffffffffff1681526020016004820160149054906101000a900460ff1660028111156112fc576112fb613498565b5b600281111561130e5761130d613498565b5b815250509050600073ffffffffffffffffffffffffffffffffffffffff16816080015173ffffffffffffffffffffffffffffffffffffffff1603611387576040517f08c379a000000000000000000000000000000000000000000000000000000000815260040161137e90614140565b60405180910390fd5b6001600281111561139b5761139a613498565b5b8160a0015160028111156113b2576113b1613498565b5b146113f2576040517f08c379a00000000000000000000000000000000000000000000000000000000081526004016113e9906141ac565b60405180910390fd5b80915050919050565b60008054906101000a900473ffffffffffffffffffffffffffffffffffffffff1673ffffffffffffffffffffffffffffffffffffffff163373ffffffffffffffffffffffffffffffffffffffff1614611489576040517f08c379a000000000000000000000000000000000000000000000000000000000815260040161148090613dea565b60405180910390fd5b6000600760008473ffffffffffffffffffffffffffffffffffffffff1673ffffffffffffffffffffffffffffffffffffffff1681526020019081526020016000209050600073ffffffffffffffffffffffffffffffffffffffff168160040160009054906101000a900473ffffffffffffffffffffffffffffffffffffffff1673ffffffffffffffffffffffffffffffffffffffff160361155f576040517f08c379a000000000000000000000000000000000000000000000000000000000815260040161155690614218565b60405180910390fd5b60028160040160146101000a81548160ff0219169083600281111561158757611586613498565b5b02179055508181600101908161159d9190614022565b50505050565b600c81815481106115b357600080fd5b906000526020600020016000915054906101000a900473ffffffffffffffffffffffffffffffffffffffff1681565b6060600060098054905067ffffffffffffffff8111156116055761160461381c565b5b60405190808252806020026020018201604052801561163e57816020015b61162b61328b565b8152602001906001900390816116235790505b50905060005b6009805490508110156118de57600660006009838154811061166957611668613d0f565b5b9060005260206000200160009054906101000a900473ffffffffffffffffffffffffffffffffffffffff1673ffffffffffffffffffffffffffffffffffffffff1673ffffffffffffffffffffffffffffffffffffffff1681526020019081526020016000206040518060c00160405290816000820160009054906101000a900460ff1615151515815260200160018201805461170490613d6d565b80601f016020809104026020016040519081016040528092919081815260200182805461173090613d6d565b801561177d5780601f106117525761010080835404028352916020019161177d565b820191906000526020600020905b81548152906001019060200180831161176057829003601f168201915b5050505050815260200160028201805461179690613d6d565b80601f01602080910402602001604051908101604052809291908181526020018280546117c290613d6d565b801561180f5780601f106117e45761010080835404028352916020019161180f565b820191906000526020600020905b8154815290600101906020018083116117f257829003601f168201915b50505050508152602001600382015481526020016004820160009054906101000a900473ffffffffffffffffffffffffffffffffffffffff1673ffffffffffffffffffffffffffffffffffffffff1673ffffffffffffffffffffffffffffffffffffffff1681526020016004820160149054906101000a900460ff16600281111561189d5761189c613498565b5b60028111156118af576118ae613498565b5b815250508282815181106118c6576118c5613d0f565b5b60200260200101819052508080600101915050611644565b508091505090565b60006040518060c001604052806000151581526020018381526020016040518060600160405280602181526020016145ca60219139815260200160055481526020013373ffffffffffffffffffffffffffffffffffffffff1681526020016000600281111561195857611957613498565b5b815250905080600660003373ffffffffffffffffffffffffffffffffffffffff1673ffffffffffffffffffffffffffffffffffffffff16815260200190815260200160002060008201518160000160006101000a81548160ff02191690831515021790555060208201518160010190816119d29190614022565b5060408201518160020190816119e89190614022565b506060820151816003015560808201518160040160006101000a81548173ffffffffffffffffffffffffffffffffffffffff021916908373ffffffffffffffffffffffffffffffffffffffff16021790555060a08201518160040160146101000a81548160ff02191690836002811115611a6557611a64613498565b5b02179055509050506009339080600181540180825580915050600190039060005260206000200160009091909190916101000a81548173ffffffffffffffffffffffffffffffffffffffff021916908373ffffffffffffffffffffffffffffffffffffffff16021790555060056000815480929190611ae390614267565b91905055505050565b6000600660003373ffffffffffffffffffffffffffffffffffffffff1673ffffffffffffffffffffffffffffffffffffffff168152602001908152602001600020905060016002811115611b4357611b42613498565b5b8160040160149054906101000a900460ff166002811115611b6757611b66613498565b5b14611ba7576040517f08c379a0000000000000000000000000000000000000000000000000000000008152600401611b9e906142fb565b60405180910390fd5b8060000160009054906101000a900460ff1615611bf9576040517f08c379a0000000000000000000000000000000000000000000000000000000008152600401611bf090614367565b60405180910390fd5b6000600760008473ffffffffffffffffffffffffffffffffffffffff1673ffffffffffffffffffffffffffffffffffffffff168152602001908152602001600020905060016002811115611c5057611c4f613498565b5b8160040160149054906101000a900460ff166002811115611c7457611c73613498565b5b14611cb4576040517f08c379a0000000000000000000000000000000000000000000000000000000008152600401611cab906143d3565b60405180910390fd5b60018260000160006101000a81548160ff021916908315150217905550806003016000815480929190611ce690614267565b9190505550600c339080600181540180825580915050600190039060005260206000200160009091909190916101000a81548173ffffffffffffffffffffffffffffffffffffffff021916908373ffffffffffffffffffffffffffffffffffffffff160217905550505050565b6000600760003373ffffffffffffffffffffffffffffffffffffffff1673ffffffffffffffffffffffffffffffffffffffff1681526020019081526020016000209050600073ffffffffffffffffffffffffffffffffffffffff168160040160009054906101000a900473ffffffffffffffffffffffffffffffffffffffff1673ffffffffffffffffffffffffffffffffffffffff1603611e29576040517f08c379a0000000000000000000000000000000000000000000000000000000008152600401611e209061443f565b60405180910390fd5b81816000019081611e3a9190614022565b505050565b60008054906101000a900473ffffffffffffffffffffffffffffffffffffffff1673ffffffffffffffffffffffffffffffffffffffff163373ffffffffffffffffffffffffffffffffffffffff1614611ecd576040517f08c379a0000000000000000000000000000000000000000000000000000000008152600401611ec490613dea565b60405180910390fd5b6000600760008473ffffffffffffffffffffffffffffffffffffffff1673ffffffffffffffffffffffffffffffffffffffff1681526020019081526020016000209050600073ffffffffffffffffffffffffffffffffffffffff168160040160009054906101000a900473ffffffffffffffffffffffffffffffffffffffff1673ffffffffffffffffffffffffffffffffffffffff1603611fa3576040517f08c379a0000000000000000000000000000000000000000000000000000000008152600401611f9a906144d1565b60405180910390fd5b60018160040160146101000a81548160ff02191690836002811115611fcb57611fca613498565b5b021790555081816001019081611fe19190614022565b50600a839080600181540180825580915050600190039060005260206000200160009091909190916101000a81548173ffffffffffffffffffffffffffffffffffffffff021916908373ffffffffffffffffffffffffffffffffffffffff160217905550505050565b6000600660003373ffffffffffffffffffffffffffffffffffffffff1673ffffffffffffffffffffffffffffffffffffffff1681526020019081526020016000209050600073ffffffffffffffffffffffffffffffffffffffff168160040160009054906101000a900473ffffffffffffffffffffffffffffffffffffffff1673ffffffffffffffffffffffffffffffffffffffff1603612120576040517f08c379a00000000000000000000000000000000000000000000000000000000081526004016121179061443f565b60405180910390fd5b818160010190816121319190614022565b505050565b6009818154811061214657600080fd5b906000526020600020016000915054906101000a900473ffffffffffffffffffffffffffffffffffffffff1681565b6001805461218290613d6d565b80601f01602080910402602001604051908101604052809291908181526020018280546121ae90613d6d565b80156121fb5780601f106121d0576101008083540402835291602001916121fb565b820191906000526020600020905b8154815290600101906020018083116121de57829003601f168201915b505050505081565b60606000600c8054905067ffffffffffffffff8111156122265761222561381c565b5b60405190808252806020026020018201604052801561225f57816020015b61224c61328b565b8152602001906001900390816122445790505b50905060005b600c805490508110156124ff5760066000600c838154811061228a57612289613d0f565b5b9060005260206000200160009054906101000a900473ffffffffffffffffffffffffffffffffffffffff1673ffffffffffffffffffffffffffffffffffffffff1673ffffffffffffffffffffffffffffffffffffffff1681526020019081526020016000206040518060c00160405290816000820160009054906101000a900460ff1615151515815260200160018201805461232590613d6d565b80601f016020809104026020016040519081016040528092919081815260200182805461235190613d6d565b801561239e5780601f106123735761010080835404028352916020019161239e565b820191906000526020600020905b81548152906001019060200180831161238157829003601f168201915b505050505081526020016002820180546123b790613d6d565b80601f01602080910402602001604051908101604052809291908181526020018280546123e390613d6d565b80156124305780601f1061240557610100808354040283529160200191612430565b820191906000526020600020905b81548152906001019060200180831161241357829003601f168201915b50505050508152602001600382015481526020016004820160009054906101000a900473ffffffffffffffffffffffffffffffffffffffff1673ffffffffffffffffffffffffffffffffffffffff1673ffffffffffffffffffffffffffffffffffffffff1681526020016004820160149054906101000a900460ff1660028111156124be576124bd613498565b5b60028111156124d0576124cf613498565b5b815250508282815181106124e7576124e6613d0f565b5b60200260200101819052508080600101915050612265565b508091505090565b600760205280600052604060002060009150905080600001805461252a90613d6d565b80601f016020809104026020016040519081016040528092919081815260200182805461255690613d6d565b80156125a35780601f10612578576101008083540402835291602001916125a3565b820191906000526020600020905b81548152906001019060200180831161258657829003601f168201915b5050505050908060010180546125b890613d6d565b80601f01602080910402602001604051908101604052809291908181526020018280546125e490613d6d565b80156126315780601f1061260657610100808354040283529160200191612631565b820191906000526020600020905b81548152906001019060200180831161261457829003601f168201915b5050505050908060020154908060030154908060040160009054906101000a900473ffffffffffffffffffffffffffffffffffffffff16908060040160149054906101000a900460ff16905086565b60008054906101000a900473ffffffffffffffffffffffffffffffffffffffff1681565b60035481565b600a81815481106126ba57600080fd5b906000526020600020016000915054906101000a900473ffffffffffffffffffffffffffffffffffffffff1681565b60006040518060c001604052808381526020016040518060600160405280602181526020016145ca6021913981526020016004548152602001600081526020013373ffffffffffffffffffffffffffffffffffffffff1681526020016000600281111561275957612758613498565b5b815250905080600760003373ffffffffffffffffffffffffffffffffffffffff1673ffffffffffffffffffffffffffffffffffffffff16815260200190815260200160002060008201518160000190816127b39190614022565b5060208201518160010190816127c99190614022565b50604082015181600201556060820151816003015560808201518160040160006101000a81548173ffffffffffffffffffffffffffffffffffffffff021916908373ffffffffffffffffffffffffffffffffffffffff16021790555060a08201518160040160146101000a81548160ff021916908360028111156128505761284f613498565b5b02179055509050506008339080600181540180825580915050600190039060005260206000200160009091909190916101000a81548173ffffffffffffffffffffffffffffffffffffffff021916908373ffffffffffffffffffffffffffffffffffffffff160217905550600460008154809291906128ce90614267565b91905055505050565b60066020528060005260406000206000915090508060000160009054906101000a900460ff169080600101805461290d90613d6d565b80601f016020809104026020016040519081016040528092919081815260200182805461293990613d6d565b80156129865780601f1061295b57610100808354040283529160200191612986565b820191906000526020600020905b81548152906001019060200180831161296957829003601f168201915b50505050509080600201805461299b90613d6d565b80601f01602080910402602001604051908101604052809291908181526020018280546129c790613d6d565b8015612a145780601f106129e957610100808354040283529160200191612a14565b820191906000526020600020905b8154815290600101906020018083116129f757829003601f168201915b5050505050908060030154908060040160009054906101000a900473ffffffffffffffffffffffffffffffffffffffff16908060040160149054906101000a900460ff16905086565b612a6561322d565b612a6d61322d565b6000805b600a80549050811015612cf857600060076000600a8481548110612a9857612a97613d0f565b5b9060005260206000200160009054906101000a900473ffffffffffffffffffffffffffffffffffffffff1673ffffffffffffffffffffffffffffffffffffffff1673ffffffffffffffffffffffffffffffffffffffff1681526020019081526020016000206040518060c0016040529081600082018054612b1890613d6d565b80601f0160208091040260200160405190810160405280929190818152602001828054612b4490613d6d565b8015612b915780601f10612b6657610100808354040283529160200191612b91565b820191906000526020600020905b815481529060010190602001808311612b7457829003601f168201915b50505050508152602001600182018054612baa90613d6d565b80601f0160208091040260200160405190810160405280929190818152602001828054612bd690613d6d565b8015612c235780601f10612bf857610100808354040283529160200191612c23565b820191906000526020600020905b815481529060010190602001808311612c0657829003601f168201915b5050505050815260200160028201548152602001600382015481526020016004820160009054906101000a900473ffffffffffffffffffffffffffffffffffffffff1673ffffffffffffffffffffffffffffffffffffffff1673ffffffffffffffffffffffffffffffffffffffff1681526020016004820160149054906101000a900460ff166002811115612cbb57612cba613498565b5b6002811115612ccd57612ccc613498565b5b8152505090508281606001511115612cea57806060015192508093505b508080600101915050612a71565b50819250505090565b60025481565b612d0f61322d565b612d17612a5d565b905090565b612d2461322d565b6000600760008473ffffffffffffffffffffffffffffffffffffffff1673ffffffffffffffffffffffffffffffffffffffff1681526020019081526020016000206040518060c0016040529081600082018054612d8090613d6d565b80601f0160208091040260200160405190810160405280929190818152602001828054612dac90613d6d565b8015612df95780601f10612dce57610100808354040283529160200191612df9565b820191906000526020600020905b815481529060010190602001808311612ddc57829003601f168201915b50505050508152602001600182018054612e1290613d6d565b80601f0160208091040260200160405190810160405280929190818152602001828054612e3e90613d6d565b8015612e8b5780601f10612e6057610100808354040283529160200191612e8b565b820191906000526020600020905b815481529060010190602001808311612e6e57829003601f168201915b5050505050815260200160028201548152602001600382015481526020016004820160009054906101000a900473ffffffffffffffffffffffffffffffffffffffff1673ffffffffffffffffffffffffffffffffffffffff1673ffffffffffffffffffffffffffffffffffffffff1681526020016004820160149054906101000a900460ff166002811115612f2357612f22613498565b5b6002811115612f3557612f34613498565b5b815250509050600073ffffffffffffffffffffffffffffffffffffffff16816080015173ffffffffffffffffffffffffffffffffffffffff1603612fae576040517f08c379a0000000000000000000000000000000000000000000000000000000008152600401612fa59061453d565b60405180910390fd5b60016002811115612fc257612fc1613498565b5b8160a001516002811115612fd957612fd8613498565b5b14613019576040517f08c379a0000000000000000000000000000000000000000000000000000000008152600401613010906145a9565b60405180910390fd5b80915050919050565b60008054906101000a900473ffffffffffffffffffffffffffffffffffffffff1673ffffffffffffffffffffffffffffffffffffffff163373ffffffffffffffffffffffffffffffffffffffff16146130b0576040517f08c379a00000000000000000000000000000000000000000000000000000000081526004016130a790613dea565b60405180910390fd5b6000600660008473ffffffffffffffffffffffffffffffffffffffff1673ffffffffffffffffffffffffffffffffffffffff1681526020019081526020016000209050600073ffffffffffffffffffffffffffffffffffffffff168160040160009054906101000a900473ffffffffffffffffffffffffffffffffffffffff1673ffffffffffffffffffffffffffffffffffffffff1603613186576040517f08c379a000000000000000000000000000000000000000000000000000000000815260040161317d906144d1565b60405180910390fd5b60018160040160146101000a81548160ff021916908360028111156131ae576131ad613498565b5b0217905550818160020190816131c49190614022565b50600b839080600181540180825580915050600190039060005260206000200160009091909190916101000a81548173ffffffffffffffffffffffffffffffffffffffff021916908373ffffffffffffffffffffffffffffffffffffffff160217905550505050565b6040518060c0016040528060608152602001606081526020016000815260200160008152602001600073ffffffffffffffffffffffffffffffffffffffff1681526020016000600281111561328557613284613498565b5b81525090565b6040518060c00160405280600015158152602001606081526020016060815260200160008152602001600073ffffffffffffffffffffffffffffffffffffffff168152602001600060028111156132e5576132e4613498565b5b81525090565b6000604051905090565b600080fd5b600080fd5b6000819050919050565b613312816132ff565b811461331d57600080fd5b50565b60008135905061332f81613309565b92915050565b60006020828403121561334b5761334a6132f5565b5b600061335984828501613320565b91505092915050565b600073ffffffffffffffffffffffffffffffffffffffff82169050919050565b600061338d82613362565b9050919050565b61339d81613382565b82525050565b60006020820190506133b86000830184613394565b92915050565b600081519050919050565b600082825260208201905092915050565b6000819050602082019050919050565b600081519050919050565b600082825260208201905092915050565b60005b83811015613424578082015181840152602081019050613409565b60008484015250505050565b6000601f19601f8301169050919050565b600061344c826133ea565b61345681856133f5565b9350613466818560208601613406565b61346f81613430565b840191505092915050565b613483816132ff565b82525050565b61349281613382565b82525050565b7f4e487b7100000000000000000000000000000000000000000000000000000000600052602160045260246000fd5b600381106134d8576134d7613498565b5b50565b60008190506134e9826134c7565b919050565b60006134f9826134db565b9050919050565b613509816134ee565b82525050565b600060c083016000830151848203600086015261352c8282613441565b915050602083015184820360208601526135468282613441565b915050604083015161355b604086018261347a565b50606083015161356e606086018261347a565b5060808301516135816080860182613489565b5060a083015161359460a0860182613500565b508091505092915050565b60006135ab838361350f565b905092915050565b6000602082019050919050565b60006135cb826133be565b6135d581856133c9565b9350836020820285016135e7856133da565b8060005b858110156136235784840389528151613604858261359f565b945061360f836135b3565b925060208a019950506001810190506135eb565b50829750879550505050505092915050565b6000602082019050818103600083015261364f81846135c0565b905092915050565b600081519050919050565b600082825260208201905092915050565b6000819050602082019050919050565b60008115159050919050565b61369881613683565b82525050565b600060c0830160008301516136b6600086018261368f565b50602083015184820360208601526136ce8282613441565b915050604083015184820360408601526136e88282613441565b91505060608301516136fd606086018261347a565b5060808301516137106080860182613489565b5060a083015161372360a0860182613500565b508091505092915050565b600061373a838361369e565b905092915050565b6000602082019050919050565b600061375a82613657565b6137648185613662565b93508360208202850161377685613673565b8060005b858110156137b25784840389528151613793858261372e565b945061379e83613742565b925060208a0199505060018101905061377a565b50829750879550505050505092915050565b600060208201905081810360008301526137de818461374f565b905092915050565b6137ef81613382565b81146137fa57600080fd5b50565b60008135905061380c816137e6565b92915050565b600080fd5b600080fd5b7f4e487b7100000000000000000000000000000000000000000000000000000000600052604160045260246000fd5b61385482613430565b810181811067ffffffffffffffff821117156138735761387261381c565b5b80604052505050565b60006138866132eb565b9050613892828261384b565b919050565b600067ffffffffffffffff8211156138b2576138b161381c565b5b6138bb82613430565b9050602081019050919050565b82818337600083830152505050565b60006138ea6138e584613897565b61387c565b90508281526020810184848401111561390657613905613817565b5b6139118482856138c8565b509392505050565b600082601f83011261392e5761392d613812565b5b813561393e8482602086016138d7565b91505092915050565b6000806040838503121561395e5761395d6132f5565b5b600061396c858286016137fd565b925050602083013567ffffffffffffffff81111561398d5761398c6132fa565b5b61399985828601613919565b9150509250929050565b6000602082840312156139b9576139b86132f5565b5b60006139c7848285016137fd565b91505092915050565b600060c0830160008301516139e8600086018261368f565b5060208301518482036020860152613a008282613441565b91505060408301518482036040860152613a1a8282613441565b9150506060830151613a2f606086018261347a565b506080830151613a426080860182613489565b5060a0830151613a5560a0860182613500565b508091505092915050565b60006020820190508181036000830152613a7a81846139d0565b905092915050565b600060208284031215613a9857613a976132f5565b5b600082013567ffffffffffffffff811115613ab657613ab56132fa565b5b613ac284828501613919565b91505092915050565b600082825260208201905092915050565b6000613ae7826133ea565b613af18185613acb565b9350613b01818560208601613406565b613b0a81613430565b840191505092915050565b60006020820190508181036000830152613b2f8184613adc565b905092915050565b613b40816132ff565b82525050565b613b4f816134ee565b82525050565b600060c0820190508181036000830152613b6f8189613adc565b90508181036020830152613b838188613adc565b9050613b926040830187613b37565b613b9f6060830186613b37565b613bac6080830185613394565b613bb960a0830184613b46565b979650505050505050565b6000602082019050613bd96000830184613b37565b92915050565b613be881613683565b82525050565b600060c082019050613c036000830189613bdf565b8181036020830152613c158188613adc565b90508181036040830152613c298187613adc565b9050613c386060830186613b37565b613c456080830185613394565b613c5260a0830184613b46565b979650505050505050565b600060c0830160008301518482036000860152613c7a8282613441565b91505060208301518482036020860152613c948282613441565b9150506040830151613ca9604086018261347a565b506060830151613cbc606086018261347a565b506080830151613ccf6080860182613489565b5060a0830151613ce260a0860182613500565b508091505092915050565b60006020820190508181036000830152613d078184613c5d565b905092915050565b7f4e487b7100000000000000000000000000000000000000000000000000000000600052603260045260246000fd5b7f4e487b7100000000000000000000000000000000000000000000000000000000600052602260045260246000fd5b60006002820490506001821680613d8557607f821691505b602082108103613d9857613d97613d3e565b5b50919050565b7f4f6e6c79206f776e657200000000000000000000000000000000000000000000600082015250565b6000613dd4600a83613acb565b9150613ddf82613d9e565b602082019050919050565b60006020820190508181036000830152613e0381613dc7565b9050919050565b7f4e6f20766f746572206461746120617661696c61626c65000000000000000000600082015250565b6000613e40601783613acb565b9150613e4b82613e0a565b602082019050919050565b60006020820190508181036000830152613e6f81613e33565b9050919050565b60008190508160005260206000209050919050565b60006020601f8301049050919050565b600082821b905092915050565b600060088302613ed87fffffffffffffffffffffffffffffffffffffffffffffffffffffffffffffffff82613e9b565b613ee28683613e9b565b95508019841693508086168417925050509392505050565b6000819050919050565b6000613f1f613f1a613f15846132ff565b613efa565b6132ff565b9050919050565b6000819050919050565b613f3983613f04565b613f4d613f4582613f26565b848454613ea8565b825550505050565b600090565b613f62613f55565b613f6d818484613f30565b505050565b5b81811015613f9157613f86600082613f5a565b600181019050613f73565b5050565b601f821115613fd657613fa781613e76565b613fb084613e8b565b81016020851015613fbf578190505b613fd3613fcb85613e8b565b830182613f72565b50505b505050565b600082821c905092915050565b6000613ff960001984600802613fdb565b1980831691505092915050565b60006140128383613fe8565b9150826002028217905092915050565b61402b826133ea565b67ffffffffffffffff8111156140445761404361381c565b5b61404e8254613d6d565b614059828285613f95565b600060209050601f83116001811461408c576000841561407a578287015190505b6140848582614006565b8655506140ec565b601f19841661409a86613e76565b60005b828110156140c25784890151825560018201915060208501945060208101905061409d565b868310156140df57848901516140db601f891682613fe8565b8355505b6001600288020188555050505b505050505050565b7f566f746572206e6f7420666f756e640000000000000000000000000000000000600082015250565b600061412a600f83613acb565b9150614135826140f4565b602082019050919050565b600060208201905081810360008301526141598161411d565b9050919050565b7f566f746572206973206e6f742061636365707465640000000000000000000000600082015250565b6000614196601583613acb565b91506141a182614160565b602082019050919050565b600060208201905081810360008301526141c581614189565b9050919050565b7f4e6f2063616e646964617465206461746120617661696c61626c650000000000600082015250565b6000614202601b83613acb565b915061420d826141cc565b602082019050919050565b60006020820190508181036000830152614231816141f5565b9050919050565b7f4e487b7100000000000000000000000000000000000000000000000000000000600052601160045260246000fd5b6000614272826132ff565b91507fffffffffffffffffffffffffffffffffffffffffffffffffffffffffffffffff82036142a4576142a3614238565b5b600182019050919050565b7f596f7520617265206e6f74206120636f6e6669726d656420766f7465722e0000600082015250565b60006142e5601e83613acb565b91506142f0826142af565b602082019050919050565b60006020820190508181036000830152614314816142d8565b9050919050565b7f596f75206861766520616c726561647920766f74656400000000000000000000600082015250565b6000614351601683613acb565b915061435c8261431b565b602082019050919050565b6000602082019050818103600083015261438081614344565b9050919050565b7f43616e646964617465206973206e6f742061636365707465642e000000000000600082015250565b60006143bd601a83613acb565b91506143c882614387565b602082019050919050565b600060208201905081810360008301526143ec816143b0565b9050919050565b7f4e6f20766f746572206461746120617661696c61626c652e0000000000000000600082015250565b6000614429601883613acb565b9150614434826143f3565b602082019050919050565b600060208201905081810360008301526144588161441c565b9050919050565b7f5468697320766f74657220646f6573206e6f742061707065617220696e206f7560008201527f722073797374656d2e0000000000000000000000000000000000000000000000602082015250565b60006144bb602983613acb565b91506144c68261445f565b604082019050919050565b600060208201905081810360008301526144ea816144ae565b9050919050565b7f43616e646964617465206e6f7420666f756e6400000000000000000000000000600082015250565b6000614527601383613acb565b9150614532826144f1565b602082019050919050565b600060208201905081810360008301526145568161451a565b9050919050565b7f43616e646964617465206973206e6f7420616363657074656400000000000000600082015250565b6000614593601983613acb565b915061459e8261455d565b602082019050919050565b600060208201905081810360008301526145c281614586565b905091905056fe526567697374726174696f6e206973206177616974696e6720617070726f76616ca2646970667358221220c406d3abf6566506b5bdbda2543c0a1393a6d9210a4f473cfc3bcfd80bee9f2564736f6c634300081c0033",
  "linkReferences": {},
  "deployedLinkReferences": {}
}