{
  "_format": "hh-sol-artifact-1",
  "contractName": "VotingSystem",
  "sourceName": "contracts/VotingSystem.sol",
  "abi": [
    {
      "inputs": [
        {
          "internalType": "string",
          "name": "_name",
          "type": "string"
        }
      ],
      "stateMutability": "nonpayable",
      "type": "constructor"
    },
    {
      "inputs": [],
      "name": "CurrentVotingStatus",
      "outputs": [
        {
          "components": [
            {
              "internalType": "string",
              "name": "name",
              "type": "string"
            },
            {
              "internalType": "string",
              "name": "message",
              "type": "string"
            },
            {
              "internalType": "uint256",
              "name": "age",
              "type": "uint256"
            },
            {
              "internalType": "string",
              "name": "email",
              "type": "string"
            },
            {
              "internalType": "string",
              "name": "phone",
              "type": "string"
            },
            {
              "internalType": "uint256",
              "name": "registeredId",
              "type": "uint256"
            },
            {
              "internalType": "uint256",
              "name": "voteCalculation",
              "type": "uint256"
            },
            {
              "internalType": "address",
              "name": "candidatesAddress",
              "type": "address"
            },
            {
              "internalType": "enum VotingSystem.ConfirmationStatus",
              "name": "status",
              "type": "uint8"
            }
          ],
          "internalType": "struct VotingSystem.Candidate",
          "name": "",
          "type": "tuple"
        }
      ],
      "stateMutability": "view",
      "type": "function"
    },
    {
      "inputs": [],
      "name": "ListofAcceptedCandidates",
      "outputs": [
        {
          "components": [
            {
              "internalType": "string",
              "name": "name",
              "type": "string"
            },
            {
              "internalType": "string",
              "name": "message",
              "type": "string"
            },
            {
              "internalType": "uint256",
              "name": "age",
              "type": "uint256"
            },
            {
              "internalType": "string",
              "name": "email",
              "type": "string"
            },
            {
              "internalType": "string",
              "name": "phone",
              "type": "string"
            },
            {
              "internalType": "uint256",
              "name": "registeredId",
              "type": "uint256"
            },
            {
              "internalType": "uint256",
              "name": "voteCalculation",
              "type": "uint256"
            },
            {
              "internalType": "address",
              "name": "candidatesAddress",
              "type": "address"
            },
            {
              "internalType": "enum VotingSystem.ConfirmationStatus",
              "name": "status",
              "type": "uint8"
            }
          ],
          "internalType": "struct VotingSystem.Candidate[]",
          "name": "",
          "type": "tuple[]"
        }
      ],
      "stateMutability": "view",
      "type": "function"
    },
    {
      "inputs": [],
      "name": "ListofAcceptedVoters",
      "outputs": [
        {
          "components": [
            {
              "internalType": "bool",
              "name": "alreadyVoted",
              "type": "bool"
            },
            {
              "internalType": "string",
              "name": "name",
              "type": "string"
            },
            {
              "internalType": "uint256",
              "name": "age",
              "type": "uint256"
            },
            {
              "internalType": "string",
              "name": "email",
              "type": "string"
            },
            {
              "internalType": "string",
              "name": "phone",
              "type": "string"
            },
            {
              "internalType": "string",
              "name": "message",
              "type": "string"
            },
            {
              "internalType": "uint256",
              "name": "registeredId",
              "type": "uint256"
            },
            {
              "internalType": "address",
              "name": "votersAddress",
              "type": "address"
            },
            {
              "internalType": "enum VotingSystem.ConfirmationStatus",
              "name": "status",
              "type": "uint8"
            }
          ],
          "internalType": "struct VotingSystem.Voter[]",
          "name": "",
          "type": "tuple[]"
        }
      ],
      "stateMutability": "view",
      "type": "function"
    },
    {
      "inputs": [],
      "name": "ListofRegisteredCandidates",
      "outputs": [
        {
          "components": [
            {
              "internalType": "string",
              "name": "name",
              "type": "string"
            },
            {
              "internalType": "string",
              "name": "message",
              "type": "string"
            },
            {
              "internalType": "uint256",
              "name": "age",
              "type": "uint256"
            },
            {
              "internalType": "string",
              "name": "email",
              "type": "string"
            },
            {
              "internalType": "string",
              "name": "phone",
              "type": "string"
            },
            {
              "internalType": "uint256",
              "name": "registeredId",
              "type": "uint256"
            },
            {
              "internalType": "uint256",
              "name": "voteCalculation",
              "type": "uint256"
            },
            {
              "internalType": "address",
              "name": "candidatesAddress",
              "type": "address"
            },
            {
              "internalType": "enum VotingSystem.ConfirmationStatus",
              "name": "status",
              "type": "uint8"
            }
          ],
          "internalType": "struct VotingSystem.Candidate[]",
          "name": "",
          "type": "tuple[]"
        }
      ],
      "stateMutability": "view",
      "type": "function"
    },
    {
      "inputs": [],
      "name": "ListofRegisteredVoters",
      "outputs": [
        {
          "components": [
            {
              "internalType": "bool",
              "name": "alreadyVoted",
              "type": "bool"
            },
            {
              "internalType": "string",
              "name": "name",
              "type": "string"
            },
            {
              "internalType": "uint256",
              "name": "age",
              "type": "uint256"
            },
            {
              "internalType": "string",
              "name": "email",
              "type": "string"
            },
            {
              "internalType": "string",
              "name": "phone",
              "type": "string"
            },
            {
              "internalType": "string",
              "name": "message",
              "type": "string"
            },
            {
              "internalType": "uint256",
              "name": "registeredId",
              "type": "uint256"
            },
            {
              "internalType": "address",
              "name": "votersAddress",
              "type": "address"
            },
            {
              "internalType": "enum VotingSystem.ConfirmationStatus",
              "name": "status",
              "type": "uint8"
            }
          ],
          "internalType": "struct VotingSystem.Voter[]",
          "name": "",
          "type": "tuple[]"
        }
      ],
      "stateMutability": "view",
      "type": "function"
    },
    {
      "inputs": [],
      "name": "ListofRejectedCandidates",
      "outputs": [
        {
          "components": [
            {
              "internalType": "string",
              "name": "name",
              "type": "string"
            },
            {
              "internalType": "string",
              "name": "message",
              "type": "string"
            },
            {
              "internalType": "uint256",
              "name": "age",
              "type": "uint256"
            },
            {
              "internalType": "string",
              "name": "email",
              "type": "string"
            },
            {
              "internalType": "string",
              "name": "phone",
              "type": "string"
            },
            {
              "internalType": "uint256",
              "name": "registeredId",
              "type": "uint256"
            },
            {
              "internalType": "uint256",
              "name": "voteCalculation",
              "type": "uint256"
            },
            {
              "internalType": "address",
              "name": "candidatesAddress",
              "type": "address"
            },
            {
              "internalType": "enum VotingSystem.ConfirmationStatus",
              "name": "status",
              "type": "uint8"
            }
          ],
          "internalType": "struct VotingSystem.Candidate[]",
          "name": "",
          "type": "tuple[]"
        }
      ],
      "stateMutability": "view",
      "type": "function"
    },
    {
      "inputs": [],
      "name": "ListofRejectedVoters",
      "outputs": [
        {
          "components": [
            {
              "internalType": "bool",
              "name": "alreadyVoted",
              "type": "bool"
            },
            {
              "internalType": "string",
              "name": "name",
              "type": "string"
            },
            {
              "internalType": "uint256",
              "name": "age",
              "type": "uint256"
            },
            {
              "internalType": "string",
              "name": "email",
              "type": "string"
            },
            {
              "internalType": "string",
              "name": "phone",
              "type": "string"
            },
            {
              "internalType": "string",
              "name": "message",
              "type": "string"
            },
            {
              "internalType": "uint256",
              "name": "registeredId",
              "type": "uint256"
            },
            {
              "internalType": "address",
              "name": "votersAddress",
              "type": "address"
            },
            {
              "internalType": "enum VotingSystem.ConfirmationStatus",
              "name": "status",
              "type": "uint8"
            }
          ],
          "internalType": "struct VotingSystem.Voter[]",
          "name": "",
          "type": "tuple[]"
        }
      ],
      "stateMutability": "view",
      "type": "function"
    },
    {
      "inputs": [
        {
          "internalType": "uint256",
          "name": "",
          "type": "uint256"
        }
      ],
      "name": "acceptedCandidates",
      "outputs": [
        {
          "internalType": "address",
          "name": "",
          "type": "address"
        }
      ],
      "stateMutability": "view",
      "type": "function"
    },
    {
      "inputs": [
        {
          "internalType": "uint256",
          "name": "",
          "type": "uint256"
        }
      ],
      "name": "acceptedVoters",
      "outputs": [
        {
          "internalType": "address",
          "name": "",
          "type": "address"
        }
      ],
      "stateMutability": "view",
      "type": "function"
    },
    {
      "inputs": [
        {
          "internalType": "address",
          "name": "_candidatesAddress",
          "type": "address"
        },
        {
          "internalType": "string",
          "name": "_message",
          "type": "string"
        }
      ],
      "name": "approveCandidate",
      "outputs": [],
      "stateMutability": "nonpayable",
      "type": "function"
    },
    {
      "inputs": [
        {
          "internalType": "address",
          "name": "_votersAddress",
          "type": "address"
        },
        {
          "internalType": "string",
          "name": "_message",
          "type": "string"
        }
      ],
      "name": "approveVoter",
      "outputs": [],
      "stateMutability": "nonpayable",
      "type": "function"
    },
    {
      "inputs": [
        {
          "internalType": "address",
          "name": "",
          "type": "address"
        }
      ],
      "name": "candidates",
      "outputs": [
        {
          "internalType": "string",
          "name": "name",
          "type": "string"
        },
        {
          "internalType": "string",
          "name": "message",
          "type": "string"
        },
        {
          "internalType": "uint256",
          "name": "age",
          "type": "uint256"
        },
        {
          "internalType": "string",
          "name": "email",
          "type": "string"
        },
        {
          "internalType": "string",
          "name": "phone",
          "type": "string"
        },
        {
          "internalType": "uint256",
          "name": "registeredId",
          "type": "uint256"
        },
        {
          "internalType": "uint256",
          "name": "voteCalculation",
          "type": "uint256"
        },
        {
          "internalType": "address",
          "name": "candidatesAddress",
          "type": "address"
        },
        {
          "internalType": "enum VotingSystem.ConfirmationStatus",
          "name": "status",
          "type": "uint8"
        }
      ],
      "stateMutability": "view",
      "type": "function"
    },
    {
      "inputs": [
        {
          "internalType": "uint256",
          "name": "",
          "type": "uint256"
        }
      ],
      "name": "candidatesRegistered",
      "outputs": [
        {
          "internalType": "address",
          "name": "",
          "type": "address"
        }
      ],
      "stateMutability": "view",
      "type": "function"
    },
    {
      "inputs": [],
      "name": "electionName",
      "outputs": [
        {
          "internalType": "string",
          "name": "",
          "type": "string"
        }
      ],
      "stateMutability": "view",
      "type": "function"
    },
    {
      "inputs": [
        {
          "internalType": "address",
          "name": "_candidatesAddress",
          "type": "address"
        }
      ],
      "name": "findCandidate",
      "outputs": [
        {
          "components": [
            {
              "internalType": "string",
              "name": "name",
              "type": "string"
            },
            {
              "internalType": "string",
              "name": "message",
              "type": "string"
            },
            {
              "internalType": "uint256",
              "name": "age",
              "type": "uint256"
            },
            {
              "internalType": "string",
              "name": "email",
              "type": "string"
            },
            {
              "internalType": "string",
              "name": "phone",
              "type": "string"
            },
            {
              "internalType": "uint256",
              "name": "registeredId",
              "type": "uint256"
            },
            {
              "internalType": "uint256",
              "name": "voteCalculation",
              "type": "uint256"
            },
            {
              "internalType": "address",
              "name": "candidatesAddress",
              "type": "address"
            },
            {
              "internalType": "enum VotingSystem.ConfirmationStatus",
              "name": "status",
              "type": "uint8"
            }
          ],
          "internalType": "struct VotingSystem.Candidate",
          "name": "",
          "type": "tuple"
        }
      ],
      "stateMutability": "view",
      "type": "function"
    },
    {
      "inputs": [
        {
          "internalType": "address",
          "name": "_votersAddress",
          "type": "address"
        }
      ],
      "name": "findVoter",
      "outputs": [
        {
          "components": [
            {
              "internalType": "bool",
              "name": "alreadyVoted",
              "type": "bool"
            },
            {
              "internalType": "string",
              "name": "name",
              "type": "string"
            },
            {
              "internalType": "uint256",
              "name": "age",
              "type": "uint256"
            },
            {
              "internalType": "string",
              "name": "email",
              "type": "string"
            },
            {
              "internalType": "string",
              "name": "phone",
              "type": "string"
            },
            {
              "internalType": "string",
              "name": "message",
              "type": "string"
            },
            {
              "internalType": "uint256",
              "name": "registeredId",
              "type": "uint256"
            },
            {
              "internalType": "address",
              "name": "votersAddress",
              "type": "address"
            },
            {
              "internalType": "enum VotingSystem.ConfirmationStatus",
              "name": "status",
              "type": "uint8"
            }
          ],
          "internalType": "struct VotingSystem.Voter",
          "name": "",
          "type": "tuple"
        }
      ],
      "stateMutability": "view",
      "type": "function"
    },
    {
      "inputs": [],
      "name": "getAllVotersWhoCasted",
      "outputs": [
        {
          "components": [
            {
              "internalType": "bool",
              "name": "alreadyVoted",
              "type": "bool"
            },
            {
              "internalType": "string",
              "name": "name",
              "type": "string"
            },
            {
              "internalType": "uint256",
              "name": "age",
              "type": "uint256"
            },
            {
              "internalType": "string",
              "name": "email",
              "type": "string"
            },
            {
              "internalType": "string",
              "name": "phone",
              "type": "string"
            },
            {
              "internalType": "string",
              "name": "message",
              "type": "string"
            },
            {
              "internalType": "uint256",
              "name": "registeredId",
              "type": "uint256"
            },
            {
              "internalType": "address",
              "name": "votersAddress",
              "type": "address"
            },
            {
              "internalType": "enum VotingSystem.ConfirmationStatus",
              "name": "status",
              "type": "uint8"
            }
          ],
          "internalType": "struct VotingSystem.Voter[]",
          "name": "",
          "type": "tuple[]"
        }
      ],
      "stateMutability": "view",
      "type": "function"
    },
    {
      "inputs": [],
      "name": "owner",
      "outputs": [
        {
          "internalType": "address",
          "name": "",
          "type": "address"
        }
      ],
      "stateMutability": "view",
      "type": "function"
    },
    {
      "inputs": [
        {
          "internalType": "string",
          "name": "_name",
          "type": "string"
        },
        {
          "internalType": "uint256",
          "name": "_age",
          "type": "uint256"
        },
        {
          "internalType": "string",
          "name": "_email",
          "type": "string"
        },
        {
          "internalType": "string",
          "name": "_phone",
          "type": "string"
        }
      ],
      "name": "registerCandidate",
      "outputs": [],
      "stateMutability": "nonpayable",
      "type": "function"
    },
    {
      "inputs": [
        {
          "internalType": "string",
          "name": "_name",
          "type": "string"
        },
        {
          "internalType": "uint256",
          "name": "_age",
          "type": "uint256"
        },
        {
          "internalType": "string",
          "name": "_email",
          "type": "string"
        },
        {
          "internalType": "string",
          "name": "_phone",
          "type": "string"
        }
      ],
      "name": "registerVoter",
      "outputs": [],
      "stateMutability": "nonpayable",
      "type": "function"
    },
    {
      "inputs": [
        {
          "internalType": "address",
          "name": "_candidatesAddress",
          "type": "address"
        },
        {
          "internalType": "string",
          "name": "_message",
          "type": "string"
        }
      ],
      "name": "rejectCandidate",
      "outputs": [],
      "stateMutability": "nonpayable",
      "type": "function"
    },
    {
      "inputs": [
        {
          "internalType": "address",
          "name": "_votersAddress",
          "type": "address"
        },
        {
          "internalType": "string",
          "name": "_message",
          "type": "string"
        }
      ],
      "name": "rejectVoter",
      "outputs": [],
      "stateMutability": "nonpayable",
      "type": "function"
    },
    {
      "inputs": [
        {
          "internalType": "uint256",
          "name": "",
          "type": "uint256"
        }
      ],
      "name": "rejectedCandidates",
      "outputs": [
        {
          "internalType": "address",
          "name": "",
          "type": "address"
        }
      ],
      "stateMutability": "view",
      "type": "function"
    },
    {
      "inputs": [
        {
          "internalType": "uint256",
          "name": "",
          "type": "uint256"
        }
      ],
      "name": "rejectedVoters",
      "outputs": [
        {
          "internalType": "address",
          "name": "",
          "type": "address"
        }
      ],
      "stateMutability": "view",
      "type": "function"
    },
    {
      "inputs": [],
      "name": "resultPublicationTime",
      "outputs": [
        {
          "internalType": "uint256",
          "name": "",
          "type": "uint256"
        }
      ],
      "stateMutability": "view",
      "type": "function"
    },
    {
      "inputs": [
        {
          "internalType": "string",
          "name": "_name",
          "type": "string"
        },
        {
          "internalType": "address",
          "name": "_addr",
          "type": "address"
        }
      ],
      "name": "searchCandidate",
      "outputs": [
        {
          "components": [
            {
              "internalType": "string",
              "name": "name",
              "type": "string"
            },
            {
              "internalType": "string",
              "name": "message",
              "type": "string"
            },
            {
              "internalType": "uint256",
              "name": "age",
              "type": "uint256"
            },
            {
              "internalType": "string",
              "name": "email",
              "type": "string"
            },
            {
              "internalType": "string",
              "name": "phone",
              "type": "string"
            },
            {
              "internalType": "uint256",
              "name": "registeredId",
              "type": "uint256"
            },
            {
              "internalType": "uint256",
              "name": "voteCalculation",
              "type": "uint256"
            },
            {
              "internalType": "address",
              "name": "candidatesAddress",
              "type": "address"
            },
            {
              "internalType": "enum VotingSystem.ConfirmationStatus",
              "name": "status",
              "type": "uint8"
            }
          ],
          "internalType": "struct VotingSystem.Candidate[]",
          "name": "",
          "type": "tuple[]"
        }
      ],
      "stateMutability": "view",
      "type": "function"
    },
    {
      "inputs": [
        {
          "internalType": "string",
          "name": "_name",
          "type": "string"
        },
        {
          "internalType": "address",
          "name": "_addr",
          "type": "address"
        }
      ],
      "name": "searchVoter",
      "outputs": [
        {
          "components": [
            {
              "internalType": "bool",
              "name": "alreadyVoted",
              "type": "bool"
            },
            {
              "internalType": "string",
              "name": "name",
              "type": "string"
            },
            {
              "internalType": "uint256",
              "name": "age",
              "type": "uint256"
            },
            {
              "internalType": "string",
              "name": "email",
              "type": "string"
            },
            {
              "internalType": "string",
              "name": "phone",
              "type": "string"
            },
            {
              "internalType": "string",
              "name": "message",
              "type": "string"
            },
            {
              "internalType": "uint256",
              "name": "registeredId",
              "type": "uint256"
            },
            {
              "internalType": "address",
              "name": "votersAddress",
              "type": "address"
            },
            {
              "internalType": "enum VotingSystem.ConfirmationStatus",
              "name": "status",
              "type": "uint8"
            }
          ],
          "internalType": "struct VotingSystem.Voter[]",
          "name": "",
          "type": "tuple[]"
        }
      ],
      "stateMutability": "view",
      "type": "function"
    },
    {
      "inputs": [
        {
          "internalType": "uint256",
          "name": "_resultPublicationTime",
          "type": "uint256"
        }
      ],
      "name": "setResultPublicationTime",
      "outputs": [],
      "stateMutability": "nonpayable",
      "type": "function"
    },
    {
      "inputs": [
        {
          "internalType": "uint256",
          "name": "_votingStartTime",
          "type": "uint256"
        },
        {
          "internalType": "uint256",
          "name": "_votingEndTime",
          "type": "uint256"
        }
      ],
      "name": "startendVoting",
      "outputs": [],
      "stateMutability": "nonpayable",
      "type": "function"
    },
    {
      "inputs": [
        {
          "internalType": "string",
          "name": "_name",
          "type": "string"
        }
      ],
      "name": "updateCandidate",
      "outputs": [],
      "stateMutability": "nonpayable",
      "type": "function"
    },
    {
      "inputs": [
        {
          "internalType": "string",
          "name": "_name",
          "type": "string"
        }
      ],
      "name": "updateVoter",
      "outputs": [],
      "stateMutability": "nonpayable",
      "type": "function"
    },
    {
      "inputs": [
        {
          "internalType": "address",
          "name": "_candidatesAddress",
          "type": "address"
        }
      ],
      "name": "vote",
      "outputs": [],
      "stateMutability": "nonpayable",
      "type": "function"
    },
    {
      "inputs": [
        {
          "internalType": "address",
          "name": "",
          "type": "address"
        }
      ],
      "name": "voters",
      "outputs": [
        {
          "internalType": "bool",
          "name": "alreadyVoted",
          "type": "bool"
        },
        {
          "internalType": "string",
          "name": "name",
          "type": "string"
        },
        {
          "internalType": "uint256",
          "name": "age",
          "type": "uint256"
        },
        {
          "internalType": "string",
          "name": "email",
          "type": "string"
        },
        {
          "internalType": "string",
          "name": "phone",
          "type": "string"
        },
        {
          "internalType": "string",
          "name": "message",
          "type": "string"
        },
        {
          "internalType": "uint256",
          "name": "registeredId",
          "type": "uint256"
        },
        {
          "internalType": "address",
          "name": "votersAddress",
          "type": "address"
        },
        {
          "internalType": "enum VotingSystem.ConfirmationStatus",
          "name": "status",
          "type": "uint8"
        }
      ],
      "stateMutability": "view",
      "type": "function"
    },
    {
      "inputs": [
        {
          "internalType": "uint256",
          "name": "",
          "type": "uint256"
        }
      ],
      "name": "votersRegistered",
      "outputs": [
        {
          "internalType": "address",
          "name": "",
          "type": "address"
        }
      ],
      "stateMutability": "view",
      "type": "function"
    },
    {
      "inputs": [
        {
          "internalType": "uint256",
          "name": "",
          "type": "uint256"
        }
      ],
      "name": "votersWhoCasted",
      "outputs": [
        {
          "internalType": "address",
          "name": "",
          "type": "address"
        }
      ],
      "stateMutability": "view",
      "type": "function"
    },
    {
      "inputs": [],
      "name": "votingEndTime",
      "outputs": [
        {
          "internalType": "uint256",
          "name": "",
          "type": "uint256"
        }
      ],
      "stateMutability": "view",
      "type": "function"
    },
    {
      "inputs": [],
      "name": "votingStartTime",
      "outputs": [
        {
          "internalType": "uint256",
          "name": "",
          "type": "uint256"
        }
      ],
      "stateMutability": "view",
      "type": "function"
    },
    {
      "inputs": [],
      "name": "winningCandidate",
      "outputs": [
        {
          "components": [
            {
              "internalType": "string",
              "name": "name",
              "type": "string"
            },
            {
              "internalType": "string",
              "name": "message",
              "type": "string"
            },
            {
              "internalType": "uint256",
              "name": "age",
              "type": "uint256"
            },
            {
              "internalType": "string",
              "name": "email",
              "type": "string"
            },
            {
              "internalType": "string",
              "name": "phone",
              "type": "string"
            },
            {
              "internalType": "uint256",
              "name": "registeredId",
              "type": "uint256"
            },
            {
              "internalType": "uint256",
              "name": "voteCalculation",
              "type": "uint256"
            },
            {
              "internalType": "address",
              "name": "candidatesAddress",
              "type": "address"
            },
            {
              "internalType": "enum VotingSystem.ConfirmationStatus",
              "name": "status",
              "type": "uint8"
            }
          ],
          "internalType": "struct VotingSystem.Candidate",
          "name": "",
          "type": "tuple"
        }
      ],
      "stateMutability": "view",
      "type": "function"
    }
  ],
  "bytecode": "0x60806040523461023b57613a938038038061001981610240565b92833981019060208183031261023b578051906001600160401b03821161023b570181601f8201121561023b578051906001600160401b0382116102105761006a601f8301601f1916602001610240565b928284526020838301011161023b5760005b82811061022657600083850160200181905280546001600160a01b03191633179055835184906001600160401b03811161021057600154600181811c91168015610206575b60208210146101f057601f811161018b575b50602091601f82116001146101275791819260009261011c575b50508160011b916000199060031b1c1916176001555b6001600555600160065560405161382d90816102668239f35b0151905082806100ed565b601f198216926001600052806000209160005b8581106101735750836001951061015a575b505050811b01600155610103565b015160001960f88460031b161c1916905582808061014c565b9192602060018192868501518155019401920161013a565b60016000527fb10e2d527612073b26eecdfd717e6a320cf44b4afac2b0732d9fcbe2b7fa0cf6601f830160051c810191602084106101e6575b601f0160051c01905b8181106101da57506100d3565b600081556001016101cd565b90915081906101c4565b634e487b7160e01b600052602260045260246000fd5b90607f16906100c1565b634e487b7160e01b600052604160045260246000fd5b8060208092840101518282870101520161007c565b600080fd5b6040519190601f01601f191682016001600160401b038111838210176102105760405256fe6080604052600436101561001257600080fd5b60003560e01c80630366ac3714612d5b578063073f966d14612cce5780631ea736e014612cb05780631ee9367c14612c235780632019a60814612c0557806323a2b2ed14612b785780633afa3e0714612b4f5780633cfde26c14612a4a578063429b0b22146127f55780634a2846a81461261e5780634d867f4e146123a957806353dd128c1461238057806357f3a8e51461220657806359632c22146120305780635b45cfca14611f3d5780635e894b1214611f145780635f1bc34e14611eeb57806360fc4e3214611e5e5780636dd7d8ea14611c3157806371565d2e146116c157806379432db5146115325780637eb21b511461134657806382ff2aeb14611185578063849c56571461115c57806385e8e7a71461107b5780638987cb3214610fee5780638ab66a9014610efb5780638da5cb5b14610ed2578063964a43b914610dc95780639e7a814514610d87578063a3ec138d14610c8b578063ac94ba4c14610c6d578063bab912a214610c51578063cd6cf311146106d2578063d28178d7146106a2578063dbf7be4714610507578063f33698f1146103e25763fad761d3146101be57600080fd5b346103dd576101cc3661319a565b906101e260018060a01b036000541633146134ae565b60018060a01b03168060005260076020526040600020600781019060018060a01b038254161561038657815460ff60a01b1916600160a01b179091558251600591909101906001600160401b0381116102b85761023f8254613246565b601f811161033e575b506020601f82116001146102d957819293946000926102ce575b50508160011b916000199060031b1c19161790555b600c54600160401b8110156102b8578060016102989201600c55600c612e53565b81546001600160a01b0360039290921b91821b191692901b919091179055005b634e487b7160e01b600052604160045260246000fd5b015190503880610262565b601f1982169083600052806000209160005b8181106103265750958360019596971061030d575b505050811b019055610277565b015160001960f88460031b161c19169055388080610300565b9192602060018192868b0151815501940192016102eb565b826000526020600020601f830160051c8101916020841061037c575b601f0160051c01905b8181106103705750610248565b60008155600101610363565b909150819061035a565b60405162461bcd60e51b815260206004820152602960248201527f5468697320766f74657220646f6573206e6f742061707065617220696e206f75604482015268391039bcb9ba32b69760b91b6064820152608490fd5b600080fd5b346103dd5760403660031901126103dd576004356024359061040f60018060a01b036000541633146134ae565b6002546104c2574281111561047e578181101561042e57600255600355005b60405162461bcd60e51b815260206004820152602260248201527f53746172742074696d65206d757374206265206265666f726520656e642074696044820152616d6560f01b6064820152608490fd5b606460405162461bcd60e51b815260206004820152602060248201527f53746172742074696d65206d75737420626520696e20746865206675747572656044820152fd5b60405162461bcd60e51b815260206004820152601860248201527f566f74696e6720616c7265616479207363686564756c656400000000000000006044820152606490fd5b346103dd5760203660031901126103dd57610520613143565b61052861333b565b5060018060a01b03166000526008602052604060002060076040519161054d836130b0565b61055681613280565b835261056460018201613280565b60208401526002810154604084015261057f60038201613280565b606084015261059060048201613280565b6080840152600581015460a0840152600681015460c0840152015460e0820160018060a01b03821681526105cf60ff61010085019360a01c16836133e6565b516001600160a01b03161561066757516003811015610651576000190161060c5761060890604051918291602083526020830190612eb9565b0390f35b60405162461bcd60e51b815260206004820152601960248201527f43616e646964617465206973206e6f74206163636570746564000000000000006044820152606490fd5b634e487b7160e01b600052602160045260246000fd5b60405162461bcd60e51b815260206004820152601360248201527210d85b991a59185d19481b9bdd08199bdd5b99606a1b6044820152606490fd5b346103dd5760003660031901126103dd576106086106be6136a1565b604051918291602083526020830190612eb9565b346103dd576106e0366131d9565b600693919354604051916106f3836130b0565b600083526020830193845260408301948552606083019586526080830190815261071b61350b565b9560a0840196875260c0840192835260e08401953387526101008501956000875233600052600760205260406000209551151560ff801988541691161786556001860190518051906001600160401b0382116102b857819061077d8454613246565b601f8111610bfe575b50602090601f8311600114610b9957600092610b8e575b50508160011b916000199060031b1c19161790555b51600285015551805160038501916001600160401b0382116102b85781906107da8454613246565b601f8111610b3b575b50602090601f8311600114610ad657600092610acb575b50508160011b916000199060031b1c19161790555b51805160048401916001600160401b0382116102b85781906108318454613246565b601f8111610a78575b50602090601f8311600114610a1357600092610a08575b50508160011b916000199060031b1c19161790555b6005820194519485516001600160401b0381116102b8576108878254613246565b601f81116109c0575b506020601f8211600114610956578190600796979860009261094b575b50508160011b916000199060031b1c19161790555b5160068201559251920180546001600160a01b0319166001600160a01b0393909316929092178255516003811015610651576108fd916134e7565b600a54600160401b8110156102b85780600161091e9201600a55600a612e53565b81546001600160a01b0360039290921b91821b19163390911b17905560065461094690613489565b600655005b0151905088806108ad565b601f1982169783600052816000209860005b8181106109a857509160079798999184600195941061098f575b505050811b0190556108c2565b015160001960f88460031b161c19169055888080610982565b838301518b556001909a019960209384019301610968565b826000526020600020601f830160051c810191602084106109fe575b601f0160051c01905b8181106109f25750610890565b600081556001016109e5565b90915081906109dc565b015190508880610851565b60008581528281209350601f198516905b818110610a605750908460019594939210610a47575b505050811b019055610866565b015160001960f88460031b161c19169055888080610a3a565b92936020600181928786015181550195019301610a24565b909150836000526020600020601f840160051c81019160208510610ac1575b90601f859493920160051c01905b818110610ab2575061083a565b60008155849350600101610aa5565b9091508190610a97565b0151905089806107fa565b60008581528281209350601f198516905b818110610b235750908460019594939210610b0a575b505050811b01905561080f565b015160001960f88460031b161c19169055898080610afd565b92936020600181928786015181550195019301610ae7565b909150836000526020600020601f840160051c81019160208510610b84575b90601f859493920160051c01905b818110610b7557506107e3565b60008155849350600101610b68565b9091508190610b5a565b015190508b8061079d565b60008581528281209350601f198516905b818110610be65750908460019594939210610bcd575b505050811b0190556107b2565b015160001960f88460031b161c191690558b8080610bc0565b92936020600181928786015181550195019301610baa565b909150836000526020600020601f840160051c81019160208510610c47575b90601f859493920160051c01905b818110610c385750610786565b60008155849350600101610c2b565b9091508190610c1d565b346103dd5760003660031901126103dd576106086106be6135a6565b346103dd5760003660031901126103dd576020600454604051908152f35b346103dd5760203660031901126103dd576001600160a01b03610cac613143565b1660005260076020526020604060002060ff81541690610608610cd160018301613280565b610d5f6002840154610d51610ce860038701613280565b91610d43610cf860048901613280565b91610d0560058a01613280565b94610d30600760068c01549b0154986101206040519e8f9e8f901515815201526101208d0190612e6b565b9160408c01528a820360608c0152612e6b565b9088820360808a0152612e6b565b9086820360a0880152612e6b565b60c08501939093526001600160a01b03811660e085015261010084019060a01c60ff16612eac565b346103dd5760203660031901126103dd57600435600b548110156103dd57610db0602091612e02565b905460405160039290921b1c6001600160a01b03168152f35b346103dd5760003660031901126103dd57600e54610de681613439565b9060005b818110610dff57604051806106088582613050565b80610e0b600192612de7565b838060a01b0391549060031b1c1660005260076020526040600020610eb660ff600760405193610e3a856130b0565b8281541615158552610e4d878201613280565b602086015260028101546040860152610e6860038201613280565b6060860152610e7960048201613280565b6080860152610e8a60058201613280565b60a0860152600681015460c08601520154858060a01b03811660e085015260a01c1661010083016133e6565b610ec082866133d2565b52610ecb81856133d2565b5001610dea565b346103dd5760003660031901126103dd576000546040516001600160a01b039091168152602090f35b346103dd5760203660031901126103dd576001600160a01b03610f1c613143565b1660005260086020526040600020610120610f3682613280565b91610608610f4660018301613280565b600283015492610fc4610f5b60038301613280565b94610fb6610f6b60048501613280565b91600585015497610fa36007600688015497015497610f956040519d8d8f9e8f9081520190612e6b565b8c810360208e015290612e6b565b9160408b015289820360608b0152612e6b565b908782036080890152612e6b565b9360a086015260c085015260018060a01b03811660e085015260ff61010085019160a01c16612eac565b346103dd5760003660031901126103dd57600f5461100b81613439565b9060005b81811061102457604051806106088582613050565b80611030600192612e38565b838060a01b0391549060031b1c166000526007602052604060002061105f60ff600760405193610e3a856130b0565b61106982866133d2565b5261107481856133d2565b500161100f565b346103dd5760003660031901126103dd57604051600060015461109d81613246565b808452906001811690811561113857506001146110d9575b610608836110c5818503826130cc565b604051918291602083526020830190612e6b565b600160009081527fb10e2d527612073b26eecdfd717e6a320cf44b4afac2b0732d9fcbe2b7fa0cf6939250905b80821061111e575090915081016020016110c56110b5565b919260018160209254838588010152019101909291611106565b60ff191660208086019190915291151560051b840190910191506110c590506110b5565b346103dd5760203660031901126103dd57600435600a548110156103dd57610db0602091612e1d565b346103dd5760203660031901126103dd576004356001600160401b0381116103dd576111b59036906004016130ed565b6111cb600254801590811561133c575b50613550565b336000526007602052604060002060018060a01b03600782015416156112f75760010181516001600160401b0381116102b8576112088254613246565b601f81116112af575b50602092601f821160011461124f5792819293600092611244575b5050600019600383901b1c191660019190911b179055005b01519050838061122c565b601f1982169383600052806000209160005b868110611297575083600195961061127e575b505050811b019055005b015160001960f88460031b161c19169055838080611274565b91926020600181928685015181550194019201611261565b826000526020600020601f830160051c810191602084106112ed575b601f0160051c01905b8181106112e15750611211565b600081556001016112d4565b90915081906112cb565b60405162461bcd60e51b815260206004820152601860248201527f4e6f20766f746572206461746120617661696c61626c652e00000000000000006044820152606490fd5b90504210836111c5565b346103dd576113543661319a565b9061136a60018060a01b036000541633146134ae565b6001600160a01b0390811660008181526008602052604090206007810180549293909216156114d757815460ff60a01b1916600160a01b179091558251600191909101906001600160401b0381116102b8576113c68254613246565b601f811161148f575b506020601f821160011461142a578192939460009261141f575b50508160011b916000199060031b1c19161790555b600b54600160401b8110156102b8578060016102989201600b55600b612e53565b0151905084806113e9565b601f1982169083600052806000209160005b8181106114775750958360019596971061145e575b505050811b0190556113fe565b015160001960f88460031b161c19169055848080611451565b9192602060018192868b01518155019401920161143c565b826000526020600020601f830160051c810191602084106114cd575b601f0160051c01905b8181106114c157506113cf565b600081556001016114b4565b90915081906114ab565b60405162461bcd60e51b815260206004820152602d60248201527f546869732063616e64696461746520646f6573206e6f7420617070656172206960448201526c371037bab91039bcb9ba32b69760991b6064820152608490fd5b346103dd5760203660031901126103dd576004356001600160401b0381116103dd576115629036906004016130ed565b611577600254801590811561133c5750613550565b33600090815260086020526040902060078101546001600160a01b03161561167c5781516001600160401b0381116102b8576115b38254613246565b601f8111611634575b50602092601f82116001146115ee5792819293600092611244575050600019600383901b1c191660019190911b179055005b601f1982169383600052806000209160005b86811061161c575083600195961061127e57505050811b019055005b91926020600181928685015181550194019201611600565b826000526020600020601f830160051c81019160208410611672575b601f0160051c01905b81811061166657506115bc565b60008155600101611659565b9091508190611650565b60405162461bcd60e51b815260206004820152601c60248201527f4e6f2063616e646964617465206461746120617661696c61626c652e000000006044820152606490fd5b346103dd576116cf366131d9565b9260055491604051916116e1836130b0565b82526116eb61350b565b926020830193845260408301948552606083019182526080830195865260a0830190815260c08301916000835260e084019533875261010085019560008752336000526008602052604060002095518051906001600160401b0382116102b85781906117578954613246565b601f8111611bde575b50602090601f8311600114611b7957600092611b6e575b50508160011b916000199060031b1c19161786555b51805160018701916001600160401b0382116102b85781906117ae8454613246565b601f8111611b1b575b50602090601f8311600114611ab657600092611aab575b50508160011b916000199060031b1c19161790555b51600285015551805160038501916001600160401b0382116102b857819061180b8454613246565b601f8111611a58575b50602090601f83116001146119f3576000926119e8575b50508160011b916000199060031b1c19161790555b6004830195519586516001600160401b0381116102b8576118618254613246565b601f81116119a0575b506020601f8211600114611936578190600797989960009261192b575b50508160011b916000199060031b1c19161790555b5160058301555160068201559251920180546001600160a01b0319166001600160a01b0393909316929092178255516003811015610651576118dd916134e7565b600954600160401b8110156102b8578060016118fe92016009556009612e53565b81546001600160a01b0360039290921b91821b19163390911b17905560055461192690613489565b600555005b015190508980611887565b601f1982169883600052816000209960005b818110611988575091600798999a9184600195941061196f575b505050811b01905561189c565b015160001960f88460031b161c19169055898080611962565b838301518c556001909b019a60209384019301611948565b826000526020600020601f830160051c810191602084106119de575b601f0160051c01905b8181106119d2575061186a565b600081556001016119c5565b90915081906119bc565b01519050898061182b565b60008581528281209350601f198516905b818110611a405750908460019594939210611a27575b505050811b019055611840565b015160001960f88460031b161c19169055898080611a1a565b92936020600181928786015181550195019301611a04565b909150836000526020600020601f840160051c81019160208510611aa1575b90601f859493920160051c01905b818110611a925750611814565b60008155849350600101611a85565b9091508190611a77565b015190508b806117ce565b60008581528281209350601f198516905b818110611b035750908460019594939210611aea575b505050811b0190556117e3565b015160001960f88460031b161c191690558b8080611add565b92936020600181928786015181550195019301611ac7565b909150836000526020600020601f840160051c81019160208510611b64575b90601f859493920160051c01905b818110611b5557506117b7565b60008155849350600101611b48565b9091508190611b3a565b015190508b80611777565b60008a81528281209350601f198516905b818110611bc65750908460019594939210611bad575b505050811b01865561178c565b015160001960f88460031b161c191690558b8080611ba0565b92936020600181928786015181550195019301611b8a565b909150886000526020600020601f840160051c81019160208510611c27575b90601f859493920160051c01905b818110611c185750611760565b60008155849350600101611c0b565b9091508190611bfd565b346103dd5760203660031901126103dd57611c4a613143565b6002544210611e19576003544211611de157336000526007602052604060002060ff600782015460a01c16600381101561065157600103611d9c5780549160ff8316611d5e5760018060a01b0316600052600860205260406000209060ff600783015460a01c16600381101561065157600103611d1957600160069360ff191617905501611cd88154613489565b9055600f54600160401b8110156102b857806001611cfb9201600f55600f612e53565b81546001600160a01b0360039290921b91821b19163390911b179055005b60405162461bcd60e51b815260206004820152601a60248201527f43616e646964617465206973206e6f742061636365707465642e0000000000006044820152606490fd5b60405162461bcd60e51b8152602060048201526016602482015275165bdd481a185d9948185b1c9958591e481d9bdd195960521b6044820152606490fd5b60405162461bcd60e51b815260206004820152601e60248201527f596f7520617265206e6f74206120636f6e6669726d656420766f7465722e00006044820152606490fd5b60405162461bcd60e51b815260206004820152601060248201526f159bdd1a5b99c81a185cc8195b99195960821b6044820152606490fd5b60405162461bcd60e51b815260206004820152601a60248201527f566f74696e6720686173206e6f742073746172746564207965740000000000006044820152606490fd5b346103dd5760003660031901126103dd57600a54611e7b81613439565b9060005b818110611e9457604051806106088582613050565b80611ea0600192612e1d565b838060a01b0391549060031b1c1660005260076020526040600020611ecf60ff600760405193610e3a856130b0565b611ed982866133d2565b52611ee481856133d2565b5001611e7f565b346103dd5760203660031901126103dd57600435600f548110156103dd57610db0602091612e38565b346103dd5760203660031901126103dd57600435600d548110156103dd57610db0602091612db1565b346103dd5760203660031901126103dd57600435611f6660018060a01b036000541633146134ae565b600454611fdf57600354811115611f7c57600455005b60405162461bcd60e51b815260206004820152603560248201527f526573756c74207075626c69636174696f6e2074696d65206d75737420626520604482015274616674657220766f74696e6720656e642074696d6560581b6064820152608490fd5b60405162461bcd60e51b815260206004820152602360248201527f526573756c74207075626c69636174696f6e2074696d6520616c7265616479206044820152621cd95d60ea1b6064820152608490fd5b346103dd5761203e3661319a565b9061205460018060a01b036000541633146134ae565b6001600160a01b0390811660008181526008602052604090206007810180549293909216156121c157815460ff60a01b1916600160a11b179091558251600191909101906001600160401b0381116102b8576120b08254613246565b601f8111612179575b506020601f82116001146121145781929394600092612109575b50508160011b916000199060031b1c19161790555b600d54600160401b8110156102b8578060016102989201600d55600d612e53565b0151905084806120d3565b601f1982169083600052806000209160005b81811061216157509583600195969710612148575b505050811b0190556120e8565b015160001960f88460031b161c1916905584808061213b565b9192602060018192868b015181550194019201612126565b826000526020600020601f830160051c810191602084106121b7575b601f0160051c01905b8181106121ab57506120b9565b6000815560010161219e565b9091508190612195565b60405162461bcd60e51b815260206004820152601b60248201527f4e6f2063616e646964617465206461746120617661696c61626c6500000000006044820152606490fd5b346103dd5760203660031901126103dd5761221f613143565b6122276133f2565b5060018060a01b03166000526007602052604060002060076040519161224c836130b0565b60ff8154161515835261226160018201613280565b60208401526002810154604084015261227c60038201613280565b606084015261228d60048201613280565b608084015261229e60058201613280565b60a0840152600681015460c0840152015460e0820160018060a01b03821681526122d360ff61010085019360a01c16836133e6565b516001600160a01b03161561234957516003811015610651576000190161230c5761060890604051918291602083526020830190612fb5565b60405162461bcd60e51b8152602060048201526015602482015274159bdd195c881a5cc81b9bdd081858d8d95c1d1959605a1b6044820152606490fd5b60405162461bcd60e51b815260206004820152600f60248201526e159bdd195c881b9bdd08199bdd5b99608a1b6044820152606490fd5b346103dd5760203660031901126103dd57600435600c548110156103dd57610db0602091612dcc565b346103dd576123b736613159565b600a549060208301906000805b84811061251357506123d590613439565b9360009160005b8581106123f157604051806106088982613050565b6123fa81612e1d565b60018060a01b0391549060031b1c166000526007602052604060002060405190612423826130b0565b60ff81541615158252600761243a60018301613280565b91602084019283526002810154604085015261245860038201613280565b606085015261246960048201613280565b608085015261247a60058201613280565b60a0850152600681015460c08501520154906124af60ff60e085019360018060a01b038116855260a01c1661010085016133e6565b5160208151910120855188201490816124fc575b506124d2575b506001016123dc565b846124f5916124e4600194978b6133d2565b526124ef818a6133d2565b50613489565b93906124c9565b516001600160a01b038581169116149050896124c3565b61251c81612e1d565b60018060a01b0391549060031b1c166000526007602052604060002060405190612545826130b0565b60ff815416151582526125d1600761255f60018401613280565b92602085019384526002810154604086015261257d60038201613280565b606086015261258e60048201613280565b608086015261259f60058201613280565b60a0860152600681015460c086015201549261010060ff60e083019560018060a01b038116875260a01c1691016133e6565b516020815191012087518620149081612607575b506125f3575b6001016123c4565b906125ff600191613489565b9190506125eb565b516001600160a01b038581169116149050876125e5565b346103dd5761262c3661319a565b9061264260018060a01b036000541633146134ae565b60018060a01b03168060005260076020526040600020600781019060018060a01b03825416156127b057815460ff60a01b1916600160a11b179091558251600591909101906001600160401b0381116102b85761269f8254613246565b601f8111612768575b506020601f821160011461270357819293946000926126f8575b50508160011b916000199060031b1c19161790555b600e54600160401b8110156102b8578060016102989201600e55600e612e53565b0151905084806126c2565b601f1982169083600052806000209160005b81811061275057509583600195969710612737575b505050811b0190556126d7565b015160001960f88460031b161c1916905584808061272a565b9192602060018192868b015181550194019201612715565b826000526020600020601f830160051c810191602084106127a6575b601f0160051c01905b81811061279a57506126a8565b6000815560010161278d565b9091508190612784565b60405162461bcd60e51b815260206004820152601760248201527f4e6f20766f746572206461746120617661696c61626c650000000000000000006044820152606490fd5b346103dd5761280336613159565b600954602083019290916000805b848110612947575061282290613382565b9360009160005b85811061283e57604051806106088982612f55565b61284781612d80565b60018060a01b0391549060031b1c1660005260086020526040600020600760405191612872836130b0565b61287b81613280565b835261288960018201613280565b6020840152600281015460408401526128a460038201613280565b60608401526128b560048201613280565b6080840152600581015460a0840152600681015460c084015201546128f360ff60e084019260018060a01b038116845260a01c1661010084016133e6565b81516020815191012087518620149081612930575b50612917575b50600101612829565b84612929916124e4600194978b6133d2565b939061290e565b516001600160a01b03858116911614905089612908565b61295081612d80565b60018060a01b0391549060031b1c166000526008602052604060002060076040519161297b836130b0565b61298481613280565b835261299260018201613280565b6020840152600281015460408401526129ad60038201613280565b60608401526129be60048201613280565b6080840152600581015460a0840152600681015460c08401520154906129fd60ff60e083019360018060a01b038116855260a01c1661010083016133e6565b516020815191012085518820149081612a33575b50612a1f575b600101612811565b90612a2b600191613489565b919050612a17565b516001600160a01b03858116911614905087612a11565b346103dd5760003660031901126103dd57600b54612a6781613382565b9060005b818110612a8057604051806106088582612f55565b80612a8c600192612e02565b838060a01b0391549060031b1c1660005260086020526040600020612b3360ff600760405193612abb856130b0565b612ac481613280565b8552612ad1878201613280565b602086015260028101546040860152612aec60038201613280565b6060860152612afd60048201613280565b6080860152600581015460a0860152600681015460c08601520154858060a01b03811660e085015260a01c1661010083016133e6565b612b3d82866133d2565b52612b4881856133d2565b5001612a6b565b346103dd5760203660031901126103dd57600435600e548110156103dd57610db0602091612de7565b346103dd5760003660031901126103dd57600c54612b9581613439565b9060005b818110612bae57604051806106088582613050565b80612bba600192612dcc565b838060a01b0391549060031b1c1660005260076020526040600020612be960ff600760405193610e3a856130b0565b612bf382866133d2565b52612bfe81856133d2565b5001612b99565b346103dd5760003660031901126103dd576020600254604051908152f35b346103dd5760003660031901126103dd57600954612c4081613382565b9060005b818110612c5957604051806106088582612f55565b80612c65600192612d80565b838060a01b0391549060031b1c1660005260086020526040600020612c9460ff600760405193612abb856130b0565b612c9e82866133d2565b52612ca981856133d2565b5001612c44565b346103dd5760003660031901126103dd576020600354604051908152f35b346103dd5760003660031901126103dd57600d54612ceb81613382565b9060005b818110612d0457604051806106088582612f55565b80612d10600192612db1565b838060a01b0391549060031b1c1660005260086020526040600020612d3f60ff600760405193612abb856130b0565b612d4982866133d2565b52612d5481856133d2565b5001612cef565b346103dd5760203660031901126103dd576004356009548110156103dd57610db06020915b600954811015612d9b57600960005260206000200190600090565b634e487b7160e01b600052603260045260246000fd5b600d54811015612d9b57600d60005260206000200190600090565b600c54811015612d9b57600c60005260206000200190600090565b600e54811015612d9b57600e60005260206000200190600090565b600b54811015612d9b57600b60005260206000200190600090565b600a54811015612d9b57600a60005260206000200190600090565b600f54811015612d9b57600f60005260206000200190600090565b8054821015612d9b5760005260206000200190600090565b919082519283825260005b848110612e97575050826000602080949584010152601f8019910116010190565b80602080928401015182828601015201612e76565b9060038210156106515752565b90612f529061010080612f20612f0e612ef2612ee088516101208852610120880190612e6b565b60208901518782036020890152612e6b565b6040880151604087015260608801518682036060880152612e6b565b60808701518582036080870152612e6b565b60a0808701519085015260c0808701519085015260e0808701516001600160a01b031690850152940151910190612eac565b90565b602081016020825282518091526040820191602060408360051b8301019401926000915b838310612f8857505050505090565b9091929394602080612fa6600193603f198682030187528951612eb9565b97019301930191939290612f79565b90612f529082511515815261010080613028613016613004612fe860208901516101206020890152610120880190612e6b565b6040890151604088015260608901518782036060890152612e6b565b60808801518682036080880152612e6b565b60a087015185820360a0870152612e6b565b60c0808701519085015260e0808701516001600160a01b031690850152940151910190612eac565b602081016020825282518091526040820191602060408360051b8301019401926000915b83831061308357505050505090565b90919293946020806130a1600193603f198682030187528951612fb5565b97019301930191939290613074565b61012081019081106001600160401b038211176102b857604052565b90601f801991011681019081106001600160401b038211176102b857604052565b81601f820112156103dd578035906001600160401b0382116102b85760405192613121601f8401601f1916602001856130cc565b828452602083830101116103dd57816000926020809301838601378301015290565b600435906001600160a01b03821682036103dd57565b60406003198201126103dd57600435906001600160401b0382116103dd57613183916004016130ed565b906024356001600160a01b03811681036103dd5790565b9060406003198301126103dd576004356001600160a01b03811681036103dd5791602435906001600160401b0382116103dd57612f52916004016130ed565b9060806003198301126103dd576004356001600160401b0381116103dd5782613204916004016130ed565b91602435916044356001600160401b0381116103dd5782613227916004016130ed565b91606435906001600160401b0382116103dd57612f52916004016130ed565b90600182811c92168015613276575b602083101461326057565b634e487b7160e01b600052602260045260246000fd5b91607f1691613255565b906040519182600082549261329484613246565b808452936001811690811561330257506001146132bb575b506132b9925003836130cc565b565b90506000929192526020600020906000915b8183106132e65750509060206132b992820101386132ac565b60209193508060019154838589010152019101909184926132cd565b9050602092506132b994915060ff191682840152151560051b820101386132ac565b6001600160401b0381116102b85760051b60200190565b60405190613348826130b0565b6000610100836060815260606020820152826040820152606080820152606060808201528260a08201528260c08201528260e08201520152565b9061338c82613324565b61339960405191826130cc565b82815280926133aa601f1991613324565b019060005b8281106133bb57505050565b6020906133c661333b565b828285010152016133af565b8051821015612d9b5760209160051b010190565b60038210156106515752565b604051906133ff826130b0565b6000610100838281526060602082015282604082015260608082015260606080820152606060a08201528260c08201528260e08201520152565b9061344382613324565b61345060405191826130cc565b8281528092613461601f1991613324565b019060005b82811061347257505050565b60209061347d6133f2565b82828501015201613466565b60001981146134985760010190565b634e487b7160e01b600052601160045260246000fd5b156134b557565b60405162461bcd60e51b815260206004820152600a60248201526927b7363c9037bbb732b960b11b6044820152606490fd5b90600381101561065157815460ff60a01b191660a09190911b60ff60a01b16179055565b6040519061351a6060836130cc565b60218252601b60fa1b6040837f526567697374726174696f6e206973206177616974696e6720617070726f766160208201520152565b1561355757565b60405162461bcd60e51b815260206004820152602160248201527f43616e6e6f74206d6f6469667920616674657220766f74696e672073746172746044820152607360f81b6064820152608490fd5b6135ae61333b565b506135b761333b565b600b546000805b8281106135cb5750505090565b6135d481612e02565b60018060a01b0391549060031b1c1660005260086020526040600020604051906135fd826130b0565b61360681613280565b825261361460018201613280565b60208301526002810154604083015261362f60038201613280565b606083015261364060048201613280565b6080830152600581015460a083015261368160ff600760068401549360c08601948552015460018060a01b03811660e086015260a01c1661010084016133e6565b51838111613694575b50506001016135be565b909450915060013861368a565b6136a961333b565b50600b54156137a65760035442106136c357612f526135a6565b6040516136cf816130b0565b604080516136dd82826130cc565b600f81526e139bdd08191958da591959081e595d608a1b6020820152825280516137086060826130cc565b603681527f506c65617365207761697420756e74696c2074686520656c656374696f6e2065602082015275373239903a379039b2b2903a3432903bb4b73732b91760511b82820152602083015260008183015280516137686020826130cc565b6000815260608301525161377d6020826130cc565b600081526080820152600060a0820152600060c0820152600060e0820152600061010082015290565b60405162461bcd60e51b8152602060048201526024808201527f4e6f2043616e6469646174657320616363657074656420666f7220656c65637460448201526334b7b71760e11b6064820152608490fdfea2646970667358221220723fa33b70faeed98ed53a7a4cbe959b5b911a3edc7aa685e28a4f7d63025b5264736f6c634300081c0033",
  "linkReferences": {},
  "deployedLinkReferences": {}
}