{
  "_format": "hh-sol-artifact-1",
  "contractName": "VotingSystem",
  "sourceName": "contracts/VotingSystem.sol",
  "abi": [
    {
      "inputs": [
        {
          "internalType": "string",
          "name": "_name",
          "type": "string"
        }
      ],
      "stateMutability": "nonpayable",
      "type": "constructor"
    },
    {
      "inputs": [],
      "name": "CurrentVotingStatus",
      "outputs": [
        {
          "components": [
            {
              "internalType": "uint256",
              "name": "registeredId",
              "type": "uint256"
            },
            {
              "internalType": "uint256",
              "name": "voteCalculation",
              "type": "uint256"
            },
            {
              "internalType": "address",
              "name": "candidatesAddress",
              "type": "address"
            },
            {
              "internalType": "enum VotingSystem.ConfirmationStatus",
              "name": "status",
              "type": "uint8"
            },
            {
              "internalType": "string",
              "name": "ipfsHash",
              "type": "string"
            },
            {
              "internalType": "string",
              "name": "message",
              "type": "string"
            }
          ],
          "internalType": "struct VotingSystem.Candidate",
          "name": "",
          "type": "tuple"
        }
      ],
      "stateMutability": "view",
      "type": "function"
    },
    {
      "inputs": [],
      "name": "ListofAcceptedCandidates",
      "outputs": [
        {
          "components": [
            {
              "internalType": "uint256",
              "name": "registeredId",
              "type": "uint256"
            },
            {
              "internalType": "uint256",
              "name": "voteCalculation",
              "type": "uint256"
            },
            {
              "internalType": "address",
              "name": "candidatesAddress",
              "type": "address"
            },
            {
              "internalType": "enum VotingSystem.ConfirmationStatus",
              "name": "status",
              "type": "uint8"
            },
            {
              "internalType": "string",
              "name": "ipfsHash",
              "type": "string"
            },
            {
              "internalType": "string",
              "name": "message",
              "type": "string"
            }
          ],
          "internalType": "struct VotingSystem.Candidate[]",
          "name": "",
          "type": "tuple[]"
        }
      ],
      "stateMutability": "view",
      "type": "function"
    },
    {
      "inputs": [],
      "name": "ListofAcceptedVoters",
      "outputs": [
        {
          "components": [
            {
              "internalType": "bool",
              "name": "alreadyVoted",
              "type": "bool"
            },
            {
              "internalType": "string",
              "name": "message",
              "type": "string"
            },
            {
              "internalType": "string",
              "name": "ipfsHash",
              "type": "string"
            },
            {
              "internalType": "uint256",
              "name": "registeredId",
              "type": "uint256"
            },
            {
              "internalType": "address",
              "name": "votersAddress",
              "type": "address"
            },
            {
              "internalType": "enum VotingSystem.ConfirmationStatus",
              "name": "status",
              "type": "uint8"
            }
          ],
          "internalType": "struct VotingSystem.Voter[]",
          "name": "",
          "type": "tuple[]"
        }
      ],
      "stateMutability": "view",
      "type": "function"
    },
    {
      "inputs": [],
      "name": "ListofRegisteredCandidates",
      "outputs": [
        {
          "components": [
            {
              "internalType": "uint256",
              "name": "registeredId",
              "type": "uint256"
            },
            {
              "internalType": "uint256",
              "name": "voteCalculation",
              "type": "uint256"
            },
            {
              "internalType": "address",
              "name": "candidatesAddress",
              "type": "address"
            },
            {
              "internalType": "enum VotingSystem.ConfirmationStatus",
              "name": "status",
              "type": "uint8"
            },
            {
              "internalType": "string",
              "name": "ipfsHash",
              "type": "string"
            },
            {
              "internalType": "string",
              "name": "message",
              "type": "string"
            }
          ],
          "internalType": "struct VotingSystem.Candidate[]",
          "name": "",
          "type": "tuple[]"
        }
      ],
      "stateMutability": "view",
      "type": "function"
    },
    {
      "inputs": [],
      "name": "ListofRegisteredVoters",
      "outputs": [
        {
          "components": [
            {
              "internalType": "bool",
              "name": "alreadyVoted",
              "type": "bool"
            },
            {
              "internalType": "string",
              "name": "message",
              "type": "string"
            },
            {
              "internalType": "string",
              "name": "ipfsHash",
              "type": "string"
            },
            {
              "internalType": "uint256",
              "name": "registeredId",
              "type": "uint256"
            },
            {
              "internalType": "address",
              "name": "votersAddress",
              "type": "address"
            },
            {
              "internalType": "enum VotingSystem.ConfirmationStatus",
              "name": "status",
              "type": "uint8"
            }
          ],
          "internalType": "struct VotingSystem.Voter[]",
          "name": "",
          "type": "tuple[]"
        }
      ],
      "stateMutability": "view",
      "type": "function"
    },
    {
      "inputs": [],
      "name": "ListofRejectedCandidates",
      "outputs": [
        {
          "components": [
            {
              "internalType": "uint256",
              "name": "registeredId",
              "type": "uint256"
            },
            {
              "internalType": "uint256",
              "name": "voteCalculation",
              "type": "uint256"
            },
            {
              "internalType": "address",
              "name": "candidatesAddress",
              "type": "address"
            },
            {
              "internalType": "enum VotingSystem.ConfirmationStatus",
              "name": "status",
              "type": "uint8"
            },
            {
              "internalType": "string",
              "name": "ipfsHash",
              "type": "string"
            },
            {
              "internalType": "string",
              "name": "message",
              "type": "string"
            }
          ],
          "internalType": "struct VotingSystem.Candidate[]",
          "name": "",
          "type": "tuple[]"
        }
      ],
      "stateMutability": "view",
      "type": "function"
    },
    {
      "inputs": [],
      "name": "ListofRejectedVoters",
      "outputs": [
        {
          "components": [
            {
              "internalType": "bool",
              "name": "alreadyVoted",
              "type": "bool"
            },
            {
              "internalType": "string",
              "name": "message",
              "type": "string"
            },
            {
              "internalType": "string",
              "name": "ipfsHash",
              "type": "string"
            },
            {
              "internalType": "uint256",
              "name": "registeredId",
              "type": "uint256"
            },
            {
              "internalType": "address",
              "name": "votersAddress",
              "type": "address"
            },
            {
              "internalType": "enum VotingSystem.ConfirmationStatus",
              "name": "status",
              "type": "uint8"
            }
          ],
          "internalType": "struct VotingSystem.Voter[]",
          "name": "",
          "type": "tuple[]"
        }
      ],
      "stateMutability": "view",
      "type": "function"
    },
    {
      "inputs": [
        {
          "internalType": "uint256",
          "name": "",
          "type": "uint256"
        }
      ],
      "name": "acceptedCandidates",
      "outputs": [
        {
          "internalType": "address",
          "name": "",
          "type": "address"
        }
      ],
      "stateMutability": "view",
      "type": "function"
    },
    {
      "inputs": [
        {
          "internalType": "uint256",
          "name": "",
          "type": "uint256"
        }
      ],
      "name": "acceptedVoters",
      "outputs": [
        {
          "internalType": "address",
          "name": "",
          "type": "address"
        }
      ],
      "stateMutability": "view",
      "type": "function"
    },
    {
      "inputs": [
        {
          "internalType": "address",
          "name": "_candidatesAddress",
          "type": "address"
        },
        {
          "internalType": "string",
          "name": "_message",
          "type": "string"
        }
      ],
      "name": "approveCandidate",
      "outputs": [],
      "stateMutability": "nonpayable",
      "type": "function"
    },
    {
      "inputs": [
        {
          "internalType": "address",
          "name": "_votersAddress",
          "type": "address"
        },
        {
          "internalType": "string",
          "name": "_message",
          "type": "string"
        }
      ],
      "name": "approveVoter",
      "outputs": [],
      "stateMutability": "nonpayable",
      "type": "function"
    },
    {
      "inputs": [
        {
          "internalType": "address",
          "name": "",
          "type": "address"
        }
      ],
      "name": "candidates",
      "outputs": [
        {
          "internalType": "uint256",
          "name": "registeredId",
          "type": "uint256"
        },
        {
          "internalType": "uint256",
          "name": "voteCalculation",
          "type": "uint256"
        },
        {
          "internalType": "address",
          "name": "candidatesAddress",
          "type": "address"
        },
        {
          "internalType": "enum VotingSystem.ConfirmationStatus",
          "name": "status",
          "type": "uint8"
        },
        {
          "internalType": "string",
          "name": "ipfsHash",
          "type": "string"
        },
        {
          "internalType": "string",
          "name": "message",
          "type": "string"
        }
      ],
      "stateMutability": "view",
      "type": "function"
    },
    {
      "inputs": [
        {
          "internalType": "uint256",
          "name": "",
          "type": "uint256"
        }
      ],
      "name": "candidatesRegistered",
      "outputs": [
        {
          "internalType": "address",
          "name": "",
          "type": "address"
        }
      ],
      "stateMutability": "view",
      "type": "function"
    },
    {
      "inputs": [
        {
          "internalType": "address",
          "name": "newOwner",
          "type": "address"
        }
      ],
      "name": "changeOwner",
      "outputs": [],
      "stateMutability": "nonpayable",
      "type": "function"
    },
    {
      "inputs": [],
      "name": "electionName",
      "outputs": [
        {
          "internalType": "string",
          "name": "",
          "type": "string"
        }
      ],
      "stateMutability": "view",
      "type": "function"
    },
    {
      "inputs": [],
      "name": "getAllVotersWhoCasted",
      "outputs": [
        {
          "components": [
            {
              "internalType": "bool",
              "name": "alreadyVoted",
              "type": "bool"
            },
            {
              "internalType": "string",
              "name": "message",
              "type": "string"
            },
            {
              "internalType": "string",
              "name": "ipfsHash",
              "type": "string"
            },
            {
              "internalType": "uint256",
              "name": "registeredId",
              "type": "uint256"
            },
            {
              "internalType": "address",
              "name": "votersAddress",
              "type": "address"
            },
            {
              "internalType": "enum VotingSystem.ConfirmationStatus",
              "name": "status",
              "type": "uint8"
            }
          ],
          "internalType": "struct VotingSystem.Voter[]",
          "name": "",
          "type": "tuple[]"
        }
      ],
      "stateMutability": "view",
      "type": "function"
    },
    {
      "inputs": [],
      "name": "owner",
      "outputs": [
        {
          "internalType": "address",
          "name": "",
          "type": "address"
        }
      ],
      "stateMutability": "view",
      "type": "function"
    },
    {
      "inputs": [
        {
          "internalType": "string",
          "name": "_ipfsHash",
          "type": "string"
        }
      ],
      "name": "registerCandidate",
      "outputs": [],
      "stateMutability": "nonpayable",
      "type": "function"
    },
    {
      "inputs": [
        {
          "internalType": "string",
          "name": "_ipfsHash",
          "type": "string"
        }
      ],
      "name": "registerVoter",
      "outputs": [],
      "stateMutability": "nonpayable",
      "type": "function"
    },
    {
      "inputs": [
        {
          "internalType": "address",
          "name": "_candidatesAddress",
          "type": "address"
        },
        {
          "internalType": "string",
          "name": "_message",
          "type": "string"
        }
      ],
      "name": "rejectCandidate",
      "outputs": [],
      "stateMutability": "nonpayable",
      "type": "function"
    },
    {
      "inputs": [
        {
          "internalType": "address",
          "name": "_votersAddress",
          "type": "address"
        },
        {
          "internalType": "string",
          "name": "_message",
          "type": "string"
        }
      ],
      "name": "rejectVoter",
      "outputs": [],
      "stateMutability": "nonpayable",
      "type": "function"
    },
    {
      "inputs": [
        {
          "internalType": "uint256",
          "name": "",
          "type": "uint256"
        }
      ],
      "name": "rejectedCandidates",
      "outputs": [
        {
          "internalType": "address",
          "name": "",
          "type": "address"
        }
      ],
      "stateMutability": "view",
      "type": "function"
    },
    {
      "inputs": [
        {
          "internalType": "uint256",
          "name": "",
          "type": "uint256"
        }
      ],
      "name": "rejectedVoters",
      "outputs": [
        {
          "internalType": "address",
          "name": "",
          "type": "address"
        }
      ],
      "stateMutability": "view",
      "type": "function"
    },
    {
      "inputs": [],
      "name": "resetContract",
      "outputs": [],
      "stateMutability": "nonpayable",
      "type": "function"
    },
    {
      "inputs": [],
      "name": "resultPublicationTime",
      "outputs": [
        {
          "internalType": "uint256",
          "name": "",
          "type": "uint256"
        }
      ],
      "stateMutability": "view",
      "type": "function"
    },
    {
      "inputs": [
        {
          "internalType": "string",
          "name": "_ipfsHash",
          "type": "string"
        },
        {
          "internalType": "address",
          "name": "_addr",
          "type": "address"
        }
      ],
      "name": "searchCandidate",
      "outputs": [
        {
          "components": [
            {
              "internalType": "uint256",
              "name": "registeredId",
              "type": "uint256"
            },
            {
              "internalType": "uint256",
              "name": "voteCalculation",
              "type": "uint256"
            },
            {
              "internalType": "address",
              "name": "candidatesAddress",
              "type": "address"
            },
            {
              "internalType": "enum VotingSystem.ConfirmationStatus",
              "name": "status",
              "type": "uint8"
            },
            {
              "internalType": "string",
              "name": "ipfsHash",
              "type": "string"
            },
            {
              "internalType": "string",
              "name": "message",
              "type": "string"
            }
          ],
          "internalType": "struct VotingSystem.Candidate[]",
          "name": "",
          "type": "tuple[]"
        }
      ],
      "stateMutability": "view",
      "type": "function"
    },
    {
      "inputs": [
        {
          "internalType": "string",
          "name": "_ipfsHash",
          "type": "string"
        },
        {
          "internalType": "address",
          "name": "_addr",
          "type": "address"
        }
      ],
      "name": "searchVoter",
      "outputs": [
        {
          "components": [
            {
              "internalType": "bool",
              "name": "alreadyVoted",
              "type": "bool"
            },
            {
              "internalType": "string",
              "name": "message",
              "type": "string"
            },
            {
              "internalType": "string",
              "name": "ipfsHash",
              "type": "string"
            },
            {
              "internalType": "uint256",
              "name": "registeredId",
              "type": "uint256"
            },
            {
              "internalType": "address",
              "name": "votersAddress",
              "type": "address"
            },
            {
              "internalType": "enum VotingSystem.ConfirmationStatus",
              "name": "status",
              "type": "uint8"
            }
          ],
          "internalType": "struct VotingSystem.Voter[]",
          "name": "",
          "type": "tuple[]"
        }
      ],
      "stateMutability": "view",
      "type": "function"
    },
    {
      "inputs": [
        {
          "internalType": "uint256",
          "name": "_resultPublicationTime",
          "type": "uint256"
        }
      ],
      "name": "setResultPublicationTime",
      "outputs": [],
      "stateMutability": "nonpayable",
      "type": "function"
    },
    {
      "inputs": [
        {
          "internalType": "uint256",
          "name": "_votingStartTime",
          "type": "uint256"
        },
        {
          "internalType": "uint256",
          "name": "_votingEndTime",
          "type": "uint256"
        }
      ],
      "name": "startendVoting",
      "outputs": [],
      "stateMutability": "nonpayable",
      "type": "function"
    },
    {
      "inputs": [
        {
          "internalType": "string",
          "name": "_ipfsHash",
          "type": "string"
        }
      ],
      "name": "updateCandidate",
      "outputs": [],
      "stateMutability": "nonpayable",
      "type": "function"
    },
    {
      "inputs": [
        {
          "internalType": "string",
          "name": "_ipfsHash",
          "type": "string"
        }
      ],
      "name": "updateVoter",
      "outputs": [],
      "stateMutability": "nonpayable",
      "type": "function"
    },
    {
      "inputs": [
        {
          "internalType": "address",
          "name": "_candidatesAddress",
          "type": "address"
        }
      ],
      "name": "vote",
      "outputs": [],
      "stateMutability": "nonpayable",
      "type": "function"
    },
    {
      "inputs": [
        {
          "internalType": "address",
          "name": "",
          "type": "address"
        }
      ],
      "name": "voters",
      "outputs": [
        {
          "internalType": "bool",
          "name": "alreadyVoted",
          "type": "bool"
        },
        {
          "internalType": "string",
          "name": "message",
          "type": "string"
        },
        {
          "internalType": "string",
          "name": "ipfsHash",
          "type": "string"
        },
        {
          "internalType": "uint256",
          "name": "registeredId",
          "type": "uint256"
        },
        {
          "internalType": "address",
          "name": "votersAddress",
          "type": "address"
        },
        {
          "internalType": "enum VotingSystem.ConfirmationStatus",
          "name": "status",
          "type": "uint8"
        }
      ],
      "stateMutability": "view",
      "type": "function"
    },
    {
      "inputs": [
        {
          "internalType": "uint256",
          "name": "",
          "type": "uint256"
        }
      ],
      "name": "votersRegistered",
      "outputs": [
        {
          "internalType": "address",
          "name": "",
          "type": "address"
        }
      ],
      "stateMutability": "view",
      "type": "function"
    },
    {
      "inputs": [
        {
          "internalType": "uint256",
          "name": "",
          "type": "uint256"
        }
      ],
      "name": "votersWhoCasted",
      "outputs": [
        {
          "internalType": "address",
          "name": "",
          "type": "address"
        }
      ],
      "stateMutability": "view",
      "type": "function"
    },
    {
      "inputs": [],
      "name": "votingEndTime",
      "outputs": [
        {
          "internalType": "uint256",
          "name": "",
          "type": "uint256"
        }
      ],
      "stateMutability": "view",
      "type": "function"
    },
    {
      "inputs": [],
      "name": "votingStartTime",
      "outputs": [
        {
          "internalType": "uint256",
          "name": "",
          "type": "uint256"
        }
      ],
      "stateMutability": "view",
      "type": "function"
    },
    {
      "inputs": [],
      "name": "winningCandidate",
      "outputs": [
        {
          "components": [
            {
              "internalType": "uint256",
              "name": "registeredId",
              "type": "uint256"
            },
            {
              "internalType": "uint256",
              "name": "voteCalculation",
              "type": "uint256"
            },
            {
              "internalType": "address",
              "name": "candidatesAddress",
              "type": "address"
            },
            {
              "internalType": "enum VotingSystem.ConfirmationStatus",
              "name": "status",
              "type": "uint8"
            },
            {
              "internalType": "string",
              "name": "ipfsHash",
              "type": "string"
            },
            {
              "internalType": "string",
              "name": "message",
              "type": "string"
            }
          ],
          "internalType": "struct VotingSystem.Candidate",
          "name": "",
          "type": "tuple"
        }
      ],
      "stateMutability": "view",
      "type": "function"
    }
  ],
  "bytecode": "0x60806040523461023b576134578038038061001981610240565b92833981019060208183031261023b578051906001600160401b03821161023b570181601f8201121561023b578051906001600160401b0382116102105761006a601f8301601f1916602001610240565b928284526020838301011161023b5760005b82811061022657600083850160200181905280546001600160a01b03191633179055835184906001600160401b03811161021057600154600181811c91168015610206575b60208210146101f057601f811161018b575b50602091601f82116001146101275791819260009261011c575b50508160011b916000199060031b1c1916176001555b600160055560016006556040516131f190816102668239f35b0151905082806100ed565b601f198216926001600052806000209160005b8581106101735750836001951061015a575b505050811b01600155610103565b015160001960f88460031b161c1916905582808061014c565b9192602060018192868501518155019401920161013a565b60016000527fb10e2d527612073b26eecdfd717e6a320cf44b4afac2b0732d9fcbe2b7fa0cf6601f830160051c810191602084106101e6575b601f0160051c01905b8181106101da57506100d3565b600081556001016101cd565b90915081906101c4565b634e487b7160e01b600052602260045260246000fd5b90607f16906100c1565b634e487b7160e01b600052604160045260246000fd5b8060208092840101518282870101520161007c565b600080fd5b6040519190601f01601f191682016001600160401b038111838210176102105760405256fe6080604052600436101561001257600080fd5b60003560e01c80630366ac3714612838578063073f966d146127a85780631ea736e01461278a5780631ee9367c146126fa5780632019a608146126dc57806323a2b2ed1461264f5780633afa3e07146126265780633cfde26c1461254e578063429b0b22146123485780634a2846a8146121325780634d867f4e14611f1657806353dd128c14611eed57806359632c2214611cd75780635b45cfca14611be45780635e894b1214611bbb5780635f1bc34e14611b9257806360fc4e3214611b055780636428a4861461186b5780636dd7d8ea1461165a57806379432db5146115165780637eb21b51146112df57806382ff2aeb14611172578063849c56571461114957806385e8e7a7146110685780638987cb3214610fdb5780638ab66a9014610f325780638da5cb5b14610f09578063964a43b914610e2d5780639e7a814514610deb5780639eb88db614610b2e578063a3ec138d14610a7d578063a6f9dae1146109db578063ac94ba4c146109bd578063b181a8fc146105ef578063bab912a2146105d3578063d28178d71461059f578063f33698f11461047a5763fad761d3146101be57600080fd5b34610475576101cc36612bfa565b906101e260018060a01b03600054163314612e5b565b6001600160a01b0381811660008181526007602052604090206004810180549294939092161561041e57815460ff60a01b1916600160a01b179091558351600191909101906001600160401b03811161039857610249816102438454612c39565b84612ecf565b602094601f82116001146103b95761027d9293949582916000926103ae575b50508160011b916000199060031b1c19161790565b90555b600c5490600160401b821015610398576102a58260016102c99401600c55600c612930565b9080546001600160a01b0360039390931b83811b199091169290931690921b179055565b60005b600e548082101561039657826102e1836128c4565b905460039190911b1c6001600160a01b03161461030157506001016102cc565b600019810192508211610380576102a561031d610335936128c4565b905460039190911b1c6001600160a01b0316916128c4565b600e54801561036a576000190161036561035082600e612930565b81549060018060a01b039060031b1b19169055565b600e55005b634e487b7160e01b600052603160045260246000fd5b634e487b7160e01b600052601160045260246000fd5b005b634e487b7160e01b600052604160045260246000fd5b015190503880610268565b601f1982169583600052806000209160005b888110610406575083600195969798106103ed575b505050811b019055610280565b015160001960f88460031b161c191690553880806103e0565b919260206001819286850151815501940192016103cb565b60405162461bcd60e51b815260206004820152602960248201527f5468697320766f74657220646f6573206e6f742061707065617220696e206f75604482015268391039bcb9ba32b69760b91b6064820152608490fd5b600080fd5b3461047557604036600319011261047557600435602435906104a760018060a01b03600054163314612e5b565b60025461055a574281111561051657818110156104c657600255600355005b60405162461bcd60e51b815260206004820152602260248201527f53746172742074696d65206d757374206265206265666f726520656e642074696044820152616d6560f01b6064820152608490fd5b606460405162461bcd60e51b815260206004820152602060248201527f53746172742074696d65206d75737420626520696e20746865206675747572656044820152fd5b60405162461bcd60e51b815260206004820152601860248201527f566f74696e6720616c7265616479207363686564756c656400000000000000006044820152606490fd5b34610475576000366003190112610475576105cf6105bb6130cc565b604051918291602083526020830190612996565b0390f35b34610475576000366003190112610475576105cf6105bb612ffe565b346104755760003660031901126104755761061560018060a01b03600054163314612e5b565b60035480151590816109b3575b501561095457610633600154612c39565b601f8111610915575b50600060015560006002556000600355600060045560005b6009548110156106b3578061066a60019261285d565b838060a01b0391549060031b1c1660005260086020526106ad6004604060002060008155600085820155600060028201556106a760038201612faf565b01612faf565b01610654565b6009546000600955806108dc575b50600b546000600b55806108a3575b50600d546000600d558061086a575b5060005b600a5481101561073f57806106f96001926128fa565b838060a01b0391549060031b1c1660005260076020526000600460408220828155610725858201612faf565b61073160028201612faf565b8260038201550155016106e3565b600a546000600a5580610831575b50600c546000600c55806107f8575b50600e546000600e55806107bf575b50600f546000600f5580610786575b60016005819055600655005b600f6000526107b9907f8d1108e10bcb7c27dddfc02ed9d693a074039d026cf4ea4240b40f7d581ac80290810190612eb8565b8061077a565b600e6000526107f2907fbb7b4a454dc3493923482f07822329ed19e8244eff582cc204f8554c3620c3fd90810190612eb8565b8061076b565b600c60005261082b907fdf6966c971051c3d54ec59162606531493a51404a002842f56009d7e5cf4a8c790810190612eb8565b8061075c565b600a600052610864907fc65a7bb8d6351c1cf70c95a316cc6a92839c986682d98bc35f958f4883f9d2a890810190612eb8565b8061074d565b600d60005261089d907fd7b6990105719101dabeb77144f2a3385c8033acd3af97e9423a695e81ad1eb590810190612eb8565b806106df565b600b6000526108d6907f0175b7a638427703f0dbe7bb9bbf987a2551717b34e79f33b5b1008d1fa01db990810190612eb8565b806106d0565b600960005261090f907f6e1540171b6c0c960b71a7020d9f60077f6af931a8bbf590da0223dacf75c7af90810190612eb8565b806106c1565b600160005261094e90601f0160051c7fb10e2d527612073b26eecdfd717e6a320cf44b4afac2b0732d9fcbe2b7fa0cf690810190612eb8565b8061063c565b60405162461bcd60e51b815260206004820152603160248201527f456c656374696f6e206973207374696c6c206f6e676f696e672e2043616e6e6f6044820152703a103932b9b2ba1031b7b73a3930b1ba1760791b6064820152608490fd5b9050421181610622565b34610475576000366003190112610475576020600454604051908152f35b34610475576020366003190112610475576109f4612ba3565b60005490610a0c336001600160a01b03841614612e5b565b6001600160a01b0316908115610a2c576001600160a01b03191617600055005b60405162461bcd60e51b8152602060048201526024808201527f4e6577206f776e65722063616e6e6f7420626520746865207a65726f206164646044820152637265737360e01b6064820152608490fd5b34610475576020366003190112610475576001600160a01b03610a9e612ba3565b166000526007602052604060002060ff815416610abd60018301612c73565b916105cf610acd60028301612c73565b610b076004600385015494015491610af96040519788971515885260c0602089015260c0880190612955565b908682036040880152612955565b60608501939093526001600160a01b038116608085015260a080850191901c60ff16612948565b34610475576020366003190112610475576004356001600160401b03811161047557610b5e903690600401612b4d565b60055460405190610b6e82612b11565b815260208101906000825260408101338152606082016000815260808301948552610b97612f14565b60a08401908152336000908152600860205260409020935184559351600184015590516002830180546001600160a01b0319166001600160a01b039290921691909117815590516003811015610dd557610bf091612e94565b6003810192519283516001600160401b03811161039857610c15816102438454612c39565b6020601f8211600114610d6c579080610c489260049697600092610d615750508160011b916000199060031b1c19161790565b90555b0190519081516001600160401b03811161039857610c6d816102438454612c39565b602092601f8211600114610cfe57610c9e92938291600092610cf35750508160011b916000199060031b1c19161790565b90555b600954600160401b81101561039857610cc5816001610ce393016009556009612930565b81543360039290921b91821b6001600160a01b0390921b1916179055565b610cee600554612e4c565b600555005b015190508480610268565b601f1982169383600052806000209160005b868110610d495750836001959610610d30575b505050811b019055610ca1565b015160001960f88460031b161c19169055838080610d23565b91926020600181928685015181550194019201610d10565b015190508780610268565b601f1982169583600052816000209660005b818110610dbd5750916004969791846001959410610da4575b505050811b019055610c4b565b015160001960f88460031b161c19169055868080610d97565b83830151895560019098019760209384019301610d7e565b634e487b7160e01b600052602160045260246000fd5b3461047557602036600319011261047557600435600b5481101561047557610e146020916128df565b905460405160039290921b1c6001600160a01b03168152f35b3461047557600036600319011261047557600e54610e4a81612dd2565b9060005b818110610e6357604051806105cf8582612a5b565b80610e6f6001926128c4565b838060a01b0391549060031b1c1660005260076020526040600020610eed60ff600460405193610e9e85612b11565b8281541615158552610eb1878201612c73565b6020860152610ec260028201612c73565b6040860152600381015460608601520154858060a01b038116608085015260a01c1660a08301612dc6565b610ef78286612db2565b52610f028185612db2565b5001610e4e565b34610475576000366003190112610475576000546040516001600160a01b039091168152602090f35b34610475576020366003190112610475576001600160a01b03610f53612ba3565b166000526008602052604060002080546105cf600183015492610fcd600282015491610fbc610f906004610f8960038501612c73565b9301612c73565b936040519788978852602088015260018060a01b038116604088015260ff606088019160a01c16612948565b60c0608086015260c0850190612955565b9083820360a0850152612955565b3461047557600036600319011261047557600f54610ff881612dd2565b9060005b81811061101157604051806105cf8582612a5b565b8061101d600192612915565b838060a01b0391549060031b1c166000526007602052604060002061104c60ff600460405193610e9e85612b11565b6110568286612db2565b526110618185612db2565b5001610ffc565b3461047557600036600319011261047557604051600060015461108a81612c39565b808452906001811690811561112557506001146110c6575b6105cf836110b281850382612b2c565b604051918291602083526020830190612955565b600160009081527fb10e2d527612073b26eecdfd717e6a320cf44b4afac2b0732d9fcbe2b7fa0cf6939250905b80821061110b575090915081016020016110b26110a2565b9192600181602092548385880101520191019092916110f3565b60ff191660208086019190915291151560051b840190910191506110b290506110a2565b3461047557602036600319011261047557600435600a5481101561047557610e146020916128fa565b34610475576020366003190112610475576004356001600160401b038111610475576111a2903690600401612b4d565b6111b860025480159081156112d5575b50612f59565b33600090815260076020526040902060048101546001600160a01b0316156112905760020181516001600160401b038111610398576111fb816102438454612c39565b602092601f82116001146112305761122c92938291600092610cf35750508160011b916000199060031b1c19161790565b9055005b601f1982169383600052806000209160005b868110611278575083600195961061125f575b505050811b019055005b015160001960f88460031b161c19169055838080611255565b91926020600181928685015181550194019201611242565b60405162461bcd60e51b815260206004820152601860248201527f4e6f20766f746572206461746120617661696c61626c652e00000000000000006044820152606490fd5b90504210836111b2565b34610475576112ed36612bfa565b9061130360018060a01b03600054163314612e5b565b6001600160a01b038181166000818152600860205260409020600281018054929493909216156114bb57815460ff60a01b1916600160a01b179091558351600491909101906001600160401b03811161039857611364816102438454612c39565b602094601f82116001146114565761139792939495829160009261144b5750508160011b916000199060031b1c19161790565b90555b600b5490600160401b821015610398576102a58260016113bf9401600b55600b612930565b60005b600d548082101561039657826113d78361288e565b905460039190911b1c6001600160a01b0316146113f757506001016113c2565b600019810192508211610380576102a561141361142b9361288e565b905460039190911b1c6001600160a01b03169161288e565b600d54801561036a576000190161144661035082600d612930565b600d55005b015190508680610268565b601f1982169583600052806000209160005b8881106114a35750836001959697981061148a575b505050811b01905561139a565b015160001960f88460031b161c1916905585808061147d565b91926020600181928685015181550194019201611468565b60405162461bcd60e51b815260206004820152602d60248201527f546869732063616e64696461746520646f6573206e6f7420617070656172206960448201526c371037bab91039bcb9ba32b69760991b6064820152608490fd5b34610475576020366003190112610475576004356001600160401b03811161047557611546903690600401612b4d565b61155b60025480159081156112d55750612f59565b33600090815260086020526040902060028101546001600160a01b0316156116155760030181516001600160401b0381116103985761159e816102438454612c39565b602092601f82116001146115cf5761122c92938291600092610cf35750508160011b916000199060031b1c19161790565b601f1982169383600052806000209160005b8681106115fd575083600195961061125f57505050811b019055005b919260206001819286850151815501940192016115e1565b60405162461bcd60e51b815260206004820152601c60248201527f4e6f2063616e646964617465206461746120617661696c61626c652e000000006044820152606490fd5b3461047557602036600319011261047557611673612ba3565b60025442106118265760035442116117ee57336000526007602052604060002060ff600482015460a01c166003811015610dd5576001036117a95780549160ff831661176b5760018060a01b0316600052600860205260406000209060ff600283015460a01c166003811015610dd557600103611726576001809360ff1916179055016117008154612e4c565b9055600f54600160401b81101561039857610cc58160016103969301600f55600f612930565b60405162461bcd60e51b815260206004820152601a60248201527f43616e646964617465206973206e6f742061636365707465642e0000000000006044820152606490fd5b60405162461bcd60e51b8152602060048201526016602482015275165bdd481a185d9948185b1c9958591e481d9bdd195960521b6044820152606490fd5b60405162461bcd60e51b815260206004820152601e60248201527f596f7520617265206e6f74206120636f6e6669726d656420766f7465722e00006044820152606490fd5b60405162461bcd60e51b815260206004820152601060248201526f159bdd1a5b99c81a185cc8195b99195960821b6044820152606490fd5b60405162461bcd60e51b815260206004820152601a60248201527f566f74696e6720686173206e6f742073746172746564207965740000000000006044820152606490fd5b34610475576020366003190112610475576004356001600160401b0381116104755761189b903690600401612b4d565b6006546040516118aa81612b11565b600081526118b6612f14565b90602081019182526040810193845260608101928352608081019233845260a08201926000845233600052600760205260406000209251151560ff801985541691161783556001830190518051906001600160401b03821161039857611926826119208554612c39565b85612ecf565b602090601f8311600114611a9e57611956929160009183611a295750508160011b916000199060031b1c19161790565b90555b6002820194519485516001600160401b0381116103985761197e816102438454612c39565b6020601f8211600114611a345790806119b2926004979899600092611a295750508160011b916000199060031b1c19161790565b90555b516003828101919091559351910180546001600160a01b0319166001600160a01b039290921691909117815590519091811015610dd5576119f591612e94565b600a54600160401b81101561039857610cc5816001611a199301600a55600a612930565b611a24600654612e4c565b600655005b015190508980610268565b601f1982169783600052816000209860005b818110611a86575091600497989991846001959410611a6d575b505050811b0190556119b5565b015160001960f88460031b161c19169055888080611a60565b838301518b556001909a019960209384019301611a46565b90601f1983169184600052816000209260005b818110611aed5750908460019594939210611ad4575b505050811b019055611959565b015160001960f88460031b161c19169055888080611ac7565b92936020600181928786015181550195019301611ab1565b3461047557600036600319011261047557600a54611b2281612dd2565b9060005b818110611b3b57604051806105cf8582612a5b565b80611b476001926128fa565b838060a01b0391549060031b1c1660005260076020526040600020611b7660ff600460405193610e9e85612b11565b611b808286612db2565b52611b8b8185612db2565b5001611b26565b3461047557602036600319011261047557600435600f5481101561047557610e14602091612915565b3461047557602036600319011261047557600435600d5481101561047557610e1460209161288e565b3461047557602036600319011261047557600435611c0d60018060a01b03600054163314612e5b565b600454611c8657600354811115611c2357600455005b60405162461bcd60e51b815260206004820152603560248201527f526573756c74207075626c69636174696f6e2074696d65206d75737420626520604482015274616674657220766f74696e6720656e642074696d6560581b6064820152608490fd5b60405162461bcd60e51b815260206004820152602360248201527f526573756c74207075626c69636174696f6e2074696d6520616c7265616479206044820152621cd95d60ea1b6064820152608490fd5b3461047557611ce536612bfa565b90611cfb60018060a01b03600054163314612e5b565b6001600160a01b03818116600081815260086020526040902060028101805492949390921615611ea857815460ff60a01b1916600160a11b179091558351600491909101906001600160401b03811161039857611d5c816102438454612c39565b602094601f8211600114611e4357611d8f92939495829160009261144b5750508160011b916000199060031b1c19161790565b90555b600d5490600160401b821015610398576102a5826001611db79401600d55600d612930565b60005b600b54808210156103965782611dcf836128df565b905460039190911b1c6001600160a01b031614611def5750600101611dba565b600019810192508211610380576102a5611e0b611e23936128df565b905460039190911b1c6001600160a01b0316916128df565b600b54801561036a5760001901611e3e61035082600b612930565b600b55005b601f1982169583600052806000209160005b888110611e9057508360019596979810611e77575b505050811b019055611d92565b015160001960f88460031b161c19169055858080611e6a565b91926020600181928685015181550194019201611e55565b60405162461bcd60e51b815260206004820152601b60248201527f4e6f2063616e646964617465206461746120617661696c61626c6500000000006044820152606490fd5b3461047557602036600319011261047557600435600c5481101561047557610e146020916128a9565b3461047557611f2436612bb9565b600a549060208301906000805b8481106120535750611f4290612dd2565b9360009160005b858110611f5e57604051806105cf8982612a5b565b611f67816128fa565b60018060a01b0391549060031b1c166000526007602052604060002060405190611f9082612b11565b60ff81541615158252611fa560018201612c73565b60208301526004611fb860028301612c73565b916040840192835260038101546060850152015490611fef60ff608085019360018060a01b038116855260a01c1660a08501612dc6565b51602081519101208551882014908161203c575b50612012575b50600101611f49565b8461203591612024600194978b612db2565b5261202f818a612db2565b50612e4c565b9390612009565b516001600160a01b03858116911614905089612003565b61205c816128fa565b60018060a01b0391549060031b1c16600052600760205260406000206040519061208582612b11565b60ff8154161515825261209a60018201612c73565b60208301526120e560046120b060028401612c73565b60408501908152600384015460608601529201546001600160a01b038116608085019081529360a091821c60ff169101612dc6565b51602081519101208751862014908161211b575b50612107575b600101611f31565b90612113600191612e4c565b9190506120ff565b516001600160a01b038581169116149050876120f9565b346104755761214036612bfa565b9061215660018060a01b03600054163314612e5b565b6001600160a01b0381811660008181526007602052604090206004810180549294939092161561230357815460ff60a01b1916600160a11b179091558351600191909101906001600160401b038111610398576121b7816102438454612c39565b602094601f821160011461229e576121ea92939495829160009261144b5750508160011b916000199060031b1c19161790565b90555b600e5490600160401b821015610398576102a58260016122129401600e55600e612930565b60005b600c5480821015610396578261222a836128a9565b905460039190911b1c6001600160a01b03161461224a5750600101612215565b600019810192508211610380576102a561226661227e936128a9565b905460039190911b1c6001600160a01b0316916128a9565b600c54801561036a576000190161229961035082600c612930565b600c55005b601f1982169583600052806000209160005b8881106122eb575083600195969798106122d2575b505050811b0190556121ed565b015160001960f88460031b161c191690558580806122c5565b919260206001819286850151815501940192016122b0565b60405162461bcd60e51b815260206004820152601760248201527f4e6f20766f746572206461746120617661696c61626c650000000000000000006044820152606490fd5b346104755761235636612bb9565b6009549060208301906000805b848110612472575061237490612d62565b9360009160005b85811061239057604051806105cf89826129fb565b6123998161285d565b60018060a01b0391549060031b1c1660005260086020526040600020604051906123c282612b11565b805482526001810154602083015260028101546001600160a01b0381166040840190815291906123fb9060a01c60ff1660608501612dc6565b61241a600461240c60038401612c73565b926080860193845201612c73565b60a084015251602081519101208551882014908161245b575b50612442575b5060010161237b565b8461245491612024600194978b612db2565b9390612439565b516001600160a01b03858116911614905089612433565b61247b8161285d565b60018060a01b0391549060031b1c1660005260086020526040600020604051906124a482612b11565b805482526001810154602083015260028101546001600160a01b0381166040840190815292906124dd9060a01c60ff1660608301612dc6565b60a06124fe60046124f060038601612c73565b946080850195865201612c73565b910152516020815191012087518620149081612537575b50612523575b600101612363565b9061252f600191612e4c565b91905061251b565b516001600160a01b03858116911614905087612515565b3461047557600036600319011261047557600b5461256b81612d62565b9060005b81811061258457604051806105cf85826129fb565b806125906001926128df565b838060a01b0391549060031b1c16600052600860205260406000206126056004604051926125bd84612b11565b805484528581015460208501526125ee60ff6002830154888060a01b038116604088015260a01c1660608601612dc6565b6125fa60038201612c73565b608085015201612c73565b60a08201526126148286612db2565b5261261f8185612db2565b500161256f565b3461047557602036600319011261047557600435600e5481101561047557610e146020916128c4565b3461047557600036600319011261047557600c5461266c81612dd2565b9060005b81811061268557604051806105cf8582612a5b565b806126916001926128a9565b838060a01b0391549060031b1c16600052600760205260406000206126c060ff600460405193610e9e85612b11565b6126ca8286612db2565b526126d58185612db2565b5001612670565b34610475576000366003190112610475576020600254604051908152f35b346104755760003660031901126104755760095461271781612d62565b9060005b81811061273057604051806105cf85826129fb565b8061273c60019261285d565b838060a01b0391549060031b1c16600052600860205260406000206127696004604051926125bd84612b11565b60a08201526127788286612db2565b526127838185612db2565b500161271b565b34610475576000366003190112610475576020600354604051908152f35b3461047557600036600319011261047557600d546127c581612d62565b9060005b8181106127de57604051806105cf85826129fb565b806127ea60019261288e565b838060a01b0391549060031b1c16600052600860205260406000206128176004604051926125bd84612b11565b60a08201526128268286612db2565b526128318185612db2565b50016127c9565b346104755760203660031901126104755760043560095481101561047557610e146020915b60095481101561287857600960005260206000200190600090565b634e487b7160e01b600052603260045260246000fd5b600d5481101561287857600d60005260206000200190600090565b600c5481101561287857600c60005260206000200190600090565b600e5481101561287857600e60005260206000200190600090565b600b5481101561287857600b60005260206000200190600090565b600a5481101561287857600a60005260206000200190600090565b600f5481101561287857600f60005260206000200190600090565b80548210156128785760005260206000200190600090565b906003821015610dd55752565b919082519283825260005b848110612981575050826000602080949584010152601f8019910116010190565b80602080928401015182828601015201612960565b6129f891815181526020820151602082015260018060a01b0360408301511660408201526129cc60608301516060830190612948565b60a06129e7608084015160c0608085015260c0840190612955565b9201519060a0818403910152612955565b90565b602081016020825282518091526040820191602060408360051b8301019401926000915b838310612a2e57505050505090565b9091929394602080612a4c600193603f198682030187528951612996565b97019301930191939290612a1f565b602081016020825282518091526040820191602060408360051b8301019401926000915b838310612a8e57505050505090565b9091929394602080600192603f19858203018652612b0289519182511515815260a080612add612acb8787015160c08987015260c0860190612955565b60408701518582036040870152612955565b94606081015160608501528880831b0360808201511660808501520151910190612948565b97019301930191939290612a7f565b60c081019081106001600160401b0382111761039857604052565b90601f801991011681019081106001600160401b0382111761039857604052565b81601f82011215610475578035906001600160401b0382116103985760405192612b81601f8401601f191660200185612b2c565b8284526020838301011161047557816000926020809301838601378301015290565b600435906001600160a01b038216820361047557565b604060031982011261047557600435906001600160401b03821161047557612be391600401612b4d565b906024356001600160a01b03811681036104755790565b906040600319830112610475576004356001600160a01b03811681036104755791602435906001600160401b038211610475576129f891600401612b4d565b90600182811c92168015612c69575b6020831014612c5357565b634e487b7160e01b600052602260045260246000fd5b91607f1691612c48565b9060405191826000825492612c8784612c39565b8084529360018116908115612cf55750600114612cae575b50612cac92500383612b2c565b565b90506000929192526020600020906000915b818310612cd9575050906020612cac9282010138612c9f565b6020919350806001915483858901015201910190918492612cc0565b905060209250612cac94915060ff191682840152151560051b82010138612c9f565b6001600160401b0381116103985760051b60200190565b60405190612d3b82612b11565b606060a0836000815260006020820152600060408201526000838201528260808201520152565b90612d6c82612d17565b612d796040519182612b2c565b8281528092612d8a601f1991612d17565b019060005b828110612d9b57505050565b602090612da6612d2e565b82828501015201612d8f565b80518210156128785760209160051b010190565b6003821015610dd55752565b90612ddc82612d17565b612de96040519182612b2c565b8281528092612dfa601f1991612d17565b019060005b828110612e0b57505050565b602090604051612e1a81612b11565b60008152606083820152606060408201526000606082015260006080820152600060a082015282828501015201612dff565b60001981146103805760010190565b15612e6257565b60405162461bcd60e51b815260206004820152600a60248201526927b7363c9037bbb732b960b11b6044820152606490fd5b906003811015610dd557815460ff60a01b191660a09190911b60ff60a01b16179055565b818110612ec3575050565b60008155600101612eb8565b9190601f8111612ede57505050565b612cac926000526020600020906020601f840160051c83019310612f0a575b601f0160051c0190612eb8565b9091508190612efd565b60405190612f23606083612b2c565b60218252601b60fa1b6040837f526567697374726174696f6e206973206177616974696e6720617070726f766160208201520152565b15612f6057565b60405162461bcd60e51b815260206004820152602160248201527f43616e6e6f74206d6f6469667920616674657220766f74696e672073746172746044820152607360f81b6064820152608490fd5b612fb98154612c39565b9081612fc3575050565b81601f60009311600114612fd5575055565b81835260208320612ff191601f0160051c810190600101612eb8565b8082528160208120915555565b613006612d2e565b5061300f612d2e565b600b546000805b8281106130235750505090565b61302c816128df565b60018060a01b0391549060031b1c16600052600860205260406000206040519061305582612b11565b805482526130a760046001830154926020850193845261309060ff600283015460018060a01b038116604089015260a01c1660608701612dc6565b61309c60038201612c73565b608086015201612c73565b60a0830152518381116130bf575b5050600101613016565b90945091506001386130b5565b6130d4612d2e565b50600b541561316a5760035442106130ee576129f8612ffe565b6040516130fa81612b11565b60008152600060208201526000604082015260006060820152604051613121602082612b2c565b600081526080820152604051613138604082612b2c565b601f81527f506c65617365207761697420756e74696c20656c656374696f6e20656e647300602082015260a082015290565b60405162461bcd60e51b8152602060048201526024808201527f4e6f2043616e6469646174657320616363657074656420666f7220656c65637460448201526334b7b71760e11b6064820152608490fdfea264697066735822122009cd7b17a891772d6cd809f44bd76647790ee92ddd90c2d5c30b21230c7dd01764736f6c634300081c0033",
  "linkReferences": {},
  "deployedLinkReferences": {}
}