{"contracts/VotingSystem.sol":{"VotingSystem":{"abi":[{"inputs":[{"internalType":"string","name":"_name","type":"string"}],"stateMutability":"nonpayable","type":"constructor"},{"inputs":[],"name":"CurrentVotingStatus","outputs":[{"components":[{"internalType":"uint256","name":"registeredId","type":"uint256"},{"internalType":"uint256","name":"voteCalculation","type":"uint256"},{"internalType":"address","name":"candidatesAddress","type":"address"},{"internalType":"enum VotingSystem.ConfirmationStatus","name":"status","type":"uint8"},{"internalType":"string","name":"ipfsHash","type":"string"},{"internalType":"string","name":"message","type":"string"}],"internalType":"struct VotingSystem.Candidate","name":"","type":"tuple"}],"stateMutability":"view","type":"function"},{"inputs":[],"name":"ListofAcceptedCandidates","outputs":[{"components":[{"internalType":"uint256","name":"registeredId","type":"uint256"},{"internalType":"uint256","name":"voteCalculation","type":"uint256"},{"internalType":"address","name":"candidatesAddress","type":"address"},{"internalType":"enum VotingSystem.ConfirmationStatus","name":"status","type":"uint8"},{"internalType":"string","name":"ipfsHash","type":"string"},{"internalType":"string","name":"message","type":"string"}],"internalType":"struct VotingSystem.Candidate[]","name":"","type":"tuple[]"}],"stateMutability":"view","type":"function"},{"inputs":[],"name":"ListofAcceptedVoters","outputs":[{"components":[{"internalType":"bool","name":"alreadyVoted","type":"bool"},{"internalType":"string","name":"message","type":"string"},{"internalType":"string","name":"ipfsHash","type":"string"},{"internalType":"uint256","name":"registeredId","type":"uint256"},{"internalType":"address","name":"votersAddress","type":"address"},{"internalType":"enum VotingSystem.ConfirmationStatus","name":"status","type":"uint8"}],"internalType":"struct VotingSystem.Voter[]","name":"","type":"tuple[]"}],"stateMutability":"view","type":"function"},{"inputs":[],"name":"ListofRegisteredCandidates","outputs":[{"components":[{"internalType":"uint256","name":"registeredId","type":"uint256"},{"internalType":"uint256","name":"voteCalculation","type":"uint256"},{"internalType":"address","name":"candidatesAddress","type":"address"},{"internalType":"enum VotingSystem.ConfirmationStatus","name":"status","type":"uint8"},{"internalType":"string","name":"ipfsHash","type":"string"},{"internalType":"string","name":"message","type":"string"}],"internalType":"struct VotingSystem.Candidate[]","name":"","type":"tuple[]"}],"stateMutability":"view","type":"function"},{"inputs":[],"name":"ListofRegisteredVoters","outputs":[{"components":[{"internalType":"bool","name":"alreadyVoted","type":"bool"},{"internalType":"string","name":"message","type":"string"},{"internalType":"string","name":"ipfsHash","type":"string"},{"internalType":"uint256","name":"registeredId","type":"uint256"},{"internalType":"address","name":"votersAddress","type":"address"},{"internalType":"enum VotingSystem.ConfirmationStatus","name":"status","type":"uint8"}],"internalType":"struct VotingSystem.Voter[]","name":"","type":"tuple[]"}],"stateMutability":"view","type":"function"},{"inputs":[],"name":"ListofRejectedCandidates","outputs":[{"components":[{"internalType":"uint256","name":"registeredId","type":"uint256"},{"internalType":"uint256","name":"voteCalculation","type":"uint256"},{"internalType":"address","name":"candidatesAddress","type":"address"},{"internalType":"enum VotingSystem.ConfirmationStatus","name":"status","type":"uint8"},{"internalType":"string","name":"ipfsHash","type":"string"},{"internalType":"string","name":"message","type":"string"}],"internalType":"struct VotingSystem.Candidate[]","name":"","type":"tuple[]"}],"stateMutability":"view","type":"function"},{"inputs":[],"name":"ListofRejectedVoters","outputs":[{"components":[{"internalType":"bool","name":"alreadyVoted","type":"bool"},{"internalType":"string","name":"message","type":"string"},{"internalType":"string","name":"ipfsHash","type":"string"},{"internalType":"uint256","name":"registeredId","type":"uint256"},{"internalType":"address","name":"votersAddress","type":"address"},{"internalType":"enum VotingSystem.ConfirmationStatus","name":"status","type":"uint8"}],"internalType":"struct VotingSystem.Voter[]","name":"","type":"tuple[]"}],"stateMutability":"view","type":"function"},{"inputs":[{"internalType":"uint256","name":"","type":"uint256"}],"name":"acceptedCandidates","outputs":[{"internalType":"address","name":"","type":"address"}],"stateMutability":"view","type":"function"},{"inputs":[{"internalType":"uint256","name":"","type":"uint256"}],"name":"acceptedVoters","outputs":[{"internalType":"address","name":"","type":"address"}],"stateMutability":"view","type":"function"},{"inputs":[{"internalType":"address","name":"_candidatesAddress","type":"address"},{"internalType":"string","name":"_message","type":"string"}],"name":"approveCandidate","outputs":[],"stateMutability":"nonpayable","type":"function"},{"inputs":[{"internalType":"address","name":"_votersAddress","type":"address"},{"internalType":"string","name":"_message","type":"string"}],"name":"approveVoter","outputs":[],"stateMutability":"nonpayable","type":"function"},{"inputs":[{"internalType":"address","name":"","type":"address"}],"name":"candidates","outputs":[{"internalType":"uint256","name":"registeredId","type":"uint256"},{"internalType":"uint256","name":"voteCalculation","type":"uint256"},{"internalType":"address","name":"candidatesAddress","type":"address"},{"internalType":"enum VotingSystem.ConfirmationStatus","name":"status","type":"uint8"},{"internalType":"string","name":"ipfsHash","type":"string"},{"internalType":"string","name":"message","type":"string"}],"stateMutability":"view","type":"function"},{"inputs":[{"internalType":"uint256","name":"","type":"uint256"}],"name":"candidatesRegistered","outputs":[{"internalType":"address","name":"","type":"address"}],"stateMutability":"view","type":"function"},{"inputs":[{"internalType":"address","name":"newOwner","type":"address"}],"name":"changeOwner","outputs":[],"stateMutability":"nonpayable","type":"function"},{"inputs":[],"name":"electionName","outputs":[{"internalType":"string","name":"","type":"string"}],"stateMutability":"view","type":"function"},{"inputs":[],"name":"getAllVotersWhoCasted","outputs":[{"components":[{"internalType":"bool","name":"alreadyVoted","type":"bool"},{"internalType":"string","name":"message","type":"string"},{"internalType":"string","name":"ipfsHash","type":"string"},{"internalType":"uint256","name":"registeredId","type":"uint256"},{"internalType":"address","name":"votersAddress","type":"address"},{"internalType":"enum VotingSystem.ConfirmationStatus","name":"status","type":"uint8"}],"internalType":"struct VotingSystem.Voter[]","name":"","type":"tuple[]"}],"stateMutability":"view","type":"function"},{"inputs":[],"name":"owner","outputs":[{"internalType":"address","name":"","type":"address"}],"stateMutability":"view","type":"function"},{"inputs":[{"internalType":"string","name":"_ipfsHash","type":"string"}],"name":"registerCandidate","outputs":[],"stateMutability":"nonpayable","type":"function"},{"inputs":[{"internalType":"string","name":"_ipfsHash","type":"string"}],"name":"registerVoter","outputs":[],"stateMutability":"nonpayable","type":"function"},{"inputs":[{"internalType":"address","name":"_candidatesAddress","type":"address"},{"internalType":"string","name":"_message","type":"string"}],"name":"rejectCandidate","outputs":[],"stateMutability":"nonpayable","type":"function"},{"inputs":[{"internalType":"address","name":"_votersAddress","type":"address"},{"internalType":"string","name":"_message","type":"string"}],"name":"rejectVoter","outputs":[],"stateMutability":"nonpayable","type":"function"},{"inputs":[{"internalType":"uint256","name":"","type":"uint256"}],"name":"rejectedCandidates","outputs":[{"internalType":"address","name":"","type":"address"}],"stateMutability":"view","type":"function"},{"inputs":[{"internalType":"uint256","name":"","type":"uint256"}],"name":"rejectedVoters","outputs":[{"internalType":"address","name":"","type":"address"}],"stateMutability":"view","type":"function"},{"inputs":[],"name":"resetContract","outputs":[],"stateMutability":"nonpayable","type":"function"},{"inputs":[],"name":"resultPublicationTime","outputs":[{"internalType":"uint256","name":"","type":"uint256"}],"stateMutability":"view","type":"function"},{"inputs":[{"internalType":"string","name":"_ipfsHash","type":"string"},{"internalType":"address","name":"_addr","type":"address"}],"name":"searchCandidate","outputs":[{"components":[{"internalType":"uint256","name":"registeredId","type":"uint256"},{"internalType":"uint256","name":"voteCalculation","type":"uint256"},{"internalType":"address","name":"candidatesAddress","type":"address"},{"internalType":"enum VotingSystem.ConfirmationStatus","name":"status","type":"uint8"},{"internalType":"string","name":"ipfsHash","type":"string"},{"internalType":"string","name":"message","type":"string"}],"internalType":"struct VotingSystem.Candidate[]","name":"","type":"tuple[]"}],"stateMutability":"view","type":"function"},{"inputs":[{"internalType":"address","name":"_addr","type":"address"}],"name":"searchVoter","outputs":[{"components":[{"internalType":"bool","name":"alreadyVoted","type":"bool"},{"internalType":"string","name":"message","type":"string"},{"internalType":"string","name":"ipfsHash","type":"string"},{"internalType":"uint256","name":"registeredId","type":"uint256"},{"internalType":"address","name":"votersAddress","type":"address"},{"internalType":"enum VotingSystem.ConfirmationStatus","name":"status","type":"uint8"}],"internalType":"struct VotingSystem.Voter","name":"","type":"tuple"}],"stateMutability":"view","type":"function"},{"inputs":[{"internalType":"uint256","name":"_resultPublicationTime","type":"uint256"}],"name":"setResultPublicationTime","outputs":[],"stateMutability":"nonpayable","type":"function"},{"inputs":[{"internalType":"uint256","name":"_votingStartTime","type":"uint256"},{"internalType":"uint256","name":"_votingEndTime","type":"uint256"}],"name":"startendVoting","outputs":[],"stateMutability":"nonpayable","type":"function"},{"inputs":[{"internalType":"string","name":"_ipfsHash","type":"string"}],"name":"updateCandidate","outputs":[],"stateMutability":"nonpayable","type":"function"},{"inputs":[{"internalType":"string","name":"_ipfsHash","type":"string"}],"name":"updateVoter","outputs":[],"stateMutability":"nonpayable","type":"function"},{"inputs":[{"internalType":"address","name":"_candidatesAddress","type":"address"}],"name":"vote","outputs":[],"stateMutability":"nonpayable","type":"function"},{"inputs":[{"internalType":"address","name":"","type":"address"}],"name":"voters","outputs":[{"internalType":"bool","name":"alreadyVoted","type":"bool"},{"internalType":"string","name":"message","type":"string"},{"internalType":"string","name":"ipfsHash","type":"string"},{"internalType":"uint256","name":"registeredId","type":"uint256"},{"internalType":"address","name":"votersAddress","type":"address"},{"internalType":"enum VotingSystem.ConfirmationStatus","name":"status","type":"uint8"}],"stateMutability":"view","type":"function"},{"inputs":[{"internalType":"uint256","name":"","type":"uint256"}],"name":"votersRegistered","outputs":[{"internalType":"address","name":"","type":"address"}],"stateMutability":"view","type":"function"},{"inputs":[{"internalType":"uint256","name":"","type":"uint256"}],"name":"votersWhoCasted","outputs":[{"internalType":"address","name":"","type":"address"}],"stateMutability":"view","type":"function"},{"inputs":[],"name":"votingEndTime","outputs":[{"internalType":"uint256","name":"","type":"uint256"}],"stateMutability":"view","type":"function"},{"inputs":[],"name":"votingStartTime","outputs":[{"internalType":"uint256","name":"","type":"uint256"}],"stateMutability":"view","type":"function"},{"inputs":[],"name":"winningCandidate","outputs":[{"components":[{"internalType":"uint256","name":"registeredId","type":"uint256"},{"internalType":"uint256","name":"voteCalculation","type":"uint256"},{"internalType":"address","name":"candidatesAddress","type":"address"},{"internalType":"enum VotingSystem.ConfirmationStatus","name":"status","type":"uint8"},{"internalType":"string","name":"ipfsHash","type":"string"},{"internalType":"string","name":"message","type":"string"}],"internalType":"struct VotingSystem.Candidate","name":"","type":"tuple"}],"stateMutability":"view","type":"function"}],"evm":{"bytecode":{"linkReferences":{},"object":"60806040523461023b5761335c8038038061001981610240565b92833981019060208183031261023b578051906001600160401b03821161023b570181601f8201121561023b578051906001600160401b0382116102105761006a601f8301601f1916602001610240565b928284526020838301011161023b5760005b82811061022657600083850160200181905280546001600160a01b03191633179055835184906001600160401b03811161021057600154600181811c91168015610206575b60208210146101f057601f811161018b575b50602091601f82116001146101275791819260009261011c575b50508160011b916000199060031b1c1916176001555b600160055560016006556040516130f690816102668239f35b0151905082806100ed565b601f198216926001600052806000209160005b8581106101735750836001951061015a575b505050811b01600155610103565b015160001960f88460031b161c1916905582808061014c565b9192602060018192868501518155019401920161013a565b60016000527fb10e2d527612073b26eecdfd717e6a320cf44b4afac2b0732d9fcbe2b7fa0cf6601f830160051c810191602084106101e6575b601f0160051c01905b8181106101da57506100d3565b600081556001016101cd565b90915081906101c4565b634e487b7160e01b600052602260045260246000fd5b90607f16906100c1565b634e487b7160e01b600052604160045260246000fd5b8060208092840101518282870101520161007c565b600080fd5b6040519190601f01601f191682016001600160401b038111838210176102105760405256fe6080604052600436101561001257600080fd5b60003560e01c80630366ac3714612769578063073f966d146126d95780631ea736e0146126bb5780631ee9367c1461262b5780632019a6081461260d57806323a2b2ed146125805780633afa3e07146125575780633cfde26c1461247f578063429b0b22146122335780634a2846a81461201d57806353dd128c14611ff457806359632c2214611dde5780635b45cfca14611ceb5780635e894b1214611cc25780635f1bc34e14611c9957806360fc4e3214611c0c5780636428a486146119725780636dd7d8ea1461176157806379432db51461161d5780637eb21b51146113e657806382ff2aeb14611279578063849c56571461125057806385e8e7a71461116f5780638987cb32146110e25780638ab66a90146110395780638da5cb5b14611010578063964a43b914610f345780639e7a814514610ef25780639eb88db614610c35578063a3ec138d14610b84578063a6f9dae114610ae2578063ac94ba4c14610ac4578063b181a8fc146106f6578063b381a935146105ef578063bab912a2146105d3578063d28178d71461059f578063f33698f11461047a5763fad761d3146101be57600080fd5b34610475576101cc36612af6565b906101e260018060a01b03600054163314612d60565b6001600160a01b0381811660008181526007602052604090206004810180549294939092161561041e57815460ff60a01b1916600160a01b179091558351600191909101906001600160401b03811161039857610249816102438454612b35565b84612dd4565b602094601f82116001146103b95761027d9293949582916000926103ae575b50508160011b916000199060031b1c19161790565b90555b600c5490600160401b821015610398576102a58260016102c99401600c55600c612861565b9080546001600160a01b0360039390931b83811b199091169290931690921b179055565b60005b600e548082101561039657826102e1836127f5565b905460039190911b1c6001600160a01b03161461030157506001016102cc565b600019810192508211610380576102a561031d610335936127f5565b905460039190911b1c6001600160a01b0316916127f5565b600e54801561036a576000190161036561035082600e612861565b81549060018060a01b039060031b1b19169055565b600e55005b634e487b7160e01b600052603160045260246000fd5b634e487b7160e01b600052601160045260246000fd5b005b634e487b7160e01b600052604160045260246000fd5b015190503880610268565b601f1982169583600052806000209160005b888110610406575083600195969798106103ed575b505050811b019055610280565b015160001960f88460031b161c191690553880806103e0565b919260206001819286850151815501940192016103cb565b60405162461bcd60e51b815260206004820152602960248201527f5468697320766f74657220646f6573206e6f742061707065617220696e206f75604482015268391039bcb9ba32b69760b91b6064820152608490fd5b600080fd5b3461047557604036600319011261047557600435602435906104a760018060a01b03600054163314612d60565b60025461055a574281111561051657818110156104c657600255600355005b60405162461bcd60e51b815260206004820152602260248201527f53746172742074696d65206d757374206265206265666f726520656e642074696044820152616d6560f01b6064820152608490fd5b606460405162461bcd60e51b815260206004820152602060248201527f53746172742074696d65206d75737420626520696e20746865206675747572656044820152fd5b60405162461bcd60e51b815260206004820152601860248201527f566f74696e6720616c7265616479207363686564756c656400000000000000006044820152606490fd5b34610475576000366003190112610475576105cf6105bb612fd1565b6040519182916020835260208301906128c7565b0390f35b34610475576000366003190112610475576105cf6105bb612f03565b3461047557602036600319011261047557610608612ae0565b610610612cce565b506001600160a01b03908116600081815260076020526040902060040154909116156106bf5760005260076020526105cf60406000206106ab60ff60046040519361065a85612a4e565b828154161515855261066e60018201612b6f565b602086015261067f60028201612b6f565b604086015260038101546060860152015460018060a01b038116608085015260a01c1660a08301612cc2565b60405191829160208352602083019061298c565b60405162461bcd60e51b815260206004820152600f60248201526e159bdd195c881b9bdd08199bdd5b99608a1b6044820152606490fd5b346104755760003660031901126104755761071c60018060a01b03600054163314612d60565b6003548015159081610aba575b5015610a5b5761073a600154612b35565b601f8111610a1c575b50600060015560006002556000600355600060045560005b6009548110156107ba578061077160019261278e565b838060a01b0391549060031b1c1660005260086020526107b46004604060002060008155600085820155600060028201556107ae60038201612eb4565b01612eb4565b0161075b565b6009546000600955806109e3575b50600b546000600b55806109aa575b50600d546000600d5580610971575b5060005b600a548110156108465780610800600192612846565b838060a01b0391549060031b1c166000526007602052600060046040822082815561082c858201612eb4565b61083860028201612eb4565b8260038201550155016107ea565b600a546000600a5580610938575b50600c546000600c55806108ff575b50600e546000600e55806108c6575b50600f546000600f558061088d575b60016005819055600655005b600f6000526108c0907f8d1108e10bcb7c27dddfc02ed9d693a074039d026cf4ea4240b40f7d581ac80290810190612dbd565b80610881565b600e6000526108f9907fbb7b4a454dc3493923482f07822329ed19e8244eff582cc204f8554c3620c3fd90810190612dbd565b80610872565b600c600052610932907fdf6966c971051c3d54ec59162606531493a51404a002842f56009d7e5cf4a8c790810190612dbd565b80610863565b600a60005261096b907fc65a7bb8d6351c1cf70c95a316cc6a92839c986682d98bc35f958f4883f9d2a890810190612dbd565b80610854565b600d6000526109a4907fd7b6990105719101dabeb77144f2a3385c8033acd3af97e9423a695e81ad1eb590810190612dbd565b806107e6565b600b6000526109dd907f0175b7a638427703f0dbe7bb9bbf987a2551717b34e79f33b5b1008d1fa01db990810190612dbd565b806107d7565b6009600052610a16907f6e1540171b6c0c960b71a7020d9f60077f6af931a8bbf590da0223dacf75c7af90810190612dbd565b806107c8565b6001600052610a5590601f0160051c7fb10e2d527612073b26eecdfd717e6a320cf44b4afac2b0732d9fcbe2b7fa0cf690810190612dbd565b80610743565b60405162461bcd60e51b815260206004820152603160248201527f456c656374696f6e206973207374696c6c206f6e676f696e672e2043616e6e6f6044820152703a103932b9b2ba1031b7b73a3930b1ba1760791b6064820152608490fd5b9050421181610729565b34610475576000366003190112610475576020600454604051908152f35b3461047557602036600319011261047557610afb612ae0565b60005490610b13336001600160a01b03841614612d60565b6001600160a01b0316908115610b33576001600160a01b03191617600055005b60405162461bcd60e51b8152602060048201526024808201527f4e6577206f776e65722063616e6e6f7420626520746865207a65726f206164646044820152637265737360e01b6064820152608490fd5b34610475576020366003190112610475576001600160a01b03610ba5612ae0565b166000526007602052604060002060ff815416610bc460018301612b6f565b916105cf610bd460028301612b6f565b610c0e6004600385015494015491610c006040519788971515885260c0602089015260c0880190612886565b908682036040880152612886565b60608501939093526001600160a01b038116608085015260a080850191901c60ff16612879565b34610475576020366003190112610475576004356001600160401b03811161047557610c65903690600401612a8a565b60055460405190610c7582612a4e565b815260208101906000825260408101338152606082016000815260808301948552610c9e612e19565b60a08401908152336000908152600860205260409020935184559351600184015590516002830180546001600160a01b0319166001600160a01b039290921691909117815590516003811015610edc57610cf791612d99565b6003810192519283516001600160401b03811161039857610d1c816102438454612b35565b6020601f8211600114610e73579080610d4f9260049697600092610e685750508160011b916000199060031b1c19161790565b90555b0190519081516001600160401b03811161039857610d74816102438454612b35565b602092601f8211600114610e0557610da592938291600092610dfa5750508160011b916000199060031b1c19161790565b90555b600954600160401b81101561039857610dcc816001610dea93016009556009612861565b81543360039290921b91821b6001600160a01b0390921b1916179055565b610df5600554612d51565b600555005b015190508480610268565b601f1982169383600052806000209160005b868110610e505750836001959610610e37575b505050811b019055610da8565b015160001960f88460031b161c19169055838080610e2a565b91926020600181928685015181550194019201610e17565b015190508780610268565b601f1982169583600052816000209660005b818110610ec45750916004969791846001959410610eab575b505050811b019055610d52565b015160001960f88460031b161c19169055868080610e9e565b83830151895560019098019760209384019301610e85565b634e487b7160e01b600052602160045260246000fd5b3461047557602036600319011261047557600435600b5481101561047557610f1b602091612810565b905460405160039290921b1c6001600160a01b03168152f35b3461047557600036600319011261047557600e54610f5181612d01565b9060005b818110610f6a57604051806105cf85826129ee565b80610f766001926127f5565b838060a01b0391549060031b1c1660005260076020526040600020610ff460ff600460405193610fa585612a4e565b8281541615158552610fb8878201612b6f565b6020860152610fc960028201612b6f565b6040860152600381015460608601520154858060a01b038116608085015260a01c1660a08301612cc2565b610ffe8286612cae565b526110098185612cae565b5001610f55565b34610475576000366003190112610475576000546040516001600160a01b039091168152602090f35b34610475576020366003190112610475576001600160a01b0361105a612ae0565b166000526008602052604060002080546105cf6001830154926110d46002820154916110c3611097600461109060038501612b6f565b9301612b6f565b936040519788978852602088015260018060a01b038116604088015260ff606088019160a01c16612879565b60c0608086015260c0850190612886565b9083820360a0850152612886565b3461047557600036600319011261047557600f546110ff81612d01565b9060005b81811061111857604051806105cf85826129ee565b8061112460019261282b565b838060a01b0391549060031b1c166000526007602052604060002061115360ff600460405193610fa585612a4e565b61115d8286612cae565b526111688185612cae565b5001611103565b3461047557600036600319011261047557604051600060015461119181612b35565b808452906001811690811561122c57506001146111cd575b6105cf836111b981850382612a69565b604051918291602083526020830190612886565b600160009081527fb10e2d527612073b26eecdfd717e6a320cf44b4afac2b0732d9fcbe2b7fa0cf6939250905b808210611212575090915081016020016111b96111a9565b9192600181602092548385880101520191019092916111fa565b60ff191660208086019190915291151560051b840190910191506111b990506111a9565b3461047557602036600319011261047557600435600a5481101561047557610f1b602091612846565b34610475576020366003190112610475576004356001600160401b038111610475576112a9903690600401612a8a565b6112bf60025480159081156113dc575b50612e5e565b33600090815260076020526040902060048101546001600160a01b0316156113975760020181516001600160401b03811161039857611302816102438454612b35565b602092601f82116001146113375761133392938291600092610dfa5750508160011b916000199060031b1c19161790565b9055005b601f1982169383600052806000209160005b86811061137f5750836001959610611366575b505050811b019055005b015160001960f88460031b161c1916905583808061135c565b91926020600181928685015181550194019201611349565b60405162461bcd60e51b815260206004820152601860248201527f4e6f20766f746572206461746120617661696c61626c652e00000000000000006044820152606490fd5b90504210836112b9565b34610475576113f436612af6565b9061140a60018060a01b03600054163314612d60565b6001600160a01b038181166000818152600860205260409020600281018054929493909216156115c257815460ff60a01b1916600160a01b179091558351600491909101906001600160401b0381116103985761146b816102438454612b35565b602094601f821160011461155d5761149e9293949582916000926115525750508160011b916000199060031b1c19161790565b90555b600b5490600160401b821015610398576102a58260016114c69401600b55600b612861565b60005b600d548082101561039657826114de836127bf565b905460039190911b1c6001600160a01b0316146114fe57506001016114c9565b600019810192508211610380576102a561151a611532936127bf565b905460039190911b1c6001600160a01b0316916127bf565b600d54801561036a576000190161154d61035082600d612861565b600d55005b015190508680610268565b601f1982169583600052806000209160005b8881106115aa57508360019596979810611591575b505050811b0190556114a1565b015160001960f88460031b161c19169055858080611584565b9192602060018192868501518155019401920161156f565b60405162461bcd60e51b815260206004820152602d60248201527f546869732063616e64696461746520646f6573206e6f7420617070656172206960448201526c371037bab91039bcb9ba32b69760991b6064820152608490fd5b34610475576020366003190112610475576004356001600160401b0381116104755761164d903690600401612a8a565b61166260025480159081156113dc5750612e5e565b33600090815260086020526040902060028101546001600160a01b03161561171c5760030181516001600160401b038111610398576116a5816102438454612b35565b602092601f82116001146116d65761133392938291600092610dfa5750508160011b916000199060031b1c19161790565b601f1982169383600052806000209160005b868110611704575083600195961061136657505050811b019055005b919260206001819286850151815501940192016116e8565b60405162461bcd60e51b815260206004820152601c60248201527f4e6f2063616e646964617465206461746120617661696c61626c652e000000006044820152606490fd5b346104755760203660031901126104755761177a612ae0565b600254421061192d5760035442116118f557336000526007602052604060002060ff600482015460a01c166003811015610edc576001036118b05780549160ff83166118725760018060a01b0316600052600860205260406000209060ff600283015460a01c166003811015610edc5760010361182d576001809360ff1916179055016118078154612d51565b9055600f54600160401b81101561039857610dcc8160016103969301600f55600f612861565b60405162461bcd60e51b815260206004820152601a60248201527f43616e646964617465206973206e6f742061636365707465642e0000000000006044820152606490fd5b60405162461bcd60e51b8152602060048201526016602482015275165bdd481a185d9948185b1c9958591e481d9bdd195960521b6044820152606490fd5b60405162461bcd60e51b815260206004820152601e60248201527f596f7520617265206e6f74206120636f6e6669726d656420766f7465722e00006044820152606490fd5b60405162461bcd60e51b815260206004820152601060248201526f159bdd1a5b99c81a185cc8195b99195960821b6044820152606490fd5b60405162461bcd60e51b815260206004820152601a60248201527f566f74696e6720686173206e6f742073746172746564207965740000000000006044820152606490fd5b34610475576020366003190112610475576004356001600160401b038111610475576119a2903690600401612a8a565b6006546040516119b181612a4e565b600081526119bd612e19565b90602081019182526040810193845260608101928352608081019233845260a08201926000845233600052600760205260406000209251151560ff801985541691161783556001830190518051906001600160401b03821161039857611a2d82611a278554612b35565b85612dd4565b602090601f8311600114611ba557611a5d929160009183611b305750508160011b916000199060031b1c19161790565b90555b6002820194519485516001600160401b03811161039857611a85816102438454612b35565b6020601f8211600114611b3b579080611ab9926004979899600092611b305750508160011b916000199060031b1c19161790565b90555b516003828101919091559351910180546001600160a01b0319166001600160a01b039290921691909117815590519091811015610edc57611afc91612d99565b600a54600160401b81101561039857610dcc816001611b209301600a55600a612861565b611b2b600654612d51565b600655005b015190508980610268565b601f1982169783600052816000209860005b818110611b8d575091600497989991846001959410611b74575b505050811b019055611abc565b015160001960f88460031b161c19169055888080611b67565b838301518b556001909a019960209384019301611b4d565b90601f1983169184600052816000209260005b818110611bf45750908460019594939210611bdb575b505050811b019055611a60565b015160001960f88460031b161c19169055888080611bce565b92936020600181928786015181550195019301611bb8565b3461047557600036600319011261047557600a54611c2981612d01565b9060005b818110611c4257604051806105cf85826129ee565b80611c4e600192612846565b838060a01b0391549060031b1c1660005260076020526040600020611c7d60ff600460405193610fa585612a4e565b611c878286612cae565b52611c928185612cae565b5001611c2d565b3461047557602036600319011261047557600435600f5481101561047557610f1b60209161282b565b3461047557602036600319011261047557600435600d5481101561047557610f1b6020916127bf565b3461047557602036600319011261047557600435611d1460018060a01b03600054163314612d60565b600454611d8d57600354811115611d2a57600455005b60405162461bcd60e51b815260206004820152603560248201527f526573756c74207075626c69636174696f6e2074696d65206d75737420626520604482015274616674657220766f74696e6720656e642074696d6560581b6064820152608490fd5b60405162461bcd60e51b815260206004820152602360248201527f526573756c74207075626c69636174696f6e2074696d6520616c7265616479206044820152621cd95d60ea1b6064820152608490fd5b3461047557611dec36612af6565b90611e0260018060a01b03600054163314612d60565b6001600160a01b03818116600081815260086020526040902060028101805492949390921615611faf57815460ff60a01b1916600160a11b179091558351600491909101906001600160401b03811161039857611e63816102438454612b35565b602094601f8211600114611f4a57611e969293949582916000926115525750508160011b916000199060031b1c19161790565b90555b600d5490600160401b821015610398576102a5826001611ebe9401600d55600d612861565b60005b600b54808210156103965782611ed683612810565b905460039190911b1c6001600160a01b031614611ef65750600101611ec1565b600019810192508211610380576102a5611f12611f2a93612810565b905460039190911b1c6001600160a01b031691612810565b600b54801561036a5760001901611f4561035082600b612861565b600b55005b601f1982169583600052806000209160005b888110611f9757508360019596979810611f7e575b505050811b019055611e99565b015160001960f88460031b161c19169055858080611f71565b91926020600181928685015181550194019201611f5c565b60405162461bcd60e51b815260206004820152601b60248201527f4e6f2063616e646964617465206461746120617661696c61626c6500000000006044820152606490fd5b3461047557602036600319011261047557600435600c5481101561047557610f1b6020916127da565b346104755761202b36612af6565b9061204160018060a01b03600054163314612d60565b6001600160a01b038181166000818152600760205260409020600481018054929493909216156121ee57815460ff60a01b1916600160a11b179091558351600191909101906001600160401b038111610398576120a2816102438454612b35565b602094601f8211600114612189576120d59293949582916000926115525750508160011b916000199060031b1c19161790565b90555b600e5490600160401b821015610398576102a58260016120fd9401600e55600e612861565b60005b600c54808210156103965782612115836127da565b905460039190911b1c6001600160a01b0316146121355750600101612100565b600019810192508211610380576102a5612151612169936127da565b905460039190911b1c6001600160a01b0316916127da565b600c54801561036a576000190161218461035082600c612861565b600c55005b601f1982169583600052806000209160005b8881106121d6575083600195969798106121bd575b505050811b0190556120d8565b015160001960f88460031b161c191690558580806121b0565b9192602060018192868501518155019401920161219b565b60405162461bcd60e51b815260206004820152601760248201527f4e6f20766f746572206461746120617661696c61626c650000000000000000006044820152606490fd5b34610475576040366003190112610475576004356001600160401b03811161047557612263903690600401612a8a565b6024356001600160a01b03811690819003610475576009549060208301906000805b8481106123a4575061229690612c5e565b9360009160005b8581106122b257604051806105cf898261292c565b6122bb8161278e565b60018060a01b0391549060031b1c1660005260086020526040600020604051906122e482612a4e565b805482526001810154602083015260028101546001600160a01b0381166040840190815291859161231e9060a01c60ff1660608601612cc2565b61233d600461232f60038401612b6f565b926080870193845201612b6f565b60a0850152516020815191012086518920149182612390575b5050612366575b5060010161229d565b8461238991612378600194978b612cae565b52612383818a612cae565b50612d51565b939061235d565b516001600160a01b0316149050838a612356565b6123ad8161278e565b60018060a01b0391549060031b1c166000526008602052604060002083604051916123d783612a4e565b805483526001810154602084015260028101546001600160a01b0381166040850190815293906124109060a01c60ff1660608301612cc2565b60a0612431600461242360038601612b6f565b946080850195865201612b6f565b91015251602081519101208851872014918261246b575b5050612457575b600101612285565b90612463600191612d51565b91905061244f565b516001600160a01b03161490508388612448565b3461047557600036600319011261047557600b5461249c81612c5e565b9060005b8181106124b557604051806105cf858261292c565b806124c1600192612810565b838060a01b0391549060031b1c16600052600860205260406000206125366004604051926124ee84612a4e565b8054845285810154602085015261251f60ff6002830154888060a01b038116604088015260a01c1660608601612cc2565b61252b60038201612b6f565b608085015201612b6f565b60a08201526125458286612cae565b526125508185612cae565b50016124a0565b3461047557602036600319011261047557600435600e5481101561047557610f1b6020916127f5565b3461047557600036600319011261047557600c5461259d81612d01565b9060005b8181106125b657604051806105cf85826129ee565b806125c26001926127da565b838060a01b0391549060031b1c16600052600760205260406000206125f160ff600460405193610fa585612a4e565b6125fb8286612cae565b526126068185612cae565b50016125a1565b34610475576000366003190112610475576020600254604051908152f35b346104755760003660031901126104755760095461264881612c5e565b9060005b81811061266157604051806105cf858261292c565b8061266d60019261278e565b838060a01b0391549060031b1c166000526008602052604060002061269a6004604051926124ee84612a4e565b60a08201526126a98286612cae565b526126b48185612cae565b500161264c565b34610475576000366003190112610475576020600354604051908152f35b3461047557600036600319011261047557600d546126f681612c5e565b9060005b81811061270f57604051806105cf858261292c565b8061271b6001926127bf565b838060a01b0391549060031b1c16600052600860205260406000206127486004604051926124ee84612a4e565b60a08201526127578286612cae565b526127628185612cae565b50016126fa565b346104755760203660031901126104755760043560095481101561047557610f1b6020915b6009548110156127a957600960005260206000200190600090565b634e487b7160e01b600052603260045260246000fd5b600d548110156127a957600d60005260206000200190600090565b600c548110156127a957600c60005260206000200190600090565b600e548110156127a957600e60005260206000200190600090565b600b548110156127a957600b60005260206000200190600090565b600f548110156127a957600f60005260206000200190600090565b600a548110156127a957600a60005260206000200190600090565b80548210156127a95760005260206000200190600090565b906003821015610edc5752565b919082519283825260005b8481106128b2575050826000602080949584010152601f8019910116010190565b80602080928401015182828601015201612891565b61292991815181526020820151602082015260018060a01b0360408301511660408201526128fd60608301516060830190612879565b60a0612918608084015160c0608085015260c0840190612886565b9201519060a0818403910152612886565b90565b602081016020825282518091526040820191602060408360051b8301019401926000915b83831061295f57505050505090565b909192939460208061297d600193603f1986820301875289516128c7565b97019301930191939290612950565b906129299082511515815260a0806129c86129b6602087015160c0602087015260c0860190612886565b60408701518582036040870152612886565b9460608101516060850152600180831b0360808201511660808501520151910190612879565b602081016020825282518091526040820191602060408360051b8301019401926000915b838310612a2157505050505090565b9091929394602080612a3f600193603f19868203018752895161298c565b97019301930191939290612a12565b60c081019081106001600160401b0382111761039857604052565b90601f801991011681019081106001600160401b0382111761039857604052565b81601f82011215610475578035906001600160401b0382116103985760405192612abe601f8401601f191660200185612a69565b8284526020838301011161047557816000926020809301838601378301015290565b600435906001600160a01b038216820361047557565b906040600319830112610475576004356001600160a01b03811681036104755791602435906001600160401b0382116104755761292991600401612a8a565b90600182811c92168015612b65575b6020831014612b4f57565b634e487b7160e01b600052602260045260246000fd5b91607f1691612b44565b9060405191826000825492612b8384612b35565b8084529360018116908115612bf15750600114612baa575b50612ba892500383612a69565b565b90506000929192526020600020906000915b818310612bd5575050906020612ba89282010138612b9b565b6020919350806001915483858901015201910190918492612bbc565b905060209250612ba894915060ff191682840152151560051b82010138612b9b565b6001600160401b0381116103985760051b60200190565b60405190612c3782612a4e565b606060a0836000815260006020820152600060408201526000838201528260808201520152565b90612c6882612c13565b612c756040519182612a69565b8281528092612c86601f1991612c13565b019060005b828110612c9757505050565b602090612ca2612c2a565b82828501015201612c8b565b80518210156127a95760209160051b010190565b6003821015610edc5752565b60405190612cdb82612a4e565b600060a08382815260606020820152606060408201528260608201528260808201520152565b90612d0b82612c13565b612d186040519182612a69565b8281528092612d29601f1991612c13565b019060005b828110612d3a57505050565b602090612d45612cce565b82828501015201612d2e565b60001981146103805760010190565b15612d6757565b60405162461bcd60e51b815260206004820152600a60248201526927b7363c9037bbb732b960b11b6044820152606490fd5b906003811015610edc57815460ff60a01b191660a09190911b60ff60a01b16179055565b818110612dc8575050565b60008155600101612dbd565b9190601f8111612de357505050565b612ba8926000526020600020906020601f840160051c83019310612e0f575b601f0160051c0190612dbd565b9091508190612e02565b60405190612e28606083612a69565b60218252601b60fa1b6040837f526567697374726174696f6e206973206177616974696e6720617070726f766160208201520152565b15612e6557565b60405162461bcd60e51b815260206004820152602160248201527f43616e6e6f74206d6f6469667920616674657220766f74696e672073746172746044820152607360f81b6064820152608490fd5b612ebe8154612b35565b9081612ec8575050565b81601f60009311600114612eda575055565b81835260208320612ef691601f0160051c810190600101612dbd565b8082528160208120915555565b612f0b612c2a565b50612f14612c2a565b600b546000805b828110612f285750505090565b612f3181612810565b60018060a01b0391549060031b1c166000526008602052604060002060405190612f5a82612a4e565b80548252612fac600460018301549260208501938452612f9560ff600283015460018060a01b038116604089015260a01c1660608701612cc2565b612fa160038201612b6f565b608086015201612b6f565b60a083015251838111612fc4575b5050600101612f1b565b9094509150600138612fba565b612fd9612c2a565b50600b541561306f576003544210612ff357612929612f03565b604051612fff81612a4e565b60008152600060208201526000604082015260006060820152604051613026602082612a69565b60008152608082015260405161303d604082612a69565b601f81527f506c65617365207761697420756e74696c20656c656374696f6e20656e647300602082015260a082015290565b60405162461bcd60e51b8152602060048201526024808201527f4e6f2043616e6469646174657320616363657074656420666f7220656c65637460448201526334b7b71760e11b6064820152608490fdfea2646970667358221220daa73b50461934aa85c5e86e4b1ad359067f81055cd9d400201218e448b6a75664736f6c634300081c0033","opcodes":"PUSH1 0x80 PUSH1 0x40 MSTORE CALLVALUE PUSH2 0x23B JUMPI PUSH2 0x335C DUP1 CODESIZE SUB DUP1 PUSH2 0x19 DUP2 PUSH2 0x240 JUMP JUMPDEST SWAP3 DUP4 CODECOPY DUP2 ADD SWAP1 PUSH1 0x20 DUP2 DUP4 SUB SLT PUSH2 0x23B JUMPI DUP1 MLOAD SWAP1 PUSH1 0x1 PUSH1 0x1 PUSH1 0x40 SHL SUB DUP3 GT PUSH2 0x23B JUMPI ADD DUP2 PUSH1 0x1F DUP3 ADD SLT ISZERO PUSH2 0x23B JUMPI DUP1 MLOAD SWAP1 PUSH1 0x1 PUSH1 0x1 PUSH1 0x40 SHL SUB DUP3 GT PUSH2 0x210 JUMPI PUSH2 0x6A PUSH1 0x1F DUP4 ADD PUSH1 0x1F NOT AND PUSH1 0x20 ADD PUSH2 0x240 JUMP JUMPDEST SWAP3 DUP3 DUP5 MSTORE PUSH1 0x20 DUP4 DUP4 ADD ADD GT PUSH2 0x23B JUMPI PUSH1 0x0 JUMPDEST DUP3 DUP2 LT PUSH2 0x226 JUMPI PUSH1 0x0 DUP4 DUP6 ADD PUSH1 0x20 ADD DUP2 SWAP1 MSTORE DUP1 SLOAD PUSH1 0x1 PUSH1 0x1 PUSH1 0xA0 SHL SUB NOT AND CALLER OR SWAP1 SSTORE DUP4 MLOAD DUP5 SWAP1 PUSH1 0x1 PUSH1 0x1 PUSH1 0x40 SHL SUB DUP2 GT PUSH2 0x210 JUMPI PUSH1 0x1 SLOAD PUSH1 0x1 DUP2 DUP2 SHR SWAP2 AND DUP1 ISZERO PUSH2 0x206 JUMPI JUMPDEST PUSH1 0x20 DUP3 LT EQ PUSH2 0x1F0 JUMPI PUSH1 0x1F DUP2 GT PUSH2 0x18B JUMPI JUMPDEST POP PUSH1 0x20 SWAP2 PUSH1 0x1F DUP3 GT PUSH1 0x1 EQ PUSH2 0x127 JUMPI SWAP2 DUP2 SWAP3 PUSH1 0x0 SWAP3 PUSH2 0x11C JUMPI JUMPDEST POP POP DUP2 PUSH1 0x1 SHL SWAP2 PUSH1 0x0 NOT SWAP1 PUSH1 0x3 SHL SHR NOT AND OR PUSH1 0x1 SSTORE JUMPDEST PUSH1 0x1 PUSH1 0x5 SSTORE PUSH1 0x1 PUSH1 0x6 SSTORE PUSH1 0x40 MLOAD PUSH2 0x30F6 SWAP1 DUP2 PUSH2 0x266 DUP3 CODECOPY RETURN JUMPDEST ADD MLOAD SWAP1 POP DUP3 DUP1 PUSH2 0xED JUMP JUMPDEST PUSH1 0x1F NOT DUP3 AND SWAP3 PUSH1 0x1 PUSH1 0x0 MSTORE DUP1 PUSH1 0x0 KECCAK256 SWAP2 PUSH1 0x0 JUMPDEST DUP6 DUP2 LT PUSH2 0x173 JUMPI POP DUP4 PUSH1 0x1 SWAP6 LT PUSH2 0x15A JUMPI JUMPDEST POP POP POP DUP2 SHL ADD PUSH1 0x1 SSTORE PUSH2 0x103 JUMP JUMPDEST ADD MLOAD PUSH1 0x0 NOT PUSH1 0xF8 DUP5 PUSH1 0x3 SHL AND SHR NOT AND SWAP1 SSTORE DUP3 DUP1 DUP1 PUSH2 0x14C JUMP JUMPDEST SWAP2 SWAP3 PUSH1 0x20 PUSH1 0x1 DUP2 SWAP3 DUP7 DUP6 ADD MLOAD DUP2 SSTORE ADD SWAP5 ADD SWAP3 ADD PUSH2 0x13A JUMP JUMPDEST PUSH1 0x1 PUSH1 0x0 MSTORE PUSH32 0xB10E2D527612073B26EECDFD717E6A320CF44B4AFAC2B0732D9FCBE2B7FA0CF6 PUSH1 0x1F DUP4 ADD PUSH1 0x5 SHR DUP2 ADD SWAP2 PUSH1 0x20 DUP5 LT PUSH2 0x1E6 JUMPI JUMPDEST PUSH1 0x1F ADD PUSH1 0x5 SHR ADD SWAP1 JUMPDEST DUP2 DUP2 LT PUSH2 0x1DA JUMPI POP PUSH2 0xD3 JUMP JUMPDEST PUSH1 0x0 DUP2 SSTORE PUSH1 0x1 ADD PUSH2 0x1CD JUMP JUMPDEST SWAP1 SWAP2 POP DUP2 SWAP1 PUSH2 0x1C4 JUMP JUMPDEST PUSH4 0x4E487B71 PUSH1 0xE0 SHL PUSH1 0x0 MSTORE PUSH1 0x22 PUSH1 0x4 MSTORE PUSH1 0x24 PUSH1 0x0 REVERT JUMPDEST SWAP1 PUSH1 0x7F AND SWAP1 PUSH2 0xC1 JUMP JUMPDEST PUSH4 0x4E487B71 PUSH1 0xE0 SHL PUSH1 0x0 MSTORE PUSH1 0x41 PUSH1 0x4 MSTORE PUSH1 0x24 PUSH1 0x0 REVERT JUMPDEST DUP1 PUSH1 0x20 DUP1 SWAP3 DUP5 ADD ADD MLOAD DUP3 DUP3 DUP8 ADD ADD MSTORE ADD PUSH2 0x7C JUMP JUMPDEST PUSH1 0x0 DUP1 REVERT JUMPDEST PUSH1 0x40 MLOAD SWAP2 SWAP1 PUSH1 0x1F ADD PUSH1 0x1F NOT AND DUP3 ADD PUSH1 0x1 PUSH1 0x1 PUSH1 0x40 SHL SUB DUP2 GT DUP4 DUP3 LT OR PUSH2 0x210 JUMPI PUSH1 0x40 MSTORE JUMP INVALID PUSH1 0x80 PUSH1 0x40 MSTORE PUSH1 0x4 CALLDATASIZE LT ISZERO PUSH2 0x12 JUMPI PUSH1 0x0 DUP1 REVERT JUMPDEST PUSH1 0x0 CALLDATALOAD PUSH1 0xE0 SHR DUP1 PUSH4 0x366AC37 EQ PUSH2 0x2769 JUMPI DUP1 PUSH4 0x73F966D EQ PUSH2 0x26D9 JUMPI DUP1 PUSH4 0x1EA736E0 EQ PUSH2 0x26BB JUMPI DUP1 PUSH4 0x1EE9367C EQ PUSH2 0x262B JUMPI DUP1 PUSH4 0x2019A608 EQ PUSH2 0x260D JUMPI DUP1 PUSH4 0x23A2B2ED EQ PUSH2 0x2580 JUMPI DUP1 PUSH4 0x3AFA3E07 EQ PUSH2 0x2557 JUMPI DUP1 PUSH4 0x3CFDE26C EQ PUSH2 0x247F JUMPI DUP1 PUSH4 0x429B0B22 EQ PUSH2 0x2233 JUMPI DUP1 PUSH4 0x4A2846A8 EQ PUSH2 0x201D JUMPI DUP1 PUSH4 0x53DD128C EQ PUSH2 0x1FF4 JUMPI DUP1 PUSH4 0x59632C22 EQ PUSH2 0x1DDE JUMPI DUP1 PUSH4 0x5B45CFCA EQ PUSH2 0x1CEB JUMPI DUP1 PUSH4 0x5E894B12 EQ PUSH2 0x1CC2 JUMPI DUP1 PUSH4 0x5F1BC34E EQ PUSH2 0x1C99 JUMPI DUP1 PUSH4 0x60FC4E32 EQ PUSH2 0x1C0C JUMPI DUP1 PUSH4 0x6428A486 EQ PUSH2 0x1972 JUMPI DUP1 PUSH4 0x6DD7D8EA EQ PUSH2 0x1761 JUMPI DUP1 PUSH4 0x79432DB5 EQ PUSH2 0x161D JUMPI DUP1 PUSH4 0x7EB21B51 EQ PUSH2 0x13E6 JUMPI DUP1 PUSH4 0x82FF2AEB EQ PUSH2 0x1279 JUMPI DUP1 PUSH4 0x849C5657 EQ PUSH2 0x1250 JUMPI DUP1 PUSH4 0x85E8E7A7 EQ PUSH2 0x116F JUMPI DUP1 PUSH4 0x8987CB32 EQ PUSH2 0x10E2 JUMPI DUP1 PUSH4 0x8AB66A90 EQ PUSH2 0x1039 JUMPI DUP1 PUSH4 0x8DA5CB5B EQ PUSH2 0x1010 JUMPI DUP1 PUSH4 0x964A43B9 EQ PUSH2 0xF34 JUMPI DUP1 PUSH4 0x9E7A8145 EQ PUSH2 0xEF2 JUMPI DUP1 PUSH4 0x9EB88DB6 EQ PUSH2 0xC35 JUMPI DUP1 PUSH4 0xA3EC138D EQ PUSH2 0xB84 JUMPI DUP1 PUSH4 0xA6F9DAE1 EQ PUSH2 0xAE2 JUMPI DUP1 PUSH4 0xAC94BA4C EQ PUSH2 0xAC4 JUMPI DUP1 PUSH4 0xB181A8FC EQ PUSH2 0x6F6 JUMPI DUP1 PUSH4 0xB381A935 EQ PUSH2 0x5EF JUMPI DUP1 PUSH4 0xBAB912A2 EQ PUSH2 0x5D3 JUMPI DUP1 PUSH4 0xD28178D7 EQ PUSH2 0x59F JUMPI DUP1 PUSH4 0xF33698F1 EQ PUSH2 0x47A JUMPI PUSH4 0xFAD761D3 EQ PUSH2 0x1BE JUMPI PUSH1 0x0 DUP1 REVERT JUMPDEST CALLVALUE PUSH2 0x475 JUMPI PUSH2 0x1CC CALLDATASIZE PUSH2 0x2AF6 JUMP JUMPDEST SWAP1 PUSH2 0x1E2 PUSH1 0x1 DUP1 PUSH1 0xA0 SHL SUB PUSH1 0x0 SLOAD AND CALLER EQ PUSH2 0x2D60 JUMP JUMPDEST PUSH1 0x1 PUSH1 0x1 PUSH1 0xA0 SHL SUB DUP2 DUP2 AND PUSH1 0x0 DUP2 DUP2 MSTORE PUSH1 0x7 PUSH1 0x20 MSTORE PUSH1 0x40 SWAP1 KECCAK256 PUSH1 0x4 DUP2 ADD DUP1 SLOAD SWAP3 SWAP5 SWAP4 SWAP1 SWAP3 AND ISZERO PUSH2 0x41E JUMPI DUP2 SLOAD PUSH1 0xFF PUSH1 0xA0 SHL NOT AND PUSH1 0x1 PUSH1 0xA0 SHL OR SWAP1 SWAP2 SSTORE DUP4 MLOAD PUSH1 0x1 SWAP2 SWAP1 SWAP2 ADD SWAP1 PUSH1 0x1 PUSH1 0x1 PUSH1 0x40 SHL SUB DUP2 GT PUSH2 0x398 JUMPI PUSH2 0x249 DUP2 PUSH2 0x243 DUP5 SLOAD PUSH2 0x2B35 JUMP JUMPDEST DUP5 PUSH2 0x2DD4 JUMP JUMPDEST PUSH1 0x20 SWAP5 PUSH1 0x1F DUP3 GT PUSH1 0x1 EQ PUSH2 0x3B9 JUMPI PUSH2 0x27D SWAP3 SWAP4 SWAP5 SWAP6 DUP3 SWAP2 PUSH1 0x0 SWAP3 PUSH2 0x3AE JUMPI JUMPDEST POP POP DUP2 PUSH1 0x1 SHL SWAP2 PUSH1 0x0 NOT SWAP1 PUSH1 0x3 SHL SHR NOT AND OR SWAP1 JUMP JUMPDEST SWAP1 SSTORE JUMPDEST PUSH1 0xC SLOAD SWAP1 PUSH1 0x1 PUSH1 0x40 SHL DUP3 LT ISZERO PUSH2 0x398 JUMPI PUSH2 0x2A5 DUP3 PUSH1 0x1 PUSH2 0x2C9 SWAP5 ADD PUSH1 0xC SSTORE PUSH1 0xC PUSH2 0x2861 JUMP JUMPDEST SWAP1 DUP1 SLOAD PUSH1 0x1 PUSH1 0x1 PUSH1 0xA0 SHL SUB PUSH1 0x3 SWAP4 SWAP1 SWAP4 SHL DUP4 DUP2 SHL NOT SWAP1 SWAP2 AND SWAP3 SWAP1 SWAP4 AND SWAP1 SWAP3 SHL OR SWAP1 SSTORE JUMP JUMPDEST PUSH1 0x0 JUMPDEST PUSH1 0xE SLOAD DUP1 DUP3 LT ISZERO PUSH2 0x396 JUMPI DUP3 PUSH2 0x2E1 DUP4 PUSH2 0x27F5 JUMP JUMPDEST SWAP1 SLOAD PUSH1 0x3 SWAP2 SWAP1 SWAP2 SHL SHR PUSH1 0x1 PUSH1 0x1 PUSH1 0xA0 SHL SUB AND EQ PUSH2 0x301 JUMPI POP PUSH1 0x1 ADD PUSH2 0x2CC JUMP JUMPDEST PUSH1 0x0 NOT DUP2 ADD SWAP3 POP DUP3 GT PUSH2 0x380 JUMPI PUSH2 0x2A5 PUSH2 0x31D PUSH2 0x335 SWAP4 PUSH2 0x27F5 JUMP JUMPDEST SWAP1 SLOAD PUSH1 0x3 SWAP2 SWAP1 SWAP2 SHL SHR PUSH1 0x1 PUSH1 0x1 PUSH1 0xA0 SHL SUB AND SWAP2 PUSH2 0x27F5 JUMP JUMPDEST PUSH1 0xE SLOAD DUP1 ISZERO PUSH2 0x36A JUMPI PUSH1 0x0 NOT ADD PUSH2 0x365 PUSH2 0x350 DUP3 PUSH1 0xE PUSH2 0x2861 JUMP JUMPDEST DUP2 SLOAD SWAP1 PUSH1 0x1 DUP1 PUSH1 0xA0 SHL SUB SWAP1 PUSH1 0x3 SHL SHL NOT AND SWAP1 SSTORE JUMP JUMPDEST PUSH1 0xE SSTORE STOP JUMPDEST PUSH4 0x4E487B71 PUSH1 0xE0 SHL PUSH1 0x0 MSTORE PUSH1 0x31 PUSH1 0x4 MSTORE PUSH1 0x24 PUSH1 0x0 REVERT JUMPDEST PUSH4 0x4E487B71 PUSH1 0xE0 SHL PUSH1 0x0 MSTORE PUSH1 0x11 PUSH1 0x4 MSTORE PUSH1 0x24 PUSH1 0x0 REVERT JUMPDEST STOP JUMPDEST PUSH4 0x4E487B71 PUSH1 0xE0 SHL PUSH1 0x0 MSTORE PUSH1 0x41 PUSH1 0x4 MSTORE PUSH1 0x24 PUSH1 0x0 REVERT JUMPDEST ADD MLOAD SWAP1 POP CODESIZE DUP1 PUSH2 0x268 JUMP JUMPDEST PUSH1 0x1F NOT DUP3 AND SWAP6 DUP4 PUSH1 0x0 MSTORE DUP1 PUSH1 0x0 KECCAK256 SWAP2 PUSH1 0x0 JUMPDEST DUP9 DUP2 LT PUSH2 0x406 JUMPI POP DUP4 PUSH1 0x1 SWAP6 SWAP7 SWAP8 SWAP9 LT PUSH2 0x3ED JUMPI JUMPDEST POP POP POP DUP2 SHL ADD SWAP1 SSTORE PUSH2 0x280 JUMP JUMPDEST ADD MLOAD PUSH1 0x0 NOT PUSH1 0xF8 DUP5 PUSH1 0x3 SHL AND SHR NOT AND SWAP1 SSTORE CODESIZE DUP1 DUP1 PUSH2 0x3E0 JUMP JUMPDEST SWAP2 SWAP3 PUSH1 0x20 PUSH1 0x1 DUP2 SWAP3 DUP7 DUP6 ADD MLOAD DUP2 SSTORE ADD SWAP5 ADD SWAP3 ADD PUSH2 0x3CB JUMP JUMPDEST PUSH1 0x40 MLOAD PUSH3 0x461BCD PUSH1 0xE5 SHL DUP2 MSTORE PUSH1 0x20 PUSH1 0x4 DUP3 ADD MSTORE PUSH1 0x29 PUSH1 0x24 DUP3 ADD MSTORE PUSH32 0x5468697320766F74657220646F6573206E6F742061707065617220696E206F75 PUSH1 0x44 DUP3 ADD MSTORE PUSH9 0x391039BCB9BA32B697 PUSH1 0xB9 SHL PUSH1 0x64 DUP3 ADD MSTORE PUSH1 0x84 SWAP1 REVERT JUMPDEST PUSH1 0x0 DUP1 REVERT JUMPDEST CALLVALUE PUSH2 0x475 JUMPI PUSH1 0x40 CALLDATASIZE PUSH1 0x3 NOT ADD SLT PUSH2 0x475 JUMPI PUSH1 0x4 CALLDATALOAD PUSH1 0x24 CALLDATALOAD SWAP1 PUSH2 0x4A7 PUSH1 0x1 DUP1 PUSH1 0xA0 SHL SUB PUSH1 0x0 SLOAD AND CALLER EQ PUSH2 0x2D60 JUMP JUMPDEST PUSH1 0x2 SLOAD PUSH2 0x55A JUMPI TIMESTAMP DUP2 GT ISZERO PUSH2 0x516 JUMPI DUP2 DUP2 LT ISZERO PUSH2 0x4C6 JUMPI PUSH1 0x2 SSTORE PUSH1 0x3 SSTORE STOP JUMPDEST PUSH1 0x40 MLOAD PUSH3 0x461BCD PUSH1 0xE5 SHL DUP2 MSTORE PUSH1 0x20 PUSH1 0x4 DUP3 ADD MSTORE PUSH1 0x22 PUSH1 0x24 DUP3 ADD MSTORE PUSH32 0x53746172742074696D65206D757374206265206265666F726520656E64207469 PUSH1 0x44 DUP3 ADD MSTORE PUSH2 0x6D65 PUSH1 0xF0 SHL PUSH1 0x64 DUP3 ADD MSTORE PUSH1 0x84 SWAP1 REVERT JUMPDEST PUSH1 0x64 PUSH1 0x40 MLOAD PUSH3 0x461BCD PUSH1 0xE5 SHL DUP2 MSTORE PUSH1 0x20 PUSH1 0x4 DUP3 ADD MSTORE PUSH1 0x20 PUSH1 0x24 DUP3 ADD MSTORE PUSH32 0x53746172742074696D65206D75737420626520696E2074686520667574757265 PUSH1 0x44 DUP3 ADD MSTORE REVERT JUMPDEST PUSH1 0x40 MLOAD PUSH3 0x461BCD PUSH1 0xE5 SHL DUP2 MSTORE PUSH1 0x20 PUSH1 0x4 DUP3 ADD MSTORE PUSH1 0x18 PUSH1 0x24 DUP3 ADD MSTORE PUSH32 0x566F74696E6720616C7265616479207363686564756C65640000000000000000 PUSH1 0x44 DUP3 ADD MSTORE PUSH1 0x64 SWAP1 REVERT JUMPDEST CALLVALUE PUSH2 0x475 JUMPI PUSH1 0x0 CALLDATASIZE PUSH1 0x3 NOT ADD SLT PUSH2 0x475 JUMPI PUSH2 0x5CF PUSH2 0x5BB PUSH2 0x2FD1 JUMP JUMPDEST PUSH1 0x40 MLOAD SWAP2 DUP3 SWAP2 PUSH1 0x20 DUP4 MSTORE PUSH1 0x20 DUP4 ADD SWAP1 PUSH2 0x28C7 JUMP JUMPDEST SUB SWAP1 RETURN JUMPDEST CALLVALUE PUSH2 0x475 JUMPI PUSH1 0x0 CALLDATASIZE PUSH1 0x3 NOT ADD SLT PUSH2 0x475 JUMPI PUSH2 0x5CF PUSH2 0x5BB PUSH2 0x2F03 JUMP JUMPDEST CALLVALUE PUSH2 0x475 JUMPI PUSH1 0x20 CALLDATASIZE PUSH1 0x3 NOT ADD SLT PUSH2 0x475 JUMPI PUSH2 0x608 PUSH2 0x2AE0 JUMP JUMPDEST PUSH2 0x610 PUSH2 0x2CCE JUMP JUMPDEST POP PUSH1 0x1 PUSH1 0x1 PUSH1 0xA0 SHL SUB SWAP1 DUP2 AND PUSH1 0x0 DUP2 DUP2 MSTORE PUSH1 0x7 PUSH1 0x20 MSTORE PUSH1 0x40 SWAP1 KECCAK256 PUSH1 0x4 ADD SLOAD SWAP1 SWAP2 AND ISZERO PUSH2 0x6BF JUMPI PUSH1 0x0 MSTORE PUSH1 0x7 PUSH1 0x20 MSTORE PUSH2 0x5CF PUSH1 0x40 PUSH1 0x0 KECCAK256 PUSH2 0x6AB PUSH1 0xFF PUSH1 0x4 PUSH1 0x40 MLOAD SWAP4 PUSH2 0x65A DUP6 PUSH2 0x2A4E JUMP JUMPDEST DUP3 DUP2 SLOAD AND ISZERO ISZERO DUP6 MSTORE PUSH2 0x66E PUSH1 0x1 DUP3 ADD PUSH2 0x2B6F JUMP JUMPDEST PUSH1 0x20 DUP7 ADD MSTORE PUSH2 0x67F PUSH1 0x2 DUP3 ADD PUSH2 0x2B6F JUMP JUMPDEST PUSH1 0x40 DUP7 ADD MSTORE PUSH1 0x3 DUP2 ADD SLOAD PUSH1 0x60 DUP7 ADD MSTORE ADD SLOAD PUSH1 0x1 DUP1 PUSH1 0xA0 SHL SUB DUP2 AND PUSH1 0x80 DUP6 ADD MSTORE PUSH1 0xA0 SHR AND PUSH1 0xA0 DUP4 ADD PUSH2 0x2CC2 JUMP JUMPDEST PUSH1 0x40 MLOAD SWAP2 DUP3 SWAP2 PUSH1 0x20 DUP4 MSTORE PUSH1 0x20 DUP4 ADD SWAP1 PUSH2 0x298C JUMP JUMPDEST PUSH1 0x40 MLOAD PUSH3 0x461BCD PUSH1 0xE5 SHL DUP2 MSTORE PUSH1 0x20 PUSH1 0x4 DUP3 ADD MSTORE PUSH1 0xF PUSH1 0x24 DUP3 ADD MSTORE PUSH15 0x159BDD195C881B9BDD08199BDD5B99 PUSH1 0x8A SHL PUSH1 0x44 DUP3 ADD MSTORE PUSH1 0x64 SWAP1 REVERT JUMPDEST CALLVALUE PUSH2 0x475 JUMPI PUSH1 0x0 CALLDATASIZE PUSH1 0x3 NOT ADD SLT PUSH2 0x475 JUMPI PUSH2 0x71C PUSH1 0x1 DUP1 PUSH1 0xA0 SHL SUB PUSH1 0x0 SLOAD AND CALLER EQ PUSH2 0x2D60 JUMP JUMPDEST PUSH1 0x3 SLOAD DUP1 ISZERO ISZERO SWAP1 DUP2 PUSH2 0xABA JUMPI JUMPDEST POP ISZERO PUSH2 0xA5B JUMPI PUSH2 0x73A PUSH1 0x1 SLOAD PUSH2 0x2B35 JUMP JUMPDEST PUSH1 0x1F DUP2 GT PUSH2 0xA1C JUMPI JUMPDEST POP PUSH1 0x0 PUSH1 0x1 SSTORE PUSH1 0x0 PUSH1 0x2 SSTORE PUSH1 0x0 PUSH1 0x3 SSTORE PUSH1 0x0 PUSH1 0x4 SSTORE PUSH1 0x0 JUMPDEST PUSH1 0x9 SLOAD DUP2 LT ISZERO PUSH2 0x7BA JUMPI DUP1 PUSH2 0x771 PUSH1 0x1 SWAP3 PUSH2 0x278E JUMP JUMPDEST DUP4 DUP1 PUSH1 0xA0 SHL SUB SWAP2 SLOAD SWAP1 PUSH1 0x3 SHL SHR AND PUSH1 0x0 MSTORE PUSH1 0x8 PUSH1 0x20 MSTORE PUSH2 0x7B4 PUSH1 0x4 PUSH1 0x40 PUSH1 0x0 KECCAK256 PUSH1 0x0 DUP2 SSTORE PUSH1 0x0 DUP6 DUP3 ADD SSTORE PUSH1 0x0 PUSH1 0x2 DUP3 ADD SSTORE PUSH2 0x7AE PUSH1 0x3 DUP3 ADD PUSH2 0x2EB4 JUMP JUMPDEST ADD PUSH2 0x2EB4 JUMP JUMPDEST ADD PUSH2 0x75B JUMP JUMPDEST PUSH1 0x9 SLOAD PUSH1 0x0 PUSH1 0x9 SSTORE DUP1 PUSH2 0x9E3 JUMPI JUMPDEST POP PUSH1 0xB SLOAD PUSH1 0x0 PUSH1 0xB SSTORE DUP1 PUSH2 0x9AA JUMPI JUMPDEST POP PUSH1 0xD SLOAD PUSH1 0x0 PUSH1 0xD SSTORE DUP1 PUSH2 0x971 JUMPI JUMPDEST POP PUSH1 0x0 JUMPDEST PUSH1 0xA SLOAD DUP2 LT ISZERO PUSH2 0x846 JUMPI DUP1 PUSH2 0x800 PUSH1 0x1 SWAP3 PUSH2 0x2846 JUMP JUMPDEST DUP4 DUP1 PUSH1 0xA0 SHL SUB SWAP2 SLOAD SWAP1 PUSH1 0x3 SHL SHR AND PUSH1 0x0 MSTORE PUSH1 0x7 PUSH1 0x20 MSTORE PUSH1 0x0 PUSH1 0x4 PUSH1 0x40 DUP3 KECCAK256 DUP3 DUP2 SSTORE PUSH2 0x82C DUP6 DUP3 ADD PUSH2 0x2EB4 JUMP JUMPDEST PUSH2 0x838 PUSH1 0x2 DUP3 ADD PUSH2 0x2EB4 JUMP JUMPDEST DUP3 PUSH1 0x3 DUP3 ADD SSTORE ADD SSTORE ADD PUSH2 0x7EA JUMP JUMPDEST PUSH1 0xA SLOAD PUSH1 0x0 PUSH1 0xA SSTORE DUP1 PUSH2 0x938 JUMPI JUMPDEST POP PUSH1 0xC SLOAD PUSH1 0x0 PUSH1 0xC SSTORE DUP1 PUSH2 0x8FF JUMPI JUMPDEST POP PUSH1 0xE SLOAD PUSH1 0x0 PUSH1 0xE SSTORE DUP1 PUSH2 0x8C6 JUMPI JUMPDEST POP PUSH1 0xF SLOAD PUSH1 0x0 PUSH1 0xF SSTORE DUP1 PUSH2 0x88D JUMPI JUMPDEST PUSH1 0x1 PUSH1 0x5 DUP2 SWAP1 SSTORE PUSH1 0x6 SSTORE STOP JUMPDEST PUSH1 0xF PUSH1 0x0 MSTORE PUSH2 0x8C0 SWAP1 PUSH32 0x8D1108E10BCB7C27DDDFC02ED9D693A074039D026CF4EA4240B40F7D581AC802 SWAP1 DUP2 ADD SWAP1 PUSH2 0x2DBD JUMP JUMPDEST DUP1 PUSH2 0x881 JUMP JUMPDEST PUSH1 0xE PUSH1 0x0 MSTORE PUSH2 0x8F9 SWAP1 PUSH32 0xBB7B4A454DC3493923482F07822329ED19E8244EFF582CC204F8554C3620C3FD SWAP1 DUP2 ADD SWAP1 PUSH2 0x2DBD JUMP JUMPDEST DUP1 PUSH2 0x872 JUMP JUMPDEST PUSH1 0xC PUSH1 0x0 MSTORE PUSH2 0x932 SWAP1 PUSH32 0xDF6966C971051C3D54EC59162606531493A51404A002842F56009D7E5CF4A8C7 SWAP1 DUP2 ADD SWAP1 PUSH2 0x2DBD JUMP JUMPDEST DUP1 PUSH2 0x863 JUMP JUMPDEST PUSH1 0xA PUSH1 0x0 MSTORE PUSH2 0x96B SWAP1 PUSH32 0xC65A7BB8D6351C1CF70C95A316CC6A92839C986682D98BC35F958F4883F9D2A8 SWAP1 DUP2 ADD SWAP1 PUSH2 0x2DBD JUMP JUMPDEST DUP1 PUSH2 0x854 JUMP JUMPDEST PUSH1 0xD PUSH1 0x0 MSTORE PUSH2 0x9A4 SWAP1 PUSH32 0xD7B6990105719101DABEB77144F2A3385C8033ACD3AF97E9423A695E81AD1EB5 SWAP1 DUP2 ADD SWAP1 PUSH2 0x2DBD JUMP JUMPDEST DUP1 PUSH2 0x7E6 JUMP JUMPDEST PUSH1 0xB PUSH1 0x0 MSTORE PUSH2 0x9DD SWAP1 PUSH32 0x175B7A638427703F0DBE7BB9BBF987A2551717B34E79F33B5B1008D1FA01DB9 SWAP1 DUP2 ADD SWAP1 PUSH2 0x2DBD JUMP JUMPDEST DUP1 PUSH2 0x7D7 JUMP JUMPDEST PUSH1 0x9 PUSH1 0x0 MSTORE PUSH2 0xA16 SWAP1 PUSH32 0x6E1540171B6C0C960B71A7020D9F60077F6AF931A8BBF590DA0223DACF75C7AF SWAP1 DUP2 ADD SWAP1 PUSH2 0x2DBD JUMP JUMPDEST DUP1 PUSH2 0x7C8 JUMP JUMPDEST PUSH1 0x1 PUSH1 0x0 MSTORE PUSH2 0xA55 SWAP1 PUSH1 0x1F ADD PUSH1 0x5 SHR PUSH32 0xB10E2D527612073B26EECDFD717E6A320CF44B4AFAC2B0732D9FCBE2B7FA0CF6 SWAP1 DUP2 ADD SWAP1 PUSH2 0x2DBD JUMP JUMPDEST DUP1 PUSH2 0x743 JUMP JUMPDEST PUSH1 0x40 MLOAD PUSH3 0x461BCD PUSH1 0xE5 SHL DUP2 MSTORE PUSH1 0x20 PUSH1 0x4 DUP3 ADD MSTORE PUSH1 0x31 PUSH1 0x24 DUP3 ADD MSTORE PUSH32 0x456C656374696F6E206973207374696C6C206F6E676F696E672E2043616E6E6F PUSH1 0x44 DUP3 ADD MSTORE PUSH17 0x3A103932B9B2BA1031B7B73A3930B1BA17 PUSH1 0x79 SHL PUSH1 0x64 DUP3 ADD MSTORE PUSH1 0x84 SWAP1 REVERT JUMPDEST SWAP1 POP TIMESTAMP GT DUP2 PUSH2 0x729 JUMP JUMPDEST CALLVALUE PUSH2 0x475 JUMPI PUSH1 0x0 CALLDATASIZE PUSH1 0x3 NOT ADD SLT PUSH2 0x475 JUMPI PUSH1 0x20 PUSH1 0x4 SLOAD PUSH1 0x40 MLOAD SWAP1 DUP2 MSTORE RETURN JUMPDEST CALLVALUE PUSH2 0x475 JUMPI PUSH1 0x20 CALLDATASIZE PUSH1 0x3 NOT ADD SLT PUSH2 0x475 JUMPI PUSH2 0xAFB PUSH2 0x2AE0 JUMP JUMPDEST PUSH1 0x0 SLOAD SWAP1 PUSH2 0xB13 CALLER PUSH1 0x1 PUSH1 0x1 PUSH1 0xA0 SHL SUB DUP5 AND EQ PUSH2 0x2D60 JUMP JUMPDEST PUSH1 0x1 PUSH1 0x1 PUSH1 0xA0 SHL SUB AND SWAP1 DUP2 ISZERO PUSH2 0xB33 JUMPI PUSH1 0x1 PUSH1 0x1 PUSH1 0xA0 SHL SUB NOT AND OR PUSH1 0x0 SSTORE STOP JUMPDEST PUSH1 0x40 MLOAD PUSH3 0x461BCD PUSH1 0xE5 SHL DUP2 MSTORE PUSH1 0x20 PUSH1 0x4 DUP3 ADD MSTORE PUSH1 0x24 DUP1 DUP3 ADD MSTORE PUSH32 0x4E6577206F776E65722063616E6E6F7420626520746865207A65726F20616464 PUSH1 0x44 DUP3 ADD MSTORE PUSH4 0x72657373 PUSH1 0xE0 SHL PUSH1 0x64 DUP3 ADD MSTORE PUSH1 0x84 SWAP1 REVERT JUMPDEST CALLVALUE PUSH2 0x475 JUMPI PUSH1 0x20 CALLDATASIZE PUSH1 0x3 NOT ADD SLT PUSH2 0x475 JUMPI PUSH1 0x1 PUSH1 0x1 PUSH1 0xA0 SHL SUB PUSH2 0xBA5 PUSH2 0x2AE0 JUMP JUMPDEST AND PUSH1 0x0 MSTORE PUSH1 0x7 PUSH1 0x20 MSTORE PUSH1 0x40 PUSH1 0x0 KECCAK256 PUSH1 0xFF DUP2 SLOAD AND PUSH2 0xBC4 PUSH1 0x1 DUP4 ADD PUSH2 0x2B6F JUMP JUMPDEST SWAP2 PUSH2 0x5CF PUSH2 0xBD4 PUSH1 0x2 DUP4 ADD PUSH2 0x2B6F JUMP JUMPDEST PUSH2 0xC0E PUSH1 0x4 PUSH1 0x3 DUP6 ADD SLOAD SWAP5 ADD SLOAD SWAP2 PUSH2 0xC00 PUSH1 0x40 MLOAD SWAP8 DUP9 SWAP8 ISZERO ISZERO DUP9 MSTORE PUSH1 0xC0 PUSH1 0x20 DUP10 ADD MSTORE PUSH1 0xC0 DUP9 ADD SWAP1 PUSH2 0x2886 JUMP JUMPDEST SWAP1 DUP7 DUP3 SUB PUSH1 0x40 DUP9 ADD MSTORE PUSH2 0x2886 JUMP JUMPDEST PUSH1 0x60 DUP6 ADD SWAP4 SWAP1 SWAP4 MSTORE PUSH1 0x1 PUSH1 0x1 PUSH1 0xA0 SHL SUB DUP2 AND PUSH1 0x80 DUP6 ADD MSTORE PUSH1 0xA0 DUP1 DUP6 ADD SWAP2 SWAP1 SHR PUSH1 0xFF AND PUSH2 0x2879 JUMP JUMPDEST CALLVALUE PUSH2 0x475 JUMPI PUSH1 0x20 CALLDATASIZE PUSH1 0x3 NOT ADD SLT PUSH2 0x475 JUMPI PUSH1 0x4 CALLDATALOAD PUSH1 0x1 PUSH1 0x1 PUSH1 0x40 SHL SUB DUP2 GT PUSH2 0x475 JUMPI PUSH2 0xC65 SWAP1 CALLDATASIZE SWAP1 PUSH1 0x4 ADD PUSH2 0x2A8A JUMP JUMPDEST PUSH1 0x5 SLOAD PUSH1 0x40 MLOAD SWAP1 PUSH2 0xC75 DUP3 PUSH2 0x2A4E JUMP JUMPDEST DUP2 MSTORE PUSH1 0x20 DUP2 ADD SWAP1 PUSH1 0x0 DUP3 MSTORE PUSH1 0x40 DUP2 ADD CALLER DUP2 MSTORE PUSH1 0x60 DUP3 ADD PUSH1 0x0 DUP2 MSTORE PUSH1 0x80 DUP4 ADD SWAP5 DUP6 MSTORE PUSH2 0xC9E PUSH2 0x2E19 JUMP JUMPDEST PUSH1 0xA0 DUP5 ADD SWAP1 DUP2 MSTORE CALLER PUSH1 0x0 SWAP1 DUP2 MSTORE PUSH1 0x8 PUSH1 0x20 MSTORE PUSH1 0x40 SWAP1 KECCAK256 SWAP4 MLOAD DUP5 SSTORE SWAP4 MLOAD PUSH1 0x1 DUP5 ADD SSTORE SWAP1 MLOAD PUSH1 0x2 DUP4 ADD DUP1 SLOAD PUSH1 0x1 PUSH1 0x1 PUSH1 0xA0 SHL SUB NOT AND PUSH1 0x1 PUSH1 0x1 PUSH1 0xA0 SHL SUB SWAP3 SWAP1 SWAP3 AND SWAP2 SWAP1 SWAP2 OR DUP2 SSTORE SWAP1 MLOAD PUSH1 0x3 DUP2 LT ISZERO PUSH2 0xEDC JUMPI PUSH2 0xCF7 SWAP2 PUSH2 0x2D99 JUMP JUMPDEST PUSH1 0x3 DUP2 ADD SWAP3 MLOAD SWAP3 DUP4 MLOAD PUSH1 0x1 PUSH1 0x1 PUSH1 0x40 SHL SUB DUP2 GT PUSH2 0x398 JUMPI PUSH2 0xD1C DUP2 PUSH2 0x243 DUP5 SLOAD PUSH2 0x2B35 JUMP JUMPDEST PUSH1 0x20 PUSH1 0x1F DUP3 GT PUSH1 0x1 EQ PUSH2 0xE73 JUMPI SWAP1 DUP1 PUSH2 0xD4F SWAP3 PUSH1 0x4 SWAP7 SWAP8 PUSH1 0x0 SWAP3 PUSH2 0xE68 JUMPI POP POP DUP2 PUSH1 0x1 SHL SWAP2 PUSH1 0x0 NOT SWAP1 PUSH1 0x3 SHL SHR NOT AND OR SWAP1 JUMP JUMPDEST SWAP1 SSTORE JUMPDEST ADD SWAP1 MLOAD SWAP1 DUP2 MLOAD PUSH1 0x1 PUSH1 0x1 PUSH1 0x40 SHL SUB DUP2 GT PUSH2 0x398 JUMPI PUSH2 0xD74 DUP2 PUSH2 0x243 DUP5 SLOAD PUSH2 0x2B35 JUMP JUMPDEST PUSH1 0x20 SWAP3 PUSH1 0x1F DUP3 GT PUSH1 0x1 EQ PUSH2 0xE05 JUMPI PUSH2 0xDA5 SWAP3 SWAP4 DUP3 SWAP2 PUSH1 0x0 SWAP3 PUSH2 0xDFA JUMPI POP POP DUP2 PUSH1 0x1 SHL SWAP2 PUSH1 0x0 NOT SWAP1 PUSH1 0x3 SHL SHR NOT AND OR SWAP1 JUMP JUMPDEST SWAP1 SSTORE JUMPDEST PUSH1 0x9 SLOAD PUSH1 0x1 PUSH1 0x40 SHL DUP2 LT ISZERO PUSH2 0x398 JUMPI PUSH2 0xDCC DUP2 PUSH1 0x1 PUSH2 0xDEA SWAP4 ADD PUSH1 0x9 SSTORE PUSH1 0x9 PUSH2 0x2861 JUMP JUMPDEST DUP2 SLOAD CALLER PUSH1 0x3 SWAP3 SWAP1 SWAP3 SHL SWAP2 DUP3 SHL PUSH1 0x1 PUSH1 0x1 PUSH1 0xA0 SHL SUB SWAP1 SWAP3 SHL NOT AND OR SWAP1 SSTORE JUMP JUMPDEST PUSH2 0xDF5 PUSH1 0x5 SLOAD PUSH2 0x2D51 JUMP JUMPDEST PUSH1 0x5 SSTORE STOP JUMPDEST ADD MLOAD SWAP1 POP DUP5 DUP1 PUSH2 0x268 JUMP JUMPDEST PUSH1 0x1F NOT DUP3 AND SWAP4 DUP4 PUSH1 0x0 MSTORE DUP1 PUSH1 0x0 KECCAK256 SWAP2 PUSH1 0x0 JUMPDEST DUP7 DUP2 LT PUSH2 0xE50 JUMPI POP DUP4 PUSH1 0x1 SWAP6 SWAP7 LT PUSH2 0xE37 JUMPI JUMPDEST POP POP POP DUP2 SHL ADD SWAP1 SSTORE PUSH2 0xDA8 JUMP JUMPDEST ADD MLOAD PUSH1 0x0 NOT PUSH1 0xF8 DUP5 PUSH1 0x3 SHL AND SHR NOT AND SWAP1 SSTORE DUP4 DUP1 DUP1 PUSH2 0xE2A JUMP JUMPDEST SWAP2 SWAP3 PUSH1 0x20 PUSH1 0x1 DUP2 SWAP3 DUP7 DUP6 ADD MLOAD DUP2 SSTORE ADD SWAP5 ADD SWAP3 ADD PUSH2 0xE17 JUMP JUMPDEST ADD MLOAD SWAP1 POP DUP8 DUP1 PUSH2 0x268 JUMP JUMPDEST PUSH1 0x1F NOT DUP3 AND SWAP6 DUP4 PUSH1 0x0 MSTORE DUP2 PUSH1 0x0 KECCAK256 SWAP7 PUSH1 0x0 JUMPDEST DUP2 DUP2 LT PUSH2 0xEC4 JUMPI POP SWAP2 PUSH1 0x4 SWAP7 SWAP8 SWAP2 DUP5 PUSH1 0x1 SWAP6 SWAP5 LT PUSH2 0xEAB JUMPI JUMPDEST POP POP POP DUP2 SHL ADD SWAP1 SSTORE PUSH2 0xD52 JUMP JUMPDEST ADD MLOAD PUSH1 0x0 NOT PUSH1 0xF8 DUP5 PUSH1 0x3 SHL AND SHR NOT AND SWAP1 SSTORE DUP7 DUP1 DUP1 PUSH2 0xE9E JUMP JUMPDEST DUP4 DUP4 ADD MLOAD DUP10 SSTORE PUSH1 0x1 SWAP1 SWAP9 ADD SWAP8 PUSH1 0x20 SWAP4 DUP5 ADD SWAP4 ADD PUSH2 0xE85 JUMP JUMPDEST PUSH4 0x4E487B71 PUSH1 0xE0 SHL PUSH1 0x0 MSTORE PUSH1 0x21 PUSH1 0x4 MSTORE PUSH1 0x24 PUSH1 0x0 REVERT JUMPDEST CALLVALUE PUSH2 0x475 JUMPI PUSH1 0x20 CALLDATASIZE PUSH1 0x3 NOT ADD SLT PUSH2 0x475 JUMPI PUSH1 0x4 CALLDATALOAD PUSH1 0xB SLOAD DUP2 LT ISZERO PUSH2 0x475 JUMPI PUSH2 0xF1B PUSH1 0x20 SWAP2 PUSH2 0x2810 JUMP JUMPDEST SWAP1 SLOAD PUSH1 0x40 MLOAD PUSH1 0x3 SWAP3 SWAP1 SWAP3 SHL SHR PUSH1 0x1 PUSH1 0x1 PUSH1 0xA0 SHL SUB AND DUP2 MSTORE RETURN JUMPDEST CALLVALUE PUSH2 0x475 JUMPI PUSH1 0x0 CALLDATASIZE PUSH1 0x3 NOT ADD SLT PUSH2 0x475 JUMPI PUSH1 0xE SLOAD PUSH2 0xF51 DUP2 PUSH2 0x2D01 JUMP JUMPDEST SWAP1 PUSH1 0x0 JUMPDEST DUP2 DUP2 LT PUSH2 0xF6A JUMPI PUSH1 0x40 MLOAD DUP1 PUSH2 0x5CF DUP6 DUP3 PUSH2 0x29EE JUMP JUMPDEST DUP1 PUSH2 0xF76 PUSH1 0x1 SWAP3 PUSH2 0x27F5 JUMP JUMPDEST DUP4 DUP1 PUSH1 0xA0 SHL SUB SWAP2 SLOAD SWAP1 PUSH1 0x3 SHL SHR AND PUSH1 0x0 MSTORE PUSH1 0x7 PUSH1 0x20 MSTORE PUSH1 0x40 PUSH1 0x0 KECCAK256 PUSH2 0xFF4 PUSH1 0xFF PUSH1 0x4 PUSH1 0x40 MLOAD SWAP4 PUSH2 0xFA5 DUP6 PUSH2 0x2A4E JUMP JUMPDEST DUP3 DUP2 SLOAD AND ISZERO ISZERO DUP6 MSTORE PUSH2 0xFB8 DUP8 DUP3 ADD PUSH2 0x2B6F JUMP JUMPDEST PUSH1 0x20 DUP7 ADD MSTORE PUSH2 0xFC9 PUSH1 0x2 DUP3 ADD PUSH2 0x2B6F JUMP JUMPDEST PUSH1 0x40 DUP7 ADD MSTORE PUSH1 0x3 DUP2 ADD SLOAD PUSH1 0x60 DUP7 ADD MSTORE ADD SLOAD DUP6 DUP1 PUSH1 0xA0 SHL SUB DUP2 AND PUSH1 0x80 DUP6 ADD MSTORE PUSH1 0xA0 SHR AND PUSH1 0xA0 DUP4 ADD PUSH2 0x2CC2 JUMP JUMPDEST PUSH2 0xFFE DUP3 DUP7 PUSH2 0x2CAE JUMP JUMPDEST MSTORE PUSH2 0x1009 DUP2 DUP6 PUSH2 0x2CAE JUMP JUMPDEST POP ADD PUSH2 0xF55 JUMP JUMPDEST CALLVALUE PUSH2 0x475 JUMPI PUSH1 0x0 CALLDATASIZE PUSH1 0x3 NOT ADD SLT PUSH2 0x475 JUMPI PUSH1 0x0 SLOAD PUSH1 0x40 MLOAD PUSH1 0x1 PUSH1 0x1 PUSH1 0xA0 SHL SUB SWAP1 SWAP2 AND DUP2 MSTORE PUSH1 0x20 SWAP1 RETURN JUMPDEST CALLVALUE PUSH2 0x475 JUMPI PUSH1 0x20 CALLDATASIZE PUSH1 0x3 NOT ADD SLT PUSH2 0x475 JUMPI PUSH1 0x1 PUSH1 0x1 PUSH1 0xA0 SHL SUB PUSH2 0x105A PUSH2 0x2AE0 JUMP JUMPDEST AND PUSH1 0x0 MSTORE PUSH1 0x8 PUSH1 0x20 MSTORE PUSH1 0x40 PUSH1 0x0 KECCAK256 DUP1 SLOAD PUSH2 0x5CF PUSH1 0x1 DUP4 ADD SLOAD SWAP3 PUSH2 0x10D4 PUSH1 0x2 DUP3 ADD SLOAD SWAP2 PUSH2 0x10C3 PUSH2 0x1097 PUSH1 0x4 PUSH2 0x1090 PUSH1 0x3 DUP6 ADD PUSH2 0x2B6F JUMP JUMPDEST SWAP4 ADD PUSH2 0x2B6F JUMP JUMPDEST SWAP4 PUSH1 0x40 MLOAD SWAP8 DUP9 SWAP8 DUP9 MSTORE PUSH1 0x20 DUP9 ADD MSTORE PUSH1 0x1 DUP1 PUSH1 0xA0 SHL SUB DUP2 AND PUSH1 0x40 DUP9 ADD MSTORE PUSH1 0xFF PUSH1 0x60 DUP9 ADD SWAP2 PUSH1 0xA0 SHR AND PUSH2 0x2879 JUMP JUMPDEST PUSH1 0xC0 PUSH1 0x80 DUP7 ADD MSTORE PUSH1 0xC0 DUP6 ADD SWAP1 PUSH2 0x2886 JUMP JUMPDEST SWAP1 DUP4 DUP3 SUB PUSH1 0xA0 DUP6 ADD MSTORE PUSH2 0x2886 JUMP JUMPDEST CALLVALUE PUSH2 0x475 JUMPI PUSH1 0x0 CALLDATASIZE PUSH1 0x3 NOT ADD SLT PUSH2 0x475 JUMPI PUSH1 0xF SLOAD PUSH2 0x10FF DUP2 PUSH2 0x2D01 JUMP JUMPDEST SWAP1 PUSH1 0x0 JUMPDEST DUP2 DUP2 LT PUSH2 0x1118 JUMPI PUSH1 0x40 MLOAD DUP1 PUSH2 0x5CF DUP6 DUP3 PUSH2 0x29EE JUMP JUMPDEST DUP1 PUSH2 0x1124 PUSH1 0x1 SWAP3 PUSH2 0x282B JUMP JUMPDEST DUP4 DUP1 PUSH1 0xA0 SHL SUB SWAP2 SLOAD SWAP1 PUSH1 0x3 SHL SHR AND PUSH1 0x0 MSTORE PUSH1 0x7 PUSH1 0x20 MSTORE PUSH1 0x40 PUSH1 0x0 KECCAK256 PUSH2 0x1153 PUSH1 0xFF PUSH1 0x4 PUSH1 0x40 MLOAD SWAP4 PUSH2 0xFA5 DUP6 PUSH2 0x2A4E JUMP JUMPDEST PUSH2 0x115D DUP3 DUP7 PUSH2 0x2CAE JUMP JUMPDEST MSTORE PUSH2 0x1168 DUP2 DUP6 PUSH2 0x2CAE JUMP JUMPDEST POP ADD PUSH2 0x1103 JUMP JUMPDEST CALLVALUE PUSH2 0x475 JUMPI PUSH1 0x0 CALLDATASIZE PUSH1 0x3 NOT ADD SLT PUSH2 0x475 JUMPI PUSH1 0x40 MLOAD PUSH1 0x0 PUSH1 0x1 SLOAD PUSH2 0x1191 DUP2 PUSH2 0x2B35 JUMP JUMPDEST DUP1 DUP5 MSTORE SWAP1 PUSH1 0x1 DUP2 AND SWAP1 DUP2 ISZERO PUSH2 0x122C JUMPI POP PUSH1 0x1 EQ PUSH2 0x11CD JUMPI JUMPDEST PUSH2 0x5CF DUP4 PUSH2 0x11B9 DUP2 DUP6 SUB DUP3 PUSH2 0x2A69 JUMP JUMPDEST PUSH1 0x40 MLOAD SWAP2 DUP3 SWAP2 PUSH1 0x20 DUP4 MSTORE PUSH1 0x20 DUP4 ADD SWAP1 PUSH2 0x2886 JUMP JUMPDEST PUSH1 0x1 PUSH1 0x0 SWAP1 DUP2 MSTORE PUSH32 0xB10E2D527612073B26EECDFD717E6A320CF44B4AFAC2B0732D9FCBE2B7FA0CF6 SWAP4 SWAP3 POP SWAP1 JUMPDEST DUP1 DUP3 LT PUSH2 0x1212 JUMPI POP SWAP1 SWAP2 POP DUP2 ADD PUSH1 0x20 ADD PUSH2 0x11B9 PUSH2 0x11A9 JUMP JUMPDEST SWAP2 SWAP3 PUSH1 0x1 DUP2 PUSH1 0x20 SWAP3 SLOAD DUP4 DUP6 DUP9 ADD ADD MSTORE ADD SWAP2 ADD SWAP1 SWAP3 SWAP2 PUSH2 0x11FA JUMP JUMPDEST PUSH1 0xFF NOT AND PUSH1 0x20 DUP1 DUP7 ADD SWAP2 SWAP1 SWAP2 MSTORE SWAP2 ISZERO ISZERO PUSH1 0x5 SHL DUP5 ADD SWAP1 SWAP2 ADD SWAP2 POP PUSH2 0x11B9 SWAP1 POP PUSH2 0x11A9 JUMP JUMPDEST CALLVALUE PUSH2 0x475 JUMPI PUSH1 0x20 CALLDATASIZE PUSH1 0x3 NOT ADD SLT PUSH2 0x475 JUMPI PUSH1 0x4 CALLDATALOAD PUSH1 0xA SLOAD DUP2 LT ISZERO PUSH2 0x475 JUMPI PUSH2 0xF1B PUSH1 0x20 SWAP2 PUSH2 0x2846 JUMP JUMPDEST CALLVALUE PUSH2 0x475 JUMPI PUSH1 0x20 CALLDATASIZE PUSH1 0x3 NOT ADD SLT PUSH2 0x475 JUMPI PUSH1 0x4 CALLDATALOAD PUSH1 0x1 PUSH1 0x1 PUSH1 0x40 SHL SUB DUP2 GT PUSH2 0x475 JUMPI PUSH2 0x12A9 SWAP1 CALLDATASIZE SWAP1 PUSH1 0x4 ADD PUSH2 0x2A8A JUMP JUMPDEST PUSH2 0x12BF PUSH1 0x2 SLOAD DUP1 ISZERO SWAP1 DUP2 ISZERO PUSH2 0x13DC JUMPI JUMPDEST POP PUSH2 0x2E5E JUMP JUMPDEST CALLER PUSH1 0x0 SWAP1 DUP2 MSTORE PUSH1 0x7 PUSH1 0x20 MSTORE PUSH1 0x40 SWAP1 KECCAK256 PUSH1 0x4 DUP2 ADD SLOAD PUSH1 0x1 PUSH1 0x1 PUSH1 0xA0 SHL SUB AND ISZERO PUSH2 0x1397 JUMPI PUSH1 0x2 ADD DUP2 MLOAD PUSH1 0x1 PUSH1 0x1 PUSH1 0x40 SHL SUB DUP2 GT PUSH2 0x398 JUMPI PUSH2 0x1302 DUP2 PUSH2 0x243 DUP5 SLOAD PUSH2 0x2B35 JUMP JUMPDEST PUSH1 0x20 SWAP3 PUSH1 0x1F DUP3 GT PUSH1 0x1 EQ PUSH2 0x1337 JUMPI PUSH2 0x1333 SWAP3 SWAP4 DUP3 SWAP2 PUSH1 0x0 SWAP3 PUSH2 0xDFA JUMPI POP POP DUP2 PUSH1 0x1 SHL SWAP2 PUSH1 0x0 NOT SWAP1 PUSH1 0x3 SHL SHR NOT AND OR SWAP1 JUMP JUMPDEST SWAP1 SSTORE STOP JUMPDEST PUSH1 0x1F NOT DUP3 AND SWAP4 DUP4 PUSH1 0x0 MSTORE DUP1 PUSH1 0x0 KECCAK256 SWAP2 PUSH1 0x0 JUMPDEST DUP7 DUP2 LT PUSH2 0x137F JUMPI POP DUP4 PUSH1 0x1 SWAP6 SWAP7 LT PUSH2 0x1366 JUMPI JUMPDEST POP POP POP DUP2 SHL ADD SWAP1 SSTORE STOP JUMPDEST ADD MLOAD PUSH1 0x0 NOT PUSH1 0xF8 DUP5 PUSH1 0x3 SHL AND SHR NOT AND SWAP1 SSTORE DUP4 DUP1 DUP1 PUSH2 0x135C JUMP JUMPDEST SWAP2 SWAP3 PUSH1 0x20 PUSH1 0x1 DUP2 SWAP3 DUP7 DUP6 ADD MLOAD DUP2 SSTORE ADD SWAP5 ADD SWAP3 ADD PUSH2 0x1349 JUMP JUMPDEST PUSH1 0x40 MLOAD PUSH3 0x461BCD PUSH1 0xE5 SHL DUP2 MSTORE PUSH1 0x20 PUSH1 0x4 DUP3 ADD MSTORE PUSH1 0x18 PUSH1 0x24 DUP3 ADD MSTORE PUSH32 0x4E6F20766F746572206461746120617661696C61626C652E0000000000000000 PUSH1 0x44 DUP3 ADD MSTORE PUSH1 0x64 SWAP1 REVERT JUMPDEST SWAP1 POP TIMESTAMP LT DUP4 PUSH2 0x12B9 JUMP JUMPDEST CALLVALUE PUSH2 0x475 JUMPI PUSH2 0x13F4 CALLDATASIZE PUSH2 0x2AF6 JUMP JUMPDEST SWAP1 PUSH2 0x140A PUSH1 0x1 DUP1 PUSH1 0xA0 SHL SUB PUSH1 0x0 SLOAD AND CALLER EQ PUSH2 0x2D60 JUMP JUMPDEST PUSH1 0x1 PUSH1 0x1 PUSH1 0xA0 SHL SUB DUP2 DUP2 AND PUSH1 0x0 DUP2 DUP2 MSTORE PUSH1 0x8 PUSH1 0x20 MSTORE PUSH1 0x40 SWAP1 KECCAK256 PUSH1 0x2 DUP2 ADD DUP1 SLOAD SWAP3 SWAP5 SWAP4 SWAP1 SWAP3 AND ISZERO PUSH2 0x15C2 JUMPI DUP2 SLOAD PUSH1 0xFF PUSH1 0xA0 SHL NOT AND PUSH1 0x1 PUSH1 0xA0 SHL OR SWAP1 SWAP2 SSTORE DUP4 MLOAD PUSH1 0x4 SWAP2 SWAP1 SWAP2 ADD SWAP1 PUSH1 0x1 PUSH1 0x1 PUSH1 0x40 SHL SUB DUP2 GT PUSH2 0x398 JUMPI PUSH2 0x146B DUP2 PUSH2 0x243 DUP5 SLOAD PUSH2 0x2B35 JUMP JUMPDEST PUSH1 0x20 SWAP5 PUSH1 0x1F DUP3 GT PUSH1 0x1 EQ PUSH2 0x155D JUMPI PUSH2 0x149E SWAP3 SWAP4 SWAP5 SWAP6 DUP3 SWAP2 PUSH1 0x0 SWAP3 PUSH2 0x1552 JUMPI POP POP DUP2 PUSH1 0x1 SHL SWAP2 PUSH1 0x0 NOT SWAP1 PUSH1 0x3 SHL SHR NOT AND OR SWAP1 JUMP JUMPDEST SWAP1 SSTORE JUMPDEST PUSH1 0xB SLOAD SWAP1 PUSH1 0x1 PUSH1 0x40 SHL DUP3 LT ISZERO PUSH2 0x398 JUMPI PUSH2 0x2A5 DUP3 PUSH1 0x1 PUSH2 0x14C6 SWAP5 ADD PUSH1 0xB SSTORE PUSH1 0xB PUSH2 0x2861 JUMP JUMPDEST PUSH1 0x0 JUMPDEST PUSH1 0xD SLOAD DUP1 DUP3 LT ISZERO PUSH2 0x396 JUMPI DUP3 PUSH2 0x14DE DUP4 PUSH2 0x27BF JUMP JUMPDEST SWAP1 SLOAD PUSH1 0x3 SWAP2 SWAP1 SWAP2 SHL SHR PUSH1 0x1 PUSH1 0x1 PUSH1 0xA0 SHL SUB AND EQ PUSH2 0x14FE JUMPI POP PUSH1 0x1 ADD PUSH2 0x14C9 JUMP JUMPDEST PUSH1 0x0 NOT DUP2 ADD SWAP3 POP DUP3 GT PUSH2 0x380 JUMPI PUSH2 0x2A5 PUSH2 0x151A PUSH2 0x1532 SWAP4 PUSH2 0x27BF JUMP JUMPDEST SWAP1 SLOAD PUSH1 0x3 SWAP2 SWAP1 SWAP2 SHL SHR PUSH1 0x1 PUSH1 0x1 PUSH1 0xA0 SHL SUB AND SWAP2 PUSH2 0x27BF JUMP JUMPDEST PUSH1 0xD SLOAD DUP1 ISZERO PUSH2 0x36A JUMPI PUSH1 0x0 NOT ADD PUSH2 0x154D PUSH2 0x350 DUP3 PUSH1 0xD PUSH2 0x2861 JUMP JUMPDEST PUSH1 0xD SSTORE STOP JUMPDEST ADD MLOAD SWAP1 POP DUP7 DUP1 PUSH2 0x268 JUMP JUMPDEST PUSH1 0x1F NOT DUP3 AND SWAP6 DUP4 PUSH1 0x0 MSTORE DUP1 PUSH1 0x0 KECCAK256 SWAP2 PUSH1 0x0 JUMPDEST DUP9 DUP2 LT PUSH2 0x15AA JUMPI POP DUP4 PUSH1 0x1 SWAP6 SWAP7 SWAP8 SWAP9 LT PUSH2 0x1591 JUMPI JUMPDEST POP POP POP DUP2 SHL ADD SWAP1 SSTORE PUSH2 0x14A1 JUMP JUMPDEST ADD MLOAD PUSH1 0x0 NOT PUSH1 0xF8 DUP5 PUSH1 0x3 SHL AND SHR NOT AND SWAP1 SSTORE DUP6 DUP1 DUP1 PUSH2 0x1584 JUMP JUMPDEST SWAP2 SWAP3 PUSH1 0x20 PUSH1 0x1 DUP2 SWAP3 DUP7 DUP6 ADD MLOAD DUP2 SSTORE ADD SWAP5 ADD SWAP3 ADD PUSH2 0x156F JUMP JUMPDEST PUSH1 0x40 MLOAD PUSH3 0x461BCD PUSH1 0xE5 SHL DUP2 MSTORE PUSH1 0x20 PUSH1 0x4 DUP3 ADD MSTORE PUSH1 0x2D PUSH1 0x24 DUP3 ADD MSTORE PUSH32 0x546869732063616E64696461746520646F6573206E6F74206170706561722069 PUSH1 0x44 DUP3 ADD MSTORE PUSH13 0x371037BAB91039BCB9BA32B697 PUSH1 0x99 SHL PUSH1 0x64 DUP3 ADD MSTORE PUSH1 0x84 SWAP1 REVERT JUMPDEST CALLVALUE PUSH2 0x475 JUMPI PUSH1 0x20 CALLDATASIZE PUSH1 0x3 NOT ADD SLT PUSH2 0x475 JUMPI PUSH1 0x4 CALLDATALOAD PUSH1 0x1 PUSH1 0x1 PUSH1 0x40 SHL SUB DUP2 GT PUSH2 0x475 JUMPI PUSH2 0x164D SWAP1 CALLDATASIZE SWAP1 PUSH1 0x4 ADD PUSH2 0x2A8A JUMP JUMPDEST PUSH2 0x1662 PUSH1 0x2 SLOAD DUP1 ISZERO SWAP1 DUP2 ISZERO PUSH2 0x13DC JUMPI POP PUSH2 0x2E5E JUMP JUMPDEST CALLER PUSH1 0x0 SWAP1 DUP2 MSTORE PUSH1 0x8 PUSH1 0x20 MSTORE PUSH1 0x40 SWAP1 KECCAK256 PUSH1 0x2 DUP2 ADD SLOAD PUSH1 0x1 PUSH1 0x1 PUSH1 0xA0 SHL SUB AND ISZERO PUSH2 0x171C JUMPI PUSH1 0x3 ADD DUP2 MLOAD PUSH1 0x1 PUSH1 0x1 PUSH1 0x40 SHL SUB DUP2 GT PUSH2 0x398 JUMPI PUSH2 0x16A5 DUP2 PUSH2 0x243 DUP5 SLOAD PUSH2 0x2B35 JUMP JUMPDEST PUSH1 0x20 SWAP3 PUSH1 0x1F DUP3 GT PUSH1 0x1 EQ PUSH2 0x16D6 JUMPI PUSH2 0x1333 SWAP3 SWAP4 DUP3 SWAP2 PUSH1 0x0 SWAP3 PUSH2 0xDFA JUMPI POP POP DUP2 PUSH1 0x1 SHL SWAP2 PUSH1 0x0 NOT SWAP1 PUSH1 0x3 SHL SHR NOT AND OR SWAP1 JUMP JUMPDEST PUSH1 0x1F NOT DUP3 AND SWAP4 DUP4 PUSH1 0x0 MSTORE DUP1 PUSH1 0x0 KECCAK256 SWAP2 PUSH1 0x0 JUMPDEST DUP7 DUP2 LT PUSH2 0x1704 JUMPI POP DUP4 PUSH1 0x1 SWAP6 SWAP7 LT PUSH2 0x1366 JUMPI POP POP POP DUP2 SHL ADD SWAP1 SSTORE STOP JUMPDEST SWAP2 SWAP3 PUSH1 0x20 PUSH1 0x1 DUP2 SWAP3 DUP7 DUP6 ADD MLOAD DUP2 SSTORE ADD SWAP5 ADD SWAP3 ADD PUSH2 0x16E8 JUMP JUMPDEST PUSH1 0x40 MLOAD PUSH3 0x461BCD PUSH1 0xE5 SHL DUP2 MSTORE PUSH1 0x20 PUSH1 0x4 DUP3 ADD MSTORE PUSH1 0x1C PUSH1 0x24 DUP3 ADD MSTORE PUSH32 0x4E6F2063616E646964617465206461746120617661696C61626C652E00000000 PUSH1 0x44 DUP3 ADD MSTORE PUSH1 0x64 SWAP1 REVERT JUMPDEST CALLVALUE PUSH2 0x475 JUMPI PUSH1 0x20 CALLDATASIZE PUSH1 0x3 NOT ADD SLT PUSH2 0x475 JUMPI PUSH2 0x177A PUSH2 0x2AE0 JUMP JUMPDEST PUSH1 0x2 SLOAD TIMESTAMP LT PUSH2 0x192D JUMPI PUSH1 0x3 SLOAD TIMESTAMP GT PUSH2 0x18F5 JUMPI CALLER PUSH1 0x0 MSTORE PUSH1 0x7 PUSH1 0x20 MSTORE PUSH1 0x40 PUSH1 0x0 KECCAK256 PUSH1 0xFF PUSH1 0x4 DUP3 ADD SLOAD PUSH1 0xA0 SHR AND PUSH1 0x3 DUP2 LT ISZERO PUSH2 0xEDC JUMPI PUSH1 0x1 SUB PUSH2 0x18B0 JUMPI DUP1 SLOAD SWAP2 PUSH1 0xFF DUP4 AND PUSH2 0x1872 JUMPI PUSH1 0x1 DUP1 PUSH1 0xA0 SHL SUB AND PUSH1 0x0 MSTORE PUSH1 0x8 PUSH1 0x20 MSTORE PUSH1 0x40 PUSH1 0x0 KECCAK256 SWAP1 PUSH1 0xFF PUSH1 0x2 DUP4 ADD SLOAD PUSH1 0xA0 SHR AND PUSH1 0x3 DUP2 LT ISZERO PUSH2 0xEDC JUMPI PUSH1 0x1 SUB PUSH2 0x182D JUMPI PUSH1 0x1 DUP1 SWAP4 PUSH1 0xFF NOT AND OR SWAP1 SSTORE ADD PUSH2 0x1807 DUP2 SLOAD PUSH2 0x2D51 JUMP JUMPDEST SWAP1 SSTORE PUSH1 0xF SLOAD PUSH1 0x1 PUSH1 0x40 SHL DUP2 LT ISZERO PUSH2 0x398 JUMPI PUSH2 0xDCC DUP2 PUSH1 0x1 PUSH2 0x396 SWAP4 ADD PUSH1 0xF SSTORE PUSH1 0xF PUSH2 0x2861 JUMP JUMPDEST PUSH1 0x40 MLOAD PUSH3 0x461BCD PUSH1 0xE5 SHL DUP2 MSTORE PUSH1 0x20 PUSH1 0x4 DUP3 ADD MSTORE PUSH1 0x1A PUSH1 0x24 DUP3 ADD MSTORE PUSH32 0x43616E646964617465206973206E6F742061636365707465642E000000000000 PUSH1 0x44 DUP3 ADD MSTORE PUSH1 0x64 SWAP1 REVERT JUMPDEST PUSH1 0x40 MLOAD PUSH3 0x461BCD PUSH1 0xE5 SHL DUP2 MSTORE PUSH1 0x20 PUSH1 0x4 DUP3 ADD MSTORE PUSH1 0x16 PUSH1 0x24 DUP3 ADD MSTORE PUSH22 0x165BDD481A185D9948185B1C9958591E481D9BDD1959 PUSH1 0x52 SHL PUSH1 0x44 DUP3 ADD MSTORE PUSH1 0x64 SWAP1 REVERT JUMPDEST PUSH1 0x40 MLOAD PUSH3 0x461BCD PUSH1 0xE5 SHL DUP2 MSTORE PUSH1 0x20 PUSH1 0x4 DUP3 ADD MSTORE PUSH1 0x1E PUSH1 0x24 DUP3 ADD MSTORE PUSH32 0x596F7520617265206E6F74206120636F6E6669726D656420766F7465722E0000 PUSH1 0x44 DUP3 ADD MSTORE PUSH1 0x64 SWAP1 REVERT JUMPDEST PUSH1 0x40 MLOAD PUSH3 0x461BCD PUSH1 0xE5 SHL DUP2 MSTORE PUSH1 0x20 PUSH1 0x4 DUP3 ADD MSTORE PUSH1 0x10 PUSH1 0x24 DUP3 ADD MSTORE PUSH16 0x159BDD1A5B99C81A185CC8195B991959 PUSH1 0x82 SHL PUSH1 0x44 DUP3 ADD MSTORE PUSH1 0x64 SWAP1 REVERT JUMPDEST PUSH1 0x40 MLOAD PUSH3 0x461BCD PUSH1 0xE5 SHL DUP2 MSTORE PUSH1 0x20 PUSH1 0x4 DUP3 ADD MSTORE PUSH1 0x1A PUSH1 0x24 DUP3 ADD MSTORE PUSH32 0x566F74696E6720686173206E6F74207374617274656420796574000000000000 PUSH1 0x44 DUP3 ADD MSTORE PUSH1 0x64 SWAP1 REVERT JUMPDEST CALLVALUE PUSH2 0x475 JUMPI PUSH1 0x20 CALLDATASIZE PUSH1 0x3 NOT ADD SLT PUSH2 0x475 JUMPI PUSH1 0x4 CALLDATALOAD PUSH1 0x1 PUSH1 0x1 PUSH1 0x40 SHL SUB DUP2 GT PUSH2 0x475 JUMPI PUSH2 0x19A2 SWAP1 CALLDATASIZE SWAP1 PUSH1 0x4 ADD PUSH2 0x2A8A JUMP JUMPDEST PUSH1 0x6 SLOAD PUSH1 0x40 MLOAD PUSH2 0x19B1 DUP2 PUSH2 0x2A4E JUMP JUMPDEST PUSH1 0x0 DUP2 MSTORE PUSH2 0x19BD PUSH2 0x2E19 JUMP JUMPDEST SWAP1 PUSH1 0x20 DUP2 ADD SWAP2 DUP3 MSTORE PUSH1 0x40 DUP2 ADD SWAP4 DUP5 MSTORE PUSH1 0x60 DUP2 ADD SWAP3 DUP4 MSTORE PUSH1 0x80 DUP2 ADD SWAP3 CALLER DUP5 MSTORE PUSH1 0xA0 DUP3 ADD SWAP3 PUSH1 0x0 DUP5 MSTORE CALLER PUSH1 0x0 MSTORE PUSH1 0x7 PUSH1 0x20 MSTORE PUSH1 0x40 PUSH1 0x0 KECCAK256 SWAP3 MLOAD ISZERO ISZERO PUSH1 0xFF DUP1 NOT DUP6 SLOAD AND SWAP2 AND OR DUP4 SSTORE PUSH1 0x1 DUP4 ADD SWAP1 MLOAD DUP1 MLOAD SWAP1 PUSH1 0x1 PUSH1 0x1 PUSH1 0x40 SHL SUB DUP3 GT PUSH2 0x398 JUMPI PUSH2 0x1A2D DUP3 PUSH2 0x1A27 DUP6 SLOAD PUSH2 0x2B35 JUMP JUMPDEST DUP6 PUSH2 0x2DD4 JUMP JUMPDEST PUSH1 0x20 SWAP1 PUSH1 0x1F DUP4 GT PUSH1 0x1 EQ PUSH2 0x1BA5 JUMPI PUSH2 0x1A5D SWAP3 SWAP2 PUSH1 0x0 SWAP2 DUP4 PUSH2 0x1B30 JUMPI POP POP DUP2 PUSH1 0x1 SHL SWAP2 PUSH1 0x0 NOT SWAP1 PUSH1 0x3 SHL SHR NOT AND OR SWAP1 JUMP JUMPDEST SWAP1 SSTORE JUMPDEST PUSH1 0x2 DUP3 ADD SWAP5 MLOAD SWAP5 DUP6 MLOAD PUSH1 0x1 PUSH1 0x1 PUSH1 0x40 SHL SUB DUP2 GT PUSH2 0x398 JUMPI PUSH2 0x1A85 DUP2 PUSH2 0x243 DUP5 SLOAD PUSH2 0x2B35 JUMP JUMPDEST PUSH1 0x20 PUSH1 0x1F DUP3 GT PUSH1 0x1 EQ PUSH2 0x1B3B JUMPI SWAP1 DUP1 PUSH2 0x1AB9 SWAP3 PUSH1 0x4 SWAP8 SWAP9 SWAP10 PUSH1 0x0 SWAP3 PUSH2 0x1B30 JUMPI POP POP DUP2 PUSH1 0x1 SHL SWAP2 PUSH1 0x0 NOT SWAP1 PUSH1 0x3 SHL SHR NOT AND OR SWAP1 JUMP JUMPDEST SWAP1 SSTORE JUMPDEST MLOAD PUSH1 0x3 DUP3 DUP2 ADD SWAP2 SWAP1 SWAP2 SSTORE SWAP4 MLOAD SWAP2 ADD DUP1 SLOAD PUSH1 0x1 PUSH1 0x1 PUSH1 0xA0 SHL SUB NOT AND PUSH1 0x1 PUSH1 0x1 PUSH1 0xA0 SHL SUB SWAP3 SWAP1 SWAP3 AND SWAP2 SWAP1 SWAP2 OR DUP2 SSTORE SWAP1 MLOAD SWAP1 SWAP2 DUP2 LT ISZERO PUSH2 0xEDC JUMPI PUSH2 0x1AFC SWAP2 PUSH2 0x2D99 JUMP JUMPDEST PUSH1 0xA SLOAD PUSH1 0x1 PUSH1 0x40 SHL DUP2 LT ISZERO PUSH2 0x398 JUMPI PUSH2 0xDCC DUP2 PUSH1 0x1 PUSH2 0x1B20 SWAP4 ADD PUSH1 0xA SSTORE PUSH1 0xA PUSH2 0x2861 JUMP JUMPDEST PUSH2 0x1B2B PUSH1 0x6 SLOAD PUSH2 0x2D51 JUMP JUMPDEST PUSH1 0x6 SSTORE STOP JUMPDEST ADD MLOAD SWAP1 POP DUP10 DUP1 PUSH2 0x268 JUMP JUMPDEST PUSH1 0x1F NOT DUP3 AND SWAP8 DUP4 PUSH1 0x0 MSTORE DUP2 PUSH1 0x0 KECCAK256 SWAP9 PUSH1 0x0 JUMPDEST DUP2 DUP2 LT PUSH2 0x1B8D JUMPI POP SWAP2 PUSH1 0x4 SWAP8 SWAP9 SWAP10 SWAP2 DUP5 PUSH1 0x1 SWAP6 SWAP5 LT PUSH2 0x1B74 JUMPI JUMPDEST POP POP POP DUP2 SHL ADD SWAP1 SSTORE PUSH2 0x1ABC JUMP JUMPDEST ADD MLOAD PUSH1 0x0 NOT PUSH1 0xF8 DUP5 PUSH1 0x3 SHL AND SHR NOT AND SWAP1 SSTORE DUP9 DUP1 DUP1 PUSH2 0x1B67 JUMP JUMPDEST DUP4 DUP4 ADD MLOAD DUP12 SSTORE PUSH1 0x1 SWAP1 SWAP11 ADD SWAP10 PUSH1 0x20 SWAP4 DUP5 ADD SWAP4 ADD PUSH2 0x1B4D JUMP JUMPDEST SWAP1 PUSH1 0x1F NOT DUP4 AND SWAP2 DUP5 PUSH1 0x0 MSTORE DUP2 PUSH1 0x0 KECCAK256 SWAP3 PUSH1 0x0 JUMPDEST DUP2 DUP2 LT PUSH2 0x1BF4 JUMPI POP SWAP1 DUP5 PUSH1 0x1 SWAP6 SWAP5 SWAP4 SWAP3 LT PUSH2 0x1BDB JUMPI JUMPDEST POP POP POP DUP2 SHL ADD SWAP1 SSTORE PUSH2 0x1A60 JUMP JUMPDEST ADD MLOAD PUSH1 0x0 NOT PUSH1 0xF8 DUP5 PUSH1 0x3 SHL AND SHR NOT AND SWAP1 SSTORE DUP9 DUP1 DUP1 PUSH2 0x1BCE JUMP JUMPDEST SWAP3 SWAP4 PUSH1 0x20 PUSH1 0x1 DUP2 SWAP3 DUP8 DUP7 ADD MLOAD DUP2 SSTORE ADD SWAP6 ADD SWAP4 ADD PUSH2 0x1BB8 JUMP JUMPDEST CALLVALUE PUSH2 0x475 JUMPI PUSH1 0x0 CALLDATASIZE PUSH1 0x3 NOT ADD SLT PUSH2 0x475 JUMPI PUSH1 0xA SLOAD PUSH2 0x1C29 DUP2 PUSH2 0x2D01 JUMP JUMPDEST SWAP1 PUSH1 0x0 JUMPDEST DUP2 DUP2 LT PUSH2 0x1C42 JUMPI PUSH1 0x40 MLOAD DUP1 PUSH2 0x5CF DUP6 DUP3 PUSH2 0x29EE JUMP JUMPDEST DUP1 PUSH2 0x1C4E PUSH1 0x1 SWAP3 PUSH2 0x2846 JUMP JUMPDEST DUP4 DUP1 PUSH1 0xA0 SHL SUB SWAP2 SLOAD SWAP1 PUSH1 0x3 SHL SHR AND PUSH1 0x0 MSTORE PUSH1 0x7 PUSH1 0x20 MSTORE PUSH1 0x40 PUSH1 0x0 KECCAK256 PUSH2 0x1C7D PUSH1 0xFF PUSH1 0x4 PUSH1 0x40 MLOAD SWAP4 PUSH2 0xFA5 DUP6 PUSH2 0x2A4E JUMP JUMPDEST PUSH2 0x1C87 DUP3 DUP7 PUSH2 0x2CAE JUMP JUMPDEST MSTORE PUSH2 0x1C92 DUP2 DUP6 PUSH2 0x2CAE JUMP JUMPDEST POP ADD PUSH2 0x1C2D JUMP JUMPDEST CALLVALUE PUSH2 0x475 JUMPI PUSH1 0x20 CALLDATASIZE PUSH1 0x3 NOT ADD SLT PUSH2 0x475 JUMPI PUSH1 0x4 CALLDATALOAD PUSH1 0xF SLOAD DUP2 LT ISZERO PUSH2 0x475 JUMPI PUSH2 0xF1B PUSH1 0x20 SWAP2 PUSH2 0x282B JUMP JUMPDEST CALLVALUE PUSH2 0x475 JUMPI PUSH1 0x20 CALLDATASIZE PUSH1 0x3 NOT ADD SLT PUSH2 0x475 JUMPI PUSH1 0x4 CALLDATALOAD PUSH1 0xD SLOAD DUP2 LT ISZERO PUSH2 0x475 JUMPI PUSH2 0xF1B PUSH1 0x20 SWAP2 PUSH2 0x27BF JUMP JUMPDEST CALLVALUE PUSH2 0x475 JUMPI PUSH1 0x20 CALLDATASIZE PUSH1 0x3 NOT ADD SLT PUSH2 0x475 JUMPI PUSH1 0x4 CALLDATALOAD PUSH2 0x1D14 PUSH1 0x1 DUP1 PUSH1 0xA0 SHL SUB PUSH1 0x0 SLOAD AND CALLER EQ PUSH2 0x2D60 JUMP JUMPDEST PUSH1 0x4 SLOAD PUSH2 0x1D8D JUMPI PUSH1 0x3 SLOAD DUP2 GT ISZERO PUSH2 0x1D2A JUMPI PUSH1 0x4 SSTORE STOP JUMPDEST PUSH1 0x40 MLOAD PUSH3 0x461BCD PUSH1 0xE5 SHL DUP2 MSTORE PUSH1 0x20 PUSH1 0x4 DUP3 ADD MSTORE PUSH1 0x35 PUSH1 0x24 DUP3 ADD MSTORE PUSH32 0x526573756C74207075626C69636174696F6E2074696D65206D75737420626520 PUSH1 0x44 DUP3 ADD MSTORE PUSH21 0x616674657220766F74696E6720656E642074696D65 PUSH1 0x58 SHL PUSH1 0x64 DUP3 ADD MSTORE PUSH1 0x84 SWAP1 REVERT JUMPDEST PUSH1 0x40 MLOAD PUSH3 0x461BCD PUSH1 0xE5 SHL DUP2 MSTORE PUSH1 0x20 PUSH1 0x4 DUP3 ADD MSTORE PUSH1 0x23 PUSH1 0x24 DUP3 ADD MSTORE PUSH32 0x526573756C74207075626C69636174696F6E2074696D6520616C726561647920 PUSH1 0x44 DUP3 ADD MSTORE PUSH3 0x1CD95D PUSH1 0xEA SHL PUSH1 0x64 DUP3 ADD MSTORE PUSH1 0x84 SWAP1 REVERT JUMPDEST CALLVALUE PUSH2 0x475 JUMPI PUSH2 0x1DEC CALLDATASIZE PUSH2 0x2AF6 JUMP JUMPDEST SWAP1 PUSH2 0x1E02 PUSH1 0x1 DUP1 PUSH1 0xA0 SHL SUB PUSH1 0x0 SLOAD AND CALLER EQ PUSH2 0x2D60 JUMP JUMPDEST PUSH1 0x1 PUSH1 0x1 PUSH1 0xA0 SHL SUB DUP2 DUP2 AND PUSH1 0x0 DUP2 DUP2 MSTORE PUSH1 0x8 PUSH1 0x20 MSTORE PUSH1 0x40 SWAP1 KECCAK256 PUSH1 0x2 DUP2 ADD DUP1 SLOAD SWAP3 SWAP5 SWAP4 SWAP1 SWAP3 AND ISZERO PUSH2 0x1FAF JUMPI DUP2 SLOAD PUSH1 0xFF PUSH1 0xA0 SHL NOT AND PUSH1 0x1 PUSH1 0xA1 SHL OR SWAP1 SWAP2 SSTORE DUP4 MLOAD PUSH1 0x4 SWAP2 SWAP1 SWAP2 ADD SWAP1 PUSH1 0x1 PUSH1 0x1 PUSH1 0x40 SHL SUB DUP2 GT PUSH2 0x398 JUMPI PUSH2 0x1E63 DUP2 PUSH2 0x243 DUP5 SLOAD PUSH2 0x2B35 JUMP JUMPDEST PUSH1 0x20 SWAP5 PUSH1 0x1F DUP3 GT PUSH1 0x1 EQ PUSH2 0x1F4A JUMPI PUSH2 0x1E96 SWAP3 SWAP4 SWAP5 SWAP6 DUP3 SWAP2 PUSH1 0x0 SWAP3 PUSH2 0x1552 JUMPI POP POP DUP2 PUSH1 0x1 SHL SWAP2 PUSH1 0x0 NOT SWAP1 PUSH1 0x3 SHL SHR NOT AND OR SWAP1 JUMP JUMPDEST SWAP1 SSTORE JUMPDEST PUSH1 0xD SLOAD SWAP1 PUSH1 0x1 PUSH1 0x40 SHL DUP3 LT ISZERO PUSH2 0x398 JUMPI PUSH2 0x2A5 DUP3 PUSH1 0x1 PUSH2 0x1EBE SWAP5 ADD PUSH1 0xD SSTORE PUSH1 0xD PUSH2 0x2861 JUMP JUMPDEST PUSH1 0x0 JUMPDEST PUSH1 0xB SLOAD DUP1 DUP3 LT ISZERO PUSH2 0x396 JUMPI DUP3 PUSH2 0x1ED6 DUP4 PUSH2 0x2810 JUMP JUMPDEST SWAP1 SLOAD PUSH1 0x3 SWAP2 SWAP1 SWAP2 SHL SHR PUSH1 0x1 PUSH1 0x1 PUSH1 0xA0 SHL SUB AND EQ PUSH2 0x1EF6 JUMPI POP PUSH1 0x1 ADD PUSH2 0x1EC1 JUMP JUMPDEST PUSH1 0x0 NOT DUP2 ADD SWAP3 POP DUP3 GT PUSH2 0x380 JUMPI PUSH2 0x2A5 PUSH2 0x1F12 PUSH2 0x1F2A SWAP4 PUSH2 0x2810 JUMP JUMPDEST SWAP1 SLOAD PUSH1 0x3 SWAP2 SWAP1 SWAP2 SHL SHR PUSH1 0x1 PUSH1 0x1 PUSH1 0xA0 SHL SUB AND SWAP2 PUSH2 0x2810 JUMP JUMPDEST PUSH1 0xB SLOAD DUP1 ISZERO PUSH2 0x36A JUMPI PUSH1 0x0 NOT ADD PUSH2 0x1F45 PUSH2 0x350 DUP3 PUSH1 0xB PUSH2 0x2861 JUMP JUMPDEST PUSH1 0xB SSTORE STOP JUMPDEST PUSH1 0x1F NOT DUP3 AND SWAP6 DUP4 PUSH1 0x0 MSTORE DUP1 PUSH1 0x0 KECCAK256 SWAP2 PUSH1 0x0 JUMPDEST DUP9 DUP2 LT PUSH2 0x1F97 JUMPI POP DUP4 PUSH1 0x1 SWAP6 SWAP7 SWAP8 SWAP9 LT PUSH2 0x1F7E JUMPI JUMPDEST POP POP POP DUP2 SHL ADD SWAP1 SSTORE PUSH2 0x1E99 JUMP JUMPDEST ADD MLOAD PUSH1 0x0 NOT PUSH1 0xF8 DUP5 PUSH1 0x3 SHL AND SHR NOT AND SWAP1 SSTORE DUP6 DUP1 DUP1 PUSH2 0x1F71 JUMP JUMPDEST SWAP2 SWAP3 PUSH1 0x20 PUSH1 0x1 DUP2 SWAP3 DUP7 DUP6 ADD MLOAD DUP2 SSTORE ADD SWAP5 ADD SWAP3 ADD PUSH2 0x1F5C JUMP JUMPDEST PUSH1 0x40 MLOAD PUSH3 0x461BCD PUSH1 0xE5 SHL DUP2 MSTORE PUSH1 0x20 PUSH1 0x4 DUP3 ADD MSTORE PUSH1 0x1B PUSH1 0x24 DUP3 ADD MSTORE PUSH32 0x4E6F2063616E646964617465206461746120617661696C61626C650000000000 PUSH1 0x44 DUP3 ADD MSTORE PUSH1 0x64 SWAP1 REVERT JUMPDEST CALLVALUE PUSH2 0x475 JUMPI PUSH1 0x20 CALLDATASIZE PUSH1 0x3 NOT ADD SLT PUSH2 0x475 JUMPI PUSH1 0x4 CALLDATALOAD PUSH1 0xC SLOAD DUP2 LT ISZERO PUSH2 0x475 JUMPI PUSH2 0xF1B PUSH1 0x20 SWAP2 PUSH2 0x27DA JUMP JUMPDEST CALLVALUE PUSH2 0x475 JUMPI PUSH2 0x202B CALLDATASIZE PUSH2 0x2AF6 JUMP JUMPDEST SWAP1 PUSH2 0x2041 PUSH1 0x1 DUP1 PUSH1 0xA0 SHL SUB PUSH1 0x0 SLOAD AND CALLER EQ PUSH2 0x2D60 JUMP JUMPDEST PUSH1 0x1 PUSH1 0x1 PUSH1 0xA0 SHL SUB DUP2 DUP2 AND PUSH1 0x0 DUP2 DUP2 MSTORE PUSH1 0x7 PUSH1 0x20 MSTORE PUSH1 0x40 SWAP1 KECCAK256 PUSH1 0x4 DUP2 ADD DUP1 SLOAD SWAP3 SWAP5 SWAP4 SWAP1 SWAP3 AND ISZERO PUSH2 0x21EE JUMPI DUP2 SLOAD PUSH1 0xFF PUSH1 0xA0 SHL NOT AND PUSH1 0x1 PUSH1 0xA1 SHL OR SWAP1 SWAP2 SSTORE DUP4 MLOAD PUSH1 0x1 SWAP2 SWAP1 SWAP2 ADD SWAP1 PUSH1 0x1 PUSH1 0x1 PUSH1 0x40 SHL SUB DUP2 GT PUSH2 0x398 JUMPI PUSH2 0x20A2 DUP2 PUSH2 0x243 DUP5 SLOAD PUSH2 0x2B35 JUMP JUMPDEST PUSH1 0x20 SWAP5 PUSH1 0x1F DUP3 GT PUSH1 0x1 EQ PUSH2 0x2189 JUMPI PUSH2 0x20D5 SWAP3 SWAP4 SWAP5 SWAP6 DUP3 SWAP2 PUSH1 0x0 SWAP3 PUSH2 0x1552 JUMPI POP POP DUP2 PUSH1 0x1 SHL SWAP2 PUSH1 0x0 NOT SWAP1 PUSH1 0x3 SHL SHR NOT AND OR SWAP1 JUMP JUMPDEST SWAP1 SSTORE JUMPDEST PUSH1 0xE SLOAD SWAP1 PUSH1 0x1 PUSH1 0x40 SHL DUP3 LT ISZERO PUSH2 0x398 JUMPI PUSH2 0x2A5 DUP3 PUSH1 0x1 PUSH2 0x20FD SWAP5 ADD PUSH1 0xE SSTORE PUSH1 0xE PUSH2 0x2861 JUMP JUMPDEST PUSH1 0x0 JUMPDEST PUSH1 0xC SLOAD DUP1 DUP3 LT ISZERO PUSH2 0x396 JUMPI DUP3 PUSH2 0x2115 DUP4 PUSH2 0x27DA JUMP JUMPDEST SWAP1 SLOAD PUSH1 0x3 SWAP2 SWAP1 SWAP2 SHL SHR PUSH1 0x1 PUSH1 0x1 PUSH1 0xA0 SHL SUB AND EQ PUSH2 0x2135 JUMPI POP PUSH1 0x1 ADD PUSH2 0x2100 JUMP JUMPDEST PUSH1 0x0 NOT DUP2 ADD SWAP3 POP DUP3 GT PUSH2 0x380 JUMPI PUSH2 0x2A5 PUSH2 0x2151 PUSH2 0x2169 SWAP4 PUSH2 0x27DA JUMP JUMPDEST SWAP1 SLOAD PUSH1 0x3 SWAP2 SWAP1 SWAP2 SHL SHR PUSH1 0x1 PUSH1 0x1 PUSH1 0xA0 SHL SUB AND SWAP2 PUSH2 0x27DA JUMP JUMPDEST PUSH1 0xC SLOAD DUP1 ISZERO PUSH2 0x36A JUMPI PUSH1 0x0 NOT ADD PUSH2 0x2184 PUSH2 0x350 DUP3 PUSH1 0xC PUSH2 0x2861 JUMP JUMPDEST PUSH1 0xC SSTORE STOP JUMPDEST PUSH1 0x1F NOT DUP3 AND SWAP6 DUP4 PUSH1 0x0 MSTORE DUP1 PUSH1 0x0 KECCAK256 SWAP2 PUSH1 0x0 JUMPDEST DUP9 DUP2 LT PUSH2 0x21D6 JUMPI POP DUP4 PUSH1 0x1 SWAP6 SWAP7 SWAP8 SWAP9 LT PUSH2 0x21BD JUMPI JUMPDEST POP POP POP DUP2 SHL ADD SWAP1 SSTORE PUSH2 0x20D8 JUMP JUMPDEST ADD MLOAD PUSH1 0x0 NOT PUSH1 0xF8 DUP5 PUSH1 0x3 SHL AND SHR NOT AND SWAP1 SSTORE DUP6 DUP1 DUP1 PUSH2 0x21B0 JUMP JUMPDEST SWAP2 SWAP3 PUSH1 0x20 PUSH1 0x1 DUP2 SWAP3 DUP7 DUP6 ADD MLOAD DUP2 SSTORE ADD SWAP5 ADD SWAP3 ADD PUSH2 0x219B JUMP JUMPDEST PUSH1 0x40 MLOAD PUSH3 0x461BCD PUSH1 0xE5 SHL DUP2 MSTORE PUSH1 0x20 PUSH1 0x4 DUP3 ADD MSTORE PUSH1 0x17 PUSH1 0x24 DUP3 ADD MSTORE PUSH32 0x4E6F20766F746572206461746120617661696C61626C65000000000000000000 PUSH1 0x44 DUP3 ADD MSTORE PUSH1 0x64 SWAP1 REVERT JUMPDEST CALLVALUE PUSH2 0x475 JUMPI PUSH1 0x40 CALLDATASIZE PUSH1 0x3 NOT ADD SLT PUSH2 0x475 JUMPI PUSH1 0x4 CALLDATALOAD PUSH1 0x1 PUSH1 0x1 PUSH1 0x40 SHL SUB DUP2 GT PUSH2 0x475 JUMPI PUSH2 0x2263 SWAP1 CALLDATASIZE SWAP1 PUSH1 0x4 ADD PUSH2 0x2A8A JUMP JUMPDEST PUSH1 0x24 CALLDATALOAD PUSH1 0x1 PUSH1 0x1 PUSH1 0xA0 SHL SUB DUP2 AND SWAP1 DUP2 SWAP1 SUB PUSH2 0x475 JUMPI PUSH1 0x9 SLOAD SWAP1 PUSH1 0x20 DUP4 ADD SWAP1 PUSH1 0x0 DUP1 JUMPDEST DUP5 DUP2 LT PUSH2 0x23A4 JUMPI POP PUSH2 0x2296 SWAP1 PUSH2 0x2C5E JUMP JUMPDEST SWAP4 PUSH1 0x0 SWAP2 PUSH1 0x0 JUMPDEST DUP6 DUP2 LT PUSH2 0x22B2 JUMPI PUSH1 0x40 MLOAD DUP1 PUSH2 0x5CF DUP10 DUP3 PUSH2 0x292C JUMP JUMPDEST PUSH2 0x22BB DUP2 PUSH2 0x278E JUMP JUMPDEST PUSH1 0x1 DUP1 PUSH1 0xA0 SHL SUB SWAP2 SLOAD SWAP1 PUSH1 0x3 SHL SHR AND PUSH1 0x0 MSTORE PUSH1 0x8 PUSH1 0x20 MSTORE PUSH1 0x40 PUSH1 0x0 KECCAK256 PUSH1 0x40 MLOAD SWAP1 PUSH2 0x22E4 DUP3 PUSH2 0x2A4E JUMP JUMPDEST DUP1 SLOAD DUP3 MSTORE PUSH1 0x1 DUP2 ADD SLOAD PUSH1 0x20 DUP4 ADD MSTORE PUSH1 0x2 DUP2 ADD SLOAD PUSH1 0x1 PUSH1 0x1 PUSH1 0xA0 SHL SUB DUP2 AND PUSH1 0x40 DUP5 ADD SWAP1 DUP2 MSTORE SWAP2 DUP6 SWAP2 PUSH2 0x231E SWAP1 PUSH1 0xA0 SHR PUSH1 0xFF AND PUSH1 0x60 DUP7 ADD PUSH2 0x2CC2 JUMP JUMPDEST PUSH2 0x233D PUSH1 0x4 PUSH2 0x232F PUSH1 0x3 DUP5 ADD PUSH2 0x2B6F JUMP JUMPDEST SWAP3 PUSH1 0x80 DUP8 ADD SWAP4 DUP5 MSTORE ADD PUSH2 0x2B6F JUMP JUMPDEST PUSH1 0xA0 DUP6 ADD MSTORE MLOAD PUSH1 0x20 DUP2 MLOAD SWAP2 ADD KECCAK256 DUP7 MLOAD DUP10 KECCAK256 EQ SWAP2 DUP3 PUSH2 0x2390 JUMPI JUMPDEST POP POP PUSH2 0x2366 JUMPI JUMPDEST POP PUSH1 0x1 ADD PUSH2 0x229D JUMP JUMPDEST DUP5 PUSH2 0x2389 SWAP2 PUSH2 0x2378 PUSH1 0x1 SWAP5 SWAP8 DUP12 PUSH2 0x2CAE JUMP JUMPDEST MSTORE PUSH2 0x2383 DUP2 DUP11 PUSH2 0x2CAE JUMP JUMPDEST POP PUSH2 0x2D51 JUMP JUMPDEST SWAP4 SWAP1 PUSH2 0x235D JUMP JUMPDEST MLOAD PUSH1 0x1 PUSH1 0x1 PUSH1 0xA0 SHL SUB AND EQ SWAP1 POP DUP4 DUP11 PUSH2 0x2356 JUMP JUMPDEST PUSH2 0x23AD DUP2 PUSH2 0x278E JUMP JUMPDEST PUSH1 0x1 DUP1 PUSH1 0xA0 SHL SUB SWAP2 SLOAD SWAP1 PUSH1 0x3 SHL SHR AND PUSH1 0x0 MSTORE PUSH1 0x8 PUSH1 0x20 MSTORE PUSH1 0x40 PUSH1 0x0 KECCAK256 DUP4 PUSH1 0x40 MLOAD SWAP2 PUSH2 0x23D7 DUP4 PUSH2 0x2A4E JUMP JUMPDEST DUP1 SLOAD DUP4 MSTORE PUSH1 0x1 DUP2 ADD SLOAD PUSH1 0x20 DUP5 ADD MSTORE PUSH1 0x2 DUP2 ADD SLOAD PUSH1 0x1 PUSH1 0x1 PUSH1 0xA0 SHL SUB DUP2 AND PUSH1 0x40 DUP6 ADD SWAP1 DUP2 MSTORE SWAP4 SWAP1 PUSH2 0x2410 SWAP1 PUSH1 0xA0 SHR PUSH1 0xFF AND PUSH1 0x60 DUP4 ADD PUSH2 0x2CC2 JUMP JUMPDEST PUSH1 0xA0 PUSH2 0x2431 PUSH1 0x4 PUSH2 0x2423 PUSH1 0x3 DUP7 ADD PUSH2 0x2B6F JUMP JUMPDEST SWAP5 PUSH1 0x80 DUP6 ADD SWAP6 DUP7 MSTORE ADD PUSH2 0x2B6F JUMP JUMPDEST SWAP2 ADD MSTORE MLOAD PUSH1 0x20 DUP2 MLOAD SWAP2 ADD KECCAK256 DUP9 MLOAD DUP8 KECCAK256 EQ SWAP2 DUP3 PUSH2 0x246B JUMPI JUMPDEST POP POP PUSH2 0x2457 JUMPI JUMPDEST PUSH1 0x1 ADD PUSH2 0x2285 JUMP JUMPDEST SWAP1 PUSH2 0x2463 PUSH1 0x1 SWAP2 PUSH2 0x2D51 JUMP JUMPDEST SWAP2 SWAP1 POP PUSH2 0x244F JUMP JUMPDEST MLOAD PUSH1 0x1 PUSH1 0x1 PUSH1 0xA0 SHL SUB AND EQ SWAP1 POP DUP4 DUP9 PUSH2 0x2448 JUMP JUMPDEST CALLVALUE PUSH2 0x475 JUMPI PUSH1 0x0 CALLDATASIZE PUSH1 0x3 NOT ADD SLT PUSH2 0x475 JUMPI PUSH1 0xB SLOAD PUSH2 0x249C DUP2 PUSH2 0x2C5E JUMP JUMPDEST SWAP1 PUSH1 0x0 JUMPDEST DUP2 DUP2 LT PUSH2 0x24B5 JUMPI PUSH1 0x40 MLOAD DUP1 PUSH2 0x5CF DUP6 DUP3 PUSH2 0x292C JUMP JUMPDEST DUP1 PUSH2 0x24C1 PUSH1 0x1 SWAP3 PUSH2 0x2810 JUMP JUMPDEST DUP4 DUP1 PUSH1 0xA0 SHL SUB SWAP2 SLOAD SWAP1 PUSH1 0x3 SHL SHR AND PUSH1 0x0 MSTORE PUSH1 0x8 PUSH1 0x20 MSTORE PUSH1 0x40 PUSH1 0x0 KECCAK256 PUSH2 0x2536 PUSH1 0x4 PUSH1 0x40 MLOAD SWAP3 PUSH2 0x24EE DUP5 PUSH2 0x2A4E JUMP JUMPDEST DUP1 SLOAD DUP5 MSTORE DUP6 DUP2 ADD SLOAD PUSH1 0x20 DUP6 ADD MSTORE PUSH2 0x251F PUSH1 0xFF PUSH1 0x2 DUP4 ADD SLOAD DUP9 DUP1 PUSH1 0xA0 SHL SUB DUP2 AND PUSH1 0x40 DUP9 ADD MSTORE PUSH1 0xA0 SHR AND PUSH1 0x60 DUP7 ADD PUSH2 0x2CC2 JUMP JUMPDEST PUSH2 0x252B PUSH1 0x3 DUP3 ADD PUSH2 0x2B6F JUMP JUMPDEST PUSH1 0x80 DUP6 ADD MSTORE ADD PUSH2 0x2B6F JUMP JUMPDEST PUSH1 0xA0 DUP3 ADD MSTORE PUSH2 0x2545 DUP3 DUP7 PUSH2 0x2CAE JUMP JUMPDEST MSTORE PUSH2 0x2550 DUP2 DUP6 PUSH2 0x2CAE JUMP JUMPDEST POP ADD PUSH2 0x24A0 JUMP JUMPDEST CALLVALUE PUSH2 0x475 JUMPI PUSH1 0x20 CALLDATASIZE PUSH1 0x3 NOT ADD SLT PUSH2 0x475 JUMPI PUSH1 0x4 CALLDATALOAD PUSH1 0xE SLOAD DUP2 LT ISZERO PUSH2 0x475 JUMPI PUSH2 0xF1B PUSH1 0x20 SWAP2 PUSH2 0x27F5 JUMP JUMPDEST CALLVALUE PUSH2 0x475 JUMPI PUSH1 0x0 CALLDATASIZE PUSH1 0x3 NOT ADD SLT PUSH2 0x475 JUMPI PUSH1 0xC SLOAD PUSH2 0x259D DUP2 PUSH2 0x2D01 JUMP JUMPDEST SWAP1 PUSH1 0x0 JUMPDEST DUP2 DUP2 LT PUSH2 0x25B6 JUMPI PUSH1 0x40 MLOAD DUP1 PUSH2 0x5CF DUP6 DUP3 PUSH2 0x29EE JUMP JUMPDEST DUP1 PUSH2 0x25C2 PUSH1 0x1 SWAP3 PUSH2 0x27DA JUMP JUMPDEST DUP4 DUP1 PUSH1 0xA0 SHL SUB SWAP2 SLOAD SWAP1 PUSH1 0x3 SHL SHR AND PUSH1 0x0 MSTORE PUSH1 0x7 PUSH1 0x20 MSTORE PUSH1 0x40 PUSH1 0x0 KECCAK256 PUSH2 0x25F1 PUSH1 0xFF PUSH1 0x4 PUSH1 0x40 MLOAD SWAP4 PUSH2 0xFA5 DUP6 PUSH2 0x2A4E JUMP JUMPDEST PUSH2 0x25FB DUP3 DUP7 PUSH2 0x2CAE JUMP JUMPDEST MSTORE PUSH2 0x2606 DUP2 DUP6 PUSH2 0x2CAE JUMP JUMPDEST POP ADD PUSH2 0x25A1 JUMP JUMPDEST CALLVALUE PUSH2 0x475 JUMPI PUSH1 0x0 CALLDATASIZE PUSH1 0x3 NOT ADD SLT PUSH2 0x475 JUMPI PUSH1 0x20 PUSH1 0x2 SLOAD PUSH1 0x40 MLOAD SWAP1 DUP2 MSTORE RETURN JUMPDEST CALLVALUE PUSH2 0x475 JUMPI PUSH1 0x0 CALLDATASIZE PUSH1 0x3 NOT ADD SLT PUSH2 0x475 JUMPI PUSH1 0x9 SLOAD PUSH2 0x2648 DUP2 PUSH2 0x2C5E JUMP JUMPDEST SWAP1 PUSH1 0x0 JUMPDEST DUP2 DUP2 LT PUSH2 0x2661 JUMPI PUSH1 0x40 MLOAD DUP1 PUSH2 0x5CF DUP6 DUP3 PUSH2 0x292C JUMP JUMPDEST DUP1 PUSH2 0x266D PUSH1 0x1 SWAP3 PUSH2 0x278E JUMP JUMPDEST DUP4 DUP1 PUSH1 0xA0 SHL SUB SWAP2 SLOAD SWAP1 PUSH1 0x3 SHL SHR AND PUSH1 0x0 MSTORE PUSH1 0x8 PUSH1 0x20 MSTORE PUSH1 0x40 PUSH1 0x0 KECCAK256 PUSH2 0x269A PUSH1 0x4 PUSH1 0x40 MLOAD SWAP3 PUSH2 0x24EE DUP5 PUSH2 0x2A4E JUMP JUMPDEST PUSH1 0xA0 DUP3 ADD MSTORE PUSH2 0x26A9 DUP3 DUP7 PUSH2 0x2CAE JUMP JUMPDEST MSTORE PUSH2 0x26B4 DUP2 DUP6 PUSH2 0x2CAE JUMP JUMPDEST POP ADD PUSH2 0x264C JUMP JUMPDEST CALLVALUE PUSH2 0x475 JUMPI PUSH1 0x0 CALLDATASIZE PUSH1 0x3 NOT ADD SLT PUSH2 0x475 JUMPI PUSH1 0x20 PUSH1 0x3 SLOAD PUSH1 0x40 MLOAD SWAP1 DUP2 MSTORE RETURN JUMPDEST CALLVALUE PUSH2 0x475 JUMPI PUSH1 0x0 CALLDATASIZE PUSH1 0x3 NOT ADD SLT PUSH2 0x475 JUMPI PUSH1 0xD SLOAD PUSH2 0x26F6 DUP2 PUSH2 0x2C5E JUMP JUMPDEST SWAP1 PUSH1 0x0 JUMPDEST DUP2 DUP2 LT PUSH2 0x270F JUMPI PUSH1 0x40 MLOAD DUP1 PUSH2 0x5CF DUP6 DUP3 PUSH2 0x292C JUMP JUMPDEST DUP1 PUSH2 0x271B PUSH1 0x1 SWAP3 PUSH2 0x27BF JUMP JUMPDEST DUP4 DUP1 PUSH1 0xA0 SHL SUB SWAP2 SLOAD SWAP1 PUSH1 0x3 SHL SHR AND PUSH1 0x0 MSTORE PUSH1 0x8 PUSH1 0x20 MSTORE PUSH1 0x40 PUSH1 0x0 KECCAK256 PUSH2 0x2748 PUSH1 0x4 PUSH1 0x40 MLOAD SWAP3 PUSH2 0x24EE DUP5 PUSH2 0x2A4E JUMP JUMPDEST PUSH1 0xA0 DUP3 ADD MSTORE PUSH2 0x2757 DUP3 DUP7 PUSH2 0x2CAE JUMP JUMPDEST MSTORE PUSH2 0x2762 DUP2 DUP6 PUSH2 0x2CAE JUMP JUMPDEST POP ADD PUSH2 0x26FA JUMP JUMPDEST CALLVALUE PUSH2 0x475 JUMPI PUSH1 0x20 CALLDATASIZE PUSH1 0x3 NOT ADD SLT PUSH2 0x475 JUMPI PUSH1 0x4 CALLDATALOAD PUSH1 0x9 SLOAD DUP2 LT ISZERO PUSH2 0x475 JUMPI PUSH2 0xF1B PUSH1 0x20 SWAP2 JUMPDEST PUSH1 0x9 SLOAD DUP2 LT ISZERO PUSH2 0x27A9 JUMPI PUSH1 0x9 PUSH1 0x0 MSTORE PUSH1 0x20 PUSH1 0x0 KECCAK256 ADD SWAP1 PUSH1 0x0 SWAP1 JUMP JUMPDEST PUSH4 0x4E487B71 PUSH1 0xE0 SHL PUSH1 0x0 MSTORE PUSH1 0x32 PUSH1 0x4 MSTORE PUSH1 0x24 PUSH1 0x0 REVERT JUMPDEST PUSH1 0xD SLOAD DUP2 LT ISZERO PUSH2 0x27A9 JUMPI PUSH1 0xD PUSH1 0x0 MSTORE PUSH1 0x20 PUSH1 0x0 KECCAK256 ADD SWAP1 PUSH1 0x0 SWAP1 JUMP JUMPDEST PUSH1 0xC SLOAD DUP2 LT ISZERO PUSH2 0x27A9 JUMPI PUSH1 0xC PUSH1 0x0 MSTORE PUSH1 0x20 PUSH1 0x0 KECCAK256 ADD SWAP1 PUSH1 0x0 SWAP1 JUMP JUMPDEST PUSH1 0xE SLOAD DUP2 LT ISZERO PUSH2 0x27A9 JUMPI PUSH1 0xE PUSH1 0x0 MSTORE PUSH1 0x20 PUSH1 0x0 KECCAK256 ADD SWAP1 PUSH1 0x0 SWAP1 JUMP JUMPDEST PUSH1 0xB SLOAD DUP2 LT ISZERO PUSH2 0x27A9 JUMPI PUSH1 0xB PUSH1 0x0 MSTORE PUSH1 0x20 PUSH1 0x0 KECCAK256 ADD SWAP1 PUSH1 0x0 SWAP1 JUMP JUMPDEST PUSH1 0xF SLOAD DUP2 LT ISZERO PUSH2 0x27A9 JUMPI PUSH1 0xF PUSH1 0x0 MSTORE PUSH1 0x20 PUSH1 0x0 KECCAK256 ADD SWAP1 PUSH1 0x0 SWAP1 JUMP JUMPDEST PUSH1 0xA SLOAD DUP2 LT ISZERO PUSH2 0x27A9 JUMPI PUSH1 0xA PUSH1 0x0 MSTORE PUSH1 0x20 PUSH1 0x0 KECCAK256 ADD SWAP1 PUSH1 0x0 SWAP1 JUMP JUMPDEST DUP1 SLOAD DUP3 LT ISZERO PUSH2 0x27A9 JUMPI PUSH1 0x0 MSTORE PUSH1 0x20 PUSH1 0x0 KECCAK256 ADD SWAP1 PUSH1 0x0 SWAP1 JUMP JUMPDEST SWAP1 PUSH1 0x3 DUP3 LT ISZERO PUSH2 0xEDC JUMPI MSTORE JUMP JUMPDEST SWAP2 SWAP1 DUP3 MLOAD SWAP3 DUP4 DUP3 MSTORE PUSH1 0x0 JUMPDEST DUP5 DUP2 LT PUSH2 0x28B2 JUMPI POP POP DUP3 PUSH1 0x0 PUSH1 0x20 DUP1 SWAP5 SWAP6 DUP5 ADD ADD MSTORE PUSH1 0x1F DUP1 NOT SWAP2 ADD AND ADD ADD SWAP1 JUMP JUMPDEST DUP1 PUSH1 0x20 DUP1 SWAP3 DUP5 ADD ADD MLOAD DUP3 DUP3 DUP7 ADD ADD MSTORE ADD PUSH2 0x2891 JUMP JUMPDEST PUSH2 0x2929 SWAP2 DUP2 MLOAD DUP2 MSTORE PUSH1 0x20 DUP3 ADD MLOAD PUSH1 0x20 DUP3 ADD MSTORE PUSH1 0x1 DUP1 PUSH1 0xA0 SHL SUB PUSH1 0x40 DUP4 ADD MLOAD AND PUSH1 0x40 DUP3 ADD MSTORE PUSH2 0x28FD PUSH1 0x60 DUP4 ADD MLOAD PUSH1 0x60 DUP4 ADD SWAP1 PUSH2 0x2879 JUMP JUMPDEST PUSH1 0xA0 PUSH2 0x2918 PUSH1 0x80 DUP5 ADD MLOAD PUSH1 0xC0 PUSH1 0x80 DUP6 ADD MSTORE PUSH1 0xC0 DUP5 ADD SWAP1 PUSH2 0x2886 JUMP JUMPDEST SWAP3 ADD MLOAD SWAP1 PUSH1 0xA0 DUP2 DUP5 SUB SWAP2 ADD MSTORE PUSH2 0x2886 JUMP JUMPDEST SWAP1 JUMP JUMPDEST PUSH1 0x20 DUP2 ADD PUSH1 0x20 DUP3 MSTORE DUP3 MLOAD DUP1 SWAP2 MSTORE PUSH1 0x40 DUP3 ADD SWAP2 PUSH1 0x20 PUSH1 0x40 DUP4 PUSH1 0x5 SHL DUP4 ADD ADD SWAP5 ADD SWAP3 PUSH1 0x0 SWAP2 JUMPDEST DUP4 DUP4 LT PUSH2 0x295F JUMPI POP POP POP POP POP SWAP1 JUMP JUMPDEST SWAP1 SWAP2 SWAP3 SWAP4 SWAP5 PUSH1 0x20 DUP1 PUSH2 0x297D PUSH1 0x1 SWAP4 PUSH1 0x3F NOT DUP7 DUP3 SUB ADD DUP8 MSTORE DUP10 MLOAD PUSH2 0x28C7 JUMP JUMPDEST SWAP8 ADD SWAP4 ADD SWAP4 ADD SWAP2 SWAP4 SWAP3 SWAP1 PUSH2 0x2950 JUMP JUMPDEST SWAP1 PUSH2 0x2929 SWAP1 DUP3 MLOAD ISZERO ISZERO DUP2 MSTORE PUSH1 0xA0 DUP1 PUSH2 0x29C8 PUSH2 0x29B6 PUSH1 0x20 DUP8 ADD MLOAD PUSH1 0xC0 PUSH1 0x20 DUP8 ADD MSTORE PUSH1 0xC0 DUP7 ADD SWAP1 PUSH2 0x2886 JUMP JUMPDEST PUSH1 0x40 DUP8 ADD MLOAD DUP6 DUP3 SUB PUSH1 0x40 DUP8 ADD MSTORE PUSH2 0x2886 JUMP JUMPDEST SWAP5 PUSH1 0x60 DUP2 ADD MLOAD PUSH1 0x60 DUP6 ADD MSTORE PUSH1 0x1 DUP1 DUP4 SHL SUB PUSH1 0x80 DUP3 ADD MLOAD AND PUSH1 0x80 DUP6 ADD MSTORE ADD MLOAD SWAP2 ADD SWAP1 PUSH2 0x2879 JUMP JUMPDEST PUSH1 0x20 DUP2 ADD PUSH1 0x20 DUP3 MSTORE DUP3 MLOAD DUP1 SWAP2 MSTORE PUSH1 0x40 DUP3 ADD SWAP2 PUSH1 0x20 PUSH1 0x40 DUP4 PUSH1 0x5 SHL DUP4 ADD ADD SWAP5 ADD SWAP3 PUSH1 0x0 SWAP2 JUMPDEST DUP4 DUP4 LT PUSH2 0x2A21 JUMPI POP POP POP POP POP SWAP1 JUMP JUMPDEST SWAP1 SWAP2 SWAP3 SWAP4 SWAP5 PUSH1 0x20 DUP1 PUSH2 0x2A3F PUSH1 0x1 SWAP4 PUSH1 0x3F NOT DUP7 DUP3 SUB ADD DUP8 MSTORE DUP10 MLOAD PUSH2 0x298C JUMP JUMPDEST SWAP8 ADD SWAP4 ADD SWAP4 ADD SWAP2 SWAP4 SWAP3 SWAP1 PUSH2 0x2A12 JUMP JUMPDEST PUSH1 0xC0 DUP2 ADD SWAP1 DUP2 LT PUSH1 0x1 PUSH1 0x1 PUSH1 0x40 SHL SUB DUP3 GT OR PUSH2 0x398 JUMPI PUSH1 0x40 MSTORE JUMP JUMPDEST SWAP1 PUSH1 0x1F DUP1 NOT SWAP2 ADD AND DUP2 ADD SWAP1 DUP2 LT PUSH1 0x1 PUSH1 0x1 PUSH1 0x40 SHL SUB DUP3 GT OR PUSH2 0x398 JUMPI PUSH1 0x40 MSTORE JUMP JUMPDEST DUP2 PUSH1 0x1F DUP3 ADD SLT ISZERO PUSH2 0x475 JUMPI DUP1 CALLDATALOAD SWAP1 PUSH1 0x1 PUSH1 0x1 PUSH1 0x40 SHL SUB DUP3 GT PUSH2 0x398 JUMPI PUSH1 0x40 MLOAD SWAP3 PUSH2 0x2ABE PUSH1 0x1F DUP5 ADD PUSH1 0x1F NOT AND PUSH1 0x20 ADD DUP6 PUSH2 0x2A69 JUMP JUMPDEST DUP3 DUP5 MSTORE PUSH1 0x20 DUP4 DUP4 ADD ADD GT PUSH2 0x475 JUMPI DUP2 PUSH1 0x0 SWAP3 PUSH1 0x20 DUP1 SWAP4 ADD DUP4 DUP7 ADD CALLDATACOPY DUP4 ADD ADD MSTORE SWAP1 JUMP JUMPDEST PUSH1 0x4 CALLDATALOAD SWAP1 PUSH1 0x1 PUSH1 0x1 PUSH1 0xA0 SHL SUB DUP3 AND DUP3 SUB PUSH2 0x475 JUMPI JUMP JUMPDEST SWAP1 PUSH1 0x40 PUSH1 0x3 NOT DUP4 ADD SLT PUSH2 0x475 JUMPI PUSH1 0x4 CALLDATALOAD PUSH1 0x1 PUSH1 0x1 PUSH1 0xA0 SHL SUB DUP2 AND DUP2 SUB PUSH2 0x475 JUMPI SWAP2 PUSH1 0x24 CALLDATALOAD SWAP1 PUSH1 0x1 PUSH1 0x1 PUSH1 0x40 SHL SUB DUP3 GT PUSH2 0x475 JUMPI PUSH2 0x2929 SWAP2 PUSH1 0x4 ADD PUSH2 0x2A8A JUMP JUMPDEST SWAP1 PUSH1 0x1 DUP3 DUP2 SHR SWAP3 AND DUP1 ISZERO PUSH2 0x2B65 JUMPI JUMPDEST PUSH1 0x20 DUP4 LT EQ PUSH2 0x2B4F JUMPI JUMP JUMPDEST PUSH4 0x4E487B71 PUSH1 0xE0 SHL PUSH1 0x0 MSTORE PUSH1 0x22 PUSH1 0x4 MSTORE PUSH1 0x24 PUSH1 0x0 REVERT JUMPDEST SWAP2 PUSH1 0x7F AND SWAP2 PUSH2 0x2B44 JUMP JUMPDEST SWAP1 PUSH1 0x40 MLOAD SWAP2 DUP3 PUSH1 0x0 DUP3 SLOAD SWAP3 PUSH2 0x2B83 DUP5 PUSH2 0x2B35 JUMP JUMPDEST DUP1 DUP5 MSTORE SWAP4 PUSH1 0x1 DUP2 AND SWAP1 DUP2 ISZERO PUSH2 0x2BF1 JUMPI POP PUSH1 0x1 EQ PUSH2 0x2BAA JUMPI JUMPDEST POP PUSH2 0x2BA8 SWAP3 POP SUB DUP4 PUSH2 0x2A69 JUMP JUMPDEST JUMP JUMPDEST SWAP1 POP PUSH1 0x0 SWAP3 SWAP2 SWAP3 MSTORE PUSH1 0x20 PUSH1 0x0 KECCAK256 SWAP1 PUSH1 0x0 SWAP2 JUMPDEST DUP2 DUP4 LT PUSH2 0x2BD5 JUMPI POP POP SWAP1 PUSH1 0x20 PUSH2 0x2BA8 SWAP3 DUP3 ADD ADD CODESIZE PUSH2 0x2B9B JUMP JUMPDEST PUSH1 0x20 SWAP2 SWAP4 POP DUP1 PUSH1 0x1 SWAP2 SLOAD DUP4 DUP6 DUP10 ADD ADD MSTORE ADD SWAP2 ADD SWAP1 SWAP2 DUP5 SWAP3 PUSH2 0x2BBC JUMP JUMPDEST SWAP1 POP PUSH1 0x20 SWAP3 POP PUSH2 0x2BA8 SWAP5 SWAP2 POP PUSH1 0xFF NOT AND DUP3 DUP5 ADD MSTORE ISZERO ISZERO PUSH1 0x5 SHL DUP3 ADD ADD CODESIZE PUSH2 0x2B9B JUMP JUMPDEST PUSH1 0x1 PUSH1 0x1 PUSH1 0x40 SHL SUB DUP2 GT PUSH2 0x398 JUMPI PUSH1 0x5 SHL PUSH1 0x20 ADD SWAP1 JUMP JUMPDEST PUSH1 0x40 MLOAD SWAP1 PUSH2 0x2C37 DUP3 PUSH2 0x2A4E JUMP JUMPDEST PUSH1 0x60 PUSH1 0xA0 DUP4 PUSH1 0x0 DUP2 MSTORE PUSH1 0x0 PUSH1 0x20 DUP3 ADD MSTORE PUSH1 0x0 PUSH1 0x40 DUP3 ADD MSTORE PUSH1 0x0 DUP4 DUP3 ADD MSTORE DUP3 PUSH1 0x80 DUP3 ADD MSTORE ADD MSTORE JUMP JUMPDEST SWAP1 PUSH2 0x2C68 DUP3 PUSH2 0x2C13 JUMP JUMPDEST PUSH2 0x2C75 PUSH1 0x40 MLOAD SWAP2 DUP3 PUSH2 0x2A69 JUMP JUMPDEST DUP3 DUP2 MSTORE DUP1 SWAP3 PUSH2 0x2C86 PUSH1 0x1F NOT SWAP2 PUSH2 0x2C13 JUMP JUMPDEST ADD SWAP1 PUSH1 0x0 JUMPDEST DUP3 DUP2 LT PUSH2 0x2C97 JUMPI POP POP POP JUMP JUMPDEST PUSH1 0x20 SWAP1 PUSH2 0x2CA2 PUSH2 0x2C2A JUMP JUMPDEST DUP3 DUP3 DUP6 ADD ADD MSTORE ADD PUSH2 0x2C8B JUMP JUMPDEST DUP1 MLOAD DUP3 LT ISZERO PUSH2 0x27A9 JUMPI PUSH1 0x20 SWAP2 PUSH1 0x5 SHL ADD ADD SWAP1 JUMP JUMPDEST PUSH1 0x3 DUP3 LT ISZERO PUSH2 0xEDC JUMPI MSTORE JUMP JUMPDEST PUSH1 0x40 MLOAD SWAP1 PUSH2 0x2CDB DUP3 PUSH2 0x2A4E JUMP JUMPDEST PUSH1 0x0 PUSH1 0xA0 DUP4 DUP3 DUP2 MSTORE PUSH1 0x60 PUSH1 0x20 DUP3 ADD MSTORE PUSH1 0x60 PUSH1 0x40 DUP3 ADD MSTORE DUP3 PUSH1 0x60 DUP3 ADD MSTORE DUP3 PUSH1 0x80 DUP3 ADD MSTORE ADD MSTORE JUMP JUMPDEST SWAP1 PUSH2 0x2D0B DUP3 PUSH2 0x2C13 JUMP JUMPDEST PUSH2 0x2D18 PUSH1 0x40 MLOAD SWAP2 DUP3 PUSH2 0x2A69 JUMP JUMPDEST DUP3 DUP2 MSTORE DUP1 SWAP3 PUSH2 0x2D29 PUSH1 0x1F NOT SWAP2 PUSH2 0x2C13 JUMP JUMPDEST ADD SWAP1 PUSH1 0x0 JUMPDEST DUP3 DUP2 LT PUSH2 0x2D3A JUMPI POP POP POP JUMP JUMPDEST PUSH1 0x20 SWAP1 PUSH2 0x2D45 PUSH2 0x2CCE JUMP JUMPDEST DUP3 DUP3 DUP6 ADD ADD MSTORE ADD PUSH2 0x2D2E JUMP JUMPDEST PUSH1 0x0 NOT DUP2 EQ PUSH2 0x380 JUMPI PUSH1 0x1 ADD SWAP1 JUMP JUMPDEST ISZERO PUSH2 0x2D67 JUMPI JUMP JUMPDEST PUSH1 0x40 MLOAD PUSH3 0x461BCD PUSH1 0xE5 SHL DUP2 MSTORE PUSH1 0x20 PUSH1 0x4 DUP3 ADD MSTORE PUSH1 0xA PUSH1 0x24 DUP3 ADD MSTORE PUSH10 0x27B7363C9037BBB732B9 PUSH1 0xB1 SHL PUSH1 0x44 DUP3 ADD MSTORE PUSH1 0x64 SWAP1 REVERT JUMPDEST SWAP1 PUSH1 0x3 DUP2 LT ISZERO PUSH2 0xEDC JUMPI DUP2 SLOAD PUSH1 0xFF PUSH1 0xA0 SHL NOT AND PUSH1 0xA0 SWAP2 SWAP1 SWAP2 SHL PUSH1 0xFF PUSH1 0xA0 SHL AND OR SWAP1 SSTORE JUMP JUMPDEST DUP2 DUP2 LT PUSH2 0x2DC8 JUMPI POP POP JUMP JUMPDEST PUSH1 0x0 DUP2 SSTORE PUSH1 0x1 ADD PUSH2 0x2DBD JUMP JUMPDEST SWAP2 SWAP1 PUSH1 0x1F DUP2 GT PUSH2 0x2DE3 JUMPI POP POP POP JUMP JUMPDEST PUSH2 0x2BA8 SWAP3 PUSH1 0x0 MSTORE PUSH1 0x20 PUSH1 0x0 KECCAK256 SWAP1 PUSH1 0x20 PUSH1 0x1F DUP5 ADD PUSH1 0x5 SHR DUP4 ADD SWAP4 LT PUSH2 0x2E0F JUMPI JUMPDEST PUSH1 0x1F ADD PUSH1 0x5 SHR ADD SWAP1 PUSH2 0x2DBD JUMP JUMPDEST SWAP1 SWAP2 POP DUP2 SWAP1 PUSH2 0x2E02 JUMP JUMPDEST PUSH1 0x40 MLOAD SWAP1 PUSH2 0x2E28 PUSH1 0x60 DUP4 PUSH2 0x2A69 JUMP JUMPDEST PUSH1 0x21 DUP3 MSTORE PUSH1 0x1B PUSH1 0xFA SHL PUSH1 0x40 DUP4 PUSH32 0x526567697374726174696F6E206973206177616974696E6720617070726F7661 PUSH1 0x20 DUP3 ADD MSTORE ADD MSTORE JUMP JUMPDEST ISZERO PUSH2 0x2E65 JUMPI JUMP JUMPDEST PUSH1 0x40 MLOAD PUSH3 0x461BCD PUSH1 0xE5 SHL DUP2 MSTORE PUSH1 0x20 PUSH1 0x4 DUP3 ADD MSTORE PUSH1 0x21 PUSH1 0x24 DUP3 ADD MSTORE PUSH32 0x43616E6E6F74206D6F6469667920616674657220766F74696E67207374617274 PUSH1 0x44 DUP3 ADD MSTORE PUSH1 0x73 PUSH1 0xF8 SHL PUSH1 0x64 DUP3 ADD MSTORE PUSH1 0x84 SWAP1 REVERT JUMPDEST PUSH2 0x2EBE DUP2 SLOAD PUSH2 0x2B35 JUMP JUMPDEST SWAP1 DUP2 PUSH2 0x2EC8 JUMPI POP POP JUMP JUMPDEST DUP2 PUSH1 0x1F PUSH1 0x0 SWAP4 GT PUSH1 0x1 EQ PUSH2 0x2EDA JUMPI POP SSTORE JUMP JUMPDEST DUP2 DUP4 MSTORE PUSH1 0x20 DUP4 KECCAK256 PUSH2 0x2EF6 SWAP2 PUSH1 0x1F ADD PUSH1 0x5 SHR DUP2 ADD SWAP1 PUSH1 0x1 ADD PUSH2 0x2DBD JUMP JUMPDEST DUP1 DUP3 MSTORE DUP2 PUSH1 0x20 DUP2 KECCAK256 SWAP2 SSTORE SSTORE JUMP JUMPDEST PUSH2 0x2F0B PUSH2 0x2C2A JUMP JUMPDEST POP PUSH2 0x2F14 PUSH2 0x2C2A JUMP JUMPDEST PUSH1 0xB SLOAD PUSH1 0x0 DUP1 JUMPDEST DUP3 DUP2 LT PUSH2 0x2F28 JUMPI POP POP POP SWAP1 JUMP JUMPDEST PUSH2 0x2F31 DUP2 PUSH2 0x2810 JUMP JUMPDEST PUSH1 0x1 DUP1 PUSH1 0xA0 SHL SUB SWAP2 SLOAD SWAP1 PUSH1 0x3 SHL SHR AND PUSH1 0x0 MSTORE PUSH1 0x8 PUSH1 0x20 MSTORE PUSH1 0x40 PUSH1 0x0 KECCAK256 PUSH1 0x40 MLOAD SWAP1 PUSH2 0x2F5A DUP3 PUSH2 0x2A4E JUMP JUMPDEST DUP1 SLOAD DUP3 MSTORE PUSH2 0x2FAC PUSH1 0x4 PUSH1 0x1 DUP4 ADD SLOAD SWAP3 PUSH1 0x20 DUP6 ADD SWAP4 DUP5 MSTORE PUSH2 0x2F95 PUSH1 0xFF PUSH1 0x2 DUP4 ADD SLOAD PUSH1 0x1 DUP1 PUSH1 0xA0 SHL SUB DUP2 AND PUSH1 0x40 DUP10 ADD MSTORE PUSH1 0xA0 SHR AND PUSH1 0x60 DUP8 ADD PUSH2 0x2CC2 JUMP JUMPDEST PUSH2 0x2FA1 PUSH1 0x3 DUP3 ADD PUSH2 0x2B6F JUMP JUMPDEST PUSH1 0x80 DUP7 ADD MSTORE ADD PUSH2 0x2B6F JUMP JUMPDEST PUSH1 0xA0 DUP4 ADD MSTORE MLOAD DUP4 DUP2 GT PUSH2 0x2FC4 JUMPI JUMPDEST POP POP PUSH1 0x1 ADD PUSH2 0x2F1B JUMP JUMPDEST SWAP1 SWAP5 POP SWAP2 POP PUSH1 0x1 CODESIZE PUSH2 0x2FBA JUMP JUMPDEST PUSH2 0x2FD9 PUSH2 0x2C2A JUMP JUMPDEST POP PUSH1 0xB SLOAD ISZERO PUSH2 0x306F JUMPI PUSH1 0x3 SLOAD TIMESTAMP LT PUSH2 0x2FF3 JUMPI PUSH2 0x2929 PUSH2 0x2F03 JUMP JUMPDEST PUSH1 0x40 MLOAD PUSH2 0x2FFF DUP2 PUSH2 0x2A4E JUMP JUMPDEST PUSH1 0x0 DUP2 MSTORE PUSH1 0x0 PUSH1 0x20 DUP3 ADD MSTORE PUSH1 0x0 PUSH1 0x40 DUP3 ADD MSTORE PUSH1 0x0 PUSH1 0x60 DUP3 ADD MSTORE PUSH1 0x40 MLOAD PUSH2 0x3026 PUSH1 0x20 DUP3 PUSH2 0x2A69 JUMP JUMPDEST PUSH1 0x0 DUP2 MSTORE PUSH1 0x80 DUP3 ADD MSTORE PUSH1 0x40 MLOAD PUSH2 0x303D PUSH1 0x40 DUP3 PUSH2 0x2A69 JUMP JUMPDEST PUSH1 0x1F DUP2 MSTORE PUSH32 0x506C65617365207761697420756E74696C20656C656374696F6E20656E647300 PUSH1 0x20 DUP3 ADD MSTORE PUSH1 0xA0 DUP3 ADD MSTORE SWAP1 JUMP JUMPDEST PUSH1 0x40 MLOAD PUSH3 0x461BCD PUSH1 0xE5 SHL DUP2 MSTORE PUSH1 0x20 PUSH1 0x4 DUP3 ADD MSTORE PUSH1 0x24 DUP1 DUP3 ADD MSTORE PUSH32 0x4E6F2043616E6469646174657320616363657074656420666F7220656C656374 PUSH1 0x44 DUP3 ADD MSTORE PUSH4 0x34B7B717 PUSH1 0xE1 SHL PUSH1 0x64 DUP3 ADD MSTORE PUSH1 0x84 SWAP1 REVERT INVALID LOG2 PUSH5 0x6970667358 0x22 SLT KECCAK256 0xDA 0xA7 EXTCODESIZE POP CHAINID NOT CALLVALUE 0xAA DUP6 0xC5 0xE8 PUSH15 0x4B1AD359067F81055CD9D400201218 0xE4 BASEFEE 0xB6 0xA7 JUMP PUSH5 0x736F6C6343 STOP ADDMOD SHR STOP CALLER "},"methodIdentifiers":{"CurrentVotingStatus()":"bab912a2","ListofAcceptedCandidates()":"3cfde26c","ListofAcceptedVoters()":"23a2b2ed","ListofRegisteredCandidates()":"1ee9367c","ListofRegisteredVoters()":"60fc4e32","ListofRejectedCandidates()":"073f966d","ListofRejectedVoters()":"964a43b9","acceptedCandidates(uint256)":"9e7a8145","acceptedVoters(uint256)":"53dd128c","approveCandidate(address,string)":"7eb21b51","approveVoter(address,string)":"fad761d3","candidates(address)":"8ab66a90","candidatesRegistered(uint256)":"0366ac37","changeOwner(address)":"a6f9dae1","electionName()":"85e8e7a7","getAllVotersWhoCasted()":"8987cb32","owner()":"8da5cb5b","registerCandidate(string)":"9eb88db6","registerVoter(string)":"6428a486","rejectCandidate(address,string)":"59632c22","rejectVoter(address,string)":"4a2846a8","rejectedCandidates(uint256)":"5e894b12","rejectedVoters(uint256)":"3afa3e07","resetContract()":"b181a8fc","resultPublicationTime()":"ac94ba4c","searchCandidate(string,address)":"429b0b22","searchVoter(address)":"b381a935","setResultPublicationTime(uint256)":"5b45cfca","startendVoting(uint256,uint256)":"f33698f1","updateCandidate(string)":"79432db5","updateVoter(string)":"82ff2aeb","vote(address)":"6dd7d8ea","voters(address)":"a3ec138d","votersRegistered(uint256)":"849c5657","votersWhoCasted(uint256)":"5f1bc34e","votingEndTime()":"1ea736e0","votingStartTime()":"2019a608","winningCandidate()":"d28178d7"}}}}}