{"contracts/VotingSystem.sol":{"VotingSystem":{"abi":[{"inputs":[{"internalType":"string","name":"_name","type":"string"}],"stateMutability":"nonpayable","type":"constructor"},{"inputs":[],"name":"CurrentVotingStatus","outputs":[{"components":[{"internalType":"string","name":"name","type":"string"},{"internalType":"string","name":"message","type":"string"},{"internalType":"uint256","name":"age","type":"uint256"},{"internalType":"string","name":"email","type":"string"},{"internalType":"string","name":"phone","type":"string"},{"internalType":"uint256","name":"registeredId","type":"uint256"},{"internalType":"uint256","name":"voteCalculation","type":"uint256"},{"internalType":"address","name":"candidatesAddress","type":"address"},{"internalType":"enum VotingSystem.ConfirmationStatus","name":"status","type":"uint8"}],"internalType":"struct VotingSystem.Candidate","name":"","type":"tuple"}],"stateMutability":"view","type":"function"},{"inputs":[],"name":"ListofAcceptedCandidates","outputs":[{"components":[{"internalType":"string","name":"name","type":"string"},{"internalType":"string","name":"message","type":"string"},{"internalType":"uint256","name":"age","type":"uint256"},{"internalType":"string","name":"email","type":"string"},{"internalType":"string","name":"phone","type":"string"},{"internalType":"uint256","name":"registeredId","type":"uint256"},{"internalType":"uint256","name":"voteCalculation","type":"uint256"},{"internalType":"address","name":"candidatesAddress","type":"address"},{"internalType":"enum VotingSystem.ConfirmationStatus","name":"status","type":"uint8"}],"internalType":"struct VotingSystem.Candidate[]","name":"","type":"tuple[]"}],"stateMutability":"view","type":"function"},{"inputs":[],"name":"ListofAcceptedVoters","outputs":[{"components":[{"internalType":"bool","name":"alreadyVoted","type":"bool"},{"internalType":"string","name":"name","type":"string"},{"internalType":"uint256","name":"age","type":"uint256"},{"internalType":"string","name":"email","type":"string"},{"internalType":"string","name":"phone","type":"string"},{"internalType":"string","name":"message","type":"string"},{"internalType":"uint256","name":"registeredId","type":"uint256"},{"internalType":"address","name":"votersAddress","type":"address"},{"internalType":"enum VotingSystem.ConfirmationStatus","name":"status","type":"uint8"}],"internalType":"struct VotingSystem.Voter[]","name":"","type":"tuple[]"}],"stateMutability":"view","type":"function"},{"inputs":[],"name":"ListofRegisteredCandidates","outputs":[{"components":[{"internalType":"string","name":"name","type":"string"},{"internalType":"string","name":"message","type":"string"},{"internalType":"uint256","name":"age","type":"uint256"},{"internalType":"string","name":"email","type":"string"},{"internalType":"string","name":"phone","type":"string"},{"internalType":"uint256","name":"registeredId","type":"uint256"},{"internalType":"uint256","name":"voteCalculation","type":"uint256"},{"internalType":"address","name":"candidatesAddress","type":"address"},{"internalType":"enum VotingSystem.ConfirmationStatus","name":"status","type":"uint8"}],"internalType":"struct VotingSystem.Candidate[]","name":"","type":"tuple[]"}],"stateMutability":"view","type":"function"},{"inputs":[],"name":"ListofRegisteredVoters","outputs":[{"components":[{"internalType":"bool","name":"alreadyVoted","type":"bool"},{"internalType":"string","name":"name","type":"string"},{"internalType":"uint256","name":"age","type":"uint256"},{"internalType":"string","name":"email","type":"string"},{"internalType":"string","name":"phone","type":"string"},{"internalType":"string","name":"message","type":"string"},{"internalType":"uint256","name":"registeredId","type":"uint256"},{"internalType":"address","name":"votersAddress","type":"address"},{"internalType":"enum VotingSystem.ConfirmationStatus","name":"status","type":"uint8"}],"internalType":"struct VotingSystem.Voter[]","name":"","type":"tuple[]"}],"stateMutability":"view","type":"function"},{"inputs":[{"internalType":"uint256","name":"","type":"uint256"}],"name":"acceptedCandidates","outputs":[{"internalType":"address","name":"","type":"address"}],"stateMutability":"view","type":"function"},{"inputs":[{"internalType":"uint256","name":"","type":"uint256"}],"name":"acceptedVoters","outputs":[{"internalType":"address","name":"","type":"address"}],"stateMutability":"view","type":"function"},{"inputs":[{"internalType":"address","name":"_candidatesAddress","type":"address"},{"internalType":"string","name":"_message","type":"string"}],"name":"approveCandidate","outputs":[],"stateMutability":"nonpayable","type":"function"},{"inputs":[{"internalType":"address","name":"_votersAddress","type":"address"},{"internalType":"string","name":"_message","type":"string"}],"name":"approveVoter","outputs":[],"stateMutability":"nonpayable","type":"function"},{"inputs":[{"internalType":"address","name":"","type":"address"}],"name":"candidates","outputs":[{"internalType":"string","name":"name","type":"string"},{"internalType":"string","name":"message","type":"string"},{"internalType":"uint256","name":"age","type":"uint256"},{"internalType":"string","name":"email","type":"string"},{"internalType":"string","name":"phone","type":"string"},{"internalType":"uint256","name":"registeredId","type":"uint256"},{"internalType":"uint256","name":"voteCalculation","type":"uint256"},{"internalType":"address","name":"candidatesAddress","type":"address"},{"internalType":"enum VotingSystem.ConfirmationStatus","name":"status","type":"uint8"}],"stateMutability":"view","type":"function"},{"inputs":[{"internalType":"uint256","name":"","type":"uint256"}],"name":"candidatesRegistered","outputs":[{"internalType":"address","name":"","type":"address"}],"stateMutability":"view","type":"function"},{"inputs":[],"name":"electionName","outputs":[{"internalType":"string","name":"","type":"string"}],"stateMutability":"view","type":"function"},{"inputs":[{"internalType":"address","name":"_candidatesAddress","type":"address"}],"name":"findCandidate","outputs":[{"components":[{"internalType":"string","name":"name","type":"string"},{"internalType":"string","name":"message","type":"string"},{"internalType":"uint256","name":"age","type":"uint256"},{"internalType":"string","name":"email","type":"string"},{"internalType":"string","name":"phone","type":"string"},{"internalType":"uint256","name":"registeredId","type":"uint256"},{"internalType":"uint256","name":"voteCalculation","type":"uint256"},{"internalType":"address","name":"candidatesAddress","type":"address"},{"internalType":"enum VotingSystem.ConfirmationStatus","name":"status","type":"uint8"}],"internalType":"struct VotingSystem.Candidate","name":"","type":"tuple"}],"stateMutability":"view","type":"function"},{"inputs":[{"internalType":"address","name":"_votersAddress","type":"address"}],"name":"findVoter","outputs":[{"components":[{"internalType":"bool","name":"alreadyVoted","type":"bool"},{"internalType":"string","name":"name","type":"string"},{"internalType":"uint256","name":"age","type":"uint256"},{"internalType":"string","name":"email","type":"string"},{"internalType":"string","name":"phone","type":"string"},{"internalType":"string","name":"message","type":"string"},{"internalType":"uint256","name":"registeredId","type":"uint256"},{"internalType":"address","name":"votersAddress","type":"address"},{"internalType":"enum VotingSystem.ConfirmationStatus","name":"status","type":"uint8"}],"internalType":"struct VotingSystem.Voter","name":"","type":"tuple"}],"stateMutability":"view","type":"function"},{"inputs":[],"name":"getAllVotersWhoCasted","outputs":[{"components":[{"internalType":"bool","name":"alreadyVoted","type":"bool"},{"internalType":"string","name":"name","type":"string"},{"internalType":"uint256","name":"age","type":"uint256"},{"internalType":"string","name":"email","type":"string"},{"internalType":"string","name":"phone","type":"string"},{"internalType":"string","name":"message","type":"string"},{"internalType":"uint256","name":"registeredId","type":"uint256"},{"internalType":"address","name":"votersAddress","type":"address"},{"internalType":"enum VotingSystem.ConfirmationStatus","name":"status","type":"uint8"}],"internalType":"struct VotingSystem.Voter[]","name":"","type":"tuple[]"}],"stateMutability":"view","type":"function"},{"inputs":[],"name":"owner","outputs":[{"internalType":"address","name":"","type":"address"}],"stateMutability":"view","type":"function"},{"inputs":[{"internalType":"string","name":"_name","type":"string"},{"internalType":"uint256","name":"_age","type":"uint256"},{"internalType":"string","name":"_email","type":"string"},{"internalType":"string","name":"_phone","type":"string"}],"name":"registerCandidate","outputs":[],"stateMutability":"nonpayable","type":"function"},{"inputs":[{"internalType":"string","name":"_name","type":"string"},{"internalType":"uint256","name":"_age","type":"uint256"},{"internalType":"string","name":"_email","type":"string"},{"internalType":"string","name":"_phone","type":"string"}],"name":"registerVoter","outputs":[],"stateMutability":"nonpayable","type":"function"},{"inputs":[{"internalType":"address","name":"_candidatesAddress","type":"address"},{"internalType":"string","name":"_message","type":"string"}],"name":"rejectCandidate","outputs":[],"stateMutability":"nonpayable","type":"function"},{"inputs":[{"internalType":"address","name":"_votersAddress","type":"address"},{"internalType":"string","name":"_message","type":"string"}],"name":"rejectVoter","outputs":[],"stateMutability":"nonpayable","type":"function"},{"inputs":[],"name":"resultPublicationTime","outputs":[{"internalType":"uint256","name":"","type":"uint256"}],"stateMutability":"view","type":"function"},{"inputs":[{"internalType":"uint256","name":"_resultPublicationTime","type":"uint256"}],"name":"setResultPublicationTime","outputs":[],"stateMutability":"nonpayable","type":"function"},{"inputs":[{"internalType":"uint256","name":"_votingStartTime","type":"uint256"},{"internalType":"uint256","name":"_votingEndTime","type":"uint256"}],"name":"startendVoting","outputs":[],"stateMutability":"nonpayable","type":"function"},{"inputs":[{"internalType":"string","name":"_name","type":"string"}],"name":"updateCandidate","outputs":[],"stateMutability":"nonpayable","type":"function"},{"inputs":[{"internalType":"string","name":"_name","type":"string"}],"name":"updateVoter","outputs":[],"stateMutability":"nonpayable","type":"function"},{"inputs":[{"internalType":"address","name":"_candidatesAddress","type":"address"}],"name":"vote","outputs":[],"stateMutability":"nonpayable","type":"function"},{"inputs":[{"internalType":"address","name":"","type":"address"}],"name":"voters","outputs":[{"internalType":"bool","name":"alreadyVoted","type":"bool"},{"internalType":"string","name":"name","type":"string"},{"internalType":"uint256","name":"age","type":"uint256"},{"internalType":"string","name":"email","type":"string"},{"internalType":"string","name":"phone","type":"string"},{"internalType":"string","name":"message","type":"string"},{"internalType":"uint256","name":"registeredId","type":"uint256"},{"internalType":"address","name":"votersAddress","type":"address"},{"internalType":"enum VotingSystem.ConfirmationStatus","name":"status","type":"uint8"}],"stateMutability":"view","type":"function"},{"inputs":[{"internalType":"uint256","name":"","type":"uint256"}],"name":"votersRegistered","outputs":[{"internalType":"address","name":"","type":"address"}],"stateMutability":"view","type":"function"},{"inputs":[{"internalType":"uint256","name":"","type":"uint256"}],"name":"votersWhoCasted","outputs":[{"internalType":"address","name":"","type":"address"}],"stateMutability":"view","type":"function"},{"inputs":[],"name":"votingEndTime","outputs":[{"internalType":"uint256","name":"","type":"uint256"}],"stateMutability":"view","type":"function"},{"inputs":[],"name":"votingStartTime","outputs":[{"internalType":"uint256","name":"","type":"uint256"}],"stateMutability":"view","type":"function"},{"inputs":[],"name":"winningCandidate","outputs":[{"components":[{"internalType":"string","name":"name","type":"string"},{"internalType":"string","name":"message","type":"string"},{"internalType":"uint256","name":"age","type":"uint256"},{"internalType":"string","name":"email","type":"string"},{"internalType":"string","name":"phone","type":"string"},{"internalType":"uint256","name":"registeredId","type":"uint256"},{"internalType":"uint256","name":"voteCalculation","type":"uint256"},{"internalType":"address","name":"candidatesAddress","type":"address"},{"internalType":"enum VotingSystem.ConfirmationStatus","name":"status","type":"uint8"}],"internalType":"struct VotingSystem.Candidate","name":"","type":"tuple"}],"stateMutability":"view","type":"function"}],"evm":{"bytecode":{"linkReferences":{},"object":"60806040523461023b576131fe8038038061001981610240565b92833981019060208183031261023b578051906001600160401b03821161023b570181601f8201121561023b578051906001600160401b0382116102105761006a601f8301601f1916602001610240565b928284526020838301011161023b5760005b82811061022657600083850160200181905280546001600160a01b03191633179055835184906001600160401b03811161021057600154600181811c91168015610206575b60208210146101f057601f811161018b575b50602091601f82116001146101275791819260009261011c575b50508160011b916000199060031b1c1916176001555b60016005556001600655604051612f9890816102668239f35b0151905082806100ed565b601f198216926001600052806000209160005b8581106101735750836001951061015a575b505050811b01600155610103565b015160001960f88460031b161c1916905582808061014c565b9192602060018192868501518155019401920161013a565b60016000527fb10e2d527612073b26eecdfd717e6a320cf44b4afac2b0732d9fcbe2b7fa0cf6601f830160051c810191602084106101e6575b601f0160051c01905b8181106101da57506100d3565b600081556001016101cd565b90915081906101c4565b634e487b7160e01b600052602260045260246000fd5b90607f16906100c1565b634e487b7160e01b600052604160045260246000fd5b8060208092840101518282870101520161007c565b600080fd5b6040519190601f01601f191682016001600160401b038111838210176102105760405256fe6080604052600436101561001257600080fd5b60003560e01c80630366ac37146124e95780631ea736e0146124cb5780631ee9367c1461243e5780632019a6081461242057806323a2b2ed146123935780633cfde26c1461228e5780634a2846a81461210057806353dd128c146120d757806357f3a8e514611f5d57806359632c2214611dd15780635b45cfca14611cde5780635f1bc34e14611cb557806360fc4e3214611c285780636dd7d8ea146119fb57806371565d2e1461148b57806379432db5146113505780637eb21b51146111c057806382ff2aeb14611060578063849c56571461103757806385e8e7a714610f565780638987cb3214610e4d5780638ab66a9014610d5a5780638da5cb5b14610d315780639e7a814514610cef578063a3ec138d14610bf3578063ac94ba4c14610bd5578063bab912a214610bb9578063cd6cf3111461063a578063d28178d71461060a578063dbf7be471461046f578063f33698f11461034a5763fad761d31461017c57600080fd5b346103455761018a366128b1565b906101a060018060a01b03600054163314612ba0565b60018060a01b031680600052600760205260056040600020600781016101d060018060a01b038254161515612cb3565b805460ff60a01b1916600160a01b17905583519101906001600160401b038111610277576101fe825461295d565b601f81116102fd575b506020601f8211600114610298578192939460009261028d575b50508160011b916000199060031b1c19161790555b600c54600160401b811015610277578060016102579201600c55600c6125ab565b81546001600160a01b0360039290921b91821b191692901b919091179055005b634e487b7160e01b600052604160045260246000fd5b015190503880610221565b601f1982169083600052806000209160005b8181106102e5575095836001959697106102cc575b505050811b019055610236565b015160001960f88460031b161c191690553880806102bf565b9192602060018192868b0151815501940192016102aa565b826000526020600020601f830160051c8101916020841061033b575b601f0160051c01905b81811061032f5750610207565b60008155600101610322565b9091508190610319565b600080fd5b34610345576040366003190112610345576004356024359061037760018060a01b03600054163314612ba0565b60025461042a57428111156103e6578181101561039657600255600355005b60405162461bcd60e51b815260206004820152602260248201527f53746172742074696d65206d757374206265206265666f726520656e642074696044820152616d6560f01b6064820152608490fd5b606460405162461bcd60e51b815260206004820152602060248201527f53746172742074696d65206d75737420626520696e20746865206675747572656044820152fd5b60405162461bcd60e51b815260206004820152601860248201527f566f74696e6720616c7265616479207363686564756c656400000000000000006044820152606490fd5b3461034557602036600319011261034557610488612808565b610490612a52565b5060018060a01b0316600052600860205260406000206007604051916104b58361281e565b6104be81612997565b83526104cc60018201612997565b6020840152600281015460408401526104e760038201612997565b60608401526104f860048201612997565b6080840152600581015460a0840152600681015460c0840152015460e0820160018060a01b038216815261053760ff61010085019360a01c1683612afd565b516001600160a01b0316156105cf575160038110156105b957600019016105745761057090604051918291602083526020830190612611565b0390f35b60405162461bcd60e51b815260206004820152601960248201527f43616e646964617465206973206e6f74206163636570746564000000000000006044820152606490fd5b634e487b7160e01b600052602160045260246000fd5b60405162461bcd60e51b815260206004820152601360248201527210d85b991a59185d19481b9bdd08199bdd5b99606a1b6044820152606490fd5b3461034557600036600319011261034557610570610626612e0c565b604051918291602083526020830190612611565b3461034557610648366128f0565b6006939193546040519161065b8361281e565b6000835260208301938452604083019485526060830195865260808301908152610683612c22565b9560a0840196875260c0840192835260e08401953387526101008501956000875233600052600760205260406000209551151560ff801988541691161786556001860190518051906001600160401b0382116102775781906106e5845461295d565b601f8111610b66575b50602090601f8311600114610b0157600092610af6575b50508160011b916000199060031b1c19161790555b51600285015551805160038501916001600160401b038211610277578190610742845461295d565b601f8111610aa3575b50602090601f8311600114610a3e57600092610a33575b50508160011b916000199060031b1c19161790555b51805160048401916001600160401b038211610277578190610799845461295d565b601f81116109e0575b50602090601f831160011461097b57600092610970575b50508160011b916000199060031b1c19161790555b6005820194519485516001600160401b038111610277576107ef825461295d565b601f8111610928575b506020601f82116001146108be57819060079697986000926108b3575b50508160011b916000199060031b1c19161790555b5160068201559251920180546001600160a01b0319166001600160a01b03939093169290921782555160038110156105b95761086591612bd9565b600a54600160401b811015610277578060016108869201600a55600a6125ab565b81546001600160a01b0360039290921b91821b19163390911b1790556006546108ae90612bfd565b600655005b015190508880610815565b601f1982169783600052816000209860005b8181106109105750916007979899918460019594106108f7575b505050811b01905561082a565b015160001960f88460031b161c191690558880806108ea565b838301518b556001909a0199602093840193016108d0565b826000526020600020601f830160051c81019160208410610966575b601f0160051c01905b81811061095a57506107f8565b6000815560010161094d565b9091508190610944565b0151905088806107b9565b60008581528281209350601f198516905b8181106109c857509084600195949392106109af575b505050811b0190556107ce565b015160001960f88460031b161c191690558880806109a2565b9293602060018192878601518155019501930161098c565b909150836000526020600020601f840160051c81019160208510610a29575b90601f859493920160051c01905b818110610a1a57506107a2565b60008155849350600101610a0d565b90915081906109ff565b015190508980610762565b60008581528281209350601f198516905b818110610a8b5750908460019594939210610a72575b505050811b019055610777565b015160001960f88460031b161c19169055898080610a65565b92936020600181928786015181550195019301610a4f565b909150836000526020600020601f840160051c81019160208510610aec575b90601f859493920160051c01905b818110610add575061074b565b60008155849350600101610ad0565b9091508190610ac2565b015190508b80610705565b60008581528281209350601f198516905b818110610b4e5750908460019594939210610b35575b505050811b01905561071a565b015160001960f88460031b161c191690558b8080610b28565b92936020600181928786015181550195019301610b12565b909150836000526020600020601f840160051c81019160208510610baf575b90601f859493920160051c01905b818110610ba057506106ee565b60008155849350600101610b93565b9091508190610b85565b3461034557600036600319011261034557610570610626612d11565b34610345576000366003190112610345576020600454604051908152f35b34610345576020366003190112610345576001600160a01b03610c14612808565b1660005260076020526020604060002060ff81541690610570610c3960018301612997565b610cc76002840154610cb9610c5060038701612997565b91610cab610c6060048901612997565b91610c6d60058a01612997565b94610c98600760068c01549b0154986101206040519e8f9e8f901515815201526101208d01906125c3565b9160408c01528a820360608c01526125c3565b9088820360808a01526125c3565b9086820360a08801526125c3565b60c08501939093526001600160a01b03811660e085015261010084019060a01c60ff16612604565b3461034557602036600319011261034557600435600b5481101561034557610d1860209161255a565b905460405160039290921b1c6001600160a01b03168152f35b34610345576000366003190112610345576000546040516001600160a01b039091168152602090f35b34610345576020366003190112610345576001600160a01b03610d7b612808565b1660005260086020526040600020610120610d9582612997565b91610570610da560018301612997565b600283015492610e23610dba60038301612997565b94610e15610dca60048501612997565b91600585015497610e026007600688015497015497610df46040519d8d8f9e8f90815201906125c3565b8c810360208e0152906125c3565b9160408b015289820360608b01526125c3565b9087820360808901526125c3565b9360a086015260c085015260018060a01b03811660e085015260ff61010085019160a01c16612604565b3461034557600036600319011261034557600d54610e6a81612b50565b9060005b818110610e83576040518061057085826127a8565b80610e8f600192612575565b838060a01b0391549060031b1c1660005260076020526040600020610f3a60ff600760405193610ebe8561281e565b8281541615158552610ed1878201612997565b602086015260028101546040860152610eec60038201612997565b6060860152610efd60048201612997565b6080860152610f0e60058201612997565b60a0860152600681015460c08601520154858060a01b03811660e085015260a01c166101008301612afd565b610f448286612ae9565b52610f4f8185612ae9565b5001610e6e565b34610345576000366003190112610345576040516000600154610f788161295d565b80845290600181169081156110135750600114610fb4575b61057083610fa08185038261283a565b6040519182916020835260208301906125c3565b600160009081527fb10e2d527612073b26eecdfd717e6a320cf44b4afac2b0732d9fcbe2b7fa0cf6939250905b808210610ff957509091508101602001610fa0610f90565b919260018160209254838588010152019101909291610fe1565b60ff191660208086019190915291151560051b84019091019150610fa09050610f90565b3461034557602036600319011261034557600435600a5481101561034557610d18602091612590565b34610345576020366003190112610345576004356001600160401b0381116103455761109090369060040161285b565b336000526007602052600160406000206110b6828060a01b036007830154161515612c67565b0181516001600160401b038111610277576110d1825461295d565b601f8111611178575b50602092601f8211600114611118579281929360009261110d575b5050600019600383901b1c191660019190911b179055005b0151905083806110f5565b601f1982169383600052806000209160005b8681106111605750836001959610611147575b505050811b019055005b015160001960f88460031b161c1916905583808061113d565b9192602060018192868501518155019401920161112a565b826000526020600020601f830160051c810191602084106111b6575b601f0160051c01905b8181106111aa57506110da565b6000815560010161119d565b9091508190611194565b34610345576111ce366128b1565b906111e460018060a01b03600054163314612ba0565b6001600160a01b039081166000818152600860205260409020600781018054929360019361121491161515612cb3565b8260a01b60ff60a01b198254161790550182516001600160401b0381116102775761123f825461295d565b601f8111611308575b506020601f82116001146112a35781929394600092611298575b50508160011b916000199060031b1c19161790555b600b54600160401b811015610277578060016102579201600b55600b6125ab565b015190508480611262565b601f1982169083600052806000209160005b8181106112f0575095836001959697106112d7575b505050811b019055611277565b015160001960f88460031b161c191690558480806112ca565b9192602060018192868b0151815501940192016112b5565b826000526020600020601f830160051c81019160208410611346575b601f0160051c01905b81811061133a5750611248565b6000815560010161132d565b9091508190611324565b34610345576020366003190112610345576004356001600160401b0381116103455761138090369060040161285b565b33600090815260086020526040902060078101546113a8906001600160a01b03161515612c67565b81516001600160401b038111610277576113c2825461295d565b601f8111611443575b50602092601f82116001146113fd579281929360009261110d575050600019600383901b1c191660019190911b179055005b601f1982169383600052806000209160005b86811061142b575083600195961061114757505050811b019055005b9192602060018192868501518155019401920161140f565b826000526020600020601f830160051c81019160208410611481575b601f0160051c01905b81811061147557506113cb565b60008155600101611468565b909150819061145f565b3461034557611499366128f0565b9260055491604051916114ab8361281e565b82526114b5612c22565b926020830193845260408301948552606083019182526080830195865260a0830190815260c08301916000835260e084019533875261010085019560008752336000526008602052604060002095518051906001600160401b038211610277578190611521895461295d565b601f81116119a8575b50602090601f831160011461194357600092611938575b50508160011b916000199060031b1c19161786555b51805160018701916001600160401b038211610277578190611578845461295d565b601f81116118e5575b50602090601f831160011461188057600092611875575b50508160011b916000199060031b1c19161790555b51600285015551805160038501916001600160401b0382116102775781906115d5845461295d565b601f8111611822575b50602090601f83116001146117bd576000926117b2575b50508160011b916000199060031b1c19161790555b6004830195519586516001600160401b0381116102775761162b825461295d565b601f811161176a575b506020601f821160011461170057819060079798996000926116f5575b50508160011b916000199060031b1c19161790555b5160058301555160068201559251920180546001600160a01b0319166001600160a01b03939093169290921782555160038110156105b9576116a791612bd9565b600954600160401b811015610277578060016116c8920160095560096125ab565b81546001600160a01b0360039290921b91821b19163390911b1790556005546116f090612bfd565b600555005b015190508980611651565b601f1982169883600052816000209960005b818110611752575091600798999a91846001959410611739575b505050811b019055611666565b015160001960f88460031b161c1916905589808061172c565b838301518c556001909b019a60209384019301611712565b826000526020600020601f830160051c810191602084106117a8575b601f0160051c01905b81811061179c5750611634565b6000815560010161178f565b9091508190611786565b0151905089806115f5565b60008581528281209350601f198516905b81811061180a57509084600195949392106117f1575b505050811b01905561160a565b015160001960f88460031b161c191690558980806117e4565b929360206001819287860151815501950193016117ce565b909150836000526020600020601f840160051c8101916020851061186b575b90601f859493920160051c01905b81811061185c57506115de565b6000815584935060010161184f565b9091508190611841565b015190508b80611598565b60008581528281209350601f198516905b8181106118cd57509084600195949392106118b4575b505050811b0190556115ad565b015160001960f88460031b161c191690558b80806118a7565b92936020600181928786015181550195019301611891565b909150836000526020600020601f840160051c8101916020851061192e575b90601f859493920160051c01905b81811061191f5750611581565b60008155849350600101611912565b9091508190611904565b015190508b80611541565b60008a81528281209350601f198516905b8181106119905750908460019594939210611977575b505050811b018655611556565b015160001960f88460031b161c191690558b808061196a565b92936020600181928786015181550195019301611954565b909150886000526020600020601f840160051c810191602085106119f1575b90601f859493920160051c01905b8181106119e2575061152a565b600081558493506001016119d5565b90915081906119c7565b3461034557602036600319011261034557611a14612808565b6002544210611be3576003544211611bab57336000526007602052604060002060ff600782015460a01c1660038110156105b957600103611b665780549160ff8316611b285760018060a01b0316600052600860205260406000209060ff600783015460a01c1660038110156105b957600103611ae357600160069360ff191617905501611aa28154612bfd565b9055600d54600160401b81101561027757806001611ac59201600d55600d6125ab565b81546001600160a01b0360039290921b91821b19163390911b179055005b60405162461bcd60e51b815260206004820152601a60248201527f43616e646964617465206973206e6f742061636365707465642e0000000000006044820152606490fd5b60405162461bcd60e51b8152602060048201526016602482015275165bdd481a185d9948185b1c9958591e481d9bdd195960521b6044820152606490fd5b60405162461bcd60e51b815260206004820152601e60248201527f596f7520617265206e6f74206120636f6e6669726d656420766f7465722e00006044820152606490fd5b60405162461bcd60e51b815260206004820152601060248201526f159bdd1a5b99c81a185cc8195b99195960821b6044820152606490fd5b60405162461bcd60e51b815260206004820152601a60248201527f566f74696e6720686173206e6f742073746172746564207965740000000000006044820152606490fd5b3461034557600036600319011261034557600a54611c4581612b50565b9060005b818110611c5e576040518061057085826127a8565b80611c6a600192612590565b838060a01b0391549060031b1c1660005260076020526040600020611c9960ff600760405193610ebe8561281e565b611ca38286612ae9565b52611cae8185612ae9565b5001611c49565b3461034557602036600319011261034557600435600d5481101561034557610d18602091612575565b3461034557602036600319011261034557600435611d0760018060a01b03600054163314612ba0565b600454611d8057600354811115611d1d57600455005b60405162461bcd60e51b815260206004820152603560248201527f526573756c74207075626c69636174696f6e2074696d65206d75737420626520604482015274616674657220766f74696e6720656e642074696d6560581b6064820152608490fd5b60405162461bcd60e51b815260206004820152602360248201527f526573756c74207075626c69636174696f6e2074696d6520616c7265616479206044820152621cd95d60ea1b6064820152608490fd5b3461034557611ddf366128b1565b90611df560018060a01b03600054163314612ba0565b6001600160a01b03908116600090815260086020526040902060078101805490921615611f1857815460ff60a01b1916600160a11b179091558151600191909101906001600160401b03811161027757611e4f825461295d565b601f8111611ed0575b50602092601f8211600114611e8a579281929360009261110d575050600019600383901b1c191660019190911b179055005b601f1982169383600052806000209160005b868110611eb8575083600195961061114757505050811b019055005b91926020600181928685015181550194019201611e9c565b826000526020600020601f830160051c81019160208410611f0e575b601f0160051c01905b818110611f025750611e58565b60008155600101611ef5565b9091508190611eec565b60405162461bcd60e51b815260206004820152601b60248201527f4e6f2063616e646964617465206461746120617661696c61626c6500000000006044820152606490fd5b3461034557602036600319011261034557611f76612808565b611f7e612b09565b5060018060a01b031660005260076020526040600020600760405191611fa38361281e565b60ff81541615158352611fb860018201612997565b602084015260028101546040840152611fd360038201612997565b6060840152611fe460048201612997565b6080840152611ff560058201612997565b60a0840152600681015460c0840152015460e0820160018060a01b038216815261202a60ff61010085019360a01c1683612afd565b516001600160a01b0316156120a0575160038110156105b95760001901612063576105709060405191829160208352602083019061270d565b60405162461bcd60e51b8152602060048201526015602482015274159bdd195c881a5cc81b9bdd081858d8d95c1d1959605a1b6044820152606490fd5b60405162461bcd60e51b815260206004820152600f60248201526e159bdd195c881b9bdd08199bdd5b99608a1b6044820152606490fd5b3461034557602036600319011261034557600435600c5481101561034557610d1860209161253f565b346103455761210e366128b1565b9061212460018060a01b03600054163314612ba0565b6001600160a01b03908116600090815260076020819052604090912090810180549092161561224957815460ff60a01b1916600160a11b179091558151600591909101906001600160401b03811161027757612180825461295d565b601f8111612201575b50602092601f82116001146121bb579281929360009261110d575050600019600383901b1c191660019190911b179055005b601f1982169383600052806000209160005b8681106121e9575083600195961061114757505050811b019055005b919260206001819286850151815501940192016121cd565b826000526020600020601f830160051c8101916020841061223f575b601f0160051c01905b8181106122335750612189565b60008155600101612226565b909150819061221d565b60405162461bcd60e51b815260206004820152601760248201527f4e6f20766f746572206461746120617661696c61626c650000000000000000006044820152606490fd5b3461034557600036600319011261034557600b546122ab81612a99565b9060005b8181106122c4576040518061057085826126ad565b806122d060019261255a565b838060a01b0391549060031b1c166000526008602052604060002061237760ff6007604051936122ff8561281e565b61230881612997565b8552612315878201612997565b60208601526002810154604086015261233060038201612997565b606086015261234160048201612997565b6080860152600581015460a0860152600681015460c08601520154858060a01b03811660e085015260a01c166101008301612afd565b6123818286612ae9565b5261238c8185612ae9565b50016122af565b3461034557600036600319011261034557600c546123b081612b50565b9060005b8181106123c9576040518061057085826127a8565b806123d560019261253f565b838060a01b0391549060031b1c166000526007602052604060002061240460ff600760405193610ebe8561281e565b61240e8286612ae9565b526124198185612ae9565b50016123b4565b34610345576000366003190112610345576020600254604051908152f35b346103455760003660031901126103455760095461245b81612a99565b9060005b818110612474576040518061057085826126ad565b8061248060019261250e565b838060a01b0391549060031b1c16600052600860205260406000206124af60ff6007604051936122ff8561281e565b6124b98286612ae9565b526124c48185612ae9565b500161245f565b34610345576000366003190112610345576020600354604051908152f35b346103455760203660031901126103455760043560095481101561034557610d186020915b60095481101561252957600960005260206000200190600090565b634e487b7160e01b600052603260045260246000fd5b600c5481101561252957600c60005260206000200190600090565b600b5481101561252957600b60005260206000200190600090565b600d5481101561252957600d60005260206000200190600090565b600a5481101561252957600a60005260206000200190600090565b80548210156125295760005260206000200190600090565b919082519283825260005b8481106125ef575050826000602080949584010152601f8019910116010190565b806020809284010151828286010152016125ce565b9060038210156105b95752565b906126aa906101008061267861266661264a612638885161012088526101208801906125c3565b602089015187820360208901526125c3565b60408801516040870152606088015186820360608801526125c3565b608087015185820360808701526125c3565b60a0808701519085015260c0808701519085015260e0808701516001600160a01b031690850152940151910190612604565b90565b602081016020825282518091526040820191602060408360051b8301019401926000915b8383106126e057505050505090565b90919293946020806126fe600193603f198682030187528951612611565b970193019301919392906126d1565b906126aa908251151581526101008061278061276e61275c612740602089015161012060208901526101208801906125c3565b60408901516040880152606089015187820360608901526125c3565b608088015186820360808801526125c3565b60a087015185820360a08701526125c3565b60c0808701519085015260e0808701516001600160a01b031690850152940151910190612604565b602081016020825282518091526040820191602060408360051b8301019401926000915b8383106127db57505050505090565b90919293946020806127f9600193603f19868203018752895161270d565b970193019301919392906127cc565b600435906001600160a01b038216820361034557565b61012081019081106001600160401b0382111761027757604052565b90601f801991011681019081106001600160401b0382111761027757604052565b81601f82011215610345578035906001600160401b038211610277576040519261288f601f8401601f19166020018561283a565b8284526020838301011161034557816000926020809301838601378301015290565b906040600319830112610345576004356001600160a01b03811681036103455791602435906001600160401b038211610345576126aa9160040161285b565b906080600319830112610345576004356001600160401b038111610345578261291b9160040161285b565b91602435916044356001600160401b038111610345578261293e9160040161285b565b91606435906001600160401b038211610345576126aa9160040161285b565b90600182811c9216801561298d575b602083101461297757565b634e487b7160e01b600052602260045260246000fd5b91607f169161296c565b90604051918260008254926129ab8461295d565b8084529360018116908115612a1957506001146129d2575b506129d09250038361283a565b565b90506000929192526020600020906000915b8183106129fd5750509060206129d092820101386129c3565b60209193508060019154838589010152019101909184926129e4565b9050602092506129d094915060ff191682840152151560051b820101386129c3565b6001600160401b0381116102775760051b60200190565b60405190612a5f8261281e565b6000610100836060815260606020820152826040820152606080820152606060808201528260a08201528260c08201528260e08201520152565b90612aa382612a3b565b612ab0604051918261283a565b8281528092612ac1601f1991612a3b565b019060005b828110612ad257505050565b602090612add612a52565b82828501015201612ac6565b80518210156125295760209160051b010190565b60038210156105b95752565b60405190612b168261281e565b6000610100838281526060602082015282604082015260608082015260606080820152606060a08201528260c08201528260e08201520152565b90612b5a82612a3b565b612b67604051918261283a565b8281528092612b78601f1991612a3b565b019060005b828110612b8957505050565b602090612b94612b09565b82828501015201612b7d565b15612ba757565b60405162461bcd60e51b815260206004820152600a60248201526927b7363c9037bbb732b960b11b6044820152606490fd5b9060038110156105b957815460ff60a01b191660a09190911b60ff60a01b16179055565b6000198114612c0c5760010190565b634e487b7160e01b600052601160045260246000fd5b60405190612c3160608361283a565b60218252601b60fa1b6040837f526567697374726174696f6e206973206177616974696e6720617070726f766160208201520152565b15612c6e57565b60405162461bcd60e51b815260206004820152601860248201527f4e6f20766f746572206461746120617661696c61626c652e00000000000000006044820152606490fd5b15612cba57565b60405162461bcd60e51b815260206004820152602960248201527f5468697320766f74657220646f6573206e6f742061707065617220696e206f75604482015268391039bcb9ba32b69760b91b6064820152608490fd5b612d19612a52565b50612d22612a52565b600b546000805b828110612d365750505090565b612d3f8161255a565b60018060a01b0391549060031b1c166000526008602052604060002060405190612d688261281e565b612d7181612997565b8252612d7f60018201612997565b602083015260028101546040830152612d9a60038201612997565b6060830152612dab60048201612997565b6080830152600581015460a0830152612dec60ff600760068401549360c08601948552015460018060a01b03811660e086015260a01c166101008401612afd565b51838111612dff575b5050600101612d29565b9094509150600138612df5565b612e14612a52565b50600b5415612f11576003544210612e2e576126aa612d11565b604051612e3a8161281e565b60408051612e48828261283a565b600f81526e139bdd08191958da591959081e595d608a1b602082015282528051612e7360608261283a565b603681527f506c65617365207761697420756e74696c2074686520656c656374696f6e2065602082015275373239903a379039b2b2903a3432903bb4b73732b91760511b8282015260208301526000818301528051612ed360208261283a565b60008152606083015251612ee860208261283a565b600081526080820152600060a0820152600060c0820152600060e0820152600061010082015290565b60405162461bcd60e51b8152602060048201526024808201527f4e6f2043616e6469646174657320616363657074656420666f7220656c65637460448201526334b7b71760e11b6064820152608490fdfea2646970667358221220726d13c8b6110a827fb84c1ba5b48efde08b8d6291e0ae987e0279a0624f86c664736f6c634300081c0033","opcodes":"PUSH1 0x80 PUSH1 0x40 MSTORE CALLVALUE PUSH2 0x23B JUMPI PUSH2 0x31FE DUP1 CODESIZE SUB DUP1 PUSH2 0x19 DUP2 PUSH2 0x240 JUMP JUMPDEST SWAP3 DUP4 CODECOPY DUP2 ADD SWAP1 PUSH1 0x20 DUP2 DUP4 SUB SLT PUSH2 0x23B JUMPI DUP1 MLOAD SWAP1 PUSH1 0x1 PUSH1 0x1 PUSH1 0x40 SHL SUB DUP3 GT PUSH2 0x23B JUMPI ADD DUP2 PUSH1 0x1F DUP3 ADD SLT ISZERO PUSH2 0x23B JUMPI DUP1 MLOAD SWAP1 PUSH1 0x1 PUSH1 0x1 PUSH1 0x40 SHL SUB DUP3 GT PUSH2 0x210 JUMPI PUSH2 0x6A PUSH1 0x1F DUP4 ADD PUSH1 0x1F NOT AND PUSH1 0x20 ADD PUSH2 0x240 JUMP JUMPDEST SWAP3 DUP3 DUP5 MSTORE PUSH1 0x20 DUP4 DUP4 ADD ADD GT PUSH2 0x23B JUMPI PUSH1 0x0 JUMPDEST DUP3 DUP2 LT PUSH2 0x226 JUMPI PUSH1 0x0 DUP4 DUP6 ADD PUSH1 0x20 ADD DUP2 SWAP1 MSTORE DUP1 SLOAD PUSH1 0x1 PUSH1 0x1 PUSH1 0xA0 SHL SUB NOT AND CALLER OR SWAP1 SSTORE DUP4 MLOAD DUP5 SWAP1 PUSH1 0x1 PUSH1 0x1 PUSH1 0x40 SHL SUB DUP2 GT PUSH2 0x210 JUMPI PUSH1 0x1 SLOAD PUSH1 0x1 DUP2 DUP2 SHR SWAP2 AND DUP1 ISZERO PUSH2 0x206 JUMPI JUMPDEST PUSH1 0x20 DUP3 LT EQ PUSH2 0x1F0 JUMPI PUSH1 0x1F DUP2 GT PUSH2 0x18B JUMPI JUMPDEST POP PUSH1 0x20 SWAP2 PUSH1 0x1F DUP3 GT PUSH1 0x1 EQ PUSH2 0x127 JUMPI SWAP2 DUP2 SWAP3 PUSH1 0x0 SWAP3 PUSH2 0x11C JUMPI JUMPDEST POP POP DUP2 PUSH1 0x1 SHL SWAP2 PUSH1 0x0 NOT SWAP1 PUSH1 0x3 SHL SHR NOT AND OR PUSH1 0x1 SSTORE JUMPDEST PUSH1 0x1 PUSH1 0x5 SSTORE PUSH1 0x1 PUSH1 0x6 SSTORE PUSH1 0x40 MLOAD PUSH2 0x2F98 SWAP1 DUP2 PUSH2 0x266 DUP3 CODECOPY RETURN JUMPDEST ADD MLOAD SWAP1 POP DUP3 DUP1 PUSH2 0xED JUMP JUMPDEST PUSH1 0x1F NOT DUP3 AND SWAP3 PUSH1 0x1 PUSH1 0x0 MSTORE DUP1 PUSH1 0x0 KECCAK256 SWAP2 PUSH1 0x0 JUMPDEST DUP6 DUP2 LT PUSH2 0x173 JUMPI POP DUP4 PUSH1 0x1 SWAP6 LT PUSH2 0x15A JUMPI JUMPDEST POP POP POP DUP2 SHL ADD PUSH1 0x1 SSTORE PUSH2 0x103 JUMP JUMPDEST ADD MLOAD PUSH1 0x0 NOT PUSH1 0xF8 DUP5 PUSH1 0x3 SHL AND SHR NOT AND SWAP1 SSTORE DUP3 DUP1 DUP1 PUSH2 0x14C JUMP JUMPDEST SWAP2 SWAP3 PUSH1 0x20 PUSH1 0x1 DUP2 SWAP3 DUP7 DUP6 ADD MLOAD DUP2 SSTORE ADD SWAP5 ADD SWAP3 ADD PUSH2 0x13A JUMP JUMPDEST PUSH1 0x1 PUSH1 0x0 MSTORE PUSH32 0xB10E2D527612073B26EECDFD717E6A320CF44B4AFAC2B0732D9FCBE2B7FA0CF6 PUSH1 0x1F DUP4 ADD PUSH1 0x5 SHR DUP2 ADD SWAP2 PUSH1 0x20 DUP5 LT PUSH2 0x1E6 JUMPI JUMPDEST PUSH1 0x1F ADD PUSH1 0x5 SHR ADD SWAP1 JUMPDEST DUP2 DUP2 LT PUSH2 0x1DA JUMPI POP PUSH2 0xD3 JUMP JUMPDEST PUSH1 0x0 DUP2 SSTORE PUSH1 0x1 ADD PUSH2 0x1CD JUMP JUMPDEST SWAP1 SWAP2 POP DUP2 SWAP1 PUSH2 0x1C4 JUMP JUMPDEST PUSH4 0x4E487B71 PUSH1 0xE0 SHL PUSH1 0x0 MSTORE PUSH1 0x22 PUSH1 0x4 MSTORE PUSH1 0x24 PUSH1 0x0 REVERT JUMPDEST SWAP1 PUSH1 0x7F AND SWAP1 PUSH2 0xC1 JUMP JUMPDEST PUSH4 0x4E487B71 PUSH1 0xE0 SHL PUSH1 0x0 MSTORE PUSH1 0x41 PUSH1 0x4 MSTORE PUSH1 0x24 PUSH1 0x0 REVERT JUMPDEST DUP1 PUSH1 0x20 DUP1 SWAP3 DUP5 ADD ADD MLOAD DUP3 DUP3 DUP8 ADD ADD MSTORE ADD PUSH2 0x7C JUMP JUMPDEST PUSH1 0x0 DUP1 REVERT JUMPDEST PUSH1 0x40 MLOAD SWAP2 SWAP1 PUSH1 0x1F ADD PUSH1 0x1F NOT AND DUP3 ADD PUSH1 0x1 PUSH1 0x1 PUSH1 0x40 SHL SUB DUP2 GT DUP4 DUP3 LT OR PUSH2 0x210 JUMPI PUSH1 0x40 MSTORE JUMP INVALID PUSH1 0x80 PUSH1 0x40 MSTORE PUSH1 0x4 CALLDATASIZE LT ISZERO PUSH2 0x12 JUMPI PUSH1 0x0 DUP1 REVERT JUMPDEST PUSH1 0x0 CALLDATALOAD PUSH1 0xE0 SHR DUP1 PUSH4 0x366AC37 EQ PUSH2 0x24E9 JUMPI DUP1 PUSH4 0x1EA736E0 EQ PUSH2 0x24CB JUMPI DUP1 PUSH4 0x1EE9367C EQ PUSH2 0x243E JUMPI DUP1 PUSH4 0x2019A608 EQ PUSH2 0x2420 JUMPI DUP1 PUSH4 0x23A2B2ED EQ PUSH2 0x2393 JUMPI DUP1 PUSH4 0x3CFDE26C EQ PUSH2 0x228E JUMPI DUP1 PUSH4 0x4A2846A8 EQ PUSH2 0x2100 JUMPI DUP1 PUSH4 0x53DD128C EQ PUSH2 0x20D7 JUMPI DUP1 PUSH4 0x57F3A8E5 EQ PUSH2 0x1F5D JUMPI DUP1 PUSH4 0x59632C22 EQ PUSH2 0x1DD1 JUMPI DUP1 PUSH4 0x5B45CFCA EQ PUSH2 0x1CDE JUMPI DUP1 PUSH4 0x5F1BC34E EQ PUSH2 0x1CB5 JUMPI DUP1 PUSH4 0x60FC4E32 EQ PUSH2 0x1C28 JUMPI DUP1 PUSH4 0x6DD7D8EA EQ PUSH2 0x19FB JUMPI DUP1 PUSH4 0x71565D2E EQ PUSH2 0x148B JUMPI DUP1 PUSH4 0x79432DB5 EQ PUSH2 0x1350 JUMPI DUP1 PUSH4 0x7EB21B51 EQ PUSH2 0x11C0 JUMPI DUP1 PUSH4 0x82FF2AEB EQ PUSH2 0x1060 JUMPI DUP1 PUSH4 0x849C5657 EQ PUSH2 0x1037 JUMPI DUP1 PUSH4 0x85E8E7A7 EQ PUSH2 0xF56 JUMPI DUP1 PUSH4 0x8987CB32 EQ PUSH2 0xE4D JUMPI DUP1 PUSH4 0x8AB66A90 EQ PUSH2 0xD5A JUMPI DUP1 PUSH4 0x8DA5CB5B EQ PUSH2 0xD31 JUMPI DUP1 PUSH4 0x9E7A8145 EQ PUSH2 0xCEF JUMPI DUP1 PUSH4 0xA3EC138D EQ PUSH2 0xBF3 JUMPI DUP1 PUSH4 0xAC94BA4C EQ PUSH2 0xBD5 JUMPI DUP1 PUSH4 0xBAB912A2 EQ PUSH2 0xBB9 JUMPI DUP1 PUSH4 0xCD6CF311 EQ PUSH2 0x63A JUMPI DUP1 PUSH4 0xD28178D7 EQ PUSH2 0x60A JUMPI DUP1 PUSH4 0xDBF7BE47 EQ PUSH2 0x46F JUMPI DUP1 PUSH4 0xF33698F1 EQ PUSH2 0x34A JUMPI PUSH4 0xFAD761D3 EQ PUSH2 0x17C JUMPI PUSH1 0x0 DUP1 REVERT JUMPDEST CALLVALUE PUSH2 0x345 JUMPI PUSH2 0x18A CALLDATASIZE PUSH2 0x28B1 JUMP JUMPDEST SWAP1 PUSH2 0x1A0 PUSH1 0x1 DUP1 PUSH1 0xA0 SHL SUB PUSH1 0x0 SLOAD AND CALLER EQ PUSH2 0x2BA0 JUMP JUMPDEST PUSH1 0x1 DUP1 PUSH1 0xA0 SHL SUB AND DUP1 PUSH1 0x0 MSTORE PUSH1 0x7 PUSH1 0x20 MSTORE PUSH1 0x5 PUSH1 0x40 PUSH1 0x0 KECCAK256 PUSH1 0x7 DUP2 ADD PUSH2 0x1D0 PUSH1 0x1 DUP1 PUSH1 0xA0 SHL SUB DUP3 SLOAD AND ISZERO ISZERO PUSH2 0x2CB3 JUMP JUMPDEST DUP1 SLOAD PUSH1 0xFF PUSH1 0xA0 SHL NOT AND PUSH1 0x1 PUSH1 0xA0 SHL OR SWAP1 SSTORE DUP4 MLOAD SWAP2 ADD SWAP1 PUSH1 0x1 PUSH1 0x1 PUSH1 0x40 SHL SUB DUP2 GT PUSH2 0x277 JUMPI PUSH2 0x1FE DUP3 SLOAD PUSH2 0x295D JUMP JUMPDEST PUSH1 0x1F DUP2 GT PUSH2 0x2FD JUMPI JUMPDEST POP PUSH1 0x20 PUSH1 0x1F DUP3 GT PUSH1 0x1 EQ PUSH2 0x298 JUMPI DUP2 SWAP3 SWAP4 SWAP5 PUSH1 0x0 SWAP3 PUSH2 0x28D JUMPI JUMPDEST POP POP DUP2 PUSH1 0x1 SHL SWAP2 PUSH1 0x0 NOT SWAP1 PUSH1 0x3 SHL SHR NOT AND OR SWAP1 SSTORE JUMPDEST PUSH1 0xC SLOAD PUSH1 0x1 PUSH1 0x40 SHL DUP2 LT ISZERO PUSH2 0x277 JUMPI DUP1 PUSH1 0x1 PUSH2 0x257 SWAP3 ADD PUSH1 0xC SSTORE PUSH1 0xC PUSH2 0x25AB JUMP JUMPDEST DUP2 SLOAD PUSH1 0x1 PUSH1 0x1 PUSH1 0xA0 SHL SUB PUSH1 0x3 SWAP3 SWAP1 SWAP3 SHL SWAP2 DUP3 SHL NOT AND SWAP3 SWAP1 SHL SWAP2 SWAP1 SWAP2 OR SWAP1 SSTORE STOP JUMPDEST PUSH4 0x4E487B71 PUSH1 0xE0 SHL PUSH1 0x0 MSTORE PUSH1 0x41 PUSH1 0x4 MSTORE PUSH1 0x24 PUSH1 0x0 REVERT JUMPDEST ADD MLOAD SWAP1 POP CODESIZE DUP1 PUSH2 0x221 JUMP JUMPDEST PUSH1 0x1F NOT DUP3 AND SWAP1 DUP4 PUSH1 0x0 MSTORE DUP1 PUSH1 0x0 KECCAK256 SWAP2 PUSH1 0x0 JUMPDEST DUP2 DUP2 LT PUSH2 0x2E5 JUMPI POP SWAP6 DUP4 PUSH1 0x1 SWAP6 SWAP7 SWAP8 LT PUSH2 0x2CC JUMPI JUMPDEST POP POP POP DUP2 SHL ADD SWAP1 SSTORE PUSH2 0x236 JUMP JUMPDEST ADD MLOAD PUSH1 0x0 NOT PUSH1 0xF8 DUP5 PUSH1 0x3 SHL AND SHR NOT AND SWAP1 SSTORE CODESIZE DUP1 DUP1 PUSH2 0x2BF JUMP JUMPDEST SWAP2 SWAP3 PUSH1 0x20 PUSH1 0x1 DUP2 SWAP3 DUP7 DUP12 ADD MLOAD DUP2 SSTORE ADD SWAP5 ADD SWAP3 ADD PUSH2 0x2AA JUMP JUMPDEST DUP3 PUSH1 0x0 MSTORE PUSH1 0x20 PUSH1 0x0 KECCAK256 PUSH1 0x1F DUP4 ADD PUSH1 0x5 SHR DUP2 ADD SWAP2 PUSH1 0x20 DUP5 LT PUSH2 0x33B JUMPI JUMPDEST PUSH1 0x1F ADD PUSH1 0x5 SHR ADD SWAP1 JUMPDEST DUP2 DUP2 LT PUSH2 0x32F JUMPI POP PUSH2 0x207 JUMP JUMPDEST PUSH1 0x0 DUP2 SSTORE PUSH1 0x1 ADD PUSH2 0x322 JUMP JUMPDEST SWAP1 SWAP2 POP DUP2 SWAP1 PUSH2 0x319 JUMP JUMPDEST PUSH1 0x0 DUP1 REVERT JUMPDEST CALLVALUE PUSH2 0x345 JUMPI PUSH1 0x40 CALLDATASIZE PUSH1 0x3 NOT ADD SLT PUSH2 0x345 JUMPI PUSH1 0x4 CALLDATALOAD PUSH1 0x24 CALLDATALOAD SWAP1 PUSH2 0x377 PUSH1 0x1 DUP1 PUSH1 0xA0 SHL SUB PUSH1 0x0 SLOAD AND CALLER EQ PUSH2 0x2BA0 JUMP JUMPDEST PUSH1 0x2 SLOAD PUSH2 0x42A JUMPI TIMESTAMP DUP2 GT ISZERO PUSH2 0x3E6 JUMPI DUP2 DUP2 LT ISZERO PUSH2 0x396 JUMPI PUSH1 0x2 SSTORE PUSH1 0x3 SSTORE STOP JUMPDEST PUSH1 0x40 MLOAD PUSH3 0x461BCD PUSH1 0xE5 SHL DUP2 MSTORE PUSH1 0x20 PUSH1 0x4 DUP3 ADD MSTORE PUSH1 0x22 PUSH1 0x24 DUP3 ADD MSTORE PUSH32 0x53746172742074696D65206D757374206265206265666F726520656E64207469 PUSH1 0x44 DUP3 ADD MSTORE PUSH2 0x6D65 PUSH1 0xF0 SHL PUSH1 0x64 DUP3 ADD MSTORE PUSH1 0x84 SWAP1 REVERT JUMPDEST PUSH1 0x64 PUSH1 0x40 MLOAD PUSH3 0x461BCD PUSH1 0xE5 SHL DUP2 MSTORE PUSH1 0x20 PUSH1 0x4 DUP3 ADD MSTORE PUSH1 0x20 PUSH1 0x24 DUP3 ADD MSTORE PUSH32 0x53746172742074696D65206D75737420626520696E2074686520667574757265 PUSH1 0x44 DUP3 ADD MSTORE REVERT JUMPDEST PUSH1 0x40 MLOAD PUSH3 0x461BCD PUSH1 0xE5 SHL DUP2 MSTORE PUSH1 0x20 PUSH1 0x4 DUP3 ADD MSTORE PUSH1 0x18 PUSH1 0x24 DUP3 ADD MSTORE PUSH32 0x566F74696E6720616C7265616479207363686564756C65640000000000000000 PUSH1 0x44 DUP3 ADD MSTORE PUSH1 0x64 SWAP1 REVERT JUMPDEST CALLVALUE PUSH2 0x345 JUMPI PUSH1 0x20 CALLDATASIZE PUSH1 0x3 NOT ADD SLT PUSH2 0x345 JUMPI PUSH2 0x488 PUSH2 0x2808 JUMP JUMPDEST PUSH2 0x490 PUSH2 0x2A52 JUMP JUMPDEST POP PUSH1 0x1 DUP1 PUSH1 0xA0 SHL SUB AND PUSH1 0x0 MSTORE PUSH1 0x8 PUSH1 0x20 MSTORE PUSH1 0x40 PUSH1 0x0 KECCAK256 PUSH1 0x7 PUSH1 0x40 MLOAD SWAP2 PUSH2 0x4B5 DUP4 PUSH2 0x281E JUMP JUMPDEST PUSH2 0x4BE DUP2 PUSH2 0x2997 JUMP JUMPDEST DUP4 MSTORE PUSH2 0x4CC PUSH1 0x1 DUP3 ADD PUSH2 0x2997 JUMP JUMPDEST PUSH1 0x20 DUP5 ADD MSTORE PUSH1 0x2 DUP2 ADD SLOAD PUSH1 0x40 DUP5 ADD MSTORE PUSH2 0x4E7 PUSH1 0x3 DUP3 ADD PUSH2 0x2997 JUMP JUMPDEST PUSH1 0x60 DUP5 ADD MSTORE PUSH2 0x4F8 PUSH1 0x4 DUP3 ADD PUSH2 0x2997 JUMP JUMPDEST PUSH1 0x80 DUP5 ADD MSTORE PUSH1 0x5 DUP2 ADD SLOAD PUSH1 0xA0 DUP5 ADD MSTORE PUSH1 0x6 DUP2 ADD SLOAD PUSH1 0xC0 DUP5 ADD MSTORE ADD SLOAD PUSH1 0xE0 DUP3 ADD PUSH1 0x1 DUP1 PUSH1 0xA0 SHL SUB DUP3 AND DUP2 MSTORE PUSH2 0x537 PUSH1 0xFF PUSH2 0x100 DUP6 ADD SWAP4 PUSH1 0xA0 SHR AND DUP4 PUSH2 0x2AFD JUMP JUMPDEST MLOAD PUSH1 0x1 PUSH1 0x1 PUSH1 0xA0 SHL SUB AND ISZERO PUSH2 0x5CF JUMPI MLOAD PUSH1 0x3 DUP2 LT ISZERO PUSH2 0x5B9 JUMPI PUSH1 0x0 NOT ADD PUSH2 0x574 JUMPI PUSH2 0x570 SWAP1 PUSH1 0x40 MLOAD SWAP2 DUP3 SWAP2 PUSH1 0x20 DUP4 MSTORE PUSH1 0x20 DUP4 ADD SWAP1 PUSH2 0x2611 JUMP JUMPDEST SUB SWAP1 RETURN JUMPDEST PUSH1 0x40 MLOAD PUSH3 0x461BCD PUSH1 0xE5 SHL DUP2 MSTORE PUSH1 0x20 PUSH1 0x4 DUP3 ADD MSTORE PUSH1 0x19 PUSH1 0x24 DUP3 ADD MSTORE PUSH32 0x43616E646964617465206973206E6F7420616363657074656400000000000000 PUSH1 0x44 DUP3 ADD MSTORE PUSH1 0x64 SWAP1 REVERT JUMPDEST PUSH4 0x4E487B71 PUSH1 0xE0 SHL PUSH1 0x0 MSTORE PUSH1 0x21 PUSH1 0x4 MSTORE PUSH1 0x24 PUSH1 0x0 REVERT JUMPDEST PUSH1 0x40 MLOAD PUSH3 0x461BCD PUSH1 0xE5 SHL DUP2 MSTORE PUSH1 0x20 PUSH1 0x4 DUP3 ADD MSTORE PUSH1 0x13 PUSH1 0x24 DUP3 ADD MSTORE PUSH19 0x10D85B991A59185D19481B9BDD08199BDD5B99 PUSH1 0x6A SHL PUSH1 0x44 DUP3 ADD MSTORE PUSH1 0x64 SWAP1 REVERT JUMPDEST CALLVALUE PUSH2 0x345 JUMPI PUSH1 0x0 CALLDATASIZE PUSH1 0x3 NOT ADD SLT PUSH2 0x345 JUMPI PUSH2 0x570 PUSH2 0x626 PUSH2 0x2E0C JUMP JUMPDEST PUSH1 0x40 MLOAD SWAP2 DUP3 SWAP2 PUSH1 0x20 DUP4 MSTORE PUSH1 0x20 DUP4 ADD SWAP1 PUSH2 0x2611 JUMP JUMPDEST CALLVALUE PUSH2 0x345 JUMPI PUSH2 0x648 CALLDATASIZE PUSH2 0x28F0 JUMP JUMPDEST PUSH1 0x6 SWAP4 SWAP2 SWAP4 SLOAD PUSH1 0x40 MLOAD SWAP2 PUSH2 0x65B DUP4 PUSH2 0x281E JUMP JUMPDEST PUSH1 0x0 DUP4 MSTORE PUSH1 0x20 DUP4 ADD SWAP4 DUP5 MSTORE PUSH1 0x40 DUP4 ADD SWAP5 DUP6 MSTORE PUSH1 0x60 DUP4 ADD SWAP6 DUP7 MSTORE PUSH1 0x80 DUP4 ADD SWAP1 DUP2 MSTORE PUSH2 0x683 PUSH2 0x2C22 JUMP JUMPDEST SWAP6 PUSH1 0xA0 DUP5 ADD SWAP7 DUP8 MSTORE PUSH1 0xC0 DUP5 ADD SWAP3 DUP4 MSTORE PUSH1 0xE0 DUP5 ADD SWAP6 CALLER DUP8 MSTORE PUSH2 0x100 DUP6 ADD SWAP6 PUSH1 0x0 DUP8 MSTORE CALLER PUSH1 0x0 MSTORE PUSH1 0x7 PUSH1 0x20 MSTORE PUSH1 0x40 PUSH1 0x0 KECCAK256 SWAP6 MLOAD ISZERO ISZERO PUSH1 0xFF DUP1 NOT DUP9 SLOAD AND SWAP2 AND OR DUP7 SSTORE PUSH1 0x1 DUP7 ADD SWAP1 MLOAD DUP1 MLOAD SWAP1 PUSH1 0x1 PUSH1 0x1 PUSH1 0x40 SHL SUB DUP3 GT PUSH2 0x277 JUMPI DUP2 SWAP1 PUSH2 0x6E5 DUP5 SLOAD PUSH2 0x295D JUMP JUMPDEST PUSH1 0x1F DUP2 GT PUSH2 0xB66 JUMPI JUMPDEST POP PUSH1 0x20 SWAP1 PUSH1 0x1F DUP4 GT PUSH1 0x1 EQ PUSH2 0xB01 JUMPI PUSH1 0x0 SWAP3 PUSH2 0xAF6 JUMPI JUMPDEST POP POP DUP2 PUSH1 0x1 SHL SWAP2 PUSH1 0x0 NOT SWAP1 PUSH1 0x3 SHL SHR NOT AND OR SWAP1 SSTORE JUMPDEST MLOAD PUSH1 0x2 DUP6 ADD SSTORE MLOAD DUP1 MLOAD PUSH1 0x3 DUP6 ADD SWAP2 PUSH1 0x1 PUSH1 0x1 PUSH1 0x40 SHL SUB DUP3 GT PUSH2 0x277 JUMPI DUP2 SWAP1 PUSH2 0x742 DUP5 SLOAD PUSH2 0x295D JUMP JUMPDEST PUSH1 0x1F DUP2 GT PUSH2 0xAA3 JUMPI JUMPDEST POP PUSH1 0x20 SWAP1 PUSH1 0x1F DUP4 GT PUSH1 0x1 EQ PUSH2 0xA3E JUMPI PUSH1 0x0 SWAP3 PUSH2 0xA33 JUMPI JUMPDEST POP POP DUP2 PUSH1 0x1 SHL SWAP2 PUSH1 0x0 NOT SWAP1 PUSH1 0x3 SHL SHR NOT AND OR SWAP1 SSTORE JUMPDEST MLOAD DUP1 MLOAD PUSH1 0x4 DUP5 ADD SWAP2 PUSH1 0x1 PUSH1 0x1 PUSH1 0x40 SHL SUB DUP3 GT PUSH2 0x277 JUMPI DUP2 SWAP1 PUSH2 0x799 DUP5 SLOAD PUSH2 0x295D JUMP JUMPDEST PUSH1 0x1F DUP2 GT PUSH2 0x9E0 JUMPI JUMPDEST POP PUSH1 0x20 SWAP1 PUSH1 0x1F DUP4 GT PUSH1 0x1 EQ PUSH2 0x97B JUMPI PUSH1 0x0 SWAP3 PUSH2 0x970 JUMPI JUMPDEST POP POP DUP2 PUSH1 0x1 SHL SWAP2 PUSH1 0x0 NOT SWAP1 PUSH1 0x3 SHL SHR NOT AND OR SWAP1 SSTORE JUMPDEST PUSH1 0x5 DUP3 ADD SWAP5 MLOAD SWAP5 DUP6 MLOAD PUSH1 0x1 PUSH1 0x1 PUSH1 0x40 SHL SUB DUP2 GT PUSH2 0x277 JUMPI PUSH2 0x7EF DUP3 SLOAD PUSH2 0x295D JUMP JUMPDEST PUSH1 0x1F DUP2 GT PUSH2 0x928 JUMPI JUMPDEST POP PUSH1 0x20 PUSH1 0x1F DUP3 GT PUSH1 0x1 EQ PUSH2 0x8BE JUMPI DUP2 SWAP1 PUSH1 0x7 SWAP7 SWAP8 SWAP9 PUSH1 0x0 SWAP3 PUSH2 0x8B3 JUMPI JUMPDEST POP POP DUP2 PUSH1 0x1 SHL SWAP2 PUSH1 0x0 NOT SWAP1 PUSH1 0x3 SHL SHR NOT AND OR SWAP1 SSTORE JUMPDEST MLOAD PUSH1 0x6 DUP3 ADD SSTORE SWAP3 MLOAD SWAP3 ADD DUP1 SLOAD PUSH1 0x1 PUSH1 0x1 PUSH1 0xA0 SHL SUB NOT AND PUSH1 0x1 PUSH1 0x1 PUSH1 0xA0 SHL SUB SWAP4 SWAP1 SWAP4 AND SWAP3 SWAP1 SWAP3 OR DUP3 SSTORE MLOAD PUSH1 0x3 DUP2 LT ISZERO PUSH2 0x5B9 JUMPI PUSH2 0x865 SWAP2 PUSH2 0x2BD9 JUMP JUMPDEST PUSH1 0xA SLOAD PUSH1 0x1 PUSH1 0x40 SHL DUP2 LT ISZERO PUSH2 0x277 JUMPI DUP1 PUSH1 0x1 PUSH2 0x886 SWAP3 ADD PUSH1 0xA SSTORE PUSH1 0xA PUSH2 0x25AB JUMP JUMPDEST DUP2 SLOAD PUSH1 0x1 PUSH1 0x1 PUSH1 0xA0 SHL SUB PUSH1 0x3 SWAP3 SWAP1 SWAP3 SHL SWAP2 DUP3 SHL NOT AND CALLER SWAP1 SWAP2 SHL OR SWAP1 SSTORE PUSH1 0x6 SLOAD PUSH2 0x8AE SWAP1 PUSH2 0x2BFD JUMP JUMPDEST PUSH1 0x6 SSTORE STOP JUMPDEST ADD MLOAD SWAP1 POP DUP9 DUP1 PUSH2 0x815 JUMP JUMPDEST PUSH1 0x1F NOT DUP3 AND SWAP8 DUP4 PUSH1 0x0 MSTORE DUP2 PUSH1 0x0 KECCAK256 SWAP9 PUSH1 0x0 JUMPDEST DUP2 DUP2 LT PUSH2 0x910 JUMPI POP SWAP2 PUSH1 0x7 SWAP8 SWAP9 SWAP10 SWAP2 DUP5 PUSH1 0x1 SWAP6 SWAP5 LT PUSH2 0x8F7 JUMPI JUMPDEST POP POP POP DUP2 SHL ADD SWAP1 SSTORE PUSH2 0x82A JUMP JUMPDEST ADD MLOAD PUSH1 0x0 NOT PUSH1 0xF8 DUP5 PUSH1 0x3 SHL AND SHR NOT AND SWAP1 SSTORE DUP9 DUP1 DUP1 PUSH2 0x8EA JUMP JUMPDEST DUP4 DUP4 ADD MLOAD DUP12 SSTORE PUSH1 0x1 SWAP1 SWAP11 ADD SWAP10 PUSH1 0x20 SWAP4 DUP5 ADD SWAP4 ADD PUSH2 0x8D0 JUMP JUMPDEST DUP3 PUSH1 0x0 MSTORE PUSH1 0x20 PUSH1 0x0 KECCAK256 PUSH1 0x1F DUP4 ADD PUSH1 0x5 SHR DUP2 ADD SWAP2 PUSH1 0x20 DUP5 LT PUSH2 0x966 JUMPI JUMPDEST PUSH1 0x1F ADD PUSH1 0x5 SHR ADD SWAP1 JUMPDEST DUP2 DUP2 LT PUSH2 0x95A JUMPI POP PUSH2 0x7F8 JUMP JUMPDEST PUSH1 0x0 DUP2 SSTORE PUSH1 0x1 ADD PUSH2 0x94D JUMP JUMPDEST SWAP1 SWAP2 POP DUP2 SWAP1 PUSH2 0x944 JUMP JUMPDEST ADD MLOAD SWAP1 POP DUP9 DUP1 PUSH2 0x7B9 JUMP JUMPDEST PUSH1 0x0 DUP6 DUP2 MSTORE DUP3 DUP2 KECCAK256 SWAP4 POP PUSH1 0x1F NOT DUP6 AND SWAP1 JUMPDEST DUP2 DUP2 LT PUSH2 0x9C8 JUMPI POP SWAP1 DUP5 PUSH1 0x1 SWAP6 SWAP5 SWAP4 SWAP3 LT PUSH2 0x9AF JUMPI JUMPDEST POP POP POP DUP2 SHL ADD SWAP1 SSTORE PUSH2 0x7CE JUMP JUMPDEST ADD MLOAD PUSH1 0x0 NOT PUSH1 0xF8 DUP5 PUSH1 0x3 SHL AND SHR NOT AND SWAP1 SSTORE DUP9 DUP1 DUP1 PUSH2 0x9A2 JUMP JUMPDEST SWAP3 SWAP4 PUSH1 0x20 PUSH1 0x1 DUP2 SWAP3 DUP8 DUP7 ADD MLOAD DUP2 SSTORE ADD SWAP6 ADD SWAP4 ADD PUSH2 0x98C JUMP JUMPDEST SWAP1 SWAP2 POP DUP4 PUSH1 0x0 MSTORE PUSH1 0x20 PUSH1 0x0 KECCAK256 PUSH1 0x1F DUP5 ADD PUSH1 0x5 SHR DUP2 ADD SWAP2 PUSH1 0x20 DUP6 LT PUSH2 0xA29 JUMPI JUMPDEST SWAP1 PUSH1 0x1F DUP6 SWAP5 SWAP4 SWAP3 ADD PUSH1 0x5 SHR ADD SWAP1 JUMPDEST DUP2 DUP2 LT PUSH2 0xA1A JUMPI POP PUSH2 0x7A2 JUMP JUMPDEST PUSH1 0x0 DUP2 SSTORE DUP5 SWAP4 POP PUSH1 0x1 ADD PUSH2 0xA0D JUMP JUMPDEST SWAP1 SWAP2 POP DUP2 SWAP1 PUSH2 0x9FF JUMP JUMPDEST ADD MLOAD SWAP1 POP DUP10 DUP1 PUSH2 0x762 JUMP JUMPDEST PUSH1 0x0 DUP6 DUP2 MSTORE DUP3 DUP2 KECCAK256 SWAP4 POP PUSH1 0x1F NOT DUP6 AND SWAP1 JUMPDEST DUP2 DUP2 LT PUSH2 0xA8B JUMPI POP SWAP1 DUP5 PUSH1 0x1 SWAP6 SWAP5 SWAP4 SWAP3 LT PUSH2 0xA72 JUMPI JUMPDEST POP POP POP DUP2 SHL ADD SWAP1 SSTORE PUSH2 0x777 JUMP JUMPDEST ADD MLOAD PUSH1 0x0 NOT PUSH1 0xF8 DUP5 PUSH1 0x3 SHL AND SHR NOT AND SWAP1 SSTORE DUP10 DUP1 DUP1 PUSH2 0xA65 JUMP JUMPDEST SWAP3 SWAP4 PUSH1 0x20 PUSH1 0x1 DUP2 SWAP3 DUP8 DUP7 ADD MLOAD DUP2 SSTORE ADD SWAP6 ADD SWAP4 ADD PUSH2 0xA4F JUMP JUMPDEST SWAP1 SWAP2 POP DUP4 PUSH1 0x0 MSTORE PUSH1 0x20 PUSH1 0x0 KECCAK256 PUSH1 0x1F DUP5 ADD PUSH1 0x5 SHR DUP2 ADD SWAP2 PUSH1 0x20 DUP6 LT PUSH2 0xAEC JUMPI JUMPDEST SWAP1 PUSH1 0x1F DUP6 SWAP5 SWAP4 SWAP3 ADD PUSH1 0x5 SHR ADD SWAP1 JUMPDEST DUP2 DUP2 LT PUSH2 0xADD JUMPI POP PUSH2 0x74B JUMP JUMPDEST PUSH1 0x0 DUP2 SSTORE DUP5 SWAP4 POP PUSH1 0x1 ADD PUSH2 0xAD0 JUMP JUMPDEST SWAP1 SWAP2 POP DUP2 SWAP1 PUSH2 0xAC2 JUMP JUMPDEST ADD MLOAD SWAP1 POP DUP12 DUP1 PUSH2 0x705 JUMP JUMPDEST PUSH1 0x0 DUP6 DUP2 MSTORE DUP3 DUP2 KECCAK256 SWAP4 POP PUSH1 0x1F NOT DUP6 AND SWAP1 JUMPDEST DUP2 DUP2 LT PUSH2 0xB4E JUMPI POP SWAP1 DUP5 PUSH1 0x1 SWAP6 SWAP5 SWAP4 SWAP3 LT PUSH2 0xB35 JUMPI JUMPDEST POP POP POP DUP2 SHL ADD SWAP1 SSTORE PUSH2 0x71A JUMP JUMPDEST ADD MLOAD PUSH1 0x0 NOT PUSH1 0xF8 DUP5 PUSH1 0x3 SHL AND SHR NOT AND SWAP1 SSTORE DUP12 DUP1 DUP1 PUSH2 0xB28 JUMP JUMPDEST SWAP3 SWAP4 PUSH1 0x20 PUSH1 0x1 DUP2 SWAP3 DUP8 DUP7 ADD MLOAD DUP2 SSTORE ADD SWAP6 ADD SWAP4 ADD PUSH2 0xB12 JUMP JUMPDEST SWAP1 SWAP2 POP DUP4 PUSH1 0x0 MSTORE PUSH1 0x20 PUSH1 0x0 KECCAK256 PUSH1 0x1F DUP5 ADD PUSH1 0x5 SHR DUP2 ADD SWAP2 PUSH1 0x20 DUP6 LT PUSH2 0xBAF JUMPI JUMPDEST SWAP1 PUSH1 0x1F DUP6 SWAP5 SWAP4 SWAP3 ADD PUSH1 0x5 SHR ADD SWAP1 JUMPDEST DUP2 DUP2 LT PUSH2 0xBA0 JUMPI POP PUSH2 0x6EE JUMP JUMPDEST PUSH1 0x0 DUP2 SSTORE DUP5 SWAP4 POP PUSH1 0x1 ADD PUSH2 0xB93 JUMP JUMPDEST SWAP1 SWAP2 POP DUP2 SWAP1 PUSH2 0xB85 JUMP JUMPDEST CALLVALUE PUSH2 0x345 JUMPI PUSH1 0x0 CALLDATASIZE PUSH1 0x3 NOT ADD SLT PUSH2 0x345 JUMPI PUSH2 0x570 PUSH2 0x626 PUSH2 0x2D11 JUMP JUMPDEST CALLVALUE PUSH2 0x345 JUMPI PUSH1 0x0 CALLDATASIZE PUSH1 0x3 NOT ADD SLT PUSH2 0x345 JUMPI PUSH1 0x20 PUSH1 0x4 SLOAD PUSH1 0x40 MLOAD SWAP1 DUP2 MSTORE RETURN JUMPDEST CALLVALUE PUSH2 0x345 JUMPI PUSH1 0x20 CALLDATASIZE PUSH1 0x3 NOT ADD SLT PUSH2 0x345 JUMPI PUSH1 0x1 PUSH1 0x1 PUSH1 0xA0 SHL SUB PUSH2 0xC14 PUSH2 0x2808 JUMP JUMPDEST AND PUSH1 0x0 MSTORE PUSH1 0x7 PUSH1 0x20 MSTORE PUSH1 0x20 PUSH1 0x40 PUSH1 0x0 KECCAK256 PUSH1 0xFF DUP2 SLOAD AND SWAP1 PUSH2 0x570 PUSH2 0xC39 PUSH1 0x1 DUP4 ADD PUSH2 0x2997 JUMP JUMPDEST PUSH2 0xCC7 PUSH1 0x2 DUP5 ADD SLOAD PUSH2 0xCB9 PUSH2 0xC50 PUSH1 0x3 DUP8 ADD PUSH2 0x2997 JUMP JUMPDEST SWAP2 PUSH2 0xCAB PUSH2 0xC60 PUSH1 0x4 DUP10 ADD PUSH2 0x2997 JUMP JUMPDEST SWAP2 PUSH2 0xC6D PUSH1 0x5 DUP11 ADD PUSH2 0x2997 JUMP JUMPDEST SWAP5 PUSH2 0xC98 PUSH1 0x7 PUSH1 0x6 DUP13 ADD SLOAD SWAP12 ADD SLOAD SWAP9 PUSH2 0x120 PUSH1 0x40 MLOAD SWAP15 DUP16 SWAP15 DUP16 SWAP1 ISZERO ISZERO DUP2 MSTORE ADD MSTORE PUSH2 0x120 DUP14 ADD SWAP1 PUSH2 0x25C3 JUMP JUMPDEST SWAP2 PUSH1 0x40 DUP13 ADD MSTORE DUP11 DUP3 SUB PUSH1 0x60 DUP13 ADD MSTORE PUSH2 0x25C3 JUMP JUMPDEST SWAP1 DUP9 DUP3 SUB PUSH1 0x80 DUP11 ADD MSTORE PUSH2 0x25C3 JUMP JUMPDEST SWAP1 DUP7 DUP3 SUB PUSH1 0xA0 DUP9 ADD MSTORE PUSH2 0x25C3 JUMP JUMPDEST PUSH1 0xC0 DUP6 ADD SWAP4 SWAP1 SWAP4 MSTORE PUSH1 0x1 PUSH1 0x1 PUSH1 0xA0 SHL SUB DUP2 AND PUSH1 0xE0 DUP6 ADD MSTORE PUSH2 0x100 DUP5 ADD SWAP1 PUSH1 0xA0 SHR PUSH1 0xFF AND PUSH2 0x2604 JUMP JUMPDEST CALLVALUE PUSH2 0x345 JUMPI PUSH1 0x20 CALLDATASIZE PUSH1 0x3 NOT ADD SLT PUSH2 0x345 JUMPI PUSH1 0x4 CALLDATALOAD PUSH1 0xB SLOAD DUP2 LT ISZERO PUSH2 0x345 JUMPI PUSH2 0xD18 PUSH1 0x20 SWAP2 PUSH2 0x255A JUMP JUMPDEST SWAP1 SLOAD PUSH1 0x40 MLOAD PUSH1 0x3 SWAP3 SWAP1 SWAP3 SHL SHR PUSH1 0x1 PUSH1 0x1 PUSH1 0xA0 SHL SUB AND DUP2 MSTORE RETURN JUMPDEST CALLVALUE PUSH2 0x345 JUMPI PUSH1 0x0 CALLDATASIZE PUSH1 0x3 NOT ADD SLT PUSH2 0x345 JUMPI PUSH1 0x0 SLOAD PUSH1 0x40 MLOAD PUSH1 0x1 PUSH1 0x1 PUSH1 0xA0 SHL SUB SWAP1 SWAP2 AND DUP2 MSTORE PUSH1 0x20 SWAP1 RETURN JUMPDEST CALLVALUE PUSH2 0x345 JUMPI PUSH1 0x20 CALLDATASIZE PUSH1 0x3 NOT ADD SLT PUSH2 0x345 JUMPI PUSH1 0x1 PUSH1 0x1 PUSH1 0xA0 SHL SUB PUSH2 0xD7B PUSH2 0x2808 JUMP JUMPDEST AND PUSH1 0x0 MSTORE PUSH1 0x8 PUSH1 0x20 MSTORE PUSH1 0x40 PUSH1 0x0 KECCAK256 PUSH2 0x120 PUSH2 0xD95 DUP3 PUSH2 0x2997 JUMP JUMPDEST SWAP2 PUSH2 0x570 PUSH2 0xDA5 PUSH1 0x1 DUP4 ADD PUSH2 0x2997 JUMP JUMPDEST PUSH1 0x2 DUP4 ADD SLOAD SWAP3 PUSH2 0xE23 PUSH2 0xDBA PUSH1 0x3 DUP4 ADD PUSH2 0x2997 JUMP JUMPDEST SWAP5 PUSH2 0xE15 PUSH2 0xDCA PUSH1 0x4 DUP6 ADD PUSH2 0x2997 JUMP JUMPDEST SWAP2 PUSH1 0x5 DUP6 ADD SLOAD SWAP8 PUSH2 0xE02 PUSH1 0x7 PUSH1 0x6 DUP9 ADD SLOAD SWAP8 ADD SLOAD SWAP8 PUSH2 0xDF4 PUSH1 0x40 MLOAD SWAP14 DUP14 DUP16 SWAP15 DUP16 SWAP1 DUP2 MSTORE ADD SWAP1 PUSH2 0x25C3 JUMP JUMPDEST DUP13 DUP2 SUB PUSH1 0x20 DUP15 ADD MSTORE SWAP1 PUSH2 0x25C3 JUMP JUMPDEST SWAP2 PUSH1 0x40 DUP12 ADD MSTORE DUP10 DUP3 SUB PUSH1 0x60 DUP12 ADD MSTORE PUSH2 0x25C3 JUMP JUMPDEST SWAP1 DUP8 DUP3 SUB PUSH1 0x80 DUP10 ADD MSTORE PUSH2 0x25C3 JUMP JUMPDEST SWAP4 PUSH1 0xA0 DUP7 ADD MSTORE PUSH1 0xC0 DUP6 ADD MSTORE PUSH1 0x1 DUP1 PUSH1 0xA0 SHL SUB DUP2 AND PUSH1 0xE0 DUP6 ADD MSTORE PUSH1 0xFF PUSH2 0x100 DUP6 ADD SWAP2 PUSH1 0xA0 SHR AND PUSH2 0x2604 JUMP JUMPDEST CALLVALUE PUSH2 0x345 JUMPI PUSH1 0x0 CALLDATASIZE PUSH1 0x3 NOT ADD SLT PUSH2 0x345 JUMPI PUSH1 0xD SLOAD PUSH2 0xE6A DUP2 PUSH2 0x2B50 JUMP JUMPDEST SWAP1 PUSH1 0x0 JUMPDEST DUP2 DUP2 LT PUSH2 0xE83 JUMPI PUSH1 0x40 MLOAD DUP1 PUSH2 0x570 DUP6 DUP3 PUSH2 0x27A8 JUMP JUMPDEST DUP1 PUSH2 0xE8F PUSH1 0x1 SWAP3 PUSH2 0x2575 JUMP JUMPDEST DUP4 DUP1 PUSH1 0xA0 SHL SUB SWAP2 SLOAD SWAP1 PUSH1 0x3 SHL SHR AND PUSH1 0x0 MSTORE PUSH1 0x7 PUSH1 0x20 MSTORE PUSH1 0x40 PUSH1 0x0 KECCAK256 PUSH2 0xF3A PUSH1 0xFF PUSH1 0x7 PUSH1 0x40 MLOAD SWAP4 PUSH2 0xEBE DUP6 PUSH2 0x281E JUMP JUMPDEST DUP3 DUP2 SLOAD AND ISZERO ISZERO DUP6 MSTORE PUSH2 0xED1 DUP8 DUP3 ADD PUSH2 0x2997 JUMP JUMPDEST PUSH1 0x20 DUP7 ADD MSTORE PUSH1 0x2 DUP2 ADD SLOAD PUSH1 0x40 DUP7 ADD MSTORE PUSH2 0xEEC PUSH1 0x3 DUP3 ADD PUSH2 0x2997 JUMP JUMPDEST PUSH1 0x60 DUP7 ADD MSTORE PUSH2 0xEFD PUSH1 0x4 DUP3 ADD PUSH2 0x2997 JUMP JUMPDEST PUSH1 0x80 DUP7 ADD MSTORE PUSH2 0xF0E PUSH1 0x5 DUP3 ADD PUSH2 0x2997 JUMP JUMPDEST PUSH1 0xA0 DUP7 ADD MSTORE PUSH1 0x6 DUP2 ADD SLOAD PUSH1 0xC0 DUP7 ADD MSTORE ADD SLOAD DUP6 DUP1 PUSH1 0xA0 SHL SUB DUP2 AND PUSH1 0xE0 DUP6 ADD MSTORE PUSH1 0xA0 SHR AND PUSH2 0x100 DUP4 ADD PUSH2 0x2AFD JUMP JUMPDEST PUSH2 0xF44 DUP3 DUP7 PUSH2 0x2AE9 JUMP JUMPDEST MSTORE PUSH2 0xF4F DUP2 DUP6 PUSH2 0x2AE9 JUMP JUMPDEST POP ADD PUSH2 0xE6E JUMP JUMPDEST CALLVALUE PUSH2 0x345 JUMPI PUSH1 0x0 CALLDATASIZE PUSH1 0x3 NOT ADD SLT PUSH2 0x345 JUMPI PUSH1 0x40 MLOAD PUSH1 0x0 PUSH1 0x1 SLOAD PUSH2 0xF78 DUP2 PUSH2 0x295D JUMP JUMPDEST DUP1 DUP5 MSTORE SWAP1 PUSH1 0x1 DUP2 AND SWAP1 DUP2 ISZERO PUSH2 0x1013 JUMPI POP PUSH1 0x1 EQ PUSH2 0xFB4 JUMPI JUMPDEST PUSH2 0x570 DUP4 PUSH2 0xFA0 DUP2 DUP6 SUB DUP3 PUSH2 0x283A JUMP JUMPDEST PUSH1 0x40 MLOAD SWAP2 DUP3 SWAP2 PUSH1 0x20 DUP4 MSTORE PUSH1 0x20 DUP4 ADD SWAP1 PUSH2 0x25C3 JUMP JUMPDEST PUSH1 0x1 PUSH1 0x0 SWAP1 DUP2 MSTORE PUSH32 0xB10E2D527612073B26EECDFD717E6A320CF44B4AFAC2B0732D9FCBE2B7FA0CF6 SWAP4 SWAP3 POP SWAP1 JUMPDEST DUP1 DUP3 LT PUSH2 0xFF9 JUMPI POP SWAP1 SWAP2 POP DUP2 ADD PUSH1 0x20 ADD PUSH2 0xFA0 PUSH2 0xF90 JUMP JUMPDEST SWAP2 SWAP3 PUSH1 0x1 DUP2 PUSH1 0x20 SWAP3 SLOAD DUP4 DUP6 DUP9 ADD ADD MSTORE ADD SWAP2 ADD SWAP1 SWAP3 SWAP2 PUSH2 0xFE1 JUMP JUMPDEST PUSH1 0xFF NOT AND PUSH1 0x20 DUP1 DUP7 ADD SWAP2 SWAP1 SWAP2 MSTORE SWAP2 ISZERO ISZERO PUSH1 0x5 SHL DUP5 ADD SWAP1 SWAP2 ADD SWAP2 POP PUSH2 0xFA0 SWAP1 POP PUSH2 0xF90 JUMP JUMPDEST CALLVALUE PUSH2 0x345 JUMPI PUSH1 0x20 CALLDATASIZE PUSH1 0x3 NOT ADD SLT PUSH2 0x345 JUMPI PUSH1 0x4 CALLDATALOAD PUSH1 0xA SLOAD DUP2 LT ISZERO PUSH2 0x345 JUMPI PUSH2 0xD18 PUSH1 0x20 SWAP2 PUSH2 0x2590 JUMP JUMPDEST CALLVALUE PUSH2 0x345 JUMPI PUSH1 0x20 CALLDATASIZE PUSH1 0x3 NOT ADD SLT PUSH2 0x345 JUMPI PUSH1 0x4 CALLDATALOAD PUSH1 0x1 PUSH1 0x1 PUSH1 0x40 SHL SUB DUP2 GT PUSH2 0x345 JUMPI PUSH2 0x1090 SWAP1 CALLDATASIZE SWAP1 PUSH1 0x4 ADD PUSH2 0x285B JUMP JUMPDEST CALLER PUSH1 0x0 MSTORE PUSH1 0x7 PUSH1 0x20 MSTORE PUSH1 0x1 PUSH1 0x40 PUSH1 0x0 KECCAK256 PUSH2 0x10B6 DUP3 DUP1 PUSH1 0xA0 SHL SUB PUSH1 0x7 DUP4 ADD SLOAD AND ISZERO ISZERO PUSH2 0x2C67 JUMP JUMPDEST ADD DUP2 MLOAD PUSH1 0x1 PUSH1 0x1 PUSH1 0x40 SHL SUB DUP2 GT PUSH2 0x277 JUMPI PUSH2 0x10D1 DUP3 SLOAD PUSH2 0x295D JUMP JUMPDEST PUSH1 0x1F DUP2 GT PUSH2 0x1178 JUMPI JUMPDEST POP PUSH1 0x20 SWAP3 PUSH1 0x1F DUP3 GT PUSH1 0x1 EQ PUSH2 0x1118 JUMPI SWAP3 DUP2 SWAP3 SWAP4 PUSH1 0x0 SWAP3 PUSH2 0x110D JUMPI JUMPDEST POP POP PUSH1 0x0 NOT PUSH1 0x3 DUP4 SWAP1 SHL SHR NOT AND PUSH1 0x1 SWAP2 SWAP1 SWAP2 SHL OR SWAP1 SSTORE STOP JUMPDEST ADD MLOAD SWAP1 POP DUP4 DUP1 PUSH2 0x10F5 JUMP JUMPDEST PUSH1 0x1F NOT DUP3 AND SWAP4 DUP4 PUSH1 0x0 MSTORE DUP1 PUSH1 0x0 KECCAK256 SWAP2 PUSH1 0x0 JUMPDEST DUP7 DUP2 LT PUSH2 0x1160 JUMPI POP DUP4 PUSH1 0x1 SWAP6 SWAP7 LT PUSH2 0x1147 JUMPI JUMPDEST POP POP POP DUP2 SHL ADD SWAP1 SSTORE STOP JUMPDEST ADD MLOAD PUSH1 0x0 NOT PUSH1 0xF8 DUP5 PUSH1 0x3 SHL AND SHR NOT AND SWAP1 SSTORE DUP4 DUP1 DUP1 PUSH2 0x113D JUMP JUMPDEST SWAP2 SWAP3 PUSH1 0x20 PUSH1 0x1 DUP2 SWAP3 DUP7 DUP6 ADD MLOAD DUP2 SSTORE ADD SWAP5 ADD SWAP3 ADD PUSH2 0x112A JUMP JUMPDEST DUP3 PUSH1 0x0 MSTORE PUSH1 0x20 PUSH1 0x0 KECCAK256 PUSH1 0x1F DUP4 ADD PUSH1 0x5 SHR DUP2 ADD SWAP2 PUSH1 0x20 DUP5 LT PUSH2 0x11B6 JUMPI JUMPDEST PUSH1 0x1F ADD PUSH1 0x5 SHR ADD SWAP1 JUMPDEST DUP2 DUP2 LT PUSH2 0x11AA JUMPI POP PUSH2 0x10DA JUMP JUMPDEST PUSH1 0x0 DUP2 SSTORE PUSH1 0x1 ADD PUSH2 0x119D JUMP JUMPDEST SWAP1 SWAP2 POP DUP2 SWAP1 PUSH2 0x1194 JUMP JUMPDEST CALLVALUE PUSH2 0x345 JUMPI PUSH2 0x11CE CALLDATASIZE PUSH2 0x28B1 JUMP JUMPDEST SWAP1 PUSH2 0x11E4 PUSH1 0x1 DUP1 PUSH1 0xA0 SHL SUB PUSH1 0x0 SLOAD AND CALLER EQ PUSH2 0x2BA0 JUMP JUMPDEST PUSH1 0x1 PUSH1 0x1 PUSH1 0xA0 SHL SUB SWAP1 DUP2 AND PUSH1 0x0 DUP2 DUP2 MSTORE PUSH1 0x8 PUSH1 0x20 MSTORE PUSH1 0x40 SWAP1 KECCAK256 PUSH1 0x7 DUP2 ADD DUP1 SLOAD SWAP3 SWAP4 PUSH1 0x1 SWAP4 PUSH2 0x1214 SWAP2 AND ISZERO ISZERO PUSH2 0x2CB3 JUMP JUMPDEST DUP3 PUSH1 0xA0 SHL PUSH1 0xFF PUSH1 0xA0 SHL NOT DUP3 SLOAD AND OR SWAP1 SSTORE ADD DUP3 MLOAD PUSH1 0x1 PUSH1 0x1 PUSH1 0x40 SHL SUB DUP2 GT PUSH2 0x277 JUMPI PUSH2 0x123F DUP3 SLOAD PUSH2 0x295D JUMP JUMPDEST PUSH1 0x1F DUP2 GT PUSH2 0x1308 JUMPI JUMPDEST POP PUSH1 0x20 PUSH1 0x1F DUP3 GT PUSH1 0x1 EQ PUSH2 0x12A3 JUMPI DUP2 SWAP3 SWAP4 SWAP5 PUSH1 0x0 SWAP3 PUSH2 0x1298 JUMPI JUMPDEST POP POP DUP2 PUSH1 0x1 SHL SWAP2 PUSH1 0x0 NOT SWAP1 PUSH1 0x3 SHL SHR NOT AND OR SWAP1 SSTORE JUMPDEST PUSH1 0xB SLOAD PUSH1 0x1 PUSH1 0x40 SHL DUP2 LT ISZERO PUSH2 0x277 JUMPI DUP1 PUSH1 0x1 PUSH2 0x257 SWAP3 ADD PUSH1 0xB SSTORE PUSH1 0xB PUSH2 0x25AB JUMP JUMPDEST ADD MLOAD SWAP1 POP DUP5 DUP1 PUSH2 0x1262 JUMP JUMPDEST PUSH1 0x1F NOT DUP3 AND SWAP1 DUP4 PUSH1 0x0 MSTORE DUP1 PUSH1 0x0 KECCAK256 SWAP2 PUSH1 0x0 JUMPDEST DUP2 DUP2 LT PUSH2 0x12F0 JUMPI POP SWAP6 DUP4 PUSH1 0x1 SWAP6 SWAP7 SWAP8 LT PUSH2 0x12D7 JUMPI JUMPDEST POP POP POP DUP2 SHL ADD SWAP1 SSTORE PUSH2 0x1277 JUMP JUMPDEST ADD MLOAD PUSH1 0x0 NOT PUSH1 0xF8 DUP5 PUSH1 0x3 SHL AND SHR NOT AND SWAP1 SSTORE DUP5 DUP1 DUP1 PUSH2 0x12CA JUMP JUMPDEST SWAP2 SWAP3 PUSH1 0x20 PUSH1 0x1 DUP2 SWAP3 DUP7 DUP12 ADD MLOAD DUP2 SSTORE ADD SWAP5 ADD SWAP3 ADD PUSH2 0x12B5 JUMP JUMPDEST DUP3 PUSH1 0x0 MSTORE PUSH1 0x20 PUSH1 0x0 KECCAK256 PUSH1 0x1F DUP4 ADD PUSH1 0x5 SHR DUP2 ADD SWAP2 PUSH1 0x20 DUP5 LT PUSH2 0x1346 JUMPI JUMPDEST PUSH1 0x1F ADD PUSH1 0x5 SHR ADD SWAP1 JUMPDEST DUP2 DUP2 LT PUSH2 0x133A JUMPI POP PUSH2 0x1248 JUMP JUMPDEST PUSH1 0x0 DUP2 SSTORE PUSH1 0x1 ADD PUSH2 0x132D JUMP JUMPDEST SWAP1 SWAP2 POP DUP2 SWAP1 PUSH2 0x1324 JUMP JUMPDEST CALLVALUE PUSH2 0x345 JUMPI PUSH1 0x20 CALLDATASIZE PUSH1 0x3 NOT ADD SLT PUSH2 0x345 JUMPI PUSH1 0x4 CALLDATALOAD PUSH1 0x1 PUSH1 0x1 PUSH1 0x40 SHL SUB DUP2 GT PUSH2 0x345 JUMPI PUSH2 0x1380 SWAP1 CALLDATASIZE SWAP1 PUSH1 0x4 ADD PUSH2 0x285B JUMP JUMPDEST CALLER PUSH1 0x0 SWAP1 DUP2 MSTORE PUSH1 0x8 PUSH1 0x20 MSTORE PUSH1 0x40 SWAP1 KECCAK256 PUSH1 0x7 DUP2 ADD SLOAD PUSH2 0x13A8 SWAP1 PUSH1 0x1 PUSH1 0x1 PUSH1 0xA0 SHL SUB AND ISZERO ISZERO PUSH2 0x2C67 JUMP JUMPDEST DUP2 MLOAD PUSH1 0x1 PUSH1 0x1 PUSH1 0x40 SHL SUB DUP2 GT PUSH2 0x277 JUMPI PUSH2 0x13C2 DUP3 SLOAD PUSH2 0x295D JUMP JUMPDEST PUSH1 0x1F DUP2 GT PUSH2 0x1443 JUMPI JUMPDEST POP PUSH1 0x20 SWAP3 PUSH1 0x1F DUP3 GT PUSH1 0x1 EQ PUSH2 0x13FD JUMPI SWAP3 DUP2 SWAP3 SWAP4 PUSH1 0x0 SWAP3 PUSH2 0x110D JUMPI POP POP PUSH1 0x0 NOT PUSH1 0x3 DUP4 SWAP1 SHL SHR NOT AND PUSH1 0x1 SWAP2 SWAP1 SWAP2 SHL OR SWAP1 SSTORE STOP JUMPDEST PUSH1 0x1F NOT DUP3 AND SWAP4 DUP4 PUSH1 0x0 MSTORE DUP1 PUSH1 0x0 KECCAK256 SWAP2 PUSH1 0x0 JUMPDEST DUP7 DUP2 LT PUSH2 0x142B JUMPI POP DUP4 PUSH1 0x1 SWAP6 SWAP7 LT PUSH2 0x1147 JUMPI POP POP POP DUP2 SHL ADD SWAP1 SSTORE STOP JUMPDEST SWAP2 SWAP3 PUSH1 0x20 PUSH1 0x1 DUP2 SWAP3 DUP7 DUP6 ADD MLOAD DUP2 SSTORE ADD SWAP5 ADD SWAP3 ADD PUSH2 0x140F JUMP JUMPDEST DUP3 PUSH1 0x0 MSTORE PUSH1 0x20 PUSH1 0x0 KECCAK256 PUSH1 0x1F DUP4 ADD PUSH1 0x5 SHR DUP2 ADD SWAP2 PUSH1 0x20 DUP5 LT PUSH2 0x1481 JUMPI JUMPDEST PUSH1 0x1F ADD PUSH1 0x5 SHR ADD SWAP1 JUMPDEST DUP2 DUP2 LT PUSH2 0x1475 JUMPI POP PUSH2 0x13CB JUMP JUMPDEST PUSH1 0x0 DUP2 SSTORE PUSH1 0x1 ADD PUSH2 0x1468 JUMP JUMPDEST SWAP1 SWAP2 POP DUP2 SWAP1 PUSH2 0x145F JUMP JUMPDEST CALLVALUE PUSH2 0x345 JUMPI PUSH2 0x1499 CALLDATASIZE PUSH2 0x28F0 JUMP JUMPDEST SWAP3 PUSH1 0x5 SLOAD SWAP2 PUSH1 0x40 MLOAD SWAP2 PUSH2 0x14AB DUP4 PUSH2 0x281E JUMP JUMPDEST DUP3 MSTORE PUSH2 0x14B5 PUSH2 0x2C22 JUMP JUMPDEST SWAP3 PUSH1 0x20 DUP4 ADD SWAP4 DUP5 MSTORE PUSH1 0x40 DUP4 ADD SWAP5 DUP6 MSTORE PUSH1 0x60 DUP4 ADD SWAP2 DUP3 MSTORE PUSH1 0x80 DUP4 ADD SWAP6 DUP7 MSTORE PUSH1 0xA0 DUP4 ADD SWAP1 DUP2 MSTORE PUSH1 0xC0 DUP4 ADD SWAP2 PUSH1 0x0 DUP4 MSTORE PUSH1 0xE0 DUP5 ADD SWAP6 CALLER DUP8 MSTORE PUSH2 0x100 DUP6 ADD SWAP6 PUSH1 0x0 DUP8 MSTORE CALLER PUSH1 0x0 MSTORE PUSH1 0x8 PUSH1 0x20 MSTORE PUSH1 0x40 PUSH1 0x0 KECCAK256 SWAP6 MLOAD DUP1 MLOAD SWAP1 PUSH1 0x1 PUSH1 0x1 PUSH1 0x40 SHL SUB DUP3 GT PUSH2 0x277 JUMPI DUP2 SWAP1 PUSH2 0x1521 DUP10 SLOAD PUSH2 0x295D JUMP JUMPDEST PUSH1 0x1F DUP2 GT PUSH2 0x19A8 JUMPI JUMPDEST POP PUSH1 0x20 SWAP1 PUSH1 0x1F DUP4 GT PUSH1 0x1 EQ PUSH2 0x1943 JUMPI PUSH1 0x0 SWAP3 PUSH2 0x1938 JUMPI JUMPDEST POP POP DUP2 PUSH1 0x1 SHL SWAP2 PUSH1 0x0 NOT SWAP1 PUSH1 0x3 SHL SHR NOT AND OR DUP7 SSTORE JUMPDEST MLOAD DUP1 MLOAD PUSH1 0x1 DUP8 ADD SWAP2 PUSH1 0x1 PUSH1 0x1 PUSH1 0x40 SHL SUB DUP3 GT PUSH2 0x277 JUMPI DUP2 SWAP1 PUSH2 0x1578 DUP5 SLOAD PUSH2 0x295D JUMP JUMPDEST PUSH1 0x1F DUP2 GT PUSH2 0x18E5 JUMPI JUMPDEST POP PUSH1 0x20 SWAP1 PUSH1 0x1F DUP4 GT PUSH1 0x1 EQ PUSH2 0x1880 JUMPI PUSH1 0x0 SWAP3 PUSH2 0x1875 JUMPI JUMPDEST POP POP DUP2 PUSH1 0x1 SHL SWAP2 PUSH1 0x0 NOT SWAP1 PUSH1 0x3 SHL SHR NOT AND OR SWAP1 SSTORE JUMPDEST MLOAD PUSH1 0x2 DUP6 ADD SSTORE MLOAD DUP1 MLOAD PUSH1 0x3 DUP6 ADD SWAP2 PUSH1 0x1 PUSH1 0x1 PUSH1 0x40 SHL SUB DUP3 GT PUSH2 0x277 JUMPI DUP2 SWAP1 PUSH2 0x15D5 DUP5 SLOAD PUSH2 0x295D JUMP JUMPDEST PUSH1 0x1F DUP2 GT PUSH2 0x1822 JUMPI JUMPDEST POP PUSH1 0x20 SWAP1 PUSH1 0x1F DUP4 GT PUSH1 0x1 EQ PUSH2 0x17BD JUMPI PUSH1 0x0 SWAP3 PUSH2 0x17B2 JUMPI JUMPDEST POP POP DUP2 PUSH1 0x1 SHL SWAP2 PUSH1 0x0 NOT SWAP1 PUSH1 0x3 SHL SHR NOT AND OR SWAP1 SSTORE JUMPDEST PUSH1 0x4 DUP4 ADD SWAP6 MLOAD SWAP6 DUP7 MLOAD PUSH1 0x1 PUSH1 0x1 PUSH1 0x40 SHL SUB DUP2 GT PUSH2 0x277 JUMPI PUSH2 0x162B DUP3 SLOAD PUSH2 0x295D JUMP JUMPDEST PUSH1 0x1F DUP2 GT PUSH2 0x176A JUMPI JUMPDEST POP PUSH1 0x20 PUSH1 0x1F DUP3 GT PUSH1 0x1 EQ PUSH2 0x1700 JUMPI DUP2 SWAP1 PUSH1 0x7 SWAP8 SWAP9 SWAP10 PUSH1 0x0 SWAP3 PUSH2 0x16F5 JUMPI JUMPDEST POP POP DUP2 PUSH1 0x1 SHL SWAP2 PUSH1 0x0 NOT SWAP1 PUSH1 0x3 SHL SHR NOT AND OR SWAP1 SSTORE JUMPDEST MLOAD PUSH1 0x5 DUP4 ADD SSTORE MLOAD PUSH1 0x6 DUP3 ADD SSTORE SWAP3 MLOAD SWAP3 ADD DUP1 SLOAD PUSH1 0x1 PUSH1 0x1 PUSH1 0xA0 SHL SUB NOT AND PUSH1 0x1 PUSH1 0x1 PUSH1 0xA0 SHL SUB SWAP4 SWAP1 SWAP4 AND SWAP3 SWAP1 SWAP3 OR DUP3 SSTORE MLOAD PUSH1 0x3 DUP2 LT ISZERO PUSH2 0x5B9 JUMPI PUSH2 0x16A7 SWAP2 PUSH2 0x2BD9 JUMP JUMPDEST PUSH1 0x9 SLOAD PUSH1 0x1 PUSH1 0x40 SHL DUP2 LT ISZERO PUSH2 0x277 JUMPI DUP1 PUSH1 0x1 PUSH2 0x16C8 SWAP3 ADD PUSH1 0x9 SSTORE PUSH1 0x9 PUSH2 0x25AB JUMP JUMPDEST DUP2 SLOAD PUSH1 0x1 PUSH1 0x1 PUSH1 0xA0 SHL SUB PUSH1 0x3 SWAP3 SWAP1 SWAP3 SHL SWAP2 DUP3 SHL NOT AND CALLER SWAP1 SWAP2 SHL OR SWAP1 SSTORE PUSH1 0x5 SLOAD PUSH2 0x16F0 SWAP1 PUSH2 0x2BFD JUMP JUMPDEST PUSH1 0x5 SSTORE STOP JUMPDEST ADD MLOAD SWAP1 POP DUP10 DUP1 PUSH2 0x1651 JUMP JUMPDEST PUSH1 0x1F NOT DUP3 AND SWAP9 DUP4 PUSH1 0x0 MSTORE DUP2 PUSH1 0x0 KECCAK256 SWAP10 PUSH1 0x0 JUMPDEST DUP2 DUP2 LT PUSH2 0x1752 JUMPI POP SWAP2 PUSH1 0x7 SWAP9 SWAP10 SWAP11 SWAP2 DUP5 PUSH1 0x1 SWAP6 SWAP5 LT PUSH2 0x1739 JUMPI JUMPDEST POP POP POP DUP2 SHL ADD SWAP1 SSTORE PUSH2 0x1666 JUMP JUMPDEST ADD MLOAD PUSH1 0x0 NOT PUSH1 0xF8 DUP5 PUSH1 0x3 SHL AND SHR NOT AND SWAP1 SSTORE DUP10 DUP1 DUP1 PUSH2 0x172C JUMP JUMPDEST DUP4 DUP4 ADD MLOAD DUP13 SSTORE PUSH1 0x1 SWAP1 SWAP12 ADD SWAP11 PUSH1 0x20 SWAP4 DUP5 ADD SWAP4 ADD PUSH2 0x1712 JUMP JUMPDEST DUP3 PUSH1 0x0 MSTORE PUSH1 0x20 PUSH1 0x0 KECCAK256 PUSH1 0x1F DUP4 ADD PUSH1 0x5 SHR DUP2 ADD SWAP2 PUSH1 0x20 DUP5 LT PUSH2 0x17A8 JUMPI JUMPDEST PUSH1 0x1F ADD PUSH1 0x5 SHR ADD SWAP1 JUMPDEST DUP2 DUP2 LT PUSH2 0x179C JUMPI POP PUSH2 0x1634 JUMP JUMPDEST PUSH1 0x0 DUP2 SSTORE PUSH1 0x1 ADD PUSH2 0x178F JUMP JUMPDEST SWAP1 SWAP2 POP DUP2 SWAP1 PUSH2 0x1786 JUMP JUMPDEST ADD MLOAD SWAP1 POP DUP10 DUP1 PUSH2 0x15F5 JUMP JUMPDEST PUSH1 0x0 DUP6 DUP2 MSTORE DUP3 DUP2 KECCAK256 SWAP4 POP PUSH1 0x1F NOT DUP6 AND SWAP1 JUMPDEST DUP2 DUP2 LT PUSH2 0x180A JUMPI POP SWAP1 DUP5 PUSH1 0x1 SWAP6 SWAP5 SWAP4 SWAP3 LT PUSH2 0x17F1 JUMPI JUMPDEST POP POP POP DUP2 SHL ADD SWAP1 SSTORE PUSH2 0x160A JUMP JUMPDEST ADD MLOAD PUSH1 0x0 NOT PUSH1 0xF8 DUP5 PUSH1 0x3 SHL AND SHR NOT AND SWAP1 SSTORE DUP10 DUP1 DUP1 PUSH2 0x17E4 JUMP JUMPDEST SWAP3 SWAP4 PUSH1 0x20 PUSH1 0x1 DUP2 SWAP3 DUP8 DUP7 ADD MLOAD DUP2 SSTORE ADD SWAP6 ADD SWAP4 ADD PUSH2 0x17CE JUMP JUMPDEST SWAP1 SWAP2 POP DUP4 PUSH1 0x0 MSTORE PUSH1 0x20 PUSH1 0x0 KECCAK256 PUSH1 0x1F DUP5 ADD PUSH1 0x5 SHR DUP2 ADD SWAP2 PUSH1 0x20 DUP6 LT PUSH2 0x186B JUMPI JUMPDEST SWAP1 PUSH1 0x1F DUP6 SWAP5 SWAP4 SWAP3 ADD PUSH1 0x5 SHR ADD SWAP1 JUMPDEST DUP2 DUP2 LT PUSH2 0x185C JUMPI POP PUSH2 0x15DE JUMP JUMPDEST PUSH1 0x0 DUP2 SSTORE DUP5 SWAP4 POP PUSH1 0x1 ADD PUSH2 0x184F JUMP JUMPDEST SWAP1 SWAP2 POP DUP2 SWAP1 PUSH2 0x1841 JUMP JUMPDEST ADD MLOAD SWAP1 POP DUP12 DUP1 PUSH2 0x1598 JUMP JUMPDEST PUSH1 0x0 DUP6 DUP2 MSTORE DUP3 DUP2 KECCAK256 SWAP4 POP PUSH1 0x1F NOT DUP6 AND SWAP1 JUMPDEST DUP2 DUP2 LT PUSH2 0x18CD JUMPI POP SWAP1 DUP5 PUSH1 0x1 SWAP6 SWAP5 SWAP4 SWAP3 LT PUSH2 0x18B4 JUMPI JUMPDEST POP POP POP DUP2 SHL ADD SWAP1 SSTORE PUSH2 0x15AD JUMP JUMPDEST ADD MLOAD PUSH1 0x0 NOT PUSH1 0xF8 DUP5 PUSH1 0x3 SHL AND SHR NOT AND SWAP1 SSTORE DUP12 DUP1 DUP1 PUSH2 0x18A7 JUMP JUMPDEST SWAP3 SWAP4 PUSH1 0x20 PUSH1 0x1 DUP2 SWAP3 DUP8 DUP7 ADD MLOAD DUP2 SSTORE ADD SWAP6 ADD SWAP4 ADD PUSH2 0x1891 JUMP JUMPDEST SWAP1 SWAP2 POP DUP4 PUSH1 0x0 MSTORE PUSH1 0x20 PUSH1 0x0 KECCAK256 PUSH1 0x1F DUP5 ADD PUSH1 0x5 SHR DUP2 ADD SWAP2 PUSH1 0x20 DUP6 LT PUSH2 0x192E JUMPI JUMPDEST SWAP1 PUSH1 0x1F DUP6 SWAP5 SWAP4 SWAP3 ADD PUSH1 0x5 SHR ADD SWAP1 JUMPDEST DUP2 DUP2 LT PUSH2 0x191F JUMPI POP PUSH2 0x1581 JUMP JUMPDEST PUSH1 0x0 DUP2 SSTORE DUP5 SWAP4 POP PUSH1 0x1 ADD PUSH2 0x1912 JUMP JUMPDEST SWAP1 SWAP2 POP DUP2 SWAP1 PUSH2 0x1904 JUMP JUMPDEST ADD MLOAD SWAP1 POP DUP12 DUP1 PUSH2 0x1541 JUMP JUMPDEST PUSH1 0x0 DUP11 DUP2 MSTORE DUP3 DUP2 KECCAK256 SWAP4 POP PUSH1 0x1F NOT DUP6 AND SWAP1 JUMPDEST DUP2 DUP2 LT PUSH2 0x1990 JUMPI POP SWAP1 DUP5 PUSH1 0x1 SWAP6 SWAP5 SWAP4 SWAP3 LT PUSH2 0x1977 JUMPI JUMPDEST POP POP POP DUP2 SHL ADD DUP7 SSTORE PUSH2 0x1556 JUMP JUMPDEST ADD MLOAD PUSH1 0x0 NOT PUSH1 0xF8 DUP5 PUSH1 0x3 SHL AND SHR NOT AND SWAP1 SSTORE DUP12 DUP1 DUP1 PUSH2 0x196A JUMP JUMPDEST SWAP3 SWAP4 PUSH1 0x20 PUSH1 0x1 DUP2 SWAP3 DUP8 DUP7 ADD MLOAD DUP2 SSTORE ADD SWAP6 ADD SWAP4 ADD PUSH2 0x1954 JUMP JUMPDEST SWAP1 SWAP2 POP DUP9 PUSH1 0x0 MSTORE PUSH1 0x20 PUSH1 0x0 KECCAK256 PUSH1 0x1F DUP5 ADD PUSH1 0x5 SHR DUP2 ADD SWAP2 PUSH1 0x20 DUP6 LT PUSH2 0x19F1 JUMPI JUMPDEST SWAP1 PUSH1 0x1F DUP6 SWAP5 SWAP4 SWAP3 ADD PUSH1 0x5 SHR ADD SWAP1 JUMPDEST DUP2 DUP2 LT PUSH2 0x19E2 JUMPI POP PUSH2 0x152A JUMP JUMPDEST PUSH1 0x0 DUP2 SSTORE DUP5 SWAP4 POP PUSH1 0x1 ADD PUSH2 0x19D5 JUMP JUMPDEST SWAP1 SWAP2 POP DUP2 SWAP1 PUSH2 0x19C7 JUMP JUMPDEST CALLVALUE PUSH2 0x345 JUMPI PUSH1 0x20 CALLDATASIZE PUSH1 0x3 NOT ADD SLT PUSH2 0x345 JUMPI PUSH2 0x1A14 PUSH2 0x2808 JUMP JUMPDEST PUSH1 0x2 SLOAD TIMESTAMP LT PUSH2 0x1BE3 JUMPI PUSH1 0x3 SLOAD TIMESTAMP GT PUSH2 0x1BAB JUMPI CALLER PUSH1 0x0 MSTORE PUSH1 0x7 PUSH1 0x20 MSTORE PUSH1 0x40 PUSH1 0x0 KECCAK256 PUSH1 0xFF PUSH1 0x7 DUP3 ADD SLOAD PUSH1 0xA0 SHR AND PUSH1 0x3 DUP2 LT ISZERO PUSH2 0x5B9 JUMPI PUSH1 0x1 SUB PUSH2 0x1B66 JUMPI DUP1 SLOAD SWAP2 PUSH1 0xFF DUP4 AND PUSH2 0x1B28 JUMPI PUSH1 0x1 DUP1 PUSH1 0xA0 SHL SUB AND PUSH1 0x0 MSTORE PUSH1 0x8 PUSH1 0x20 MSTORE PUSH1 0x40 PUSH1 0x0 KECCAK256 SWAP1 PUSH1 0xFF PUSH1 0x7 DUP4 ADD SLOAD PUSH1 0xA0 SHR AND PUSH1 0x3 DUP2 LT ISZERO PUSH2 0x5B9 JUMPI PUSH1 0x1 SUB PUSH2 0x1AE3 JUMPI PUSH1 0x1 PUSH1 0x6 SWAP4 PUSH1 0xFF NOT AND OR SWAP1 SSTORE ADD PUSH2 0x1AA2 DUP2 SLOAD PUSH2 0x2BFD JUMP JUMPDEST SWAP1 SSTORE PUSH1 0xD SLOAD PUSH1 0x1 PUSH1 0x40 SHL DUP2 LT ISZERO PUSH2 0x277 JUMPI DUP1 PUSH1 0x1 PUSH2 0x1AC5 SWAP3 ADD PUSH1 0xD SSTORE PUSH1 0xD PUSH2 0x25AB JUMP JUMPDEST DUP2 SLOAD PUSH1 0x1 PUSH1 0x1 PUSH1 0xA0 SHL SUB PUSH1 0x3 SWAP3 SWAP1 SWAP3 SHL SWAP2 DUP3 SHL NOT AND CALLER SWAP1 SWAP2 SHL OR SWAP1 SSTORE STOP JUMPDEST PUSH1 0x40 MLOAD PUSH3 0x461BCD PUSH1 0xE5 SHL DUP2 MSTORE PUSH1 0x20 PUSH1 0x4 DUP3 ADD MSTORE PUSH1 0x1A PUSH1 0x24 DUP3 ADD MSTORE PUSH32 0x43616E646964617465206973206E6F742061636365707465642E000000000000 PUSH1 0x44 DUP3 ADD MSTORE PUSH1 0x64 SWAP1 REVERT JUMPDEST PUSH1 0x40 MLOAD PUSH3 0x461BCD PUSH1 0xE5 SHL DUP2 MSTORE PUSH1 0x20 PUSH1 0x4 DUP3 ADD MSTORE PUSH1 0x16 PUSH1 0x24 DUP3 ADD MSTORE PUSH22 0x165BDD481A185D9948185B1C9958591E481D9BDD1959 PUSH1 0x52 SHL PUSH1 0x44 DUP3 ADD MSTORE PUSH1 0x64 SWAP1 REVERT JUMPDEST PUSH1 0x40 MLOAD PUSH3 0x461BCD PUSH1 0xE5 SHL DUP2 MSTORE PUSH1 0x20 PUSH1 0x4 DUP3 ADD MSTORE PUSH1 0x1E PUSH1 0x24 DUP3 ADD MSTORE PUSH32 0x596F7520617265206E6F74206120636F6E6669726D656420766F7465722E0000 PUSH1 0x44 DUP3 ADD MSTORE PUSH1 0x64 SWAP1 REVERT JUMPDEST PUSH1 0x40 MLOAD PUSH3 0x461BCD PUSH1 0xE5 SHL DUP2 MSTORE PUSH1 0x20 PUSH1 0x4 DUP3 ADD MSTORE PUSH1 0x10 PUSH1 0x24 DUP3 ADD MSTORE PUSH16 0x159BDD1A5B99C81A185CC8195B991959 PUSH1 0x82 SHL PUSH1 0x44 DUP3 ADD MSTORE PUSH1 0x64 SWAP1 REVERT JUMPDEST PUSH1 0x40 MLOAD PUSH3 0x461BCD PUSH1 0xE5 SHL DUP2 MSTORE PUSH1 0x20 PUSH1 0x4 DUP3 ADD MSTORE PUSH1 0x1A PUSH1 0x24 DUP3 ADD MSTORE PUSH32 0x566F74696E6720686173206E6F74207374617274656420796574000000000000 PUSH1 0x44 DUP3 ADD MSTORE PUSH1 0x64 SWAP1 REVERT JUMPDEST CALLVALUE PUSH2 0x345 JUMPI PUSH1 0x0 CALLDATASIZE PUSH1 0x3 NOT ADD SLT PUSH2 0x345 JUMPI PUSH1 0xA SLOAD PUSH2 0x1C45 DUP2 PUSH2 0x2B50 JUMP JUMPDEST SWAP1 PUSH1 0x0 JUMPDEST DUP2 DUP2 LT PUSH2 0x1C5E JUMPI PUSH1 0x40 MLOAD DUP1 PUSH2 0x570 DUP6 DUP3 PUSH2 0x27A8 JUMP JUMPDEST DUP1 PUSH2 0x1C6A PUSH1 0x1 SWAP3 PUSH2 0x2590 JUMP JUMPDEST DUP4 DUP1 PUSH1 0xA0 SHL SUB SWAP2 SLOAD SWAP1 PUSH1 0x3 SHL SHR AND PUSH1 0x0 MSTORE PUSH1 0x7 PUSH1 0x20 MSTORE PUSH1 0x40 PUSH1 0x0 KECCAK256 PUSH2 0x1C99 PUSH1 0xFF PUSH1 0x7 PUSH1 0x40 MLOAD SWAP4 PUSH2 0xEBE DUP6 PUSH2 0x281E JUMP JUMPDEST PUSH2 0x1CA3 DUP3 DUP7 PUSH2 0x2AE9 JUMP JUMPDEST MSTORE PUSH2 0x1CAE DUP2 DUP6 PUSH2 0x2AE9 JUMP JUMPDEST POP ADD PUSH2 0x1C49 JUMP JUMPDEST CALLVALUE PUSH2 0x345 JUMPI PUSH1 0x20 CALLDATASIZE PUSH1 0x3 NOT ADD SLT PUSH2 0x345 JUMPI PUSH1 0x4 CALLDATALOAD PUSH1 0xD SLOAD DUP2 LT ISZERO PUSH2 0x345 JUMPI PUSH2 0xD18 PUSH1 0x20 SWAP2 PUSH2 0x2575 JUMP JUMPDEST CALLVALUE PUSH2 0x345 JUMPI PUSH1 0x20 CALLDATASIZE PUSH1 0x3 NOT ADD SLT PUSH2 0x345 JUMPI PUSH1 0x4 CALLDATALOAD PUSH2 0x1D07 PUSH1 0x1 DUP1 PUSH1 0xA0 SHL SUB PUSH1 0x0 SLOAD AND CALLER EQ PUSH2 0x2BA0 JUMP JUMPDEST PUSH1 0x4 SLOAD PUSH2 0x1D80 JUMPI PUSH1 0x3 SLOAD DUP2 GT ISZERO PUSH2 0x1D1D JUMPI PUSH1 0x4 SSTORE STOP JUMPDEST PUSH1 0x40 MLOAD PUSH3 0x461BCD PUSH1 0xE5 SHL DUP2 MSTORE PUSH1 0x20 PUSH1 0x4 DUP3 ADD MSTORE PUSH1 0x35 PUSH1 0x24 DUP3 ADD MSTORE PUSH32 0x526573756C74207075626C69636174696F6E2074696D65206D75737420626520 PUSH1 0x44 DUP3 ADD MSTORE PUSH21 0x616674657220766F74696E6720656E642074696D65 PUSH1 0x58 SHL PUSH1 0x64 DUP3 ADD MSTORE PUSH1 0x84 SWAP1 REVERT JUMPDEST PUSH1 0x40 MLOAD PUSH3 0x461BCD PUSH1 0xE5 SHL DUP2 MSTORE PUSH1 0x20 PUSH1 0x4 DUP3 ADD MSTORE PUSH1 0x23 PUSH1 0x24 DUP3 ADD MSTORE PUSH32 0x526573756C74207075626C69636174696F6E2074696D6520616C726561647920 PUSH1 0x44 DUP3 ADD MSTORE PUSH3 0x1CD95D PUSH1 0xEA SHL PUSH1 0x64 DUP3 ADD MSTORE PUSH1 0x84 SWAP1 REVERT JUMPDEST CALLVALUE PUSH2 0x345 JUMPI PUSH2 0x1DDF CALLDATASIZE PUSH2 0x28B1 JUMP JUMPDEST SWAP1 PUSH2 0x1DF5 PUSH1 0x1 DUP1 PUSH1 0xA0 SHL SUB PUSH1 0x0 SLOAD AND CALLER EQ PUSH2 0x2BA0 JUMP JUMPDEST PUSH1 0x1 PUSH1 0x1 PUSH1 0xA0 SHL SUB SWAP1 DUP2 AND PUSH1 0x0 SWAP1 DUP2 MSTORE PUSH1 0x8 PUSH1 0x20 MSTORE PUSH1 0x40 SWAP1 KECCAK256 PUSH1 0x7 DUP2 ADD DUP1 SLOAD SWAP1 SWAP3 AND ISZERO PUSH2 0x1F18 JUMPI DUP2 SLOAD PUSH1 0xFF PUSH1 0xA0 SHL NOT AND PUSH1 0x1 PUSH1 0xA1 SHL OR SWAP1 SWAP2 SSTORE DUP2 MLOAD PUSH1 0x1 SWAP2 SWAP1 SWAP2 ADD SWAP1 PUSH1 0x1 PUSH1 0x1 PUSH1 0x40 SHL SUB DUP2 GT PUSH2 0x277 JUMPI PUSH2 0x1E4F DUP3 SLOAD PUSH2 0x295D JUMP JUMPDEST PUSH1 0x1F DUP2 GT PUSH2 0x1ED0 JUMPI JUMPDEST POP PUSH1 0x20 SWAP3 PUSH1 0x1F DUP3 GT PUSH1 0x1 EQ PUSH2 0x1E8A JUMPI SWAP3 DUP2 SWAP3 SWAP4 PUSH1 0x0 SWAP3 PUSH2 0x110D JUMPI POP POP PUSH1 0x0 NOT PUSH1 0x3 DUP4 SWAP1 SHL SHR NOT AND PUSH1 0x1 SWAP2 SWAP1 SWAP2 SHL OR SWAP1 SSTORE STOP JUMPDEST PUSH1 0x1F NOT DUP3 AND SWAP4 DUP4 PUSH1 0x0 MSTORE DUP1 PUSH1 0x0 KECCAK256 SWAP2 PUSH1 0x0 JUMPDEST DUP7 DUP2 LT PUSH2 0x1EB8 JUMPI POP DUP4 PUSH1 0x1 SWAP6 SWAP7 LT PUSH2 0x1147 JUMPI POP POP POP DUP2 SHL ADD SWAP1 SSTORE STOP JUMPDEST SWAP2 SWAP3 PUSH1 0x20 PUSH1 0x1 DUP2 SWAP3 DUP7 DUP6 ADD MLOAD DUP2 SSTORE ADD SWAP5 ADD SWAP3 ADD PUSH2 0x1E9C JUMP JUMPDEST DUP3 PUSH1 0x0 MSTORE PUSH1 0x20 PUSH1 0x0 KECCAK256 PUSH1 0x1F DUP4 ADD PUSH1 0x5 SHR DUP2 ADD SWAP2 PUSH1 0x20 DUP5 LT PUSH2 0x1F0E JUMPI JUMPDEST PUSH1 0x1F ADD PUSH1 0x5 SHR ADD SWAP1 JUMPDEST DUP2 DUP2 LT PUSH2 0x1F02 JUMPI POP PUSH2 0x1E58 JUMP JUMPDEST PUSH1 0x0 DUP2 SSTORE PUSH1 0x1 ADD PUSH2 0x1EF5 JUMP JUMPDEST SWAP1 SWAP2 POP DUP2 SWAP1 PUSH2 0x1EEC JUMP JUMPDEST PUSH1 0x40 MLOAD PUSH3 0x461BCD PUSH1 0xE5 SHL DUP2 MSTORE PUSH1 0x20 PUSH1 0x4 DUP3 ADD MSTORE PUSH1 0x1B PUSH1 0x24 DUP3 ADD MSTORE PUSH32 0x4E6F2063616E646964617465206461746120617661696C61626C650000000000 PUSH1 0x44 DUP3 ADD MSTORE PUSH1 0x64 SWAP1 REVERT JUMPDEST CALLVALUE PUSH2 0x345 JUMPI PUSH1 0x20 CALLDATASIZE PUSH1 0x3 NOT ADD SLT PUSH2 0x345 JUMPI PUSH2 0x1F76 PUSH2 0x2808 JUMP JUMPDEST PUSH2 0x1F7E PUSH2 0x2B09 JUMP JUMPDEST POP PUSH1 0x1 DUP1 PUSH1 0xA0 SHL SUB AND PUSH1 0x0 MSTORE PUSH1 0x7 PUSH1 0x20 MSTORE PUSH1 0x40 PUSH1 0x0 KECCAK256 PUSH1 0x7 PUSH1 0x40 MLOAD SWAP2 PUSH2 0x1FA3 DUP4 PUSH2 0x281E JUMP JUMPDEST PUSH1 0xFF DUP2 SLOAD AND ISZERO ISZERO DUP4 MSTORE PUSH2 0x1FB8 PUSH1 0x1 DUP3 ADD PUSH2 0x2997 JUMP JUMPDEST PUSH1 0x20 DUP5 ADD MSTORE PUSH1 0x2 DUP2 ADD SLOAD PUSH1 0x40 DUP5 ADD MSTORE PUSH2 0x1FD3 PUSH1 0x3 DUP3 ADD PUSH2 0x2997 JUMP JUMPDEST PUSH1 0x60 DUP5 ADD MSTORE PUSH2 0x1FE4 PUSH1 0x4 DUP3 ADD PUSH2 0x2997 JUMP JUMPDEST PUSH1 0x80 DUP5 ADD MSTORE PUSH2 0x1FF5 PUSH1 0x5 DUP3 ADD PUSH2 0x2997 JUMP JUMPDEST PUSH1 0xA0 DUP5 ADD MSTORE PUSH1 0x6 DUP2 ADD SLOAD PUSH1 0xC0 DUP5 ADD MSTORE ADD SLOAD PUSH1 0xE0 DUP3 ADD PUSH1 0x1 DUP1 PUSH1 0xA0 SHL SUB DUP3 AND DUP2 MSTORE PUSH2 0x202A PUSH1 0xFF PUSH2 0x100 DUP6 ADD SWAP4 PUSH1 0xA0 SHR AND DUP4 PUSH2 0x2AFD JUMP JUMPDEST MLOAD PUSH1 0x1 PUSH1 0x1 PUSH1 0xA0 SHL SUB AND ISZERO PUSH2 0x20A0 JUMPI MLOAD PUSH1 0x3 DUP2 LT ISZERO PUSH2 0x5B9 JUMPI PUSH1 0x0 NOT ADD PUSH2 0x2063 JUMPI PUSH2 0x570 SWAP1 PUSH1 0x40 MLOAD SWAP2 DUP3 SWAP2 PUSH1 0x20 DUP4 MSTORE PUSH1 0x20 DUP4 ADD SWAP1 PUSH2 0x270D JUMP JUMPDEST PUSH1 0x40 MLOAD PUSH3 0x461BCD PUSH1 0xE5 SHL DUP2 MSTORE PUSH1 0x20 PUSH1 0x4 DUP3 ADD MSTORE PUSH1 0x15 PUSH1 0x24 DUP3 ADD MSTORE PUSH21 0x159BDD195C881A5CC81B9BDD081858D8D95C1D1959 PUSH1 0x5A SHL PUSH1 0x44 DUP3 ADD MSTORE PUSH1 0x64 SWAP1 REVERT JUMPDEST PUSH1 0x40 MLOAD PUSH3 0x461BCD PUSH1 0xE5 SHL DUP2 MSTORE PUSH1 0x20 PUSH1 0x4 DUP3 ADD MSTORE PUSH1 0xF PUSH1 0x24 DUP3 ADD MSTORE PUSH15 0x159BDD195C881B9BDD08199BDD5B99 PUSH1 0x8A SHL PUSH1 0x44 DUP3 ADD MSTORE PUSH1 0x64 SWAP1 REVERT JUMPDEST CALLVALUE PUSH2 0x345 JUMPI PUSH1 0x20 CALLDATASIZE PUSH1 0x3 NOT ADD SLT PUSH2 0x345 JUMPI PUSH1 0x4 CALLDATALOAD PUSH1 0xC SLOAD DUP2 LT ISZERO PUSH2 0x345 JUMPI PUSH2 0xD18 PUSH1 0x20 SWAP2 PUSH2 0x253F JUMP JUMPDEST CALLVALUE PUSH2 0x345 JUMPI PUSH2 0x210E CALLDATASIZE PUSH2 0x28B1 JUMP JUMPDEST SWAP1 PUSH2 0x2124 PUSH1 0x1 DUP1 PUSH1 0xA0 SHL SUB PUSH1 0x0 SLOAD AND CALLER EQ PUSH2 0x2BA0 JUMP JUMPDEST PUSH1 0x1 PUSH1 0x1 PUSH1 0xA0 SHL SUB SWAP1 DUP2 AND PUSH1 0x0 SWAP1 DUP2 MSTORE PUSH1 0x7 PUSH1 0x20 DUP2 SWAP1 MSTORE PUSH1 0x40 SWAP1 SWAP2 KECCAK256 SWAP1 DUP2 ADD DUP1 SLOAD SWAP1 SWAP3 AND ISZERO PUSH2 0x2249 JUMPI DUP2 SLOAD PUSH1 0xFF PUSH1 0xA0 SHL NOT AND PUSH1 0x1 PUSH1 0xA1 SHL OR SWAP1 SWAP2 SSTORE DUP2 MLOAD PUSH1 0x5 SWAP2 SWAP1 SWAP2 ADD SWAP1 PUSH1 0x1 PUSH1 0x1 PUSH1 0x40 SHL SUB DUP2 GT PUSH2 0x277 JUMPI PUSH2 0x2180 DUP3 SLOAD PUSH2 0x295D JUMP JUMPDEST PUSH1 0x1F DUP2 GT PUSH2 0x2201 JUMPI JUMPDEST POP PUSH1 0x20 SWAP3 PUSH1 0x1F DUP3 GT PUSH1 0x1 EQ PUSH2 0x21BB JUMPI SWAP3 DUP2 SWAP3 SWAP4 PUSH1 0x0 SWAP3 PUSH2 0x110D JUMPI POP POP PUSH1 0x0 NOT PUSH1 0x3 DUP4 SWAP1 SHL SHR NOT AND PUSH1 0x1 SWAP2 SWAP1 SWAP2 SHL OR SWAP1 SSTORE STOP JUMPDEST PUSH1 0x1F NOT DUP3 AND SWAP4 DUP4 PUSH1 0x0 MSTORE DUP1 PUSH1 0x0 KECCAK256 SWAP2 PUSH1 0x0 JUMPDEST DUP7 DUP2 LT PUSH2 0x21E9 JUMPI POP DUP4 PUSH1 0x1 SWAP6 SWAP7 LT PUSH2 0x1147 JUMPI POP POP POP DUP2 SHL ADD SWAP1 SSTORE STOP JUMPDEST SWAP2 SWAP3 PUSH1 0x20 PUSH1 0x1 DUP2 SWAP3 DUP7 DUP6 ADD MLOAD DUP2 SSTORE ADD SWAP5 ADD SWAP3 ADD PUSH2 0x21CD JUMP JUMPDEST DUP3 PUSH1 0x0 MSTORE PUSH1 0x20 PUSH1 0x0 KECCAK256 PUSH1 0x1F DUP4 ADD PUSH1 0x5 SHR DUP2 ADD SWAP2 PUSH1 0x20 DUP5 LT PUSH2 0x223F JUMPI JUMPDEST PUSH1 0x1F ADD PUSH1 0x5 SHR ADD SWAP1 JUMPDEST DUP2 DUP2 LT PUSH2 0x2233 JUMPI POP PUSH2 0x2189 JUMP JUMPDEST PUSH1 0x0 DUP2 SSTORE PUSH1 0x1 ADD PUSH2 0x2226 JUMP JUMPDEST SWAP1 SWAP2 POP DUP2 SWAP1 PUSH2 0x221D JUMP JUMPDEST PUSH1 0x40 MLOAD PUSH3 0x461BCD PUSH1 0xE5 SHL DUP2 MSTORE PUSH1 0x20 PUSH1 0x4 DUP3 ADD MSTORE PUSH1 0x17 PUSH1 0x24 DUP3 ADD MSTORE PUSH32 0x4E6F20766F746572206461746120617661696C61626C65000000000000000000 PUSH1 0x44 DUP3 ADD MSTORE PUSH1 0x64 SWAP1 REVERT JUMPDEST CALLVALUE PUSH2 0x345 JUMPI PUSH1 0x0 CALLDATASIZE PUSH1 0x3 NOT ADD SLT PUSH2 0x345 JUMPI PUSH1 0xB SLOAD PUSH2 0x22AB DUP2 PUSH2 0x2A99 JUMP JUMPDEST SWAP1 PUSH1 0x0 JUMPDEST DUP2 DUP2 LT PUSH2 0x22C4 JUMPI PUSH1 0x40 MLOAD DUP1 PUSH2 0x570 DUP6 DUP3 PUSH2 0x26AD JUMP JUMPDEST DUP1 PUSH2 0x22D0 PUSH1 0x1 SWAP3 PUSH2 0x255A JUMP JUMPDEST DUP4 DUP1 PUSH1 0xA0 SHL SUB SWAP2 SLOAD SWAP1 PUSH1 0x3 SHL SHR AND PUSH1 0x0 MSTORE PUSH1 0x8 PUSH1 0x20 MSTORE PUSH1 0x40 PUSH1 0x0 KECCAK256 PUSH2 0x2377 PUSH1 0xFF PUSH1 0x7 PUSH1 0x40 MLOAD SWAP4 PUSH2 0x22FF DUP6 PUSH2 0x281E JUMP JUMPDEST PUSH2 0x2308 DUP2 PUSH2 0x2997 JUMP JUMPDEST DUP6 MSTORE PUSH2 0x2315 DUP8 DUP3 ADD PUSH2 0x2997 JUMP JUMPDEST PUSH1 0x20 DUP7 ADD MSTORE PUSH1 0x2 DUP2 ADD SLOAD PUSH1 0x40 DUP7 ADD MSTORE PUSH2 0x2330 PUSH1 0x3 DUP3 ADD PUSH2 0x2997 JUMP JUMPDEST PUSH1 0x60 DUP7 ADD MSTORE PUSH2 0x2341 PUSH1 0x4 DUP3 ADD PUSH2 0x2997 JUMP JUMPDEST PUSH1 0x80 DUP7 ADD MSTORE PUSH1 0x5 DUP2 ADD SLOAD PUSH1 0xA0 DUP7 ADD MSTORE PUSH1 0x6 DUP2 ADD SLOAD PUSH1 0xC0 DUP7 ADD MSTORE ADD SLOAD DUP6 DUP1 PUSH1 0xA0 SHL SUB DUP2 AND PUSH1 0xE0 DUP6 ADD MSTORE PUSH1 0xA0 SHR AND PUSH2 0x100 DUP4 ADD PUSH2 0x2AFD JUMP JUMPDEST PUSH2 0x2381 DUP3 DUP7 PUSH2 0x2AE9 JUMP JUMPDEST MSTORE PUSH2 0x238C DUP2 DUP6 PUSH2 0x2AE9 JUMP JUMPDEST POP ADD PUSH2 0x22AF JUMP JUMPDEST CALLVALUE PUSH2 0x345 JUMPI PUSH1 0x0 CALLDATASIZE PUSH1 0x3 NOT ADD SLT PUSH2 0x345 JUMPI PUSH1 0xC SLOAD PUSH2 0x23B0 DUP2 PUSH2 0x2B50 JUMP JUMPDEST SWAP1 PUSH1 0x0 JUMPDEST DUP2 DUP2 LT PUSH2 0x23C9 JUMPI PUSH1 0x40 MLOAD DUP1 PUSH2 0x570 DUP6 DUP3 PUSH2 0x27A8 JUMP JUMPDEST DUP1 PUSH2 0x23D5 PUSH1 0x1 SWAP3 PUSH2 0x253F JUMP JUMPDEST DUP4 DUP1 PUSH1 0xA0 SHL SUB SWAP2 SLOAD SWAP1 PUSH1 0x3 SHL SHR AND PUSH1 0x0 MSTORE PUSH1 0x7 PUSH1 0x20 MSTORE PUSH1 0x40 PUSH1 0x0 KECCAK256 PUSH2 0x2404 PUSH1 0xFF PUSH1 0x7 PUSH1 0x40 MLOAD SWAP4 PUSH2 0xEBE DUP6 PUSH2 0x281E JUMP JUMPDEST PUSH2 0x240E DUP3 DUP7 PUSH2 0x2AE9 JUMP JUMPDEST MSTORE PUSH2 0x2419 DUP2 DUP6 PUSH2 0x2AE9 JUMP JUMPDEST POP ADD PUSH2 0x23B4 JUMP JUMPDEST CALLVALUE PUSH2 0x345 JUMPI PUSH1 0x0 CALLDATASIZE PUSH1 0x3 NOT ADD SLT PUSH2 0x345 JUMPI PUSH1 0x20 PUSH1 0x2 SLOAD PUSH1 0x40 MLOAD SWAP1 DUP2 MSTORE RETURN JUMPDEST CALLVALUE PUSH2 0x345 JUMPI PUSH1 0x0 CALLDATASIZE PUSH1 0x3 NOT ADD SLT PUSH2 0x345 JUMPI PUSH1 0x9 SLOAD PUSH2 0x245B DUP2 PUSH2 0x2A99 JUMP JUMPDEST SWAP1 PUSH1 0x0 JUMPDEST DUP2 DUP2 LT PUSH2 0x2474 JUMPI PUSH1 0x40 MLOAD DUP1 PUSH2 0x570 DUP6 DUP3 PUSH2 0x26AD JUMP JUMPDEST DUP1 PUSH2 0x2480 PUSH1 0x1 SWAP3 PUSH2 0x250E JUMP JUMPDEST DUP4 DUP1 PUSH1 0xA0 SHL SUB SWAP2 SLOAD SWAP1 PUSH1 0x3 SHL SHR AND PUSH1 0x0 MSTORE PUSH1 0x8 PUSH1 0x20 MSTORE PUSH1 0x40 PUSH1 0x0 KECCAK256 PUSH2 0x24AF PUSH1 0xFF PUSH1 0x7 PUSH1 0x40 MLOAD SWAP4 PUSH2 0x22FF DUP6 PUSH2 0x281E JUMP JUMPDEST PUSH2 0x24B9 DUP3 DUP7 PUSH2 0x2AE9 JUMP JUMPDEST MSTORE PUSH2 0x24C4 DUP2 DUP6 PUSH2 0x2AE9 JUMP JUMPDEST POP ADD PUSH2 0x245F JUMP JUMPDEST CALLVALUE PUSH2 0x345 JUMPI PUSH1 0x0 CALLDATASIZE PUSH1 0x3 NOT ADD SLT PUSH2 0x345 JUMPI PUSH1 0x20 PUSH1 0x3 SLOAD PUSH1 0x40 MLOAD SWAP1 DUP2 MSTORE RETURN JUMPDEST CALLVALUE PUSH2 0x345 JUMPI PUSH1 0x20 CALLDATASIZE PUSH1 0x3 NOT ADD SLT PUSH2 0x345 JUMPI PUSH1 0x4 CALLDATALOAD PUSH1 0x9 SLOAD DUP2 LT ISZERO PUSH2 0x345 JUMPI PUSH2 0xD18 PUSH1 0x20 SWAP2 JUMPDEST PUSH1 0x9 SLOAD DUP2 LT ISZERO PUSH2 0x2529 JUMPI PUSH1 0x9 PUSH1 0x0 MSTORE PUSH1 0x20 PUSH1 0x0 KECCAK256 ADD SWAP1 PUSH1 0x0 SWAP1 JUMP JUMPDEST PUSH4 0x4E487B71 PUSH1 0xE0 SHL PUSH1 0x0 MSTORE PUSH1 0x32 PUSH1 0x4 MSTORE PUSH1 0x24 PUSH1 0x0 REVERT JUMPDEST PUSH1 0xC SLOAD DUP2 LT ISZERO PUSH2 0x2529 JUMPI PUSH1 0xC PUSH1 0x0 MSTORE PUSH1 0x20 PUSH1 0x0 KECCAK256 ADD SWAP1 PUSH1 0x0 SWAP1 JUMP JUMPDEST PUSH1 0xB SLOAD DUP2 LT ISZERO PUSH2 0x2529 JUMPI PUSH1 0xB PUSH1 0x0 MSTORE PUSH1 0x20 PUSH1 0x0 KECCAK256 ADD SWAP1 PUSH1 0x0 SWAP1 JUMP JUMPDEST PUSH1 0xD SLOAD DUP2 LT ISZERO PUSH2 0x2529 JUMPI PUSH1 0xD PUSH1 0x0 MSTORE PUSH1 0x20 PUSH1 0x0 KECCAK256 ADD SWAP1 PUSH1 0x0 SWAP1 JUMP JUMPDEST PUSH1 0xA SLOAD DUP2 LT ISZERO PUSH2 0x2529 JUMPI PUSH1 0xA PUSH1 0x0 MSTORE PUSH1 0x20 PUSH1 0x0 KECCAK256 ADD SWAP1 PUSH1 0x0 SWAP1 JUMP JUMPDEST DUP1 SLOAD DUP3 LT ISZERO PUSH2 0x2529 JUMPI PUSH1 0x0 MSTORE PUSH1 0x20 PUSH1 0x0 KECCAK256 ADD SWAP1 PUSH1 0x0 SWAP1 JUMP JUMPDEST SWAP2 SWAP1 DUP3 MLOAD SWAP3 DUP4 DUP3 MSTORE PUSH1 0x0 JUMPDEST DUP5 DUP2 LT PUSH2 0x25EF JUMPI POP POP DUP3 PUSH1 0x0 PUSH1 0x20 DUP1 SWAP5 SWAP6 DUP5 ADD ADD MSTORE PUSH1 0x1F DUP1 NOT SWAP2 ADD AND ADD ADD SWAP1 JUMP JUMPDEST DUP1 PUSH1 0x20 DUP1 SWAP3 DUP5 ADD ADD MLOAD DUP3 DUP3 DUP7 ADD ADD MSTORE ADD PUSH2 0x25CE JUMP JUMPDEST SWAP1 PUSH1 0x3 DUP3 LT ISZERO PUSH2 0x5B9 JUMPI MSTORE JUMP JUMPDEST SWAP1 PUSH2 0x26AA SWAP1 PUSH2 0x100 DUP1 PUSH2 0x2678 PUSH2 0x2666 PUSH2 0x264A PUSH2 0x2638 DUP9 MLOAD PUSH2 0x120 DUP9 MSTORE PUSH2 0x120 DUP9 ADD SWAP1 PUSH2 0x25C3 JUMP JUMPDEST PUSH1 0x20 DUP10 ADD MLOAD DUP8 DUP3 SUB PUSH1 0x20 DUP10 ADD MSTORE PUSH2 0x25C3 JUMP JUMPDEST PUSH1 0x40 DUP9 ADD MLOAD PUSH1 0x40 DUP8 ADD MSTORE PUSH1 0x60 DUP9 ADD MLOAD DUP7 DUP3 SUB PUSH1 0x60 DUP9 ADD MSTORE PUSH2 0x25C3 JUMP JUMPDEST PUSH1 0x80 DUP8 ADD MLOAD DUP6 DUP3 SUB PUSH1 0x80 DUP8 ADD MSTORE PUSH2 0x25C3 JUMP JUMPDEST PUSH1 0xA0 DUP1 DUP8 ADD MLOAD SWAP1 DUP6 ADD MSTORE PUSH1 0xC0 DUP1 DUP8 ADD MLOAD SWAP1 DUP6 ADD MSTORE PUSH1 0xE0 DUP1 DUP8 ADD MLOAD PUSH1 0x1 PUSH1 0x1 PUSH1 0xA0 SHL SUB AND SWAP1 DUP6 ADD MSTORE SWAP5 ADD MLOAD SWAP2 ADD SWAP1 PUSH2 0x2604 JUMP JUMPDEST SWAP1 JUMP JUMPDEST PUSH1 0x20 DUP2 ADD PUSH1 0x20 DUP3 MSTORE DUP3 MLOAD DUP1 SWAP2 MSTORE PUSH1 0x40 DUP3 ADD SWAP2 PUSH1 0x20 PUSH1 0x40 DUP4 PUSH1 0x5 SHL DUP4 ADD ADD SWAP5 ADD SWAP3 PUSH1 0x0 SWAP2 JUMPDEST DUP4 DUP4 LT PUSH2 0x26E0 JUMPI POP POP POP POP POP SWAP1 JUMP JUMPDEST SWAP1 SWAP2 SWAP3 SWAP4 SWAP5 PUSH1 0x20 DUP1 PUSH2 0x26FE PUSH1 0x1 SWAP4 PUSH1 0x3F NOT DUP7 DUP3 SUB ADD DUP8 MSTORE DUP10 MLOAD PUSH2 0x2611 JUMP JUMPDEST SWAP8 ADD SWAP4 ADD SWAP4 ADD SWAP2 SWAP4 SWAP3 SWAP1 PUSH2 0x26D1 JUMP JUMPDEST SWAP1 PUSH2 0x26AA SWAP1 DUP3 MLOAD ISZERO ISZERO DUP2 MSTORE PUSH2 0x100 DUP1 PUSH2 0x2780 PUSH2 0x276E PUSH2 0x275C PUSH2 0x2740 PUSH1 0x20 DUP10 ADD MLOAD PUSH2 0x120 PUSH1 0x20 DUP10 ADD MSTORE PUSH2 0x120 DUP9 ADD SWAP1 PUSH2 0x25C3 JUMP JUMPDEST PUSH1 0x40 DUP10 ADD MLOAD PUSH1 0x40 DUP9 ADD MSTORE PUSH1 0x60 DUP10 ADD MLOAD DUP8 DUP3 SUB PUSH1 0x60 DUP10 ADD MSTORE PUSH2 0x25C3 JUMP JUMPDEST PUSH1 0x80 DUP9 ADD MLOAD DUP7 DUP3 SUB PUSH1 0x80 DUP9 ADD MSTORE PUSH2 0x25C3 JUMP JUMPDEST PUSH1 0xA0 DUP8 ADD MLOAD DUP6 DUP3 SUB PUSH1 0xA0 DUP8 ADD MSTORE PUSH2 0x25C3 JUMP JUMPDEST PUSH1 0xC0 DUP1 DUP8 ADD MLOAD SWAP1 DUP6 ADD MSTORE PUSH1 0xE0 DUP1 DUP8 ADD MLOAD PUSH1 0x1 PUSH1 0x1 PUSH1 0xA0 SHL SUB AND SWAP1 DUP6 ADD MSTORE SWAP5 ADD MLOAD SWAP2 ADD SWAP1 PUSH2 0x2604 JUMP JUMPDEST PUSH1 0x20 DUP2 ADD PUSH1 0x20 DUP3 MSTORE DUP3 MLOAD DUP1 SWAP2 MSTORE PUSH1 0x40 DUP3 ADD SWAP2 PUSH1 0x20 PUSH1 0x40 DUP4 PUSH1 0x5 SHL DUP4 ADD ADD SWAP5 ADD SWAP3 PUSH1 0x0 SWAP2 JUMPDEST DUP4 DUP4 LT PUSH2 0x27DB JUMPI POP POP POP POP POP SWAP1 JUMP JUMPDEST SWAP1 SWAP2 SWAP3 SWAP4 SWAP5 PUSH1 0x20 DUP1 PUSH2 0x27F9 PUSH1 0x1 SWAP4 PUSH1 0x3F NOT DUP7 DUP3 SUB ADD DUP8 MSTORE DUP10 MLOAD PUSH2 0x270D JUMP JUMPDEST SWAP8 ADD SWAP4 ADD SWAP4 ADD SWAP2 SWAP4 SWAP3 SWAP1 PUSH2 0x27CC JUMP JUMPDEST PUSH1 0x4 CALLDATALOAD SWAP1 PUSH1 0x1 PUSH1 0x1 PUSH1 0xA0 SHL SUB DUP3 AND DUP3 SUB PUSH2 0x345 JUMPI JUMP JUMPDEST PUSH2 0x120 DUP2 ADD SWAP1 DUP2 LT PUSH1 0x1 PUSH1 0x1 PUSH1 0x40 SHL SUB DUP3 GT OR PUSH2 0x277 JUMPI PUSH1 0x40 MSTORE JUMP JUMPDEST SWAP1 PUSH1 0x1F DUP1 NOT SWAP2 ADD AND DUP2 ADD SWAP1 DUP2 LT PUSH1 0x1 PUSH1 0x1 PUSH1 0x40 SHL SUB DUP3 GT OR PUSH2 0x277 JUMPI PUSH1 0x40 MSTORE JUMP JUMPDEST DUP2 PUSH1 0x1F DUP3 ADD SLT ISZERO PUSH2 0x345 JUMPI DUP1 CALLDATALOAD SWAP1 PUSH1 0x1 PUSH1 0x1 PUSH1 0x40 SHL SUB DUP3 GT PUSH2 0x277 JUMPI PUSH1 0x40 MLOAD SWAP3 PUSH2 0x288F PUSH1 0x1F DUP5 ADD PUSH1 0x1F NOT AND PUSH1 0x20 ADD DUP6 PUSH2 0x283A JUMP JUMPDEST DUP3 DUP5 MSTORE PUSH1 0x20 DUP4 DUP4 ADD ADD GT PUSH2 0x345 JUMPI DUP2 PUSH1 0x0 SWAP3 PUSH1 0x20 DUP1 SWAP4 ADD DUP4 DUP7 ADD CALLDATACOPY DUP4 ADD ADD MSTORE SWAP1 JUMP JUMPDEST SWAP1 PUSH1 0x40 PUSH1 0x3 NOT DUP4 ADD SLT PUSH2 0x345 JUMPI PUSH1 0x4 CALLDATALOAD PUSH1 0x1 PUSH1 0x1 PUSH1 0xA0 SHL SUB DUP2 AND DUP2 SUB PUSH2 0x345 JUMPI SWAP2 PUSH1 0x24 CALLDATALOAD SWAP1 PUSH1 0x1 PUSH1 0x1 PUSH1 0x40 SHL SUB DUP3 GT PUSH2 0x345 JUMPI PUSH2 0x26AA SWAP2 PUSH1 0x4 ADD PUSH2 0x285B JUMP JUMPDEST SWAP1 PUSH1 0x80 PUSH1 0x3 NOT DUP4 ADD SLT PUSH2 0x345 JUMPI PUSH1 0x4 CALLDATALOAD PUSH1 0x1 PUSH1 0x1 PUSH1 0x40 SHL SUB DUP2 GT PUSH2 0x345 JUMPI DUP3 PUSH2 0x291B SWAP2 PUSH1 0x4 ADD PUSH2 0x285B JUMP JUMPDEST SWAP2 PUSH1 0x24 CALLDATALOAD SWAP2 PUSH1 0x44 CALLDATALOAD PUSH1 0x1 PUSH1 0x1 PUSH1 0x40 SHL SUB DUP2 GT PUSH2 0x345 JUMPI DUP3 PUSH2 0x293E SWAP2 PUSH1 0x4 ADD PUSH2 0x285B JUMP JUMPDEST SWAP2 PUSH1 0x64 CALLDATALOAD SWAP1 PUSH1 0x1 PUSH1 0x1 PUSH1 0x40 SHL SUB DUP3 GT PUSH2 0x345 JUMPI PUSH2 0x26AA SWAP2 PUSH1 0x4 ADD PUSH2 0x285B JUMP JUMPDEST SWAP1 PUSH1 0x1 DUP3 DUP2 SHR SWAP3 AND DUP1 ISZERO PUSH2 0x298D JUMPI JUMPDEST PUSH1 0x20 DUP4 LT EQ PUSH2 0x2977 JUMPI JUMP JUMPDEST PUSH4 0x4E487B71 PUSH1 0xE0 SHL PUSH1 0x0 MSTORE PUSH1 0x22 PUSH1 0x4 MSTORE PUSH1 0x24 PUSH1 0x0 REVERT JUMPDEST SWAP2 PUSH1 0x7F AND SWAP2 PUSH2 0x296C JUMP JUMPDEST SWAP1 PUSH1 0x40 MLOAD SWAP2 DUP3 PUSH1 0x0 DUP3 SLOAD SWAP3 PUSH2 0x29AB DUP5 PUSH2 0x295D JUMP JUMPDEST DUP1 DUP5 MSTORE SWAP4 PUSH1 0x1 DUP2 AND SWAP1 DUP2 ISZERO PUSH2 0x2A19 JUMPI POP PUSH1 0x1 EQ PUSH2 0x29D2 JUMPI JUMPDEST POP PUSH2 0x29D0 SWAP3 POP SUB DUP4 PUSH2 0x283A JUMP JUMPDEST JUMP JUMPDEST SWAP1 POP PUSH1 0x0 SWAP3 SWAP2 SWAP3 MSTORE PUSH1 0x20 PUSH1 0x0 KECCAK256 SWAP1 PUSH1 0x0 SWAP2 JUMPDEST DUP2 DUP4 LT PUSH2 0x29FD JUMPI POP POP SWAP1 PUSH1 0x20 PUSH2 0x29D0 SWAP3 DUP3 ADD ADD CODESIZE PUSH2 0x29C3 JUMP JUMPDEST PUSH1 0x20 SWAP2 SWAP4 POP DUP1 PUSH1 0x1 SWAP2 SLOAD DUP4 DUP6 DUP10 ADD ADD MSTORE ADD SWAP2 ADD SWAP1 SWAP2 DUP5 SWAP3 PUSH2 0x29E4 JUMP JUMPDEST SWAP1 POP PUSH1 0x20 SWAP3 POP PUSH2 0x29D0 SWAP5 SWAP2 POP PUSH1 0xFF NOT AND DUP3 DUP5 ADD MSTORE ISZERO ISZERO PUSH1 0x5 SHL DUP3 ADD ADD CODESIZE PUSH2 0x29C3 JUMP JUMPDEST PUSH1 0x1 PUSH1 0x1 PUSH1 0x40 SHL SUB DUP2 GT PUSH2 0x277 JUMPI PUSH1 0x5 SHL PUSH1 0x20 ADD SWAP1 JUMP JUMPDEST PUSH1 0x40 MLOAD SWAP1 PUSH2 0x2A5F DUP3 PUSH2 0x281E JUMP JUMPDEST PUSH1 0x0 PUSH2 0x100 DUP4 PUSH1 0x60 DUP2 MSTORE PUSH1 0x60 PUSH1 0x20 DUP3 ADD MSTORE DUP3 PUSH1 0x40 DUP3 ADD MSTORE PUSH1 0x60 DUP1 DUP3 ADD MSTORE PUSH1 0x60 PUSH1 0x80 DUP3 ADD MSTORE DUP3 PUSH1 0xA0 DUP3 ADD MSTORE DUP3 PUSH1 0xC0 DUP3 ADD MSTORE DUP3 PUSH1 0xE0 DUP3 ADD MSTORE ADD MSTORE JUMP JUMPDEST SWAP1 PUSH2 0x2AA3 DUP3 PUSH2 0x2A3B JUMP JUMPDEST PUSH2 0x2AB0 PUSH1 0x40 MLOAD SWAP2 DUP3 PUSH2 0x283A JUMP JUMPDEST DUP3 DUP2 MSTORE DUP1 SWAP3 PUSH2 0x2AC1 PUSH1 0x1F NOT SWAP2 PUSH2 0x2A3B JUMP JUMPDEST ADD SWAP1 PUSH1 0x0 JUMPDEST DUP3 DUP2 LT PUSH2 0x2AD2 JUMPI POP POP POP JUMP JUMPDEST PUSH1 0x20 SWAP1 PUSH2 0x2ADD PUSH2 0x2A52 JUMP JUMPDEST DUP3 DUP3 DUP6 ADD ADD MSTORE ADD PUSH2 0x2AC6 JUMP JUMPDEST DUP1 MLOAD DUP3 LT ISZERO PUSH2 0x2529 JUMPI PUSH1 0x20 SWAP2 PUSH1 0x5 SHL ADD ADD SWAP1 JUMP JUMPDEST PUSH1 0x3 DUP3 LT ISZERO PUSH2 0x5B9 JUMPI MSTORE JUMP JUMPDEST PUSH1 0x40 MLOAD SWAP1 PUSH2 0x2B16 DUP3 PUSH2 0x281E JUMP JUMPDEST PUSH1 0x0 PUSH2 0x100 DUP4 DUP3 DUP2 MSTORE PUSH1 0x60 PUSH1 0x20 DUP3 ADD MSTORE DUP3 PUSH1 0x40 DUP3 ADD MSTORE PUSH1 0x60 DUP1 DUP3 ADD MSTORE PUSH1 0x60 PUSH1 0x80 DUP3 ADD MSTORE PUSH1 0x60 PUSH1 0xA0 DUP3 ADD MSTORE DUP3 PUSH1 0xC0 DUP3 ADD MSTORE DUP3 PUSH1 0xE0 DUP3 ADD MSTORE ADD MSTORE JUMP JUMPDEST SWAP1 PUSH2 0x2B5A DUP3 PUSH2 0x2A3B JUMP JUMPDEST PUSH2 0x2B67 PUSH1 0x40 MLOAD SWAP2 DUP3 PUSH2 0x283A JUMP JUMPDEST DUP3 DUP2 MSTORE DUP1 SWAP3 PUSH2 0x2B78 PUSH1 0x1F NOT SWAP2 PUSH2 0x2A3B JUMP JUMPDEST ADD SWAP1 PUSH1 0x0 JUMPDEST DUP3 DUP2 LT PUSH2 0x2B89 JUMPI POP POP POP JUMP JUMPDEST PUSH1 0x20 SWAP1 PUSH2 0x2B94 PUSH2 0x2B09 JUMP JUMPDEST DUP3 DUP3 DUP6 ADD ADD MSTORE ADD PUSH2 0x2B7D JUMP JUMPDEST ISZERO PUSH2 0x2BA7 JUMPI JUMP JUMPDEST PUSH1 0x40 MLOAD PUSH3 0x461BCD PUSH1 0xE5 SHL DUP2 MSTORE PUSH1 0x20 PUSH1 0x4 DUP3 ADD MSTORE PUSH1 0xA PUSH1 0x24 DUP3 ADD MSTORE PUSH10 0x27B7363C9037BBB732B9 PUSH1 0xB1 SHL PUSH1 0x44 DUP3 ADD MSTORE PUSH1 0x64 SWAP1 REVERT JUMPDEST SWAP1 PUSH1 0x3 DUP2 LT ISZERO PUSH2 0x5B9 JUMPI DUP2 SLOAD PUSH1 0xFF PUSH1 0xA0 SHL NOT AND PUSH1 0xA0 SWAP2 SWAP1 SWAP2 SHL PUSH1 0xFF PUSH1 0xA0 SHL AND OR SWAP1 SSTORE JUMP JUMPDEST PUSH1 0x0 NOT DUP2 EQ PUSH2 0x2C0C JUMPI PUSH1 0x1 ADD SWAP1 JUMP JUMPDEST PUSH4 0x4E487B71 PUSH1 0xE0 SHL PUSH1 0x0 MSTORE PUSH1 0x11 PUSH1 0x4 MSTORE PUSH1 0x24 PUSH1 0x0 REVERT JUMPDEST PUSH1 0x40 MLOAD SWAP1 PUSH2 0x2C31 PUSH1 0x60 DUP4 PUSH2 0x283A JUMP JUMPDEST PUSH1 0x21 DUP3 MSTORE PUSH1 0x1B PUSH1 0xFA SHL PUSH1 0x40 DUP4 PUSH32 0x526567697374726174696F6E206973206177616974696E6720617070726F7661 PUSH1 0x20 DUP3 ADD MSTORE ADD MSTORE JUMP JUMPDEST ISZERO PUSH2 0x2C6E JUMPI JUMP JUMPDEST PUSH1 0x40 MLOAD PUSH3 0x461BCD PUSH1 0xE5 SHL DUP2 MSTORE PUSH1 0x20 PUSH1 0x4 DUP3 ADD MSTORE PUSH1 0x18 PUSH1 0x24 DUP3 ADD MSTORE PUSH32 0x4E6F20766F746572206461746120617661696C61626C652E0000000000000000 PUSH1 0x44 DUP3 ADD MSTORE PUSH1 0x64 SWAP1 REVERT JUMPDEST ISZERO PUSH2 0x2CBA JUMPI JUMP JUMPDEST PUSH1 0x40 MLOAD PUSH3 0x461BCD PUSH1 0xE5 SHL DUP2 MSTORE PUSH1 0x20 PUSH1 0x4 DUP3 ADD MSTORE PUSH1 0x29 PUSH1 0x24 DUP3 ADD MSTORE PUSH32 0x5468697320766F74657220646F6573206E6F742061707065617220696E206F75 PUSH1 0x44 DUP3 ADD MSTORE PUSH9 0x391039BCB9BA32B697 PUSH1 0xB9 SHL PUSH1 0x64 DUP3 ADD MSTORE PUSH1 0x84 SWAP1 REVERT JUMPDEST PUSH2 0x2D19 PUSH2 0x2A52 JUMP JUMPDEST POP PUSH2 0x2D22 PUSH2 0x2A52 JUMP JUMPDEST PUSH1 0xB SLOAD PUSH1 0x0 DUP1 JUMPDEST DUP3 DUP2 LT PUSH2 0x2D36 JUMPI POP POP POP SWAP1 JUMP JUMPDEST PUSH2 0x2D3F DUP2 PUSH2 0x255A JUMP JUMPDEST PUSH1 0x1 DUP1 PUSH1 0xA0 SHL SUB SWAP2 SLOAD SWAP1 PUSH1 0x3 SHL SHR AND PUSH1 0x0 MSTORE PUSH1 0x8 PUSH1 0x20 MSTORE PUSH1 0x40 PUSH1 0x0 KECCAK256 PUSH1 0x40 MLOAD SWAP1 PUSH2 0x2D68 DUP3 PUSH2 0x281E JUMP JUMPDEST PUSH2 0x2D71 DUP2 PUSH2 0x2997 JUMP JUMPDEST DUP3 MSTORE PUSH2 0x2D7F PUSH1 0x1 DUP3 ADD PUSH2 0x2997 JUMP JUMPDEST PUSH1 0x20 DUP4 ADD MSTORE PUSH1 0x2 DUP2 ADD SLOAD PUSH1 0x40 DUP4 ADD MSTORE PUSH2 0x2D9A PUSH1 0x3 DUP3 ADD PUSH2 0x2997 JUMP JUMPDEST PUSH1 0x60 DUP4 ADD MSTORE PUSH2 0x2DAB PUSH1 0x4 DUP3 ADD PUSH2 0x2997 JUMP JUMPDEST PUSH1 0x80 DUP4 ADD MSTORE PUSH1 0x5 DUP2 ADD SLOAD PUSH1 0xA0 DUP4 ADD MSTORE PUSH2 0x2DEC PUSH1 0xFF PUSH1 0x7 PUSH1 0x6 DUP5 ADD SLOAD SWAP4 PUSH1 0xC0 DUP7 ADD SWAP5 DUP6 MSTORE ADD SLOAD PUSH1 0x1 DUP1 PUSH1 0xA0 SHL SUB DUP2 AND PUSH1 0xE0 DUP7 ADD MSTORE PUSH1 0xA0 SHR AND PUSH2 0x100 DUP5 ADD PUSH2 0x2AFD JUMP JUMPDEST MLOAD DUP4 DUP2 GT PUSH2 0x2DFF JUMPI JUMPDEST POP POP PUSH1 0x1 ADD PUSH2 0x2D29 JUMP JUMPDEST SWAP1 SWAP5 POP SWAP2 POP PUSH1 0x1 CODESIZE PUSH2 0x2DF5 JUMP JUMPDEST PUSH2 0x2E14 PUSH2 0x2A52 JUMP JUMPDEST POP PUSH1 0xB SLOAD ISZERO PUSH2 0x2F11 JUMPI PUSH1 0x3 SLOAD TIMESTAMP LT PUSH2 0x2E2E JUMPI PUSH2 0x26AA PUSH2 0x2D11 JUMP JUMPDEST PUSH1 0x40 MLOAD PUSH2 0x2E3A DUP2 PUSH2 0x281E JUMP JUMPDEST PUSH1 0x40 DUP1 MLOAD PUSH2 0x2E48 DUP3 DUP3 PUSH2 0x283A JUMP JUMPDEST PUSH1 0xF DUP2 MSTORE PUSH15 0x139BDD08191958DA591959081E595D PUSH1 0x8A SHL PUSH1 0x20 DUP3 ADD MSTORE DUP3 MSTORE DUP1 MLOAD PUSH2 0x2E73 PUSH1 0x60 DUP3 PUSH2 0x283A JUMP JUMPDEST PUSH1 0x36 DUP2 MSTORE PUSH32 0x506C65617365207761697420756E74696C2074686520656C656374696F6E2065 PUSH1 0x20 DUP3 ADD MSTORE PUSH22 0x373239903A379039B2B2903A3432903BB4B73732B917 PUSH1 0x51 SHL DUP3 DUP3 ADD MSTORE PUSH1 0x20 DUP4 ADD MSTORE PUSH1 0x0 DUP2 DUP4 ADD MSTORE DUP1 MLOAD PUSH2 0x2ED3 PUSH1 0x20 DUP3 PUSH2 0x283A JUMP JUMPDEST PUSH1 0x0 DUP2 MSTORE PUSH1 0x60 DUP4 ADD MSTORE MLOAD PUSH2 0x2EE8 PUSH1 0x20 DUP3 PUSH2 0x283A JUMP JUMPDEST PUSH1 0x0 DUP2 MSTORE PUSH1 0x80 DUP3 ADD MSTORE PUSH1 0x0 PUSH1 0xA0 DUP3 ADD MSTORE PUSH1 0x0 PUSH1 0xC0 DUP3 ADD MSTORE PUSH1 0x0 PUSH1 0xE0 DUP3 ADD MSTORE PUSH1 0x0 PUSH2 0x100 DUP3 ADD MSTORE SWAP1 JUMP JUMPDEST PUSH1 0x40 MLOAD PUSH3 0x461BCD PUSH1 0xE5 SHL DUP2 MSTORE PUSH1 0x20 PUSH1 0x4 DUP3 ADD MSTORE PUSH1 0x24 DUP1 DUP3 ADD MSTORE PUSH32 0x4E6F2043616E6469646174657320616363657074656420666F7220656C656374 PUSH1 0x44 DUP3 ADD MSTORE PUSH4 0x34B7B717 PUSH1 0xE1 SHL PUSH1 0x64 DUP3 ADD MSTORE PUSH1 0x84 SWAP1 REVERT INVALID LOG2 PUSH5 0x6970667358 0x22 SLT KECCAK256 PUSH19 0x6D13C8B6110A827FB84C1BA5B48EFDE08B8D62 SWAP2 0xE0 0xAE SWAP9 PUSH31 0x279A0624F86C664736F6C634300081C003300000000000000000000000000 "},"methodIdentifiers":{"CurrentVotingStatus()":"bab912a2","ListofAcceptedCandidates()":"3cfde26c","ListofAcceptedVoters()":"23a2b2ed","ListofRegisteredCandidates()":"1ee9367c","ListofRegisteredVoters()":"60fc4e32","acceptedCandidates(uint256)":"9e7a8145","acceptedVoters(uint256)":"53dd128c","approveCandidate(address,string)":"7eb21b51","approveVoter(address,string)":"fad761d3","candidates(address)":"8ab66a90","candidatesRegistered(uint256)":"0366ac37","electionName()":"85e8e7a7","findCandidate(address)":"dbf7be47","findVoter(address)":"57f3a8e5","getAllVotersWhoCasted()":"8987cb32","owner()":"8da5cb5b","registerCandidate(string,uint256,string,string)":"71565d2e","registerVoter(string,uint256,string,string)":"cd6cf311","rejectCandidate(address,string)":"59632c22","rejectVoter(address,string)":"4a2846a8","resultPublicationTime()":"ac94ba4c","setResultPublicationTime(uint256)":"5b45cfca","startendVoting(uint256,uint256)":"f33698f1","updateCandidate(string)":"79432db5","updateVoter(string)":"82ff2aeb","vote(address)":"6dd7d8ea","voters(address)":"a3ec138d","votersRegistered(uint256)":"849c5657","votersWhoCasted(uint256)":"5f1bc34e","votingEndTime()":"1ea736e0","votingStartTime()":"2019a608","winningCandidate()":"d28178d7"}}}}}