{"contracts/VotingSystem.sol":{"VotingSystem":{"abi":[{"inputs":[{"internalType":"string","name":"_name","type":"string"}],"stateMutability":"nonpayable","type":"constructor"},{"inputs":[],"name":"CurrentVotingStatus","outputs":[{"components":[{"internalType":"uint256","name":"registeredId","type":"uint256"},{"internalType":"uint256","name":"voteCalculation","type":"uint256"},{"internalType":"address","name":"candidatesAddress","type":"address"},{"internalType":"enum VotingSystem.ConfirmationStatus","name":"status","type":"uint8"},{"internalType":"string","name":"ipfsHash","type":"string"},{"internalType":"string","name":"message","type":"string"}],"internalType":"struct VotingSystem.Candidate","name":"","type":"tuple"}],"stateMutability":"view","type":"function"},{"inputs":[],"name":"ListofAcceptedCandidates","outputs":[{"components":[{"internalType":"uint256","name":"registeredId","type":"uint256"},{"internalType":"uint256","name":"voteCalculation","type":"uint256"},{"internalType":"address","name":"candidatesAddress","type":"address"},{"internalType":"enum VotingSystem.ConfirmationStatus","name":"status","type":"uint8"},{"internalType":"string","name":"ipfsHash","type":"string"},{"internalType":"string","name":"message","type":"string"}],"internalType":"struct VotingSystem.Candidate[]","name":"","type":"tuple[]"}],"stateMutability":"view","type":"function"},{"inputs":[],"name":"ListofAcceptedVoters","outputs":[{"components":[{"internalType":"bool","name":"alreadyVoted","type":"bool"},{"internalType":"string","name":"message","type":"string"},{"internalType":"string","name":"ipfsHash","type":"string"},{"internalType":"uint256","name":"registeredId","type":"uint256"},{"internalType":"address","name":"votersAddress","type":"address"},{"internalType":"enum VotingSystem.ConfirmationStatus","name":"status","type":"uint8"}],"internalType":"struct VotingSystem.Voter[]","name":"","type":"tuple[]"}],"stateMutability":"view","type":"function"},{"inputs":[],"name":"ListofRegisteredCandidates","outputs":[{"components":[{"internalType":"uint256","name":"registeredId","type":"uint256"},{"internalType":"uint256","name":"voteCalculation","type":"uint256"},{"internalType":"address","name":"candidatesAddress","type":"address"},{"internalType":"enum VotingSystem.ConfirmationStatus","name":"status","type":"uint8"},{"internalType":"string","name":"ipfsHash","type":"string"},{"internalType":"string","name":"message","type":"string"}],"internalType":"struct VotingSystem.Candidate[]","name":"","type":"tuple[]"}],"stateMutability":"view","type":"function"},{"inputs":[],"name":"ListofRegisteredVoters","outputs":[{"components":[{"internalType":"bool","name":"alreadyVoted","type":"bool"},{"internalType":"string","name":"message","type":"string"},{"internalType":"string","name":"ipfsHash","type":"string"},{"internalType":"uint256","name":"registeredId","type":"uint256"},{"internalType":"address","name":"votersAddress","type":"address"},{"internalType":"enum VotingSystem.ConfirmationStatus","name":"status","type":"uint8"}],"internalType":"struct VotingSystem.Voter[]","name":"","type":"tuple[]"}],"stateMutability":"view","type":"function"},{"inputs":[],"name":"ListofRejectedCandidates","outputs":[{"components":[{"internalType":"uint256","name":"registeredId","type":"uint256"},{"internalType":"uint256","name":"voteCalculation","type":"uint256"},{"internalType":"address","name":"candidatesAddress","type":"address"},{"internalType":"enum VotingSystem.ConfirmationStatus","name":"status","type":"uint8"},{"internalType":"string","name":"ipfsHash","type":"string"},{"internalType":"string","name":"message","type":"string"}],"internalType":"struct VotingSystem.Candidate[]","name":"","type":"tuple[]"}],"stateMutability":"view","type":"function"},{"inputs":[],"name":"ListofRejectedVoters","outputs":[{"components":[{"internalType":"bool","name":"alreadyVoted","type":"bool"},{"internalType":"string","name":"message","type":"string"},{"internalType":"string","name":"ipfsHash","type":"string"},{"internalType":"uint256","name":"registeredId","type":"uint256"},{"internalType":"address","name":"votersAddress","type":"address"},{"internalType":"enum VotingSystem.ConfirmationStatus","name":"status","type":"uint8"}],"internalType":"struct VotingSystem.Voter[]","name":"","type":"tuple[]"}],"stateMutability":"view","type":"function"},{"inputs":[{"internalType":"uint256","name":"","type":"uint256"}],"name":"acceptedCandidates","outputs":[{"internalType":"address","name":"","type":"address"}],"stateMutability":"view","type":"function"},{"inputs":[{"internalType":"uint256","name":"","type":"uint256"}],"name":"acceptedVoters","outputs":[{"internalType":"address","name":"","type":"address"}],"stateMutability":"view","type":"function"},{"inputs":[{"internalType":"address","name":"_candidatesAddress","type":"address"},{"internalType":"string","name":"_message","type":"string"}],"name":"approveCandidate","outputs":[],"stateMutability":"nonpayable","type":"function"},{"inputs":[{"internalType":"address","name":"_votersAddress","type":"address"},{"internalType":"string","name":"_message","type":"string"}],"name":"approveVoter","outputs":[],"stateMutability":"nonpayable","type":"function"},{"inputs":[{"internalType":"address","name":"","type":"address"}],"name":"candidates","outputs":[{"internalType":"uint256","name":"registeredId","type":"uint256"},{"internalType":"uint256","name":"voteCalculation","type":"uint256"},{"internalType":"address","name":"candidatesAddress","type":"address"},{"internalType":"enum VotingSystem.ConfirmationStatus","name":"status","type":"uint8"},{"internalType":"string","name":"ipfsHash","type":"string"},{"internalType":"string","name":"message","type":"string"}],"stateMutability":"view","type":"function"},{"inputs":[{"internalType":"uint256","name":"","type":"uint256"}],"name":"candidatesRegistered","outputs":[{"internalType":"address","name":"","type":"address"}],"stateMutability":"view","type":"function"},{"inputs":[{"internalType":"address","name":"newOwner","type":"address"}],"name":"changeOwner","outputs":[],"stateMutability":"nonpayable","type":"function"},{"inputs":[],"name":"electionName","outputs":[{"internalType":"string","name":"","type":"string"}],"stateMutability":"view","type":"function"},{"inputs":[],"name":"getAllVotersWhoCasted","outputs":[{"components":[{"internalType":"bool","name":"alreadyVoted","type":"bool"},{"internalType":"string","name":"message","type":"string"},{"internalType":"string","name":"ipfsHash","type":"string"},{"internalType":"uint256","name":"registeredId","type":"uint256"},{"internalType":"address","name":"votersAddress","type":"address"},{"internalType":"enum VotingSystem.ConfirmationStatus","name":"status","type":"uint8"}],"internalType":"struct VotingSystem.Voter[]","name":"","type":"tuple[]"}],"stateMutability":"view","type":"function"},{"inputs":[],"name":"owner","outputs":[{"internalType":"address","name":"","type":"address"}],"stateMutability":"view","type":"function"},{"inputs":[{"internalType":"string","name":"_ipfsHash","type":"string"}],"name":"registerCandidate","outputs":[],"stateMutability":"nonpayable","type":"function"},{"inputs":[{"internalType":"string","name":"_ipfsHash","type":"string"}],"name":"registerVoter","outputs":[],"stateMutability":"nonpayable","type":"function"},{"inputs":[{"internalType":"address","name":"_candidatesAddress","type":"address"},{"internalType":"string","name":"_message","type":"string"}],"name":"rejectCandidate","outputs":[],"stateMutability":"nonpayable","type":"function"},{"inputs":[{"internalType":"address","name":"_votersAddress","type":"address"},{"internalType":"string","name":"_message","type":"string"}],"name":"rejectVoter","outputs":[],"stateMutability":"nonpayable","type":"function"},{"inputs":[{"internalType":"uint256","name":"","type":"uint256"}],"name":"rejectedCandidates","outputs":[{"internalType":"address","name":"","type":"address"}],"stateMutability":"view","type":"function"},{"inputs":[{"internalType":"uint256","name":"","type":"uint256"}],"name":"rejectedVoters","outputs":[{"internalType":"address","name":"","type":"address"}],"stateMutability":"view","type":"function"},{"inputs":[],"name":"resetContract","outputs":[],"stateMutability":"nonpayable","type":"function"},{"inputs":[],"name":"resultPublicationTime","outputs":[{"internalType":"uint256","name":"","type":"uint256"}],"stateMutability":"view","type":"function"},{"inputs":[{"internalType":"string","name":"_ipfsHash","type":"string"},{"internalType":"address","name":"_addr","type":"address"}],"name":"searchCandidate","outputs":[{"components":[{"internalType":"uint256","name":"registeredId","type":"uint256"},{"internalType":"uint256","name":"voteCalculation","type":"uint256"},{"internalType":"address","name":"candidatesAddress","type":"address"},{"internalType":"enum VotingSystem.ConfirmationStatus","name":"status","type":"uint8"},{"internalType":"string","name":"ipfsHash","type":"string"},{"internalType":"string","name":"message","type":"string"}],"internalType":"struct VotingSystem.Candidate[]","name":"","type":"tuple[]"}],"stateMutability":"view","type":"function"},{"inputs":[{"internalType":"address","name":"_addr","type":"address"}],"name":"searchVoter","outputs":[{"components":[{"internalType":"bool","name":"alreadyVoted","type":"bool"},{"internalType":"string","name":"message","type":"string"},{"internalType":"string","name":"ipfsHash","type":"string"},{"internalType":"uint256","name":"registeredId","type":"uint256"},{"internalType":"address","name":"votersAddress","type":"address"},{"internalType":"enum VotingSystem.ConfirmationStatus","name":"status","type":"uint8"}],"internalType":"struct VotingSystem.Voter","name":"","type":"tuple"}],"stateMutability":"view","type":"function"},{"inputs":[{"internalType":"uint256","name":"_resultPublicationTime","type":"uint256"}],"name":"setResultPublicationTime","outputs":[],"stateMutability":"nonpayable","type":"function"},{"inputs":[{"internalType":"uint256","name":"_votingStartTime","type":"uint256"},{"internalType":"uint256","name":"_votingEndTime","type":"uint256"}],"name":"startendVoting","outputs":[],"stateMutability":"nonpayable","type":"function"},{"inputs":[{"internalType":"string","name":"_ipfsHash","type":"string"}],"name":"updateCandidate","outputs":[],"stateMutability":"nonpayable","type":"function"},{"inputs":[{"internalType":"address","name":"_addr","type":"address"},{"internalType":"string","name":"_ipfsHash","type":"string"}],"name":"updateVoter","outputs":[],"stateMutability":"nonpayable","type":"function"},{"inputs":[{"internalType":"address","name":"_candidatesAddress","type":"address"}],"name":"vote","outputs":[],"stateMutability":"nonpayable","type":"function"},{"inputs":[{"internalType":"address","name":"","type":"address"}],"name":"voters","outputs":[{"internalType":"bool","name":"alreadyVoted","type":"bool"},{"internalType":"string","name":"message","type":"string"},{"internalType":"string","name":"ipfsHash","type":"string"},{"internalType":"uint256","name":"registeredId","type":"uint256"},{"internalType":"address","name":"votersAddress","type":"address"},{"internalType":"enum VotingSystem.ConfirmationStatus","name":"status","type":"uint8"}],"stateMutability":"view","type":"function"},{"inputs":[{"internalType":"uint256","name":"","type":"uint256"}],"name":"votersRegistered","outputs":[{"internalType":"address","name":"","type":"address"}],"stateMutability":"view","type":"function"},{"inputs":[{"internalType":"uint256","name":"","type":"uint256"}],"name":"votersWhoCasted","outputs":[{"internalType":"address","name":"","type":"address"}],"stateMutability":"view","type":"function"},{"inputs":[],"name":"votingEndTime","outputs":[{"internalType":"uint256","name":"","type":"uint256"}],"stateMutability":"view","type":"function"},{"inputs":[],"name":"votingStartTime","outputs":[{"internalType":"uint256","name":"","type":"uint256"}],"stateMutability":"view","type":"function"},{"inputs":[],"name":"winningCandidate","outputs":[{"components":[{"internalType":"uint256","name":"registeredId","type":"uint256"},{"internalType":"uint256","name":"voteCalculation","type":"uint256"},{"internalType":"address","name":"candidatesAddress","type":"address"},{"internalType":"enum VotingSystem.ConfirmationStatus","name":"status","type":"uint8"},{"internalType":"string","name":"ipfsHash","type":"string"},{"internalType":"string","name":"message","type":"string"}],"internalType":"struct VotingSystem.Candidate","name":"","type":"tuple"}],"stateMutability":"view","type":"function"}],"evm":{"bytecode":{"linkReferences":{},"object":"60806040523461023b5761337f8038038061001981610240565b92833981019060208183031261023b578051906001600160401b03821161023b570181601f8201121561023b578051906001600160401b0382116102105761006a601f8301601f1916602001610240565b928284526020838301011161023b5760005b82811061022657600083850160200181905280546001600160a01b03191633179055835184906001600160401b03811161021057600154600181811c91168015610206575b60208210146101f057601f811161018b575b50602091601f82116001146101275791819260009261011c575b50508160011b916000199060031b1c1916176001555b6001600555600160065560405161311990816102668239f35b0151905082806100ed565b601f198216926001600052806000209160005b8581106101735750836001951061015a575b505050811b01600155610103565b015160001960f88460031b161c1916905582808061014c565b9192602060018192868501518155019401920161013a565b60016000527fb10e2d527612073b26eecdfd717e6a320cf44b4afac2b0732d9fcbe2b7fa0cf6601f830160051c810191602084106101e6575b601f0160051c01905b8181106101da57506100d3565b600081556001016101cd565b90915081906101c4565b634e487b7160e01b600052602260045260246000fd5b90607f16906100c1565b634e487b7160e01b600052604160045260246000fd5b8060208092840101518282870101520161007c565b600080fd5b6040519190601f01601f191682016001600160401b038111838210176102105760405256fe6080604052600436101561001257600080fd5b60003560e01c80630366ac371461278c578063073f966d146126fc5780631ea736e0146126de5780631ee9367c1461264e5780632019a6081461263057806323a2b2ed146125a35780633afa3e071461257a5780633cfde26c146124a2578063429b0b22146122565780634a2846a81461204057806353dd128c1461201757806359632c2214611e015780635b45cfca14611d0e5780635e894b1214611ce55780635f1bc34e14611cbc57806360fc4e3214611c2f5780636428a486146119205780636dd7d8ea1461170f57806379432db5146115c15780637c021ecc1461145c5780637eb21b5114611225578063849c5657146111fc57806385e8e7a71461111b5780638987cb321461108e5780638ab66a9014610fe55780638da5cb5b14610fbc578063964a43b914610ee05780639e7a814514610e9e5780639eb88db614610be1578063a3ec138d14610b30578063a6f9dae114610a8e578063ac94ba4c14610a70578063b181a8fc146106a2578063b381a935146105ef578063bab912a2146105d3578063d28178d71461059f578063f33698f11461047a5763fad761d3146101be57600080fd5b34610475576101cc36612b19565b906101e260018060a01b03600054163314612d83565b6001600160a01b0381811660008181526007602052604090206004810180549294939092161561041e57815460ff60a01b1916600160a01b179091558351600191909101906001600160401b03811161039857610249816102438454612b58565b84612df7565b602094601f82116001146103b95761027d9293949582916000926103ae575b50508160011b916000199060031b1c19161790565b90555b600c5490600160401b821015610398576102a58260016102c99401600c55600c612884565b9080546001600160a01b0360039390931b83811b199091169290931690921b179055565b60005b600e548082101561039657826102e183612818565b905460039190911b1c6001600160a01b03161461030157506001016102cc565b600019810192508211610380576102a561031d61033593612818565b905460039190911b1c6001600160a01b031691612818565b600e54801561036a576000190161036561035082600e612884565b81549060018060a01b039060031b1b19169055565b600e55005b634e487b7160e01b600052603160045260246000fd5b634e487b7160e01b600052601160045260246000fd5b005b634e487b7160e01b600052604160045260246000fd5b015190503880610268565b601f1982169583600052806000209160005b888110610406575083600195969798106103ed575b505050811b019055610280565b015160001960f88460031b161c191690553880806103e0565b919260206001819286850151815501940192016103cb565b60405162461bcd60e51b815260206004820152602960248201527f5468697320766f74657220646f6573206e6f742061707065617220696e206f75604482015268391039bcb9ba32b69760b91b6064820152608490fd5b600080fd5b3461047557604036600319011261047557600435602435906104a760018060a01b03600054163314612d83565b60025461055a574281111561051657818110156104c657600255600355005b60405162461bcd60e51b815260206004820152602260248201527f53746172742074696d65206d757374206265206265666f726520656e642074696044820152616d6560f01b6064820152608490fd5b606460405162461bcd60e51b815260206004820152602060248201527f53746172742074696d65206d75737420626520696e20746865206675747572656044820152fd5b60405162461bcd60e51b815260206004820152601860248201527f566f74696e6720616c7265616479207363686564756c656400000000000000006044820152606490fd5b34610475576000366003190112610475576105cf6105bb612ff4565b6040519182916020835260208301906128ea565b0390f35b34610475576000366003190112610475576105cf6105bb612f26565b3461047557602036600319011261047557610608612b03565b610610612cf1565b5060018060a01b031660005260076020526105cf604060002061068e60ff60046040519361063d85612a71565b828154161515855261065160018201612b92565b602086015261066260028201612b92565b604086015260038101546060860152015460018060a01b038116608085015260a01c1660a08301612ce5565b6040519182916020835260208301906129af565b34610475576000366003190112610475576106c860018060a01b03600054163314612d83565b6003548015159081610a66575b5015610a07576106e6600154612b58565b601f81116109c8575b50600060015560006002556000600355600060045560005b600954811015610766578061071d6001926127b1565b838060a01b0391549060031b1c16600052600860205261076060046040600020600081556000858201556000600282015561075a60038201612ed7565b01612ed7565b01610707565b60095460006009558061098f575b50600b546000600b5580610956575b50600d546000600d558061091d575b5060005b600a548110156107f257806107ac600192612869565b838060a01b0391549060031b1c16600052600760205260006004604082208281556107d8858201612ed7565b6107e460028201612ed7565b826003820155015501610796565b600a546000600a55806108e4575b50600c546000600c55806108ab575b50600e546000600e5580610872575b50600f546000600f5580610839575b60016005819055600655005b600f60005261086c907f8d1108e10bcb7c27dddfc02ed9d693a074039d026cf4ea4240b40f7d581ac80290810190612de0565b8061082d565b600e6000526108a5907fbb7b4a454dc3493923482f07822329ed19e8244eff582cc204f8554c3620c3fd90810190612de0565b8061081e565b600c6000526108de907fdf6966c971051c3d54ec59162606531493a51404a002842f56009d7e5cf4a8c790810190612de0565b8061080f565b600a600052610917907fc65a7bb8d6351c1cf70c95a316cc6a92839c986682d98bc35f958f4883f9d2a890810190612de0565b80610800565b600d600052610950907fd7b6990105719101dabeb77144f2a3385c8033acd3af97e9423a695e81ad1eb590810190612de0565b80610792565b600b600052610989907f0175b7a638427703f0dbe7bb9bbf987a2551717b34e79f33b5b1008d1fa01db990810190612de0565b80610783565b60096000526109c2907f6e1540171b6c0c960b71a7020d9f60077f6af931a8bbf590da0223dacf75c7af90810190612de0565b80610774565b6001600052610a0190601f0160051c7fb10e2d527612073b26eecdfd717e6a320cf44b4afac2b0732d9fcbe2b7fa0cf690810190612de0565b806106ef565b60405162461bcd60e51b815260206004820152603160248201527f456c656374696f6e206973207374696c6c206f6e676f696e672e2043616e6e6f6044820152703a103932b9b2ba1031b7b73a3930b1ba1760791b6064820152608490fd5b90504211816106d5565b34610475576000366003190112610475576020600454604051908152f35b3461047557602036600319011261047557610aa7612b03565b60005490610abf336001600160a01b03841614612d83565b6001600160a01b0316908115610adf576001600160a01b03191617600055005b60405162461bcd60e51b8152602060048201526024808201527f4e6577206f776e65722063616e6e6f7420626520746865207a65726f206164646044820152637265737360e01b6064820152608490fd5b34610475576020366003190112610475576001600160a01b03610b51612b03565b166000526007602052604060002060ff815416610b7060018301612b92565b916105cf610b8060028301612b92565b610bba6004600385015494015491610bac6040519788971515885260c0602089015260c08801906128a9565b9086820360408801526128a9565b60608501939093526001600160a01b038116608085015260a080850191901c60ff1661289c565b34610475576020366003190112610475576004356001600160401b03811161047557610c11903690600401612aad565b60055460405190610c2182612a71565b815260208101906000825260408101338152606082016000815260808301948552610c4a612e3c565b60a08401908152336000908152600860205260409020935184559351600184015590516002830180546001600160a01b0319166001600160a01b039290921691909117815590516003811015610e8857610ca391612dbc565b6003810192519283516001600160401b03811161039857610cc8816102438454612b58565b6020601f8211600114610e1f579080610cfb9260049697600092610e145750508160011b916000199060031b1c19161790565b90555b0190519081516001600160401b03811161039857610d20816102438454612b58565b602092601f8211600114610db157610d5192938291600092610da65750508160011b916000199060031b1c19161790565b90555b600954600160401b81101561039857610d78816001610d9693016009556009612884565b81543360039290921b91821b6001600160a01b0390921b1916179055565b610da1600554612d74565b600555005b015190508480610268565b601f1982169383600052806000209160005b868110610dfc5750836001959610610de3575b505050811b019055610d54565b015160001960f88460031b161c19169055838080610dd6565b91926020600181928685015181550194019201610dc3565b015190508780610268565b601f1982169583600052816000209660005b818110610e705750916004969791846001959410610e57575b505050811b019055610cfe565b015160001960f88460031b161c19169055868080610e4a565b83830151895560019098019760209384019301610e31565b634e487b7160e01b600052602160045260246000fd5b3461047557602036600319011261047557600435600b5481101561047557610ec7602091612833565b905460405160039290921b1c6001600160a01b03168152f35b3461047557600036600319011261047557600e54610efd81612d24565b9060005b818110610f1657604051806105cf8582612a11565b80610f22600192612818565b838060a01b0391549060031b1c1660005260076020526040600020610fa060ff600460405193610f5185612a71565b8281541615158552610f64878201612b92565b6020860152610f7560028201612b92565b6040860152600381015460608601520154858060a01b038116608085015260a01c1660a08301612ce5565b610faa8286612cd1565b52610fb58185612cd1565b5001610f01565b34610475576000366003190112610475576000546040516001600160a01b039091168152602090f35b34610475576020366003190112610475576001600160a01b03611006612b03565b166000526008602052604060002080546105cf60018301549261108060028201549161106f611043600461103c60038501612b92565b9301612b92565b936040519788978852602088015260018060a01b038116604088015260ff606088019160a01c1661289c565b60c0608086015260c08501906128a9565b9083820360a08501526128a9565b3461047557600036600319011261047557600f546110ab81612d24565b9060005b8181106110c457604051806105cf8582612a11565b806110d060019261284e565b838060a01b0391549060031b1c16600052600760205260406000206110ff60ff600460405193610f5185612a71565b6111098286612cd1565b526111148185612cd1565b50016110af565b3461047557600036600319011261047557604051600060015461113d81612b58565b80845290600181169081156111d85750600114611179575b6105cf8361116581850382612a8c565b6040519182916020835260208301906128a9565b600160009081527fb10e2d527612073b26eecdfd717e6a320cf44b4afac2b0732d9fcbe2b7fa0cf6939250905b8082106111be57509091508101602001611165611155565b9192600181602092548385880101520191019092916111a6565b60ff191660208086019190915291151560051b840190910191506111659050611155565b3461047557602036600319011261047557600435600a5481101561047557610ec7602091612869565b346104755761123336612b19565b9061124960018060a01b03600054163314612d83565b6001600160a01b0381811660008181526008602052604090206002810180549294939092161561140157815460ff60a01b1916600160a01b179091558351600491909101906001600160401b038111610398576112aa816102438454612b58565b602094601f821160011461139c576112dd9293949582916000926113915750508160011b916000199060031b1c19161790565b90555b600b5490600160401b821015610398576102a58260016113059401600b55600b612884565b60005b600d5480821015610396578261131d836127e2565b905460039190911b1c6001600160a01b03161461133d5750600101611308565b600019810192508211610380576102a5611359611371936127e2565b905460039190911b1c6001600160a01b0316916127e2565b600d54801561036a576000190161138c61035082600d612884565b600d55005b015190508680610268565b601f1982169583600052806000209160005b8881106113e9575083600195969798106113d0575b505050811b0190556112e0565b015160001960f88460031b161c191690558580806113c3565b919260206001819286850151815501940192016113ae565b60405162461bcd60e51b815260206004820152602d60248201527f546869732063616e64696461746520646f6573206e6f7420617070656172206960448201526c371037bab91039bcb9ba32b69760991b6064820152608490fd5b346104755761146a36612b19565b9061148060018060a01b03600054163314612d83565b61149660025480159081156115b7575b50612e81565b6001600160a01b0390811660009081526007602052604090206004810154909116156115725760020181516001600160401b038111610398576114dd816102438454612b58565b602092601f82116001146115125761150e92938291600092610da65750508160011b916000199060031b1c19161790565b9055005b601f1982169383600052806000209160005b86811061155a5750836001959610611541575b505050811b019055005b015160001960f88460031b161c19169055838080611537565b91926020600181928685015181550194019201611524565b60405162461bcd60e51b815260206004820152601860248201527f4e6f20766f746572206461746120617661696c61626c652e00000000000000006044820152606490fd5b9050421084611490565b34610475576020366003190112610475576004356001600160401b038111610475576115f1903690600401612aad565b61160660025480159081156117055750612e81565b33600090815260086020526040902060028101546001600160a01b0316156116c05760030181516001600160401b03811161039857611649816102438454612b58565b602092601f821160011461167a5761150e92938291600092610da65750508160011b916000199060031b1c19161790565b601f1982169383600052806000209160005b8681106116a8575083600195961061154157505050811b019055005b9192602060018192868501518155019401920161168c565b60405162461bcd60e51b815260206004820152601c60248201527f4e6f2063616e646964617465206461746120617661696c61626c652e000000006044820152606490fd5b9050421083611490565b3461047557602036600319011261047557611728612b03565b60025442106118db5760035442116118a357336000526007602052604060002060ff600482015460a01c166003811015610e885760010361185e5780549160ff83166118205760018060a01b0316600052600860205260406000209060ff600283015460a01c166003811015610e88576001036117db576001809360ff1916179055016117b58154612d74565b9055600f54600160401b81101561039857610d788160016103969301600f55600f612884565b60405162461bcd60e51b815260206004820152601a60248201527f43616e646964617465206973206e6f742061636365707465642e0000000000006044820152606490fd5b60405162461bcd60e51b8152602060048201526016602482015275165bdd481a185d9948185b1c9958591e481d9bdd195960521b6044820152606490fd5b60405162461bcd60e51b815260206004820152601e60248201527f596f7520617265206e6f74206120636f6e6669726d656420766f7465722e00006044820152606490fd5b60405162461bcd60e51b815260206004820152601060248201526f159bdd1a5b99c81a185cc8195b99195960821b6044820152606490fd5b60405162461bcd60e51b815260206004820152601a60248201527f566f74696e6720686173206e6f742073746172746564207965740000000000006044820152606490fd5b34610475576020366003190112610475576004356001600160401b03811161047557611950903690600401612aad565b336000908152600760205260409020600401546001600160a01b0316611bda5760065460405161197f81612a71565b6000815261198b612e3c565b90602081019182526040810193845260608101928352608081019233845260a08201926000845233600052600760205260406000209251151560ff801985541691161783556001830190518051906001600160401b038211610398576119fb826119f58554612b58565b85612df7565b602090601f8311600114611b7357611a2b929160009183611afe5750508160011b916000199060031b1c19161790565b90555b6002820194519485516001600160401b03811161039857611a53816102438454612b58565b6020601f8211600114611b09579080611a87926004979899600092611afe5750508160011b916000199060031b1c19161790565b90555b516003828101919091559351910180546001600160a01b0319166001600160a01b039290921691909117815590519091811015610e8857611aca91612dbc565b600a54600160401b81101561039857610d78816001611aee9301600a55600a612884565b611af9600654612d74565b600655005b015190508980610268565b601f1982169783600052816000209860005b818110611b5b575091600497989991846001959410611b42575b505050811b019055611a8a565b015160001960f88460031b161c19169055888080611b35565b838301518b556001909a019960209384019301611b1b565b90601f1983169184600052816000209260005b818110611bc25750908460019594939210611ba9575b505050811b019055611a2e565b015160001960f88460031b161c19169055888080611b9c565b92936020600181928786015181550195019301611b86565b60405162461bcd60e51b815260206004820152602760248201527f596f75206861766520616c726561647920726567697374657265642061732061604482015266103b37ba32b91760c91b6064820152608490fd5b3461047557600036600319011261047557600a54611c4c81612d24565b9060005b818110611c6557604051806105cf8582612a11565b80611c71600192612869565b838060a01b0391549060031b1c1660005260076020526040600020611ca060ff600460405193610f5185612a71565b611caa8286612cd1565b52611cb58185612cd1565b5001611c50565b3461047557602036600319011261047557600435600f5481101561047557610ec760209161284e565b3461047557602036600319011261047557600435600d5481101561047557610ec76020916127e2565b3461047557602036600319011261047557600435611d3760018060a01b03600054163314612d83565b600454611db057600354811115611d4d57600455005b60405162461bcd60e51b815260206004820152603560248201527f526573756c74207075626c69636174696f6e2074696d65206d75737420626520604482015274616674657220766f74696e6720656e642074696d6560581b6064820152608490fd5b60405162461bcd60e51b815260206004820152602360248201527f526573756c74207075626c69636174696f6e2074696d6520616c7265616479206044820152621cd95d60ea1b6064820152608490fd5b3461047557611e0f36612b19565b90611e2560018060a01b03600054163314612d83565b6001600160a01b03818116600081815260086020526040902060028101805492949390921615611fd257815460ff60a01b1916600160a11b179091558351600491909101906001600160401b03811161039857611e86816102438454612b58565b602094601f8211600114611f6d57611eb99293949582916000926113915750508160011b916000199060031b1c19161790565b90555b600d5490600160401b821015610398576102a5826001611ee19401600d55600d612884565b60005b600b54808210156103965782611ef983612833565b905460039190911b1c6001600160a01b031614611f195750600101611ee4565b600019810192508211610380576102a5611f35611f4d93612833565b905460039190911b1c6001600160a01b031691612833565b600b54801561036a5760001901611f6861035082600b612884565b600b55005b601f1982169583600052806000209160005b888110611fba57508360019596979810611fa1575b505050811b019055611ebc565b015160001960f88460031b161c19169055858080611f94565b91926020600181928685015181550194019201611f7f565b60405162461bcd60e51b815260206004820152601b60248201527f4e6f2063616e646964617465206461746120617661696c61626c6500000000006044820152606490fd5b3461047557602036600319011261047557600435600c5481101561047557610ec76020916127fd565b346104755761204e36612b19565b9061206460018060a01b03600054163314612d83565b6001600160a01b0381811660008181526007602052604090206004810180549294939092161561221157815460ff60a01b1916600160a11b179091558351600191909101906001600160401b038111610398576120c5816102438454612b58565b602094601f82116001146121ac576120f89293949582916000926113915750508160011b916000199060031b1c19161790565b90555b600e5490600160401b821015610398576102a58260016121209401600e55600e612884565b60005b600c54808210156103965782612138836127fd565b905460039190911b1c6001600160a01b0316146121585750600101612123565b600019810192508211610380576102a561217461218c936127fd565b905460039190911b1c6001600160a01b0316916127fd565b600c54801561036a57600019016121a761035082600c612884565b600c55005b601f1982169583600052806000209160005b8881106121f9575083600195969798106121e0575b505050811b0190556120fb565b015160001960f88460031b161c191690558580806121d3565b919260206001819286850151815501940192016121be565b60405162461bcd60e51b815260206004820152601760248201527f4e6f20766f746572206461746120617661696c61626c650000000000000000006044820152606490fd5b34610475576040366003190112610475576004356001600160401b03811161047557612286903690600401612aad565b6024356001600160a01b03811690819003610475576009549060208301906000805b8481106123c757506122b990612c81565b9360009160005b8581106122d557604051806105cf898261294f565b6122de816127b1565b60018060a01b0391549060031b1c16600052600860205260406000206040519061230782612a71565b805482526001810154602083015260028101546001600160a01b038116604084019081529185916123419060a01c60ff1660608601612ce5565b612360600461235260038401612b92565b926080870193845201612b92565b60a08501525160208151910120865189201491826123b3575b5050612389575b506001016122c0565b846123ac9161239b600194978b612cd1565b526123a6818a612cd1565b50612d74565b9390612380565b516001600160a01b0316149050838a612379565b6123d0816127b1565b60018060a01b0391549060031b1c166000526008602052604060002083604051916123fa83612a71565b805483526001810154602084015260028101546001600160a01b0381166040850190815293906124339060a01c60ff1660608301612ce5565b60a0612454600461244660038601612b92565b946080850195865201612b92565b91015251602081519101208851872014918261248e575b505061247a575b6001016122a8565b90612486600191612d74565b919050612472565b516001600160a01b0316149050838861246b565b3461047557600036600319011261047557600b546124bf81612c81565b9060005b8181106124d857604051806105cf858261294f565b806124e4600192612833565b838060a01b0391549060031b1c166000526008602052604060002061255960046040519261251184612a71565b8054845285810154602085015261254260ff6002830154888060a01b038116604088015260a01c1660608601612ce5565b61254e60038201612b92565b608085015201612b92565b60a08201526125688286612cd1565b526125738185612cd1565b50016124c3565b3461047557602036600319011261047557600435600e5481101561047557610ec7602091612818565b3461047557600036600319011261047557600c546125c081612d24565b9060005b8181106125d957604051806105cf8582612a11565b806125e56001926127fd565b838060a01b0391549060031b1c166000526007602052604060002061261460ff600460405193610f5185612a71565b61261e8286612cd1565b526126298185612cd1565b50016125c4565b34610475576000366003190112610475576020600254604051908152f35b346104755760003660031901126104755760095461266b81612c81565b9060005b81811061268457604051806105cf858261294f565b806126906001926127b1565b838060a01b0391549060031b1c16600052600860205260406000206126bd60046040519261251184612a71565b60a08201526126cc8286612cd1565b526126d78185612cd1565b500161266f565b34610475576000366003190112610475576020600354604051908152f35b3461047557600036600319011261047557600d5461271981612c81565b9060005b81811061273257604051806105cf858261294f565b8061273e6001926127e2565b838060a01b0391549060031b1c166000526008602052604060002061276b60046040519261251184612a71565b60a082015261277a8286612cd1565b526127858185612cd1565b500161271d565b346104755760203660031901126104755760043560095481101561047557610ec76020915b6009548110156127cc57600960005260206000200190600090565b634e487b7160e01b600052603260045260246000fd5b600d548110156127cc57600d60005260206000200190600090565b600c548110156127cc57600c60005260206000200190600090565b600e548110156127cc57600e60005260206000200190600090565b600b548110156127cc57600b60005260206000200190600090565b600f548110156127cc57600f60005260206000200190600090565b600a548110156127cc57600a60005260206000200190600090565b80548210156127cc5760005260206000200190600090565b906003821015610e885752565b919082519283825260005b8481106128d5575050826000602080949584010152601f8019910116010190565b806020809284010151828286010152016128b4565b61294c91815181526020820151602082015260018060a01b0360408301511660408201526129206060830151606083019061289c565b60a061293b608084015160c0608085015260c08401906128a9565b9201519060a08184039101526128a9565b90565b602081016020825282518091526040820191602060408360051b8301019401926000915b83831061298257505050505090565b90919293946020806129a0600193603f1986820301875289516128ea565b97019301930191939290612973565b9061294c9082511515815260a0806129eb6129d9602087015160c0602087015260c08601906128a9565b604087015185820360408701526128a9565b9460608101516060850152600180831b036080820151166080850152015191019061289c565b602081016020825282518091526040820191602060408360051b8301019401926000915b838310612a4457505050505090565b9091929394602080612a62600193603f1986820301875289516129af565b97019301930191939290612a35565b60c081019081106001600160401b0382111761039857604052565b90601f801991011681019081106001600160401b0382111761039857604052565b81601f82011215610475578035906001600160401b0382116103985760405192612ae1601f8401601f191660200185612a8c565b8284526020838301011161047557816000926020809301838601378301015290565b600435906001600160a01b038216820361047557565b906040600319830112610475576004356001600160a01b03811681036104755791602435906001600160401b0382116104755761294c91600401612aad565b90600182811c92168015612b88575b6020831014612b7257565b634e487b7160e01b600052602260045260246000fd5b91607f1691612b67565b9060405191826000825492612ba684612b58565b8084529360018116908115612c145750600114612bcd575b50612bcb92500383612a8c565b565b90506000929192526020600020906000915b818310612bf8575050906020612bcb9282010138612bbe565b6020919350806001915483858901015201910190918492612bdf565b905060209250612bcb94915060ff191682840152151560051b82010138612bbe565b6001600160401b0381116103985760051b60200190565b60405190612c5a82612a71565b606060a0836000815260006020820152600060408201526000838201528260808201520152565b90612c8b82612c36565b612c986040519182612a8c565b8281528092612ca9601f1991612c36565b019060005b828110612cba57505050565b602090612cc5612c4d565b82828501015201612cae565b80518210156127cc5760209160051b010190565b6003821015610e885752565b60405190612cfe82612a71565b600060a08382815260606020820152606060408201528260608201528260808201520152565b90612d2e82612c36565b612d3b6040519182612a8c565b8281528092612d4c601f1991612c36565b019060005b828110612d5d57505050565b602090612d68612cf1565b82828501015201612d51565b60001981146103805760010190565b15612d8a57565b60405162461bcd60e51b815260206004820152600a60248201526927b7363c9037bbb732b960b11b6044820152606490fd5b906003811015610e8857815460ff60a01b191660a09190911b60ff60a01b16179055565b818110612deb575050565b60008155600101612de0565b9190601f8111612e0657505050565b612bcb926000526020600020906020601f840160051c83019310612e32575b601f0160051c0190612de0565b9091508190612e25565b60405190612e4b606083612a8c565b60218252601b60fa1b6040837f526567697374726174696f6e206973206177616974696e6720617070726f766160208201520152565b15612e8857565b60405162461bcd60e51b815260206004820152602160248201527f43616e6e6f74206d6f6469667920616674657220766f74696e672073746172746044820152607360f81b6064820152608490fd5b612ee18154612b58565b9081612eeb575050565b81601f60009311600114612efd575055565b81835260208320612f1991601f0160051c810190600101612de0565b8082528160208120915555565b612f2e612c4d565b50612f37612c4d565b600b546000805b828110612f4b5750505090565b612f5481612833565b60018060a01b0391549060031b1c166000526008602052604060002060405190612f7d82612a71565b80548252612fcf600460018301549260208501938452612fb860ff600283015460018060a01b038116604089015260a01c1660608701612ce5565b612fc460038201612b92565b608086015201612b92565b60a083015251838111612fe7575b5050600101612f3e565b9094509150600138612fdd565b612ffc612c4d565b50600b54156130925760035442106130165761294c612f26565b60405161302281612a71565b60008152600060208201526000604082015260006060820152604051613049602082612a8c565b600081526080820152604051613060604082612a8c565b601f81527f506c65617365207761697420756e74696c20656c656374696f6e20656e647300602082015260a082015290565b60405162461bcd60e51b8152602060048201526024808201527f4e6f2043616e6469646174657320616363657074656420666f7220656c65637460448201526334b7b71760e11b6064820152608490fdfea26469706673582212209d588eea1a7441486b40c78844ec340a11cb1f4ddd2634ab8f68e8b40175766264736f6c634300081c0033","opcodes":"PUSH1 0x80 PUSH1 0x40 MSTORE CALLVALUE PUSH2 0x23B JUMPI PUSH2 0x337F DUP1 CODESIZE SUB DUP1 PUSH2 0x19 DUP2 PUSH2 0x240 JUMP JUMPDEST SWAP3 DUP4 CODECOPY DUP2 ADD SWAP1 PUSH1 0x20 DUP2 DUP4 SUB SLT PUSH2 0x23B JUMPI DUP1 MLOAD SWAP1 PUSH1 0x1 PUSH1 0x1 PUSH1 0x40 SHL SUB DUP3 GT PUSH2 0x23B JUMPI ADD DUP2 PUSH1 0x1F DUP3 ADD SLT ISZERO PUSH2 0x23B JUMPI DUP1 MLOAD SWAP1 PUSH1 0x1 PUSH1 0x1 PUSH1 0x40 SHL SUB DUP3 GT PUSH2 0x210 JUMPI PUSH2 0x6A PUSH1 0x1F DUP4 ADD PUSH1 0x1F NOT AND PUSH1 0x20 ADD PUSH2 0x240 JUMP JUMPDEST SWAP3 DUP3 DUP5 MSTORE PUSH1 0x20 DUP4 DUP4 ADD ADD GT PUSH2 0x23B JUMPI PUSH1 0x0 JUMPDEST DUP3 DUP2 LT PUSH2 0x226 JUMPI PUSH1 0x0 DUP4 DUP6 ADD PUSH1 0x20 ADD DUP2 SWAP1 MSTORE DUP1 SLOAD PUSH1 0x1 PUSH1 0x1 PUSH1 0xA0 SHL SUB NOT AND CALLER OR SWAP1 SSTORE DUP4 MLOAD DUP5 SWAP1 PUSH1 0x1 PUSH1 0x1 PUSH1 0x40 SHL SUB DUP2 GT PUSH2 0x210 JUMPI PUSH1 0x1 SLOAD PUSH1 0x1 DUP2 DUP2 SHR SWAP2 AND DUP1 ISZERO PUSH2 0x206 JUMPI JUMPDEST PUSH1 0x20 DUP3 LT EQ PUSH2 0x1F0 JUMPI PUSH1 0x1F DUP2 GT PUSH2 0x18B JUMPI JUMPDEST POP PUSH1 0x20 SWAP2 PUSH1 0x1F DUP3 GT PUSH1 0x1 EQ PUSH2 0x127 JUMPI SWAP2 DUP2 SWAP3 PUSH1 0x0 SWAP3 PUSH2 0x11C JUMPI JUMPDEST POP POP DUP2 PUSH1 0x1 SHL SWAP2 PUSH1 0x0 NOT SWAP1 PUSH1 0x3 SHL SHR NOT AND OR PUSH1 0x1 SSTORE JUMPDEST PUSH1 0x1 PUSH1 0x5 SSTORE PUSH1 0x1 PUSH1 0x6 SSTORE PUSH1 0x40 MLOAD PUSH2 0x3119 SWAP1 DUP2 PUSH2 0x266 DUP3 CODECOPY RETURN JUMPDEST ADD MLOAD SWAP1 POP DUP3 DUP1 PUSH2 0xED JUMP JUMPDEST PUSH1 0x1F NOT DUP3 AND SWAP3 PUSH1 0x1 PUSH1 0x0 MSTORE DUP1 PUSH1 0x0 KECCAK256 SWAP2 PUSH1 0x0 JUMPDEST DUP6 DUP2 LT PUSH2 0x173 JUMPI POP DUP4 PUSH1 0x1 SWAP6 LT PUSH2 0x15A JUMPI JUMPDEST POP POP POP DUP2 SHL ADD PUSH1 0x1 SSTORE PUSH2 0x103 JUMP JUMPDEST ADD MLOAD PUSH1 0x0 NOT PUSH1 0xF8 DUP5 PUSH1 0x3 SHL AND SHR NOT AND SWAP1 SSTORE DUP3 DUP1 DUP1 PUSH2 0x14C JUMP JUMPDEST SWAP2 SWAP3 PUSH1 0x20 PUSH1 0x1 DUP2 SWAP3 DUP7 DUP6 ADD MLOAD DUP2 SSTORE ADD SWAP5 ADD SWAP3 ADD PUSH2 0x13A JUMP JUMPDEST PUSH1 0x1 PUSH1 0x0 MSTORE PUSH32 0xB10E2D527612073B26EECDFD717E6A320CF44B4AFAC2B0732D9FCBE2B7FA0CF6 PUSH1 0x1F DUP4 ADD PUSH1 0x5 SHR DUP2 ADD SWAP2 PUSH1 0x20 DUP5 LT PUSH2 0x1E6 JUMPI JUMPDEST PUSH1 0x1F ADD PUSH1 0x5 SHR ADD SWAP1 JUMPDEST DUP2 DUP2 LT PUSH2 0x1DA JUMPI POP PUSH2 0xD3 JUMP JUMPDEST PUSH1 0x0 DUP2 SSTORE PUSH1 0x1 ADD PUSH2 0x1CD JUMP JUMPDEST SWAP1 SWAP2 POP DUP2 SWAP1 PUSH2 0x1C4 JUMP JUMPDEST PUSH4 0x4E487B71 PUSH1 0xE0 SHL PUSH1 0x0 MSTORE PUSH1 0x22 PUSH1 0x4 MSTORE PUSH1 0x24 PUSH1 0x0 REVERT JUMPDEST SWAP1 PUSH1 0x7F AND SWAP1 PUSH2 0xC1 JUMP JUMPDEST PUSH4 0x4E487B71 PUSH1 0xE0 SHL PUSH1 0x0 MSTORE PUSH1 0x41 PUSH1 0x4 MSTORE PUSH1 0x24 PUSH1 0x0 REVERT JUMPDEST DUP1 PUSH1 0x20 DUP1 SWAP3 DUP5 ADD ADD MLOAD DUP3 DUP3 DUP8 ADD ADD MSTORE ADD PUSH2 0x7C JUMP JUMPDEST PUSH1 0x0 DUP1 REVERT JUMPDEST PUSH1 0x40 MLOAD SWAP2 SWAP1 PUSH1 0x1F ADD PUSH1 0x1F NOT AND DUP3 ADD PUSH1 0x1 PUSH1 0x1 PUSH1 0x40 SHL SUB DUP2 GT DUP4 DUP3 LT OR PUSH2 0x210 JUMPI PUSH1 0x40 MSTORE JUMP INVALID PUSH1 0x80 PUSH1 0x40 MSTORE PUSH1 0x4 CALLDATASIZE LT ISZERO PUSH2 0x12 JUMPI PUSH1 0x0 DUP1 REVERT JUMPDEST PUSH1 0x0 CALLDATALOAD PUSH1 0xE0 SHR DUP1 PUSH4 0x366AC37 EQ PUSH2 0x278C JUMPI DUP1 PUSH4 0x73F966D EQ PUSH2 0x26FC JUMPI DUP1 PUSH4 0x1EA736E0 EQ PUSH2 0x26DE JUMPI DUP1 PUSH4 0x1EE9367C EQ PUSH2 0x264E JUMPI DUP1 PUSH4 0x2019A608 EQ PUSH2 0x2630 JUMPI DUP1 PUSH4 0x23A2B2ED EQ PUSH2 0x25A3 JUMPI DUP1 PUSH4 0x3AFA3E07 EQ PUSH2 0x257A JUMPI DUP1 PUSH4 0x3CFDE26C EQ PUSH2 0x24A2 JUMPI DUP1 PUSH4 0x429B0B22 EQ PUSH2 0x2256 JUMPI DUP1 PUSH4 0x4A2846A8 EQ PUSH2 0x2040 JUMPI DUP1 PUSH4 0x53DD128C EQ PUSH2 0x2017 JUMPI DUP1 PUSH4 0x59632C22 EQ PUSH2 0x1E01 JUMPI DUP1 PUSH4 0x5B45CFCA EQ PUSH2 0x1D0E JUMPI DUP1 PUSH4 0x5E894B12 EQ PUSH2 0x1CE5 JUMPI DUP1 PUSH4 0x5F1BC34E EQ PUSH2 0x1CBC JUMPI DUP1 PUSH4 0x60FC4E32 EQ PUSH2 0x1C2F JUMPI DUP1 PUSH4 0x6428A486 EQ PUSH2 0x1920 JUMPI DUP1 PUSH4 0x6DD7D8EA EQ PUSH2 0x170F JUMPI DUP1 PUSH4 0x79432DB5 EQ PUSH2 0x15C1 JUMPI DUP1 PUSH4 0x7C021ECC EQ PUSH2 0x145C JUMPI DUP1 PUSH4 0x7EB21B51 EQ PUSH2 0x1225 JUMPI DUP1 PUSH4 0x849C5657 EQ PUSH2 0x11FC JUMPI DUP1 PUSH4 0x85E8E7A7 EQ PUSH2 0x111B JUMPI DUP1 PUSH4 0x8987CB32 EQ PUSH2 0x108E JUMPI DUP1 PUSH4 0x8AB66A90 EQ PUSH2 0xFE5 JUMPI DUP1 PUSH4 0x8DA5CB5B EQ PUSH2 0xFBC JUMPI DUP1 PUSH4 0x964A43B9 EQ PUSH2 0xEE0 JUMPI DUP1 PUSH4 0x9E7A8145 EQ PUSH2 0xE9E JUMPI DUP1 PUSH4 0x9EB88DB6 EQ PUSH2 0xBE1 JUMPI DUP1 PUSH4 0xA3EC138D EQ PUSH2 0xB30 JUMPI DUP1 PUSH4 0xA6F9DAE1 EQ PUSH2 0xA8E JUMPI DUP1 PUSH4 0xAC94BA4C EQ PUSH2 0xA70 JUMPI DUP1 PUSH4 0xB181A8FC EQ PUSH2 0x6A2 JUMPI DUP1 PUSH4 0xB381A935 EQ PUSH2 0x5EF JUMPI DUP1 PUSH4 0xBAB912A2 EQ PUSH2 0x5D3 JUMPI DUP1 PUSH4 0xD28178D7 EQ PUSH2 0x59F JUMPI DUP1 PUSH4 0xF33698F1 EQ PUSH2 0x47A JUMPI PUSH4 0xFAD761D3 EQ PUSH2 0x1BE JUMPI PUSH1 0x0 DUP1 REVERT JUMPDEST CALLVALUE PUSH2 0x475 JUMPI PUSH2 0x1CC CALLDATASIZE PUSH2 0x2B19 JUMP JUMPDEST SWAP1 PUSH2 0x1E2 PUSH1 0x1 DUP1 PUSH1 0xA0 SHL SUB PUSH1 0x0 SLOAD AND CALLER EQ PUSH2 0x2D83 JUMP JUMPDEST PUSH1 0x1 PUSH1 0x1 PUSH1 0xA0 SHL SUB DUP2 DUP2 AND PUSH1 0x0 DUP2 DUP2 MSTORE PUSH1 0x7 PUSH1 0x20 MSTORE PUSH1 0x40 SWAP1 KECCAK256 PUSH1 0x4 DUP2 ADD DUP1 SLOAD SWAP3 SWAP5 SWAP4 SWAP1 SWAP3 AND ISZERO PUSH2 0x41E JUMPI DUP2 SLOAD PUSH1 0xFF PUSH1 0xA0 SHL NOT AND PUSH1 0x1 PUSH1 0xA0 SHL OR SWAP1 SWAP2 SSTORE DUP4 MLOAD PUSH1 0x1 SWAP2 SWAP1 SWAP2 ADD SWAP1 PUSH1 0x1 PUSH1 0x1 PUSH1 0x40 SHL SUB DUP2 GT PUSH2 0x398 JUMPI PUSH2 0x249 DUP2 PUSH2 0x243 DUP5 SLOAD PUSH2 0x2B58 JUMP JUMPDEST DUP5 PUSH2 0x2DF7 JUMP JUMPDEST PUSH1 0x20 SWAP5 PUSH1 0x1F DUP3 GT PUSH1 0x1 EQ PUSH2 0x3B9 JUMPI PUSH2 0x27D SWAP3 SWAP4 SWAP5 SWAP6 DUP3 SWAP2 PUSH1 0x0 SWAP3 PUSH2 0x3AE JUMPI JUMPDEST POP POP DUP2 PUSH1 0x1 SHL SWAP2 PUSH1 0x0 NOT SWAP1 PUSH1 0x3 SHL SHR NOT AND OR SWAP1 JUMP JUMPDEST SWAP1 SSTORE JUMPDEST PUSH1 0xC SLOAD SWAP1 PUSH1 0x1 PUSH1 0x40 SHL DUP3 LT ISZERO PUSH2 0x398 JUMPI PUSH2 0x2A5 DUP3 PUSH1 0x1 PUSH2 0x2C9 SWAP5 ADD PUSH1 0xC SSTORE PUSH1 0xC PUSH2 0x2884 JUMP JUMPDEST SWAP1 DUP1 SLOAD PUSH1 0x1 PUSH1 0x1 PUSH1 0xA0 SHL SUB PUSH1 0x3 SWAP4 SWAP1 SWAP4 SHL DUP4 DUP2 SHL NOT SWAP1 SWAP2 AND SWAP3 SWAP1 SWAP4 AND SWAP1 SWAP3 SHL OR SWAP1 SSTORE JUMP JUMPDEST PUSH1 0x0 JUMPDEST PUSH1 0xE SLOAD DUP1 DUP3 LT ISZERO PUSH2 0x396 JUMPI DUP3 PUSH2 0x2E1 DUP4 PUSH2 0x2818 JUMP JUMPDEST SWAP1 SLOAD PUSH1 0x3 SWAP2 SWAP1 SWAP2 SHL SHR PUSH1 0x1 PUSH1 0x1 PUSH1 0xA0 SHL SUB AND EQ PUSH2 0x301 JUMPI POP PUSH1 0x1 ADD PUSH2 0x2CC JUMP JUMPDEST PUSH1 0x0 NOT DUP2 ADD SWAP3 POP DUP3 GT PUSH2 0x380 JUMPI PUSH2 0x2A5 PUSH2 0x31D PUSH2 0x335 SWAP4 PUSH2 0x2818 JUMP JUMPDEST SWAP1 SLOAD PUSH1 0x3 SWAP2 SWAP1 SWAP2 SHL SHR PUSH1 0x1 PUSH1 0x1 PUSH1 0xA0 SHL SUB AND SWAP2 PUSH2 0x2818 JUMP JUMPDEST PUSH1 0xE SLOAD DUP1 ISZERO PUSH2 0x36A JUMPI PUSH1 0x0 NOT ADD PUSH2 0x365 PUSH2 0x350 DUP3 PUSH1 0xE PUSH2 0x2884 JUMP JUMPDEST DUP2 SLOAD SWAP1 PUSH1 0x1 DUP1 PUSH1 0xA0 SHL SUB SWAP1 PUSH1 0x3 SHL SHL NOT AND SWAP1 SSTORE JUMP JUMPDEST PUSH1 0xE SSTORE STOP JUMPDEST PUSH4 0x4E487B71 PUSH1 0xE0 SHL PUSH1 0x0 MSTORE PUSH1 0x31 PUSH1 0x4 MSTORE PUSH1 0x24 PUSH1 0x0 REVERT JUMPDEST PUSH4 0x4E487B71 PUSH1 0xE0 SHL PUSH1 0x0 MSTORE PUSH1 0x11 PUSH1 0x4 MSTORE PUSH1 0x24 PUSH1 0x0 REVERT JUMPDEST STOP JUMPDEST PUSH4 0x4E487B71 PUSH1 0xE0 SHL PUSH1 0x0 MSTORE PUSH1 0x41 PUSH1 0x4 MSTORE PUSH1 0x24 PUSH1 0x0 REVERT JUMPDEST ADD MLOAD SWAP1 POP CODESIZE DUP1 PUSH2 0x268 JUMP JUMPDEST PUSH1 0x1F NOT DUP3 AND SWAP6 DUP4 PUSH1 0x0 MSTORE DUP1 PUSH1 0x0 KECCAK256 SWAP2 PUSH1 0x0 JUMPDEST DUP9 DUP2 LT PUSH2 0x406 JUMPI POP DUP4 PUSH1 0x1 SWAP6 SWAP7 SWAP8 SWAP9 LT PUSH2 0x3ED JUMPI JUMPDEST POP POP POP DUP2 SHL ADD SWAP1 SSTORE PUSH2 0x280 JUMP JUMPDEST ADD MLOAD PUSH1 0x0 NOT PUSH1 0xF8 DUP5 PUSH1 0x3 SHL AND SHR NOT AND SWAP1 SSTORE CODESIZE DUP1 DUP1 PUSH2 0x3E0 JUMP JUMPDEST SWAP2 SWAP3 PUSH1 0x20 PUSH1 0x1 DUP2 SWAP3 DUP7 DUP6 ADD MLOAD DUP2 SSTORE ADD SWAP5 ADD SWAP3 ADD PUSH2 0x3CB JUMP JUMPDEST PUSH1 0x40 MLOAD PUSH3 0x461BCD PUSH1 0xE5 SHL DUP2 MSTORE PUSH1 0x20 PUSH1 0x4 DUP3 ADD MSTORE PUSH1 0x29 PUSH1 0x24 DUP3 ADD MSTORE PUSH32 0x5468697320766F74657220646F6573206E6F742061707065617220696E206F75 PUSH1 0x44 DUP3 ADD MSTORE PUSH9 0x391039BCB9BA32B697 PUSH1 0xB9 SHL PUSH1 0x64 DUP3 ADD MSTORE PUSH1 0x84 SWAP1 REVERT JUMPDEST PUSH1 0x0 DUP1 REVERT JUMPDEST CALLVALUE PUSH2 0x475 JUMPI PUSH1 0x40 CALLDATASIZE PUSH1 0x3 NOT ADD SLT PUSH2 0x475 JUMPI PUSH1 0x4 CALLDATALOAD PUSH1 0x24 CALLDATALOAD SWAP1 PUSH2 0x4A7 PUSH1 0x1 DUP1 PUSH1 0xA0 SHL SUB PUSH1 0x0 SLOAD AND CALLER EQ PUSH2 0x2D83 JUMP JUMPDEST PUSH1 0x2 SLOAD PUSH2 0x55A JUMPI TIMESTAMP DUP2 GT ISZERO PUSH2 0x516 JUMPI DUP2 DUP2 LT ISZERO PUSH2 0x4C6 JUMPI PUSH1 0x2 SSTORE PUSH1 0x3 SSTORE STOP JUMPDEST PUSH1 0x40 MLOAD PUSH3 0x461BCD PUSH1 0xE5 SHL DUP2 MSTORE PUSH1 0x20 PUSH1 0x4 DUP3 ADD MSTORE PUSH1 0x22 PUSH1 0x24 DUP3 ADD MSTORE PUSH32 0x53746172742074696D65206D757374206265206265666F726520656E64207469 PUSH1 0x44 DUP3 ADD MSTORE PUSH2 0x6D65 PUSH1 0xF0 SHL PUSH1 0x64 DUP3 ADD MSTORE PUSH1 0x84 SWAP1 REVERT JUMPDEST PUSH1 0x64 PUSH1 0x40 MLOAD PUSH3 0x461BCD PUSH1 0xE5 SHL DUP2 MSTORE PUSH1 0x20 PUSH1 0x4 DUP3 ADD MSTORE PUSH1 0x20 PUSH1 0x24 DUP3 ADD MSTORE PUSH32 0x53746172742074696D65206D75737420626520696E2074686520667574757265 PUSH1 0x44 DUP3 ADD MSTORE REVERT JUMPDEST PUSH1 0x40 MLOAD PUSH3 0x461BCD PUSH1 0xE5 SHL DUP2 MSTORE PUSH1 0x20 PUSH1 0x4 DUP3 ADD MSTORE PUSH1 0x18 PUSH1 0x24 DUP3 ADD MSTORE PUSH32 0x566F74696E6720616C7265616479207363686564756C65640000000000000000 PUSH1 0x44 DUP3 ADD MSTORE PUSH1 0x64 SWAP1 REVERT JUMPDEST CALLVALUE PUSH2 0x475 JUMPI PUSH1 0x0 CALLDATASIZE PUSH1 0x3 NOT ADD SLT PUSH2 0x475 JUMPI PUSH2 0x5CF PUSH2 0x5BB PUSH2 0x2FF4 JUMP JUMPDEST PUSH1 0x40 MLOAD SWAP2 DUP3 SWAP2 PUSH1 0x20 DUP4 MSTORE PUSH1 0x20 DUP4 ADD SWAP1 PUSH2 0x28EA JUMP JUMPDEST SUB SWAP1 RETURN JUMPDEST CALLVALUE PUSH2 0x475 JUMPI PUSH1 0x0 CALLDATASIZE PUSH1 0x3 NOT ADD SLT PUSH2 0x475 JUMPI PUSH2 0x5CF PUSH2 0x5BB PUSH2 0x2F26 JUMP JUMPDEST CALLVALUE PUSH2 0x475 JUMPI PUSH1 0x20 CALLDATASIZE PUSH1 0x3 NOT ADD SLT PUSH2 0x475 JUMPI PUSH2 0x608 PUSH2 0x2B03 JUMP JUMPDEST PUSH2 0x610 PUSH2 0x2CF1 JUMP JUMPDEST POP PUSH1 0x1 DUP1 PUSH1 0xA0 SHL SUB AND PUSH1 0x0 MSTORE PUSH1 0x7 PUSH1 0x20 MSTORE PUSH2 0x5CF PUSH1 0x40 PUSH1 0x0 KECCAK256 PUSH2 0x68E PUSH1 0xFF PUSH1 0x4 PUSH1 0x40 MLOAD SWAP4 PUSH2 0x63D DUP6 PUSH2 0x2A71 JUMP JUMPDEST DUP3 DUP2 SLOAD AND ISZERO ISZERO DUP6 MSTORE PUSH2 0x651 PUSH1 0x1 DUP3 ADD PUSH2 0x2B92 JUMP JUMPDEST PUSH1 0x20 DUP7 ADD MSTORE PUSH2 0x662 PUSH1 0x2 DUP3 ADD PUSH2 0x2B92 JUMP JUMPDEST PUSH1 0x40 DUP7 ADD MSTORE PUSH1 0x3 DUP2 ADD SLOAD PUSH1 0x60 DUP7 ADD MSTORE ADD SLOAD PUSH1 0x1 DUP1 PUSH1 0xA0 SHL SUB DUP2 AND PUSH1 0x80 DUP6 ADD MSTORE PUSH1 0xA0 SHR AND PUSH1 0xA0 DUP4 ADD PUSH2 0x2CE5 JUMP JUMPDEST PUSH1 0x40 MLOAD SWAP2 DUP3 SWAP2 PUSH1 0x20 DUP4 MSTORE PUSH1 0x20 DUP4 ADD SWAP1 PUSH2 0x29AF JUMP JUMPDEST CALLVALUE PUSH2 0x475 JUMPI PUSH1 0x0 CALLDATASIZE PUSH1 0x3 NOT ADD SLT PUSH2 0x475 JUMPI PUSH2 0x6C8 PUSH1 0x1 DUP1 PUSH1 0xA0 SHL SUB PUSH1 0x0 SLOAD AND CALLER EQ PUSH2 0x2D83 JUMP JUMPDEST PUSH1 0x3 SLOAD DUP1 ISZERO ISZERO SWAP1 DUP2 PUSH2 0xA66 JUMPI JUMPDEST POP ISZERO PUSH2 0xA07 JUMPI PUSH2 0x6E6 PUSH1 0x1 SLOAD PUSH2 0x2B58 JUMP JUMPDEST PUSH1 0x1F DUP2 GT PUSH2 0x9C8 JUMPI JUMPDEST POP PUSH1 0x0 PUSH1 0x1 SSTORE PUSH1 0x0 PUSH1 0x2 SSTORE PUSH1 0x0 PUSH1 0x3 SSTORE PUSH1 0x0 PUSH1 0x4 SSTORE PUSH1 0x0 JUMPDEST PUSH1 0x9 SLOAD DUP2 LT ISZERO PUSH2 0x766 JUMPI DUP1 PUSH2 0x71D PUSH1 0x1 SWAP3 PUSH2 0x27B1 JUMP JUMPDEST DUP4 DUP1 PUSH1 0xA0 SHL SUB SWAP2 SLOAD SWAP1 PUSH1 0x3 SHL SHR AND PUSH1 0x0 MSTORE PUSH1 0x8 PUSH1 0x20 MSTORE PUSH2 0x760 PUSH1 0x4 PUSH1 0x40 PUSH1 0x0 KECCAK256 PUSH1 0x0 DUP2 SSTORE PUSH1 0x0 DUP6 DUP3 ADD SSTORE PUSH1 0x0 PUSH1 0x2 DUP3 ADD SSTORE PUSH2 0x75A PUSH1 0x3 DUP3 ADD PUSH2 0x2ED7 JUMP JUMPDEST ADD PUSH2 0x2ED7 JUMP JUMPDEST ADD PUSH2 0x707 JUMP JUMPDEST PUSH1 0x9 SLOAD PUSH1 0x0 PUSH1 0x9 SSTORE DUP1 PUSH2 0x98F JUMPI JUMPDEST POP PUSH1 0xB SLOAD PUSH1 0x0 PUSH1 0xB SSTORE DUP1 PUSH2 0x956 JUMPI JUMPDEST POP PUSH1 0xD SLOAD PUSH1 0x0 PUSH1 0xD SSTORE DUP1 PUSH2 0x91D JUMPI JUMPDEST POP PUSH1 0x0 JUMPDEST PUSH1 0xA SLOAD DUP2 LT ISZERO PUSH2 0x7F2 JUMPI DUP1 PUSH2 0x7AC PUSH1 0x1 SWAP3 PUSH2 0x2869 JUMP JUMPDEST DUP4 DUP1 PUSH1 0xA0 SHL SUB SWAP2 SLOAD SWAP1 PUSH1 0x3 SHL SHR AND PUSH1 0x0 MSTORE PUSH1 0x7 PUSH1 0x20 MSTORE PUSH1 0x0 PUSH1 0x4 PUSH1 0x40 DUP3 KECCAK256 DUP3 DUP2 SSTORE PUSH2 0x7D8 DUP6 DUP3 ADD PUSH2 0x2ED7 JUMP JUMPDEST PUSH2 0x7E4 PUSH1 0x2 DUP3 ADD PUSH2 0x2ED7 JUMP JUMPDEST DUP3 PUSH1 0x3 DUP3 ADD SSTORE ADD SSTORE ADD PUSH2 0x796 JUMP JUMPDEST PUSH1 0xA SLOAD PUSH1 0x0 PUSH1 0xA SSTORE DUP1 PUSH2 0x8E4 JUMPI JUMPDEST POP PUSH1 0xC SLOAD PUSH1 0x0 PUSH1 0xC SSTORE DUP1 PUSH2 0x8AB JUMPI JUMPDEST POP PUSH1 0xE SLOAD PUSH1 0x0 PUSH1 0xE SSTORE DUP1 PUSH2 0x872 JUMPI JUMPDEST POP PUSH1 0xF SLOAD PUSH1 0x0 PUSH1 0xF SSTORE DUP1 PUSH2 0x839 JUMPI JUMPDEST PUSH1 0x1 PUSH1 0x5 DUP2 SWAP1 SSTORE PUSH1 0x6 SSTORE STOP JUMPDEST PUSH1 0xF PUSH1 0x0 MSTORE PUSH2 0x86C SWAP1 PUSH32 0x8D1108E10BCB7C27DDDFC02ED9D693A074039D026CF4EA4240B40F7D581AC802 SWAP1 DUP2 ADD SWAP1 PUSH2 0x2DE0 JUMP JUMPDEST DUP1 PUSH2 0x82D JUMP JUMPDEST PUSH1 0xE PUSH1 0x0 MSTORE PUSH2 0x8A5 SWAP1 PUSH32 0xBB7B4A454DC3493923482F07822329ED19E8244EFF582CC204F8554C3620C3FD SWAP1 DUP2 ADD SWAP1 PUSH2 0x2DE0 JUMP JUMPDEST DUP1 PUSH2 0x81E JUMP JUMPDEST PUSH1 0xC PUSH1 0x0 MSTORE PUSH2 0x8DE SWAP1 PUSH32 0xDF6966C971051C3D54EC59162606531493A51404A002842F56009D7E5CF4A8C7 SWAP1 DUP2 ADD SWAP1 PUSH2 0x2DE0 JUMP JUMPDEST DUP1 PUSH2 0x80F JUMP JUMPDEST PUSH1 0xA PUSH1 0x0 MSTORE PUSH2 0x917 SWAP1 PUSH32 0xC65A7BB8D6351C1CF70C95A316CC6A92839C986682D98BC35F958F4883F9D2A8 SWAP1 DUP2 ADD SWAP1 PUSH2 0x2DE0 JUMP JUMPDEST DUP1 PUSH2 0x800 JUMP JUMPDEST PUSH1 0xD PUSH1 0x0 MSTORE PUSH2 0x950 SWAP1 PUSH32 0xD7B6990105719101DABEB77144F2A3385C8033ACD3AF97E9423A695E81AD1EB5 SWAP1 DUP2 ADD SWAP1 PUSH2 0x2DE0 JUMP JUMPDEST DUP1 PUSH2 0x792 JUMP JUMPDEST PUSH1 0xB PUSH1 0x0 MSTORE PUSH2 0x989 SWAP1 PUSH32 0x175B7A638427703F0DBE7BB9BBF987A2551717B34E79F33B5B1008D1FA01DB9 SWAP1 DUP2 ADD SWAP1 PUSH2 0x2DE0 JUMP JUMPDEST DUP1 PUSH2 0x783 JUMP JUMPDEST PUSH1 0x9 PUSH1 0x0 MSTORE PUSH2 0x9C2 SWAP1 PUSH32 0x6E1540171B6C0C960B71A7020D9F60077F6AF931A8BBF590DA0223DACF75C7AF SWAP1 DUP2 ADD SWAP1 PUSH2 0x2DE0 JUMP JUMPDEST DUP1 PUSH2 0x774 JUMP JUMPDEST PUSH1 0x1 PUSH1 0x0 MSTORE PUSH2 0xA01 SWAP1 PUSH1 0x1F ADD PUSH1 0x5 SHR PUSH32 0xB10E2D527612073B26EECDFD717E6A320CF44B4AFAC2B0732D9FCBE2B7FA0CF6 SWAP1 DUP2 ADD SWAP1 PUSH2 0x2DE0 JUMP JUMPDEST DUP1 PUSH2 0x6EF JUMP JUMPDEST PUSH1 0x40 MLOAD PUSH3 0x461BCD PUSH1 0xE5 SHL DUP2 MSTORE PUSH1 0x20 PUSH1 0x4 DUP3 ADD MSTORE PUSH1 0x31 PUSH1 0x24 DUP3 ADD MSTORE PUSH32 0x456C656374696F6E206973207374696C6C206F6E676F696E672E2043616E6E6F PUSH1 0x44 DUP3 ADD MSTORE PUSH17 0x3A103932B9B2BA1031B7B73A3930B1BA17 PUSH1 0x79 SHL PUSH1 0x64 DUP3 ADD MSTORE PUSH1 0x84 SWAP1 REVERT JUMPDEST SWAP1 POP TIMESTAMP GT DUP2 PUSH2 0x6D5 JUMP JUMPDEST CALLVALUE PUSH2 0x475 JUMPI PUSH1 0x0 CALLDATASIZE PUSH1 0x3 NOT ADD SLT PUSH2 0x475 JUMPI PUSH1 0x20 PUSH1 0x4 SLOAD PUSH1 0x40 MLOAD SWAP1 DUP2 MSTORE RETURN JUMPDEST CALLVALUE PUSH2 0x475 JUMPI PUSH1 0x20 CALLDATASIZE PUSH1 0x3 NOT ADD SLT PUSH2 0x475 JUMPI PUSH2 0xAA7 PUSH2 0x2B03 JUMP JUMPDEST PUSH1 0x0 SLOAD SWAP1 PUSH2 0xABF CALLER PUSH1 0x1 PUSH1 0x1 PUSH1 0xA0 SHL SUB DUP5 AND EQ PUSH2 0x2D83 JUMP JUMPDEST PUSH1 0x1 PUSH1 0x1 PUSH1 0xA0 SHL SUB AND SWAP1 DUP2 ISZERO PUSH2 0xADF JUMPI PUSH1 0x1 PUSH1 0x1 PUSH1 0xA0 SHL SUB NOT AND OR PUSH1 0x0 SSTORE STOP JUMPDEST PUSH1 0x40 MLOAD PUSH3 0x461BCD PUSH1 0xE5 SHL DUP2 MSTORE PUSH1 0x20 PUSH1 0x4 DUP3 ADD MSTORE PUSH1 0x24 DUP1 DUP3 ADD MSTORE PUSH32 0x4E6577206F776E65722063616E6E6F7420626520746865207A65726F20616464 PUSH1 0x44 DUP3 ADD MSTORE PUSH4 0x72657373 PUSH1 0xE0 SHL PUSH1 0x64 DUP3 ADD MSTORE PUSH1 0x84 SWAP1 REVERT JUMPDEST CALLVALUE PUSH2 0x475 JUMPI PUSH1 0x20 CALLDATASIZE PUSH1 0x3 NOT ADD SLT PUSH2 0x475 JUMPI PUSH1 0x1 PUSH1 0x1 PUSH1 0xA0 SHL SUB PUSH2 0xB51 PUSH2 0x2B03 JUMP JUMPDEST AND PUSH1 0x0 MSTORE PUSH1 0x7 PUSH1 0x20 MSTORE PUSH1 0x40 PUSH1 0x0 KECCAK256 PUSH1 0xFF DUP2 SLOAD AND PUSH2 0xB70 PUSH1 0x1 DUP4 ADD PUSH2 0x2B92 JUMP JUMPDEST SWAP2 PUSH2 0x5CF PUSH2 0xB80 PUSH1 0x2 DUP4 ADD PUSH2 0x2B92 JUMP JUMPDEST PUSH2 0xBBA PUSH1 0x4 PUSH1 0x3 DUP6 ADD SLOAD SWAP5 ADD SLOAD SWAP2 PUSH2 0xBAC PUSH1 0x40 MLOAD SWAP8 DUP9 SWAP8 ISZERO ISZERO DUP9 MSTORE PUSH1 0xC0 PUSH1 0x20 DUP10 ADD MSTORE PUSH1 0xC0 DUP9 ADD SWAP1 PUSH2 0x28A9 JUMP JUMPDEST SWAP1 DUP7 DUP3 SUB PUSH1 0x40 DUP9 ADD MSTORE PUSH2 0x28A9 JUMP JUMPDEST PUSH1 0x60 DUP6 ADD SWAP4 SWAP1 SWAP4 MSTORE PUSH1 0x1 PUSH1 0x1 PUSH1 0xA0 SHL SUB DUP2 AND PUSH1 0x80 DUP6 ADD MSTORE PUSH1 0xA0 DUP1 DUP6 ADD SWAP2 SWAP1 SHR PUSH1 0xFF AND PUSH2 0x289C JUMP JUMPDEST CALLVALUE PUSH2 0x475 JUMPI PUSH1 0x20 CALLDATASIZE PUSH1 0x3 NOT ADD SLT PUSH2 0x475 JUMPI PUSH1 0x4 CALLDATALOAD PUSH1 0x1 PUSH1 0x1 PUSH1 0x40 SHL SUB DUP2 GT PUSH2 0x475 JUMPI PUSH2 0xC11 SWAP1 CALLDATASIZE SWAP1 PUSH1 0x4 ADD PUSH2 0x2AAD JUMP JUMPDEST PUSH1 0x5 SLOAD PUSH1 0x40 MLOAD SWAP1 PUSH2 0xC21 DUP3 PUSH2 0x2A71 JUMP JUMPDEST DUP2 MSTORE PUSH1 0x20 DUP2 ADD SWAP1 PUSH1 0x0 DUP3 MSTORE PUSH1 0x40 DUP2 ADD CALLER DUP2 MSTORE PUSH1 0x60 DUP3 ADD PUSH1 0x0 DUP2 MSTORE PUSH1 0x80 DUP4 ADD SWAP5 DUP6 MSTORE PUSH2 0xC4A PUSH2 0x2E3C JUMP JUMPDEST PUSH1 0xA0 DUP5 ADD SWAP1 DUP2 MSTORE CALLER PUSH1 0x0 SWAP1 DUP2 MSTORE PUSH1 0x8 PUSH1 0x20 MSTORE PUSH1 0x40 SWAP1 KECCAK256 SWAP4 MLOAD DUP5 SSTORE SWAP4 MLOAD PUSH1 0x1 DUP5 ADD SSTORE SWAP1 MLOAD PUSH1 0x2 DUP4 ADD DUP1 SLOAD PUSH1 0x1 PUSH1 0x1 PUSH1 0xA0 SHL SUB NOT AND PUSH1 0x1 PUSH1 0x1 PUSH1 0xA0 SHL SUB SWAP3 SWAP1 SWAP3 AND SWAP2 SWAP1 SWAP2 OR DUP2 SSTORE SWAP1 MLOAD PUSH1 0x3 DUP2 LT ISZERO PUSH2 0xE88 JUMPI PUSH2 0xCA3 SWAP2 PUSH2 0x2DBC JUMP JUMPDEST PUSH1 0x3 DUP2 ADD SWAP3 MLOAD SWAP3 DUP4 MLOAD PUSH1 0x1 PUSH1 0x1 PUSH1 0x40 SHL SUB DUP2 GT PUSH2 0x398 JUMPI PUSH2 0xCC8 DUP2 PUSH2 0x243 DUP5 SLOAD PUSH2 0x2B58 JUMP JUMPDEST PUSH1 0x20 PUSH1 0x1F DUP3 GT PUSH1 0x1 EQ PUSH2 0xE1F JUMPI SWAP1 DUP1 PUSH2 0xCFB SWAP3 PUSH1 0x4 SWAP7 SWAP8 PUSH1 0x0 SWAP3 PUSH2 0xE14 JUMPI POP POP DUP2 PUSH1 0x1 SHL SWAP2 PUSH1 0x0 NOT SWAP1 PUSH1 0x3 SHL SHR NOT AND OR SWAP1 JUMP JUMPDEST SWAP1 SSTORE JUMPDEST ADD SWAP1 MLOAD SWAP1 DUP2 MLOAD PUSH1 0x1 PUSH1 0x1 PUSH1 0x40 SHL SUB DUP2 GT PUSH2 0x398 JUMPI PUSH2 0xD20 DUP2 PUSH2 0x243 DUP5 SLOAD PUSH2 0x2B58 JUMP JUMPDEST PUSH1 0x20 SWAP3 PUSH1 0x1F DUP3 GT PUSH1 0x1 EQ PUSH2 0xDB1 JUMPI PUSH2 0xD51 SWAP3 SWAP4 DUP3 SWAP2 PUSH1 0x0 SWAP3 PUSH2 0xDA6 JUMPI POP POP DUP2 PUSH1 0x1 SHL SWAP2 PUSH1 0x0 NOT SWAP1 PUSH1 0x3 SHL SHR NOT AND OR SWAP1 JUMP JUMPDEST SWAP1 SSTORE JUMPDEST PUSH1 0x9 SLOAD PUSH1 0x1 PUSH1 0x40 SHL DUP2 LT ISZERO PUSH2 0x398 JUMPI PUSH2 0xD78 DUP2 PUSH1 0x1 PUSH2 0xD96 SWAP4 ADD PUSH1 0x9 SSTORE PUSH1 0x9 PUSH2 0x2884 JUMP JUMPDEST DUP2 SLOAD CALLER PUSH1 0x3 SWAP3 SWAP1 SWAP3 SHL SWAP2 DUP3 SHL PUSH1 0x1 PUSH1 0x1 PUSH1 0xA0 SHL SUB SWAP1 SWAP3 SHL NOT AND OR SWAP1 SSTORE JUMP JUMPDEST PUSH2 0xDA1 PUSH1 0x5 SLOAD PUSH2 0x2D74 JUMP JUMPDEST PUSH1 0x5 SSTORE STOP JUMPDEST ADD MLOAD SWAP1 POP DUP5 DUP1 PUSH2 0x268 JUMP JUMPDEST PUSH1 0x1F NOT DUP3 AND SWAP4 DUP4 PUSH1 0x0 MSTORE DUP1 PUSH1 0x0 KECCAK256 SWAP2 PUSH1 0x0 JUMPDEST DUP7 DUP2 LT PUSH2 0xDFC JUMPI POP DUP4 PUSH1 0x1 SWAP6 SWAP7 LT PUSH2 0xDE3 JUMPI JUMPDEST POP POP POP DUP2 SHL ADD SWAP1 SSTORE PUSH2 0xD54 JUMP JUMPDEST ADD MLOAD PUSH1 0x0 NOT PUSH1 0xF8 DUP5 PUSH1 0x3 SHL AND SHR NOT AND SWAP1 SSTORE DUP4 DUP1 DUP1 PUSH2 0xDD6 JUMP JUMPDEST SWAP2 SWAP3 PUSH1 0x20 PUSH1 0x1 DUP2 SWAP3 DUP7 DUP6 ADD MLOAD DUP2 SSTORE ADD SWAP5 ADD SWAP3 ADD PUSH2 0xDC3 JUMP JUMPDEST ADD MLOAD SWAP1 POP DUP8 DUP1 PUSH2 0x268 JUMP JUMPDEST PUSH1 0x1F NOT DUP3 AND SWAP6 DUP4 PUSH1 0x0 MSTORE DUP2 PUSH1 0x0 KECCAK256 SWAP7 PUSH1 0x0 JUMPDEST DUP2 DUP2 LT PUSH2 0xE70 JUMPI POP SWAP2 PUSH1 0x4 SWAP7 SWAP8 SWAP2 DUP5 PUSH1 0x1 SWAP6 SWAP5 LT PUSH2 0xE57 JUMPI JUMPDEST POP POP POP DUP2 SHL ADD SWAP1 SSTORE PUSH2 0xCFE JUMP JUMPDEST ADD MLOAD PUSH1 0x0 NOT PUSH1 0xF8 DUP5 PUSH1 0x3 SHL AND SHR NOT AND SWAP1 SSTORE DUP7 DUP1 DUP1 PUSH2 0xE4A JUMP JUMPDEST DUP4 DUP4 ADD MLOAD DUP10 SSTORE PUSH1 0x1 SWAP1 SWAP9 ADD SWAP8 PUSH1 0x20 SWAP4 DUP5 ADD SWAP4 ADD PUSH2 0xE31 JUMP JUMPDEST PUSH4 0x4E487B71 PUSH1 0xE0 SHL PUSH1 0x0 MSTORE PUSH1 0x21 PUSH1 0x4 MSTORE PUSH1 0x24 PUSH1 0x0 REVERT JUMPDEST CALLVALUE PUSH2 0x475 JUMPI PUSH1 0x20 CALLDATASIZE PUSH1 0x3 NOT ADD SLT PUSH2 0x475 JUMPI PUSH1 0x4 CALLDATALOAD PUSH1 0xB SLOAD DUP2 LT ISZERO PUSH2 0x475 JUMPI PUSH2 0xEC7 PUSH1 0x20 SWAP2 PUSH2 0x2833 JUMP JUMPDEST SWAP1 SLOAD PUSH1 0x40 MLOAD PUSH1 0x3 SWAP3 SWAP1 SWAP3 SHL SHR PUSH1 0x1 PUSH1 0x1 PUSH1 0xA0 SHL SUB AND DUP2 MSTORE RETURN JUMPDEST CALLVALUE PUSH2 0x475 JUMPI PUSH1 0x0 CALLDATASIZE PUSH1 0x3 NOT ADD SLT PUSH2 0x475 JUMPI PUSH1 0xE SLOAD PUSH2 0xEFD DUP2 PUSH2 0x2D24 JUMP JUMPDEST SWAP1 PUSH1 0x0 JUMPDEST DUP2 DUP2 LT PUSH2 0xF16 JUMPI PUSH1 0x40 MLOAD DUP1 PUSH2 0x5CF DUP6 DUP3 PUSH2 0x2A11 JUMP JUMPDEST DUP1 PUSH2 0xF22 PUSH1 0x1 SWAP3 PUSH2 0x2818 JUMP JUMPDEST DUP4 DUP1 PUSH1 0xA0 SHL SUB SWAP2 SLOAD SWAP1 PUSH1 0x3 SHL SHR AND PUSH1 0x0 MSTORE PUSH1 0x7 PUSH1 0x20 MSTORE PUSH1 0x40 PUSH1 0x0 KECCAK256 PUSH2 0xFA0 PUSH1 0xFF PUSH1 0x4 PUSH1 0x40 MLOAD SWAP4 PUSH2 0xF51 DUP6 PUSH2 0x2A71 JUMP JUMPDEST DUP3 DUP2 SLOAD AND ISZERO ISZERO DUP6 MSTORE PUSH2 0xF64 DUP8 DUP3 ADD PUSH2 0x2B92 JUMP JUMPDEST PUSH1 0x20 DUP7 ADD MSTORE PUSH2 0xF75 PUSH1 0x2 DUP3 ADD PUSH2 0x2B92 JUMP JUMPDEST PUSH1 0x40 DUP7 ADD MSTORE PUSH1 0x3 DUP2 ADD SLOAD PUSH1 0x60 DUP7 ADD MSTORE ADD SLOAD DUP6 DUP1 PUSH1 0xA0 SHL SUB DUP2 AND PUSH1 0x80 DUP6 ADD MSTORE PUSH1 0xA0 SHR AND PUSH1 0xA0 DUP4 ADD PUSH2 0x2CE5 JUMP JUMPDEST PUSH2 0xFAA DUP3 DUP7 PUSH2 0x2CD1 JUMP JUMPDEST MSTORE PUSH2 0xFB5 DUP2 DUP6 PUSH2 0x2CD1 JUMP JUMPDEST POP ADD PUSH2 0xF01 JUMP JUMPDEST CALLVALUE PUSH2 0x475 JUMPI PUSH1 0x0 CALLDATASIZE PUSH1 0x3 NOT ADD SLT PUSH2 0x475 JUMPI PUSH1 0x0 SLOAD PUSH1 0x40 MLOAD PUSH1 0x1 PUSH1 0x1 PUSH1 0xA0 SHL SUB SWAP1 SWAP2 AND DUP2 MSTORE PUSH1 0x20 SWAP1 RETURN JUMPDEST CALLVALUE PUSH2 0x475 JUMPI PUSH1 0x20 CALLDATASIZE PUSH1 0x3 NOT ADD SLT PUSH2 0x475 JUMPI PUSH1 0x1 PUSH1 0x1 PUSH1 0xA0 SHL SUB PUSH2 0x1006 PUSH2 0x2B03 JUMP JUMPDEST AND PUSH1 0x0 MSTORE PUSH1 0x8 PUSH1 0x20 MSTORE PUSH1 0x40 PUSH1 0x0 KECCAK256 DUP1 SLOAD PUSH2 0x5CF PUSH1 0x1 DUP4 ADD SLOAD SWAP3 PUSH2 0x1080 PUSH1 0x2 DUP3 ADD SLOAD SWAP2 PUSH2 0x106F PUSH2 0x1043 PUSH1 0x4 PUSH2 0x103C PUSH1 0x3 DUP6 ADD PUSH2 0x2B92 JUMP JUMPDEST SWAP4 ADD PUSH2 0x2B92 JUMP JUMPDEST SWAP4 PUSH1 0x40 MLOAD SWAP8 DUP9 SWAP8 DUP9 MSTORE PUSH1 0x20 DUP9 ADD MSTORE PUSH1 0x1 DUP1 PUSH1 0xA0 SHL SUB DUP2 AND PUSH1 0x40 DUP9 ADD MSTORE PUSH1 0xFF PUSH1 0x60 DUP9 ADD SWAP2 PUSH1 0xA0 SHR AND PUSH2 0x289C JUMP JUMPDEST PUSH1 0xC0 PUSH1 0x80 DUP7 ADD MSTORE PUSH1 0xC0 DUP6 ADD SWAP1 PUSH2 0x28A9 JUMP JUMPDEST SWAP1 DUP4 DUP3 SUB PUSH1 0xA0 DUP6 ADD MSTORE PUSH2 0x28A9 JUMP JUMPDEST CALLVALUE PUSH2 0x475 JUMPI PUSH1 0x0 CALLDATASIZE PUSH1 0x3 NOT ADD SLT PUSH2 0x475 JUMPI PUSH1 0xF SLOAD PUSH2 0x10AB DUP2 PUSH2 0x2D24 JUMP JUMPDEST SWAP1 PUSH1 0x0 JUMPDEST DUP2 DUP2 LT PUSH2 0x10C4 JUMPI PUSH1 0x40 MLOAD DUP1 PUSH2 0x5CF DUP6 DUP3 PUSH2 0x2A11 JUMP JUMPDEST DUP1 PUSH2 0x10D0 PUSH1 0x1 SWAP3 PUSH2 0x284E JUMP JUMPDEST DUP4 DUP1 PUSH1 0xA0 SHL SUB SWAP2 SLOAD SWAP1 PUSH1 0x3 SHL SHR AND PUSH1 0x0 MSTORE PUSH1 0x7 PUSH1 0x20 MSTORE PUSH1 0x40 PUSH1 0x0 KECCAK256 PUSH2 0x10FF PUSH1 0xFF PUSH1 0x4 PUSH1 0x40 MLOAD SWAP4 PUSH2 0xF51 DUP6 PUSH2 0x2A71 JUMP JUMPDEST PUSH2 0x1109 DUP3 DUP7 PUSH2 0x2CD1 JUMP JUMPDEST MSTORE PUSH2 0x1114 DUP2 DUP6 PUSH2 0x2CD1 JUMP JUMPDEST POP ADD PUSH2 0x10AF JUMP JUMPDEST CALLVALUE PUSH2 0x475 JUMPI PUSH1 0x0 CALLDATASIZE PUSH1 0x3 NOT ADD SLT PUSH2 0x475 JUMPI PUSH1 0x40 MLOAD PUSH1 0x0 PUSH1 0x1 SLOAD PUSH2 0x113D DUP2 PUSH2 0x2B58 JUMP JUMPDEST DUP1 DUP5 MSTORE SWAP1 PUSH1 0x1 DUP2 AND SWAP1 DUP2 ISZERO PUSH2 0x11D8 JUMPI POP PUSH1 0x1 EQ PUSH2 0x1179 JUMPI JUMPDEST PUSH2 0x5CF DUP4 PUSH2 0x1165 DUP2 DUP6 SUB DUP3 PUSH2 0x2A8C JUMP JUMPDEST PUSH1 0x40 MLOAD SWAP2 DUP3 SWAP2 PUSH1 0x20 DUP4 MSTORE PUSH1 0x20 DUP4 ADD SWAP1 PUSH2 0x28A9 JUMP JUMPDEST PUSH1 0x1 PUSH1 0x0 SWAP1 DUP2 MSTORE PUSH32 0xB10E2D527612073B26EECDFD717E6A320CF44B4AFAC2B0732D9FCBE2B7FA0CF6 SWAP4 SWAP3 POP SWAP1 JUMPDEST DUP1 DUP3 LT PUSH2 0x11BE JUMPI POP SWAP1 SWAP2 POP DUP2 ADD PUSH1 0x20 ADD PUSH2 0x1165 PUSH2 0x1155 JUMP JUMPDEST SWAP2 SWAP3 PUSH1 0x1 DUP2 PUSH1 0x20 SWAP3 SLOAD DUP4 DUP6 DUP9 ADD ADD MSTORE ADD SWAP2 ADD SWAP1 SWAP3 SWAP2 PUSH2 0x11A6 JUMP JUMPDEST PUSH1 0xFF NOT AND PUSH1 0x20 DUP1 DUP7 ADD SWAP2 SWAP1 SWAP2 MSTORE SWAP2 ISZERO ISZERO PUSH1 0x5 SHL DUP5 ADD SWAP1 SWAP2 ADD SWAP2 POP PUSH2 0x1165 SWAP1 POP PUSH2 0x1155 JUMP JUMPDEST CALLVALUE PUSH2 0x475 JUMPI PUSH1 0x20 CALLDATASIZE PUSH1 0x3 NOT ADD SLT PUSH2 0x475 JUMPI PUSH1 0x4 CALLDATALOAD PUSH1 0xA SLOAD DUP2 LT ISZERO PUSH2 0x475 JUMPI PUSH2 0xEC7 PUSH1 0x20 SWAP2 PUSH2 0x2869 JUMP JUMPDEST CALLVALUE PUSH2 0x475 JUMPI PUSH2 0x1233 CALLDATASIZE PUSH2 0x2B19 JUMP JUMPDEST SWAP1 PUSH2 0x1249 PUSH1 0x1 DUP1 PUSH1 0xA0 SHL SUB PUSH1 0x0 SLOAD AND CALLER EQ PUSH2 0x2D83 JUMP JUMPDEST PUSH1 0x1 PUSH1 0x1 PUSH1 0xA0 SHL SUB DUP2 DUP2 AND PUSH1 0x0 DUP2 DUP2 MSTORE PUSH1 0x8 PUSH1 0x20 MSTORE PUSH1 0x40 SWAP1 KECCAK256 PUSH1 0x2 DUP2 ADD DUP1 SLOAD SWAP3 SWAP5 SWAP4 SWAP1 SWAP3 AND ISZERO PUSH2 0x1401 JUMPI DUP2 SLOAD PUSH1 0xFF PUSH1 0xA0 SHL NOT AND PUSH1 0x1 PUSH1 0xA0 SHL OR SWAP1 SWAP2 SSTORE DUP4 MLOAD PUSH1 0x4 SWAP2 SWAP1 SWAP2 ADD SWAP1 PUSH1 0x1 PUSH1 0x1 PUSH1 0x40 SHL SUB DUP2 GT PUSH2 0x398 JUMPI PUSH2 0x12AA DUP2 PUSH2 0x243 DUP5 SLOAD PUSH2 0x2B58 JUMP JUMPDEST PUSH1 0x20 SWAP5 PUSH1 0x1F DUP3 GT PUSH1 0x1 EQ PUSH2 0x139C JUMPI PUSH2 0x12DD SWAP3 SWAP4 SWAP5 SWAP6 DUP3 SWAP2 PUSH1 0x0 SWAP3 PUSH2 0x1391 JUMPI POP POP DUP2 PUSH1 0x1 SHL SWAP2 PUSH1 0x0 NOT SWAP1 PUSH1 0x3 SHL SHR NOT AND OR SWAP1 JUMP JUMPDEST SWAP1 SSTORE JUMPDEST PUSH1 0xB SLOAD SWAP1 PUSH1 0x1 PUSH1 0x40 SHL DUP3 LT ISZERO PUSH2 0x398 JUMPI PUSH2 0x2A5 DUP3 PUSH1 0x1 PUSH2 0x1305 SWAP5 ADD PUSH1 0xB SSTORE PUSH1 0xB PUSH2 0x2884 JUMP JUMPDEST PUSH1 0x0 JUMPDEST PUSH1 0xD SLOAD DUP1 DUP3 LT ISZERO PUSH2 0x396 JUMPI DUP3 PUSH2 0x131D DUP4 PUSH2 0x27E2 JUMP JUMPDEST SWAP1 SLOAD PUSH1 0x3 SWAP2 SWAP1 SWAP2 SHL SHR PUSH1 0x1 PUSH1 0x1 PUSH1 0xA0 SHL SUB AND EQ PUSH2 0x133D JUMPI POP PUSH1 0x1 ADD PUSH2 0x1308 JUMP JUMPDEST PUSH1 0x0 NOT DUP2 ADD SWAP3 POP DUP3 GT PUSH2 0x380 JUMPI PUSH2 0x2A5 PUSH2 0x1359 PUSH2 0x1371 SWAP4 PUSH2 0x27E2 JUMP JUMPDEST SWAP1 SLOAD PUSH1 0x3 SWAP2 SWAP1 SWAP2 SHL SHR PUSH1 0x1 PUSH1 0x1 PUSH1 0xA0 SHL SUB AND SWAP2 PUSH2 0x27E2 JUMP JUMPDEST PUSH1 0xD SLOAD DUP1 ISZERO PUSH2 0x36A JUMPI PUSH1 0x0 NOT ADD PUSH2 0x138C PUSH2 0x350 DUP3 PUSH1 0xD PUSH2 0x2884 JUMP JUMPDEST PUSH1 0xD SSTORE STOP JUMPDEST ADD MLOAD SWAP1 POP DUP7 DUP1 PUSH2 0x268 JUMP JUMPDEST PUSH1 0x1F NOT DUP3 AND SWAP6 DUP4 PUSH1 0x0 MSTORE DUP1 PUSH1 0x0 KECCAK256 SWAP2 PUSH1 0x0 JUMPDEST DUP9 DUP2 LT PUSH2 0x13E9 JUMPI POP DUP4 PUSH1 0x1 SWAP6 SWAP7 SWAP8 SWAP9 LT PUSH2 0x13D0 JUMPI JUMPDEST POP POP POP DUP2 SHL ADD SWAP1 SSTORE PUSH2 0x12E0 JUMP JUMPDEST ADD MLOAD PUSH1 0x0 NOT PUSH1 0xF8 DUP5 PUSH1 0x3 SHL AND SHR NOT AND SWAP1 SSTORE DUP6 DUP1 DUP1 PUSH2 0x13C3 JUMP JUMPDEST SWAP2 SWAP3 PUSH1 0x20 PUSH1 0x1 DUP2 SWAP3 DUP7 DUP6 ADD MLOAD DUP2 SSTORE ADD SWAP5 ADD SWAP3 ADD PUSH2 0x13AE JUMP JUMPDEST PUSH1 0x40 MLOAD PUSH3 0x461BCD PUSH1 0xE5 SHL DUP2 MSTORE PUSH1 0x20 PUSH1 0x4 DUP3 ADD MSTORE PUSH1 0x2D PUSH1 0x24 DUP3 ADD MSTORE PUSH32 0x546869732063616E64696461746520646F6573206E6F74206170706561722069 PUSH1 0x44 DUP3 ADD MSTORE PUSH13 0x371037BAB91039BCB9BA32B697 PUSH1 0x99 SHL PUSH1 0x64 DUP3 ADD MSTORE PUSH1 0x84 SWAP1 REVERT JUMPDEST CALLVALUE PUSH2 0x475 JUMPI PUSH2 0x146A CALLDATASIZE PUSH2 0x2B19 JUMP JUMPDEST SWAP1 PUSH2 0x1480 PUSH1 0x1 DUP1 PUSH1 0xA0 SHL SUB PUSH1 0x0 SLOAD AND CALLER EQ PUSH2 0x2D83 JUMP JUMPDEST PUSH2 0x1496 PUSH1 0x2 SLOAD DUP1 ISZERO SWAP1 DUP2 ISZERO PUSH2 0x15B7 JUMPI JUMPDEST POP PUSH2 0x2E81 JUMP JUMPDEST PUSH1 0x1 PUSH1 0x1 PUSH1 0xA0 SHL SUB SWAP1 DUP2 AND PUSH1 0x0 SWAP1 DUP2 MSTORE PUSH1 0x7 PUSH1 0x20 MSTORE PUSH1 0x40 SWAP1 KECCAK256 PUSH1 0x4 DUP2 ADD SLOAD SWAP1 SWAP2 AND ISZERO PUSH2 0x1572 JUMPI PUSH1 0x2 ADD DUP2 MLOAD PUSH1 0x1 PUSH1 0x1 PUSH1 0x40 SHL SUB DUP2 GT PUSH2 0x398 JUMPI PUSH2 0x14DD DUP2 PUSH2 0x243 DUP5 SLOAD PUSH2 0x2B58 JUMP JUMPDEST PUSH1 0x20 SWAP3 PUSH1 0x1F DUP3 GT PUSH1 0x1 EQ PUSH2 0x1512 JUMPI PUSH2 0x150E SWAP3 SWAP4 DUP3 SWAP2 PUSH1 0x0 SWAP3 PUSH2 0xDA6 JUMPI POP POP DUP2 PUSH1 0x1 SHL SWAP2 PUSH1 0x0 NOT SWAP1 PUSH1 0x3 SHL SHR NOT AND OR SWAP1 JUMP JUMPDEST SWAP1 SSTORE STOP JUMPDEST PUSH1 0x1F NOT DUP3 AND SWAP4 DUP4 PUSH1 0x0 MSTORE DUP1 PUSH1 0x0 KECCAK256 SWAP2 PUSH1 0x0 JUMPDEST DUP7 DUP2 LT PUSH2 0x155A JUMPI POP DUP4 PUSH1 0x1 SWAP6 SWAP7 LT PUSH2 0x1541 JUMPI JUMPDEST POP POP POP DUP2 SHL ADD SWAP1 SSTORE STOP JUMPDEST ADD MLOAD PUSH1 0x0 NOT PUSH1 0xF8 DUP5 PUSH1 0x3 SHL AND SHR NOT AND SWAP1 SSTORE DUP4 DUP1 DUP1 PUSH2 0x1537 JUMP JUMPDEST SWAP2 SWAP3 PUSH1 0x20 PUSH1 0x1 DUP2 SWAP3 DUP7 DUP6 ADD MLOAD DUP2 SSTORE ADD SWAP5 ADD SWAP3 ADD PUSH2 0x1524 JUMP JUMPDEST PUSH1 0x40 MLOAD PUSH3 0x461BCD PUSH1 0xE5 SHL DUP2 MSTORE PUSH1 0x20 PUSH1 0x4 DUP3 ADD MSTORE PUSH1 0x18 PUSH1 0x24 DUP3 ADD MSTORE PUSH32 0x4E6F20766F746572206461746120617661696C61626C652E0000000000000000 PUSH1 0x44 DUP3 ADD MSTORE PUSH1 0x64 SWAP1 REVERT JUMPDEST SWAP1 POP TIMESTAMP LT DUP5 PUSH2 0x1490 JUMP JUMPDEST CALLVALUE PUSH2 0x475 JUMPI PUSH1 0x20 CALLDATASIZE PUSH1 0x3 NOT ADD SLT PUSH2 0x475 JUMPI PUSH1 0x4 CALLDATALOAD PUSH1 0x1 PUSH1 0x1 PUSH1 0x40 SHL SUB DUP2 GT PUSH2 0x475 JUMPI PUSH2 0x15F1 SWAP1 CALLDATASIZE SWAP1 PUSH1 0x4 ADD PUSH2 0x2AAD JUMP JUMPDEST PUSH2 0x1606 PUSH1 0x2 SLOAD DUP1 ISZERO SWAP1 DUP2 ISZERO PUSH2 0x1705 JUMPI POP PUSH2 0x2E81 JUMP JUMPDEST CALLER PUSH1 0x0 SWAP1 DUP2 MSTORE PUSH1 0x8 PUSH1 0x20 MSTORE PUSH1 0x40 SWAP1 KECCAK256 PUSH1 0x2 DUP2 ADD SLOAD PUSH1 0x1 PUSH1 0x1 PUSH1 0xA0 SHL SUB AND ISZERO PUSH2 0x16C0 JUMPI PUSH1 0x3 ADD DUP2 MLOAD PUSH1 0x1 PUSH1 0x1 PUSH1 0x40 SHL SUB DUP2 GT PUSH2 0x398 JUMPI PUSH2 0x1649 DUP2 PUSH2 0x243 DUP5 SLOAD PUSH2 0x2B58 JUMP JUMPDEST PUSH1 0x20 SWAP3 PUSH1 0x1F DUP3 GT PUSH1 0x1 EQ PUSH2 0x167A JUMPI PUSH2 0x150E SWAP3 SWAP4 DUP3 SWAP2 PUSH1 0x0 SWAP3 PUSH2 0xDA6 JUMPI POP POP DUP2 PUSH1 0x1 SHL SWAP2 PUSH1 0x0 NOT SWAP1 PUSH1 0x3 SHL SHR NOT AND OR SWAP1 JUMP JUMPDEST PUSH1 0x1F NOT DUP3 AND SWAP4 DUP4 PUSH1 0x0 MSTORE DUP1 PUSH1 0x0 KECCAK256 SWAP2 PUSH1 0x0 JUMPDEST DUP7 DUP2 LT PUSH2 0x16A8 JUMPI POP DUP4 PUSH1 0x1 SWAP6 SWAP7 LT PUSH2 0x1541 JUMPI POP POP POP DUP2 SHL ADD SWAP1 SSTORE STOP JUMPDEST SWAP2 SWAP3 PUSH1 0x20 PUSH1 0x1 DUP2 SWAP3 DUP7 DUP6 ADD MLOAD DUP2 SSTORE ADD SWAP5 ADD SWAP3 ADD PUSH2 0x168C JUMP JUMPDEST PUSH1 0x40 MLOAD PUSH3 0x461BCD PUSH1 0xE5 SHL DUP2 MSTORE PUSH1 0x20 PUSH1 0x4 DUP3 ADD MSTORE PUSH1 0x1C PUSH1 0x24 DUP3 ADD MSTORE PUSH32 0x4E6F2063616E646964617465206461746120617661696C61626C652E00000000 PUSH1 0x44 DUP3 ADD MSTORE PUSH1 0x64 SWAP1 REVERT JUMPDEST SWAP1 POP TIMESTAMP LT DUP4 PUSH2 0x1490 JUMP JUMPDEST CALLVALUE PUSH2 0x475 JUMPI PUSH1 0x20 CALLDATASIZE PUSH1 0x3 NOT ADD SLT PUSH2 0x475 JUMPI PUSH2 0x1728 PUSH2 0x2B03 JUMP JUMPDEST PUSH1 0x2 SLOAD TIMESTAMP LT PUSH2 0x18DB JUMPI PUSH1 0x3 SLOAD TIMESTAMP GT PUSH2 0x18A3 JUMPI CALLER PUSH1 0x0 MSTORE PUSH1 0x7 PUSH1 0x20 MSTORE PUSH1 0x40 PUSH1 0x0 KECCAK256 PUSH1 0xFF PUSH1 0x4 DUP3 ADD SLOAD PUSH1 0xA0 SHR AND PUSH1 0x3 DUP2 LT ISZERO PUSH2 0xE88 JUMPI PUSH1 0x1 SUB PUSH2 0x185E JUMPI DUP1 SLOAD SWAP2 PUSH1 0xFF DUP4 AND PUSH2 0x1820 JUMPI PUSH1 0x1 DUP1 PUSH1 0xA0 SHL SUB AND PUSH1 0x0 MSTORE PUSH1 0x8 PUSH1 0x20 MSTORE PUSH1 0x40 PUSH1 0x0 KECCAK256 SWAP1 PUSH1 0xFF PUSH1 0x2 DUP4 ADD SLOAD PUSH1 0xA0 SHR AND PUSH1 0x3 DUP2 LT ISZERO PUSH2 0xE88 JUMPI PUSH1 0x1 SUB PUSH2 0x17DB JUMPI PUSH1 0x1 DUP1 SWAP4 PUSH1 0xFF NOT AND OR SWAP1 SSTORE ADD PUSH2 0x17B5 DUP2 SLOAD PUSH2 0x2D74 JUMP JUMPDEST SWAP1 SSTORE PUSH1 0xF SLOAD PUSH1 0x1 PUSH1 0x40 SHL DUP2 LT ISZERO PUSH2 0x398 JUMPI PUSH2 0xD78 DUP2 PUSH1 0x1 PUSH2 0x396 SWAP4 ADD PUSH1 0xF SSTORE PUSH1 0xF PUSH2 0x2884 JUMP JUMPDEST PUSH1 0x40 MLOAD PUSH3 0x461BCD PUSH1 0xE5 SHL DUP2 MSTORE PUSH1 0x20 PUSH1 0x4 DUP3 ADD MSTORE PUSH1 0x1A PUSH1 0x24 DUP3 ADD MSTORE PUSH32 0x43616E646964617465206973206E6F742061636365707465642E000000000000 PUSH1 0x44 DUP3 ADD MSTORE PUSH1 0x64 SWAP1 REVERT JUMPDEST PUSH1 0x40 MLOAD PUSH3 0x461BCD PUSH1 0xE5 SHL DUP2 MSTORE PUSH1 0x20 PUSH1 0x4 DUP3 ADD MSTORE PUSH1 0x16 PUSH1 0x24 DUP3 ADD MSTORE PUSH22 0x165BDD481A185D9948185B1C9958591E481D9BDD1959 PUSH1 0x52 SHL PUSH1 0x44 DUP3 ADD MSTORE PUSH1 0x64 SWAP1 REVERT JUMPDEST PUSH1 0x40 MLOAD PUSH3 0x461BCD PUSH1 0xE5 SHL DUP2 MSTORE PUSH1 0x20 PUSH1 0x4 DUP3 ADD MSTORE PUSH1 0x1E PUSH1 0x24 DUP3 ADD MSTORE PUSH32 0x596F7520617265206E6F74206120636F6E6669726D656420766F7465722E0000 PUSH1 0x44 DUP3 ADD MSTORE PUSH1 0x64 SWAP1 REVERT JUMPDEST PUSH1 0x40 MLOAD PUSH3 0x461BCD PUSH1 0xE5 SHL DUP2 MSTORE PUSH1 0x20 PUSH1 0x4 DUP3 ADD MSTORE PUSH1 0x10 PUSH1 0x24 DUP3 ADD MSTORE PUSH16 0x159BDD1A5B99C81A185CC8195B991959 PUSH1 0x82 SHL PUSH1 0x44 DUP3 ADD MSTORE PUSH1 0x64 SWAP1 REVERT JUMPDEST PUSH1 0x40 MLOAD PUSH3 0x461BCD PUSH1 0xE5 SHL DUP2 MSTORE PUSH1 0x20 PUSH1 0x4 DUP3 ADD MSTORE PUSH1 0x1A PUSH1 0x24 DUP3 ADD MSTORE PUSH32 0x566F74696E6720686173206E6F74207374617274656420796574000000000000 PUSH1 0x44 DUP3 ADD MSTORE PUSH1 0x64 SWAP1 REVERT JUMPDEST CALLVALUE PUSH2 0x475 JUMPI PUSH1 0x20 CALLDATASIZE PUSH1 0x3 NOT ADD SLT PUSH2 0x475 JUMPI PUSH1 0x4 CALLDATALOAD PUSH1 0x1 PUSH1 0x1 PUSH1 0x40 SHL SUB DUP2 GT PUSH2 0x475 JUMPI PUSH2 0x1950 SWAP1 CALLDATASIZE SWAP1 PUSH1 0x4 ADD PUSH2 0x2AAD JUMP JUMPDEST CALLER PUSH1 0x0 SWAP1 DUP2 MSTORE PUSH1 0x7 PUSH1 0x20 MSTORE PUSH1 0x40 SWAP1 KECCAK256 PUSH1 0x4 ADD SLOAD PUSH1 0x1 PUSH1 0x1 PUSH1 0xA0 SHL SUB AND PUSH2 0x1BDA JUMPI PUSH1 0x6 SLOAD PUSH1 0x40 MLOAD PUSH2 0x197F DUP2 PUSH2 0x2A71 JUMP JUMPDEST PUSH1 0x0 DUP2 MSTORE PUSH2 0x198B PUSH2 0x2E3C JUMP JUMPDEST SWAP1 PUSH1 0x20 DUP2 ADD SWAP2 DUP3 MSTORE PUSH1 0x40 DUP2 ADD SWAP4 DUP5 MSTORE PUSH1 0x60 DUP2 ADD SWAP3 DUP4 MSTORE PUSH1 0x80 DUP2 ADD SWAP3 CALLER DUP5 MSTORE PUSH1 0xA0 DUP3 ADD SWAP3 PUSH1 0x0 DUP5 MSTORE CALLER PUSH1 0x0 MSTORE PUSH1 0x7 PUSH1 0x20 MSTORE PUSH1 0x40 PUSH1 0x0 KECCAK256 SWAP3 MLOAD ISZERO ISZERO PUSH1 0xFF DUP1 NOT DUP6 SLOAD AND SWAP2 AND OR DUP4 SSTORE PUSH1 0x1 DUP4 ADD SWAP1 MLOAD DUP1 MLOAD SWAP1 PUSH1 0x1 PUSH1 0x1 PUSH1 0x40 SHL SUB DUP3 GT PUSH2 0x398 JUMPI PUSH2 0x19FB DUP3 PUSH2 0x19F5 DUP6 SLOAD PUSH2 0x2B58 JUMP JUMPDEST DUP6 PUSH2 0x2DF7 JUMP JUMPDEST PUSH1 0x20 SWAP1 PUSH1 0x1F DUP4 GT PUSH1 0x1 EQ PUSH2 0x1B73 JUMPI PUSH2 0x1A2B SWAP3 SWAP2 PUSH1 0x0 SWAP2 DUP4 PUSH2 0x1AFE JUMPI POP POP DUP2 PUSH1 0x1 SHL SWAP2 PUSH1 0x0 NOT SWAP1 PUSH1 0x3 SHL SHR NOT AND OR SWAP1 JUMP JUMPDEST SWAP1 SSTORE JUMPDEST PUSH1 0x2 DUP3 ADD SWAP5 MLOAD SWAP5 DUP6 MLOAD PUSH1 0x1 PUSH1 0x1 PUSH1 0x40 SHL SUB DUP2 GT PUSH2 0x398 JUMPI PUSH2 0x1A53 DUP2 PUSH2 0x243 DUP5 SLOAD PUSH2 0x2B58 JUMP JUMPDEST PUSH1 0x20 PUSH1 0x1F DUP3 GT PUSH1 0x1 EQ PUSH2 0x1B09 JUMPI SWAP1 DUP1 PUSH2 0x1A87 SWAP3 PUSH1 0x4 SWAP8 SWAP9 SWAP10 PUSH1 0x0 SWAP3 PUSH2 0x1AFE JUMPI POP POP DUP2 PUSH1 0x1 SHL SWAP2 PUSH1 0x0 NOT SWAP1 PUSH1 0x3 SHL SHR NOT AND OR SWAP1 JUMP JUMPDEST SWAP1 SSTORE JUMPDEST MLOAD PUSH1 0x3 DUP3 DUP2 ADD SWAP2 SWAP1 SWAP2 SSTORE SWAP4 MLOAD SWAP2 ADD DUP1 SLOAD PUSH1 0x1 PUSH1 0x1 PUSH1 0xA0 SHL SUB NOT AND PUSH1 0x1 PUSH1 0x1 PUSH1 0xA0 SHL SUB SWAP3 SWAP1 SWAP3 AND SWAP2 SWAP1 SWAP2 OR DUP2 SSTORE SWAP1 MLOAD SWAP1 SWAP2 DUP2 LT ISZERO PUSH2 0xE88 JUMPI PUSH2 0x1ACA SWAP2 PUSH2 0x2DBC JUMP JUMPDEST PUSH1 0xA SLOAD PUSH1 0x1 PUSH1 0x40 SHL DUP2 LT ISZERO PUSH2 0x398 JUMPI PUSH2 0xD78 DUP2 PUSH1 0x1 PUSH2 0x1AEE SWAP4 ADD PUSH1 0xA SSTORE PUSH1 0xA PUSH2 0x2884 JUMP JUMPDEST PUSH2 0x1AF9 PUSH1 0x6 SLOAD PUSH2 0x2D74 JUMP JUMPDEST PUSH1 0x6 SSTORE STOP JUMPDEST ADD MLOAD SWAP1 POP DUP10 DUP1 PUSH2 0x268 JUMP JUMPDEST PUSH1 0x1F NOT DUP3 AND SWAP8 DUP4 PUSH1 0x0 MSTORE DUP2 PUSH1 0x0 KECCAK256 SWAP9 PUSH1 0x0 JUMPDEST DUP2 DUP2 LT PUSH2 0x1B5B JUMPI POP SWAP2 PUSH1 0x4 SWAP8 SWAP9 SWAP10 SWAP2 DUP5 PUSH1 0x1 SWAP6 SWAP5 LT PUSH2 0x1B42 JUMPI JUMPDEST POP POP POP DUP2 SHL ADD SWAP1 SSTORE PUSH2 0x1A8A JUMP JUMPDEST ADD MLOAD PUSH1 0x0 NOT PUSH1 0xF8 DUP5 PUSH1 0x3 SHL AND SHR NOT AND SWAP1 SSTORE DUP9 DUP1 DUP1 PUSH2 0x1B35 JUMP JUMPDEST DUP4 DUP4 ADD MLOAD DUP12 SSTORE PUSH1 0x1 SWAP1 SWAP11 ADD SWAP10 PUSH1 0x20 SWAP4 DUP5 ADD SWAP4 ADD PUSH2 0x1B1B JUMP JUMPDEST SWAP1 PUSH1 0x1F NOT DUP4 AND SWAP2 DUP5 PUSH1 0x0 MSTORE DUP2 PUSH1 0x0 KECCAK256 SWAP3 PUSH1 0x0 JUMPDEST DUP2 DUP2 LT PUSH2 0x1BC2 JUMPI POP SWAP1 DUP5 PUSH1 0x1 SWAP6 SWAP5 SWAP4 SWAP3 LT PUSH2 0x1BA9 JUMPI JUMPDEST POP POP POP DUP2 SHL ADD SWAP1 SSTORE PUSH2 0x1A2E JUMP JUMPDEST ADD MLOAD PUSH1 0x0 NOT PUSH1 0xF8 DUP5 PUSH1 0x3 SHL AND SHR NOT AND SWAP1 SSTORE DUP9 DUP1 DUP1 PUSH2 0x1B9C JUMP JUMPDEST SWAP3 SWAP4 PUSH1 0x20 PUSH1 0x1 DUP2 SWAP3 DUP8 DUP7 ADD MLOAD DUP2 SSTORE ADD SWAP6 ADD SWAP4 ADD PUSH2 0x1B86 JUMP JUMPDEST PUSH1 0x40 MLOAD PUSH3 0x461BCD PUSH1 0xE5 SHL DUP2 MSTORE PUSH1 0x20 PUSH1 0x4 DUP3 ADD MSTORE PUSH1 0x27 PUSH1 0x24 DUP3 ADD MSTORE PUSH32 0x596F75206861766520616C726561647920726567697374657265642061732061 PUSH1 0x44 DUP3 ADD MSTORE PUSH7 0x103B37BA32B917 PUSH1 0xC9 SHL PUSH1 0x64 DUP3 ADD MSTORE PUSH1 0x84 SWAP1 REVERT JUMPDEST CALLVALUE PUSH2 0x475 JUMPI PUSH1 0x0 CALLDATASIZE PUSH1 0x3 NOT ADD SLT PUSH2 0x475 JUMPI PUSH1 0xA SLOAD PUSH2 0x1C4C DUP2 PUSH2 0x2D24 JUMP JUMPDEST SWAP1 PUSH1 0x0 JUMPDEST DUP2 DUP2 LT PUSH2 0x1C65 JUMPI PUSH1 0x40 MLOAD DUP1 PUSH2 0x5CF DUP6 DUP3 PUSH2 0x2A11 JUMP JUMPDEST DUP1 PUSH2 0x1C71 PUSH1 0x1 SWAP3 PUSH2 0x2869 JUMP JUMPDEST DUP4 DUP1 PUSH1 0xA0 SHL SUB SWAP2 SLOAD SWAP1 PUSH1 0x3 SHL SHR AND PUSH1 0x0 MSTORE PUSH1 0x7 PUSH1 0x20 MSTORE PUSH1 0x40 PUSH1 0x0 KECCAK256 PUSH2 0x1CA0 PUSH1 0xFF PUSH1 0x4 PUSH1 0x40 MLOAD SWAP4 PUSH2 0xF51 DUP6 PUSH2 0x2A71 JUMP JUMPDEST PUSH2 0x1CAA DUP3 DUP7 PUSH2 0x2CD1 JUMP JUMPDEST MSTORE PUSH2 0x1CB5 DUP2 DUP6 PUSH2 0x2CD1 JUMP JUMPDEST POP ADD PUSH2 0x1C50 JUMP JUMPDEST CALLVALUE PUSH2 0x475 JUMPI PUSH1 0x20 CALLDATASIZE PUSH1 0x3 NOT ADD SLT PUSH2 0x475 JUMPI PUSH1 0x4 CALLDATALOAD PUSH1 0xF SLOAD DUP2 LT ISZERO PUSH2 0x475 JUMPI PUSH2 0xEC7 PUSH1 0x20 SWAP2 PUSH2 0x284E JUMP JUMPDEST CALLVALUE PUSH2 0x475 JUMPI PUSH1 0x20 CALLDATASIZE PUSH1 0x3 NOT ADD SLT PUSH2 0x475 JUMPI PUSH1 0x4 CALLDATALOAD PUSH1 0xD SLOAD DUP2 LT ISZERO PUSH2 0x475 JUMPI PUSH2 0xEC7 PUSH1 0x20 SWAP2 PUSH2 0x27E2 JUMP JUMPDEST CALLVALUE PUSH2 0x475 JUMPI PUSH1 0x20 CALLDATASIZE PUSH1 0x3 NOT ADD SLT PUSH2 0x475 JUMPI PUSH1 0x4 CALLDATALOAD PUSH2 0x1D37 PUSH1 0x1 DUP1 PUSH1 0xA0 SHL SUB PUSH1 0x0 SLOAD AND CALLER EQ PUSH2 0x2D83 JUMP JUMPDEST PUSH1 0x4 SLOAD PUSH2 0x1DB0 JUMPI PUSH1 0x3 SLOAD DUP2 GT ISZERO PUSH2 0x1D4D JUMPI PUSH1 0x4 SSTORE STOP JUMPDEST PUSH1 0x40 MLOAD PUSH3 0x461BCD PUSH1 0xE5 SHL DUP2 MSTORE PUSH1 0x20 PUSH1 0x4 DUP3 ADD MSTORE PUSH1 0x35 PUSH1 0x24 DUP3 ADD MSTORE PUSH32 0x526573756C74207075626C69636174696F6E2074696D65206D75737420626520 PUSH1 0x44 DUP3 ADD MSTORE PUSH21 0x616674657220766F74696E6720656E642074696D65 PUSH1 0x58 SHL PUSH1 0x64 DUP3 ADD MSTORE PUSH1 0x84 SWAP1 REVERT JUMPDEST PUSH1 0x40 MLOAD PUSH3 0x461BCD PUSH1 0xE5 SHL DUP2 MSTORE PUSH1 0x20 PUSH1 0x4 DUP3 ADD MSTORE PUSH1 0x23 PUSH1 0x24 DUP3 ADD MSTORE PUSH32 0x526573756C74207075626C69636174696F6E2074696D6520616C726561647920 PUSH1 0x44 DUP3 ADD MSTORE PUSH3 0x1CD95D PUSH1 0xEA SHL PUSH1 0x64 DUP3 ADD MSTORE PUSH1 0x84 SWAP1 REVERT JUMPDEST CALLVALUE PUSH2 0x475 JUMPI PUSH2 0x1E0F CALLDATASIZE PUSH2 0x2B19 JUMP JUMPDEST SWAP1 PUSH2 0x1E25 PUSH1 0x1 DUP1 PUSH1 0xA0 SHL SUB PUSH1 0x0 SLOAD AND CALLER EQ PUSH2 0x2D83 JUMP JUMPDEST PUSH1 0x1 PUSH1 0x1 PUSH1 0xA0 SHL SUB DUP2 DUP2 AND PUSH1 0x0 DUP2 DUP2 MSTORE PUSH1 0x8 PUSH1 0x20 MSTORE PUSH1 0x40 SWAP1 KECCAK256 PUSH1 0x2 DUP2 ADD DUP1 SLOAD SWAP3 SWAP5 SWAP4 SWAP1 SWAP3 AND ISZERO PUSH2 0x1FD2 JUMPI DUP2 SLOAD PUSH1 0xFF PUSH1 0xA0 SHL NOT AND PUSH1 0x1 PUSH1 0xA1 SHL OR SWAP1 SWAP2 SSTORE DUP4 MLOAD PUSH1 0x4 SWAP2 SWAP1 SWAP2 ADD SWAP1 PUSH1 0x1 PUSH1 0x1 PUSH1 0x40 SHL SUB DUP2 GT PUSH2 0x398 JUMPI PUSH2 0x1E86 DUP2 PUSH2 0x243 DUP5 SLOAD PUSH2 0x2B58 JUMP JUMPDEST PUSH1 0x20 SWAP5 PUSH1 0x1F DUP3 GT PUSH1 0x1 EQ PUSH2 0x1F6D JUMPI PUSH2 0x1EB9 SWAP3 SWAP4 SWAP5 SWAP6 DUP3 SWAP2 PUSH1 0x0 SWAP3 PUSH2 0x1391 JUMPI POP POP DUP2 PUSH1 0x1 SHL SWAP2 PUSH1 0x0 NOT SWAP1 PUSH1 0x3 SHL SHR NOT AND OR SWAP1 JUMP JUMPDEST SWAP1 SSTORE JUMPDEST PUSH1 0xD SLOAD SWAP1 PUSH1 0x1 PUSH1 0x40 SHL DUP3 LT ISZERO PUSH2 0x398 JUMPI PUSH2 0x2A5 DUP3 PUSH1 0x1 PUSH2 0x1EE1 SWAP5 ADD PUSH1 0xD SSTORE PUSH1 0xD PUSH2 0x2884 JUMP JUMPDEST PUSH1 0x0 JUMPDEST PUSH1 0xB SLOAD DUP1 DUP3 LT ISZERO PUSH2 0x396 JUMPI DUP3 PUSH2 0x1EF9 DUP4 PUSH2 0x2833 JUMP JUMPDEST SWAP1 SLOAD PUSH1 0x3 SWAP2 SWAP1 SWAP2 SHL SHR PUSH1 0x1 PUSH1 0x1 PUSH1 0xA0 SHL SUB AND EQ PUSH2 0x1F19 JUMPI POP PUSH1 0x1 ADD PUSH2 0x1EE4 JUMP JUMPDEST PUSH1 0x0 NOT DUP2 ADD SWAP3 POP DUP3 GT PUSH2 0x380 JUMPI PUSH2 0x2A5 PUSH2 0x1F35 PUSH2 0x1F4D SWAP4 PUSH2 0x2833 JUMP JUMPDEST SWAP1 SLOAD PUSH1 0x3 SWAP2 SWAP1 SWAP2 SHL SHR PUSH1 0x1 PUSH1 0x1 PUSH1 0xA0 SHL SUB AND SWAP2 PUSH2 0x2833 JUMP JUMPDEST PUSH1 0xB SLOAD DUP1 ISZERO PUSH2 0x36A JUMPI PUSH1 0x0 NOT ADD PUSH2 0x1F68 PUSH2 0x350 DUP3 PUSH1 0xB PUSH2 0x2884 JUMP JUMPDEST PUSH1 0xB SSTORE STOP JUMPDEST PUSH1 0x1F NOT DUP3 AND SWAP6 DUP4 PUSH1 0x0 MSTORE DUP1 PUSH1 0x0 KECCAK256 SWAP2 PUSH1 0x0 JUMPDEST DUP9 DUP2 LT PUSH2 0x1FBA JUMPI POP DUP4 PUSH1 0x1 SWAP6 SWAP7 SWAP8 SWAP9 LT PUSH2 0x1FA1 JUMPI JUMPDEST POP POP POP DUP2 SHL ADD SWAP1 SSTORE PUSH2 0x1EBC JUMP JUMPDEST ADD MLOAD PUSH1 0x0 NOT PUSH1 0xF8 DUP5 PUSH1 0x3 SHL AND SHR NOT AND SWAP1 SSTORE DUP6 DUP1 DUP1 PUSH2 0x1F94 JUMP JUMPDEST SWAP2 SWAP3 PUSH1 0x20 PUSH1 0x1 DUP2 SWAP3 DUP7 DUP6 ADD MLOAD DUP2 SSTORE ADD SWAP5 ADD SWAP3 ADD PUSH2 0x1F7F JUMP JUMPDEST PUSH1 0x40 MLOAD PUSH3 0x461BCD PUSH1 0xE5 SHL DUP2 MSTORE PUSH1 0x20 PUSH1 0x4 DUP3 ADD MSTORE PUSH1 0x1B PUSH1 0x24 DUP3 ADD MSTORE PUSH32 0x4E6F2063616E646964617465206461746120617661696C61626C650000000000 PUSH1 0x44 DUP3 ADD MSTORE PUSH1 0x64 SWAP1 REVERT JUMPDEST CALLVALUE PUSH2 0x475 JUMPI PUSH1 0x20 CALLDATASIZE PUSH1 0x3 NOT ADD SLT PUSH2 0x475 JUMPI PUSH1 0x4 CALLDATALOAD PUSH1 0xC SLOAD DUP2 LT ISZERO PUSH2 0x475 JUMPI PUSH2 0xEC7 PUSH1 0x20 SWAP2 PUSH2 0x27FD JUMP JUMPDEST CALLVALUE PUSH2 0x475 JUMPI PUSH2 0x204E CALLDATASIZE PUSH2 0x2B19 JUMP JUMPDEST SWAP1 PUSH2 0x2064 PUSH1 0x1 DUP1 PUSH1 0xA0 SHL SUB PUSH1 0x0 SLOAD AND CALLER EQ PUSH2 0x2D83 JUMP JUMPDEST PUSH1 0x1 PUSH1 0x1 PUSH1 0xA0 SHL SUB DUP2 DUP2 AND PUSH1 0x0 DUP2 DUP2 MSTORE PUSH1 0x7 PUSH1 0x20 MSTORE PUSH1 0x40 SWAP1 KECCAK256 PUSH1 0x4 DUP2 ADD DUP1 SLOAD SWAP3 SWAP5 SWAP4 SWAP1 SWAP3 AND ISZERO PUSH2 0x2211 JUMPI DUP2 SLOAD PUSH1 0xFF PUSH1 0xA0 SHL NOT AND PUSH1 0x1 PUSH1 0xA1 SHL OR SWAP1 SWAP2 SSTORE DUP4 MLOAD PUSH1 0x1 SWAP2 SWAP1 SWAP2 ADD SWAP1 PUSH1 0x1 PUSH1 0x1 PUSH1 0x40 SHL SUB DUP2 GT PUSH2 0x398 JUMPI PUSH2 0x20C5 DUP2 PUSH2 0x243 DUP5 SLOAD PUSH2 0x2B58 JUMP JUMPDEST PUSH1 0x20 SWAP5 PUSH1 0x1F DUP3 GT PUSH1 0x1 EQ PUSH2 0x21AC JUMPI PUSH2 0x20F8 SWAP3 SWAP4 SWAP5 SWAP6 DUP3 SWAP2 PUSH1 0x0 SWAP3 PUSH2 0x1391 JUMPI POP POP DUP2 PUSH1 0x1 SHL SWAP2 PUSH1 0x0 NOT SWAP1 PUSH1 0x3 SHL SHR NOT AND OR SWAP1 JUMP JUMPDEST SWAP1 SSTORE JUMPDEST PUSH1 0xE SLOAD SWAP1 PUSH1 0x1 PUSH1 0x40 SHL DUP3 LT ISZERO PUSH2 0x398 JUMPI PUSH2 0x2A5 DUP3 PUSH1 0x1 PUSH2 0x2120 SWAP5 ADD PUSH1 0xE SSTORE PUSH1 0xE PUSH2 0x2884 JUMP JUMPDEST PUSH1 0x0 JUMPDEST PUSH1 0xC SLOAD DUP1 DUP3 LT ISZERO PUSH2 0x396 JUMPI DUP3 PUSH2 0x2138 DUP4 PUSH2 0x27FD JUMP JUMPDEST SWAP1 SLOAD PUSH1 0x3 SWAP2 SWAP1 SWAP2 SHL SHR PUSH1 0x1 PUSH1 0x1 PUSH1 0xA0 SHL SUB AND EQ PUSH2 0x2158 JUMPI POP PUSH1 0x1 ADD PUSH2 0x2123 JUMP JUMPDEST PUSH1 0x0 NOT DUP2 ADD SWAP3 POP DUP3 GT PUSH2 0x380 JUMPI PUSH2 0x2A5 PUSH2 0x2174 PUSH2 0x218C SWAP4 PUSH2 0x27FD JUMP JUMPDEST SWAP1 SLOAD PUSH1 0x3 SWAP2 SWAP1 SWAP2 SHL SHR PUSH1 0x1 PUSH1 0x1 PUSH1 0xA0 SHL SUB AND SWAP2 PUSH2 0x27FD JUMP JUMPDEST PUSH1 0xC SLOAD DUP1 ISZERO PUSH2 0x36A JUMPI PUSH1 0x0 NOT ADD PUSH2 0x21A7 PUSH2 0x350 DUP3 PUSH1 0xC PUSH2 0x2884 JUMP JUMPDEST PUSH1 0xC SSTORE STOP JUMPDEST PUSH1 0x1F NOT DUP3 AND SWAP6 DUP4 PUSH1 0x0 MSTORE DUP1 PUSH1 0x0 KECCAK256 SWAP2 PUSH1 0x0 JUMPDEST DUP9 DUP2 LT PUSH2 0x21F9 JUMPI POP DUP4 PUSH1 0x1 SWAP6 SWAP7 SWAP8 SWAP9 LT PUSH2 0x21E0 JUMPI JUMPDEST POP POP POP DUP2 SHL ADD SWAP1 SSTORE PUSH2 0x20FB JUMP JUMPDEST ADD MLOAD PUSH1 0x0 NOT PUSH1 0xF8 DUP5 PUSH1 0x3 SHL AND SHR NOT AND SWAP1 SSTORE DUP6 DUP1 DUP1 PUSH2 0x21D3 JUMP JUMPDEST SWAP2 SWAP3 PUSH1 0x20 PUSH1 0x1 DUP2 SWAP3 DUP7 DUP6 ADD MLOAD DUP2 SSTORE ADD SWAP5 ADD SWAP3 ADD PUSH2 0x21BE JUMP JUMPDEST PUSH1 0x40 MLOAD PUSH3 0x461BCD PUSH1 0xE5 SHL DUP2 MSTORE PUSH1 0x20 PUSH1 0x4 DUP3 ADD MSTORE PUSH1 0x17 PUSH1 0x24 DUP3 ADD MSTORE PUSH32 0x4E6F20766F746572206461746120617661696C61626C65000000000000000000 PUSH1 0x44 DUP3 ADD MSTORE PUSH1 0x64 SWAP1 REVERT JUMPDEST CALLVALUE PUSH2 0x475 JUMPI PUSH1 0x40 CALLDATASIZE PUSH1 0x3 NOT ADD SLT PUSH2 0x475 JUMPI PUSH1 0x4 CALLDATALOAD PUSH1 0x1 PUSH1 0x1 PUSH1 0x40 SHL SUB DUP2 GT PUSH2 0x475 JUMPI PUSH2 0x2286 SWAP1 CALLDATASIZE SWAP1 PUSH1 0x4 ADD PUSH2 0x2AAD JUMP JUMPDEST PUSH1 0x24 CALLDATALOAD PUSH1 0x1 PUSH1 0x1 PUSH1 0xA0 SHL SUB DUP2 AND SWAP1 DUP2 SWAP1 SUB PUSH2 0x475 JUMPI PUSH1 0x9 SLOAD SWAP1 PUSH1 0x20 DUP4 ADD SWAP1 PUSH1 0x0 DUP1 JUMPDEST DUP5 DUP2 LT PUSH2 0x23C7 JUMPI POP PUSH2 0x22B9 SWAP1 PUSH2 0x2C81 JUMP JUMPDEST SWAP4 PUSH1 0x0 SWAP2 PUSH1 0x0 JUMPDEST DUP6 DUP2 LT PUSH2 0x22D5 JUMPI PUSH1 0x40 MLOAD DUP1 PUSH2 0x5CF DUP10 DUP3 PUSH2 0x294F JUMP JUMPDEST PUSH2 0x22DE DUP2 PUSH2 0x27B1 JUMP JUMPDEST PUSH1 0x1 DUP1 PUSH1 0xA0 SHL SUB SWAP2 SLOAD SWAP1 PUSH1 0x3 SHL SHR AND PUSH1 0x0 MSTORE PUSH1 0x8 PUSH1 0x20 MSTORE PUSH1 0x40 PUSH1 0x0 KECCAK256 PUSH1 0x40 MLOAD SWAP1 PUSH2 0x2307 DUP3 PUSH2 0x2A71 JUMP JUMPDEST DUP1 SLOAD DUP3 MSTORE PUSH1 0x1 DUP2 ADD SLOAD PUSH1 0x20 DUP4 ADD MSTORE PUSH1 0x2 DUP2 ADD SLOAD PUSH1 0x1 PUSH1 0x1 PUSH1 0xA0 SHL SUB DUP2 AND PUSH1 0x40 DUP5 ADD SWAP1 DUP2 MSTORE SWAP2 DUP6 SWAP2 PUSH2 0x2341 SWAP1 PUSH1 0xA0 SHR PUSH1 0xFF AND PUSH1 0x60 DUP7 ADD PUSH2 0x2CE5 JUMP JUMPDEST PUSH2 0x2360 PUSH1 0x4 PUSH2 0x2352 PUSH1 0x3 DUP5 ADD PUSH2 0x2B92 JUMP JUMPDEST SWAP3 PUSH1 0x80 DUP8 ADD SWAP4 DUP5 MSTORE ADD PUSH2 0x2B92 JUMP JUMPDEST PUSH1 0xA0 DUP6 ADD MSTORE MLOAD PUSH1 0x20 DUP2 MLOAD SWAP2 ADD KECCAK256 DUP7 MLOAD DUP10 KECCAK256 EQ SWAP2 DUP3 PUSH2 0x23B3 JUMPI JUMPDEST POP POP PUSH2 0x2389 JUMPI JUMPDEST POP PUSH1 0x1 ADD PUSH2 0x22C0 JUMP JUMPDEST DUP5 PUSH2 0x23AC SWAP2 PUSH2 0x239B PUSH1 0x1 SWAP5 SWAP8 DUP12 PUSH2 0x2CD1 JUMP JUMPDEST MSTORE PUSH2 0x23A6 DUP2 DUP11 PUSH2 0x2CD1 JUMP JUMPDEST POP PUSH2 0x2D74 JUMP JUMPDEST SWAP4 SWAP1 PUSH2 0x2380 JUMP JUMPDEST MLOAD PUSH1 0x1 PUSH1 0x1 PUSH1 0xA0 SHL SUB AND EQ SWAP1 POP DUP4 DUP11 PUSH2 0x2379 JUMP JUMPDEST PUSH2 0x23D0 DUP2 PUSH2 0x27B1 JUMP JUMPDEST PUSH1 0x1 DUP1 PUSH1 0xA0 SHL SUB SWAP2 SLOAD SWAP1 PUSH1 0x3 SHL SHR AND PUSH1 0x0 MSTORE PUSH1 0x8 PUSH1 0x20 MSTORE PUSH1 0x40 PUSH1 0x0 KECCAK256 DUP4 PUSH1 0x40 MLOAD SWAP2 PUSH2 0x23FA DUP4 PUSH2 0x2A71 JUMP JUMPDEST DUP1 SLOAD DUP4 MSTORE PUSH1 0x1 DUP2 ADD SLOAD PUSH1 0x20 DUP5 ADD MSTORE PUSH1 0x2 DUP2 ADD SLOAD PUSH1 0x1 PUSH1 0x1 PUSH1 0xA0 SHL SUB DUP2 AND PUSH1 0x40 DUP6 ADD SWAP1 DUP2 MSTORE SWAP4 SWAP1 PUSH2 0x2433 SWAP1 PUSH1 0xA0 SHR PUSH1 0xFF AND PUSH1 0x60 DUP4 ADD PUSH2 0x2CE5 JUMP JUMPDEST PUSH1 0xA0 PUSH2 0x2454 PUSH1 0x4 PUSH2 0x2446 PUSH1 0x3 DUP7 ADD PUSH2 0x2B92 JUMP JUMPDEST SWAP5 PUSH1 0x80 DUP6 ADD SWAP6 DUP7 MSTORE ADD PUSH2 0x2B92 JUMP JUMPDEST SWAP2 ADD MSTORE MLOAD PUSH1 0x20 DUP2 MLOAD SWAP2 ADD KECCAK256 DUP9 MLOAD DUP8 KECCAK256 EQ SWAP2 DUP3 PUSH2 0x248E JUMPI JUMPDEST POP POP PUSH2 0x247A JUMPI JUMPDEST PUSH1 0x1 ADD PUSH2 0x22A8 JUMP JUMPDEST SWAP1 PUSH2 0x2486 PUSH1 0x1 SWAP2 PUSH2 0x2D74 JUMP JUMPDEST SWAP2 SWAP1 POP PUSH2 0x2472 JUMP JUMPDEST MLOAD PUSH1 0x1 PUSH1 0x1 PUSH1 0xA0 SHL SUB AND EQ SWAP1 POP DUP4 DUP9 PUSH2 0x246B JUMP JUMPDEST CALLVALUE PUSH2 0x475 JUMPI PUSH1 0x0 CALLDATASIZE PUSH1 0x3 NOT ADD SLT PUSH2 0x475 JUMPI PUSH1 0xB SLOAD PUSH2 0x24BF DUP2 PUSH2 0x2C81 JUMP JUMPDEST SWAP1 PUSH1 0x0 JUMPDEST DUP2 DUP2 LT PUSH2 0x24D8 JUMPI PUSH1 0x40 MLOAD DUP1 PUSH2 0x5CF DUP6 DUP3 PUSH2 0x294F JUMP JUMPDEST DUP1 PUSH2 0x24E4 PUSH1 0x1 SWAP3 PUSH2 0x2833 JUMP JUMPDEST DUP4 DUP1 PUSH1 0xA0 SHL SUB SWAP2 SLOAD SWAP1 PUSH1 0x3 SHL SHR AND PUSH1 0x0 MSTORE PUSH1 0x8 PUSH1 0x20 MSTORE PUSH1 0x40 PUSH1 0x0 KECCAK256 PUSH2 0x2559 PUSH1 0x4 PUSH1 0x40 MLOAD SWAP3 PUSH2 0x2511 DUP5 PUSH2 0x2A71 JUMP JUMPDEST DUP1 SLOAD DUP5 MSTORE DUP6 DUP2 ADD SLOAD PUSH1 0x20 DUP6 ADD MSTORE PUSH2 0x2542 PUSH1 0xFF PUSH1 0x2 DUP4 ADD SLOAD DUP9 DUP1 PUSH1 0xA0 SHL SUB DUP2 AND PUSH1 0x40 DUP9 ADD MSTORE PUSH1 0xA0 SHR AND PUSH1 0x60 DUP7 ADD PUSH2 0x2CE5 JUMP JUMPDEST PUSH2 0x254E PUSH1 0x3 DUP3 ADD PUSH2 0x2B92 JUMP JUMPDEST PUSH1 0x80 DUP6 ADD MSTORE ADD PUSH2 0x2B92 JUMP JUMPDEST PUSH1 0xA0 DUP3 ADD MSTORE PUSH2 0x2568 DUP3 DUP7 PUSH2 0x2CD1 JUMP JUMPDEST MSTORE PUSH2 0x2573 DUP2 DUP6 PUSH2 0x2CD1 JUMP JUMPDEST POP ADD PUSH2 0x24C3 JUMP JUMPDEST CALLVALUE PUSH2 0x475 JUMPI PUSH1 0x20 CALLDATASIZE PUSH1 0x3 NOT ADD SLT PUSH2 0x475 JUMPI PUSH1 0x4 CALLDATALOAD PUSH1 0xE SLOAD DUP2 LT ISZERO PUSH2 0x475 JUMPI PUSH2 0xEC7 PUSH1 0x20 SWAP2 PUSH2 0x2818 JUMP JUMPDEST CALLVALUE PUSH2 0x475 JUMPI PUSH1 0x0 CALLDATASIZE PUSH1 0x3 NOT ADD SLT PUSH2 0x475 JUMPI PUSH1 0xC SLOAD PUSH2 0x25C0 DUP2 PUSH2 0x2D24 JUMP JUMPDEST SWAP1 PUSH1 0x0 JUMPDEST DUP2 DUP2 LT PUSH2 0x25D9 JUMPI PUSH1 0x40 MLOAD DUP1 PUSH2 0x5CF DUP6 DUP3 PUSH2 0x2A11 JUMP JUMPDEST DUP1 PUSH2 0x25E5 PUSH1 0x1 SWAP3 PUSH2 0x27FD JUMP JUMPDEST DUP4 DUP1 PUSH1 0xA0 SHL SUB SWAP2 SLOAD SWAP1 PUSH1 0x3 SHL SHR AND PUSH1 0x0 MSTORE PUSH1 0x7 PUSH1 0x20 MSTORE PUSH1 0x40 PUSH1 0x0 KECCAK256 PUSH2 0x2614 PUSH1 0xFF PUSH1 0x4 PUSH1 0x40 MLOAD SWAP4 PUSH2 0xF51 DUP6 PUSH2 0x2A71 JUMP JUMPDEST PUSH2 0x261E DUP3 DUP7 PUSH2 0x2CD1 JUMP JUMPDEST MSTORE PUSH2 0x2629 DUP2 DUP6 PUSH2 0x2CD1 JUMP JUMPDEST POP ADD PUSH2 0x25C4 JUMP JUMPDEST CALLVALUE PUSH2 0x475 JUMPI PUSH1 0x0 CALLDATASIZE PUSH1 0x3 NOT ADD SLT PUSH2 0x475 JUMPI PUSH1 0x20 PUSH1 0x2 SLOAD PUSH1 0x40 MLOAD SWAP1 DUP2 MSTORE RETURN JUMPDEST CALLVALUE PUSH2 0x475 JUMPI PUSH1 0x0 CALLDATASIZE PUSH1 0x3 NOT ADD SLT PUSH2 0x475 JUMPI PUSH1 0x9 SLOAD PUSH2 0x266B DUP2 PUSH2 0x2C81 JUMP JUMPDEST SWAP1 PUSH1 0x0 JUMPDEST DUP2 DUP2 LT PUSH2 0x2684 JUMPI PUSH1 0x40 MLOAD DUP1 PUSH2 0x5CF DUP6 DUP3 PUSH2 0x294F JUMP JUMPDEST DUP1 PUSH2 0x2690 PUSH1 0x1 SWAP3 PUSH2 0x27B1 JUMP JUMPDEST DUP4 DUP1 PUSH1 0xA0 SHL SUB SWAP2 SLOAD SWAP1 PUSH1 0x3 SHL SHR AND PUSH1 0x0 MSTORE PUSH1 0x8 PUSH1 0x20 MSTORE PUSH1 0x40 PUSH1 0x0 KECCAK256 PUSH2 0x26BD PUSH1 0x4 PUSH1 0x40 MLOAD SWAP3 PUSH2 0x2511 DUP5 PUSH2 0x2A71 JUMP JUMPDEST PUSH1 0xA0 DUP3 ADD MSTORE PUSH2 0x26CC DUP3 DUP7 PUSH2 0x2CD1 JUMP JUMPDEST MSTORE PUSH2 0x26D7 DUP2 DUP6 PUSH2 0x2CD1 JUMP JUMPDEST POP ADD PUSH2 0x266F JUMP JUMPDEST CALLVALUE PUSH2 0x475 JUMPI PUSH1 0x0 CALLDATASIZE PUSH1 0x3 NOT ADD SLT PUSH2 0x475 JUMPI PUSH1 0x20 PUSH1 0x3 SLOAD PUSH1 0x40 MLOAD SWAP1 DUP2 MSTORE RETURN JUMPDEST CALLVALUE PUSH2 0x475 JUMPI PUSH1 0x0 CALLDATASIZE PUSH1 0x3 NOT ADD SLT PUSH2 0x475 JUMPI PUSH1 0xD SLOAD PUSH2 0x2719 DUP2 PUSH2 0x2C81 JUMP JUMPDEST SWAP1 PUSH1 0x0 JUMPDEST DUP2 DUP2 LT PUSH2 0x2732 JUMPI PUSH1 0x40 MLOAD DUP1 PUSH2 0x5CF DUP6 DUP3 PUSH2 0x294F JUMP JUMPDEST DUP1 PUSH2 0x273E PUSH1 0x1 SWAP3 PUSH2 0x27E2 JUMP JUMPDEST DUP4 DUP1 PUSH1 0xA0 SHL SUB SWAP2 SLOAD SWAP1 PUSH1 0x3 SHL SHR AND PUSH1 0x0 MSTORE PUSH1 0x8 PUSH1 0x20 MSTORE PUSH1 0x40 PUSH1 0x0 KECCAK256 PUSH2 0x276B PUSH1 0x4 PUSH1 0x40 MLOAD SWAP3 PUSH2 0x2511 DUP5 PUSH2 0x2A71 JUMP JUMPDEST PUSH1 0xA0 DUP3 ADD MSTORE PUSH2 0x277A DUP3 DUP7 PUSH2 0x2CD1 JUMP JUMPDEST MSTORE PUSH2 0x2785 DUP2 DUP6 PUSH2 0x2CD1 JUMP JUMPDEST POP ADD PUSH2 0x271D JUMP JUMPDEST CALLVALUE PUSH2 0x475 JUMPI PUSH1 0x20 CALLDATASIZE PUSH1 0x3 NOT ADD SLT PUSH2 0x475 JUMPI PUSH1 0x4 CALLDATALOAD PUSH1 0x9 SLOAD DUP2 LT ISZERO PUSH2 0x475 JUMPI PUSH2 0xEC7 PUSH1 0x20 SWAP2 JUMPDEST PUSH1 0x9 SLOAD DUP2 LT ISZERO PUSH2 0x27CC JUMPI PUSH1 0x9 PUSH1 0x0 MSTORE PUSH1 0x20 PUSH1 0x0 KECCAK256 ADD SWAP1 PUSH1 0x0 SWAP1 JUMP JUMPDEST PUSH4 0x4E487B71 PUSH1 0xE0 SHL PUSH1 0x0 MSTORE PUSH1 0x32 PUSH1 0x4 MSTORE PUSH1 0x24 PUSH1 0x0 REVERT JUMPDEST PUSH1 0xD SLOAD DUP2 LT ISZERO PUSH2 0x27CC JUMPI PUSH1 0xD PUSH1 0x0 MSTORE PUSH1 0x20 PUSH1 0x0 KECCAK256 ADD SWAP1 PUSH1 0x0 SWAP1 JUMP JUMPDEST PUSH1 0xC SLOAD DUP2 LT ISZERO PUSH2 0x27CC JUMPI PUSH1 0xC PUSH1 0x0 MSTORE PUSH1 0x20 PUSH1 0x0 KECCAK256 ADD SWAP1 PUSH1 0x0 SWAP1 JUMP JUMPDEST PUSH1 0xE SLOAD DUP2 LT ISZERO PUSH2 0x27CC JUMPI PUSH1 0xE PUSH1 0x0 MSTORE PUSH1 0x20 PUSH1 0x0 KECCAK256 ADD SWAP1 PUSH1 0x0 SWAP1 JUMP JUMPDEST PUSH1 0xB SLOAD DUP2 LT ISZERO PUSH2 0x27CC JUMPI PUSH1 0xB PUSH1 0x0 MSTORE PUSH1 0x20 PUSH1 0x0 KECCAK256 ADD SWAP1 PUSH1 0x0 SWAP1 JUMP JUMPDEST PUSH1 0xF SLOAD DUP2 LT ISZERO PUSH2 0x27CC JUMPI PUSH1 0xF PUSH1 0x0 MSTORE PUSH1 0x20 PUSH1 0x0 KECCAK256 ADD SWAP1 PUSH1 0x0 SWAP1 JUMP JUMPDEST PUSH1 0xA SLOAD DUP2 LT ISZERO PUSH2 0x27CC JUMPI PUSH1 0xA PUSH1 0x0 MSTORE PUSH1 0x20 PUSH1 0x0 KECCAK256 ADD SWAP1 PUSH1 0x0 SWAP1 JUMP JUMPDEST DUP1 SLOAD DUP3 LT ISZERO PUSH2 0x27CC JUMPI PUSH1 0x0 MSTORE PUSH1 0x20 PUSH1 0x0 KECCAK256 ADD SWAP1 PUSH1 0x0 SWAP1 JUMP JUMPDEST SWAP1 PUSH1 0x3 DUP3 LT ISZERO PUSH2 0xE88 JUMPI MSTORE JUMP JUMPDEST SWAP2 SWAP1 DUP3 MLOAD SWAP3 DUP4 DUP3 MSTORE PUSH1 0x0 JUMPDEST DUP5 DUP2 LT PUSH2 0x28D5 JUMPI POP POP DUP3 PUSH1 0x0 PUSH1 0x20 DUP1 SWAP5 SWAP6 DUP5 ADD ADD MSTORE PUSH1 0x1F DUP1 NOT SWAP2 ADD AND ADD ADD SWAP1 JUMP JUMPDEST DUP1 PUSH1 0x20 DUP1 SWAP3 DUP5 ADD ADD MLOAD DUP3 DUP3 DUP7 ADD ADD MSTORE ADD PUSH2 0x28B4 JUMP JUMPDEST PUSH2 0x294C SWAP2 DUP2 MLOAD DUP2 MSTORE PUSH1 0x20 DUP3 ADD MLOAD PUSH1 0x20 DUP3 ADD MSTORE PUSH1 0x1 DUP1 PUSH1 0xA0 SHL SUB PUSH1 0x40 DUP4 ADD MLOAD AND PUSH1 0x40 DUP3 ADD MSTORE PUSH2 0x2920 PUSH1 0x60 DUP4 ADD MLOAD PUSH1 0x60 DUP4 ADD SWAP1 PUSH2 0x289C JUMP JUMPDEST PUSH1 0xA0 PUSH2 0x293B PUSH1 0x80 DUP5 ADD MLOAD PUSH1 0xC0 PUSH1 0x80 DUP6 ADD MSTORE PUSH1 0xC0 DUP5 ADD SWAP1 PUSH2 0x28A9 JUMP JUMPDEST SWAP3 ADD MLOAD SWAP1 PUSH1 0xA0 DUP2 DUP5 SUB SWAP2 ADD MSTORE PUSH2 0x28A9 JUMP JUMPDEST SWAP1 JUMP JUMPDEST PUSH1 0x20 DUP2 ADD PUSH1 0x20 DUP3 MSTORE DUP3 MLOAD DUP1 SWAP2 MSTORE PUSH1 0x40 DUP3 ADD SWAP2 PUSH1 0x20 PUSH1 0x40 DUP4 PUSH1 0x5 SHL DUP4 ADD ADD SWAP5 ADD SWAP3 PUSH1 0x0 SWAP2 JUMPDEST DUP4 DUP4 LT PUSH2 0x2982 JUMPI POP POP POP POP POP SWAP1 JUMP JUMPDEST SWAP1 SWAP2 SWAP3 SWAP4 SWAP5 PUSH1 0x20 DUP1 PUSH2 0x29A0 PUSH1 0x1 SWAP4 PUSH1 0x3F NOT DUP7 DUP3 SUB ADD DUP8 MSTORE DUP10 MLOAD PUSH2 0x28EA JUMP JUMPDEST SWAP8 ADD SWAP4 ADD SWAP4 ADD SWAP2 SWAP4 SWAP3 SWAP1 PUSH2 0x2973 JUMP JUMPDEST SWAP1 PUSH2 0x294C SWAP1 DUP3 MLOAD ISZERO ISZERO DUP2 MSTORE PUSH1 0xA0 DUP1 PUSH2 0x29EB PUSH2 0x29D9 PUSH1 0x20 DUP8 ADD MLOAD PUSH1 0xC0 PUSH1 0x20 DUP8 ADD MSTORE PUSH1 0xC0 DUP7 ADD SWAP1 PUSH2 0x28A9 JUMP JUMPDEST PUSH1 0x40 DUP8 ADD MLOAD DUP6 DUP3 SUB PUSH1 0x40 DUP8 ADD MSTORE PUSH2 0x28A9 JUMP JUMPDEST SWAP5 PUSH1 0x60 DUP2 ADD MLOAD PUSH1 0x60 DUP6 ADD MSTORE PUSH1 0x1 DUP1 DUP4 SHL SUB PUSH1 0x80 DUP3 ADD MLOAD AND PUSH1 0x80 DUP6 ADD MSTORE ADD MLOAD SWAP2 ADD SWAP1 PUSH2 0x289C JUMP JUMPDEST PUSH1 0x20 DUP2 ADD PUSH1 0x20 DUP3 MSTORE DUP3 MLOAD DUP1 SWAP2 MSTORE PUSH1 0x40 DUP3 ADD SWAP2 PUSH1 0x20 PUSH1 0x40 DUP4 PUSH1 0x5 SHL DUP4 ADD ADD SWAP5 ADD SWAP3 PUSH1 0x0 SWAP2 JUMPDEST DUP4 DUP4 LT PUSH2 0x2A44 JUMPI POP POP POP POP POP SWAP1 JUMP JUMPDEST SWAP1 SWAP2 SWAP3 SWAP4 SWAP5 PUSH1 0x20 DUP1 PUSH2 0x2A62 PUSH1 0x1 SWAP4 PUSH1 0x3F NOT DUP7 DUP3 SUB ADD DUP8 MSTORE DUP10 MLOAD PUSH2 0x29AF JUMP JUMPDEST SWAP8 ADD SWAP4 ADD SWAP4 ADD SWAP2 SWAP4 SWAP3 SWAP1 PUSH2 0x2A35 JUMP JUMPDEST PUSH1 0xC0 DUP2 ADD SWAP1 DUP2 LT PUSH1 0x1 PUSH1 0x1 PUSH1 0x40 SHL SUB DUP3 GT OR PUSH2 0x398 JUMPI PUSH1 0x40 MSTORE JUMP JUMPDEST SWAP1 PUSH1 0x1F DUP1 NOT SWAP2 ADD AND DUP2 ADD SWAP1 DUP2 LT PUSH1 0x1 PUSH1 0x1 PUSH1 0x40 SHL SUB DUP3 GT OR PUSH2 0x398 JUMPI PUSH1 0x40 MSTORE JUMP JUMPDEST DUP2 PUSH1 0x1F DUP3 ADD SLT ISZERO PUSH2 0x475 JUMPI DUP1 CALLDATALOAD SWAP1 PUSH1 0x1 PUSH1 0x1 PUSH1 0x40 SHL SUB DUP3 GT PUSH2 0x398 JUMPI PUSH1 0x40 MLOAD SWAP3 PUSH2 0x2AE1 PUSH1 0x1F DUP5 ADD PUSH1 0x1F NOT AND PUSH1 0x20 ADD DUP6 PUSH2 0x2A8C JUMP JUMPDEST DUP3 DUP5 MSTORE PUSH1 0x20 DUP4 DUP4 ADD ADD GT PUSH2 0x475 JUMPI DUP2 PUSH1 0x0 SWAP3 PUSH1 0x20 DUP1 SWAP4 ADD DUP4 DUP7 ADD CALLDATACOPY DUP4 ADD ADD MSTORE SWAP1 JUMP JUMPDEST PUSH1 0x4 CALLDATALOAD SWAP1 PUSH1 0x1 PUSH1 0x1 PUSH1 0xA0 SHL SUB DUP3 AND DUP3 SUB PUSH2 0x475 JUMPI JUMP JUMPDEST SWAP1 PUSH1 0x40 PUSH1 0x3 NOT DUP4 ADD SLT PUSH2 0x475 JUMPI PUSH1 0x4 CALLDATALOAD PUSH1 0x1 PUSH1 0x1 PUSH1 0xA0 SHL SUB DUP2 AND DUP2 SUB PUSH2 0x475 JUMPI SWAP2 PUSH1 0x24 CALLDATALOAD SWAP1 PUSH1 0x1 PUSH1 0x1 PUSH1 0x40 SHL SUB DUP3 GT PUSH2 0x475 JUMPI PUSH2 0x294C SWAP2 PUSH1 0x4 ADD PUSH2 0x2AAD JUMP JUMPDEST SWAP1 PUSH1 0x1 DUP3 DUP2 SHR SWAP3 AND DUP1 ISZERO PUSH2 0x2B88 JUMPI JUMPDEST PUSH1 0x20 DUP4 LT EQ PUSH2 0x2B72 JUMPI JUMP JUMPDEST PUSH4 0x4E487B71 PUSH1 0xE0 SHL PUSH1 0x0 MSTORE PUSH1 0x22 PUSH1 0x4 MSTORE PUSH1 0x24 PUSH1 0x0 REVERT JUMPDEST SWAP2 PUSH1 0x7F AND SWAP2 PUSH2 0x2B67 JUMP JUMPDEST SWAP1 PUSH1 0x40 MLOAD SWAP2 DUP3 PUSH1 0x0 DUP3 SLOAD SWAP3 PUSH2 0x2BA6 DUP5 PUSH2 0x2B58 JUMP JUMPDEST DUP1 DUP5 MSTORE SWAP4 PUSH1 0x1 DUP2 AND SWAP1 DUP2 ISZERO PUSH2 0x2C14 JUMPI POP PUSH1 0x1 EQ PUSH2 0x2BCD JUMPI JUMPDEST POP PUSH2 0x2BCB SWAP3 POP SUB DUP4 PUSH2 0x2A8C JUMP JUMPDEST JUMP JUMPDEST SWAP1 POP PUSH1 0x0 SWAP3 SWAP2 SWAP3 MSTORE PUSH1 0x20 PUSH1 0x0 KECCAK256 SWAP1 PUSH1 0x0 SWAP2 JUMPDEST DUP2 DUP4 LT PUSH2 0x2BF8 JUMPI POP POP SWAP1 PUSH1 0x20 PUSH2 0x2BCB SWAP3 DUP3 ADD ADD CODESIZE PUSH2 0x2BBE JUMP JUMPDEST PUSH1 0x20 SWAP2 SWAP4 POP DUP1 PUSH1 0x1 SWAP2 SLOAD DUP4 DUP6 DUP10 ADD ADD MSTORE ADD SWAP2 ADD SWAP1 SWAP2 DUP5 SWAP3 PUSH2 0x2BDF JUMP JUMPDEST SWAP1 POP PUSH1 0x20 SWAP3 POP PUSH2 0x2BCB SWAP5 SWAP2 POP PUSH1 0xFF NOT AND DUP3 DUP5 ADD MSTORE ISZERO ISZERO PUSH1 0x5 SHL DUP3 ADD ADD CODESIZE PUSH2 0x2BBE JUMP JUMPDEST PUSH1 0x1 PUSH1 0x1 PUSH1 0x40 SHL SUB DUP2 GT PUSH2 0x398 JUMPI PUSH1 0x5 SHL PUSH1 0x20 ADD SWAP1 JUMP JUMPDEST PUSH1 0x40 MLOAD SWAP1 PUSH2 0x2C5A DUP3 PUSH2 0x2A71 JUMP JUMPDEST PUSH1 0x60 PUSH1 0xA0 DUP4 PUSH1 0x0 DUP2 MSTORE PUSH1 0x0 PUSH1 0x20 DUP3 ADD MSTORE PUSH1 0x0 PUSH1 0x40 DUP3 ADD MSTORE PUSH1 0x0 DUP4 DUP3 ADD MSTORE DUP3 PUSH1 0x80 DUP3 ADD MSTORE ADD MSTORE JUMP JUMPDEST SWAP1 PUSH2 0x2C8B DUP3 PUSH2 0x2C36 JUMP JUMPDEST PUSH2 0x2C98 PUSH1 0x40 MLOAD SWAP2 DUP3 PUSH2 0x2A8C JUMP JUMPDEST DUP3 DUP2 MSTORE DUP1 SWAP3 PUSH2 0x2CA9 PUSH1 0x1F NOT SWAP2 PUSH2 0x2C36 JUMP JUMPDEST ADD SWAP1 PUSH1 0x0 JUMPDEST DUP3 DUP2 LT PUSH2 0x2CBA JUMPI POP POP POP JUMP JUMPDEST PUSH1 0x20 SWAP1 PUSH2 0x2CC5 PUSH2 0x2C4D JUMP JUMPDEST DUP3 DUP3 DUP6 ADD ADD MSTORE ADD PUSH2 0x2CAE JUMP JUMPDEST DUP1 MLOAD DUP3 LT ISZERO PUSH2 0x27CC JUMPI PUSH1 0x20 SWAP2 PUSH1 0x5 SHL ADD ADD SWAP1 JUMP JUMPDEST PUSH1 0x3 DUP3 LT ISZERO PUSH2 0xE88 JUMPI MSTORE JUMP JUMPDEST PUSH1 0x40 MLOAD SWAP1 PUSH2 0x2CFE DUP3 PUSH2 0x2A71 JUMP JUMPDEST PUSH1 0x0 PUSH1 0xA0 DUP4 DUP3 DUP2 MSTORE PUSH1 0x60 PUSH1 0x20 DUP3 ADD MSTORE PUSH1 0x60 PUSH1 0x40 DUP3 ADD MSTORE DUP3 PUSH1 0x60 DUP3 ADD MSTORE DUP3 PUSH1 0x80 DUP3 ADD MSTORE ADD MSTORE JUMP JUMPDEST SWAP1 PUSH2 0x2D2E DUP3 PUSH2 0x2C36 JUMP JUMPDEST PUSH2 0x2D3B PUSH1 0x40 MLOAD SWAP2 DUP3 PUSH2 0x2A8C JUMP JUMPDEST DUP3 DUP2 MSTORE DUP1 SWAP3 PUSH2 0x2D4C PUSH1 0x1F NOT SWAP2 PUSH2 0x2C36 JUMP JUMPDEST ADD SWAP1 PUSH1 0x0 JUMPDEST DUP3 DUP2 LT PUSH2 0x2D5D JUMPI POP POP POP JUMP JUMPDEST PUSH1 0x20 SWAP1 PUSH2 0x2D68 PUSH2 0x2CF1 JUMP JUMPDEST DUP3 DUP3 DUP6 ADD ADD MSTORE ADD PUSH2 0x2D51 JUMP JUMPDEST PUSH1 0x0 NOT DUP2 EQ PUSH2 0x380 JUMPI PUSH1 0x1 ADD SWAP1 JUMP JUMPDEST ISZERO PUSH2 0x2D8A JUMPI JUMP JUMPDEST PUSH1 0x40 MLOAD PUSH3 0x461BCD PUSH1 0xE5 SHL DUP2 MSTORE PUSH1 0x20 PUSH1 0x4 DUP3 ADD MSTORE PUSH1 0xA PUSH1 0x24 DUP3 ADD MSTORE PUSH10 0x27B7363C9037BBB732B9 PUSH1 0xB1 SHL PUSH1 0x44 DUP3 ADD MSTORE PUSH1 0x64 SWAP1 REVERT JUMPDEST SWAP1 PUSH1 0x3 DUP2 LT ISZERO PUSH2 0xE88 JUMPI DUP2 SLOAD PUSH1 0xFF PUSH1 0xA0 SHL NOT AND PUSH1 0xA0 SWAP2 SWAP1 SWAP2 SHL PUSH1 0xFF PUSH1 0xA0 SHL AND OR SWAP1 SSTORE JUMP JUMPDEST DUP2 DUP2 LT PUSH2 0x2DEB JUMPI POP POP JUMP JUMPDEST PUSH1 0x0 DUP2 SSTORE PUSH1 0x1 ADD PUSH2 0x2DE0 JUMP JUMPDEST SWAP2 SWAP1 PUSH1 0x1F DUP2 GT PUSH2 0x2E06 JUMPI POP POP POP JUMP JUMPDEST PUSH2 0x2BCB SWAP3 PUSH1 0x0 MSTORE PUSH1 0x20 PUSH1 0x0 KECCAK256 SWAP1 PUSH1 0x20 PUSH1 0x1F DUP5 ADD PUSH1 0x5 SHR DUP4 ADD SWAP4 LT PUSH2 0x2E32 JUMPI JUMPDEST PUSH1 0x1F ADD PUSH1 0x5 SHR ADD SWAP1 PUSH2 0x2DE0 JUMP JUMPDEST SWAP1 SWAP2 POP DUP2 SWAP1 PUSH2 0x2E25 JUMP JUMPDEST PUSH1 0x40 MLOAD SWAP1 PUSH2 0x2E4B PUSH1 0x60 DUP4 PUSH2 0x2A8C JUMP JUMPDEST PUSH1 0x21 DUP3 MSTORE PUSH1 0x1B PUSH1 0xFA SHL PUSH1 0x40 DUP4 PUSH32 0x526567697374726174696F6E206973206177616974696E6720617070726F7661 PUSH1 0x20 DUP3 ADD MSTORE ADD MSTORE JUMP JUMPDEST ISZERO PUSH2 0x2E88 JUMPI JUMP JUMPDEST PUSH1 0x40 MLOAD PUSH3 0x461BCD PUSH1 0xE5 SHL DUP2 MSTORE PUSH1 0x20 PUSH1 0x4 DUP3 ADD MSTORE PUSH1 0x21 PUSH1 0x24 DUP3 ADD MSTORE PUSH32 0x43616E6E6F74206D6F6469667920616674657220766F74696E67207374617274 PUSH1 0x44 DUP3 ADD MSTORE PUSH1 0x73 PUSH1 0xF8 SHL PUSH1 0x64 DUP3 ADD MSTORE PUSH1 0x84 SWAP1 REVERT JUMPDEST PUSH2 0x2EE1 DUP2 SLOAD PUSH2 0x2B58 JUMP JUMPDEST SWAP1 DUP2 PUSH2 0x2EEB JUMPI POP POP JUMP JUMPDEST DUP2 PUSH1 0x1F PUSH1 0x0 SWAP4 GT PUSH1 0x1 EQ PUSH2 0x2EFD JUMPI POP SSTORE JUMP JUMPDEST DUP2 DUP4 MSTORE PUSH1 0x20 DUP4 KECCAK256 PUSH2 0x2F19 SWAP2 PUSH1 0x1F ADD PUSH1 0x5 SHR DUP2 ADD SWAP1 PUSH1 0x1 ADD PUSH2 0x2DE0 JUMP JUMPDEST DUP1 DUP3 MSTORE DUP2 PUSH1 0x20 DUP2 KECCAK256 SWAP2 SSTORE SSTORE JUMP JUMPDEST PUSH2 0x2F2E PUSH2 0x2C4D JUMP JUMPDEST POP PUSH2 0x2F37 PUSH2 0x2C4D JUMP JUMPDEST PUSH1 0xB SLOAD PUSH1 0x0 DUP1 JUMPDEST DUP3 DUP2 LT PUSH2 0x2F4B JUMPI POP POP POP SWAP1 JUMP JUMPDEST PUSH2 0x2F54 DUP2 PUSH2 0x2833 JUMP JUMPDEST PUSH1 0x1 DUP1 PUSH1 0xA0 SHL SUB SWAP2 SLOAD SWAP1 PUSH1 0x3 SHL SHR AND PUSH1 0x0 MSTORE PUSH1 0x8 PUSH1 0x20 MSTORE PUSH1 0x40 PUSH1 0x0 KECCAK256 PUSH1 0x40 MLOAD SWAP1 PUSH2 0x2F7D DUP3 PUSH2 0x2A71 JUMP JUMPDEST DUP1 SLOAD DUP3 MSTORE PUSH2 0x2FCF PUSH1 0x4 PUSH1 0x1 DUP4 ADD SLOAD SWAP3 PUSH1 0x20 DUP6 ADD SWAP4 DUP5 MSTORE PUSH2 0x2FB8 PUSH1 0xFF PUSH1 0x2 DUP4 ADD SLOAD PUSH1 0x1 DUP1 PUSH1 0xA0 SHL SUB DUP2 AND PUSH1 0x40 DUP10 ADD MSTORE PUSH1 0xA0 SHR AND PUSH1 0x60 DUP8 ADD PUSH2 0x2CE5 JUMP JUMPDEST PUSH2 0x2FC4 PUSH1 0x3 DUP3 ADD PUSH2 0x2B92 JUMP JUMPDEST PUSH1 0x80 DUP7 ADD MSTORE ADD PUSH2 0x2B92 JUMP JUMPDEST PUSH1 0xA0 DUP4 ADD MSTORE MLOAD DUP4 DUP2 GT PUSH2 0x2FE7 JUMPI JUMPDEST POP POP PUSH1 0x1 ADD PUSH2 0x2F3E JUMP JUMPDEST SWAP1 SWAP5 POP SWAP2 POP PUSH1 0x1 CODESIZE PUSH2 0x2FDD JUMP JUMPDEST PUSH2 0x2FFC PUSH2 0x2C4D JUMP JUMPDEST POP PUSH1 0xB SLOAD ISZERO PUSH2 0x3092 JUMPI PUSH1 0x3 SLOAD TIMESTAMP LT PUSH2 0x3016 JUMPI PUSH2 0x294C PUSH2 0x2F26 JUMP JUMPDEST PUSH1 0x40 MLOAD PUSH2 0x3022 DUP2 PUSH2 0x2A71 JUMP JUMPDEST PUSH1 0x0 DUP2 MSTORE PUSH1 0x0 PUSH1 0x20 DUP3 ADD MSTORE PUSH1 0x0 PUSH1 0x40 DUP3 ADD MSTORE PUSH1 0x0 PUSH1 0x60 DUP3 ADD MSTORE PUSH1 0x40 MLOAD PUSH2 0x3049 PUSH1 0x20 DUP3 PUSH2 0x2A8C JUMP JUMPDEST PUSH1 0x0 DUP2 MSTORE PUSH1 0x80 DUP3 ADD MSTORE PUSH1 0x40 MLOAD PUSH2 0x3060 PUSH1 0x40 DUP3 PUSH2 0x2A8C JUMP JUMPDEST PUSH1 0x1F DUP2 MSTORE PUSH32 0x506C65617365207761697420756E74696C20656C656374696F6E20656E647300 PUSH1 0x20 DUP3 ADD MSTORE PUSH1 0xA0 DUP3 ADD MSTORE SWAP1 JUMP JUMPDEST PUSH1 0x40 MLOAD PUSH3 0x461BCD PUSH1 0xE5 SHL DUP2 MSTORE PUSH1 0x20 PUSH1 0x4 DUP3 ADD MSTORE PUSH1 0x24 DUP1 DUP3 ADD MSTORE PUSH32 0x4E6F2043616E6469646174657320616363657074656420666F7220656C656374 PUSH1 0x44 DUP3 ADD MSTORE PUSH4 0x34B7B717 PUSH1 0xE1 SHL PUSH1 0x64 DUP3 ADD MSTORE PUSH1 0x84 SWAP1 REVERT INVALID LOG2 PUSH5 0x6970667358 0x22 SLT KECCAK256 SWAP14 PC DUP15 0xEA BYTE PUSH21 0x41486B40C78844EC340A11CB1F4DDD2634AB8F68E8 0xB4 ADD PUSH22 0x766264736F6C634300081C0033000000000000000000 "},"methodIdentifiers":{"CurrentVotingStatus()":"bab912a2","ListofAcceptedCandidates()":"3cfde26c","ListofAcceptedVoters()":"23a2b2ed","ListofRegisteredCandidates()":"1ee9367c","ListofRegisteredVoters()":"60fc4e32","ListofRejectedCandidates()":"073f966d","ListofRejectedVoters()":"964a43b9","acceptedCandidates(uint256)":"9e7a8145","acceptedVoters(uint256)":"53dd128c","approveCandidate(address,string)":"7eb21b51","approveVoter(address,string)":"fad761d3","candidates(address)":"8ab66a90","candidatesRegistered(uint256)":"0366ac37","changeOwner(address)":"a6f9dae1","electionName()":"85e8e7a7","getAllVotersWhoCasted()":"8987cb32","owner()":"8da5cb5b","registerCandidate(string)":"9eb88db6","registerVoter(string)":"6428a486","rejectCandidate(address,string)":"59632c22","rejectVoter(address,string)":"4a2846a8","rejectedCandidates(uint256)":"5e894b12","rejectedVoters(uint256)":"3afa3e07","resetContract()":"b181a8fc","resultPublicationTime()":"ac94ba4c","searchCandidate(string,address)":"429b0b22","searchVoter(address)":"b381a935","setResultPublicationTime(uint256)":"5b45cfca","startendVoting(uint256,uint256)":"f33698f1","updateCandidate(string)":"79432db5","updateVoter(address,string)":"7c021ecc","vote(address)":"6dd7d8ea","voters(address)":"a3ec138d","votersRegistered(uint256)":"849c5657","votersWhoCasted(uint256)":"5f1bc34e","votingEndTime()":"1ea736e0","votingStartTime()":"2019a608","winningCandidate()":"d28178d7"}}}}}