{"contracts/VotingSystem.sol":{"VotingSystem":{"abi":[{"inputs":[{"internalType":"string","name":"_name","type":"string"}],"stateMutability":"nonpayable","type":"constructor"},{"inputs":[],"name":"CurrentVotingStatus","outputs":[{"components":[{"internalType":"string","name":"name","type":"string"},{"internalType":"string","name":"message","type":"string"},{"internalType":"uint256","name":"age","type":"uint256"},{"internalType":"string","name":"email","type":"string"},{"internalType":"string","name":"phone","type":"string"},{"internalType":"uint256","name":"registeredId","type":"uint256"},{"internalType":"uint256","name":"voteCalculation","type":"uint256"},{"internalType":"address","name":"candidatesAddress","type":"address"},{"internalType":"enum VotingSystem.ConfirmationStatus","name":"status","type":"uint8"}],"internalType":"struct VotingSystem.Candidate","name":"","type":"tuple"}],"stateMutability":"view","type":"function"},{"inputs":[],"name":"ListofAcceptedCandidates","outputs":[{"components":[{"internalType":"string","name":"name","type":"string"},{"internalType":"string","name":"message","type":"string"},{"internalType":"uint256","name":"age","type":"uint256"},{"internalType":"string","name":"email","type":"string"},{"internalType":"string","name":"phone","type":"string"},{"internalType":"uint256","name":"registeredId","type":"uint256"},{"internalType":"uint256","name":"voteCalculation","type":"uint256"},{"internalType":"address","name":"candidatesAddress","type":"address"},{"internalType":"enum VotingSystem.ConfirmationStatus","name":"status","type":"uint8"}],"internalType":"struct VotingSystem.Candidate[]","name":"","type":"tuple[]"}],"stateMutability":"view","type":"function"},{"inputs":[],"name":"ListofAcceptedVoters","outputs":[{"components":[{"internalType":"bool","name":"alreadyVoted","type":"bool"},{"internalType":"string","name":"name","type":"string"},{"internalType":"uint256","name":"age","type":"uint256"},{"internalType":"string","name":"email","type":"string"},{"internalType":"string","name":"phone","type":"string"},{"internalType":"string","name":"message","type":"string"},{"internalType":"uint256","name":"registeredId","type":"uint256"},{"internalType":"address","name":"votersAddress","type":"address"},{"internalType":"enum VotingSystem.ConfirmationStatus","name":"status","type":"uint8"}],"internalType":"struct VotingSystem.Voter[]","name":"","type":"tuple[]"}],"stateMutability":"view","type":"function"},{"inputs":[],"name":"ListofRegisteredCandidates","outputs":[{"components":[{"internalType":"string","name":"name","type":"string"},{"internalType":"string","name":"message","type":"string"},{"internalType":"uint256","name":"age","type":"uint256"},{"internalType":"string","name":"email","type":"string"},{"internalType":"string","name":"phone","type":"string"},{"internalType":"uint256","name":"registeredId","type":"uint256"},{"internalType":"uint256","name":"voteCalculation","type":"uint256"},{"internalType":"address","name":"candidatesAddress","type":"address"},{"internalType":"enum VotingSystem.ConfirmationStatus","name":"status","type":"uint8"}],"internalType":"struct VotingSystem.Candidate[]","name":"","type":"tuple[]"}],"stateMutability":"view","type":"function"},{"inputs":[],"name":"ListofRegisteredVoters","outputs":[{"components":[{"internalType":"bool","name":"alreadyVoted","type":"bool"},{"internalType":"string","name":"name","type":"string"},{"internalType":"uint256","name":"age","type":"uint256"},{"internalType":"string","name":"email","type":"string"},{"internalType":"string","name":"phone","type":"string"},{"internalType":"string","name":"message","type":"string"},{"internalType":"uint256","name":"registeredId","type":"uint256"},{"internalType":"address","name":"votersAddress","type":"address"},{"internalType":"enum VotingSystem.ConfirmationStatus","name":"status","type":"uint8"}],"internalType":"struct VotingSystem.Voter[]","name":"","type":"tuple[]"}],"stateMutability":"view","type":"function"},{"inputs":[],"name":"ListofRejectedCandidates","outputs":[{"components":[{"internalType":"string","name":"name","type":"string"},{"internalType":"string","name":"message","type":"string"},{"internalType":"uint256","name":"age","type":"uint256"},{"internalType":"string","name":"email","type":"string"},{"internalType":"string","name":"phone","type":"string"},{"internalType":"uint256","name":"registeredId","type":"uint256"},{"internalType":"uint256","name":"voteCalculation","type":"uint256"},{"internalType":"address","name":"candidatesAddress","type":"address"},{"internalType":"enum VotingSystem.ConfirmationStatus","name":"status","type":"uint8"}],"internalType":"struct VotingSystem.Candidate[]","name":"","type":"tuple[]"}],"stateMutability":"view","type":"function"},{"inputs":[],"name":"ListofRejectedVoters","outputs":[{"components":[{"internalType":"bool","name":"alreadyVoted","type":"bool"},{"internalType":"string","name":"name","type":"string"},{"internalType":"uint256","name":"age","type":"uint256"},{"internalType":"string","name":"email","type":"string"},{"internalType":"string","name":"phone","type":"string"},{"internalType":"string","name":"message","type":"string"},{"internalType":"uint256","name":"registeredId","type":"uint256"},{"internalType":"address","name":"votersAddress","type":"address"},{"internalType":"enum VotingSystem.ConfirmationStatus","name":"status","type":"uint8"}],"internalType":"struct VotingSystem.Voter[]","name":"","type":"tuple[]"}],"stateMutability":"view","type":"function"},{"inputs":[{"internalType":"uint256","name":"","type":"uint256"}],"name":"acceptedCandidates","outputs":[{"internalType":"address","name":"","type":"address"}],"stateMutability":"view","type":"function"},{"inputs":[{"internalType":"uint256","name":"","type":"uint256"}],"name":"acceptedVoters","outputs":[{"internalType":"address","name":"","type":"address"}],"stateMutability":"view","type":"function"},{"inputs":[{"internalType":"address","name":"_candidatesAddress","type":"address"},{"internalType":"string","name":"_message","type":"string"}],"name":"approveCandidate","outputs":[],"stateMutability":"nonpayable","type":"function"},{"inputs":[{"internalType":"address","name":"_votersAddress","type":"address"},{"internalType":"string","name":"_message","type":"string"}],"name":"approveVoter","outputs":[],"stateMutability":"nonpayable","type":"function"},{"inputs":[{"internalType":"address","name":"","type":"address"}],"name":"candidates","outputs":[{"internalType":"string","name":"name","type":"string"},{"internalType":"string","name":"message","type":"string"},{"internalType":"uint256","name":"age","type":"uint256"},{"internalType":"string","name":"email","type":"string"},{"internalType":"string","name":"phone","type":"string"},{"internalType":"uint256","name":"registeredId","type":"uint256"},{"internalType":"uint256","name":"voteCalculation","type":"uint256"},{"internalType":"address","name":"candidatesAddress","type":"address"},{"internalType":"enum VotingSystem.ConfirmationStatus","name":"status","type":"uint8"}],"stateMutability":"view","type":"function"},{"inputs":[{"internalType":"uint256","name":"","type":"uint256"}],"name":"candidatesRegistered","outputs":[{"internalType":"address","name":"","type":"address"}],"stateMutability":"view","type":"function"},{"inputs":[{"internalType":"address","name":"newOwner","type":"address"}],"name":"changeOwner","outputs":[],"stateMutability":"nonpayable","type":"function"},{"inputs":[],"name":"electionName","outputs":[{"internalType":"string","name":"","type":"string"}],"stateMutability":"view","type":"function"},{"inputs":[{"internalType":"address","name":"_candidatesAddress","type":"address"}],"name":"findCandidate","outputs":[{"components":[{"internalType":"string","name":"name","type":"string"},{"internalType":"string","name":"message","type":"string"},{"internalType":"uint256","name":"age","type":"uint256"},{"internalType":"string","name":"email","type":"string"},{"internalType":"string","name":"phone","type":"string"},{"internalType":"uint256","name":"registeredId","type":"uint256"},{"internalType":"uint256","name":"voteCalculation","type":"uint256"},{"internalType":"address","name":"candidatesAddress","type":"address"},{"internalType":"enum VotingSystem.ConfirmationStatus","name":"status","type":"uint8"}],"internalType":"struct VotingSystem.Candidate","name":"","type":"tuple"}],"stateMutability":"view","type":"function"},{"inputs":[{"internalType":"address","name":"_votersAddress","type":"address"}],"name":"findVoter","outputs":[{"components":[{"internalType":"bool","name":"alreadyVoted","type":"bool"},{"internalType":"string","name":"name","type":"string"},{"internalType":"uint256","name":"age","type":"uint256"},{"internalType":"string","name":"email","type":"string"},{"internalType":"string","name":"phone","type":"string"},{"internalType":"string","name":"message","type":"string"},{"internalType":"uint256","name":"registeredId","type":"uint256"},{"internalType":"address","name":"votersAddress","type":"address"},{"internalType":"enum VotingSystem.ConfirmationStatus","name":"status","type":"uint8"}],"internalType":"struct VotingSystem.Voter","name":"","type":"tuple"}],"stateMutability":"view","type":"function"},{"inputs":[],"name":"getAllVotersWhoCasted","outputs":[{"components":[{"internalType":"bool","name":"alreadyVoted","type":"bool"},{"internalType":"string","name":"name","type":"string"},{"internalType":"uint256","name":"age","type":"uint256"},{"internalType":"string","name":"email","type":"string"},{"internalType":"string","name":"phone","type":"string"},{"internalType":"string","name":"message","type":"string"},{"internalType":"uint256","name":"registeredId","type":"uint256"},{"internalType":"address","name":"votersAddress","type":"address"},{"internalType":"enum VotingSystem.ConfirmationStatus","name":"status","type":"uint8"}],"internalType":"struct VotingSystem.Voter[]","name":"","type":"tuple[]"}],"stateMutability":"view","type":"function"},{"inputs":[],"name":"owner","outputs":[{"internalType":"address","name":"","type":"address"}],"stateMutability":"view","type":"function"},{"inputs":[{"internalType":"string","name":"_name","type":"string"},{"internalType":"uint256","name":"_age","type":"uint256"},{"internalType":"string","name":"_email","type":"string"},{"internalType":"string","name":"_phone","type":"string"}],"name":"registerCandidate","outputs":[],"stateMutability":"nonpayable","type":"function"},{"inputs":[{"internalType":"string","name":"_name","type":"string"},{"internalType":"uint256","name":"_age","type":"uint256"},{"internalType":"string","name":"_email","type":"string"},{"internalType":"string","name":"_phone","type":"string"}],"name":"registerVoter","outputs":[],"stateMutability":"nonpayable","type":"function"},{"inputs":[{"internalType":"address","name":"_candidatesAddress","type":"address"},{"internalType":"string","name":"_message","type":"string"}],"name":"rejectCandidate","outputs":[],"stateMutability":"nonpayable","type":"function"},{"inputs":[{"internalType":"address","name":"_votersAddress","type":"address"},{"internalType":"string","name":"_message","type":"string"}],"name":"rejectVoter","outputs":[],"stateMutability":"nonpayable","type":"function"},{"inputs":[{"internalType":"uint256","name":"","type":"uint256"}],"name":"rejectedCandidates","outputs":[{"internalType":"address","name":"","type":"address"}],"stateMutability":"view","type":"function"},{"inputs":[{"internalType":"uint256","name":"","type":"uint256"}],"name":"rejectedVoters","outputs":[{"internalType":"address","name":"","type":"address"}],"stateMutability":"view","type":"function"},{"inputs":[],"name":"resetContract","outputs":[],"stateMutability":"nonpayable","type":"function"},{"inputs":[],"name":"resultPublicationTime","outputs":[{"internalType":"uint256","name":"","type":"uint256"}],"stateMutability":"view","type":"function"},{"inputs":[{"internalType":"string","name":"_name","type":"string"},{"internalType":"address","name":"_addr","type":"address"}],"name":"searchCandidate","outputs":[{"components":[{"internalType":"string","name":"name","type":"string"},{"internalType":"string","name":"message","type":"string"},{"internalType":"uint256","name":"age","type":"uint256"},{"internalType":"string","name":"email","type":"string"},{"internalType":"string","name":"phone","type":"string"},{"internalType":"uint256","name":"registeredId","type":"uint256"},{"internalType":"uint256","name":"voteCalculation","type":"uint256"},{"internalType":"address","name":"candidatesAddress","type":"address"},{"internalType":"enum VotingSystem.ConfirmationStatus","name":"status","type":"uint8"}],"internalType":"struct VotingSystem.Candidate[]","name":"","type":"tuple[]"}],"stateMutability":"view","type":"function"},{"inputs":[{"internalType":"string","name":"_name","type":"string"},{"internalType":"address","name":"_addr","type":"address"}],"name":"searchVoter","outputs":[{"components":[{"internalType":"bool","name":"alreadyVoted","type":"bool"},{"internalType":"string","name":"name","type":"string"},{"internalType":"uint256","name":"age","type":"uint256"},{"internalType":"string","name":"email","type":"string"},{"internalType":"string","name":"phone","type":"string"},{"internalType":"string","name":"message","type":"string"},{"internalType":"uint256","name":"registeredId","type":"uint256"},{"internalType":"address","name":"votersAddress","type":"address"},{"internalType":"enum VotingSystem.ConfirmationStatus","name":"status","type":"uint8"}],"internalType":"struct VotingSystem.Voter[]","name":"","type":"tuple[]"}],"stateMutability":"view","type":"function"},{"inputs":[{"internalType":"uint256","name":"_resultPublicationTime","type":"uint256"}],"name":"setResultPublicationTime","outputs":[],"stateMutability":"nonpayable","type":"function"},{"inputs":[{"internalType":"uint256","name":"_votingStartTime","type":"uint256"},{"internalType":"uint256","name":"_votingEndTime","type":"uint256"}],"name":"startendVoting","outputs":[],"stateMutability":"nonpayable","type":"function"},{"inputs":[{"internalType":"string","name":"_name","type":"string"}],"name":"updateCandidate","outputs":[],"stateMutability":"nonpayable","type":"function"},{"inputs":[{"internalType":"string","name":"_name","type":"string"}],"name":"updateVoter","outputs":[],"stateMutability":"nonpayable","type":"function"},{"inputs":[{"internalType":"address","name":"_candidatesAddress","type":"address"}],"name":"vote","outputs":[],"stateMutability":"nonpayable","type":"function"},{"inputs":[{"internalType":"address","name":"","type":"address"}],"name":"voters","outputs":[{"internalType":"bool","name":"alreadyVoted","type":"bool"},{"internalType":"string","name":"name","type":"string"},{"internalType":"uint256","name":"age","type":"uint256"},{"internalType":"string","name":"email","type":"string"},{"internalType":"string","name":"phone","type":"string"},{"internalType":"string","name":"message","type":"string"},{"internalType":"uint256","name":"registeredId","type":"uint256"},{"internalType":"address","name":"votersAddress","type":"address"},{"internalType":"enum VotingSystem.ConfirmationStatus","name":"status","type":"uint8"}],"stateMutability":"view","type":"function"},{"inputs":[{"internalType":"uint256","name":"","type":"uint256"}],"name":"votersRegistered","outputs":[{"internalType":"address","name":"","type":"address"}],"stateMutability":"view","type":"function"},{"inputs":[{"internalType":"uint256","name":"","type":"uint256"}],"name":"votersWhoCasted","outputs":[{"internalType":"address","name":"","type":"address"}],"stateMutability":"view","type":"function"},{"inputs":[],"name":"votingEndTime","outputs":[{"internalType":"uint256","name":"","type":"uint256"}],"stateMutability":"view","type":"function"},{"inputs":[],"name":"votingStartTime","outputs":[{"internalType":"uint256","name":"","type":"uint256"}],"stateMutability":"view","type":"function"},{"inputs":[],"name":"winningCandidate","outputs":[{"components":[{"internalType":"string","name":"name","type":"string"},{"internalType":"string","name":"message","type":"string"},{"internalType":"uint256","name":"age","type":"uint256"},{"internalType":"string","name":"email","type":"string"},{"internalType":"string","name":"phone","type":"string"},{"internalType":"uint256","name":"registeredId","type":"uint256"},{"internalType":"uint256","name":"voteCalculation","type":"uint256"},{"internalType":"address","name":"candidatesAddress","type":"address"},{"internalType":"enum VotingSystem.ConfirmationStatus","name":"status","type":"uint8"}],"internalType":"struct VotingSystem.Candidate","name":"","type":"tuple"}],"stateMutability":"view","type":"function"}],"evm":{"bytecode":{"linkReferences":{},"object":"60806040523461023b57613de28038038061001981610240565b92833981019060208183031261023b578051906001600160401b03821161023b570181601f8201121561023b578051906001600160401b0382116102105761006a601f8301601f1916602001610240565b928284526020838301011161023b5760005b82811061022657600083850160200181905280546001600160a01b03191633179055835184906001600160401b03811161021057600154600181811c91168015610206575b60208210146101f057601f811161018b575b50602091601f82116001146101275791819260009261011c575b50508160011b916000199060031b1c1916176001555b60016005556001600655604051613b7c90816102668239f35b0151905082806100ed565b601f198216926001600052806000209160005b8581106101735750836001951061015a575b505050811b01600155610103565b015160001960f88460031b161c1916905582808061014c565b9192602060018192868501518155019401920161013a565b60016000527fb10e2d527612073b26eecdfd717e6a320cf44b4afac2b0732d9fcbe2b7fa0cf6601f830160051c810191602084106101e6575b601f0160051c01905b8181106101da57506100d3565b600081556001016101cd565b90915081906101c4565b634e487b7160e01b600052602260045260246000fd5b90607f16906100c1565b634e487b7160e01b600052604160045260246000fd5b8060208092840101518282870101520161007c565b600080fd5b6040519190601f01601f191682016001600160401b038111838210176102105760405256fe6080604052600436101561001257600080fd5b60003560e01c80630366ac3714613015578063073f966d14612f885780631ea736e014612f6a5780631ee9367c14612edd5780632019a60814612ebf57806323a2b2ed14612e325780633afa3e0714612e095780633cfde26c14612d04578063429b0b2214612aaf5780634a2846a8146128975780634d867f4e1461262257806353dd128c146125f957806357f3a8e51461247f57806359632c22146122695780635b45cfca146121765780635e894b121461214d5780635f1bc34e1461212457806360fc4e32146120975780636dd7d8ea14611e8557806371565d2e14611a9057806379432db51461194f5780637eb21b511461171857806382ff2aeb146115a2578063849c56571461157957806385e8e7a7146114985780638987cb321461140b5780638ab66a90146113185780638da5cb5b146112ef578063964a43b9146111e65780639e7a8145146111a4578063a3ec138d146110a8578063a6f9dae114611006578063ac94ba4c14610fe8578063b181a8fc14610be1578063bab912a214610bc5578063cd6cf31114610782578063d28178d714610752578063dbf7be47146105b7578063f33698f1146104925763fad761d3146101d457600080fd5b3461048d576101e236613454565b906101f860018060a01b03600054163314613752565b6001600160a01b03818116600081815260076020819052604090912090810180549294939092161561043657815460ff60a01b1916600160a01b179091558351600591909101906001600160401b0381116103b0576102618161025b8454613500565b846137c6565b602094601f82116001146103d1576102959293949582916000926103c6575b50508160011b916000199060031b1c19161790565b90555b600c5490600160401b8210156103b0576102bd8260016102e19401600c55600c61310d565b9080546001600160a01b0360039390931b83811b199091169290931690921b179055565b60005b600e54808210156103ae57826102f9836130a1565b905460039190911b1c6001600160a01b03161461031957506001016102e4565b600019810192508211610398576102bd61033561034d936130a1565b905460039190911b1c6001600160a01b0316916130a1565b600e548015610382576000190161037d61036882600e61310d565b81549060018060a01b039060031b1b19169055565b600e55005b634e487b7160e01b600052603160045260246000fd5b634e487b7160e01b600052601160045260246000fd5b005b634e487b7160e01b600052604160045260246000fd5b015190503880610280565b601f1982169583600052806000209160005b88811061041e57508360019596979810610405575b505050811b019055610298565b015160001960f88460031b161c191690553880806103f8565b919260206001819286850151815501940192016103e3565b60405162461bcd60e51b815260206004820152602960248201527f5468697320766f74657220646f6573206e6f742061707065617220696e206f75604482015268391039bcb9ba32b69760b91b6064820152608490fd5b600080fd5b3461048d57604036600319011261048d57600435602435906104bf60018060a01b03600054163314613752565b600254610572574281111561052e57818110156104de57600255600355005b60405162461bcd60e51b815260206004820152602260248201527f53746172742074696d65206d757374206265206265666f726520656e642074696044820152616d6560f01b6064820152608490fd5b606460405162461bcd60e51b815260206004820152602060248201527f53746172742074696d65206d75737420626520696e20746865206675747572656044820152fd5b60405162461bcd60e51b815260206004820152601860248201527f566f74696e6720616c7265616479207363686564756c656400000000000000006044820152606490fd5b3461048d57602036600319011261048d576105d06133fd565b6105d86135f5565b5060018060a01b0316600052600860205260406000206007604051916105fd8361336a565b6106068161353a565b83526106146001820161353a565b60208401526002810154604084015261062f6003820161353a565b60608401526106406004820161353a565b6080840152600581015460a0840152600681015460c0840152015460e0820160018060a01b038216815261067f60ff61010085019360a01c16836136a0565b516001600160a01b0316156107175751600381101561070157600019016106bc576106b890604051918291602083526020830190613173565b0390f35b60405162461bcd60e51b815260206004820152601960248201527f43616e646964617465206973206e6f74206163636570746564000000000000006044820152606490fd5b634e487b7160e01b600052602160045260246000fd5b60405162461bcd60e51b815260206004820152601360248201527210d85b991a59185d19481b9bdd08199bdd5b99606a1b6044820152606490fd5b3461048d57600036600319011261048d576106b861076e6139f0565b604051918291602083526020830190613173565b3461048d5761079036613493565b600693919354604051916107a38361336a565b60008352602083019384526040830194855260608301958652608083019081526107cb61380b565b9560a0840196875260c0840192835260e08401953387526101008501956000875233600052600760205260406000209551151560ff801988541691161786556001860190518051906001600160401b0382116103b0576108358261082f8554613500565b856137c6565b602090601f8311600114610b5e57610865929160009183610b535750508160011b916000199060031b1c19161790565b90555b51600285015551805160038501916001600160401b0382116103b0576108928261082f8554613500565b602090601f8311600114610aec576108c2929160009183610ae15750508160011b916000199060031b1c19161790565b90555b51805160048401916001600160401b0382116103b0576108e98261082f8554613500565b602090601f8311600114610a7a57610919929160009183610a055750508160011b916000199060031b1c19161790565b90555b6005820194519485516001600160401b0381116103b0576109418161025b8454613500565b6020601f8211600114610a10579080610975926007979899600092610a055750508160011b916000199060031b1c19161790565b90555b5160068201559251920180546001600160a01b0319166001600160a01b0393909316929092178255516003811015610701576109b39161378b565b600a54600160401b8110156103b0576109d78160016109f59301600a55600a61310d565b81543360039290921b91821b6001600160a01b0390921b1916179055565b610a00600654613743565b600655005b015190508980610280565b601f1982169783600052816000209860005b818110610a62575091600797989991846001959410610a49575b505050811b019055610978565b015160001960f88460031b161c19169055888080610a3c565b838301518b556001909a019960209384019301610a22565b90601f1983169184600052816000209260005b818110610ac95750908460019594939210610ab0575b505050811b01905561091c565b015160001960f88460031b161c19169055888080610aa3565b92936020600181928786015181550195019301610a8d565b015190508a80610280565b90601f1983169184600052816000209260005b818110610b3b5750908460019594939210610b22575b505050811b0190556108c5565b015160001960f88460031b161c19169055898080610b15565b92936020600181928786015181550195019301610aff565b015190508c80610280565b90601f1983169184600052816000209260005b818110610bad5750908460019594939210610b94575b505050811b019055610868565b015160001960f88460031b161c191690558b8080610b87565b92936020600181928786015181550195019301610b71565b3461048d57600036600319011261048d576106b861076e6138f5565b3461048d57600036600319011261048d57610c0760018060a01b03600054163314613752565b6003548015159081610fde575b5015610f7f57610c25600154613500565b601f8111610f40575b50600060015560006002556000600355600060045560005b600954811015610cc05780610c5c60019261303a565b838060a01b0391549060031b1c1660005260086020526000600760408220610c83816138a6565b610c8e8582016138a6565b826002820155610ca0600382016138a6565b610cac600482016138a6565b826005820155826006820155015501610c46565b600954600060095580610f07575b50600b546000600b5580610ece575b50600d546000600d5580610e95575b5060005b600a54811015610d6a5780610d066001926130d7565b838060a01b0391549060031b1c1660005260076020526000600760408220828155610d328582016138a6565b826002820155610d44600382016138a6565b610d50600482016138a6565b610d5c600582016138a6565b826006820155015501610cf0565b600a546000600a5580610e5c575b50600c546000600c5580610e23575b50600e546000600e5580610dea575b50600f546000600f5580610db1575b60016005819055600655005b600f600052610de4907f8d1108e10bcb7c27dddfc02ed9d693a074039d026cf4ea4240b40f7d581ac802908101906137af565b80610da5565b600e600052610e1d907fbb7b4a454dc3493923482f07822329ed19e8244eff582cc204f8554c3620c3fd908101906137af565b80610d96565b600c600052610e56907fdf6966c971051c3d54ec59162606531493a51404a002842f56009d7e5cf4a8c7908101906137af565b80610d87565b600a600052610e8f907fc65a7bb8d6351c1cf70c95a316cc6a92839c986682d98bc35f958f4883f9d2a8908101906137af565b80610d78565b600d600052610ec8907fd7b6990105719101dabeb77144f2a3385c8033acd3af97e9423a695e81ad1eb5908101906137af565b80610cec565b600b600052610f01907f0175b7a638427703f0dbe7bb9bbf987a2551717b34e79f33b5b1008d1fa01db9908101906137af565b80610cdd565b6009600052610f3a907f6e1540171b6c0c960b71a7020d9f60077f6af931a8bbf590da0223dacf75c7af908101906137af565b80610cce565b6001600052610f7990601f0160051c7fb10e2d527612073b26eecdfd717e6a320cf44b4afac2b0732d9fcbe2b7fa0cf6908101906137af565b80610c2e565b60405162461bcd60e51b815260206004820152603160248201527f456c656374696f6e206973207374696c6c206f6e676f696e672e2043616e6e6f6044820152703a103932b9b2ba1031b7b73a3930b1ba1760791b6064820152608490fd5b9050421181610c14565b3461048d57600036600319011261048d576020600454604051908152f35b3461048d57602036600319011261048d5761101f6133fd565b60005490611037336001600160a01b03841614613752565b6001600160a01b0316908115611057576001600160a01b03191617600055005b60405162461bcd60e51b8152602060048201526024808201527f4e6577206f776e65722063616e6e6f7420626520746865207a65726f206164646044820152637265737360e01b6064820152608490fd5b3461048d57602036600319011261048d576001600160a01b036110c96133fd565b1660005260076020526020604060002060ff815416906106b86110ee6001830161353a565b61117c600284015461116e6111056003870161353a565b916111606111156004890161353a565b9161112260058a0161353a565b9461114d600760068c01549b0154986101206040519e8f9e8f901515815201526101208d0190613125565b9160408c01528a820360608c0152613125565b9088820360808a0152613125565b9086820360a0880152613125565b60c08501939093526001600160a01b03811660e085015261010084019060a01c60ff16613166565b3461048d57602036600319011261048d57600435600b5481101561048d576111cd6020916130bc565b905460405160039290921b1c6001600160a01b03168152f35b3461048d57600036600319011261048d57600e54611203816136f3565b9060005b81811061121c57604051806106b8858261330a565b806112286001926130a1565b838060a01b0391549060031b1c16600052600760205260406000206112d360ff6007604051936112578561336a565b828154161515855261126a87820161353a565b6020860152600281015460408601526112856003820161353a565b60608601526112966004820161353a565b60808601526112a76005820161353a565b60a0860152600681015460c08601520154858060a01b03811660e085015260a01c1661010083016136a0565b6112dd828661368c565b526112e8818561368c565b5001611207565b3461048d57600036600319011261048d576000546040516001600160a01b039091168152602090f35b3461048d57602036600319011261048d576001600160a01b036113396133fd565b16600052600860205260406000206101206113538261353a565b916106b86113636001830161353a565b6002830154926113e16113786003830161353a565b946113d36113886004850161353a565b916005850154976113c060076006880154970154976113b26040519d8d8f9e8f9081520190613125565b8c810360208e015290613125565b9160408b015289820360608b0152613125565b908782036080890152613125565b9360a086015260c085015260018060a01b03811660e085015260ff61010085019160a01c16613166565b3461048d57600036600319011261048d57600f54611428816136f3565b9060005b81811061144157604051806106b8858261330a565b8061144d6001926130f2565b838060a01b0391549060031b1c166000526007602052604060002061147c60ff6007604051936112578561336a565b611486828661368c565b52611491818561368c565b500161142c565b3461048d57600036600319011261048d5760405160006001546114ba81613500565b808452906001811690811561155557506001146114f6575b6106b8836114e281850382613386565b604051918291602083526020830190613125565b600160009081527fb10e2d527612073b26eecdfd717e6a320cf44b4afac2b0732d9fcbe2b7fa0cf6939250905b80821061153b575090915081016020016114e26114d2565b919260018160209254838588010152019101909291611523565b60ff191660208086019190915291151560051b840190910191506114e290506114d2565b3461048d57602036600319011261048d57600435600a5481101561048d576111cd6020916130d7565b3461048d57602036600319011261048d576004356001600160401b03811161048d576115d29036906004016133a7565b6115e8600254801590811561170e575b50613850565b336000526007602052604060002060018060a01b03600782015416156116c95760010181516001600160401b0381116103b0576116298161025b8454613500565b602092601f82116001146116695761165a9293829160009261165e5750508160011b916000199060031b1c19161790565b9055005b015190508480610280565b601f1982169383600052806000209160005b8681106116b15750836001959610611698575b505050811b019055005b015160001960f88460031b161c1916905583808061168e565b9192602060018192868501518155019401920161167b565b60405162461bcd60e51b815260206004820152601860248201527f4e6f20766f746572206461746120617661696c61626c652e00000000000000006044820152606490fd5b90504210836115e2565b3461048d5761172636613454565b9061173c60018060a01b03600054163314613752565b6001600160a01b038181166000818152600860205260409020600781018054929493909216156118f457815460ff60a01b1916600160a01b179091558351600191909101906001600160401b0381116103b05761179d8161025b8454613500565b602094601f821160011461188f576117d09293949582916000926118845750508160011b916000199060031b1c19161790565b90555b600b5490600160401b8210156103b0576102bd8260016117f89401600b55600b61310d565b60005b600d54808210156103ae57826118108361306b565b905460039190911b1c6001600160a01b03161461183057506001016117fb565b600019810192508211610398576102bd61184c6118649361306b565b905460039190911b1c6001600160a01b03169161306b565b600d548015610382576000190161187f61036882600d61310d565b600d55005b015190508680610280565b601f1982169583600052806000209160005b8881106118dc575083600195969798106118c3575b505050811b0190556117d3565b015160001960f88460031b161c191690558580806118b6565b919260206001819286850151815501940192016118a1565b60405162461bcd60e51b815260206004820152602d60248201527f546869732063616e64696461746520646f6573206e6f7420617070656172206960448201526c371037bab91039bcb9ba32b69760991b6064820152608490fd5b3461048d57602036600319011261048d576004356001600160401b03811161048d5761197f9036906004016133a7565b611994600254801590811561170e5750613850565b33600090815260086020526040902060078101546001600160a01b031615611a4b5781516001600160401b0381116103b0576119d48161025b8454613500565b602092601f8211600114611a055761165a9293829160009261165e5750508160011b916000199060031b1c19161790565b601f1982169383600052806000209160005b868110611a33575083600195961061169857505050811b019055005b91926020600181928685015181550194019201611a17565b60405162461bcd60e51b815260206004820152601c60248201527f4e6f2063616e646964617465206461746120617661696c61626c652e000000006044820152606490fd5b3461048d57611a9e36613493565b926005549160405191611ab08361336a565b8252611aba61380b565b926020830193845260408301948552606083019182526080830195865260a0830190815260c08301916000835260e084019533875261010085019560008752336000526008602052604060002095518051906001600160401b0382116103b057611b2e82611b288a54613500565b8a6137c6565b602090601f8311600114611e1e57611b5e929160009183610b535750508160011b916000199060031b1c19161790565b86555b51805160018701916001600160401b0382116103b057611b858261082f8554613500565b602090601f8311600114611db757611bb5929160009183610b535750508160011b916000199060031b1c19161790565b90555b51600285015551805160038501916001600160401b0382116103b057611be28261082f8554613500565b602090601f8311600114611d5057611c12929160009183610ae15750508160011b916000199060031b1c19161790565b90555b6004830195519586516001600160401b0381116103b057611c3a8161025b8454613500565b6020601f8211600114611ce6579080611c6e92600798999a600092610ae15750508160011b916000199060031b1c19161790565b90555b5160058301555160068201559251920180546001600160a01b0319166001600160a01b039390931692909217825551600381101561070157611cb29161378b565b600954600160401b8110156103b0576109d7816001611cd69301600955600961310d565b611ce1600554613743565b600555005b601f1982169883600052816000209960005b818110611d38575091600798999a91846001959410611d1f575b505050811b019055611c71565b015160001960f88460031b161c19169055898080611d12565b838301518c556001909b019a60209384019301611cf8565b90601f1983169184600052816000209260005b818110611d9f5750908460019594939210611d86575b505050811b019055611c15565b015160001960f88460031b161c19169055898080611d79565b92936020600181928786015181550195019301611d63565b90601f1983169184600052816000209260005b818110611e065750908460019594939210611ded575b505050811b019055611bb8565b015160001960f88460031b161c191690558b8080611de0565b92936020600181928786015181550195019301611dca565b90601f1983169189600052816000209260005b818110611e6d5750908460019594939210611e54575b505050811b018655611b61565b015160001960f88460031b161c191690558b8080611e47565b92936020600181928786015181550195019301611e31565b3461048d57602036600319011261048d57611e9e6133fd565b600254421061205257600354421161201a57336000526007602052604060002060ff600782015460a01c16600381101561070157600103611fd55780549160ff8316611f975760018060a01b0316600052600860205260406000209060ff600783015460a01c16600381101561070157600103611f5257600160069360ff191617905501611f2c8154613743565b9055600f54600160401b8110156103b0576109d78160016103ae9301600f55600f61310d565b60405162461bcd60e51b815260206004820152601a60248201527f43616e646964617465206973206e6f742061636365707465642e0000000000006044820152606490fd5b60405162461bcd60e51b8152602060048201526016602482015275165bdd481a185d9948185b1c9958591e481d9bdd195960521b6044820152606490fd5b60405162461bcd60e51b815260206004820152601e60248201527f596f7520617265206e6f74206120636f6e6669726d656420766f7465722e00006044820152606490fd5b60405162461bcd60e51b815260206004820152601060248201526f159bdd1a5b99c81a185cc8195b99195960821b6044820152606490fd5b60405162461bcd60e51b815260206004820152601a60248201527f566f74696e6720686173206e6f742073746172746564207965740000000000006044820152606490fd5b3461048d57600036600319011261048d57600a546120b4816136f3565b9060005b8181106120cd57604051806106b8858261330a565b806120d96001926130d7565b838060a01b0391549060031b1c166000526007602052604060002061210860ff6007604051936112578561336a565b612112828661368c565b5261211d818561368c565b50016120b8565b3461048d57602036600319011261048d57600435600f5481101561048d576111cd6020916130f2565b3461048d57602036600319011261048d57600435600d5481101561048d576111cd60209161306b565b3461048d57602036600319011261048d5760043561219f60018060a01b03600054163314613752565b600454612218576003548111156121b557600455005b60405162461bcd60e51b815260206004820152603560248201527f526573756c74207075626c69636174696f6e2074696d65206d75737420626520604482015274616674657220766f74696e6720656e642074696d6560581b6064820152608490fd5b60405162461bcd60e51b815260206004820152602360248201527f526573756c74207075626c69636174696f6e2074696d6520616c7265616479206044820152621cd95d60ea1b6064820152608490fd5b3461048d5761227736613454565b9061228d60018060a01b03600054163314613752565b6001600160a01b0381811660008181526008602052604090206007810180549294939092161561243a57815460ff60a01b1916600160a11b179091558351600191909101906001600160401b0381116103b0576122ee8161025b8454613500565b602094601f82116001146123d5576123219293949582916000926118845750508160011b916000199060031b1c19161790565b90555b600d5490600160401b8210156103b0576102bd8260016123499401600d55600d61310d565b60005b600b54808210156103ae5782612361836130bc565b905460039190911b1c6001600160a01b031614612381575060010161234c565b600019810192508211610398576102bd61239d6123b5936130bc565b905460039190911b1c6001600160a01b0316916130bc565b600b54801561038257600019016123d061036882600b61310d565b600b55005b601f1982169583600052806000209160005b88811061242257508360019596979810612409575b505050811b019055612324565b015160001960f88460031b161c191690558580806123fc565b919260206001819286850151815501940192016123e7565b60405162461bcd60e51b815260206004820152601b60248201527f4e6f2063616e646964617465206461746120617661696c61626c6500000000006044820152606490fd5b3461048d57602036600319011261048d576124986133fd565b6124a06136ac565b5060018060a01b0316600052600760205260406000206007604051916124c58361336a565b60ff815416151583526124da6001820161353a565b6020840152600281015460408401526124f56003820161353a565b60608401526125066004820161353a565b60808401526125176005820161353a565b60a0840152600681015460c0840152015460e0820160018060a01b038216815261254c60ff61010085019360a01c16836136a0565b516001600160a01b0316156125c2575160038110156107015760001901612585576106b89060405191829160208352602083019061326f565b60405162461bcd60e51b8152602060048201526015602482015274159bdd195c881a5cc81b9bdd081858d8d95c1d1959605a1b6044820152606490fd5b60405162461bcd60e51b815260206004820152600f60248201526e159bdd195c881b9bdd08199bdd5b99608a1b6044820152606490fd5b3461048d57602036600319011261048d57600435600c5481101561048d576111cd602091613086565b3461048d5761263036613413565b600a549060208301906000805b84811061278c575061264e906136f3565b9360009160005b85811061266a57604051806106b8898261330a565b612673816130d7565b60018060a01b0391549060031b1c16600052600760205260406000206040519061269c8261336a565b60ff8154161515825260076126b36001830161353a565b9160208401928352600281015460408501526126d16003820161353a565b60608501526126e26004820161353a565b60808501526126f36005820161353a565b60a0850152600681015460c085015201549061272860ff60e085019360018060a01b038116855260a01c1661010085016136a0565b516020815191012085518820149081612775575b5061274b575b50600101612655565b8461276e9161275d600194978b61368c565b52612768818a61368c565b50613743565b9390612742565b516001600160a01b0385811691161490508961273c565b612795816130d7565b60018060a01b0391549060031b1c1660005260076020526040600020604051906127be8261336a565b60ff8154161515825261284a60076127d86001840161353a565b9260208501938452600281015460408601526127f66003820161353a565b60608601526128076004820161353a565b60808601526128186005820161353a565b60a0860152600681015460c086015201549261010060ff60e083019560018060a01b038116875260a01c1691016136a0565b516020815191012087518620149081612880575b5061286c575b60010161263d565b90612878600191613743565b919050612864565b516001600160a01b0385811691161490508761285e565b3461048d576128a536613454565b906128bb60018060a01b03600054163314613752565b6001600160a01b038181166000818152600760208190526040909120908101805492949390921615612a6a57815460ff60a01b1916600160a11b179091558351600591909101906001600160401b0381116103b05761291e8161025b8454613500565b602094601f8211600114612a05576129519293949582916000926118845750508160011b916000199060031b1c19161790565b90555b600e5490600160401b8210156103b0576102bd8260016129799401600e55600e61310d565b60005b600c54808210156103ae578261299183613086565b905460039190911b1c6001600160a01b0316146129b1575060010161297c565b600019810192508211610398576102bd6129cd6129e593613086565b905460039190911b1c6001600160a01b031691613086565b600c5480156103825760001901612a0061036882600c61310d565b600c55005b601f1982169583600052806000209160005b888110612a5257508360019596979810612a39575b505050811b019055612954565b015160001960f88460031b161c19169055858080612a2c565b91926020600181928685015181550194019201612a17565b60405162461bcd60e51b815260206004820152601760248201527f4e6f20766f746572206461746120617661696c61626c650000000000000000006044820152606490fd5b3461048d57612abd36613413565b600954602083019290916000805b848110612c015750612adc9061363c565b9360009160005b858110612af857604051806106b8898261320f565b612b018161303a565b60018060a01b0391549060031b1c1660005260086020526040600020600760405191612b2c8361336a565b612b358161353a565b8352612b436001820161353a565b602084015260028101546040840152612b5e6003820161353a565b6060840152612b6f6004820161353a565b6080840152600581015460a0840152600681015460c08401520154612bad60ff60e084019260018060a01b038116845260a01c1661010084016136a0565b81516020815191012087518620149081612bea575b50612bd1575b50600101612ae3565b84612be39161275d600194978b61368c565b9390612bc8565b516001600160a01b03858116911614905089612bc2565b612c0a8161303a565b60018060a01b0391549060031b1c1660005260086020526040600020600760405191612c358361336a565b612c3e8161353a565b8352612c4c6001820161353a565b602084015260028101546040840152612c676003820161353a565b6060840152612c786004820161353a565b6080840152600581015460a0840152600681015460c0840152015490612cb760ff60e083019360018060a01b038116855260a01c1661010083016136a0565b516020815191012085518820149081612ced575b50612cd9575b600101612acb565b90612ce5600191613743565b919050612cd1565b516001600160a01b03858116911614905087612ccb565b3461048d57600036600319011261048d57600b54612d218161363c565b9060005b818110612d3a57604051806106b8858261320f565b80612d466001926130bc565b838060a01b0391549060031b1c1660005260086020526040600020612ded60ff600760405193612d758561336a565b612d7e8161353a565b8552612d8b87820161353a565b602086015260028101546040860152612da66003820161353a565b6060860152612db76004820161353a565b6080860152600581015460a0860152600681015460c08601520154858060a01b03811660e085015260a01c1661010083016136a0565b612df7828661368c565b52612e02818561368c565b5001612d25565b3461048d57602036600319011261048d57600435600e5481101561048d576111cd6020916130a1565b3461048d57600036600319011261048d57600c54612e4f816136f3565b9060005b818110612e6857604051806106b8858261330a565b80612e74600192613086565b838060a01b0391549060031b1c1660005260076020526040600020612ea360ff6007604051936112578561336a565b612ead828661368c565b52612eb8818561368c565b5001612e53565b3461048d57600036600319011261048d576020600254604051908152f35b3461048d57600036600319011261048d57600954612efa8161363c565b9060005b818110612f1357604051806106b8858261320f565b80612f1f60019261303a565b838060a01b0391549060031b1c1660005260086020526040600020612f4e60ff600760405193612d758561336a565b612f58828661368c565b52612f63818561368c565b5001612efe565b3461048d57600036600319011261048d576020600354604051908152f35b3461048d57600036600319011261048d57600d54612fa58161363c565b9060005b818110612fbe57604051806106b8858261320f565b80612fca60019261306b565b838060a01b0391549060031b1c1660005260086020526040600020612ff960ff600760405193612d758561336a565b613003828661368c565b5261300e818561368c565b5001612fa9565b3461048d57602036600319011261048d5760043560095481101561048d576111cd6020915b60095481101561305557600960005260206000200190600090565b634e487b7160e01b600052603260045260246000fd5b600d5481101561305557600d60005260206000200190600090565b600c5481101561305557600c60005260206000200190600090565b600e5481101561305557600e60005260206000200190600090565b600b5481101561305557600b60005260206000200190600090565b600a5481101561305557600a60005260206000200190600090565b600f5481101561305557600f60005260206000200190600090565b80548210156130555760005260206000200190600090565b919082519283825260005b848110613151575050826000602080949584010152601f8019910116010190565b80602080928401015182828601015201613130565b9060038210156107015752565b9061320c90610100806131da6131c86131ac61319a88516101208852610120880190613125565b60208901518782036020890152613125565b6040880151604087015260608801518682036060880152613125565b60808701518582036080870152613125565b60a0808701519085015260c0808701519085015260e0808701516001600160a01b031690850152940151910190613166565b90565b602081016020825282518091526040820191602060408360051b8301019401926000915b83831061324257505050505090565b9091929394602080613260600193603f198682030187528951613173565b97019301930191939290613233565b9061320c90825115158152610100806132e26132d06132be6132a260208901516101206020890152610120880190613125565b6040890151604088015260608901518782036060890152613125565b60808801518682036080880152613125565b60a087015185820360a0870152613125565b60c0808701519085015260e0808701516001600160a01b031690850152940151910190613166565b602081016020825282518091526040820191602060408360051b8301019401926000915b83831061333d57505050505090565b909192939460208061335b600193603f19868203018752895161326f565b9701930193019193929061332e565b61012081019081106001600160401b038211176103b057604052565b90601f801991011681019081106001600160401b038211176103b057604052565b81601f8201121561048d578035906001600160401b0382116103b057604051926133db601f8401601f191660200185613386565b8284526020838301011161048d57816000926020809301838601378301015290565b600435906001600160a01b038216820361048d57565b604060031982011261048d57600435906001600160401b03821161048d5761343d916004016133a7565b906024356001600160a01b038116810361048d5790565b90604060031983011261048d576004356001600160a01b038116810361048d5791602435906001600160401b03821161048d5761320c916004016133a7565b90608060031983011261048d576004356001600160401b03811161048d57826134be916004016133a7565b91602435916044356001600160401b03811161048d57826134e1916004016133a7565b91606435906001600160401b03821161048d5761320c916004016133a7565b90600182811c92168015613530575b602083101461351a57565b634e487b7160e01b600052602260045260246000fd5b91607f169161350f565b906040519182600082549261354e84613500565b80845293600181169081156135bc5750600114613575575b5061357392500383613386565b565b90506000929192526020600020906000915b8183106135a05750509060206135739282010138613566565b6020919350806001915483858901015201910190918492613587565b90506020925061357394915060ff191682840152151560051b82010138613566565b6001600160401b0381116103b05760051b60200190565b604051906136028261336a565b6000610100836060815260606020820152826040820152606080820152606060808201528260a08201528260c08201528260e08201520152565b90613646826135de565b6136536040519182613386565b8281528092613664601f19916135de565b019060005b82811061367557505050565b6020906136806135f5565b82828501015201613669565b80518210156130555760209160051b010190565b60038210156107015752565b604051906136b98261336a565b6000610100838281526060602082015282604082015260608082015260606080820152606060a08201528260c08201528260e08201520152565b906136fd826135de565b61370a6040519182613386565b828152809261371b601f19916135de565b019060005b82811061372c57505050565b6020906137376136ac565b82828501015201613720565b60001981146103985760010190565b1561375957565b60405162461bcd60e51b815260206004820152600a60248201526927b7363c9037bbb732b960b11b6044820152606490fd5b90600381101561070157815460ff60a01b191660a09190911b60ff60a01b16179055565b8181106137ba575050565b600081556001016137af565b9190601f81116137d557505050565b613573926000526020600020906020601f840160051c83019310613801575b601f0160051c01906137af565b90915081906137f4565b6040519061381a606083613386565b60218252601b60fa1b6040837f526567697374726174696f6e206973206177616974696e6720617070726f766160208201520152565b1561385757565b60405162461bcd60e51b815260206004820152602160248201527f43616e6e6f74206d6f6469667920616674657220766f74696e672073746172746044820152607360f81b6064820152608490fd5b6138b08154613500565b90816138ba575050565b81601f600093116001146138cc575055565b818352602083206138e891601f0160051c8101906001016137af565b8082528160208120915555565b6138fd6135f5565b506139066135f5565b600b546000805b82811061391a5750505090565b613923816130bc565b60018060a01b0391549060031b1c16600052600860205260406000206040519061394c8261336a565b6139558161353a565b82526139636001820161353a565b60208301526002810154604083015261397e6003820161353a565b606083015261398f6004820161353a565b6080830152600581015460a08301526139d060ff600760068401549360c08601948552015460018060a01b03811660e086015260a01c1661010084016136a0565b518381116139e3575b505060010161390d565b90945091506001386139d9565b6139f86135f5565b50600b5415613af5576003544210613a125761320c6138f5565b604051613a1e8161336a565b60408051613a2c8282613386565b600f81526e139bdd08191958da591959081e595d608a1b602082015282528051613a57606082613386565b603681527f506c65617365207761697420756e74696c2074686520656c656374696f6e2065602082015275373239903a379039b2b2903a3432903bb4b73732b91760511b8282015260208301526000818301528051613ab7602082613386565b60008152606083015251613acc602082613386565b600081526080820152600060a0820152600060c0820152600060e0820152600061010082015290565b60405162461bcd60e51b8152602060048201526024808201527f4e6f2043616e6469646174657320616363657074656420666f7220656c65637460448201526334b7b71760e11b6064820152608490fdfea264697066735822122064ffdd737dc2d4a6884c61a6799407c94ba329449896f32a52146e74bcedb8d664736f6c634300081c0033","opcodes":"PUSH1 0x80 PUSH1 0x40 MSTORE CALLVALUE PUSH2 0x23B JUMPI PUSH2 0x3DE2 DUP1 CODESIZE SUB DUP1 PUSH2 0x19 DUP2 PUSH2 0x240 JUMP JUMPDEST SWAP3 DUP4 CODECOPY DUP2 ADD SWAP1 PUSH1 0x20 DUP2 DUP4 SUB SLT PUSH2 0x23B JUMPI DUP1 MLOAD SWAP1 PUSH1 0x1 PUSH1 0x1 PUSH1 0x40 SHL SUB DUP3 GT PUSH2 0x23B JUMPI ADD DUP2 PUSH1 0x1F DUP3 ADD SLT ISZERO PUSH2 0x23B JUMPI DUP1 MLOAD SWAP1 PUSH1 0x1 PUSH1 0x1 PUSH1 0x40 SHL SUB DUP3 GT PUSH2 0x210 JUMPI PUSH2 0x6A PUSH1 0x1F DUP4 ADD PUSH1 0x1F NOT AND PUSH1 0x20 ADD PUSH2 0x240 JUMP JUMPDEST SWAP3 DUP3 DUP5 MSTORE PUSH1 0x20 DUP4 DUP4 ADD ADD GT PUSH2 0x23B JUMPI PUSH1 0x0 JUMPDEST DUP3 DUP2 LT PUSH2 0x226 JUMPI PUSH1 0x0 DUP4 DUP6 ADD PUSH1 0x20 ADD DUP2 SWAP1 MSTORE DUP1 SLOAD PUSH1 0x1 PUSH1 0x1 PUSH1 0xA0 SHL SUB NOT AND CALLER OR SWAP1 SSTORE DUP4 MLOAD DUP5 SWAP1 PUSH1 0x1 PUSH1 0x1 PUSH1 0x40 SHL SUB DUP2 GT PUSH2 0x210 JUMPI PUSH1 0x1 SLOAD PUSH1 0x1 DUP2 DUP2 SHR SWAP2 AND DUP1 ISZERO PUSH2 0x206 JUMPI JUMPDEST PUSH1 0x20 DUP3 LT EQ PUSH2 0x1F0 JUMPI PUSH1 0x1F DUP2 GT PUSH2 0x18B JUMPI JUMPDEST POP PUSH1 0x20 SWAP2 PUSH1 0x1F DUP3 GT PUSH1 0x1 EQ PUSH2 0x127 JUMPI SWAP2 DUP2 SWAP3 PUSH1 0x0 SWAP3 PUSH2 0x11C JUMPI JUMPDEST POP POP DUP2 PUSH1 0x1 SHL SWAP2 PUSH1 0x0 NOT SWAP1 PUSH1 0x3 SHL SHR NOT AND OR PUSH1 0x1 SSTORE JUMPDEST PUSH1 0x1 PUSH1 0x5 SSTORE PUSH1 0x1 PUSH1 0x6 SSTORE PUSH1 0x40 MLOAD PUSH2 0x3B7C SWAP1 DUP2 PUSH2 0x266 DUP3 CODECOPY RETURN JUMPDEST ADD MLOAD SWAP1 POP DUP3 DUP1 PUSH2 0xED JUMP JUMPDEST PUSH1 0x1F NOT DUP3 AND SWAP3 PUSH1 0x1 PUSH1 0x0 MSTORE DUP1 PUSH1 0x0 KECCAK256 SWAP2 PUSH1 0x0 JUMPDEST DUP6 DUP2 LT PUSH2 0x173 JUMPI POP DUP4 PUSH1 0x1 SWAP6 LT PUSH2 0x15A JUMPI JUMPDEST POP POP POP DUP2 SHL ADD PUSH1 0x1 SSTORE PUSH2 0x103 JUMP JUMPDEST ADD MLOAD PUSH1 0x0 NOT PUSH1 0xF8 DUP5 PUSH1 0x3 SHL AND SHR NOT AND SWAP1 SSTORE DUP3 DUP1 DUP1 PUSH2 0x14C JUMP JUMPDEST SWAP2 SWAP3 PUSH1 0x20 PUSH1 0x1 DUP2 SWAP3 DUP7 DUP6 ADD MLOAD DUP2 SSTORE ADD SWAP5 ADD SWAP3 ADD PUSH2 0x13A JUMP JUMPDEST PUSH1 0x1 PUSH1 0x0 MSTORE PUSH32 0xB10E2D527612073B26EECDFD717E6A320CF44B4AFAC2B0732D9FCBE2B7FA0CF6 PUSH1 0x1F DUP4 ADD PUSH1 0x5 SHR DUP2 ADD SWAP2 PUSH1 0x20 DUP5 LT PUSH2 0x1E6 JUMPI JUMPDEST PUSH1 0x1F ADD PUSH1 0x5 SHR ADD SWAP1 JUMPDEST DUP2 DUP2 LT PUSH2 0x1DA JUMPI POP PUSH2 0xD3 JUMP JUMPDEST PUSH1 0x0 DUP2 SSTORE PUSH1 0x1 ADD PUSH2 0x1CD JUMP JUMPDEST SWAP1 SWAP2 POP DUP2 SWAP1 PUSH2 0x1C4 JUMP JUMPDEST PUSH4 0x4E487B71 PUSH1 0xE0 SHL PUSH1 0x0 MSTORE PUSH1 0x22 PUSH1 0x4 MSTORE PUSH1 0x24 PUSH1 0x0 REVERT JUMPDEST SWAP1 PUSH1 0x7F AND SWAP1 PUSH2 0xC1 JUMP JUMPDEST PUSH4 0x4E487B71 PUSH1 0xE0 SHL PUSH1 0x0 MSTORE PUSH1 0x41 PUSH1 0x4 MSTORE PUSH1 0x24 PUSH1 0x0 REVERT JUMPDEST DUP1 PUSH1 0x20 DUP1 SWAP3 DUP5 ADD ADD MLOAD DUP3 DUP3 DUP8 ADD ADD MSTORE ADD PUSH2 0x7C JUMP JUMPDEST PUSH1 0x0 DUP1 REVERT JUMPDEST PUSH1 0x40 MLOAD SWAP2 SWAP1 PUSH1 0x1F ADD PUSH1 0x1F NOT AND DUP3 ADD PUSH1 0x1 PUSH1 0x1 PUSH1 0x40 SHL SUB DUP2 GT DUP4 DUP3 LT OR PUSH2 0x210 JUMPI PUSH1 0x40 MSTORE JUMP INVALID PUSH1 0x80 PUSH1 0x40 MSTORE PUSH1 0x4 CALLDATASIZE LT ISZERO PUSH2 0x12 JUMPI PUSH1 0x0 DUP1 REVERT JUMPDEST PUSH1 0x0 CALLDATALOAD PUSH1 0xE0 SHR DUP1 PUSH4 0x366AC37 EQ PUSH2 0x3015 JUMPI DUP1 PUSH4 0x73F966D EQ PUSH2 0x2F88 JUMPI DUP1 PUSH4 0x1EA736E0 EQ PUSH2 0x2F6A JUMPI DUP1 PUSH4 0x1EE9367C EQ PUSH2 0x2EDD JUMPI DUP1 PUSH4 0x2019A608 EQ PUSH2 0x2EBF JUMPI DUP1 PUSH4 0x23A2B2ED EQ PUSH2 0x2E32 JUMPI DUP1 PUSH4 0x3AFA3E07 EQ PUSH2 0x2E09 JUMPI DUP1 PUSH4 0x3CFDE26C EQ PUSH2 0x2D04 JUMPI DUP1 PUSH4 0x429B0B22 EQ PUSH2 0x2AAF JUMPI DUP1 PUSH4 0x4A2846A8 EQ PUSH2 0x2897 JUMPI DUP1 PUSH4 0x4D867F4E EQ PUSH2 0x2622 JUMPI DUP1 PUSH4 0x53DD128C EQ PUSH2 0x25F9 JUMPI DUP1 PUSH4 0x57F3A8E5 EQ PUSH2 0x247F JUMPI DUP1 PUSH4 0x59632C22 EQ PUSH2 0x2269 JUMPI DUP1 PUSH4 0x5B45CFCA EQ PUSH2 0x2176 JUMPI DUP1 PUSH4 0x5E894B12 EQ PUSH2 0x214D JUMPI DUP1 PUSH4 0x5F1BC34E EQ PUSH2 0x2124 JUMPI DUP1 PUSH4 0x60FC4E32 EQ PUSH2 0x2097 JUMPI DUP1 PUSH4 0x6DD7D8EA EQ PUSH2 0x1E85 JUMPI DUP1 PUSH4 0x71565D2E EQ PUSH2 0x1A90 JUMPI DUP1 PUSH4 0x79432DB5 EQ PUSH2 0x194F JUMPI DUP1 PUSH4 0x7EB21B51 EQ PUSH2 0x1718 JUMPI DUP1 PUSH4 0x82FF2AEB EQ PUSH2 0x15A2 JUMPI DUP1 PUSH4 0x849C5657 EQ PUSH2 0x1579 JUMPI DUP1 PUSH4 0x85E8E7A7 EQ PUSH2 0x1498 JUMPI DUP1 PUSH4 0x8987CB32 EQ PUSH2 0x140B JUMPI DUP1 PUSH4 0x8AB66A90 EQ PUSH2 0x1318 JUMPI DUP1 PUSH4 0x8DA5CB5B EQ PUSH2 0x12EF JUMPI DUP1 PUSH4 0x964A43B9 EQ PUSH2 0x11E6 JUMPI DUP1 PUSH4 0x9E7A8145 EQ PUSH2 0x11A4 JUMPI DUP1 PUSH4 0xA3EC138D EQ PUSH2 0x10A8 JUMPI DUP1 PUSH4 0xA6F9DAE1 EQ PUSH2 0x1006 JUMPI DUP1 PUSH4 0xAC94BA4C EQ PUSH2 0xFE8 JUMPI DUP1 PUSH4 0xB181A8FC EQ PUSH2 0xBE1 JUMPI DUP1 PUSH4 0xBAB912A2 EQ PUSH2 0xBC5 JUMPI DUP1 PUSH4 0xCD6CF311 EQ PUSH2 0x782 JUMPI DUP1 PUSH4 0xD28178D7 EQ PUSH2 0x752 JUMPI DUP1 PUSH4 0xDBF7BE47 EQ PUSH2 0x5B7 JUMPI DUP1 PUSH4 0xF33698F1 EQ PUSH2 0x492 JUMPI PUSH4 0xFAD761D3 EQ PUSH2 0x1D4 JUMPI PUSH1 0x0 DUP1 REVERT JUMPDEST CALLVALUE PUSH2 0x48D JUMPI PUSH2 0x1E2 CALLDATASIZE PUSH2 0x3454 JUMP JUMPDEST SWAP1 PUSH2 0x1F8 PUSH1 0x1 DUP1 PUSH1 0xA0 SHL SUB PUSH1 0x0 SLOAD AND CALLER EQ PUSH2 0x3752 JUMP JUMPDEST PUSH1 0x1 PUSH1 0x1 PUSH1 0xA0 SHL SUB DUP2 DUP2 AND PUSH1 0x0 DUP2 DUP2 MSTORE PUSH1 0x7 PUSH1 0x20 DUP2 SWAP1 MSTORE PUSH1 0x40 SWAP1 SWAP2 KECCAK256 SWAP1 DUP2 ADD DUP1 SLOAD SWAP3 SWAP5 SWAP4 SWAP1 SWAP3 AND ISZERO PUSH2 0x436 JUMPI DUP2 SLOAD PUSH1 0xFF PUSH1 0xA0 SHL NOT AND PUSH1 0x1 PUSH1 0xA0 SHL OR SWAP1 SWAP2 SSTORE DUP4 MLOAD PUSH1 0x5 SWAP2 SWAP1 SWAP2 ADD SWAP1 PUSH1 0x1 PUSH1 0x1 PUSH1 0x40 SHL SUB DUP2 GT PUSH2 0x3B0 JUMPI PUSH2 0x261 DUP2 PUSH2 0x25B DUP5 SLOAD PUSH2 0x3500 JUMP JUMPDEST DUP5 PUSH2 0x37C6 JUMP JUMPDEST PUSH1 0x20 SWAP5 PUSH1 0x1F DUP3 GT PUSH1 0x1 EQ PUSH2 0x3D1 JUMPI PUSH2 0x295 SWAP3 SWAP4 SWAP5 SWAP6 DUP3 SWAP2 PUSH1 0x0 SWAP3 PUSH2 0x3C6 JUMPI JUMPDEST POP POP DUP2 PUSH1 0x1 SHL SWAP2 PUSH1 0x0 NOT SWAP1 PUSH1 0x3 SHL SHR NOT AND OR SWAP1 JUMP JUMPDEST SWAP1 SSTORE JUMPDEST PUSH1 0xC SLOAD SWAP1 PUSH1 0x1 PUSH1 0x40 SHL DUP3 LT ISZERO PUSH2 0x3B0 JUMPI PUSH2 0x2BD DUP3 PUSH1 0x1 PUSH2 0x2E1 SWAP5 ADD PUSH1 0xC SSTORE PUSH1 0xC PUSH2 0x310D JUMP JUMPDEST SWAP1 DUP1 SLOAD PUSH1 0x1 PUSH1 0x1 PUSH1 0xA0 SHL SUB PUSH1 0x3 SWAP4 SWAP1 SWAP4 SHL DUP4 DUP2 SHL NOT SWAP1 SWAP2 AND SWAP3 SWAP1 SWAP4 AND SWAP1 SWAP3 SHL OR SWAP1 SSTORE JUMP JUMPDEST PUSH1 0x0 JUMPDEST PUSH1 0xE SLOAD DUP1 DUP3 LT ISZERO PUSH2 0x3AE JUMPI DUP3 PUSH2 0x2F9 DUP4 PUSH2 0x30A1 JUMP JUMPDEST SWAP1 SLOAD PUSH1 0x3 SWAP2 SWAP1 SWAP2 SHL SHR PUSH1 0x1 PUSH1 0x1 PUSH1 0xA0 SHL SUB AND EQ PUSH2 0x319 JUMPI POP PUSH1 0x1 ADD PUSH2 0x2E4 JUMP JUMPDEST PUSH1 0x0 NOT DUP2 ADD SWAP3 POP DUP3 GT PUSH2 0x398 JUMPI PUSH2 0x2BD PUSH2 0x335 PUSH2 0x34D SWAP4 PUSH2 0x30A1 JUMP JUMPDEST SWAP1 SLOAD PUSH1 0x3 SWAP2 SWAP1 SWAP2 SHL SHR PUSH1 0x1 PUSH1 0x1 PUSH1 0xA0 SHL SUB AND SWAP2 PUSH2 0x30A1 JUMP JUMPDEST PUSH1 0xE SLOAD DUP1 ISZERO PUSH2 0x382 JUMPI PUSH1 0x0 NOT ADD PUSH2 0x37D PUSH2 0x368 DUP3 PUSH1 0xE PUSH2 0x310D JUMP JUMPDEST DUP2 SLOAD SWAP1 PUSH1 0x1 DUP1 PUSH1 0xA0 SHL SUB SWAP1 PUSH1 0x3 SHL SHL NOT AND SWAP1 SSTORE JUMP JUMPDEST PUSH1 0xE SSTORE STOP JUMPDEST PUSH4 0x4E487B71 PUSH1 0xE0 SHL PUSH1 0x0 MSTORE PUSH1 0x31 PUSH1 0x4 MSTORE PUSH1 0x24 PUSH1 0x0 REVERT JUMPDEST PUSH4 0x4E487B71 PUSH1 0xE0 SHL PUSH1 0x0 MSTORE PUSH1 0x11 PUSH1 0x4 MSTORE PUSH1 0x24 PUSH1 0x0 REVERT JUMPDEST STOP JUMPDEST PUSH4 0x4E487B71 PUSH1 0xE0 SHL PUSH1 0x0 MSTORE PUSH1 0x41 PUSH1 0x4 MSTORE PUSH1 0x24 PUSH1 0x0 REVERT JUMPDEST ADD MLOAD SWAP1 POP CODESIZE DUP1 PUSH2 0x280 JUMP JUMPDEST PUSH1 0x1F NOT DUP3 AND SWAP6 DUP4 PUSH1 0x0 MSTORE DUP1 PUSH1 0x0 KECCAK256 SWAP2 PUSH1 0x0 JUMPDEST DUP9 DUP2 LT PUSH2 0x41E JUMPI POP DUP4 PUSH1 0x1 SWAP6 SWAP7 SWAP8 SWAP9 LT PUSH2 0x405 JUMPI JUMPDEST POP POP POP DUP2 SHL ADD SWAP1 SSTORE PUSH2 0x298 JUMP JUMPDEST ADD MLOAD PUSH1 0x0 NOT PUSH1 0xF8 DUP5 PUSH1 0x3 SHL AND SHR NOT AND SWAP1 SSTORE CODESIZE DUP1 DUP1 PUSH2 0x3F8 JUMP JUMPDEST SWAP2 SWAP3 PUSH1 0x20 PUSH1 0x1 DUP2 SWAP3 DUP7 DUP6 ADD MLOAD DUP2 SSTORE ADD SWAP5 ADD SWAP3 ADD PUSH2 0x3E3 JUMP JUMPDEST PUSH1 0x40 MLOAD PUSH3 0x461BCD PUSH1 0xE5 SHL DUP2 MSTORE PUSH1 0x20 PUSH1 0x4 DUP3 ADD MSTORE PUSH1 0x29 PUSH1 0x24 DUP3 ADD MSTORE PUSH32 0x5468697320766F74657220646F6573206E6F742061707065617220696E206F75 PUSH1 0x44 DUP3 ADD MSTORE PUSH9 0x391039BCB9BA32B697 PUSH1 0xB9 SHL PUSH1 0x64 DUP3 ADD MSTORE PUSH1 0x84 SWAP1 REVERT JUMPDEST PUSH1 0x0 DUP1 REVERT JUMPDEST CALLVALUE PUSH2 0x48D JUMPI PUSH1 0x40 CALLDATASIZE PUSH1 0x3 NOT ADD SLT PUSH2 0x48D JUMPI PUSH1 0x4 CALLDATALOAD PUSH1 0x24 CALLDATALOAD SWAP1 PUSH2 0x4BF PUSH1 0x1 DUP1 PUSH1 0xA0 SHL SUB PUSH1 0x0 SLOAD AND CALLER EQ PUSH2 0x3752 JUMP JUMPDEST PUSH1 0x2 SLOAD PUSH2 0x572 JUMPI TIMESTAMP DUP2 GT ISZERO PUSH2 0x52E JUMPI DUP2 DUP2 LT ISZERO PUSH2 0x4DE JUMPI PUSH1 0x2 SSTORE PUSH1 0x3 SSTORE STOP JUMPDEST PUSH1 0x40 MLOAD PUSH3 0x461BCD PUSH1 0xE5 SHL DUP2 MSTORE PUSH1 0x20 PUSH1 0x4 DUP3 ADD MSTORE PUSH1 0x22 PUSH1 0x24 DUP3 ADD MSTORE PUSH32 0x53746172742074696D65206D757374206265206265666F726520656E64207469 PUSH1 0x44 DUP3 ADD MSTORE PUSH2 0x6D65 PUSH1 0xF0 SHL PUSH1 0x64 DUP3 ADD MSTORE PUSH1 0x84 SWAP1 REVERT JUMPDEST PUSH1 0x64 PUSH1 0x40 MLOAD PUSH3 0x461BCD PUSH1 0xE5 SHL DUP2 MSTORE PUSH1 0x20 PUSH1 0x4 DUP3 ADD MSTORE PUSH1 0x20 PUSH1 0x24 DUP3 ADD MSTORE PUSH32 0x53746172742074696D65206D75737420626520696E2074686520667574757265 PUSH1 0x44 DUP3 ADD MSTORE REVERT JUMPDEST PUSH1 0x40 MLOAD PUSH3 0x461BCD PUSH1 0xE5 SHL DUP2 MSTORE PUSH1 0x20 PUSH1 0x4 DUP3 ADD MSTORE PUSH1 0x18 PUSH1 0x24 DUP3 ADD MSTORE PUSH32 0x566F74696E6720616C7265616479207363686564756C65640000000000000000 PUSH1 0x44 DUP3 ADD MSTORE PUSH1 0x64 SWAP1 REVERT JUMPDEST CALLVALUE PUSH2 0x48D JUMPI PUSH1 0x20 CALLDATASIZE PUSH1 0x3 NOT ADD SLT PUSH2 0x48D JUMPI PUSH2 0x5D0 PUSH2 0x33FD JUMP JUMPDEST PUSH2 0x5D8 PUSH2 0x35F5 JUMP JUMPDEST POP PUSH1 0x1 DUP1 PUSH1 0xA0 SHL SUB AND PUSH1 0x0 MSTORE PUSH1 0x8 PUSH1 0x20 MSTORE PUSH1 0x40 PUSH1 0x0 KECCAK256 PUSH1 0x7 PUSH1 0x40 MLOAD SWAP2 PUSH2 0x5FD DUP4 PUSH2 0x336A JUMP JUMPDEST PUSH2 0x606 DUP2 PUSH2 0x353A JUMP JUMPDEST DUP4 MSTORE PUSH2 0x614 PUSH1 0x1 DUP3 ADD PUSH2 0x353A JUMP JUMPDEST PUSH1 0x20 DUP5 ADD MSTORE PUSH1 0x2 DUP2 ADD SLOAD PUSH1 0x40 DUP5 ADD MSTORE PUSH2 0x62F PUSH1 0x3 DUP3 ADD PUSH2 0x353A JUMP JUMPDEST PUSH1 0x60 DUP5 ADD MSTORE PUSH2 0x640 PUSH1 0x4 DUP3 ADD PUSH2 0x353A JUMP JUMPDEST PUSH1 0x80 DUP5 ADD MSTORE PUSH1 0x5 DUP2 ADD SLOAD PUSH1 0xA0 DUP5 ADD MSTORE PUSH1 0x6 DUP2 ADD SLOAD PUSH1 0xC0 DUP5 ADD MSTORE ADD SLOAD PUSH1 0xE0 DUP3 ADD PUSH1 0x1 DUP1 PUSH1 0xA0 SHL SUB DUP3 AND DUP2 MSTORE PUSH2 0x67F PUSH1 0xFF PUSH2 0x100 DUP6 ADD SWAP4 PUSH1 0xA0 SHR AND DUP4 PUSH2 0x36A0 JUMP JUMPDEST MLOAD PUSH1 0x1 PUSH1 0x1 PUSH1 0xA0 SHL SUB AND ISZERO PUSH2 0x717 JUMPI MLOAD PUSH1 0x3 DUP2 LT ISZERO PUSH2 0x701 JUMPI PUSH1 0x0 NOT ADD PUSH2 0x6BC JUMPI PUSH2 0x6B8 SWAP1 PUSH1 0x40 MLOAD SWAP2 DUP3 SWAP2 PUSH1 0x20 DUP4 MSTORE PUSH1 0x20 DUP4 ADD SWAP1 PUSH2 0x3173 JUMP JUMPDEST SUB SWAP1 RETURN JUMPDEST PUSH1 0x40 MLOAD PUSH3 0x461BCD PUSH1 0xE5 SHL DUP2 MSTORE PUSH1 0x20 PUSH1 0x4 DUP3 ADD MSTORE PUSH1 0x19 PUSH1 0x24 DUP3 ADD MSTORE PUSH32 0x43616E646964617465206973206E6F7420616363657074656400000000000000 PUSH1 0x44 DUP3 ADD MSTORE PUSH1 0x64 SWAP1 REVERT JUMPDEST PUSH4 0x4E487B71 PUSH1 0xE0 SHL PUSH1 0x0 MSTORE PUSH1 0x21 PUSH1 0x4 MSTORE PUSH1 0x24 PUSH1 0x0 REVERT JUMPDEST PUSH1 0x40 MLOAD PUSH3 0x461BCD PUSH1 0xE5 SHL DUP2 MSTORE PUSH1 0x20 PUSH1 0x4 DUP3 ADD MSTORE PUSH1 0x13 PUSH1 0x24 DUP3 ADD MSTORE PUSH19 0x10D85B991A59185D19481B9BDD08199BDD5B99 PUSH1 0x6A SHL PUSH1 0x44 DUP3 ADD MSTORE PUSH1 0x64 SWAP1 REVERT JUMPDEST CALLVALUE PUSH2 0x48D JUMPI PUSH1 0x0 CALLDATASIZE PUSH1 0x3 NOT ADD SLT PUSH2 0x48D JUMPI PUSH2 0x6B8 PUSH2 0x76E PUSH2 0x39F0 JUMP JUMPDEST PUSH1 0x40 MLOAD SWAP2 DUP3 SWAP2 PUSH1 0x20 DUP4 MSTORE PUSH1 0x20 DUP4 ADD SWAP1 PUSH2 0x3173 JUMP JUMPDEST CALLVALUE PUSH2 0x48D JUMPI PUSH2 0x790 CALLDATASIZE PUSH2 0x3493 JUMP JUMPDEST PUSH1 0x6 SWAP4 SWAP2 SWAP4 SLOAD PUSH1 0x40 MLOAD SWAP2 PUSH2 0x7A3 DUP4 PUSH2 0x336A JUMP JUMPDEST PUSH1 0x0 DUP4 MSTORE PUSH1 0x20 DUP4 ADD SWAP4 DUP5 MSTORE PUSH1 0x40 DUP4 ADD SWAP5 DUP6 MSTORE PUSH1 0x60 DUP4 ADD SWAP6 DUP7 MSTORE PUSH1 0x80 DUP4 ADD SWAP1 DUP2 MSTORE PUSH2 0x7CB PUSH2 0x380B JUMP JUMPDEST SWAP6 PUSH1 0xA0 DUP5 ADD SWAP7 DUP8 MSTORE PUSH1 0xC0 DUP5 ADD SWAP3 DUP4 MSTORE PUSH1 0xE0 DUP5 ADD SWAP6 CALLER DUP8 MSTORE PUSH2 0x100 DUP6 ADD SWAP6 PUSH1 0x0 DUP8 MSTORE CALLER PUSH1 0x0 MSTORE PUSH1 0x7 PUSH1 0x20 MSTORE PUSH1 0x40 PUSH1 0x0 KECCAK256 SWAP6 MLOAD ISZERO ISZERO PUSH1 0xFF DUP1 NOT DUP9 SLOAD AND SWAP2 AND OR DUP7 SSTORE PUSH1 0x1 DUP7 ADD SWAP1 MLOAD DUP1 MLOAD SWAP1 PUSH1 0x1 PUSH1 0x1 PUSH1 0x40 SHL SUB DUP3 GT PUSH2 0x3B0 JUMPI PUSH2 0x835 DUP3 PUSH2 0x82F DUP6 SLOAD PUSH2 0x3500 JUMP JUMPDEST DUP6 PUSH2 0x37C6 JUMP JUMPDEST PUSH1 0x20 SWAP1 PUSH1 0x1F DUP4 GT PUSH1 0x1 EQ PUSH2 0xB5E JUMPI PUSH2 0x865 SWAP3 SWAP2 PUSH1 0x0 SWAP2 DUP4 PUSH2 0xB53 JUMPI POP POP DUP2 PUSH1 0x1 SHL SWAP2 PUSH1 0x0 NOT SWAP1 PUSH1 0x3 SHL SHR NOT AND OR SWAP1 JUMP JUMPDEST SWAP1 SSTORE JUMPDEST MLOAD PUSH1 0x2 DUP6 ADD SSTORE MLOAD DUP1 MLOAD PUSH1 0x3 DUP6 ADD SWAP2 PUSH1 0x1 PUSH1 0x1 PUSH1 0x40 SHL SUB DUP3 GT PUSH2 0x3B0 JUMPI PUSH2 0x892 DUP3 PUSH2 0x82F DUP6 SLOAD PUSH2 0x3500 JUMP JUMPDEST PUSH1 0x20 SWAP1 PUSH1 0x1F DUP4 GT PUSH1 0x1 EQ PUSH2 0xAEC JUMPI PUSH2 0x8C2 SWAP3 SWAP2 PUSH1 0x0 SWAP2 DUP4 PUSH2 0xAE1 JUMPI POP POP DUP2 PUSH1 0x1 SHL SWAP2 PUSH1 0x0 NOT SWAP1 PUSH1 0x3 SHL SHR NOT AND OR SWAP1 JUMP JUMPDEST SWAP1 SSTORE JUMPDEST MLOAD DUP1 MLOAD PUSH1 0x4 DUP5 ADD SWAP2 PUSH1 0x1 PUSH1 0x1 PUSH1 0x40 SHL SUB DUP3 GT PUSH2 0x3B0 JUMPI PUSH2 0x8E9 DUP3 PUSH2 0x82F DUP6 SLOAD PUSH2 0x3500 JUMP JUMPDEST PUSH1 0x20 SWAP1 PUSH1 0x1F DUP4 GT PUSH1 0x1 EQ PUSH2 0xA7A JUMPI PUSH2 0x919 SWAP3 SWAP2 PUSH1 0x0 SWAP2 DUP4 PUSH2 0xA05 JUMPI POP POP DUP2 PUSH1 0x1 SHL SWAP2 PUSH1 0x0 NOT SWAP1 PUSH1 0x3 SHL SHR NOT AND OR SWAP1 JUMP JUMPDEST SWAP1 SSTORE JUMPDEST PUSH1 0x5 DUP3 ADD SWAP5 MLOAD SWAP5 DUP6 MLOAD PUSH1 0x1 PUSH1 0x1 PUSH1 0x40 SHL SUB DUP2 GT PUSH2 0x3B0 JUMPI PUSH2 0x941 DUP2 PUSH2 0x25B DUP5 SLOAD PUSH2 0x3500 JUMP JUMPDEST PUSH1 0x20 PUSH1 0x1F DUP3 GT PUSH1 0x1 EQ PUSH2 0xA10 JUMPI SWAP1 DUP1 PUSH2 0x975 SWAP3 PUSH1 0x7 SWAP8 SWAP9 SWAP10 PUSH1 0x0 SWAP3 PUSH2 0xA05 JUMPI POP POP DUP2 PUSH1 0x1 SHL SWAP2 PUSH1 0x0 NOT SWAP1 PUSH1 0x3 SHL SHR NOT AND OR SWAP1 JUMP JUMPDEST SWAP1 SSTORE JUMPDEST MLOAD PUSH1 0x6 DUP3 ADD SSTORE SWAP3 MLOAD SWAP3 ADD DUP1 SLOAD PUSH1 0x1 PUSH1 0x1 PUSH1 0xA0 SHL SUB NOT AND PUSH1 0x1 PUSH1 0x1 PUSH1 0xA0 SHL SUB SWAP4 SWAP1 SWAP4 AND SWAP3 SWAP1 SWAP3 OR DUP3 SSTORE MLOAD PUSH1 0x3 DUP2 LT ISZERO PUSH2 0x701 JUMPI PUSH2 0x9B3 SWAP2 PUSH2 0x378B JUMP JUMPDEST PUSH1 0xA SLOAD PUSH1 0x1 PUSH1 0x40 SHL DUP2 LT ISZERO PUSH2 0x3B0 JUMPI PUSH2 0x9D7 DUP2 PUSH1 0x1 PUSH2 0x9F5 SWAP4 ADD PUSH1 0xA SSTORE PUSH1 0xA PUSH2 0x310D JUMP JUMPDEST DUP2 SLOAD CALLER PUSH1 0x3 SWAP3 SWAP1 SWAP3 SHL SWAP2 DUP3 SHL PUSH1 0x1 PUSH1 0x1 PUSH1 0xA0 SHL SUB SWAP1 SWAP3 SHL NOT AND OR SWAP1 SSTORE JUMP JUMPDEST PUSH2 0xA00 PUSH1 0x6 SLOAD PUSH2 0x3743 JUMP JUMPDEST PUSH1 0x6 SSTORE STOP JUMPDEST ADD MLOAD SWAP1 POP DUP10 DUP1 PUSH2 0x280 JUMP JUMPDEST PUSH1 0x1F NOT DUP3 AND SWAP8 DUP4 PUSH1 0x0 MSTORE DUP2 PUSH1 0x0 KECCAK256 SWAP9 PUSH1 0x0 JUMPDEST DUP2 DUP2 LT PUSH2 0xA62 JUMPI POP SWAP2 PUSH1 0x7 SWAP8 SWAP9 SWAP10 SWAP2 DUP5 PUSH1 0x1 SWAP6 SWAP5 LT PUSH2 0xA49 JUMPI JUMPDEST POP POP POP DUP2 SHL ADD SWAP1 SSTORE PUSH2 0x978 JUMP JUMPDEST ADD MLOAD PUSH1 0x0 NOT PUSH1 0xF8 DUP5 PUSH1 0x3 SHL AND SHR NOT AND SWAP1 SSTORE DUP9 DUP1 DUP1 PUSH2 0xA3C JUMP JUMPDEST DUP4 DUP4 ADD MLOAD DUP12 SSTORE PUSH1 0x1 SWAP1 SWAP11 ADD SWAP10 PUSH1 0x20 SWAP4 DUP5 ADD SWAP4 ADD PUSH2 0xA22 JUMP JUMPDEST SWAP1 PUSH1 0x1F NOT DUP4 AND SWAP2 DUP5 PUSH1 0x0 MSTORE DUP2 PUSH1 0x0 KECCAK256 SWAP3 PUSH1 0x0 JUMPDEST DUP2 DUP2 LT PUSH2 0xAC9 JUMPI POP SWAP1 DUP5 PUSH1 0x1 SWAP6 SWAP5 SWAP4 SWAP3 LT PUSH2 0xAB0 JUMPI JUMPDEST POP POP POP DUP2 SHL ADD SWAP1 SSTORE PUSH2 0x91C JUMP JUMPDEST ADD MLOAD PUSH1 0x0 NOT PUSH1 0xF8 DUP5 PUSH1 0x3 SHL AND SHR NOT AND SWAP1 SSTORE DUP9 DUP1 DUP1 PUSH2 0xAA3 JUMP JUMPDEST SWAP3 SWAP4 PUSH1 0x20 PUSH1 0x1 DUP2 SWAP3 DUP8 DUP7 ADD MLOAD DUP2 SSTORE ADD SWAP6 ADD SWAP4 ADD PUSH2 0xA8D JUMP JUMPDEST ADD MLOAD SWAP1 POP DUP11 DUP1 PUSH2 0x280 JUMP JUMPDEST SWAP1 PUSH1 0x1F NOT DUP4 AND SWAP2 DUP5 PUSH1 0x0 MSTORE DUP2 PUSH1 0x0 KECCAK256 SWAP3 PUSH1 0x0 JUMPDEST DUP2 DUP2 LT PUSH2 0xB3B JUMPI POP SWAP1 DUP5 PUSH1 0x1 SWAP6 SWAP5 SWAP4 SWAP3 LT PUSH2 0xB22 JUMPI JUMPDEST POP POP POP DUP2 SHL ADD SWAP1 SSTORE PUSH2 0x8C5 JUMP JUMPDEST ADD MLOAD PUSH1 0x0 NOT PUSH1 0xF8 DUP5 PUSH1 0x3 SHL AND SHR NOT AND SWAP1 SSTORE DUP10 DUP1 DUP1 PUSH2 0xB15 JUMP JUMPDEST SWAP3 SWAP4 PUSH1 0x20 PUSH1 0x1 DUP2 SWAP3 DUP8 DUP7 ADD MLOAD DUP2 SSTORE ADD SWAP6 ADD SWAP4 ADD PUSH2 0xAFF JUMP JUMPDEST ADD MLOAD SWAP1 POP DUP13 DUP1 PUSH2 0x280 JUMP JUMPDEST SWAP1 PUSH1 0x1F NOT DUP4 AND SWAP2 DUP5 PUSH1 0x0 MSTORE DUP2 PUSH1 0x0 KECCAK256 SWAP3 PUSH1 0x0 JUMPDEST DUP2 DUP2 LT PUSH2 0xBAD JUMPI POP SWAP1 DUP5 PUSH1 0x1 SWAP6 SWAP5 SWAP4 SWAP3 LT PUSH2 0xB94 JUMPI JUMPDEST POP POP POP DUP2 SHL ADD SWAP1 SSTORE PUSH2 0x868 JUMP JUMPDEST ADD MLOAD PUSH1 0x0 NOT PUSH1 0xF8 DUP5 PUSH1 0x3 SHL AND SHR NOT AND SWAP1 SSTORE DUP12 DUP1 DUP1 PUSH2 0xB87 JUMP JUMPDEST SWAP3 SWAP4 PUSH1 0x20 PUSH1 0x1 DUP2 SWAP3 DUP8 DUP7 ADD MLOAD DUP2 SSTORE ADD SWAP6 ADD SWAP4 ADD PUSH2 0xB71 JUMP JUMPDEST CALLVALUE PUSH2 0x48D JUMPI PUSH1 0x0 CALLDATASIZE PUSH1 0x3 NOT ADD SLT PUSH2 0x48D JUMPI PUSH2 0x6B8 PUSH2 0x76E PUSH2 0x38F5 JUMP JUMPDEST CALLVALUE PUSH2 0x48D JUMPI PUSH1 0x0 CALLDATASIZE PUSH1 0x3 NOT ADD SLT PUSH2 0x48D JUMPI PUSH2 0xC07 PUSH1 0x1 DUP1 PUSH1 0xA0 SHL SUB PUSH1 0x0 SLOAD AND CALLER EQ PUSH2 0x3752 JUMP JUMPDEST PUSH1 0x3 SLOAD DUP1 ISZERO ISZERO SWAP1 DUP2 PUSH2 0xFDE JUMPI JUMPDEST POP ISZERO PUSH2 0xF7F JUMPI PUSH2 0xC25 PUSH1 0x1 SLOAD PUSH2 0x3500 JUMP JUMPDEST PUSH1 0x1F DUP2 GT PUSH2 0xF40 JUMPI JUMPDEST POP PUSH1 0x0 PUSH1 0x1 SSTORE PUSH1 0x0 PUSH1 0x2 SSTORE PUSH1 0x0 PUSH1 0x3 SSTORE PUSH1 0x0 PUSH1 0x4 SSTORE PUSH1 0x0 JUMPDEST PUSH1 0x9 SLOAD DUP2 LT ISZERO PUSH2 0xCC0 JUMPI DUP1 PUSH2 0xC5C PUSH1 0x1 SWAP3 PUSH2 0x303A JUMP JUMPDEST DUP4 DUP1 PUSH1 0xA0 SHL SUB SWAP2 SLOAD SWAP1 PUSH1 0x3 SHL SHR AND PUSH1 0x0 MSTORE PUSH1 0x8 PUSH1 0x20 MSTORE PUSH1 0x0 PUSH1 0x7 PUSH1 0x40 DUP3 KECCAK256 PUSH2 0xC83 DUP2 PUSH2 0x38A6 JUMP JUMPDEST PUSH2 0xC8E DUP6 DUP3 ADD PUSH2 0x38A6 JUMP JUMPDEST DUP3 PUSH1 0x2 DUP3 ADD SSTORE PUSH2 0xCA0 PUSH1 0x3 DUP3 ADD PUSH2 0x38A6 JUMP JUMPDEST PUSH2 0xCAC PUSH1 0x4 DUP3 ADD PUSH2 0x38A6 JUMP JUMPDEST DUP3 PUSH1 0x5 DUP3 ADD SSTORE DUP3 PUSH1 0x6 DUP3 ADD SSTORE ADD SSTORE ADD PUSH2 0xC46 JUMP JUMPDEST PUSH1 0x9 SLOAD PUSH1 0x0 PUSH1 0x9 SSTORE DUP1 PUSH2 0xF07 JUMPI JUMPDEST POP PUSH1 0xB SLOAD PUSH1 0x0 PUSH1 0xB SSTORE DUP1 PUSH2 0xECE JUMPI JUMPDEST POP PUSH1 0xD SLOAD PUSH1 0x0 PUSH1 0xD SSTORE DUP1 PUSH2 0xE95 JUMPI JUMPDEST POP PUSH1 0x0 JUMPDEST PUSH1 0xA SLOAD DUP2 LT ISZERO PUSH2 0xD6A JUMPI DUP1 PUSH2 0xD06 PUSH1 0x1 SWAP3 PUSH2 0x30D7 JUMP JUMPDEST DUP4 DUP1 PUSH1 0xA0 SHL SUB SWAP2 SLOAD SWAP1 PUSH1 0x3 SHL SHR AND PUSH1 0x0 MSTORE PUSH1 0x7 PUSH1 0x20 MSTORE PUSH1 0x0 PUSH1 0x7 PUSH1 0x40 DUP3 KECCAK256 DUP3 DUP2 SSTORE PUSH2 0xD32 DUP6 DUP3 ADD PUSH2 0x38A6 JUMP JUMPDEST DUP3 PUSH1 0x2 DUP3 ADD SSTORE PUSH2 0xD44 PUSH1 0x3 DUP3 ADD PUSH2 0x38A6 JUMP JUMPDEST PUSH2 0xD50 PUSH1 0x4 DUP3 ADD PUSH2 0x38A6 JUMP JUMPDEST PUSH2 0xD5C PUSH1 0x5 DUP3 ADD PUSH2 0x38A6 JUMP JUMPDEST DUP3 PUSH1 0x6 DUP3 ADD SSTORE ADD SSTORE ADD PUSH2 0xCF0 JUMP JUMPDEST PUSH1 0xA SLOAD PUSH1 0x0 PUSH1 0xA SSTORE DUP1 PUSH2 0xE5C JUMPI JUMPDEST POP PUSH1 0xC SLOAD PUSH1 0x0 PUSH1 0xC SSTORE DUP1 PUSH2 0xE23 JUMPI JUMPDEST POP PUSH1 0xE SLOAD PUSH1 0x0 PUSH1 0xE SSTORE DUP1 PUSH2 0xDEA JUMPI JUMPDEST POP PUSH1 0xF SLOAD PUSH1 0x0 PUSH1 0xF SSTORE DUP1 PUSH2 0xDB1 JUMPI JUMPDEST PUSH1 0x1 PUSH1 0x5 DUP2 SWAP1 SSTORE PUSH1 0x6 SSTORE STOP JUMPDEST PUSH1 0xF PUSH1 0x0 MSTORE PUSH2 0xDE4 SWAP1 PUSH32 0x8D1108E10BCB7C27DDDFC02ED9D693A074039D026CF4EA4240B40F7D581AC802 SWAP1 DUP2 ADD SWAP1 PUSH2 0x37AF JUMP JUMPDEST DUP1 PUSH2 0xDA5 JUMP JUMPDEST PUSH1 0xE PUSH1 0x0 MSTORE PUSH2 0xE1D SWAP1 PUSH32 0xBB7B4A454DC3493923482F07822329ED19E8244EFF582CC204F8554C3620C3FD SWAP1 DUP2 ADD SWAP1 PUSH2 0x37AF JUMP JUMPDEST DUP1 PUSH2 0xD96 JUMP JUMPDEST PUSH1 0xC PUSH1 0x0 MSTORE PUSH2 0xE56 SWAP1 PUSH32 0xDF6966C971051C3D54EC59162606531493A51404A002842F56009D7E5CF4A8C7 SWAP1 DUP2 ADD SWAP1 PUSH2 0x37AF JUMP JUMPDEST DUP1 PUSH2 0xD87 JUMP JUMPDEST PUSH1 0xA PUSH1 0x0 MSTORE PUSH2 0xE8F SWAP1 PUSH32 0xC65A7BB8D6351C1CF70C95A316CC6A92839C986682D98BC35F958F4883F9D2A8 SWAP1 DUP2 ADD SWAP1 PUSH2 0x37AF JUMP JUMPDEST DUP1 PUSH2 0xD78 JUMP JUMPDEST PUSH1 0xD PUSH1 0x0 MSTORE PUSH2 0xEC8 SWAP1 PUSH32 0xD7B6990105719101DABEB77144F2A3385C8033ACD3AF97E9423A695E81AD1EB5 SWAP1 DUP2 ADD SWAP1 PUSH2 0x37AF JUMP JUMPDEST DUP1 PUSH2 0xCEC JUMP JUMPDEST PUSH1 0xB PUSH1 0x0 MSTORE PUSH2 0xF01 SWAP1 PUSH32 0x175B7A638427703F0DBE7BB9BBF987A2551717B34E79F33B5B1008D1FA01DB9 SWAP1 DUP2 ADD SWAP1 PUSH2 0x37AF JUMP JUMPDEST DUP1 PUSH2 0xCDD JUMP JUMPDEST PUSH1 0x9 PUSH1 0x0 MSTORE PUSH2 0xF3A SWAP1 PUSH32 0x6E1540171B6C0C960B71A7020D9F60077F6AF931A8BBF590DA0223DACF75C7AF SWAP1 DUP2 ADD SWAP1 PUSH2 0x37AF JUMP JUMPDEST DUP1 PUSH2 0xCCE JUMP JUMPDEST PUSH1 0x1 PUSH1 0x0 MSTORE PUSH2 0xF79 SWAP1 PUSH1 0x1F ADD PUSH1 0x5 SHR PUSH32 0xB10E2D527612073B26EECDFD717E6A320CF44B4AFAC2B0732D9FCBE2B7FA0CF6 SWAP1 DUP2 ADD SWAP1 PUSH2 0x37AF JUMP JUMPDEST DUP1 PUSH2 0xC2E JUMP JUMPDEST PUSH1 0x40 MLOAD PUSH3 0x461BCD PUSH1 0xE5 SHL DUP2 MSTORE PUSH1 0x20 PUSH1 0x4 DUP3 ADD MSTORE PUSH1 0x31 PUSH1 0x24 DUP3 ADD MSTORE PUSH32 0x456C656374696F6E206973207374696C6C206F6E676F696E672E2043616E6E6F PUSH1 0x44 DUP3 ADD MSTORE PUSH17 0x3A103932B9B2BA1031B7B73A3930B1BA17 PUSH1 0x79 SHL PUSH1 0x64 DUP3 ADD MSTORE PUSH1 0x84 SWAP1 REVERT JUMPDEST SWAP1 POP TIMESTAMP GT DUP2 PUSH2 0xC14 JUMP JUMPDEST CALLVALUE PUSH2 0x48D JUMPI PUSH1 0x0 CALLDATASIZE PUSH1 0x3 NOT ADD SLT PUSH2 0x48D JUMPI PUSH1 0x20 PUSH1 0x4 SLOAD PUSH1 0x40 MLOAD SWAP1 DUP2 MSTORE RETURN JUMPDEST CALLVALUE PUSH2 0x48D JUMPI PUSH1 0x20 CALLDATASIZE PUSH1 0x3 NOT ADD SLT PUSH2 0x48D JUMPI PUSH2 0x101F PUSH2 0x33FD JUMP JUMPDEST PUSH1 0x0 SLOAD SWAP1 PUSH2 0x1037 CALLER PUSH1 0x1 PUSH1 0x1 PUSH1 0xA0 SHL SUB DUP5 AND EQ PUSH2 0x3752 JUMP JUMPDEST PUSH1 0x1 PUSH1 0x1 PUSH1 0xA0 SHL SUB AND SWAP1 DUP2 ISZERO PUSH2 0x1057 JUMPI PUSH1 0x1 PUSH1 0x1 PUSH1 0xA0 SHL SUB NOT AND OR PUSH1 0x0 SSTORE STOP JUMPDEST PUSH1 0x40 MLOAD PUSH3 0x461BCD PUSH1 0xE5 SHL DUP2 MSTORE PUSH1 0x20 PUSH1 0x4 DUP3 ADD MSTORE PUSH1 0x24 DUP1 DUP3 ADD MSTORE PUSH32 0x4E6577206F776E65722063616E6E6F7420626520746865207A65726F20616464 PUSH1 0x44 DUP3 ADD MSTORE PUSH4 0x72657373 PUSH1 0xE0 SHL PUSH1 0x64 DUP3 ADD MSTORE PUSH1 0x84 SWAP1 REVERT JUMPDEST CALLVALUE PUSH2 0x48D JUMPI PUSH1 0x20 CALLDATASIZE PUSH1 0x3 NOT ADD SLT PUSH2 0x48D JUMPI PUSH1 0x1 PUSH1 0x1 PUSH1 0xA0 SHL SUB PUSH2 0x10C9 PUSH2 0x33FD JUMP JUMPDEST AND PUSH1 0x0 MSTORE PUSH1 0x7 PUSH1 0x20 MSTORE PUSH1 0x20 PUSH1 0x40 PUSH1 0x0 KECCAK256 PUSH1 0xFF DUP2 SLOAD AND SWAP1 PUSH2 0x6B8 PUSH2 0x10EE PUSH1 0x1 DUP4 ADD PUSH2 0x353A JUMP JUMPDEST PUSH2 0x117C PUSH1 0x2 DUP5 ADD SLOAD PUSH2 0x116E PUSH2 0x1105 PUSH1 0x3 DUP8 ADD PUSH2 0x353A JUMP JUMPDEST SWAP2 PUSH2 0x1160 PUSH2 0x1115 PUSH1 0x4 DUP10 ADD PUSH2 0x353A JUMP JUMPDEST SWAP2 PUSH2 0x1122 PUSH1 0x5 DUP11 ADD PUSH2 0x353A JUMP JUMPDEST SWAP5 PUSH2 0x114D PUSH1 0x7 PUSH1 0x6 DUP13 ADD SLOAD SWAP12 ADD SLOAD SWAP9 PUSH2 0x120 PUSH1 0x40 MLOAD SWAP15 DUP16 SWAP15 DUP16 SWAP1 ISZERO ISZERO DUP2 MSTORE ADD MSTORE PUSH2 0x120 DUP14 ADD SWAP1 PUSH2 0x3125 JUMP JUMPDEST SWAP2 PUSH1 0x40 DUP13 ADD MSTORE DUP11 DUP3 SUB PUSH1 0x60 DUP13 ADD MSTORE PUSH2 0x3125 JUMP JUMPDEST SWAP1 DUP9 DUP3 SUB PUSH1 0x80 DUP11 ADD MSTORE PUSH2 0x3125 JUMP JUMPDEST SWAP1 DUP7 DUP3 SUB PUSH1 0xA0 DUP9 ADD MSTORE PUSH2 0x3125 JUMP JUMPDEST PUSH1 0xC0 DUP6 ADD SWAP4 SWAP1 SWAP4 MSTORE PUSH1 0x1 PUSH1 0x1 PUSH1 0xA0 SHL SUB DUP2 AND PUSH1 0xE0 DUP6 ADD MSTORE PUSH2 0x100 DUP5 ADD SWAP1 PUSH1 0xA0 SHR PUSH1 0xFF AND PUSH2 0x3166 JUMP JUMPDEST CALLVALUE PUSH2 0x48D JUMPI PUSH1 0x20 CALLDATASIZE PUSH1 0x3 NOT ADD SLT PUSH2 0x48D JUMPI PUSH1 0x4 CALLDATALOAD PUSH1 0xB SLOAD DUP2 LT ISZERO PUSH2 0x48D JUMPI PUSH2 0x11CD PUSH1 0x20 SWAP2 PUSH2 0x30BC JUMP JUMPDEST SWAP1 SLOAD PUSH1 0x40 MLOAD PUSH1 0x3 SWAP3 SWAP1 SWAP3 SHL SHR PUSH1 0x1 PUSH1 0x1 PUSH1 0xA0 SHL SUB AND DUP2 MSTORE RETURN JUMPDEST CALLVALUE PUSH2 0x48D JUMPI PUSH1 0x0 CALLDATASIZE PUSH1 0x3 NOT ADD SLT PUSH2 0x48D JUMPI PUSH1 0xE SLOAD PUSH2 0x1203 DUP2 PUSH2 0x36F3 JUMP JUMPDEST SWAP1 PUSH1 0x0 JUMPDEST DUP2 DUP2 LT PUSH2 0x121C JUMPI PUSH1 0x40 MLOAD DUP1 PUSH2 0x6B8 DUP6 DUP3 PUSH2 0x330A JUMP JUMPDEST DUP1 PUSH2 0x1228 PUSH1 0x1 SWAP3 PUSH2 0x30A1 JUMP JUMPDEST DUP4 DUP1 PUSH1 0xA0 SHL SUB SWAP2 SLOAD SWAP1 PUSH1 0x3 SHL SHR AND PUSH1 0x0 MSTORE PUSH1 0x7 PUSH1 0x20 MSTORE PUSH1 0x40 PUSH1 0x0 KECCAK256 PUSH2 0x12D3 PUSH1 0xFF PUSH1 0x7 PUSH1 0x40 MLOAD SWAP4 PUSH2 0x1257 DUP6 PUSH2 0x336A JUMP JUMPDEST DUP3 DUP2 SLOAD AND ISZERO ISZERO DUP6 MSTORE PUSH2 0x126A DUP8 DUP3 ADD PUSH2 0x353A JUMP JUMPDEST PUSH1 0x20 DUP7 ADD MSTORE PUSH1 0x2 DUP2 ADD SLOAD PUSH1 0x40 DUP7 ADD MSTORE PUSH2 0x1285 PUSH1 0x3 DUP3 ADD PUSH2 0x353A JUMP JUMPDEST PUSH1 0x60 DUP7 ADD MSTORE PUSH2 0x1296 PUSH1 0x4 DUP3 ADD PUSH2 0x353A JUMP JUMPDEST PUSH1 0x80 DUP7 ADD MSTORE PUSH2 0x12A7 PUSH1 0x5 DUP3 ADD PUSH2 0x353A JUMP JUMPDEST PUSH1 0xA0 DUP7 ADD MSTORE PUSH1 0x6 DUP2 ADD SLOAD PUSH1 0xC0 DUP7 ADD MSTORE ADD SLOAD DUP6 DUP1 PUSH1 0xA0 SHL SUB DUP2 AND PUSH1 0xE0 DUP6 ADD MSTORE PUSH1 0xA0 SHR AND PUSH2 0x100 DUP4 ADD PUSH2 0x36A0 JUMP JUMPDEST PUSH2 0x12DD DUP3 DUP7 PUSH2 0x368C JUMP JUMPDEST MSTORE PUSH2 0x12E8 DUP2 DUP6 PUSH2 0x368C JUMP JUMPDEST POP ADD PUSH2 0x1207 JUMP JUMPDEST CALLVALUE PUSH2 0x48D JUMPI PUSH1 0x0 CALLDATASIZE PUSH1 0x3 NOT ADD SLT PUSH2 0x48D JUMPI PUSH1 0x0 SLOAD PUSH1 0x40 MLOAD PUSH1 0x1 PUSH1 0x1 PUSH1 0xA0 SHL SUB SWAP1 SWAP2 AND DUP2 MSTORE PUSH1 0x20 SWAP1 RETURN JUMPDEST CALLVALUE PUSH2 0x48D JUMPI PUSH1 0x20 CALLDATASIZE PUSH1 0x3 NOT ADD SLT PUSH2 0x48D JUMPI PUSH1 0x1 PUSH1 0x1 PUSH1 0xA0 SHL SUB PUSH2 0x1339 PUSH2 0x33FD JUMP JUMPDEST AND PUSH1 0x0 MSTORE PUSH1 0x8 PUSH1 0x20 MSTORE PUSH1 0x40 PUSH1 0x0 KECCAK256 PUSH2 0x120 PUSH2 0x1353 DUP3 PUSH2 0x353A JUMP JUMPDEST SWAP2 PUSH2 0x6B8 PUSH2 0x1363 PUSH1 0x1 DUP4 ADD PUSH2 0x353A JUMP JUMPDEST PUSH1 0x2 DUP4 ADD SLOAD SWAP3 PUSH2 0x13E1 PUSH2 0x1378 PUSH1 0x3 DUP4 ADD PUSH2 0x353A JUMP JUMPDEST SWAP5 PUSH2 0x13D3 PUSH2 0x1388 PUSH1 0x4 DUP6 ADD PUSH2 0x353A JUMP JUMPDEST SWAP2 PUSH1 0x5 DUP6 ADD SLOAD SWAP8 PUSH2 0x13C0 PUSH1 0x7 PUSH1 0x6 DUP9 ADD SLOAD SWAP8 ADD SLOAD SWAP8 PUSH2 0x13B2 PUSH1 0x40 MLOAD SWAP14 DUP14 DUP16 SWAP15 DUP16 SWAP1 DUP2 MSTORE ADD SWAP1 PUSH2 0x3125 JUMP JUMPDEST DUP13 DUP2 SUB PUSH1 0x20 DUP15 ADD MSTORE SWAP1 PUSH2 0x3125 JUMP JUMPDEST SWAP2 PUSH1 0x40 DUP12 ADD MSTORE DUP10 DUP3 SUB PUSH1 0x60 DUP12 ADD MSTORE PUSH2 0x3125 JUMP JUMPDEST SWAP1 DUP8 DUP3 SUB PUSH1 0x80 DUP10 ADD MSTORE PUSH2 0x3125 JUMP JUMPDEST SWAP4 PUSH1 0xA0 DUP7 ADD MSTORE PUSH1 0xC0 DUP6 ADD MSTORE PUSH1 0x1 DUP1 PUSH1 0xA0 SHL SUB DUP2 AND PUSH1 0xE0 DUP6 ADD MSTORE PUSH1 0xFF PUSH2 0x100 DUP6 ADD SWAP2 PUSH1 0xA0 SHR AND PUSH2 0x3166 JUMP JUMPDEST CALLVALUE PUSH2 0x48D JUMPI PUSH1 0x0 CALLDATASIZE PUSH1 0x3 NOT ADD SLT PUSH2 0x48D JUMPI PUSH1 0xF SLOAD PUSH2 0x1428 DUP2 PUSH2 0x36F3 JUMP JUMPDEST SWAP1 PUSH1 0x0 JUMPDEST DUP2 DUP2 LT PUSH2 0x1441 JUMPI PUSH1 0x40 MLOAD DUP1 PUSH2 0x6B8 DUP6 DUP3 PUSH2 0x330A JUMP JUMPDEST DUP1 PUSH2 0x144D PUSH1 0x1 SWAP3 PUSH2 0x30F2 JUMP JUMPDEST DUP4 DUP1 PUSH1 0xA0 SHL SUB SWAP2 SLOAD SWAP1 PUSH1 0x3 SHL SHR AND PUSH1 0x0 MSTORE PUSH1 0x7 PUSH1 0x20 MSTORE PUSH1 0x40 PUSH1 0x0 KECCAK256 PUSH2 0x147C PUSH1 0xFF PUSH1 0x7 PUSH1 0x40 MLOAD SWAP4 PUSH2 0x1257 DUP6 PUSH2 0x336A JUMP JUMPDEST PUSH2 0x1486 DUP3 DUP7 PUSH2 0x368C JUMP JUMPDEST MSTORE PUSH2 0x1491 DUP2 DUP6 PUSH2 0x368C JUMP JUMPDEST POP ADD PUSH2 0x142C JUMP JUMPDEST CALLVALUE PUSH2 0x48D JUMPI PUSH1 0x0 CALLDATASIZE PUSH1 0x3 NOT ADD SLT PUSH2 0x48D JUMPI PUSH1 0x40 MLOAD PUSH1 0x0 PUSH1 0x1 SLOAD PUSH2 0x14BA DUP2 PUSH2 0x3500 JUMP JUMPDEST DUP1 DUP5 MSTORE SWAP1 PUSH1 0x1 DUP2 AND SWAP1 DUP2 ISZERO PUSH2 0x1555 JUMPI POP PUSH1 0x1 EQ PUSH2 0x14F6 JUMPI JUMPDEST PUSH2 0x6B8 DUP4 PUSH2 0x14E2 DUP2 DUP6 SUB DUP3 PUSH2 0x3386 JUMP JUMPDEST PUSH1 0x40 MLOAD SWAP2 DUP3 SWAP2 PUSH1 0x20 DUP4 MSTORE PUSH1 0x20 DUP4 ADD SWAP1 PUSH2 0x3125 JUMP JUMPDEST PUSH1 0x1 PUSH1 0x0 SWAP1 DUP2 MSTORE PUSH32 0xB10E2D527612073B26EECDFD717E6A320CF44B4AFAC2B0732D9FCBE2B7FA0CF6 SWAP4 SWAP3 POP SWAP1 JUMPDEST DUP1 DUP3 LT PUSH2 0x153B JUMPI POP SWAP1 SWAP2 POP DUP2 ADD PUSH1 0x20 ADD PUSH2 0x14E2 PUSH2 0x14D2 JUMP JUMPDEST SWAP2 SWAP3 PUSH1 0x1 DUP2 PUSH1 0x20 SWAP3 SLOAD DUP4 DUP6 DUP9 ADD ADD MSTORE ADD SWAP2 ADD SWAP1 SWAP3 SWAP2 PUSH2 0x1523 JUMP JUMPDEST PUSH1 0xFF NOT AND PUSH1 0x20 DUP1 DUP7 ADD SWAP2 SWAP1 SWAP2 MSTORE SWAP2 ISZERO ISZERO PUSH1 0x5 SHL DUP5 ADD SWAP1 SWAP2 ADD SWAP2 POP PUSH2 0x14E2 SWAP1 POP PUSH2 0x14D2 JUMP JUMPDEST CALLVALUE PUSH2 0x48D JUMPI PUSH1 0x20 CALLDATASIZE PUSH1 0x3 NOT ADD SLT PUSH2 0x48D JUMPI PUSH1 0x4 CALLDATALOAD PUSH1 0xA SLOAD DUP2 LT ISZERO PUSH2 0x48D JUMPI PUSH2 0x11CD PUSH1 0x20 SWAP2 PUSH2 0x30D7 JUMP JUMPDEST CALLVALUE PUSH2 0x48D JUMPI PUSH1 0x20 CALLDATASIZE PUSH1 0x3 NOT ADD SLT PUSH2 0x48D JUMPI PUSH1 0x4 CALLDATALOAD PUSH1 0x1 PUSH1 0x1 PUSH1 0x40 SHL SUB DUP2 GT PUSH2 0x48D JUMPI PUSH2 0x15D2 SWAP1 CALLDATASIZE SWAP1 PUSH1 0x4 ADD PUSH2 0x33A7 JUMP JUMPDEST PUSH2 0x15E8 PUSH1 0x2 SLOAD DUP1 ISZERO SWAP1 DUP2 ISZERO PUSH2 0x170E JUMPI JUMPDEST POP PUSH2 0x3850 JUMP JUMPDEST CALLER PUSH1 0x0 MSTORE PUSH1 0x7 PUSH1 0x20 MSTORE PUSH1 0x40 PUSH1 0x0 KECCAK256 PUSH1 0x1 DUP1 PUSH1 0xA0 SHL SUB PUSH1 0x7 DUP3 ADD SLOAD AND ISZERO PUSH2 0x16C9 JUMPI PUSH1 0x1 ADD DUP2 MLOAD PUSH1 0x1 PUSH1 0x1 PUSH1 0x40 SHL SUB DUP2 GT PUSH2 0x3B0 JUMPI PUSH2 0x1629 DUP2 PUSH2 0x25B DUP5 SLOAD PUSH2 0x3500 JUMP JUMPDEST PUSH1 0x20 SWAP3 PUSH1 0x1F DUP3 GT PUSH1 0x1 EQ PUSH2 0x1669 JUMPI PUSH2 0x165A SWAP3 SWAP4 DUP3 SWAP2 PUSH1 0x0 SWAP3 PUSH2 0x165E JUMPI POP POP DUP2 PUSH1 0x1 SHL SWAP2 PUSH1 0x0 NOT SWAP1 PUSH1 0x3 SHL SHR NOT AND OR SWAP1 JUMP JUMPDEST SWAP1 SSTORE STOP JUMPDEST ADD MLOAD SWAP1 POP DUP5 DUP1 PUSH2 0x280 JUMP JUMPDEST PUSH1 0x1F NOT DUP3 AND SWAP4 DUP4 PUSH1 0x0 MSTORE DUP1 PUSH1 0x0 KECCAK256 SWAP2 PUSH1 0x0 JUMPDEST DUP7 DUP2 LT PUSH2 0x16B1 JUMPI POP DUP4 PUSH1 0x1 SWAP6 SWAP7 LT PUSH2 0x1698 JUMPI JUMPDEST POP POP POP DUP2 SHL ADD SWAP1 SSTORE STOP JUMPDEST ADD MLOAD PUSH1 0x0 NOT PUSH1 0xF8 DUP5 PUSH1 0x3 SHL AND SHR NOT AND SWAP1 SSTORE DUP4 DUP1 DUP1 PUSH2 0x168E JUMP JUMPDEST SWAP2 SWAP3 PUSH1 0x20 PUSH1 0x1 DUP2 SWAP3 DUP7 DUP6 ADD MLOAD DUP2 SSTORE ADD SWAP5 ADD SWAP3 ADD PUSH2 0x167B JUMP JUMPDEST PUSH1 0x40 MLOAD PUSH3 0x461BCD PUSH1 0xE5 SHL DUP2 MSTORE PUSH1 0x20 PUSH1 0x4 DUP3 ADD MSTORE PUSH1 0x18 PUSH1 0x24 DUP3 ADD MSTORE PUSH32 0x4E6F20766F746572206461746120617661696C61626C652E0000000000000000 PUSH1 0x44 DUP3 ADD MSTORE PUSH1 0x64 SWAP1 REVERT JUMPDEST SWAP1 POP TIMESTAMP LT DUP4 PUSH2 0x15E2 JUMP JUMPDEST CALLVALUE PUSH2 0x48D JUMPI PUSH2 0x1726 CALLDATASIZE PUSH2 0x3454 JUMP JUMPDEST SWAP1 PUSH2 0x173C PUSH1 0x1 DUP1 PUSH1 0xA0 SHL SUB PUSH1 0x0 SLOAD AND CALLER EQ PUSH2 0x3752 JUMP JUMPDEST PUSH1 0x1 PUSH1 0x1 PUSH1 0xA0 SHL SUB DUP2 DUP2 AND PUSH1 0x0 DUP2 DUP2 MSTORE PUSH1 0x8 PUSH1 0x20 MSTORE PUSH1 0x40 SWAP1 KECCAK256 PUSH1 0x7 DUP2 ADD DUP1 SLOAD SWAP3 SWAP5 SWAP4 SWAP1 SWAP3 AND ISZERO PUSH2 0x18F4 JUMPI DUP2 SLOAD PUSH1 0xFF PUSH1 0xA0 SHL NOT AND PUSH1 0x1 PUSH1 0xA0 SHL OR SWAP1 SWAP2 SSTORE DUP4 MLOAD PUSH1 0x1 SWAP2 SWAP1 SWAP2 ADD SWAP1 PUSH1 0x1 PUSH1 0x1 PUSH1 0x40 SHL SUB DUP2 GT PUSH2 0x3B0 JUMPI PUSH2 0x179D DUP2 PUSH2 0x25B DUP5 SLOAD PUSH2 0x3500 JUMP JUMPDEST PUSH1 0x20 SWAP5 PUSH1 0x1F DUP3 GT PUSH1 0x1 EQ PUSH2 0x188F JUMPI PUSH2 0x17D0 SWAP3 SWAP4 SWAP5 SWAP6 DUP3 SWAP2 PUSH1 0x0 SWAP3 PUSH2 0x1884 JUMPI POP POP DUP2 PUSH1 0x1 SHL SWAP2 PUSH1 0x0 NOT SWAP1 PUSH1 0x3 SHL SHR NOT AND OR SWAP1 JUMP JUMPDEST SWAP1 SSTORE JUMPDEST PUSH1 0xB SLOAD SWAP1 PUSH1 0x1 PUSH1 0x40 SHL DUP3 LT ISZERO PUSH2 0x3B0 JUMPI PUSH2 0x2BD DUP3 PUSH1 0x1 PUSH2 0x17F8 SWAP5 ADD PUSH1 0xB SSTORE PUSH1 0xB PUSH2 0x310D JUMP JUMPDEST PUSH1 0x0 JUMPDEST PUSH1 0xD SLOAD DUP1 DUP3 LT ISZERO PUSH2 0x3AE JUMPI DUP3 PUSH2 0x1810 DUP4 PUSH2 0x306B JUMP JUMPDEST SWAP1 SLOAD PUSH1 0x3 SWAP2 SWAP1 SWAP2 SHL SHR PUSH1 0x1 PUSH1 0x1 PUSH1 0xA0 SHL SUB AND EQ PUSH2 0x1830 JUMPI POP PUSH1 0x1 ADD PUSH2 0x17FB JUMP JUMPDEST PUSH1 0x0 NOT DUP2 ADD SWAP3 POP DUP3 GT PUSH2 0x398 JUMPI PUSH2 0x2BD PUSH2 0x184C PUSH2 0x1864 SWAP4 PUSH2 0x306B JUMP JUMPDEST SWAP1 SLOAD PUSH1 0x3 SWAP2 SWAP1 SWAP2 SHL SHR PUSH1 0x1 PUSH1 0x1 PUSH1 0xA0 SHL SUB AND SWAP2 PUSH2 0x306B JUMP JUMPDEST PUSH1 0xD SLOAD DUP1 ISZERO PUSH2 0x382 JUMPI PUSH1 0x0 NOT ADD PUSH2 0x187F PUSH2 0x368 DUP3 PUSH1 0xD PUSH2 0x310D JUMP JUMPDEST PUSH1 0xD SSTORE STOP JUMPDEST ADD MLOAD SWAP1 POP DUP7 DUP1 PUSH2 0x280 JUMP JUMPDEST PUSH1 0x1F NOT DUP3 AND SWAP6 DUP4 PUSH1 0x0 MSTORE DUP1 PUSH1 0x0 KECCAK256 SWAP2 PUSH1 0x0 JUMPDEST DUP9 DUP2 LT PUSH2 0x18DC JUMPI POP DUP4 PUSH1 0x1 SWAP6 SWAP7 SWAP8 SWAP9 LT PUSH2 0x18C3 JUMPI JUMPDEST POP POP POP DUP2 SHL ADD SWAP1 SSTORE PUSH2 0x17D3 JUMP JUMPDEST ADD MLOAD PUSH1 0x0 NOT PUSH1 0xF8 DUP5 PUSH1 0x3 SHL AND SHR NOT AND SWAP1 SSTORE DUP6 DUP1 DUP1 PUSH2 0x18B6 JUMP JUMPDEST SWAP2 SWAP3 PUSH1 0x20 PUSH1 0x1 DUP2 SWAP3 DUP7 DUP6 ADD MLOAD DUP2 SSTORE ADD SWAP5 ADD SWAP3 ADD PUSH2 0x18A1 JUMP JUMPDEST PUSH1 0x40 MLOAD PUSH3 0x461BCD PUSH1 0xE5 SHL DUP2 MSTORE PUSH1 0x20 PUSH1 0x4 DUP3 ADD MSTORE PUSH1 0x2D PUSH1 0x24 DUP3 ADD MSTORE PUSH32 0x546869732063616E64696461746520646F6573206E6F74206170706561722069 PUSH1 0x44 DUP3 ADD MSTORE PUSH13 0x371037BAB91039BCB9BA32B697 PUSH1 0x99 SHL PUSH1 0x64 DUP3 ADD MSTORE PUSH1 0x84 SWAP1 REVERT JUMPDEST CALLVALUE PUSH2 0x48D JUMPI PUSH1 0x20 CALLDATASIZE PUSH1 0x3 NOT ADD SLT PUSH2 0x48D JUMPI PUSH1 0x4 CALLDATALOAD PUSH1 0x1 PUSH1 0x1 PUSH1 0x40 SHL SUB DUP2 GT PUSH2 0x48D JUMPI PUSH2 0x197F SWAP1 CALLDATASIZE SWAP1 PUSH1 0x4 ADD PUSH2 0x33A7 JUMP JUMPDEST PUSH2 0x1994 PUSH1 0x2 SLOAD DUP1 ISZERO SWAP1 DUP2 ISZERO PUSH2 0x170E JUMPI POP PUSH2 0x3850 JUMP JUMPDEST CALLER PUSH1 0x0 SWAP1 DUP2 MSTORE PUSH1 0x8 PUSH1 0x20 MSTORE PUSH1 0x40 SWAP1 KECCAK256 PUSH1 0x7 DUP2 ADD SLOAD PUSH1 0x1 PUSH1 0x1 PUSH1 0xA0 SHL SUB AND ISZERO PUSH2 0x1A4B JUMPI DUP2 MLOAD PUSH1 0x1 PUSH1 0x1 PUSH1 0x40 SHL SUB DUP2 GT PUSH2 0x3B0 JUMPI PUSH2 0x19D4 DUP2 PUSH2 0x25B DUP5 SLOAD PUSH2 0x3500 JUMP JUMPDEST PUSH1 0x20 SWAP3 PUSH1 0x1F DUP3 GT PUSH1 0x1 EQ PUSH2 0x1A05 JUMPI PUSH2 0x165A SWAP3 SWAP4 DUP3 SWAP2 PUSH1 0x0 SWAP3 PUSH2 0x165E JUMPI POP POP DUP2 PUSH1 0x1 SHL SWAP2 PUSH1 0x0 NOT SWAP1 PUSH1 0x3 SHL SHR NOT AND OR SWAP1 JUMP JUMPDEST PUSH1 0x1F NOT DUP3 AND SWAP4 DUP4 PUSH1 0x0 MSTORE DUP1 PUSH1 0x0 KECCAK256 SWAP2 PUSH1 0x0 JUMPDEST DUP7 DUP2 LT PUSH2 0x1A33 JUMPI POP DUP4 PUSH1 0x1 SWAP6 SWAP7 LT PUSH2 0x1698 JUMPI POP POP POP DUP2 SHL ADD SWAP1 SSTORE STOP JUMPDEST SWAP2 SWAP3 PUSH1 0x20 PUSH1 0x1 DUP2 SWAP3 DUP7 DUP6 ADD MLOAD DUP2 SSTORE ADD SWAP5 ADD SWAP3 ADD PUSH2 0x1A17 JUMP JUMPDEST PUSH1 0x40 MLOAD PUSH3 0x461BCD PUSH1 0xE5 SHL DUP2 MSTORE PUSH1 0x20 PUSH1 0x4 DUP3 ADD MSTORE PUSH1 0x1C PUSH1 0x24 DUP3 ADD MSTORE PUSH32 0x4E6F2063616E646964617465206461746120617661696C61626C652E00000000 PUSH1 0x44 DUP3 ADD MSTORE PUSH1 0x64 SWAP1 REVERT JUMPDEST CALLVALUE PUSH2 0x48D JUMPI PUSH2 0x1A9E CALLDATASIZE PUSH2 0x3493 JUMP JUMPDEST SWAP3 PUSH1 0x5 SLOAD SWAP2 PUSH1 0x40 MLOAD SWAP2 PUSH2 0x1AB0 DUP4 PUSH2 0x336A JUMP JUMPDEST DUP3 MSTORE PUSH2 0x1ABA PUSH2 0x380B JUMP JUMPDEST SWAP3 PUSH1 0x20 DUP4 ADD SWAP4 DUP5 MSTORE PUSH1 0x40 DUP4 ADD SWAP5 DUP6 MSTORE PUSH1 0x60 DUP4 ADD SWAP2 DUP3 MSTORE PUSH1 0x80 DUP4 ADD SWAP6 DUP7 MSTORE PUSH1 0xA0 DUP4 ADD SWAP1 DUP2 MSTORE PUSH1 0xC0 DUP4 ADD SWAP2 PUSH1 0x0 DUP4 MSTORE PUSH1 0xE0 DUP5 ADD SWAP6 CALLER DUP8 MSTORE PUSH2 0x100 DUP6 ADD SWAP6 PUSH1 0x0 DUP8 MSTORE CALLER PUSH1 0x0 MSTORE PUSH1 0x8 PUSH1 0x20 MSTORE PUSH1 0x40 PUSH1 0x0 KECCAK256 SWAP6 MLOAD DUP1 MLOAD SWAP1 PUSH1 0x1 PUSH1 0x1 PUSH1 0x40 SHL SUB DUP3 GT PUSH2 0x3B0 JUMPI PUSH2 0x1B2E DUP3 PUSH2 0x1B28 DUP11 SLOAD PUSH2 0x3500 JUMP JUMPDEST DUP11 PUSH2 0x37C6 JUMP JUMPDEST PUSH1 0x20 SWAP1 PUSH1 0x1F DUP4 GT PUSH1 0x1 EQ PUSH2 0x1E1E JUMPI PUSH2 0x1B5E SWAP3 SWAP2 PUSH1 0x0 SWAP2 DUP4 PUSH2 0xB53 JUMPI POP POP DUP2 PUSH1 0x1 SHL SWAP2 PUSH1 0x0 NOT SWAP1 PUSH1 0x3 SHL SHR NOT AND OR SWAP1 JUMP JUMPDEST DUP7 SSTORE JUMPDEST MLOAD DUP1 MLOAD PUSH1 0x1 DUP8 ADD SWAP2 PUSH1 0x1 PUSH1 0x1 PUSH1 0x40 SHL SUB DUP3 GT PUSH2 0x3B0 JUMPI PUSH2 0x1B85 DUP3 PUSH2 0x82F DUP6 SLOAD PUSH2 0x3500 JUMP JUMPDEST PUSH1 0x20 SWAP1 PUSH1 0x1F DUP4 GT PUSH1 0x1 EQ PUSH2 0x1DB7 JUMPI PUSH2 0x1BB5 SWAP3 SWAP2 PUSH1 0x0 SWAP2 DUP4 PUSH2 0xB53 JUMPI POP POP DUP2 PUSH1 0x1 SHL SWAP2 PUSH1 0x0 NOT SWAP1 PUSH1 0x3 SHL SHR NOT AND OR SWAP1 JUMP JUMPDEST SWAP1 SSTORE JUMPDEST MLOAD PUSH1 0x2 DUP6 ADD SSTORE MLOAD DUP1 MLOAD PUSH1 0x3 DUP6 ADD SWAP2 PUSH1 0x1 PUSH1 0x1 PUSH1 0x40 SHL SUB DUP3 GT PUSH2 0x3B0 JUMPI PUSH2 0x1BE2 DUP3 PUSH2 0x82F DUP6 SLOAD PUSH2 0x3500 JUMP JUMPDEST PUSH1 0x20 SWAP1 PUSH1 0x1F DUP4 GT PUSH1 0x1 EQ PUSH2 0x1D50 JUMPI PUSH2 0x1C12 SWAP3 SWAP2 PUSH1 0x0 SWAP2 DUP4 PUSH2 0xAE1 JUMPI POP POP DUP2 PUSH1 0x1 SHL SWAP2 PUSH1 0x0 NOT SWAP1 PUSH1 0x3 SHL SHR NOT AND OR SWAP1 JUMP JUMPDEST SWAP1 SSTORE JUMPDEST PUSH1 0x4 DUP4 ADD SWAP6 MLOAD SWAP6 DUP7 MLOAD PUSH1 0x1 PUSH1 0x1 PUSH1 0x40 SHL SUB DUP2 GT PUSH2 0x3B0 JUMPI PUSH2 0x1C3A DUP2 PUSH2 0x25B DUP5 SLOAD PUSH2 0x3500 JUMP JUMPDEST PUSH1 0x20 PUSH1 0x1F DUP3 GT PUSH1 0x1 EQ PUSH2 0x1CE6 JUMPI SWAP1 DUP1 PUSH2 0x1C6E SWAP3 PUSH1 0x7 SWAP9 SWAP10 SWAP11 PUSH1 0x0 SWAP3 PUSH2 0xAE1 JUMPI POP POP DUP2 PUSH1 0x1 SHL SWAP2 PUSH1 0x0 NOT SWAP1 PUSH1 0x3 SHL SHR NOT AND OR SWAP1 JUMP JUMPDEST SWAP1 SSTORE JUMPDEST MLOAD PUSH1 0x5 DUP4 ADD SSTORE MLOAD PUSH1 0x6 DUP3 ADD SSTORE SWAP3 MLOAD SWAP3 ADD DUP1 SLOAD PUSH1 0x1 PUSH1 0x1 PUSH1 0xA0 SHL SUB NOT AND PUSH1 0x1 PUSH1 0x1 PUSH1 0xA0 SHL SUB SWAP4 SWAP1 SWAP4 AND SWAP3 SWAP1 SWAP3 OR DUP3 SSTORE MLOAD PUSH1 0x3 DUP2 LT ISZERO PUSH2 0x701 JUMPI PUSH2 0x1CB2 SWAP2 PUSH2 0x378B JUMP JUMPDEST PUSH1 0x9 SLOAD PUSH1 0x1 PUSH1 0x40 SHL DUP2 LT ISZERO PUSH2 0x3B0 JUMPI PUSH2 0x9D7 DUP2 PUSH1 0x1 PUSH2 0x1CD6 SWAP4 ADD PUSH1 0x9 SSTORE PUSH1 0x9 PUSH2 0x310D JUMP JUMPDEST PUSH2 0x1CE1 PUSH1 0x5 SLOAD PUSH2 0x3743 JUMP JUMPDEST PUSH1 0x5 SSTORE STOP JUMPDEST PUSH1 0x1F NOT DUP3 AND SWAP9 DUP4 PUSH1 0x0 MSTORE DUP2 PUSH1 0x0 KECCAK256 SWAP10 PUSH1 0x0 JUMPDEST DUP2 DUP2 LT PUSH2 0x1D38 JUMPI POP SWAP2 PUSH1 0x7 SWAP9 SWAP10 SWAP11 SWAP2 DUP5 PUSH1 0x1 SWAP6 SWAP5 LT PUSH2 0x1D1F JUMPI JUMPDEST POP POP POP DUP2 SHL ADD SWAP1 SSTORE PUSH2 0x1C71 JUMP JUMPDEST ADD MLOAD PUSH1 0x0 NOT PUSH1 0xF8 DUP5 PUSH1 0x3 SHL AND SHR NOT AND SWAP1 SSTORE DUP10 DUP1 DUP1 PUSH2 0x1D12 JUMP JUMPDEST DUP4 DUP4 ADD MLOAD DUP13 SSTORE PUSH1 0x1 SWAP1 SWAP12 ADD SWAP11 PUSH1 0x20 SWAP4 DUP5 ADD SWAP4 ADD PUSH2 0x1CF8 JUMP JUMPDEST SWAP1 PUSH1 0x1F NOT DUP4 AND SWAP2 DUP5 PUSH1 0x0 MSTORE DUP2 PUSH1 0x0 KECCAK256 SWAP3 PUSH1 0x0 JUMPDEST DUP2 DUP2 LT PUSH2 0x1D9F JUMPI POP SWAP1 DUP5 PUSH1 0x1 SWAP6 SWAP5 SWAP4 SWAP3 LT PUSH2 0x1D86 JUMPI JUMPDEST POP POP POP DUP2 SHL ADD SWAP1 SSTORE PUSH2 0x1C15 JUMP JUMPDEST ADD MLOAD PUSH1 0x0 NOT PUSH1 0xF8 DUP5 PUSH1 0x3 SHL AND SHR NOT AND SWAP1 SSTORE DUP10 DUP1 DUP1 PUSH2 0x1D79 JUMP JUMPDEST SWAP3 SWAP4 PUSH1 0x20 PUSH1 0x1 DUP2 SWAP3 DUP8 DUP7 ADD MLOAD DUP2 SSTORE ADD SWAP6 ADD SWAP4 ADD PUSH2 0x1D63 JUMP JUMPDEST SWAP1 PUSH1 0x1F NOT DUP4 AND SWAP2 DUP5 PUSH1 0x0 MSTORE DUP2 PUSH1 0x0 KECCAK256 SWAP3 PUSH1 0x0 JUMPDEST DUP2 DUP2 LT PUSH2 0x1E06 JUMPI POP SWAP1 DUP5 PUSH1 0x1 SWAP6 SWAP5 SWAP4 SWAP3 LT PUSH2 0x1DED JUMPI JUMPDEST POP POP POP DUP2 SHL ADD SWAP1 SSTORE PUSH2 0x1BB8 JUMP JUMPDEST ADD MLOAD PUSH1 0x0 NOT PUSH1 0xF8 DUP5 PUSH1 0x3 SHL AND SHR NOT AND SWAP1 SSTORE DUP12 DUP1 DUP1 PUSH2 0x1DE0 JUMP JUMPDEST SWAP3 SWAP4 PUSH1 0x20 PUSH1 0x1 DUP2 SWAP3 DUP8 DUP7 ADD MLOAD DUP2 SSTORE ADD SWAP6 ADD SWAP4 ADD PUSH2 0x1DCA JUMP JUMPDEST SWAP1 PUSH1 0x1F NOT DUP4 AND SWAP2 DUP10 PUSH1 0x0 MSTORE DUP2 PUSH1 0x0 KECCAK256 SWAP3 PUSH1 0x0 JUMPDEST DUP2 DUP2 LT PUSH2 0x1E6D JUMPI POP SWAP1 DUP5 PUSH1 0x1 SWAP6 SWAP5 SWAP4 SWAP3 LT PUSH2 0x1E54 JUMPI JUMPDEST POP POP POP DUP2 SHL ADD DUP7 SSTORE PUSH2 0x1B61 JUMP JUMPDEST ADD MLOAD PUSH1 0x0 NOT PUSH1 0xF8 DUP5 PUSH1 0x3 SHL AND SHR NOT AND SWAP1 SSTORE DUP12 DUP1 DUP1 PUSH2 0x1E47 JUMP JUMPDEST SWAP3 SWAP4 PUSH1 0x20 PUSH1 0x1 DUP2 SWAP3 DUP8 DUP7 ADD MLOAD DUP2 SSTORE ADD SWAP6 ADD SWAP4 ADD PUSH2 0x1E31 JUMP JUMPDEST CALLVALUE PUSH2 0x48D JUMPI PUSH1 0x20 CALLDATASIZE PUSH1 0x3 NOT ADD SLT PUSH2 0x48D JUMPI PUSH2 0x1E9E PUSH2 0x33FD JUMP JUMPDEST PUSH1 0x2 SLOAD TIMESTAMP LT PUSH2 0x2052 JUMPI PUSH1 0x3 SLOAD TIMESTAMP GT PUSH2 0x201A JUMPI CALLER PUSH1 0x0 MSTORE PUSH1 0x7 PUSH1 0x20 MSTORE PUSH1 0x40 PUSH1 0x0 KECCAK256 PUSH1 0xFF PUSH1 0x7 DUP3 ADD SLOAD PUSH1 0xA0 SHR AND PUSH1 0x3 DUP2 LT ISZERO PUSH2 0x701 JUMPI PUSH1 0x1 SUB PUSH2 0x1FD5 JUMPI DUP1 SLOAD SWAP2 PUSH1 0xFF DUP4 AND PUSH2 0x1F97 JUMPI PUSH1 0x1 DUP1 PUSH1 0xA0 SHL SUB AND PUSH1 0x0 MSTORE PUSH1 0x8 PUSH1 0x20 MSTORE PUSH1 0x40 PUSH1 0x0 KECCAK256 SWAP1 PUSH1 0xFF PUSH1 0x7 DUP4 ADD SLOAD PUSH1 0xA0 SHR AND PUSH1 0x3 DUP2 LT ISZERO PUSH2 0x701 JUMPI PUSH1 0x1 SUB PUSH2 0x1F52 JUMPI PUSH1 0x1 PUSH1 0x6 SWAP4 PUSH1 0xFF NOT AND OR SWAP1 SSTORE ADD PUSH2 0x1F2C DUP2 SLOAD PUSH2 0x3743 JUMP JUMPDEST SWAP1 SSTORE PUSH1 0xF SLOAD PUSH1 0x1 PUSH1 0x40 SHL DUP2 LT ISZERO PUSH2 0x3B0 JUMPI PUSH2 0x9D7 DUP2 PUSH1 0x1 PUSH2 0x3AE SWAP4 ADD PUSH1 0xF SSTORE PUSH1 0xF PUSH2 0x310D JUMP JUMPDEST PUSH1 0x40 MLOAD PUSH3 0x461BCD PUSH1 0xE5 SHL DUP2 MSTORE PUSH1 0x20 PUSH1 0x4 DUP3 ADD MSTORE PUSH1 0x1A PUSH1 0x24 DUP3 ADD MSTORE PUSH32 0x43616E646964617465206973206E6F742061636365707465642E000000000000 PUSH1 0x44 DUP3 ADD MSTORE PUSH1 0x64 SWAP1 REVERT JUMPDEST PUSH1 0x40 MLOAD PUSH3 0x461BCD PUSH1 0xE5 SHL DUP2 MSTORE PUSH1 0x20 PUSH1 0x4 DUP3 ADD MSTORE PUSH1 0x16 PUSH1 0x24 DUP3 ADD MSTORE PUSH22 0x165BDD481A185D9948185B1C9958591E481D9BDD1959 PUSH1 0x52 SHL PUSH1 0x44 DUP3 ADD MSTORE PUSH1 0x64 SWAP1 REVERT JUMPDEST PUSH1 0x40 MLOAD PUSH3 0x461BCD PUSH1 0xE5 SHL DUP2 MSTORE PUSH1 0x20 PUSH1 0x4 DUP3 ADD MSTORE PUSH1 0x1E PUSH1 0x24 DUP3 ADD MSTORE PUSH32 0x596F7520617265206E6F74206120636F6E6669726D656420766F7465722E0000 PUSH1 0x44 DUP3 ADD MSTORE PUSH1 0x64 SWAP1 REVERT JUMPDEST PUSH1 0x40 MLOAD PUSH3 0x461BCD PUSH1 0xE5 SHL DUP2 MSTORE PUSH1 0x20 PUSH1 0x4 DUP3 ADD MSTORE PUSH1 0x10 PUSH1 0x24 DUP3 ADD MSTORE PUSH16 0x159BDD1A5B99C81A185CC8195B991959 PUSH1 0x82 SHL PUSH1 0x44 DUP3 ADD MSTORE PUSH1 0x64 SWAP1 REVERT JUMPDEST PUSH1 0x40 MLOAD PUSH3 0x461BCD PUSH1 0xE5 SHL DUP2 MSTORE PUSH1 0x20 PUSH1 0x4 DUP3 ADD MSTORE PUSH1 0x1A PUSH1 0x24 DUP3 ADD MSTORE PUSH32 0x566F74696E6720686173206E6F74207374617274656420796574000000000000 PUSH1 0x44 DUP3 ADD MSTORE PUSH1 0x64 SWAP1 REVERT JUMPDEST CALLVALUE PUSH2 0x48D JUMPI PUSH1 0x0 CALLDATASIZE PUSH1 0x3 NOT ADD SLT PUSH2 0x48D JUMPI PUSH1 0xA SLOAD PUSH2 0x20B4 DUP2 PUSH2 0x36F3 JUMP JUMPDEST SWAP1 PUSH1 0x0 JUMPDEST DUP2 DUP2 LT PUSH2 0x20CD JUMPI PUSH1 0x40 MLOAD DUP1 PUSH2 0x6B8 DUP6 DUP3 PUSH2 0x330A JUMP JUMPDEST DUP1 PUSH2 0x20D9 PUSH1 0x1 SWAP3 PUSH2 0x30D7 JUMP JUMPDEST DUP4 DUP1 PUSH1 0xA0 SHL SUB SWAP2 SLOAD SWAP1 PUSH1 0x3 SHL SHR AND PUSH1 0x0 MSTORE PUSH1 0x7 PUSH1 0x20 MSTORE PUSH1 0x40 PUSH1 0x0 KECCAK256 PUSH2 0x2108 PUSH1 0xFF PUSH1 0x7 PUSH1 0x40 MLOAD SWAP4 PUSH2 0x1257 DUP6 PUSH2 0x336A JUMP JUMPDEST PUSH2 0x2112 DUP3 DUP7 PUSH2 0x368C JUMP JUMPDEST MSTORE PUSH2 0x211D DUP2 DUP6 PUSH2 0x368C JUMP JUMPDEST POP ADD PUSH2 0x20B8 JUMP JUMPDEST CALLVALUE PUSH2 0x48D JUMPI PUSH1 0x20 CALLDATASIZE PUSH1 0x3 NOT ADD SLT PUSH2 0x48D JUMPI PUSH1 0x4 CALLDATALOAD PUSH1 0xF SLOAD DUP2 LT ISZERO PUSH2 0x48D JUMPI PUSH2 0x11CD PUSH1 0x20 SWAP2 PUSH2 0x30F2 JUMP JUMPDEST CALLVALUE PUSH2 0x48D JUMPI PUSH1 0x20 CALLDATASIZE PUSH1 0x3 NOT ADD SLT PUSH2 0x48D JUMPI PUSH1 0x4 CALLDATALOAD PUSH1 0xD SLOAD DUP2 LT ISZERO PUSH2 0x48D JUMPI PUSH2 0x11CD PUSH1 0x20 SWAP2 PUSH2 0x306B JUMP JUMPDEST CALLVALUE PUSH2 0x48D JUMPI PUSH1 0x20 CALLDATASIZE PUSH1 0x3 NOT ADD SLT PUSH2 0x48D JUMPI PUSH1 0x4 CALLDATALOAD PUSH2 0x219F PUSH1 0x1 DUP1 PUSH1 0xA0 SHL SUB PUSH1 0x0 SLOAD AND CALLER EQ PUSH2 0x3752 JUMP JUMPDEST PUSH1 0x4 SLOAD PUSH2 0x2218 JUMPI PUSH1 0x3 SLOAD DUP2 GT ISZERO PUSH2 0x21B5 JUMPI PUSH1 0x4 SSTORE STOP JUMPDEST PUSH1 0x40 MLOAD PUSH3 0x461BCD PUSH1 0xE5 SHL DUP2 MSTORE PUSH1 0x20 PUSH1 0x4 DUP3 ADD MSTORE PUSH1 0x35 PUSH1 0x24 DUP3 ADD MSTORE PUSH32 0x526573756C74207075626C69636174696F6E2074696D65206D75737420626520 PUSH1 0x44 DUP3 ADD MSTORE PUSH21 0x616674657220766F74696E6720656E642074696D65 PUSH1 0x58 SHL PUSH1 0x64 DUP3 ADD MSTORE PUSH1 0x84 SWAP1 REVERT JUMPDEST PUSH1 0x40 MLOAD PUSH3 0x461BCD PUSH1 0xE5 SHL DUP2 MSTORE PUSH1 0x20 PUSH1 0x4 DUP3 ADD MSTORE PUSH1 0x23 PUSH1 0x24 DUP3 ADD MSTORE PUSH32 0x526573756C74207075626C69636174696F6E2074696D6520616C726561647920 PUSH1 0x44 DUP3 ADD MSTORE PUSH3 0x1CD95D PUSH1 0xEA SHL PUSH1 0x64 DUP3 ADD MSTORE PUSH1 0x84 SWAP1 REVERT JUMPDEST CALLVALUE PUSH2 0x48D JUMPI PUSH2 0x2277 CALLDATASIZE PUSH2 0x3454 JUMP JUMPDEST SWAP1 PUSH2 0x228D PUSH1 0x1 DUP1 PUSH1 0xA0 SHL SUB PUSH1 0x0 SLOAD AND CALLER EQ PUSH2 0x3752 JUMP JUMPDEST PUSH1 0x1 PUSH1 0x1 PUSH1 0xA0 SHL SUB DUP2 DUP2 AND PUSH1 0x0 DUP2 DUP2 MSTORE PUSH1 0x8 PUSH1 0x20 MSTORE PUSH1 0x40 SWAP1 KECCAK256 PUSH1 0x7 DUP2 ADD DUP1 SLOAD SWAP3 SWAP5 SWAP4 SWAP1 SWAP3 AND ISZERO PUSH2 0x243A JUMPI DUP2 SLOAD PUSH1 0xFF PUSH1 0xA0 SHL NOT AND PUSH1 0x1 PUSH1 0xA1 SHL OR SWAP1 SWAP2 SSTORE DUP4 MLOAD PUSH1 0x1 SWAP2 SWAP1 SWAP2 ADD SWAP1 PUSH1 0x1 PUSH1 0x1 PUSH1 0x40 SHL SUB DUP2 GT PUSH2 0x3B0 JUMPI PUSH2 0x22EE DUP2 PUSH2 0x25B DUP5 SLOAD PUSH2 0x3500 JUMP JUMPDEST PUSH1 0x20 SWAP5 PUSH1 0x1F DUP3 GT PUSH1 0x1 EQ PUSH2 0x23D5 JUMPI PUSH2 0x2321 SWAP3 SWAP4 SWAP5 SWAP6 DUP3 SWAP2 PUSH1 0x0 SWAP3 PUSH2 0x1884 JUMPI POP POP DUP2 PUSH1 0x1 SHL SWAP2 PUSH1 0x0 NOT SWAP1 PUSH1 0x3 SHL SHR NOT AND OR SWAP1 JUMP JUMPDEST SWAP1 SSTORE JUMPDEST PUSH1 0xD SLOAD SWAP1 PUSH1 0x1 PUSH1 0x40 SHL DUP3 LT ISZERO PUSH2 0x3B0 JUMPI PUSH2 0x2BD DUP3 PUSH1 0x1 PUSH2 0x2349 SWAP5 ADD PUSH1 0xD SSTORE PUSH1 0xD PUSH2 0x310D JUMP JUMPDEST PUSH1 0x0 JUMPDEST PUSH1 0xB SLOAD DUP1 DUP3 LT ISZERO PUSH2 0x3AE JUMPI DUP3 PUSH2 0x2361 DUP4 PUSH2 0x30BC JUMP JUMPDEST SWAP1 SLOAD PUSH1 0x3 SWAP2 SWAP1 SWAP2 SHL SHR PUSH1 0x1 PUSH1 0x1 PUSH1 0xA0 SHL SUB AND EQ PUSH2 0x2381 JUMPI POP PUSH1 0x1 ADD PUSH2 0x234C JUMP JUMPDEST PUSH1 0x0 NOT DUP2 ADD SWAP3 POP DUP3 GT PUSH2 0x398 JUMPI PUSH2 0x2BD PUSH2 0x239D PUSH2 0x23B5 SWAP4 PUSH2 0x30BC JUMP JUMPDEST SWAP1 SLOAD PUSH1 0x3 SWAP2 SWAP1 SWAP2 SHL SHR PUSH1 0x1 PUSH1 0x1 PUSH1 0xA0 SHL SUB AND SWAP2 PUSH2 0x30BC JUMP JUMPDEST PUSH1 0xB SLOAD DUP1 ISZERO PUSH2 0x382 JUMPI PUSH1 0x0 NOT ADD PUSH2 0x23D0 PUSH2 0x368 DUP3 PUSH1 0xB PUSH2 0x310D JUMP JUMPDEST PUSH1 0xB SSTORE STOP JUMPDEST PUSH1 0x1F NOT DUP3 AND SWAP6 DUP4 PUSH1 0x0 MSTORE DUP1 PUSH1 0x0 KECCAK256 SWAP2 PUSH1 0x0 JUMPDEST DUP9 DUP2 LT PUSH2 0x2422 JUMPI POP DUP4 PUSH1 0x1 SWAP6 SWAP7 SWAP8 SWAP9 LT PUSH2 0x2409 JUMPI JUMPDEST POP POP POP DUP2 SHL ADD SWAP1 SSTORE PUSH2 0x2324 JUMP JUMPDEST ADD MLOAD PUSH1 0x0 NOT PUSH1 0xF8 DUP5 PUSH1 0x3 SHL AND SHR NOT AND SWAP1 SSTORE DUP6 DUP1 DUP1 PUSH2 0x23FC JUMP JUMPDEST SWAP2 SWAP3 PUSH1 0x20 PUSH1 0x1 DUP2 SWAP3 DUP7 DUP6 ADD MLOAD DUP2 SSTORE ADD SWAP5 ADD SWAP3 ADD PUSH2 0x23E7 JUMP JUMPDEST PUSH1 0x40 MLOAD PUSH3 0x461BCD PUSH1 0xE5 SHL DUP2 MSTORE PUSH1 0x20 PUSH1 0x4 DUP3 ADD MSTORE PUSH1 0x1B PUSH1 0x24 DUP3 ADD MSTORE PUSH32 0x4E6F2063616E646964617465206461746120617661696C61626C650000000000 PUSH1 0x44 DUP3 ADD MSTORE PUSH1 0x64 SWAP1 REVERT JUMPDEST CALLVALUE PUSH2 0x48D JUMPI PUSH1 0x20 CALLDATASIZE PUSH1 0x3 NOT ADD SLT PUSH2 0x48D JUMPI PUSH2 0x2498 PUSH2 0x33FD JUMP JUMPDEST PUSH2 0x24A0 PUSH2 0x36AC JUMP JUMPDEST POP PUSH1 0x1 DUP1 PUSH1 0xA0 SHL SUB AND PUSH1 0x0 MSTORE PUSH1 0x7 PUSH1 0x20 MSTORE PUSH1 0x40 PUSH1 0x0 KECCAK256 PUSH1 0x7 PUSH1 0x40 MLOAD SWAP2 PUSH2 0x24C5 DUP4 PUSH2 0x336A JUMP JUMPDEST PUSH1 0xFF DUP2 SLOAD AND ISZERO ISZERO DUP4 MSTORE PUSH2 0x24DA PUSH1 0x1 DUP3 ADD PUSH2 0x353A JUMP JUMPDEST PUSH1 0x20 DUP5 ADD MSTORE PUSH1 0x2 DUP2 ADD SLOAD PUSH1 0x40 DUP5 ADD MSTORE PUSH2 0x24F5 PUSH1 0x3 DUP3 ADD PUSH2 0x353A JUMP JUMPDEST PUSH1 0x60 DUP5 ADD MSTORE PUSH2 0x2506 PUSH1 0x4 DUP3 ADD PUSH2 0x353A JUMP JUMPDEST PUSH1 0x80 DUP5 ADD MSTORE PUSH2 0x2517 PUSH1 0x5 DUP3 ADD PUSH2 0x353A JUMP JUMPDEST PUSH1 0xA0 DUP5 ADD MSTORE PUSH1 0x6 DUP2 ADD SLOAD PUSH1 0xC0 DUP5 ADD MSTORE ADD SLOAD PUSH1 0xE0 DUP3 ADD PUSH1 0x1 DUP1 PUSH1 0xA0 SHL SUB DUP3 AND DUP2 MSTORE PUSH2 0x254C PUSH1 0xFF PUSH2 0x100 DUP6 ADD SWAP4 PUSH1 0xA0 SHR AND DUP4 PUSH2 0x36A0 JUMP JUMPDEST MLOAD PUSH1 0x1 PUSH1 0x1 PUSH1 0xA0 SHL SUB AND ISZERO PUSH2 0x25C2 JUMPI MLOAD PUSH1 0x3 DUP2 LT ISZERO PUSH2 0x701 JUMPI PUSH1 0x0 NOT ADD PUSH2 0x2585 JUMPI PUSH2 0x6B8 SWAP1 PUSH1 0x40 MLOAD SWAP2 DUP3 SWAP2 PUSH1 0x20 DUP4 MSTORE PUSH1 0x20 DUP4 ADD SWAP1 PUSH2 0x326F JUMP JUMPDEST PUSH1 0x40 MLOAD PUSH3 0x461BCD PUSH1 0xE5 SHL DUP2 MSTORE PUSH1 0x20 PUSH1 0x4 DUP3 ADD MSTORE PUSH1 0x15 PUSH1 0x24 DUP3 ADD MSTORE PUSH21 0x159BDD195C881A5CC81B9BDD081858D8D95C1D1959 PUSH1 0x5A SHL PUSH1 0x44 DUP3 ADD MSTORE PUSH1 0x64 SWAP1 REVERT JUMPDEST PUSH1 0x40 MLOAD PUSH3 0x461BCD PUSH1 0xE5 SHL DUP2 MSTORE PUSH1 0x20 PUSH1 0x4 DUP3 ADD MSTORE PUSH1 0xF PUSH1 0x24 DUP3 ADD MSTORE PUSH15 0x159BDD195C881B9BDD08199BDD5B99 PUSH1 0x8A SHL PUSH1 0x44 DUP3 ADD MSTORE PUSH1 0x64 SWAP1 REVERT JUMPDEST CALLVALUE PUSH2 0x48D JUMPI PUSH1 0x20 CALLDATASIZE PUSH1 0x3 NOT ADD SLT PUSH2 0x48D JUMPI PUSH1 0x4 CALLDATALOAD PUSH1 0xC SLOAD DUP2 LT ISZERO PUSH2 0x48D JUMPI PUSH2 0x11CD PUSH1 0x20 SWAP2 PUSH2 0x3086 JUMP JUMPDEST CALLVALUE PUSH2 0x48D JUMPI PUSH2 0x2630 CALLDATASIZE PUSH2 0x3413 JUMP JUMPDEST PUSH1 0xA SLOAD SWAP1 PUSH1 0x20 DUP4 ADD SWAP1 PUSH1 0x0 DUP1 JUMPDEST DUP5 DUP2 LT PUSH2 0x278C JUMPI POP PUSH2 0x264E SWAP1 PUSH2 0x36F3 JUMP JUMPDEST SWAP4 PUSH1 0x0 SWAP2 PUSH1 0x0 JUMPDEST DUP6 DUP2 LT PUSH2 0x266A JUMPI PUSH1 0x40 MLOAD DUP1 PUSH2 0x6B8 DUP10 DUP3 PUSH2 0x330A JUMP JUMPDEST PUSH2 0x2673 DUP2 PUSH2 0x30D7 JUMP JUMPDEST PUSH1 0x1 DUP1 PUSH1 0xA0 SHL SUB SWAP2 SLOAD SWAP1 PUSH1 0x3 SHL SHR AND PUSH1 0x0 MSTORE PUSH1 0x7 PUSH1 0x20 MSTORE PUSH1 0x40 PUSH1 0x0 KECCAK256 PUSH1 0x40 MLOAD SWAP1 PUSH2 0x269C DUP3 PUSH2 0x336A JUMP JUMPDEST PUSH1 0xFF DUP2 SLOAD AND ISZERO ISZERO DUP3 MSTORE PUSH1 0x7 PUSH2 0x26B3 PUSH1 0x1 DUP4 ADD PUSH2 0x353A JUMP JUMPDEST SWAP2 PUSH1 0x20 DUP5 ADD SWAP3 DUP4 MSTORE PUSH1 0x2 DUP2 ADD SLOAD PUSH1 0x40 DUP6 ADD MSTORE PUSH2 0x26D1 PUSH1 0x3 DUP3 ADD PUSH2 0x353A JUMP JUMPDEST PUSH1 0x60 DUP6 ADD MSTORE PUSH2 0x26E2 PUSH1 0x4 DUP3 ADD PUSH2 0x353A JUMP JUMPDEST PUSH1 0x80 DUP6 ADD MSTORE PUSH2 0x26F3 PUSH1 0x5 DUP3 ADD PUSH2 0x353A JUMP JUMPDEST PUSH1 0xA0 DUP6 ADD MSTORE PUSH1 0x6 DUP2 ADD SLOAD PUSH1 0xC0 DUP6 ADD MSTORE ADD SLOAD SWAP1 PUSH2 0x2728 PUSH1 0xFF PUSH1 0xE0 DUP6 ADD SWAP4 PUSH1 0x1 DUP1 PUSH1 0xA0 SHL SUB DUP2 AND DUP6 MSTORE PUSH1 0xA0 SHR AND PUSH2 0x100 DUP6 ADD PUSH2 0x36A0 JUMP JUMPDEST MLOAD PUSH1 0x20 DUP2 MLOAD SWAP2 ADD KECCAK256 DUP6 MLOAD DUP9 KECCAK256 EQ SWAP1 DUP2 PUSH2 0x2775 JUMPI JUMPDEST POP PUSH2 0x274B JUMPI JUMPDEST POP PUSH1 0x1 ADD PUSH2 0x2655 JUMP JUMPDEST DUP5 PUSH2 0x276E SWAP2 PUSH2 0x275D PUSH1 0x1 SWAP5 SWAP8 DUP12 PUSH2 0x368C JUMP JUMPDEST MSTORE PUSH2 0x2768 DUP2 DUP11 PUSH2 0x368C JUMP JUMPDEST POP PUSH2 0x3743 JUMP JUMPDEST SWAP4 SWAP1 PUSH2 0x2742 JUMP JUMPDEST MLOAD PUSH1 0x1 PUSH1 0x1 PUSH1 0xA0 SHL SUB DUP6 DUP2 AND SWAP2 AND EQ SWAP1 POP DUP10 PUSH2 0x273C JUMP JUMPDEST PUSH2 0x2795 DUP2 PUSH2 0x30D7 JUMP JUMPDEST PUSH1 0x1 DUP1 PUSH1 0xA0 SHL SUB SWAP2 SLOAD SWAP1 PUSH1 0x3 SHL SHR AND PUSH1 0x0 MSTORE PUSH1 0x7 PUSH1 0x20 MSTORE PUSH1 0x40 PUSH1 0x0 KECCAK256 PUSH1 0x40 MLOAD SWAP1 PUSH2 0x27BE DUP3 PUSH2 0x336A JUMP JUMPDEST PUSH1 0xFF DUP2 SLOAD AND ISZERO ISZERO DUP3 MSTORE PUSH2 0x284A PUSH1 0x7 PUSH2 0x27D8 PUSH1 0x1 DUP5 ADD PUSH2 0x353A JUMP JUMPDEST SWAP3 PUSH1 0x20 DUP6 ADD SWAP4 DUP5 MSTORE PUSH1 0x2 DUP2 ADD SLOAD PUSH1 0x40 DUP7 ADD MSTORE PUSH2 0x27F6 PUSH1 0x3 DUP3 ADD PUSH2 0x353A JUMP JUMPDEST PUSH1 0x60 DUP7 ADD MSTORE PUSH2 0x2807 PUSH1 0x4 DUP3 ADD PUSH2 0x353A JUMP JUMPDEST PUSH1 0x80 DUP7 ADD MSTORE PUSH2 0x2818 PUSH1 0x5 DUP3 ADD PUSH2 0x353A JUMP JUMPDEST PUSH1 0xA0 DUP7 ADD MSTORE PUSH1 0x6 DUP2 ADD SLOAD PUSH1 0xC0 DUP7 ADD MSTORE ADD SLOAD SWAP3 PUSH2 0x100 PUSH1 0xFF PUSH1 0xE0 DUP4 ADD SWAP6 PUSH1 0x1 DUP1 PUSH1 0xA0 SHL SUB DUP2 AND DUP8 MSTORE PUSH1 0xA0 SHR AND SWAP2 ADD PUSH2 0x36A0 JUMP JUMPDEST MLOAD PUSH1 0x20 DUP2 MLOAD SWAP2 ADD KECCAK256 DUP8 MLOAD DUP7 KECCAK256 EQ SWAP1 DUP2 PUSH2 0x2880 JUMPI JUMPDEST POP PUSH2 0x286C JUMPI JUMPDEST PUSH1 0x1 ADD PUSH2 0x263D JUMP JUMPDEST SWAP1 PUSH2 0x2878 PUSH1 0x1 SWAP2 PUSH2 0x3743 JUMP JUMPDEST SWAP2 SWAP1 POP PUSH2 0x2864 JUMP JUMPDEST MLOAD PUSH1 0x1 PUSH1 0x1 PUSH1 0xA0 SHL SUB DUP6 DUP2 AND SWAP2 AND EQ SWAP1 POP DUP8 PUSH2 0x285E JUMP JUMPDEST CALLVALUE PUSH2 0x48D JUMPI PUSH2 0x28A5 CALLDATASIZE PUSH2 0x3454 JUMP JUMPDEST SWAP1 PUSH2 0x28BB PUSH1 0x1 DUP1 PUSH1 0xA0 SHL SUB PUSH1 0x0 SLOAD AND CALLER EQ PUSH2 0x3752 JUMP JUMPDEST PUSH1 0x1 PUSH1 0x1 PUSH1 0xA0 SHL SUB DUP2 DUP2 AND PUSH1 0x0 DUP2 DUP2 MSTORE PUSH1 0x7 PUSH1 0x20 DUP2 SWAP1 MSTORE PUSH1 0x40 SWAP1 SWAP2 KECCAK256 SWAP1 DUP2 ADD DUP1 SLOAD SWAP3 SWAP5 SWAP4 SWAP1 SWAP3 AND ISZERO PUSH2 0x2A6A JUMPI DUP2 SLOAD PUSH1 0xFF PUSH1 0xA0 SHL NOT AND PUSH1 0x1 PUSH1 0xA1 SHL OR SWAP1 SWAP2 SSTORE DUP4 MLOAD PUSH1 0x5 SWAP2 SWAP1 SWAP2 ADD SWAP1 PUSH1 0x1 PUSH1 0x1 PUSH1 0x40 SHL SUB DUP2 GT PUSH2 0x3B0 JUMPI PUSH2 0x291E DUP2 PUSH2 0x25B DUP5 SLOAD PUSH2 0x3500 JUMP JUMPDEST PUSH1 0x20 SWAP5 PUSH1 0x1F DUP3 GT PUSH1 0x1 EQ PUSH2 0x2A05 JUMPI PUSH2 0x2951 SWAP3 SWAP4 SWAP5 SWAP6 DUP3 SWAP2 PUSH1 0x0 SWAP3 PUSH2 0x1884 JUMPI POP POP DUP2 PUSH1 0x1 SHL SWAP2 PUSH1 0x0 NOT SWAP1 PUSH1 0x3 SHL SHR NOT AND OR SWAP1 JUMP JUMPDEST SWAP1 SSTORE JUMPDEST PUSH1 0xE SLOAD SWAP1 PUSH1 0x1 PUSH1 0x40 SHL DUP3 LT ISZERO PUSH2 0x3B0 JUMPI PUSH2 0x2BD DUP3 PUSH1 0x1 PUSH2 0x2979 SWAP5 ADD PUSH1 0xE SSTORE PUSH1 0xE PUSH2 0x310D JUMP JUMPDEST PUSH1 0x0 JUMPDEST PUSH1 0xC SLOAD DUP1 DUP3 LT ISZERO PUSH2 0x3AE JUMPI DUP3 PUSH2 0x2991 DUP4 PUSH2 0x3086 JUMP JUMPDEST SWAP1 SLOAD PUSH1 0x3 SWAP2 SWAP1 SWAP2 SHL SHR PUSH1 0x1 PUSH1 0x1 PUSH1 0xA0 SHL SUB AND EQ PUSH2 0x29B1 JUMPI POP PUSH1 0x1 ADD PUSH2 0x297C JUMP JUMPDEST PUSH1 0x0 NOT DUP2 ADD SWAP3 POP DUP3 GT PUSH2 0x398 JUMPI PUSH2 0x2BD PUSH2 0x29CD PUSH2 0x29E5 SWAP4 PUSH2 0x3086 JUMP JUMPDEST SWAP1 SLOAD PUSH1 0x3 SWAP2 SWAP1 SWAP2 SHL SHR PUSH1 0x1 PUSH1 0x1 PUSH1 0xA0 SHL SUB AND SWAP2 PUSH2 0x3086 JUMP JUMPDEST PUSH1 0xC SLOAD DUP1 ISZERO PUSH2 0x382 JUMPI PUSH1 0x0 NOT ADD PUSH2 0x2A00 PUSH2 0x368 DUP3 PUSH1 0xC PUSH2 0x310D JUMP JUMPDEST PUSH1 0xC SSTORE STOP JUMPDEST PUSH1 0x1F NOT DUP3 AND SWAP6 DUP4 PUSH1 0x0 MSTORE DUP1 PUSH1 0x0 KECCAK256 SWAP2 PUSH1 0x0 JUMPDEST DUP9 DUP2 LT PUSH2 0x2A52 JUMPI POP DUP4 PUSH1 0x1 SWAP6 SWAP7 SWAP8 SWAP9 LT PUSH2 0x2A39 JUMPI JUMPDEST POP POP POP DUP2 SHL ADD SWAP1 SSTORE PUSH2 0x2954 JUMP JUMPDEST ADD MLOAD PUSH1 0x0 NOT PUSH1 0xF8 DUP5 PUSH1 0x3 SHL AND SHR NOT AND SWAP1 SSTORE DUP6 DUP1 DUP1 PUSH2 0x2A2C JUMP JUMPDEST SWAP2 SWAP3 PUSH1 0x20 PUSH1 0x1 DUP2 SWAP3 DUP7 DUP6 ADD MLOAD DUP2 SSTORE ADD SWAP5 ADD SWAP3 ADD PUSH2 0x2A17 JUMP JUMPDEST PUSH1 0x40 MLOAD PUSH3 0x461BCD PUSH1 0xE5 SHL DUP2 MSTORE PUSH1 0x20 PUSH1 0x4 DUP3 ADD MSTORE PUSH1 0x17 PUSH1 0x24 DUP3 ADD MSTORE PUSH32 0x4E6F20766F746572206461746120617661696C61626C65000000000000000000 PUSH1 0x44 DUP3 ADD MSTORE PUSH1 0x64 SWAP1 REVERT JUMPDEST CALLVALUE PUSH2 0x48D JUMPI PUSH2 0x2ABD CALLDATASIZE PUSH2 0x3413 JUMP JUMPDEST PUSH1 0x9 SLOAD PUSH1 0x20 DUP4 ADD SWAP3 SWAP1 SWAP2 PUSH1 0x0 DUP1 JUMPDEST DUP5 DUP2 LT PUSH2 0x2C01 JUMPI POP PUSH2 0x2ADC SWAP1 PUSH2 0x363C JUMP JUMPDEST SWAP4 PUSH1 0x0 SWAP2 PUSH1 0x0 JUMPDEST DUP6 DUP2 LT PUSH2 0x2AF8 JUMPI PUSH1 0x40 MLOAD DUP1 PUSH2 0x6B8 DUP10 DUP3 PUSH2 0x320F JUMP JUMPDEST PUSH2 0x2B01 DUP2 PUSH2 0x303A JUMP JUMPDEST PUSH1 0x1 DUP1 PUSH1 0xA0 SHL SUB SWAP2 SLOAD SWAP1 PUSH1 0x3 SHL SHR AND PUSH1 0x0 MSTORE PUSH1 0x8 PUSH1 0x20 MSTORE PUSH1 0x40 PUSH1 0x0 KECCAK256 PUSH1 0x7 PUSH1 0x40 MLOAD SWAP2 PUSH2 0x2B2C DUP4 PUSH2 0x336A JUMP JUMPDEST PUSH2 0x2B35 DUP2 PUSH2 0x353A JUMP JUMPDEST DUP4 MSTORE PUSH2 0x2B43 PUSH1 0x1 DUP3 ADD PUSH2 0x353A JUMP JUMPDEST PUSH1 0x20 DUP5 ADD MSTORE PUSH1 0x2 DUP2 ADD SLOAD PUSH1 0x40 DUP5 ADD MSTORE PUSH2 0x2B5E PUSH1 0x3 DUP3 ADD PUSH2 0x353A JUMP JUMPDEST PUSH1 0x60 DUP5 ADD MSTORE PUSH2 0x2B6F PUSH1 0x4 DUP3 ADD PUSH2 0x353A JUMP JUMPDEST PUSH1 0x80 DUP5 ADD MSTORE PUSH1 0x5 DUP2 ADD SLOAD PUSH1 0xA0 DUP5 ADD MSTORE PUSH1 0x6 DUP2 ADD SLOAD PUSH1 0xC0 DUP5 ADD MSTORE ADD SLOAD PUSH2 0x2BAD PUSH1 0xFF PUSH1 0xE0 DUP5 ADD SWAP3 PUSH1 0x1 DUP1 PUSH1 0xA0 SHL SUB DUP2 AND DUP5 MSTORE PUSH1 0xA0 SHR AND PUSH2 0x100 DUP5 ADD PUSH2 0x36A0 JUMP JUMPDEST DUP2 MLOAD PUSH1 0x20 DUP2 MLOAD SWAP2 ADD KECCAK256 DUP8 MLOAD DUP7 KECCAK256 EQ SWAP1 DUP2 PUSH2 0x2BEA JUMPI JUMPDEST POP PUSH2 0x2BD1 JUMPI JUMPDEST POP PUSH1 0x1 ADD PUSH2 0x2AE3 JUMP JUMPDEST DUP5 PUSH2 0x2BE3 SWAP2 PUSH2 0x275D PUSH1 0x1 SWAP5 SWAP8 DUP12 PUSH2 0x368C JUMP JUMPDEST SWAP4 SWAP1 PUSH2 0x2BC8 JUMP JUMPDEST MLOAD PUSH1 0x1 PUSH1 0x1 PUSH1 0xA0 SHL SUB DUP6 DUP2 AND SWAP2 AND EQ SWAP1 POP DUP10 PUSH2 0x2BC2 JUMP JUMPDEST PUSH2 0x2C0A DUP2 PUSH2 0x303A JUMP JUMPDEST PUSH1 0x1 DUP1 PUSH1 0xA0 SHL SUB SWAP2 SLOAD SWAP1 PUSH1 0x3 SHL SHR AND PUSH1 0x0 MSTORE PUSH1 0x8 PUSH1 0x20 MSTORE PUSH1 0x40 PUSH1 0x0 KECCAK256 PUSH1 0x7 PUSH1 0x40 MLOAD SWAP2 PUSH2 0x2C35 DUP4 PUSH2 0x336A JUMP JUMPDEST PUSH2 0x2C3E DUP2 PUSH2 0x353A JUMP JUMPDEST DUP4 MSTORE PUSH2 0x2C4C PUSH1 0x1 DUP3 ADD PUSH2 0x353A JUMP JUMPDEST PUSH1 0x20 DUP5 ADD MSTORE PUSH1 0x2 DUP2 ADD SLOAD PUSH1 0x40 DUP5 ADD MSTORE PUSH2 0x2C67 PUSH1 0x3 DUP3 ADD PUSH2 0x353A JUMP JUMPDEST PUSH1 0x60 DUP5 ADD MSTORE PUSH2 0x2C78 PUSH1 0x4 DUP3 ADD PUSH2 0x353A JUMP JUMPDEST PUSH1 0x80 DUP5 ADD MSTORE PUSH1 0x5 DUP2 ADD SLOAD PUSH1 0xA0 DUP5 ADD MSTORE PUSH1 0x6 DUP2 ADD SLOAD PUSH1 0xC0 DUP5 ADD MSTORE ADD SLOAD SWAP1 PUSH2 0x2CB7 PUSH1 0xFF PUSH1 0xE0 DUP4 ADD SWAP4 PUSH1 0x1 DUP1 PUSH1 0xA0 SHL SUB DUP2 AND DUP6 MSTORE PUSH1 0xA0 SHR AND PUSH2 0x100 DUP4 ADD PUSH2 0x36A0 JUMP JUMPDEST MLOAD PUSH1 0x20 DUP2 MLOAD SWAP2 ADD KECCAK256 DUP6 MLOAD DUP9 KECCAK256 EQ SWAP1 DUP2 PUSH2 0x2CED JUMPI JUMPDEST POP PUSH2 0x2CD9 JUMPI JUMPDEST PUSH1 0x1 ADD PUSH2 0x2ACB JUMP JUMPDEST SWAP1 PUSH2 0x2CE5 PUSH1 0x1 SWAP2 PUSH2 0x3743 JUMP JUMPDEST SWAP2 SWAP1 POP PUSH2 0x2CD1 JUMP JUMPDEST MLOAD PUSH1 0x1 PUSH1 0x1 PUSH1 0xA0 SHL SUB DUP6 DUP2 AND SWAP2 AND EQ SWAP1 POP DUP8 PUSH2 0x2CCB JUMP JUMPDEST CALLVALUE PUSH2 0x48D JUMPI PUSH1 0x0 CALLDATASIZE PUSH1 0x3 NOT ADD SLT PUSH2 0x48D JUMPI PUSH1 0xB SLOAD PUSH2 0x2D21 DUP2 PUSH2 0x363C JUMP JUMPDEST SWAP1 PUSH1 0x0 JUMPDEST DUP2 DUP2 LT PUSH2 0x2D3A JUMPI PUSH1 0x40 MLOAD DUP1 PUSH2 0x6B8 DUP6 DUP3 PUSH2 0x320F JUMP JUMPDEST DUP1 PUSH2 0x2D46 PUSH1 0x1 SWAP3 PUSH2 0x30BC JUMP JUMPDEST DUP4 DUP1 PUSH1 0xA0 SHL SUB SWAP2 SLOAD SWAP1 PUSH1 0x3 SHL SHR AND PUSH1 0x0 MSTORE PUSH1 0x8 PUSH1 0x20 MSTORE PUSH1 0x40 PUSH1 0x0 KECCAK256 PUSH2 0x2DED PUSH1 0xFF PUSH1 0x7 PUSH1 0x40 MLOAD SWAP4 PUSH2 0x2D75 DUP6 PUSH2 0x336A JUMP JUMPDEST PUSH2 0x2D7E DUP2 PUSH2 0x353A JUMP JUMPDEST DUP6 MSTORE PUSH2 0x2D8B DUP8 DUP3 ADD PUSH2 0x353A JUMP JUMPDEST PUSH1 0x20 DUP7 ADD MSTORE PUSH1 0x2 DUP2 ADD SLOAD PUSH1 0x40 DUP7 ADD MSTORE PUSH2 0x2DA6 PUSH1 0x3 DUP3 ADD PUSH2 0x353A JUMP JUMPDEST PUSH1 0x60 DUP7 ADD MSTORE PUSH2 0x2DB7 PUSH1 0x4 DUP3 ADD PUSH2 0x353A JUMP JUMPDEST PUSH1 0x80 DUP7 ADD MSTORE PUSH1 0x5 DUP2 ADD SLOAD PUSH1 0xA0 DUP7 ADD MSTORE PUSH1 0x6 DUP2 ADD SLOAD PUSH1 0xC0 DUP7 ADD MSTORE ADD SLOAD DUP6 DUP1 PUSH1 0xA0 SHL SUB DUP2 AND PUSH1 0xE0 DUP6 ADD MSTORE PUSH1 0xA0 SHR AND PUSH2 0x100 DUP4 ADD PUSH2 0x36A0 JUMP JUMPDEST PUSH2 0x2DF7 DUP3 DUP7 PUSH2 0x368C JUMP JUMPDEST MSTORE PUSH2 0x2E02 DUP2 DUP6 PUSH2 0x368C JUMP JUMPDEST POP ADD PUSH2 0x2D25 JUMP JUMPDEST CALLVALUE PUSH2 0x48D JUMPI PUSH1 0x20 CALLDATASIZE PUSH1 0x3 NOT ADD SLT PUSH2 0x48D JUMPI PUSH1 0x4 CALLDATALOAD PUSH1 0xE SLOAD DUP2 LT ISZERO PUSH2 0x48D JUMPI PUSH2 0x11CD PUSH1 0x20 SWAP2 PUSH2 0x30A1 JUMP JUMPDEST CALLVALUE PUSH2 0x48D JUMPI PUSH1 0x0 CALLDATASIZE PUSH1 0x3 NOT ADD SLT PUSH2 0x48D JUMPI PUSH1 0xC SLOAD PUSH2 0x2E4F DUP2 PUSH2 0x36F3 JUMP JUMPDEST SWAP1 PUSH1 0x0 JUMPDEST DUP2 DUP2 LT PUSH2 0x2E68 JUMPI PUSH1 0x40 MLOAD DUP1 PUSH2 0x6B8 DUP6 DUP3 PUSH2 0x330A JUMP JUMPDEST DUP1 PUSH2 0x2E74 PUSH1 0x1 SWAP3 PUSH2 0x3086 JUMP JUMPDEST DUP4 DUP1 PUSH1 0xA0 SHL SUB SWAP2 SLOAD SWAP1 PUSH1 0x3 SHL SHR AND PUSH1 0x0 MSTORE PUSH1 0x7 PUSH1 0x20 MSTORE PUSH1 0x40 PUSH1 0x0 KECCAK256 PUSH2 0x2EA3 PUSH1 0xFF PUSH1 0x7 PUSH1 0x40 MLOAD SWAP4 PUSH2 0x1257 DUP6 PUSH2 0x336A JUMP JUMPDEST PUSH2 0x2EAD DUP3 DUP7 PUSH2 0x368C JUMP JUMPDEST MSTORE PUSH2 0x2EB8 DUP2 DUP6 PUSH2 0x368C JUMP JUMPDEST POP ADD PUSH2 0x2E53 JUMP JUMPDEST CALLVALUE PUSH2 0x48D JUMPI PUSH1 0x0 CALLDATASIZE PUSH1 0x3 NOT ADD SLT PUSH2 0x48D JUMPI PUSH1 0x20 PUSH1 0x2 SLOAD PUSH1 0x40 MLOAD SWAP1 DUP2 MSTORE RETURN JUMPDEST CALLVALUE PUSH2 0x48D JUMPI PUSH1 0x0 CALLDATASIZE PUSH1 0x3 NOT ADD SLT PUSH2 0x48D JUMPI PUSH1 0x9 SLOAD PUSH2 0x2EFA DUP2 PUSH2 0x363C JUMP JUMPDEST SWAP1 PUSH1 0x0 JUMPDEST DUP2 DUP2 LT PUSH2 0x2F13 JUMPI PUSH1 0x40 MLOAD DUP1 PUSH2 0x6B8 DUP6 DUP3 PUSH2 0x320F JUMP JUMPDEST DUP1 PUSH2 0x2F1F PUSH1 0x1 SWAP3 PUSH2 0x303A JUMP JUMPDEST DUP4 DUP1 PUSH1 0xA0 SHL SUB SWAP2 SLOAD SWAP1 PUSH1 0x3 SHL SHR AND PUSH1 0x0 MSTORE PUSH1 0x8 PUSH1 0x20 MSTORE PUSH1 0x40 PUSH1 0x0 KECCAK256 PUSH2 0x2F4E PUSH1 0xFF PUSH1 0x7 PUSH1 0x40 MLOAD SWAP4 PUSH2 0x2D75 DUP6 PUSH2 0x336A JUMP JUMPDEST PUSH2 0x2F58 DUP3 DUP7 PUSH2 0x368C JUMP JUMPDEST MSTORE PUSH2 0x2F63 DUP2 DUP6 PUSH2 0x368C JUMP JUMPDEST POP ADD PUSH2 0x2EFE JUMP JUMPDEST CALLVALUE PUSH2 0x48D JUMPI PUSH1 0x0 CALLDATASIZE PUSH1 0x3 NOT ADD SLT PUSH2 0x48D JUMPI PUSH1 0x20 PUSH1 0x3 SLOAD PUSH1 0x40 MLOAD SWAP1 DUP2 MSTORE RETURN JUMPDEST CALLVALUE PUSH2 0x48D JUMPI PUSH1 0x0 CALLDATASIZE PUSH1 0x3 NOT ADD SLT PUSH2 0x48D JUMPI PUSH1 0xD SLOAD PUSH2 0x2FA5 DUP2 PUSH2 0x363C JUMP JUMPDEST SWAP1 PUSH1 0x0 JUMPDEST DUP2 DUP2 LT PUSH2 0x2FBE JUMPI PUSH1 0x40 MLOAD DUP1 PUSH2 0x6B8 DUP6 DUP3 PUSH2 0x320F JUMP JUMPDEST DUP1 PUSH2 0x2FCA PUSH1 0x1 SWAP3 PUSH2 0x306B JUMP JUMPDEST DUP4 DUP1 PUSH1 0xA0 SHL SUB SWAP2 SLOAD SWAP1 PUSH1 0x3 SHL SHR AND PUSH1 0x0 MSTORE PUSH1 0x8 PUSH1 0x20 MSTORE PUSH1 0x40 PUSH1 0x0 KECCAK256 PUSH2 0x2FF9 PUSH1 0xFF PUSH1 0x7 PUSH1 0x40 MLOAD SWAP4 PUSH2 0x2D75 DUP6 PUSH2 0x336A JUMP JUMPDEST PUSH2 0x3003 DUP3 DUP7 PUSH2 0x368C JUMP JUMPDEST MSTORE PUSH2 0x300E DUP2 DUP6 PUSH2 0x368C JUMP JUMPDEST POP ADD PUSH2 0x2FA9 JUMP JUMPDEST CALLVALUE PUSH2 0x48D JUMPI PUSH1 0x20 CALLDATASIZE PUSH1 0x3 NOT ADD SLT PUSH2 0x48D JUMPI PUSH1 0x4 CALLDATALOAD PUSH1 0x9 SLOAD DUP2 LT ISZERO PUSH2 0x48D JUMPI PUSH2 0x11CD PUSH1 0x20 SWAP2 JUMPDEST PUSH1 0x9 SLOAD DUP2 LT ISZERO PUSH2 0x3055 JUMPI PUSH1 0x9 PUSH1 0x0 MSTORE PUSH1 0x20 PUSH1 0x0 KECCAK256 ADD SWAP1 PUSH1 0x0 SWAP1 JUMP JUMPDEST PUSH4 0x4E487B71 PUSH1 0xE0 SHL PUSH1 0x0 MSTORE PUSH1 0x32 PUSH1 0x4 MSTORE PUSH1 0x24 PUSH1 0x0 REVERT JUMPDEST PUSH1 0xD SLOAD DUP2 LT ISZERO PUSH2 0x3055 JUMPI PUSH1 0xD PUSH1 0x0 MSTORE PUSH1 0x20 PUSH1 0x0 KECCAK256 ADD SWAP1 PUSH1 0x0 SWAP1 JUMP JUMPDEST PUSH1 0xC SLOAD DUP2 LT ISZERO PUSH2 0x3055 JUMPI PUSH1 0xC PUSH1 0x0 MSTORE PUSH1 0x20 PUSH1 0x0 KECCAK256 ADD SWAP1 PUSH1 0x0 SWAP1 JUMP JUMPDEST PUSH1 0xE SLOAD DUP2 LT ISZERO PUSH2 0x3055 JUMPI PUSH1 0xE PUSH1 0x0 MSTORE PUSH1 0x20 PUSH1 0x0 KECCAK256 ADD SWAP1 PUSH1 0x0 SWAP1 JUMP JUMPDEST PUSH1 0xB SLOAD DUP2 LT ISZERO PUSH2 0x3055 JUMPI PUSH1 0xB PUSH1 0x0 MSTORE PUSH1 0x20 PUSH1 0x0 KECCAK256 ADD SWAP1 PUSH1 0x0 SWAP1 JUMP JUMPDEST PUSH1 0xA SLOAD DUP2 LT ISZERO PUSH2 0x3055 JUMPI PUSH1 0xA PUSH1 0x0 MSTORE PUSH1 0x20 PUSH1 0x0 KECCAK256 ADD SWAP1 PUSH1 0x0 SWAP1 JUMP JUMPDEST PUSH1 0xF SLOAD DUP2 LT ISZERO PUSH2 0x3055 JUMPI PUSH1 0xF PUSH1 0x0 MSTORE PUSH1 0x20 PUSH1 0x0 KECCAK256 ADD SWAP1 PUSH1 0x0 SWAP1 JUMP JUMPDEST DUP1 SLOAD DUP3 LT ISZERO PUSH2 0x3055 JUMPI PUSH1 0x0 MSTORE PUSH1 0x20 PUSH1 0x0 KECCAK256 ADD SWAP1 PUSH1 0x0 SWAP1 JUMP JUMPDEST SWAP2 SWAP1 DUP3 MLOAD SWAP3 DUP4 DUP3 MSTORE PUSH1 0x0 JUMPDEST DUP5 DUP2 LT PUSH2 0x3151 JUMPI POP POP DUP3 PUSH1 0x0 PUSH1 0x20 DUP1 SWAP5 SWAP6 DUP5 ADD ADD MSTORE PUSH1 0x1F DUP1 NOT SWAP2 ADD AND ADD ADD SWAP1 JUMP JUMPDEST DUP1 PUSH1 0x20 DUP1 SWAP3 DUP5 ADD ADD MLOAD DUP3 DUP3 DUP7 ADD ADD MSTORE ADD PUSH2 0x3130 JUMP JUMPDEST SWAP1 PUSH1 0x3 DUP3 LT ISZERO PUSH2 0x701 JUMPI MSTORE JUMP JUMPDEST SWAP1 PUSH2 0x320C SWAP1 PUSH2 0x100 DUP1 PUSH2 0x31DA PUSH2 0x31C8 PUSH2 0x31AC PUSH2 0x319A DUP9 MLOAD PUSH2 0x120 DUP9 MSTORE PUSH2 0x120 DUP9 ADD SWAP1 PUSH2 0x3125 JUMP JUMPDEST PUSH1 0x20 DUP10 ADD MLOAD DUP8 DUP3 SUB PUSH1 0x20 DUP10 ADD MSTORE PUSH2 0x3125 JUMP JUMPDEST PUSH1 0x40 DUP9 ADD MLOAD PUSH1 0x40 DUP8 ADD MSTORE PUSH1 0x60 DUP9 ADD MLOAD DUP7 DUP3 SUB PUSH1 0x60 DUP9 ADD MSTORE PUSH2 0x3125 JUMP JUMPDEST PUSH1 0x80 DUP8 ADD MLOAD DUP6 DUP3 SUB PUSH1 0x80 DUP8 ADD MSTORE PUSH2 0x3125 JUMP JUMPDEST PUSH1 0xA0 DUP1 DUP8 ADD MLOAD SWAP1 DUP6 ADD MSTORE PUSH1 0xC0 DUP1 DUP8 ADD MLOAD SWAP1 DUP6 ADD MSTORE PUSH1 0xE0 DUP1 DUP8 ADD MLOAD PUSH1 0x1 PUSH1 0x1 PUSH1 0xA0 SHL SUB AND SWAP1 DUP6 ADD MSTORE SWAP5 ADD MLOAD SWAP2 ADD SWAP1 PUSH2 0x3166 JUMP JUMPDEST SWAP1 JUMP JUMPDEST PUSH1 0x20 DUP2 ADD PUSH1 0x20 DUP3 MSTORE DUP3 MLOAD DUP1 SWAP2 MSTORE PUSH1 0x40 DUP3 ADD SWAP2 PUSH1 0x20 PUSH1 0x40 DUP4 PUSH1 0x5 SHL DUP4 ADD ADD SWAP5 ADD SWAP3 PUSH1 0x0 SWAP2 JUMPDEST DUP4 DUP4 LT PUSH2 0x3242 JUMPI POP POP POP POP POP SWAP1 JUMP JUMPDEST SWAP1 SWAP2 SWAP3 SWAP4 SWAP5 PUSH1 0x20 DUP1 PUSH2 0x3260 PUSH1 0x1 SWAP4 PUSH1 0x3F NOT DUP7 DUP3 SUB ADD DUP8 MSTORE DUP10 MLOAD PUSH2 0x3173 JUMP JUMPDEST SWAP8 ADD SWAP4 ADD SWAP4 ADD SWAP2 SWAP4 SWAP3 SWAP1 PUSH2 0x3233 JUMP JUMPDEST SWAP1 PUSH2 0x320C SWAP1 DUP3 MLOAD ISZERO ISZERO DUP2 MSTORE PUSH2 0x100 DUP1 PUSH2 0x32E2 PUSH2 0x32D0 PUSH2 0x32BE PUSH2 0x32A2 PUSH1 0x20 DUP10 ADD MLOAD PUSH2 0x120 PUSH1 0x20 DUP10 ADD MSTORE PUSH2 0x120 DUP9 ADD SWAP1 PUSH2 0x3125 JUMP JUMPDEST PUSH1 0x40 DUP10 ADD MLOAD PUSH1 0x40 DUP9 ADD MSTORE PUSH1 0x60 DUP10 ADD MLOAD DUP8 DUP3 SUB PUSH1 0x60 DUP10 ADD MSTORE PUSH2 0x3125 JUMP JUMPDEST PUSH1 0x80 DUP9 ADD MLOAD DUP7 DUP3 SUB PUSH1 0x80 DUP9 ADD MSTORE PUSH2 0x3125 JUMP JUMPDEST PUSH1 0xA0 DUP8 ADD MLOAD DUP6 DUP3 SUB PUSH1 0xA0 DUP8 ADD MSTORE PUSH2 0x3125 JUMP JUMPDEST PUSH1 0xC0 DUP1 DUP8 ADD MLOAD SWAP1 DUP6 ADD MSTORE PUSH1 0xE0 DUP1 DUP8 ADD MLOAD PUSH1 0x1 PUSH1 0x1 PUSH1 0xA0 SHL SUB AND SWAP1 DUP6 ADD MSTORE SWAP5 ADD MLOAD SWAP2 ADD SWAP1 PUSH2 0x3166 JUMP JUMPDEST PUSH1 0x20 DUP2 ADD PUSH1 0x20 DUP3 MSTORE DUP3 MLOAD DUP1 SWAP2 MSTORE PUSH1 0x40 DUP3 ADD SWAP2 PUSH1 0x20 PUSH1 0x40 DUP4 PUSH1 0x5 SHL DUP4 ADD ADD SWAP5 ADD SWAP3 PUSH1 0x0 SWAP2 JUMPDEST DUP4 DUP4 LT PUSH2 0x333D JUMPI POP POP POP POP POP SWAP1 JUMP JUMPDEST SWAP1 SWAP2 SWAP3 SWAP4 SWAP5 PUSH1 0x20 DUP1 PUSH2 0x335B PUSH1 0x1 SWAP4 PUSH1 0x3F NOT DUP7 DUP3 SUB ADD DUP8 MSTORE DUP10 MLOAD PUSH2 0x326F JUMP JUMPDEST SWAP8 ADD SWAP4 ADD SWAP4 ADD SWAP2 SWAP4 SWAP3 SWAP1 PUSH2 0x332E JUMP JUMPDEST PUSH2 0x120 DUP2 ADD SWAP1 DUP2 LT PUSH1 0x1 PUSH1 0x1 PUSH1 0x40 SHL SUB DUP3 GT OR PUSH2 0x3B0 JUMPI PUSH1 0x40 MSTORE JUMP JUMPDEST SWAP1 PUSH1 0x1F DUP1 NOT SWAP2 ADD AND DUP2 ADD SWAP1 DUP2 LT PUSH1 0x1 PUSH1 0x1 PUSH1 0x40 SHL SUB DUP3 GT OR PUSH2 0x3B0 JUMPI PUSH1 0x40 MSTORE JUMP JUMPDEST DUP2 PUSH1 0x1F DUP3 ADD SLT ISZERO PUSH2 0x48D JUMPI DUP1 CALLDATALOAD SWAP1 PUSH1 0x1 PUSH1 0x1 PUSH1 0x40 SHL SUB DUP3 GT PUSH2 0x3B0 JUMPI PUSH1 0x40 MLOAD SWAP3 PUSH2 0x33DB PUSH1 0x1F DUP5 ADD PUSH1 0x1F NOT AND PUSH1 0x20 ADD DUP6 PUSH2 0x3386 JUMP JUMPDEST DUP3 DUP5 MSTORE PUSH1 0x20 DUP4 DUP4 ADD ADD GT PUSH2 0x48D JUMPI DUP2 PUSH1 0x0 SWAP3 PUSH1 0x20 DUP1 SWAP4 ADD DUP4 DUP7 ADD CALLDATACOPY DUP4 ADD ADD MSTORE SWAP1 JUMP JUMPDEST PUSH1 0x4 CALLDATALOAD SWAP1 PUSH1 0x1 PUSH1 0x1 PUSH1 0xA0 SHL SUB DUP3 AND DUP3 SUB PUSH2 0x48D JUMPI JUMP JUMPDEST PUSH1 0x40 PUSH1 0x3 NOT DUP3 ADD SLT PUSH2 0x48D JUMPI PUSH1 0x4 CALLDATALOAD SWAP1 PUSH1 0x1 PUSH1 0x1 PUSH1 0x40 SHL SUB DUP3 GT PUSH2 0x48D JUMPI PUSH2 0x343D SWAP2 PUSH1 0x4 ADD PUSH2 0x33A7 JUMP JUMPDEST SWAP1 PUSH1 0x24 CALLDATALOAD PUSH1 0x1 PUSH1 0x1 PUSH1 0xA0 SHL SUB DUP2 AND DUP2 SUB PUSH2 0x48D JUMPI SWAP1 JUMP JUMPDEST SWAP1 PUSH1 0x40 PUSH1 0x3 NOT DUP4 ADD SLT PUSH2 0x48D JUMPI PUSH1 0x4 CALLDATALOAD PUSH1 0x1 PUSH1 0x1 PUSH1 0xA0 SHL SUB DUP2 AND DUP2 SUB PUSH2 0x48D JUMPI SWAP2 PUSH1 0x24 CALLDATALOAD SWAP1 PUSH1 0x1 PUSH1 0x1 PUSH1 0x40 SHL SUB DUP3 GT PUSH2 0x48D JUMPI PUSH2 0x320C SWAP2 PUSH1 0x4 ADD PUSH2 0x33A7 JUMP JUMPDEST SWAP1 PUSH1 0x80 PUSH1 0x3 NOT DUP4 ADD SLT PUSH2 0x48D JUMPI PUSH1 0x4 CALLDATALOAD PUSH1 0x1 PUSH1 0x1 PUSH1 0x40 SHL SUB DUP2 GT PUSH2 0x48D JUMPI DUP3 PUSH2 0x34BE SWAP2 PUSH1 0x4 ADD PUSH2 0x33A7 JUMP JUMPDEST SWAP2 PUSH1 0x24 CALLDATALOAD SWAP2 PUSH1 0x44 CALLDATALOAD PUSH1 0x1 PUSH1 0x1 PUSH1 0x40 SHL SUB DUP2 GT PUSH2 0x48D JUMPI DUP3 PUSH2 0x34E1 SWAP2 PUSH1 0x4 ADD PUSH2 0x33A7 JUMP JUMPDEST SWAP2 PUSH1 0x64 CALLDATALOAD SWAP1 PUSH1 0x1 PUSH1 0x1 PUSH1 0x40 SHL SUB DUP3 GT PUSH2 0x48D JUMPI PUSH2 0x320C SWAP2 PUSH1 0x4 ADD PUSH2 0x33A7 JUMP JUMPDEST SWAP1 PUSH1 0x1 DUP3 DUP2 SHR SWAP3 AND DUP1 ISZERO PUSH2 0x3530 JUMPI JUMPDEST PUSH1 0x20 DUP4 LT EQ PUSH2 0x351A JUMPI JUMP JUMPDEST PUSH4 0x4E487B71 PUSH1 0xE0 SHL PUSH1 0x0 MSTORE PUSH1 0x22 PUSH1 0x4 MSTORE PUSH1 0x24 PUSH1 0x0 REVERT JUMPDEST SWAP2 PUSH1 0x7F AND SWAP2 PUSH2 0x350F JUMP JUMPDEST SWAP1 PUSH1 0x40 MLOAD SWAP2 DUP3 PUSH1 0x0 DUP3 SLOAD SWAP3 PUSH2 0x354E DUP5 PUSH2 0x3500 JUMP JUMPDEST DUP1 DUP5 MSTORE SWAP4 PUSH1 0x1 DUP2 AND SWAP1 DUP2 ISZERO PUSH2 0x35BC JUMPI POP PUSH1 0x1 EQ PUSH2 0x3575 JUMPI JUMPDEST POP PUSH2 0x3573 SWAP3 POP SUB DUP4 PUSH2 0x3386 JUMP JUMPDEST JUMP JUMPDEST SWAP1 POP PUSH1 0x0 SWAP3 SWAP2 SWAP3 MSTORE PUSH1 0x20 PUSH1 0x0 KECCAK256 SWAP1 PUSH1 0x0 SWAP2 JUMPDEST DUP2 DUP4 LT PUSH2 0x35A0 JUMPI POP POP SWAP1 PUSH1 0x20 PUSH2 0x3573 SWAP3 DUP3 ADD ADD CODESIZE PUSH2 0x3566 JUMP JUMPDEST PUSH1 0x20 SWAP2 SWAP4 POP DUP1 PUSH1 0x1 SWAP2 SLOAD DUP4 DUP6 DUP10 ADD ADD MSTORE ADD SWAP2 ADD SWAP1 SWAP2 DUP5 SWAP3 PUSH2 0x3587 JUMP JUMPDEST SWAP1 POP PUSH1 0x20 SWAP3 POP PUSH2 0x3573 SWAP5 SWAP2 POP PUSH1 0xFF NOT AND DUP3 DUP5 ADD MSTORE ISZERO ISZERO PUSH1 0x5 SHL DUP3 ADD ADD CODESIZE PUSH2 0x3566 JUMP JUMPDEST PUSH1 0x1 PUSH1 0x1 PUSH1 0x40 SHL SUB DUP2 GT PUSH2 0x3B0 JUMPI PUSH1 0x5 SHL PUSH1 0x20 ADD SWAP1 JUMP JUMPDEST PUSH1 0x40 MLOAD SWAP1 PUSH2 0x3602 DUP3 PUSH2 0x336A JUMP JUMPDEST PUSH1 0x0 PUSH2 0x100 DUP4 PUSH1 0x60 DUP2 MSTORE PUSH1 0x60 PUSH1 0x20 DUP3 ADD MSTORE DUP3 PUSH1 0x40 DUP3 ADD MSTORE PUSH1 0x60 DUP1 DUP3 ADD MSTORE PUSH1 0x60 PUSH1 0x80 DUP3 ADD MSTORE DUP3 PUSH1 0xA0 DUP3 ADD MSTORE DUP3 PUSH1 0xC0 DUP3 ADD MSTORE DUP3 PUSH1 0xE0 DUP3 ADD MSTORE ADD MSTORE JUMP JUMPDEST SWAP1 PUSH2 0x3646 DUP3 PUSH2 0x35DE JUMP JUMPDEST PUSH2 0x3653 PUSH1 0x40 MLOAD SWAP2 DUP3 PUSH2 0x3386 JUMP JUMPDEST DUP3 DUP2 MSTORE DUP1 SWAP3 PUSH2 0x3664 PUSH1 0x1F NOT SWAP2 PUSH2 0x35DE JUMP JUMPDEST ADD SWAP1 PUSH1 0x0 JUMPDEST DUP3 DUP2 LT PUSH2 0x3675 JUMPI POP POP POP JUMP JUMPDEST PUSH1 0x20 SWAP1 PUSH2 0x3680 PUSH2 0x35F5 JUMP JUMPDEST DUP3 DUP3 DUP6 ADD ADD MSTORE ADD PUSH2 0x3669 JUMP JUMPDEST DUP1 MLOAD DUP3 LT ISZERO PUSH2 0x3055 JUMPI PUSH1 0x20 SWAP2 PUSH1 0x5 SHL ADD ADD SWAP1 JUMP JUMPDEST PUSH1 0x3 DUP3 LT ISZERO PUSH2 0x701 JUMPI MSTORE JUMP JUMPDEST PUSH1 0x40 MLOAD SWAP1 PUSH2 0x36B9 DUP3 PUSH2 0x336A JUMP JUMPDEST PUSH1 0x0 PUSH2 0x100 DUP4 DUP3 DUP2 MSTORE PUSH1 0x60 PUSH1 0x20 DUP3 ADD MSTORE DUP3 PUSH1 0x40 DUP3 ADD MSTORE PUSH1 0x60 DUP1 DUP3 ADD MSTORE PUSH1 0x60 PUSH1 0x80 DUP3 ADD MSTORE PUSH1 0x60 PUSH1 0xA0 DUP3 ADD MSTORE DUP3 PUSH1 0xC0 DUP3 ADD MSTORE DUP3 PUSH1 0xE0 DUP3 ADD MSTORE ADD MSTORE JUMP JUMPDEST SWAP1 PUSH2 0x36FD DUP3 PUSH2 0x35DE JUMP JUMPDEST PUSH2 0x370A PUSH1 0x40 MLOAD SWAP2 DUP3 PUSH2 0x3386 JUMP JUMPDEST DUP3 DUP2 MSTORE DUP1 SWAP3 PUSH2 0x371B PUSH1 0x1F NOT SWAP2 PUSH2 0x35DE JUMP JUMPDEST ADD SWAP1 PUSH1 0x0 JUMPDEST DUP3 DUP2 LT PUSH2 0x372C JUMPI POP POP POP JUMP JUMPDEST PUSH1 0x20 SWAP1 PUSH2 0x3737 PUSH2 0x36AC JUMP JUMPDEST DUP3 DUP3 DUP6 ADD ADD MSTORE ADD PUSH2 0x3720 JUMP JUMPDEST PUSH1 0x0 NOT DUP2 EQ PUSH2 0x398 JUMPI PUSH1 0x1 ADD SWAP1 JUMP JUMPDEST ISZERO PUSH2 0x3759 JUMPI JUMP JUMPDEST PUSH1 0x40 MLOAD PUSH3 0x461BCD PUSH1 0xE5 SHL DUP2 MSTORE PUSH1 0x20 PUSH1 0x4 DUP3 ADD MSTORE PUSH1 0xA PUSH1 0x24 DUP3 ADD MSTORE PUSH10 0x27B7363C9037BBB732B9 PUSH1 0xB1 SHL PUSH1 0x44 DUP3 ADD MSTORE PUSH1 0x64 SWAP1 REVERT JUMPDEST SWAP1 PUSH1 0x3 DUP2 LT ISZERO PUSH2 0x701 JUMPI DUP2 SLOAD PUSH1 0xFF PUSH1 0xA0 SHL NOT AND PUSH1 0xA0 SWAP2 SWAP1 SWAP2 SHL PUSH1 0xFF PUSH1 0xA0 SHL AND OR SWAP1 SSTORE JUMP JUMPDEST DUP2 DUP2 LT PUSH2 0x37BA JUMPI POP POP JUMP JUMPDEST PUSH1 0x0 DUP2 SSTORE PUSH1 0x1 ADD PUSH2 0x37AF JUMP JUMPDEST SWAP2 SWAP1 PUSH1 0x1F DUP2 GT PUSH2 0x37D5 JUMPI POP POP POP JUMP JUMPDEST PUSH2 0x3573 SWAP3 PUSH1 0x0 MSTORE PUSH1 0x20 PUSH1 0x0 KECCAK256 SWAP1 PUSH1 0x20 PUSH1 0x1F DUP5 ADD PUSH1 0x5 SHR DUP4 ADD SWAP4 LT PUSH2 0x3801 JUMPI JUMPDEST PUSH1 0x1F ADD PUSH1 0x5 SHR ADD SWAP1 PUSH2 0x37AF JUMP JUMPDEST SWAP1 SWAP2 POP DUP2 SWAP1 PUSH2 0x37F4 JUMP JUMPDEST PUSH1 0x40 MLOAD SWAP1 PUSH2 0x381A PUSH1 0x60 DUP4 PUSH2 0x3386 JUMP JUMPDEST PUSH1 0x21 DUP3 MSTORE PUSH1 0x1B PUSH1 0xFA SHL PUSH1 0x40 DUP4 PUSH32 0x526567697374726174696F6E206973206177616974696E6720617070726F7661 PUSH1 0x20 DUP3 ADD MSTORE ADD MSTORE JUMP JUMPDEST ISZERO PUSH2 0x3857 JUMPI JUMP JUMPDEST PUSH1 0x40 MLOAD PUSH3 0x461BCD PUSH1 0xE5 SHL DUP2 MSTORE PUSH1 0x20 PUSH1 0x4 DUP3 ADD MSTORE PUSH1 0x21 PUSH1 0x24 DUP3 ADD MSTORE PUSH32 0x43616E6E6F74206D6F6469667920616674657220766F74696E67207374617274 PUSH1 0x44 DUP3 ADD MSTORE PUSH1 0x73 PUSH1 0xF8 SHL PUSH1 0x64 DUP3 ADD MSTORE PUSH1 0x84 SWAP1 REVERT JUMPDEST PUSH2 0x38B0 DUP2 SLOAD PUSH2 0x3500 JUMP JUMPDEST SWAP1 DUP2 PUSH2 0x38BA JUMPI POP POP JUMP JUMPDEST DUP2 PUSH1 0x1F PUSH1 0x0 SWAP4 GT PUSH1 0x1 EQ PUSH2 0x38CC JUMPI POP SSTORE JUMP JUMPDEST DUP2 DUP4 MSTORE PUSH1 0x20 DUP4 KECCAK256 PUSH2 0x38E8 SWAP2 PUSH1 0x1F ADD PUSH1 0x5 SHR DUP2 ADD SWAP1 PUSH1 0x1 ADD PUSH2 0x37AF JUMP JUMPDEST DUP1 DUP3 MSTORE DUP2 PUSH1 0x20 DUP2 KECCAK256 SWAP2 SSTORE SSTORE JUMP JUMPDEST PUSH2 0x38FD PUSH2 0x35F5 JUMP JUMPDEST POP PUSH2 0x3906 PUSH2 0x35F5 JUMP JUMPDEST PUSH1 0xB SLOAD PUSH1 0x0 DUP1 JUMPDEST DUP3 DUP2 LT PUSH2 0x391A JUMPI POP POP POP SWAP1 JUMP JUMPDEST PUSH2 0x3923 DUP2 PUSH2 0x30BC JUMP JUMPDEST PUSH1 0x1 DUP1 PUSH1 0xA0 SHL SUB SWAP2 SLOAD SWAP1 PUSH1 0x3 SHL SHR AND PUSH1 0x0 MSTORE PUSH1 0x8 PUSH1 0x20 MSTORE PUSH1 0x40 PUSH1 0x0 KECCAK256 PUSH1 0x40 MLOAD SWAP1 PUSH2 0x394C DUP3 PUSH2 0x336A JUMP JUMPDEST PUSH2 0x3955 DUP2 PUSH2 0x353A JUMP JUMPDEST DUP3 MSTORE PUSH2 0x3963 PUSH1 0x1 DUP3 ADD PUSH2 0x353A JUMP JUMPDEST PUSH1 0x20 DUP4 ADD MSTORE PUSH1 0x2 DUP2 ADD SLOAD PUSH1 0x40 DUP4 ADD MSTORE PUSH2 0x397E PUSH1 0x3 DUP3 ADD PUSH2 0x353A JUMP JUMPDEST PUSH1 0x60 DUP4 ADD MSTORE PUSH2 0x398F PUSH1 0x4 DUP3 ADD PUSH2 0x353A JUMP JUMPDEST PUSH1 0x80 DUP4 ADD MSTORE PUSH1 0x5 DUP2 ADD SLOAD PUSH1 0xA0 DUP4 ADD MSTORE PUSH2 0x39D0 PUSH1 0xFF PUSH1 0x7 PUSH1 0x6 DUP5 ADD SLOAD SWAP4 PUSH1 0xC0 DUP7 ADD SWAP5 DUP6 MSTORE ADD SLOAD PUSH1 0x1 DUP1 PUSH1 0xA0 SHL SUB DUP2 AND PUSH1 0xE0 DUP7 ADD MSTORE PUSH1 0xA0 SHR AND PUSH2 0x100 DUP5 ADD PUSH2 0x36A0 JUMP JUMPDEST MLOAD DUP4 DUP2 GT PUSH2 0x39E3 JUMPI JUMPDEST POP POP PUSH1 0x1 ADD PUSH2 0x390D JUMP JUMPDEST SWAP1 SWAP5 POP SWAP2 POP PUSH1 0x1 CODESIZE PUSH2 0x39D9 JUMP JUMPDEST PUSH2 0x39F8 PUSH2 0x35F5 JUMP JUMPDEST POP PUSH1 0xB SLOAD ISZERO PUSH2 0x3AF5 JUMPI PUSH1 0x3 SLOAD TIMESTAMP LT PUSH2 0x3A12 JUMPI PUSH2 0x320C PUSH2 0x38F5 JUMP JUMPDEST PUSH1 0x40 MLOAD PUSH2 0x3A1E DUP2 PUSH2 0x336A JUMP JUMPDEST PUSH1 0x40 DUP1 MLOAD PUSH2 0x3A2C DUP3 DUP3 PUSH2 0x3386 JUMP JUMPDEST PUSH1 0xF DUP2 MSTORE PUSH15 0x139BDD08191958DA591959081E595D PUSH1 0x8A SHL PUSH1 0x20 DUP3 ADD MSTORE DUP3 MSTORE DUP1 MLOAD PUSH2 0x3A57 PUSH1 0x60 DUP3 PUSH2 0x3386 JUMP JUMPDEST PUSH1 0x36 DUP2 MSTORE PUSH32 0x506C65617365207761697420756E74696C2074686520656C656374696F6E2065 PUSH1 0x20 DUP3 ADD MSTORE PUSH22 0x373239903A379039B2B2903A3432903BB4B73732B917 PUSH1 0x51 SHL DUP3 DUP3 ADD MSTORE PUSH1 0x20 DUP4 ADD MSTORE PUSH1 0x0 DUP2 DUP4 ADD MSTORE DUP1 MLOAD PUSH2 0x3AB7 PUSH1 0x20 DUP3 PUSH2 0x3386 JUMP JUMPDEST PUSH1 0x0 DUP2 MSTORE PUSH1 0x60 DUP4 ADD MSTORE MLOAD PUSH2 0x3ACC PUSH1 0x20 DUP3 PUSH2 0x3386 JUMP JUMPDEST PUSH1 0x0 DUP2 MSTORE PUSH1 0x80 DUP3 ADD MSTORE PUSH1 0x0 PUSH1 0xA0 DUP3 ADD MSTORE PUSH1 0x0 PUSH1 0xC0 DUP3 ADD MSTORE PUSH1 0x0 PUSH1 0xE0 DUP3 ADD MSTORE PUSH1 0x0 PUSH2 0x100 DUP3 ADD MSTORE SWAP1 JUMP JUMPDEST PUSH1 0x40 MLOAD PUSH3 0x461BCD PUSH1 0xE5 SHL DUP2 MSTORE PUSH1 0x20 PUSH1 0x4 DUP3 ADD MSTORE PUSH1 0x24 DUP1 DUP3 ADD MSTORE PUSH32 0x4E6F2043616E6469646174657320616363657074656420666F7220656C656374 PUSH1 0x44 DUP3 ADD MSTORE PUSH4 0x34B7B717 PUSH1 0xE1 SHL PUSH1 0x64 DUP3 ADD MSTORE PUSH1 0x84 SWAP1 REVERT INVALID LOG2 PUSH5 0x6970667358 0x22 SLT KECCAK256 PUSH5 0xFFDD737DC2 0xD4 0xA6 DUP9 0x4C PUSH2 0xA679 SWAP5 SMOD 0xC9 0x4B LOG3 0x29 PREVRANDAO SWAP9 SWAP7 RETURN 0x2A MSTORE EQ PUSH15 0x74BCEDB8D664736F6C634300081C00 CALLER "},"methodIdentifiers":{"CurrentVotingStatus()":"bab912a2","ListofAcceptedCandidates()":"3cfde26c","ListofAcceptedVoters()":"23a2b2ed","ListofRegisteredCandidates()":"1ee9367c","ListofRegisteredVoters()":"60fc4e32","ListofRejectedCandidates()":"073f966d","ListofRejectedVoters()":"964a43b9","acceptedCandidates(uint256)":"9e7a8145","acceptedVoters(uint256)":"53dd128c","approveCandidate(address,string)":"7eb21b51","approveVoter(address,string)":"fad761d3","candidates(address)":"8ab66a90","candidatesRegistered(uint256)":"0366ac37","changeOwner(address)":"a6f9dae1","electionName()":"85e8e7a7","findCandidate(address)":"dbf7be47","findVoter(address)":"57f3a8e5","getAllVotersWhoCasted()":"8987cb32","owner()":"8da5cb5b","registerCandidate(string,uint256,string,string)":"71565d2e","registerVoter(string,uint256,string,string)":"cd6cf311","rejectCandidate(address,string)":"59632c22","rejectVoter(address,string)":"4a2846a8","rejectedCandidates(uint256)":"5e894b12","rejectedVoters(uint256)":"3afa3e07","resetContract()":"b181a8fc","resultPublicationTime()":"ac94ba4c","searchCandidate(string,address)":"429b0b22","searchVoter(string,address)":"4d867f4e","setResultPublicationTime(uint256)":"5b45cfca","startendVoting(uint256,uint256)":"f33698f1","updateCandidate(string)":"79432db5","updateVoter(string)":"82ff2aeb","vote(address)":"6dd7d8ea","voters(address)":"a3ec138d","votersRegistered(uint256)":"849c5657","votersWhoCasted(uint256)":"5f1bc34e","votingEndTime()":"1ea736e0","votingStartTime()":"2019a608","winningCandidate()":"d28178d7"}}}}}