{"contracts/VotingSystem.sol":{"VotingSystem":{"abi":[{"inputs":[{"internalType":"string","name":"_name","type":"string"}],"stateMutability":"nonpayable","type":"constructor"},{"inputs":[],"name":"CurrentVotingStatus","outputs":[{"components":[{"internalType":"uint256","name":"registeredId","type":"uint256"},{"internalType":"uint256","name":"voteCalculation","type":"uint256"},{"internalType":"address","name":"candidatesAddress","type":"address"},{"internalType":"enum VotingSystem.ConfirmationStatus","name":"status","type":"uint8"},{"internalType":"string","name":"ipfsHash","type":"string"},{"internalType":"string","name":"message","type":"string"}],"internalType":"struct VotingSystem.Candidate","name":"","type":"tuple"}],"stateMutability":"view","type":"function"},{"inputs":[],"name":"ListofAcceptedCandidates","outputs":[{"components":[{"internalType":"uint256","name":"registeredId","type":"uint256"},{"internalType":"uint256","name":"voteCalculation","type":"uint256"},{"internalType":"address","name":"candidatesAddress","type":"address"},{"internalType":"enum VotingSystem.ConfirmationStatus","name":"status","type":"uint8"},{"internalType":"string","name":"ipfsHash","type":"string"},{"internalType":"string","name":"message","type":"string"}],"internalType":"struct VotingSystem.Candidate[]","name":"","type":"tuple[]"}],"stateMutability":"view","type":"function"},{"inputs":[],"name":"ListofAcceptedVoters","outputs":[{"components":[{"internalType":"bool","name":"alreadyVoted","type":"bool"},{"internalType":"string","name":"message","type":"string"},{"internalType":"string","name":"ipfsHash","type":"string"},{"internalType":"uint256","name":"registeredId","type":"uint256"},{"internalType":"address","name":"votersAddress","type":"address"},{"internalType":"enum VotingSystem.ConfirmationStatus","name":"status","type":"uint8"}],"internalType":"struct VotingSystem.Voter[]","name":"","type":"tuple[]"}],"stateMutability":"view","type":"function"},{"inputs":[],"name":"ListofRegisteredCandidates","outputs":[{"components":[{"internalType":"uint256","name":"registeredId","type":"uint256"},{"internalType":"uint256","name":"voteCalculation","type":"uint256"},{"internalType":"address","name":"candidatesAddress","type":"address"},{"internalType":"enum VotingSystem.ConfirmationStatus","name":"status","type":"uint8"},{"internalType":"string","name":"ipfsHash","type":"string"},{"internalType":"string","name":"message","type":"string"}],"internalType":"struct VotingSystem.Candidate[]","name":"","type":"tuple[]"}],"stateMutability":"view","type":"function"},{"inputs":[],"name":"ListofRegisteredVoters","outputs":[{"components":[{"internalType":"bool","name":"alreadyVoted","type":"bool"},{"internalType":"string","name":"message","type":"string"},{"internalType":"string","name":"ipfsHash","type":"string"},{"internalType":"uint256","name":"registeredId","type":"uint256"},{"internalType":"address","name":"votersAddress","type":"address"},{"internalType":"enum VotingSystem.ConfirmationStatus","name":"status","type":"uint8"}],"internalType":"struct VotingSystem.Voter[]","name":"","type":"tuple[]"}],"stateMutability":"view","type":"function"},{"inputs":[],"name":"ListofRejectedCandidates","outputs":[{"components":[{"internalType":"uint256","name":"registeredId","type":"uint256"},{"internalType":"uint256","name":"voteCalculation","type":"uint256"},{"internalType":"address","name":"candidatesAddress","type":"address"},{"internalType":"enum VotingSystem.ConfirmationStatus","name":"status","type":"uint8"},{"internalType":"string","name":"ipfsHash","type":"string"},{"internalType":"string","name":"message","type":"string"}],"internalType":"struct VotingSystem.Candidate[]","name":"","type":"tuple[]"}],"stateMutability":"view","type":"function"},{"inputs":[],"name":"ListofRejectedVoters","outputs":[{"components":[{"internalType":"bool","name":"alreadyVoted","type":"bool"},{"internalType":"string","name":"message","type":"string"},{"internalType":"string","name":"ipfsHash","type":"string"},{"internalType":"uint256","name":"registeredId","type":"uint256"},{"internalType":"address","name":"votersAddress","type":"address"},{"internalType":"enum VotingSystem.ConfirmationStatus","name":"status","type":"uint8"}],"internalType":"struct VotingSystem.Voter[]","name":"","type":"tuple[]"}],"stateMutability":"view","type":"function"},{"inputs":[{"internalType":"uint256","name":"","type":"uint256"}],"name":"acceptedCandidates","outputs":[{"internalType":"address","name":"","type":"address"}],"stateMutability":"view","type":"function"},{"inputs":[{"internalType":"uint256","name":"","type":"uint256"}],"name":"acceptedVoters","outputs":[{"internalType":"address","name":"","type":"address"}],"stateMutability":"view","type":"function"},{"inputs":[{"internalType":"address","name":"_candidatesAddress","type":"address"},{"internalType":"string","name":"_message","type":"string"}],"name":"approveCandidate","outputs":[],"stateMutability":"nonpayable","type":"function"},{"inputs":[{"internalType":"address","name":"_votersAddress","type":"address"},{"internalType":"string","name":"_message","type":"string"}],"name":"approveVoter","outputs":[],"stateMutability":"nonpayable","type":"function"},{"inputs":[{"internalType":"address","name":"","type":"address"}],"name":"candidates","outputs":[{"internalType":"uint256","name":"registeredId","type":"uint256"},{"internalType":"uint256","name":"voteCalculation","type":"uint256"},{"internalType":"address","name":"candidatesAddress","type":"address"},{"internalType":"enum VotingSystem.ConfirmationStatus","name":"status","type":"uint8"},{"internalType":"string","name":"ipfsHash","type":"string"},{"internalType":"string","name":"message","type":"string"}],"stateMutability":"view","type":"function"},{"inputs":[{"internalType":"uint256","name":"","type":"uint256"}],"name":"candidatesRegistered","outputs":[{"internalType":"address","name":"","type":"address"}],"stateMutability":"view","type":"function"},{"inputs":[{"internalType":"address","name":"newOwner","type":"address"}],"name":"changeOwner","outputs":[],"stateMutability":"nonpayable","type":"function"},{"inputs":[],"name":"electionName","outputs":[{"internalType":"string","name":"","type":"string"}],"stateMutability":"view","type":"function"},{"inputs":[],"name":"getAllVotersWhoCasted","outputs":[{"components":[{"internalType":"bool","name":"alreadyVoted","type":"bool"},{"internalType":"string","name":"message","type":"string"},{"internalType":"string","name":"ipfsHash","type":"string"},{"internalType":"uint256","name":"registeredId","type":"uint256"},{"internalType":"address","name":"votersAddress","type":"address"},{"internalType":"enum VotingSystem.ConfirmationStatus","name":"status","type":"uint8"}],"internalType":"struct VotingSystem.Voter[]","name":"","type":"tuple[]"}],"stateMutability":"view","type":"function"},{"inputs":[],"name":"owner","outputs":[{"internalType":"address","name":"","type":"address"}],"stateMutability":"view","type":"function"},{"inputs":[{"internalType":"string","name":"_ipfsHash","type":"string"}],"name":"registerCandidate","outputs":[],"stateMutability":"nonpayable","type":"function"},{"inputs":[{"internalType":"string","name":"_ipfsHash","type":"string"}],"name":"registerVoter","outputs":[],"stateMutability":"nonpayable","type":"function"},{"inputs":[{"internalType":"address","name":"_candidatesAddress","type":"address"},{"internalType":"string","name":"_message","type":"string"}],"name":"rejectCandidate","outputs":[],"stateMutability":"nonpayable","type":"function"},{"inputs":[{"internalType":"address","name":"_votersAddress","type":"address"},{"internalType":"string","name":"_message","type":"string"}],"name":"rejectVoter","outputs":[],"stateMutability":"nonpayable","type":"function"},{"inputs":[{"internalType":"uint256","name":"","type":"uint256"}],"name":"rejectedCandidates","outputs":[{"internalType":"address","name":"","type":"address"}],"stateMutability":"view","type":"function"},{"inputs":[{"internalType":"uint256","name":"","type":"uint256"}],"name":"rejectedVoters","outputs":[{"internalType":"address","name":"","type":"address"}],"stateMutability":"view","type":"function"},{"inputs":[],"name":"resetContract","outputs":[],"stateMutability":"nonpayable","type":"function"},{"inputs":[],"name":"resultPublicationTime","outputs":[{"internalType":"uint256","name":"","type":"uint256"}],"stateMutability":"view","type":"function"},{"inputs":[{"internalType":"string","name":"_ipfsHash","type":"string"},{"internalType":"address","name":"_addr","type":"address"}],"name":"searchCandidate","outputs":[{"components":[{"internalType":"uint256","name":"registeredId","type":"uint256"},{"internalType":"uint256","name":"voteCalculation","type":"uint256"},{"internalType":"address","name":"candidatesAddress","type":"address"},{"internalType":"enum VotingSystem.ConfirmationStatus","name":"status","type":"uint8"},{"internalType":"string","name":"ipfsHash","type":"string"},{"internalType":"string","name":"message","type":"string"}],"internalType":"struct VotingSystem.Candidate[]","name":"","type":"tuple[]"}],"stateMutability":"view","type":"function"},{"inputs":[{"internalType":"string","name":"_ipfsHash","type":"string"},{"internalType":"address","name":"_addr","type":"address"}],"name":"searchVoter","outputs":[{"components":[{"internalType":"bool","name":"alreadyVoted","type":"bool"},{"internalType":"string","name":"message","type":"string"},{"internalType":"string","name":"ipfsHash","type":"string"},{"internalType":"uint256","name":"registeredId","type":"uint256"},{"internalType":"address","name":"votersAddress","type":"address"},{"internalType":"enum VotingSystem.ConfirmationStatus","name":"status","type":"uint8"}],"internalType":"struct VotingSystem.Voter[]","name":"","type":"tuple[]"}],"stateMutability":"view","type":"function"},{"inputs":[{"internalType":"uint256","name":"_resultPublicationTime","type":"uint256"}],"name":"setResultPublicationTime","outputs":[],"stateMutability":"nonpayable","type":"function"},{"inputs":[{"internalType":"uint256","name":"_votingStartTime","type":"uint256"},{"internalType":"uint256","name":"_votingEndTime","type":"uint256"}],"name":"startendVoting","outputs":[],"stateMutability":"nonpayable","type":"function"},{"inputs":[{"internalType":"string","name":"_ipfsHash","type":"string"}],"name":"updateCandidate","outputs":[],"stateMutability":"nonpayable","type":"function"},{"inputs":[{"internalType":"string","name":"_ipfsHash","type":"string"}],"name":"updateVoter","outputs":[],"stateMutability":"nonpayable","type":"function"},{"inputs":[{"internalType":"address","name":"_candidatesAddress","type":"address"}],"name":"vote","outputs":[],"stateMutability":"nonpayable","type":"function"},{"inputs":[{"internalType":"address","name":"","type":"address"}],"name":"voters","outputs":[{"internalType":"bool","name":"alreadyVoted","type":"bool"},{"internalType":"string","name":"message","type":"string"},{"internalType":"string","name":"ipfsHash","type":"string"},{"internalType":"uint256","name":"registeredId","type":"uint256"},{"internalType":"address","name":"votersAddress","type":"address"},{"internalType":"enum VotingSystem.ConfirmationStatus","name":"status","type":"uint8"}],"stateMutability":"view","type":"function"},{"inputs":[{"internalType":"uint256","name":"","type":"uint256"}],"name":"votersRegistered","outputs":[{"internalType":"address","name":"","type":"address"}],"stateMutability":"view","type":"function"},{"inputs":[{"internalType":"uint256","name":"","type":"uint256"}],"name":"votersWhoCasted","outputs":[{"internalType":"address","name":"","type":"address"}],"stateMutability":"view","type":"function"},{"inputs":[],"name":"votingEndTime","outputs":[{"internalType":"uint256","name":"","type":"uint256"}],"stateMutability":"view","type":"function"},{"inputs":[],"name":"votingStartTime","outputs":[{"internalType":"uint256","name":"","type":"uint256"}],"stateMutability":"view","type":"function"},{"inputs":[],"name":"winningCandidate","outputs":[{"components":[{"internalType":"uint256","name":"registeredId","type":"uint256"},{"internalType":"uint256","name":"voteCalculation","type":"uint256"},{"internalType":"address","name":"candidatesAddress","type":"address"},{"internalType":"enum VotingSystem.ConfirmationStatus","name":"status","type":"uint8"},{"internalType":"string","name":"ipfsHash","type":"string"},{"internalType":"string","name":"message","type":"string"}],"internalType":"struct VotingSystem.Candidate","name":"","type":"tuple"}],"stateMutability":"view","type":"function"}],"evm":{"bytecode":{"linkReferences":{},"object":"60806040523461023b576134578038038061001981610240565b92833981019060208183031261023b578051906001600160401b03821161023b570181601f8201121561023b578051906001600160401b0382116102105761006a601f8301601f1916602001610240565b928284526020838301011161023b5760005b82811061022657600083850160200181905280546001600160a01b03191633179055835184906001600160401b03811161021057600154600181811c91168015610206575b60208210146101f057601f811161018b575b50602091601f82116001146101275791819260009261011c575b50508160011b916000199060031b1c1916176001555b600160055560016006556040516131f190816102668239f35b0151905082806100ed565b601f198216926001600052806000209160005b8581106101735750836001951061015a575b505050811b01600155610103565b015160001960f88460031b161c1916905582808061014c565b9192602060018192868501518155019401920161013a565b60016000527fb10e2d527612073b26eecdfd717e6a320cf44b4afac2b0732d9fcbe2b7fa0cf6601f830160051c810191602084106101e6575b601f0160051c01905b8181106101da57506100d3565b600081556001016101cd565b90915081906101c4565b634e487b7160e01b600052602260045260246000fd5b90607f16906100c1565b634e487b7160e01b600052604160045260246000fd5b8060208092840101518282870101520161007c565b600080fd5b6040519190601f01601f191682016001600160401b038111838210176102105760405256fe6080604052600436101561001257600080fd5b60003560e01c80630366ac3714612838578063073f966d146127a85780631ea736e01461278a5780631ee9367c146126fa5780632019a608146126dc57806323a2b2ed1461264f5780633afa3e07146126265780633cfde26c1461254e578063429b0b22146123485780634a2846a8146121325780634d867f4e14611f1657806353dd128c14611eed57806359632c2214611cd75780635b45cfca14611be45780635e894b1214611bbb5780635f1bc34e14611b9257806360fc4e3214611b055780636428a4861461186b5780636dd7d8ea1461165a57806379432db5146115165780637eb21b51146112df57806382ff2aeb14611172578063849c56571461114957806385e8e7a7146110685780638987cb3214610fdb5780638ab66a9014610f325780638da5cb5b14610f09578063964a43b914610e2d5780639e7a814514610deb5780639eb88db614610b2e578063a3ec138d14610a7d578063a6f9dae1146109db578063ac94ba4c146109bd578063b181a8fc146105ef578063bab912a2146105d3578063d28178d71461059f578063f33698f11461047a5763fad761d3146101be57600080fd5b34610475576101cc36612bfa565b906101e260018060a01b03600054163314612e5b565b6001600160a01b0381811660008181526007602052604090206004810180549294939092161561041e57815460ff60a01b1916600160a01b179091558351600191909101906001600160401b03811161039857610249816102438454612c39565b84612ecf565b602094601f82116001146103b95761027d9293949582916000926103ae575b50508160011b916000199060031b1c19161790565b90555b600c5490600160401b821015610398576102a58260016102c99401600c55600c612930565b9080546001600160a01b0360039390931b83811b199091169290931690921b179055565b60005b600e548082101561039657826102e1836128c4565b905460039190911b1c6001600160a01b03161461030157506001016102cc565b600019810192508211610380576102a561031d610335936128c4565b905460039190911b1c6001600160a01b0316916128c4565b600e54801561036a576000190161036561035082600e612930565b81549060018060a01b039060031b1b19169055565b600e55005b634e487b7160e01b600052603160045260246000fd5b634e487b7160e01b600052601160045260246000fd5b005b634e487b7160e01b600052604160045260246000fd5b015190503880610268565b601f1982169583600052806000209160005b888110610406575083600195969798106103ed575b505050811b019055610280565b015160001960f88460031b161c191690553880806103e0565b919260206001819286850151815501940192016103cb565b60405162461bcd60e51b815260206004820152602960248201527f5468697320766f74657220646f6573206e6f742061707065617220696e206f75604482015268391039bcb9ba32b69760b91b6064820152608490fd5b600080fd5b3461047557604036600319011261047557600435602435906104a760018060a01b03600054163314612e5b565b60025461055a574281111561051657818110156104c657600255600355005b60405162461bcd60e51b815260206004820152602260248201527f53746172742074696d65206d757374206265206265666f726520656e642074696044820152616d6560f01b6064820152608490fd5b606460405162461bcd60e51b815260206004820152602060248201527f53746172742074696d65206d75737420626520696e20746865206675747572656044820152fd5b60405162461bcd60e51b815260206004820152601860248201527f566f74696e6720616c7265616479207363686564756c656400000000000000006044820152606490fd5b34610475576000366003190112610475576105cf6105bb6130cc565b604051918291602083526020830190612996565b0390f35b34610475576000366003190112610475576105cf6105bb612ffe565b346104755760003660031901126104755761061560018060a01b03600054163314612e5b565b60035480151590816109b3575b501561095457610633600154612c39565b601f8111610915575b50600060015560006002556000600355600060045560005b6009548110156106b3578061066a60019261285d565b838060a01b0391549060031b1c1660005260086020526106ad6004604060002060008155600085820155600060028201556106a760038201612faf565b01612faf565b01610654565b6009546000600955806108dc575b50600b546000600b55806108a3575b50600d546000600d558061086a575b5060005b600a5481101561073f57806106f96001926128fa565b838060a01b0391549060031b1c1660005260076020526000600460408220828155610725858201612faf565b61073160028201612faf565b8260038201550155016106e3565b600a546000600a5580610831575b50600c546000600c55806107f8575b50600e546000600e55806107bf575b50600f546000600f5580610786575b60016005819055600655005b600f6000526107b9907f8d1108e10bcb7c27dddfc02ed9d693a074039d026cf4ea4240b40f7d581ac80290810190612eb8565b8061077a565b600e6000526107f2907fbb7b4a454dc3493923482f07822329ed19e8244eff582cc204f8554c3620c3fd90810190612eb8565b8061076b565b600c60005261082b907fdf6966c971051c3d54ec59162606531493a51404a002842f56009d7e5cf4a8c790810190612eb8565b8061075c565b600a600052610864907fc65a7bb8d6351c1cf70c95a316cc6a92839c986682d98bc35f958f4883f9d2a890810190612eb8565b8061074d565b600d60005261089d907fd7b6990105719101dabeb77144f2a3385c8033acd3af97e9423a695e81ad1eb590810190612eb8565b806106df565b600b6000526108d6907f0175b7a638427703f0dbe7bb9bbf987a2551717b34e79f33b5b1008d1fa01db990810190612eb8565b806106d0565b600960005261090f907f6e1540171b6c0c960b71a7020d9f60077f6af931a8bbf590da0223dacf75c7af90810190612eb8565b806106c1565b600160005261094e90601f0160051c7fb10e2d527612073b26eecdfd717e6a320cf44b4afac2b0732d9fcbe2b7fa0cf690810190612eb8565b8061063c565b60405162461bcd60e51b815260206004820152603160248201527f456c656374696f6e206973207374696c6c206f6e676f696e672e2043616e6e6f6044820152703a103932b9b2ba1031b7b73a3930b1ba1760791b6064820152608490fd5b9050421181610622565b34610475576000366003190112610475576020600454604051908152f35b34610475576020366003190112610475576109f4612ba3565b60005490610a0c336001600160a01b03841614612e5b565b6001600160a01b0316908115610a2c576001600160a01b03191617600055005b60405162461bcd60e51b8152602060048201526024808201527f4e6577206f776e65722063616e6e6f7420626520746865207a65726f206164646044820152637265737360e01b6064820152608490fd5b34610475576020366003190112610475576001600160a01b03610a9e612ba3565b166000526007602052604060002060ff815416610abd60018301612c73565b916105cf610acd60028301612c73565b610b076004600385015494015491610af96040519788971515885260c0602089015260c0880190612955565b908682036040880152612955565b60608501939093526001600160a01b038116608085015260a080850191901c60ff16612948565b34610475576020366003190112610475576004356001600160401b03811161047557610b5e903690600401612b4d565b60055460405190610b6e82612b11565b815260208101906000825260408101338152606082016000815260808301948552610b97612f14565b60a08401908152336000908152600860205260409020935184559351600184015590516002830180546001600160a01b0319166001600160a01b039290921691909117815590516003811015610dd557610bf091612e94565b6003810192519283516001600160401b03811161039857610c15816102438454612c39565b6020601f8211600114610d6c579080610c489260049697600092610d615750508160011b916000199060031b1c19161790565b90555b0190519081516001600160401b03811161039857610c6d816102438454612c39565b602092601f8211600114610cfe57610c9e92938291600092610cf35750508160011b916000199060031b1c19161790565b90555b600954600160401b81101561039857610cc5816001610ce393016009556009612930565b81543360039290921b91821b6001600160a01b0390921b1916179055565b610cee600554612e4c565b600555005b015190508480610268565b601f1982169383600052806000209160005b868110610d495750836001959610610d30575b505050811b019055610ca1565b015160001960f88460031b161c19169055838080610d23565b91926020600181928685015181550194019201610d10565b015190508780610268565b601f1982169583600052816000209660005b818110610dbd5750916004969791846001959410610da4575b505050811b019055610c4b565b015160001960f88460031b161c19169055868080610d97565b83830151895560019098019760209384019301610d7e565b634e487b7160e01b600052602160045260246000fd5b3461047557602036600319011261047557600435600b5481101561047557610e146020916128df565b905460405160039290921b1c6001600160a01b03168152f35b3461047557600036600319011261047557600e54610e4a81612dd2565b9060005b818110610e6357604051806105cf8582612a5b565b80610e6f6001926128c4565b838060a01b0391549060031b1c1660005260076020526040600020610eed60ff600460405193610e9e85612b11565b8281541615158552610eb1878201612c73565b6020860152610ec260028201612c73565b6040860152600381015460608601520154858060a01b038116608085015260a01c1660a08301612dc6565b610ef78286612db2565b52610f028185612db2565b5001610e4e565b34610475576000366003190112610475576000546040516001600160a01b039091168152602090f35b34610475576020366003190112610475576001600160a01b03610f53612ba3565b166000526008602052604060002080546105cf600183015492610fcd600282015491610fbc610f906004610f8960038501612c73565b9301612c73565b936040519788978852602088015260018060a01b038116604088015260ff606088019160a01c16612948565b60c0608086015260c0850190612955565b9083820360a0850152612955565b3461047557600036600319011261047557600f54610ff881612dd2565b9060005b81811061101157604051806105cf8582612a5b565b8061101d600192612915565b838060a01b0391549060031b1c166000526007602052604060002061104c60ff600460405193610e9e85612b11565b6110568286612db2565b526110618185612db2565b5001610ffc565b3461047557600036600319011261047557604051600060015461108a81612c39565b808452906001811690811561112557506001146110c6575b6105cf836110b281850382612b2c565b604051918291602083526020830190612955565b600160009081527fb10e2d527612073b26eecdfd717e6a320cf44b4afac2b0732d9fcbe2b7fa0cf6939250905b80821061110b575090915081016020016110b26110a2565b9192600181602092548385880101520191019092916110f3565b60ff191660208086019190915291151560051b840190910191506110b290506110a2565b3461047557602036600319011261047557600435600a5481101561047557610e146020916128fa565b34610475576020366003190112610475576004356001600160401b038111610475576111a2903690600401612b4d565b6111b860025480159081156112d5575b50612f59565b33600090815260076020526040902060048101546001600160a01b0316156112905760020181516001600160401b038111610398576111fb816102438454612c39565b602092601f82116001146112305761122c92938291600092610cf35750508160011b916000199060031b1c19161790565b9055005b601f1982169383600052806000209160005b868110611278575083600195961061125f575b505050811b019055005b015160001960f88460031b161c19169055838080611255565b91926020600181928685015181550194019201611242565b60405162461bcd60e51b815260206004820152601860248201527f4e6f20766f746572206461746120617661696c61626c652e00000000000000006044820152606490fd5b90504210836111b2565b34610475576112ed36612bfa565b9061130360018060a01b03600054163314612e5b565b6001600160a01b038181166000818152600860205260409020600281018054929493909216156114bb57815460ff60a01b1916600160a01b179091558351600491909101906001600160401b03811161039857611364816102438454612c39565b602094601f82116001146114565761139792939495829160009261144b5750508160011b916000199060031b1c19161790565b90555b600b5490600160401b821015610398576102a58260016113bf9401600b55600b612930565b60005b600d548082101561039657826113d78361288e565b905460039190911b1c6001600160a01b0316146113f757506001016113c2565b600019810192508211610380576102a561141361142b9361288e565b905460039190911b1c6001600160a01b03169161288e565b600d54801561036a576000190161144661035082600d612930565b600d55005b015190508680610268565b601f1982169583600052806000209160005b8881106114a35750836001959697981061148a575b505050811b01905561139a565b015160001960f88460031b161c1916905585808061147d565b91926020600181928685015181550194019201611468565b60405162461bcd60e51b815260206004820152602d60248201527f546869732063616e64696461746520646f6573206e6f7420617070656172206960448201526c371037bab91039bcb9ba32b69760991b6064820152608490fd5b34610475576020366003190112610475576004356001600160401b03811161047557611546903690600401612b4d565b61155b60025480159081156112d55750612f59565b33600090815260086020526040902060028101546001600160a01b0316156116155760030181516001600160401b0381116103985761159e816102438454612c39565b602092601f82116001146115cf5761122c92938291600092610cf35750508160011b916000199060031b1c19161790565b601f1982169383600052806000209160005b8681106115fd575083600195961061125f57505050811b019055005b919260206001819286850151815501940192016115e1565b60405162461bcd60e51b815260206004820152601c60248201527f4e6f2063616e646964617465206461746120617661696c61626c652e000000006044820152606490fd5b3461047557602036600319011261047557611673612ba3565b60025442106118265760035442116117ee57336000526007602052604060002060ff600482015460a01c166003811015610dd5576001036117a95780549160ff831661176b5760018060a01b0316600052600860205260406000209060ff600283015460a01c166003811015610dd557600103611726576001809360ff1916179055016117008154612e4c565b9055600f54600160401b81101561039857610cc58160016103969301600f55600f612930565b60405162461bcd60e51b815260206004820152601a60248201527f43616e646964617465206973206e6f742061636365707465642e0000000000006044820152606490fd5b60405162461bcd60e51b8152602060048201526016602482015275165bdd481a185d9948185b1c9958591e481d9bdd195960521b6044820152606490fd5b60405162461bcd60e51b815260206004820152601e60248201527f596f7520617265206e6f74206120636f6e6669726d656420766f7465722e00006044820152606490fd5b60405162461bcd60e51b815260206004820152601060248201526f159bdd1a5b99c81a185cc8195b99195960821b6044820152606490fd5b60405162461bcd60e51b815260206004820152601a60248201527f566f74696e6720686173206e6f742073746172746564207965740000000000006044820152606490fd5b34610475576020366003190112610475576004356001600160401b0381116104755761189b903690600401612b4d565b6006546040516118aa81612b11565b600081526118b6612f14565b90602081019182526040810193845260608101928352608081019233845260a08201926000845233600052600760205260406000209251151560ff801985541691161783556001830190518051906001600160401b03821161039857611926826119208554612c39565b85612ecf565b602090601f8311600114611a9e57611956929160009183611a295750508160011b916000199060031b1c19161790565b90555b6002820194519485516001600160401b0381116103985761197e816102438454612c39565b6020601f8211600114611a345790806119b2926004979899600092611a295750508160011b916000199060031b1c19161790565b90555b516003828101919091559351910180546001600160a01b0319166001600160a01b039290921691909117815590519091811015610dd5576119f591612e94565b600a54600160401b81101561039857610cc5816001611a199301600a55600a612930565b611a24600654612e4c565b600655005b015190508980610268565b601f1982169783600052816000209860005b818110611a86575091600497989991846001959410611a6d575b505050811b0190556119b5565b015160001960f88460031b161c19169055888080611a60565b838301518b556001909a019960209384019301611a46565b90601f1983169184600052816000209260005b818110611aed5750908460019594939210611ad4575b505050811b019055611959565b015160001960f88460031b161c19169055888080611ac7565b92936020600181928786015181550195019301611ab1565b3461047557600036600319011261047557600a54611b2281612dd2565b9060005b818110611b3b57604051806105cf8582612a5b565b80611b476001926128fa565b838060a01b0391549060031b1c1660005260076020526040600020611b7660ff600460405193610e9e85612b11565b611b808286612db2565b52611b8b8185612db2565b5001611b26565b3461047557602036600319011261047557600435600f5481101561047557610e14602091612915565b3461047557602036600319011261047557600435600d5481101561047557610e1460209161288e565b3461047557602036600319011261047557600435611c0d60018060a01b03600054163314612e5b565b600454611c8657600354811115611c2357600455005b60405162461bcd60e51b815260206004820152603560248201527f526573756c74207075626c69636174696f6e2074696d65206d75737420626520604482015274616674657220766f74696e6720656e642074696d6560581b6064820152608490fd5b60405162461bcd60e51b815260206004820152602360248201527f526573756c74207075626c69636174696f6e2074696d6520616c7265616479206044820152621cd95d60ea1b6064820152608490fd5b3461047557611ce536612bfa565b90611cfb60018060a01b03600054163314612e5b565b6001600160a01b03818116600081815260086020526040902060028101805492949390921615611ea857815460ff60a01b1916600160a11b179091558351600491909101906001600160401b03811161039857611d5c816102438454612c39565b602094601f8211600114611e4357611d8f92939495829160009261144b5750508160011b916000199060031b1c19161790565b90555b600d5490600160401b821015610398576102a5826001611db79401600d55600d612930565b60005b600b54808210156103965782611dcf836128df565b905460039190911b1c6001600160a01b031614611def5750600101611dba565b600019810192508211610380576102a5611e0b611e23936128df565b905460039190911b1c6001600160a01b0316916128df565b600b54801561036a5760001901611e3e61035082600b612930565b600b55005b601f1982169583600052806000209160005b888110611e9057508360019596979810611e77575b505050811b019055611d92565b015160001960f88460031b161c19169055858080611e6a565b91926020600181928685015181550194019201611e55565b60405162461bcd60e51b815260206004820152601b60248201527f4e6f2063616e646964617465206461746120617661696c61626c6500000000006044820152606490fd5b3461047557602036600319011261047557600435600c5481101561047557610e146020916128a9565b3461047557611f2436612bb9565b600a549060208301906000805b8481106120535750611f4290612dd2565b9360009160005b858110611f5e57604051806105cf8982612a5b565b611f67816128fa565b60018060a01b0391549060031b1c166000526007602052604060002060405190611f9082612b11565b60ff81541615158252611fa560018201612c73565b60208301526004611fb860028301612c73565b916040840192835260038101546060850152015490611fef60ff608085019360018060a01b038116855260a01c1660a08501612dc6565b51602081519101208551882014908161203c575b50612012575b50600101611f49565b8461203591612024600194978b612db2565b5261202f818a612db2565b50612e4c565b9390612009565b516001600160a01b03858116911614905089612003565b61205c816128fa565b60018060a01b0391549060031b1c16600052600760205260406000206040519061208582612b11565b60ff8154161515825261209a60018201612c73565b60208301526120e560046120b060028401612c73565b60408501908152600384015460608601529201546001600160a01b038116608085019081529360a091821c60ff169101612dc6565b51602081519101208751862014908161211b575b50612107575b600101611f31565b90612113600191612e4c565b9190506120ff565b516001600160a01b038581169116149050876120f9565b346104755761214036612bfa565b9061215660018060a01b03600054163314612e5b565b6001600160a01b0381811660008181526007602052604090206004810180549294939092161561230357815460ff60a01b1916600160a11b179091558351600191909101906001600160401b038111610398576121b7816102438454612c39565b602094601f821160011461229e576121ea92939495829160009261144b5750508160011b916000199060031b1c19161790565b90555b600e5490600160401b821015610398576102a58260016122129401600e55600e612930565b60005b600c5480821015610396578261222a836128a9565b905460039190911b1c6001600160a01b03161461224a5750600101612215565b600019810192508211610380576102a561226661227e936128a9565b905460039190911b1c6001600160a01b0316916128a9565b600c54801561036a576000190161229961035082600c612930565b600c55005b601f1982169583600052806000209160005b8881106122eb575083600195969798106122d2575b505050811b0190556121ed565b015160001960f88460031b161c191690558580806122c5565b919260206001819286850151815501940192016122b0565b60405162461bcd60e51b815260206004820152601760248201527f4e6f20766f746572206461746120617661696c61626c650000000000000000006044820152606490fd5b346104755761235636612bb9565b6009549060208301906000805b848110612472575061237490612d62565b9360009160005b85811061239057604051806105cf89826129fb565b6123998161285d565b60018060a01b0391549060031b1c1660005260086020526040600020604051906123c282612b11565b805482526001810154602083015260028101546001600160a01b0381166040840190815291906123fb9060a01c60ff1660608501612dc6565b61241a600461240c60038401612c73565b926080860193845201612c73565b60a084015251602081519101208551882014908161245b575b50612442575b5060010161237b565b8461245491612024600194978b612db2565b9390612439565b516001600160a01b03858116911614905089612433565b61247b8161285d565b60018060a01b0391549060031b1c1660005260086020526040600020604051906124a482612b11565b805482526001810154602083015260028101546001600160a01b0381166040840190815292906124dd9060a01c60ff1660608301612dc6565b60a06124fe60046124f060038601612c73565b946080850195865201612c73565b910152516020815191012087518620149081612537575b50612523575b600101612363565b9061252f600191612e4c565b91905061251b565b516001600160a01b03858116911614905087612515565b3461047557600036600319011261047557600b5461256b81612d62565b9060005b81811061258457604051806105cf85826129fb565b806125906001926128df565b838060a01b0391549060031b1c16600052600860205260406000206126056004604051926125bd84612b11565b805484528581015460208501526125ee60ff6002830154888060a01b038116604088015260a01c1660608601612dc6565b6125fa60038201612c73565b608085015201612c73565b60a08201526126148286612db2565b5261261f8185612db2565b500161256f565b3461047557602036600319011261047557600435600e5481101561047557610e146020916128c4565b3461047557600036600319011261047557600c5461266c81612dd2565b9060005b81811061268557604051806105cf8582612a5b565b806126916001926128a9565b838060a01b0391549060031b1c16600052600760205260406000206126c060ff600460405193610e9e85612b11565b6126ca8286612db2565b526126d58185612db2565b5001612670565b34610475576000366003190112610475576020600254604051908152f35b346104755760003660031901126104755760095461271781612d62565b9060005b81811061273057604051806105cf85826129fb565b8061273c60019261285d565b838060a01b0391549060031b1c16600052600860205260406000206127696004604051926125bd84612b11565b60a08201526127788286612db2565b526127838185612db2565b500161271b565b34610475576000366003190112610475576020600354604051908152f35b3461047557600036600319011261047557600d546127c581612d62565b9060005b8181106127de57604051806105cf85826129fb565b806127ea60019261288e565b838060a01b0391549060031b1c16600052600860205260406000206128176004604051926125bd84612b11565b60a08201526128268286612db2565b526128318185612db2565b50016127c9565b346104755760203660031901126104755760043560095481101561047557610e146020915b60095481101561287857600960005260206000200190600090565b634e487b7160e01b600052603260045260246000fd5b600d5481101561287857600d60005260206000200190600090565b600c5481101561287857600c60005260206000200190600090565b600e5481101561287857600e60005260206000200190600090565b600b5481101561287857600b60005260206000200190600090565b600a5481101561287857600a60005260206000200190600090565b600f5481101561287857600f60005260206000200190600090565b80548210156128785760005260206000200190600090565b906003821015610dd55752565b919082519283825260005b848110612981575050826000602080949584010152601f8019910116010190565b80602080928401015182828601015201612960565b6129f891815181526020820151602082015260018060a01b0360408301511660408201526129cc60608301516060830190612948565b60a06129e7608084015160c0608085015260c0840190612955565b9201519060a0818403910152612955565b90565b602081016020825282518091526040820191602060408360051b8301019401926000915b838310612a2e57505050505090565b9091929394602080612a4c600193603f198682030187528951612996565b97019301930191939290612a1f565b602081016020825282518091526040820191602060408360051b8301019401926000915b838310612a8e57505050505090565b9091929394602080600192603f19858203018652612b0289519182511515815260a080612add612acb8787015160c08987015260c0860190612955565b60408701518582036040870152612955565b94606081015160608501528880831b0360808201511660808501520151910190612948565b97019301930191939290612a7f565b60c081019081106001600160401b0382111761039857604052565b90601f801991011681019081106001600160401b0382111761039857604052565b81601f82011215610475578035906001600160401b0382116103985760405192612b81601f8401601f191660200185612b2c565b8284526020838301011161047557816000926020809301838601378301015290565b600435906001600160a01b038216820361047557565b604060031982011261047557600435906001600160401b03821161047557612be391600401612b4d565b906024356001600160a01b03811681036104755790565b906040600319830112610475576004356001600160a01b03811681036104755791602435906001600160401b038211610475576129f891600401612b4d565b90600182811c92168015612c69575b6020831014612c5357565b634e487b7160e01b600052602260045260246000fd5b91607f1691612c48565b9060405191826000825492612c8784612c39565b8084529360018116908115612cf55750600114612cae575b50612cac92500383612b2c565b565b90506000929192526020600020906000915b818310612cd9575050906020612cac9282010138612c9f565b6020919350806001915483858901015201910190918492612cc0565b905060209250612cac94915060ff191682840152151560051b82010138612c9f565b6001600160401b0381116103985760051b60200190565b60405190612d3b82612b11565b606060a0836000815260006020820152600060408201526000838201528260808201520152565b90612d6c82612d17565b612d796040519182612b2c565b8281528092612d8a601f1991612d17565b019060005b828110612d9b57505050565b602090612da6612d2e565b82828501015201612d8f565b80518210156128785760209160051b010190565b6003821015610dd55752565b90612ddc82612d17565b612de96040519182612b2c565b8281528092612dfa601f1991612d17565b019060005b828110612e0b57505050565b602090604051612e1a81612b11565b60008152606083820152606060408201526000606082015260006080820152600060a082015282828501015201612dff565b60001981146103805760010190565b15612e6257565b60405162461bcd60e51b815260206004820152600a60248201526927b7363c9037bbb732b960b11b6044820152606490fd5b906003811015610dd557815460ff60a01b191660a09190911b60ff60a01b16179055565b818110612ec3575050565b60008155600101612eb8565b9190601f8111612ede57505050565b612cac926000526020600020906020601f840160051c83019310612f0a575b601f0160051c0190612eb8565b9091508190612efd565b60405190612f23606083612b2c565b60218252601b60fa1b6040837f526567697374726174696f6e206973206177616974696e6720617070726f766160208201520152565b15612f6057565b60405162461bcd60e51b815260206004820152602160248201527f43616e6e6f74206d6f6469667920616674657220766f74696e672073746172746044820152607360f81b6064820152608490fd5b612fb98154612c39565b9081612fc3575050565b81601f60009311600114612fd5575055565b81835260208320612ff191601f0160051c810190600101612eb8565b8082528160208120915555565b613006612d2e565b5061300f612d2e565b600b546000805b8281106130235750505090565b61302c816128df565b60018060a01b0391549060031b1c16600052600860205260406000206040519061305582612b11565b805482526130a760046001830154926020850193845261309060ff600283015460018060a01b038116604089015260a01c1660608701612dc6565b61309c60038201612c73565b608086015201612c73565b60a0830152518381116130bf575b5050600101613016565b90945091506001386130b5565b6130d4612d2e565b50600b541561316a5760035442106130ee576129f8612ffe565b6040516130fa81612b11565b60008152600060208201526000604082015260006060820152604051613121602082612b2c565b600081526080820152604051613138604082612b2c565b601f81527f506c65617365207761697420756e74696c20656c656374696f6e20656e647300602082015260a082015290565b60405162461bcd60e51b8152602060048201526024808201527f4e6f2043616e6469646174657320616363657074656420666f7220656c65637460448201526334b7b71760e11b6064820152608490fdfea264697066735822122009cd7b17a891772d6cd809f44bd76647790ee92ddd90c2d5c30b21230c7dd01764736f6c634300081c0033","opcodes":"PUSH1 0x80 PUSH1 0x40 MSTORE CALLVALUE PUSH2 0x23B JUMPI PUSH2 0x3457 DUP1 CODESIZE SUB DUP1 PUSH2 0x19 DUP2 PUSH2 0x240 JUMP JUMPDEST SWAP3 DUP4 CODECOPY DUP2 ADD SWAP1 PUSH1 0x20 DUP2 DUP4 SUB SLT PUSH2 0x23B JUMPI DUP1 MLOAD SWAP1 PUSH1 0x1 PUSH1 0x1 PUSH1 0x40 SHL SUB DUP3 GT PUSH2 0x23B JUMPI ADD DUP2 PUSH1 0x1F DUP3 ADD SLT ISZERO PUSH2 0x23B JUMPI DUP1 MLOAD SWAP1 PUSH1 0x1 PUSH1 0x1 PUSH1 0x40 SHL SUB DUP3 GT PUSH2 0x210 JUMPI PUSH2 0x6A PUSH1 0x1F DUP4 ADD PUSH1 0x1F NOT AND PUSH1 0x20 ADD PUSH2 0x240 JUMP JUMPDEST SWAP3 DUP3 DUP5 MSTORE PUSH1 0x20 DUP4 DUP4 ADD ADD GT PUSH2 0x23B JUMPI PUSH1 0x0 JUMPDEST DUP3 DUP2 LT PUSH2 0x226 JUMPI PUSH1 0x0 DUP4 DUP6 ADD PUSH1 0x20 ADD DUP2 SWAP1 MSTORE DUP1 SLOAD PUSH1 0x1 PUSH1 0x1 PUSH1 0xA0 SHL SUB NOT AND CALLER OR SWAP1 SSTORE DUP4 MLOAD DUP5 SWAP1 PUSH1 0x1 PUSH1 0x1 PUSH1 0x40 SHL SUB DUP2 GT PUSH2 0x210 JUMPI PUSH1 0x1 SLOAD PUSH1 0x1 DUP2 DUP2 SHR SWAP2 AND DUP1 ISZERO PUSH2 0x206 JUMPI JUMPDEST PUSH1 0x20 DUP3 LT EQ PUSH2 0x1F0 JUMPI PUSH1 0x1F DUP2 GT PUSH2 0x18B JUMPI JUMPDEST POP PUSH1 0x20 SWAP2 PUSH1 0x1F DUP3 GT PUSH1 0x1 EQ PUSH2 0x127 JUMPI SWAP2 DUP2 SWAP3 PUSH1 0x0 SWAP3 PUSH2 0x11C JUMPI JUMPDEST POP POP DUP2 PUSH1 0x1 SHL SWAP2 PUSH1 0x0 NOT SWAP1 PUSH1 0x3 SHL SHR NOT AND OR PUSH1 0x1 SSTORE JUMPDEST PUSH1 0x1 PUSH1 0x5 SSTORE PUSH1 0x1 PUSH1 0x6 SSTORE PUSH1 0x40 MLOAD PUSH2 0x31F1 SWAP1 DUP2 PUSH2 0x266 DUP3 CODECOPY RETURN JUMPDEST ADD MLOAD SWAP1 POP DUP3 DUP1 PUSH2 0xED JUMP JUMPDEST PUSH1 0x1F NOT DUP3 AND SWAP3 PUSH1 0x1 PUSH1 0x0 MSTORE DUP1 PUSH1 0x0 KECCAK256 SWAP2 PUSH1 0x0 JUMPDEST DUP6 DUP2 LT PUSH2 0x173 JUMPI POP DUP4 PUSH1 0x1 SWAP6 LT PUSH2 0x15A JUMPI JUMPDEST POP POP POP DUP2 SHL ADD PUSH1 0x1 SSTORE PUSH2 0x103 JUMP JUMPDEST ADD MLOAD PUSH1 0x0 NOT PUSH1 0xF8 DUP5 PUSH1 0x3 SHL AND SHR NOT AND SWAP1 SSTORE DUP3 DUP1 DUP1 PUSH2 0x14C JUMP JUMPDEST SWAP2 SWAP3 PUSH1 0x20 PUSH1 0x1 DUP2 SWAP3 DUP7 DUP6 ADD MLOAD DUP2 SSTORE ADD SWAP5 ADD SWAP3 ADD PUSH2 0x13A JUMP JUMPDEST PUSH1 0x1 PUSH1 0x0 MSTORE PUSH32 0xB10E2D527612073B26EECDFD717E6A320CF44B4AFAC2B0732D9FCBE2B7FA0CF6 PUSH1 0x1F DUP4 ADD PUSH1 0x5 SHR DUP2 ADD SWAP2 PUSH1 0x20 DUP5 LT PUSH2 0x1E6 JUMPI JUMPDEST PUSH1 0x1F ADD PUSH1 0x5 SHR ADD SWAP1 JUMPDEST DUP2 DUP2 LT PUSH2 0x1DA JUMPI POP PUSH2 0xD3 JUMP JUMPDEST PUSH1 0x0 DUP2 SSTORE PUSH1 0x1 ADD PUSH2 0x1CD JUMP JUMPDEST SWAP1 SWAP2 POP DUP2 SWAP1 PUSH2 0x1C4 JUMP JUMPDEST PUSH4 0x4E487B71 PUSH1 0xE0 SHL PUSH1 0x0 MSTORE PUSH1 0x22 PUSH1 0x4 MSTORE PUSH1 0x24 PUSH1 0x0 REVERT JUMPDEST SWAP1 PUSH1 0x7F AND SWAP1 PUSH2 0xC1 JUMP JUMPDEST PUSH4 0x4E487B71 PUSH1 0xE0 SHL PUSH1 0x0 MSTORE PUSH1 0x41 PUSH1 0x4 MSTORE PUSH1 0x24 PUSH1 0x0 REVERT JUMPDEST DUP1 PUSH1 0x20 DUP1 SWAP3 DUP5 ADD ADD MLOAD DUP3 DUP3 DUP8 ADD ADD MSTORE ADD PUSH2 0x7C JUMP JUMPDEST PUSH1 0x0 DUP1 REVERT JUMPDEST PUSH1 0x40 MLOAD SWAP2 SWAP1 PUSH1 0x1F ADD PUSH1 0x1F NOT AND DUP3 ADD PUSH1 0x1 PUSH1 0x1 PUSH1 0x40 SHL SUB DUP2 GT DUP4 DUP3 LT OR PUSH2 0x210 JUMPI PUSH1 0x40 MSTORE JUMP INVALID PUSH1 0x80 PUSH1 0x40 MSTORE PUSH1 0x4 CALLDATASIZE LT ISZERO PUSH2 0x12 JUMPI PUSH1 0x0 DUP1 REVERT JUMPDEST PUSH1 0x0 CALLDATALOAD PUSH1 0xE0 SHR DUP1 PUSH4 0x366AC37 EQ PUSH2 0x2838 JUMPI DUP1 PUSH4 0x73F966D EQ PUSH2 0x27A8 JUMPI DUP1 PUSH4 0x1EA736E0 EQ PUSH2 0x278A JUMPI DUP1 PUSH4 0x1EE9367C EQ PUSH2 0x26FA JUMPI DUP1 PUSH4 0x2019A608 EQ PUSH2 0x26DC JUMPI DUP1 PUSH4 0x23A2B2ED EQ PUSH2 0x264F JUMPI DUP1 PUSH4 0x3AFA3E07 EQ PUSH2 0x2626 JUMPI DUP1 PUSH4 0x3CFDE26C EQ PUSH2 0x254E JUMPI DUP1 PUSH4 0x429B0B22 EQ PUSH2 0x2348 JUMPI DUP1 PUSH4 0x4A2846A8 EQ PUSH2 0x2132 JUMPI DUP1 PUSH4 0x4D867F4E EQ PUSH2 0x1F16 JUMPI DUP1 PUSH4 0x53DD128C EQ PUSH2 0x1EED JUMPI DUP1 PUSH4 0x59632C22 EQ PUSH2 0x1CD7 JUMPI DUP1 PUSH4 0x5B45CFCA EQ PUSH2 0x1BE4 JUMPI DUP1 PUSH4 0x5E894B12 EQ PUSH2 0x1BBB JUMPI DUP1 PUSH4 0x5F1BC34E EQ PUSH2 0x1B92 JUMPI DUP1 PUSH4 0x60FC4E32 EQ PUSH2 0x1B05 JUMPI DUP1 PUSH4 0x6428A486 EQ PUSH2 0x186B JUMPI DUP1 PUSH4 0x6DD7D8EA EQ PUSH2 0x165A JUMPI DUP1 PUSH4 0x79432DB5 EQ PUSH2 0x1516 JUMPI DUP1 PUSH4 0x7EB21B51 EQ PUSH2 0x12DF JUMPI DUP1 PUSH4 0x82FF2AEB EQ PUSH2 0x1172 JUMPI DUP1 PUSH4 0x849C5657 EQ PUSH2 0x1149 JUMPI DUP1 PUSH4 0x85E8E7A7 EQ PUSH2 0x1068 JUMPI DUP1 PUSH4 0x8987CB32 EQ PUSH2 0xFDB JUMPI DUP1 PUSH4 0x8AB66A90 EQ PUSH2 0xF32 JUMPI DUP1 PUSH4 0x8DA5CB5B EQ PUSH2 0xF09 JUMPI DUP1 PUSH4 0x964A43B9 EQ PUSH2 0xE2D JUMPI DUP1 PUSH4 0x9E7A8145 EQ PUSH2 0xDEB JUMPI DUP1 PUSH4 0x9EB88DB6 EQ PUSH2 0xB2E JUMPI DUP1 PUSH4 0xA3EC138D EQ PUSH2 0xA7D JUMPI DUP1 PUSH4 0xA6F9DAE1 EQ PUSH2 0x9DB JUMPI DUP1 PUSH4 0xAC94BA4C EQ PUSH2 0x9BD JUMPI DUP1 PUSH4 0xB181A8FC EQ PUSH2 0x5EF JUMPI DUP1 PUSH4 0xBAB912A2 EQ PUSH2 0x5D3 JUMPI DUP1 PUSH4 0xD28178D7 EQ PUSH2 0x59F JUMPI DUP1 PUSH4 0xF33698F1 EQ PUSH2 0x47A JUMPI PUSH4 0xFAD761D3 EQ PUSH2 0x1BE JUMPI PUSH1 0x0 DUP1 REVERT JUMPDEST CALLVALUE PUSH2 0x475 JUMPI PUSH2 0x1CC CALLDATASIZE PUSH2 0x2BFA JUMP JUMPDEST SWAP1 PUSH2 0x1E2 PUSH1 0x1 DUP1 PUSH1 0xA0 SHL SUB PUSH1 0x0 SLOAD AND CALLER EQ PUSH2 0x2E5B JUMP JUMPDEST PUSH1 0x1 PUSH1 0x1 PUSH1 0xA0 SHL SUB DUP2 DUP2 AND PUSH1 0x0 DUP2 DUP2 MSTORE PUSH1 0x7 PUSH1 0x20 MSTORE PUSH1 0x40 SWAP1 KECCAK256 PUSH1 0x4 DUP2 ADD DUP1 SLOAD SWAP3 SWAP5 SWAP4 SWAP1 SWAP3 AND ISZERO PUSH2 0x41E JUMPI DUP2 SLOAD PUSH1 0xFF PUSH1 0xA0 SHL NOT AND PUSH1 0x1 PUSH1 0xA0 SHL OR SWAP1 SWAP2 SSTORE DUP4 MLOAD PUSH1 0x1 SWAP2 SWAP1 SWAP2 ADD SWAP1 PUSH1 0x1 PUSH1 0x1 PUSH1 0x40 SHL SUB DUP2 GT PUSH2 0x398 JUMPI PUSH2 0x249 DUP2 PUSH2 0x243 DUP5 SLOAD PUSH2 0x2C39 JUMP JUMPDEST DUP5 PUSH2 0x2ECF JUMP JUMPDEST PUSH1 0x20 SWAP5 PUSH1 0x1F DUP3 GT PUSH1 0x1 EQ PUSH2 0x3B9 JUMPI PUSH2 0x27D SWAP3 SWAP4 SWAP5 SWAP6 DUP3 SWAP2 PUSH1 0x0 SWAP3 PUSH2 0x3AE JUMPI JUMPDEST POP POP DUP2 PUSH1 0x1 SHL SWAP2 PUSH1 0x0 NOT SWAP1 PUSH1 0x3 SHL SHR NOT AND OR SWAP1 JUMP JUMPDEST SWAP1 SSTORE JUMPDEST PUSH1 0xC SLOAD SWAP1 PUSH1 0x1 PUSH1 0x40 SHL DUP3 LT ISZERO PUSH2 0x398 JUMPI PUSH2 0x2A5 DUP3 PUSH1 0x1 PUSH2 0x2C9 SWAP5 ADD PUSH1 0xC SSTORE PUSH1 0xC PUSH2 0x2930 JUMP JUMPDEST SWAP1 DUP1 SLOAD PUSH1 0x1 PUSH1 0x1 PUSH1 0xA0 SHL SUB PUSH1 0x3 SWAP4 SWAP1 SWAP4 SHL DUP4 DUP2 SHL NOT SWAP1 SWAP2 AND SWAP3 SWAP1 SWAP4 AND SWAP1 SWAP3 SHL OR SWAP1 SSTORE JUMP JUMPDEST PUSH1 0x0 JUMPDEST PUSH1 0xE SLOAD DUP1 DUP3 LT ISZERO PUSH2 0x396 JUMPI DUP3 PUSH2 0x2E1 DUP4 PUSH2 0x28C4 JUMP JUMPDEST SWAP1 SLOAD PUSH1 0x3 SWAP2 SWAP1 SWAP2 SHL SHR PUSH1 0x1 PUSH1 0x1 PUSH1 0xA0 SHL SUB AND EQ PUSH2 0x301 JUMPI POP PUSH1 0x1 ADD PUSH2 0x2CC JUMP JUMPDEST PUSH1 0x0 NOT DUP2 ADD SWAP3 POP DUP3 GT PUSH2 0x380 JUMPI PUSH2 0x2A5 PUSH2 0x31D PUSH2 0x335 SWAP4 PUSH2 0x28C4 JUMP JUMPDEST SWAP1 SLOAD PUSH1 0x3 SWAP2 SWAP1 SWAP2 SHL SHR PUSH1 0x1 PUSH1 0x1 PUSH1 0xA0 SHL SUB AND SWAP2 PUSH2 0x28C4 JUMP JUMPDEST PUSH1 0xE SLOAD DUP1 ISZERO PUSH2 0x36A JUMPI PUSH1 0x0 NOT ADD PUSH2 0x365 PUSH2 0x350 DUP3 PUSH1 0xE PUSH2 0x2930 JUMP JUMPDEST DUP2 SLOAD SWAP1 PUSH1 0x1 DUP1 PUSH1 0xA0 SHL SUB SWAP1 PUSH1 0x3 SHL SHL NOT AND SWAP1 SSTORE JUMP JUMPDEST PUSH1 0xE SSTORE STOP JUMPDEST PUSH4 0x4E487B71 PUSH1 0xE0 SHL PUSH1 0x0 MSTORE PUSH1 0x31 PUSH1 0x4 MSTORE PUSH1 0x24 PUSH1 0x0 REVERT JUMPDEST PUSH4 0x4E487B71 PUSH1 0xE0 SHL PUSH1 0x0 MSTORE PUSH1 0x11 PUSH1 0x4 MSTORE PUSH1 0x24 PUSH1 0x0 REVERT JUMPDEST STOP JUMPDEST PUSH4 0x4E487B71 PUSH1 0xE0 SHL PUSH1 0x0 MSTORE PUSH1 0x41 PUSH1 0x4 MSTORE PUSH1 0x24 PUSH1 0x0 REVERT JUMPDEST ADD MLOAD SWAP1 POP CODESIZE DUP1 PUSH2 0x268 JUMP JUMPDEST PUSH1 0x1F NOT DUP3 AND SWAP6 DUP4 PUSH1 0x0 MSTORE DUP1 PUSH1 0x0 KECCAK256 SWAP2 PUSH1 0x0 JUMPDEST DUP9 DUP2 LT PUSH2 0x406 JUMPI POP DUP4 PUSH1 0x1 SWAP6 SWAP7 SWAP8 SWAP9 LT PUSH2 0x3ED JUMPI JUMPDEST POP POP POP DUP2 SHL ADD SWAP1 SSTORE PUSH2 0x280 JUMP JUMPDEST ADD MLOAD PUSH1 0x0 NOT PUSH1 0xF8 DUP5 PUSH1 0x3 SHL AND SHR NOT AND SWAP1 SSTORE CODESIZE DUP1 DUP1 PUSH2 0x3E0 JUMP JUMPDEST SWAP2 SWAP3 PUSH1 0x20 PUSH1 0x1 DUP2 SWAP3 DUP7 DUP6 ADD MLOAD DUP2 SSTORE ADD SWAP5 ADD SWAP3 ADD PUSH2 0x3CB JUMP JUMPDEST PUSH1 0x40 MLOAD PUSH3 0x461BCD PUSH1 0xE5 SHL DUP2 MSTORE PUSH1 0x20 PUSH1 0x4 DUP3 ADD MSTORE PUSH1 0x29 PUSH1 0x24 DUP3 ADD MSTORE PUSH32 0x5468697320766F74657220646F6573206E6F742061707065617220696E206F75 PUSH1 0x44 DUP3 ADD MSTORE PUSH9 0x391039BCB9BA32B697 PUSH1 0xB9 SHL PUSH1 0x64 DUP3 ADD MSTORE PUSH1 0x84 SWAP1 REVERT JUMPDEST PUSH1 0x0 DUP1 REVERT JUMPDEST CALLVALUE PUSH2 0x475 JUMPI PUSH1 0x40 CALLDATASIZE PUSH1 0x3 NOT ADD SLT PUSH2 0x475 JUMPI PUSH1 0x4 CALLDATALOAD PUSH1 0x24 CALLDATALOAD SWAP1 PUSH2 0x4A7 PUSH1 0x1 DUP1 PUSH1 0xA0 SHL SUB PUSH1 0x0 SLOAD AND CALLER EQ PUSH2 0x2E5B JUMP JUMPDEST PUSH1 0x2 SLOAD PUSH2 0x55A JUMPI TIMESTAMP DUP2 GT ISZERO PUSH2 0x516 JUMPI DUP2 DUP2 LT ISZERO PUSH2 0x4C6 JUMPI PUSH1 0x2 SSTORE PUSH1 0x3 SSTORE STOP JUMPDEST PUSH1 0x40 MLOAD PUSH3 0x461BCD PUSH1 0xE5 SHL DUP2 MSTORE PUSH1 0x20 PUSH1 0x4 DUP3 ADD MSTORE PUSH1 0x22 PUSH1 0x24 DUP3 ADD MSTORE PUSH32 0x53746172742074696D65206D757374206265206265666F726520656E64207469 PUSH1 0x44 DUP3 ADD MSTORE PUSH2 0x6D65 PUSH1 0xF0 SHL PUSH1 0x64 DUP3 ADD MSTORE PUSH1 0x84 SWAP1 REVERT JUMPDEST PUSH1 0x64 PUSH1 0x40 MLOAD PUSH3 0x461BCD PUSH1 0xE5 SHL DUP2 MSTORE PUSH1 0x20 PUSH1 0x4 DUP3 ADD MSTORE PUSH1 0x20 PUSH1 0x24 DUP3 ADD MSTORE PUSH32 0x53746172742074696D65206D75737420626520696E2074686520667574757265 PUSH1 0x44 DUP3 ADD MSTORE REVERT JUMPDEST PUSH1 0x40 MLOAD PUSH3 0x461BCD PUSH1 0xE5 SHL DUP2 MSTORE PUSH1 0x20 PUSH1 0x4 DUP3 ADD MSTORE PUSH1 0x18 PUSH1 0x24 DUP3 ADD MSTORE PUSH32 0x566F74696E6720616C7265616479207363686564756C65640000000000000000 PUSH1 0x44 DUP3 ADD MSTORE PUSH1 0x64 SWAP1 REVERT JUMPDEST CALLVALUE PUSH2 0x475 JUMPI PUSH1 0x0 CALLDATASIZE PUSH1 0x3 NOT ADD SLT PUSH2 0x475 JUMPI PUSH2 0x5CF PUSH2 0x5BB PUSH2 0x30CC JUMP JUMPDEST PUSH1 0x40 MLOAD SWAP2 DUP3 SWAP2 PUSH1 0x20 DUP4 MSTORE PUSH1 0x20 DUP4 ADD SWAP1 PUSH2 0x2996 JUMP JUMPDEST SUB SWAP1 RETURN JUMPDEST CALLVALUE PUSH2 0x475 JUMPI PUSH1 0x0 CALLDATASIZE PUSH1 0x3 NOT ADD SLT PUSH2 0x475 JUMPI PUSH2 0x5CF PUSH2 0x5BB PUSH2 0x2FFE JUMP JUMPDEST CALLVALUE PUSH2 0x475 JUMPI PUSH1 0x0 CALLDATASIZE PUSH1 0x3 NOT ADD SLT PUSH2 0x475 JUMPI PUSH2 0x615 PUSH1 0x1 DUP1 PUSH1 0xA0 SHL SUB PUSH1 0x0 SLOAD AND CALLER EQ PUSH2 0x2E5B JUMP JUMPDEST PUSH1 0x3 SLOAD DUP1 ISZERO ISZERO SWAP1 DUP2 PUSH2 0x9B3 JUMPI JUMPDEST POP ISZERO PUSH2 0x954 JUMPI PUSH2 0x633 PUSH1 0x1 SLOAD PUSH2 0x2C39 JUMP JUMPDEST PUSH1 0x1F DUP2 GT PUSH2 0x915 JUMPI JUMPDEST POP PUSH1 0x0 PUSH1 0x1 SSTORE PUSH1 0x0 PUSH1 0x2 SSTORE PUSH1 0x0 PUSH1 0x3 SSTORE PUSH1 0x0 PUSH1 0x4 SSTORE PUSH1 0x0 JUMPDEST PUSH1 0x9 SLOAD DUP2 LT ISZERO PUSH2 0x6B3 JUMPI DUP1 PUSH2 0x66A PUSH1 0x1 SWAP3 PUSH2 0x285D JUMP JUMPDEST DUP4 DUP1 PUSH1 0xA0 SHL SUB SWAP2 SLOAD SWAP1 PUSH1 0x3 SHL SHR AND PUSH1 0x0 MSTORE PUSH1 0x8 PUSH1 0x20 MSTORE PUSH2 0x6AD PUSH1 0x4 PUSH1 0x40 PUSH1 0x0 KECCAK256 PUSH1 0x0 DUP2 SSTORE PUSH1 0x0 DUP6 DUP3 ADD SSTORE PUSH1 0x0 PUSH1 0x2 DUP3 ADD SSTORE PUSH2 0x6A7 PUSH1 0x3 DUP3 ADD PUSH2 0x2FAF JUMP JUMPDEST ADD PUSH2 0x2FAF JUMP JUMPDEST ADD PUSH2 0x654 JUMP JUMPDEST PUSH1 0x9 SLOAD PUSH1 0x0 PUSH1 0x9 SSTORE DUP1 PUSH2 0x8DC JUMPI JUMPDEST POP PUSH1 0xB SLOAD PUSH1 0x0 PUSH1 0xB SSTORE DUP1 PUSH2 0x8A3 JUMPI JUMPDEST POP PUSH1 0xD SLOAD PUSH1 0x0 PUSH1 0xD SSTORE DUP1 PUSH2 0x86A JUMPI JUMPDEST POP PUSH1 0x0 JUMPDEST PUSH1 0xA SLOAD DUP2 LT ISZERO PUSH2 0x73F JUMPI DUP1 PUSH2 0x6F9 PUSH1 0x1 SWAP3 PUSH2 0x28FA JUMP JUMPDEST DUP4 DUP1 PUSH1 0xA0 SHL SUB SWAP2 SLOAD SWAP1 PUSH1 0x3 SHL SHR AND PUSH1 0x0 MSTORE PUSH1 0x7 PUSH1 0x20 MSTORE PUSH1 0x0 PUSH1 0x4 PUSH1 0x40 DUP3 KECCAK256 DUP3 DUP2 SSTORE PUSH2 0x725 DUP6 DUP3 ADD PUSH2 0x2FAF JUMP JUMPDEST PUSH2 0x731 PUSH1 0x2 DUP3 ADD PUSH2 0x2FAF JUMP JUMPDEST DUP3 PUSH1 0x3 DUP3 ADD SSTORE ADD SSTORE ADD PUSH2 0x6E3 JUMP JUMPDEST PUSH1 0xA SLOAD PUSH1 0x0 PUSH1 0xA SSTORE DUP1 PUSH2 0x831 JUMPI JUMPDEST POP PUSH1 0xC SLOAD PUSH1 0x0 PUSH1 0xC SSTORE DUP1 PUSH2 0x7F8 JUMPI JUMPDEST POP PUSH1 0xE SLOAD PUSH1 0x0 PUSH1 0xE SSTORE DUP1 PUSH2 0x7BF JUMPI JUMPDEST POP PUSH1 0xF SLOAD PUSH1 0x0 PUSH1 0xF SSTORE DUP1 PUSH2 0x786 JUMPI JUMPDEST PUSH1 0x1 PUSH1 0x5 DUP2 SWAP1 SSTORE PUSH1 0x6 SSTORE STOP JUMPDEST PUSH1 0xF PUSH1 0x0 MSTORE PUSH2 0x7B9 SWAP1 PUSH32 0x8D1108E10BCB7C27DDDFC02ED9D693A074039D026CF4EA4240B40F7D581AC802 SWAP1 DUP2 ADD SWAP1 PUSH2 0x2EB8 JUMP JUMPDEST DUP1 PUSH2 0x77A JUMP JUMPDEST PUSH1 0xE PUSH1 0x0 MSTORE PUSH2 0x7F2 SWAP1 PUSH32 0xBB7B4A454DC3493923482F07822329ED19E8244EFF582CC204F8554C3620C3FD SWAP1 DUP2 ADD SWAP1 PUSH2 0x2EB8 JUMP JUMPDEST DUP1 PUSH2 0x76B JUMP JUMPDEST PUSH1 0xC PUSH1 0x0 MSTORE PUSH2 0x82B SWAP1 PUSH32 0xDF6966C971051C3D54EC59162606531493A51404A002842F56009D7E5CF4A8C7 SWAP1 DUP2 ADD SWAP1 PUSH2 0x2EB8 JUMP JUMPDEST DUP1 PUSH2 0x75C JUMP JUMPDEST PUSH1 0xA PUSH1 0x0 MSTORE PUSH2 0x864 SWAP1 PUSH32 0xC65A7BB8D6351C1CF70C95A316CC6A92839C986682D98BC35F958F4883F9D2A8 SWAP1 DUP2 ADD SWAP1 PUSH2 0x2EB8 JUMP JUMPDEST DUP1 PUSH2 0x74D JUMP JUMPDEST PUSH1 0xD PUSH1 0x0 MSTORE PUSH2 0x89D SWAP1 PUSH32 0xD7B6990105719101DABEB77144F2A3385C8033ACD3AF97E9423A695E81AD1EB5 SWAP1 DUP2 ADD SWAP1 PUSH2 0x2EB8 JUMP JUMPDEST DUP1 PUSH2 0x6DF JUMP JUMPDEST PUSH1 0xB PUSH1 0x0 MSTORE PUSH2 0x8D6 SWAP1 PUSH32 0x175B7A638427703F0DBE7BB9BBF987A2551717B34E79F33B5B1008D1FA01DB9 SWAP1 DUP2 ADD SWAP1 PUSH2 0x2EB8 JUMP JUMPDEST DUP1 PUSH2 0x6D0 JUMP JUMPDEST PUSH1 0x9 PUSH1 0x0 MSTORE PUSH2 0x90F SWAP1 PUSH32 0x6E1540171B6C0C960B71A7020D9F60077F6AF931A8BBF590DA0223DACF75C7AF SWAP1 DUP2 ADD SWAP1 PUSH2 0x2EB8 JUMP JUMPDEST DUP1 PUSH2 0x6C1 JUMP JUMPDEST PUSH1 0x1 PUSH1 0x0 MSTORE PUSH2 0x94E SWAP1 PUSH1 0x1F ADD PUSH1 0x5 SHR PUSH32 0xB10E2D527612073B26EECDFD717E6A320CF44B4AFAC2B0732D9FCBE2B7FA0CF6 SWAP1 DUP2 ADD SWAP1 PUSH2 0x2EB8 JUMP JUMPDEST DUP1 PUSH2 0x63C JUMP JUMPDEST PUSH1 0x40 MLOAD PUSH3 0x461BCD PUSH1 0xE5 SHL DUP2 MSTORE PUSH1 0x20 PUSH1 0x4 DUP3 ADD MSTORE PUSH1 0x31 PUSH1 0x24 DUP3 ADD MSTORE PUSH32 0x456C656374696F6E206973207374696C6C206F6E676F696E672E2043616E6E6F PUSH1 0x44 DUP3 ADD MSTORE PUSH17 0x3A103932B9B2BA1031B7B73A3930B1BA17 PUSH1 0x79 SHL PUSH1 0x64 DUP3 ADD MSTORE PUSH1 0x84 SWAP1 REVERT JUMPDEST SWAP1 POP TIMESTAMP GT DUP2 PUSH2 0x622 JUMP JUMPDEST CALLVALUE PUSH2 0x475 JUMPI PUSH1 0x0 CALLDATASIZE PUSH1 0x3 NOT ADD SLT PUSH2 0x475 JUMPI PUSH1 0x20 PUSH1 0x4 SLOAD PUSH1 0x40 MLOAD SWAP1 DUP2 MSTORE RETURN JUMPDEST CALLVALUE PUSH2 0x475 JUMPI PUSH1 0x20 CALLDATASIZE PUSH1 0x3 NOT ADD SLT PUSH2 0x475 JUMPI PUSH2 0x9F4 PUSH2 0x2BA3 JUMP JUMPDEST PUSH1 0x0 SLOAD SWAP1 PUSH2 0xA0C CALLER PUSH1 0x1 PUSH1 0x1 PUSH1 0xA0 SHL SUB DUP5 AND EQ PUSH2 0x2E5B JUMP JUMPDEST PUSH1 0x1 PUSH1 0x1 PUSH1 0xA0 SHL SUB AND SWAP1 DUP2 ISZERO PUSH2 0xA2C JUMPI PUSH1 0x1 PUSH1 0x1 PUSH1 0xA0 SHL SUB NOT AND OR PUSH1 0x0 SSTORE STOP JUMPDEST PUSH1 0x40 MLOAD PUSH3 0x461BCD PUSH1 0xE5 SHL DUP2 MSTORE PUSH1 0x20 PUSH1 0x4 DUP3 ADD MSTORE PUSH1 0x24 DUP1 DUP3 ADD MSTORE PUSH32 0x4E6577206F776E65722063616E6E6F7420626520746865207A65726F20616464 PUSH1 0x44 DUP3 ADD MSTORE PUSH4 0x72657373 PUSH1 0xE0 SHL PUSH1 0x64 DUP3 ADD MSTORE PUSH1 0x84 SWAP1 REVERT JUMPDEST CALLVALUE PUSH2 0x475 JUMPI PUSH1 0x20 CALLDATASIZE PUSH1 0x3 NOT ADD SLT PUSH2 0x475 JUMPI PUSH1 0x1 PUSH1 0x1 PUSH1 0xA0 SHL SUB PUSH2 0xA9E PUSH2 0x2BA3 JUMP JUMPDEST AND PUSH1 0x0 MSTORE PUSH1 0x7 PUSH1 0x20 MSTORE PUSH1 0x40 PUSH1 0x0 KECCAK256 PUSH1 0xFF DUP2 SLOAD AND PUSH2 0xABD PUSH1 0x1 DUP4 ADD PUSH2 0x2C73 JUMP JUMPDEST SWAP2 PUSH2 0x5CF PUSH2 0xACD PUSH1 0x2 DUP4 ADD PUSH2 0x2C73 JUMP JUMPDEST PUSH2 0xB07 PUSH1 0x4 PUSH1 0x3 DUP6 ADD SLOAD SWAP5 ADD SLOAD SWAP2 PUSH2 0xAF9 PUSH1 0x40 MLOAD SWAP8 DUP9 SWAP8 ISZERO ISZERO DUP9 MSTORE PUSH1 0xC0 PUSH1 0x20 DUP10 ADD MSTORE PUSH1 0xC0 DUP9 ADD SWAP1 PUSH2 0x2955 JUMP JUMPDEST SWAP1 DUP7 DUP3 SUB PUSH1 0x40 DUP9 ADD MSTORE PUSH2 0x2955 JUMP JUMPDEST PUSH1 0x60 DUP6 ADD SWAP4 SWAP1 SWAP4 MSTORE PUSH1 0x1 PUSH1 0x1 PUSH1 0xA0 SHL SUB DUP2 AND PUSH1 0x80 DUP6 ADD MSTORE PUSH1 0xA0 DUP1 DUP6 ADD SWAP2 SWAP1 SHR PUSH1 0xFF AND PUSH2 0x2948 JUMP JUMPDEST CALLVALUE PUSH2 0x475 JUMPI PUSH1 0x20 CALLDATASIZE PUSH1 0x3 NOT ADD SLT PUSH2 0x475 JUMPI PUSH1 0x4 CALLDATALOAD PUSH1 0x1 PUSH1 0x1 PUSH1 0x40 SHL SUB DUP2 GT PUSH2 0x475 JUMPI PUSH2 0xB5E SWAP1 CALLDATASIZE SWAP1 PUSH1 0x4 ADD PUSH2 0x2B4D JUMP JUMPDEST PUSH1 0x5 SLOAD PUSH1 0x40 MLOAD SWAP1 PUSH2 0xB6E DUP3 PUSH2 0x2B11 JUMP JUMPDEST DUP2 MSTORE PUSH1 0x20 DUP2 ADD SWAP1 PUSH1 0x0 DUP3 MSTORE PUSH1 0x40 DUP2 ADD CALLER DUP2 MSTORE PUSH1 0x60 DUP3 ADD PUSH1 0x0 DUP2 MSTORE PUSH1 0x80 DUP4 ADD SWAP5 DUP6 MSTORE PUSH2 0xB97 PUSH2 0x2F14 JUMP JUMPDEST PUSH1 0xA0 DUP5 ADD SWAP1 DUP2 MSTORE CALLER PUSH1 0x0 SWAP1 DUP2 MSTORE PUSH1 0x8 PUSH1 0x20 MSTORE PUSH1 0x40 SWAP1 KECCAK256 SWAP4 MLOAD DUP5 SSTORE SWAP4 MLOAD PUSH1 0x1 DUP5 ADD SSTORE SWAP1 MLOAD PUSH1 0x2 DUP4 ADD DUP1 SLOAD PUSH1 0x1 PUSH1 0x1 PUSH1 0xA0 SHL SUB NOT AND PUSH1 0x1 PUSH1 0x1 PUSH1 0xA0 SHL SUB SWAP3 SWAP1 SWAP3 AND SWAP2 SWAP1 SWAP2 OR DUP2 SSTORE SWAP1 MLOAD PUSH1 0x3 DUP2 LT ISZERO PUSH2 0xDD5 JUMPI PUSH2 0xBF0 SWAP2 PUSH2 0x2E94 JUMP JUMPDEST PUSH1 0x3 DUP2 ADD SWAP3 MLOAD SWAP3 DUP4 MLOAD PUSH1 0x1 PUSH1 0x1 PUSH1 0x40 SHL SUB DUP2 GT PUSH2 0x398 JUMPI PUSH2 0xC15 DUP2 PUSH2 0x243 DUP5 SLOAD PUSH2 0x2C39 JUMP JUMPDEST PUSH1 0x20 PUSH1 0x1F DUP3 GT PUSH1 0x1 EQ PUSH2 0xD6C JUMPI SWAP1 DUP1 PUSH2 0xC48 SWAP3 PUSH1 0x4 SWAP7 SWAP8 PUSH1 0x0 SWAP3 PUSH2 0xD61 JUMPI POP POP DUP2 PUSH1 0x1 SHL SWAP2 PUSH1 0x0 NOT SWAP1 PUSH1 0x3 SHL SHR NOT AND OR SWAP1 JUMP JUMPDEST SWAP1 SSTORE JUMPDEST ADD SWAP1 MLOAD SWAP1 DUP2 MLOAD PUSH1 0x1 PUSH1 0x1 PUSH1 0x40 SHL SUB DUP2 GT PUSH2 0x398 JUMPI PUSH2 0xC6D DUP2 PUSH2 0x243 DUP5 SLOAD PUSH2 0x2C39 JUMP JUMPDEST PUSH1 0x20 SWAP3 PUSH1 0x1F DUP3 GT PUSH1 0x1 EQ PUSH2 0xCFE JUMPI PUSH2 0xC9E SWAP3 SWAP4 DUP3 SWAP2 PUSH1 0x0 SWAP3 PUSH2 0xCF3 JUMPI POP POP DUP2 PUSH1 0x1 SHL SWAP2 PUSH1 0x0 NOT SWAP1 PUSH1 0x3 SHL SHR NOT AND OR SWAP1 JUMP JUMPDEST SWAP1 SSTORE JUMPDEST PUSH1 0x9 SLOAD PUSH1 0x1 PUSH1 0x40 SHL DUP2 LT ISZERO PUSH2 0x398 JUMPI PUSH2 0xCC5 DUP2 PUSH1 0x1 PUSH2 0xCE3 SWAP4 ADD PUSH1 0x9 SSTORE PUSH1 0x9 PUSH2 0x2930 JUMP JUMPDEST DUP2 SLOAD CALLER PUSH1 0x3 SWAP3 SWAP1 SWAP3 SHL SWAP2 DUP3 SHL PUSH1 0x1 PUSH1 0x1 PUSH1 0xA0 SHL SUB SWAP1 SWAP3 SHL NOT AND OR SWAP1 SSTORE JUMP JUMPDEST PUSH2 0xCEE PUSH1 0x5 SLOAD PUSH2 0x2E4C JUMP JUMPDEST PUSH1 0x5 SSTORE STOP JUMPDEST ADD MLOAD SWAP1 POP DUP5 DUP1 PUSH2 0x268 JUMP JUMPDEST PUSH1 0x1F NOT DUP3 AND SWAP4 DUP4 PUSH1 0x0 MSTORE DUP1 PUSH1 0x0 KECCAK256 SWAP2 PUSH1 0x0 JUMPDEST DUP7 DUP2 LT PUSH2 0xD49 JUMPI POP DUP4 PUSH1 0x1 SWAP6 SWAP7 LT PUSH2 0xD30 JUMPI JUMPDEST POP POP POP DUP2 SHL ADD SWAP1 SSTORE PUSH2 0xCA1 JUMP JUMPDEST ADD MLOAD PUSH1 0x0 NOT PUSH1 0xF8 DUP5 PUSH1 0x3 SHL AND SHR NOT AND SWAP1 SSTORE DUP4 DUP1 DUP1 PUSH2 0xD23 JUMP JUMPDEST SWAP2 SWAP3 PUSH1 0x20 PUSH1 0x1 DUP2 SWAP3 DUP7 DUP6 ADD MLOAD DUP2 SSTORE ADD SWAP5 ADD SWAP3 ADD PUSH2 0xD10 JUMP JUMPDEST ADD MLOAD SWAP1 POP DUP8 DUP1 PUSH2 0x268 JUMP JUMPDEST PUSH1 0x1F NOT DUP3 AND SWAP6 DUP4 PUSH1 0x0 MSTORE DUP2 PUSH1 0x0 KECCAK256 SWAP7 PUSH1 0x0 JUMPDEST DUP2 DUP2 LT PUSH2 0xDBD JUMPI POP SWAP2 PUSH1 0x4 SWAP7 SWAP8 SWAP2 DUP5 PUSH1 0x1 SWAP6 SWAP5 LT PUSH2 0xDA4 JUMPI JUMPDEST POP POP POP DUP2 SHL ADD SWAP1 SSTORE PUSH2 0xC4B JUMP JUMPDEST ADD MLOAD PUSH1 0x0 NOT PUSH1 0xF8 DUP5 PUSH1 0x3 SHL AND SHR NOT AND SWAP1 SSTORE DUP7 DUP1 DUP1 PUSH2 0xD97 JUMP JUMPDEST DUP4 DUP4 ADD MLOAD DUP10 SSTORE PUSH1 0x1 SWAP1 SWAP9 ADD SWAP8 PUSH1 0x20 SWAP4 DUP5 ADD SWAP4 ADD PUSH2 0xD7E JUMP JUMPDEST PUSH4 0x4E487B71 PUSH1 0xE0 SHL PUSH1 0x0 MSTORE PUSH1 0x21 PUSH1 0x4 MSTORE PUSH1 0x24 PUSH1 0x0 REVERT JUMPDEST CALLVALUE PUSH2 0x475 JUMPI PUSH1 0x20 CALLDATASIZE PUSH1 0x3 NOT ADD SLT PUSH2 0x475 JUMPI PUSH1 0x4 CALLDATALOAD PUSH1 0xB SLOAD DUP2 LT ISZERO PUSH2 0x475 JUMPI PUSH2 0xE14 PUSH1 0x20 SWAP2 PUSH2 0x28DF JUMP JUMPDEST SWAP1 SLOAD PUSH1 0x40 MLOAD PUSH1 0x3 SWAP3 SWAP1 SWAP3 SHL SHR PUSH1 0x1 PUSH1 0x1 PUSH1 0xA0 SHL SUB AND DUP2 MSTORE RETURN JUMPDEST CALLVALUE PUSH2 0x475 JUMPI PUSH1 0x0 CALLDATASIZE PUSH1 0x3 NOT ADD SLT PUSH2 0x475 JUMPI PUSH1 0xE SLOAD PUSH2 0xE4A DUP2 PUSH2 0x2DD2 JUMP JUMPDEST SWAP1 PUSH1 0x0 JUMPDEST DUP2 DUP2 LT PUSH2 0xE63 JUMPI PUSH1 0x40 MLOAD DUP1 PUSH2 0x5CF DUP6 DUP3 PUSH2 0x2A5B JUMP JUMPDEST DUP1 PUSH2 0xE6F PUSH1 0x1 SWAP3 PUSH2 0x28C4 JUMP JUMPDEST DUP4 DUP1 PUSH1 0xA0 SHL SUB SWAP2 SLOAD SWAP1 PUSH1 0x3 SHL SHR AND PUSH1 0x0 MSTORE PUSH1 0x7 PUSH1 0x20 MSTORE PUSH1 0x40 PUSH1 0x0 KECCAK256 PUSH2 0xEED PUSH1 0xFF PUSH1 0x4 PUSH1 0x40 MLOAD SWAP4 PUSH2 0xE9E DUP6 PUSH2 0x2B11 JUMP JUMPDEST DUP3 DUP2 SLOAD AND ISZERO ISZERO DUP6 MSTORE PUSH2 0xEB1 DUP8 DUP3 ADD PUSH2 0x2C73 JUMP JUMPDEST PUSH1 0x20 DUP7 ADD MSTORE PUSH2 0xEC2 PUSH1 0x2 DUP3 ADD PUSH2 0x2C73 JUMP JUMPDEST PUSH1 0x40 DUP7 ADD MSTORE PUSH1 0x3 DUP2 ADD SLOAD PUSH1 0x60 DUP7 ADD MSTORE ADD SLOAD DUP6 DUP1 PUSH1 0xA0 SHL SUB DUP2 AND PUSH1 0x80 DUP6 ADD MSTORE PUSH1 0xA0 SHR AND PUSH1 0xA0 DUP4 ADD PUSH2 0x2DC6 JUMP JUMPDEST PUSH2 0xEF7 DUP3 DUP7 PUSH2 0x2DB2 JUMP JUMPDEST MSTORE PUSH2 0xF02 DUP2 DUP6 PUSH2 0x2DB2 JUMP JUMPDEST POP ADD PUSH2 0xE4E JUMP JUMPDEST CALLVALUE PUSH2 0x475 JUMPI PUSH1 0x0 CALLDATASIZE PUSH1 0x3 NOT ADD SLT PUSH2 0x475 JUMPI PUSH1 0x0 SLOAD PUSH1 0x40 MLOAD PUSH1 0x1 PUSH1 0x1 PUSH1 0xA0 SHL SUB SWAP1 SWAP2 AND DUP2 MSTORE PUSH1 0x20 SWAP1 RETURN JUMPDEST CALLVALUE PUSH2 0x475 JUMPI PUSH1 0x20 CALLDATASIZE PUSH1 0x3 NOT ADD SLT PUSH2 0x475 JUMPI PUSH1 0x1 PUSH1 0x1 PUSH1 0xA0 SHL SUB PUSH2 0xF53 PUSH2 0x2BA3 JUMP JUMPDEST AND PUSH1 0x0 MSTORE PUSH1 0x8 PUSH1 0x20 MSTORE PUSH1 0x40 PUSH1 0x0 KECCAK256 DUP1 SLOAD PUSH2 0x5CF PUSH1 0x1 DUP4 ADD SLOAD SWAP3 PUSH2 0xFCD PUSH1 0x2 DUP3 ADD SLOAD SWAP2 PUSH2 0xFBC PUSH2 0xF90 PUSH1 0x4 PUSH2 0xF89 PUSH1 0x3 DUP6 ADD PUSH2 0x2C73 JUMP JUMPDEST SWAP4 ADD PUSH2 0x2C73 JUMP JUMPDEST SWAP4 PUSH1 0x40 MLOAD SWAP8 DUP9 SWAP8 DUP9 MSTORE PUSH1 0x20 DUP9 ADD MSTORE PUSH1 0x1 DUP1 PUSH1 0xA0 SHL SUB DUP2 AND PUSH1 0x40 DUP9 ADD MSTORE PUSH1 0xFF PUSH1 0x60 DUP9 ADD SWAP2 PUSH1 0xA0 SHR AND PUSH2 0x2948 JUMP JUMPDEST PUSH1 0xC0 PUSH1 0x80 DUP7 ADD MSTORE PUSH1 0xC0 DUP6 ADD SWAP1 PUSH2 0x2955 JUMP JUMPDEST SWAP1 DUP4 DUP3 SUB PUSH1 0xA0 DUP6 ADD MSTORE PUSH2 0x2955 JUMP JUMPDEST CALLVALUE PUSH2 0x475 JUMPI PUSH1 0x0 CALLDATASIZE PUSH1 0x3 NOT ADD SLT PUSH2 0x475 JUMPI PUSH1 0xF SLOAD PUSH2 0xFF8 DUP2 PUSH2 0x2DD2 JUMP JUMPDEST SWAP1 PUSH1 0x0 JUMPDEST DUP2 DUP2 LT PUSH2 0x1011 JUMPI PUSH1 0x40 MLOAD DUP1 PUSH2 0x5CF DUP6 DUP3 PUSH2 0x2A5B JUMP JUMPDEST DUP1 PUSH2 0x101D PUSH1 0x1 SWAP3 PUSH2 0x2915 JUMP JUMPDEST DUP4 DUP1 PUSH1 0xA0 SHL SUB SWAP2 SLOAD SWAP1 PUSH1 0x3 SHL SHR AND PUSH1 0x0 MSTORE PUSH1 0x7 PUSH1 0x20 MSTORE PUSH1 0x40 PUSH1 0x0 KECCAK256 PUSH2 0x104C PUSH1 0xFF PUSH1 0x4 PUSH1 0x40 MLOAD SWAP4 PUSH2 0xE9E DUP6 PUSH2 0x2B11 JUMP JUMPDEST PUSH2 0x1056 DUP3 DUP7 PUSH2 0x2DB2 JUMP JUMPDEST MSTORE PUSH2 0x1061 DUP2 DUP6 PUSH2 0x2DB2 JUMP JUMPDEST POP ADD PUSH2 0xFFC JUMP JUMPDEST CALLVALUE PUSH2 0x475 JUMPI PUSH1 0x0 CALLDATASIZE PUSH1 0x3 NOT ADD SLT PUSH2 0x475 JUMPI PUSH1 0x40 MLOAD PUSH1 0x0 PUSH1 0x1 SLOAD PUSH2 0x108A DUP2 PUSH2 0x2C39 JUMP JUMPDEST DUP1 DUP5 MSTORE SWAP1 PUSH1 0x1 DUP2 AND SWAP1 DUP2 ISZERO PUSH2 0x1125 JUMPI POP PUSH1 0x1 EQ PUSH2 0x10C6 JUMPI JUMPDEST PUSH2 0x5CF DUP4 PUSH2 0x10B2 DUP2 DUP6 SUB DUP3 PUSH2 0x2B2C JUMP JUMPDEST PUSH1 0x40 MLOAD SWAP2 DUP3 SWAP2 PUSH1 0x20 DUP4 MSTORE PUSH1 0x20 DUP4 ADD SWAP1 PUSH2 0x2955 JUMP JUMPDEST PUSH1 0x1 PUSH1 0x0 SWAP1 DUP2 MSTORE PUSH32 0xB10E2D527612073B26EECDFD717E6A320CF44B4AFAC2B0732D9FCBE2B7FA0CF6 SWAP4 SWAP3 POP SWAP1 JUMPDEST DUP1 DUP3 LT PUSH2 0x110B JUMPI POP SWAP1 SWAP2 POP DUP2 ADD PUSH1 0x20 ADD PUSH2 0x10B2 PUSH2 0x10A2 JUMP JUMPDEST SWAP2 SWAP3 PUSH1 0x1 DUP2 PUSH1 0x20 SWAP3 SLOAD DUP4 DUP6 DUP9 ADD ADD MSTORE ADD SWAP2 ADD SWAP1 SWAP3 SWAP2 PUSH2 0x10F3 JUMP JUMPDEST PUSH1 0xFF NOT AND PUSH1 0x20 DUP1 DUP7 ADD SWAP2 SWAP1 SWAP2 MSTORE SWAP2 ISZERO ISZERO PUSH1 0x5 SHL DUP5 ADD SWAP1 SWAP2 ADD SWAP2 POP PUSH2 0x10B2 SWAP1 POP PUSH2 0x10A2 JUMP JUMPDEST CALLVALUE PUSH2 0x475 JUMPI PUSH1 0x20 CALLDATASIZE PUSH1 0x3 NOT ADD SLT PUSH2 0x475 JUMPI PUSH1 0x4 CALLDATALOAD PUSH1 0xA SLOAD DUP2 LT ISZERO PUSH2 0x475 JUMPI PUSH2 0xE14 PUSH1 0x20 SWAP2 PUSH2 0x28FA JUMP JUMPDEST CALLVALUE PUSH2 0x475 JUMPI PUSH1 0x20 CALLDATASIZE PUSH1 0x3 NOT ADD SLT PUSH2 0x475 JUMPI PUSH1 0x4 CALLDATALOAD PUSH1 0x1 PUSH1 0x1 PUSH1 0x40 SHL SUB DUP2 GT PUSH2 0x475 JUMPI PUSH2 0x11A2 SWAP1 CALLDATASIZE SWAP1 PUSH1 0x4 ADD PUSH2 0x2B4D JUMP JUMPDEST PUSH2 0x11B8 PUSH1 0x2 SLOAD DUP1 ISZERO SWAP1 DUP2 ISZERO PUSH2 0x12D5 JUMPI JUMPDEST POP PUSH2 0x2F59 JUMP JUMPDEST CALLER PUSH1 0x0 SWAP1 DUP2 MSTORE PUSH1 0x7 PUSH1 0x20 MSTORE PUSH1 0x40 SWAP1 KECCAK256 PUSH1 0x4 DUP2 ADD SLOAD PUSH1 0x1 PUSH1 0x1 PUSH1 0xA0 SHL SUB AND ISZERO PUSH2 0x1290 JUMPI PUSH1 0x2 ADD DUP2 MLOAD PUSH1 0x1 PUSH1 0x1 PUSH1 0x40 SHL SUB DUP2 GT PUSH2 0x398 JUMPI PUSH2 0x11FB DUP2 PUSH2 0x243 DUP5 SLOAD PUSH2 0x2C39 JUMP JUMPDEST PUSH1 0x20 SWAP3 PUSH1 0x1F DUP3 GT PUSH1 0x1 EQ PUSH2 0x1230 JUMPI PUSH2 0x122C SWAP3 SWAP4 DUP3 SWAP2 PUSH1 0x0 SWAP3 PUSH2 0xCF3 JUMPI POP POP DUP2 PUSH1 0x1 SHL SWAP2 PUSH1 0x0 NOT SWAP1 PUSH1 0x3 SHL SHR NOT AND OR SWAP1 JUMP JUMPDEST SWAP1 SSTORE STOP JUMPDEST PUSH1 0x1F NOT DUP3 AND SWAP4 DUP4 PUSH1 0x0 MSTORE DUP1 PUSH1 0x0 KECCAK256 SWAP2 PUSH1 0x0 JUMPDEST DUP7 DUP2 LT PUSH2 0x1278 JUMPI POP DUP4 PUSH1 0x1 SWAP6 SWAP7 LT PUSH2 0x125F JUMPI JUMPDEST POP POP POP DUP2 SHL ADD SWAP1 SSTORE STOP JUMPDEST ADD MLOAD PUSH1 0x0 NOT PUSH1 0xF8 DUP5 PUSH1 0x3 SHL AND SHR NOT AND SWAP1 SSTORE DUP4 DUP1 DUP1 PUSH2 0x1255 JUMP JUMPDEST SWAP2 SWAP3 PUSH1 0x20 PUSH1 0x1 DUP2 SWAP3 DUP7 DUP6 ADD MLOAD DUP2 SSTORE ADD SWAP5 ADD SWAP3 ADD PUSH2 0x1242 JUMP JUMPDEST PUSH1 0x40 MLOAD PUSH3 0x461BCD PUSH1 0xE5 SHL DUP2 MSTORE PUSH1 0x20 PUSH1 0x4 DUP3 ADD MSTORE PUSH1 0x18 PUSH1 0x24 DUP3 ADD MSTORE PUSH32 0x4E6F20766F746572206461746120617661696C61626C652E0000000000000000 PUSH1 0x44 DUP3 ADD MSTORE PUSH1 0x64 SWAP1 REVERT JUMPDEST SWAP1 POP TIMESTAMP LT DUP4 PUSH2 0x11B2 JUMP JUMPDEST CALLVALUE PUSH2 0x475 JUMPI PUSH2 0x12ED CALLDATASIZE PUSH2 0x2BFA JUMP JUMPDEST SWAP1 PUSH2 0x1303 PUSH1 0x1 DUP1 PUSH1 0xA0 SHL SUB PUSH1 0x0 SLOAD AND CALLER EQ PUSH2 0x2E5B JUMP JUMPDEST PUSH1 0x1 PUSH1 0x1 PUSH1 0xA0 SHL SUB DUP2 DUP2 AND PUSH1 0x0 DUP2 DUP2 MSTORE PUSH1 0x8 PUSH1 0x20 MSTORE PUSH1 0x40 SWAP1 KECCAK256 PUSH1 0x2 DUP2 ADD DUP1 SLOAD SWAP3 SWAP5 SWAP4 SWAP1 SWAP3 AND ISZERO PUSH2 0x14BB JUMPI DUP2 SLOAD PUSH1 0xFF PUSH1 0xA0 SHL NOT AND PUSH1 0x1 PUSH1 0xA0 SHL OR SWAP1 SWAP2 SSTORE DUP4 MLOAD PUSH1 0x4 SWAP2 SWAP1 SWAP2 ADD SWAP1 PUSH1 0x1 PUSH1 0x1 PUSH1 0x40 SHL SUB DUP2 GT PUSH2 0x398 JUMPI PUSH2 0x1364 DUP2 PUSH2 0x243 DUP5 SLOAD PUSH2 0x2C39 JUMP JUMPDEST PUSH1 0x20 SWAP5 PUSH1 0x1F DUP3 GT PUSH1 0x1 EQ PUSH2 0x1456 JUMPI PUSH2 0x1397 SWAP3 SWAP4 SWAP5 SWAP6 DUP3 SWAP2 PUSH1 0x0 SWAP3 PUSH2 0x144B JUMPI POP POP DUP2 PUSH1 0x1 SHL SWAP2 PUSH1 0x0 NOT SWAP1 PUSH1 0x3 SHL SHR NOT AND OR SWAP1 JUMP JUMPDEST SWAP1 SSTORE JUMPDEST PUSH1 0xB SLOAD SWAP1 PUSH1 0x1 PUSH1 0x40 SHL DUP3 LT ISZERO PUSH2 0x398 JUMPI PUSH2 0x2A5 DUP3 PUSH1 0x1 PUSH2 0x13BF SWAP5 ADD PUSH1 0xB SSTORE PUSH1 0xB PUSH2 0x2930 JUMP JUMPDEST PUSH1 0x0 JUMPDEST PUSH1 0xD SLOAD DUP1 DUP3 LT ISZERO PUSH2 0x396 JUMPI DUP3 PUSH2 0x13D7 DUP4 PUSH2 0x288E JUMP JUMPDEST SWAP1 SLOAD PUSH1 0x3 SWAP2 SWAP1 SWAP2 SHL SHR PUSH1 0x1 PUSH1 0x1 PUSH1 0xA0 SHL SUB AND EQ PUSH2 0x13F7 JUMPI POP PUSH1 0x1 ADD PUSH2 0x13C2 JUMP JUMPDEST PUSH1 0x0 NOT DUP2 ADD SWAP3 POP DUP3 GT PUSH2 0x380 JUMPI PUSH2 0x2A5 PUSH2 0x1413 PUSH2 0x142B SWAP4 PUSH2 0x288E JUMP JUMPDEST SWAP1 SLOAD PUSH1 0x3 SWAP2 SWAP1 SWAP2 SHL SHR PUSH1 0x1 PUSH1 0x1 PUSH1 0xA0 SHL SUB AND SWAP2 PUSH2 0x288E JUMP JUMPDEST PUSH1 0xD SLOAD DUP1 ISZERO PUSH2 0x36A JUMPI PUSH1 0x0 NOT ADD PUSH2 0x1446 PUSH2 0x350 DUP3 PUSH1 0xD PUSH2 0x2930 JUMP JUMPDEST PUSH1 0xD SSTORE STOP JUMPDEST ADD MLOAD SWAP1 POP DUP7 DUP1 PUSH2 0x268 JUMP JUMPDEST PUSH1 0x1F NOT DUP3 AND SWAP6 DUP4 PUSH1 0x0 MSTORE DUP1 PUSH1 0x0 KECCAK256 SWAP2 PUSH1 0x0 JUMPDEST DUP9 DUP2 LT PUSH2 0x14A3 JUMPI POP DUP4 PUSH1 0x1 SWAP6 SWAP7 SWAP8 SWAP9 LT PUSH2 0x148A JUMPI JUMPDEST POP POP POP DUP2 SHL ADD SWAP1 SSTORE PUSH2 0x139A JUMP JUMPDEST ADD MLOAD PUSH1 0x0 NOT PUSH1 0xF8 DUP5 PUSH1 0x3 SHL AND SHR NOT AND SWAP1 SSTORE DUP6 DUP1 DUP1 PUSH2 0x147D JUMP JUMPDEST SWAP2 SWAP3 PUSH1 0x20 PUSH1 0x1 DUP2 SWAP3 DUP7 DUP6 ADD MLOAD DUP2 SSTORE ADD SWAP5 ADD SWAP3 ADD PUSH2 0x1468 JUMP JUMPDEST PUSH1 0x40 MLOAD PUSH3 0x461BCD PUSH1 0xE5 SHL DUP2 MSTORE PUSH1 0x20 PUSH1 0x4 DUP3 ADD MSTORE PUSH1 0x2D PUSH1 0x24 DUP3 ADD MSTORE PUSH32 0x546869732063616E64696461746520646F6573206E6F74206170706561722069 PUSH1 0x44 DUP3 ADD MSTORE PUSH13 0x371037BAB91039BCB9BA32B697 PUSH1 0x99 SHL PUSH1 0x64 DUP3 ADD MSTORE PUSH1 0x84 SWAP1 REVERT JUMPDEST CALLVALUE PUSH2 0x475 JUMPI PUSH1 0x20 CALLDATASIZE PUSH1 0x3 NOT ADD SLT PUSH2 0x475 JUMPI PUSH1 0x4 CALLDATALOAD PUSH1 0x1 PUSH1 0x1 PUSH1 0x40 SHL SUB DUP2 GT PUSH2 0x475 JUMPI PUSH2 0x1546 SWAP1 CALLDATASIZE SWAP1 PUSH1 0x4 ADD PUSH2 0x2B4D JUMP JUMPDEST PUSH2 0x155B PUSH1 0x2 SLOAD DUP1 ISZERO SWAP1 DUP2 ISZERO PUSH2 0x12D5 JUMPI POP PUSH2 0x2F59 JUMP JUMPDEST CALLER PUSH1 0x0 SWAP1 DUP2 MSTORE PUSH1 0x8 PUSH1 0x20 MSTORE PUSH1 0x40 SWAP1 KECCAK256 PUSH1 0x2 DUP2 ADD SLOAD PUSH1 0x1 PUSH1 0x1 PUSH1 0xA0 SHL SUB AND ISZERO PUSH2 0x1615 JUMPI PUSH1 0x3 ADD DUP2 MLOAD PUSH1 0x1 PUSH1 0x1 PUSH1 0x40 SHL SUB DUP2 GT PUSH2 0x398 JUMPI PUSH2 0x159E DUP2 PUSH2 0x243 DUP5 SLOAD PUSH2 0x2C39 JUMP JUMPDEST PUSH1 0x20 SWAP3 PUSH1 0x1F DUP3 GT PUSH1 0x1 EQ PUSH2 0x15CF JUMPI PUSH2 0x122C SWAP3 SWAP4 DUP3 SWAP2 PUSH1 0x0 SWAP3 PUSH2 0xCF3 JUMPI POP POP DUP2 PUSH1 0x1 SHL SWAP2 PUSH1 0x0 NOT SWAP1 PUSH1 0x3 SHL SHR NOT AND OR SWAP1 JUMP JUMPDEST PUSH1 0x1F NOT DUP3 AND SWAP4 DUP4 PUSH1 0x0 MSTORE DUP1 PUSH1 0x0 KECCAK256 SWAP2 PUSH1 0x0 JUMPDEST DUP7 DUP2 LT PUSH2 0x15FD JUMPI POP DUP4 PUSH1 0x1 SWAP6 SWAP7 LT PUSH2 0x125F JUMPI POP POP POP DUP2 SHL ADD SWAP1 SSTORE STOP JUMPDEST SWAP2 SWAP3 PUSH1 0x20 PUSH1 0x1 DUP2 SWAP3 DUP7 DUP6 ADD MLOAD DUP2 SSTORE ADD SWAP5 ADD SWAP3 ADD PUSH2 0x15E1 JUMP JUMPDEST PUSH1 0x40 MLOAD PUSH3 0x461BCD PUSH1 0xE5 SHL DUP2 MSTORE PUSH1 0x20 PUSH1 0x4 DUP3 ADD MSTORE PUSH1 0x1C PUSH1 0x24 DUP3 ADD MSTORE PUSH32 0x4E6F2063616E646964617465206461746120617661696C61626C652E00000000 PUSH1 0x44 DUP3 ADD MSTORE PUSH1 0x64 SWAP1 REVERT JUMPDEST CALLVALUE PUSH2 0x475 JUMPI PUSH1 0x20 CALLDATASIZE PUSH1 0x3 NOT ADD SLT PUSH2 0x475 JUMPI PUSH2 0x1673 PUSH2 0x2BA3 JUMP JUMPDEST PUSH1 0x2 SLOAD TIMESTAMP LT PUSH2 0x1826 JUMPI PUSH1 0x3 SLOAD TIMESTAMP GT PUSH2 0x17EE JUMPI CALLER PUSH1 0x0 MSTORE PUSH1 0x7 PUSH1 0x20 MSTORE PUSH1 0x40 PUSH1 0x0 KECCAK256 PUSH1 0xFF PUSH1 0x4 DUP3 ADD SLOAD PUSH1 0xA0 SHR AND PUSH1 0x3 DUP2 LT ISZERO PUSH2 0xDD5 JUMPI PUSH1 0x1 SUB PUSH2 0x17A9 JUMPI DUP1 SLOAD SWAP2 PUSH1 0xFF DUP4 AND PUSH2 0x176B JUMPI PUSH1 0x1 DUP1 PUSH1 0xA0 SHL SUB AND PUSH1 0x0 MSTORE PUSH1 0x8 PUSH1 0x20 MSTORE PUSH1 0x40 PUSH1 0x0 KECCAK256 SWAP1 PUSH1 0xFF PUSH1 0x2 DUP4 ADD SLOAD PUSH1 0xA0 SHR AND PUSH1 0x3 DUP2 LT ISZERO PUSH2 0xDD5 JUMPI PUSH1 0x1 SUB PUSH2 0x1726 JUMPI PUSH1 0x1 DUP1 SWAP4 PUSH1 0xFF NOT AND OR SWAP1 SSTORE ADD PUSH2 0x1700 DUP2 SLOAD PUSH2 0x2E4C JUMP JUMPDEST SWAP1 SSTORE PUSH1 0xF SLOAD PUSH1 0x1 PUSH1 0x40 SHL DUP2 LT ISZERO PUSH2 0x398 JUMPI PUSH2 0xCC5 DUP2 PUSH1 0x1 PUSH2 0x396 SWAP4 ADD PUSH1 0xF SSTORE PUSH1 0xF PUSH2 0x2930 JUMP JUMPDEST PUSH1 0x40 MLOAD PUSH3 0x461BCD PUSH1 0xE5 SHL DUP2 MSTORE PUSH1 0x20 PUSH1 0x4 DUP3 ADD MSTORE PUSH1 0x1A PUSH1 0x24 DUP3 ADD MSTORE PUSH32 0x43616E646964617465206973206E6F742061636365707465642E000000000000 PUSH1 0x44 DUP3 ADD MSTORE PUSH1 0x64 SWAP1 REVERT JUMPDEST PUSH1 0x40 MLOAD PUSH3 0x461BCD PUSH1 0xE5 SHL DUP2 MSTORE PUSH1 0x20 PUSH1 0x4 DUP3 ADD MSTORE PUSH1 0x16 PUSH1 0x24 DUP3 ADD MSTORE PUSH22 0x165BDD481A185D9948185B1C9958591E481D9BDD1959 PUSH1 0x52 SHL PUSH1 0x44 DUP3 ADD MSTORE PUSH1 0x64 SWAP1 REVERT JUMPDEST PUSH1 0x40 MLOAD PUSH3 0x461BCD PUSH1 0xE5 SHL DUP2 MSTORE PUSH1 0x20 PUSH1 0x4 DUP3 ADD MSTORE PUSH1 0x1E PUSH1 0x24 DUP3 ADD MSTORE PUSH32 0x596F7520617265206E6F74206120636F6E6669726D656420766F7465722E0000 PUSH1 0x44 DUP3 ADD MSTORE PUSH1 0x64 SWAP1 REVERT JUMPDEST PUSH1 0x40 MLOAD PUSH3 0x461BCD PUSH1 0xE5 SHL DUP2 MSTORE PUSH1 0x20 PUSH1 0x4 DUP3 ADD MSTORE PUSH1 0x10 PUSH1 0x24 DUP3 ADD MSTORE PUSH16 0x159BDD1A5B99C81A185CC8195B991959 PUSH1 0x82 SHL PUSH1 0x44 DUP3 ADD MSTORE PUSH1 0x64 SWAP1 REVERT JUMPDEST PUSH1 0x40 MLOAD PUSH3 0x461BCD PUSH1 0xE5 SHL DUP2 MSTORE PUSH1 0x20 PUSH1 0x4 DUP3 ADD MSTORE PUSH1 0x1A PUSH1 0x24 DUP3 ADD MSTORE PUSH32 0x566F74696E6720686173206E6F74207374617274656420796574000000000000 PUSH1 0x44 DUP3 ADD MSTORE PUSH1 0x64 SWAP1 REVERT JUMPDEST CALLVALUE PUSH2 0x475 JUMPI PUSH1 0x20 CALLDATASIZE PUSH1 0x3 NOT ADD SLT PUSH2 0x475 JUMPI PUSH1 0x4 CALLDATALOAD PUSH1 0x1 PUSH1 0x1 PUSH1 0x40 SHL SUB DUP2 GT PUSH2 0x475 JUMPI PUSH2 0x189B SWAP1 CALLDATASIZE SWAP1 PUSH1 0x4 ADD PUSH2 0x2B4D JUMP JUMPDEST PUSH1 0x6 SLOAD PUSH1 0x40 MLOAD PUSH2 0x18AA DUP2 PUSH2 0x2B11 JUMP JUMPDEST PUSH1 0x0 DUP2 MSTORE PUSH2 0x18B6 PUSH2 0x2F14 JUMP JUMPDEST SWAP1 PUSH1 0x20 DUP2 ADD SWAP2 DUP3 MSTORE PUSH1 0x40 DUP2 ADD SWAP4 DUP5 MSTORE PUSH1 0x60 DUP2 ADD SWAP3 DUP4 MSTORE PUSH1 0x80 DUP2 ADD SWAP3 CALLER DUP5 MSTORE PUSH1 0xA0 DUP3 ADD SWAP3 PUSH1 0x0 DUP5 MSTORE CALLER PUSH1 0x0 MSTORE PUSH1 0x7 PUSH1 0x20 MSTORE PUSH1 0x40 PUSH1 0x0 KECCAK256 SWAP3 MLOAD ISZERO ISZERO PUSH1 0xFF DUP1 NOT DUP6 SLOAD AND SWAP2 AND OR DUP4 SSTORE PUSH1 0x1 DUP4 ADD SWAP1 MLOAD DUP1 MLOAD SWAP1 PUSH1 0x1 PUSH1 0x1 PUSH1 0x40 SHL SUB DUP3 GT PUSH2 0x398 JUMPI PUSH2 0x1926 DUP3 PUSH2 0x1920 DUP6 SLOAD PUSH2 0x2C39 JUMP JUMPDEST DUP6 PUSH2 0x2ECF JUMP JUMPDEST PUSH1 0x20 SWAP1 PUSH1 0x1F DUP4 GT PUSH1 0x1 EQ PUSH2 0x1A9E JUMPI PUSH2 0x1956 SWAP3 SWAP2 PUSH1 0x0 SWAP2 DUP4 PUSH2 0x1A29 JUMPI POP POP DUP2 PUSH1 0x1 SHL SWAP2 PUSH1 0x0 NOT SWAP1 PUSH1 0x3 SHL SHR NOT AND OR SWAP1 JUMP JUMPDEST SWAP1 SSTORE JUMPDEST PUSH1 0x2 DUP3 ADD SWAP5 MLOAD SWAP5 DUP6 MLOAD PUSH1 0x1 PUSH1 0x1 PUSH1 0x40 SHL SUB DUP2 GT PUSH2 0x398 JUMPI PUSH2 0x197E DUP2 PUSH2 0x243 DUP5 SLOAD PUSH2 0x2C39 JUMP JUMPDEST PUSH1 0x20 PUSH1 0x1F DUP3 GT PUSH1 0x1 EQ PUSH2 0x1A34 JUMPI SWAP1 DUP1 PUSH2 0x19B2 SWAP3 PUSH1 0x4 SWAP8 SWAP9 SWAP10 PUSH1 0x0 SWAP3 PUSH2 0x1A29 JUMPI POP POP DUP2 PUSH1 0x1 SHL SWAP2 PUSH1 0x0 NOT SWAP1 PUSH1 0x3 SHL SHR NOT AND OR SWAP1 JUMP JUMPDEST SWAP1 SSTORE JUMPDEST MLOAD PUSH1 0x3 DUP3 DUP2 ADD SWAP2 SWAP1 SWAP2 SSTORE SWAP4 MLOAD SWAP2 ADD DUP1 SLOAD PUSH1 0x1 PUSH1 0x1 PUSH1 0xA0 SHL SUB NOT AND PUSH1 0x1 PUSH1 0x1 PUSH1 0xA0 SHL SUB SWAP3 SWAP1 SWAP3 AND SWAP2 SWAP1 SWAP2 OR DUP2 SSTORE SWAP1 MLOAD SWAP1 SWAP2 DUP2 LT ISZERO PUSH2 0xDD5 JUMPI PUSH2 0x19F5 SWAP2 PUSH2 0x2E94 JUMP JUMPDEST PUSH1 0xA SLOAD PUSH1 0x1 PUSH1 0x40 SHL DUP2 LT ISZERO PUSH2 0x398 JUMPI PUSH2 0xCC5 DUP2 PUSH1 0x1 PUSH2 0x1A19 SWAP4 ADD PUSH1 0xA SSTORE PUSH1 0xA PUSH2 0x2930 JUMP JUMPDEST PUSH2 0x1A24 PUSH1 0x6 SLOAD PUSH2 0x2E4C JUMP JUMPDEST PUSH1 0x6 SSTORE STOP JUMPDEST ADD MLOAD SWAP1 POP DUP10 DUP1 PUSH2 0x268 JUMP JUMPDEST PUSH1 0x1F NOT DUP3 AND SWAP8 DUP4 PUSH1 0x0 MSTORE DUP2 PUSH1 0x0 KECCAK256 SWAP9 PUSH1 0x0 JUMPDEST DUP2 DUP2 LT PUSH2 0x1A86 JUMPI POP SWAP2 PUSH1 0x4 SWAP8 SWAP9 SWAP10 SWAP2 DUP5 PUSH1 0x1 SWAP6 SWAP5 LT PUSH2 0x1A6D JUMPI JUMPDEST POP POP POP DUP2 SHL ADD SWAP1 SSTORE PUSH2 0x19B5 JUMP JUMPDEST ADD MLOAD PUSH1 0x0 NOT PUSH1 0xF8 DUP5 PUSH1 0x3 SHL AND SHR NOT AND SWAP1 SSTORE DUP9 DUP1 DUP1 PUSH2 0x1A60 JUMP JUMPDEST DUP4 DUP4 ADD MLOAD DUP12 SSTORE PUSH1 0x1 SWAP1 SWAP11 ADD SWAP10 PUSH1 0x20 SWAP4 DUP5 ADD SWAP4 ADD PUSH2 0x1A46 JUMP JUMPDEST SWAP1 PUSH1 0x1F NOT DUP4 AND SWAP2 DUP5 PUSH1 0x0 MSTORE DUP2 PUSH1 0x0 KECCAK256 SWAP3 PUSH1 0x0 JUMPDEST DUP2 DUP2 LT PUSH2 0x1AED JUMPI POP SWAP1 DUP5 PUSH1 0x1 SWAP6 SWAP5 SWAP4 SWAP3 LT PUSH2 0x1AD4 JUMPI JUMPDEST POP POP POP DUP2 SHL ADD SWAP1 SSTORE PUSH2 0x1959 JUMP JUMPDEST ADD MLOAD PUSH1 0x0 NOT PUSH1 0xF8 DUP5 PUSH1 0x3 SHL AND SHR NOT AND SWAP1 SSTORE DUP9 DUP1 DUP1 PUSH2 0x1AC7 JUMP JUMPDEST SWAP3 SWAP4 PUSH1 0x20 PUSH1 0x1 DUP2 SWAP3 DUP8 DUP7 ADD MLOAD DUP2 SSTORE ADD SWAP6 ADD SWAP4 ADD PUSH2 0x1AB1 JUMP JUMPDEST CALLVALUE PUSH2 0x475 JUMPI PUSH1 0x0 CALLDATASIZE PUSH1 0x3 NOT ADD SLT PUSH2 0x475 JUMPI PUSH1 0xA SLOAD PUSH2 0x1B22 DUP2 PUSH2 0x2DD2 JUMP JUMPDEST SWAP1 PUSH1 0x0 JUMPDEST DUP2 DUP2 LT PUSH2 0x1B3B JUMPI PUSH1 0x40 MLOAD DUP1 PUSH2 0x5CF DUP6 DUP3 PUSH2 0x2A5B JUMP JUMPDEST DUP1 PUSH2 0x1B47 PUSH1 0x1 SWAP3 PUSH2 0x28FA JUMP JUMPDEST DUP4 DUP1 PUSH1 0xA0 SHL SUB SWAP2 SLOAD SWAP1 PUSH1 0x3 SHL SHR AND PUSH1 0x0 MSTORE PUSH1 0x7 PUSH1 0x20 MSTORE PUSH1 0x40 PUSH1 0x0 KECCAK256 PUSH2 0x1B76 PUSH1 0xFF PUSH1 0x4 PUSH1 0x40 MLOAD SWAP4 PUSH2 0xE9E DUP6 PUSH2 0x2B11 JUMP JUMPDEST PUSH2 0x1B80 DUP3 DUP7 PUSH2 0x2DB2 JUMP JUMPDEST MSTORE PUSH2 0x1B8B DUP2 DUP6 PUSH2 0x2DB2 JUMP JUMPDEST POP ADD PUSH2 0x1B26 JUMP JUMPDEST CALLVALUE PUSH2 0x475 JUMPI PUSH1 0x20 CALLDATASIZE PUSH1 0x3 NOT ADD SLT PUSH2 0x475 JUMPI PUSH1 0x4 CALLDATALOAD PUSH1 0xF SLOAD DUP2 LT ISZERO PUSH2 0x475 JUMPI PUSH2 0xE14 PUSH1 0x20 SWAP2 PUSH2 0x2915 JUMP JUMPDEST CALLVALUE PUSH2 0x475 JUMPI PUSH1 0x20 CALLDATASIZE PUSH1 0x3 NOT ADD SLT PUSH2 0x475 JUMPI PUSH1 0x4 CALLDATALOAD PUSH1 0xD SLOAD DUP2 LT ISZERO PUSH2 0x475 JUMPI PUSH2 0xE14 PUSH1 0x20 SWAP2 PUSH2 0x288E JUMP JUMPDEST CALLVALUE PUSH2 0x475 JUMPI PUSH1 0x20 CALLDATASIZE PUSH1 0x3 NOT ADD SLT PUSH2 0x475 JUMPI PUSH1 0x4 CALLDATALOAD PUSH2 0x1C0D PUSH1 0x1 DUP1 PUSH1 0xA0 SHL SUB PUSH1 0x0 SLOAD AND CALLER EQ PUSH2 0x2E5B JUMP JUMPDEST PUSH1 0x4 SLOAD PUSH2 0x1C86 JUMPI PUSH1 0x3 SLOAD DUP2 GT ISZERO PUSH2 0x1C23 JUMPI PUSH1 0x4 SSTORE STOP JUMPDEST PUSH1 0x40 MLOAD PUSH3 0x461BCD PUSH1 0xE5 SHL DUP2 MSTORE PUSH1 0x20 PUSH1 0x4 DUP3 ADD MSTORE PUSH1 0x35 PUSH1 0x24 DUP3 ADD MSTORE PUSH32 0x526573756C74207075626C69636174696F6E2074696D65206D75737420626520 PUSH1 0x44 DUP3 ADD MSTORE PUSH21 0x616674657220766F74696E6720656E642074696D65 PUSH1 0x58 SHL PUSH1 0x64 DUP3 ADD MSTORE PUSH1 0x84 SWAP1 REVERT JUMPDEST PUSH1 0x40 MLOAD PUSH3 0x461BCD PUSH1 0xE5 SHL DUP2 MSTORE PUSH1 0x20 PUSH1 0x4 DUP3 ADD MSTORE PUSH1 0x23 PUSH1 0x24 DUP3 ADD MSTORE PUSH32 0x526573756C74207075626C69636174696F6E2074696D6520616C726561647920 PUSH1 0x44 DUP3 ADD MSTORE PUSH3 0x1CD95D PUSH1 0xEA SHL PUSH1 0x64 DUP3 ADD MSTORE PUSH1 0x84 SWAP1 REVERT JUMPDEST CALLVALUE PUSH2 0x475 JUMPI PUSH2 0x1CE5 CALLDATASIZE PUSH2 0x2BFA JUMP JUMPDEST SWAP1 PUSH2 0x1CFB PUSH1 0x1 DUP1 PUSH1 0xA0 SHL SUB PUSH1 0x0 SLOAD AND CALLER EQ PUSH2 0x2E5B JUMP JUMPDEST PUSH1 0x1 PUSH1 0x1 PUSH1 0xA0 SHL SUB DUP2 DUP2 AND PUSH1 0x0 DUP2 DUP2 MSTORE PUSH1 0x8 PUSH1 0x20 MSTORE PUSH1 0x40 SWAP1 KECCAK256 PUSH1 0x2 DUP2 ADD DUP1 SLOAD SWAP3 SWAP5 SWAP4 SWAP1 SWAP3 AND ISZERO PUSH2 0x1EA8 JUMPI DUP2 SLOAD PUSH1 0xFF PUSH1 0xA0 SHL NOT AND PUSH1 0x1 PUSH1 0xA1 SHL OR SWAP1 SWAP2 SSTORE DUP4 MLOAD PUSH1 0x4 SWAP2 SWAP1 SWAP2 ADD SWAP1 PUSH1 0x1 PUSH1 0x1 PUSH1 0x40 SHL SUB DUP2 GT PUSH2 0x398 JUMPI PUSH2 0x1D5C DUP2 PUSH2 0x243 DUP5 SLOAD PUSH2 0x2C39 JUMP JUMPDEST PUSH1 0x20 SWAP5 PUSH1 0x1F DUP3 GT PUSH1 0x1 EQ PUSH2 0x1E43 JUMPI PUSH2 0x1D8F SWAP3 SWAP4 SWAP5 SWAP6 DUP3 SWAP2 PUSH1 0x0 SWAP3 PUSH2 0x144B JUMPI POP POP DUP2 PUSH1 0x1 SHL SWAP2 PUSH1 0x0 NOT SWAP1 PUSH1 0x3 SHL SHR NOT AND OR SWAP1 JUMP JUMPDEST SWAP1 SSTORE JUMPDEST PUSH1 0xD SLOAD SWAP1 PUSH1 0x1 PUSH1 0x40 SHL DUP3 LT ISZERO PUSH2 0x398 JUMPI PUSH2 0x2A5 DUP3 PUSH1 0x1 PUSH2 0x1DB7 SWAP5 ADD PUSH1 0xD SSTORE PUSH1 0xD PUSH2 0x2930 JUMP JUMPDEST PUSH1 0x0 JUMPDEST PUSH1 0xB SLOAD DUP1 DUP3 LT ISZERO PUSH2 0x396 JUMPI DUP3 PUSH2 0x1DCF DUP4 PUSH2 0x28DF JUMP JUMPDEST SWAP1 SLOAD PUSH1 0x3 SWAP2 SWAP1 SWAP2 SHL SHR PUSH1 0x1 PUSH1 0x1 PUSH1 0xA0 SHL SUB AND EQ PUSH2 0x1DEF JUMPI POP PUSH1 0x1 ADD PUSH2 0x1DBA JUMP JUMPDEST PUSH1 0x0 NOT DUP2 ADD SWAP3 POP DUP3 GT PUSH2 0x380 JUMPI PUSH2 0x2A5 PUSH2 0x1E0B PUSH2 0x1E23 SWAP4 PUSH2 0x28DF JUMP JUMPDEST SWAP1 SLOAD PUSH1 0x3 SWAP2 SWAP1 SWAP2 SHL SHR PUSH1 0x1 PUSH1 0x1 PUSH1 0xA0 SHL SUB AND SWAP2 PUSH2 0x28DF JUMP JUMPDEST PUSH1 0xB SLOAD DUP1 ISZERO PUSH2 0x36A JUMPI PUSH1 0x0 NOT ADD PUSH2 0x1E3E PUSH2 0x350 DUP3 PUSH1 0xB PUSH2 0x2930 JUMP JUMPDEST PUSH1 0xB SSTORE STOP JUMPDEST PUSH1 0x1F NOT DUP3 AND SWAP6 DUP4 PUSH1 0x0 MSTORE DUP1 PUSH1 0x0 KECCAK256 SWAP2 PUSH1 0x0 JUMPDEST DUP9 DUP2 LT PUSH2 0x1E90 JUMPI POP DUP4 PUSH1 0x1 SWAP6 SWAP7 SWAP8 SWAP9 LT PUSH2 0x1E77 JUMPI JUMPDEST POP POP POP DUP2 SHL ADD SWAP1 SSTORE PUSH2 0x1D92 JUMP JUMPDEST ADD MLOAD PUSH1 0x0 NOT PUSH1 0xF8 DUP5 PUSH1 0x3 SHL AND SHR NOT AND SWAP1 SSTORE DUP6 DUP1 DUP1 PUSH2 0x1E6A JUMP JUMPDEST SWAP2 SWAP3 PUSH1 0x20 PUSH1 0x1 DUP2 SWAP3 DUP7 DUP6 ADD MLOAD DUP2 SSTORE ADD SWAP5 ADD SWAP3 ADD PUSH2 0x1E55 JUMP JUMPDEST PUSH1 0x40 MLOAD PUSH3 0x461BCD PUSH1 0xE5 SHL DUP2 MSTORE PUSH1 0x20 PUSH1 0x4 DUP3 ADD MSTORE PUSH1 0x1B PUSH1 0x24 DUP3 ADD MSTORE PUSH32 0x4E6F2063616E646964617465206461746120617661696C61626C650000000000 PUSH1 0x44 DUP3 ADD MSTORE PUSH1 0x64 SWAP1 REVERT JUMPDEST CALLVALUE PUSH2 0x475 JUMPI PUSH1 0x20 CALLDATASIZE PUSH1 0x3 NOT ADD SLT PUSH2 0x475 JUMPI PUSH1 0x4 CALLDATALOAD PUSH1 0xC SLOAD DUP2 LT ISZERO PUSH2 0x475 JUMPI PUSH2 0xE14 PUSH1 0x20 SWAP2 PUSH2 0x28A9 JUMP JUMPDEST CALLVALUE PUSH2 0x475 JUMPI PUSH2 0x1F24 CALLDATASIZE PUSH2 0x2BB9 JUMP JUMPDEST PUSH1 0xA SLOAD SWAP1 PUSH1 0x20 DUP4 ADD SWAP1 PUSH1 0x0 DUP1 JUMPDEST DUP5 DUP2 LT PUSH2 0x2053 JUMPI POP PUSH2 0x1F42 SWAP1 PUSH2 0x2DD2 JUMP JUMPDEST SWAP4 PUSH1 0x0 SWAP2 PUSH1 0x0 JUMPDEST DUP6 DUP2 LT PUSH2 0x1F5E JUMPI PUSH1 0x40 MLOAD DUP1 PUSH2 0x5CF DUP10 DUP3 PUSH2 0x2A5B JUMP JUMPDEST PUSH2 0x1F67 DUP2 PUSH2 0x28FA JUMP JUMPDEST PUSH1 0x1 DUP1 PUSH1 0xA0 SHL SUB SWAP2 SLOAD SWAP1 PUSH1 0x3 SHL SHR AND PUSH1 0x0 MSTORE PUSH1 0x7 PUSH1 0x20 MSTORE PUSH1 0x40 PUSH1 0x0 KECCAK256 PUSH1 0x40 MLOAD SWAP1 PUSH2 0x1F90 DUP3 PUSH2 0x2B11 JUMP JUMPDEST PUSH1 0xFF DUP2 SLOAD AND ISZERO ISZERO DUP3 MSTORE PUSH2 0x1FA5 PUSH1 0x1 DUP3 ADD PUSH2 0x2C73 JUMP JUMPDEST PUSH1 0x20 DUP4 ADD MSTORE PUSH1 0x4 PUSH2 0x1FB8 PUSH1 0x2 DUP4 ADD PUSH2 0x2C73 JUMP JUMPDEST SWAP2 PUSH1 0x40 DUP5 ADD SWAP3 DUP4 MSTORE PUSH1 0x3 DUP2 ADD SLOAD PUSH1 0x60 DUP6 ADD MSTORE ADD SLOAD SWAP1 PUSH2 0x1FEF PUSH1 0xFF PUSH1 0x80 DUP6 ADD SWAP4 PUSH1 0x1 DUP1 PUSH1 0xA0 SHL SUB DUP2 AND DUP6 MSTORE PUSH1 0xA0 SHR AND PUSH1 0xA0 DUP6 ADD PUSH2 0x2DC6 JUMP JUMPDEST MLOAD PUSH1 0x20 DUP2 MLOAD SWAP2 ADD KECCAK256 DUP6 MLOAD DUP9 KECCAK256 EQ SWAP1 DUP2 PUSH2 0x203C JUMPI JUMPDEST POP PUSH2 0x2012 JUMPI JUMPDEST POP PUSH1 0x1 ADD PUSH2 0x1F49 JUMP JUMPDEST DUP5 PUSH2 0x2035 SWAP2 PUSH2 0x2024 PUSH1 0x1 SWAP5 SWAP8 DUP12 PUSH2 0x2DB2 JUMP JUMPDEST MSTORE PUSH2 0x202F DUP2 DUP11 PUSH2 0x2DB2 JUMP JUMPDEST POP PUSH2 0x2E4C JUMP JUMPDEST SWAP4 SWAP1 PUSH2 0x2009 JUMP JUMPDEST MLOAD PUSH1 0x1 PUSH1 0x1 PUSH1 0xA0 SHL SUB DUP6 DUP2 AND SWAP2 AND EQ SWAP1 POP DUP10 PUSH2 0x2003 JUMP JUMPDEST PUSH2 0x205C DUP2 PUSH2 0x28FA JUMP JUMPDEST PUSH1 0x1 DUP1 PUSH1 0xA0 SHL SUB SWAP2 SLOAD SWAP1 PUSH1 0x3 SHL SHR AND PUSH1 0x0 MSTORE PUSH1 0x7 PUSH1 0x20 MSTORE PUSH1 0x40 PUSH1 0x0 KECCAK256 PUSH1 0x40 MLOAD SWAP1 PUSH2 0x2085 DUP3 PUSH2 0x2B11 JUMP JUMPDEST PUSH1 0xFF DUP2 SLOAD AND ISZERO ISZERO DUP3 MSTORE PUSH2 0x209A PUSH1 0x1 DUP3 ADD PUSH2 0x2C73 JUMP JUMPDEST PUSH1 0x20 DUP4 ADD MSTORE PUSH2 0x20E5 PUSH1 0x4 PUSH2 0x20B0 PUSH1 0x2 DUP5 ADD PUSH2 0x2C73 JUMP JUMPDEST PUSH1 0x40 DUP6 ADD SWAP1 DUP2 MSTORE PUSH1 0x3 DUP5 ADD SLOAD PUSH1 0x60 DUP7 ADD MSTORE SWAP3 ADD SLOAD PUSH1 0x1 PUSH1 0x1 PUSH1 0xA0 SHL SUB DUP2 AND PUSH1 0x80 DUP6 ADD SWAP1 DUP2 MSTORE SWAP4 PUSH1 0xA0 SWAP2 DUP3 SHR PUSH1 0xFF AND SWAP2 ADD PUSH2 0x2DC6 JUMP JUMPDEST MLOAD PUSH1 0x20 DUP2 MLOAD SWAP2 ADD KECCAK256 DUP8 MLOAD DUP7 KECCAK256 EQ SWAP1 DUP2 PUSH2 0x211B JUMPI JUMPDEST POP PUSH2 0x2107 JUMPI JUMPDEST PUSH1 0x1 ADD PUSH2 0x1F31 JUMP JUMPDEST SWAP1 PUSH2 0x2113 PUSH1 0x1 SWAP2 PUSH2 0x2E4C JUMP JUMPDEST SWAP2 SWAP1 POP PUSH2 0x20FF JUMP JUMPDEST MLOAD PUSH1 0x1 PUSH1 0x1 PUSH1 0xA0 SHL SUB DUP6 DUP2 AND SWAP2 AND EQ SWAP1 POP DUP8 PUSH2 0x20F9 JUMP JUMPDEST CALLVALUE PUSH2 0x475 JUMPI PUSH2 0x2140 CALLDATASIZE PUSH2 0x2BFA JUMP JUMPDEST SWAP1 PUSH2 0x2156 PUSH1 0x1 DUP1 PUSH1 0xA0 SHL SUB PUSH1 0x0 SLOAD AND CALLER EQ PUSH2 0x2E5B JUMP JUMPDEST PUSH1 0x1 PUSH1 0x1 PUSH1 0xA0 SHL SUB DUP2 DUP2 AND PUSH1 0x0 DUP2 DUP2 MSTORE PUSH1 0x7 PUSH1 0x20 MSTORE PUSH1 0x40 SWAP1 KECCAK256 PUSH1 0x4 DUP2 ADD DUP1 SLOAD SWAP3 SWAP5 SWAP4 SWAP1 SWAP3 AND ISZERO PUSH2 0x2303 JUMPI DUP2 SLOAD PUSH1 0xFF PUSH1 0xA0 SHL NOT AND PUSH1 0x1 PUSH1 0xA1 SHL OR SWAP1 SWAP2 SSTORE DUP4 MLOAD PUSH1 0x1 SWAP2 SWAP1 SWAP2 ADD SWAP1 PUSH1 0x1 PUSH1 0x1 PUSH1 0x40 SHL SUB DUP2 GT PUSH2 0x398 JUMPI PUSH2 0x21B7 DUP2 PUSH2 0x243 DUP5 SLOAD PUSH2 0x2C39 JUMP JUMPDEST PUSH1 0x20 SWAP5 PUSH1 0x1F DUP3 GT PUSH1 0x1 EQ PUSH2 0x229E JUMPI PUSH2 0x21EA SWAP3 SWAP4 SWAP5 SWAP6 DUP3 SWAP2 PUSH1 0x0 SWAP3 PUSH2 0x144B JUMPI POP POP DUP2 PUSH1 0x1 SHL SWAP2 PUSH1 0x0 NOT SWAP1 PUSH1 0x3 SHL SHR NOT AND OR SWAP1 JUMP JUMPDEST SWAP1 SSTORE JUMPDEST PUSH1 0xE SLOAD SWAP1 PUSH1 0x1 PUSH1 0x40 SHL DUP3 LT ISZERO PUSH2 0x398 JUMPI PUSH2 0x2A5 DUP3 PUSH1 0x1 PUSH2 0x2212 SWAP5 ADD PUSH1 0xE SSTORE PUSH1 0xE PUSH2 0x2930 JUMP JUMPDEST PUSH1 0x0 JUMPDEST PUSH1 0xC SLOAD DUP1 DUP3 LT ISZERO PUSH2 0x396 JUMPI DUP3 PUSH2 0x222A DUP4 PUSH2 0x28A9 JUMP JUMPDEST SWAP1 SLOAD PUSH1 0x3 SWAP2 SWAP1 SWAP2 SHL SHR PUSH1 0x1 PUSH1 0x1 PUSH1 0xA0 SHL SUB AND EQ PUSH2 0x224A JUMPI POP PUSH1 0x1 ADD PUSH2 0x2215 JUMP JUMPDEST PUSH1 0x0 NOT DUP2 ADD SWAP3 POP DUP3 GT PUSH2 0x380 JUMPI PUSH2 0x2A5 PUSH2 0x2266 PUSH2 0x227E SWAP4 PUSH2 0x28A9 JUMP JUMPDEST SWAP1 SLOAD PUSH1 0x3 SWAP2 SWAP1 SWAP2 SHL SHR PUSH1 0x1 PUSH1 0x1 PUSH1 0xA0 SHL SUB AND SWAP2 PUSH2 0x28A9 JUMP JUMPDEST PUSH1 0xC SLOAD DUP1 ISZERO PUSH2 0x36A JUMPI PUSH1 0x0 NOT ADD PUSH2 0x2299 PUSH2 0x350 DUP3 PUSH1 0xC PUSH2 0x2930 JUMP JUMPDEST PUSH1 0xC SSTORE STOP JUMPDEST PUSH1 0x1F NOT DUP3 AND SWAP6 DUP4 PUSH1 0x0 MSTORE DUP1 PUSH1 0x0 KECCAK256 SWAP2 PUSH1 0x0 JUMPDEST DUP9 DUP2 LT PUSH2 0x22EB JUMPI POP DUP4 PUSH1 0x1 SWAP6 SWAP7 SWAP8 SWAP9 LT PUSH2 0x22D2 JUMPI JUMPDEST POP POP POP DUP2 SHL ADD SWAP1 SSTORE PUSH2 0x21ED JUMP JUMPDEST ADD MLOAD PUSH1 0x0 NOT PUSH1 0xF8 DUP5 PUSH1 0x3 SHL AND SHR NOT AND SWAP1 SSTORE DUP6 DUP1 DUP1 PUSH2 0x22C5 JUMP JUMPDEST SWAP2 SWAP3 PUSH1 0x20 PUSH1 0x1 DUP2 SWAP3 DUP7 DUP6 ADD MLOAD DUP2 SSTORE ADD SWAP5 ADD SWAP3 ADD PUSH2 0x22B0 JUMP JUMPDEST PUSH1 0x40 MLOAD PUSH3 0x461BCD PUSH1 0xE5 SHL DUP2 MSTORE PUSH1 0x20 PUSH1 0x4 DUP3 ADD MSTORE PUSH1 0x17 PUSH1 0x24 DUP3 ADD MSTORE PUSH32 0x4E6F20766F746572206461746120617661696C61626C65000000000000000000 PUSH1 0x44 DUP3 ADD MSTORE PUSH1 0x64 SWAP1 REVERT JUMPDEST CALLVALUE PUSH2 0x475 JUMPI PUSH2 0x2356 CALLDATASIZE PUSH2 0x2BB9 JUMP JUMPDEST PUSH1 0x9 SLOAD SWAP1 PUSH1 0x20 DUP4 ADD SWAP1 PUSH1 0x0 DUP1 JUMPDEST DUP5 DUP2 LT PUSH2 0x2472 JUMPI POP PUSH2 0x2374 SWAP1 PUSH2 0x2D62 JUMP JUMPDEST SWAP4 PUSH1 0x0 SWAP2 PUSH1 0x0 JUMPDEST DUP6 DUP2 LT PUSH2 0x2390 JUMPI PUSH1 0x40 MLOAD DUP1 PUSH2 0x5CF DUP10 DUP3 PUSH2 0x29FB JUMP JUMPDEST PUSH2 0x2399 DUP2 PUSH2 0x285D JUMP JUMPDEST PUSH1 0x1 DUP1 PUSH1 0xA0 SHL SUB SWAP2 SLOAD SWAP1 PUSH1 0x3 SHL SHR AND PUSH1 0x0 MSTORE PUSH1 0x8 PUSH1 0x20 MSTORE PUSH1 0x40 PUSH1 0x0 KECCAK256 PUSH1 0x40 MLOAD SWAP1 PUSH2 0x23C2 DUP3 PUSH2 0x2B11 JUMP JUMPDEST DUP1 SLOAD DUP3 MSTORE PUSH1 0x1 DUP2 ADD SLOAD PUSH1 0x20 DUP4 ADD MSTORE PUSH1 0x2 DUP2 ADD SLOAD PUSH1 0x1 PUSH1 0x1 PUSH1 0xA0 SHL SUB DUP2 AND PUSH1 0x40 DUP5 ADD SWAP1 DUP2 MSTORE SWAP2 SWAP1 PUSH2 0x23FB SWAP1 PUSH1 0xA0 SHR PUSH1 0xFF AND PUSH1 0x60 DUP6 ADD PUSH2 0x2DC6 JUMP JUMPDEST PUSH2 0x241A PUSH1 0x4 PUSH2 0x240C PUSH1 0x3 DUP5 ADD PUSH2 0x2C73 JUMP JUMPDEST SWAP3 PUSH1 0x80 DUP7 ADD SWAP4 DUP5 MSTORE ADD PUSH2 0x2C73 JUMP JUMPDEST PUSH1 0xA0 DUP5 ADD MSTORE MLOAD PUSH1 0x20 DUP2 MLOAD SWAP2 ADD KECCAK256 DUP6 MLOAD DUP9 KECCAK256 EQ SWAP1 DUP2 PUSH2 0x245B JUMPI JUMPDEST POP PUSH2 0x2442 JUMPI JUMPDEST POP PUSH1 0x1 ADD PUSH2 0x237B JUMP JUMPDEST DUP5 PUSH2 0x2454 SWAP2 PUSH2 0x2024 PUSH1 0x1 SWAP5 SWAP8 DUP12 PUSH2 0x2DB2 JUMP JUMPDEST SWAP4 SWAP1 PUSH2 0x2439 JUMP JUMPDEST MLOAD PUSH1 0x1 PUSH1 0x1 PUSH1 0xA0 SHL SUB DUP6 DUP2 AND SWAP2 AND EQ SWAP1 POP DUP10 PUSH2 0x2433 JUMP JUMPDEST PUSH2 0x247B DUP2 PUSH2 0x285D JUMP JUMPDEST PUSH1 0x1 DUP1 PUSH1 0xA0 SHL SUB SWAP2 SLOAD SWAP1 PUSH1 0x3 SHL SHR AND PUSH1 0x0 MSTORE PUSH1 0x8 PUSH1 0x20 MSTORE PUSH1 0x40 PUSH1 0x0 KECCAK256 PUSH1 0x40 MLOAD SWAP1 PUSH2 0x24A4 DUP3 PUSH2 0x2B11 JUMP JUMPDEST DUP1 SLOAD DUP3 MSTORE PUSH1 0x1 DUP2 ADD SLOAD PUSH1 0x20 DUP4 ADD MSTORE PUSH1 0x2 DUP2 ADD SLOAD PUSH1 0x1 PUSH1 0x1 PUSH1 0xA0 SHL SUB DUP2 AND PUSH1 0x40 DUP5 ADD SWAP1 DUP2 MSTORE SWAP3 SWAP1 PUSH2 0x24DD SWAP1 PUSH1 0xA0 SHR PUSH1 0xFF AND PUSH1 0x60 DUP4 ADD PUSH2 0x2DC6 JUMP JUMPDEST PUSH1 0xA0 PUSH2 0x24FE PUSH1 0x4 PUSH2 0x24F0 PUSH1 0x3 DUP7 ADD PUSH2 0x2C73 JUMP JUMPDEST SWAP5 PUSH1 0x80 DUP6 ADD SWAP6 DUP7 MSTORE ADD PUSH2 0x2C73 JUMP JUMPDEST SWAP2 ADD MSTORE MLOAD PUSH1 0x20 DUP2 MLOAD SWAP2 ADD KECCAK256 DUP8 MLOAD DUP7 KECCAK256 EQ SWAP1 DUP2 PUSH2 0x2537 JUMPI JUMPDEST POP PUSH2 0x2523 JUMPI JUMPDEST PUSH1 0x1 ADD PUSH2 0x2363 JUMP JUMPDEST SWAP1 PUSH2 0x252F PUSH1 0x1 SWAP2 PUSH2 0x2E4C JUMP JUMPDEST SWAP2 SWAP1 POP PUSH2 0x251B JUMP JUMPDEST MLOAD PUSH1 0x1 PUSH1 0x1 PUSH1 0xA0 SHL SUB DUP6 DUP2 AND SWAP2 AND EQ SWAP1 POP DUP8 PUSH2 0x2515 JUMP JUMPDEST CALLVALUE PUSH2 0x475 JUMPI PUSH1 0x0 CALLDATASIZE PUSH1 0x3 NOT ADD SLT PUSH2 0x475 JUMPI PUSH1 0xB SLOAD PUSH2 0x256B DUP2 PUSH2 0x2D62 JUMP JUMPDEST SWAP1 PUSH1 0x0 JUMPDEST DUP2 DUP2 LT PUSH2 0x2584 JUMPI PUSH1 0x40 MLOAD DUP1 PUSH2 0x5CF DUP6 DUP3 PUSH2 0x29FB JUMP JUMPDEST DUP1 PUSH2 0x2590 PUSH1 0x1 SWAP3 PUSH2 0x28DF JUMP JUMPDEST DUP4 DUP1 PUSH1 0xA0 SHL SUB SWAP2 SLOAD SWAP1 PUSH1 0x3 SHL SHR AND PUSH1 0x0 MSTORE PUSH1 0x8 PUSH1 0x20 MSTORE PUSH1 0x40 PUSH1 0x0 KECCAK256 PUSH2 0x2605 PUSH1 0x4 PUSH1 0x40 MLOAD SWAP3 PUSH2 0x25BD DUP5 PUSH2 0x2B11 JUMP JUMPDEST DUP1 SLOAD DUP5 MSTORE DUP6 DUP2 ADD SLOAD PUSH1 0x20 DUP6 ADD MSTORE PUSH2 0x25EE PUSH1 0xFF PUSH1 0x2 DUP4 ADD SLOAD DUP9 DUP1 PUSH1 0xA0 SHL SUB DUP2 AND PUSH1 0x40 DUP9 ADD MSTORE PUSH1 0xA0 SHR AND PUSH1 0x60 DUP7 ADD PUSH2 0x2DC6 JUMP JUMPDEST PUSH2 0x25FA PUSH1 0x3 DUP3 ADD PUSH2 0x2C73 JUMP JUMPDEST PUSH1 0x80 DUP6 ADD MSTORE ADD PUSH2 0x2C73 JUMP JUMPDEST PUSH1 0xA0 DUP3 ADD MSTORE PUSH2 0x2614 DUP3 DUP7 PUSH2 0x2DB2 JUMP JUMPDEST MSTORE PUSH2 0x261F DUP2 DUP6 PUSH2 0x2DB2 JUMP JUMPDEST POP ADD PUSH2 0x256F JUMP JUMPDEST CALLVALUE PUSH2 0x475 JUMPI PUSH1 0x20 CALLDATASIZE PUSH1 0x3 NOT ADD SLT PUSH2 0x475 JUMPI PUSH1 0x4 CALLDATALOAD PUSH1 0xE SLOAD DUP2 LT ISZERO PUSH2 0x475 JUMPI PUSH2 0xE14 PUSH1 0x20 SWAP2 PUSH2 0x28C4 JUMP JUMPDEST CALLVALUE PUSH2 0x475 JUMPI PUSH1 0x0 CALLDATASIZE PUSH1 0x3 NOT ADD SLT PUSH2 0x475 JUMPI PUSH1 0xC SLOAD PUSH2 0x266C DUP2 PUSH2 0x2DD2 JUMP JUMPDEST SWAP1 PUSH1 0x0 JUMPDEST DUP2 DUP2 LT PUSH2 0x2685 JUMPI PUSH1 0x40 MLOAD DUP1 PUSH2 0x5CF DUP6 DUP3 PUSH2 0x2A5B JUMP JUMPDEST DUP1 PUSH2 0x2691 PUSH1 0x1 SWAP3 PUSH2 0x28A9 JUMP JUMPDEST DUP4 DUP1 PUSH1 0xA0 SHL SUB SWAP2 SLOAD SWAP1 PUSH1 0x3 SHL SHR AND PUSH1 0x0 MSTORE PUSH1 0x7 PUSH1 0x20 MSTORE PUSH1 0x40 PUSH1 0x0 KECCAK256 PUSH2 0x26C0 PUSH1 0xFF PUSH1 0x4 PUSH1 0x40 MLOAD SWAP4 PUSH2 0xE9E DUP6 PUSH2 0x2B11 JUMP JUMPDEST PUSH2 0x26CA DUP3 DUP7 PUSH2 0x2DB2 JUMP JUMPDEST MSTORE PUSH2 0x26D5 DUP2 DUP6 PUSH2 0x2DB2 JUMP JUMPDEST POP ADD PUSH2 0x2670 JUMP JUMPDEST CALLVALUE PUSH2 0x475 JUMPI PUSH1 0x0 CALLDATASIZE PUSH1 0x3 NOT ADD SLT PUSH2 0x475 JUMPI PUSH1 0x20 PUSH1 0x2 SLOAD PUSH1 0x40 MLOAD SWAP1 DUP2 MSTORE RETURN JUMPDEST CALLVALUE PUSH2 0x475 JUMPI PUSH1 0x0 CALLDATASIZE PUSH1 0x3 NOT ADD SLT PUSH2 0x475 JUMPI PUSH1 0x9 SLOAD PUSH2 0x2717 DUP2 PUSH2 0x2D62 JUMP JUMPDEST SWAP1 PUSH1 0x0 JUMPDEST DUP2 DUP2 LT PUSH2 0x2730 JUMPI PUSH1 0x40 MLOAD DUP1 PUSH2 0x5CF DUP6 DUP3 PUSH2 0x29FB JUMP JUMPDEST DUP1 PUSH2 0x273C PUSH1 0x1 SWAP3 PUSH2 0x285D JUMP JUMPDEST DUP4 DUP1 PUSH1 0xA0 SHL SUB SWAP2 SLOAD SWAP1 PUSH1 0x3 SHL SHR AND PUSH1 0x0 MSTORE PUSH1 0x8 PUSH1 0x20 MSTORE PUSH1 0x40 PUSH1 0x0 KECCAK256 PUSH2 0x2769 PUSH1 0x4 PUSH1 0x40 MLOAD SWAP3 PUSH2 0x25BD DUP5 PUSH2 0x2B11 JUMP JUMPDEST PUSH1 0xA0 DUP3 ADD MSTORE PUSH2 0x2778 DUP3 DUP7 PUSH2 0x2DB2 JUMP JUMPDEST MSTORE PUSH2 0x2783 DUP2 DUP6 PUSH2 0x2DB2 JUMP JUMPDEST POP ADD PUSH2 0x271B JUMP JUMPDEST CALLVALUE PUSH2 0x475 JUMPI PUSH1 0x0 CALLDATASIZE PUSH1 0x3 NOT ADD SLT PUSH2 0x475 JUMPI PUSH1 0x20 PUSH1 0x3 SLOAD PUSH1 0x40 MLOAD SWAP1 DUP2 MSTORE RETURN JUMPDEST CALLVALUE PUSH2 0x475 JUMPI PUSH1 0x0 CALLDATASIZE PUSH1 0x3 NOT ADD SLT PUSH2 0x475 JUMPI PUSH1 0xD SLOAD PUSH2 0x27C5 DUP2 PUSH2 0x2D62 JUMP JUMPDEST SWAP1 PUSH1 0x0 JUMPDEST DUP2 DUP2 LT PUSH2 0x27DE JUMPI PUSH1 0x40 MLOAD DUP1 PUSH2 0x5CF DUP6 DUP3 PUSH2 0x29FB JUMP JUMPDEST DUP1 PUSH2 0x27EA PUSH1 0x1 SWAP3 PUSH2 0x288E JUMP JUMPDEST DUP4 DUP1 PUSH1 0xA0 SHL SUB SWAP2 SLOAD SWAP1 PUSH1 0x3 SHL SHR AND PUSH1 0x0 MSTORE PUSH1 0x8 PUSH1 0x20 MSTORE PUSH1 0x40 PUSH1 0x0 KECCAK256 PUSH2 0x2817 PUSH1 0x4 PUSH1 0x40 MLOAD SWAP3 PUSH2 0x25BD DUP5 PUSH2 0x2B11 JUMP JUMPDEST PUSH1 0xA0 DUP3 ADD MSTORE PUSH2 0x2826 DUP3 DUP7 PUSH2 0x2DB2 JUMP JUMPDEST MSTORE PUSH2 0x2831 DUP2 DUP6 PUSH2 0x2DB2 JUMP JUMPDEST POP ADD PUSH2 0x27C9 JUMP JUMPDEST CALLVALUE PUSH2 0x475 JUMPI PUSH1 0x20 CALLDATASIZE PUSH1 0x3 NOT ADD SLT PUSH2 0x475 JUMPI PUSH1 0x4 CALLDATALOAD PUSH1 0x9 SLOAD DUP2 LT ISZERO PUSH2 0x475 JUMPI PUSH2 0xE14 PUSH1 0x20 SWAP2 JUMPDEST PUSH1 0x9 SLOAD DUP2 LT ISZERO PUSH2 0x2878 JUMPI PUSH1 0x9 PUSH1 0x0 MSTORE PUSH1 0x20 PUSH1 0x0 KECCAK256 ADD SWAP1 PUSH1 0x0 SWAP1 JUMP JUMPDEST PUSH4 0x4E487B71 PUSH1 0xE0 SHL PUSH1 0x0 MSTORE PUSH1 0x32 PUSH1 0x4 MSTORE PUSH1 0x24 PUSH1 0x0 REVERT JUMPDEST PUSH1 0xD SLOAD DUP2 LT ISZERO PUSH2 0x2878 JUMPI PUSH1 0xD PUSH1 0x0 MSTORE PUSH1 0x20 PUSH1 0x0 KECCAK256 ADD SWAP1 PUSH1 0x0 SWAP1 JUMP JUMPDEST PUSH1 0xC SLOAD DUP2 LT ISZERO PUSH2 0x2878 JUMPI PUSH1 0xC PUSH1 0x0 MSTORE PUSH1 0x20 PUSH1 0x0 KECCAK256 ADD SWAP1 PUSH1 0x0 SWAP1 JUMP JUMPDEST PUSH1 0xE SLOAD DUP2 LT ISZERO PUSH2 0x2878 JUMPI PUSH1 0xE PUSH1 0x0 MSTORE PUSH1 0x20 PUSH1 0x0 KECCAK256 ADD SWAP1 PUSH1 0x0 SWAP1 JUMP JUMPDEST PUSH1 0xB SLOAD DUP2 LT ISZERO PUSH2 0x2878 JUMPI PUSH1 0xB PUSH1 0x0 MSTORE PUSH1 0x20 PUSH1 0x0 KECCAK256 ADD SWAP1 PUSH1 0x0 SWAP1 JUMP JUMPDEST PUSH1 0xA SLOAD DUP2 LT ISZERO PUSH2 0x2878 JUMPI PUSH1 0xA PUSH1 0x0 MSTORE PUSH1 0x20 PUSH1 0x0 KECCAK256 ADD SWAP1 PUSH1 0x0 SWAP1 JUMP JUMPDEST PUSH1 0xF SLOAD DUP2 LT ISZERO PUSH2 0x2878 JUMPI PUSH1 0xF PUSH1 0x0 MSTORE PUSH1 0x20 PUSH1 0x0 KECCAK256 ADD SWAP1 PUSH1 0x0 SWAP1 JUMP JUMPDEST DUP1 SLOAD DUP3 LT ISZERO PUSH2 0x2878 JUMPI PUSH1 0x0 MSTORE PUSH1 0x20 PUSH1 0x0 KECCAK256 ADD SWAP1 PUSH1 0x0 SWAP1 JUMP JUMPDEST SWAP1 PUSH1 0x3 DUP3 LT ISZERO PUSH2 0xDD5 JUMPI MSTORE JUMP JUMPDEST SWAP2 SWAP1 DUP3 MLOAD SWAP3 DUP4 DUP3 MSTORE PUSH1 0x0 JUMPDEST DUP5 DUP2 LT PUSH2 0x2981 JUMPI POP POP DUP3 PUSH1 0x0 PUSH1 0x20 DUP1 SWAP5 SWAP6 DUP5 ADD ADD MSTORE PUSH1 0x1F DUP1 NOT SWAP2 ADD AND ADD ADD SWAP1 JUMP JUMPDEST DUP1 PUSH1 0x20 DUP1 SWAP3 DUP5 ADD ADD MLOAD DUP3 DUP3 DUP7 ADD ADD MSTORE ADD PUSH2 0x2960 JUMP JUMPDEST PUSH2 0x29F8 SWAP2 DUP2 MLOAD DUP2 MSTORE PUSH1 0x20 DUP3 ADD MLOAD PUSH1 0x20 DUP3 ADD MSTORE PUSH1 0x1 DUP1 PUSH1 0xA0 SHL SUB PUSH1 0x40 DUP4 ADD MLOAD AND PUSH1 0x40 DUP3 ADD MSTORE PUSH2 0x29CC PUSH1 0x60 DUP4 ADD MLOAD PUSH1 0x60 DUP4 ADD SWAP1 PUSH2 0x2948 JUMP JUMPDEST PUSH1 0xA0 PUSH2 0x29E7 PUSH1 0x80 DUP5 ADD MLOAD PUSH1 0xC0 PUSH1 0x80 DUP6 ADD MSTORE PUSH1 0xC0 DUP5 ADD SWAP1 PUSH2 0x2955 JUMP JUMPDEST SWAP3 ADD MLOAD SWAP1 PUSH1 0xA0 DUP2 DUP5 SUB SWAP2 ADD MSTORE PUSH2 0x2955 JUMP JUMPDEST SWAP1 JUMP JUMPDEST PUSH1 0x20 DUP2 ADD PUSH1 0x20 DUP3 MSTORE DUP3 MLOAD DUP1 SWAP2 MSTORE PUSH1 0x40 DUP3 ADD SWAP2 PUSH1 0x20 PUSH1 0x40 DUP4 PUSH1 0x5 SHL DUP4 ADD ADD SWAP5 ADD SWAP3 PUSH1 0x0 SWAP2 JUMPDEST DUP4 DUP4 LT PUSH2 0x2A2E JUMPI POP POP POP POP POP SWAP1 JUMP JUMPDEST SWAP1 SWAP2 SWAP3 SWAP4 SWAP5 PUSH1 0x20 DUP1 PUSH2 0x2A4C PUSH1 0x1 SWAP4 PUSH1 0x3F NOT DUP7 DUP3 SUB ADD DUP8 MSTORE DUP10 MLOAD PUSH2 0x2996 JUMP JUMPDEST SWAP8 ADD SWAP4 ADD SWAP4 ADD SWAP2 SWAP4 SWAP3 SWAP1 PUSH2 0x2A1F JUMP JUMPDEST PUSH1 0x20 DUP2 ADD PUSH1 0x20 DUP3 MSTORE DUP3 MLOAD DUP1 SWAP2 MSTORE PUSH1 0x40 DUP3 ADD SWAP2 PUSH1 0x20 PUSH1 0x40 DUP4 PUSH1 0x5 SHL DUP4 ADD ADD SWAP5 ADD SWAP3 PUSH1 0x0 SWAP2 JUMPDEST DUP4 DUP4 LT PUSH2 0x2A8E JUMPI POP POP POP POP POP SWAP1 JUMP JUMPDEST SWAP1 SWAP2 SWAP3 SWAP4 SWAP5 PUSH1 0x20 DUP1 PUSH1 0x1 SWAP3 PUSH1 0x3F NOT DUP6 DUP3 SUB ADD DUP7 MSTORE PUSH2 0x2B02 DUP10 MLOAD SWAP2 DUP3 MLOAD ISZERO ISZERO DUP2 MSTORE PUSH1 0xA0 DUP1 PUSH2 0x2ADD PUSH2 0x2ACB DUP8 DUP8 ADD MLOAD PUSH1 0xC0 DUP10 DUP8 ADD MSTORE PUSH1 0xC0 DUP7 ADD SWAP1 PUSH2 0x2955 JUMP JUMPDEST PUSH1 0x40 DUP8 ADD MLOAD DUP6 DUP3 SUB PUSH1 0x40 DUP8 ADD MSTORE PUSH2 0x2955 JUMP JUMPDEST SWAP5 PUSH1 0x60 DUP2 ADD MLOAD PUSH1 0x60 DUP6 ADD MSTORE DUP9 DUP1 DUP4 SHL SUB PUSH1 0x80 DUP3 ADD MLOAD AND PUSH1 0x80 DUP6 ADD MSTORE ADD MLOAD SWAP2 ADD SWAP1 PUSH2 0x2948 JUMP JUMPDEST SWAP8 ADD SWAP4 ADD SWAP4 ADD SWAP2 SWAP4 SWAP3 SWAP1 PUSH2 0x2A7F JUMP JUMPDEST PUSH1 0xC0 DUP2 ADD SWAP1 DUP2 LT PUSH1 0x1 PUSH1 0x1 PUSH1 0x40 SHL SUB DUP3 GT OR PUSH2 0x398 JUMPI PUSH1 0x40 MSTORE JUMP JUMPDEST SWAP1 PUSH1 0x1F DUP1 NOT SWAP2 ADD AND DUP2 ADD SWAP1 DUP2 LT PUSH1 0x1 PUSH1 0x1 PUSH1 0x40 SHL SUB DUP3 GT OR PUSH2 0x398 JUMPI PUSH1 0x40 MSTORE JUMP JUMPDEST DUP2 PUSH1 0x1F DUP3 ADD SLT ISZERO PUSH2 0x475 JUMPI DUP1 CALLDATALOAD SWAP1 PUSH1 0x1 PUSH1 0x1 PUSH1 0x40 SHL SUB DUP3 GT PUSH2 0x398 JUMPI PUSH1 0x40 MLOAD SWAP3 PUSH2 0x2B81 PUSH1 0x1F DUP5 ADD PUSH1 0x1F NOT AND PUSH1 0x20 ADD DUP6 PUSH2 0x2B2C JUMP JUMPDEST DUP3 DUP5 MSTORE PUSH1 0x20 DUP4 DUP4 ADD ADD GT PUSH2 0x475 JUMPI DUP2 PUSH1 0x0 SWAP3 PUSH1 0x20 DUP1 SWAP4 ADD DUP4 DUP7 ADD CALLDATACOPY DUP4 ADD ADD MSTORE SWAP1 JUMP JUMPDEST PUSH1 0x4 CALLDATALOAD SWAP1 PUSH1 0x1 PUSH1 0x1 PUSH1 0xA0 SHL SUB DUP3 AND DUP3 SUB PUSH2 0x475 JUMPI JUMP JUMPDEST PUSH1 0x40 PUSH1 0x3 NOT DUP3 ADD SLT PUSH2 0x475 JUMPI PUSH1 0x4 CALLDATALOAD SWAP1 PUSH1 0x1 PUSH1 0x1 PUSH1 0x40 SHL SUB DUP3 GT PUSH2 0x475 JUMPI PUSH2 0x2BE3 SWAP2 PUSH1 0x4 ADD PUSH2 0x2B4D JUMP JUMPDEST SWAP1 PUSH1 0x24 CALLDATALOAD PUSH1 0x1 PUSH1 0x1 PUSH1 0xA0 SHL SUB DUP2 AND DUP2 SUB PUSH2 0x475 JUMPI SWAP1 JUMP JUMPDEST SWAP1 PUSH1 0x40 PUSH1 0x3 NOT DUP4 ADD SLT PUSH2 0x475 JUMPI PUSH1 0x4 CALLDATALOAD PUSH1 0x1 PUSH1 0x1 PUSH1 0xA0 SHL SUB DUP2 AND DUP2 SUB PUSH2 0x475 JUMPI SWAP2 PUSH1 0x24 CALLDATALOAD SWAP1 PUSH1 0x1 PUSH1 0x1 PUSH1 0x40 SHL SUB DUP3 GT PUSH2 0x475 JUMPI PUSH2 0x29F8 SWAP2 PUSH1 0x4 ADD PUSH2 0x2B4D JUMP JUMPDEST SWAP1 PUSH1 0x1 DUP3 DUP2 SHR SWAP3 AND DUP1 ISZERO PUSH2 0x2C69 JUMPI JUMPDEST PUSH1 0x20 DUP4 LT EQ PUSH2 0x2C53 JUMPI JUMP JUMPDEST PUSH4 0x4E487B71 PUSH1 0xE0 SHL PUSH1 0x0 MSTORE PUSH1 0x22 PUSH1 0x4 MSTORE PUSH1 0x24 PUSH1 0x0 REVERT JUMPDEST SWAP2 PUSH1 0x7F AND SWAP2 PUSH2 0x2C48 JUMP JUMPDEST SWAP1 PUSH1 0x40 MLOAD SWAP2 DUP3 PUSH1 0x0 DUP3 SLOAD SWAP3 PUSH2 0x2C87 DUP5 PUSH2 0x2C39 JUMP JUMPDEST DUP1 DUP5 MSTORE SWAP4 PUSH1 0x1 DUP2 AND SWAP1 DUP2 ISZERO PUSH2 0x2CF5 JUMPI POP PUSH1 0x1 EQ PUSH2 0x2CAE JUMPI JUMPDEST POP PUSH2 0x2CAC SWAP3 POP SUB DUP4 PUSH2 0x2B2C JUMP JUMPDEST JUMP JUMPDEST SWAP1 POP PUSH1 0x0 SWAP3 SWAP2 SWAP3 MSTORE PUSH1 0x20 PUSH1 0x0 KECCAK256 SWAP1 PUSH1 0x0 SWAP2 JUMPDEST DUP2 DUP4 LT PUSH2 0x2CD9 JUMPI POP POP SWAP1 PUSH1 0x20 PUSH2 0x2CAC SWAP3 DUP3 ADD ADD CODESIZE PUSH2 0x2C9F JUMP JUMPDEST PUSH1 0x20 SWAP2 SWAP4 POP DUP1 PUSH1 0x1 SWAP2 SLOAD DUP4 DUP6 DUP10 ADD ADD MSTORE ADD SWAP2 ADD SWAP1 SWAP2 DUP5 SWAP3 PUSH2 0x2CC0 JUMP JUMPDEST SWAP1 POP PUSH1 0x20 SWAP3 POP PUSH2 0x2CAC SWAP5 SWAP2 POP PUSH1 0xFF NOT AND DUP3 DUP5 ADD MSTORE ISZERO ISZERO PUSH1 0x5 SHL DUP3 ADD ADD CODESIZE PUSH2 0x2C9F JUMP JUMPDEST PUSH1 0x1 PUSH1 0x1 PUSH1 0x40 SHL SUB DUP2 GT PUSH2 0x398 JUMPI PUSH1 0x5 SHL PUSH1 0x20 ADD SWAP1 JUMP JUMPDEST PUSH1 0x40 MLOAD SWAP1 PUSH2 0x2D3B DUP3 PUSH2 0x2B11 JUMP JUMPDEST PUSH1 0x60 PUSH1 0xA0 DUP4 PUSH1 0x0 DUP2 MSTORE PUSH1 0x0 PUSH1 0x20 DUP3 ADD MSTORE PUSH1 0x0 PUSH1 0x40 DUP3 ADD MSTORE PUSH1 0x0 DUP4 DUP3 ADD MSTORE DUP3 PUSH1 0x80 DUP3 ADD MSTORE ADD MSTORE JUMP JUMPDEST SWAP1 PUSH2 0x2D6C DUP3 PUSH2 0x2D17 JUMP JUMPDEST PUSH2 0x2D79 PUSH1 0x40 MLOAD SWAP2 DUP3 PUSH2 0x2B2C JUMP JUMPDEST DUP3 DUP2 MSTORE DUP1 SWAP3 PUSH2 0x2D8A PUSH1 0x1F NOT SWAP2 PUSH2 0x2D17 JUMP JUMPDEST ADD SWAP1 PUSH1 0x0 JUMPDEST DUP3 DUP2 LT PUSH2 0x2D9B JUMPI POP POP POP JUMP JUMPDEST PUSH1 0x20 SWAP1 PUSH2 0x2DA6 PUSH2 0x2D2E JUMP JUMPDEST DUP3 DUP3 DUP6 ADD ADD MSTORE ADD PUSH2 0x2D8F JUMP JUMPDEST DUP1 MLOAD DUP3 LT ISZERO PUSH2 0x2878 JUMPI PUSH1 0x20 SWAP2 PUSH1 0x5 SHL ADD ADD SWAP1 JUMP JUMPDEST PUSH1 0x3 DUP3 LT ISZERO PUSH2 0xDD5 JUMPI MSTORE JUMP JUMPDEST SWAP1 PUSH2 0x2DDC DUP3 PUSH2 0x2D17 JUMP JUMPDEST PUSH2 0x2DE9 PUSH1 0x40 MLOAD SWAP2 DUP3 PUSH2 0x2B2C JUMP JUMPDEST DUP3 DUP2 MSTORE DUP1 SWAP3 PUSH2 0x2DFA PUSH1 0x1F NOT SWAP2 PUSH2 0x2D17 JUMP JUMPDEST ADD SWAP1 PUSH1 0x0 JUMPDEST DUP3 DUP2 LT PUSH2 0x2E0B JUMPI POP POP POP JUMP JUMPDEST PUSH1 0x20 SWAP1 PUSH1 0x40 MLOAD PUSH2 0x2E1A DUP2 PUSH2 0x2B11 JUMP JUMPDEST PUSH1 0x0 DUP2 MSTORE PUSH1 0x60 DUP4 DUP3 ADD MSTORE PUSH1 0x60 PUSH1 0x40 DUP3 ADD MSTORE PUSH1 0x0 PUSH1 0x60 DUP3 ADD MSTORE PUSH1 0x0 PUSH1 0x80 DUP3 ADD MSTORE PUSH1 0x0 PUSH1 0xA0 DUP3 ADD MSTORE DUP3 DUP3 DUP6 ADD ADD MSTORE ADD PUSH2 0x2DFF JUMP JUMPDEST PUSH1 0x0 NOT DUP2 EQ PUSH2 0x380 JUMPI PUSH1 0x1 ADD SWAP1 JUMP JUMPDEST ISZERO PUSH2 0x2E62 JUMPI JUMP JUMPDEST PUSH1 0x40 MLOAD PUSH3 0x461BCD PUSH1 0xE5 SHL DUP2 MSTORE PUSH1 0x20 PUSH1 0x4 DUP3 ADD MSTORE PUSH1 0xA PUSH1 0x24 DUP3 ADD MSTORE PUSH10 0x27B7363C9037BBB732B9 PUSH1 0xB1 SHL PUSH1 0x44 DUP3 ADD MSTORE PUSH1 0x64 SWAP1 REVERT JUMPDEST SWAP1 PUSH1 0x3 DUP2 LT ISZERO PUSH2 0xDD5 JUMPI DUP2 SLOAD PUSH1 0xFF PUSH1 0xA0 SHL NOT AND PUSH1 0xA0 SWAP2 SWAP1 SWAP2 SHL PUSH1 0xFF PUSH1 0xA0 SHL AND OR SWAP1 SSTORE JUMP JUMPDEST DUP2 DUP2 LT PUSH2 0x2EC3 JUMPI POP POP JUMP JUMPDEST PUSH1 0x0 DUP2 SSTORE PUSH1 0x1 ADD PUSH2 0x2EB8 JUMP JUMPDEST SWAP2 SWAP1 PUSH1 0x1F DUP2 GT PUSH2 0x2EDE JUMPI POP POP POP JUMP JUMPDEST PUSH2 0x2CAC SWAP3 PUSH1 0x0 MSTORE PUSH1 0x20 PUSH1 0x0 KECCAK256 SWAP1 PUSH1 0x20 PUSH1 0x1F DUP5 ADD PUSH1 0x5 SHR DUP4 ADD SWAP4 LT PUSH2 0x2F0A JUMPI JUMPDEST PUSH1 0x1F ADD PUSH1 0x5 SHR ADD SWAP1 PUSH2 0x2EB8 JUMP JUMPDEST SWAP1 SWAP2 POP DUP2 SWAP1 PUSH2 0x2EFD JUMP JUMPDEST PUSH1 0x40 MLOAD SWAP1 PUSH2 0x2F23 PUSH1 0x60 DUP4 PUSH2 0x2B2C JUMP JUMPDEST PUSH1 0x21 DUP3 MSTORE PUSH1 0x1B PUSH1 0xFA SHL PUSH1 0x40 DUP4 PUSH32 0x526567697374726174696F6E206973206177616974696E6720617070726F7661 PUSH1 0x20 DUP3 ADD MSTORE ADD MSTORE JUMP JUMPDEST ISZERO PUSH2 0x2F60 JUMPI JUMP JUMPDEST PUSH1 0x40 MLOAD PUSH3 0x461BCD PUSH1 0xE5 SHL DUP2 MSTORE PUSH1 0x20 PUSH1 0x4 DUP3 ADD MSTORE PUSH1 0x21 PUSH1 0x24 DUP3 ADD MSTORE PUSH32 0x43616E6E6F74206D6F6469667920616674657220766F74696E67207374617274 PUSH1 0x44 DUP3 ADD MSTORE PUSH1 0x73 PUSH1 0xF8 SHL PUSH1 0x64 DUP3 ADD MSTORE PUSH1 0x84 SWAP1 REVERT JUMPDEST PUSH2 0x2FB9 DUP2 SLOAD PUSH2 0x2C39 JUMP JUMPDEST SWAP1 DUP2 PUSH2 0x2FC3 JUMPI POP POP JUMP JUMPDEST DUP2 PUSH1 0x1F PUSH1 0x0 SWAP4 GT PUSH1 0x1 EQ PUSH2 0x2FD5 JUMPI POP SSTORE JUMP JUMPDEST DUP2 DUP4 MSTORE PUSH1 0x20 DUP4 KECCAK256 PUSH2 0x2FF1 SWAP2 PUSH1 0x1F ADD PUSH1 0x5 SHR DUP2 ADD SWAP1 PUSH1 0x1 ADD PUSH2 0x2EB8 JUMP JUMPDEST DUP1 DUP3 MSTORE DUP2 PUSH1 0x20 DUP2 KECCAK256 SWAP2 SSTORE SSTORE JUMP JUMPDEST PUSH2 0x3006 PUSH2 0x2D2E JUMP JUMPDEST POP PUSH2 0x300F PUSH2 0x2D2E JUMP JUMPDEST PUSH1 0xB SLOAD PUSH1 0x0 DUP1 JUMPDEST DUP3 DUP2 LT PUSH2 0x3023 JUMPI POP POP POP SWAP1 JUMP JUMPDEST PUSH2 0x302C DUP2 PUSH2 0x28DF JUMP JUMPDEST PUSH1 0x1 DUP1 PUSH1 0xA0 SHL SUB SWAP2 SLOAD SWAP1 PUSH1 0x3 SHL SHR AND PUSH1 0x0 MSTORE PUSH1 0x8 PUSH1 0x20 MSTORE PUSH1 0x40 PUSH1 0x0 KECCAK256 PUSH1 0x40 MLOAD SWAP1 PUSH2 0x3055 DUP3 PUSH2 0x2B11 JUMP JUMPDEST DUP1 SLOAD DUP3 MSTORE PUSH2 0x30A7 PUSH1 0x4 PUSH1 0x1 DUP4 ADD SLOAD SWAP3 PUSH1 0x20 DUP6 ADD SWAP4 DUP5 MSTORE PUSH2 0x3090 PUSH1 0xFF PUSH1 0x2 DUP4 ADD SLOAD PUSH1 0x1 DUP1 PUSH1 0xA0 SHL SUB DUP2 AND PUSH1 0x40 DUP10 ADD MSTORE PUSH1 0xA0 SHR AND PUSH1 0x60 DUP8 ADD PUSH2 0x2DC6 JUMP JUMPDEST PUSH2 0x309C PUSH1 0x3 DUP3 ADD PUSH2 0x2C73 JUMP JUMPDEST PUSH1 0x80 DUP7 ADD MSTORE ADD PUSH2 0x2C73 JUMP JUMPDEST PUSH1 0xA0 DUP4 ADD MSTORE MLOAD DUP4 DUP2 GT PUSH2 0x30BF JUMPI JUMPDEST POP POP PUSH1 0x1 ADD PUSH2 0x3016 JUMP JUMPDEST SWAP1 SWAP5 POP SWAP2 POP PUSH1 0x1 CODESIZE PUSH2 0x30B5 JUMP JUMPDEST PUSH2 0x30D4 PUSH2 0x2D2E JUMP JUMPDEST POP PUSH1 0xB SLOAD ISZERO PUSH2 0x316A JUMPI PUSH1 0x3 SLOAD TIMESTAMP LT PUSH2 0x30EE JUMPI PUSH2 0x29F8 PUSH2 0x2FFE JUMP JUMPDEST PUSH1 0x40 MLOAD PUSH2 0x30FA DUP2 PUSH2 0x2B11 JUMP JUMPDEST PUSH1 0x0 DUP2 MSTORE PUSH1 0x0 PUSH1 0x20 DUP3 ADD MSTORE PUSH1 0x0 PUSH1 0x40 DUP3 ADD MSTORE PUSH1 0x0 PUSH1 0x60 DUP3 ADD MSTORE PUSH1 0x40 MLOAD PUSH2 0x3121 PUSH1 0x20 DUP3 PUSH2 0x2B2C JUMP JUMPDEST PUSH1 0x0 DUP2 MSTORE PUSH1 0x80 DUP3 ADD MSTORE PUSH1 0x40 MLOAD PUSH2 0x3138 PUSH1 0x40 DUP3 PUSH2 0x2B2C JUMP JUMPDEST PUSH1 0x1F DUP2 MSTORE PUSH32 0x506C65617365207761697420756E74696C20656C656374696F6E20656E647300 PUSH1 0x20 DUP3 ADD MSTORE PUSH1 0xA0 DUP3 ADD MSTORE SWAP1 JUMP JUMPDEST PUSH1 0x40 MLOAD PUSH3 0x461BCD PUSH1 0xE5 SHL DUP2 MSTORE PUSH1 0x20 PUSH1 0x4 DUP3 ADD MSTORE PUSH1 0x24 DUP1 DUP3 ADD MSTORE PUSH32 0x4E6F2043616E6469646174657320616363657074656420666F7220656C656374 PUSH1 0x44 DUP3 ADD MSTORE PUSH4 0x34B7B717 PUSH1 0xE1 SHL PUSH1 0x64 DUP3 ADD MSTORE PUSH1 0x84 SWAP1 REVERT INVALID LOG2 PUSH5 0x6970667358 0x22 SLT KECCAK256 MULMOD 0xCD PUSH28 0x17A891772D6CD809F44BD76647790EE92DDD90C2D5C30B21230C7DD0 OR PUSH5 0x736F6C6343 STOP ADDMOD SHR STOP CALLER "},"methodIdentifiers":{"CurrentVotingStatus()":"bab912a2","ListofAcceptedCandidates()":"3cfde26c","ListofAcceptedVoters()":"23a2b2ed","ListofRegisteredCandidates()":"1ee9367c","ListofRegisteredVoters()":"60fc4e32","ListofRejectedCandidates()":"073f966d","ListofRejectedVoters()":"964a43b9","acceptedCandidates(uint256)":"9e7a8145","acceptedVoters(uint256)":"53dd128c","approveCandidate(address,string)":"7eb21b51","approveVoter(address,string)":"fad761d3","candidates(address)":"8ab66a90","candidatesRegistered(uint256)":"0366ac37","changeOwner(address)":"a6f9dae1","electionName()":"85e8e7a7","getAllVotersWhoCasted()":"8987cb32","owner()":"8da5cb5b","registerCandidate(string)":"9eb88db6","registerVoter(string)":"6428a486","rejectCandidate(address,string)":"59632c22","rejectVoter(address,string)":"4a2846a8","rejectedCandidates(uint256)":"5e894b12","rejectedVoters(uint256)":"3afa3e07","resetContract()":"b181a8fc","resultPublicationTime()":"ac94ba4c","searchCandidate(string,address)":"429b0b22","searchVoter(string,address)":"4d867f4e","setResultPublicationTime(uint256)":"5b45cfca","startendVoting(uint256,uint256)":"f33698f1","updateCandidate(string)":"79432db5","updateVoter(string)":"82ff2aeb","vote(address)":"6dd7d8ea","voters(address)":"a3ec138d","votersRegistered(uint256)":"849c5657","votersWhoCasted(uint256)":"5f1bc34e","votingEndTime()":"1ea736e0","votingStartTime()":"2019a608","winningCandidate()":"d28178d7"}}}}}