{"contracts/VotingSystem.sol":{"VotingSystem":{"abi":[{"inputs":[{"internalType":"string","name":"_name","type":"string"}],"stateMutability":"nonpayable","type":"constructor"},{"inputs":[],"name":"CurrentVotingStatus","outputs":[{"components":[{"internalType":"uint256","name":"registeredId","type":"uint256"},{"internalType":"uint256","name":"voteCalculation","type":"uint256"},{"internalType":"address","name":"candidatesAddress","type":"address"},{"internalType":"enum VotingSystem.ConfirmationStatus","name":"status","type":"uint8"},{"internalType":"string","name":"ipfsHash","type":"string"},{"internalType":"string","name":"message","type":"string"}],"internalType":"struct VotingSystem.Candidate","name":"","type":"tuple"}],"stateMutability":"view","type":"function"},{"inputs":[],"name":"ListofAcceptedCandidates","outputs":[{"components":[{"internalType":"uint256","name":"registeredId","type":"uint256"},{"internalType":"uint256","name":"voteCalculation","type":"uint256"},{"internalType":"address","name":"candidatesAddress","type":"address"},{"internalType":"enum VotingSystem.ConfirmationStatus","name":"status","type":"uint8"},{"internalType":"string","name":"ipfsHash","type":"string"},{"internalType":"string","name":"message","type":"string"}],"internalType":"struct VotingSystem.Candidate[]","name":"","type":"tuple[]"}],"stateMutability":"view","type":"function"},{"inputs":[],"name":"ListofAcceptedVoters","outputs":[{"components":[{"internalType":"bool","name":"alreadyVoted","type":"bool"},{"internalType":"string","name":"message","type":"string"},{"internalType":"string","name":"ipfsHash","type":"string"},{"internalType":"uint256","name":"registeredId","type":"uint256"},{"internalType":"address","name":"votersAddress","type":"address"},{"internalType":"enum VotingSystem.ConfirmationStatus","name":"status","type":"uint8"}],"internalType":"struct VotingSystem.Voter[]","name":"","type":"tuple[]"}],"stateMutability":"view","type":"function"},{"inputs":[],"name":"ListofRegisteredCandidates","outputs":[{"components":[{"internalType":"uint256","name":"registeredId","type":"uint256"},{"internalType":"uint256","name":"voteCalculation","type":"uint256"},{"internalType":"address","name":"candidatesAddress","type":"address"},{"internalType":"enum VotingSystem.ConfirmationStatus","name":"status","type":"uint8"},{"internalType":"string","name":"ipfsHash","type":"string"},{"internalType":"string","name":"message","type":"string"}],"internalType":"struct VotingSystem.Candidate[]","name":"","type":"tuple[]"}],"stateMutability":"view","type":"function"},{"inputs":[],"name":"ListofRegisteredVoters","outputs":[{"components":[{"internalType":"bool","name":"alreadyVoted","type":"bool"},{"internalType":"string","name":"message","type":"string"},{"internalType":"string","name":"ipfsHash","type":"string"},{"internalType":"uint256","name":"registeredId","type":"uint256"},{"internalType":"address","name":"votersAddress","type":"address"},{"internalType":"enum VotingSystem.ConfirmationStatus","name":"status","type":"uint8"}],"internalType":"struct VotingSystem.Voter[]","name":"","type":"tuple[]"}],"stateMutability":"view","type":"function"},{"inputs":[],"name":"ListofRejectedCandidates","outputs":[{"components":[{"internalType":"uint256","name":"registeredId","type":"uint256"},{"internalType":"uint256","name":"voteCalculation","type":"uint256"},{"internalType":"address","name":"candidatesAddress","type":"address"},{"internalType":"enum VotingSystem.ConfirmationStatus","name":"status","type":"uint8"},{"internalType":"string","name":"ipfsHash","type":"string"},{"internalType":"string","name":"message","type":"string"}],"internalType":"struct VotingSystem.Candidate[]","name":"","type":"tuple[]"}],"stateMutability":"view","type":"function"},{"inputs":[],"name":"ListofRejectedVoters","outputs":[{"components":[{"internalType":"bool","name":"alreadyVoted","type":"bool"},{"internalType":"string","name":"message","type":"string"},{"internalType":"string","name":"ipfsHash","type":"string"},{"internalType":"uint256","name":"registeredId","type":"uint256"},{"internalType":"address","name":"votersAddress","type":"address"},{"internalType":"enum VotingSystem.ConfirmationStatus","name":"status","type":"uint8"}],"internalType":"struct VotingSystem.Voter[]","name":"","type":"tuple[]"}],"stateMutability":"view","type":"function"},{"inputs":[{"internalType":"uint256","name":"","type":"uint256"}],"name":"acceptedCandidates","outputs":[{"internalType":"address","name":"","type":"address"}],"stateMutability":"view","type":"function"},{"inputs":[{"internalType":"uint256","name":"","type":"uint256"}],"name":"acceptedVoters","outputs":[{"internalType":"address","name":"","type":"address"}],"stateMutability":"view","type":"function"},{"inputs":[{"internalType":"address","name":"_candidatesAddress","type":"address"},{"internalType":"string","name":"_message","type":"string"}],"name":"approveCandidate","outputs":[],"stateMutability":"nonpayable","type":"function"},{"inputs":[{"internalType":"address","name":"_votersAddress","type":"address"},{"internalType":"string","name":"_message","type":"string"}],"name":"approveVoter","outputs":[],"stateMutability":"nonpayable","type":"function"},{"inputs":[{"internalType":"address","name":"","type":"address"}],"name":"candidates","outputs":[{"internalType":"uint256","name":"registeredId","type":"uint256"},{"internalType":"uint256","name":"voteCalculation","type":"uint256"},{"internalType":"address","name":"candidatesAddress","type":"address"},{"internalType":"enum VotingSystem.ConfirmationStatus","name":"status","type":"uint8"},{"internalType":"string","name":"ipfsHash","type":"string"},{"internalType":"string","name":"message","type":"string"}],"stateMutability":"view","type":"function"},{"inputs":[{"internalType":"uint256","name":"","type":"uint256"}],"name":"candidatesRegistered","outputs":[{"internalType":"address","name":"","type":"address"}],"stateMutability":"view","type":"function"},{"inputs":[{"internalType":"address","name":"newOwner","type":"address"}],"name":"changeOwner","outputs":[],"stateMutability":"nonpayable","type":"function"},{"inputs":[],"name":"electionName","outputs":[{"internalType":"string","name":"","type":"string"}],"stateMutability":"view","type":"function"},{"inputs":[],"name":"getAllVotersWhoCasted","outputs":[{"components":[{"internalType":"bool","name":"alreadyVoted","type":"bool"},{"internalType":"string","name":"message","type":"string"},{"internalType":"string","name":"ipfsHash","type":"string"},{"internalType":"uint256","name":"registeredId","type":"uint256"},{"internalType":"address","name":"votersAddress","type":"address"},{"internalType":"enum VotingSystem.ConfirmationStatus","name":"status","type":"uint8"}],"internalType":"struct VotingSystem.Voter[]","name":"","type":"tuple[]"}],"stateMutability":"view","type":"function"},{"inputs":[],"name":"owner","outputs":[{"internalType":"address","name":"","type":"address"}],"stateMutability":"view","type":"function"},{"inputs":[{"internalType":"string","name":"_ipfsHash","type":"string"}],"name":"registerCandidate","outputs":[],"stateMutability":"nonpayable","type":"function"},{"inputs":[{"internalType":"string","name":"_ipfsHash","type":"string"}],"name":"registerVoter","outputs":[],"stateMutability":"nonpayable","type":"function"},{"inputs":[{"internalType":"address","name":"_candidatesAddress","type":"address"},{"internalType":"string","name":"_message","type":"string"}],"name":"rejectCandidate","outputs":[],"stateMutability":"nonpayable","type":"function"},{"inputs":[{"internalType":"address","name":"_votersAddress","type":"address"},{"internalType":"string","name":"_message","type":"string"}],"name":"rejectVoter","outputs":[],"stateMutability":"nonpayable","type":"function"},{"inputs":[{"internalType":"uint256","name":"","type":"uint256"}],"name":"rejectedCandidates","outputs":[{"internalType":"address","name":"","type":"address"}],"stateMutability":"view","type":"function"},{"inputs":[{"internalType":"uint256","name":"","type":"uint256"}],"name":"rejectedVoters","outputs":[{"internalType":"address","name":"","type":"address"}],"stateMutability":"view","type":"function"},{"inputs":[],"name":"resetContract","outputs":[],"stateMutability":"nonpayable","type":"function"},{"inputs":[],"name":"resultPublicationTime","outputs":[{"internalType":"uint256","name":"","type":"uint256"}],"stateMutability":"view","type":"function"},{"inputs":[{"internalType":"string","name":"_ipfsHash","type":"string"},{"internalType":"address","name":"_addr","type":"address"}],"name":"searchCandidate","outputs":[{"components":[{"internalType":"uint256","name":"registeredId","type":"uint256"},{"internalType":"uint256","name":"voteCalculation","type":"uint256"},{"internalType":"address","name":"candidatesAddress","type":"address"},{"internalType":"enum VotingSystem.ConfirmationStatus","name":"status","type":"uint8"},{"internalType":"string","name":"ipfsHash","type":"string"},{"internalType":"string","name":"message","type":"string"}],"internalType":"struct VotingSystem.Candidate[]","name":"","type":"tuple[]"}],"stateMutability":"view","type":"function"},{"inputs":[{"internalType":"address","name":"_addr","type":"address"}],"name":"searchVoter","outputs":[{"components":[{"internalType":"bool","name":"alreadyVoted","type":"bool"},{"internalType":"string","name":"message","type":"string"},{"internalType":"string","name":"ipfsHash","type":"string"},{"internalType":"uint256","name":"registeredId","type":"uint256"},{"internalType":"address","name":"votersAddress","type":"address"},{"internalType":"enum VotingSystem.ConfirmationStatus","name":"status","type":"uint8"}],"internalType":"struct VotingSystem.Voter","name":"","type":"tuple"}],"stateMutability":"view","type":"function"},{"inputs":[{"internalType":"uint256","name":"_resultPublicationTime","type":"uint256"}],"name":"setResultPublicationTime","outputs":[],"stateMutability":"nonpayable","type":"function"},{"inputs":[{"internalType":"uint256","name":"_votingStartTime","type":"uint256"},{"internalType":"uint256","name":"_votingEndTime","type":"uint256"}],"name":"startendVoting","outputs":[],"stateMutability":"nonpayable","type":"function"},{"inputs":[{"internalType":"string","name":"_ipfsHash","type":"string"}],"name":"updateCandidate","outputs":[],"stateMutability":"nonpayable","type":"function"},{"inputs":[{"internalType":"address","name":"_addr","type":"address"},{"internalType":"string","name":"_ipfsHash","type":"string"}],"name":"updateVoter","outputs":[],"stateMutability":"nonpayable","type":"function"},{"inputs":[{"internalType":"address","name":"_candidatesAddress","type":"address"}],"name":"vote","outputs":[],"stateMutability":"nonpayable","type":"function"},{"inputs":[{"internalType":"address","name":"","type":"address"}],"name":"voters","outputs":[{"internalType":"bool","name":"alreadyVoted","type":"bool"},{"internalType":"string","name":"message","type":"string"},{"internalType":"string","name":"ipfsHash","type":"string"},{"internalType":"uint256","name":"registeredId","type":"uint256"},{"internalType":"address","name":"votersAddress","type":"address"},{"internalType":"enum VotingSystem.ConfirmationStatus","name":"status","type":"uint8"}],"stateMutability":"view","type":"function"},{"inputs":[{"internalType":"uint256","name":"","type":"uint256"}],"name":"votersRegistered","outputs":[{"internalType":"address","name":"","type":"address"}],"stateMutability":"view","type":"function"},{"inputs":[{"internalType":"uint256","name":"","type":"uint256"}],"name":"votersWhoCasted","outputs":[{"internalType":"address","name":"","type":"address"}],"stateMutability":"view","type":"function"},{"inputs":[],"name":"votingEndTime","outputs":[{"internalType":"uint256","name":"","type":"uint256"}],"stateMutability":"view","type":"function"},{"inputs":[],"name":"votingStartTime","outputs":[{"internalType":"uint256","name":"","type":"uint256"}],"stateMutability":"view","type":"function"},{"inputs":[],"name":"winningCandidate","outputs":[{"components":[{"internalType":"uint256","name":"registeredId","type":"uint256"},{"internalType":"uint256","name":"voteCalculation","type":"uint256"},{"internalType":"address","name":"candidatesAddress","type":"address"},{"internalType":"enum VotingSystem.ConfirmationStatus","name":"status","type":"uint8"},{"internalType":"string","name":"ipfsHash","type":"string"},{"internalType":"string","name":"message","type":"string"}],"internalType":"struct VotingSystem.Candidate","name":"","type":"tuple"}],"stateMutability":"view","type":"function"}],"evm":{"bytecode":{"linkReferences":{},"object":"60806040523461023b5761330a8038038061001981610240565b92833981019060208183031261023b578051906001600160401b03821161023b570181601f8201121561023b578051906001600160401b0382116102105761006a601f8301601f1916602001610240565b928284526020838301011161023b5760005b82811061022657600083850160200181905280546001600160a01b03191633179055835184906001600160401b03811161021057600154600181811c91168015610206575b60208210146101f057601f811161018b575b50602091601f82116001146101275791819260009261011c575b50508160011b916000199060031b1c1916176001555b600160055560016006556040516130a490816102668239f35b0151905082806100ed565b601f198216926001600052806000209160005b8581106101735750836001951061015a575b505050811b01600155610103565b015160001960f88460031b161c1916905582808061014c565b9192602060018192868501518155019401920161013a565b60016000527fb10e2d527612073b26eecdfd717e6a320cf44b4afac2b0732d9fcbe2b7fa0cf6601f830160051c810191602084106101e6575b601f0160051c01905b8181106101da57506100d3565b600081556001016101cd565b90915081906101c4565b634e487b7160e01b600052602260045260246000fd5b90607f16906100c1565b634e487b7160e01b600052604160045260246000fd5b8060208092840101518282870101520161007c565b600080fd5b6040519190601f01601f191682016001600160401b038111838210176102105760405256fe6080604052600436101561001257600080fd5b60003560e01c80630366ac3714612717578063073f966d146126875780631ea736e0146126695780631ee9367c146125d95780632019a608146125bb57806323a2b2ed1461252e5780633afa3e07146125055780633cfde26c1461242d578063429b0b22146121e15780634a2846a814611fcb57806353dd128c14611fa257806359632c2214611d8c5780635b45cfca14611c995780635e894b1214611c705780635f1bc34e14611c4757806360fc4e3214611bba5780636428a486146119205780636dd7d8ea1461170f57806379432db5146115c15780637c021ecc1461145c5780637eb21b5114611225578063849c5657146111fc57806385e8e7a71461111b5780638987cb321461108e5780638ab66a9014610fe55780638da5cb5b14610fbc578063964a43b914610ee05780639e7a814514610e9e5780639eb88db614610be1578063a3ec138d14610b30578063a6f9dae114610a8e578063ac94ba4c14610a70578063b181a8fc146106a2578063b381a935146105ef578063bab912a2146105d3578063d28178d71461059f578063f33698f11461047a5763fad761d3146101be57600080fd5b34610475576101cc36612aa4565b906101e260018060a01b03600054163314612d0e565b6001600160a01b0381811660008181526007602052604090206004810180549294939092161561041e57815460ff60a01b1916600160a01b179091558351600191909101906001600160401b03811161039857610249816102438454612ae3565b84612d82565b602094601f82116001146103b95761027d9293949582916000926103ae575b50508160011b916000199060031b1c19161790565b90555b600c5490600160401b821015610398576102a58260016102c99401600c55600c61280f565b9080546001600160a01b0360039390931b83811b199091169290931690921b179055565b60005b600e548082101561039657826102e1836127a3565b905460039190911b1c6001600160a01b03161461030157506001016102cc565b600019810192508211610380576102a561031d610335936127a3565b905460039190911b1c6001600160a01b0316916127a3565b600e54801561036a576000190161036561035082600e61280f565b81549060018060a01b039060031b1b19169055565b600e55005b634e487b7160e01b600052603160045260246000fd5b634e487b7160e01b600052601160045260246000fd5b005b634e487b7160e01b600052604160045260246000fd5b015190503880610268565b601f1982169583600052806000209160005b888110610406575083600195969798106103ed575b505050811b019055610280565b015160001960f88460031b161c191690553880806103e0565b919260206001819286850151815501940192016103cb565b60405162461bcd60e51b815260206004820152602960248201527f5468697320766f74657220646f6573206e6f742061707065617220696e206f75604482015268391039bcb9ba32b69760b91b6064820152608490fd5b600080fd5b3461047557604036600319011261047557600435602435906104a760018060a01b03600054163314612d0e565b60025461055a574281111561051657818110156104c657600255600355005b60405162461bcd60e51b815260206004820152602260248201527f53746172742074696d65206d757374206265206265666f726520656e642074696044820152616d6560f01b6064820152608490fd5b606460405162461bcd60e51b815260206004820152602060248201527f53746172742074696d65206d75737420626520696e20746865206675747572656044820152fd5b60405162461bcd60e51b815260206004820152601860248201527f566f74696e6720616c7265616479207363686564756c656400000000000000006044820152606490fd5b34610475576000366003190112610475576105cf6105bb612f7f565b604051918291602083526020830190612875565b0390f35b34610475576000366003190112610475576105cf6105bb612eb1565b3461047557602036600319011261047557610608612a8e565b610610612c7c565b5060018060a01b031660005260076020526105cf604060002061068e60ff60046040519361063d856129fc565b828154161515855261065160018201612b1d565b602086015261066260028201612b1d565b604086015260038101546060860152015460018060a01b038116608085015260a01c1660a08301612c70565b60405191829160208352602083019061293a565b34610475576000366003190112610475576106c860018060a01b03600054163314612d0e565b6003548015159081610a66575b5015610a07576106e6600154612ae3565b601f81116109c8575b50600060015560006002556000600355600060045560005b600954811015610766578061071d60019261273c565b838060a01b0391549060031b1c16600052600860205261076060046040600020600081556000858201556000600282015561075a60038201612e62565b01612e62565b01610707565b60095460006009558061098f575b50600b546000600b5580610956575b50600d546000600d558061091d575b5060005b600a548110156107f257806107ac6001926127f4565b838060a01b0391549060031b1c16600052600760205260006004604082208281556107d8858201612e62565b6107e460028201612e62565b826003820155015501610796565b600a546000600a55806108e4575b50600c546000600c55806108ab575b50600e546000600e5580610872575b50600f546000600f5580610839575b60016005819055600655005b600f60005261086c907f8d1108e10bcb7c27dddfc02ed9d693a074039d026cf4ea4240b40f7d581ac80290810190612d6b565b8061082d565b600e6000526108a5907fbb7b4a454dc3493923482f07822329ed19e8244eff582cc204f8554c3620c3fd90810190612d6b565b8061081e565b600c6000526108de907fdf6966c971051c3d54ec59162606531493a51404a002842f56009d7e5cf4a8c790810190612d6b565b8061080f565b600a600052610917907fc65a7bb8d6351c1cf70c95a316cc6a92839c986682d98bc35f958f4883f9d2a890810190612d6b565b80610800565b600d600052610950907fd7b6990105719101dabeb77144f2a3385c8033acd3af97e9423a695e81ad1eb590810190612d6b565b80610792565b600b600052610989907f0175b7a638427703f0dbe7bb9bbf987a2551717b34e79f33b5b1008d1fa01db990810190612d6b565b80610783565b60096000526109c2907f6e1540171b6c0c960b71a7020d9f60077f6af931a8bbf590da0223dacf75c7af90810190612d6b565b80610774565b6001600052610a0190601f0160051c7fb10e2d527612073b26eecdfd717e6a320cf44b4afac2b0732d9fcbe2b7fa0cf690810190612d6b565b806106ef565b60405162461bcd60e51b815260206004820152603160248201527f456c656374696f6e206973207374696c6c206f6e676f696e672e2043616e6e6f6044820152703a103932b9b2ba1031b7b73a3930b1ba1760791b6064820152608490fd5b90504211816106d5565b34610475576000366003190112610475576020600454604051908152f35b3461047557602036600319011261047557610aa7612a8e565b60005490610abf336001600160a01b03841614612d0e565b6001600160a01b0316908115610adf576001600160a01b03191617600055005b60405162461bcd60e51b8152602060048201526024808201527f4e6577206f776e65722063616e6e6f7420626520746865207a65726f206164646044820152637265737360e01b6064820152608490fd5b34610475576020366003190112610475576001600160a01b03610b51612a8e565b166000526007602052604060002060ff815416610b7060018301612b1d565b916105cf610b8060028301612b1d565b610bba6004600385015494015491610bac6040519788971515885260c0602089015260c0880190612834565b908682036040880152612834565b60608501939093526001600160a01b038116608085015260a080850191901c60ff16612827565b34610475576020366003190112610475576004356001600160401b03811161047557610c11903690600401612a38565b60055460405190610c21826129fc565b815260208101906000825260408101338152606082016000815260808301948552610c4a612dc7565b60a08401908152336000908152600860205260409020935184559351600184015590516002830180546001600160a01b0319166001600160a01b039290921691909117815590516003811015610e8857610ca391612d47565b6003810192519283516001600160401b03811161039857610cc8816102438454612ae3565b6020601f8211600114610e1f579080610cfb9260049697600092610e145750508160011b916000199060031b1c19161790565b90555b0190519081516001600160401b03811161039857610d20816102438454612ae3565b602092601f8211600114610db157610d5192938291600092610da65750508160011b916000199060031b1c19161790565b90555b600954600160401b81101561039857610d78816001610d969301600955600961280f565b81543360039290921b91821b6001600160a01b0390921b1916179055565b610da1600554612cff565b600555005b015190508480610268565b601f1982169383600052806000209160005b868110610dfc5750836001959610610de3575b505050811b019055610d54565b015160001960f88460031b161c19169055838080610dd6565b91926020600181928685015181550194019201610dc3565b015190508780610268565b601f1982169583600052816000209660005b818110610e705750916004969791846001959410610e57575b505050811b019055610cfe565b015160001960f88460031b161c19169055868080610e4a565b83830151895560019098019760209384019301610e31565b634e487b7160e01b600052602160045260246000fd5b3461047557602036600319011261047557600435600b5481101561047557610ec76020916127be565b905460405160039290921b1c6001600160a01b03168152f35b3461047557600036600319011261047557600e54610efd81612caf565b9060005b818110610f1657604051806105cf858261299c565b80610f226001926127a3565b838060a01b0391549060031b1c1660005260076020526040600020610fa060ff600460405193610f51856129fc565b8281541615158552610f64878201612b1d565b6020860152610f7560028201612b1d565b6040860152600381015460608601520154858060a01b038116608085015260a01c1660a08301612c70565b610faa8286612c5c565b52610fb58185612c5c565b5001610f01565b34610475576000366003190112610475576000546040516001600160a01b039091168152602090f35b34610475576020366003190112610475576001600160a01b03611006612a8e565b166000526008602052604060002080546105cf60018301549261108060028201549161106f611043600461103c60038501612b1d565b9301612b1d565b936040519788978852602088015260018060a01b038116604088015260ff606088019160a01c16612827565b60c0608086015260c0850190612834565b9083820360a0850152612834565b3461047557600036600319011261047557600f546110ab81612caf565b9060005b8181106110c457604051806105cf858261299c565b806110d06001926127d9565b838060a01b0391549060031b1c16600052600760205260406000206110ff60ff600460405193610f51856129fc565b6111098286612c5c565b526111148185612c5c565b50016110af565b3461047557600036600319011261047557604051600060015461113d81612ae3565b80845290600181169081156111d85750600114611179575b6105cf8361116581850382612a17565b604051918291602083526020830190612834565b600160009081527fb10e2d527612073b26eecdfd717e6a320cf44b4afac2b0732d9fcbe2b7fa0cf6939250905b8082106111be57509091508101602001611165611155565b9192600181602092548385880101520191019092916111a6565b60ff191660208086019190915291151560051b840190910191506111659050611155565b3461047557602036600319011261047557600435600a5481101561047557610ec76020916127f4565b346104755761123336612aa4565b9061124960018060a01b03600054163314612d0e565b6001600160a01b0381811660008181526008602052604090206002810180549294939092161561140157815460ff60a01b1916600160a01b179091558351600491909101906001600160401b038111610398576112aa816102438454612ae3565b602094601f821160011461139c576112dd9293949582916000926113915750508160011b916000199060031b1c19161790565b90555b600b5490600160401b821015610398576102a58260016113059401600b55600b61280f565b60005b600d5480821015610396578261131d8361276d565b905460039190911b1c6001600160a01b03161461133d5750600101611308565b600019810192508211610380576102a56113596113719361276d565b905460039190911b1c6001600160a01b03169161276d565b600d54801561036a576000190161138c61035082600d61280f565b600d55005b015190508680610268565b601f1982169583600052806000209160005b8881106113e9575083600195969798106113d0575b505050811b0190556112e0565b015160001960f88460031b161c191690558580806113c3565b919260206001819286850151815501940192016113ae565b60405162461bcd60e51b815260206004820152602d60248201527f546869732063616e64696461746520646f6573206e6f7420617070656172206960448201526c371037bab91039bcb9ba32b69760991b6064820152608490fd5b346104755761146a36612aa4565b9061148060018060a01b03600054163314612d0e565b61149660025480159081156115b7575b50612e0c565b6001600160a01b0390811660009081526007602052604090206004810154909116156115725760020181516001600160401b038111610398576114dd816102438454612ae3565b602092601f82116001146115125761150e92938291600092610da65750508160011b916000199060031b1c19161790565b9055005b601f1982169383600052806000209160005b86811061155a5750836001959610611541575b505050811b019055005b015160001960f88460031b161c19169055838080611537565b91926020600181928685015181550194019201611524565b60405162461bcd60e51b815260206004820152601860248201527f4e6f20766f746572206461746120617661696c61626c652e00000000000000006044820152606490fd5b9050421084611490565b34610475576020366003190112610475576004356001600160401b038111610475576115f1903690600401612a38565b61160660025480159081156117055750612e0c565b33600090815260086020526040902060028101546001600160a01b0316156116c05760030181516001600160401b03811161039857611649816102438454612ae3565b602092601f821160011461167a5761150e92938291600092610da65750508160011b916000199060031b1c19161790565b601f1982169383600052806000209160005b8681106116a8575083600195961061154157505050811b019055005b9192602060018192868501518155019401920161168c565b60405162461bcd60e51b815260206004820152601c60248201527f4e6f2063616e646964617465206461746120617661696c61626c652e000000006044820152606490fd5b9050421083611490565b3461047557602036600319011261047557611728612a8e565b60025442106118db5760035442116118a357336000526007602052604060002060ff600482015460a01c166003811015610e885760010361185e5780549160ff83166118205760018060a01b0316600052600860205260406000209060ff600283015460a01c166003811015610e88576001036117db576001809360ff1916179055016117b58154612cff565b9055600f54600160401b81101561039857610d788160016103969301600f55600f61280f565b60405162461bcd60e51b815260206004820152601a60248201527f43616e646964617465206973206e6f742061636365707465642e0000000000006044820152606490fd5b60405162461bcd60e51b8152602060048201526016602482015275165bdd481a185d9948185b1c9958591e481d9bdd195960521b6044820152606490fd5b60405162461bcd60e51b815260206004820152601e60248201527f596f7520617265206e6f74206120636f6e6669726d656420766f7465722e00006044820152606490fd5b60405162461bcd60e51b815260206004820152601060248201526f159bdd1a5b99c81a185cc8195b99195960821b6044820152606490fd5b60405162461bcd60e51b815260206004820152601a60248201527f566f74696e6720686173206e6f742073746172746564207965740000000000006044820152606490fd5b34610475576020366003190112610475576004356001600160401b03811161047557611950903690600401612a38565b60065460405161195f816129fc565b6000815261196b612dc7565b90602081019182526040810193845260608101928352608081019233845260a08201926000845233600052600760205260406000209251151560ff801985541691161783556001830190518051906001600160401b038211610398576119db826119d58554612ae3565b85612d82565b602090601f8311600114611b5357611a0b929160009183611ade5750508160011b916000199060031b1c19161790565b90555b6002820194519485516001600160401b03811161039857611a33816102438454612ae3565b6020601f8211600114611ae9579080611a67926004979899600092611ade5750508160011b916000199060031b1c19161790565b90555b516003828101919091559351910180546001600160a01b0319166001600160a01b039290921691909117815590519091811015610e8857611aaa91612d47565b600a54600160401b81101561039857610d78816001611ace9301600a55600a61280f565b611ad9600654612cff565b600655005b015190508980610268565b601f1982169783600052816000209860005b818110611b3b575091600497989991846001959410611b22575b505050811b019055611a6a565b015160001960f88460031b161c19169055888080611b15565b838301518b556001909a019960209384019301611afb565b90601f1983169184600052816000209260005b818110611ba25750908460019594939210611b89575b505050811b019055611a0e565b015160001960f88460031b161c19169055888080611b7c565b92936020600181928786015181550195019301611b66565b3461047557600036600319011261047557600a54611bd781612caf565b9060005b818110611bf057604051806105cf858261299c565b80611bfc6001926127f4565b838060a01b0391549060031b1c1660005260076020526040600020611c2b60ff600460405193610f51856129fc565b611c358286612c5c565b52611c408185612c5c565b5001611bdb565b3461047557602036600319011261047557600435600f5481101561047557610ec76020916127d9565b3461047557602036600319011261047557600435600d5481101561047557610ec760209161276d565b3461047557602036600319011261047557600435611cc260018060a01b03600054163314612d0e565b600454611d3b57600354811115611cd857600455005b60405162461bcd60e51b815260206004820152603560248201527f526573756c74207075626c69636174696f6e2074696d65206d75737420626520604482015274616674657220766f74696e6720656e642074696d6560581b6064820152608490fd5b60405162461bcd60e51b815260206004820152602360248201527f526573756c74207075626c69636174696f6e2074696d6520616c7265616479206044820152621cd95d60ea1b6064820152608490fd5b3461047557611d9a36612aa4565b90611db060018060a01b03600054163314612d0e565b6001600160a01b03818116600081815260086020526040902060028101805492949390921615611f5d57815460ff60a01b1916600160a11b179091558351600491909101906001600160401b03811161039857611e11816102438454612ae3565b602094601f8211600114611ef857611e449293949582916000926113915750508160011b916000199060031b1c19161790565b90555b600d5490600160401b821015610398576102a5826001611e6c9401600d55600d61280f565b60005b600b54808210156103965782611e84836127be565b905460039190911b1c6001600160a01b031614611ea45750600101611e6f565b600019810192508211610380576102a5611ec0611ed8936127be565b905460039190911b1c6001600160a01b0316916127be565b600b54801561036a5760001901611ef361035082600b61280f565b600b55005b601f1982169583600052806000209160005b888110611f4557508360019596979810611f2c575b505050811b019055611e47565b015160001960f88460031b161c19169055858080611f1f565b91926020600181928685015181550194019201611f0a565b60405162461bcd60e51b815260206004820152601b60248201527f4e6f2063616e646964617465206461746120617661696c61626c6500000000006044820152606490fd5b3461047557602036600319011261047557600435600c5481101561047557610ec7602091612788565b3461047557611fd936612aa4565b90611fef60018060a01b03600054163314612d0e565b6001600160a01b0381811660008181526007602052604090206004810180549294939092161561219c57815460ff60a01b1916600160a11b179091558351600191909101906001600160401b03811161039857612050816102438454612ae3565b602094601f8211600114612137576120839293949582916000926113915750508160011b916000199060031b1c19161790565b90555b600e5490600160401b821015610398576102a58260016120ab9401600e55600e61280f565b60005b600c548082101561039657826120c383612788565b905460039190911b1c6001600160a01b0316146120e357506001016120ae565b600019810192508211610380576102a56120ff61211793612788565b905460039190911b1c6001600160a01b031691612788565b600c54801561036a576000190161213261035082600c61280f565b600c55005b601f1982169583600052806000209160005b8881106121845750836001959697981061216b575b505050811b019055612086565b015160001960f88460031b161c1916905585808061215e565b91926020600181928685015181550194019201612149565b60405162461bcd60e51b815260206004820152601760248201527f4e6f20766f746572206461746120617661696c61626c650000000000000000006044820152606490fd5b34610475576040366003190112610475576004356001600160401b03811161047557612211903690600401612a38565b6024356001600160a01b03811690819003610475576009549060208301906000805b848110612352575061224490612c0c565b9360009160005b85811061226057604051806105cf89826128da565b6122698161273c565b60018060a01b0391549060031b1c166000526008602052604060002060405190612292826129fc565b805482526001810154602083015260028101546001600160a01b038116604084019081529185916122cc9060a01c60ff1660608601612c70565b6122eb60046122dd60038401612b1d565b926080870193845201612b1d565b60a085015251602081519101208651892014918261233e575b5050612314575b5060010161224b565b8461233791612326600194978b612c5c565b52612331818a612c5c565b50612cff565b939061230b565b516001600160a01b0316149050838a612304565b61235b8161273c565b60018060a01b0391549060031b1c16600052600860205260406000208360405191612385836129fc565b805483526001810154602084015260028101546001600160a01b0381166040850190815293906123be9060a01c60ff1660608301612c70565b60a06123df60046123d160038601612b1d565b946080850195865201612b1d565b910152516020815191012088518720149182612419575b5050612405575b600101612233565b90612411600191612cff565b9190506123fd565b516001600160a01b031614905083886123f6565b3461047557600036600319011261047557600b5461244a81612c0c565b9060005b81811061246357604051806105cf85826128da565b8061246f6001926127be565b838060a01b0391549060031b1c16600052600860205260406000206124e460046040519261249c846129fc565b805484528581015460208501526124cd60ff6002830154888060a01b038116604088015260a01c1660608601612c70565b6124d960038201612b1d565b608085015201612b1d565b60a08201526124f38286612c5c565b526124fe8185612c5c565b500161244e565b3461047557602036600319011261047557600435600e5481101561047557610ec76020916127a3565b3461047557600036600319011261047557600c5461254b81612caf565b9060005b81811061256457604051806105cf858261299c565b80612570600192612788565b838060a01b0391549060031b1c166000526007602052604060002061259f60ff600460405193610f51856129fc565b6125a98286612c5c565b526125b48185612c5c565b500161254f565b34610475576000366003190112610475576020600254604051908152f35b34610475576000366003190112610475576009546125f681612c0c565b9060005b81811061260f57604051806105cf85826128da565b8061261b60019261273c565b838060a01b0391549060031b1c166000526008602052604060002061264860046040519261249c846129fc565b60a08201526126578286612c5c565b526126628185612c5c565b50016125fa565b34610475576000366003190112610475576020600354604051908152f35b3461047557600036600319011261047557600d546126a481612c0c565b9060005b8181106126bd57604051806105cf85826128da565b806126c960019261276d565b838060a01b0391549060031b1c16600052600860205260406000206126f660046040519261249c846129fc565b60a08201526127058286612c5c565b526127108185612c5c565b50016126a8565b346104755760203660031901126104755760043560095481101561047557610ec76020915b60095481101561275757600960005260206000200190600090565b634e487b7160e01b600052603260045260246000fd5b600d5481101561275757600d60005260206000200190600090565b600c5481101561275757600c60005260206000200190600090565b600e5481101561275757600e60005260206000200190600090565b600b5481101561275757600b60005260206000200190600090565b600f5481101561275757600f60005260206000200190600090565b600a5481101561275757600a60005260206000200190600090565b80548210156127575760005260206000200190600090565b906003821015610e885752565b919082519283825260005b848110612860575050826000602080949584010152601f8019910116010190565b8060208092840101518282860101520161283f565b6128d791815181526020820151602082015260018060a01b0360408301511660408201526128ab60608301516060830190612827565b60a06128c6608084015160c0608085015260c0840190612834565b9201519060a0818403910152612834565b90565b602081016020825282518091526040820191602060408360051b8301019401926000915b83831061290d57505050505090565b909192939460208061292b600193603f198682030187528951612875565b970193019301919392906128fe565b906128d79082511515815260a080612976612964602087015160c0602087015260c0860190612834565b60408701518582036040870152612834565b9460608101516060850152600180831b0360808201511660808501520151910190612827565b602081016020825282518091526040820191602060408360051b8301019401926000915b8383106129cf57505050505090565b90919293946020806129ed600193603f19868203018752895161293a565b970193019301919392906129c0565b60c081019081106001600160401b0382111761039857604052565b90601f801991011681019081106001600160401b0382111761039857604052565b81601f82011215610475578035906001600160401b0382116103985760405192612a6c601f8401601f191660200185612a17565b8284526020838301011161047557816000926020809301838601378301015290565b600435906001600160a01b038216820361047557565b906040600319830112610475576004356001600160a01b03811681036104755791602435906001600160401b038211610475576128d791600401612a38565b90600182811c92168015612b13575b6020831014612afd57565b634e487b7160e01b600052602260045260246000fd5b91607f1691612af2565b9060405191826000825492612b3184612ae3565b8084529360018116908115612b9f5750600114612b58575b50612b5692500383612a17565b565b90506000929192526020600020906000915b818310612b83575050906020612b569282010138612b49565b6020919350806001915483858901015201910190918492612b6a565b905060209250612b5694915060ff191682840152151560051b82010138612b49565b6001600160401b0381116103985760051b60200190565b60405190612be5826129fc565b606060a0836000815260006020820152600060408201526000838201528260808201520152565b90612c1682612bc1565b612c236040519182612a17565b8281528092612c34601f1991612bc1565b019060005b828110612c4557505050565b602090612c50612bd8565b82828501015201612c39565b80518210156127575760209160051b010190565b6003821015610e885752565b60405190612c89826129fc565b600060a08382815260606020820152606060408201528260608201528260808201520152565b90612cb982612bc1565b612cc66040519182612a17565b8281528092612cd7601f1991612bc1565b019060005b828110612ce857505050565b602090612cf3612c7c565b82828501015201612cdc565b60001981146103805760010190565b15612d1557565b60405162461bcd60e51b815260206004820152600a60248201526927b7363c9037bbb732b960b11b6044820152606490fd5b906003811015610e8857815460ff60a01b191660a09190911b60ff60a01b16179055565b818110612d76575050565b60008155600101612d6b565b9190601f8111612d9157505050565b612b56926000526020600020906020601f840160051c83019310612dbd575b601f0160051c0190612d6b565b9091508190612db0565b60405190612dd6606083612a17565b60218252601b60fa1b6040837f526567697374726174696f6e206973206177616974696e6720617070726f766160208201520152565b15612e1357565b60405162461bcd60e51b815260206004820152602160248201527f43616e6e6f74206d6f6469667920616674657220766f74696e672073746172746044820152607360f81b6064820152608490fd5b612e6c8154612ae3565b9081612e76575050565b81601f60009311600114612e88575055565b81835260208320612ea491601f0160051c810190600101612d6b565b8082528160208120915555565b612eb9612bd8565b50612ec2612bd8565b600b546000805b828110612ed65750505090565b612edf816127be565b60018060a01b0391549060031b1c166000526008602052604060002060405190612f08826129fc565b80548252612f5a600460018301549260208501938452612f4360ff600283015460018060a01b038116604089015260a01c1660608701612c70565b612f4f60038201612b1d565b608086015201612b1d565b60a083015251838111612f72575b5050600101612ec9565b9094509150600138612f68565b612f87612bd8565b50600b541561301d576003544210612fa1576128d7612eb1565b604051612fad816129fc565b60008152600060208201526000604082015260006060820152604051612fd4602082612a17565b600081526080820152604051612feb604082612a17565b601f81527f506c65617365207761697420756e74696c20656c656374696f6e20656e647300602082015260a082015290565b60405162461bcd60e51b8152602060048201526024808201527f4e6f2043616e6469646174657320616363657074656420666f7220656c65637460448201526334b7b71760e11b6064820152608490fdfea26469706673582212203466308acb1a44b6e26c5739848b7d925acf6f7b475766965b353c53a65177e464736f6c634300081c0033","opcodes":"PUSH1 0x80 PUSH1 0x40 MSTORE CALLVALUE PUSH2 0x23B JUMPI PUSH2 0x330A DUP1 CODESIZE SUB DUP1 PUSH2 0x19 DUP2 PUSH2 0x240 JUMP JUMPDEST SWAP3 DUP4 CODECOPY DUP2 ADD SWAP1 PUSH1 0x20 DUP2 DUP4 SUB SLT PUSH2 0x23B JUMPI DUP1 MLOAD SWAP1 PUSH1 0x1 PUSH1 0x1 PUSH1 0x40 SHL SUB DUP3 GT PUSH2 0x23B JUMPI ADD DUP2 PUSH1 0x1F DUP3 ADD SLT ISZERO PUSH2 0x23B JUMPI DUP1 MLOAD SWAP1 PUSH1 0x1 PUSH1 0x1 PUSH1 0x40 SHL SUB DUP3 GT PUSH2 0x210 JUMPI PUSH2 0x6A PUSH1 0x1F DUP4 ADD PUSH1 0x1F NOT AND PUSH1 0x20 ADD PUSH2 0x240 JUMP JUMPDEST SWAP3 DUP3 DUP5 MSTORE PUSH1 0x20 DUP4 DUP4 ADD ADD GT PUSH2 0x23B JUMPI PUSH1 0x0 JUMPDEST DUP3 DUP2 LT PUSH2 0x226 JUMPI PUSH1 0x0 DUP4 DUP6 ADD PUSH1 0x20 ADD DUP2 SWAP1 MSTORE DUP1 SLOAD PUSH1 0x1 PUSH1 0x1 PUSH1 0xA0 SHL SUB NOT AND CALLER OR SWAP1 SSTORE DUP4 MLOAD DUP5 SWAP1 PUSH1 0x1 PUSH1 0x1 PUSH1 0x40 SHL SUB DUP2 GT PUSH2 0x210 JUMPI PUSH1 0x1 SLOAD PUSH1 0x1 DUP2 DUP2 SHR SWAP2 AND DUP1 ISZERO PUSH2 0x206 JUMPI JUMPDEST PUSH1 0x20 DUP3 LT EQ PUSH2 0x1F0 JUMPI PUSH1 0x1F DUP2 GT PUSH2 0x18B JUMPI JUMPDEST POP PUSH1 0x20 SWAP2 PUSH1 0x1F DUP3 GT PUSH1 0x1 EQ PUSH2 0x127 JUMPI SWAP2 DUP2 SWAP3 PUSH1 0x0 SWAP3 PUSH2 0x11C JUMPI JUMPDEST POP POP DUP2 PUSH1 0x1 SHL SWAP2 PUSH1 0x0 NOT SWAP1 PUSH1 0x3 SHL SHR NOT AND OR PUSH1 0x1 SSTORE JUMPDEST PUSH1 0x1 PUSH1 0x5 SSTORE PUSH1 0x1 PUSH1 0x6 SSTORE PUSH1 0x40 MLOAD PUSH2 0x30A4 SWAP1 DUP2 PUSH2 0x266 DUP3 CODECOPY RETURN JUMPDEST ADD MLOAD SWAP1 POP DUP3 DUP1 PUSH2 0xED JUMP JUMPDEST PUSH1 0x1F NOT DUP3 AND SWAP3 PUSH1 0x1 PUSH1 0x0 MSTORE DUP1 PUSH1 0x0 KECCAK256 SWAP2 PUSH1 0x0 JUMPDEST DUP6 DUP2 LT PUSH2 0x173 JUMPI POP DUP4 PUSH1 0x1 SWAP6 LT PUSH2 0x15A JUMPI JUMPDEST POP POP POP DUP2 SHL ADD PUSH1 0x1 SSTORE PUSH2 0x103 JUMP JUMPDEST ADD MLOAD PUSH1 0x0 NOT PUSH1 0xF8 DUP5 PUSH1 0x3 SHL AND SHR NOT AND SWAP1 SSTORE DUP3 DUP1 DUP1 PUSH2 0x14C JUMP JUMPDEST SWAP2 SWAP3 PUSH1 0x20 PUSH1 0x1 DUP2 SWAP3 DUP7 DUP6 ADD MLOAD DUP2 SSTORE ADD SWAP5 ADD SWAP3 ADD PUSH2 0x13A JUMP JUMPDEST PUSH1 0x1 PUSH1 0x0 MSTORE PUSH32 0xB10E2D527612073B26EECDFD717E6A320CF44B4AFAC2B0732D9FCBE2B7FA0CF6 PUSH1 0x1F DUP4 ADD PUSH1 0x5 SHR DUP2 ADD SWAP2 PUSH1 0x20 DUP5 LT PUSH2 0x1E6 JUMPI JUMPDEST PUSH1 0x1F ADD PUSH1 0x5 SHR ADD SWAP1 JUMPDEST DUP2 DUP2 LT PUSH2 0x1DA JUMPI POP PUSH2 0xD3 JUMP JUMPDEST PUSH1 0x0 DUP2 SSTORE PUSH1 0x1 ADD PUSH2 0x1CD JUMP JUMPDEST SWAP1 SWAP2 POP DUP2 SWAP1 PUSH2 0x1C4 JUMP JUMPDEST PUSH4 0x4E487B71 PUSH1 0xE0 SHL PUSH1 0x0 MSTORE PUSH1 0x22 PUSH1 0x4 MSTORE PUSH1 0x24 PUSH1 0x0 REVERT JUMPDEST SWAP1 PUSH1 0x7F AND SWAP1 PUSH2 0xC1 JUMP JUMPDEST PUSH4 0x4E487B71 PUSH1 0xE0 SHL PUSH1 0x0 MSTORE PUSH1 0x41 PUSH1 0x4 MSTORE PUSH1 0x24 PUSH1 0x0 REVERT JUMPDEST DUP1 PUSH1 0x20 DUP1 SWAP3 DUP5 ADD ADD MLOAD DUP3 DUP3 DUP8 ADD ADD MSTORE ADD PUSH2 0x7C JUMP JUMPDEST PUSH1 0x0 DUP1 REVERT JUMPDEST PUSH1 0x40 MLOAD SWAP2 SWAP1 PUSH1 0x1F ADD PUSH1 0x1F NOT AND DUP3 ADD PUSH1 0x1 PUSH1 0x1 PUSH1 0x40 SHL SUB DUP2 GT DUP4 DUP3 LT OR PUSH2 0x210 JUMPI PUSH1 0x40 MSTORE JUMP INVALID PUSH1 0x80 PUSH1 0x40 MSTORE PUSH1 0x4 CALLDATASIZE LT ISZERO PUSH2 0x12 JUMPI PUSH1 0x0 DUP1 REVERT JUMPDEST PUSH1 0x0 CALLDATALOAD PUSH1 0xE0 SHR DUP1 PUSH4 0x366AC37 EQ PUSH2 0x2717 JUMPI DUP1 PUSH4 0x73F966D EQ PUSH2 0x2687 JUMPI DUP1 PUSH4 0x1EA736E0 EQ PUSH2 0x2669 JUMPI DUP1 PUSH4 0x1EE9367C EQ PUSH2 0x25D9 JUMPI DUP1 PUSH4 0x2019A608 EQ PUSH2 0x25BB JUMPI DUP1 PUSH4 0x23A2B2ED EQ PUSH2 0x252E JUMPI DUP1 PUSH4 0x3AFA3E07 EQ PUSH2 0x2505 JUMPI DUP1 PUSH4 0x3CFDE26C EQ PUSH2 0x242D JUMPI DUP1 PUSH4 0x429B0B22 EQ PUSH2 0x21E1 JUMPI DUP1 PUSH4 0x4A2846A8 EQ PUSH2 0x1FCB JUMPI DUP1 PUSH4 0x53DD128C EQ PUSH2 0x1FA2 JUMPI DUP1 PUSH4 0x59632C22 EQ PUSH2 0x1D8C JUMPI DUP1 PUSH4 0x5B45CFCA EQ PUSH2 0x1C99 JUMPI DUP1 PUSH4 0x5E894B12 EQ PUSH2 0x1C70 JUMPI DUP1 PUSH4 0x5F1BC34E EQ PUSH2 0x1C47 JUMPI DUP1 PUSH4 0x60FC4E32 EQ PUSH2 0x1BBA JUMPI DUP1 PUSH4 0x6428A486 EQ PUSH2 0x1920 JUMPI DUP1 PUSH4 0x6DD7D8EA EQ PUSH2 0x170F JUMPI DUP1 PUSH4 0x79432DB5 EQ PUSH2 0x15C1 JUMPI DUP1 PUSH4 0x7C021ECC EQ PUSH2 0x145C JUMPI DUP1 PUSH4 0x7EB21B51 EQ PUSH2 0x1225 JUMPI DUP1 PUSH4 0x849C5657 EQ PUSH2 0x11FC JUMPI DUP1 PUSH4 0x85E8E7A7 EQ PUSH2 0x111B JUMPI DUP1 PUSH4 0x8987CB32 EQ PUSH2 0x108E JUMPI DUP1 PUSH4 0x8AB66A90 EQ PUSH2 0xFE5 JUMPI DUP1 PUSH4 0x8DA5CB5B EQ PUSH2 0xFBC JUMPI DUP1 PUSH4 0x964A43B9 EQ PUSH2 0xEE0 JUMPI DUP1 PUSH4 0x9E7A8145 EQ PUSH2 0xE9E JUMPI DUP1 PUSH4 0x9EB88DB6 EQ PUSH2 0xBE1 JUMPI DUP1 PUSH4 0xA3EC138D EQ PUSH2 0xB30 JUMPI DUP1 PUSH4 0xA6F9DAE1 EQ PUSH2 0xA8E JUMPI DUP1 PUSH4 0xAC94BA4C EQ PUSH2 0xA70 JUMPI DUP1 PUSH4 0xB181A8FC EQ PUSH2 0x6A2 JUMPI DUP1 PUSH4 0xB381A935 EQ PUSH2 0x5EF JUMPI DUP1 PUSH4 0xBAB912A2 EQ PUSH2 0x5D3 JUMPI DUP1 PUSH4 0xD28178D7 EQ PUSH2 0x59F JUMPI DUP1 PUSH4 0xF33698F1 EQ PUSH2 0x47A JUMPI PUSH4 0xFAD761D3 EQ PUSH2 0x1BE JUMPI PUSH1 0x0 DUP1 REVERT JUMPDEST CALLVALUE PUSH2 0x475 JUMPI PUSH2 0x1CC CALLDATASIZE PUSH2 0x2AA4 JUMP JUMPDEST SWAP1 PUSH2 0x1E2 PUSH1 0x1 DUP1 PUSH1 0xA0 SHL SUB PUSH1 0x0 SLOAD AND CALLER EQ PUSH2 0x2D0E JUMP JUMPDEST PUSH1 0x1 PUSH1 0x1 PUSH1 0xA0 SHL SUB DUP2 DUP2 AND PUSH1 0x0 DUP2 DUP2 MSTORE PUSH1 0x7 PUSH1 0x20 MSTORE PUSH1 0x40 SWAP1 KECCAK256 PUSH1 0x4 DUP2 ADD DUP1 SLOAD SWAP3 SWAP5 SWAP4 SWAP1 SWAP3 AND ISZERO PUSH2 0x41E JUMPI DUP2 SLOAD PUSH1 0xFF PUSH1 0xA0 SHL NOT AND PUSH1 0x1 PUSH1 0xA0 SHL OR SWAP1 SWAP2 SSTORE DUP4 MLOAD PUSH1 0x1 SWAP2 SWAP1 SWAP2 ADD SWAP1 PUSH1 0x1 PUSH1 0x1 PUSH1 0x40 SHL SUB DUP2 GT PUSH2 0x398 JUMPI PUSH2 0x249 DUP2 PUSH2 0x243 DUP5 SLOAD PUSH2 0x2AE3 JUMP JUMPDEST DUP5 PUSH2 0x2D82 JUMP JUMPDEST PUSH1 0x20 SWAP5 PUSH1 0x1F DUP3 GT PUSH1 0x1 EQ PUSH2 0x3B9 JUMPI PUSH2 0x27D SWAP3 SWAP4 SWAP5 SWAP6 DUP3 SWAP2 PUSH1 0x0 SWAP3 PUSH2 0x3AE JUMPI JUMPDEST POP POP DUP2 PUSH1 0x1 SHL SWAP2 PUSH1 0x0 NOT SWAP1 PUSH1 0x3 SHL SHR NOT AND OR SWAP1 JUMP JUMPDEST SWAP1 SSTORE JUMPDEST PUSH1 0xC SLOAD SWAP1 PUSH1 0x1 PUSH1 0x40 SHL DUP3 LT ISZERO PUSH2 0x398 JUMPI PUSH2 0x2A5 DUP3 PUSH1 0x1 PUSH2 0x2C9 SWAP5 ADD PUSH1 0xC SSTORE PUSH1 0xC PUSH2 0x280F JUMP JUMPDEST SWAP1 DUP1 SLOAD PUSH1 0x1 PUSH1 0x1 PUSH1 0xA0 SHL SUB PUSH1 0x3 SWAP4 SWAP1 SWAP4 SHL DUP4 DUP2 SHL NOT SWAP1 SWAP2 AND SWAP3 SWAP1 SWAP4 AND SWAP1 SWAP3 SHL OR SWAP1 SSTORE JUMP JUMPDEST PUSH1 0x0 JUMPDEST PUSH1 0xE SLOAD DUP1 DUP3 LT ISZERO PUSH2 0x396 JUMPI DUP3 PUSH2 0x2E1 DUP4 PUSH2 0x27A3 JUMP JUMPDEST SWAP1 SLOAD PUSH1 0x3 SWAP2 SWAP1 SWAP2 SHL SHR PUSH1 0x1 PUSH1 0x1 PUSH1 0xA0 SHL SUB AND EQ PUSH2 0x301 JUMPI POP PUSH1 0x1 ADD PUSH2 0x2CC JUMP JUMPDEST PUSH1 0x0 NOT DUP2 ADD SWAP3 POP DUP3 GT PUSH2 0x380 JUMPI PUSH2 0x2A5 PUSH2 0x31D PUSH2 0x335 SWAP4 PUSH2 0x27A3 JUMP JUMPDEST SWAP1 SLOAD PUSH1 0x3 SWAP2 SWAP1 SWAP2 SHL SHR PUSH1 0x1 PUSH1 0x1 PUSH1 0xA0 SHL SUB AND SWAP2 PUSH2 0x27A3 JUMP JUMPDEST PUSH1 0xE SLOAD DUP1 ISZERO PUSH2 0x36A JUMPI PUSH1 0x0 NOT ADD PUSH2 0x365 PUSH2 0x350 DUP3 PUSH1 0xE PUSH2 0x280F JUMP JUMPDEST DUP2 SLOAD SWAP1 PUSH1 0x1 DUP1 PUSH1 0xA0 SHL SUB SWAP1 PUSH1 0x3 SHL SHL NOT AND SWAP1 SSTORE JUMP JUMPDEST PUSH1 0xE SSTORE STOP JUMPDEST PUSH4 0x4E487B71 PUSH1 0xE0 SHL PUSH1 0x0 MSTORE PUSH1 0x31 PUSH1 0x4 MSTORE PUSH1 0x24 PUSH1 0x0 REVERT JUMPDEST PUSH4 0x4E487B71 PUSH1 0xE0 SHL PUSH1 0x0 MSTORE PUSH1 0x11 PUSH1 0x4 MSTORE PUSH1 0x24 PUSH1 0x0 REVERT JUMPDEST STOP JUMPDEST PUSH4 0x4E487B71 PUSH1 0xE0 SHL PUSH1 0x0 MSTORE PUSH1 0x41 PUSH1 0x4 MSTORE PUSH1 0x24 PUSH1 0x0 REVERT JUMPDEST ADD MLOAD SWAP1 POP CODESIZE DUP1 PUSH2 0x268 JUMP JUMPDEST PUSH1 0x1F NOT DUP3 AND SWAP6 DUP4 PUSH1 0x0 MSTORE DUP1 PUSH1 0x0 KECCAK256 SWAP2 PUSH1 0x0 JUMPDEST DUP9 DUP2 LT PUSH2 0x406 JUMPI POP DUP4 PUSH1 0x1 SWAP6 SWAP7 SWAP8 SWAP9 LT PUSH2 0x3ED JUMPI JUMPDEST POP POP POP DUP2 SHL ADD SWAP1 SSTORE PUSH2 0x280 JUMP JUMPDEST ADD MLOAD PUSH1 0x0 NOT PUSH1 0xF8 DUP5 PUSH1 0x3 SHL AND SHR NOT AND SWAP1 SSTORE CODESIZE DUP1 DUP1 PUSH2 0x3E0 JUMP JUMPDEST SWAP2 SWAP3 PUSH1 0x20 PUSH1 0x1 DUP2 SWAP3 DUP7 DUP6 ADD MLOAD DUP2 SSTORE ADD SWAP5 ADD SWAP3 ADD PUSH2 0x3CB JUMP JUMPDEST PUSH1 0x40 MLOAD PUSH3 0x461BCD PUSH1 0xE5 SHL DUP2 MSTORE PUSH1 0x20 PUSH1 0x4 DUP3 ADD MSTORE PUSH1 0x29 PUSH1 0x24 DUP3 ADD MSTORE PUSH32 0x5468697320766F74657220646F6573206E6F742061707065617220696E206F75 PUSH1 0x44 DUP3 ADD MSTORE PUSH9 0x391039BCB9BA32B697 PUSH1 0xB9 SHL PUSH1 0x64 DUP3 ADD MSTORE PUSH1 0x84 SWAP1 REVERT JUMPDEST PUSH1 0x0 DUP1 REVERT JUMPDEST CALLVALUE PUSH2 0x475 JUMPI PUSH1 0x40 CALLDATASIZE PUSH1 0x3 NOT ADD SLT PUSH2 0x475 JUMPI PUSH1 0x4 CALLDATALOAD PUSH1 0x24 CALLDATALOAD SWAP1 PUSH2 0x4A7 PUSH1 0x1 DUP1 PUSH1 0xA0 SHL SUB PUSH1 0x0 SLOAD AND CALLER EQ PUSH2 0x2D0E JUMP JUMPDEST PUSH1 0x2 SLOAD PUSH2 0x55A JUMPI TIMESTAMP DUP2 GT ISZERO PUSH2 0x516 JUMPI DUP2 DUP2 LT ISZERO PUSH2 0x4C6 JUMPI PUSH1 0x2 SSTORE PUSH1 0x3 SSTORE STOP JUMPDEST PUSH1 0x40 MLOAD PUSH3 0x461BCD PUSH1 0xE5 SHL DUP2 MSTORE PUSH1 0x20 PUSH1 0x4 DUP3 ADD MSTORE PUSH1 0x22 PUSH1 0x24 DUP3 ADD MSTORE PUSH32 0x53746172742074696D65206D757374206265206265666F726520656E64207469 PUSH1 0x44 DUP3 ADD MSTORE PUSH2 0x6D65 PUSH1 0xF0 SHL PUSH1 0x64 DUP3 ADD MSTORE PUSH1 0x84 SWAP1 REVERT JUMPDEST PUSH1 0x64 PUSH1 0x40 MLOAD PUSH3 0x461BCD PUSH1 0xE5 SHL DUP2 MSTORE PUSH1 0x20 PUSH1 0x4 DUP3 ADD MSTORE PUSH1 0x20 PUSH1 0x24 DUP3 ADD MSTORE PUSH32 0x53746172742074696D65206D75737420626520696E2074686520667574757265 PUSH1 0x44 DUP3 ADD MSTORE REVERT JUMPDEST PUSH1 0x40 MLOAD PUSH3 0x461BCD PUSH1 0xE5 SHL DUP2 MSTORE PUSH1 0x20 PUSH1 0x4 DUP3 ADD MSTORE PUSH1 0x18 PUSH1 0x24 DUP3 ADD MSTORE PUSH32 0x566F74696E6720616C7265616479207363686564756C65640000000000000000 PUSH1 0x44 DUP3 ADD MSTORE PUSH1 0x64 SWAP1 REVERT JUMPDEST CALLVALUE PUSH2 0x475 JUMPI PUSH1 0x0 CALLDATASIZE PUSH1 0x3 NOT ADD SLT PUSH2 0x475 JUMPI PUSH2 0x5CF PUSH2 0x5BB PUSH2 0x2F7F JUMP JUMPDEST PUSH1 0x40 MLOAD SWAP2 DUP3 SWAP2 PUSH1 0x20 DUP4 MSTORE PUSH1 0x20 DUP4 ADD SWAP1 PUSH2 0x2875 JUMP JUMPDEST SUB SWAP1 RETURN JUMPDEST CALLVALUE PUSH2 0x475 JUMPI PUSH1 0x0 CALLDATASIZE PUSH1 0x3 NOT ADD SLT PUSH2 0x475 JUMPI PUSH2 0x5CF PUSH2 0x5BB PUSH2 0x2EB1 JUMP JUMPDEST CALLVALUE PUSH2 0x475 JUMPI PUSH1 0x20 CALLDATASIZE PUSH1 0x3 NOT ADD SLT PUSH2 0x475 JUMPI PUSH2 0x608 PUSH2 0x2A8E JUMP JUMPDEST PUSH2 0x610 PUSH2 0x2C7C JUMP JUMPDEST POP PUSH1 0x1 DUP1 PUSH1 0xA0 SHL SUB AND PUSH1 0x0 MSTORE PUSH1 0x7 PUSH1 0x20 MSTORE PUSH2 0x5CF PUSH1 0x40 PUSH1 0x0 KECCAK256 PUSH2 0x68E PUSH1 0xFF PUSH1 0x4 PUSH1 0x40 MLOAD SWAP4 PUSH2 0x63D DUP6 PUSH2 0x29FC JUMP JUMPDEST DUP3 DUP2 SLOAD AND ISZERO ISZERO DUP6 MSTORE PUSH2 0x651 PUSH1 0x1 DUP3 ADD PUSH2 0x2B1D JUMP JUMPDEST PUSH1 0x20 DUP7 ADD MSTORE PUSH2 0x662 PUSH1 0x2 DUP3 ADD PUSH2 0x2B1D JUMP JUMPDEST PUSH1 0x40 DUP7 ADD MSTORE PUSH1 0x3 DUP2 ADD SLOAD PUSH1 0x60 DUP7 ADD MSTORE ADD SLOAD PUSH1 0x1 DUP1 PUSH1 0xA0 SHL SUB DUP2 AND PUSH1 0x80 DUP6 ADD MSTORE PUSH1 0xA0 SHR AND PUSH1 0xA0 DUP4 ADD PUSH2 0x2C70 JUMP JUMPDEST PUSH1 0x40 MLOAD SWAP2 DUP3 SWAP2 PUSH1 0x20 DUP4 MSTORE PUSH1 0x20 DUP4 ADD SWAP1 PUSH2 0x293A JUMP JUMPDEST CALLVALUE PUSH2 0x475 JUMPI PUSH1 0x0 CALLDATASIZE PUSH1 0x3 NOT ADD SLT PUSH2 0x475 JUMPI PUSH2 0x6C8 PUSH1 0x1 DUP1 PUSH1 0xA0 SHL SUB PUSH1 0x0 SLOAD AND CALLER EQ PUSH2 0x2D0E JUMP JUMPDEST PUSH1 0x3 SLOAD DUP1 ISZERO ISZERO SWAP1 DUP2 PUSH2 0xA66 JUMPI JUMPDEST POP ISZERO PUSH2 0xA07 JUMPI PUSH2 0x6E6 PUSH1 0x1 SLOAD PUSH2 0x2AE3 JUMP JUMPDEST PUSH1 0x1F DUP2 GT PUSH2 0x9C8 JUMPI JUMPDEST POP PUSH1 0x0 PUSH1 0x1 SSTORE PUSH1 0x0 PUSH1 0x2 SSTORE PUSH1 0x0 PUSH1 0x3 SSTORE PUSH1 0x0 PUSH1 0x4 SSTORE PUSH1 0x0 JUMPDEST PUSH1 0x9 SLOAD DUP2 LT ISZERO PUSH2 0x766 JUMPI DUP1 PUSH2 0x71D PUSH1 0x1 SWAP3 PUSH2 0x273C JUMP JUMPDEST DUP4 DUP1 PUSH1 0xA0 SHL SUB SWAP2 SLOAD SWAP1 PUSH1 0x3 SHL SHR AND PUSH1 0x0 MSTORE PUSH1 0x8 PUSH1 0x20 MSTORE PUSH2 0x760 PUSH1 0x4 PUSH1 0x40 PUSH1 0x0 KECCAK256 PUSH1 0x0 DUP2 SSTORE PUSH1 0x0 DUP6 DUP3 ADD SSTORE PUSH1 0x0 PUSH1 0x2 DUP3 ADD SSTORE PUSH2 0x75A PUSH1 0x3 DUP3 ADD PUSH2 0x2E62 JUMP JUMPDEST ADD PUSH2 0x2E62 JUMP JUMPDEST ADD PUSH2 0x707 JUMP JUMPDEST PUSH1 0x9 SLOAD PUSH1 0x0 PUSH1 0x9 SSTORE DUP1 PUSH2 0x98F JUMPI JUMPDEST POP PUSH1 0xB SLOAD PUSH1 0x0 PUSH1 0xB SSTORE DUP1 PUSH2 0x956 JUMPI JUMPDEST POP PUSH1 0xD SLOAD PUSH1 0x0 PUSH1 0xD SSTORE DUP1 PUSH2 0x91D JUMPI JUMPDEST POP PUSH1 0x0 JUMPDEST PUSH1 0xA SLOAD DUP2 LT ISZERO PUSH2 0x7F2 JUMPI DUP1 PUSH2 0x7AC PUSH1 0x1 SWAP3 PUSH2 0x27F4 JUMP JUMPDEST DUP4 DUP1 PUSH1 0xA0 SHL SUB SWAP2 SLOAD SWAP1 PUSH1 0x3 SHL SHR AND PUSH1 0x0 MSTORE PUSH1 0x7 PUSH1 0x20 MSTORE PUSH1 0x0 PUSH1 0x4 PUSH1 0x40 DUP3 KECCAK256 DUP3 DUP2 SSTORE PUSH2 0x7D8 DUP6 DUP3 ADD PUSH2 0x2E62 JUMP JUMPDEST PUSH2 0x7E4 PUSH1 0x2 DUP3 ADD PUSH2 0x2E62 JUMP JUMPDEST DUP3 PUSH1 0x3 DUP3 ADD SSTORE ADD SSTORE ADD PUSH2 0x796 JUMP JUMPDEST PUSH1 0xA SLOAD PUSH1 0x0 PUSH1 0xA SSTORE DUP1 PUSH2 0x8E4 JUMPI JUMPDEST POP PUSH1 0xC SLOAD PUSH1 0x0 PUSH1 0xC SSTORE DUP1 PUSH2 0x8AB JUMPI JUMPDEST POP PUSH1 0xE SLOAD PUSH1 0x0 PUSH1 0xE SSTORE DUP1 PUSH2 0x872 JUMPI JUMPDEST POP PUSH1 0xF SLOAD PUSH1 0x0 PUSH1 0xF SSTORE DUP1 PUSH2 0x839 JUMPI JUMPDEST PUSH1 0x1 PUSH1 0x5 DUP2 SWAP1 SSTORE PUSH1 0x6 SSTORE STOP JUMPDEST PUSH1 0xF PUSH1 0x0 MSTORE PUSH2 0x86C SWAP1 PUSH32 0x8D1108E10BCB7C27DDDFC02ED9D693A074039D026CF4EA4240B40F7D581AC802 SWAP1 DUP2 ADD SWAP1 PUSH2 0x2D6B JUMP JUMPDEST DUP1 PUSH2 0x82D JUMP JUMPDEST PUSH1 0xE PUSH1 0x0 MSTORE PUSH2 0x8A5 SWAP1 PUSH32 0xBB7B4A454DC3493923482F07822329ED19E8244EFF582CC204F8554C3620C3FD SWAP1 DUP2 ADD SWAP1 PUSH2 0x2D6B JUMP JUMPDEST DUP1 PUSH2 0x81E JUMP JUMPDEST PUSH1 0xC PUSH1 0x0 MSTORE PUSH2 0x8DE SWAP1 PUSH32 0xDF6966C971051C3D54EC59162606531493A51404A002842F56009D7E5CF4A8C7 SWAP1 DUP2 ADD SWAP1 PUSH2 0x2D6B JUMP JUMPDEST DUP1 PUSH2 0x80F JUMP JUMPDEST PUSH1 0xA PUSH1 0x0 MSTORE PUSH2 0x917 SWAP1 PUSH32 0xC65A7BB8D6351C1CF70C95A316CC6A92839C986682D98BC35F958F4883F9D2A8 SWAP1 DUP2 ADD SWAP1 PUSH2 0x2D6B JUMP JUMPDEST DUP1 PUSH2 0x800 JUMP JUMPDEST PUSH1 0xD PUSH1 0x0 MSTORE PUSH2 0x950 SWAP1 PUSH32 0xD7B6990105719101DABEB77144F2A3385C8033ACD3AF97E9423A695E81AD1EB5 SWAP1 DUP2 ADD SWAP1 PUSH2 0x2D6B JUMP JUMPDEST DUP1 PUSH2 0x792 JUMP JUMPDEST PUSH1 0xB PUSH1 0x0 MSTORE PUSH2 0x989 SWAP1 PUSH32 0x175B7A638427703F0DBE7BB9BBF987A2551717B34E79F33B5B1008D1FA01DB9 SWAP1 DUP2 ADD SWAP1 PUSH2 0x2D6B JUMP JUMPDEST DUP1 PUSH2 0x783 JUMP JUMPDEST PUSH1 0x9 PUSH1 0x0 MSTORE PUSH2 0x9C2 SWAP1 PUSH32 0x6E1540171B6C0C960B71A7020D9F60077F6AF931A8BBF590DA0223DACF75C7AF SWAP1 DUP2 ADD SWAP1 PUSH2 0x2D6B JUMP JUMPDEST DUP1 PUSH2 0x774 JUMP JUMPDEST PUSH1 0x1 PUSH1 0x0 MSTORE PUSH2 0xA01 SWAP1 PUSH1 0x1F ADD PUSH1 0x5 SHR PUSH32 0xB10E2D527612073B26EECDFD717E6A320CF44B4AFAC2B0732D9FCBE2B7FA0CF6 SWAP1 DUP2 ADD SWAP1 PUSH2 0x2D6B JUMP JUMPDEST DUP1 PUSH2 0x6EF JUMP JUMPDEST PUSH1 0x40 MLOAD PUSH3 0x461BCD PUSH1 0xE5 SHL DUP2 MSTORE PUSH1 0x20 PUSH1 0x4 DUP3 ADD MSTORE PUSH1 0x31 PUSH1 0x24 DUP3 ADD MSTORE PUSH32 0x456C656374696F6E206973207374696C6C206F6E676F696E672E2043616E6E6F PUSH1 0x44 DUP3 ADD MSTORE PUSH17 0x3A103932B9B2BA1031B7B73A3930B1BA17 PUSH1 0x79 SHL PUSH1 0x64 DUP3 ADD MSTORE PUSH1 0x84 SWAP1 REVERT JUMPDEST SWAP1 POP TIMESTAMP GT DUP2 PUSH2 0x6D5 JUMP JUMPDEST CALLVALUE PUSH2 0x475 JUMPI PUSH1 0x0 CALLDATASIZE PUSH1 0x3 NOT ADD SLT PUSH2 0x475 JUMPI PUSH1 0x20 PUSH1 0x4 SLOAD PUSH1 0x40 MLOAD SWAP1 DUP2 MSTORE RETURN JUMPDEST CALLVALUE PUSH2 0x475 JUMPI PUSH1 0x20 CALLDATASIZE PUSH1 0x3 NOT ADD SLT PUSH2 0x475 JUMPI PUSH2 0xAA7 PUSH2 0x2A8E JUMP JUMPDEST PUSH1 0x0 SLOAD SWAP1 PUSH2 0xABF CALLER PUSH1 0x1 PUSH1 0x1 PUSH1 0xA0 SHL SUB DUP5 AND EQ PUSH2 0x2D0E JUMP JUMPDEST PUSH1 0x1 PUSH1 0x1 PUSH1 0xA0 SHL SUB AND SWAP1 DUP2 ISZERO PUSH2 0xADF JUMPI PUSH1 0x1 PUSH1 0x1 PUSH1 0xA0 SHL SUB NOT AND OR PUSH1 0x0 SSTORE STOP JUMPDEST PUSH1 0x40 MLOAD PUSH3 0x461BCD PUSH1 0xE5 SHL DUP2 MSTORE PUSH1 0x20 PUSH1 0x4 DUP3 ADD MSTORE PUSH1 0x24 DUP1 DUP3 ADD MSTORE PUSH32 0x4E6577206F776E65722063616E6E6F7420626520746865207A65726F20616464 PUSH1 0x44 DUP3 ADD MSTORE PUSH4 0x72657373 PUSH1 0xE0 SHL PUSH1 0x64 DUP3 ADD MSTORE PUSH1 0x84 SWAP1 REVERT JUMPDEST CALLVALUE PUSH2 0x475 JUMPI PUSH1 0x20 CALLDATASIZE PUSH1 0x3 NOT ADD SLT PUSH2 0x475 JUMPI PUSH1 0x1 PUSH1 0x1 PUSH1 0xA0 SHL SUB PUSH2 0xB51 PUSH2 0x2A8E JUMP JUMPDEST AND PUSH1 0x0 MSTORE PUSH1 0x7 PUSH1 0x20 MSTORE PUSH1 0x40 PUSH1 0x0 KECCAK256 PUSH1 0xFF DUP2 SLOAD AND PUSH2 0xB70 PUSH1 0x1 DUP4 ADD PUSH2 0x2B1D JUMP JUMPDEST SWAP2 PUSH2 0x5CF PUSH2 0xB80 PUSH1 0x2 DUP4 ADD PUSH2 0x2B1D JUMP JUMPDEST PUSH2 0xBBA PUSH1 0x4 PUSH1 0x3 DUP6 ADD SLOAD SWAP5 ADD SLOAD SWAP2 PUSH2 0xBAC PUSH1 0x40 MLOAD SWAP8 DUP9 SWAP8 ISZERO ISZERO DUP9 MSTORE PUSH1 0xC0 PUSH1 0x20 DUP10 ADD MSTORE PUSH1 0xC0 DUP9 ADD SWAP1 PUSH2 0x2834 JUMP JUMPDEST SWAP1 DUP7 DUP3 SUB PUSH1 0x40 DUP9 ADD MSTORE PUSH2 0x2834 JUMP JUMPDEST PUSH1 0x60 DUP6 ADD SWAP4 SWAP1 SWAP4 MSTORE PUSH1 0x1 PUSH1 0x1 PUSH1 0xA0 SHL SUB DUP2 AND PUSH1 0x80 DUP6 ADD MSTORE PUSH1 0xA0 DUP1 DUP6 ADD SWAP2 SWAP1 SHR PUSH1 0xFF AND PUSH2 0x2827 JUMP JUMPDEST CALLVALUE PUSH2 0x475 JUMPI PUSH1 0x20 CALLDATASIZE PUSH1 0x3 NOT ADD SLT PUSH2 0x475 JUMPI PUSH1 0x4 CALLDATALOAD PUSH1 0x1 PUSH1 0x1 PUSH1 0x40 SHL SUB DUP2 GT PUSH2 0x475 JUMPI PUSH2 0xC11 SWAP1 CALLDATASIZE SWAP1 PUSH1 0x4 ADD PUSH2 0x2A38 JUMP JUMPDEST PUSH1 0x5 SLOAD PUSH1 0x40 MLOAD SWAP1 PUSH2 0xC21 DUP3 PUSH2 0x29FC JUMP JUMPDEST DUP2 MSTORE PUSH1 0x20 DUP2 ADD SWAP1 PUSH1 0x0 DUP3 MSTORE PUSH1 0x40 DUP2 ADD CALLER DUP2 MSTORE PUSH1 0x60 DUP3 ADD PUSH1 0x0 DUP2 MSTORE PUSH1 0x80 DUP4 ADD SWAP5 DUP6 MSTORE PUSH2 0xC4A PUSH2 0x2DC7 JUMP JUMPDEST PUSH1 0xA0 DUP5 ADD SWAP1 DUP2 MSTORE CALLER PUSH1 0x0 SWAP1 DUP2 MSTORE PUSH1 0x8 PUSH1 0x20 MSTORE PUSH1 0x40 SWAP1 KECCAK256 SWAP4 MLOAD DUP5 SSTORE SWAP4 MLOAD PUSH1 0x1 DUP5 ADD SSTORE SWAP1 MLOAD PUSH1 0x2 DUP4 ADD DUP1 SLOAD PUSH1 0x1 PUSH1 0x1 PUSH1 0xA0 SHL SUB NOT AND PUSH1 0x1 PUSH1 0x1 PUSH1 0xA0 SHL SUB SWAP3 SWAP1 SWAP3 AND SWAP2 SWAP1 SWAP2 OR DUP2 SSTORE SWAP1 MLOAD PUSH1 0x3 DUP2 LT ISZERO PUSH2 0xE88 JUMPI PUSH2 0xCA3 SWAP2 PUSH2 0x2D47 JUMP JUMPDEST PUSH1 0x3 DUP2 ADD SWAP3 MLOAD SWAP3 DUP4 MLOAD PUSH1 0x1 PUSH1 0x1 PUSH1 0x40 SHL SUB DUP2 GT PUSH2 0x398 JUMPI PUSH2 0xCC8 DUP2 PUSH2 0x243 DUP5 SLOAD PUSH2 0x2AE3 JUMP JUMPDEST PUSH1 0x20 PUSH1 0x1F DUP3 GT PUSH1 0x1 EQ PUSH2 0xE1F JUMPI SWAP1 DUP1 PUSH2 0xCFB SWAP3 PUSH1 0x4 SWAP7 SWAP8 PUSH1 0x0 SWAP3 PUSH2 0xE14 JUMPI POP POP DUP2 PUSH1 0x1 SHL SWAP2 PUSH1 0x0 NOT SWAP1 PUSH1 0x3 SHL SHR NOT AND OR SWAP1 JUMP JUMPDEST SWAP1 SSTORE JUMPDEST ADD SWAP1 MLOAD SWAP1 DUP2 MLOAD PUSH1 0x1 PUSH1 0x1 PUSH1 0x40 SHL SUB DUP2 GT PUSH2 0x398 JUMPI PUSH2 0xD20 DUP2 PUSH2 0x243 DUP5 SLOAD PUSH2 0x2AE3 JUMP JUMPDEST PUSH1 0x20 SWAP3 PUSH1 0x1F DUP3 GT PUSH1 0x1 EQ PUSH2 0xDB1 JUMPI PUSH2 0xD51 SWAP3 SWAP4 DUP3 SWAP2 PUSH1 0x0 SWAP3 PUSH2 0xDA6 JUMPI POP POP DUP2 PUSH1 0x1 SHL SWAP2 PUSH1 0x0 NOT SWAP1 PUSH1 0x3 SHL SHR NOT AND OR SWAP1 JUMP JUMPDEST SWAP1 SSTORE JUMPDEST PUSH1 0x9 SLOAD PUSH1 0x1 PUSH1 0x40 SHL DUP2 LT ISZERO PUSH2 0x398 JUMPI PUSH2 0xD78 DUP2 PUSH1 0x1 PUSH2 0xD96 SWAP4 ADD PUSH1 0x9 SSTORE PUSH1 0x9 PUSH2 0x280F JUMP JUMPDEST DUP2 SLOAD CALLER PUSH1 0x3 SWAP3 SWAP1 SWAP3 SHL SWAP2 DUP3 SHL PUSH1 0x1 PUSH1 0x1 PUSH1 0xA0 SHL SUB SWAP1 SWAP3 SHL NOT AND OR SWAP1 SSTORE JUMP JUMPDEST PUSH2 0xDA1 PUSH1 0x5 SLOAD PUSH2 0x2CFF JUMP JUMPDEST PUSH1 0x5 SSTORE STOP JUMPDEST ADD MLOAD SWAP1 POP DUP5 DUP1 PUSH2 0x268 JUMP JUMPDEST PUSH1 0x1F NOT DUP3 AND SWAP4 DUP4 PUSH1 0x0 MSTORE DUP1 PUSH1 0x0 KECCAK256 SWAP2 PUSH1 0x0 JUMPDEST DUP7 DUP2 LT PUSH2 0xDFC JUMPI POP DUP4 PUSH1 0x1 SWAP6 SWAP7 LT PUSH2 0xDE3 JUMPI JUMPDEST POP POP POP DUP2 SHL ADD SWAP1 SSTORE PUSH2 0xD54 JUMP JUMPDEST ADD MLOAD PUSH1 0x0 NOT PUSH1 0xF8 DUP5 PUSH1 0x3 SHL AND SHR NOT AND SWAP1 SSTORE DUP4 DUP1 DUP1 PUSH2 0xDD6 JUMP JUMPDEST SWAP2 SWAP3 PUSH1 0x20 PUSH1 0x1 DUP2 SWAP3 DUP7 DUP6 ADD MLOAD DUP2 SSTORE ADD SWAP5 ADD SWAP3 ADD PUSH2 0xDC3 JUMP JUMPDEST ADD MLOAD SWAP1 POP DUP8 DUP1 PUSH2 0x268 JUMP JUMPDEST PUSH1 0x1F NOT DUP3 AND SWAP6 DUP4 PUSH1 0x0 MSTORE DUP2 PUSH1 0x0 KECCAK256 SWAP7 PUSH1 0x0 JUMPDEST DUP2 DUP2 LT PUSH2 0xE70 JUMPI POP SWAP2 PUSH1 0x4 SWAP7 SWAP8 SWAP2 DUP5 PUSH1 0x1 SWAP6 SWAP5 LT PUSH2 0xE57 JUMPI JUMPDEST POP POP POP DUP2 SHL ADD SWAP1 SSTORE PUSH2 0xCFE JUMP JUMPDEST ADD MLOAD PUSH1 0x0 NOT PUSH1 0xF8 DUP5 PUSH1 0x3 SHL AND SHR NOT AND SWAP1 SSTORE DUP7 DUP1 DUP1 PUSH2 0xE4A JUMP JUMPDEST DUP4 DUP4 ADD MLOAD DUP10 SSTORE PUSH1 0x1 SWAP1 SWAP9 ADD SWAP8 PUSH1 0x20 SWAP4 DUP5 ADD SWAP4 ADD PUSH2 0xE31 JUMP JUMPDEST PUSH4 0x4E487B71 PUSH1 0xE0 SHL PUSH1 0x0 MSTORE PUSH1 0x21 PUSH1 0x4 MSTORE PUSH1 0x24 PUSH1 0x0 REVERT JUMPDEST CALLVALUE PUSH2 0x475 JUMPI PUSH1 0x20 CALLDATASIZE PUSH1 0x3 NOT ADD SLT PUSH2 0x475 JUMPI PUSH1 0x4 CALLDATALOAD PUSH1 0xB SLOAD DUP2 LT ISZERO PUSH2 0x475 JUMPI PUSH2 0xEC7 PUSH1 0x20 SWAP2 PUSH2 0x27BE JUMP JUMPDEST SWAP1 SLOAD PUSH1 0x40 MLOAD PUSH1 0x3 SWAP3 SWAP1 SWAP3 SHL SHR PUSH1 0x1 PUSH1 0x1 PUSH1 0xA0 SHL SUB AND DUP2 MSTORE RETURN JUMPDEST CALLVALUE PUSH2 0x475 JUMPI PUSH1 0x0 CALLDATASIZE PUSH1 0x3 NOT ADD SLT PUSH2 0x475 JUMPI PUSH1 0xE SLOAD PUSH2 0xEFD DUP2 PUSH2 0x2CAF JUMP JUMPDEST SWAP1 PUSH1 0x0 JUMPDEST DUP2 DUP2 LT PUSH2 0xF16 JUMPI PUSH1 0x40 MLOAD DUP1 PUSH2 0x5CF DUP6 DUP3 PUSH2 0x299C JUMP JUMPDEST DUP1 PUSH2 0xF22 PUSH1 0x1 SWAP3 PUSH2 0x27A3 JUMP JUMPDEST DUP4 DUP1 PUSH1 0xA0 SHL SUB SWAP2 SLOAD SWAP1 PUSH1 0x3 SHL SHR AND PUSH1 0x0 MSTORE PUSH1 0x7 PUSH1 0x20 MSTORE PUSH1 0x40 PUSH1 0x0 KECCAK256 PUSH2 0xFA0 PUSH1 0xFF PUSH1 0x4 PUSH1 0x40 MLOAD SWAP4 PUSH2 0xF51 DUP6 PUSH2 0x29FC JUMP JUMPDEST DUP3 DUP2 SLOAD AND ISZERO ISZERO DUP6 MSTORE PUSH2 0xF64 DUP8 DUP3 ADD PUSH2 0x2B1D JUMP JUMPDEST PUSH1 0x20 DUP7 ADD MSTORE PUSH2 0xF75 PUSH1 0x2 DUP3 ADD PUSH2 0x2B1D JUMP JUMPDEST PUSH1 0x40 DUP7 ADD MSTORE PUSH1 0x3 DUP2 ADD SLOAD PUSH1 0x60 DUP7 ADD MSTORE ADD SLOAD DUP6 DUP1 PUSH1 0xA0 SHL SUB DUP2 AND PUSH1 0x80 DUP6 ADD MSTORE PUSH1 0xA0 SHR AND PUSH1 0xA0 DUP4 ADD PUSH2 0x2C70 JUMP JUMPDEST PUSH2 0xFAA DUP3 DUP7 PUSH2 0x2C5C JUMP JUMPDEST MSTORE PUSH2 0xFB5 DUP2 DUP6 PUSH2 0x2C5C JUMP JUMPDEST POP ADD PUSH2 0xF01 JUMP JUMPDEST CALLVALUE PUSH2 0x475 JUMPI PUSH1 0x0 CALLDATASIZE PUSH1 0x3 NOT ADD SLT PUSH2 0x475 JUMPI PUSH1 0x0 SLOAD PUSH1 0x40 MLOAD PUSH1 0x1 PUSH1 0x1 PUSH1 0xA0 SHL SUB SWAP1 SWAP2 AND DUP2 MSTORE PUSH1 0x20 SWAP1 RETURN JUMPDEST CALLVALUE PUSH2 0x475 JUMPI PUSH1 0x20 CALLDATASIZE PUSH1 0x3 NOT ADD SLT PUSH2 0x475 JUMPI PUSH1 0x1 PUSH1 0x1 PUSH1 0xA0 SHL SUB PUSH2 0x1006 PUSH2 0x2A8E JUMP JUMPDEST AND PUSH1 0x0 MSTORE PUSH1 0x8 PUSH1 0x20 MSTORE PUSH1 0x40 PUSH1 0x0 KECCAK256 DUP1 SLOAD PUSH2 0x5CF PUSH1 0x1 DUP4 ADD SLOAD SWAP3 PUSH2 0x1080 PUSH1 0x2 DUP3 ADD SLOAD SWAP2 PUSH2 0x106F PUSH2 0x1043 PUSH1 0x4 PUSH2 0x103C PUSH1 0x3 DUP6 ADD PUSH2 0x2B1D JUMP JUMPDEST SWAP4 ADD PUSH2 0x2B1D JUMP JUMPDEST SWAP4 PUSH1 0x40 MLOAD SWAP8 DUP9 SWAP8 DUP9 MSTORE PUSH1 0x20 DUP9 ADD MSTORE PUSH1 0x1 DUP1 PUSH1 0xA0 SHL SUB DUP2 AND PUSH1 0x40 DUP9 ADD MSTORE PUSH1 0xFF PUSH1 0x60 DUP9 ADD SWAP2 PUSH1 0xA0 SHR AND PUSH2 0x2827 JUMP JUMPDEST PUSH1 0xC0 PUSH1 0x80 DUP7 ADD MSTORE PUSH1 0xC0 DUP6 ADD SWAP1 PUSH2 0x2834 JUMP JUMPDEST SWAP1 DUP4 DUP3 SUB PUSH1 0xA0 DUP6 ADD MSTORE PUSH2 0x2834 JUMP JUMPDEST CALLVALUE PUSH2 0x475 JUMPI PUSH1 0x0 CALLDATASIZE PUSH1 0x3 NOT ADD SLT PUSH2 0x475 JUMPI PUSH1 0xF SLOAD PUSH2 0x10AB DUP2 PUSH2 0x2CAF JUMP JUMPDEST SWAP1 PUSH1 0x0 JUMPDEST DUP2 DUP2 LT PUSH2 0x10C4 JUMPI PUSH1 0x40 MLOAD DUP1 PUSH2 0x5CF DUP6 DUP3 PUSH2 0x299C JUMP JUMPDEST DUP1 PUSH2 0x10D0 PUSH1 0x1 SWAP3 PUSH2 0x27D9 JUMP JUMPDEST DUP4 DUP1 PUSH1 0xA0 SHL SUB SWAP2 SLOAD SWAP1 PUSH1 0x3 SHL SHR AND PUSH1 0x0 MSTORE PUSH1 0x7 PUSH1 0x20 MSTORE PUSH1 0x40 PUSH1 0x0 KECCAK256 PUSH2 0x10FF PUSH1 0xFF PUSH1 0x4 PUSH1 0x40 MLOAD SWAP4 PUSH2 0xF51 DUP6 PUSH2 0x29FC JUMP JUMPDEST PUSH2 0x1109 DUP3 DUP7 PUSH2 0x2C5C JUMP JUMPDEST MSTORE PUSH2 0x1114 DUP2 DUP6 PUSH2 0x2C5C JUMP JUMPDEST POP ADD PUSH2 0x10AF JUMP JUMPDEST CALLVALUE PUSH2 0x475 JUMPI PUSH1 0x0 CALLDATASIZE PUSH1 0x3 NOT ADD SLT PUSH2 0x475 JUMPI PUSH1 0x40 MLOAD PUSH1 0x0 PUSH1 0x1 SLOAD PUSH2 0x113D DUP2 PUSH2 0x2AE3 JUMP JUMPDEST DUP1 DUP5 MSTORE SWAP1 PUSH1 0x1 DUP2 AND SWAP1 DUP2 ISZERO PUSH2 0x11D8 JUMPI POP PUSH1 0x1 EQ PUSH2 0x1179 JUMPI JUMPDEST PUSH2 0x5CF DUP4 PUSH2 0x1165 DUP2 DUP6 SUB DUP3 PUSH2 0x2A17 JUMP JUMPDEST PUSH1 0x40 MLOAD SWAP2 DUP3 SWAP2 PUSH1 0x20 DUP4 MSTORE PUSH1 0x20 DUP4 ADD SWAP1 PUSH2 0x2834 JUMP JUMPDEST PUSH1 0x1 PUSH1 0x0 SWAP1 DUP2 MSTORE PUSH32 0xB10E2D527612073B26EECDFD717E6A320CF44B4AFAC2B0732D9FCBE2B7FA0CF6 SWAP4 SWAP3 POP SWAP1 JUMPDEST DUP1 DUP3 LT PUSH2 0x11BE JUMPI POP SWAP1 SWAP2 POP DUP2 ADD PUSH1 0x20 ADD PUSH2 0x1165 PUSH2 0x1155 JUMP JUMPDEST SWAP2 SWAP3 PUSH1 0x1 DUP2 PUSH1 0x20 SWAP3 SLOAD DUP4 DUP6 DUP9 ADD ADD MSTORE ADD SWAP2 ADD SWAP1 SWAP3 SWAP2 PUSH2 0x11A6 JUMP JUMPDEST PUSH1 0xFF NOT AND PUSH1 0x20 DUP1 DUP7 ADD SWAP2 SWAP1 SWAP2 MSTORE SWAP2 ISZERO ISZERO PUSH1 0x5 SHL DUP5 ADD SWAP1 SWAP2 ADD SWAP2 POP PUSH2 0x1165 SWAP1 POP PUSH2 0x1155 JUMP JUMPDEST CALLVALUE PUSH2 0x475 JUMPI PUSH1 0x20 CALLDATASIZE PUSH1 0x3 NOT ADD SLT PUSH2 0x475 JUMPI PUSH1 0x4 CALLDATALOAD PUSH1 0xA SLOAD DUP2 LT ISZERO PUSH2 0x475 JUMPI PUSH2 0xEC7 PUSH1 0x20 SWAP2 PUSH2 0x27F4 JUMP JUMPDEST CALLVALUE PUSH2 0x475 JUMPI PUSH2 0x1233 CALLDATASIZE PUSH2 0x2AA4 JUMP JUMPDEST SWAP1 PUSH2 0x1249 PUSH1 0x1 DUP1 PUSH1 0xA0 SHL SUB PUSH1 0x0 SLOAD AND CALLER EQ PUSH2 0x2D0E JUMP JUMPDEST PUSH1 0x1 PUSH1 0x1 PUSH1 0xA0 SHL SUB DUP2 DUP2 AND PUSH1 0x0 DUP2 DUP2 MSTORE PUSH1 0x8 PUSH1 0x20 MSTORE PUSH1 0x40 SWAP1 KECCAK256 PUSH1 0x2 DUP2 ADD DUP1 SLOAD SWAP3 SWAP5 SWAP4 SWAP1 SWAP3 AND ISZERO PUSH2 0x1401 JUMPI DUP2 SLOAD PUSH1 0xFF PUSH1 0xA0 SHL NOT AND PUSH1 0x1 PUSH1 0xA0 SHL OR SWAP1 SWAP2 SSTORE DUP4 MLOAD PUSH1 0x4 SWAP2 SWAP1 SWAP2 ADD SWAP1 PUSH1 0x1 PUSH1 0x1 PUSH1 0x40 SHL SUB DUP2 GT PUSH2 0x398 JUMPI PUSH2 0x12AA DUP2 PUSH2 0x243 DUP5 SLOAD PUSH2 0x2AE3 JUMP JUMPDEST PUSH1 0x20 SWAP5 PUSH1 0x1F DUP3 GT PUSH1 0x1 EQ PUSH2 0x139C JUMPI PUSH2 0x12DD SWAP3 SWAP4 SWAP5 SWAP6 DUP3 SWAP2 PUSH1 0x0 SWAP3 PUSH2 0x1391 JUMPI POP POP DUP2 PUSH1 0x1 SHL SWAP2 PUSH1 0x0 NOT SWAP1 PUSH1 0x3 SHL SHR NOT AND OR SWAP1 JUMP JUMPDEST SWAP1 SSTORE JUMPDEST PUSH1 0xB SLOAD SWAP1 PUSH1 0x1 PUSH1 0x40 SHL DUP3 LT ISZERO PUSH2 0x398 JUMPI PUSH2 0x2A5 DUP3 PUSH1 0x1 PUSH2 0x1305 SWAP5 ADD PUSH1 0xB SSTORE PUSH1 0xB PUSH2 0x280F JUMP JUMPDEST PUSH1 0x0 JUMPDEST PUSH1 0xD SLOAD DUP1 DUP3 LT ISZERO PUSH2 0x396 JUMPI DUP3 PUSH2 0x131D DUP4 PUSH2 0x276D JUMP JUMPDEST SWAP1 SLOAD PUSH1 0x3 SWAP2 SWAP1 SWAP2 SHL SHR PUSH1 0x1 PUSH1 0x1 PUSH1 0xA0 SHL SUB AND EQ PUSH2 0x133D JUMPI POP PUSH1 0x1 ADD PUSH2 0x1308 JUMP JUMPDEST PUSH1 0x0 NOT DUP2 ADD SWAP3 POP DUP3 GT PUSH2 0x380 JUMPI PUSH2 0x2A5 PUSH2 0x1359 PUSH2 0x1371 SWAP4 PUSH2 0x276D JUMP JUMPDEST SWAP1 SLOAD PUSH1 0x3 SWAP2 SWAP1 SWAP2 SHL SHR PUSH1 0x1 PUSH1 0x1 PUSH1 0xA0 SHL SUB AND SWAP2 PUSH2 0x276D JUMP JUMPDEST PUSH1 0xD SLOAD DUP1 ISZERO PUSH2 0x36A JUMPI PUSH1 0x0 NOT ADD PUSH2 0x138C PUSH2 0x350 DUP3 PUSH1 0xD PUSH2 0x280F JUMP JUMPDEST PUSH1 0xD SSTORE STOP JUMPDEST ADD MLOAD SWAP1 POP DUP7 DUP1 PUSH2 0x268 JUMP JUMPDEST PUSH1 0x1F NOT DUP3 AND SWAP6 DUP4 PUSH1 0x0 MSTORE DUP1 PUSH1 0x0 KECCAK256 SWAP2 PUSH1 0x0 JUMPDEST DUP9 DUP2 LT PUSH2 0x13E9 JUMPI POP DUP4 PUSH1 0x1 SWAP6 SWAP7 SWAP8 SWAP9 LT PUSH2 0x13D0 JUMPI JUMPDEST POP POP POP DUP2 SHL ADD SWAP1 SSTORE PUSH2 0x12E0 JUMP JUMPDEST ADD MLOAD PUSH1 0x0 NOT PUSH1 0xF8 DUP5 PUSH1 0x3 SHL AND SHR NOT AND SWAP1 SSTORE DUP6 DUP1 DUP1 PUSH2 0x13C3 JUMP JUMPDEST SWAP2 SWAP3 PUSH1 0x20 PUSH1 0x1 DUP2 SWAP3 DUP7 DUP6 ADD MLOAD DUP2 SSTORE ADD SWAP5 ADD SWAP3 ADD PUSH2 0x13AE JUMP JUMPDEST PUSH1 0x40 MLOAD PUSH3 0x461BCD PUSH1 0xE5 SHL DUP2 MSTORE PUSH1 0x20 PUSH1 0x4 DUP3 ADD MSTORE PUSH1 0x2D PUSH1 0x24 DUP3 ADD MSTORE PUSH32 0x546869732063616E64696461746520646F6573206E6F74206170706561722069 PUSH1 0x44 DUP3 ADD MSTORE PUSH13 0x371037BAB91039BCB9BA32B697 PUSH1 0x99 SHL PUSH1 0x64 DUP3 ADD MSTORE PUSH1 0x84 SWAP1 REVERT JUMPDEST CALLVALUE PUSH2 0x475 JUMPI PUSH2 0x146A CALLDATASIZE PUSH2 0x2AA4 JUMP JUMPDEST SWAP1 PUSH2 0x1480 PUSH1 0x1 DUP1 PUSH1 0xA0 SHL SUB PUSH1 0x0 SLOAD AND CALLER EQ PUSH2 0x2D0E JUMP JUMPDEST PUSH2 0x1496 PUSH1 0x2 SLOAD DUP1 ISZERO SWAP1 DUP2 ISZERO PUSH2 0x15B7 JUMPI JUMPDEST POP PUSH2 0x2E0C JUMP JUMPDEST PUSH1 0x1 PUSH1 0x1 PUSH1 0xA0 SHL SUB SWAP1 DUP2 AND PUSH1 0x0 SWAP1 DUP2 MSTORE PUSH1 0x7 PUSH1 0x20 MSTORE PUSH1 0x40 SWAP1 KECCAK256 PUSH1 0x4 DUP2 ADD SLOAD SWAP1 SWAP2 AND ISZERO PUSH2 0x1572 JUMPI PUSH1 0x2 ADD DUP2 MLOAD PUSH1 0x1 PUSH1 0x1 PUSH1 0x40 SHL SUB DUP2 GT PUSH2 0x398 JUMPI PUSH2 0x14DD DUP2 PUSH2 0x243 DUP5 SLOAD PUSH2 0x2AE3 JUMP JUMPDEST PUSH1 0x20 SWAP3 PUSH1 0x1F DUP3 GT PUSH1 0x1 EQ PUSH2 0x1512 JUMPI PUSH2 0x150E SWAP3 SWAP4 DUP3 SWAP2 PUSH1 0x0 SWAP3 PUSH2 0xDA6 JUMPI POP POP DUP2 PUSH1 0x1 SHL SWAP2 PUSH1 0x0 NOT SWAP1 PUSH1 0x3 SHL SHR NOT AND OR SWAP1 JUMP JUMPDEST SWAP1 SSTORE STOP JUMPDEST PUSH1 0x1F NOT DUP3 AND SWAP4 DUP4 PUSH1 0x0 MSTORE DUP1 PUSH1 0x0 KECCAK256 SWAP2 PUSH1 0x0 JUMPDEST DUP7 DUP2 LT PUSH2 0x155A JUMPI POP DUP4 PUSH1 0x1 SWAP6 SWAP7 LT PUSH2 0x1541 JUMPI JUMPDEST POP POP POP DUP2 SHL ADD SWAP1 SSTORE STOP JUMPDEST ADD MLOAD PUSH1 0x0 NOT PUSH1 0xF8 DUP5 PUSH1 0x3 SHL AND SHR NOT AND SWAP1 SSTORE DUP4 DUP1 DUP1 PUSH2 0x1537 JUMP JUMPDEST SWAP2 SWAP3 PUSH1 0x20 PUSH1 0x1 DUP2 SWAP3 DUP7 DUP6 ADD MLOAD DUP2 SSTORE ADD SWAP5 ADD SWAP3 ADD PUSH2 0x1524 JUMP JUMPDEST PUSH1 0x40 MLOAD PUSH3 0x461BCD PUSH1 0xE5 SHL DUP2 MSTORE PUSH1 0x20 PUSH1 0x4 DUP3 ADD MSTORE PUSH1 0x18 PUSH1 0x24 DUP3 ADD MSTORE PUSH32 0x4E6F20766F746572206461746120617661696C61626C652E0000000000000000 PUSH1 0x44 DUP3 ADD MSTORE PUSH1 0x64 SWAP1 REVERT JUMPDEST SWAP1 POP TIMESTAMP LT DUP5 PUSH2 0x1490 JUMP JUMPDEST CALLVALUE PUSH2 0x475 JUMPI PUSH1 0x20 CALLDATASIZE PUSH1 0x3 NOT ADD SLT PUSH2 0x475 JUMPI PUSH1 0x4 CALLDATALOAD PUSH1 0x1 PUSH1 0x1 PUSH1 0x40 SHL SUB DUP2 GT PUSH2 0x475 JUMPI PUSH2 0x15F1 SWAP1 CALLDATASIZE SWAP1 PUSH1 0x4 ADD PUSH2 0x2A38 JUMP JUMPDEST PUSH2 0x1606 PUSH1 0x2 SLOAD DUP1 ISZERO SWAP1 DUP2 ISZERO PUSH2 0x1705 JUMPI POP PUSH2 0x2E0C JUMP JUMPDEST CALLER PUSH1 0x0 SWAP1 DUP2 MSTORE PUSH1 0x8 PUSH1 0x20 MSTORE PUSH1 0x40 SWAP1 KECCAK256 PUSH1 0x2 DUP2 ADD SLOAD PUSH1 0x1 PUSH1 0x1 PUSH1 0xA0 SHL SUB AND ISZERO PUSH2 0x16C0 JUMPI PUSH1 0x3 ADD DUP2 MLOAD PUSH1 0x1 PUSH1 0x1 PUSH1 0x40 SHL SUB DUP2 GT PUSH2 0x398 JUMPI PUSH2 0x1649 DUP2 PUSH2 0x243 DUP5 SLOAD PUSH2 0x2AE3 JUMP JUMPDEST PUSH1 0x20 SWAP3 PUSH1 0x1F DUP3 GT PUSH1 0x1 EQ PUSH2 0x167A JUMPI PUSH2 0x150E SWAP3 SWAP4 DUP3 SWAP2 PUSH1 0x0 SWAP3 PUSH2 0xDA6 JUMPI POP POP DUP2 PUSH1 0x1 SHL SWAP2 PUSH1 0x0 NOT SWAP1 PUSH1 0x3 SHL SHR NOT AND OR SWAP1 JUMP JUMPDEST PUSH1 0x1F NOT DUP3 AND SWAP4 DUP4 PUSH1 0x0 MSTORE DUP1 PUSH1 0x0 KECCAK256 SWAP2 PUSH1 0x0 JUMPDEST DUP7 DUP2 LT PUSH2 0x16A8 JUMPI POP DUP4 PUSH1 0x1 SWAP6 SWAP7 LT PUSH2 0x1541 JUMPI POP POP POP DUP2 SHL ADD SWAP1 SSTORE STOP JUMPDEST SWAP2 SWAP3 PUSH1 0x20 PUSH1 0x1 DUP2 SWAP3 DUP7 DUP6 ADD MLOAD DUP2 SSTORE ADD SWAP5 ADD SWAP3 ADD PUSH2 0x168C JUMP JUMPDEST PUSH1 0x40 MLOAD PUSH3 0x461BCD PUSH1 0xE5 SHL DUP2 MSTORE PUSH1 0x20 PUSH1 0x4 DUP3 ADD MSTORE PUSH1 0x1C PUSH1 0x24 DUP3 ADD MSTORE PUSH32 0x4E6F2063616E646964617465206461746120617661696C61626C652E00000000 PUSH1 0x44 DUP3 ADD MSTORE PUSH1 0x64 SWAP1 REVERT JUMPDEST SWAP1 POP TIMESTAMP LT DUP4 PUSH2 0x1490 JUMP JUMPDEST CALLVALUE PUSH2 0x475 JUMPI PUSH1 0x20 CALLDATASIZE PUSH1 0x3 NOT ADD SLT PUSH2 0x475 JUMPI PUSH2 0x1728 PUSH2 0x2A8E JUMP JUMPDEST PUSH1 0x2 SLOAD TIMESTAMP LT PUSH2 0x18DB JUMPI PUSH1 0x3 SLOAD TIMESTAMP GT PUSH2 0x18A3 JUMPI CALLER PUSH1 0x0 MSTORE PUSH1 0x7 PUSH1 0x20 MSTORE PUSH1 0x40 PUSH1 0x0 KECCAK256 PUSH1 0xFF PUSH1 0x4 DUP3 ADD SLOAD PUSH1 0xA0 SHR AND PUSH1 0x3 DUP2 LT ISZERO PUSH2 0xE88 JUMPI PUSH1 0x1 SUB PUSH2 0x185E JUMPI DUP1 SLOAD SWAP2 PUSH1 0xFF DUP4 AND PUSH2 0x1820 JUMPI PUSH1 0x1 DUP1 PUSH1 0xA0 SHL SUB AND PUSH1 0x0 MSTORE PUSH1 0x8 PUSH1 0x20 MSTORE PUSH1 0x40 PUSH1 0x0 KECCAK256 SWAP1 PUSH1 0xFF PUSH1 0x2 DUP4 ADD SLOAD PUSH1 0xA0 SHR AND PUSH1 0x3 DUP2 LT ISZERO PUSH2 0xE88 JUMPI PUSH1 0x1 SUB PUSH2 0x17DB JUMPI PUSH1 0x1 DUP1 SWAP4 PUSH1 0xFF NOT AND OR SWAP1 SSTORE ADD PUSH2 0x17B5 DUP2 SLOAD PUSH2 0x2CFF JUMP JUMPDEST SWAP1 SSTORE PUSH1 0xF SLOAD PUSH1 0x1 PUSH1 0x40 SHL DUP2 LT ISZERO PUSH2 0x398 JUMPI PUSH2 0xD78 DUP2 PUSH1 0x1 PUSH2 0x396 SWAP4 ADD PUSH1 0xF SSTORE PUSH1 0xF PUSH2 0x280F JUMP JUMPDEST PUSH1 0x40 MLOAD PUSH3 0x461BCD PUSH1 0xE5 SHL DUP2 MSTORE PUSH1 0x20 PUSH1 0x4 DUP3 ADD MSTORE PUSH1 0x1A PUSH1 0x24 DUP3 ADD MSTORE PUSH32 0x43616E646964617465206973206E6F742061636365707465642E000000000000 PUSH1 0x44 DUP3 ADD MSTORE PUSH1 0x64 SWAP1 REVERT JUMPDEST PUSH1 0x40 MLOAD PUSH3 0x461BCD PUSH1 0xE5 SHL DUP2 MSTORE PUSH1 0x20 PUSH1 0x4 DUP3 ADD MSTORE PUSH1 0x16 PUSH1 0x24 DUP3 ADD MSTORE PUSH22 0x165BDD481A185D9948185B1C9958591E481D9BDD1959 PUSH1 0x52 SHL PUSH1 0x44 DUP3 ADD MSTORE PUSH1 0x64 SWAP1 REVERT JUMPDEST PUSH1 0x40 MLOAD PUSH3 0x461BCD PUSH1 0xE5 SHL DUP2 MSTORE PUSH1 0x20 PUSH1 0x4 DUP3 ADD MSTORE PUSH1 0x1E PUSH1 0x24 DUP3 ADD MSTORE PUSH32 0x596F7520617265206E6F74206120636F6E6669726D656420766F7465722E0000 PUSH1 0x44 DUP3 ADD MSTORE PUSH1 0x64 SWAP1 REVERT JUMPDEST PUSH1 0x40 MLOAD PUSH3 0x461BCD PUSH1 0xE5 SHL DUP2 MSTORE PUSH1 0x20 PUSH1 0x4 DUP3 ADD MSTORE PUSH1 0x10 PUSH1 0x24 DUP3 ADD MSTORE PUSH16 0x159BDD1A5B99C81A185CC8195B991959 PUSH1 0x82 SHL PUSH1 0x44 DUP3 ADD MSTORE PUSH1 0x64 SWAP1 REVERT JUMPDEST PUSH1 0x40 MLOAD PUSH3 0x461BCD PUSH1 0xE5 SHL DUP2 MSTORE PUSH1 0x20 PUSH1 0x4 DUP3 ADD MSTORE PUSH1 0x1A PUSH1 0x24 DUP3 ADD MSTORE PUSH32 0x566F74696E6720686173206E6F74207374617274656420796574000000000000 PUSH1 0x44 DUP3 ADD MSTORE PUSH1 0x64 SWAP1 REVERT JUMPDEST CALLVALUE PUSH2 0x475 JUMPI PUSH1 0x20 CALLDATASIZE PUSH1 0x3 NOT ADD SLT PUSH2 0x475 JUMPI PUSH1 0x4 CALLDATALOAD PUSH1 0x1 PUSH1 0x1 PUSH1 0x40 SHL SUB DUP2 GT PUSH2 0x475 JUMPI PUSH2 0x1950 SWAP1 CALLDATASIZE SWAP1 PUSH1 0x4 ADD PUSH2 0x2A38 JUMP JUMPDEST PUSH1 0x6 SLOAD PUSH1 0x40 MLOAD PUSH2 0x195F DUP2 PUSH2 0x29FC JUMP JUMPDEST PUSH1 0x0 DUP2 MSTORE PUSH2 0x196B PUSH2 0x2DC7 JUMP JUMPDEST SWAP1 PUSH1 0x20 DUP2 ADD SWAP2 DUP3 MSTORE PUSH1 0x40 DUP2 ADD SWAP4 DUP5 MSTORE PUSH1 0x60 DUP2 ADD SWAP3 DUP4 MSTORE PUSH1 0x80 DUP2 ADD SWAP3 CALLER DUP5 MSTORE PUSH1 0xA0 DUP3 ADD SWAP3 PUSH1 0x0 DUP5 MSTORE CALLER PUSH1 0x0 MSTORE PUSH1 0x7 PUSH1 0x20 MSTORE PUSH1 0x40 PUSH1 0x0 KECCAK256 SWAP3 MLOAD ISZERO ISZERO PUSH1 0xFF DUP1 NOT DUP6 SLOAD AND SWAP2 AND OR DUP4 SSTORE PUSH1 0x1 DUP4 ADD SWAP1 MLOAD DUP1 MLOAD SWAP1 PUSH1 0x1 PUSH1 0x1 PUSH1 0x40 SHL SUB DUP3 GT PUSH2 0x398 JUMPI PUSH2 0x19DB DUP3 PUSH2 0x19D5 DUP6 SLOAD PUSH2 0x2AE3 JUMP JUMPDEST DUP6 PUSH2 0x2D82 JUMP JUMPDEST PUSH1 0x20 SWAP1 PUSH1 0x1F DUP4 GT PUSH1 0x1 EQ PUSH2 0x1B53 JUMPI PUSH2 0x1A0B SWAP3 SWAP2 PUSH1 0x0 SWAP2 DUP4 PUSH2 0x1ADE JUMPI POP POP DUP2 PUSH1 0x1 SHL SWAP2 PUSH1 0x0 NOT SWAP1 PUSH1 0x3 SHL SHR NOT AND OR SWAP1 JUMP JUMPDEST SWAP1 SSTORE JUMPDEST PUSH1 0x2 DUP3 ADD SWAP5 MLOAD SWAP5 DUP6 MLOAD PUSH1 0x1 PUSH1 0x1 PUSH1 0x40 SHL SUB DUP2 GT PUSH2 0x398 JUMPI PUSH2 0x1A33 DUP2 PUSH2 0x243 DUP5 SLOAD PUSH2 0x2AE3 JUMP JUMPDEST PUSH1 0x20 PUSH1 0x1F DUP3 GT PUSH1 0x1 EQ PUSH2 0x1AE9 JUMPI SWAP1 DUP1 PUSH2 0x1A67 SWAP3 PUSH1 0x4 SWAP8 SWAP9 SWAP10 PUSH1 0x0 SWAP3 PUSH2 0x1ADE JUMPI POP POP DUP2 PUSH1 0x1 SHL SWAP2 PUSH1 0x0 NOT SWAP1 PUSH1 0x3 SHL SHR NOT AND OR SWAP1 JUMP JUMPDEST SWAP1 SSTORE JUMPDEST MLOAD PUSH1 0x3 DUP3 DUP2 ADD SWAP2 SWAP1 SWAP2 SSTORE SWAP4 MLOAD SWAP2 ADD DUP1 SLOAD PUSH1 0x1 PUSH1 0x1 PUSH1 0xA0 SHL SUB NOT AND PUSH1 0x1 PUSH1 0x1 PUSH1 0xA0 SHL SUB SWAP3 SWAP1 SWAP3 AND SWAP2 SWAP1 SWAP2 OR DUP2 SSTORE SWAP1 MLOAD SWAP1 SWAP2 DUP2 LT ISZERO PUSH2 0xE88 JUMPI PUSH2 0x1AAA SWAP2 PUSH2 0x2D47 JUMP JUMPDEST PUSH1 0xA SLOAD PUSH1 0x1 PUSH1 0x40 SHL DUP2 LT ISZERO PUSH2 0x398 JUMPI PUSH2 0xD78 DUP2 PUSH1 0x1 PUSH2 0x1ACE SWAP4 ADD PUSH1 0xA SSTORE PUSH1 0xA PUSH2 0x280F JUMP JUMPDEST PUSH2 0x1AD9 PUSH1 0x6 SLOAD PUSH2 0x2CFF JUMP JUMPDEST PUSH1 0x6 SSTORE STOP JUMPDEST ADD MLOAD SWAP1 POP DUP10 DUP1 PUSH2 0x268 JUMP JUMPDEST PUSH1 0x1F NOT DUP3 AND SWAP8 DUP4 PUSH1 0x0 MSTORE DUP2 PUSH1 0x0 KECCAK256 SWAP9 PUSH1 0x0 JUMPDEST DUP2 DUP2 LT PUSH2 0x1B3B JUMPI POP SWAP2 PUSH1 0x4 SWAP8 SWAP9 SWAP10 SWAP2 DUP5 PUSH1 0x1 SWAP6 SWAP5 LT PUSH2 0x1B22 JUMPI JUMPDEST POP POP POP DUP2 SHL ADD SWAP1 SSTORE PUSH2 0x1A6A JUMP JUMPDEST ADD MLOAD PUSH1 0x0 NOT PUSH1 0xF8 DUP5 PUSH1 0x3 SHL AND SHR NOT AND SWAP1 SSTORE DUP9 DUP1 DUP1 PUSH2 0x1B15 JUMP JUMPDEST DUP4 DUP4 ADD MLOAD DUP12 SSTORE PUSH1 0x1 SWAP1 SWAP11 ADD SWAP10 PUSH1 0x20 SWAP4 DUP5 ADD SWAP4 ADD PUSH2 0x1AFB JUMP JUMPDEST SWAP1 PUSH1 0x1F NOT DUP4 AND SWAP2 DUP5 PUSH1 0x0 MSTORE DUP2 PUSH1 0x0 KECCAK256 SWAP3 PUSH1 0x0 JUMPDEST DUP2 DUP2 LT PUSH2 0x1BA2 JUMPI POP SWAP1 DUP5 PUSH1 0x1 SWAP6 SWAP5 SWAP4 SWAP3 LT PUSH2 0x1B89 JUMPI JUMPDEST POP POP POP DUP2 SHL ADD SWAP1 SSTORE PUSH2 0x1A0E JUMP JUMPDEST ADD MLOAD PUSH1 0x0 NOT PUSH1 0xF8 DUP5 PUSH1 0x3 SHL AND SHR NOT AND SWAP1 SSTORE DUP9 DUP1 DUP1 PUSH2 0x1B7C JUMP JUMPDEST SWAP3 SWAP4 PUSH1 0x20 PUSH1 0x1 DUP2 SWAP3 DUP8 DUP7 ADD MLOAD DUP2 SSTORE ADD SWAP6 ADD SWAP4 ADD PUSH2 0x1B66 JUMP JUMPDEST CALLVALUE PUSH2 0x475 JUMPI PUSH1 0x0 CALLDATASIZE PUSH1 0x3 NOT ADD SLT PUSH2 0x475 JUMPI PUSH1 0xA SLOAD PUSH2 0x1BD7 DUP2 PUSH2 0x2CAF JUMP JUMPDEST SWAP1 PUSH1 0x0 JUMPDEST DUP2 DUP2 LT PUSH2 0x1BF0 JUMPI PUSH1 0x40 MLOAD DUP1 PUSH2 0x5CF DUP6 DUP3 PUSH2 0x299C JUMP JUMPDEST DUP1 PUSH2 0x1BFC PUSH1 0x1 SWAP3 PUSH2 0x27F4 JUMP JUMPDEST DUP4 DUP1 PUSH1 0xA0 SHL SUB SWAP2 SLOAD SWAP1 PUSH1 0x3 SHL SHR AND PUSH1 0x0 MSTORE PUSH1 0x7 PUSH1 0x20 MSTORE PUSH1 0x40 PUSH1 0x0 KECCAK256 PUSH2 0x1C2B PUSH1 0xFF PUSH1 0x4 PUSH1 0x40 MLOAD SWAP4 PUSH2 0xF51 DUP6 PUSH2 0x29FC JUMP JUMPDEST PUSH2 0x1C35 DUP3 DUP7 PUSH2 0x2C5C JUMP JUMPDEST MSTORE PUSH2 0x1C40 DUP2 DUP6 PUSH2 0x2C5C JUMP JUMPDEST POP ADD PUSH2 0x1BDB JUMP JUMPDEST CALLVALUE PUSH2 0x475 JUMPI PUSH1 0x20 CALLDATASIZE PUSH1 0x3 NOT ADD SLT PUSH2 0x475 JUMPI PUSH1 0x4 CALLDATALOAD PUSH1 0xF SLOAD DUP2 LT ISZERO PUSH2 0x475 JUMPI PUSH2 0xEC7 PUSH1 0x20 SWAP2 PUSH2 0x27D9 JUMP JUMPDEST CALLVALUE PUSH2 0x475 JUMPI PUSH1 0x20 CALLDATASIZE PUSH1 0x3 NOT ADD SLT PUSH2 0x475 JUMPI PUSH1 0x4 CALLDATALOAD PUSH1 0xD SLOAD DUP2 LT ISZERO PUSH2 0x475 JUMPI PUSH2 0xEC7 PUSH1 0x20 SWAP2 PUSH2 0x276D JUMP JUMPDEST CALLVALUE PUSH2 0x475 JUMPI PUSH1 0x20 CALLDATASIZE PUSH1 0x3 NOT ADD SLT PUSH2 0x475 JUMPI PUSH1 0x4 CALLDATALOAD PUSH2 0x1CC2 PUSH1 0x1 DUP1 PUSH1 0xA0 SHL SUB PUSH1 0x0 SLOAD AND CALLER EQ PUSH2 0x2D0E JUMP JUMPDEST PUSH1 0x4 SLOAD PUSH2 0x1D3B JUMPI PUSH1 0x3 SLOAD DUP2 GT ISZERO PUSH2 0x1CD8 JUMPI PUSH1 0x4 SSTORE STOP JUMPDEST PUSH1 0x40 MLOAD PUSH3 0x461BCD PUSH1 0xE5 SHL DUP2 MSTORE PUSH1 0x20 PUSH1 0x4 DUP3 ADD MSTORE PUSH1 0x35 PUSH1 0x24 DUP3 ADD MSTORE PUSH32 0x526573756C74207075626C69636174696F6E2074696D65206D75737420626520 PUSH1 0x44 DUP3 ADD MSTORE PUSH21 0x616674657220766F74696E6720656E642074696D65 PUSH1 0x58 SHL PUSH1 0x64 DUP3 ADD MSTORE PUSH1 0x84 SWAP1 REVERT JUMPDEST PUSH1 0x40 MLOAD PUSH3 0x461BCD PUSH1 0xE5 SHL DUP2 MSTORE PUSH1 0x20 PUSH1 0x4 DUP3 ADD MSTORE PUSH1 0x23 PUSH1 0x24 DUP3 ADD MSTORE PUSH32 0x526573756C74207075626C69636174696F6E2074696D6520616C726561647920 PUSH1 0x44 DUP3 ADD MSTORE PUSH3 0x1CD95D PUSH1 0xEA SHL PUSH1 0x64 DUP3 ADD MSTORE PUSH1 0x84 SWAP1 REVERT JUMPDEST CALLVALUE PUSH2 0x475 JUMPI PUSH2 0x1D9A CALLDATASIZE PUSH2 0x2AA4 JUMP JUMPDEST SWAP1 PUSH2 0x1DB0 PUSH1 0x1 DUP1 PUSH1 0xA0 SHL SUB PUSH1 0x0 SLOAD AND CALLER EQ PUSH2 0x2D0E JUMP JUMPDEST PUSH1 0x1 PUSH1 0x1 PUSH1 0xA0 SHL SUB DUP2 DUP2 AND PUSH1 0x0 DUP2 DUP2 MSTORE PUSH1 0x8 PUSH1 0x20 MSTORE PUSH1 0x40 SWAP1 KECCAK256 PUSH1 0x2 DUP2 ADD DUP1 SLOAD SWAP3 SWAP5 SWAP4 SWAP1 SWAP3 AND ISZERO PUSH2 0x1F5D JUMPI DUP2 SLOAD PUSH1 0xFF PUSH1 0xA0 SHL NOT AND PUSH1 0x1 PUSH1 0xA1 SHL OR SWAP1 SWAP2 SSTORE DUP4 MLOAD PUSH1 0x4 SWAP2 SWAP1 SWAP2 ADD SWAP1 PUSH1 0x1 PUSH1 0x1 PUSH1 0x40 SHL SUB DUP2 GT PUSH2 0x398 JUMPI PUSH2 0x1E11 DUP2 PUSH2 0x243 DUP5 SLOAD PUSH2 0x2AE3 JUMP JUMPDEST PUSH1 0x20 SWAP5 PUSH1 0x1F DUP3 GT PUSH1 0x1 EQ PUSH2 0x1EF8 JUMPI PUSH2 0x1E44 SWAP3 SWAP4 SWAP5 SWAP6 DUP3 SWAP2 PUSH1 0x0 SWAP3 PUSH2 0x1391 JUMPI POP POP DUP2 PUSH1 0x1 SHL SWAP2 PUSH1 0x0 NOT SWAP1 PUSH1 0x3 SHL SHR NOT AND OR SWAP1 JUMP JUMPDEST SWAP1 SSTORE JUMPDEST PUSH1 0xD SLOAD SWAP1 PUSH1 0x1 PUSH1 0x40 SHL DUP3 LT ISZERO PUSH2 0x398 JUMPI PUSH2 0x2A5 DUP3 PUSH1 0x1 PUSH2 0x1E6C SWAP5 ADD PUSH1 0xD SSTORE PUSH1 0xD PUSH2 0x280F JUMP JUMPDEST PUSH1 0x0 JUMPDEST PUSH1 0xB SLOAD DUP1 DUP3 LT ISZERO PUSH2 0x396 JUMPI DUP3 PUSH2 0x1E84 DUP4 PUSH2 0x27BE JUMP JUMPDEST SWAP1 SLOAD PUSH1 0x3 SWAP2 SWAP1 SWAP2 SHL SHR PUSH1 0x1 PUSH1 0x1 PUSH1 0xA0 SHL SUB AND EQ PUSH2 0x1EA4 JUMPI POP PUSH1 0x1 ADD PUSH2 0x1E6F JUMP JUMPDEST PUSH1 0x0 NOT DUP2 ADD SWAP3 POP DUP3 GT PUSH2 0x380 JUMPI PUSH2 0x2A5 PUSH2 0x1EC0 PUSH2 0x1ED8 SWAP4 PUSH2 0x27BE JUMP JUMPDEST SWAP1 SLOAD PUSH1 0x3 SWAP2 SWAP1 SWAP2 SHL SHR PUSH1 0x1 PUSH1 0x1 PUSH1 0xA0 SHL SUB AND SWAP2 PUSH2 0x27BE JUMP JUMPDEST PUSH1 0xB SLOAD DUP1 ISZERO PUSH2 0x36A JUMPI PUSH1 0x0 NOT ADD PUSH2 0x1EF3 PUSH2 0x350 DUP3 PUSH1 0xB PUSH2 0x280F JUMP JUMPDEST PUSH1 0xB SSTORE STOP JUMPDEST PUSH1 0x1F NOT DUP3 AND SWAP6 DUP4 PUSH1 0x0 MSTORE DUP1 PUSH1 0x0 KECCAK256 SWAP2 PUSH1 0x0 JUMPDEST DUP9 DUP2 LT PUSH2 0x1F45 JUMPI POP DUP4 PUSH1 0x1 SWAP6 SWAP7 SWAP8 SWAP9 LT PUSH2 0x1F2C JUMPI JUMPDEST POP POP POP DUP2 SHL ADD SWAP1 SSTORE PUSH2 0x1E47 JUMP JUMPDEST ADD MLOAD PUSH1 0x0 NOT PUSH1 0xF8 DUP5 PUSH1 0x3 SHL AND SHR NOT AND SWAP1 SSTORE DUP6 DUP1 DUP1 PUSH2 0x1F1F JUMP JUMPDEST SWAP2 SWAP3 PUSH1 0x20 PUSH1 0x1 DUP2 SWAP3 DUP7 DUP6 ADD MLOAD DUP2 SSTORE ADD SWAP5 ADD SWAP3 ADD PUSH2 0x1F0A JUMP JUMPDEST PUSH1 0x40 MLOAD PUSH3 0x461BCD PUSH1 0xE5 SHL DUP2 MSTORE PUSH1 0x20 PUSH1 0x4 DUP3 ADD MSTORE PUSH1 0x1B PUSH1 0x24 DUP3 ADD MSTORE PUSH32 0x4E6F2063616E646964617465206461746120617661696C61626C650000000000 PUSH1 0x44 DUP3 ADD MSTORE PUSH1 0x64 SWAP1 REVERT JUMPDEST CALLVALUE PUSH2 0x475 JUMPI PUSH1 0x20 CALLDATASIZE PUSH1 0x3 NOT ADD SLT PUSH2 0x475 JUMPI PUSH1 0x4 CALLDATALOAD PUSH1 0xC SLOAD DUP2 LT ISZERO PUSH2 0x475 JUMPI PUSH2 0xEC7 PUSH1 0x20 SWAP2 PUSH2 0x2788 JUMP JUMPDEST CALLVALUE PUSH2 0x475 JUMPI PUSH2 0x1FD9 CALLDATASIZE PUSH2 0x2AA4 JUMP JUMPDEST SWAP1 PUSH2 0x1FEF PUSH1 0x1 DUP1 PUSH1 0xA0 SHL SUB PUSH1 0x0 SLOAD AND CALLER EQ PUSH2 0x2D0E JUMP JUMPDEST PUSH1 0x1 PUSH1 0x1 PUSH1 0xA0 SHL SUB DUP2 DUP2 AND PUSH1 0x0 DUP2 DUP2 MSTORE PUSH1 0x7 PUSH1 0x20 MSTORE PUSH1 0x40 SWAP1 KECCAK256 PUSH1 0x4 DUP2 ADD DUP1 SLOAD SWAP3 SWAP5 SWAP4 SWAP1 SWAP3 AND ISZERO PUSH2 0x219C JUMPI DUP2 SLOAD PUSH1 0xFF PUSH1 0xA0 SHL NOT AND PUSH1 0x1 PUSH1 0xA1 SHL OR SWAP1 SWAP2 SSTORE DUP4 MLOAD PUSH1 0x1 SWAP2 SWAP1 SWAP2 ADD SWAP1 PUSH1 0x1 PUSH1 0x1 PUSH1 0x40 SHL SUB DUP2 GT PUSH2 0x398 JUMPI PUSH2 0x2050 DUP2 PUSH2 0x243 DUP5 SLOAD PUSH2 0x2AE3 JUMP JUMPDEST PUSH1 0x20 SWAP5 PUSH1 0x1F DUP3 GT PUSH1 0x1 EQ PUSH2 0x2137 JUMPI PUSH2 0x2083 SWAP3 SWAP4 SWAP5 SWAP6 DUP3 SWAP2 PUSH1 0x0 SWAP3 PUSH2 0x1391 JUMPI POP POP DUP2 PUSH1 0x1 SHL SWAP2 PUSH1 0x0 NOT SWAP1 PUSH1 0x3 SHL SHR NOT AND OR SWAP1 JUMP JUMPDEST SWAP1 SSTORE JUMPDEST PUSH1 0xE SLOAD SWAP1 PUSH1 0x1 PUSH1 0x40 SHL DUP3 LT ISZERO PUSH2 0x398 JUMPI PUSH2 0x2A5 DUP3 PUSH1 0x1 PUSH2 0x20AB SWAP5 ADD PUSH1 0xE SSTORE PUSH1 0xE PUSH2 0x280F JUMP JUMPDEST PUSH1 0x0 JUMPDEST PUSH1 0xC SLOAD DUP1 DUP3 LT ISZERO PUSH2 0x396 JUMPI DUP3 PUSH2 0x20C3 DUP4 PUSH2 0x2788 JUMP JUMPDEST SWAP1 SLOAD PUSH1 0x3 SWAP2 SWAP1 SWAP2 SHL SHR PUSH1 0x1 PUSH1 0x1 PUSH1 0xA0 SHL SUB AND EQ PUSH2 0x20E3 JUMPI POP PUSH1 0x1 ADD PUSH2 0x20AE JUMP JUMPDEST PUSH1 0x0 NOT DUP2 ADD SWAP3 POP DUP3 GT PUSH2 0x380 JUMPI PUSH2 0x2A5 PUSH2 0x20FF PUSH2 0x2117 SWAP4 PUSH2 0x2788 JUMP JUMPDEST SWAP1 SLOAD PUSH1 0x3 SWAP2 SWAP1 SWAP2 SHL SHR PUSH1 0x1 PUSH1 0x1 PUSH1 0xA0 SHL SUB AND SWAP2 PUSH2 0x2788 JUMP JUMPDEST PUSH1 0xC SLOAD DUP1 ISZERO PUSH2 0x36A JUMPI PUSH1 0x0 NOT ADD PUSH2 0x2132 PUSH2 0x350 DUP3 PUSH1 0xC PUSH2 0x280F JUMP JUMPDEST PUSH1 0xC SSTORE STOP JUMPDEST PUSH1 0x1F NOT DUP3 AND SWAP6 DUP4 PUSH1 0x0 MSTORE DUP1 PUSH1 0x0 KECCAK256 SWAP2 PUSH1 0x0 JUMPDEST DUP9 DUP2 LT PUSH2 0x2184 JUMPI POP DUP4 PUSH1 0x1 SWAP6 SWAP7 SWAP8 SWAP9 LT PUSH2 0x216B JUMPI JUMPDEST POP POP POP DUP2 SHL ADD SWAP1 SSTORE PUSH2 0x2086 JUMP JUMPDEST ADD MLOAD PUSH1 0x0 NOT PUSH1 0xF8 DUP5 PUSH1 0x3 SHL AND SHR NOT AND SWAP1 SSTORE DUP6 DUP1 DUP1 PUSH2 0x215E JUMP JUMPDEST SWAP2 SWAP3 PUSH1 0x20 PUSH1 0x1 DUP2 SWAP3 DUP7 DUP6 ADD MLOAD DUP2 SSTORE ADD SWAP5 ADD SWAP3 ADD PUSH2 0x2149 JUMP JUMPDEST PUSH1 0x40 MLOAD PUSH3 0x461BCD PUSH1 0xE5 SHL DUP2 MSTORE PUSH1 0x20 PUSH1 0x4 DUP3 ADD MSTORE PUSH1 0x17 PUSH1 0x24 DUP3 ADD MSTORE PUSH32 0x4E6F20766F746572206461746120617661696C61626C65000000000000000000 PUSH1 0x44 DUP3 ADD MSTORE PUSH1 0x64 SWAP1 REVERT JUMPDEST CALLVALUE PUSH2 0x475 JUMPI PUSH1 0x40 CALLDATASIZE PUSH1 0x3 NOT ADD SLT PUSH2 0x475 JUMPI PUSH1 0x4 CALLDATALOAD PUSH1 0x1 PUSH1 0x1 PUSH1 0x40 SHL SUB DUP2 GT PUSH2 0x475 JUMPI PUSH2 0x2211 SWAP1 CALLDATASIZE SWAP1 PUSH1 0x4 ADD PUSH2 0x2A38 JUMP JUMPDEST PUSH1 0x24 CALLDATALOAD PUSH1 0x1 PUSH1 0x1 PUSH1 0xA0 SHL SUB DUP2 AND SWAP1 DUP2 SWAP1 SUB PUSH2 0x475 JUMPI PUSH1 0x9 SLOAD SWAP1 PUSH1 0x20 DUP4 ADD SWAP1 PUSH1 0x0 DUP1 JUMPDEST DUP5 DUP2 LT PUSH2 0x2352 JUMPI POP PUSH2 0x2244 SWAP1 PUSH2 0x2C0C JUMP JUMPDEST SWAP4 PUSH1 0x0 SWAP2 PUSH1 0x0 JUMPDEST DUP6 DUP2 LT PUSH2 0x2260 JUMPI PUSH1 0x40 MLOAD DUP1 PUSH2 0x5CF DUP10 DUP3 PUSH2 0x28DA JUMP JUMPDEST PUSH2 0x2269 DUP2 PUSH2 0x273C JUMP JUMPDEST PUSH1 0x1 DUP1 PUSH1 0xA0 SHL SUB SWAP2 SLOAD SWAP1 PUSH1 0x3 SHL SHR AND PUSH1 0x0 MSTORE PUSH1 0x8 PUSH1 0x20 MSTORE PUSH1 0x40 PUSH1 0x0 KECCAK256 PUSH1 0x40 MLOAD SWAP1 PUSH2 0x2292 DUP3 PUSH2 0x29FC JUMP JUMPDEST DUP1 SLOAD DUP3 MSTORE PUSH1 0x1 DUP2 ADD SLOAD PUSH1 0x20 DUP4 ADD MSTORE PUSH1 0x2 DUP2 ADD SLOAD PUSH1 0x1 PUSH1 0x1 PUSH1 0xA0 SHL SUB DUP2 AND PUSH1 0x40 DUP5 ADD SWAP1 DUP2 MSTORE SWAP2 DUP6 SWAP2 PUSH2 0x22CC SWAP1 PUSH1 0xA0 SHR PUSH1 0xFF AND PUSH1 0x60 DUP7 ADD PUSH2 0x2C70 JUMP JUMPDEST PUSH2 0x22EB PUSH1 0x4 PUSH2 0x22DD PUSH1 0x3 DUP5 ADD PUSH2 0x2B1D JUMP JUMPDEST SWAP3 PUSH1 0x80 DUP8 ADD SWAP4 DUP5 MSTORE ADD PUSH2 0x2B1D JUMP JUMPDEST PUSH1 0xA0 DUP6 ADD MSTORE MLOAD PUSH1 0x20 DUP2 MLOAD SWAP2 ADD KECCAK256 DUP7 MLOAD DUP10 KECCAK256 EQ SWAP2 DUP3 PUSH2 0x233E JUMPI JUMPDEST POP POP PUSH2 0x2314 JUMPI JUMPDEST POP PUSH1 0x1 ADD PUSH2 0x224B JUMP JUMPDEST DUP5 PUSH2 0x2337 SWAP2 PUSH2 0x2326 PUSH1 0x1 SWAP5 SWAP8 DUP12 PUSH2 0x2C5C JUMP JUMPDEST MSTORE PUSH2 0x2331 DUP2 DUP11 PUSH2 0x2C5C JUMP JUMPDEST POP PUSH2 0x2CFF JUMP JUMPDEST SWAP4 SWAP1 PUSH2 0x230B JUMP JUMPDEST MLOAD PUSH1 0x1 PUSH1 0x1 PUSH1 0xA0 SHL SUB AND EQ SWAP1 POP DUP4 DUP11 PUSH2 0x2304 JUMP JUMPDEST PUSH2 0x235B DUP2 PUSH2 0x273C JUMP JUMPDEST PUSH1 0x1 DUP1 PUSH1 0xA0 SHL SUB SWAP2 SLOAD SWAP1 PUSH1 0x3 SHL SHR AND PUSH1 0x0 MSTORE PUSH1 0x8 PUSH1 0x20 MSTORE PUSH1 0x40 PUSH1 0x0 KECCAK256 DUP4 PUSH1 0x40 MLOAD SWAP2 PUSH2 0x2385 DUP4 PUSH2 0x29FC JUMP JUMPDEST DUP1 SLOAD DUP4 MSTORE PUSH1 0x1 DUP2 ADD SLOAD PUSH1 0x20 DUP5 ADD MSTORE PUSH1 0x2 DUP2 ADD SLOAD PUSH1 0x1 PUSH1 0x1 PUSH1 0xA0 SHL SUB DUP2 AND PUSH1 0x40 DUP6 ADD SWAP1 DUP2 MSTORE SWAP4 SWAP1 PUSH2 0x23BE SWAP1 PUSH1 0xA0 SHR PUSH1 0xFF AND PUSH1 0x60 DUP4 ADD PUSH2 0x2C70 JUMP JUMPDEST PUSH1 0xA0 PUSH2 0x23DF PUSH1 0x4 PUSH2 0x23D1 PUSH1 0x3 DUP7 ADD PUSH2 0x2B1D JUMP JUMPDEST SWAP5 PUSH1 0x80 DUP6 ADD SWAP6 DUP7 MSTORE ADD PUSH2 0x2B1D JUMP JUMPDEST SWAP2 ADD MSTORE MLOAD PUSH1 0x20 DUP2 MLOAD SWAP2 ADD KECCAK256 DUP9 MLOAD DUP8 KECCAK256 EQ SWAP2 DUP3 PUSH2 0x2419 JUMPI JUMPDEST POP POP PUSH2 0x2405 JUMPI JUMPDEST PUSH1 0x1 ADD PUSH2 0x2233 JUMP JUMPDEST SWAP1 PUSH2 0x2411 PUSH1 0x1 SWAP2 PUSH2 0x2CFF JUMP JUMPDEST SWAP2 SWAP1 POP PUSH2 0x23FD JUMP JUMPDEST MLOAD PUSH1 0x1 PUSH1 0x1 PUSH1 0xA0 SHL SUB AND EQ SWAP1 POP DUP4 DUP9 PUSH2 0x23F6 JUMP JUMPDEST CALLVALUE PUSH2 0x475 JUMPI PUSH1 0x0 CALLDATASIZE PUSH1 0x3 NOT ADD SLT PUSH2 0x475 JUMPI PUSH1 0xB SLOAD PUSH2 0x244A DUP2 PUSH2 0x2C0C JUMP JUMPDEST SWAP1 PUSH1 0x0 JUMPDEST DUP2 DUP2 LT PUSH2 0x2463 JUMPI PUSH1 0x40 MLOAD DUP1 PUSH2 0x5CF DUP6 DUP3 PUSH2 0x28DA JUMP JUMPDEST DUP1 PUSH2 0x246F PUSH1 0x1 SWAP3 PUSH2 0x27BE JUMP JUMPDEST DUP4 DUP1 PUSH1 0xA0 SHL SUB SWAP2 SLOAD SWAP1 PUSH1 0x3 SHL SHR AND PUSH1 0x0 MSTORE PUSH1 0x8 PUSH1 0x20 MSTORE PUSH1 0x40 PUSH1 0x0 KECCAK256 PUSH2 0x24E4 PUSH1 0x4 PUSH1 0x40 MLOAD SWAP3 PUSH2 0x249C DUP5 PUSH2 0x29FC JUMP JUMPDEST DUP1 SLOAD DUP5 MSTORE DUP6 DUP2 ADD SLOAD PUSH1 0x20 DUP6 ADD MSTORE PUSH2 0x24CD PUSH1 0xFF PUSH1 0x2 DUP4 ADD SLOAD DUP9 DUP1 PUSH1 0xA0 SHL SUB DUP2 AND PUSH1 0x40 DUP9 ADD MSTORE PUSH1 0xA0 SHR AND PUSH1 0x60 DUP7 ADD PUSH2 0x2C70 JUMP JUMPDEST PUSH2 0x24D9 PUSH1 0x3 DUP3 ADD PUSH2 0x2B1D JUMP JUMPDEST PUSH1 0x80 DUP6 ADD MSTORE ADD PUSH2 0x2B1D JUMP JUMPDEST PUSH1 0xA0 DUP3 ADD MSTORE PUSH2 0x24F3 DUP3 DUP7 PUSH2 0x2C5C JUMP JUMPDEST MSTORE PUSH2 0x24FE DUP2 DUP6 PUSH2 0x2C5C JUMP JUMPDEST POP ADD PUSH2 0x244E JUMP JUMPDEST CALLVALUE PUSH2 0x475 JUMPI PUSH1 0x20 CALLDATASIZE PUSH1 0x3 NOT ADD SLT PUSH2 0x475 JUMPI PUSH1 0x4 CALLDATALOAD PUSH1 0xE SLOAD DUP2 LT ISZERO PUSH2 0x475 JUMPI PUSH2 0xEC7 PUSH1 0x20 SWAP2 PUSH2 0x27A3 JUMP JUMPDEST CALLVALUE PUSH2 0x475 JUMPI PUSH1 0x0 CALLDATASIZE PUSH1 0x3 NOT ADD SLT PUSH2 0x475 JUMPI PUSH1 0xC SLOAD PUSH2 0x254B DUP2 PUSH2 0x2CAF JUMP JUMPDEST SWAP1 PUSH1 0x0 JUMPDEST DUP2 DUP2 LT PUSH2 0x2564 JUMPI PUSH1 0x40 MLOAD DUP1 PUSH2 0x5CF DUP6 DUP3 PUSH2 0x299C JUMP JUMPDEST DUP1 PUSH2 0x2570 PUSH1 0x1 SWAP3 PUSH2 0x2788 JUMP JUMPDEST DUP4 DUP1 PUSH1 0xA0 SHL SUB SWAP2 SLOAD SWAP1 PUSH1 0x3 SHL SHR AND PUSH1 0x0 MSTORE PUSH1 0x7 PUSH1 0x20 MSTORE PUSH1 0x40 PUSH1 0x0 KECCAK256 PUSH2 0x259F PUSH1 0xFF PUSH1 0x4 PUSH1 0x40 MLOAD SWAP4 PUSH2 0xF51 DUP6 PUSH2 0x29FC JUMP JUMPDEST PUSH2 0x25A9 DUP3 DUP7 PUSH2 0x2C5C JUMP JUMPDEST MSTORE PUSH2 0x25B4 DUP2 DUP6 PUSH2 0x2C5C JUMP JUMPDEST POP ADD PUSH2 0x254F JUMP JUMPDEST CALLVALUE PUSH2 0x475 JUMPI PUSH1 0x0 CALLDATASIZE PUSH1 0x3 NOT ADD SLT PUSH2 0x475 JUMPI PUSH1 0x20 PUSH1 0x2 SLOAD PUSH1 0x40 MLOAD SWAP1 DUP2 MSTORE RETURN JUMPDEST CALLVALUE PUSH2 0x475 JUMPI PUSH1 0x0 CALLDATASIZE PUSH1 0x3 NOT ADD SLT PUSH2 0x475 JUMPI PUSH1 0x9 SLOAD PUSH2 0x25F6 DUP2 PUSH2 0x2C0C JUMP JUMPDEST SWAP1 PUSH1 0x0 JUMPDEST DUP2 DUP2 LT PUSH2 0x260F JUMPI PUSH1 0x40 MLOAD DUP1 PUSH2 0x5CF DUP6 DUP3 PUSH2 0x28DA JUMP JUMPDEST DUP1 PUSH2 0x261B PUSH1 0x1 SWAP3 PUSH2 0x273C JUMP JUMPDEST DUP4 DUP1 PUSH1 0xA0 SHL SUB SWAP2 SLOAD SWAP1 PUSH1 0x3 SHL SHR AND PUSH1 0x0 MSTORE PUSH1 0x8 PUSH1 0x20 MSTORE PUSH1 0x40 PUSH1 0x0 KECCAK256 PUSH2 0x2648 PUSH1 0x4 PUSH1 0x40 MLOAD SWAP3 PUSH2 0x249C DUP5 PUSH2 0x29FC JUMP JUMPDEST PUSH1 0xA0 DUP3 ADD MSTORE PUSH2 0x2657 DUP3 DUP7 PUSH2 0x2C5C JUMP JUMPDEST MSTORE PUSH2 0x2662 DUP2 DUP6 PUSH2 0x2C5C JUMP JUMPDEST POP ADD PUSH2 0x25FA JUMP JUMPDEST CALLVALUE PUSH2 0x475 JUMPI PUSH1 0x0 CALLDATASIZE PUSH1 0x3 NOT ADD SLT PUSH2 0x475 JUMPI PUSH1 0x20 PUSH1 0x3 SLOAD PUSH1 0x40 MLOAD SWAP1 DUP2 MSTORE RETURN JUMPDEST CALLVALUE PUSH2 0x475 JUMPI PUSH1 0x0 CALLDATASIZE PUSH1 0x3 NOT ADD SLT PUSH2 0x475 JUMPI PUSH1 0xD SLOAD PUSH2 0x26A4 DUP2 PUSH2 0x2C0C JUMP JUMPDEST SWAP1 PUSH1 0x0 JUMPDEST DUP2 DUP2 LT PUSH2 0x26BD JUMPI PUSH1 0x40 MLOAD DUP1 PUSH2 0x5CF DUP6 DUP3 PUSH2 0x28DA JUMP JUMPDEST DUP1 PUSH2 0x26C9 PUSH1 0x1 SWAP3 PUSH2 0x276D JUMP JUMPDEST DUP4 DUP1 PUSH1 0xA0 SHL SUB SWAP2 SLOAD SWAP1 PUSH1 0x3 SHL SHR AND PUSH1 0x0 MSTORE PUSH1 0x8 PUSH1 0x20 MSTORE PUSH1 0x40 PUSH1 0x0 KECCAK256 PUSH2 0x26F6 PUSH1 0x4 PUSH1 0x40 MLOAD SWAP3 PUSH2 0x249C DUP5 PUSH2 0x29FC JUMP JUMPDEST PUSH1 0xA0 DUP3 ADD MSTORE PUSH2 0x2705 DUP3 DUP7 PUSH2 0x2C5C JUMP JUMPDEST MSTORE PUSH2 0x2710 DUP2 DUP6 PUSH2 0x2C5C JUMP JUMPDEST POP ADD PUSH2 0x26A8 JUMP JUMPDEST CALLVALUE PUSH2 0x475 JUMPI PUSH1 0x20 CALLDATASIZE PUSH1 0x3 NOT ADD SLT PUSH2 0x475 JUMPI PUSH1 0x4 CALLDATALOAD PUSH1 0x9 SLOAD DUP2 LT ISZERO PUSH2 0x475 JUMPI PUSH2 0xEC7 PUSH1 0x20 SWAP2 JUMPDEST PUSH1 0x9 SLOAD DUP2 LT ISZERO PUSH2 0x2757 JUMPI PUSH1 0x9 PUSH1 0x0 MSTORE PUSH1 0x20 PUSH1 0x0 KECCAK256 ADD SWAP1 PUSH1 0x0 SWAP1 JUMP JUMPDEST PUSH4 0x4E487B71 PUSH1 0xE0 SHL PUSH1 0x0 MSTORE PUSH1 0x32 PUSH1 0x4 MSTORE PUSH1 0x24 PUSH1 0x0 REVERT JUMPDEST PUSH1 0xD SLOAD DUP2 LT ISZERO PUSH2 0x2757 JUMPI PUSH1 0xD PUSH1 0x0 MSTORE PUSH1 0x20 PUSH1 0x0 KECCAK256 ADD SWAP1 PUSH1 0x0 SWAP1 JUMP JUMPDEST PUSH1 0xC SLOAD DUP2 LT ISZERO PUSH2 0x2757 JUMPI PUSH1 0xC PUSH1 0x0 MSTORE PUSH1 0x20 PUSH1 0x0 KECCAK256 ADD SWAP1 PUSH1 0x0 SWAP1 JUMP JUMPDEST PUSH1 0xE SLOAD DUP2 LT ISZERO PUSH2 0x2757 JUMPI PUSH1 0xE PUSH1 0x0 MSTORE PUSH1 0x20 PUSH1 0x0 KECCAK256 ADD SWAP1 PUSH1 0x0 SWAP1 JUMP JUMPDEST PUSH1 0xB SLOAD DUP2 LT ISZERO PUSH2 0x2757 JUMPI PUSH1 0xB PUSH1 0x0 MSTORE PUSH1 0x20 PUSH1 0x0 KECCAK256 ADD SWAP1 PUSH1 0x0 SWAP1 JUMP JUMPDEST PUSH1 0xF SLOAD DUP2 LT ISZERO PUSH2 0x2757 JUMPI PUSH1 0xF PUSH1 0x0 MSTORE PUSH1 0x20 PUSH1 0x0 KECCAK256 ADD SWAP1 PUSH1 0x0 SWAP1 JUMP JUMPDEST PUSH1 0xA SLOAD DUP2 LT ISZERO PUSH2 0x2757 JUMPI PUSH1 0xA PUSH1 0x0 MSTORE PUSH1 0x20 PUSH1 0x0 KECCAK256 ADD SWAP1 PUSH1 0x0 SWAP1 JUMP JUMPDEST DUP1 SLOAD DUP3 LT ISZERO PUSH2 0x2757 JUMPI PUSH1 0x0 MSTORE PUSH1 0x20 PUSH1 0x0 KECCAK256 ADD SWAP1 PUSH1 0x0 SWAP1 JUMP JUMPDEST SWAP1 PUSH1 0x3 DUP3 LT ISZERO PUSH2 0xE88 JUMPI MSTORE JUMP JUMPDEST SWAP2 SWAP1 DUP3 MLOAD SWAP3 DUP4 DUP3 MSTORE PUSH1 0x0 JUMPDEST DUP5 DUP2 LT PUSH2 0x2860 JUMPI POP POP DUP3 PUSH1 0x0 PUSH1 0x20 DUP1 SWAP5 SWAP6 DUP5 ADD ADD MSTORE PUSH1 0x1F DUP1 NOT SWAP2 ADD AND ADD ADD SWAP1 JUMP JUMPDEST DUP1 PUSH1 0x20 DUP1 SWAP3 DUP5 ADD ADD MLOAD DUP3 DUP3 DUP7 ADD ADD MSTORE ADD PUSH2 0x283F JUMP JUMPDEST PUSH2 0x28D7 SWAP2 DUP2 MLOAD DUP2 MSTORE PUSH1 0x20 DUP3 ADD MLOAD PUSH1 0x20 DUP3 ADD MSTORE PUSH1 0x1 DUP1 PUSH1 0xA0 SHL SUB PUSH1 0x40 DUP4 ADD MLOAD AND PUSH1 0x40 DUP3 ADD MSTORE PUSH2 0x28AB PUSH1 0x60 DUP4 ADD MLOAD PUSH1 0x60 DUP4 ADD SWAP1 PUSH2 0x2827 JUMP JUMPDEST PUSH1 0xA0 PUSH2 0x28C6 PUSH1 0x80 DUP5 ADD MLOAD PUSH1 0xC0 PUSH1 0x80 DUP6 ADD MSTORE PUSH1 0xC0 DUP5 ADD SWAP1 PUSH2 0x2834 JUMP JUMPDEST SWAP3 ADD MLOAD SWAP1 PUSH1 0xA0 DUP2 DUP5 SUB SWAP2 ADD MSTORE PUSH2 0x2834 JUMP JUMPDEST SWAP1 JUMP JUMPDEST PUSH1 0x20 DUP2 ADD PUSH1 0x20 DUP3 MSTORE DUP3 MLOAD DUP1 SWAP2 MSTORE PUSH1 0x40 DUP3 ADD SWAP2 PUSH1 0x20 PUSH1 0x40 DUP4 PUSH1 0x5 SHL DUP4 ADD ADD SWAP5 ADD SWAP3 PUSH1 0x0 SWAP2 JUMPDEST DUP4 DUP4 LT PUSH2 0x290D JUMPI POP POP POP POP POP SWAP1 JUMP JUMPDEST SWAP1 SWAP2 SWAP3 SWAP4 SWAP5 PUSH1 0x20 DUP1 PUSH2 0x292B PUSH1 0x1 SWAP4 PUSH1 0x3F NOT DUP7 DUP3 SUB ADD DUP8 MSTORE DUP10 MLOAD PUSH2 0x2875 JUMP JUMPDEST SWAP8 ADD SWAP4 ADD SWAP4 ADD SWAP2 SWAP4 SWAP3 SWAP1 PUSH2 0x28FE JUMP JUMPDEST SWAP1 PUSH2 0x28D7 SWAP1 DUP3 MLOAD ISZERO ISZERO DUP2 MSTORE PUSH1 0xA0 DUP1 PUSH2 0x2976 PUSH2 0x2964 PUSH1 0x20 DUP8 ADD MLOAD PUSH1 0xC0 PUSH1 0x20 DUP8 ADD MSTORE PUSH1 0xC0 DUP7 ADD SWAP1 PUSH2 0x2834 JUMP JUMPDEST PUSH1 0x40 DUP8 ADD MLOAD DUP6 DUP3 SUB PUSH1 0x40 DUP8 ADD MSTORE PUSH2 0x2834 JUMP JUMPDEST SWAP5 PUSH1 0x60 DUP2 ADD MLOAD PUSH1 0x60 DUP6 ADD MSTORE PUSH1 0x1 DUP1 DUP4 SHL SUB PUSH1 0x80 DUP3 ADD MLOAD AND PUSH1 0x80 DUP6 ADD MSTORE ADD MLOAD SWAP2 ADD SWAP1 PUSH2 0x2827 JUMP JUMPDEST PUSH1 0x20 DUP2 ADD PUSH1 0x20 DUP3 MSTORE DUP3 MLOAD DUP1 SWAP2 MSTORE PUSH1 0x40 DUP3 ADD SWAP2 PUSH1 0x20 PUSH1 0x40 DUP4 PUSH1 0x5 SHL DUP4 ADD ADD SWAP5 ADD SWAP3 PUSH1 0x0 SWAP2 JUMPDEST DUP4 DUP4 LT PUSH2 0x29CF JUMPI POP POP POP POP POP SWAP1 JUMP JUMPDEST SWAP1 SWAP2 SWAP3 SWAP4 SWAP5 PUSH1 0x20 DUP1 PUSH2 0x29ED PUSH1 0x1 SWAP4 PUSH1 0x3F NOT DUP7 DUP3 SUB ADD DUP8 MSTORE DUP10 MLOAD PUSH2 0x293A JUMP JUMPDEST SWAP8 ADD SWAP4 ADD SWAP4 ADD SWAP2 SWAP4 SWAP3 SWAP1 PUSH2 0x29C0 JUMP JUMPDEST PUSH1 0xC0 DUP2 ADD SWAP1 DUP2 LT PUSH1 0x1 PUSH1 0x1 PUSH1 0x40 SHL SUB DUP3 GT OR PUSH2 0x398 JUMPI PUSH1 0x40 MSTORE JUMP JUMPDEST SWAP1 PUSH1 0x1F DUP1 NOT SWAP2 ADD AND DUP2 ADD SWAP1 DUP2 LT PUSH1 0x1 PUSH1 0x1 PUSH1 0x40 SHL SUB DUP3 GT OR PUSH2 0x398 JUMPI PUSH1 0x40 MSTORE JUMP JUMPDEST DUP2 PUSH1 0x1F DUP3 ADD SLT ISZERO PUSH2 0x475 JUMPI DUP1 CALLDATALOAD SWAP1 PUSH1 0x1 PUSH1 0x1 PUSH1 0x40 SHL SUB DUP3 GT PUSH2 0x398 JUMPI PUSH1 0x40 MLOAD SWAP3 PUSH2 0x2A6C PUSH1 0x1F DUP5 ADD PUSH1 0x1F NOT AND PUSH1 0x20 ADD DUP6 PUSH2 0x2A17 JUMP JUMPDEST DUP3 DUP5 MSTORE PUSH1 0x20 DUP4 DUP4 ADD ADD GT PUSH2 0x475 JUMPI DUP2 PUSH1 0x0 SWAP3 PUSH1 0x20 DUP1 SWAP4 ADD DUP4 DUP7 ADD CALLDATACOPY DUP4 ADD ADD MSTORE SWAP1 JUMP JUMPDEST PUSH1 0x4 CALLDATALOAD SWAP1 PUSH1 0x1 PUSH1 0x1 PUSH1 0xA0 SHL SUB DUP3 AND DUP3 SUB PUSH2 0x475 JUMPI JUMP JUMPDEST SWAP1 PUSH1 0x40 PUSH1 0x3 NOT DUP4 ADD SLT PUSH2 0x475 JUMPI PUSH1 0x4 CALLDATALOAD PUSH1 0x1 PUSH1 0x1 PUSH1 0xA0 SHL SUB DUP2 AND DUP2 SUB PUSH2 0x475 JUMPI SWAP2 PUSH1 0x24 CALLDATALOAD SWAP1 PUSH1 0x1 PUSH1 0x1 PUSH1 0x40 SHL SUB DUP3 GT PUSH2 0x475 JUMPI PUSH2 0x28D7 SWAP2 PUSH1 0x4 ADD PUSH2 0x2A38 JUMP JUMPDEST SWAP1 PUSH1 0x1 DUP3 DUP2 SHR SWAP3 AND DUP1 ISZERO PUSH2 0x2B13 JUMPI JUMPDEST PUSH1 0x20 DUP4 LT EQ PUSH2 0x2AFD JUMPI JUMP JUMPDEST PUSH4 0x4E487B71 PUSH1 0xE0 SHL PUSH1 0x0 MSTORE PUSH1 0x22 PUSH1 0x4 MSTORE PUSH1 0x24 PUSH1 0x0 REVERT JUMPDEST SWAP2 PUSH1 0x7F AND SWAP2 PUSH2 0x2AF2 JUMP JUMPDEST SWAP1 PUSH1 0x40 MLOAD SWAP2 DUP3 PUSH1 0x0 DUP3 SLOAD SWAP3 PUSH2 0x2B31 DUP5 PUSH2 0x2AE3 JUMP JUMPDEST DUP1 DUP5 MSTORE SWAP4 PUSH1 0x1 DUP2 AND SWAP1 DUP2 ISZERO PUSH2 0x2B9F JUMPI POP PUSH1 0x1 EQ PUSH2 0x2B58 JUMPI JUMPDEST POP PUSH2 0x2B56 SWAP3 POP SUB DUP4 PUSH2 0x2A17 JUMP JUMPDEST JUMP JUMPDEST SWAP1 POP PUSH1 0x0 SWAP3 SWAP2 SWAP3 MSTORE PUSH1 0x20 PUSH1 0x0 KECCAK256 SWAP1 PUSH1 0x0 SWAP2 JUMPDEST DUP2 DUP4 LT PUSH2 0x2B83 JUMPI POP POP SWAP1 PUSH1 0x20 PUSH2 0x2B56 SWAP3 DUP3 ADD ADD CODESIZE PUSH2 0x2B49 JUMP JUMPDEST PUSH1 0x20 SWAP2 SWAP4 POP DUP1 PUSH1 0x1 SWAP2 SLOAD DUP4 DUP6 DUP10 ADD ADD MSTORE ADD SWAP2 ADD SWAP1 SWAP2 DUP5 SWAP3 PUSH2 0x2B6A JUMP JUMPDEST SWAP1 POP PUSH1 0x20 SWAP3 POP PUSH2 0x2B56 SWAP5 SWAP2 POP PUSH1 0xFF NOT AND DUP3 DUP5 ADD MSTORE ISZERO ISZERO PUSH1 0x5 SHL DUP3 ADD ADD CODESIZE PUSH2 0x2B49 JUMP JUMPDEST PUSH1 0x1 PUSH1 0x1 PUSH1 0x40 SHL SUB DUP2 GT PUSH2 0x398 JUMPI PUSH1 0x5 SHL PUSH1 0x20 ADD SWAP1 JUMP JUMPDEST PUSH1 0x40 MLOAD SWAP1 PUSH2 0x2BE5 DUP3 PUSH2 0x29FC JUMP JUMPDEST PUSH1 0x60 PUSH1 0xA0 DUP4 PUSH1 0x0 DUP2 MSTORE PUSH1 0x0 PUSH1 0x20 DUP3 ADD MSTORE PUSH1 0x0 PUSH1 0x40 DUP3 ADD MSTORE PUSH1 0x0 DUP4 DUP3 ADD MSTORE DUP3 PUSH1 0x80 DUP3 ADD MSTORE ADD MSTORE JUMP JUMPDEST SWAP1 PUSH2 0x2C16 DUP3 PUSH2 0x2BC1 JUMP JUMPDEST PUSH2 0x2C23 PUSH1 0x40 MLOAD SWAP2 DUP3 PUSH2 0x2A17 JUMP JUMPDEST DUP3 DUP2 MSTORE DUP1 SWAP3 PUSH2 0x2C34 PUSH1 0x1F NOT SWAP2 PUSH2 0x2BC1 JUMP JUMPDEST ADD SWAP1 PUSH1 0x0 JUMPDEST DUP3 DUP2 LT PUSH2 0x2C45 JUMPI POP POP POP JUMP JUMPDEST PUSH1 0x20 SWAP1 PUSH2 0x2C50 PUSH2 0x2BD8 JUMP JUMPDEST DUP3 DUP3 DUP6 ADD ADD MSTORE ADD PUSH2 0x2C39 JUMP JUMPDEST DUP1 MLOAD DUP3 LT ISZERO PUSH2 0x2757 JUMPI PUSH1 0x20 SWAP2 PUSH1 0x5 SHL ADD ADD SWAP1 JUMP JUMPDEST PUSH1 0x3 DUP3 LT ISZERO PUSH2 0xE88 JUMPI MSTORE JUMP JUMPDEST PUSH1 0x40 MLOAD SWAP1 PUSH2 0x2C89 DUP3 PUSH2 0x29FC JUMP JUMPDEST PUSH1 0x0 PUSH1 0xA0 DUP4 DUP3 DUP2 MSTORE PUSH1 0x60 PUSH1 0x20 DUP3 ADD MSTORE PUSH1 0x60 PUSH1 0x40 DUP3 ADD MSTORE DUP3 PUSH1 0x60 DUP3 ADD MSTORE DUP3 PUSH1 0x80 DUP3 ADD MSTORE ADD MSTORE JUMP JUMPDEST SWAP1 PUSH2 0x2CB9 DUP3 PUSH2 0x2BC1 JUMP JUMPDEST PUSH2 0x2CC6 PUSH1 0x40 MLOAD SWAP2 DUP3 PUSH2 0x2A17 JUMP JUMPDEST DUP3 DUP2 MSTORE DUP1 SWAP3 PUSH2 0x2CD7 PUSH1 0x1F NOT SWAP2 PUSH2 0x2BC1 JUMP JUMPDEST ADD SWAP1 PUSH1 0x0 JUMPDEST DUP3 DUP2 LT PUSH2 0x2CE8 JUMPI POP POP POP JUMP JUMPDEST PUSH1 0x20 SWAP1 PUSH2 0x2CF3 PUSH2 0x2C7C JUMP JUMPDEST DUP3 DUP3 DUP6 ADD ADD MSTORE ADD PUSH2 0x2CDC JUMP JUMPDEST PUSH1 0x0 NOT DUP2 EQ PUSH2 0x380 JUMPI PUSH1 0x1 ADD SWAP1 JUMP JUMPDEST ISZERO PUSH2 0x2D15 JUMPI JUMP JUMPDEST PUSH1 0x40 MLOAD PUSH3 0x461BCD PUSH1 0xE5 SHL DUP2 MSTORE PUSH1 0x20 PUSH1 0x4 DUP3 ADD MSTORE PUSH1 0xA PUSH1 0x24 DUP3 ADD MSTORE PUSH10 0x27B7363C9037BBB732B9 PUSH1 0xB1 SHL PUSH1 0x44 DUP3 ADD MSTORE PUSH1 0x64 SWAP1 REVERT JUMPDEST SWAP1 PUSH1 0x3 DUP2 LT ISZERO PUSH2 0xE88 JUMPI DUP2 SLOAD PUSH1 0xFF PUSH1 0xA0 SHL NOT AND PUSH1 0xA0 SWAP2 SWAP1 SWAP2 SHL PUSH1 0xFF PUSH1 0xA0 SHL AND OR SWAP1 SSTORE JUMP JUMPDEST DUP2 DUP2 LT PUSH2 0x2D76 JUMPI POP POP JUMP JUMPDEST PUSH1 0x0 DUP2 SSTORE PUSH1 0x1 ADD PUSH2 0x2D6B JUMP JUMPDEST SWAP2 SWAP1 PUSH1 0x1F DUP2 GT PUSH2 0x2D91 JUMPI POP POP POP JUMP JUMPDEST PUSH2 0x2B56 SWAP3 PUSH1 0x0 MSTORE PUSH1 0x20 PUSH1 0x0 KECCAK256 SWAP1 PUSH1 0x20 PUSH1 0x1F DUP5 ADD PUSH1 0x5 SHR DUP4 ADD SWAP4 LT PUSH2 0x2DBD JUMPI JUMPDEST PUSH1 0x1F ADD PUSH1 0x5 SHR ADD SWAP1 PUSH2 0x2D6B JUMP JUMPDEST SWAP1 SWAP2 POP DUP2 SWAP1 PUSH2 0x2DB0 JUMP JUMPDEST PUSH1 0x40 MLOAD SWAP1 PUSH2 0x2DD6 PUSH1 0x60 DUP4 PUSH2 0x2A17 JUMP JUMPDEST PUSH1 0x21 DUP3 MSTORE PUSH1 0x1B PUSH1 0xFA SHL PUSH1 0x40 DUP4 PUSH32 0x526567697374726174696F6E206973206177616974696E6720617070726F7661 PUSH1 0x20 DUP3 ADD MSTORE ADD MSTORE JUMP JUMPDEST ISZERO PUSH2 0x2E13 JUMPI JUMP JUMPDEST PUSH1 0x40 MLOAD PUSH3 0x461BCD PUSH1 0xE5 SHL DUP2 MSTORE PUSH1 0x20 PUSH1 0x4 DUP3 ADD MSTORE PUSH1 0x21 PUSH1 0x24 DUP3 ADD MSTORE PUSH32 0x43616E6E6F74206D6F6469667920616674657220766F74696E67207374617274 PUSH1 0x44 DUP3 ADD MSTORE PUSH1 0x73 PUSH1 0xF8 SHL PUSH1 0x64 DUP3 ADD MSTORE PUSH1 0x84 SWAP1 REVERT JUMPDEST PUSH2 0x2E6C DUP2 SLOAD PUSH2 0x2AE3 JUMP JUMPDEST SWAP1 DUP2 PUSH2 0x2E76 JUMPI POP POP JUMP JUMPDEST DUP2 PUSH1 0x1F PUSH1 0x0 SWAP4 GT PUSH1 0x1 EQ PUSH2 0x2E88 JUMPI POP SSTORE JUMP JUMPDEST DUP2 DUP4 MSTORE PUSH1 0x20 DUP4 KECCAK256 PUSH2 0x2EA4 SWAP2 PUSH1 0x1F ADD PUSH1 0x5 SHR DUP2 ADD SWAP1 PUSH1 0x1 ADD PUSH2 0x2D6B JUMP JUMPDEST DUP1 DUP3 MSTORE DUP2 PUSH1 0x20 DUP2 KECCAK256 SWAP2 SSTORE SSTORE JUMP JUMPDEST PUSH2 0x2EB9 PUSH2 0x2BD8 JUMP JUMPDEST POP PUSH2 0x2EC2 PUSH2 0x2BD8 JUMP JUMPDEST PUSH1 0xB SLOAD PUSH1 0x0 DUP1 JUMPDEST DUP3 DUP2 LT PUSH2 0x2ED6 JUMPI POP POP POP SWAP1 JUMP JUMPDEST PUSH2 0x2EDF DUP2 PUSH2 0x27BE JUMP JUMPDEST PUSH1 0x1 DUP1 PUSH1 0xA0 SHL SUB SWAP2 SLOAD SWAP1 PUSH1 0x3 SHL SHR AND PUSH1 0x0 MSTORE PUSH1 0x8 PUSH1 0x20 MSTORE PUSH1 0x40 PUSH1 0x0 KECCAK256 PUSH1 0x40 MLOAD SWAP1 PUSH2 0x2F08 DUP3 PUSH2 0x29FC JUMP JUMPDEST DUP1 SLOAD DUP3 MSTORE PUSH2 0x2F5A PUSH1 0x4 PUSH1 0x1 DUP4 ADD SLOAD SWAP3 PUSH1 0x20 DUP6 ADD SWAP4 DUP5 MSTORE PUSH2 0x2F43 PUSH1 0xFF PUSH1 0x2 DUP4 ADD SLOAD PUSH1 0x1 DUP1 PUSH1 0xA0 SHL SUB DUP2 AND PUSH1 0x40 DUP10 ADD MSTORE PUSH1 0xA0 SHR AND PUSH1 0x60 DUP8 ADD PUSH2 0x2C70 JUMP JUMPDEST PUSH2 0x2F4F PUSH1 0x3 DUP3 ADD PUSH2 0x2B1D JUMP JUMPDEST PUSH1 0x80 DUP7 ADD MSTORE ADD PUSH2 0x2B1D JUMP JUMPDEST PUSH1 0xA0 DUP4 ADD MSTORE MLOAD DUP4 DUP2 GT PUSH2 0x2F72 JUMPI JUMPDEST POP POP PUSH1 0x1 ADD PUSH2 0x2EC9 JUMP JUMPDEST SWAP1 SWAP5 POP SWAP2 POP PUSH1 0x1 CODESIZE PUSH2 0x2F68 JUMP JUMPDEST PUSH2 0x2F87 PUSH2 0x2BD8 JUMP JUMPDEST POP PUSH1 0xB SLOAD ISZERO PUSH2 0x301D JUMPI PUSH1 0x3 SLOAD TIMESTAMP LT PUSH2 0x2FA1 JUMPI PUSH2 0x28D7 PUSH2 0x2EB1 JUMP JUMPDEST PUSH1 0x40 MLOAD PUSH2 0x2FAD DUP2 PUSH2 0x29FC JUMP JUMPDEST PUSH1 0x0 DUP2 MSTORE PUSH1 0x0 PUSH1 0x20 DUP3 ADD MSTORE PUSH1 0x0 PUSH1 0x40 DUP3 ADD MSTORE PUSH1 0x0 PUSH1 0x60 DUP3 ADD MSTORE PUSH1 0x40 MLOAD PUSH2 0x2FD4 PUSH1 0x20 DUP3 PUSH2 0x2A17 JUMP JUMPDEST PUSH1 0x0 DUP2 MSTORE PUSH1 0x80 DUP3 ADD MSTORE PUSH1 0x40 MLOAD PUSH2 0x2FEB PUSH1 0x40 DUP3 PUSH2 0x2A17 JUMP JUMPDEST PUSH1 0x1F DUP2 MSTORE PUSH32 0x506C65617365207761697420756E74696C20656C656374696F6E20656E647300 PUSH1 0x20 DUP3 ADD MSTORE PUSH1 0xA0 DUP3 ADD MSTORE SWAP1 JUMP JUMPDEST PUSH1 0x40 MLOAD PUSH3 0x461BCD PUSH1 0xE5 SHL DUP2 MSTORE PUSH1 0x20 PUSH1 0x4 DUP3 ADD MSTORE PUSH1 0x24 DUP1 DUP3 ADD MSTORE PUSH32 0x4E6F2043616E6469646174657320616363657074656420666F7220656C656374 PUSH1 0x44 DUP3 ADD MSTORE PUSH4 0x34B7B717 PUSH1 0xE1 SHL PUSH1 0x64 DUP3 ADD MSTORE PUSH1 0x84 SWAP1 REVERT INVALID LOG2 PUSH5 0x6970667358 0x22 SLT KECCAK256 CALLVALUE PUSH7 0x308ACB1A44B6E2 PUSH13 0x5739848B7D925ACF6F7B475766 SWAP7 JUMPDEST CALLDATALOAD EXTCODECOPY MSTORE8 0xA6 MLOAD PUSH24 0xE464736F6C634300081C0033000000000000000000000000 "},"methodIdentifiers":{"CurrentVotingStatus()":"bab912a2","ListofAcceptedCandidates()":"3cfde26c","ListofAcceptedVoters()":"23a2b2ed","ListofRegisteredCandidates()":"1ee9367c","ListofRegisteredVoters()":"60fc4e32","ListofRejectedCandidates()":"073f966d","ListofRejectedVoters()":"964a43b9","acceptedCandidates(uint256)":"9e7a8145","acceptedVoters(uint256)":"53dd128c","approveCandidate(address,string)":"7eb21b51","approveVoter(address,string)":"fad761d3","candidates(address)":"8ab66a90","candidatesRegistered(uint256)":"0366ac37","changeOwner(address)":"a6f9dae1","electionName()":"85e8e7a7","getAllVotersWhoCasted()":"8987cb32","owner()":"8da5cb5b","registerCandidate(string)":"9eb88db6","registerVoter(string)":"6428a486","rejectCandidate(address,string)":"59632c22","rejectVoter(address,string)":"4a2846a8","rejectedCandidates(uint256)":"5e894b12","rejectedVoters(uint256)":"3afa3e07","resetContract()":"b181a8fc","resultPublicationTime()":"ac94ba4c","searchCandidate(string,address)":"429b0b22","searchVoter(address)":"b381a935","setResultPublicationTime(uint256)":"5b45cfca","startendVoting(uint256,uint256)":"f33698f1","updateCandidate(string)":"79432db5","updateVoter(address,string)":"7c021ecc","vote(address)":"6dd7d8ea","voters(address)":"a3ec138d","votersRegistered(uint256)":"849c5657","votersWhoCasted(uint256)":"5f1bc34e","votingEndTime()":"1ea736e0","votingStartTime()":"2019a608","winningCandidate()":"d28178d7"}}}}}