{"contracts/VotingSystem.sol":{"VotingSystem":{"abi":[{"inputs":[{"internalType":"string","name":"_name","type":"string"}],"stateMutability":"nonpayable","type":"constructor"},{"inputs":[],"name":"CurrentVotingStatus","outputs":[{"components":[{"internalType":"string","name":"name","type":"string"},{"internalType":"string","name":"message","type":"string"},{"internalType":"uint256","name":"age","type":"uint256"},{"internalType":"string","name":"email","type":"string"},{"internalType":"string","name":"phone","type":"string"},{"internalType":"uint256","name":"registeredId","type":"uint256"},{"internalType":"uint256","name":"voteCalculation","type":"uint256"},{"internalType":"address","name":"candidatesAddress","type":"address"},{"internalType":"enum VotingSystem.ConfirmationStatus","name":"status","type":"uint8"}],"internalType":"struct VotingSystem.Candidate","name":"","type":"tuple"}],"stateMutability":"view","type":"function"},{"inputs":[],"name":"ListofAcceptedCandidates","outputs":[{"components":[{"internalType":"string","name":"name","type":"string"},{"internalType":"string","name":"message","type":"string"},{"internalType":"uint256","name":"age","type":"uint256"},{"internalType":"string","name":"email","type":"string"},{"internalType":"string","name":"phone","type":"string"},{"internalType":"uint256","name":"registeredId","type":"uint256"},{"internalType":"uint256","name":"voteCalculation","type":"uint256"},{"internalType":"address","name":"candidatesAddress","type":"address"},{"internalType":"enum VotingSystem.ConfirmationStatus","name":"status","type":"uint8"}],"internalType":"struct VotingSystem.Candidate[]","name":"","type":"tuple[]"}],"stateMutability":"view","type":"function"},{"inputs":[],"name":"ListofAcceptedVoters","outputs":[{"components":[{"internalType":"bool","name":"alreadyVoted","type":"bool"},{"internalType":"string","name":"name","type":"string"},{"internalType":"uint256","name":"age","type":"uint256"},{"internalType":"string","name":"email","type":"string"},{"internalType":"string","name":"phone","type":"string"},{"internalType":"string","name":"message","type":"string"},{"internalType":"uint256","name":"registeredId","type":"uint256"},{"internalType":"address","name":"votersAddress","type":"address"},{"internalType":"enum VotingSystem.ConfirmationStatus","name":"status","type":"uint8"}],"internalType":"struct VotingSystem.Voter[]","name":"","type":"tuple[]"}],"stateMutability":"view","type":"function"},{"inputs":[],"name":"ListofRegisteredCandidates","outputs":[{"components":[{"internalType":"string","name":"name","type":"string"},{"internalType":"string","name":"message","type":"string"},{"internalType":"uint256","name":"age","type":"uint256"},{"internalType":"string","name":"email","type":"string"},{"internalType":"string","name":"phone","type":"string"},{"internalType":"uint256","name":"registeredId","type":"uint256"},{"internalType":"uint256","name":"voteCalculation","type":"uint256"},{"internalType":"address","name":"candidatesAddress","type":"address"},{"internalType":"enum VotingSystem.ConfirmationStatus","name":"status","type":"uint8"}],"internalType":"struct VotingSystem.Candidate[]","name":"","type":"tuple[]"}],"stateMutability":"view","type":"function"},{"inputs":[],"name":"ListofRegisteredVoters","outputs":[{"components":[{"internalType":"bool","name":"alreadyVoted","type":"bool"},{"internalType":"string","name":"name","type":"string"},{"internalType":"uint256","name":"age","type":"uint256"},{"internalType":"string","name":"email","type":"string"},{"internalType":"string","name":"phone","type":"string"},{"internalType":"string","name":"message","type":"string"},{"internalType":"uint256","name":"registeredId","type":"uint256"},{"internalType":"address","name":"votersAddress","type":"address"},{"internalType":"enum VotingSystem.ConfirmationStatus","name":"status","type":"uint8"}],"internalType":"struct VotingSystem.Voter[]","name":"","type":"tuple[]"}],"stateMutability":"view","type":"function"},{"inputs":[],"name":"ListofRejectedCandidates","outputs":[{"components":[{"internalType":"string","name":"name","type":"string"},{"internalType":"string","name":"message","type":"string"},{"internalType":"uint256","name":"age","type":"uint256"},{"internalType":"string","name":"email","type":"string"},{"internalType":"string","name":"phone","type":"string"},{"internalType":"uint256","name":"registeredId","type":"uint256"},{"internalType":"uint256","name":"voteCalculation","type":"uint256"},{"internalType":"address","name":"candidatesAddress","type":"address"},{"internalType":"enum VotingSystem.ConfirmationStatus","name":"status","type":"uint8"}],"internalType":"struct VotingSystem.Candidate[]","name":"","type":"tuple[]"}],"stateMutability":"view","type":"function"},{"inputs":[],"name":"ListofRejectedVoters","outputs":[{"components":[{"internalType":"bool","name":"alreadyVoted","type":"bool"},{"internalType":"string","name":"name","type":"string"},{"internalType":"uint256","name":"age","type":"uint256"},{"internalType":"string","name":"email","type":"string"},{"internalType":"string","name":"phone","type":"string"},{"internalType":"string","name":"message","type":"string"},{"internalType":"uint256","name":"registeredId","type":"uint256"},{"internalType":"address","name":"votersAddress","type":"address"},{"internalType":"enum VotingSystem.ConfirmationStatus","name":"status","type":"uint8"}],"internalType":"struct VotingSystem.Voter[]","name":"","type":"tuple[]"}],"stateMutability":"view","type":"function"},{"inputs":[{"internalType":"uint256","name":"","type":"uint256"}],"name":"acceptedCandidates","outputs":[{"internalType":"address","name":"","type":"address"}],"stateMutability":"view","type":"function"},{"inputs":[{"internalType":"uint256","name":"","type":"uint256"}],"name":"acceptedVoters","outputs":[{"internalType":"address","name":"","type":"address"}],"stateMutability":"view","type":"function"},{"inputs":[{"internalType":"address","name":"_candidatesAddress","type":"address"},{"internalType":"string","name":"_message","type":"string"}],"name":"approveCandidate","outputs":[],"stateMutability":"nonpayable","type":"function"},{"inputs":[{"internalType":"address","name":"_votersAddress","type":"address"},{"internalType":"string","name":"_message","type":"string"}],"name":"approveVoter","outputs":[],"stateMutability":"nonpayable","type":"function"},{"inputs":[{"internalType":"address","name":"","type":"address"}],"name":"candidates","outputs":[{"internalType":"string","name":"name","type":"string"},{"internalType":"string","name":"message","type":"string"},{"internalType":"uint256","name":"age","type":"uint256"},{"internalType":"string","name":"email","type":"string"},{"internalType":"string","name":"phone","type":"string"},{"internalType":"uint256","name":"registeredId","type":"uint256"},{"internalType":"uint256","name":"voteCalculation","type":"uint256"},{"internalType":"address","name":"candidatesAddress","type":"address"},{"internalType":"enum VotingSystem.ConfirmationStatus","name":"status","type":"uint8"}],"stateMutability":"view","type":"function"},{"inputs":[{"internalType":"uint256","name":"","type":"uint256"}],"name":"candidatesRegistered","outputs":[{"internalType":"address","name":"","type":"address"}],"stateMutability":"view","type":"function"},{"inputs":[],"name":"electionName","outputs":[{"internalType":"string","name":"","type":"string"}],"stateMutability":"view","type":"function"},{"inputs":[{"internalType":"address","name":"_candidatesAddress","type":"address"}],"name":"findCandidate","outputs":[{"components":[{"internalType":"string","name":"name","type":"string"},{"internalType":"string","name":"message","type":"string"},{"internalType":"uint256","name":"age","type":"uint256"},{"internalType":"string","name":"email","type":"string"},{"internalType":"string","name":"phone","type":"string"},{"internalType":"uint256","name":"registeredId","type":"uint256"},{"internalType":"uint256","name":"voteCalculation","type":"uint256"},{"internalType":"address","name":"candidatesAddress","type":"address"},{"internalType":"enum VotingSystem.ConfirmationStatus","name":"status","type":"uint8"}],"internalType":"struct VotingSystem.Candidate","name":"","type":"tuple"}],"stateMutability":"view","type":"function"},{"inputs":[{"internalType":"address","name":"_votersAddress","type":"address"}],"name":"findVoter","outputs":[{"components":[{"internalType":"bool","name":"alreadyVoted","type":"bool"},{"internalType":"string","name":"name","type":"string"},{"internalType":"uint256","name":"age","type":"uint256"},{"internalType":"string","name":"email","type":"string"},{"internalType":"string","name":"phone","type":"string"},{"internalType":"string","name":"message","type":"string"},{"internalType":"uint256","name":"registeredId","type":"uint256"},{"internalType":"address","name":"votersAddress","type":"address"},{"internalType":"enum VotingSystem.ConfirmationStatus","name":"status","type":"uint8"}],"internalType":"struct VotingSystem.Voter","name":"","type":"tuple"}],"stateMutability":"view","type":"function"},{"inputs":[],"name":"getAllVotersWhoCasted","outputs":[{"components":[{"internalType":"bool","name":"alreadyVoted","type":"bool"},{"internalType":"string","name":"name","type":"string"},{"internalType":"uint256","name":"age","type":"uint256"},{"internalType":"string","name":"email","type":"string"},{"internalType":"string","name":"phone","type":"string"},{"internalType":"string","name":"message","type":"string"},{"internalType":"uint256","name":"registeredId","type":"uint256"},{"internalType":"address","name":"votersAddress","type":"address"},{"internalType":"enum VotingSystem.ConfirmationStatus","name":"status","type":"uint8"}],"internalType":"struct VotingSystem.Voter[]","name":"","type":"tuple[]"}],"stateMutability":"view","type":"function"},{"inputs":[],"name":"owner","outputs":[{"internalType":"address","name":"","type":"address"}],"stateMutability":"view","type":"function"},{"inputs":[{"internalType":"string","name":"_name","type":"string"},{"internalType":"uint256","name":"_age","type":"uint256"},{"internalType":"string","name":"_email","type":"string"},{"internalType":"string","name":"_phone","type":"string"}],"name":"registerCandidate","outputs":[],"stateMutability":"nonpayable","type":"function"},{"inputs":[{"internalType":"string","name":"_name","type":"string"},{"internalType":"uint256","name":"_age","type":"uint256"},{"internalType":"string","name":"_email","type":"string"},{"internalType":"string","name":"_phone","type":"string"}],"name":"registerVoter","outputs":[],"stateMutability":"nonpayable","type":"function"},{"inputs":[{"internalType":"address","name":"_candidatesAddress","type":"address"},{"internalType":"string","name":"_message","type":"string"}],"name":"rejectCandidate","outputs":[],"stateMutability":"nonpayable","type":"function"},{"inputs":[{"internalType":"address","name":"_votersAddress","type":"address"},{"internalType":"string","name":"_message","type":"string"}],"name":"rejectVoter","outputs":[],"stateMutability":"nonpayable","type":"function"},{"inputs":[{"internalType":"uint256","name":"","type":"uint256"}],"name":"rejectedCandidates","outputs":[{"internalType":"address","name":"","type":"address"}],"stateMutability":"view","type":"function"},{"inputs":[{"internalType":"uint256","name":"","type":"uint256"}],"name":"rejectedVoters","outputs":[{"internalType":"address","name":"","type":"address"}],"stateMutability":"view","type":"function"},{"inputs":[],"name":"resultPublicationTime","outputs":[{"internalType":"uint256","name":"","type":"uint256"}],"stateMutability":"view","type":"function"},{"inputs":[{"internalType":"string","name":"_name","type":"string"},{"internalType":"address","name":"_addr","type":"address"}],"name":"searchCandidate","outputs":[{"components":[{"internalType":"string","name":"name","type":"string"},{"internalType":"string","name":"message","type":"string"},{"internalType":"uint256","name":"age","type":"uint256"},{"internalType":"string","name":"email","type":"string"},{"internalType":"string","name":"phone","type":"string"},{"internalType":"uint256","name":"registeredId","type":"uint256"},{"internalType":"uint256","name":"voteCalculation","type":"uint256"},{"internalType":"address","name":"candidatesAddress","type":"address"},{"internalType":"enum VotingSystem.ConfirmationStatus","name":"status","type":"uint8"}],"internalType":"struct VotingSystem.Candidate[]","name":"","type":"tuple[]"}],"stateMutability":"view","type":"function"},{"inputs":[{"internalType":"string","name":"_name","type":"string"},{"internalType":"address","name":"_addr","type":"address"}],"name":"searchVoter","outputs":[{"components":[{"internalType":"bool","name":"alreadyVoted","type":"bool"},{"internalType":"string","name":"name","type":"string"},{"internalType":"uint256","name":"age","type":"uint256"},{"internalType":"string","name":"email","type":"string"},{"internalType":"string","name":"phone","type":"string"},{"internalType":"string","name":"message","type":"string"},{"internalType":"uint256","name":"registeredId","type":"uint256"},{"internalType":"address","name":"votersAddress","type":"address"},{"internalType":"enum VotingSystem.ConfirmationStatus","name":"status","type":"uint8"}],"internalType":"struct VotingSystem.Voter[]","name":"","type":"tuple[]"}],"stateMutability":"view","type":"function"},{"inputs":[{"internalType":"uint256","name":"_resultPublicationTime","type":"uint256"}],"name":"setResultPublicationTime","outputs":[],"stateMutability":"nonpayable","type":"function"},{"inputs":[{"internalType":"uint256","name":"_votingStartTime","type":"uint256"},{"internalType":"uint256","name":"_votingEndTime","type":"uint256"}],"name":"startendVoting","outputs":[],"stateMutability":"nonpayable","type":"function"},{"inputs":[{"internalType":"string","name":"_name","type":"string"}],"name":"updateCandidate","outputs":[],"stateMutability":"nonpayable","type":"function"},{"inputs":[{"internalType":"string","name":"_name","type":"string"}],"name":"updateVoter","outputs":[],"stateMutability":"nonpayable","type":"function"},{"inputs":[{"internalType":"address","name":"_candidatesAddress","type":"address"}],"name":"vote","outputs":[],"stateMutability":"nonpayable","type":"function"},{"inputs":[{"internalType":"address","name":"","type":"address"}],"name":"voters","outputs":[{"internalType":"bool","name":"alreadyVoted","type":"bool"},{"internalType":"string","name":"name","type":"string"},{"internalType":"uint256","name":"age","type":"uint256"},{"internalType":"string","name":"email","type":"string"},{"internalType":"string","name":"phone","type":"string"},{"internalType":"string","name":"message","type":"string"},{"internalType":"uint256","name":"registeredId","type":"uint256"},{"internalType":"address","name":"votersAddress","type":"address"},{"internalType":"enum VotingSystem.ConfirmationStatus","name":"status","type":"uint8"}],"stateMutability":"view","type":"function"},{"inputs":[{"internalType":"uint256","name":"","type":"uint256"}],"name":"votersRegistered","outputs":[{"internalType":"address","name":"","type":"address"}],"stateMutability":"view","type":"function"},{"inputs":[{"internalType":"uint256","name":"","type":"uint256"}],"name":"votersWhoCasted","outputs":[{"internalType":"address","name":"","type":"address"}],"stateMutability":"view","type":"function"},{"inputs":[],"name":"votingEndTime","outputs":[{"internalType":"uint256","name":"","type":"uint256"}],"stateMutability":"view","type":"function"},{"inputs":[],"name":"votingStartTime","outputs":[{"internalType":"uint256","name":"","type":"uint256"}],"stateMutability":"view","type":"function"},{"inputs":[],"name":"winningCandidate","outputs":[{"components":[{"internalType":"string","name":"name","type":"string"},{"internalType":"string","name":"message","type":"string"},{"internalType":"uint256","name":"age","type":"uint256"},{"internalType":"string","name":"email","type":"string"},{"internalType":"string","name":"phone","type":"string"},{"internalType":"uint256","name":"registeredId","type":"uint256"},{"internalType":"uint256","name":"voteCalculation","type":"uint256"},{"internalType":"address","name":"candidatesAddress","type":"address"},{"internalType":"enum VotingSystem.ConfirmationStatus","name":"status","type":"uint8"}],"internalType":"struct VotingSystem.Candidate","name":"","type":"tuple"}],"stateMutability":"view","type":"function"}],"evm":{"bytecode":{"linkReferences":{},"object":"60806040523461023b57613ce58038038061001981610240565b92833981019060208183031261023b578051906001600160401b03821161023b570181601f8201121561023b578051906001600160401b0382116102105761006a601f8301601f1916602001610240565b928284526020838301011161023b5760005b82811061022657600083850160200181905280546001600160a01b03191633179055835184906001600160401b03811161021057600154600181811c91168015610206575b60208210146101f057601f811161018b575b50602091601f82116001146101275791819260009261011c575b50508160011b916000199060031b1c1916176001555b60016005556001600655604051613a7f90816102668239f35b0151905082806100ed565b601f198216926001600052806000209160005b8581106101735750836001951061015a575b505050811b01600155610103565b015160001960f88460031b161c1916905582808061014c565b9192602060018192868501518155019401920161013a565b60016000527fb10e2d527612073b26eecdfd717e6a320cf44b4afac2b0732d9fcbe2b7fa0cf6601f830160051c810191602084106101e6575b601f0160051c01905b8181106101da57506100d3565b600081556001016101cd565b90915081906101c4565b634e487b7160e01b600052602260045260246000fd5b90607f16906100c1565b634e487b7160e01b600052604160045260246000fd5b8060208092840101518282870101520161007c565b600080fd5b6040519190601f01601f191682016001600160401b038111838210176102105760405256fe6080604052600436101561001257600080fd5b60003560e01c80630366ac3714612fc3578063073f966d14612f365780631ea736e014612f185780631ee9367c14612e8b5780632019a60814612e6d57806323a2b2ed14612de05780633afa3e0714612db75780633cfde26c14612cb2578063429b0b2214612a5d5780634a2846a8146127f15780634d867f4e1461257c57806353dd128c1461255357806357f3a8e5146123d957806359632c221461216f5780635b45cfca1461207c5780635e894b12146120535780635f1bc34e1461202a57806360fc4e3214611f9d5780636dd7d8ea14611d8b57806371565d2e1461183557806379432db5146116a65780637eb21b511461142657806382ff2aeb14611265578063849c56571461123c57806385e8e7a71461115b5780638987cb32146110ce5780638ab66a9014610fdb5780638da5cb5b14610fb2578063964a43b914610ea95780639e7a814514610e67578063a3ec138d14610d6b578063ac94ba4c14610d4d578063bab912a214610d31578063cd6cf311146107ae578063d28178d71461077e578063dbf7be47146105e3578063f33698f1146104be5763fad761d3146101be57600080fd5b346104b9576101cc36613402565b906101e260018060a01b03600054163314613700565b6001600160a01b03818116600081815260076020819052604090912090810180549294939092161561046257815460ff60a01b1916600160a01b179091558351600591909101906001600160401b0381116103945761024182546134ae565b601f811161041a575b50602094601f82116001146103b5579481929394956000926103aa575b50508160011b916000199060031b1c19161790555b600c5490600160401b821015610394576102a18260016102c59401600c55600c6130bb565b9080546001600160a01b0360039390931b83811b199091169290931690921b179055565b60005b600e548082101561039257826102dd8361304f565b905460039190911b1c6001600160a01b0316146102fd57506001016102c8565b60001981019250821161037c576102a16103196103319361304f565b905460039190911b1c6001600160a01b03169161304f565b600e548015610366576000190161036161034c82600e6130bb565b81549060018060a01b039060031b1b19169055565b600e55005b634e487b7160e01b600052603160045260246000fd5b634e487b7160e01b600052601160045260246000fd5b005b634e487b7160e01b600052604160045260246000fd5b015190503880610267565b601f1982169583600052806000209160005b888110610402575083600195969798106103e9575b505050811b01905561027c565b015160001960f88460031b161c191690553880806103dc565b919260206001819286850151815501940192016103c7565b826000526020600020601f830160051c81019160208410610458575b601f0160051c01905b81811061044c575061024a565b6000815560010161043f565b9091508190610436565b60405162461bcd60e51b815260206004820152602960248201527f5468697320766f74657220646f6573206e6f742061707065617220696e206f75604482015268391039bcb9ba32b69760b91b6064820152608490fd5b600080fd5b346104b95760403660031901126104b957600435602435906104eb60018060a01b03600054163314613700565b60025461059e574281111561055a578181101561050a57600255600355005b60405162461bcd60e51b815260206004820152602260248201527f53746172742074696d65206d757374206265206265666f726520656e642074696044820152616d6560f01b6064820152608490fd5b606460405162461bcd60e51b815260206004820152602060248201527f53746172742074696d65206d75737420626520696e20746865206675747572656044820152fd5b60405162461bcd60e51b815260206004820152601860248201527f566f74696e6720616c7265616479207363686564756c656400000000000000006044820152606490fd5b346104b95760203660031901126104b9576105fc6133ab565b6106046135a3565b5060018060a01b03166000526008602052604060002060076040519161062983613318565b610632816134e8565b8352610640600182016134e8565b60208401526002810154604084015261065b600382016134e8565b606084015261066c600482016134e8565b6080840152600581015460a0840152600681015460c0840152015460e0820160018060a01b03821681526106ab60ff61010085019360a01c168361364e565b516001600160a01b0316156107435751600381101561072d57600019016106e8576106e490604051918291602083526020830190613121565b0390f35b60405162461bcd60e51b815260206004820152601960248201527f43616e646964617465206973206e6f74206163636570746564000000000000006044820152606490fd5b634e487b7160e01b600052602160045260246000fd5b60405162461bcd60e51b815260206004820152601360248201527210d85b991a59185d19481b9bdd08199bdd5b99606a1b6044820152606490fd5b346104b95760003660031901126104b9576106e461079a6138f3565b604051918291602083526020830190613121565b346104b9576107bc36613441565b600693919354604051916107cf83613318565b60008352602083019384526040830194855260608301958652608083019081526107f761375d565b9560a0840196875260c0840192835260e08401953387526101008501956000875233600052600760205260406000209551151560ff801988541691161786556001860190518051906001600160401b03821161039457819061085984546134ae565b601f8111610cde575b50602090601f8311600114610c7957600092610c6e575b50508160011b916000199060031b1c19161790555b51600285015551805160038501916001600160401b0382116103945781906108b684546134ae565b601f8111610c1b575b50602090601f8311600114610bb657600092610bab575b50508160011b916000199060031b1c19161790555b51805160048401916001600160401b03821161039457819061090d84546134ae565b601f8111610b58575b50602090601f8311600114610af357600092610ae8575b50508160011b916000199060031b1c19161790555b6005820194519485516001600160401b0381116103945761096382546134ae565b601f8111610aa0575b506020601f8211600114610a365781906007969798600092610a2b575b50508160011b916000199060031b1c19161790555b5160068201559251920180546001600160a01b0319166001600160a01b039390931692909217825551600381101561072d576109d991613739565b600a54600160401b811015610394576109fd816001610a1b9301600a55600a6130bb565b81543360039290921b91821b6001600160a01b0390921b1916179055565b610a266006546136f1565b600655005b015190508880610989565b601f1982169783600052816000209860005b818110610a88575091600797989991846001959410610a6f575b505050811b01905561099e565b015160001960f88460031b161c19169055888080610a62565b838301518b556001909a019960209384019301610a48565b826000526020600020601f830160051c81019160208410610ade575b601f0160051c01905b818110610ad2575061096c565b60008155600101610ac5565b9091508190610abc565b01519050888061092d565b60008581528281209350601f198516905b818110610b405750908460019594939210610b27575b505050811b019055610942565b015160001960f88460031b161c19169055888080610b1a565b92936020600181928786015181550195019301610b04565b909150836000526020600020601f840160051c81019160208510610ba1575b90601f859493920160051c01905b818110610b925750610916565b60008155849350600101610b85565b9091508190610b77565b0151905089806108d6565b60008581528281209350601f198516905b818110610c035750908460019594939210610bea575b505050811b0190556108eb565b015160001960f88460031b161c19169055898080610bdd565b92936020600181928786015181550195019301610bc7565b909150836000526020600020601f840160051c81019160208510610c64575b90601f859493920160051c01905b818110610c5557506108bf565b60008155849350600101610c48565b9091508190610c3a565b015190508b80610879565b60008581528281209350601f198516905b818110610cc65750908460019594939210610cad575b505050811b01905561088e565b015160001960f88460031b161c191690558b8080610ca0565b92936020600181928786015181550195019301610c8a565b909150836000526020600020601f840160051c81019160208510610d27575b90601f859493920160051c01905b818110610d185750610862565b60008155849350600101610d0b565b9091508190610cfd565b346104b95760003660031901126104b9576106e461079a6137f8565b346104b95760003660031901126104b9576020600454604051908152f35b346104b95760203660031901126104b9576001600160a01b03610d8c6133ab565b1660005260076020526020604060002060ff815416906106e4610db1600183016134e8565b610e3f6002840154610e31610dc8600387016134e8565b91610e23610dd8600489016134e8565b91610de560058a016134e8565b94610e10600760068c01549b0154986101206040519e8f9e8f901515815201526101208d01906130d3565b9160408c01528a820360608c01526130d3565b9088820360808a01526130d3565b9086820360a08801526130d3565b60c08501939093526001600160a01b03811660e085015261010084019060a01c60ff16613114565b346104b95760203660031901126104b957600435600b548110156104b957610e9060209161306a565b905460405160039290921b1c6001600160a01b03168152f35b346104b95760003660031901126104b957600e54610ec6816136a1565b9060005b818110610edf57604051806106e485826132b8565b80610eeb60019261304f565b838060a01b0391549060031b1c1660005260076020526040600020610f9660ff600760405193610f1a85613318565b8281541615158552610f2d8782016134e8565b602086015260028101546040860152610f48600382016134e8565b6060860152610f59600482016134e8565b6080860152610f6a600582016134e8565b60a0860152600681015460c08601520154858060a01b03811660e085015260a01c16610100830161364e565b610fa0828661363a565b52610fab818561363a565b5001610eca565b346104b95760003660031901126104b9576000546040516001600160a01b039091168152602090f35b346104b95760203660031901126104b9576001600160a01b03610ffc6133ab565b1660005260086020526040600020610120611016826134e8565b916106e4611026600183016134e8565b6002830154926110a461103b600383016134e8565b9461109661104b600485016134e8565b9160058501549761108360076006880154970154976110756040519d8d8f9e8f90815201906130d3565b8c810360208e0152906130d3565b9160408b015289820360608b01526130d3565b9087820360808901526130d3565b9360a086015260c085015260018060a01b03811660e085015260ff61010085019160a01c16613114565b346104b95760003660031901126104b957600f546110eb816136a1565b9060005b81811061110457604051806106e485826132b8565b806111106001926130a0565b838060a01b0391549060031b1c166000526007602052604060002061113f60ff600760405193610f1a85613318565b611149828661363a565b52611154818561363a565b50016110ef565b346104b95760003660031901126104b957604051600060015461117d816134ae565b808452906001811690811561121857506001146111b9575b6106e4836111a581850382613334565b6040519182916020835260208301906130d3565b600160009081527fb10e2d527612073b26eecdfd717e6a320cf44b4afac2b0732d9fcbe2b7fa0cf6939250905b8082106111fe575090915081016020016111a5611195565b9192600181602092548385880101520191019092916111e6565b60ff191660208086019190915291151560051b840190910191506111a59050611195565b346104b95760203660031901126104b957600435600a548110156104b957610e90602091613085565b346104b95760203660031901126104b9576004356001600160401b0381116104b957611295903690600401613355565b6112ab600254801590811561141c575b506137a2565b336000526007602052604060002060018060a01b03600782015416156113d75760010181516001600160401b038111610394576112e882546134ae565b601f811161138f575b50602092601f821160011461132f5792819293600092611324575b5050600019600383901b1c191660019190911b179055005b01519050838061130c565b601f1982169383600052806000209160005b868110611377575083600195961061135e575b505050811b019055005b015160001960f88460031b161c19169055838080611354565b91926020600181928685015181550194019201611341565b826000526020600020601f830160051c810191602084106113cd575b601f0160051c01905b8181106113c157506112f1565b600081556001016113b4565b90915081906113ab565b60405162461bcd60e51b815260206004820152601860248201527f4e6f20766f746572206461746120617661696c61626c652e00000000000000006044820152606490fd5b90504210836112a5565b346104b95761143436613402565b9061144a60018060a01b03600054163314613700565b6001600160a01b0381811660008181526008602052604090206007810180549294939092161561164b57815460ff60a01b1916600160a01b179091558351600191909101906001600160401b038111610394576114a782546134ae565b601f8111611603575b50602094601f821160011461159e57948192939495600092611593575b50508160011b916000199060031b1c19161790555b600b5490600160401b821015610394576102a18260016115079401600b55600b6130bb565b60005b600d5480821015610392578261151f83613019565b905460039190911b1c6001600160a01b03161461153f575060010161150a565b60001981019250821161037c576102a161155b61157393613019565b905460039190911b1c6001600160a01b031691613019565b600d548015610366576000190161158e61034c82600d6130bb565b600d55005b0151905085806114cd565b601f1982169583600052806000209160005b8881106115eb575083600195969798106115d2575b505050811b0190556114e2565b015160001960f88460031b161c191690558580806115c5565b919260206001819286850151815501940192016115b0565b826000526020600020601f830160051c81019160208410611641575b601f0160051c01905b81811061163557506114b0565b60008155600101611628565b909150819061161f565b60405162461bcd60e51b815260206004820152602d60248201527f546869732063616e64696461746520646f6573206e6f7420617070656172206960448201526c371037bab91039bcb9ba32b69760991b6064820152608490fd5b346104b95760203660031901126104b9576004356001600160401b0381116104b9576116d6903690600401613355565b6116eb600254801590811561141c57506137a2565b33600090815260086020526040902060078101546001600160a01b0316156117f05781516001600160401b0381116103945761172782546134ae565b601f81116117a8575b50602092601f82116001146117625792819293600092611324575050600019600383901b1c191660019190911b179055005b601f1982169383600052806000209160005b868110611790575083600195961061135e57505050811b019055005b91926020600181928685015181550194019201611774565b826000526020600020601f830160051c810191602084106117e6575b601f0160051c01905b8181106117da5750611730565b600081556001016117cd565b90915081906117c4565b60405162461bcd60e51b815260206004820152601c60248201527f4e6f2063616e646964617465206461746120617661696c61626c652e000000006044820152606490fd5b346104b95761184336613441565b92600554916040519161185583613318565b825261185f61375d565b926020830193845260408301948552606083019182526080830195865260a0830190815260c08301916000835260e084019533875261010085019560008752336000526008602052604060002095518051906001600160401b0382116103945781906118cb89546134ae565b601f8111611d38575b50602090601f8311600114611cd357600092611cc8575b50508160011b916000199060031b1c19161786555b51805160018701916001600160401b03821161039457819061192284546134ae565b601f8111611c75575b50602090601f8311600114611c1057600092611c05575b50508160011b916000199060031b1c19161790555b51600285015551805160038501916001600160401b03821161039457819061197f84546134ae565b601f8111611bb2575b50602090601f8311600114611b4d57600092611b42575b50508160011b916000199060031b1c19161790555b6004830195519586516001600160401b038111610394576119d582546134ae565b601f8111611afa575b506020601f8211600114611a905781906007979899600092611a85575b50508160011b916000199060031b1c19161790555b5160058301555160068201559251920180546001600160a01b0319166001600160a01b039390931692909217825551600381101561072d57611a5191613739565b600954600160401b811015610394576109fd816001611a75930160095560096130bb565b611a806005546136f1565b600555005b0151905089806119fb565b601f1982169883600052816000209960005b818110611ae2575091600798999a91846001959410611ac9575b505050811b019055611a10565b015160001960f88460031b161c19169055898080611abc565b838301518c556001909b019a60209384019301611aa2565b826000526020600020601f830160051c81019160208410611b38575b601f0160051c01905b818110611b2c57506119de565b60008155600101611b1f565b9091508190611b16565b01519050898061199f565b60008581528281209350601f198516905b818110611b9a5750908460019594939210611b81575b505050811b0190556119b4565b015160001960f88460031b161c19169055898080611b74565b92936020600181928786015181550195019301611b5e565b909150836000526020600020601f840160051c81019160208510611bfb575b90601f859493920160051c01905b818110611bec5750611988565b60008155849350600101611bdf565b9091508190611bd1565b015190508b80611942565b60008581528281209350601f198516905b818110611c5d5750908460019594939210611c44575b505050811b019055611957565b015160001960f88460031b161c191690558b8080611c37565b92936020600181928786015181550195019301611c21565b909150836000526020600020601f840160051c81019160208510611cbe575b90601f859493920160051c01905b818110611caf575061192b565b60008155849350600101611ca2565b9091508190611c94565b015190508b806118eb565b60008a81528281209350601f198516905b818110611d205750908460019594939210611d07575b505050811b018655611900565b015160001960f88460031b161c191690558b8080611cfa565b92936020600181928786015181550195019301611ce4565b909150886000526020600020601f840160051c81019160208510611d81575b90601f859493920160051c01905b818110611d7257506118d4565b60008155849350600101611d65565b9091508190611d57565b346104b95760203660031901126104b957611da46133ab565b6002544210611f58576003544211611f2057336000526007602052604060002060ff600782015460a01c16600381101561072d57600103611edb5780549160ff8316611e9d5760018060a01b0316600052600860205260406000209060ff600783015460a01c16600381101561072d57600103611e5857600160069360ff191617905501611e3281546136f1565b9055600f54600160401b811015610394576109fd8160016103929301600f55600f6130bb565b60405162461bcd60e51b815260206004820152601a60248201527f43616e646964617465206973206e6f742061636365707465642e0000000000006044820152606490fd5b60405162461bcd60e51b8152602060048201526016602482015275165bdd481a185d9948185b1c9958591e481d9bdd195960521b6044820152606490fd5b60405162461bcd60e51b815260206004820152601e60248201527f596f7520617265206e6f74206120636f6e6669726d656420766f7465722e00006044820152606490fd5b60405162461bcd60e51b815260206004820152601060248201526f159bdd1a5b99c81a185cc8195b99195960821b6044820152606490fd5b60405162461bcd60e51b815260206004820152601a60248201527f566f74696e6720686173206e6f742073746172746564207965740000000000006044820152606490fd5b346104b95760003660031901126104b957600a54611fba816136a1565b9060005b818110611fd357604051806106e485826132b8565b80611fdf600192613085565b838060a01b0391549060031b1c166000526007602052604060002061200e60ff600760405193610f1a85613318565b612018828661363a565b52612023818561363a565b5001611fbe565b346104b95760203660031901126104b957600435600f548110156104b957610e906020916130a0565b346104b95760203660031901126104b957600435600d548110156104b957610e90602091613019565b346104b95760203660031901126104b9576004356120a560018060a01b03600054163314613700565b60045461211e576003548111156120bb57600455005b60405162461bcd60e51b815260206004820152603560248201527f526573756c74207075626c69636174696f6e2074696d65206d75737420626520604482015274616674657220766f74696e6720656e642074696d6560581b6064820152608490fd5b60405162461bcd60e51b815260206004820152602360248201527f526573756c74207075626c69636174696f6e2074696d6520616c7265616479206044820152621cd95d60ea1b6064820152608490fd5b346104b95761217d36613402565b9061219360018060a01b03600054163314613700565b6001600160a01b0381811660008181526008602052604090206007810180549294939092161561239457815460ff60a01b1916600160a11b179091558351600191909101906001600160401b038111610394576121f082546134ae565b601f811161234c575b50602094601f82116001146122e7579481929394956000926122dc575b50508160011b916000199060031b1c19161790555b600d5490600160401b821015610394576102a18260016122509401600d55600d6130bb565b60005b600b548082101561039257826122688361306a565b905460039190911b1c6001600160a01b0316146122885750600101612253565b60001981019250821161037c576102a16122a46122bc9361306a565b905460039190911b1c6001600160a01b03169161306a565b600b54801561036657600019016122d761034c82600b6130bb565b600b55005b015190508580612216565b601f1982169583600052806000209160005b8881106123345750836001959697981061231b575b505050811b01905561222b565b015160001960f88460031b161c1916905585808061230e565b919260206001819286850151815501940192016122f9565b826000526020600020601f830160051c8101916020841061238a575b601f0160051c01905b81811061237e57506121f9565b60008155600101612371565b9091508190612368565b60405162461bcd60e51b815260206004820152601b60248201527f4e6f2063616e646964617465206461746120617661696c61626c6500000000006044820152606490fd5b346104b95760203660031901126104b9576123f26133ab565b6123fa61365a565b5060018060a01b03166000526007602052604060002060076040519161241f83613318565b60ff81541615158352612434600182016134e8565b60208401526002810154604084015261244f600382016134e8565b6060840152612460600482016134e8565b6080840152612471600582016134e8565b60a0840152600681015460c0840152015460e0820160018060a01b03821681526124a660ff61010085019360a01c168361364e565b516001600160a01b03161561251c5751600381101561072d57600019016124df576106e49060405191829160208352602083019061321d565b60405162461bcd60e51b8152602060048201526015602482015274159bdd195c881a5cc81b9bdd081858d8d95c1d1959605a1b6044820152606490fd5b60405162461bcd60e51b815260206004820152600f60248201526e159bdd195c881b9bdd08199bdd5b99608a1b6044820152606490fd5b346104b95760203660031901126104b957600435600c548110156104b957610e90602091613034565b346104b95761258a366133c1565b600a549060208301906000805b8481106126e657506125a8906136a1565b9360009160005b8581106125c457604051806106e489826132b8565b6125cd81613085565b60018060a01b0391549060031b1c1660005260076020526040600020604051906125f682613318565b60ff81541615158252600761260d600183016134e8565b91602084019283526002810154604085015261262b600382016134e8565b606085015261263c600482016134e8565b608085015261264d600582016134e8565b60a0850152600681015460c085015201549061268260ff60e085019360018060a01b038116855260a01c16610100850161364e565b5160208151910120855188201490816126cf575b506126a5575b506001016125af565b846126c8916126b7600194978b61363a565b526126c2818a61363a565b506136f1565b939061269c565b516001600160a01b03858116911614905089612696565b6126ef81613085565b60018060a01b0391549060031b1c16600052600760205260406000206040519061271882613318565b60ff815416151582526127a46007612732600184016134e8565b926020850193845260028101546040860152612750600382016134e8565b6060860152612761600482016134e8565b6080860152612772600582016134e8565b60a0860152600681015460c086015201549261010060ff60e083019560018060a01b038116875260a01c16910161364e565b5160208151910120875186201490816127da575b506127c6575b600101612597565b906127d26001916136f1565b9190506127be565b516001600160a01b038581169116149050876127b8565b346104b9576127ff36613402565b9061281560018060a01b03600054163314613700565b6001600160a01b038181166000818152600760208190526040909120908101805492949390921615612a1857815460ff60a01b1916600160a11b179091558351600591909101906001600160401b0381116103945761287482546134ae565b601f81116129d0575b50602094601f821160011461296b57948192939495600092612960575b50508160011b916000199060031b1c19161790555b600e5490600160401b821015610394576102a18260016128d49401600e55600e6130bb565b60005b600c548082101561039257826128ec83613034565b905460039190911b1c6001600160a01b03161461290c57506001016128d7565b60001981019250821161037c576102a161292861294093613034565b905460039190911b1c6001600160a01b031691613034565b600c548015610366576000190161295b61034c82600c6130bb565b600c55005b01519050858061289a565b601f1982169583600052806000209160005b8881106129b85750836001959697981061299f575b505050811b0190556128af565b015160001960f88460031b161c19169055858080612992565b9192602060018192868501518155019401920161297d565b826000526020600020601f830160051c81019160208410612a0e575b601f0160051c01905b818110612a02575061287d565b600081556001016129f5565b90915081906129ec565b60405162461bcd60e51b815260206004820152601760248201527f4e6f20766f746572206461746120617661696c61626c650000000000000000006044820152606490fd5b346104b957612a6b366133c1565b600954602083019290916000805b848110612baf5750612a8a906135ea565b9360009160005b858110612aa657604051806106e489826131bd565b612aaf81612fe8565b60018060a01b0391549060031b1c1660005260086020526040600020600760405191612ada83613318565b612ae3816134e8565b8352612af1600182016134e8565b602084015260028101546040840152612b0c600382016134e8565b6060840152612b1d600482016134e8565b6080840152600581015460a0840152600681015460c08401520154612b5b60ff60e084019260018060a01b038116845260a01c16610100840161364e565b81516020815191012087518620149081612b98575b50612b7f575b50600101612a91565b84612b91916126b7600194978b61363a565b9390612b76565b516001600160a01b03858116911614905089612b70565b612bb881612fe8565b60018060a01b0391549060031b1c1660005260086020526040600020600760405191612be383613318565b612bec816134e8565b8352612bfa600182016134e8565b602084015260028101546040840152612c15600382016134e8565b6060840152612c26600482016134e8565b6080840152600581015460a0840152600681015460c0840152015490612c6560ff60e083019360018060a01b038116855260a01c16610100830161364e565b516020815191012085518820149081612c9b575b50612c87575b600101612a79565b90612c936001916136f1565b919050612c7f565b516001600160a01b03858116911614905087612c79565b346104b95760003660031901126104b957600b54612ccf816135ea565b9060005b818110612ce857604051806106e485826131bd565b80612cf460019261306a565b838060a01b0391549060031b1c1660005260086020526040600020612d9b60ff600760405193612d2385613318565b612d2c816134e8565b8552612d398782016134e8565b602086015260028101546040860152612d54600382016134e8565b6060860152612d65600482016134e8565b6080860152600581015460a0860152600681015460c08601520154858060a01b03811660e085015260a01c16610100830161364e565b612da5828661363a565b52612db0818561363a565b5001612cd3565b346104b95760203660031901126104b957600435600e548110156104b957610e9060209161304f565b346104b95760003660031901126104b957600c54612dfd816136a1565b9060005b818110612e1657604051806106e485826132b8565b80612e22600192613034565b838060a01b0391549060031b1c1660005260076020526040600020612e5160ff600760405193610f1a85613318565b612e5b828661363a565b52612e66818561363a565b5001612e01565b346104b95760003660031901126104b9576020600254604051908152f35b346104b95760003660031901126104b957600954612ea8816135ea565b9060005b818110612ec157604051806106e485826131bd565b80612ecd600192612fe8565b838060a01b0391549060031b1c1660005260086020526040600020612efc60ff600760405193612d2385613318565b612f06828661363a565b52612f11818561363a565b5001612eac565b346104b95760003660031901126104b9576020600354604051908152f35b346104b95760003660031901126104b957600d54612f53816135ea565b9060005b818110612f6c57604051806106e485826131bd565b80612f78600192613019565b838060a01b0391549060031b1c1660005260086020526040600020612fa760ff600760405193612d2385613318565b612fb1828661363a565b52612fbc818561363a565b5001612f57565b346104b95760203660031901126104b9576004356009548110156104b957610e906020915b60095481101561300357600960005260206000200190600090565b634e487b7160e01b600052603260045260246000fd5b600d5481101561300357600d60005260206000200190600090565b600c5481101561300357600c60005260206000200190600090565b600e5481101561300357600e60005260206000200190600090565b600b5481101561300357600b60005260206000200190600090565b600a5481101561300357600a60005260206000200190600090565b600f5481101561300357600f60005260206000200190600090565b80548210156130035760005260206000200190600090565b919082519283825260005b8481106130ff575050826000602080949584010152601f8019910116010190565b806020809284010151828286010152016130de565b90600382101561072d5752565b906131ba906101008061318861317661315a613148885161012088526101208801906130d3565b602089015187820360208901526130d3565b60408801516040870152606088015186820360608801526130d3565b608087015185820360808701526130d3565b60a0808701519085015260c0808701519085015260e0808701516001600160a01b031690850152940151910190613114565b90565b602081016020825282518091526040820191602060408360051b8301019401926000915b8383106131f057505050505090565b909192939460208061320e600193603f198682030187528951613121565b970193019301919392906131e1565b906131ba908251151581526101008061329061327e61326c613250602089015161012060208901526101208801906130d3565b60408901516040880152606089015187820360608901526130d3565b608088015186820360808801526130d3565b60a087015185820360a08701526130d3565b60c0808701519085015260e0808701516001600160a01b031690850152940151910190613114565b602081016020825282518091526040820191602060408360051b8301019401926000915b8383106132eb57505050505090565b9091929394602080613309600193603f19868203018752895161321d565b970193019301919392906132dc565b61012081019081106001600160401b0382111761039457604052565b90601f801991011681019081106001600160401b0382111761039457604052565b81601f820112156104b9578035906001600160401b0382116103945760405192613389601f8401601f191660200185613334565b828452602083830101116104b957816000926020809301838601378301015290565b600435906001600160a01b03821682036104b957565b60406003198201126104b957600435906001600160401b0382116104b9576133eb91600401613355565b906024356001600160a01b03811681036104b95790565b9060406003198301126104b9576004356001600160a01b03811681036104b95791602435906001600160401b0382116104b9576131ba91600401613355565b9060806003198301126104b9576004356001600160401b0381116104b9578261346c91600401613355565b91602435916044356001600160401b0381116104b9578261348f91600401613355565b91606435906001600160401b0382116104b9576131ba91600401613355565b90600182811c921680156134de575b60208310146134c857565b634e487b7160e01b600052602260045260246000fd5b91607f16916134bd565b90604051918260008254926134fc846134ae565b808452936001811690811561356a5750600114613523575b5061352192500383613334565b565b90506000929192526020600020906000915b81831061354e5750509060206135219282010138613514565b6020919350806001915483858901015201910190918492613535565b90506020925061352194915060ff191682840152151560051b82010138613514565b6001600160401b0381116103945760051b60200190565b604051906135b082613318565b6000610100836060815260606020820152826040820152606080820152606060808201528260a08201528260c08201528260e08201520152565b906135f48261358c565b6136016040519182613334565b8281528092613612601f199161358c565b019060005b82811061362357505050565b60209061362e6135a3565b82828501015201613617565b80518210156130035760209160051b010190565b600382101561072d5752565b6040519061366782613318565b6000610100838281526060602082015282604082015260608082015260606080820152606060a08201528260c08201528260e08201520152565b906136ab8261358c565b6136b86040519182613334565b82815280926136c9601f199161358c565b019060005b8281106136da57505050565b6020906136e561365a565b828285010152016136ce565b600019811461037c5760010190565b1561370757565b60405162461bcd60e51b815260206004820152600a60248201526927b7363c9037bbb732b960b11b6044820152606490fd5b90600381101561072d57815460ff60a01b191660a09190911b60ff60a01b16179055565b6040519061376c606083613334565b60218252601b60fa1b6040837f526567697374726174696f6e206973206177616974696e6720617070726f766160208201520152565b156137a957565b60405162461bcd60e51b815260206004820152602160248201527f43616e6e6f74206d6f6469667920616674657220766f74696e672073746172746044820152607360f81b6064820152608490fd5b6138006135a3565b506138096135a3565b600b546000805b82811061381d5750505090565b6138268161306a565b60018060a01b0391549060031b1c16600052600860205260406000206040519061384f82613318565b613858816134e8565b8252613866600182016134e8565b602083015260028101546040830152613881600382016134e8565b6060830152613892600482016134e8565b6080830152600581015460a08301526138d360ff600760068401549360c08601948552015460018060a01b03811660e086015260a01c16610100840161364e565b518381116138e6575b5050600101613810565b90945091506001386138dc565b6138fb6135a3565b50600b54156139f8576003544210613915576131ba6137f8565b60405161392181613318565b6040805161392f8282613334565b600f81526e139bdd08191958da591959081e595d608a1b60208201528252805161395a606082613334565b603681527f506c65617365207761697420756e74696c2074686520656c656374696f6e2065602082015275373239903a379039b2b2903a3432903bb4b73732b91760511b82820152602083015260008183015280516139ba602082613334565b600081526060830152516139cf602082613334565b600081526080820152600060a0820152600060c0820152600060e0820152600061010082015290565b60405162461bcd60e51b8152602060048201526024808201527f4e6f2043616e6469646174657320616363657074656420666f7220656c65637460448201526334b7b71760e11b6064820152608490fdfea26469706673582212209b4ea82e06b9ad4d09db40638f91d0cf1d0c1b055921a9083a35000d9800729564736f6c634300081c0033","opcodes":"PUSH1 0x80 PUSH1 0x40 MSTORE CALLVALUE PUSH2 0x23B JUMPI PUSH2 0x3CE5 DUP1 CODESIZE SUB DUP1 PUSH2 0x19 DUP2 PUSH2 0x240 JUMP JUMPDEST SWAP3 DUP4 CODECOPY DUP2 ADD SWAP1 PUSH1 0x20 DUP2 DUP4 SUB SLT PUSH2 0x23B JUMPI DUP1 MLOAD SWAP1 PUSH1 0x1 PUSH1 0x1 PUSH1 0x40 SHL SUB DUP3 GT PUSH2 0x23B JUMPI ADD DUP2 PUSH1 0x1F DUP3 ADD SLT ISZERO PUSH2 0x23B JUMPI DUP1 MLOAD SWAP1 PUSH1 0x1 PUSH1 0x1 PUSH1 0x40 SHL SUB DUP3 GT PUSH2 0x210 JUMPI PUSH2 0x6A PUSH1 0x1F DUP4 ADD PUSH1 0x1F NOT AND PUSH1 0x20 ADD PUSH2 0x240 JUMP JUMPDEST SWAP3 DUP3 DUP5 MSTORE PUSH1 0x20 DUP4 DUP4 ADD ADD GT PUSH2 0x23B JUMPI PUSH1 0x0 JUMPDEST DUP3 DUP2 LT PUSH2 0x226 JUMPI PUSH1 0x0 DUP4 DUP6 ADD PUSH1 0x20 ADD DUP2 SWAP1 MSTORE DUP1 SLOAD PUSH1 0x1 PUSH1 0x1 PUSH1 0xA0 SHL SUB NOT AND CALLER OR SWAP1 SSTORE DUP4 MLOAD DUP5 SWAP1 PUSH1 0x1 PUSH1 0x1 PUSH1 0x40 SHL SUB DUP2 GT PUSH2 0x210 JUMPI PUSH1 0x1 SLOAD PUSH1 0x1 DUP2 DUP2 SHR SWAP2 AND DUP1 ISZERO PUSH2 0x206 JUMPI JUMPDEST PUSH1 0x20 DUP3 LT EQ PUSH2 0x1F0 JUMPI PUSH1 0x1F DUP2 GT PUSH2 0x18B JUMPI JUMPDEST POP PUSH1 0x20 SWAP2 PUSH1 0x1F DUP3 GT PUSH1 0x1 EQ PUSH2 0x127 JUMPI SWAP2 DUP2 SWAP3 PUSH1 0x0 SWAP3 PUSH2 0x11C JUMPI JUMPDEST POP POP DUP2 PUSH1 0x1 SHL SWAP2 PUSH1 0x0 NOT SWAP1 PUSH1 0x3 SHL SHR NOT AND OR PUSH1 0x1 SSTORE JUMPDEST PUSH1 0x1 PUSH1 0x5 SSTORE PUSH1 0x1 PUSH1 0x6 SSTORE PUSH1 0x40 MLOAD PUSH2 0x3A7F SWAP1 DUP2 PUSH2 0x266 DUP3 CODECOPY RETURN JUMPDEST ADD MLOAD SWAP1 POP DUP3 DUP1 PUSH2 0xED JUMP JUMPDEST PUSH1 0x1F NOT DUP3 AND SWAP3 PUSH1 0x1 PUSH1 0x0 MSTORE DUP1 PUSH1 0x0 KECCAK256 SWAP2 PUSH1 0x0 JUMPDEST DUP6 DUP2 LT PUSH2 0x173 JUMPI POP DUP4 PUSH1 0x1 SWAP6 LT PUSH2 0x15A JUMPI JUMPDEST POP POP POP DUP2 SHL ADD PUSH1 0x1 SSTORE PUSH2 0x103 JUMP JUMPDEST ADD MLOAD PUSH1 0x0 NOT PUSH1 0xF8 DUP5 PUSH1 0x3 SHL AND SHR NOT AND SWAP1 SSTORE DUP3 DUP1 DUP1 PUSH2 0x14C JUMP JUMPDEST SWAP2 SWAP3 PUSH1 0x20 PUSH1 0x1 DUP2 SWAP3 DUP7 DUP6 ADD MLOAD DUP2 SSTORE ADD SWAP5 ADD SWAP3 ADD PUSH2 0x13A JUMP JUMPDEST PUSH1 0x1 PUSH1 0x0 MSTORE PUSH32 0xB10E2D527612073B26EECDFD717E6A320CF44B4AFAC2B0732D9FCBE2B7FA0CF6 PUSH1 0x1F DUP4 ADD PUSH1 0x5 SHR DUP2 ADD SWAP2 PUSH1 0x20 DUP5 LT PUSH2 0x1E6 JUMPI JUMPDEST PUSH1 0x1F ADD PUSH1 0x5 SHR ADD SWAP1 JUMPDEST DUP2 DUP2 LT PUSH2 0x1DA JUMPI POP PUSH2 0xD3 JUMP JUMPDEST PUSH1 0x0 DUP2 SSTORE PUSH1 0x1 ADD PUSH2 0x1CD JUMP JUMPDEST SWAP1 SWAP2 POP DUP2 SWAP1 PUSH2 0x1C4 JUMP JUMPDEST PUSH4 0x4E487B71 PUSH1 0xE0 SHL PUSH1 0x0 MSTORE PUSH1 0x22 PUSH1 0x4 MSTORE PUSH1 0x24 PUSH1 0x0 REVERT JUMPDEST SWAP1 PUSH1 0x7F AND SWAP1 PUSH2 0xC1 JUMP JUMPDEST PUSH4 0x4E487B71 PUSH1 0xE0 SHL PUSH1 0x0 MSTORE PUSH1 0x41 PUSH1 0x4 MSTORE PUSH1 0x24 PUSH1 0x0 REVERT JUMPDEST DUP1 PUSH1 0x20 DUP1 SWAP3 DUP5 ADD ADD MLOAD DUP3 DUP3 DUP8 ADD ADD MSTORE ADD PUSH2 0x7C JUMP JUMPDEST PUSH1 0x0 DUP1 REVERT JUMPDEST PUSH1 0x40 MLOAD SWAP2 SWAP1 PUSH1 0x1F ADD PUSH1 0x1F NOT AND DUP3 ADD PUSH1 0x1 PUSH1 0x1 PUSH1 0x40 SHL SUB DUP2 GT DUP4 DUP3 LT OR PUSH2 0x210 JUMPI PUSH1 0x40 MSTORE JUMP INVALID PUSH1 0x80 PUSH1 0x40 MSTORE PUSH1 0x4 CALLDATASIZE LT ISZERO PUSH2 0x12 JUMPI PUSH1 0x0 DUP1 REVERT JUMPDEST PUSH1 0x0 CALLDATALOAD PUSH1 0xE0 SHR DUP1 PUSH4 0x366AC37 EQ PUSH2 0x2FC3 JUMPI DUP1 PUSH4 0x73F966D EQ PUSH2 0x2F36 JUMPI DUP1 PUSH4 0x1EA736E0 EQ PUSH2 0x2F18 JUMPI DUP1 PUSH4 0x1EE9367C EQ PUSH2 0x2E8B JUMPI DUP1 PUSH4 0x2019A608 EQ PUSH2 0x2E6D JUMPI DUP1 PUSH4 0x23A2B2ED EQ PUSH2 0x2DE0 JUMPI DUP1 PUSH4 0x3AFA3E07 EQ PUSH2 0x2DB7 JUMPI DUP1 PUSH4 0x3CFDE26C EQ PUSH2 0x2CB2 JUMPI DUP1 PUSH4 0x429B0B22 EQ PUSH2 0x2A5D JUMPI DUP1 PUSH4 0x4A2846A8 EQ PUSH2 0x27F1 JUMPI DUP1 PUSH4 0x4D867F4E EQ PUSH2 0x257C JUMPI DUP1 PUSH4 0x53DD128C EQ PUSH2 0x2553 JUMPI DUP1 PUSH4 0x57F3A8E5 EQ PUSH2 0x23D9 JUMPI DUP1 PUSH4 0x59632C22 EQ PUSH2 0x216F JUMPI DUP1 PUSH4 0x5B45CFCA EQ PUSH2 0x207C JUMPI DUP1 PUSH4 0x5E894B12 EQ PUSH2 0x2053 JUMPI DUP1 PUSH4 0x5F1BC34E EQ PUSH2 0x202A JUMPI DUP1 PUSH4 0x60FC4E32 EQ PUSH2 0x1F9D JUMPI DUP1 PUSH4 0x6DD7D8EA EQ PUSH2 0x1D8B JUMPI DUP1 PUSH4 0x71565D2E EQ PUSH2 0x1835 JUMPI DUP1 PUSH4 0x79432DB5 EQ PUSH2 0x16A6 JUMPI DUP1 PUSH4 0x7EB21B51 EQ PUSH2 0x1426 JUMPI DUP1 PUSH4 0x82FF2AEB EQ PUSH2 0x1265 JUMPI DUP1 PUSH4 0x849C5657 EQ PUSH2 0x123C JUMPI DUP1 PUSH4 0x85E8E7A7 EQ PUSH2 0x115B JUMPI DUP1 PUSH4 0x8987CB32 EQ PUSH2 0x10CE JUMPI DUP1 PUSH4 0x8AB66A90 EQ PUSH2 0xFDB JUMPI DUP1 PUSH4 0x8DA5CB5B EQ PUSH2 0xFB2 JUMPI DUP1 PUSH4 0x964A43B9 EQ PUSH2 0xEA9 JUMPI DUP1 PUSH4 0x9E7A8145 EQ PUSH2 0xE67 JUMPI DUP1 PUSH4 0xA3EC138D EQ PUSH2 0xD6B JUMPI DUP1 PUSH4 0xAC94BA4C EQ PUSH2 0xD4D JUMPI DUP1 PUSH4 0xBAB912A2 EQ PUSH2 0xD31 JUMPI DUP1 PUSH4 0xCD6CF311 EQ PUSH2 0x7AE JUMPI DUP1 PUSH4 0xD28178D7 EQ PUSH2 0x77E JUMPI DUP1 PUSH4 0xDBF7BE47 EQ PUSH2 0x5E3 JUMPI DUP1 PUSH4 0xF33698F1 EQ PUSH2 0x4BE JUMPI PUSH4 0xFAD761D3 EQ PUSH2 0x1BE JUMPI PUSH1 0x0 DUP1 REVERT JUMPDEST CALLVALUE PUSH2 0x4B9 JUMPI PUSH2 0x1CC CALLDATASIZE PUSH2 0x3402 JUMP JUMPDEST SWAP1 PUSH2 0x1E2 PUSH1 0x1 DUP1 PUSH1 0xA0 SHL SUB PUSH1 0x0 SLOAD AND CALLER EQ PUSH2 0x3700 JUMP JUMPDEST PUSH1 0x1 PUSH1 0x1 PUSH1 0xA0 SHL SUB DUP2 DUP2 AND PUSH1 0x0 DUP2 DUP2 MSTORE PUSH1 0x7 PUSH1 0x20 DUP2 SWAP1 MSTORE PUSH1 0x40 SWAP1 SWAP2 KECCAK256 SWAP1 DUP2 ADD DUP1 SLOAD SWAP3 SWAP5 SWAP4 SWAP1 SWAP3 AND ISZERO PUSH2 0x462 JUMPI DUP2 SLOAD PUSH1 0xFF PUSH1 0xA0 SHL NOT AND PUSH1 0x1 PUSH1 0xA0 SHL OR SWAP1 SWAP2 SSTORE DUP4 MLOAD PUSH1 0x5 SWAP2 SWAP1 SWAP2 ADD SWAP1 PUSH1 0x1 PUSH1 0x1 PUSH1 0x40 SHL SUB DUP2 GT PUSH2 0x394 JUMPI PUSH2 0x241 DUP3 SLOAD PUSH2 0x34AE JUMP JUMPDEST PUSH1 0x1F DUP2 GT PUSH2 0x41A JUMPI JUMPDEST POP PUSH1 0x20 SWAP5 PUSH1 0x1F DUP3 GT PUSH1 0x1 EQ PUSH2 0x3B5 JUMPI SWAP5 DUP2 SWAP3 SWAP4 SWAP5 SWAP6 PUSH1 0x0 SWAP3 PUSH2 0x3AA JUMPI JUMPDEST POP POP DUP2 PUSH1 0x1 SHL SWAP2 PUSH1 0x0 NOT SWAP1 PUSH1 0x3 SHL SHR NOT AND OR SWAP1 SSTORE JUMPDEST PUSH1 0xC SLOAD SWAP1 PUSH1 0x1 PUSH1 0x40 SHL DUP3 LT ISZERO PUSH2 0x394 JUMPI PUSH2 0x2A1 DUP3 PUSH1 0x1 PUSH2 0x2C5 SWAP5 ADD PUSH1 0xC SSTORE PUSH1 0xC PUSH2 0x30BB JUMP JUMPDEST SWAP1 DUP1 SLOAD PUSH1 0x1 PUSH1 0x1 PUSH1 0xA0 SHL SUB PUSH1 0x3 SWAP4 SWAP1 SWAP4 SHL DUP4 DUP2 SHL NOT SWAP1 SWAP2 AND SWAP3 SWAP1 SWAP4 AND SWAP1 SWAP3 SHL OR SWAP1 SSTORE JUMP JUMPDEST PUSH1 0x0 JUMPDEST PUSH1 0xE SLOAD DUP1 DUP3 LT ISZERO PUSH2 0x392 JUMPI DUP3 PUSH2 0x2DD DUP4 PUSH2 0x304F JUMP JUMPDEST SWAP1 SLOAD PUSH1 0x3 SWAP2 SWAP1 SWAP2 SHL SHR PUSH1 0x1 PUSH1 0x1 PUSH1 0xA0 SHL SUB AND EQ PUSH2 0x2FD JUMPI POP PUSH1 0x1 ADD PUSH2 0x2C8 JUMP JUMPDEST PUSH1 0x0 NOT DUP2 ADD SWAP3 POP DUP3 GT PUSH2 0x37C JUMPI PUSH2 0x2A1 PUSH2 0x319 PUSH2 0x331 SWAP4 PUSH2 0x304F JUMP JUMPDEST SWAP1 SLOAD PUSH1 0x3 SWAP2 SWAP1 SWAP2 SHL SHR PUSH1 0x1 PUSH1 0x1 PUSH1 0xA0 SHL SUB AND SWAP2 PUSH2 0x304F JUMP JUMPDEST PUSH1 0xE SLOAD DUP1 ISZERO PUSH2 0x366 JUMPI PUSH1 0x0 NOT ADD PUSH2 0x361 PUSH2 0x34C DUP3 PUSH1 0xE PUSH2 0x30BB JUMP JUMPDEST DUP2 SLOAD SWAP1 PUSH1 0x1 DUP1 PUSH1 0xA0 SHL SUB SWAP1 PUSH1 0x3 SHL SHL NOT AND SWAP1 SSTORE JUMP JUMPDEST PUSH1 0xE SSTORE STOP JUMPDEST PUSH4 0x4E487B71 PUSH1 0xE0 SHL PUSH1 0x0 MSTORE PUSH1 0x31 PUSH1 0x4 MSTORE PUSH1 0x24 PUSH1 0x0 REVERT JUMPDEST PUSH4 0x4E487B71 PUSH1 0xE0 SHL PUSH1 0x0 MSTORE PUSH1 0x11 PUSH1 0x4 MSTORE PUSH1 0x24 PUSH1 0x0 REVERT JUMPDEST STOP JUMPDEST PUSH4 0x4E487B71 PUSH1 0xE0 SHL PUSH1 0x0 MSTORE PUSH1 0x41 PUSH1 0x4 MSTORE PUSH1 0x24 PUSH1 0x0 REVERT JUMPDEST ADD MLOAD SWAP1 POP CODESIZE DUP1 PUSH2 0x267 JUMP JUMPDEST PUSH1 0x1F NOT DUP3 AND SWAP6 DUP4 PUSH1 0x0 MSTORE DUP1 PUSH1 0x0 KECCAK256 SWAP2 PUSH1 0x0 JUMPDEST DUP9 DUP2 LT PUSH2 0x402 JUMPI POP DUP4 PUSH1 0x1 SWAP6 SWAP7 SWAP8 SWAP9 LT PUSH2 0x3E9 JUMPI JUMPDEST POP POP POP DUP2 SHL ADD SWAP1 SSTORE PUSH2 0x27C JUMP JUMPDEST ADD MLOAD PUSH1 0x0 NOT PUSH1 0xF8 DUP5 PUSH1 0x3 SHL AND SHR NOT AND SWAP1 SSTORE CODESIZE DUP1 DUP1 PUSH2 0x3DC JUMP JUMPDEST SWAP2 SWAP3 PUSH1 0x20 PUSH1 0x1 DUP2 SWAP3 DUP7 DUP6 ADD MLOAD DUP2 SSTORE ADD SWAP5 ADD SWAP3 ADD PUSH2 0x3C7 JUMP JUMPDEST DUP3 PUSH1 0x0 MSTORE PUSH1 0x20 PUSH1 0x0 KECCAK256 PUSH1 0x1F DUP4 ADD PUSH1 0x5 SHR DUP2 ADD SWAP2 PUSH1 0x20 DUP5 LT PUSH2 0x458 JUMPI JUMPDEST PUSH1 0x1F ADD PUSH1 0x5 SHR ADD SWAP1 JUMPDEST DUP2 DUP2 LT PUSH2 0x44C JUMPI POP PUSH2 0x24A JUMP JUMPDEST PUSH1 0x0 DUP2 SSTORE PUSH1 0x1 ADD PUSH2 0x43F JUMP JUMPDEST SWAP1 SWAP2 POP DUP2 SWAP1 PUSH2 0x436 JUMP JUMPDEST PUSH1 0x40 MLOAD PUSH3 0x461BCD PUSH1 0xE5 SHL DUP2 MSTORE PUSH1 0x20 PUSH1 0x4 DUP3 ADD MSTORE PUSH1 0x29 PUSH1 0x24 DUP3 ADD MSTORE PUSH32 0x5468697320766F74657220646F6573206E6F742061707065617220696E206F75 PUSH1 0x44 DUP3 ADD MSTORE PUSH9 0x391039BCB9BA32B697 PUSH1 0xB9 SHL PUSH1 0x64 DUP3 ADD MSTORE PUSH1 0x84 SWAP1 REVERT JUMPDEST PUSH1 0x0 DUP1 REVERT JUMPDEST CALLVALUE PUSH2 0x4B9 JUMPI PUSH1 0x40 CALLDATASIZE PUSH1 0x3 NOT ADD SLT PUSH2 0x4B9 JUMPI PUSH1 0x4 CALLDATALOAD PUSH1 0x24 CALLDATALOAD SWAP1 PUSH2 0x4EB PUSH1 0x1 DUP1 PUSH1 0xA0 SHL SUB PUSH1 0x0 SLOAD AND CALLER EQ PUSH2 0x3700 JUMP JUMPDEST PUSH1 0x2 SLOAD PUSH2 0x59E JUMPI TIMESTAMP DUP2 GT ISZERO PUSH2 0x55A JUMPI DUP2 DUP2 LT ISZERO PUSH2 0x50A JUMPI PUSH1 0x2 SSTORE PUSH1 0x3 SSTORE STOP JUMPDEST PUSH1 0x40 MLOAD PUSH3 0x461BCD PUSH1 0xE5 SHL DUP2 MSTORE PUSH1 0x20 PUSH1 0x4 DUP3 ADD MSTORE PUSH1 0x22 PUSH1 0x24 DUP3 ADD MSTORE PUSH32 0x53746172742074696D65206D757374206265206265666F726520656E64207469 PUSH1 0x44 DUP3 ADD MSTORE PUSH2 0x6D65 PUSH1 0xF0 SHL PUSH1 0x64 DUP3 ADD MSTORE PUSH1 0x84 SWAP1 REVERT JUMPDEST PUSH1 0x64 PUSH1 0x40 MLOAD PUSH3 0x461BCD PUSH1 0xE5 SHL DUP2 MSTORE PUSH1 0x20 PUSH1 0x4 DUP3 ADD MSTORE PUSH1 0x20 PUSH1 0x24 DUP3 ADD MSTORE PUSH32 0x53746172742074696D65206D75737420626520696E2074686520667574757265 PUSH1 0x44 DUP3 ADD MSTORE REVERT JUMPDEST PUSH1 0x40 MLOAD PUSH3 0x461BCD PUSH1 0xE5 SHL DUP2 MSTORE PUSH1 0x20 PUSH1 0x4 DUP3 ADD MSTORE PUSH1 0x18 PUSH1 0x24 DUP3 ADD MSTORE PUSH32 0x566F74696E6720616C7265616479207363686564756C65640000000000000000 PUSH1 0x44 DUP3 ADD MSTORE PUSH1 0x64 SWAP1 REVERT JUMPDEST CALLVALUE PUSH2 0x4B9 JUMPI PUSH1 0x20 CALLDATASIZE PUSH1 0x3 NOT ADD SLT PUSH2 0x4B9 JUMPI PUSH2 0x5FC PUSH2 0x33AB JUMP JUMPDEST PUSH2 0x604 PUSH2 0x35A3 JUMP JUMPDEST POP PUSH1 0x1 DUP1 PUSH1 0xA0 SHL SUB AND PUSH1 0x0 MSTORE PUSH1 0x8 PUSH1 0x20 MSTORE PUSH1 0x40 PUSH1 0x0 KECCAK256 PUSH1 0x7 PUSH1 0x40 MLOAD SWAP2 PUSH2 0x629 DUP4 PUSH2 0x3318 JUMP JUMPDEST PUSH2 0x632 DUP2 PUSH2 0x34E8 JUMP JUMPDEST DUP4 MSTORE PUSH2 0x640 PUSH1 0x1 DUP3 ADD PUSH2 0x34E8 JUMP JUMPDEST PUSH1 0x20 DUP5 ADD MSTORE PUSH1 0x2 DUP2 ADD SLOAD PUSH1 0x40 DUP5 ADD MSTORE PUSH2 0x65B PUSH1 0x3 DUP3 ADD PUSH2 0x34E8 JUMP JUMPDEST PUSH1 0x60 DUP5 ADD MSTORE PUSH2 0x66C PUSH1 0x4 DUP3 ADD PUSH2 0x34E8 JUMP JUMPDEST PUSH1 0x80 DUP5 ADD MSTORE PUSH1 0x5 DUP2 ADD SLOAD PUSH1 0xA0 DUP5 ADD MSTORE PUSH1 0x6 DUP2 ADD SLOAD PUSH1 0xC0 DUP5 ADD MSTORE ADD SLOAD PUSH1 0xE0 DUP3 ADD PUSH1 0x1 DUP1 PUSH1 0xA0 SHL SUB DUP3 AND DUP2 MSTORE PUSH2 0x6AB PUSH1 0xFF PUSH2 0x100 DUP6 ADD SWAP4 PUSH1 0xA0 SHR AND DUP4 PUSH2 0x364E JUMP JUMPDEST MLOAD PUSH1 0x1 PUSH1 0x1 PUSH1 0xA0 SHL SUB AND ISZERO PUSH2 0x743 JUMPI MLOAD PUSH1 0x3 DUP2 LT ISZERO PUSH2 0x72D JUMPI PUSH1 0x0 NOT ADD PUSH2 0x6E8 JUMPI PUSH2 0x6E4 SWAP1 PUSH1 0x40 MLOAD SWAP2 DUP3 SWAP2 PUSH1 0x20 DUP4 MSTORE PUSH1 0x20 DUP4 ADD SWAP1 PUSH2 0x3121 JUMP JUMPDEST SUB SWAP1 RETURN JUMPDEST PUSH1 0x40 MLOAD PUSH3 0x461BCD PUSH1 0xE5 SHL DUP2 MSTORE PUSH1 0x20 PUSH1 0x4 DUP3 ADD MSTORE PUSH1 0x19 PUSH1 0x24 DUP3 ADD MSTORE PUSH32 0x43616E646964617465206973206E6F7420616363657074656400000000000000 PUSH1 0x44 DUP3 ADD MSTORE PUSH1 0x64 SWAP1 REVERT JUMPDEST PUSH4 0x4E487B71 PUSH1 0xE0 SHL PUSH1 0x0 MSTORE PUSH1 0x21 PUSH1 0x4 MSTORE PUSH1 0x24 PUSH1 0x0 REVERT JUMPDEST PUSH1 0x40 MLOAD PUSH3 0x461BCD PUSH1 0xE5 SHL DUP2 MSTORE PUSH1 0x20 PUSH1 0x4 DUP3 ADD MSTORE PUSH1 0x13 PUSH1 0x24 DUP3 ADD MSTORE PUSH19 0x10D85B991A59185D19481B9BDD08199BDD5B99 PUSH1 0x6A SHL PUSH1 0x44 DUP3 ADD MSTORE PUSH1 0x64 SWAP1 REVERT JUMPDEST CALLVALUE PUSH2 0x4B9 JUMPI PUSH1 0x0 CALLDATASIZE PUSH1 0x3 NOT ADD SLT PUSH2 0x4B9 JUMPI PUSH2 0x6E4 PUSH2 0x79A PUSH2 0x38F3 JUMP JUMPDEST PUSH1 0x40 MLOAD SWAP2 DUP3 SWAP2 PUSH1 0x20 DUP4 MSTORE PUSH1 0x20 DUP4 ADD SWAP1 PUSH2 0x3121 JUMP JUMPDEST CALLVALUE PUSH2 0x4B9 JUMPI PUSH2 0x7BC CALLDATASIZE PUSH2 0x3441 JUMP JUMPDEST PUSH1 0x6 SWAP4 SWAP2 SWAP4 SLOAD PUSH1 0x40 MLOAD SWAP2 PUSH2 0x7CF DUP4 PUSH2 0x3318 JUMP JUMPDEST PUSH1 0x0 DUP4 MSTORE PUSH1 0x20 DUP4 ADD SWAP4 DUP5 MSTORE PUSH1 0x40 DUP4 ADD SWAP5 DUP6 MSTORE PUSH1 0x60 DUP4 ADD SWAP6 DUP7 MSTORE PUSH1 0x80 DUP4 ADD SWAP1 DUP2 MSTORE PUSH2 0x7F7 PUSH2 0x375D JUMP JUMPDEST SWAP6 PUSH1 0xA0 DUP5 ADD SWAP7 DUP8 MSTORE PUSH1 0xC0 DUP5 ADD SWAP3 DUP4 MSTORE PUSH1 0xE0 DUP5 ADD SWAP6 CALLER DUP8 MSTORE PUSH2 0x100 DUP6 ADD SWAP6 PUSH1 0x0 DUP8 MSTORE CALLER PUSH1 0x0 MSTORE PUSH1 0x7 PUSH1 0x20 MSTORE PUSH1 0x40 PUSH1 0x0 KECCAK256 SWAP6 MLOAD ISZERO ISZERO PUSH1 0xFF DUP1 NOT DUP9 SLOAD AND SWAP2 AND OR DUP7 SSTORE PUSH1 0x1 DUP7 ADD SWAP1 MLOAD DUP1 MLOAD SWAP1 PUSH1 0x1 PUSH1 0x1 PUSH1 0x40 SHL SUB DUP3 GT PUSH2 0x394 JUMPI DUP2 SWAP1 PUSH2 0x859 DUP5 SLOAD PUSH2 0x34AE JUMP JUMPDEST PUSH1 0x1F DUP2 GT PUSH2 0xCDE JUMPI JUMPDEST POP PUSH1 0x20 SWAP1 PUSH1 0x1F DUP4 GT PUSH1 0x1 EQ PUSH2 0xC79 JUMPI PUSH1 0x0 SWAP3 PUSH2 0xC6E JUMPI JUMPDEST POP POP DUP2 PUSH1 0x1 SHL SWAP2 PUSH1 0x0 NOT SWAP1 PUSH1 0x3 SHL SHR NOT AND OR SWAP1 SSTORE JUMPDEST MLOAD PUSH1 0x2 DUP6 ADD SSTORE MLOAD DUP1 MLOAD PUSH1 0x3 DUP6 ADD SWAP2 PUSH1 0x1 PUSH1 0x1 PUSH1 0x40 SHL SUB DUP3 GT PUSH2 0x394 JUMPI DUP2 SWAP1 PUSH2 0x8B6 DUP5 SLOAD PUSH2 0x34AE JUMP JUMPDEST PUSH1 0x1F DUP2 GT PUSH2 0xC1B JUMPI JUMPDEST POP PUSH1 0x20 SWAP1 PUSH1 0x1F DUP4 GT PUSH1 0x1 EQ PUSH2 0xBB6 JUMPI PUSH1 0x0 SWAP3 PUSH2 0xBAB JUMPI JUMPDEST POP POP DUP2 PUSH1 0x1 SHL SWAP2 PUSH1 0x0 NOT SWAP1 PUSH1 0x3 SHL SHR NOT AND OR SWAP1 SSTORE JUMPDEST MLOAD DUP1 MLOAD PUSH1 0x4 DUP5 ADD SWAP2 PUSH1 0x1 PUSH1 0x1 PUSH1 0x40 SHL SUB DUP3 GT PUSH2 0x394 JUMPI DUP2 SWAP1 PUSH2 0x90D DUP5 SLOAD PUSH2 0x34AE JUMP JUMPDEST PUSH1 0x1F DUP2 GT PUSH2 0xB58 JUMPI JUMPDEST POP PUSH1 0x20 SWAP1 PUSH1 0x1F DUP4 GT PUSH1 0x1 EQ PUSH2 0xAF3 JUMPI PUSH1 0x0 SWAP3 PUSH2 0xAE8 JUMPI JUMPDEST POP POP DUP2 PUSH1 0x1 SHL SWAP2 PUSH1 0x0 NOT SWAP1 PUSH1 0x3 SHL SHR NOT AND OR SWAP1 SSTORE JUMPDEST PUSH1 0x5 DUP3 ADD SWAP5 MLOAD SWAP5 DUP6 MLOAD PUSH1 0x1 PUSH1 0x1 PUSH1 0x40 SHL SUB DUP2 GT PUSH2 0x394 JUMPI PUSH2 0x963 DUP3 SLOAD PUSH2 0x34AE JUMP JUMPDEST PUSH1 0x1F DUP2 GT PUSH2 0xAA0 JUMPI JUMPDEST POP PUSH1 0x20 PUSH1 0x1F DUP3 GT PUSH1 0x1 EQ PUSH2 0xA36 JUMPI DUP2 SWAP1 PUSH1 0x7 SWAP7 SWAP8 SWAP9 PUSH1 0x0 SWAP3 PUSH2 0xA2B JUMPI JUMPDEST POP POP DUP2 PUSH1 0x1 SHL SWAP2 PUSH1 0x0 NOT SWAP1 PUSH1 0x3 SHL SHR NOT AND OR SWAP1 SSTORE JUMPDEST MLOAD PUSH1 0x6 DUP3 ADD SSTORE SWAP3 MLOAD SWAP3 ADD DUP1 SLOAD PUSH1 0x1 PUSH1 0x1 PUSH1 0xA0 SHL SUB NOT AND PUSH1 0x1 PUSH1 0x1 PUSH1 0xA0 SHL SUB SWAP4 SWAP1 SWAP4 AND SWAP3 SWAP1 SWAP3 OR DUP3 SSTORE MLOAD PUSH1 0x3 DUP2 LT ISZERO PUSH2 0x72D JUMPI PUSH2 0x9D9 SWAP2 PUSH2 0x3739 JUMP JUMPDEST PUSH1 0xA SLOAD PUSH1 0x1 PUSH1 0x40 SHL DUP2 LT ISZERO PUSH2 0x394 JUMPI PUSH2 0x9FD DUP2 PUSH1 0x1 PUSH2 0xA1B SWAP4 ADD PUSH1 0xA SSTORE PUSH1 0xA PUSH2 0x30BB JUMP JUMPDEST DUP2 SLOAD CALLER PUSH1 0x3 SWAP3 SWAP1 SWAP3 SHL SWAP2 DUP3 SHL PUSH1 0x1 PUSH1 0x1 PUSH1 0xA0 SHL SUB SWAP1 SWAP3 SHL NOT AND OR SWAP1 SSTORE JUMP JUMPDEST PUSH2 0xA26 PUSH1 0x6 SLOAD PUSH2 0x36F1 JUMP JUMPDEST PUSH1 0x6 SSTORE STOP JUMPDEST ADD MLOAD SWAP1 POP DUP9 DUP1 PUSH2 0x989 JUMP JUMPDEST PUSH1 0x1F NOT DUP3 AND SWAP8 DUP4 PUSH1 0x0 MSTORE DUP2 PUSH1 0x0 KECCAK256 SWAP9 PUSH1 0x0 JUMPDEST DUP2 DUP2 LT PUSH2 0xA88 JUMPI POP SWAP2 PUSH1 0x7 SWAP8 SWAP9 SWAP10 SWAP2 DUP5 PUSH1 0x1 SWAP6 SWAP5 LT PUSH2 0xA6F JUMPI JUMPDEST POP POP POP DUP2 SHL ADD SWAP1 SSTORE PUSH2 0x99E JUMP JUMPDEST ADD MLOAD PUSH1 0x0 NOT PUSH1 0xF8 DUP5 PUSH1 0x3 SHL AND SHR NOT AND SWAP1 SSTORE DUP9 DUP1 DUP1 PUSH2 0xA62 JUMP JUMPDEST DUP4 DUP4 ADD MLOAD DUP12 SSTORE PUSH1 0x1 SWAP1 SWAP11 ADD SWAP10 PUSH1 0x20 SWAP4 DUP5 ADD SWAP4 ADD PUSH2 0xA48 JUMP JUMPDEST DUP3 PUSH1 0x0 MSTORE PUSH1 0x20 PUSH1 0x0 KECCAK256 PUSH1 0x1F DUP4 ADD PUSH1 0x5 SHR DUP2 ADD SWAP2 PUSH1 0x20 DUP5 LT PUSH2 0xADE JUMPI JUMPDEST PUSH1 0x1F ADD PUSH1 0x5 SHR ADD SWAP1 JUMPDEST DUP2 DUP2 LT PUSH2 0xAD2 JUMPI POP PUSH2 0x96C JUMP JUMPDEST PUSH1 0x0 DUP2 SSTORE PUSH1 0x1 ADD PUSH2 0xAC5 JUMP JUMPDEST SWAP1 SWAP2 POP DUP2 SWAP1 PUSH2 0xABC JUMP JUMPDEST ADD MLOAD SWAP1 POP DUP9 DUP1 PUSH2 0x92D JUMP JUMPDEST PUSH1 0x0 DUP6 DUP2 MSTORE DUP3 DUP2 KECCAK256 SWAP4 POP PUSH1 0x1F NOT DUP6 AND SWAP1 JUMPDEST DUP2 DUP2 LT PUSH2 0xB40 JUMPI POP SWAP1 DUP5 PUSH1 0x1 SWAP6 SWAP5 SWAP4 SWAP3 LT PUSH2 0xB27 JUMPI JUMPDEST POP POP POP DUP2 SHL ADD SWAP1 SSTORE PUSH2 0x942 JUMP JUMPDEST ADD MLOAD PUSH1 0x0 NOT PUSH1 0xF8 DUP5 PUSH1 0x3 SHL AND SHR NOT AND SWAP1 SSTORE DUP9 DUP1 DUP1 PUSH2 0xB1A JUMP JUMPDEST SWAP3 SWAP4 PUSH1 0x20 PUSH1 0x1 DUP2 SWAP3 DUP8 DUP7 ADD MLOAD DUP2 SSTORE ADD SWAP6 ADD SWAP4 ADD PUSH2 0xB04 JUMP JUMPDEST SWAP1 SWAP2 POP DUP4 PUSH1 0x0 MSTORE PUSH1 0x20 PUSH1 0x0 KECCAK256 PUSH1 0x1F DUP5 ADD PUSH1 0x5 SHR DUP2 ADD SWAP2 PUSH1 0x20 DUP6 LT PUSH2 0xBA1 JUMPI JUMPDEST SWAP1 PUSH1 0x1F DUP6 SWAP5 SWAP4 SWAP3 ADD PUSH1 0x5 SHR ADD SWAP1 JUMPDEST DUP2 DUP2 LT PUSH2 0xB92 JUMPI POP PUSH2 0x916 JUMP JUMPDEST PUSH1 0x0 DUP2 SSTORE DUP5 SWAP4 POP PUSH1 0x1 ADD PUSH2 0xB85 JUMP JUMPDEST SWAP1 SWAP2 POP DUP2 SWAP1 PUSH2 0xB77 JUMP JUMPDEST ADD MLOAD SWAP1 POP DUP10 DUP1 PUSH2 0x8D6 JUMP JUMPDEST PUSH1 0x0 DUP6 DUP2 MSTORE DUP3 DUP2 KECCAK256 SWAP4 POP PUSH1 0x1F NOT DUP6 AND SWAP1 JUMPDEST DUP2 DUP2 LT PUSH2 0xC03 JUMPI POP SWAP1 DUP5 PUSH1 0x1 SWAP6 SWAP5 SWAP4 SWAP3 LT PUSH2 0xBEA JUMPI JUMPDEST POP POP POP DUP2 SHL ADD SWAP1 SSTORE PUSH2 0x8EB JUMP JUMPDEST ADD MLOAD PUSH1 0x0 NOT PUSH1 0xF8 DUP5 PUSH1 0x3 SHL AND SHR NOT AND SWAP1 SSTORE DUP10 DUP1 DUP1 PUSH2 0xBDD JUMP JUMPDEST SWAP3 SWAP4 PUSH1 0x20 PUSH1 0x1 DUP2 SWAP3 DUP8 DUP7 ADD MLOAD DUP2 SSTORE ADD SWAP6 ADD SWAP4 ADD PUSH2 0xBC7 JUMP JUMPDEST SWAP1 SWAP2 POP DUP4 PUSH1 0x0 MSTORE PUSH1 0x20 PUSH1 0x0 KECCAK256 PUSH1 0x1F DUP5 ADD PUSH1 0x5 SHR DUP2 ADD SWAP2 PUSH1 0x20 DUP6 LT PUSH2 0xC64 JUMPI JUMPDEST SWAP1 PUSH1 0x1F DUP6 SWAP5 SWAP4 SWAP3 ADD PUSH1 0x5 SHR ADD SWAP1 JUMPDEST DUP2 DUP2 LT PUSH2 0xC55 JUMPI POP PUSH2 0x8BF JUMP JUMPDEST PUSH1 0x0 DUP2 SSTORE DUP5 SWAP4 POP PUSH1 0x1 ADD PUSH2 0xC48 JUMP JUMPDEST SWAP1 SWAP2 POP DUP2 SWAP1 PUSH2 0xC3A JUMP JUMPDEST ADD MLOAD SWAP1 POP DUP12 DUP1 PUSH2 0x879 JUMP JUMPDEST PUSH1 0x0 DUP6 DUP2 MSTORE DUP3 DUP2 KECCAK256 SWAP4 POP PUSH1 0x1F NOT DUP6 AND SWAP1 JUMPDEST DUP2 DUP2 LT PUSH2 0xCC6 JUMPI POP SWAP1 DUP5 PUSH1 0x1 SWAP6 SWAP5 SWAP4 SWAP3 LT PUSH2 0xCAD JUMPI JUMPDEST POP POP POP DUP2 SHL ADD SWAP1 SSTORE PUSH2 0x88E JUMP JUMPDEST ADD MLOAD PUSH1 0x0 NOT PUSH1 0xF8 DUP5 PUSH1 0x3 SHL AND SHR NOT AND SWAP1 SSTORE DUP12 DUP1 DUP1 PUSH2 0xCA0 JUMP JUMPDEST SWAP3 SWAP4 PUSH1 0x20 PUSH1 0x1 DUP2 SWAP3 DUP8 DUP7 ADD MLOAD DUP2 SSTORE ADD SWAP6 ADD SWAP4 ADD PUSH2 0xC8A JUMP JUMPDEST SWAP1 SWAP2 POP DUP4 PUSH1 0x0 MSTORE PUSH1 0x20 PUSH1 0x0 KECCAK256 PUSH1 0x1F DUP5 ADD PUSH1 0x5 SHR DUP2 ADD SWAP2 PUSH1 0x20 DUP6 LT PUSH2 0xD27 JUMPI JUMPDEST SWAP1 PUSH1 0x1F DUP6 SWAP5 SWAP4 SWAP3 ADD PUSH1 0x5 SHR ADD SWAP1 JUMPDEST DUP2 DUP2 LT PUSH2 0xD18 JUMPI POP PUSH2 0x862 JUMP JUMPDEST PUSH1 0x0 DUP2 SSTORE DUP5 SWAP4 POP PUSH1 0x1 ADD PUSH2 0xD0B JUMP JUMPDEST SWAP1 SWAP2 POP DUP2 SWAP1 PUSH2 0xCFD JUMP JUMPDEST CALLVALUE PUSH2 0x4B9 JUMPI PUSH1 0x0 CALLDATASIZE PUSH1 0x3 NOT ADD SLT PUSH2 0x4B9 JUMPI PUSH2 0x6E4 PUSH2 0x79A PUSH2 0x37F8 JUMP JUMPDEST CALLVALUE PUSH2 0x4B9 JUMPI PUSH1 0x0 CALLDATASIZE PUSH1 0x3 NOT ADD SLT PUSH2 0x4B9 JUMPI PUSH1 0x20 PUSH1 0x4 SLOAD PUSH1 0x40 MLOAD SWAP1 DUP2 MSTORE RETURN JUMPDEST CALLVALUE PUSH2 0x4B9 JUMPI PUSH1 0x20 CALLDATASIZE PUSH1 0x3 NOT ADD SLT PUSH2 0x4B9 JUMPI PUSH1 0x1 PUSH1 0x1 PUSH1 0xA0 SHL SUB PUSH2 0xD8C PUSH2 0x33AB JUMP JUMPDEST AND PUSH1 0x0 MSTORE PUSH1 0x7 PUSH1 0x20 MSTORE PUSH1 0x20 PUSH1 0x40 PUSH1 0x0 KECCAK256 PUSH1 0xFF DUP2 SLOAD AND SWAP1 PUSH2 0x6E4 PUSH2 0xDB1 PUSH1 0x1 DUP4 ADD PUSH2 0x34E8 JUMP JUMPDEST PUSH2 0xE3F PUSH1 0x2 DUP5 ADD SLOAD PUSH2 0xE31 PUSH2 0xDC8 PUSH1 0x3 DUP8 ADD PUSH2 0x34E8 JUMP JUMPDEST SWAP2 PUSH2 0xE23 PUSH2 0xDD8 PUSH1 0x4 DUP10 ADD PUSH2 0x34E8 JUMP JUMPDEST SWAP2 PUSH2 0xDE5 PUSH1 0x5 DUP11 ADD PUSH2 0x34E8 JUMP JUMPDEST SWAP5 PUSH2 0xE10 PUSH1 0x7 PUSH1 0x6 DUP13 ADD SLOAD SWAP12 ADD SLOAD SWAP9 PUSH2 0x120 PUSH1 0x40 MLOAD SWAP15 DUP16 SWAP15 DUP16 SWAP1 ISZERO ISZERO DUP2 MSTORE ADD MSTORE PUSH2 0x120 DUP14 ADD SWAP1 PUSH2 0x30D3 JUMP JUMPDEST SWAP2 PUSH1 0x40 DUP13 ADD MSTORE DUP11 DUP3 SUB PUSH1 0x60 DUP13 ADD MSTORE PUSH2 0x30D3 JUMP JUMPDEST SWAP1 DUP9 DUP3 SUB PUSH1 0x80 DUP11 ADD MSTORE PUSH2 0x30D3 JUMP JUMPDEST SWAP1 DUP7 DUP3 SUB PUSH1 0xA0 DUP9 ADD MSTORE PUSH2 0x30D3 JUMP JUMPDEST PUSH1 0xC0 DUP6 ADD SWAP4 SWAP1 SWAP4 MSTORE PUSH1 0x1 PUSH1 0x1 PUSH1 0xA0 SHL SUB DUP2 AND PUSH1 0xE0 DUP6 ADD MSTORE PUSH2 0x100 DUP5 ADD SWAP1 PUSH1 0xA0 SHR PUSH1 0xFF AND PUSH2 0x3114 JUMP JUMPDEST CALLVALUE PUSH2 0x4B9 JUMPI PUSH1 0x20 CALLDATASIZE PUSH1 0x3 NOT ADD SLT PUSH2 0x4B9 JUMPI PUSH1 0x4 CALLDATALOAD PUSH1 0xB SLOAD DUP2 LT ISZERO PUSH2 0x4B9 JUMPI PUSH2 0xE90 PUSH1 0x20 SWAP2 PUSH2 0x306A JUMP JUMPDEST SWAP1 SLOAD PUSH1 0x40 MLOAD PUSH1 0x3 SWAP3 SWAP1 SWAP3 SHL SHR PUSH1 0x1 PUSH1 0x1 PUSH1 0xA0 SHL SUB AND DUP2 MSTORE RETURN JUMPDEST CALLVALUE PUSH2 0x4B9 JUMPI PUSH1 0x0 CALLDATASIZE PUSH1 0x3 NOT ADD SLT PUSH2 0x4B9 JUMPI PUSH1 0xE SLOAD PUSH2 0xEC6 DUP2 PUSH2 0x36A1 JUMP JUMPDEST SWAP1 PUSH1 0x0 JUMPDEST DUP2 DUP2 LT PUSH2 0xEDF JUMPI PUSH1 0x40 MLOAD DUP1 PUSH2 0x6E4 DUP6 DUP3 PUSH2 0x32B8 JUMP JUMPDEST DUP1 PUSH2 0xEEB PUSH1 0x1 SWAP3 PUSH2 0x304F JUMP JUMPDEST DUP4 DUP1 PUSH1 0xA0 SHL SUB SWAP2 SLOAD SWAP1 PUSH1 0x3 SHL SHR AND PUSH1 0x0 MSTORE PUSH1 0x7 PUSH1 0x20 MSTORE PUSH1 0x40 PUSH1 0x0 KECCAK256 PUSH2 0xF96 PUSH1 0xFF PUSH1 0x7 PUSH1 0x40 MLOAD SWAP4 PUSH2 0xF1A DUP6 PUSH2 0x3318 JUMP JUMPDEST DUP3 DUP2 SLOAD AND ISZERO ISZERO DUP6 MSTORE PUSH2 0xF2D DUP8 DUP3 ADD PUSH2 0x34E8 JUMP JUMPDEST PUSH1 0x20 DUP7 ADD MSTORE PUSH1 0x2 DUP2 ADD SLOAD PUSH1 0x40 DUP7 ADD MSTORE PUSH2 0xF48 PUSH1 0x3 DUP3 ADD PUSH2 0x34E8 JUMP JUMPDEST PUSH1 0x60 DUP7 ADD MSTORE PUSH2 0xF59 PUSH1 0x4 DUP3 ADD PUSH2 0x34E8 JUMP JUMPDEST PUSH1 0x80 DUP7 ADD MSTORE PUSH2 0xF6A PUSH1 0x5 DUP3 ADD PUSH2 0x34E8 JUMP JUMPDEST PUSH1 0xA0 DUP7 ADD MSTORE PUSH1 0x6 DUP2 ADD SLOAD PUSH1 0xC0 DUP7 ADD MSTORE ADD SLOAD DUP6 DUP1 PUSH1 0xA0 SHL SUB DUP2 AND PUSH1 0xE0 DUP6 ADD MSTORE PUSH1 0xA0 SHR AND PUSH2 0x100 DUP4 ADD PUSH2 0x364E JUMP JUMPDEST PUSH2 0xFA0 DUP3 DUP7 PUSH2 0x363A JUMP JUMPDEST MSTORE PUSH2 0xFAB DUP2 DUP6 PUSH2 0x363A JUMP JUMPDEST POP ADD PUSH2 0xECA JUMP JUMPDEST CALLVALUE PUSH2 0x4B9 JUMPI PUSH1 0x0 CALLDATASIZE PUSH1 0x3 NOT ADD SLT PUSH2 0x4B9 JUMPI PUSH1 0x0 SLOAD PUSH1 0x40 MLOAD PUSH1 0x1 PUSH1 0x1 PUSH1 0xA0 SHL SUB SWAP1 SWAP2 AND DUP2 MSTORE PUSH1 0x20 SWAP1 RETURN JUMPDEST CALLVALUE PUSH2 0x4B9 JUMPI PUSH1 0x20 CALLDATASIZE PUSH1 0x3 NOT ADD SLT PUSH2 0x4B9 JUMPI PUSH1 0x1 PUSH1 0x1 PUSH1 0xA0 SHL SUB PUSH2 0xFFC PUSH2 0x33AB JUMP JUMPDEST AND PUSH1 0x0 MSTORE PUSH1 0x8 PUSH1 0x20 MSTORE PUSH1 0x40 PUSH1 0x0 KECCAK256 PUSH2 0x120 PUSH2 0x1016 DUP3 PUSH2 0x34E8 JUMP JUMPDEST SWAP2 PUSH2 0x6E4 PUSH2 0x1026 PUSH1 0x1 DUP4 ADD PUSH2 0x34E8 JUMP JUMPDEST PUSH1 0x2 DUP4 ADD SLOAD SWAP3 PUSH2 0x10A4 PUSH2 0x103B PUSH1 0x3 DUP4 ADD PUSH2 0x34E8 JUMP JUMPDEST SWAP5 PUSH2 0x1096 PUSH2 0x104B PUSH1 0x4 DUP6 ADD PUSH2 0x34E8 JUMP JUMPDEST SWAP2 PUSH1 0x5 DUP6 ADD SLOAD SWAP8 PUSH2 0x1083 PUSH1 0x7 PUSH1 0x6 DUP9 ADD SLOAD SWAP8 ADD SLOAD SWAP8 PUSH2 0x1075 PUSH1 0x40 MLOAD SWAP14 DUP14 DUP16 SWAP15 DUP16 SWAP1 DUP2 MSTORE ADD SWAP1 PUSH2 0x30D3 JUMP JUMPDEST DUP13 DUP2 SUB PUSH1 0x20 DUP15 ADD MSTORE SWAP1 PUSH2 0x30D3 JUMP JUMPDEST SWAP2 PUSH1 0x40 DUP12 ADD MSTORE DUP10 DUP3 SUB PUSH1 0x60 DUP12 ADD MSTORE PUSH2 0x30D3 JUMP JUMPDEST SWAP1 DUP8 DUP3 SUB PUSH1 0x80 DUP10 ADD MSTORE PUSH2 0x30D3 JUMP JUMPDEST SWAP4 PUSH1 0xA0 DUP7 ADD MSTORE PUSH1 0xC0 DUP6 ADD MSTORE PUSH1 0x1 DUP1 PUSH1 0xA0 SHL SUB DUP2 AND PUSH1 0xE0 DUP6 ADD MSTORE PUSH1 0xFF PUSH2 0x100 DUP6 ADD SWAP2 PUSH1 0xA0 SHR AND PUSH2 0x3114 JUMP JUMPDEST CALLVALUE PUSH2 0x4B9 JUMPI PUSH1 0x0 CALLDATASIZE PUSH1 0x3 NOT ADD SLT PUSH2 0x4B9 JUMPI PUSH1 0xF SLOAD PUSH2 0x10EB DUP2 PUSH2 0x36A1 JUMP JUMPDEST SWAP1 PUSH1 0x0 JUMPDEST DUP2 DUP2 LT PUSH2 0x1104 JUMPI PUSH1 0x40 MLOAD DUP1 PUSH2 0x6E4 DUP6 DUP3 PUSH2 0x32B8 JUMP JUMPDEST DUP1 PUSH2 0x1110 PUSH1 0x1 SWAP3 PUSH2 0x30A0 JUMP JUMPDEST DUP4 DUP1 PUSH1 0xA0 SHL SUB SWAP2 SLOAD SWAP1 PUSH1 0x3 SHL SHR AND PUSH1 0x0 MSTORE PUSH1 0x7 PUSH1 0x20 MSTORE PUSH1 0x40 PUSH1 0x0 KECCAK256 PUSH2 0x113F PUSH1 0xFF PUSH1 0x7 PUSH1 0x40 MLOAD SWAP4 PUSH2 0xF1A DUP6 PUSH2 0x3318 JUMP JUMPDEST PUSH2 0x1149 DUP3 DUP7 PUSH2 0x363A JUMP JUMPDEST MSTORE PUSH2 0x1154 DUP2 DUP6 PUSH2 0x363A JUMP JUMPDEST POP ADD PUSH2 0x10EF JUMP JUMPDEST CALLVALUE PUSH2 0x4B9 JUMPI PUSH1 0x0 CALLDATASIZE PUSH1 0x3 NOT ADD SLT PUSH2 0x4B9 JUMPI PUSH1 0x40 MLOAD PUSH1 0x0 PUSH1 0x1 SLOAD PUSH2 0x117D DUP2 PUSH2 0x34AE JUMP JUMPDEST DUP1 DUP5 MSTORE SWAP1 PUSH1 0x1 DUP2 AND SWAP1 DUP2 ISZERO PUSH2 0x1218 JUMPI POP PUSH1 0x1 EQ PUSH2 0x11B9 JUMPI JUMPDEST PUSH2 0x6E4 DUP4 PUSH2 0x11A5 DUP2 DUP6 SUB DUP3 PUSH2 0x3334 JUMP JUMPDEST PUSH1 0x40 MLOAD SWAP2 DUP3 SWAP2 PUSH1 0x20 DUP4 MSTORE PUSH1 0x20 DUP4 ADD SWAP1 PUSH2 0x30D3 JUMP JUMPDEST PUSH1 0x1 PUSH1 0x0 SWAP1 DUP2 MSTORE PUSH32 0xB10E2D527612073B26EECDFD717E6A320CF44B4AFAC2B0732D9FCBE2B7FA0CF6 SWAP4 SWAP3 POP SWAP1 JUMPDEST DUP1 DUP3 LT PUSH2 0x11FE JUMPI POP SWAP1 SWAP2 POP DUP2 ADD PUSH1 0x20 ADD PUSH2 0x11A5 PUSH2 0x1195 JUMP JUMPDEST SWAP2 SWAP3 PUSH1 0x1 DUP2 PUSH1 0x20 SWAP3 SLOAD DUP4 DUP6 DUP9 ADD ADD MSTORE ADD SWAP2 ADD SWAP1 SWAP3 SWAP2 PUSH2 0x11E6 JUMP JUMPDEST PUSH1 0xFF NOT AND PUSH1 0x20 DUP1 DUP7 ADD SWAP2 SWAP1 SWAP2 MSTORE SWAP2 ISZERO ISZERO PUSH1 0x5 SHL DUP5 ADD SWAP1 SWAP2 ADD SWAP2 POP PUSH2 0x11A5 SWAP1 POP PUSH2 0x1195 JUMP JUMPDEST CALLVALUE PUSH2 0x4B9 JUMPI PUSH1 0x20 CALLDATASIZE PUSH1 0x3 NOT ADD SLT PUSH2 0x4B9 JUMPI PUSH1 0x4 CALLDATALOAD PUSH1 0xA SLOAD DUP2 LT ISZERO PUSH2 0x4B9 JUMPI PUSH2 0xE90 PUSH1 0x20 SWAP2 PUSH2 0x3085 JUMP JUMPDEST CALLVALUE PUSH2 0x4B9 JUMPI PUSH1 0x20 CALLDATASIZE PUSH1 0x3 NOT ADD SLT PUSH2 0x4B9 JUMPI PUSH1 0x4 CALLDATALOAD PUSH1 0x1 PUSH1 0x1 PUSH1 0x40 SHL SUB DUP2 GT PUSH2 0x4B9 JUMPI PUSH2 0x1295 SWAP1 CALLDATASIZE SWAP1 PUSH1 0x4 ADD PUSH2 0x3355 JUMP JUMPDEST PUSH2 0x12AB PUSH1 0x2 SLOAD DUP1 ISZERO SWAP1 DUP2 ISZERO PUSH2 0x141C JUMPI JUMPDEST POP PUSH2 0x37A2 JUMP JUMPDEST CALLER PUSH1 0x0 MSTORE PUSH1 0x7 PUSH1 0x20 MSTORE PUSH1 0x40 PUSH1 0x0 KECCAK256 PUSH1 0x1 DUP1 PUSH1 0xA0 SHL SUB PUSH1 0x7 DUP3 ADD SLOAD AND ISZERO PUSH2 0x13D7 JUMPI PUSH1 0x1 ADD DUP2 MLOAD PUSH1 0x1 PUSH1 0x1 PUSH1 0x40 SHL SUB DUP2 GT PUSH2 0x394 JUMPI PUSH2 0x12E8 DUP3 SLOAD PUSH2 0x34AE JUMP JUMPDEST PUSH1 0x1F DUP2 GT PUSH2 0x138F JUMPI JUMPDEST POP PUSH1 0x20 SWAP3 PUSH1 0x1F DUP3 GT PUSH1 0x1 EQ PUSH2 0x132F JUMPI SWAP3 DUP2 SWAP3 SWAP4 PUSH1 0x0 SWAP3 PUSH2 0x1324 JUMPI JUMPDEST POP POP PUSH1 0x0 NOT PUSH1 0x3 DUP4 SWAP1 SHL SHR NOT AND PUSH1 0x1 SWAP2 SWAP1 SWAP2 SHL OR SWAP1 SSTORE STOP JUMPDEST ADD MLOAD SWAP1 POP DUP4 DUP1 PUSH2 0x130C JUMP JUMPDEST PUSH1 0x1F NOT DUP3 AND SWAP4 DUP4 PUSH1 0x0 MSTORE DUP1 PUSH1 0x0 KECCAK256 SWAP2 PUSH1 0x0 JUMPDEST DUP7 DUP2 LT PUSH2 0x1377 JUMPI POP DUP4 PUSH1 0x1 SWAP6 SWAP7 LT PUSH2 0x135E JUMPI JUMPDEST POP POP POP DUP2 SHL ADD SWAP1 SSTORE STOP JUMPDEST ADD MLOAD PUSH1 0x0 NOT PUSH1 0xF8 DUP5 PUSH1 0x3 SHL AND SHR NOT AND SWAP1 SSTORE DUP4 DUP1 DUP1 PUSH2 0x1354 JUMP JUMPDEST SWAP2 SWAP3 PUSH1 0x20 PUSH1 0x1 DUP2 SWAP3 DUP7 DUP6 ADD MLOAD DUP2 SSTORE ADD SWAP5 ADD SWAP3 ADD PUSH2 0x1341 JUMP JUMPDEST DUP3 PUSH1 0x0 MSTORE PUSH1 0x20 PUSH1 0x0 KECCAK256 PUSH1 0x1F DUP4 ADD PUSH1 0x5 SHR DUP2 ADD SWAP2 PUSH1 0x20 DUP5 LT PUSH2 0x13CD JUMPI JUMPDEST PUSH1 0x1F ADD PUSH1 0x5 SHR ADD SWAP1 JUMPDEST DUP2 DUP2 LT PUSH2 0x13C1 JUMPI POP PUSH2 0x12F1 JUMP JUMPDEST PUSH1 0x0 DUP2 SSTORE PUSH1 0x1 ADD PUSH2 0x13B4 JUMP JUMPDEST SWAP1 SWAP2 POP DUP2 SWAP1 PUSH2 0x13AB JUMP JUMPDEST PUSH1 0x40 MLOAD PUSH3 0x461BCD PUSH1 0xE5 SHL DUP2 MSTORE PUSH1 0x20 PUSH1 0x4 DUP3 ADD MSTORE PUSH1 0x18 PUSH1 0x24 DUP3 ADD MSTORE PUSH32 0x4E6F20766F746572206461746120617661696C61626C652E0000000000000000 PUSH1 0x44 DUP3 ADD MSTORE PUSH1 0x64 SWAP1 REVERT JUMPDEST SWAP1 POP TIMESTAMP LT DUP4 PUSH2 0x12A5 JUMP JUMPDEST CALLVALUE PUSH2 0x4B9 JUMPI PUSH2 0x1434 CALLDATASIZE PUSH2 0x3402 JUMP JUMPDEST SWAP1 PUSH2 0x144A PUSH1 0x1 DUP1 PUSH1 0xA0 SHL SUB PUSH1 0x0 SLOAD AND CALLER EQ PUSH2 0x3700 JUMP JUMPDEST PUSH1 0x1 PUSH1 0x1 PUSH1 0xA0 SHL SUB DUP2 DUP2 AND PUSH1 0x0 DUP2 DUP2 MSTORE PUSH1 0x8 PUSH1 0x20 MSTORE PUSH1 0x40 SWAP1 KECCAK256 PUSH1 0x7 DUP2 ADD DUP1 SLOAD SWAP3 SWAP5 SWAP4 SWAP1 SWAP3 AND ISZERO PUSH2 0x164B JUMPI DUP2 SLOAD PUSH1 0xFF PUSH1 0xA0 SHL NOT AND PUSH1 0x1 PUSH1 0xA0 SHL OR SWAP1 SWAP2 SSTORE DUP4 MLOAD PUSH1 0x1 SWAP2 SWAP1 SWAP2 ADD SWAP1 PUSH1 0x1 PUSH1 0x1 PUSH1 0x40 SHL SUB DUP2 GT PUSH2 0x394 JUMPI PUSH2 0x14A7 DUP3 SLOAD PUSH2 0x34AE JUMP JUMPDEST PUSH1 0x1F DUP2 GT PUSH2 0x1603 JUMPI JUMPDEST POP PUSH1 0x20 SWAP5 PUSH1 0x1F DUP3 GT PUSH1 0x1 EQ PUSH2 0x159E JUMPI SWAP5 DUP2 SWAP3 SWAP4 SWAP5 SWAP6 PUSH1 0x0 SWAP3 PUSH2 0x1593 JUMPI JUMPDEST POP POP DUP2 PUSH1 0x1 SHL SWAP2 PUSH1 0x0 NOT SWAP1 PUSH1 0x3 SHL SHR NOT AND OR SWAP1 SSTORE JUMPDEST PUSH1 0xB SLOAD SWAP1 PUSH1 0x1 PUSH1 0x40 SHL DUP3 LT ISZERO PUSH2 0x394 JUMPI PUSH2 0x2A1 DUP3 PUSH1 0x1 PUSH2 0x1507 SWAP5 ADD PUSH1 0xB SSTORE PUSH1 0xB PUSH2 0x30BB JUMP JUMPDEST PUSH1 0x0 JUMPDEST PUSH1 0xD SLOAD DUP1 DUP3 LT ISZERO PUSH2 0x392 JUMPI DUP3 PUSH2 0x151F DUP4 PUSH2 0x3019 JUMP JUMPDEST SWAP1 SLOAD PUSH1 0x3 SWAP2 SWAP1 SWAP2 SHL SHR PUSH1 0x1 PUSH1 0x1 PUSH1 0xA0 SHL SUB AND EQ PUSH2 0x153F JUMPI POP PUSH1 0x1 ADD PUSH2 0x150A JUMP JUMPDEST PUSH1 0x0 NOT DUP2 ADD SWAP3 POP DUP3 GT PUSH2 0x37C JUMPI PUSH2 0x2A1 PUSH2 0x155B PUSH2 0x1573 SWAP4 PUSH2 0x3019 JUMP JUMPDEST SWAP1 SLOAD PUSH1 0x3 SWAP2 SWAP1 SWAP2 SHL SHR PUSH1 0x1 PUSH1 0x1 PUSH1 0xA0 SHL SUB AND SWAP2 PUSH2 0x3019 JUMP JUMPDEST PUSH1 0xD SLOAD DUP1 ISZERO PUSH2 0x366 JUMPI PUSH1 0x0 NOT ADD PUSH2 0x158E PUSH2 0x34C DUP3 PUSH1 0xD PUSH2 0x30BB JUMP JUMPDEST PUSH1 0xD SSTORE STOP JUMPDEST ADD MLOAD SWAP1 POP DUP6 DUP1 PUSH2 0x14CD JUMP JUMPDEST PUSH1 0x1F NOT DUP3 AND SWAP6 DUP4 PUSH1 0x0 MSTORE DUP1 PUSH1 0x0 KECCAK256 SWAP2 PUSH1 0x0 JUMPDEST DUP9 DUP2 LT PUSH2 0x15EB JUMPI POP DUP4 PUSH1 0x1 SWAP6 SWAP7 SWAP8 SWAP9 LT PUSH2 0x15D2 JUMPI JUMPDEST POP POP POP DUP2 SHL ADD SWAP1 SSTORE PUSH2 0x14E2 JUMP JUMPDEST ADD MLOAD PUSH1 0x0 NOT PUSH1 0xF8 DUP5 PUSH1 0x3 SHL AND SHR NOT AND SWAP1 SSTORE DUP6 DUP1 DUP1 PUSH2 0x15C5 JUMP JUMPDEST SWAP2 SWAP3 PUSH1 0x20 PUSH1 0x1 DUP2 SWAP3 DUP7 DUP6 ADD MLOAD DUP2 SSTORE ADD SWAP5 ADD SWAP3 ADD PUSH2 0x15B0 JUMP JUMPDEST DUP3 PUSH1 0x0 MSTORE PUSH1 0x20 PUSH1 0x0 KECCAK256 PUSH1 0x1F DUP4 ADD PUSH1 0x5 SHR DUP2 ADD SWAP2 PUSH1 0x20 DUP5 LT PUSH2 0x1641 JUMPI JUMPDEST PUSH1 0x1F ADD PUSH1 0x5 SHR ADD SWAP1 JUMPDEST DUP2 DUP2 LT PUSH2 0x1635 JUMPI POP PUSH2 0x14B0 JUMP JUMPDEST PUSH1 0x0 DUP2 SSTORE PUSH1 0x1 ADD PUSH2 0x1628 JUMP JUMPDEST SWAP1 SWAP2 POP DUP2 SWAP1 PUSH2 0x161F JUMP JUMPDEST PUSH1 0x40 MLOAD PUSH3 0x461BCD PUSH1 0xE5 SHL DUP2 MSTORE PUSH1 0x20 PUSH1 0x4 DUP3 ADD MSTORE PUSH1 0x2D PUSH1 0x24 DUP3 ADD MSTORE PUSH32 0x546869732063616E64696461746520646F6573206E6F74206170706561722069 PUSH1 0x44 DUP3 ADD MSTORE PUSH13 0x371037BAB91039BCB9BA32B697 PUSH1 0x99 SHL PUSH1 0x64 DUP3 ADD MSTORE PUSH1 0x84 SWAP1 REVERT JUMPDEST CALLVALUE PUSH2 0x4B9 JUMPI PUSH1 0x20 CALLDATASIZE PUSH1 0x3 NOT ADD SLT PUSH2 0x4B9 JUMPI PUSH1 0x4 CALLDATALOAD PUSH1 0x1 PUSH1 0x1 PUSH1 0x40 SHL SUB DUP2 GT PUSH2 0x4B9 JUMPI PUSH2 0x16D6 SWAP1 CALLDATASIZE SWAP1 PUSH1 0x4 ADD PUSH2 0x3355 JUMP JUMPDEST PUSH2 0x16EB PUSH1 0x2 SLOAD DUP1 ISZERO SWAP1 DUP2 ISZERO PUSH2 0x141C JUMPI POP PUSH2 0x37A2 JUMP JUMPDEST CALLER PUSH1 0x0 SWAP1 DUP2 MSTORE PUSH1 0x8 PUSH1 0x20 MSTORE PUSH1 0x40 SWAP1 KECCAK256 PUSH1 0x7 DUP2 ADD SLOAD PUSH1 0x1 PUSH1 0x1 PUSH1 0xA0 SHL SUB AND ISZERO PUSH2 0x17F0 JUMPI DUP2 MLOAD PUSH1 0x1 PUSH1 0x1 PUSH1 0x40 SHL SUB DUP2 GT PUSH2 0x394 JUMPI PUSH2 0x1727 DUP3 SLOAD PUSH2 0x34AE JUMP JUMPDEST PUSH1 0x1F DUP2 GT PUSH2 0x17A8 JUMPI JUMPDEST POP PUSH1 0x20 SWAP3 PUSH1 0x1F DUP3 GT PUSH1 0x1 EQ PUSH2 0x1762 JUMPI SWAP3 DUP2 SWAP3 SWAP4 PUSH1 0x0 SWAP3 PUSH2 0x1324 JUMPI POP POP PUSH1 0x0 NOT PUSH1 0x3 DUP4 SWAP1 SHL SHR NOT AND PUSH1 0x1 SWAP2 SWAP1 SWAP2 SHL OR SWAP1 SSTORE STOP JUMPDEST PUSH1 0x1F NOT DUP3 AND SWAP4 DUP4 PUSH1 0x0 MSTORE DUP1 PUSH1 0x0 KECCAK256 SWAP2 PUSH1 0x0 JUMPDEST DUP7 DUP2 LT PUSH2 0x1790 JUMPI POP DUP4 PUSH1 0x1 SWAP6 SWAP7 LT PUSH2 0x135E JUMPI POP POP POP DUP2 SHL ADD SWAP1 SSTORE STOP JUMPDEST SWAP2 SWAP3 PUSH1 0x20 PUSH1 0x1 DUP2 SWAP3 DUP7 DUP6 ADD MLOAD DUP2 SSTORE ADD SWAP5 ADD SWAP3 ADD PUSH2 0x1774 JUMP JUMPDEST DUP3 PUSH1 0x0 MSTORE PUSH1 0x20 PUSH1 0x0 KECCAK256 PUSH1 0x1F DUP4 ADD PUSH1 0x5 SHR DUP2 ADD SWAP2 PUSH1 0x20 DUP5 LT PUSH2 0x17E6 JUMPI JUMPDEST PUSH1 0x1F ADD PUSH1 0x5 SHR ADD SWAP1 JUMPDEST DUP2 DUP2 LT PUSH2 0x17DA JUMPI POP PUSH2 0x1730 JUMP JUMPDEST PUSH1 0x0 DUP2 SSTORE PUSH1 0x1 ADD PUSH2 0x17CD JUMP JUMPDEST SWAP1 SWAP2 POP DUP2 SWAP1 PUSH2 0x17C4 JUMP JUMPDEST PUSH1 0x40 MLOAD PUSH3 0x461BCD PUSH1 0xE5 SHL DUP2 MSTORE PUSH1 0x20 PUSH1 0x4 DUP3 ADD MSTORE PUSH1 0x1C PUSH1 0x24 DUP3 ADD MSTORE PUSH32 0x4E6F2063616E646964617465206461746120617661696C61626C652E00000000 PUSH1 0x44 DUP3 ADD MSTORE PUSH1 0x64 SWAP1 REVERT JUMPDEST CALLVALUE PUSH2 0x4B9 JUMPI PUSH2 0x1843 CALLDATASIZE PUSH2 0x3441 JUMP JUMPDEST SWAP3 PUSH1 0x5 SLOAD SWAP2 PUSH1 0x40 MLOAD SWAP2 PUSH2 0x1855 DUP4 PUSH2 0x3318 JUMP JUMPDEST DUP3 MSTORE PUSH2 0x185F PUSH2 0x375D JUMP JUMPDEST SWAP3 PUSH1 0x20 DUP4 ADD SWAP4 DUP5 MSTORE PUSH1 0x40 DUP4 ADD SWAP5 DUP6 MSTORE PUSH1 0x60 DUP4 ADD SWAP2 DUP3 MSTORE PUSH1 0x80 DUP4 ADD SWAP6 DUP7 MSTORE PUSH1 0xA0 DUP4 ADD SWAP1 DUP2 MSTORE PUSH1 0xC0 DUP4 ADD SWAP2 PUSH1 0x0 DUP4 MSTORE PUSH1 0xE0 DUP5 ADD SWAP6 CALLER DUP8 MSTORE PUSH2 0x100 DUP6 ADD SWAP6 PUSH1 0x0 DUP8 MSTORE CALLER PUSH1 0x0 MSTORE PUSH1 0x8 PUSH1 0x20 MSTORE PUSH1 0x40 PUSH1 0x0 KECCAK256 SWAP6 MLOAD DUP1 MLOAD SWAP1 PUSH1 0x1 PUSH1 0x1 PUSH1 0x40 SHL SUB DUP3 GT PUSH2 0x394 JUMPI DUP2 SWAP1 PUSH2 0x18CB DUP10 SLOAD PUSH2 0x34AE JUMP JUMPDEST PUSH1 0x1F DUP2 GT PUSH2 0x1D38 JUMPI JUMPDEST POP PUSH1 0x20 SWAP1 PUSH1 0x1F DUP4 GT PUSH1 0x1 EQ PUSH2 0x1CD3 JUMPI PUSH1 0x0 SWAP3 PUSH2 0x1CC8 JUMPI JUMPDEST POP POP DUP2 PUSH1 0x1 SHL SWAP2 PUSH1 0x0 NOT SWAP1 PUSH1 0x3 SHL SHR NOT AND OR DUP7 SSTORE JUMPDEST MLOAD DUP1 MLOAD PUSH1 0x1 DUP8 ADD SWAP2 PUSH1 0x1 PUSH1 0x1 PUSH1 0x40 SHL SUB DUP3 GT PUSH2 0x394 JUMPI DUP2 SWAP1 PUSH2 0x1922 DUP5 SLOAD PUSH2 0x34AE JUMP JUMPDEST PUSH1 0x1F DUP2 GT PUSH2 0x1C75 JUMPI JUMPDEST POP PUSH1 0x20 SWAP1 PUSH1 0x1F DUP4 GT PUSH1 0x1 EQ PUSH2 0x1C10 JUMPI PUSH1 0x0 SWAP3 PUSH2 0x1C05 JUMPI JUMPDEST POP POP DUP2 PUSH1 0x1 SHL SWAP2 PUSH1 0x0 NOT SWAP1 PUSH1 0x3 SHL SHR NOT AND OR SWAP1 SSTORE JUMPDEST MLOAD PUSH1 0x2 DUP6 ADD SSTORE MLOAD DUP1 MLOAD PUSH1 0x3 DUP6 ADD SWAP2 PUSH1 0x1 PUSH1 0x1 PUSH1 0x40 SHL SUB DUP3 GT PUSH2 0x394 JUMPI DUP2 SWAP1 PUSH2 0x197F DUP5 SLOAD PUSH2 0x34AE JUMP JUMPDEST PUSH1 0x1F DUP2 GT PUSH2 0x1BB2 JUMPI JUMPDEST POP PUSH1 0x20 SWAP1 PUSH1 0x1F DUP4 GT PUSH1 0x1 EQ PUSH2 0x1B4D JUMPI PUSH1 0x0 SWAP3 PUSH2 0x1B42 JUMPI JUMPDEST POP POP DUP2 PUSH1 0x1 SHL SWAP2 PUSH1 0x0 NOT SWAP1 PUSH1 0x3 SHL SHR NOT AND OR SWAP1 SSTORE JUMPDEST PUSH1 0x4 DUP4 ADD SWAP6 MLOAD SWAP6 DUP7 MLOAD PUSH1 0x1 PUSH1 0x1 PUSH1 0x40 SHL SUB DUP2 GT PUSH2 0x394 JUMPI PUSH2 0x19D5 DUP3 SLOAD PUSH2 0x34AE JUMP JUMPDEST PUSH1 0x1F DUP2 GT PUSH2 0x1AFA JUMPI JUMPDEST POP PUSH1 0x20 PUSH1 0x1F DUP3 GT PUSH1 0x1 EQ PUSH2 0x1A90 JUMPI DUP2 SWAP1 PUSH1 0x7 SWAP8 SWAP9 SWAP10 PUSH1 0x0 SWAP3 PUSH2 0x1A85 JUMPI JUMPDEST POP POP DUP2 PUSH1 0x1 SHL SWAP2 PUSH1 0x0 NOT SWAP1 PUSH1 0x3 SHL SHR NOT AND OR SWAP1 SSTORE JUMPDEST MLOAD PUSH1 0x5 DUP4 ADD SSTORE MLOAD PUSH1 0x6 DUP3 ADD SSTORE SWAP3 MLOAD SWAP3 ADD DUP1 SLOAD PUSH1 0x1 PUSH1 0x1 PUSH1 0xA0 SHL SUB NOT AND PUSH1 0x1 PUSH1 0x1 PUSH1 0xA0 SHL SUB SWAP4 SWAP1 SWAP4 AND SWAP3 SWAP1 SWAP3 OR DUP3 SSTORE MLOAD PUSH1 0x3 DUP2 LT ISZERO PUSH2 0x72D JUMPI PUSH2 0x1A51 SWAP2 PUSH2 0x3739 JUMP JUMPDEST PUSH1 0x9 SLOAD PUSH1 0x1 PUSH1 0x40 SHL DUP2 LT ISZERO PUSH2 0x394 JUMPI PUSH2 0x9FD DUP2 PUSH1 0x1 PUSH2 0x1A75 SWAP4 ADD PUSH1 0x9 SSTORE PUSH1 0x9 PUSH2 0x30BB JUMP JUMPDEST PUSH2 0x1A80 PUSH1 0x5 SLOAD PUSH2 0x36F1 JUMP JUMPDEST PUSH1 0x5 SSTORE STOP JUMPDEST ADD MLOAD SWAP1 POP DUP10 DUP1 PUSH2 0x19FB JUMP JUMPDEST PUSH1 0x1F NOT DUP3 AND SWAP9 DUP4 PUSH1 0x0 MSTORE DUP2 PUSH1 0x0 KECCAK256 SWAP10 PUSH1 0x0 JUMPDEST DUP2 DUP2 LT PUSH2 0x1AE2 JUMPI POP SWAP2 PUSH1 0x7 SWAP9 SWAP10 SWAP11 SWAP2 DUP5 PUSH1 0x1 SWAP6 SWAP5 LT PUSH2 0x1AC9 JUMPI JUMPDEST POP POP POP DUP2 SHL ADD SWAP1 SSTORE PUSH2 0x1A10 JUMP JUMPDEST ADD MLOAD PUSH1 0x0 NOT PUSH1 0xF8 DUP5 PUSH1 0x3 SHL AND SHR NOT AND SWAP1 SSTORE DUP10 DUP1 DUP1 PUSH2 0x1ABC JUMP JUMPDEST DUP4 DUP4 ADD MLOAD DUP13 SSTORE PUSH1 0x1 SWAP1 SWAP12 ADD SWAP11 PUSH1 0x20 SWAP4 DUP5 ADD SWAP4 ADD PUSH2 0x1AA2 JUMP JUMPDEST DUP3 PUSH1 0x0 MSTORE PUSH1 0x20 PUSH1 0x0 KECCAK256 PUSH1 0x1F DUP4 ADD PUSH1 0x5 SHR DUP2 ADD SWAP2 PUSH1 0x20 DUP5 LT PUSH2 0x1B38 JUMPI JUMPDEST PUSH1 0x1F ADD PUSH1 0x5 SHR ADD SWAP1 JUMPDEST DUP2 DUP2 LT PUSH2 0x1B2C JUMPI POP PUSH2 0x19DE JUMP JUMPDEST PUSH1 0x0 DUP2 SSTORE PUSH1 0x1 ADD PUSH2 0x1B1F JUMP JUMPDEST SWAP1 SWAP2 POP DUP2 SWAP1 PUSH2 0x1B16 JUMP JUMPDEST ADD MLOAD SWAP1 POP DUP10 DUP1 PUSH2 0x199F JUMP JUMPDEST PUSH1 0x0 DUP6 DUP2 MSTORE DUP3 DUP2 KECCAK256 SWAP4 POP PUSH1 0x1F NOT DUP6 AND SWAP1 JUMPDEST DUP2 DUP2 LT PUSH2 0x1B9A JUMPI POP SWAP1 DUP5 PUSH1 0x1 SWAP6 SWAP5 SWAP4 SWAP3 LT PUSH2 0x1B81 JUMPI JUMPDEST POP POP POP DUP2 SHL ADD SWAP1 SSTORE PUSH2 0x19B4 JUMP JUMPDEST ADD MLOAD PUSH1 0x0 NOT PUSH1 0xF8 DUP5 PUSH1 0x3 SHL AND SHR NOT AND SWAP1 SSTORE DUP10 DUP1 DUP1 PUSH2 0x1B74 JUMP JUMPDEST SWAP3 SWAP4 PUSH1 0x20 PUSH1 0x1 DUP2 SWAP3 DUP8 DUP7 ADD MLOAD DUP2 SSTORE ADD SWAP6 ADD SWAP4 ADD PUSH2 0x1B5E JUMP JUMPDEST SWAP1 SWAP2 POP DUP4 PUSH1 0x0 MSTORE PUSH1 0x20 PUSH1 0x0 KECCAK256 PUSH1 0x1F DUP5 ADD PUSH1 0x5 SHR DUP2 ADD SWAP2 PUSH1 0x20 DUP6 LT PUSH2 0x1BFB JUMPI JUMPDEST SWAP1 PUSH1 0x1F DUP6 SWAP5 SWAP4 SWAP3 ADD PUSH1 0x5 SHR ADD SWAP1 JUMPDEST DUP2 DUP2 LT PUSH2 0x1BEC JUMPI POP PUSH2 0x1988 JUMP JUMPDEST PUSH1 0x0 DUP2 SSTORE DUP5 SWAP4 POP PUSH1 0x1 ADD PUSH2 0x1BDF JUMP JUMPDEST SWAP1 SWAP2 POP DUP2 SWAP1 PUSH2 0x1BD1 JUMP JUMPDEST ADD MLOAD SWAP1 POP DUP12 DUP1 PUSH2 0x1942 JUMP JUMPDEST PUSH1 0x0 DUP6 DUP2 MSTORE DUP3 DUP2 KECCAK256 SWAP4 POP PUSH1 0x1F NOT DUP6 AND SWAP1 JUMPDEST DUP2 DUP2 LT PUSH2 0x1C5D JUMPI POP SWAP1 DUP5 PUSH1 0x1 SWAP6 SWAP5 SWAP4 SWAP3 LT PUSH2 0x1C44 JUMPI JUMPDEST POP POP POP DUP2 SHL ADD SWAP1 SSTORE PUSH2 0x1957 JUMP JUMPDEST ADD MLOAD PUSH1 0x0 NOT PUSH1 0xF8 DUP5 PUSH1 0x3 SHL AND SHR NOT AND SWAP1 SSTORE DUP12 DUP1 DUP1 PUSH2 0x1C37 JUMP JUMPDEST SWAP3 SWAP4 PUSH1 0x20 PUSH1 0x1 DUP2 SWAP3 DUP8 DUP7 ADD MLOAD DUP2 SSTORE ADD SWAP6 ADD SWAP4 ADD PUSH2 0x1C21 JUMP JUMPDEST SWAP1 SWAP2 POP DUP4 PUSH1 0x0 MSTORE PUSH1 0x20 PUSH1 0x0 KECCAK256 PUSH1 0x1F DUP5 ADD PUSH1 0x5 SHR DUP2 ADD SWAP2 PUSH1 0x20 DUP6 LT PUSH2 0x1CBE JUMPI JUMPDEST SWAP1 PUSH1 0x1F DUP6 SWAP5 SWAP4 SWAP3 ADD PUSH1 0x5 SHR ADD SWAP1 JUMPDEST DUP2 DUP2 LT PUSH2 0x1CAF JUMPI POP PUSH2 0x192B JUMP JUMPDEST PUSH1 0x0 DUP2 SSTORE DUP5 SWAP4 POP PUSH1 0x1 ADD PUSH2 0x1CA2 JUMP JUMPDEST SWAP1 SWAP2 POP DUP2 SWAP1 PUSH2 0x1C94 JUMP JUMPDEST ADD MLOAD SWAP1 POP DUP12 DUP1 PUSH2 0x18EB JUMP JUMPDEST PUSH1 0x0 DUP11 DUP2 MSTORE DUP3 DUP2 KECCAK256 SWAP4 POP PUSH1 0x1F NOT DUP6 AND SWAP1 JUMPDEST DUP2 DUP2 LT PUSH2 0x1D20 JUMPI POP SWAP1 DUP5 PUSH1 0x1 SWAP6 SWAP5 SWAP4 SWAP3 LT PUSH2 0x1D07 JUMPI JUMPDEST POP POP POP DUP2 SHL ADD DUP7 SSTORE PUSH2 0x1900 JUMP JUMPDEST ADD MLOAD PUSH1 0x0 NOT PUSH1 0xF8 DUP5 PUSH1 0x3 SHL AND SHR NOT AND SWAP1 SSTORE DUP12 DUP1 DUP1 PUSH2 0x1CFA JUMP JUMPDEST SWAP3 SWAP4 PUSH1 0x20 PUSH1 0x1 DUP2 SWAP3 DUP8 DUP7 ADD MLOAD DUP2 SSTORE ADD SWAP6 ADD SWAP4 ADD PUSH2 0x1CE4 JUMP JUMPDEST SWAP1 SWAP2 POP DUP9 PUSH1 0x0 MSTORE PUSH1 0x20 PUSH1 0x0 KECCAK256 PUSH1 0x1F DUP5 ADD PUSH1 0x5 SHR DUP2 ADD SWAP2 PUSH1 0x20 DUP6 LT PUSH2 0x1D81 JUMPI JUMPDEST SWAP1 PUSH1 0x1F DUP6 SWAP5 SWAP4 SWAP3 ADD PUSH1 0x5 SHR ADD SWAP1 JUMPDEST DUP2 DUP2 LT PUSH2 0x1D72 JUMPI POP PUSH2 0x18D4 JUMP JUMPDEST PUSH1 0x0 DUP2 SSTORE DUP5 SWAP4 POP PUSH1 0x1 ADD PUSH2 0x1D65 JUMP JUMPDEST SWAP1 SWAP2 POP DUP2 SWAP1 PUSH2 0x1D57 JUMP JUMPDEST CALLVALUE PUSH2 0x4B9 JUMPI PUSH1 0x20 CALLDATASIZE PUSH1 0x3 NOT ADD SLT PUSH2 0x4B9 JUMPI PUSH2 0x1DA4 PUSH2 0x33AB JUMP JUMPDEST PUSH1 0x2 SLOAD TIMESTAMP LT PUSH2 0x1F58 JUMPI PUSH1 0x3 SLOAD TIMESTAMP GT PUSH2 0x1F20 JUMPI CALLER PUSH1 0x0 MSTORE PUSH1 0x7 PUSH1 0x20 MSTORE PUSH1 0x40 PUSH1 0x0 KECCAK256 PUSH1 0xFF PUSH1 0x7 DUP3 ADD SLOAD PUSH1 0xA0 SHR AND PUSH1 0x3 DUP2 LT ISZERO PUSH2 0x72D JUMPI PUSH1 0x1 SUB PUSH2 0x1EDB JUMPI DUP1 SLOAD SWAP2 PUSH1 0xFF DUP4 AND PUSH2 0x1E9D JUMPI PUSH1 0x1 DUP1 PUSH1 0xA0 SHL SUB AND PUSH1 0x0 MSTORE PUSH1 0x8 PUSH1 0x20 MSTORE PUSH1 0x40 PUSH1 0x0 KECCAK256 SWAP1 PUSH1 0xFF PUSH1 0x7 DUP4 ADD SLOAD PUSH1 0xA0 SHR AND PUSH1 0x3 DUP2 LT ISZERO PUSH2 0x72D JUMPI PUSH1 0x1 SUB PUSH2 0x1E58 JUMPI PUSH1 0x1 PUSH1 0x6 SWAP4 PUSH1 0xFF NOT AND OR SWAP1 SSTORE ADD PUSH2 0x1E32 DUP2 SLOAD PUSH2 0x36F1 JUMP JUMPDEST SWAP1 SSTORE PUSH1 0xF SLOAD PUSH1 0x1 PUSH1 0x40 SHL DUP2 LT ISZERO PUSH2 0x394 JUMPI PUSH2 0x9FD DUP2 PUSH1 0x1 PUSH2 0x392 SWAP4 ADD PUSH1 0xF SSTORE PUSH1 0xF PUSH2 0x30BB JUMP JUMPDEST PUSH1 0x40 MLOAD PUSH3 0x461BCD PUSH1 0xE5 SHL DUP2 MSTORE PUSH1 0x20 PUSH1 0x4 DUP3 ADD MSTORE PUSH1 0x1A PUSH1 0x24 DUP3 ADD MSTORE PUSH32 0x43616E646964617465206973206E6F742061636365707465642E000000000000 PUSH1 0x44 DUP3 ADD MSTORE PUSH1 0x64 SWAP1 REVERT JUMPDEST PUSH1 0x40 MLOAD PUSH3 0x461BCD PUSH1 0xE5 SHL DUP2 MSTORE PUSH1 0x20 PUSH1 0x4 DUP3 ADD MSTORE PUSH1 0x16 PUSH1 0x24 DUP3 ADD MSTORE PUSH22 0x165BDD481A185D9948185B1C9958591E481D9BDD1959 PUSH1 0x52 SHL PUSH1 0x44 DUP3 ADD MSTORE PUSH1 0x64 SWAP1 REVERT JUMPDEST PUSH1 0x40 MLOAD PUSH3 0x461BCD PUSH1 0xE5 SHL DUP2 MSTORE PUSH1 0x20 PUSH1 0x4 DUP3 ADD MSTORE PUSH1 0x1E PUSH1 0x24 DUP3 ADD MSTORE PUSH32 0x596F7520617265206E6F74206120636F6E6669726D656420766F7465722E0000 PUSH1 0x44 DUP3 ADD MSTORE PUSH1 0x64 SWAP1 REVERT JUMPDEST PUSH1 0x40 MLOAD PUSH3 0x461BCD PUSH1 0xE5 SHL DUP2 MSTORE PUSH1 0x20 PUSH1 0x4 DUP3 ADD MSTORE PUSH1 0x10 PUSH1 0x24 DUP3 ADD MSTORE PUSH16 0x159BDD1A5B99C81A185CC8195B991959 PUSH1 0x82 SHL PUSH1 0x44 DUP3 ADD MSTORE PUSH1 0x64 SWAP1 REVERT JUMPDEST PUSH1 0x40 MLOAD PUSH3 0x461BCD PUSH1 0xE5 SHL DUP2 MSTORE PUSH1 0x20 PUSH1 0x4 DUP3 ADD MSTORE PUSH1 0x1A PUSH1 0x24 DUP3 ADD MSTORE PUSH32 0x566F74696E6720686173206E6F74207374617274656420796574000000000000 PUSH1 0x44 DUP3 ADD MSTORE PUSH1 0x64 SWAP1 REVERT JUMPDEST CALLVALUE PUSH2 0x4B9 JUMPI PUSH1 0x0 CALLDATASIZE PUSH1 0x3 NOT ADD SLT PUSH2 0x4B9 JUMPI PUSH1 0xA SLOAD PUSH2 0x1FBA DUP2 PUSH2 0x36A1 JUMP JUMPDEST SWAP1 PUSH1 0x0 JUMPDEST DUP2 DUP2 LT PUSH2 0x1FD3 JUMPI PUSH1 0x40 MLOAD DUP1 PUSH2 0x6E4 DUP6 DUP3 PUSH2 0x32B8 JUMP JUMPDEST DUP1 PUSH2 0x1FDF PUSH1 0x1 SWAP3 PUSH2 0x3085 JUMP JUMPDEST DUP4 DUP1 PUSH1 0xA0 SHL SUB SWAP2 SLOAD SWAP1 PUSH1 0x3 SHL SHR AND PUSH1 0x0 MSTORE PUSH1 0x7 PUSH1 0x20 MSTORE PUSH1 0x40 PUSH1 0x0 KECCAK256 PUSH2 0x200E PUSH1 0xFF PUSH1 0x7 PUSH1 0x40 MLOAD SWAP4 PUSH2 0xF1A DUP6 PUSH2 0x3318 JUMP JUMPDEST PUSH2 0x2018 DUP3 DUP7 PUSH2 0x363A JUMP JUMPDEST MSTORE PUSH2 0x2023 DUP2 DUP6 PUSH2 0x363A JUMP JUMPDEST POP ADD PUSH2 0x1FBE JUMP JUMPDEST CALLVALUE PUSH2 0x4B9 JUMPI PUSH1 0x20 CALLDATASIZE PUSH1 0x3 NOT ADD SLT PUSH2 0x4B9 JUMPI PUSH1 0x4 CALLDATALOAD PUSH1 0xF SLOAD DUP2 LT ISZERO PUSH2 0x4B9 JUMPI PUSH2 0xE90 PUSH1 0x20 SWAP2 PUSH2 0x30A0 JUMP JUMPDEST CALLVALUE PUSH2 0x4B9 JUMPI PUSH1 0x20 CALLDATASIZE PUSH1 0x3 NOT ADD SLT PUSH2 0x4B9 JUMPI PUSH1 0x4 CALLDATALOAD PUSH1 0xD SLOAD DUP2 LT ISZERO PUSH2 0x4B9 JUMPI PUSH2 0xE90 PUSH1 0x20 SWAP2 PUSH2 0x3019 JUMP JUMPDEST CALLVALUE PUSH2 0x4B9 JUMPI PUSH1 0x20 CALLDATASIZE PUSH1 0x3 NOT ADD SLT PUSH2 0x4B9 JUMPI PUSH1 0x4 CALLDATALOAD PUSH2 0x20A5 PUSH1 0x1 DUP1 PUSH1 0xA0 SHL SUB PUSH1 0x0 SLOAD AND CALLER EQ PUSH2 0x3700 JUMP JUMPDEST PUSH1 0x4 SLOAD PUSH2 0x211E JUMPI PUSH1 0x3 SLOAD DUP2 GT ISZERO PUSH2 0x20BB JUMPI PUSH1 0x4 SSTORE STOP JUMPDEST PUSH1 0x40 MLOAD PUSH3 0x461BCD PUSH1 0xE5 SHL DUP2 MSTORE PUSH1 0x20 PUSH1 0x4 DUP3 ADD MSTORE PUSH1 0x35 PUSH1 0x24 DUP3 ADD MSTORE PUSH32 0x526573756C74207075626C69636174696F6E2074696D65206D75737420626520 PUSH1 0x44 DUP3 ADD MSTORE PUSH21 0x616674657220766F74696E6720656E642074696D65 PUSH1 0x58 SHL PUSH1 0x64 DUP3 ADD MSTORE PUSH1 0x84 SWAP1 REVERT JUMPDEST PUSH1 0x40 MLOAD PUSH3 0x461BCD PUSH1 0xE5 SHL DUP2 MSTORE PUSH1 0x20 PUSH1 0x4 DUP3 ADD MSTORE PUSH1 0x23 PUSH1 0x24 DUP3 ADD MSTORE PUSH32 0x526573756C74207075626C69636174696F6E2074696D6520616C726561647920 PUSH1 0x44 DUP3 ADD MSTORE PUSH3 0x1CD95D PUSH1 0xEA SHL PUSH1 0x64 DUP3 ADD MSTORE PUSH1 0x84 SWAP1 REVERT JUMPDEST CALLVALUE PUSH2 0x4B9 JUMPI PUSH2 0x217D CALLDATASIZE PUSH2 0x3402 JUMP JUMPDEST SWAP1 PUSH2 0x2193 PUSH1 0x1 DUP1 PUSH1 0xA0 SHL SUB PUSH1 0x0 SLOAD AND CALLER EQ PUSH2 0x3700 JUMP JUMPDEST PUSH1 0x1 PUSH1 0x1 PUSH1 0xA0 SHL SUB DUP2 DUP2 AND PUSH1 0x0 DUP2 DUP2 MSTORE PUSH1 0x8 PUSH1 0x20 MSTORE PUSH1 0x40 SWAP1 KECCAK256 PUSH1 0x7 DUP2 ADD DUP1 SLOAD SWAP3 SWAP5 SWAP4 SWAP1 SWAP3 AND ISZERO PUSH2 0x2394 JUMPI DUP2 SLOAD PUSH1 0xFF PUSH1 0xA0 SHL NOT AND PUSH1 0x1 PUSH1 0xA1 SHL OR SWAP1 SWAP2 SSTORE DUP4 MLOAD PUSH1 0x1 SWAP2 SWAP1 SWAP2 ADD SWAP1 PUSH1 0x1 PUSH1 0x1 PUSH1 0x40 SHL SUB DUP2 GT PUSH2 0x394 JUMPI PUSH2 0x21F0 DUP3 SLOAD PUSH2 0x34AE JUMP JUMPDEST PUSH1 0x1F DUP2 GT PUSH2 0x234C JUMPI JUMPDEST POP PUSH1 0x20 SWAP5 PUSH1 0x1F DUP3 GT PUSH1 0x1 EQ PUSH2 0x22E7 JUMPI SWAP5 DUP2 SWAP3 SWAP4 SWAP5 SWAP6 PUSH1 0x0 SWAP3 PUSH2 0x22DC JUMPI JUMPDEST POP POP DUP2 PUSH1 0x1 SHL SWAP2 PUSH1 0x0 NOT SWAP1 PUSH1 0x3 SHL SHR NOT AND OR SWAP1 SSTORE JUMPDEST PUSH1 0xD SLOAD SWAP1 PUSH1 0x1 PUSH1 0x40 SHL DUP3 LT ISZERO PUSH2 0x394 JUMPI PUSH2 0x2A1 DUP3 PUSH1 0x1 PUSH2 0x2250 SWAP5 ADD PUSH1 0xD SSTORE PUSH1 0xD PUSH2 0x30BB JUMP JUMPDEST PUSH1 0x0 JUMPDEST PUSH1 0xB SLOAD DUP1 DUP3 LT ISZERO PUSH2 0x392 JUMPI DUP3 PUSH2 0x2268 DUP4 PUSH2 0x306A JUMP JUMPDEST SWAP1 SLOAD PUSH1 0x3 SWAP2 SWAP1 SWAP2 SHL SHR PUSH1 0x1 PUSH1 0x1 PUSH1 0xA0 SHL SUB AND EQ PUSH2 0x2288 JUMPI POP PUSH1 0x1 ADD PUSH2 0x2253 JUMP JUMPDEST PUSH1 0x0 NOT DUP2 ADD SWAP3 POP DUP3 GT PUSH2 0x37C JUMPI PUSH2 0x2A1 PUSH2 0x22A4 PUSH2 0x22BC SWAP4 PUSH2 0x306A JUMP JUMPDEST SWAP1 SLOAD PUSH1 0x3 SWAP2 SWAP1 SWAP2 SHL SHR PUSH1 0x1 PUSH1 0x1 PUSH1 0xA0 SHL SUB AND SWAP2 PUSH2 0x306A JUMP JUMPDEST PUSH1 0xB SLOAD DUP1 ISZERO PUSH2 0x366 JUMPI PUSH1 0x0 NOT ADD PUSH2 0x22D7 PUSH2 0x34C DUP3 PUSH1 0xB PUSH2 0x30BB JUMP JUMPDEST PUSH1 0xB SSTORE STOP JUMPDEST ADD MLOAD SWAP1 POP DUP6 DUP1 PUSH2 0x2216 JUMP JUMPDEST PUSH1 0x1F NOT DUP3 AND SWAP6 DUP4 PUSH1 0x0 MSTORE DUP1 PUSH1 0x0 KECCAK256 SWAP2 PUSH1 0x0 JUMPDEST DUP9 DUP2 LT PUSH2 0x2334 JUMPI POP DUP4 PUSH1 0x1 SWAP6 SWAP7 SWAP8 SWAP9 LT PUSH2 0x231B JUMPI JUMPDEST POP POP POP DUP2 SHL ADD SWAP1 SSTORE PUSH2 0x222B JUMP JUMPDEST ADD MLOAD PUSH1 0x0 NOT PUSH1 0xF8 DUP5 PUSH1 0x3 SHL AND SHR NOT AND SWAP1 SSTORE DUP6 DUP1 DUP1 PUSH2 0x230E JUMP JUMPDEST SWAP2 SWAP3 PUSH1 0x20 PUSH1 0x1 DUP2 SWAP3 DUP7 DUP6 ADD MLOAD DUP2 SSTORE ADD SWAP5 ADD SWAP3 ADD PUSH2 0x22F9 JUMP JUMPDEST DUP3 PUSH1 0x0 MSTORE PUSH1 0x20 PUSH1 0x0 KECCAK256 PUSH1 0x1F DUP4 ADD PUSH1 0x5 SHR DUP2 ADD SWAP2 PUSH1 0x20 DUP5 LT PUSH2 0x238A JUMPI JUMPDEST PUSH1 0x1F ADD PUSH1 0x5 SHR ADD SWAP1 JUMPDEST DUP2 DUP2 LT PUSH2 0x237E JUMPI POP PUSH2 0x21F9 JUMP JUMPDEST PUSH1 0x0 DUP2 SSTORE PUSH1 0x1 ADD PUSH2 0x2371 JUMP JUMPDEST SWAP1 SWAP2 POP DUP2 SWAP1 PUSH2 0x2368 JUMP JUMPDEST PUSH1 0x40 MLOAD PUSH3 0x461BCD PUSH1 0xE5 SHL DUP2 MSTORE PUSH1 0x20 PUSH1 0x4 DUP3 ADD MSTORE PUSH1 0x1B PUSH1 0x24 DUP3 ADD MSTORE PUSH32 0x4E6F2063616E646964617465206461746120617661696C61626C650000000000 PUSH1 0x44 DUP3 ADD MSTORE PUSH1 0x64 SWAP1 REVERT JUMPDEST CALLVALUE PUSH2 0x4B9 JUMPI PUSH1 0x20 CALLDATASIZE PUSH1 0x3 NOT ADD SLT PUSH2 0x4B9 JUMPI PUSH2 0x23F2 PUSH2 0x33AB JUMP JUMPDEST PUSH2 0x23FA PUSH2 0x365A JUMP JUMPDEST POP PUSH1 0x1 DUP1 PUSH1 0xA0 SHL SUB AND PUSH1 0x0 MSTORE PUSH1 0x7 PUSH1 0x20 MSTORE PUSH1 0x40 PUSH1 0x0 KECCAK256 PUSH1 0x7 PUSH1 0x40 MLOAD SWAP2 PUSH2 0x241F DUP4 PUSH2 0x3318 JUMP JUMPDEST PUSH1 0xFF DUP2 SLOAD AND ISZERO ISZERO DUP4 MSTORE PUSH2 0x2434 PUSH1 0x1 DUP3 ADD PUSH2 0x34E8 JUMP JUMPDEST PUSH1 0x20 DUP5 ADD MSTORE PUSH1 0x2 DUP2 ADD SLOAD PUSH1 0x40 DUP5 ADD MSTORE PUSH2 0x244F PUSH1 0x3 DUP3 ADD PUSH2 0x34E8 JUMP JUMPDEST PUSH1 0x60 DUP5 ADD MSTORE PUSH2 0x2460 PUSH1 0x4 DUP3 ADD PUSH2 0x34E8 JUMP JUMPDEST PUSH1 0x80 DUP5 ADD MSTORE PUSH2 0x2471 PUSH1 0x5 DUP3 ADD PUSH2 0x34E8 JUMP JUMPDEST PUSH1 0xA0 DUP5 ADD MSTORE PUSH1 0x6 DUP2 ADD SLOAD PUSH1 0xC0 DUP5 ADD MSTORE ADD SLOAD PUSH1 0xE0 DUP3 ADD PUSH1 0x1 DUP1 PUSH1 0xA0 SHL SUB DUP3 AND DUP2 MSTORE PUSH2 0x24A6 PUSH1 0xFF PUSH2 0x100 DUP6 ADD SWAP4 PUSH1 0xA0 SHR AND DUP4 PUSH2 0x364E JUMP JUMPDEST MLOAD PUSH1 0x1 PUSH1 0x1 PUSH1 0xA0 SHL SUB AND ISZERO PUSH2 0x251C JUMPI MLOAD PUSH1 0x3 DUP2 LT ISZERO PUSH2 0x72D JUMPI PUSH1 0x0 NOT ADD PUSH2 0x24DF JUMPI PUSH2 0x6E4 SWAP1 PUSH1 0x40 MLOAD SWAP2 DUP3 SWAP2 PUSH1 0x20 DUP4 MSTORE PUSH1 0x20 DUP4 ADD SWAP1 PUSH2 0x321D JUMP JUMPDEST PUSH1 0x40 MLOAD PUSH3 0x461BCD PUSH1 0xE5 SHL DUP2 MSTORE PUSH1 0x20 PUSH1 0x4 DUP3 ADD MSTORE PUSH1 0x15 PUSH1 0x24 DUP3 ADD MSTORE PUSH21 0x159BDD195C881A5CC81B9BDD081858D8D95C1D1959 PUSH1 0x5A SHL PUSH1 0x44 DUP3 ADD MSTORE PUSH1 0x64 SWAP1 REVERT JUMPDEST PUSH1 0x40 MLOAD PUSH3 0x461BCD PUSH1 0xE5 SHL DUP2 MSTORE PUSH1 0x20 PUSH1 0x4 DUP3 ADD MSTORE PUSH1 0xF PUSH1 0x24 DUP3 ADD MSTORE PUSH15 0x159BDD195C881B9BDD08199BDD5B99 PUSH1 0x8A SHL PUSH1 0x44 DUP3 ADD MSTORE PUSH1 0x64 SWAP1 REVERT JUMPDEST CALLVALUE PUSH2 0x4B9 JUMPI PUSH1 0x20 CALLDATASIZE PUSH1 0x3 NOT ADD SLT PUSH2 0x4B9 JUMPI PUSH1 0x4 CALLDATALOAD PUSH1 0xC SLOAD DUP2 LT ISZERO PUSH2 0x4B9 JUMPI PUSH2 0xE90 PUSH1 0x20 SWAP2 PUSH2 0x3034 JUMP JUMPDEST CALLVALUE PUSH2 0x4B9 JUMPI PUSH2 0x258A CALLDATASIZE PUSH2 0x33C1 JUMP JUMPDEST PUSH1 0xA SLOAD SWAP1 PUSH1 0x20 DUP4 ADD SWAP1 PUSH1 0x0 DUP1 JUMPDEST DUP5 DUP2 LT PUSH2 0x26E6 JUMPI POP PUSH2 0x25A8 SWAP1 PUSH2 0x36A1 JUMP JUMPDEST SWAP4 PUSH1 0x0 SWAP2 PUSH1 0x0 JUMPDEST DUP6 DUP2 LT PUSH2 0x25C4 JUMPI PUSH1 0x40 MLOAD DUP1 PUSH2 0x6E4 DUP10 DUP3 PUSH2 0x32B8 JUMP JUMPDEST PUSH2 0x25CD DUP2 PUSH2 0x3085 JUMP JUMPDEST PUSH1 0x1 DUP1 PUSH1 0xA0 SHL SUB SWAP2 SLOAD SWAP1 PUSH1 0x3 SHL SHR AND PUSH1 0x0 MSTORE PUSH1 0x7 PUSH1 0x20 MSTORE PUSH1 0x40 PUSH1 0x0 KECCAK256 PUSH1 0x40 MLOAD SWAP1 PUSH2 0x25F6 DUP3 PUSH2 0x3318 JUMP JUMPDEST PUSH1 0xFF DUP2 SLOAD AND ISZERO ISZERO DUP3 MSTORE PUSH1 0x7 PUSH2 0x260D PUSH1 0x1 DUP4 ADD PUSH2 0x34E8 JUMP JUMPDEST SWAP2 PUSH1 0x20 DUP5 ADD SWAP3 DUP4 MSTORE PUSH1 0x2 DUP2 ADD SLOAD PUSH1 0x40 DUP6 ADD MSTORE PUSH2 0x262B PUSH1 0x3 DUP3 ADD PUSH2 0x34E8 JUMP JUMPDEST PUSH1 0x60 DUP6 ADD MSTORE PUSH2 0x263C PUSH1 0x4 DUP3 ADD PUSH2 0x34E8 JUMP JUMPDEST PUSH1 0x80 DUP6 ADD MSTORE PUSH2 0x264D PUSH1 0x5 DUP3 ADD PUSH2 0x34E8 JUMP JUMPDEST PUSH1 0xA0 DUP6 ADD MSTORE PUSH1 0x6 DUP2 ADD SLOAD PUSH1 0xC0 DUP6 ADD MSTORE ADD SLOAD SWAP1 PUSH2 0x2682 PUSH1 0xFF PUSH1 0xE0 DUP6 ADD SWAP4 PUSH1 0x1 DUP1 PUSH1 0xA0 SHL SUB DUP2 AND DUP6 MSTORE PUSH1 0xA0 SHR AND PUSH2 0x100 DUP6 ADD PUSH2 0x364E JUMP JUMPDEST MLOAD PUSH1 0x20 DUP2 MLOAD SWAP2 ADD KECCAK256 DUP6 MLOAD DUP9 KECCAK256 EQ SWAP1 DUP2 PUSH2 0x26CF JUMPI JUMPDEST POP PUSH2 0x26A5 JUMPI JUMPDEST POP PUSH1 0x1 ADD PUSH2 0x25AF JUMP JUMPDEST DUP5 PUSH2 0x26C8 SWAP2 PUSH2 0x26B7 PUSH1 0x1 SWAP5 SWAP8 DUP12 PUSH2 0x363A JUMP JUMPDEST MSTORE PUSH2 0x26C2 DUP2 DUP11 PUSH2 0x363A JUMP JUMPDEST POP PUSH2 0x36F1 JUMP JUMPDEST SWAP4 SWAP1 PUSH2 0x269C JUMP JUMPDEST MLOAD PUSH1 0x1 PUSH1 0x1 PUSH1 0xA0 SHL SUB DUP6 DUP2 AND SWAP2 AND EQ SWAP1 POP DUP10 PUSH2 0x2696 JUMP JUMPDEST PUSH2 0x26EF DUP2 PUSH2 0x3085 JUMP JUMPDEST PUSH1 0x1 DUP1 PUSH1 0xA0 SHL SUB SWAP2 SLOAD SWAP1 PUSH1 0x3 SHL SHR AND PUSH1 0x0 MSTORE PUSH1 0x7 PUSH1 0x20 MSTORE PUSH1 0x40 PUSH1 0x0 KECCAK256 PUSH1 0x40 MLOAD SWAP1 PUSH2 0x2718 DUP3 PUSH2 0x3318 JUMP JUMPDEST PUSH1 0xFF DUP2 SLOAD AND ISZERO ISZERO DUP3 MSTORE PUSH2 0x27A4 PUSH1 0x7 PUSH2 0x2732 PUSH1 0x1 DUP5 ADD PUSH2 0x34E8 JUMP JUMPDEST SWAP3 PUSH1 0x20 DUP6 ADD SWAP4 DUP5 MSTORE PUSH1 0x2 DUP2 ADD SLOAD PUSH1 0x40 DUP7 ADD MSTORE PUSH2 0x2750 PUSH1 0x3 DUP3 ADD PUSH2 0x34E8 JUMP JUMPDEST PUSH1 0x60 DUP7 ADD MSTORE PUSH2 0x2761 PUSH1 0x4 DUP3 ADD PUSH2 0x34E8 JUMP JUMPDEST PUSH1 0x80 DUP7 ADD MSTORE PUSH2 0x2772 PUSH1 0x5 DUP3 ADD PUSH2 0x34E8 JUMP JUMPDEST PUSH1 0xA0 DUP7 ADD MSTORE PUSH1 0x6 DUP2 ADD SLOAD PUSH1 0xC0 DUP7 ADD MSTORE ADD SLOAD SWAP3 PUSH2 0x100 PUSH1 0xFF PUSH1 0xE0 DUP4 ADD SWAP6 PUSH1 0x1 DUP1 PUSH1 0xA0 SHL SUB DUP2 AND DUP8 MSTORE PUSH1 0xA0 SHR AND SWAP2 ADD PUSH2 0x364E JUMP JUMPDEST MLOAD PUSH1 0x20 DUP2 MLOAD SWAP2 ADD KECCAK256 DUP8 MLOAD DUP7 KECCAK256 EQ SWAP1 DUP2 PUSH2 0x27DA JUMPI JUMPDEST POP PUSH2 0x27C6 JUMPI JUMPDEST PUSH1 0x1 ADD PUSH2 0x2597 JUMP JUMPDEST SWAP1 PUSH2 0x27D2 PUSH1 0x1 SWAP2 PUSH2 0x36F1 JUMP JUMPDEST SWAP2 SWAP1 POP PUSH2 0x27BE JUMP JUMPDEST MLOAD PUSH1 0x1 PUSH1 0x1 PUSH1 0xA0 SHL SUB DUP6 DUP2 AND SWAP2 AND EQ SWAP1 POP DUP8 PUSH2 0x27B8 JUMP JUMPDEST CALLVALUE PUSH2 0x4B9 JUMPI PUSH2 0x27FF CALLDATASIZE PUSH2 0x3402 JUMP JUMPDEST SWAP1 PUSH2 0x2815 PUSH1 0x1 DUP1 PUSH1 0xA0 SHL SUB PUSH1 0x0 SLOAD AND CALLER EQ PUSH2 0x3700 JUMP JUMPDEST PUSH1 0x1 PUSH1 0x1 PUSH1 0xA0 SHL SUB DUP2 DUP2 AND PUSH1 0x0 DUP2 DUP2 MSTORE PUSH1 0x7 PUSH1 0x20 DUP2 SWAP1 MSTORE PUSH1 0x40 SWAP1 SWAP2 KECCAK256 SWAP1 DUP2 ADD DUP1 SLOAD SWAP3 SWAP5 SWAP4 SWAP1 SWAP3 AND ISZERO PUSH2 0x2A18 JUMPI DUP2 SLOAD PUSH1 0xFF PUSH1 0xA0 SHL NOT AND PUSH1 0x1 PUSH1 0xA1 SHL OR SWAP1 SWAP2 SSTORE DUP4 MLOAD PUSH1 0x5 SWAP2 SWAP1 SWAP2 ADD SWAP1 PUSH1 0x1 PUSH1 0x1 PUSH1 0x40 SHL SUB DUP2 GT PUSH2 0x394 JUMPI PUSH2 0x2874 DUP3 SLOAD PUSH2 0x34AE JUMP JUMPDEST PUSH1 0x1F DUP2 GT PUSH2 0x29D0 JUMPI JUMPDEST POP PUSH1 0x20 SWAP5 PUSH1 0x1F DUP3 GT PUSH1 0x1 EQ PUSH2 0x296B JUMPI SWAP5 DUP2 SWAP3 SWAP4 SWAP5 SWAP6 PUSH1 0x0 SWAP3 PUSH2 0x2960 JUMPI JUMPDEST POP POP DUP2 PUSH1 0x1 SHL SWAP2 PUSH1 0x0 NOT SWAP1 PUSH1 0x3 SHL SHR NOT AND OR SWAP1 SSTORE JUMPDEST PUSH1 0xE SLOAD SWAP1 PUSH1 0x1 PUSH1 0x40 SHL DUP3 LT ISZERO PUSH2 0x394 JUMPI PUSH2 0x2A1 DUP3 PUSH1 0x1 PUSH2 0x28D4 SWAP5 ADD PUSH1 0xE SSTORE PUSH1 0xE PUSH2 0x30BB JUMP JUMPDEST PUSH1 0x0 JUMPDEST PUSH1 0xC SLOAD DUP1 DUP3 LT ISZERO PUSH2 0x392 JUMPI DUP3 PUSH2 0x28EC DUP4 PUSH2 0x3034 JUMP JUMPDEST SWAP1 SLOAD PUSH1 0x3 SWAP2 SWAP1 SWAP2 SHL SHR PUSH1 0x1 PUSH1 0x1 PUSH1 0xA0 SHL SUB AND EQ PUSH2 0x290C JUMPI POP PUSH1 0x1 ADD PUSH2 0x28D7 JUMP JUMPDEST PUSH1 0x0 NOT DUP2 ADD SWAP3 POP DUP3 GT PUSH2 0x37C JUMPI PUSH2 0x2A1 PUSH2 0x2928 PUSH2 0x2940 SWAP4 PUSH2 0x3034 JUMP JUMPDEST SWAP1 SLOAD PUSH1 0x3 SWAP2 SWAP1 SWAP2 SHL SHR PUSH1 0x1 PUSH1 0x1 PUSH1 0xA0 SHL SUB AND SWAP2 PUSH2 0x3034 JUMP JUMPDEST PUSH1 0xC SLOAD DUP1 ISZERO PUSH2 0x366 JUMPI PUSH1 0x0 NOT ADD PUSH2 0x295B PUSH2 0x34C DUP3 PUSH1 0xC PUSH2 0x30BB JUMP JUMPDEST PUSH1 0xC SSTORE STOP JUMPDEST ADD MLOAD SWAP1 POP DUP6 DUP1 PUSH2 0x289A JUMP JUMPDEST PUSH1 0x1F NOT DUP3 AND SWAP6 DUP4 PUSH1 0x0 MSTORE DUP1 PUSH1 0x0 KECCAK256 SWAP2 PUSH1 0x0 JUMPDEST DUP9 DUP2 LT PUSH2 0x29B8 JUMPI POP DUP4 PUSH1 0x1 SWAP6 SWAP7 SWAP8 SWAP9 LT PUSH2 0x299F JUMPI JUMPDEST POP POP POP DUP2 SHL ADD SWAP1 SSTORE PUSH2 0x28AF JUMP JUMPDEST ADD MLOAD PUSH1 0x0 NOT PUSH1 0xF8 DUP5 PUSH1 0x3 SHL AND SHR NOT AND SWAP1 SSTORE DUP6 DUP1 DUP1 PUSH2 0x2992 JUMP JUMPDEST SWAP2 SWAP3 PUSH1 0x20 PUSH1 0x1 DUP2 SWAP3 DUP7 DUP6 ADD MLOAD DUP2 SSTORE ADD SWAP5 ADD SWAP3 ADD PUSH2 0x297D JUMP JUMPDEST DUP3 PUSH1 0x0 MSTORE PUSH1 0x20 PUSH1 0x0 KECCAK256 PUSH1 0x1F DUP4 ADD PUSH1 0x5 SHR DUP2 ADD SWAP2 PUSH1 0x20 DUP5 LT PUSH2 0x2A0E JUMPI JUMPDEST PUSH1 0x1F ADD PUSH1 0x5 SHR ADD SWAP1 JUMPDEST DUP2 DUP2 LT PUSH2 0x2A02 JUMPI POP PUSH2 0x287D JUMP JUMPDEST PUSH1 0x0 DUP2 SSTORE PUSH1 0x1 ADD PUSH2 0x29F5 JUMP JUMPDEST SWAP1 SWAP2 POP DUP2 SWAP1 PUSH2 0x29EC JUMP JUMPDEST PUSH1 0x40 MLOAD PUSH3 0x461BCD PUSH1 0xE5 SHL DUP2 MSTORE PUSH1 0x20 PUSH1 0x4 DUP3 ADD MSTORE PUSH1 0x17 PUSH1 0x24 DUP3 ADD MSTORE PUSH32 0x4E6F20766F746572206461746120617661696C61626C65000000000000000000 PUSH1 0x44 DUP3 ADD MSTORE PUSH1 0x64 SWAP1 REVERT JUMPDEST CALLVALUE PUSH2 0x4B9 JUMPI PUSH2 0x2A6B CALLDATASIZE PUSH2 0x33C1 JUMP JUMPDEST PUSH1 0x9 SLOAD PUSH1 0x20 DUP4 ADD SWAP3 SWAP1 SWAP2 PUSH1 0x0 DUP1 JUMPDEST DUP5 DUP2 LT PUSH2 0x2BAF JUMPI POP PUSH2 0x2A8A SWAP1 PUSH2 0x35EA JUMP JUMPDEST SWAP4 PUSH1 0x0 SWAP2 PUSH1 0x0 JUMPDEST DUP6 DUP2 LT PUSH2 0x2AA6 JUMPI PUSH1 0x40 MLOAD DUP1 PUSH2 0x6E4 DUP10 DUP3 PUSH2 0x31BD JUMP JUMPDEST PUSH2 0x2AAF DUP2 PUSH2 0x2FE8 JUMP JUMPDEST PUSH1 0x1 DUP1 PUSH1 0xA0 SHL SUB SWAP2 SLOAD SWAP1 PUSH1 0x3 SHL SHR AND PUSH1 0x0 MSTORE PUSH1 0x8 PUSH1 0x20 MSTORE PUSH1 0x40 PUSH1 0x0 KECCAK256 PUSH1 0x7 PUSH1 0x40 MLOAD SWAP2 PUSH2 0x2ADA DUP4 PUSH2 0x3318 JUMP JUMPDEST PUSH2 0x2AE3 DUP2 PUSH2 0x34E8 JUMP JUMPDEST DUP4 MSTORE PUSH2 0x2AF1 PUSH1 0x1 DUP3 ADD PUSH2 0x34E8 JUMP JUMPDEST PUSH1 0x20 DUP5 ADD MSTORE PUSH1 0x2 DUP2 ADD SLOAD PUSH1 0x40 DUP5 ADD MSTORE PUSH2 0x2B0C PUSH1 0x3 DUP3 ADD PUSH2 0x34E8 JUMP JUMPDEST PUSH1 0x60 DUP5 ADD MSTORE PUSH2 0x2B1D PUSH1 0x4 DUP3 ADD PUSH2 0x34E8 JUMP JUMPDEST PUSH1 0x80 DUP5 ADD MSTORE PUSH1 0x5 DUP2 ADD SLOAD PUSH1 0xA0 DUP5 ADD MSTORE PUSH1 0x6 DUP2 ADD SLOAD PUSH1 0xC0 DUP5 ADD MSTORE ADD SLOAD PUSH2 0x2B5B PUSH1 0xFF PUSH1 0xE0 DUP5 ADD SWAP3 PUSH1 0x1 DUP1 PUSH1 0xA0 SHL SUB DUP2 AND DUP5 MSTORE PUSH1 0xA0 SHR AND PUSH2 0x100 DUP5 ADD PUSH2 0x364E JUMP JUMPDEST DUP2 MLOAD PUSH1 0x20 DUP2 MLOAD SWAP2 ADD KECCAK256 DUP8 MLOAD DUP7 KECCAK256 EQ SWAP1 DUP2 PUSH2 0x2B98 JUMPI JUMPDEST POP PUSH2 0x2B7F JUMPI JUMPDEST POP PUSH1 0x1 ADD PUSH2 0x2A91 JUMP JUMPDEST DUP5 PUSH2 0x2B91 SWAP2 PUSH2 0x26B7 PUSH1 0x1 SWAP5 SWAP8 DUP12 PUSH2 0x363A JUMP JUMPDEST SWAP4 SWAP1 PUSH2 0x2B76 JUMP JUMPDEST MLOAD PUSH1 0x1 PUSH1 0x1 PUSH1 0xA0 SHL SUB DUP6 DUP2 AND SWAP2 AND EQ SWAP1 POP DUP10 PUSH2 0x2B70 JUMP JUMPDEST PUSH2 0x2BB8 DUP2 PUSH2 0x2FE8 JUMP JUMPDEST PUSH1 0x1 DUP1 PUSH1 0xA0 SHL SUB SWAP2 SLOAD SWAP1 PUSH1 0x3 SHL SHR AND PUSH1 0x0 MSTORE PUSH1 0x8 PUSH1 0x20 MSTORE PUSH1 0x40 PUSH1 0x0 KECCAK256 PUSH1 0x7 PUSH1 0x40 MLOAD SWAP2 PUSH2 0x2BE3 DUP4 PUSH2 0x3318 JUMP JUMPDEST PUSH2 0x2BEC DUP2 PUSH2 0x34E8 JUMP JUMPDEST DUP4 MSTORE PUSH2 0x2BFA PUSH1 0x1 DUP3 ADD PUSH2 0x34E8 JUMP JUMPDEST PUSH1 0x20 DUP5 ADD MSTORE PUSH1 0x2 DUP2 ADD SLOAD PUSH1 0x40 DUP5 ADD MSTORE PUSH2 0x2C15 PUSH1 0x3 DUP3 ADD PUSH2 0x34E8 JUMP JUMPDEST PUSH1 0x60 DUP5 ADD MSTORE PUSH2 0x2C26 PUSH1 0x4 DUP3 ADD PUSH2 0x34E8 JUMP JUMPDEST PUSH1 0x80 DUP5 ADD MSTORE PUSH1 0x5 DUP2 ADD SLOAD PUSH1 0xA0 DUP5 ADD MSTORE PUSH1 0x6 DUP2 ADD SLOAD PUSH1 0xC0 DUP5 ADD MSTORE ADD SLOAD SWAP1 PUSH2 0x2C65 PUSH1 0xFF PUSH1 0xE0 DUP4 ADD SWAP4 PUSH1 0x1 DUP1 PUSH1 0xA0 SHL SUB DUP2 AND DUP6 MSTORE PUSH1 0xA0 SHR AND PUSH2 0x100 DUP4 ADD PUSH2 0x364E JUMP JUMPDEST MLOAD PUSH1 0x20 DUP2 MLOAD SWAP2 ADD KECCAK256 DUP6 MLOAD DUP9 KECCAK256 EQ SWAP1 DUP2 PUSH2 0x2C9B JUMPI JUMPDEST POP PUSH2 0x2C87 JUMPI JUMPDEST PUSH1 0x1 ADD PUSH2 0x2A79 JUMP JUMPDEST SWAP1 PUSH2 0x2C93 PUSH1 0x1 SWAP2 PUSH2 0x36F1 JUMP JUMPDEST SWAP2 SWAP1 POP PUSH2 0x2C7F JUMP JUMPDEST MLOAD PUSH1 0x1 PUSH1 0x1 PUSH1 0xA0 SHL SUB DUP6 DUP2 AND SWAP2 AND EQ SWAP1 POP DUP8 PUSH2 0x2C79 JUMP JUMPDEST CALLVALUE PUSH2 0x4B9 JUMPI PUSH1 0x0 CALLDATASIZE PUSH1 0x3 NOT ADD SLT PUSH2 0x4B9 JUMPI PUSH1 0xB SLOAD PUSH2 0x2CCF DUP2 PUSH2 0x35EA JUMP JUMPDEST SWAP1 PUSH1 0x0 JUMPDEST DUP2 DUP2 LT PUSH2 0x2CE8 JUMPI PUSH1 0x40 MLOAD DUP1 PUSH2 0x6E4 DUP6 DUP3 PUSH2 0x31BD JUMP JUMPDEST DUP1 PUSH2 0x2CF4 PUSH1 0x1 SWAP3 PUSH2 0x306A JUMP JUMPDEST DUP4 DUP1 PUSH1 0xA0 SHL SUB SWAP2 SLOAD SWAP1 PUSH1 0x3 SHL SHR AND PUSH1 0x0 MSTORE PUSH1 0x8 PUSH1 0x20 MSTORE PUSH1 0x40 PUSH1 0x0 KECCAK256 PUSH2 0x2D9B PUSH1 0xFF PUSH1 0x7 PUSH1 0x40 MLOAD SWAP4 PUSH2 0x2D23 DUP6 PUSH2 0x3318 JUMP JUMPDEST PUSH2 0x2D2C DUP2 PUSH2 0x34E8 JUMP JUMPDEST DUP6 MSTORE PUSH2 0x2D39 DUP8 DUP3 ADD PUSH2 0x34E8 JUMP JUMPDEST PUSH1 0x20 DUP7 ADD MSTORE PUSH1 0x2 DUP2 ADD SLOAD PUSH1 0x40 DUP7 ADD MSTORE PUSH2 0x2D54 PUSH1 0x3 DUP3 ADD PUSH2 0x34E8 JUMP JUMPDEST PUSH1 0x60 DUP7 ADD MSTORE PUSH2 0x2D65 PUSH1 0x4 DUP3 ADD PUSH2 0x34E8 JUMP JUMPDEST PUSH1 0x80 DUP7 ADD MSTORE PUSH1 0x5 DUP2 ADD SLOAD PUSH1 0xA0 DUP7 ADD MSTORE PUSH1 0x6 DUP2 ADD SLOAD PUSH1 0xC0 DUP7 ADD MSTORE ADD SLOAD DUP6 DUP1 PUSH1 0xA0 SHL SUB DUP2 AND PUSH1 0xE0 DUP6 ADD MSTORE PUSH1 0xA0 SHR AND PUSH2 0x100 DUP4 ADD PUSH2 0x364E JUMP JUMPDEST PUSH2 0x2DA5 DUP3 DUP7 PUSH2 0x363A JUMP JUMPDEST MSTORE PUSH2 0x2DB0 DUP2 DUP6 PUSH2 0x363A JUMP JUMPDEST POP ADD PUSH2 0x2CD3 JUMP JUMPDEST CALLVALUE PUSH2 0x4B9 JUMPI PUSH1 0x20 CALLDATASIZE PUSH1 0x3 NOT ADD SLT PUSH2 0x4B9 JUMPI PUSH1 0x4 CALLDATALOAD PUSH1 0xE SLOAD DUP2 LT ISZERO PUSH2 0x4B9 JUMPI PUSH2 0xE90 PUSH1 0x20 SWAP2 PUSH2 0x304F JUMP JUMPDEST CALLVALUE PUSH2 0x4B9 JUMPI PUSH1 0x0 CALLDATASIZE PUSH1 0x3 NOT ADD SLT PUSH2 0x4B9 JUMPI PUSH1 0xC SLOAD PUSH2 0x2DFD DUP2 PUSH2 0x36A1 JUMP JUMPDEST SWAP1 PUSH1 0x0 JUMPDEST DUP2 DUP2 LT PUSH2 0x2E16 JUMPI PUSH1 0x40 MLOAD DUP1 PUSH2 0x6E4 DUP6 DUP3 PUSH2 0x32B8 JUMP JUMPDEST DUP1 PUSH2 0x2E22 PUSH1 0x1 SWAP3 PUSH2 0x3034 JUMP JUMPDEST DUP4 DUP1 PUSH1 0xA0 SHL SUB SWAP2 SLOAD SWAP1 PUSH1 0x3 SHL SHR AND PUSH1 0x0 MSTORE PUSH1 0x7 PUSH1 0x20 MSTORE PUSH1 0x40 PUSH1 0x0 KECCAK256 PUSH2 0x2E51 PUSH1 0xFF PUSH1 0x7 PUSH1 0x40 MLOAD SWAP4 PUSH2 0xF1A DUP6 PUSH2 0x3318 JUMP JUMPDEST PUSH2 0x2E5B DUP3 DUP7 PUSH2 0x363A JUMP JUMPDEST MSTORE PUSH2 0x2E66 DUP2 DUP6 PUSH2 0x363A JUMP JUMPDEST POP ADD PUSH2 0x2E01 JUMP JUMPDEST CALLVALUE PUSH2 0x4B9 JUMPI PUSH1 0x0 CALLDATASIZE PUSH1 0x3 NOT ADD SLT PUSH2 0x4B9 JUMPI PUSH1 0x20 PUSH1 0x2 SLOAD PUSH1 0x40 MLOAD SWAP1 DUP2 MSTORE RETURN JUMPDEST CALLVALUE PUSH2 0x4B9 JUMPI PUSH1 0x0 CALLDATASIZE PUSH1 0x3 NOT ADD SLT PUSH2 0x4B9 JUMPI PUSH1 0x9 SLOAD PUSH2 0x2EA8 DUP2 PUSH2 0x35EA JUMP JUMPDEST SWAP1 PUSH1 0x0 JUMPDEST DUP2 DUP2 LT PUSH2 0x2EC1 JUMPI PUSH1 0x40 MLOAD DUP1 PUSH2 0x6E4 DUP6 DUP3 PUSH2 0x31BD JUMP JUMPDEST DUP1 PUSH2 0x2ECD PUSH1 0x1 SWAP3 PUSH2 0x2FE8 JUMP JUMPDEST DUP4 DUP1 PUSH1 0xA0 SHL SUB SWAP2 SLOAD SWAP1 PUSH1 0x3 SHL SHR AND PUSH1 0x0 MSTORE PUSH1 0x8 PUSH1 0x20 MSTORE PUSH1 0x40 PUSH1 0x0 KECCAK256 PUSH2 0x2EFC PUSH1 0xFF PUSH1 0x7 PUSH1 0x40 MLOAD SWAP4 PUSH2 0x2D23 DUP6 PUSH2 0x3318 JUMP JUMPDEST PUSH2 0x2F06 DUP3 DUP7 PUSH2 0x363A JUMP JUMPDEST MSTORE PUSH2 0x2F11 DUP2 DUP6 PUSH2 0x363A JUMP JUMPDEST POP ADD PUSH2 0x2EAC JUMP JUMPDEST CALLVALUE PUSH2 0x4B9 JUMPI PUSH1 0x0 CALLDATASIZE PUSH1 0x3 NOT ADD SLT PUSH2 0x4B9 JUMPI PUSH1 0x20 PUSH1 0x3 SLOAD PUSH1 0x40 MLOAD SWAP1 DUP2 MSTORE RETURN JUMPDEST CALLVALUE PUSH2 0x4B9 JUMPI PUSH1 0x0 CALLDATASIZE PUSH1 0x3 NOT ADD SLT PUSH2 0x4B9 JUMPI PUSH1 0xD SLOAD PUSH2 0x2F53 DUP2 PUSH2 0x35EA JUMP JUMPDEST SWAP1 PUSH1 0x0 JUMPDEST DUP2 DUP2 LT PUSH2 0x2F6C JUMPI PUSH1 0x40 MLOAD DUP1 PUSH2 0x6E4 DUP6 DUP3 PUSH2 0x31BD JUMP JUMPDEST DUP1 PUSH2 0x2F78 PUSH1 0x1 SWAP3 PUSH2 0x3019 JUMP JUMPDEST DUP4 DUP1 PUSH1 0xA0 SHL SUB SWAP2 SLOAD SWAP1 PUSH1 0x3 SHL SHR AND PUSH1 0x0 MSTORE PUSH1 0x8 PUSH1 0x20 MSTORE PUSH1 0x40 PUSH1 0x0 KECCAK256 PUSH2 0x2FA7 PUSH1 0xFF PUSH1 0x7 PUSH1 0x40 MLOAD SWAP4 PUSH2 0x2D23 DUP6 PUSH2 0x3318 JUMP JUMPDEST PUSH2 0x2FB1 DUP3 DUP7 PUSH2 0x363A JUMP JUMPDEST MSTORE PUSH2 0x2FBC DUP2 DUP6 PUSH2 0x363A JUMP JUMPDEST POP ADD PUSH2 0x2F57 JUMP JUMPDEST CALLVALUE PUSH2 0x4B9 JUMPI PUSH1 0x20 CALLDATASIZE PUSH1 0x3 NOT ADD SLT PUSH2 0x4B9 JUMPI PUSH1 0x4 CALLDATALOAD PUSH1 0x9 SLOAD DUP2 LT ISZERO PUSH2 0x4B9 JUMPI PUSH2 0xE90 PUSH1 0x20 SWAP2 JUMPDEST PUSH1 0x9 SLOAD DUP2 LT ISZERO PUSH2 0x3003 JUMPI PUSH1 0x9 PUSH1 0x0 MSTORE PUSH1 0x20 PUSH1 0x0 KECCAK256 ADD SWAP1 PUSH1 0x0 SWAP1 JUMP JUMPDEST PUSH4 0x4E487B71 PUSH1 0xE0 SHL PUSH1 0x0 MSTORE PUSH1 0x32 PUSH1 0x4 MSTORE PUSH1 0x24 PUSH1 0x0 REVERT JUMPDEST PUSH1 0xD SLOAD DUP2 LT ISZERO PUSH2 0x3003 JUMPI PUSH1 0xD PUSH1 0x0 MSTORE PUSH1 0x20 PUSH1 0x0 KECCAK256 ADD SWAP1 PUSH1 0x0 SWAP1 JUMP JUMPDEST PUSH1 0xC SLOAD DUP2 LT ISZERO PUSH2 0x3003 JUMPI PUSH1 0xC PUSH1 0x0 MSTORE PUSH1 0x20 PUSH1 0x0 KECCAK256 ADD SWAP1 PUSH1 0x0 SWAP1 JUMP JUMPDEST PUSH1 0xE SLOAD DUP2 LT ISZERO PUSH2 0x3003 JUMPI PUSH1 0xE PUSH1 0x0 MSTORE PUSH1 0x20 PUSH1 0x0 KECCAK256 ADD SWAP1 PUSH1 0x0 SWAP1 JUMP JUMPDEST PUSH1 0xB SLOAD DUP2 LT ISZERO PUSH2 0x3003 JUMPI PUSH1 0xB PUSH1 0x0 MSTORE PUSH1 0x20 PUSH1 0x0 KECCAK256 ADD SWAP1 PUSH1 0x0 SWAP1 JUMP JUMPDEST PUSH1 0xA SLOAD DUP2 LT ISZERO PUSH2 0x3003 JUMPI PUSH1 0xA PUSH1 0x0 MSTORE PUSH1 0x20 PUSH1 0x0 KECCAK256 ADD SWAP1 PUSH1 0x0 SWAP1 JUMP JUMPDEST PUSH1 0xF SLOAD DUP2 LT ISZERO PUSH2 0x3003 JUMPI PUSH1 0xF PUSH1 0x0 MSTORE PUSH1 0x20 PUSH1 0x0 KECCAK256 ADD SWAP1 PUSH1 0x0 SWAP1 JUMP JUMPDEST DUP1 SLOAD DUP3 LT ISZERO PUSH2 0x3003 JUMPI PUSH1 0x0 MSTORE PUSH1 0x20 PUSH1 0x0 KECCAK256 ADD SWAP1 PUSH1 0x0 SWAP1 JUMP JUMPDEST SWAP2 SWAP1 DUP3 MLOAD SWAP3 DUP4 DUP3 MSTORE PUSH1 0x0 JUMPDEST DUP5 DUP2 LT PUSH2 0x30FF JUMPI POP POP DUP3 PUSH1 0x0 PUSH1 0x20 DUP1 SWAP5 SWAP6 DUP5 ADD ADD MSTORE PUSH1 0x1F DUP1 NOT SWAP2 ADD AND ADD ADD SWAP1 JUMP JUMPDEST DUP1 PUSH1 0x20 DUP1 SWAP3 DUP5 ADD ADD MLOAD DUP3 DUP3 DUP7 ADD ADD MSTORE ADD PUSH2 0x30DE JUMP JUMPDEST SWAP1 PUSH1 0x3 DUP3 LT ISZERO PUSH2 0x72D JUMPI MSTORE JUMP JUMPDEST SWAP1 PUSH2 0x31BA SWAP1 PUSH2 0x100 DUP1 PUSH2 0x3188 PUSH2 0x3176 PUSH2 0x315A PUSH2 0x3148 DUP9 MLOAD PUSH2 0x120 DUP9 MSTORE PUSH2 0x120 DUP9 ADD SWAP1 PUSH2 0x30D3 JUMP JUMPDEST PUSH1 0x20 DUP10 ADD MLOAD DUP8 DUP3 SUB PUSH1 0x20 DUP10 ADD MSTORE PUSH2 0x30D3 JUMP JUMPDEST PUSH1 0x40 DUP9 ADD MLOAD PUSH1 0x40 DUP8 ADD MSTORE PUSH1 0x60 DUP9 ADD MLOAD DUP7 DUP3 SUB PUSH1 0x60 DUP9 ADD MSTORE PUSH2 0x30D3 JUMP JUMPDEST PUSH1 0x80 DUP8 ADD MLOAD DUP6 DUP3 SUB PUSH1 0x80 DUP8 ADD MSTORE PUSH2 0x30D3 JUMP JUMPDEST PUSH1 0xA0 DUP1 DUP8 ADD MLOAD SWAP1 DUP6 ADD MSTORE PUSH1 0xC0 DUP1 DUP8 ADD MLOAD SWAP1 DUP6 ADD MSTORE PUSH1 0xE0 DUP1 DUP8 ADD MLOAD PUSH1 0x1 PUSH1 0x1 PUSH1 0xA0 SHL SUB AND SWAP1 DUP6 ADD MSTORE SWAP5 ADD MLOAD SWAP2 ADD SWAP1 PUSH2 0x3114 JUMP JUMPDEST SWAP1 JUMP JUMPDEST PUSH1 0x20 DUP2 ADD PUSH1 0x20 DUP3 MSTORE DUP3 MLOAD DUP1 SWAP2 MSTORE PUSH1 0x40 DUP3 ADD SWAP2 PUSH1 0x20 PUSH1 0x40 DUP4 PUSH1 0x5 SHL DUP4 ADD ADD SWAP5 ADD SWAP3 PUSH1 0x0 SWAP2 JUMPDEST DUP4 DUP4 LT PUSH2 0x31F0 JUMPI POP POP POP POP POP SWAP1 JUMP JUMPDEST SWAP1 SWAP2 SWAP3 SWAP4 SWAP5 PUSH1 0x20 DUP1 PUSH2 0x320E PUSH1 0x1 SWAP4 PUSH1 0x3F NOT DUP7 DUP3 SUB ADD DUP8 MSTORE DUP10 MLOAD PUSH2 0x3121 JUMP JUMPDEST SWAP8 ADD SWAP4 ADD SWAP4 ADD SWAP2 SWAP4 SWAP3 SWAP1 PUSH2 0x31E1 JUMP JUMPDEST SWAP1 PUSH2 0x31BA SWAP1 DUP3 MLOAD ISZERO ISZERO DUP2 MSTORE PUSH2 0x100 DUP1 PUSH2 0x3290 PUSH2 0x327E PUSH2 0x326C PUSH2 0x3250 PUSH1 0x20 DUP10 ADD MLOAD PUSH2 0x120 PUSH1 0x20 DUP10 ADD MSTORE PUSH2 0x120 DUP9 ADD SWAP1 PUSH2 0x30D3 JUMP JUMPDEST PUSH1 0x40 DUP10 ADD MLOAD PUSH1 0x40 DUP9 ADD MSTORE PUSH1 0x60 DUP10 ADD MLOAD DUP8 DUP3 SUB PUSH1 0x60 DUP10 ADD MSTORE PUSH2 0x30D3 JUMP JUMPDEST PUSH1 0x80 DUP9 ADD MLOAD DUP7 DUP3 SUB PUSH1 0x80 DUP9 ADD MSTORE PUSH2 0x30D3 JUMP JUMPDEST PUSH1 0xA0 DUP8 ADD MLOAD DUP6 DUP3 SUB PUSH1 0xA0 DUP8 ADD MSTORE PUSH2 0x30D3 JUMP JUMPDEST PUSH1 0xC0 DUP1 DUP8 ADD MLOAD SWAP1 DUP6 ADD MSTORE PUSH1 0xE0 DUP1 DUP8 ADD MLOAD PUSH1 0x1 PUSH1 0x1 PUSH1 0xA0 SHL SUB AND SWAP1 DUP6 ADD MSTORE SWAP5 ADD MLOAD SWAP2 ADD SWAP1 PUSH2 0x3114 JUMP JUMPDEST PUSH1 0x20 DUP2 ADD PUSH1 0x20 DUP3 MSTORE DUP3 MLOAD DUP1 SWAP2 MSTORE PUSH1 0x40 DUP3 ADD SWAP2 PUSH1 0x20 PUSH1 0x40 DUP4 PUSH1 0x5 SHL DUP4 ADD ADD SWAP5 ADD SWAP3 PUSH1 0x0 SWAP2 JUMPDEST DUP4 DUP4 LT PUSH2 0x32EB JUMPI POP POP POP POP POP SWAP1 JUMP JUMPDEST SWAP1 SWAP2 SWAP3 SWAP4 SWAP5 PUSH1 0x20 DUP1 PUSH2 0x3309 PUSH1 0x1 SWAP4 PUSH1 0x3F NOT DUP7 DUP3 SUB ADD DUP8 MSTORE DUP10 MLOAD PUSH2 0x321D JUMP JUMPDEST SWAP8 ADD SWAP4 ADD SWAP4 ADD SWAP2 SWAP4 SWAP3 SWAP1 PUSH2 0x32DC JUMP JUMPDEST PUSH2 0x120 DUP2 ADD SWAP1 DUP2 LT PUSH1 0x1 PUSH1 0x1 PUSH1 0x40 SHL SUB DUP3 GT OR PUSH2 0x394 JUMPI PUSH1 0x40 MSTORE JUMP JUMPDEST SWAP1 PUSH1 0x1F DUP1 NOT SWAP2 ADD AND DUP2 ADD SWAP1 DUP2 LT PUSH1 0x1 PUSH1 0x1 PUSH1 0x40 SHL SUB DUP3 GT OR PUSH2 0x394 JUMPI PUSH1 0x40 MSTORE JUMP JUMPDEST DUP2 PUSH1 0x1F DUP3 ADD SLT ISZERO PUSH2 0x4B9 JUMPI DUP1 CALLDATALOAD SWAP1 PUSH1 0x1 PUSH1 0x1 PUSH1 0x40 SHL SUB DUP3 GT PUSH2 0x394 JUMPI PUSH1 0x40 MLOAD SWAP3 PUSH2 0x3389 PUSH1 0x1F DUP5 ADD PUSH1 0x1F NOT AND PUSH1 0x20 ADD DUP6 PUSH2 0x3334 JUMP JUMPDEST DUP3 DUP5 MSTORE PUSH1 0x20 DUP4 DUP4 ADD ADD GT PUSH2 0x4B9 JUMPI DUP2 PUSH1 0x0 SWAP3 PUSH1 0x20 DUP1 SWAP4 ADD DUP4 DUP7 ADD CALLDATACOPY DUP4 ADD ADD MSTORE SWAP1 JUMP JUMPDEST PUSH1 0x4 CALLDATALOAD SWAP1 PUSH1 0x1 PUSH1 0x1 PUSH1 0xA0 SHL SUB DUP3 AND DUP3 SUB PUSH2 0x4B9 JUMPI JUMP JUMPDEST PUSH1 0x40 PUSH1 0x3 NOT DUP3 ADD SLT PUSH2 0x4B9 JUMPI PUSH1 0x4 CALLDATALOAD SWAP1 PUSH1 0x1 PUSH1 0x1 PUSH1 0x40 SHL SUB DUP3 GT PUSH2 0x4B9 JUMPI PUSH2 0x33EB SWAP2 PUSH1 0x4 ADD PUSH2 0x3355 JUMP JUMPDEST SWAP1 PUSH1 0x24 CALLDATALOAD PUSH1 0x1 PUSH1 0x1 PUSH1 0xA0 SHL SUB DUP2 AND DUP2 SUB PUSH2 0x4B9 JUMPI SWAP1 JUMP JUMPDEST SWAP1 PUSH1 0x40 PUSH1 0x3 NOT DUP4 ADD SLT PUSH2 0x4B9 JUMPI PUSH1 0x4 CALLDATALOAD PUSH1 0x1 PUSH1 0x1 PUSH1 0xA0 SHL SUB DUP2 AND DUP2 SUB PUSH2 0x4B9 JUMPI SWAP2 PUSH1 0x24 CALLDATALOAD SWAP1 PUSH1 0x1 PUSH1 0x1 PUSH1 0x40 SHL SUB DUP3 GT PUSH2 0x4B9 JUMPI PUSH2 0x31BA SWAP2 PUSH1 0x4 ADD PUSH2 0x3355 JUMP JUMPDEST SWAP1 PUSH1 0x80 PUSH1 0x3 NOT DUP4 ADD SLT PUSH2 0x4B9 JUMPI PUSH1 0x4 CALLDATALOAD PUSH1 0x1 PUSH1 0x1 PUSH1 0x40 SHL SUB DUP2 GT PUSH2 0x4B9 JUMPI DUP3 PUSH2 0x346C SWAP2 PUSH1 0x4 ADD PUSH2 0x3355 JUMP JUMPDEST SWAP2 PUSH1 0x24 CALLDATALOAD SWAP2 PUSH1 0x44 CALLDATALOAD PUSH1 0x1 PUSH1 0x1 PUSH1 0x40 SHL SUB DUP2 GT PUSH2 0x4B9 JUMPI DUP3 PUSH2 0x348F SWAP2 PUSH1 0x4 ADD PUSH2 0x3355 JUMP JUMPDEST SWAP2 PUSH1 0x64 CALLDATALOAD SWAP1 PUSH1 0x1 PUSH1 0x1 PUSH1 0x40 SHL SUB DUP3 GT PUSH2 0x4B9 JUMPI PUSH2 0x31BA SWAP2 PUSH1 0x4 ADD PUSH2 0x3355 JUMP JUMPDEST SWAP1 PUSH1 0x1 DUP3 DUP2 SHR SWAP3 AND DUP1 ISZERO PUSH2 0x34DE JUMPI JUMPDEST PUSH1 0x20 DUP4 LT EQ PUSH2 0x34C8 JUMPI JUMP JUMPDEST PUSH4 0x4E487B71 PUSH1 0xE0 SHL PUSH1 0x0 MSTORE PUSH1 0x22 PUSH1 0x4 MSTORE PUSH1 0x24 PUSH1 0x0 REVERT JUMPDEST SWAP2 PUSH1 0x7F AND SWAP2 PUSH2 0x34BD JUMP JUMPDEST SWAP1 PUSH1 0x40 MLOAD SWAP2 DUP3 PUSH1 0x0 DUP3 SLOAD SWAP3 PUSH2 0x34FC DUP5 PUSH2 0x34AE JUMP JUMPDEST DUP1 DUP5 MSTORE SWAP4 PUSH1 0x1 DUP2 AND SWAP1 DUP2 ISZERO PUSH2 0x356A JUMPI POP PUSH1 0x1 EQ PUSH2 0x3523 JUMPI JUMPDEST POP PUSH2 0x3521 SWAP3 POP SUB DUP4 PUSH2 0x3334 JUMP JUMPDEST JUMP JUMPDEST SWAP1 POP PUSH1 0x0 SWAP3 SWAP2 SWAP3 MSTORE PUSH1 0x20 PUSH1 0x0 KECCAK256 SWAP1 PUSH1 0x0 SWAP2 JUMPDEST DUP2 DUP4 LT PUSH2 0x354E JUMPI POP POP SWAP1 PUSH1 0x20 PUSH2 0x3521 SWAP3 DUP3 ADD ADD CODESIZE PUSH2 0x3514 JUMP JUMPDEST PUSH1 0x20 SWAP2 SWAP4 POP DUP1 PUSH1 0x1 SWAP2 SLOAD DUP4 DUP6 DUP10 ADD ADD MSTORE ADD SWAP2 ADD SWAP1 SWAP2 DUP5 SWAP3 PUSH2 0x3535 JUMP JUMPDEST SWAP1 POP PUSH1 0x20 SWAP3 POP PUSH2 0x3521 SWAP5 SWAP2 POP PUSH1 0xFF NOT AND DUP3 DUP5 ADD MSTORE ISZERO ISZERO PUSH1 0x5 SHL DUP3 ADD ADD CODESIZE PUSH2 0x3514 JUMP JUMPDEST PUSH1 0x1 PUSH1 0x1 PUSH1 0x40 SHL SUB DUP2 GT PUSH2 0x394 JUMPI PUSH1 0x5 SHL PUSH1 0x20 ADD SWAP1 JUMP JUMPDEST PUSH1 0x40 MLOAD SWAP1 PUSH2 0x35B0 DUP3 PUSH2 0x3318 JUMP JUMPDEST PUSH1 0x0 PUSH2 0x100 DUP4 PUSH1 0x60 DUP2 MSTORE PUSH1 0x60 PUSH1 0x20 DUP3 ADD MSTORE DUP3 PUSH1 0x40 DUP3 ADD MSTORE PUSH1 0x60 DUP1 DUP3 ADD MSTORE PUSH1 0x60 PUSH1 0x80 DUP3 ADD MSTORE DUP3 PUSH1 0xA0 DUP3 ADD MSTORE DUP3 PUSH1 0xC0 DUP3 ADD MSTORE DUP3 PUSH1 0xE0 DUP3 ADD MSTORE ADD MSTORE JUMP JUMPDEST SWAP1 PUSH2 0x35F4 DUP3 PUSH2 0x358C JUMP JUMPDEST PUSH2 0x3601 PUSH1 0x40 MLOAD SWAP2 DUP3 PUSH2 0x3334 JUMP JUMPDEST DUP3 DUP2 MSTORE DUP1 SWAP3 PUSH2 0x3612 PUSH1 0x1F NOT SWAP2 PUSH2 0x358C JUMP JUMPDEST ADD SWAP1 PUSH1 0x0 JUMPDEST DUP3 DUP2 LT PUSH2 0x3623 JUMPI POP POP POP JUMP JUMPDEST PUSH1 0x20 SWAP1 PUSH2 0x362E PUSH2 0x35A3 JUMP JUMPDEST DUP3 DUP3 DUP6 ADD ADD MSTORE ADD PUSH2 0x3617 JUMP JUMPDEST DUP1 MLOAD DUP3 LT ISZERO PUSH2 0x3003 JUMPI PUSH1 0x20 SWAP2 PUSH1 0x5 SHL ADD ADD SWAP1 JUMP JUMPDEST PUSH1 0x3 DUP3 LT ISZERO PUSH2 0x72D JUMPI MSTORE JUMP JUMPDEST PUSH1 0x40 MLOAD SWAP1 PUSH2 0x3667 DUP3 PUSH2 0x3318 JUMP JUMPDEST PUSH1 0x0 PUSH2 0x100 DUP4 DUP3 DUP2 MSTORE PUSH1 0x60 PUSH1 0x20 DUP3 ADD MSTORE DUP3 PUSH1 0x40 DUP3 ADD MSTORE PUSH1 0x60 DUP1 DUP3 ADD MSTORE PUSH1 0x60 PUSH1 0x80 DUP3 ADD MSTORE PUSH1 0x60 PUSH1 0xA0 DUP3 ADD MSTORE DUP3 PUSH1 0xC0 DUP3 ADD MSTORE DUP3 PUSH1 0xE0 DUP3 ADD MSTORE ADD MSTORE JUMP JUMPDEST SWAP1 PUSH2 0x36AB DUP3 PUSH2 0x358C JUMP JUMPDEST PUSH2 0x36B8 PUSH1 0x40 MLOAD SWAP2 DUP3 PUSH2 0x3334 JUMP JUMPDEST DUP3 DUP2 MSTORE DUP1 SWAP3 PUSH2 0x36C9 PUSH1 0x1F NOT SWAP2 PUSH2 0x358C JUMP JUMPDEST ADD SWAP1 PUSH1 0x0 JUMPDEST DUP3 DUP2 LT PUSH2 0x36DA JUMPI POP POP POP JUMP JUMPDEST PUSH1 0x20 SWAP1 PUSH2 0x36E5 PUSH2 0x365A JUMP JUMPDEST DUP3 DUP3 DUP6 ADD ADD MSTORE ADD PUSH2 0x36CE JUMP JUMPDEST PUSH1 0x0 NOT DUP2 EQ PUSH2 0x37C JUMPI PUSH1 0x1 ADD SWAP1 JUMP JUMPDEST ISZERO PUSH2 0x3707 JUMPI JUMP JUMPDEST PUSH1 0x40 MLOAD PUSH3 0x461BCD PUSH1 0xE5 SHL DUP2 MSTORE PUSH1 0x20 PUSH1 0x4 DUP3 ADD MSTORE PUSH1 0xA PUSH1 0x24 DUP3 ADD MSTORE PUSH10 0x27B7363C9037BBB732B9 PUSH1 0xB1 SHL PUSH1 0x44 DUP3 ADD MSTORE PUSH1 0x64 SWAP1 REVERT JUMPDEST SWAP1 PUSH1 0x3 DUP2 LT ISZERO PUSH2 0x72D JUMPI DUP2 SLOAD PUSH1 0xFF PUSH1 0xA0 SHL NOT AND PUSH1 0xA0 SWAP2 SWAP1 SWAP2 SHL PUSH1 0xFF PUSH1 0xA0 SHL AND OR SWAP1 SSTORE JUMP JUMPDEST PUSH1 0x40 MLOAD SWAP1 PUSH2 0x376C PUSH1 0x60 DUP4 PUSH2 0x3334 JUMP JUMPDEST PUSH1 0x21 DUP3 MSTORE PUSH1 0x1B PUSH1 0xFA SHL PUSH1 0x40 DUP4 PUSH32 0x526567697374726174696F6E206973206177616974696E6720617070726F7661 PUSH1 0x20 DUP3 ADD MSTORE ADD MSTORE JUMP JUMPDEST ISZERO PUSH2 0x37A9 JUMPI JUMP JUMPDEST PUSH1 0x40 MLOAD PUSH3 0x461BCD PUSH1 0xE5 SHL DUP2 MSTORE PUSH1 0x20 PUSH1 0x4 DUP3 ADD MSTORE PUSH1 0x21 PUSH1 0x24 DUP3 ADD MSTORE PUSH32 0x43616E6E6F74206D6F6469667920616674657220766F74696E67207374617274 PUSH1 0x44 DUP3 ADD MSTORE PUSH1 0x73 PUSH1 0xF8 SHL PUSH1 0x64 DUP3 ADD MSTORE PUSH1 0x84 SWAP1 REVERT JUMPDEST PUSH2 0x3800 PUSH2 0x35A3 JUMP JUMPDEST POP PUSH2 0x3809 PUSH2 0x35A3 JUMP JUMPDEST PUSH1 0xB SLOAD PUSH1 0x0 DUP1 JUMPDEST DUP3 DUP2 LT PUSH2 0x381D JUMPI POP POP POP SWAP1 JUMP JUMPDEST PUSH2 0x3826 DUP2 PUSH2 0x306A JUMP JUMPDEST PUSH1 0x1 DUP1 PUSH1 0xA0 SHL SUB SWAP2 SLOAD SWAP1 PUSH1 0x3 SHL SHR AND PUSH1 0x0 MSTORE PUSH1 0x8 PUSH1 0x20 MSTORE PUSH1 0x40 PUSH1 0x0 KECCAK256 PUSH1 0x40 MLOAD SWAP1 PUSH2 0x384F DUP3 PUSH2 0x3318 JUMP JUMPDEST PUSH2 0x3858 DUP2 PUSH2 0x34E8 JUMP JUMPDEST DUP3 MSTORE PUSH2 0x3866 PUSH1 0x1 DUP3 ADD PUSH2 0x34E8 JUMP JUMPDEST PUSH1 0x20 DUP4 ADD MSTORE PUSH1 0x2 DUP2 ADD SLOAD PUSH1 0x40 DUP4 ADD MSTORE PUSH2 0x3881 PUSH1 0x3 DUP3 ADD PUSH2 0x34E8 JUMP JUMPDEST PUSH1 0x60 DUP4 ADD MSTORE PUSH2 0x3892 PUSH1 0x4 DUP3 ADD PUSH2 0x34E8 JUMP JUMPDEST PUSH1 0x80 DUP4 ADD MSTORE PUSH1 0x5 DUP2 ADD SLOAD PUSH1 0xA0 DUP4 ADD MSTORE PUSH2 0x38D3 PUSH1 0xFF PUSH1 0x7 PUSH1 0x6 DUP5 ADD SLOAD SWAP4 PUSH1 0xC0 DUP7 ADD SWAP5 DUP6 MSTORE ADD SLOAD PUSH1 0x1 DUP1 PUSH1 0xA0 SHL SUB DUP2 AND PUSH1 0xE0 DUP7 ADD MSTORE PUSH1 0xA0 SHR AND PUSH2 0x100 DUP5 ADD PUSH2 0x364E JUMP JUMPDEST MLOAD DUP4 DUP2 GT PUSH2 0x38E6 JUMPI JUMPDEST POP POP PUSH1 0x1 ADD PUSH2 0x3810 JUMP JUMPDEST SWAP1 SWAP5 POP SWAP2 POP PUSH1 0x1 CODESIZE PUSH2 0x38DC JUMP JUMPDEST PUSH2 0x38FB PUSH2 0x35A3 JUMP JUMPDEST POP PUSH1 0xB SLOAD ISZERO PUSH2 0x39F8 JUMPI PUSH1 0x3 SLOAD TIMESTAMP LT PUSH2 0x3915 JUMPI PUSH2 0x31BA PUSH2 0x37F8 JUMP JUMPDEST PUSH1 0x40 MLOAD PUSH2 0x3921 DUP2 PUSH2 0x3318 JUMP JUMPDEST PUSH1 0x40 DUP1 MLOAD PUSH2 0x392F DUP3 DUP3 PUSH2 0x3334 JUMP JUMPDEST PUSH1 0xF DUP2 MSTORE PUSH15 0x139BDD08191958DA591959081E595D PUSH1 0x8A SHL PUSH1 0x20 DUP3 ADD MSTORE DUP3 MSTORE DUP1 MLOAD PUSH2 0x395A PUSH1 0x60 DUP3 PUSH2 0x3334 JUMP JUMPDEST PUSH1 0x36 DUP2 MSTORE PUSH32 0x506C65617365207761697420756E74696C2074686520656C656374696F6E2065 PUSH1 0x20 DUP3 ADD MSTORE PUSH22 0x373239903A379039B2B2903A3432903BB4B73732B917 PUSH1 0x51 SHL DUP3 DUP3 ADD MSTORE PUSH1 0x20 DUP4 ADD MSTORE PUSH1 0x0 DUP2 DUP4 ADD MSTORE DUP1 MLOAD PUSH2 0x39BA PUSH1 0x20 DUP3 PUSH2 0x3334 JUMP JUMPDEST PUSH1 0x0 DUP2 MSTORE PUSH1 0x60 DUP4 ADD MSTORE MLOAD PUSH2 0x39CF PUSH1 0x20 DUP3 PUSH2 0x3334 JUMP JUMPDEST PUSH1 0x0 DUP2 MSTORE PUSH1 0x80 DUP3 ADD MSTORE PUSH1 0x0 PUSH1 0xA0 DUP3 ADD MSTORE PUSH1 0x0 PUSH1 0xC0 DUP3 ADD MSTORE PUSH1 0x0 PUSH1 0xE0 DUP3 ADD MSTORE PUSH1 0x0 PUSH2 0x100 DUP3 ADD MSTORE SWAP1 JUMP JUMPDEST PUSH1 0x40 MLOAD PUSH3 0x461BCD PUSH1 0xE5 SHL DUP2 MSTORE PUSH1 0x20 PUSH1 0x4 DUP3 ADD MSTORE PUSH1 0x24 DUP1 DUP3 ADD MSTORE PUSH32 0x4E6F2043616E6469646174657320616363657074656420666F7220656C656374 PUSH1 0x44 DUP3 ADD MSTORE PUSH4 0x34B7B717 PUSH1 0xE1 SHL PUSH1 0x64 DUP3 ADD MSTORE PUSH1 0x84 SWAP1 REVERT INVALID LOG2 PUSH5 0x6970667358 0x22 SLT KECCAK256 SWAP12 0x4E 0xA8 0x2E MOD 0xB9 0xAD 0x4D MULMOD 0xDB BLOCKHASH PUSH4 0x8F91D0CF SAR 0xC SHL SDIV MSIZE 0x21 0xA9 ADDMOD GASPRICE CALLDATALOAD STOP 0xD SWAP9 STOP PUSH19 0x9564736F6C634300081C003300000000000000 "},"methodIdentifiers":{"CurrentVotingStatus()":"bab912a2","ListofAcceptedCandidates()":"3cfde26c","ListofAcceptedVoters()":"23a2b2ed","ListofRegisteredCandidates()":"1ee9367c","ListofRegisteredVoters()":"60fc4e32","ListofRejectedCandidates()":"073f966d","ListofRejectedVoters()":"964a43b9","acceptedCandidates(uint256)":"9e7a8145","acceptedVoters(uint256)":"53dd128c","approveCandidate(address,string)":"7eb21b51","approveVoter(address,string)":"fad761d3","candidates(address)":"8ab66a90","candidatesRegistered(uint256)":"0366ac37","electionName()":"85e8e7a7","findCandidate(address)":"dbf7be47","findVoter(address)":"57f3a8e5","getAllVotersWhoCasted()":"8987cb32","owner()":"8da5cb5b","registerCandidate(string,uint256,string,string)":"71565d2e","registerVoter(string,uint256,string,string)":"cd6cf311","rejectCandidate(address,string)":"59632c22","rejectVoter(address,string)":"4a2846a8","rejectedCandidates(uint256)":"5e894b12","rejectedVoters(uint256)":"3afa3e07","resultPublicationTime()":"ac94ba4c","searchCandidate(string,address)":"429b0b22","searchVoter(string,address)":"4d867f4e","setResultPublicationTime(uint256)":"5b45cfca","startendVoting(uint256,uint256)":"f33698f1","updateCandidate(string)":"79432db5","updateVoter(string)":"82ff2aeb","vote(address)":"6dd7d8ea","voters(address)":"a3ec138d","votersRegistered(uint256)":"849c5657","votersWhoCasted(uint256)":"5f1bc34e","votingEndTime()":"1ea736e0","votingStartTime()":"2019a608","winningCandidate()":"d28178d7"}}}}}