{"contracts/VotingSystem.sol":{"VotingSystem":{"abi":[{"inputs":[{"internalType":"string","name":"_name","type":"string"}],"stateMutability":"nonpayable","type":"constructor"},{"inputs":[],"name":"CurrentVotingStatus","outputs":[{"components":[{"internalType":"string","name":"name","type":"string"},{"internalType":"string","name":"message","type":"string"},{"internalType":"uint256","name":"age","type":"uint256"},{"internalType":"string","name":"email","type":"string"},{"internalType":"string","name":"phone","type":"string"},{"internalType":"uint256","name":"registeredId","type":"uint256"},{"internalType":"uint256","name":"voteCalculation","type":"uint256"},{"internalType":"address","name":"candidatesAddress","type":"address"},{"internalType":"enum VotingSystem.ConfirmationStatus","name":"status","type":"uint8"}],"internalType":"struct VotingSystem.Candidate","name":"","type":"tuple"}],"stateMutability":"view","type":"function"},{"inputs":[],"name":"ListofAcceptedCandidates","outputs":[{"components":[{"internalType":"string","name":"name","type":"string"},{"internalType":"string","name":"message","type":"string"},{"internalType":"uint256","name":"age","type":"uint256"},{"internalType":"string","name":"email","type":"string"},{"internalType":"string","name":"phone","type":"string"},{"internalType":"uint256","name":"registeredId","type":"uint256"},{"internalType":"uint256","name":"voteCalculation","type":"uint256"},{"internalType":"address","name":"candidatesAddress","type":"address"},{"internalType":"enum VotingSystem.ConfirmationStatus","name":"status","type":"uint8"}],"internalType":"struct VotingSystem.Candidate[]","name":"","type":"tuple[]"}],"stateMutability":"view","type":"function"},{"inputs":[],"name":"ListofAcceptedVoters","outputs":[{"components":[{"internalType":"bool","name":"alreadyVoted","type":"bool"},{"internalType":"string","name":"name","type":"string"},{"internalType":"uint256","name":"age","type":"uint256"},{"internalType":"string","name":"email","type":"string"},{"internalType":"string","name":"phone","type":"string"},{"internalType":"string","name":"message","type":"string"},{"internalType":"uint256","name":"registeredId","type":"uint256"},{"internalType":"address","name":"votersAddress","type":"address"},{"internalType":"enum VotingSystem.ConfirmationStatus","name":"status","type":"uint8"}],"internalType":"struct VotingSystem.Voter[]","name":"","type":"tuple[]"}],"stateMutability":"view","type":"function"},{"inputs":[],"name":"ListofRegisteredCandidates","outputs":[{"components":[{"internalType":"string","name":"name","type":"string"},{"internalType":"string","name":"message","type":"string"},{"internalType":"uint256","name":"age","type":"uint256"},{"internalType":"string","name":"email","type":"string"},{"internalType":"string","name":"phone","type":"string"},{"internalType":"uint256","name":"registeredId","type":"uint256"},{"internalType":"uint256","name":"voteCalculation","type":"uint256"},{"internalType":"address","name":"candidatesAddress","type":"address"},{"internalType":"enum VotingSystem.ConfirmationStatus","name":"status","type":"uint8"}],"internalType":"struct VotingSystem.Candidate[]","name":"","type":"tuple[]"}],"stateMutability":"view","type":"function"},{"inputs":[],"name":"ListofRegisteredVoters","outputs":[{"components":[{"internalType":"bool","name":"alreadyVoted","type":"bool"},{"internalType":"string","name":"name","type":"string"},{"internalType":"uint256","name":"age","type":"uint256"},{"internalType":"string","name":"email","type":"string"},{"internalType":"string","name":"phone","type":"string"},{"internalType":"string","name":"message","type":"string"},{"internalType":"uint256","name":"registeredId","type":"uint256"},{"internalType":"address","name":"votersAddress","type":"address"},{"internalType":"enum VotingSystem.ConfirmationStatus","name":"status","type":"uint8"}],"internalType":"struct VotingSystem.Voter[]","name":"","type":"tuple[]"}],"stateMutability":"view","type":"function"},{"inputs":[{"internalType":"uint256","name":"","type":"uint256"}],"name":"acceptedCandidates","outputs":[{"internalType":"address","name":"","type":"address"}],"stateMutability":"view","type":"function"},{"inputs":[{"internalType":"uint256","name":"","type":"uint256"}],"name":"acceptedVoters","outputs":[{"internalType":"address","name":"","type":"address"}],"stateMutability":"view","type":"function"},{"inputs":[{"internalType":"address","name":"_candidatesAddress","type":"address"},{"internalType":"string","name":"_message","type":"string"}],"name":"approveCandidate","outputs":[],"stateMutability":"nonpayable","type":"function"},{"inputs":[{"internalType":"address","name":"_votersAddress","type":"address"},{"internalType":"string","name":"_message","type":"string"}],"name":"approveVoter","outputs":[],"stateMutability":"nonpayable","type":"function"},{"inputs":[{"internalType":"address","name":"","type":"address"}],"name":"candidates","outputs":[{"internalType":"string","name":"name","type":"string"},{"internalType":"string","name":"message","type":"string"},{"internalType":"uint256","name":"age","type":"uint256"},{"internalType":"string","name":"email","type":"string"},{"internalType":"string","name":"phone","type":"string"},{"internalType":"uint256","name":"registeredId","type":"uint256"},{"internalType":"uint256","name":"voteCalculation","type":"uint256"},{"internalType":"address","name":"candidatesAddress","type":"address"},{"internalType":"enum VotingSystem.ConfirmationStatus","name":"status","type":"uint8"}],"stateMutability":"view","type":"function"},{"inputs":[{"internalType":"uint256","name":"","type":"uint256"}],"name":"candidatesRegistered","outputs":[{"internalType":"address","name":"","type":"address"}],"stateMutability":"view","type":"function"},{"inputs":[],"name":"electionName","outputs":[{"internalType":"string","name":"","type":"string"}],"stateMutability":"view","type":"function"},{"inputs":[{"internalType":"address","name":"_candidatesAddress","type":"address"}],"name":"findCandidate","outputs":[{"components":[{"internalType":"string","name":"name","type":"string"},{"internalType":"string","name":"message","type":"string"},{"internalType":"uint256","name":"age","type":"uint256"},{"internalType":"string","name":"email","type":"string"},{"internalType":"string","name":"phone","type":"string"},{"internalType":"uint256","name":"registeredId","type":"uint256"},{"internalType":"uint256","name":"voteCalculation","type":"uint256"},{"internalType":"address","name":"candidatesAddress","type":"address"},{"internalType":"enum VotingSystem.ConfirmationStatus","name":"status","type":"uint8"}],"internalType":"struct VotingSystem.Candidate","name":"","type":"tuple"}],"stateMutability":"view","type":"function"},{"inputs":[{"internalType":"address","name":"_votersAddress","type":"address"}],"name":"findVoter","outputs":[{"components":[{"internalType":"bool","name":"alreadyVoted","type":"bool"},{"internalType":"string","name":"name","type":"string"},{"internalType":"uint256","name":"age","type":"uint256"},{"internalType":"string","name":"email","type":"string"},{"internalType":"string","name":"phone","type":"string"},{"internalType":"string","name":"message","type":"string"},{"internalType":"uint256","name":"registeredId","type":"uint256"},{"internalType":"address","name":"votersAddress","type":"address"},{"internalType":"enum VotingSystem.ConfirmationStatus","name":"status","type":"uint8"}],"internalType":"struct VotingSystem.Voter","name":"","type":"tuple"}],"stateMutability":"view","type":"function"},{"inputs":[],"name":"getAllVotersWhoCasted","outputs":[{"components":[{"internalType":"bool","name":"alreadyVoted","type":"bool"},{"internalType":"string","name":"name","type":"string"},{"internalType":"uint256","name":"age","type":"uint256"},{"internalType":"string","name":"email","type":"string"},{"internalType":"string","name":"phone","type":"string"},{"internalType":"string","name":"message","type":"string"},{"internalType":"uint256","name":"registeredId","type":"uint256"},{"internalType":"address","name":"votersAddress","type":"address"},{"internalType":"enum VotingSystem.ConfirmationStatus","name":"status","type":"uint8"}],"internalType":"struct VotingSystem.Voter[]","name":"","type":"tuple[]"}],"stateMutability":"view","type":"function"},{"inputs":[],"name":"owner","outputs":[{"internalType":"address","name":"","type":"address"}],"stateMutability":"view","type":"function"},{"inputs":[{"internalType":"string","name":"_name","type":"string"},{"internalType":"uint256","name":"_age","type":"uint256"},{"internalType":"string","name":"_email","type":"string"},{"internalType":"string","name":"_phone","type":"string"}],"name":"registerCandidate","outputs":[],"stateMutability":"nonpayable","type":"function"},{"inputs":[{"internalType":"string","name":"_name","type":"string"},{"internalType":"uint256","name":"_age","type":"uint256"},{"internalType":"string","name":"_email","type":"string"},{"internalType":"string","name":"_phone","type":"string"}],"name":"registerVoter","outputs":[],"stateMutability":"nonpayable","type":"function"},{"inputs":[{"internalType":"address","name":"_candidatesAddress","type":"address"},{"internalType":"string","name":"_message","type":"string"}],"name":"rejectCandidate","outputs":[],"stateMutability":"nonpayable","type":"function"},{"inputs":[{"internalType":"address","name":"_votersAddress","type":"address"},{"internalType":"string","name":"_message","type":"string"}],"name":"rejectVoter","outputs":[],"stateMutability":"nonpayable","type":"function"},{"inputs":[{"internalType":"uint256","name":"_votingStartTime","type":"uint256"},{"internalType":"uint256","name":"_votingEndTime","type":"uint256"}],"name":"startendVoting","outputs":[],"stateMutability":"nonpayable","type":"function"},{"inputs":[{"internalType":"string","name":"_name","type":"string"}],"name":"updateCandidate","outputs":[],"stateMutability":"nonpayable","type":"function"},{"inputs":[{"internalType":"string","name":"_name","type":"string"}],"name":"updateVoter","outputs":[],"stateMutability":"nonpayable","type":"function"},{"inputs":[{"internalType":"address","name":"_candidatesAddress","type":"address"}],"name":"vote","outputs":[],"stateMutability":"nonpayable","type":"function"},{"inputs":[{"internalType":"address","name":"","type":"address"}],"name":"voters","outputs":[{"internalType":"bool","name":"alreadyVoted","type":"bool"},{"internalType":"string","name":"name","type":"string"},{"internalType":"uint256","name":"age","type":"uint256"},{"internalType":"string","name":"email","type":"string"},{"internalType":"string","name":"phone","type":"string"},{"internalType":"string","name":"message","type":"string"},{"internalType":"uint256","name":"registeredId","type":"uint256"},{"internalType":"address","name":"votersAddress","type":"address"},{"internalType":"enum VotingSystem.ConfirmationStatus","name":"status","type":"uint8"}],"stateMutability":"view","type":"function"},{"inputs":[{"internalType":"uint256","name":"","type":"uint256"}],"name":"votersRegistered","outputs":[{"internalType":"address","name":"","type":"address"}],"stateMutability":"view","type":"function"},{"inputs":[{"internalType":"uint256","name":"","type":"uint256"}],"name":"votersWhoCasted","outputs":[{"internalType":"address","name":"","type":"address"}],"stateMutability":"view","type":"function"},{"inputs":[],"name":"votingEndTime","outputs":[{"internalType":"uint256","name":"","type":"uint256"}],"stateMutability":"view","type":"function"},{"inputs":[],"name":"votingStartTime","outputs":[{"internalType":"uint256","name":"","type":"uint256"}],"stateMutability":"view","type":"function"},{"inputs":[],"name":"winningCandidate","outputs":[{"components":[{"internalType":"string","name":"name","type":"string"},{"internalType":"string","name":"message","type":"string"},{"internalType":"uint256","name":"age","type":"uint256"},{"internalType":"string","name":"email","type":"string"},{"internalType":"string","name":"phone","type":"string"},{"internalType":"uint256","name":"registeredId","type":"uint256"},{"internalType":"uint256","name":"voteCalculation","type":"uint256"},{"internalType":"address","name":"candidatesAddress","type":"address"},{"internalType":"enum VotingSystem.ConfirmationStatus","name":"status","type":"uint8"}],"internalType":"struct VotingSystem.Candidate","name":"","type":"tuple"}],"stateMutability":"view","type":"function"}],"evm":{"bytecode":{"linkReferences":{},"object":"60806040523461023b5761307b8038038061001981610240565b92833981019060208183031261023b578051906001600160401b03821161023b570181601f8201121561023b578051906001600160401b0382116102105761006a601f8301601f1916602001610240565b928284526020838301011161023b5760005b82811061022657600083850160200181905280546001600160a01b03191633179055835184906001600160401b03811161021057600154600181811c91168015610206575b60208210146101f057601f811161018b575b50602091601f82116001146101275791819260009261011c575b50508160011b916000199060031b1c1916176001555b60016004556001600555604051612e1590816102668239f35b0151905082806100ed565b601f198216926001600052806000209160005b8581106101735750836001951061015a575b505050811b01600155610103565b015160001960f88460031b161c1916905582808061014c565b9192602060018192868501518155019401920161013a565b60016000527fb10e2d527612073b26eecdfd717e6a320cf44b4afac2b0732d9fcbe2b7fa0cf6601f830160051c810191602084106101e6575b601f0160051c01905b8181106101da57506100d3565b600081556001016101cd565b90915081906101c4565b634e487b7160e01b600052602260045260246000fd5b90607f16906100c1565b634e487b7160e01b600052604160045260246000fd5b8060208092840101518282870101520161007c565b600080fd5b6040519190601f01601f191682016001600160401b038111838210176102105760405256fe6080604052600436101561001257600080fd5b60003560e01c80630366ac37146123be5780631ea736e0146123a05780631ee9367c146123135780632019a608146122f557806323a2b2ed146122685780633cfde26c146121635780634a2846a814611fd757806353dd128c14611fae57806357f3a8e514611e3457806359632c2214611ca65780635f1bc34e14611c7d57806360fc4e3214611bf05780636dd7d8ea146119c357806371565d2e1461145357806379432db51461131b5780637eb21b511461118c57806382ff2aeb1461102c578063849c56571461100357806385e8e7a714610f225780638987cb3214610e195780638ab66a9014610d265780638da5cb5b14610cfd5780639e7a814514610cbb578063a3ec138d14610bbf578063bab912a214610ba3578063cd6cf31114610624578063d28178d7146105f4578063dbf7be4714610459578063f33698f1146103345763fad761d31461016657600080fd5b3461032f5761017436612786565b9061018a60018060a01b03600054163314612a75565b6001600160a01b03908116600081815260066020526040902060078101805492936005936101ba91161515612b88565b805460ff60a01b1916600160a01b17905583519101906001600160401b038111610261576101e88254612832565b601f81116102e7575b506020601f82116001146102825781929394600092610277575b50508160011b916000199060031b1c19161790555b600b54600160401b811015610261578060016102419201600b55600b612480565b81546001600160a01b0360039290921b91821b191692901b919091179055005b634e487b7160e01b600052604160045260246000fd5b01519050388061020b565b601f1982169083600052806000209160005b8181106102cf575095836001959697106102b6575b505050811b019055610220565b015160001960f88460031b161c191690553880806102a9565b9192602060018192868b015181550194019201610294565b826000526020600020601f830160051c81019160208410610325575b601f0160051c01905b81811061031957506101f1565b6000815560010161030c565b9091508190610303565b600080fd5b3461032f57604036600319011261032f576004356024359061036160018060a01b03600054163314612a75565b60025461041457428111156103d0578181101561038057600255600355005b60405162461bcd60e51b815260206004820152602260248201527f53746172742074696d65206d757374206265206265666f726520656e642074696044820152616d6560f01b6064820152608490fd5b606460405162461bcd60e51b815260206004820152602060248201527f53746172742074696d65206d75737420626520696e20746865206675747572656044820152fd5b60405162461bcd60e51b815260206004820152601860248201527f566f74696e6720616c7265616479207363686564756c656400000000000000006044820152606490fd5b3461032f57602036600319011261032f576104726126dd565b61047a612927565b5060018060a01b03166000526007602052604060002060076040519161049f836126f3565b6104a88161286c565b83526104b66001820161286c565b6020840152600281015460408401526104d16003820161286c565b60608401526104e26004820161286c565b6080840152600581015460a0840152600681015460c0840152015460e0820160018060a01b038216815261052160ff61010085019360a01c16836129d2565b516001600160a01b0316156105b9575160038110156105a3576000190161055e5761055a906040519182916020835260208301906124e6565b0390f35b60405162461bcd60e51b815260206004820152601960248201527f43616e646964617465206973206e6f74206163636570746564000000000000006044820152606490fd5b634e487b7160e01b600052602160045260246000fd5b60405162461bcd60e51b815260206004820152601360248201527210d85b991a59185d19481b9bdd08199bdd5b99606a1b6044820152606490fd5b3461032f57600036600319011261032f5761055a610610612ce1565b6040519182916020835260208301906124e6565b3461032f57610632366127c5565b60059391935460405191610645836126f3565b600083526020830193845260408301948552606083019586526080830190815261066d612af7565b9560a0840196875260c0840192835260e08401953387526101008501956000875233600052600660205260406000209551151560ff801988541691161786556001860190518051906001600160401b0382116102615781906106cf8454612832565b601f8111610b50575b50602090601f8311600114610aeb57600092610ae0575b50508160011b916000199060031b1c19161790555b51600285015551805160038501916001600160401b03821161026157819061072c8454612832565b601f8111610a8d575b50602090601f8311600114610a2857600092610a1d575b50508160011b916000199060031b1c19161790555b51805160048401916001600160401b0382116102615781906107838454612832565b601f81116109ca575b50602090601f83116001146109655760009261095a575b50508160011b916000199060031b1c19161790555b6005820194519485516001600160401b038111610261576107d98254612832565b601f8111610912575b506020601f82116001146108a8578190600796979860009261089d575b50508160011b916000199060031b1c19161790555b5160068201559251920180546001600160a01b0319166001600160a01b03939093169290921782555160038110156105a35761084f91612aae565b600954600160401b8110156102615780600161087092016009556009612480565b81546001600160a01b0360039290921b91821b19163390911b17905560055461089890612ad2565b600555005b0151905088806107ff565b601f1982169783600052816000209860005b8181106108fa5750916007979899918460019594106108e1575b505050811b019055610814565b015160001960f88460031b161c191690558880806108d4565b838301518b556001909a0199602093840193016108ba565b826000526020600020601f830160051c81019160208410610950575b601f0160051c01905b81811061094457506107e2565b60008155600101610937565b909150819061092e565b0151905088806107a3565b60008581528281209350601f198516905b8181106109b25750908460019594939210610999575b505050811b0190556107b8565b015160001960f88460031b161c1916905588808061098c565b92936020600181928786015181550195019301610976565b909150836000526020600020601f840160051c81019160208510610a13575b90601f859493920160051c01905b818110610a04575061078c565b600081558493506001016109f7565b90915081906109e9565b01519050898061074c565b60008581528281209350601f198516905b818110610a755750908460019594939210610a5c575b505050811b019055610761565b015160001960f88460031b161c19169055898080610a4f565b92936020600181928786015181550195019301610a39565b909150836000526020600020601f840160051c81019160208510610ad6575b90601f859493920160051c01905b818110610ac75750610735565b60008155849350600101610aba565b9091508190610aac565b015190508b806106ef565b60008581528281209350601f198516905b818110610b385750908460019594939210610b1f575b505050811b019055610704565b015160001960f88460031b161c191690558b8080610b12565b92936020600181928786015181550195019301610afc565b909150836000526020600020601f840160051c81019160208510610b99575b90601f859493920160051c01905b818110610b8a57506106d8565b60008155849350600101610b7d565b9091508190610b6f565b3461032f57600036600319011261032f5761055a610610612be6565b3461032f57602036600319011261032f576001600160a01b03610be06126dd565b1660005260066020526020604060002060ff8154169061055a610c056001830161286c565b610c936002840154610c85610c1c6003870161286c565b91610c77610c2c6004890161286c565b91610c3960058a0161286c565b94610c64600760068c01549b0154986101206040519e8f9e8f901515815201526101208d0190612498565b9160408c01528a820360608c0152612498565b9088820360808a0152612498565b9086820360a0880152612498565b60c08501939093526001600160a01b03811660e085015261010084019060a01c60ff166124d9565b3461032f57602036600319011261032f57600435600a5481101561032f57610ce460209161242f565b905460405160039290921b1c6001600160a01b03168152f35b3461032f57600036600319011261032f576000546040516001600160a01b039091168152602090f35b3461032f57602036600319011261032f576001600160a01b03610d476126dd565b1660005260076020526040600020610120610d618261286c565b9161055a610d716001830161286c565b600283015492610def610d866003830161286c565b94610de1610d966004850161286c565b91600585015497610dce6007600688015497015497610dc06040519d8d8f9e8f9081520190612498565b8c810360208e015290612498565b9160408b015289820360608b0152612498565b908782036080890152612498565b9360a086015260c085015260018060a01b03811660e085015260ff61010085019160a01c166124d9565b3461032f57600036600319011261032f57600c54610e3681612a25565b9060005b818110610e4f576040518061055a858261267d565b80610e5b60019261244a565b838060a01b0391549060031b1c1660005260066020526040600020610f0660ff600760405193610e8a856126f3565b8281541615158552610e9d87820161286c565b602086015260028101546040860152610eb86003820161286c565b6060860152610ec96004820161286c565b6080860152610eda6005820161286c565b60a0860152600681015460c08601520154858060a01b03811660e085015260a01c1661010083016129d2565b610f1082866129be565b52610f1b81856129be565b5001610e3a565b3461032f57600036600319011261032f576040516000600154610f4481612832565b8084529060018116908115610fdf5750600114610f80575b61055a83610f6c8185038261270f565b604051918291602083526020830190612498565b600160009081527fb10e2d527612073b26eecdfd717e6a320cf44b4afac2b0732d9fcbe2b7fa0cf6939250905b808210610fc557509091508101602001610f6c610f5c565b919260018160209254838588010152019101909291610fad565b60ff191660208086019190915291151560051b84019091019150610f6c9050610f5c565b3461032f57602036600319011261032f5760043560095481101561032f57610ce4602091612465565b3461032f57602036600319011261032f576004356001600160401b03811161032f5761105c903690600401612730565b33600052600660205260016040600020611082828060a01b036007830154161515612b3c565b0181516001600160401b0381116102615761109d8254612832565b601f8111611144575b50602092601f82116001146110e457928192936000926110d9575b5050600019600383901b1c191660019190911b179055005b0151905083806110c1565b601f1982169383600052806000209160005b86811061112c5750836001959610611113575b505050811b019055005b015160001960f88460031b161c19169055838080611109565b919260206001819286850151815501940192016110f6565b826000526020600020601f830160051c81019160208410611182575b601f0160051c01905b81811061117657506110a6565b60008155600101611169565b9091508190611160565b3461032f5761119a36612786565b906111b060018060a01b03600054163314612a75565b60018060a01b031680600052600760205260016040600020600781016111df838060a01b038254161515612b88565b8260a01b60ff60a01b198254161790550182516001600160401b0381116102615761120a8254612832565b601f81116112d3575b506020601f821160011461126e5781929394600092611263575b50508160011b916000199060031b1c19161790555b600a54600160401b811015610261578060016102419201600a55600a612480565b01519050848061122d565b601f1982169083600052806000209160005b8181106112bb575095836001959697106112a2575b505050811b019055611242565b015160001960f88460031b161c19169055848080611295565b9192602060018192868b015181550194019201611280565b826000526020600020601f830160051c81019160208410611311575b601f0160051c01905b8181106113055750611213565b600081556001016112f8565b90915081906112ef565b3461032f57602036600319011261032f576004356001600160401b03811161032f5761134b903690600401612730565b336000526007602052604060002061137060018060a01b036007830154161515612b3c565b81516001600160401b0381116102615761138a8254612832565b601f811161140b575b50602092601f82116001146113c557928192936000926110d9575050600019600383901b1c191660019190911b179055005b601f1982169383600052806000209160005b8681106113f3575083600195961061111357505050811b019055005b919260206001819286850151815501940192016113d7565b826000526020600020601f830160051c81019160208410611449575b601f0160051c01905b81811061143d5750611393565b60008155600101611430565b9091508190611427565b3461032f57611461366127c5565b926004549160405191611473836126f3565b825261147d612af7565b926020830193845260408301948552606083019182526080830195865260a0830190815260c08301916000835260e084019533875261010085019560008752336000526007602052604060002095518051906001600160401b0382116102615781906114e98954612832565b601f8111611970575b50602090601f831160011461190b57600092611900575b50508160011b916000199060031b1c19161786555b51805160018701916001600160401b0382116102615781906115408454612832565b601f81116118ad575b50602090601f83116001146118485760009261183d575b50508160011b916000199060031b1c19161790555b51600285015551805160038501916001600160401b03821161026157819061159d8454612832565b601f81116117ea575b50602090601f83116001146117855760009261177a575b50508160011b916000199060031b1c19161790555b6004830195519586516001600160401b038111610261576115f38254612832565b601f8111611732575b506020601f82116001146116c857819060079798996000926116bd575b50508160011b916000199060031b1c19161790555b5160058301555160068201559251920180546001600160a01b0319166001600160a01b03939093169290921782555160038110156105a35761166f91612aae565b600854600160401b8110156102615780600161169092016008556008612480565b81546001600160a01b0360039290921b91821b19163390911b1790556004546116b890612ad2565b600455005b015190508980611619565b601f1982169883600052816000209960005b81811061171a575091600798999a91846001959410611701575b505050811b01905561162e565b015160001960f88460031b161c191690558980806116f4565b838301518c556001909b019a602093840193016116da565b826000526020600020601f830160051c81019160208410611770575b601f0160051c01905b81811061176457506115fc565b60008155600101611757565b909150819061174e565b0151905089806115bd565b60008581528281209350601f198516905b8181106117d257509084600195949392106117b9575b505050811b0190556115d2565b015160001960f88460031b161c191690558980806117ac565b92936020600181928786015181550195019301611796565b909150836000526020600020601f840160051c81019160208510611833575b90601f859493920160051c01905b81811061182457506115a6565b60008155849350600101611817565b9091508190611809565b015190508b80611560565b60008581528281209350601f198516905b818110611895575090846001959493921061187c575b505050811b019055611575565b015160001960f88460031b161c191690558b808061186f565b92936020600181928786015181550195019301611859565b909150836000526020600020601f840160051c810191602085106118f6575b90601f859493920160051c01905b8181106118e75750611549565b600081558493506001016118da565b90915081906118cc565b015190508b80611509565b60008a81528281209350601f198516905b818110611958575090846001959493921061193f575b505050811b01865561151e565b015160001960f88460031b161c191690558b8080611932565b9293602060018192878601518155019501930161191c565b909150886000526020600020601f840160051c810191602085106119b9575b90601f859493920160051c01905b8181106119aa57506114f2565b6000815584935060010161199d565b909150819061198f565b3461032f57602036600319011261032f576119dc6126dd565b6002544210611bab576003544211611b7357336000526006602052604060002060ff600782015460a01c1660038110156105a357600103611b2e5780549160ff8316611af05760018060a01b0316600052600760205260406000209060ff600783015460a01c1660038110156105a357600103611aab57600160069360ff191617905501611a6a8154612ad2565b9055600c54600160401b81101561026157806001611a8d9201600c55600c612480565b81546001600160a01b0360039290921b91821b19163390911b179055005b60405162461bcd60e51b815260206004820152601a60248201527f43616e646964617465206973206e6f742061636365707465642e0000000000006044820152606490fd5b60405162461bcd60e51b8152602060048201526016602482015275165bdd481a185d9948185b1c9958591e481d9bdd195960521b6044820152606490fd5b60405162461bcd60e51b815260206004820152601e60248201527f596f7520617265206e6f74206120636f6e6669726d656420766f7465722e00006044820152606490fd5b60405162461bcd60e51b815260206004820152601060248201526f159bdd1a5b99c81a185cc8195b99195960821b6044820152606490fd5b60405162461bcd60e51b815260206004820152601a60248201527f566f74696e6720686173206e6f742073746172746564207965740000000000006044820152606490fd5b3461032f57600036600319011261032f57600954611c0d81612a25565b9060005b818110611c26576040518061055a858261267d565b80611c32600192612465565b838060a01b0391549060031b1c1660005260066020526040600020611c6160ff600760405193610e8a856126f3565b611c6b82866129be565b52611c7681856129be565b5001611c11565b3461032f57602036600319011261032f57600435600c5481101561032f57610ce460209161244a565b3461032f57611cb436612786565b90611cca60018060a01b03600054163314612a75565b6001600160a01b039081166000908152600760208190526040909120908101805490921615611def57815460ff60a01b1916600160a11b179091558151600191909101906001600160401b03811161026157611d268254612832565b601f8111611da7575b50602092601f8211600114611d6157928192936000926110d9575050600019600383901b1c191660019190911b179055005b601f1982169383600052806000209160005b868110611d8f575083600195961061111357505050811b019055005b91926020600181928685015181550194019201611d73565b826000526020600020601f830160051c81019160208410611de5575b601f0160051c01905b818110611dd95750611d2f565b60008155600101611dcc565b9091508190611dc3565b60405162461bcd60e51b815260206004820152601b60248201527f4e6f2063616e646964617465206461746120617661696c61626c6500000000006044820152606490fd5b3461032f57602036600319011261032f57611e4d6126dd565b611e556129de565b5060018060a01b031660005260066020526040600020600760405191611e7a836126f3565b60ff81541615158352611e8f6001820161286c565b602084015260028101546040840152611eaa6003820161286c565b6060840152611ebb6004820161286c565b6080840152611ecc6005820161286c565b60a0840152600681015460c0840152015460e0820160018060a01b0382168152611f0160ff61010085019360a01c16836129d2565b516001600160a01b031615611f77575160038110156105a35760001901611f3a5761055a906040519182916020835260208301906125e2565b60405162461bcd60e51b8152602060048201526015602482015274159bdd195c881a5cc81b9bdd081858d8d95c1d1959605a1b6044820152606490fd5b60405162461bcd60e51b815260206004820152600f60248201526e159bdd195c881b9bdd08199bdd5b99608a1b6044820152606490fd5b3461032f57602036600319011261032f57600435600b5481101561032f57610ce4602091612414565b3461032f57611fe536612786565b90611ffb60018060a01b03600054163314612a75565b6001600160a01b0390811660009081526006602052604090206007810180549092161561211e57815460ff60a01b1916600160a11b179091558151600591909101906001600160401b038111610261576120558254612832565b601f81116120d6575b50602092601f821160011461209057928192936000926110d9575050600019600383901b1c191660019190911b179055005b601f1982169383600052806000209160005b8681106120be575083600195961061111357505050811b019055005b919260206001819286850151815501940192016120a2565b826000526020600020601f830160051c81019160208410612114575b601f0160051c01905b818110612108575061205e565b600081556001016120fb565b90915081906120f2565b60405162461bcd60e51b815260206004820152601760248201527f4e6f20766f746572206461746120617661696c61626c650000000000000000006044820152606490fd5b3461032f57600036600319011261032f57600a546121808161296e565b9060005b818110612199576040518061055a8582612582565b806121a560019261242f565b838060a01b0391549060031b1c166000526007602052604060002061224c60ff6007604051936121d4856126f3565b6121dd8161286c565b85526121ea87820161286c565b6020860152600281015460408601526122056003820161286c565b60608601526122166004820161286c565b6080860152600581015460a0860152600681015460c08601520154858060a01b03811660e085015260a01c1661010083016129d2565b61225682866129be565b5261226181856129be565b5001612184565b3461032f57600036600319011261032f57600b5461228581612a25565b9060005b81811061229e576040518061055a858261267d565b806122aa600192612414565b838060a01b0391549060031b1c16600052600660205260406000206122d960ff600760405193610e8a856126f3565b6122e382866129be565b526122ee81856129be565b5001612289565b3461032f57600036600319011261032f576020600254604051908152f35b3461032f57600036600319011261032f576008546123308161296e565b9060005b818110612349576040518061055a8582612582565b806123556001926123e3565b838060a01b0391549060031b1c166000526007602052604060002061238460ff6007604051936121d4856126f3565b61238e82866129be565b5261239981856129be565b5001612334565b3461032f57600036600319011261032f576020600354604051908152f35b3461032f57602036600319011261032f5760043560085481101561032f57610ce46020915b6008548110156123fe57600860005260206000200190600090565b634e487b7160e01b600052603260045260246000fd5b600b548110156123fe57600b60005260206000200190600090565b600a548110156123fe57600a60005260206000200190600090565b600c548110156123fe57600c60005260206000200190600090565b6009548110156123fe57600960005260206000200190600090565b80548210156123fe5760005260206000200190600090565b919082519283825260005b8481106124c4575050826000602080949584010152601f8019910116010190565b806020809284010151828286010152016124a3565b9060038210156105a35752565b9061257f906101008061254d61253b61251f61250d88516101208852610120880190612498565b60208901518782036020890152612498565b6040880151604087015260608801518682036060880152612498565b60808701518582036080870152612498565b60a0808701519085015260c0808701519085015260e0808701516001600160a01b0316908501529401519101906124d9565b90565b602081016020825282518091526040820191602060408360051b8301019401926000915b8383106125b557505050505090565b90919293946020806125d3600193603f1986820301875289516124e6565b970193019301919392906125a6565b9061257f908251151581526101008061265561264361263161261560208901516101206020890152610120880190612498565b6040890151604088015260608901518782036060890152612498565b60808801518682036080880152612498565b60a087015185820360a0870152612498565b60c0808701519085015260e0808701516001600160a01b0316908501529401519101906124d9565b602081016020825282518091526040820191602060408360051b8301019401926000915b8383106126b057505050505090565b90919293946020806126ce600193603f1986820301875289516125e2565b970193019301919392906126a1565b600435906001600160a01b038216820361032f57565b61012081019081106001600160401b0382111761026157604052565b90601f801991011681019081106001600160401b0382111761026157604052565b81601f8201121561032f578035906001600160401b0382116102615760405192612764601f8401601f19166020018561270f565b8284526020838301011161032f57816000926020809301838601378301015290565b90604060031983011261032f576004356001600160a01b038116810361032f5791602435906001600160401b03821161032f5761257f91600401612730565b90608060031983011261032f576004356001600160401b03811161032f57826127f091600401612730565b91602435916044356001600160401b03811161032f578261281391600401612730565b91606435906001600160401b03821161032f5761257f91600401612730565b90600182811c92168015612862575b602083101461284c57565b634e487b7160e01b600052602260045260246000fd5b91607f1691612841565b906040519182600082549261288084612832565b80845293600181169081156128ee57506001146128a7575b506128a59250038361270f565b565b90506000929192526020600020906000915b8183106128d25750509060206128a59282010138612898565b60209193508060019154838589010152019101909184926128b9565b9050602092506128a594915060ff191682840152151560051b82010138612898565b6001600160401b0381116102615760051b60200190565b60405190612934826126f3565b6000610100836060815260606020820152826040820152606080820152606060808201528260a08201528260c08201528260e08201520152565b9061297882612910565b612985604051918261270f565b8281528092612996601f1991612910565b019060005b8281106129a757505050565b6020906129b2612927565b8282850101520161299b565b80518210156123fe5760209160051b010190565b60038210156105a35752565b604051906129eb826126f3565b6000610100838281526060602082015282604082015260608082015260606080820152606060a08201528260c08201528260e08201520152565b90612a2f82612910565b612a3c604051918261270f565b8281528092612a4d601f1991612910565b019060005b828110612a5e57505050565b602090612a696129de565b82828501015201612a52565b15612a7c57565b60405162461bcd60e51b815260206004820152600a60248201526927b7363c9037bbb732b960b11b6044820152606490fd5b9060038110156105a357815460ff60a01b191660a09190911b60ff60a01b16179055565b6000198114612ae15760010190565b634e487b7160e01b600052601160045260246000fd5b60405190612b0660608361270f565b60218252601b60fa1b6040837f526567697374726174696f6e206973206177616974696e6720617070726f766160208201520152565b15612b4357565b60405162461bcd60e51b815260206004820152601860248201527f4e6f20766f746572206461746120617661696c61626c652e00000000000000006044820152606490fd5b15612b8f57565b60405162461bcd60e51b815260206004820152602960248201527f5468697320766f74657220646f6573206e6f742061707065617220696e206f75604482015268391039bcb9ba32b69760b91b6064820152608490fd5b612bee612927565b50612bf7612927565b600a546000805b828110612c0b5750505090565b612c148161242f565b60018060a01b0391549060031b1c166000526007602052604060002060405190612c3d826126f3565b612c468161286c565b8252612c546001820161286c565b602083015260028101546040830152612c6f6003820161286c565b6060830152612c806004820161286c565b6080830152600581015460a0830152612cc160ff600760068401549360c08601948552015460018060a01b03811660e086015260a01c1661010084016129d2565b51838111612cd4575b5050600101612bfe565b9094509150600138612cca565b612ce9612927565b50600354421115612cfc5761257f612be6565b604051612d08816126f3565b60408051612d16828261270f565b600f81526e139bdd08191958da591959081e595d608a1b602082015282528051612d4160608261270f565b603681527f506c65617365207761697420756e74696c2074686520656c656374696f6e2065602082015275373239903a379039b2b2903a3432903bb4b73732b91760511b8282015260208301526000818301528051612da160208261270f565b60008152606083015251612db660208261270f565b600081526080820152600060a0820152600060c0820152600060e082015260006101008201529056fea2646970667358221220a8d5beacd5438050bcae9566498da354db907edd4cfc4cd49a2fffeed243434164736f6c634300081c0033","opcodes":"PUSH1 0x80 PUSH1 0x40 MSTORE CALLVALUE PUSH2 0x23B JUMPI PUSH2 0x307B DUP1 CODESIZE SUB DUP1 PUSH2 0x19 DUP2 PUSH2 0x240 JUMP JUMPDEST SWAP3 DUP4 CODECOPY DUP2 ADD SWAP1 PUSH1 0x20 DUP2 DUP4 SUB SLT PUSH2 0x23B JUMPI DUP1 MLOAD SWAP1 PUSH1 0x1 PUSH1 0x1 PUSH1 0x40 SHL SUB DUP3 GT PUSH2 0x23B JUMPI ADD DUP2 PUSH1 0x1F DUP3 ADD SLT ISZERO PUSH2 0x23B JUMPI DUP1 MLOAD SWAP1 PUSH1 0x1 PUSH1 0x1 PUSH1 0x40 SHL SUB DUP3 GT PUSH2 0x210 JUMPI PUSH2 0x6A PUSH1 0x1F DUP4 ADD PUSH1 0x1F NOT AND PUSH1 0x20 ADD PUSH2 0x240 JUMP JUMPDEST SWAP3 DUP3 DUP5 MSTORE PUSH1 0x20 DUP4 DUP4 ADD ADD GT PUSH2 0x23B JUMPI PUSH1 0x0 JUMPDEST DUP3 DUP2 LT PUSH2 0x226 JUMPI PUSH1 0x0 DUP4 DUP6 ADD PUSH1 0x20 ADD DUP2 SWAP1 MSTORE DUP1 SLOAD PUSH1 0x1 PUSH1 0x1 PUSH1 0xA0 SHL SUB NOT AND CALLER OR SWAP1 SSTORE DUP4 MLOAD DUP5 SWAP1 PUSH1 0x1 PUSH1 0x1 PUSH1 0x40 SHL SUB DUP2 GT PUSH2 0x210 JUMPI PUSH1 0x1 SLOAD PUSH1 0x1 DUP2 DUP2 SHR SWAP2 AND DUP1 ISZERO PUSH2 0x206 JUMPI JUMPDEST PUSH1 0x20 DUP3 LT EQ PUSH2 0x1F0 JUMPI PUSH1 0x1F DUP2 GT PUSH2 0x18B JUMPI JUMPDEST POP PUSH1 0x20 SWAP2 PUSH1 0x1F DUP3 GT PUSH1 0x1 EQ PUSH2 0x127 JUMPI SWAP2 DUP2 SWAP3 PUSH1 0x0 SWAP3 PUSH2 0x11C JUMPI JUMPDEST POP POP DUP2 PUSH1 0x1 SHL SWAP2 PUSH1 0x0 NOT SWAP1 PUSH1 0x3 SHL SHR NOT AND OR PUSH1 0x1 SSTORE JUMPDEST PUSH1 0x1 PUSH1 0x4 SSTORE PUSH1 0x1 PUSH1 0x5 SSTORE PUSH1 0x40 MLOAD PUSH2 0x2E15 SWAP1 DUP2 PUSH2 0x266 DUP3 CODECOPY RETURN JUMPDEST ADD MLOAD SWAP1 POP DUP3 DUP1 PUSH2 0xED JUMP JUMPDEST PUSH1 0x1F NOT DUP3 AND SWAP3 PUSH1 0x1 PUSH1 0x0 MSTORE DUP1 PUSH1 0x0 KECCAK256 SWAP2 PUSH1 0x0 JUMPDEST DUP6 DUP2 LT PUSH2 0x173 JUMPI POP DUP4 PUSH1 0x1 SWAP6 LT PUSH2 0x15A JUMPI JUMPDEST POP POP POP DUP2 SHL ADD PUSH1 0x1 SSTORE PUSH2 0x103 JUMP JUMPDEST ADD MLOAD PUSH1 0x0 NOT PUSH1 0xF8 DUP5 PUSH1 0x3 SHL AND SHR NOT AND SWAP1 SSTORE DUP3 DUP1 DUP1 PUSH2 0x14C JUMP JUMPDEST SWAP2 SWAP3 PUSH1 0x20 PUSH1 0x1 DUP2 SWAP3 DUP7 DUP6 ADD MLOAD DUP2 SSTORE ADD SWAP5 ADD SWAP3 ADD PUSH2 0x13A JUMP JUMPDEST PUSH1 0x1 PUSH1 0x0 MSTORE PUSH32 0xB10E2D527612073B26EECDFD717E6A320CF44B4AFAC2B0732D9FCBE2B7FA0CF6 PUSH1 0x1F DUP4 ADD PUSH1 0x5 SHR DUP2 ADD SWAP2 PUSH1 0x20 DUP5 LT PUSH2 0x1E6 JUMPI JUMPDEST PUSH1 0x1F ADD PUSH1 0x5 SHR ADD SWAP1 JUMPDEST DUP2 DUP2 LT PUSH2 0x1DA JUMPI POP PUSH2 0xD3 JUMP JUMPDEST PUSH1 0x0 DUP2 SSTORE PUSH1 0x1 ADD PUSH2 0x1CD JUMP JUMPDEST SWAP1 SWAP2 POP DUP2 SWAP1 PUSH2 0x1C4 JUMP JUMPDEST PUSH4 0x4E487B71 PUSH1 0xE0 SHL PUSH1 0x0 MSTORE PUSH1 0x22 PUSH1 0x4 MSTORE PUSH1 0x24 PUSH1 0x0 REVERT JUMPDEST SWAP1 PUSH1 0x7F AND SWAP1 PUSH2 0xC1 JUMP JUMPDEST PUSH4 0x4E487B71 PUSH1 0xE0 SHL PUSH1 0x0 MSTORE PUSH1 0x41 PUSH1 0x4 MSTORE PUSH1 0x24 PUSH1 0x0 REVERT JUMPDEST DUP1 PUSH1 0x20 DUP1 SWAP3 DUP5 ADD ADD MLOAD DUP3 DUP3 DUP8 ADD ADD MSTORE ADD PUSH2 0x7C JUMP JUMPDEST PUSH1 0x0 DUP1 REVERT JUMPDEST PUSH1 0x40 MLOAD SWAP2 SWAP1 PUSH1 0x1F ADD PUSH1 0x1F NOT AND DUP3 ADD PUSH1 0x1 PUSH1 0x1 PUSH1 0x40 SHL SUB DUP2 GT DUP4 DUP3 LT OR PUSH2 0x210 JUMPI PUSH1 0x40 MSTORE JUMP INVALID PUSH1 0x80 PUSH1 0x40 MSTORE PUSH1 0x4 CALLDATASIZE LT ISZERO PUSH2 0x12 JUMPI PUSH1 0x0 DUP1 REVERT JUMPDEST PUSH1 0x0 CALLDATALOAD PUSH1 0xE0 SHR DUP1 PUSH4 0x366AC37 EQ PUSH2 0x23BE JUMPI DUP1 PUSH4 0x1EA736E0 EQ PUSH2 0x23A0 JUMPI DUP1 PUSH4 0x1EE9367C EQ PUSH2 0x2313 JUMPI DUP1 PUSH4 0x2019A608 EQ PUSH2 0x22F5 JUMPI DUP1 PUSH4 0x23A2B2ED EQ PUSH2 0x2268 JUMPI DUP1 PUSH4 0x3CFDE26C EQ PUSH2 0x2163 JUMPI DUP1 PUSH4 0x4A2846A8 EQ PUSH2 0x1FD7 JUMPI DUP1 PUSH4 0x53DD128C EQ PUSH2 0x1FAE JUMPI DUP1 PUSH4 0x57F3A8E5 EQ PUSH2 0x1E34 JUMPI DUP1 PUSH4 0x59632C22 EQ PUSH2 0x1CA6 JUMPI DUP1 PUSH4 0x5F1BC34E EQ PUSH2 0x1C7D JUMPI DUP1 PUSH4 0x60FC4E32 EQ PUSH2 0x1BF0 JUMPI DUP1 PUSH4 0x6DD7D8EA EQ PUSH2 0x19C3 JUMPI DUP1 PUSH4 0x71565D2E EQ PUSH2 0x1453 JUMPI DUP1 PUSH4 0x79432DB5 EQ PUSH2 0x131B JUMPI DUP1 PUSH4 0x7EB21B51 EQ PUSH2 0x118C JUMPI DUP1 PUSH4 0x82FF2AEB EQ PUSH2 0x102C JUMPI DUP1 PUSH4 0x849C5657 EQ PUSH2 0x1003 JUMPI DUP1 PUSH4 0x85E8E7A7 EQ PUSH2 0xF22 JUMPI DUP1 PUSH4 0x8987CB32 EQ PUSH2 0xE19 JUMPI DUP1 PUSH4 0x8AB66A90 EQ PUSH2 0xD26 JUMPI DUP1 PUSH4 0x8DA5CB5B EQ PUSH2 0xCFD JUMPI DUP1 PUSH4 0x9E7A8145 EQ PUSH2 0xCBB JUMPI DUP1 PUSH4 0xA3EC138D EQ PUSH2 0xBBF JUMPI DUP1 PUSH4 0xBAB912A2 EQ PUSH2 0xBA3 JUMPI DUP1 PUSH4 0xCD6CF311 EQ PUSH2 0x624 JUMPI DUP1 PUSH4 0xD28178D7 EQ PUSH2 0x5F4 JUMPI DUP1 PUSH4 0xDBF7BE47 EQ PUSH2 0x459 JUMPI DUP1 PUSH4 0xF33698F1 EQ PUSH2 0x334 JUMPI PUSH4 0xFAD761D3 EQ PUSH2 0x166 JUMPI PUSH1 0x0 DUP1 REVERT JUMPDEST CALLVALUE PUSH2 0x32F JUMPI PUSH2 0x174 CALLDATASIZE PUSH2 0x2786 JUMP JUMPDEST SWAP1 PUSH2 0x18A PUSH1 0x1 DUP1 PUSH1 0xA0 SHL SUB PUSH1 0x0 SLOAD AND CALLER EQ PUSH2 0x2A75 JUMP JUMPDEST PUSH1 0x1 PUSH1 0x1 PUSH1 0xA0 SHL SUB SWAP1 DUP2 AND PUSH1 0x0 DUP2 DUP2 MSTORE PUSH1 0x6 PUSH1 0x20 MSTORE PUSH1 0x40 SWAP1 KECCAK256 PUSH1 0x7 DUP2 ADD DUP1 SLOAD SWAP3 SWAP4 PUSH1 0x5 SWAP4 PUSH2 0x1BA SWAP2 AND ISZERO ISZERO PUSH2 0x2B88 JUMP JUMPDEST DUP1 SLOAD PUSH1 0xFF PUSH1 0xA0 SHL NOT AND PUSH1 0x1 PUSH1 0xA0 SHL OR SWAP1 SSTORE DUP4 MLOAD SWAP2 ADD SWAP1 PUSH1 0x1 PUSH1 0x1 PUSH1 0x40 SHL SUB DUP2 GT PUSH2 0x261 JUMPI PUSH2 0x1E8 DUP3 SLOAD PUSH2 0x2832 JUMP JUMPDEST PUSH1 0x1F DUP2 GT PUSH2 0x2E7 JUMPI JUMPDEST POP PUSH1 0x20 PUSH1 0x1F DUP3 GT PUSH1 0x1 EQ PUSH2 0x282 JUMPI DUP2 SWAP3 SWAP4 SWAP5 PUSH1 0x0 SWAP3 PUSH2 0x277 JUMPI JUMPDEST POP POP DUP2 PUSH1 0x1 SHL SWAP2 PUSH1 0x0 NOT SWAP1 PUSH1 0x3 SHL SHR NOT AND OR SWAP1 SSTORE JUMPDEST PUSH1 0xB SLOAD PUSH1 0x1 PUSH1 0x40 SHL DUP2 LT ISZERO PUSH2 0x261 JUMPI DUP1 PUSH1 0x1 PUSH2 0x241 SWAP3 ADD PUSH1 0xB SSTORE PUSH1 0xB PUSH2 0x2480 JUMP JUMPDEST DUP2 SLOAD PUSH1 0x1 PUSH1 0x1 PUSH1 0xA0 SHL SUB PUSH1 0x3 SWAP3 SWAP1 SWAP3 SHL SWAP2 DUP3 SHL NOT AND SWAP3 SWAP1 SHL SWAP2 SWAP1 SWAP2 OR SWAP1 SSTORE STOP JUMPDEST PUSH4 0x4E487B71 PUSH1 0xE0 SHL PUSH1 0x0 MSTORE PUSH1 0x41 PUSH1 0x4 MSTORE PUSH1 0x24 PUSH1 0x0 REVERT JUMPDEST ADD MLOAD SWAP1 POP CODESIZE DUP1 PUSH2 0x20B JUMP JUMPDEST PUSH1 0x1F NOT DUP3 AND SWAP1 DUP4 PUSH1 0x0 MSTORE DUP1 PUSH1 0x0 KECCAK256 SWAP2 PUSH1 0x0 JUMPDEST DUP2 DUP2 LT PUSH2 0x2CF JUMPI POP SWAP6 DUP4 PUSH1 0x1 SWAP6 SWAP7 SWAP8 LT PUSH2 0x2B6 JUMPI JUMPDEST POP POP POP DUP2 SHL ADD SWAP1 SSTORE PUSH2 0x220 JUMP JUMPDEST ADD MLOAD PUSH1 0x0 NOT PUSH1 0xF8 DUP5 PUSH1 0x3 SHL AND SHR NOT AND SWAP1 SSTORE CODESIZE DUP1 DUP1 PUSH2 0x2A9 JUMP JUMPDEST SWAP2 SWAP3 PUSH1 0x20 PUSH1 0x1 DUP2 SWAP3 DUP7 DUP12 ADD MLOAD DUP2 SSTORE ADD SWAP5 ADD SWAP3 ADD PUSH2 0x294 JUMP JUMPDEST DUP3 PUSH1 0x0 MSTORE PUSH1 0x20 PUSH1 0x0 KECCAK256 PUSH1 0x1F DUP4 ADD PUSH1 0x5 SHR DUP2 ADD SWAP2 PUSH1 0x20 DUP5 LT PUSH2 0x325 JUMPI JUMPDEST PUSH1 0x1F ADD PUSH1 0x5 SHR ADD SWAP1 JUMPDEST DUP2 DUP2 LT PUSH2 0x319 JUMPI POP PUSH2 0x1F1 JUMP JUMPDEST PUSH1 0x0 DUP2 SSTORE PUSH1 0x1 ADD PUSH2 0x30C JUMP JUMPDEST SWAP1 SWAP2 POP DUP2 SWAP1 PUSH2 0x303 JUMP JUMPDEST PUSH1 0x0 DUP1 REVERT JUMPDEST CALLVALUE PUSH2 0x32F JUMPI PUSH1 0x40 CALLDATASIZE PUSH1 0x3 NOT ADD SLT PUSH2 0x32F JUMPI PUSH1 0x4 CALLDATALOAD PUSH1 0x24 CALLDATALOAD SWAP1 PUSH2 0x361 PUSH1 0x1 DUP1 PUSH1 0xA0 SHL SUB PUSH1 0x0 SLOAD AND CALLER EQ PUSH2 0x2A75 JUMP JUMPDEST PUSH1 0x2 SLOAD PUSH2 0x414 JUMPI TIMESTAMP DUP2 GT ISZERO PUSH2 0x3D0 JUMPI DUP2 DUP2 LT ISZERO PUSH2 0x380 JUMPI PUSH1 0x2 SSTORE PUSH1 0x3 SSTORE STOP JUMPDEST PUSH1 0x40 MLOAD PUSH3 0x461BCD PUSH1 0xE5 SHL DUP2 MSTORE PUSH1 0x20 PUSH1 0x4 DUP3 ADD MSTORE PUSH1 0x22 PUSH1 0x24 DUP3 ADD MSTORE PUSH32 0x53746172742074696D65206D757374206265206265666F726520656E64207469 PUSH1 0x44 DUP3 ADD MSTORE PUSH2 0x6D65 PUSH1 0xF0 SHL PUSH1 0x64 DUP3 ADD MSTORE PUSH1 0x84 SWAP1 REVERT JUMPDEST PUSH1 0x64 PUSH1 0x40 MLOAD PUSH3 0x461BCD PUSH1 0xE5 SHL DUP2 MSTORE PUSH1 0x20 PUSH1 0x4 DUP3 ADD MSTORE PUSH1 0x20 PUSH1 0x24 DUP3 ADD MSTORE PUSH32 0x53746172742074696D65206D75737420626520696E2074686520667574757265 PUSH1 0x44 DUP3 ADD MSTORE REVERT JUMPDEST PUSH1 0x40 MLOAD PUSH3 0x461BCD PUSH1 0xE5 SHL DUP2 MSTORE PUSH1 0x20 PUSH1 0x4 DUP3 ADD MSTORE PUSH1 0x18 PUSH1 0x24 DUP3 ADD MSTORE PUSH32 0x566F74696E6720616C7265616479207363686564756C65640000000000000000 PUSH1 0x44 DUP3 ADD MSTORE PUSH1 0x64 SWAP1 REVERT JUMPDEST CALLVALUE PUSH2 0x32F JUMPI PUSH1 0x20 CALLDATASIZE PUSH1 0x3 NOT ADD SLT PUSH2 0x32F JUMPI PUSH2 0x472 PUSH2 0x26DD JUMP JUMPDEST PUSH2 0x47A PUSH2 0x2927 JUMP JUMPDEST POP PUSH1 0x1 DUP1 PUSH1 0xA0 SHL SUB AND PUSH1 0x0 MSTORE PUSH1 0x7 PUSH1 0x20 MSTORE PUSH1 0x40 PUSH1 0x0 KECCAK256 PUSH1 0x7 PUSH1 0x40 MLOAD SWAP2 PUSH2 0x49F DUP4 PUSH2 0x26F3 JUMP JUMPDEST PUSH2 0x4A8 DUP2 PUSH2 0x286C JUMP JUMPDEST DUP4 MSTORE PUSH2 0x4B6 PUSH1 0x1 DUP3 ADD PUSH2 0x286C JUMP JUMPDEST PUSH1 0x20 DUP5 ADD MSTORE PUSH1 0x2 DUP2 ADD SLOAD PUSH1 0x40 DUP5 ADD MSTORE PUSH2 0x4D1 PUSH1 0x3 DUP3 ADD PUSH2 0x286C JUMP JUMPDEST PUSH1 0x60 DUP5 ADD MSTORE PUSH2 0x4E2 PUSH1 0x4 DUP3 ADD PUSH2 0x286C JUMP JUMPDEST PUSH1 0x80 DUP5 ADD MSTORE PUSH1 0x5 DUP2 ADD SLOAD PUSH1 0xA0 DUP5 ADD MSTORE PUSH1 0x6 DUP2 ADD SLOAD PUSH1 0xC0 DUP5 ADD MSTORE ADD SLOAD PUSH1 0xE0 DUP3 ADD PUSH1 0x1 DUP1 PUSH1 0xA0 SHL SUB DUP3 AND DUP2 MSTORE PUSH2 0x521 PUSH1 0xFF PUSH2 0x100 DUP6 ADD SWAP4 PUSH1 0xA0 SHR AND DUP4 PUSH2 0x29D2 JUMP JUMPDEST MLOAD PUSH1 0x1 PUSH1 0x1 PUSH1 0xA0 SHL SUB AND ISZERO PUSH2 0x5B9 JUMPI MLOAD PUSH1 0x3 DUP2 LT ISZERO PUSH2 0x5A3 JUMPI PUSH1 0x0 NOT ADD PUSH2 0x55E JUMPI PUSH2 0x55A SWAP1 PUSH1 0x40 MLOAD SWAP2 DUP3 SWAP2 PUSH1 0x20 DUP4 MSTORE PUSH1 0x20 DUP4 ADD SWAP1 PUSH2 0x24E6 JUMP JUMPDEST SUB SWAP1 RETURN JUMPDEST PUSH1 0x40 MLOAD PUSH3 0x461BCD PUSH1 0xE5 SHL DUP2 MSTORE PUSH1 0x20 PUSH1 0x4 DUP3 ADD MSTORE PUSH1 0x19 PUSH1 0x24 DUP3 ADD MSTORE PUSH32 0x43616E646964617465206973206E6F7420616363657074656400000000000000 PUSH1 0x44 DUP3 ADD MSTORE PUSH1 0x64 SWAP1 REVERT JUMPDEST PUSH4 0x4E487B71 PUSH1 0xE0 SHL PUSH1 0x0 MSTORE PUSH1 0x21 PUSH1 0x4 MSTORE PUSH1 0x24 PUSH1 0x0 REVERT JUMPDEST PUSH1 0x40 MLOAD PUSH3 0x461BCD PUSH1 0xE5 SHL DUP2 MSTORE PUSH1 0x20 PUSH1 0x4 DUP3 ADD MSTORE PUSH1 0x13 PUSH1 0x24 DUP3 ADD MSTORE PUSH19 0x10D85B991A59185D19481B9BDD08199BDD5B99 PUSH1 0x6A SHL PUSH1 0x44 DUP3 ADD MSTORE PUSH1 0x64 SWAP1 REVERT JUMPDEST CALLVALUE PUSH2 0x32F JUMPI PUSH1 0x0 CALLDATASIZE PUSH1 0x3 NOT ADD SLT PUSH2 0x32F JUMPI PUSH2 0x55A PUSH2 0x610 PUSH2 0x2CE1 JUMP JUMPDEST PUSH1 0x40 MLOAD SWAP2 DUP3 SWAP2 PUSH1 0x20 DUP4 MSTORE PUSH1 0x20 DUP4 ADD SWAP1 PUSH2 0x24E6 JUMP JUMPDEST CALLVALUE PUSH2 0x32F JUMPI PUSH2 0x632 CALLDATASIZE PUSH2 0x27C5 JUMP JUMPDEST PUSH1 0x5 SWAP4 SWAP2 SWAP4 SLOAD PUSH1 0x40 MLOAD SWAP2 PUSH2 0x645 DUP4 PUSH2 0x26F3 JUMP JUMPDEST PUSH1 0x0 DUP4 MSTORE PUSH1 0x20 DUP4 ADD SWAP4 DUP5 MSTORE PUSH1 0x40 DUP4 ADD SWAP5 DUP6 MSTORE PUSH1 0x60 DUP4 ADD SWAP6 DUP7 MSTORE PUSH1 0x80 DUP4 ADD SWAP1 DUP2 MSTORE PUSH2 0x66D PUSH2 0x2AF7 JUMP JUMPDEST SWAP6 PUSH1 0xA0 DUP5 ADD SWAP7 DUP8 MSTORE PUSH1 0xC0 DUP5 ADD SWAP3 DUP4 MSTORE PUSH1 0xE0 DUP5 ADD SWAP6 CALLER DUP8 MSTORE PUSH2 0x100 DUP6 ADD SWAP6 PUSH1 0x0 DUP8 MSTORE CALLER PUSH1 0x0 MSTORE PUSH1 0x6 PUSH1 0x20 MSTORE PUSH1 0x40 PUSH1 0x0 KECCAK256 SWAP6 MLOAD ISZERO ISZERO PUSH1 0xFF DUP1 NOT DUP9 SLOAD AND SWAP2 AND OR DUP7 SSTORE PUSH1 0x1 DUP7 ADD SWAP1 MLOAD DUP1 MLOAD SWAP1 PUSH1 0x1 PUSH1 0x1 PUSH1 0x40 SHL SUB DUP3 GT PUSH2 0x261 JUMPI DUP2 SWAP1 PUSH2 0x6CF DUP5 SLOAD PUSH2 0x2832 JUMP JUMPDEST PUSH1 0x1F DUP2 GT PUSH2 0xB50 JUMPI JUMPDEST POP PUSH1 0x20 SWAP1 PUSH1 0x1F DUP4 GT PUSH1 0x1 EQ PUSH2 0xAEB JUMPI PUSH1 0x0 SWAP3 PUSH2 0xAE0 JUMPI JUMPDEST POP POP DUP2 PUSH1 0x1 SHL SWAP2 PUSH1 0x0 NOT SWAP1 PUSH1 0x3 SHL SHR NOT AND OR SWAP1 SSTORE JUMPDEST MLOAD PUSH1 0x2 DUP6 ADD SSTORE MLOAD DUP1 MLOAD PUSH1 0x3 DUP6 ADD SWAP2 PUSH1 0x1 PUSH1 0x1 PUSH1 0x40 SHL SUB DUP3 GT PUSH2 0x261 JUMPI DUP2 SWAP1 PUSH2 0x72C DUP5 SLOAD PUSH2 0x2832 JUMP JUMPDEST PUSH1 0x1F DUP2 GT PUSH2 0xA8D JUMPI JUMPDEST POP PUSH1 0x20 SWAP1 PUSH1 0x1F DUP4 GT PUSH1 0x1 EQ PUSH2 0xA28 JUMPI PUSH1 0x0 SWAP3 PUSH2 0xA1D JUMPI JUMPDEST POP POP DUP2 PUSH1 0x1 SHL SWAP2 PUSH1 0x0 NOT SWAP1 PUSH1 0x3 SHL SHR NOT AND OR SWAP1 SSTORE JUMPDEST MLOAD DUP1 MLOAD PUSH1 0x4 DUP5 ADD SWAP2 PUSH1 0x1 PUSH1 0x1 PUSH1 0x40 SHL SUB DUP3 GT PUSH2 0x261 JUMPI DUP2 SWAP1 PUSH2 0x783 DUP5 SLOAD PUSH2 0x2832 JUMP JUMPDEST PUSH1 0x1F DUP2 GT PUSH2 0x9CA JUMPI JUMPDEST POP PUSH1 0x20 SWAP1 PUSH1 0x1F DUP4 GT PUSH1 0x1 EQ PUSH2 0x965 JUMPI PUSH1 0x0 SWAP3 PUSH2 0x95A JUMPI JUMPDEST POP POP DUP2 PUSH1 0x1 SHL SWAP2 PUSH1 0x0 NOT SWAP1 PUSH1 0x3 SHL SHR NOT AND OR SWAP1 SSTORE JUMPDEST PUSH1 0x5 DUP3 ADD SWAP5 MLOAD SWAP5 DUP6 MLOAD PUSH1 0x1 PUSH1 0x1 PUSH1 0x40 SHL SUB DUP2 GT PUSH2 0x261 JUMPI PUSH2 0x7D9 DUP3 SLOAD PUSH2 0x2832 JUMP JUMPDEST PUSH1 0x1F DUP2 GT PUSH2 0x912 JUMPI JUMPDEST POP PUSH1 0x20 PUSH1 0x1F DUP3 GT PUSH1 0x1 EQ PUSH2 0x8A8 JUMPI DUP2 SWAP1 PUSH1 0x7 SWAP7 SWAP8 SWAP9 PUSH1 0x0 SWAP3 PUSH2 0x89D JUMPI JUMPDEST POP POP DUP2 PUSH1 0x1 SHL SWAP2 PUSH1 0x0 NOT SWAP1 PUSH1 0x3 SHL SHR NOT AND OR SWAP1 SSTORE JUMPDEST MLOAD PUSH1 0x6 DUP3 ADD SSTORE SWAP3 MLOAD SWAP3 ADD DUP1 SLOAD PUSH1 0x1 PUSH1 0x1 PUSH1 0xA0 SHL SUB NOT AND PUSH1 0x1 PUSH1 0x1 PUSH1 0xA0 SHL SUB SWAP4 SWAP1 SWAP4 AND SWAP3 SWAP1 SWAP3 OR DUP3 SSTORE MLOAD PUSH1 0x3 DUP2 LT ISZERO PUSH2 0x5A3 JUMPI PUSH2 0x84F SWAP2 PUSH2 0x2AAE JUMP JUMPDEST PUSH1 0x9 SLOAD PUSH1 0x1 PUSH1 0x40 SHL DUP2 LT ISZERO PUSH2 0x261 JUMPI DUP1 PUSH1 0x1 PUSH2 0x870 SWAP3 ADD PUSH1 0x9 SSTORE PUSH1 0x9 PUSH2 0x2480 JUMP JUMPDEST DUP2 SLOAD PUSH1 0x1 PUSH1 0x1 PUSH1 0xA0 SHL SUB PUSH1 0x3 SWAP3 SWAP1 SWAP3 SHL SWAP2 DUP3 SHL NOT AND CALLER SWAP1 SWAP2 SHL OR SWAP1 SSTORE PUSH1 0x5 SLOAD PUSH2 0x898 SWAP1 PUSH2 0x2AD2 JUMP JUMPDEST PUSH1 0x5 SSTORE STOP JUMPDEST ADD MLOAD SWAP1 POP DUP9 DUP1 PUSH2 0x7FF JUMP JUMPDEST PUSH1 0x1F NOT DUP3 AND SWAP8 DUP4 PUSH1 0x0 MSTORE DUP2 PUSH1 0x0 KECCAK256 SWAP9 PUSH1 0x0 JUMPDEST DUP2 DUP2 LT PUSH2 0x8FA JUMPI POP SWAP2 PUSH1 0x7 SWAP8 SWAP9 SWAP10 SWAP2 DUP5 PUSH1 0x1 SWAP6 SWAP5 LT PUSH2 0x8E1 JUMPI JUMPDEST POP POP POP DUP2 SHL ADD SWAP1 SSTORE PUSH2 0x814 JUMP JUMPDEST ADD MLOAD PUSH1 0x0 NOT PUSH1 0xF8 DUP5 PUSH1 0x3 SHL AND SHR NOT AND SWAP1 SSTORE DUP9 DUP1 DUP1 PUSH2 0x8D4 JUMP JUMPDEST DUP4 DUP4 ADD MLOAD DUP12 SSTORE PUSH1 0x1 SWAP1 SWAP11 ADD SWAP10 PUSH1 0x20 SWAP4 DUP5 ADD SWAP4 ADD PUSH2 0x8BA JUMP JUMPDEST DUP3 PUSH1 0x0 MSTORE PUSH1 0x20 PUSH1 0x0 KECCAK256 PUSH1 0x1F DUP4 ADD PUSH1 0x5 SHR DUP2 ADD SWAP2 PUSH1 0x20 DUP5 LT PUSH2 0x950 JUMPI JUMPDEST PUSH1 0x1F ADD PUSH1 0x5 SHR ADD SWAP1 JUMPDEST DUP2 DUP2 LT PUSH2 0x944 JUMPI POP PUSH2 0x7E2 JUMP JUMPDEST PUSH1 0x0 DUP2 SSTORE PUSH1 0x1 ADD PUSH2 0x937 JUMP JUMPDEST SWAP1 SWAP2 POP DUP2 SWAP1 PUSH2 0x92E JUMP JUMPDEST ADD MLOAD SWAP1 POP DUP9 DUP1 PUSH2 0x7A3 JUMP JUMPDEST PUSH1 0x0 DUP6 DUP2 MSTORE DUP3 DUP2 KECCAK256 SWAP4 POP PUSH1 0x1F NOT DUP6 AND SWAP1 JUMPDEST DUP2 DUP2 LT PUSH2 0x9B2 JUMPI POP SWAP1 DUP5 PUSH1 0x1 SWAP6 SWAP5 SWAP4 SWAP3 LT PUSH2 0x999 JUMPI JUMPDEST POP POP POP DUP2 SHL ADD SWAP1 SSTORE PUSH2 0x7B8 JUMP JUMPDEST ADD MLOAD PUSH1 0x0 NOT PUSH1 0xF8 DUP5 PUSH1 0x3 SHL AND SHR NOT AND SWAP1 SSTORE DUP9 DUP1 DUP1 PUSH2 0x98C JUMP JUMPDEST SWAP3 SWAP4 PUSH1 0x20 PUSH1 0x1 DUP2 SWAP3 DUP8 DUP7 ADD MLOAD DUP2 SSTORE ADD SWAP6 ADD SWAP4 ADD PUSH2 0x976 JUMP JUMPDEST SWAP1 SWAP2 POP DUP4 PUSH1 0x0 MSTORE PUSH1 0x20 PUSH1 0x0 KECCAK256 PUSH1 0x1F DUP5 ADD PUSH1 0x5 SHR DUP2 ADD SWAP2 PUSH1 0x20 DUP6 LT PUSH2 0xA13 JUMPI JUMPDEST SWAP1 PUSH1 0x1F DUP6 SWAP5 SWAP4 SWAP3 ADD PUSH1 0x5 SHR ADD SWAP1 JUMPDEST DUP2 DUP2 LT PUSH2 0xA04 JUMPI POP PUSH2 0x78C JUMP JUMPDEST PUSH1 0x0 DUP2 SSTORE DUP5 SWAP4 POP PUSH1 0x1 ADD PUSH2 0x9F7 JUMP JUMPDEST SWAP1 SWAP2 POP DUP2 SWAP1 PUSH2 0x9E9 JUMP JUMPDEST ADD MLOAD SWAP1 POP DUP10 DUP1 PUSH2 0x74C JUMP JUMPDEST PUSH1 0x0 DUP6 DUP2 MSTORE DUP3 DUP2 KECCAK256 SWAP4 POP PUSH1 0x1F NOT DUP6 AND SWAP1 JUMPDEST DUP2 DUP2 LT PUSH2 0xA75 JUMPI POP SWAP1 DUP5 PUSH1 0x1 SWAP6 SWAP5 SWAP4 SWAP3 LT PUSH2 0xA5C JUMPI JUMPDEST POP POP POP DUP2 SHL ADD SWAP1 SSTORE PUSH2 0x761 JUMP JUMPDEST ADD MLOAD PUSH1 0x0 NOT PUSH1 0xF8 DUP5 PUSH1 0x3 SHL AND SHR NOT AND SWAP1 SSTORE DUP10 DUP1 DUP1 PUSH2 0xA4F JUMP JUMPDEST SWAP3 SWAP4 PUSH1 0x20 PUSH1 0x1 DUP2 SWAP3 DUP8 DUP7 ADD MLOAD DUP2 SSTORE ADD SWAP6 ADD SWAP4 ADD PUSH2 0xA39 JUMP JUMPDEST SWAP1 SWAP2 POP DUP4 PUSH1 0x0 MSTORE PUSH1 0x20 PUSH1 0x0 KECCAK256 PUSH1 0x1F DUP5 ADD PUSH1 0x5 SHR DUP2 ADD SWAP2 PUSH1 0x20 DUP6 LT PUSH2 0xAD6 JUMPI JUMPDEST SWAP1 PUSH1 0x1F DUP6 SWAP5 SWAP4 SWAP3 ADD PUSH1 0x5 SHR ADD SWAP1 JUMPDEST DUP2 DUP2 LT PUSH2 0xAC7 JUMPI POP PUSH2 0x735 JUMP JUMPDEST PUSH1 0x0 DUP2 SSTORE DUP5 SWAP4 POP PUSH1 0x1 ADD PUSH2 0xABA JUMP JUMPDEST SWAP1 SWAP2 POP DUP2 SWAP1 PUSH2 0xAAC JUMP JUMPDEST ADD MLOAD SWAP1 POP DUP12 DUP1 PUSH2 0x6EF JUMP JUMPDEST PUSH1 0x0 DUP6 DUP2 MSTORE DUP3 DUP2 KECCAK256 SWAP4 POP PUSH1 0x1F NOT DUP6 AND SWAP1 JUMPDEST DUP2 DUP2 LT PUSH2 0xB38 JUMPI POP SWAP1 DUP5 PUSH1 0x1 SWAP6 SWAP5 SWAP4 SWAP3 LT PUSH2 0xB1F JUMPI JUMPDEST POP POP POP DUP2 SHL ADD SWAP1 SSTORE PUSH2 0x704 JUMP JUMPDEST ADD MLOAD PUSH1 0x0 NOT PUSH1 0xF8 DUP5 PUSH1 0x3 SHL AND SHR NOT AND SWAP1 SSTORE DUP12 DUP1 DUP1 PUSH2 0xB12 JUMP JUMPDEST SWAP3 SWAP4 PUSH1 0x20 PUSH1 0x1 DUP2 SWAP3 DUP8 DUP7 ADD MLOAD DUP2 SSTORE ADD SWAP6 ADD SWAP4 ADD PUSH2 0xAFC JUMP JUMPDEST SWAP1 SWAP2 POP DUP4 PUSH1 0x0 MSTORE PUSH1 0x20 PUSH1 0x0 KECCAK256 PUSH1 0x1F DUP5 ADD PUSH1 0x5 SHR DUP2 ADD SWAP2 PUSH1 0x20 DUP6 LT PUSH2 0xB99 JUMPI JUMPDEST SWAP1 PUSH1 0x1F DUP6 SWAP5 SWAP4 SWAP3 ADD PUSH1 0x5 SHR ADD SWAP1 JUMPDEST DUP2 DUP2 LT PUSH2 0xB8A JUMPI POP PUSH2 0x6D8 JUMP JUMPDEST PUSH1 0x0 DUP2 SSTORE DUP5 SWAP4 POP PUSH1 0x1 ADD PUSH2 0xB7D JUMP JUMPDEST SWAP1 SWAP2 POP DUP2 SWAP1 PUSH2 0xB6F JUMP JUMPDEST CALLVALUE PUSH2 0x32F JUMPI PUSH1 0x0 CALLDATASIZE PUSH1 0x3 NOT ADD SLT PUSH2 0x32F JUMPI PUSH2 0x55A PUSH2 0x610 PUSH2 0x2BE6 JUMP JUMPDEST CALLVALUE PUSH2 0x32F JUMPI PUSH1 0x20 CALLDATASIZE PUSH1 0x3 NOT ADD SLT PUSH2 0x32F JUMPI PUSH1 0x1 PUSH1 0x1 PUSH1 0xA0 SHL SUB PUSH2 0xBE0 PUSH2 0x26DD JUMP JUMPDEST AND PUSH1 0x0 MSTORE PUSH1 0x6 PUSH1 0x20 MSTORE PUSH1 0x20 PUSH1 0x40 PUSH1 0x0 KECCAK256 PUSH1 0xFF DUP2 SLOAD AND SWAP1 PUSH2 0x55A PUSH2 0xC05 PUSH1 0x1 DUP4 ADD PUSH2 0x286C JUMP JUMPDEST PUSH2 0xC93 PUSH1 0x2 DUP5 ADD SLOAD PUSH2 0xC85 PUSH2 0xC1C PUSH1 0x3 DUP8 ADD PUSH2 0x286C JUMP JUMPDEST SWAP2 PUSH2 0xC77 PUSH2 0xC2C PUSH1 0x4 DUP10 ADD PUSH2 0x286C JUMP JUMPDEST SWAP2 PUSH2 0xC39 PUSH1 0x5 DUP11 ADD PUSH2 0x286C JUMP JUMPDEST SWAP5 PUSH2 0xC64 PUSH1 0x7 PUSH1 0x6 DUP13 ADD SLOAD SWAP12 ADD SLOAD SWAP9 PUSH2 0x120 PUSH1 0x40 MLOAD SWAP15 DUP16 SWAP15 DUP16 SWAP1 ISZERO ISZERO DUP2 MSTORE ADD MSTORE PUSH2 0x120 DUP14 ADD SWAP1 PUSH2 0x2498 JUMP JUMPDEST SWAP2 PUSH1 0x40 DUP13 ADD MSTORE DUP11 DUP3 SUB PUSH1 0x60 DUP13 ADD MSTORE PUSH2 0x2498 JUMP JUMPDEST SWAP1 DUP9 DUP3 SUB PUSH1 0x80 DUP11 ADD MSTORE PUSH2 0x2498 JUMP JUMPDEST SWAP1 DUP7 DUP3 SUB PUSH1 0xA0 DUP9 ADD MSTORE PUSH2 0x2498 JUMP JUMPDEST PUSH1 0xC0 DUP6 ADD SWAP4 SWAP1 SWAP4 MSTORE PUSH1 0x1 PUSH1 0x1 PUSH1 0xA0 SHL SUB DUP2 AND PUSH1 0xE0 DUP6 ADD MSTORE PUSH2 0x100 DUP5 ADD SWAP1 PUSH1 0xA0 SHR PUSH1 0xFF AND PUSH2 0x24D9 JUMP JUMPDEST CALLVALUE PUSH2 0x32F JUMPI PUSH1 0x20 CALLDATASIZE PUSH1 0x3 NOT ADD SLT PUSH2 0x32F JUMPI PUSH1 0x4 CALLDATALOAD PUSH1 0xA SLOAD DUP2 LT ISZERO PUSH2 0x32F JUMPI PUSH2 0xCE4 PUSH1 0x20 SWAP2 PUSH2 0x242F JUMP JUMPDEST SWAP1 SLOAD PUSH1 0x40 MLOAD PUSH1 0x3 SWAP3 SWAP1 SWAP3 SHL SHR PUSH1 0x1 PUSH1 0x1 PUSH1 0xA0 SHL SUB AND DUP2 MSTORE RETURN JUMPDEST CALLVALUE PUSH2 0x32F JUMPI PUSH1 0x0 CALLDATASIZE PUSH1 0x3 NOT ADD SLT PUSH2 0x32F JUMPI PUSH1 0x0 SLOAD PUSH1 0x40 MLOAD PUSH1 0x1 PUSH1 0x1 PUSH1 0xA0 SHL SUB SWAP1 SWAP2 AND DUP2 MSTORE PUSH1 0x20 SWAP1 RETURN JUMPDEST CALLVALUE PUSH2 0x32F JUMPI PUSH1 0x20 CALLDATASIZE PUSH1 0x3 NOT ADD SLT PUSH2 0x32F JUMPI PUSH1 0x1 PUSH1 0x1 PUSH1 0xA0 SHL SUB PUSH2 0xD47 PUSH2 0x26DD JUMP JUMPDEST AND PUSH1 0x0 MSTORE PUSH1 0x7 PUSH1 0x20 MSTORE PUSH1 0x40 PUSH1 0x0 KECCAK256 PUSH2 0x120 PUSH2 0xD61 DUP3 PUSH2 0x286C JUMP JUMPDEST SWAP2 PUSH2 0x55A PUSH2 0xD71 PUSH1 0x1 DUP4 ADD PUSH2 0x286C JUMP JUMPDEST PUSH1 0x2 DUP4 ADD SLOAD SWAP3 PUSH2 0xDEF PUSH2 0xD86 PUSH1 0x3 DUP4 ADD PUSH2 0x286C JUMP JUMPDEST SWAP5 PUSH2 0xDE1 PUSH2 0xD96 PUSH1 0x4 DUP6 ADD PUSH2 0x286C JUMP JUMPDEST SWAP2 PUSH1 0x5 DUP6 ADD SLOAD SWAP8 PUSH2 0xDCE PUSH1 0x7 PUSH1 0x6 DUP9 ADD SLOAD SWAP8 ADD SLOAD SWAP8 PUSH2 0xDC0 PUSH1 0x40 MLOAD SWAP14 DUP14 DUP16 SWAP15 DUP16 SWAP1 DUP2 MSTORE ADD SWAP1 PUSH2 0x2498 JUMP JUMPDEST DUP13 DUP2 SUB PUSH1 0x20 DUP15 ADD MSTORE SWAP1 PUSH2 0x2498 JUMP JUMPDEST SWAP2 PUSH1 0x40 DUP12 ADD MSTORE DUP10 DUP3 SUB PUSH1 0x60 DUP12 ADD MSTORE PUSH2 0x2498 JUMP JUMPDEST SWAP1 DUP8 DUP3 SUB PUSH1 0x80 DUP10 ADD MSTORE PUSH2 0x2498 JUMP JUMPDEST SWAP4 PUSH1 0xA0 DUP7 ADD MSTORE PUSH1 0xC0 DUP6 ADD MSTORE PUSH1 0x1 DUP1 PUSH1 0xA0 SHL SUB DUP2 AND PUSH1 0xE0 DUP6 ADD MSTORE PUSH1 0xFF PUSH2 0x100 DUP6 ADD SWAP2 PUSH1 0xA0 SHR AND PUSH2 0x24D9 JUMP JUMPDEST CALLVALUE PUSH2 0x32F JUMPI PUSH1 0x0 CALLDATASIZE PUSH1 0x3 NOT ADD SLT PUSH2 0x32F JUMPI PUSH1 0xC SLOAD PUSH2 0xE36 DUP2 PUSH2 0x2A25 JUMP JUMPDEST SWAP1 PUSH1 0x0 JUMPDEST DUP2 DUP2 LT PUSH2 0xE4F JUMPI PUSH1 0x40 MLOAD DUP1 PUSH2 0x55A DUP6 DUP3 PUSH2 0x267D JUMP JUMPDEST DUP1 PUSH2 0xE5B PUSH1 0x1 SWAP3 PUSH2 0x244A JUMP JUMPDEST DUP4 DUP1 PUSH1 0xA0 SHL SUB SWAP2 SLOAD SWAP1 PUSH1 0x3 SHL SHR AND PUSH1 0x0 MSTORE PUSH1 0x6 PUSH1 0x20 MSTORE PUSH1 0x40 PUSH1 0x0 KECCAK256 PUSH2 0xF06 PUSH1 0xFF PUSH1 0x7 PUSH1 0x40 MLOAD SWAP4 PUSH2 0xE8A DUP6 PUSH2 0x26F3 JUMP JUMPDEST DUP3 DUP2 SLOAD AND ISZERO ISZERO DUP6 MSTORE PUSH2 0xE9D DUP8 DUP3 ADD PUSH2 0x286C JUMP JUMPDEST PUSH1 0x20 DUP7 ADD MSTORE PUSH1 0x2 DUP2 ADD SLOAD PUSH1 0x40 DUP7 ADD MSTORE PUSH2 0xEB8 PUSH1 0x3 DUP3 ADD PUSH2 0x286C JUMP JUMPDEST PUSH1 0x60 DUP7 ADD MSTORE PUSH2 0xEC9 PUSH1 0x4 DUP3 ADD PUSH2 0x286C JUMP JUMPDEST PUSH1 0x80 DUP7 ADD MSTORE PUSH2 0xEDA PUSH1 0x5 DUP3 ADD PUSH2 0x286C JUMP JUMPDEST PUSH1 0xA0 DUP7 ADD MSTORE PUSH1 0x6 DUP2 ADD SLOAD PUSH1 0xC0 DUP7 ADD MSTORE ADD SLOAD DUP6 DUP1 PUSH1 0xA0 SHL SUB DUP2 AND PUSH1 0xE0 DUP6 ADD MSTORE PUSH1 0xA0 SHR AND PUSH2 0x100 DUP4 ADD PUSH2 0x29D2 JUMP JUMPDEST PUSH2 0xF10 DUP3 DUP7 PUSH2 0x29BE JUMP JUMPDEST MSTORE PUSH2 0xF1B DUP2 DUP6 PUSH2 0x29BE JUMP JUMPDEST POP ADD PUSH2 0xE3A JUMP JUMPDEST CALLVALUE PUSH2 0x32F JUMPI PUSH1 0x0 CALLDATASIZE PUSH1 0x3 NOT ADD SLT PUSH2 0x32F JUMPI PUSH1 0x40 MLOAD PUSH1 0x0 PUSH1 0x1 SLOAD PUSH2 0xF44 DUP2 PUSH2 0x2832 JUMP JUMPDEST DUP1 DUP5 MSTORE SWAP1 PUSH1 0x1 DUP2 AND SWAP1 DUP2 ISZERO PUSH2 0xFDF JUMPI POP PUSH1 0x1 EQ PUSH2 0xF80 JUMPI JUMPDEST PUSH2 0x55A DUP4 PUSH2 0xF6C DUP2 DUP6 SUB DUP3 PUSH2 0x270F JUMP JUMPDEST PUSH1 0x40 MLOAD SWAP2 DUP3 SWAP2 PUSH1 0x20 DUP4 MSTORE PUSH1 0x20 DUP4 ADD SWAP1 PUSH2 0x2498 JUMP JUMPDEST PUSH1 0x1 PUSH1 0x0 SWAP1 DUP2 MSTORE PUSH32 0xB10E2D527612073B26EECDFD717E6A320CF44B4AFAC2B0732D9FCBE2B7FA0CF6 SWAP4 SWAP3 POP SWAP1 JUMPDEST DUP1 DUP3 LT PUSH2 0xFC5 JUMPI POP SWAP1 SWAP2 POP DUP2 ADD PUSH1 0x20 ADD PUSH2 0xF6C PUSH2 0xF5C JUMP JUMPDEST SWAP2 SWAP3 PUSH1 0x1 DUP2 PUSH1 0x20 SWAP3 SLOAD DUP4 DUP6 DUP9 ADD ADD MSTORE ADD SWAP2 ADD SWAP1 SWAP3 SWAP2 PUSH2 0xFAD JUMP JUMPDEST PUSH1 0xFF NOT AND PUSH1 0x20 DUP1 DUP7 ADD SWAP2 SWAP1 SWAP2 MSTORE SWAP2 ISZERO ISZERO PUSH1 0x5 SHL DUP5 ADD SWAP1 SWAP2 ADD SWAP2 POP PUSH2 0xF6C SWAP1 POP PUSH2 0xF5C JUMP JUMPDEST CALLVALUE PUSH2 0x32F JUMPI PUSH1 0x20 CALLDATASIZE PUSH1 0x3 NOT ADD SLT PUSH2 0x32F JUMPI PUSH1 0x4 CALLDATALOAD PUSH1 0x9 SLOAD DUP2 LT ISZERO PUSH2 0x32F JUMPI PUSH2 0xCE4 PUSH1 0x20 SWAP2 PUSH2 0x2465 JUMP JUMPDEST CALLVALUE PUSH2 0x32F JUMPI PUSH1 0x20 CALLDATASIZE PUSH1 0x3 NOT ADD SLT PUSH2 0x32F JUMPI PUSH1 0x4 CALLDATALOAD PUSH1 0x1 PUSH1 0x1 PUSH1 0x40 SHL SUB DUP2 GT PUSH2 0x32F JUMPI PUSH2 0x105C SWAP1 CALLDATASIZE SWAP1 PUSH1 0x4 ADD PUSH2 0x2730 JUMP JUMPDEST CALLER PUSH1 0x0 MSTORE PUSH1 0x6 PUSH1 0x20 MSTORE PUSH1 0x1 PUSH1 0x40 PUSH1 0x0 KECCAK256 PUSH2 0x1082 DUP3 DUP1 PUSH1 0xA0 SHL SUB PUSH1 0x7 DUP4 ADD SLOAD AND ISZERO ISZERO PUSH2 0x2B3C JUMP JUMPDEST ADD DUP2 MLOAD PUSH1 0x1 PUSH1 0x1 PUSH1 0x40 SHL SUB DUP2 GT PUSH2 0x261 JUMPI PUSH2 0x109D DUP3 SLOAD PUSH2 0x2832 JUMP JUMPDEST PUSH1 0x1F DUP2 GT PUSH2 0x1144 JUMPI JUMPDEST POP PUSH1 0x20 SWAP3 PUSH1 0x1F DUP3 GT PUSH1 0x1 EQ PUSH2 0x10E4 JUMPI SWAP3 DUP2 SWAP3 SWAP4 PUSH1 0x0 SWAP3 PUSH2 0x10D9 JUMPI JUMPDEST POP POP PUSH1 0x0 NOT PUSH1 0x3 DUP4 SWAP1 SHL SHR NOT AND PUSH1 0x1 SWAP2 SWAP1 SWAP2 SHL OR SWAP1 SSTORE STOP JUMPDEST ADD MLOAD SWAP1 POP DUP4 DUP1 PUSH2 0x10C1 JUMP JUMPDEST PUSH1 0x1F NOT DUP3 AND SWAP4 DUP4 PUSH1 0x0 MSTORE DUP1 PUSH1 0x0 KECCAK256 SWAP2 PUSH1 0x0 JUMPDEST DUP7 DUP2 LT PUSH2 0x112C JUMPI POP DUP4 PUSH1 0x1 SWAP6 SWAP7 LT PUSH2 0x1113 JUMPI JUMPDEST POP POP POP DUP2 SHL ADD SWAP1 SSTORE STOP JUMPDEST ADD MLOAD PUSH1 0x0 NOT PUSH1 0xF8 DUP5 PUSH1 0x3 SHL AND SHR NOT AND SWAP1 SSTORE DUP4 DUP1 DUP1 PUSH2 0x1109 JUMP JUMPDEST SWAP2 SWAP3 PUSH1 0x20 PUSH1 0x1 DUP2 SWAP3 DUP7 DUP6 ADD MLOAD DUP2 SSTORE ADD SWAP5 ADD SWAP3 ADD PUSH2 0x10F6 JUMP JUMPDEST DUP3 PUSH1 0x0 MSTORE PUSH1 0x20 PUSH1 0x0 KECCAK256 PUSH1 0x1F DUP4 ADD PUSH1 0x5 SHR DUP2 ADD SWAP2 PUSH1 0x20 DUP5 LT PUSH2 0x1182 JUMPI JUMPDEST PUSH1 0x1F ADD PUSH1 0x5 SHR ADD SWAP1 JUMPDEST DUP2 DUP2 LT PUSH2 0x1176 JUMPI POP PUSH2 0x10A6 JUMP JUMPDEST PUSH1 0x0 DUP2 SSTORE PUSH1 0x1 ADD PUSH2 0x1169 JUMP JUMPDEST SWAP1 SWAP2 POP DUP2 SWAP1 PUSH2 0x1160 JUMP JUMPDEST CALLVALUE PUSH2 0x32F JUMPI PUSH2 0x119A CALLDATASIZE PUSH2 0x2786 JUMP JUMPDEST SWAP1 PUSH2 0x11B0 PUSH1 0x1 DUP1 PUSH1 0xA0 SHL SUB PUSH1 0x0 SLOAD AND CALLER EQ PUSH2 0x2A75 JUMP JUMPDEST PUSH1 0x1 DUP1 PUSH1 0xA0 SHL SUB AND DUP1 PUSH1 0x0 MSTORE PUSH1 0x7 PUSH1 0x20 MSTORE PUSH1 0x1 PUSH1 0x40 PUSH1 0x0 KECCAK256 PUSH1 0x7 DUP2 ADD PUSH2 0x11DF DUP4 DUP1 PUSH1 0xA0 SHL SUB DUP3 SLOAD AND ISZERO ISZERO PUSH2 0x2B88 JUMP JUMPDEST DUP3 PUSH1 0xA0 SHL PUSH1 0xFF PUSH1 0xA0 SHL NOT DUP3 SLOAD AND OR SWAP1 SSTORE ADD DUP3 MLOAD PUSH1 0x1 PUSH1 0x1 PUSH1 0x40 SHL SUB DUP2 GT PUSH2 0x261 JUMPI PUSH2 0x120A DUP3 SLOAD PUSH2 0x2832 JUMP JUMPDEST PUSH1 0x1F DUP2 GT PUSH2 0x12D3 JUMPI JUMPDEST POP PUSH1 0x20 PUSH1 0x1F DUP3 GT PUSH1 0x1 EQ PUSH2 0x126E JUMPI DUP2 SWAP3 SWAP4 SWAP5 PUSH1 0x0 SWAP3 PUSH2 0x1263 JUMPI JUMPDEST POP POP DUP2 PUSH1 0x1 SHL SWAP2 PUSH1 0x0 NOT SWAP1 PUSH1 0x3 SHL SHR NOT AND OR SWAP1 SSTORE JUMPDEST PUSH1 0xA SLOAD PUSH1 0x1 PUSH1 0x40 SHL DUP2 LT ISZERO PUSH2 0x261 JUMPI DUP1 PUSH1 0x1 PUSH2 0x241 SWAP3 ADD PUSH1 0xA SSTORE PUSH1 0xA PUSH2 0x2480 JUMP JUMPDEST ADD MLOAD SWAP1 POP DUP5 DUP1 PUSH2 0x122D JUMP JUMPDEST PUSH1 0x1F NOT DUP3 AND SWAP1 DUP4 PUSH1 0x0 MSTORE DUP1 PUSH1 0x0 KECCAK256 SWAP2 PUSH1 0x0 JUMPDEST DUP2 DUP2 LT PUSH2 0x12BB JUMPI POP SWAP6 DUP4 PUSH1 0x1 SWAP6 SWAP7 SWAP8 LT PUSH2 0x12A2 JUMPI JUMPDEST POP POP POP DUP2 SHL ADD SWAP1 SSTORE PUSH2 0x1242 JUMP JUMPDEST ADD MLOAD PUSH1 0x0 NOT PUSH1 0xF8 DUP5 PUSH1 0x3 SHL AND SHR NOT AND SWAP1 SSTORE DUP5 DUP1 DUP1 PUSH2 0x1295 JUMP JUMPDEST SWAP2 SWAP3 PUSH1 0x20 PUSH1 0x1 DUP2 SWAP3 DUP7 DUP12 ADD MLOAD DUP2 SSTORE ADD SWAP5 ADD SWAP3 ADD PUSH2 0x1280 JUMP JUMPDEST DUP3 PUSH1 0x0 MSTORE PUSH1 0x20 PUSH1 0x0 KECCAK256 PUSH1 0x1F DUP4 ADD PUSH1 0x5 SHR DUP2 ADD SWAP2 PUSH1 0x20 DUP5 LT PUSH2 0x1311 JUMPI JUMPDEST PUSH1 0x1F ADD PUSH1 0x5 SHR ADD SWAP1 JUMPDEST DUP2 DUP2 LT PUSH2 0x1305 JUMPI POP PUSH2 0x1213 JUMP JUMPDEST PUSH1 0x0 DUP2 SSTORE PUSH1 0x1 ADD PUSH2 0x12F8 JUMP JUMPDEST SWAP1 SWAP2 POP DUP2 SWAP1 PUSH2 0x12EF JUMP JUMPDEST CALLVALUE PUSH2 0x32F JUMPI PUSH1 0x20 CALLDATASIZE PUSH1 0x3 NOT ADD SLT PUSH2 0x32F JUMPI PUSH1 0x4 CALLDATALOAD PUSH1 0x1 PUSH1 0x1 PUSH1 0x40 SHL SUB DUP2 GT PUSH2 0x32F JUMPI PUSH2 0x134B SWAP1 CALLDATASIZE SWAP1 PUSH1 0x4 ADD PUSH2 0x2730 JUMP JUMPDEST CALLER PUSH1 0x0 MSTORE PUSH1 0x7 PUSH1 0x20 MSTORE PUSH1 0x40 PUSH1 0x0 KECCAK256 PUSH2 0x1370 PUSH1 0x1 DUP1 PUSH1 0xA0 SHL SUB PUSH1 0x7 DUP4 ADD SLOAD AND ISZERO ISZERO PUSH2 0x2B3C JUMP JUMPDEST DUP2 MLOAD PUSH1 0x1 PUSH1 0x1 PUSH1 0x40 SHL SUB DUP2 GT PUSH2 0x261 JUMPI PUSH2 0x138A DUP3 SLOAD PUSH2 0x2832 JUMP JUMPDEST PUSH1 0x1F DUP2 GT PUSH2 0x140B JUMPI JUMPDEST POP PUSH1 0x20 SWAP3 PUSH1 0x1F DUP3 GT PUSH1 0x1 EQ PUSH2 0x13C5 JUMPI SWAP3 DUP2 SWAP3 SWAP4 PUSH1 0x0 SWAP3 PUSH2 0x10D9 JUMPI POP POP PUSH1 0x0 NOT PUSH1 0x3 DUP4 SWAP1 SHL SHR NOT AND PUSH1 0x1 SWAP2 SWAP1 SWAP2 SHL OR SWAP1 SSTORE STOP JUMPDEST PUSH1 0x1F NOT DUP3 AND SWAP4 DUP4 PUSH1 0x0 MSTORE DUP1 PUSH1 0x0 KECCAK256 SWAP2 PUSH1 0x0 JUMPDEST DUP7 DUP2 LT PUSH2 0x13F3 JUMPI POP DUP4 PUSH1 0x1 SWAP6 SWAP7 LT PUSH2 0x1113 JUMPI POP POP POP DUP2 SHL ADD SWAP1 SSTORE STOP JUMPDEST SWAP2 SWAP3 PUSH1 0x20 PUSH1 0x1 DUP2 SWAP3 DUP7 DUP6 ADD MLOAD DUP2 SSTORE ADD SWAP5 ADD SWAP3 ADD PUSH2 0x13D7 JUMP JUMPDEST DUP3 PUSH1 0x0 MSTORE PUSH1 0x20 PUSH1 0x0 KECCAK256 PUSH1 0x1F DUP4 ADD PUSH1 0x5 SHR DUP2 ADD SWAP2 PUSH1 0x20 DUP5 LT PUSH2 0x1449 JUMPI JUMPDEST PUSH1 0x1F ADD PUSH1 0x5 SHR ADD SWAP1 JUMPDEST DUP2 DUP2 LT PUSH2 0x143D JUMPI POP PUSH2 0x1393 JUMP JUMPDEST PUSH1 0x0 DUP2 SSTORE PUSH1 0x1 ADD PUSH2 0x1430 JUMP JUMPDEST SWAP1 SWAP2 POP DUP2 SWAP1 PUSH2 0x1427 JUMP JUMPDEST CALLVALUE PUSH2 0x32F JUMPI PUSH2 0x1461 CALLDATASIZE PUSH2 0x27C5 JUMP JUMPDEST SWAP3 PUSH1 0x4 SLOAD SWAP2 PUSH1 0x40 MLOAD SWAP2 PUSH2 0x1473 DUP4 PUSH2 0x26F3 JUMP JUMPDEST DUP3 MSTORE PUSH2 0x147D PUSH2 0x2AF7 JUMP JUMPDEST SWAP3 PUSH1 0x20 DUP4 ADD SWAP4 DUP5 MSTORE PUSH1 0x40 DUP4 ADD SWAP5 DUP6 MSTORE PUSH1 0x60 DUP4 ADD SWAP2 DUP3 MSTORE PUSH1 0x80 DUP4 ADD SWAP6 DUP7 MSTORE PUSH1 0xA0 DUP4 ADD SWAP1 DUP2 MSTORE PUSH1 0xC0 DUP4 ADD SWAP2 PUSH1 0x0 DUP4 MSTORE PUSH1 0xE0 DUP5 ADD SWAP6 CALLER DUP8 MSTORE PUSH2 0x100 DUP6 ADD SWAP6 PUSH1 0x0 DUP8 MSTORE CALLER PUSH1 0x0 MSTORE PUSH1 0x7 PUSH1 0x20 MSTORE PUSH1 0x40 PUSH1 0x0 KECCAK256 SWAP6 MLOAD DUP1 MLOAD SWAP1 PUSH1 0x1 PUSH1 0x1 PUSH1 0x40 SHL SUB DUP3 GT PUSH2 0x261 JUMPI DUP2 SWAP1 PUSH2 0x14E9 DUP10 SLOAD PUSH2 0x2832 JUMP JUMPDEST PUSH1 0x1F DUP2 GT PUSH2 0x1970 JUMPI JUMPDEST POP PUSH1 0x20 SWAP1 PUSH1 0x1F DUP4 GT PUSH1 0x1 EQ PUSH2 0x190B JUMPI PUSH1 0x0 SWAP3 PUSH2 0x1900 JUMPI JUMPDEST POP POP DUP2 PUSH1 0x1 SHL SWAP2 PUSH1 0x0 NOT SWAP1 PUSH1 0x3 SHL SHR NOT AND OR DUP7 SSTORE JUMPDEST MLOAD DUP1 MLOAD PUSH1 0x1 DUP8 ADD SWAP2 PUSH1 0x1 PUSH1 0x1 PUSH1 0x40 SHL SUB DUP3 GT PUSH2 0x261 JUMPI DUP2 SWAP1 PUSH2 0x1540 DUP5 SLOAD PUSH2 0x2832 JUMP JUMPDEST PUSH1 0x1F DUP2 GT PUSH2 0x18AD JUMPI JUMPDEST POP PUSH1 0x20 SWAP1 PUSH1 0x1F DUP4 GT PUSH1 0x1 EQ PUSH2 0x1848 JUMPI PUSH1 0x0 SWAP3 PUSH2 0x183D JUMPI JUMPDEST POP POP DUP2 PUSH1 0x1 SHL SWAP2 PUSH1 0x0 NOT SWAP1 PUSH1 0x3 SHL SHR NOT AND OR SWAP1 SSTORE JUMPDEST MLOAD PUSH1 0x2 DUP6 ADD SSTORE MLOAD DUP1 MLOAD PUSH1 0x3 DUP6 ADD SWAP2 PUSH1 0x1 PUSH1 0x1 PUSH1 0x40 SHL SUB DUP3 GT PUSH2 0x261 JUMPI DUP2 SWAP1 PUSH2 0x159D DUP5 SLOAD PUSH2 0x2832 JUMP JUMPDEST PUSH1 0x1F DUP2 GT PUSH2 0x17EA JUMPI JUMPDEST POP PUSH1 0x20 SWAP1 PUSH1 0x1F DUP4 GT PUSH1 0x1 EQ PUSH2 0x1785 JUMPI PUSH1 0x0 SWAP3 PUSH2 0x177A JUMPI JUMPDEST POP POP DUP2 PUSH1 0x1 SHL SWAP2 PUSH1 0x0 NOT SWAP1 PUSH1 0x3 SHL SHR NOT AND OR SWAP1 SSTORE JUMPDEST PUSH1 0x4 DUP4 ADD SWAP6 MLOAD SWAP6 DUP7 MLOAD PUSH1 0x1 PUSH1 0x1 PUSH1 0x40 SHL SUB DUP2 GT PUSH2 0x261 JUMPI PUSH2 0x15F3 DUP3 SLOAD PUSH2 0x2832 JUMP JUMPDEST PUSH1 0x1F DUP2 GT PUSH2 0x1732 JUMPI JUMPDEST POP PUSH1 0x20 PUSH1 0x1F DUP3 GT PUSH1 0x1 EQ PUSH2 0x16C8 JUMPI DUP2 SWAP1 PUSH1 0x7 SWAP8 SWAP9 SWAP10 PUSH1 0x0 SWAP3 PUSH2 0x16BD JUMPI JUMPDEST POP POP DUP2 PUSH1 0x1 SHL SWAP2 PUSH1 0x0 NOT SWAP1 PUSH1 0x3 SHL SHR NOT AND OR SWAP1 SSTORE JUMPDEST MLOAD PUSH1 0x5 DUP4 ADD SSTORE MLOAD PUSH1 0x6 DUP3 ADD SSTORE SWAP3 MLOAD SWAP3 ADD DUP1 SLOAD PUSH1 0x1 PUSH1 0x1 PUSH1 0xA0 SHL SUB NOT AND PUSH1 0x1 PUSH1 0x1 PUSH1 0xA0 SHL SUB SWAP4 SWAP1 SWAP4 AND SWAP3 SWAP1 SWAP3 OR DUP3 SSTORE MLOAD PUSH1 0x3 DUP2 LT ISZERO PUSH2 0x5A3 JUMPI PUSH2 0x166F SWAP2 PUSH2 0x2AAE JUMP JUMPDEST PUSH1 0x8 SLOAD PUSH1 0x1 PUSH1 0x40 SHL DUP2 LT ISZERO PUSH2 0x261 JUMPI DUP1 PUSH1 0x1 PUSH2 0x1690 SWAP3 ADD PUSH1 0x8 SSTORE PUSH1 0x8 PUSH2 0x2480 JUMP JUMPDEST DUP2 SLOAD PUSH1 0x1 PUSH1 0x1 PUSH1 0xA0 SHL SUB PUSH1 0x3 SWAP3 SWAP1 SWAP3 SHL SWAP2 DUP3 SHL NOT AND CALLER SWAP1 SWAP2 SHL OR SWAP1 SSTORE PUSH1 0x4 SLOAD PUSH2 0x16B8 SWAP1 PUSH2 0x2AD2 JUMP JUMPDEST PUSH1 0x4 SSTORE STOP JUMPDEST ADD MLOAD SWAP1 POP DUP10 DUP1 PUSH2 0x1619 JUMP JUMPDEST PUSH1 0x1F NOT DUP3 AND SWAP9 DUP4 PUSH1 0x0 MSTORE DUP2 PUSH1 0x0 KECCAK256 SWAP10 PUSH1 0x0 JUMPDEST DUP2 DUP2 LT PUSH2 0x171A JUMPI POP SWAP2 PUSH1 0x7 SWAP9 SWAP10 SWAP11 SWAP2 DUP5 PUSH1 0x1 SWAP6 SWAP5 LT PUSH2 0x1701 JUMPI JUMPDEST POP POP POP DUP2 SHL ADD SWAP1 SSTORE PUSH2 0x162E JUMP JUMPDEST ADD MLOAD PUSH1 0x0 NOT PUSH1 0xF8 DUP5 PUSH1 0x3 SHL AND SHR NOT AND SWAP1 SSTORE DUP10 DUP1 DUP1 PUSH2 0x16F4 JUMP JUMPDEST DUP4 DUP4 ADD MLOAD DUP13 SSTORE PUSH1 0x1 SWAP1 SWAP12 ADD SWAP11 PUSH1 0x20 SWAP4 DUP5 ADD SWAP4 ADD PUSH2 0x16DA JUMP JUMPDEST DUP3 PUSH1 0x0 MSTORE PUSH1 0x20 PUSH1 0x0 KECCAK256 PUSH1 0x1F DUP4 ADD PUSH1 0x5 SHR DUP2 ADD SWAP2 PUSH1 0x20 DUP5 LT PUSH2 0x1770 JUMPI JUMPDEST PUSH1 0x1F ADD PUSH1 0x5 SHR ADD SWAP1 JUMPDEST DUP2 DUP2 LT PUSH2 0x1764 JUMPI POP PUSH2 0x15FC JUMP JUMPDEST PUSH1 0x0 DUP2 SSTORE PUSH1 0x1 ADD PUSH2 0x1757 JUMP JUMPDEST SWAP1 SWAP2 POP DUP2 SWAP1 PUSH2 0x174E JUMP JUMPDEST ADD MLOAD SWAP1 POP DUP10 DUP1 PUSH2 0x15BD JUMP JUMPDEST PUSH1 0x0 DUP6 DUP2 MSTORE DUP3 DUP2 KECCAK256 SWAP4 POP PUSH1 0x1F NOT DUP6 AND SWAP1 JUMPDEST DUP2 DUP2 LT PUSH2 0x17D2 JUMPI POP SWAP1 DUP5 PUSH1 0x1 SWAP6 SWAP5 SWAP4 SWAP3 LT PUSH2 0x17B9 JUMPI JUMPDEST POP POP POP DUP2 SHL ADD SWAP1 SSTORE PUSH2 0x15D2 JUMP JUMPDEST ADD MLOAD PUSH1 0x0 NOT PUSH1 0xF8 DUP5 PUSH1 0x3 SHL AND SHR NOT AND SWAP1 SSTORE DUP10 DUP1 DUP1 PUSH2 0x17AC JUMP JUMPDEST SWAP3 SWAP4 PUSH1 0x20 PUSH1 0x1 DUP2 SWAP3 DUP8 DUP7 ADD MLOAD DUP2 SSTORE ADD SWAP6 ADD SWAP4 ADD PUSH2 0x1796 JUMP JUMPDEST SWAP1 SWAP2 POP DUP4 PUSH1 0x0 MSTORE PUSH1 0x20 PUSH1 0x0 KECCAK256 PUSH1 0x1F DUP5 ADD PUSH1 0x5 SHR DUP2 ADD SWAP2 PUSH1 0x20 DUP6 LT PUSH2 0x1833 JUMPI JUMPDEST SWAP1 PUSH1 0x1F DUP6 SWAP5 SWAP4 SWAP3 ADD PUSH1 0x5 SHR ADD SWAP1 JUMPDEST DUP2 DUP2 LT PUSH2 0x1824 JUMPI POP PUSH2 0x15A6 JUMP JUMPDEST PUSH1 0x0 DUP2 SSTORE DUP5 SWAP4 POP PUSH1 0x1 ADD PUSH2 0x1817 JUMP JUMPDEST SWAP1 SWAP2 POP DUP2 SWAP1 PUSH2 0x1809 JUMP JUMPDEST ADD MLOAD SWAP1 POP DUP12 DUP1 PUSH2 0x1560 JUMP JUMPDEST PUSH1 0x0 DUP6 DUP2 MSTORE DUP3 DUP2 KECCAK256 SWAP4 POP PUSH1 0x1F NOT DUP6 AND SWAP1 JUMPDEST DUP2 DUP2 LT PUSH2 0x1895 JUMPI POP SWAP1 DUP5 PUSH1 0x1 SWAP6 SWAP5 SWAP4 SWAP3 LT PUSH2 0x187C JUMPI JUMPDEST POP POP POP DUP2 SHL ADD SWAP1 SSTORE PUSH2 0x1575 JUMP JUMPDEST ADD MLOAD PUSH1 0x0 NOT PUSH1 0xF8 DUP5 PUSH1 0x3 SHL AND SHR NOT AND SWAP1 SSTORE DUP12 DUP1 DUP1 PUSH2 0x186F JUMP JUMPDEST SWAP3 SWAP4 PUSH1 0x20 PUSH1 0x1 DUP2 SWAP3 DUP8 DUP7 ADD MLOAD DUP2 SSTORE ADD SWAP6 ADD SWAP4 ADD PUSH2 0x1859 JUMP JUMPDEST SWAP1 SWAP2 POP DUP4 PUSH1 0x0 MSTORE PUSH1 0x20 PUSH1 0x0 KECCAK256 PUSH1 0x1F DUP5 ADD PUSH1 0x5 SHR DUP2 ADD SWAP2 PUSH1 0x20 DUP6 LT PUSH2 0x18F6 JUMPI JUMPDEST SWAP1 PUSH1 0x1F DUP6 SWAP5 SWAP4 SWAP3 ADD PUSH1 0x5 SHR ADD SWAP1 JUMPDEST DUP2 DUP2 LT PUSH2 0x18E7 JUMPI POP PUSH2 0x1549 JUMP JUMPDEST PUSH1 0x0 DUP2 SSTORE DUP5 SWAP4 POP PUSH1 0x1 ADD PUSH2 0x18DA JUMP JUMPDEST SWAP1 SWAP2 POP DUP2 SWAP1 PUSH2 0x18CC JUMP JUMPDEST ADD MLOAD SWAP1 POP DUP12 DUP1 PUSH2 0x1509 JUMP JUMPDEST PUSH1 0x0 DUP11 DUP2 MSTORE DUP3 DUP2 KECCAK256 SWAP4 POP PUSH1 0x1F NOT DUP6 AND SWAP1 JUMPDEST DUP2 DUP2 LT PUSH2 0x1958 JUMPI POP SWAP1 DUP5 PUSH1 0x1 SWAP6 SWAP5 SWAP4 SWAP3 LT PUSH2 0x193F JUMPI JUMPDEST POP POP POP DUP2 SHL ADD DUP7 SSTORE PUSH2 0x151E JUMP JUMPDEST ADD MLOAD PUSH1 0x0 NOT PUSH1 0xF8 DUP5 PUSH1 0x3 SHL AND SHR NOT AND SWAP1 SSTORE DUP12 DUP1 DUP1 PUSH2 0x1932 JUMP JUMPDEST SWAP3 SWAP4 PUSH1 0x20 PUSH1 0x1 DUP2 SWAP3 DUP8 DUP7 ADD MLOAD DUP2 SSTORE ADD SWAP6 ADD SWAP4 ADD PUSH2 0x191C JUMP JUMPDEST SWAP1 SWAP2 POP DUP9 PUSH1 0x0 MSTORE PUSH1 0x20 PUSH1 0x0 KECCAK256 PUSH1 0x1F DUP5 ADD PUSH1 0x5 SHR DUP2 ADD SWAP2 PUSH1 0x20 DUP6 LT PUSH2 0x19B9 JUMPI JUMPDEST SWAP1 PUSH1 0x1F DUP6 SWAP5 SWAP4 SWAP3 ADD PUSH1 0x5 SHR ADD SWAP1 JUMPDEST DUP2 DUP2 LT PUSH2 0x19AA JUMPI POP PUSH2 0x14F2 JUMP JUMPDEST PUSH1 0x0 DUP2 SSTORE DUP5 SWAP4 POP PUSH1 0x1 ADD PUSH2 0x199D JUMP JUMPDEST SWAP1 SWAP2 POP DUP2 SWAP1 PUSH2 0x198F JUMP JUMPDEST CALLVALUE PUSH2 0x32F JUMPI PUSH1 0x20 CALLDATASIZE PUSH1 0x3 NOT ADD SLT PUSH2 0x32F JUMPI PUSH2 0x19DC PUSH2 0x26DD JUMP JUMPDEST PUSH1 0x2 SLOAD TIMESTAMP LT PUSH2 0x1BAB JUMPI PUSH1 0x3 SLOAD TIMESTAMP GT PUSH2 0x1B73 JUMPI CALLER PUSH1 0x0 MSTORE PUSH1 0x6 PUSH1 0x20 MSTORE PUSH1 0x40 PUSH1 0x0 KECCAK256 PUSH1 0xFF PUSH1 0x7 DUP3 ADD SLOAD PUSH1 0xA0 SHR AND PUSH1 0x3 DUP2 LT ISZERO PUSH2 0x5A3 JUMPI PUSH1 0x1 SUB PUSH2 0x1B2E JUMPI DUP1 SLOAD SWAP2 PUSH1 0xFF DUP4 AND PUSH2 0x1AF0 JUMPI PUSH1 0x1 DUP1 PUSH1 0xA0 SHL SUB AND PUSH1 0x0 MSTORE PUSH1 0x7 PUSH1 0x20 MSTORE PUSH1 0x40 PUSH1 0x0 KECCAK256 SWAP1 PUSH1 0xFF PUSH1 0x7 DUP4 ADD SLOAD PUSH1 0xA0 SHR AND PUSH1 0x3 DUP2 LT ISZERO PUSH2 0x5A3 JUMPI PUSH1 0x1 SUB PUSH2 0x1AAB JUMPI PUSH1 0x1 PUSH1 0x6 SWAP4 PUSH1 0xFF NOT AND OR SWAP1 SSTORE ADD PUSH2 0x1A6A DUP2 SLOAD PUSH2 0x2AD2 JUMP JUMPDEST SWAP1 SSTORE PUSH1 0xC SLOAD PUSH1 0x1 PUSH1 0x40 SHL DUP2 LT ISZERO PUSH2 0x261 JUMPI DUP1 PUSH1 0x1 PUSH2 0x1A8D SWAP3 ADD PUSH1 0xC SSTORE PUSH1 0xC PUSH2 0x2480 JUMP JUMPDEST DUP2 SLOAD PUSH1 0x1 PUSH1 0x1 PUSH1 0xA0 SHL SUB PUSH1 0x3 SWAP3 SWAP1 SWAP3 SHL SWAP2 DUP3 SHL NOT AND CALLER SWAP1 SWAP2 SHL OR SWAP1 SSTORE STOP JUMPDEST PUSH1 0x40 MLOAD PUSH3 0x461BCD PUSH1 0xE5 SHL DUP2 MSTORE PUSH1 0x20 PUSH1 0x4 DUP3 ADD MSTORE PUSH1 0x1A PUSH1 0x24 DUP3 ADD MSTORE PUSH32 0x43616E646964617465206973206E6F742061636365707465642E000000000000 PUSH1 0x44 DUP3 ADD MSTORE PUSH1 0x64 SWAP1 REVERT JUMPDEST PUSH1 0x40 MLOAD PUSH3 0x461BCD PUSH1 0xE5 SHL DUP2 MSTORE PUSH1 0x20 PUSH1 0x4 DUP3 ADD MSTORE PUSH1 0x16 PUSH1 0x24 DUP3 ADD MSTORE PUSH22 0x165BDD481A185D9948185B1C9958591E481D9BDD1959 PUSH1 0x52 SHL PUSH1 0x44 DUP3 ADD MSTORE PUSH1 0x64 SWAP1 REVERT JUMPDEST PUSH1 0x40 MLOAD PUSH3 0x461BCD PUSH1 0xE5 SHL DUP2 MSTORE PUSH1 0x20 PUSH1 0x4 DUP3 ADD MSTORE PUSH1 0x1E PUSH1 0x24 DUP3 ADD MSTORE PUSH32 0x596F7520617265206E6F74206120636F6E6669726D656420766F7465722E0000 PUSH1 0x44 DUP3 ADD MSTORE PUSH1 0x64 SWAP1 REVERT JUMPDEST PUSH1 0x40 MLOAD PUSH3 0x461BCD PUSH1 0xE5 SHL DUP2 MSTORE PUSH1 0x20 PUSH1 0x4 DUP3 ADD MSTORE PUSH1 0x10 PUSH1 0x24 DUP3 ADD MSTORE PUSH16 0x159BDD1A5B99C81A185CC8195B991959 PUSH1 0x82 SHL PUSH1 0x44 DUP3 ADD MSTORE PUSH1 0x64 SWAP1 REVERT JUMPDEST PUSH1 0x40 MLOAD PUSH3 0x461BCD PUSH1 0xE5 SHL DUP2 MSTORE PUSH1 0x20 PUSH1 0x4 DUP3 ADD MSTORE PUSH1 0x1A PUSH1 0x24 DUP3 ADD MSTORE PUSH32 0x566F74696E6720686173206E6F74207374617274656420796574000000000000 PUSH1 0x44 DUP3 ADD MSTORE PUSH1 0x64 SWAP1 REVERT JUMPDEST CALLVALUE PUSH2 0x32F JUMPI PUSH1 0x0 CALLDATASIZE PUSH1 0x3 NOT ADD SLT PUSH2 0x32F JUMPI PUSH1 0x9 SLOAD PUSH2 0x1C0D DUP2 PUSH2 0x2A25 JUMP JUMPDEST SWAP1 PUSH1 0x0 JUMPDEST DUP2 DUP2 LT PUSH2 0x1C26 JUMPI PUSH1 0x40 MLOAD DUP1 PUSH2 0x55A DUP6 DUP3 PUSH2 0x267D JUMP JUMPDEST DUP1 PUSH2 0x1C32 PUSH1 0x1 SWAP3 PUSH2 0x2465 JUMP JUMPDEST DUP4 DUP1 PUSH1 0xA0 SHL SUB SWAP2 SLOAD SWAP1 PUSH1 0x3 SHL SHR AND PUSH1 0x0 MSTORE PUSH1 0x6 PUSH1 0x20 MSTORE PUSH1 0x40 PUSH1 0x0 KECCAK256 PUSH2 0x1C61 PUSH1 0xFF PUSH1 0x7 PUSH1 0x40 MLOAD SWAP4 PUSH2 0xE8A DUP6 PUSH2 0x26F3 JUMP JUMPDEST PUSH2 0x1C6B DUP3 DUP7 PUSH2 0x29BE JUMP JUMPDEST MSTORE PUSH2 0x1C76 DUP2 DUP6 PUSH2 0x29BE JUMP JUMPDEST POP ADD PUSH2 0x1C11 JUMP JUMPDEST CALLVALUE PUSH2 0x32F JUMPI PUSH1 0x20 CALLDATASIZE PUSH1 0x3 NOT ADD SLT PUSH2 0x32F JUMPI PUSH1 0x4 CALLDATALOAD PUSH1 0xC SLOAD DUP2 LT ISZERO PUSH2 0x32F JUMPI PUSH2 0xCE4 PUSH1 0x20 SWAP2 PUSH2 0x244A JUMP JUMPDEST CALLVALUE PUSH2 0x32F JUMPI PUSH2 0x1CB4 CALLDATASIZE PUSH2 0x2786 JUMP JUMPDEST SWAP1 PUSH2 0x1CCA PUSH1 0x1 DUP1 PUSH1 0xA0 SHL SUB PUSH1 0x0 SLOAD AND CALLER EQ PUSH2 0x2A75 JUMP JUMPDEST PUSH1 0x1 PUSH1 0x1 PUSH1 0xA0 SHL SUB SWAP1 DUP2 AND PUSH1 0x0 SWAP1 DUP2 MSTORE PUSH1 0x7 PUSH1 0x20 DUP2 SWAP1 MSTORE PUSH1 0x40 SWAP1 SWAP2 KECCAK256 SWAP1 DUP2 ADD DUP1 SLOAD SWAP1 SWAP3 AND ISZERO PUSH2 0x1DEF JUMPI DUP2 SLOAD PUSH1 0xFF PUSH1 0xA0 SHL NOT AND PUSH1 0x1 PUSH1 0xA1 SHL OR SWAP1 SWAP2 SSTORE DUP2 MLOAD PUSH1 0x1 SWAP2 SWAP1 SWAP2 ADD SWAP1 PUSH1 0x1 PUSH1 0x1 PUSH1 0x40 SHL SUB DUP2 GT PUSH2 0x261 JUMPI PUSH2 0x1D26 DUP3 SLOAD PUSH2 0x2832 JUMP JUMPDEST PUSH1 0x1F DUP2 GT PUSH2 0x1DA7 JUMPI JUMPDEST POP PUSH1 0x20 SWAP3 PUSH1 0x1F DUP3 GT PUSH1 0x1 EQ PUSH2 0x1D61 JUMPI SWAP3 DUP2 SWAP3 SWAP4 PUSH1 0x0 SWAP3 PUSH2 0x10D9 JUMPI POP POP PUSH1 0x0 NOT PUSH1 0x3 DUP4 SWAP1 SHL SHR NOT AND PUSH1 0x1 SWAP2 SWAP1 SWAP2 SHL OR SWAP1 SSTORE STOP JUMPDEST PUSH1 0x1F NOT DUP3 AND SWAP4 DUP4 PUSH1 0x0 MSTORE DUP1 PUSH1 0x0 KECCAK256 SWAP2 PUSH1 0x0 JUMPDEST DUP7 DUP2 LT PUSH2 0x1D8F JUMPI POP DUP4 PUSH1 0x1 SWAP6 SWAP7 LT PUSH2 0x1113 JUMPI POP POP POP DUP2 SHL ADD SWAP1 SSTORE STOP JUMPDEST SWAP2 SWAP3 PUSH1 0x20 PUSH1 0x1 DUP2 SWAP3 DUP7 DUP6 ADD MLOAD DUP2 SSTORE ADD SWAP5 ADD SWAP3 ADD PUSH2 0x1D73 JUMP JUMPDEST DUP3 PUSH1 0x0 MSTORE PUSH1 0x20 PUSH1 0x0 KECCAK256 PUSH1 0x1F DUP4 ADD PUSH1 0x5 SHR DUP2 ADD SWAP2 PUSH1 0x20 DUP5 LT PUSH2 0x1DE5 JUMPI JUMPDEST PUSH1 0x1F ADD PUSH1 0x5 SHR ADD SWAP1 JUMPDEST DUP2 DUP2 LT PUSH2 0x1DD9 JUMPI POP PUSH2 0x1D2F JUMP JUMPDEST PUSH1 0x0 DUP2 SSTORE PUSH1 0x1 ADD PUSH2 0x1DCC JUMP JUMPDEST SWAP1 SWAP2 POP DUP2 SWAP1 PUSH2 0x1DC3 JUMP JUMPDEST PUSH1 0x40 MLOAD PUSH3 0x461BCD PUSH1 0xE5 SHL DUP2 MSTORE PUSH1 0x20 PUSH1 0x4 DUP3 ADD MSTORE PUSH1 0x1B PUSH1 0x24 DUP3 ADD MSTORE PUSH32 0x4E6F2063616E646964617465206461746120617661696C61626C650000000000 PUSH1 0x44 DUP3 ADD MSTORE PUSH1 0x64 SWAP1 REVERT JUMPDEST CALLVALUE PUSH2 0x32F JUMPI PUSH1 0x20 CALLDATASIZE PUSH1 0x3 NOT ADD SLT PUSH2 0x32F JUMPI PUSH2 0x1E4D PUSH2 0x26DD JUMP JUMPDEST PUSH2 0x1E55 PUSH2 0x29DE JUMP JUMPDEST POP PUSH1 0x1 DUP1 PUSH1 0xA0 SHL SUB AND PUSH1 0x0 MSTORE PUSH1 0x6 PUSH1 0x20 MSTORE PUSH1 0x40 PUSH1 0x0 KECCAK256 PUSH1 0x7 PUSH1 0x40 MLOAD SWAP2 PUSH2 0x1E7A DUP4 PUSH2 0x26F3 JUMP JUMPDEST PUSH1 0xFF DUP2 SLOAD AND ISZERO ISZERO DUP4 MSTORE PUSH2 0x1E8F PUSH1 0x1 DUP3 ADD PUSH2 0x286C JUMP JUMPDEST PUSH1 0x20 DUP5 ADD MSTORE PUSH1 0x2 DUP2 ADD SLOAD PUSH1 0x40 DUP5 ADD MSTORE PUSH2 0x1EAA PUSH1 0x3 DUP3 ADD PUSH2 0x286C JUMP JUMPDEST PUSH1 0x60 DUP5 ADD MSTORE PUSH2 0x1EBB PUSH1 0x4 DUP3 ADD PUSH2 0x286C JUMP JUMPDEST PUSH1 0x80 DUP5 ADD MSTORE PUSH2 0x1ECC PUSH1 0x5 DUP3 ADD PUSH2 0x286C JUMP JUMPDEST PUSH1 0xA0 DUP5 ADD MSTORE PUSH1 0x6 DUP2 ADD SLOAD PUSH1 0xC0 DUP5 ADD MSTORE ADD SLOAD PUSH1 0xE0 DUP3 ADD PUSH1 0x1 DUP1 PUSH1 0xA0 SHL SUB DUP3 AND DUP2 MSTORE PUSH2 0x1F01 PUSH1 0xFF PUSH2 0x100 DUP6 ADD SWAP4 PUSH1 0xA0 SHR AND DUP4 PUSH2 0x29D2 JUMP JUMPDEST MLOAD PUSH1 0x1 PUSH1 0x1 PUSH1 0xA0 SHL SUB AND ISZERO PUSH2 0x1F77 JUMPI MLOAD PUSH1 0x3 DUP2 LT ISZERO PUSH2 0x5A3 JUMPI PUSH1 0x0 NOT ADD PUSH2 0x1F3A JUMPI PUSH2 0x55A SWAP1 PUSH1 0x40 MLOAD SWAP2 DUP3 SWAP2 PUSH1 0x20 DUP4 MSTORE PUSH1 0x20 DUP4 ADD SWAP1 PUSH2 0x25E2 JUMP JUMPDEST PUSH1 0x40 MLOAD PUSH3 0x461BCD PUSH1 0xE5 SHL DUP2 MSTORE PUSH1 0x20 PUSH1 0x4 DUP3 ADD MSTORE PUSH1 0x15 PUSH1 0x24 DUP3 ADD MSTORE PUSH21 0x159BDD195C881A5CC81B9BDD081858D8D95C1D1959 PUSH1 0x5A SHL PUSH1 0x44 DUP3 ADD MSTORE PUSH1 0x64 SWAP1 REVERT JUMPDEST PUSH1 0x40 MLOAD PUSH3 0x461BCD PUSH1 0xE5 SHL DUP2 MSTORE PUSH1 0x20 PUSH1 0x4 DUP3 ADD MSTORE PUSH1 0xF PUSH1 0x24 DUP3 ADD MSTORE PUSH15 0x159BDD195C881B9BDD08199BDD5B99 PUSH1 0x8A SHL PUSH1 0x44 DUP3 ADD MSTORE PUSH1 0x64 SWAP1 REVERT JUMPDEST CALLVALUE PUSH2 0x32F JUMPI PUSH1 0x20 CALLDATASIZE PUSH1 0x3 NOT ADD SLT PUSH2 0x32F JUMPI PUSH1 0x4 CALLDATALOAD PUSH1 0xB SLOAD DUP2 LT ISZERO PUSH2 0x32F JUMPI PUSH2 0xCE4 PUSH1 0x20 SWAP2 PUSH2 0x2414 JUMP JUMPDEST CALLVALUE PUSH2 0x32F JUMPI PUSH2 0x1FE5 CALLDATASIZE PUSH2 0x2786 JUMP JUMPDEST SWAP1 PUSH2 0x1FFB PUSH1 0x1 DUP1 PUSH1 0xA0 SHL SUB PUSH1 0x0 SLOAD AND CALLER EQ PUSH2 0x2A75 JUMP JUMPDEST PUSH1 0x1 PUSH1 0x1 PUSH1 0xA0 SHL SUB SWAP1 DUP2 AND PUSH1 0x0 SWAP1 DUP2 MSTORE PUSH1 0x6 PUSH1 0x20 MSTORE PUSH1 0x40 SWAP1 KECCAK256 PUSH1 0x7 DUP2 ADD DUP1 SLOAD SWAP1 SWAP3 AND ISZERO PUSH2 0x211E JUMPI DUP2 SLOAD PUSH1 0xFF PUSH1 0xA0 SHL NOT AND PUSH1 0x1 PUSH1 0xA1 SHL OR SWAP1 SWAP2 SSTORE DUP2 MLOAD PUSH1 0x5 SWAP2 SWAP1 SWAP2 ADD SWAP1 PUSH1 0x1 PUSH1 0x1 PUSH1 0x40 SHL SUB DUP2 GT PUSH2 0x261 JUMPI PUSH2 0x2055 DUP3 SLOAD PUSH2 0x2832 JUMP JUMPDEST PUSH1 0x1F DUP2 GT PUSH2 0x20D6 JUMPI JUMPDEST POP PUSH1 0x20 SWAP3 PUSH1 0x1F DUP3 GT PUSH1 0x1 EQ PUSH2 0x2090 JUMPI SWAP3 DUP2 SWAP3 SWAP4 PUSH1 0x0 SWAP3 PUSH2 0x10D9 JUMPI POP POP PUSH1 0x0 NOT PUSH1 0x3 DUP4 SWAP1 SHL SHR NOT AND PUSH1 0x1 SWAP2 SWAP1 SWAP2 SHL OR SWAP1 SSTORE STOP JUMPDEST PUSH1 0x1F NOT DUP3 AND SWAP4 DUP4 PUSH1 0x0 MSTORE DUP1 PUSH1 0x0 KECCAK256 SWAP2 PUSH1 0x0 JUMPDEST DUP7 DUP2 LT PUSH2 0x20BE JUMPI POP DUP4 PUSH1 0x1 SWAP6 SWAP7 LT PUSH2 0x1113 JUMPI POP POP POP DUP2 SHL ADD SWAP1 SSTORE STOP JUMPDEST SWAP2 SWAP3 PUSH1 0x20 PUSH1 0x1 DUP2 SWAP3 DUP7 DUP6 ADD MLOAD DUP2 SSTORE ADD SWAP5 ADD SWAP3 ADD PUSH2 0x20A2 JUMP JUMPDEST DUP3 PUSH1 0x0 MSTORE PUSH1 0x20 PUSH1 0x0 KECCAK256 PUSH1 0x1F DUP4 ADD PUSH1 0x5 SHR DUP2 ADD SWAP2 PUSH1 0x20 DUP5 LT PUSH2 0x2114 JUMPI JUMPDEST PUSH1 0x1F ADD PUSH1 0x5 SHR ADD SWAP1 JUMPDEST DUP2 DUP2 LT PUSH2 0x2108 JUMPI POP PUSH2 0x205E JUMP JUMPDEST PUSH1 0x0 DUP2 SSTORE PUSH1 0x1 ADD PUSH2 0x20FB JUMP JUMPDEST SWAP1 SWAP2 POP DUP2 SWAP1 PUSH2 0x20F2 JUMP JUMPDEST PUSH1 0x40 MLOAD PUSH3 0x461BCD PUSH1 0xE5 SHL DUP2 MSTORE PUSH1 0x20 PUSH1 0x4 DUP3 ADD MSTORE PUSH1 0x17 PUSH1 0x24 DUP3 ADD MSTORE PUSH32 0x4E6F20766F746572206461746120617661696C61626C65000000000000000000 PUSH1 0x44 DUP3 ADD MSTORE PUSH1 0x64 SWAP1 REVERT JUMPDEST CALLVALUE PUSH2 0x32F JUMPI PUSH1 0x0 CALLDATASIZE PUSH1 0x3 NOT ADD SLT PUSH2 0x32F JUMPI PUSH1 0xA SLOAD PUSH2 0x2180 DUP2 PUSH2 0x296E JUMP JUMPDEST SWAP1 PUSH1 0x0 JUMPDEST DUP2 DUP2 LT PUSH2 0x2199 JUMPI PUSH1 0x40 MLOAD DUP1 PUSH2 0x55A DUP6 DUP3 PUSH2 0x2582 JUMP JUMPDEST DUP1 PUSH2 0x21A5 PUSH1 0x1 SWAP3 PUSH2 0x242F JUMP JUMPDEST DUP4 DUP1 PUSH1 0xA0 SHL SUB SWAP2 SLOAD SWAP1 PUSH1 0x3 SHL SHR AND PUSH1 0x0 MSTORE PUSH1 0x7 PUSH1 0x20 MSTORE PUSH1 0x40 PUSH1 0x0 KECCAK256 PUSH2 0x224C PUSH1 0xFF PUSH1 0x7 PUSH1 0x40 MLOAD SWAP4 PUSH2 0x21D4 DUP6 PUSH2 0x26F3 JUMP JUMPDEST PUSH2 0x21DD DUP2 PUSH2 0x286C JUMP JUMPDEST DUP6 MSTORE PUSH2 0x21EA DUP8 DUP3 ADD PUSH2 0x286C JUMP JUMPDEST PUSH1 0x20 DUP7 ADD MSTORE PUSH1 0x2 DUP2 ADD SLOAD PUSH1 0x40 DUP7 ADD MSTORE PUSH2 0x2205 PUSH1 0x3 DUP3 ADD PUSH2 0x286C JUMP JUMPDEST PUSH1 0x60 DUP7 ADD MSTORE PUSH2 0x2216 PUSH1 0x4 DUP3 ADD PUSH2 0x286C JUMP JUMPDEST PUSH1 0x80 DUP7 ADD MSTORE PUSH1 0x5 DUP2 ADD SLOAD PUSH1 0xA0 DUP7 ADD MSTORE PUSH1 0x6 DUP2 ADD SLOAD PUSH1 0xC0 DUP7 ADD MSTORE ADD SLOAD DUP6 DUP1 PUSH1 0xA0 SHL SUB DUP2 AND PUSH1 0xE0 DUP6 ADD MSTORE PUSH1 0xA0 SHR AND PUSH2 0x100 DUP4 ADD PUSH2 0x29D2 JUMP JUMPDEST PUSH2 0x2256 DUP3 DUP7 PUSH2 0x29BE JUMP JUMPDEST MSTORE PUSH2 0x2261 DUP2 DUP6 PUSH2 0x29BE JUMP JUMPDEST POP ADD PUSH2 0x2184 JUMP JUMPDEST CALLVALUE PUSH2 0x32F JUMPI PUSH1 0x0 CALLDATASIZE PUSH1 0x3 NOT ADD SLT PUSH2 0x32F JUMPI PUSH1 0xB SLOAD PUSH2 0x2285 DUP2 PUSH2 0x2A25 JUMP JUMPDEST SWAP1 PUSH1 0x0 JUMPDEST DUP2 DUP2 LT PUSH2 0x229E JUMPI PUSH1 0x40 MLOAD DUP1 PUSH2 0x55A DUP6 DUP3 PUSH2 0x267D JUMP JUMPDEST DUP1 PUSH2 0x22AA PUSH1 0x1 SWAP3 PUSH2 0x2414 JUMP JUMPDEST DUP4 DUP1 PUSH1 0xA0 SHL SUB SWAP2 SLOAD SWAP1 PUSH1 0x3 SHL SHR AND PUSH1 0x0 MSTORE PUSH1 0x6 PUSH1 0x20 MSTORE PUSH1 0x40 PUSH1 0x0 KECCAK256 PUSH2 0x22D9 PUSH1 0xFF PUSH1 0x7 PUSH1 0x40 MLOAD SWAP4 PUSH2 0xE8A DUP6 PUSH2 0x26F3 JUMP JUMPDEST PUSH2 0x22E3 DUP3 DUP7 PUSH2 0x29BE JUMP JUMPDEST MSTORE PUSH2 0x22EE DUP2 DUP6 PUSH2 0x29BE JUMP JUMPDEST POP ADD PUSH2 0x2289 JUMP JUMPDEST CALLVALUE PUSH2 0x32F JUMPI PUSH1 0x0 CALLDATASIZE PUSH1 0x3 NOT ADD SLT PUSH2 0x32F JUMPI PUSH1 0x20 PUSH1 0x2 SLOAD PUSH1 0x40 MLOAD SWAP1 DUP2 MSTORE RETURN JUMPDEST CALLVALUE PUSH2 0x32F JUMPI PUSH1 0x0 CALLDATASIZE PUSH1 0x3 NOT ADD SLT PUSH2 0x32F JUMPI PUSH1 0x8 SLOAD PUSH2 0x2330 DUP2 PUSH2 0x296E JUMP JUMPDEST SWAP1 PUSH1 0x0 JUMPDEST DUP2 DUP2 LT PUSH2 0x2349 JUMPI PUSH1 0x40 MLOAD DUP1 PUSH2 0x55A DUP6 DUP3 PUSH2 0x2582 JUMP JUMPDEST DUP1 PUSH2 0x2355 PUSH1 0x1 SWAP3 PUSH2 0x23E3 JUMP JUMPDEST DUP4 DUP1 PUSH1 0xA0 SHL SUB SWAP2 SLOAD SWAP1 PUSH1 0x3 SHL SHR AND PUSH1 0x0 MSTORE PUSH1 0x7 PUSH1 0x20 MSTORE PUSH1 0x40 PUSH1 0x0 KECCAK256 PUSH2 0x2384 PUSH1 0xFF PUSH1 0x7 PUSH1 0x40 MLOAD SWAP4 PUSH2 0x21D4 DUP6 PUSH2 0x26F3 JUMP JUMPDEST PUSH2 0x238E DUP3 DUP7 PUSH2 0x29BE JUMP JUMPDEST MSTORE PUSH2 0x2399 DUP2 DUP6 PUSH2 0x29BE JUMP JUMPDEST POP ADD PUSH2 0x2334 JUMP JUMPDEST CALLVALUE PUSH2 0x32F JUMPI PUSH1 0x0 CALLDATASIZE PUSH1 0x3 NOT ADD SLT PUSH2 0x32F JUMPI PUSH1 0x20 PUSH1 0x3 SLOAD PUSH1 0x40 MLOAD SWAP1 DUP2 MSTORE RETURN JUMPDEST CALLVALUE PUSH2 0x32F JUMPI PUSH1 0x20 CALLDATASIZE PUSH1 0x3 NOT ADD SLT PUSH2 0x32F JUMPI PUSH1 0x4 CALLDATALOAD PUSH1 0x8 SLOAD DUP2 LT ISZERO PUSH2 0x32F JUMPI PUSH2 0xCE4 PUSH1 0x20 SWAP2 JUMPDEST PUSH1 0x8 SLOAD DUP2 LT ISZERO PUSH2 0x23FE JUMPI PUSH1 0x8 PUSH1 0x0 MSTORE PUSH1 0x20 PUSH1 0x0 KECCAK256 ADD SWAP1 PUSH1 0x0 SWAP1 JUMP JUMPDEST PUSH4 0x4E487B71 PUSH1 0xE0 SHL PUSH1 0x0 MSTORE PUSH1 0x32 PUSH1 0x4 MSTORE PUSH1 0x24 PUSH1 0x0 REVERT JUMPDEST PUSH1 0xB SLOAD DUP2 LT ISZERO PUSH2 0x23FE JUMPI PUSH1 0xB PUSH1 0x0 MSTORE PUSH1 0x20 PUSH1 0x0 KECCAK256 ADD SWAP1 PUSH1 0x0 SWAP1 JUMP JUMPDEST PUSH1 0xA SLOAD DUP2 LT ISZERO PUSH2 0x23FE JUMPI PUSH1 0xA PUSH1 0x0 MSTORE PUSH1 0x20 PUSH1 0x0 KECCAK256 ADD SWAP1 PUSH1 0x0 SWAP1 JUMP JUMPDEST PUSH1 0xC SLOAD DUP2 LT ISZERO PUSH2 0x23FE JUMPI PUSH1 0xC PUSH1 0x0 MSTORE PUSH1 0x20 PUSH1 0x0 KECCAK256 ADD SWAP1 PUSH1 0x0 SWAP1 JUMP JUMPDEST PUSH1 0x9 SLOAD DUP2 LT ISZERO PUSH2 0x23FE JUMPI PUSH1 0x9 PUSH1 0x0 MSTORE PUSH1 0x20 PUSH1 0x0 KECCAK256 ADD SWAP1 PUSH1 0x0 SWAP1 JUMP JUMPDEST DUP1 SLOAD DUP3 LT ISZERO PUSH2 0x23FE JUMPI PUSH1 0x0 MSTORE PUSH1 0x20 PUSH1 0x0 KECCAK256 ADD SWAP1 PUSH1 0x0 SWAP1 JUMP JUMPDEST SWAP2 SWAP1 DUP3 MLOAD SWAP3 DUP4 DUP3 MSTORE PUSH1 0x0 JUMPDEST DUP5 DUP2 LT PUSH2 0x24C4 JUMPI POP POP DUP3 PUSH1 0x0 PUSH1 0x20 DUP1 SWAP5 SWAP6 DUP5 ADD ADD MSTORE PUSH1 0x1F DUP1 NOT SWAP2 ADD AND ADD ADD SWAP1 JUMP JUMPDEST DUP1 PUSH1 0x20 DUP1 SWAP3 DUP5 ADD ADD MLOAD DUP3 DUP3 DUP7 ADD ADD MSTORE ADD PUSH2 0x24A3 JUMP JUMPDEST SWAP1 PUSH1 0x3 DUP3 LT ISZERO PUSH2 0x5A3 JUMPI MSTORE JUMP JUMPDEST SWAP1 PUSH2 0x257F SWAP1 PUSH2 0x100 DUP1 PUSH2 0x254D PUSH2 0x253B PUSH2 0x251F PUSH2 0x250D DUP9 MLOAD PUSH2 0x120 DUP9 MSTORE PUSH2 0x120 DUP9 ADD SWAP1 PUSH2 0x2498 JUMP JUMPDEST PUSH1 0x20 DUP10 ADD MLOAD DUP8 DUP3 SUB PUSH1 0x20 DUP10 ADD MSTORE PUSH2 0x2498 JUMP JUMPDEST PUSH1 0x40 DUP9 ADD MLOAD PUSH1 0x40 DUP8 ADD MSTORE PUSH1 0x60 DUP9 ADD MLOAD DUP7 DUP3 SUB PUSH1 0x60 DUP9 ADD MSTORE PUSH2 0x2498 JUMP JUMPDEST PUSH1 0x80 DUP8 ADD MLOAD DUP6 DUP3 SUB PUSH1 0x80 DUP8 ADD MSTORE PUSH2 0x2498 JUMP JUMPDEST PUSH1 0xA0 DUP1 DUP8 ADD MLOAD SWAP1 DUP6 ADD MSTORE PUSH1 0xC0 DUP1 DUP8 ADD MLOAD SWAP1 DUP6 ADD MSTORE PUSH1 0xE0 DUP1 DUP8 ADD MLOAD PUSH1 0x1 PUSH1 0x1 PUSH1 0xA0 SHL SUB AND SWAP1 DUP6 ADD MSTORE SWAP5 ADD MLOAD SWAP2 ADD SWAP1 PUSH2 0x24D9 JUMP JUMPDEST SWAP1 JUMP JUMPDEST PUSH1 0x20 DUP2 ADD PUSH1 0x20 DUP3 MSTORE DUP3 MLOAD DUP1 SWAP2 MSTORE PUSH1 0x40 DUP3 ADD SWAP2 PUSH1 0x20 PUSH1 0x40 DUP4 PUSH1 0x5 SHL DUP4 ADD ADD SWAP5 ADD SWAP3 PUSH1 0x0 SWAP2 JUMPDEST DUP4 DUP4 LT PUSH2 0x25B5 JUMPI POP POP POP POP POP SWAP1 JUMP JUMPDEST SWAP1 SWAP2 SWAP3 SWAP4 SWAP5 PUSH1 0x20 DUP1 PUSH2 0x25D3 PUSH1 0x1 SWAP4 PUSH1 0x3F NOT DUP7 DUP3 SUB ADD DUP8 MSTORE DUP10 MLOAD PUSH2 0x24E6 JUMP JUMPDEST SWAP8 ADD SWAP4 ADD SWAP4 ADD SWAP2 SWAP4 SWAP3 SWAP1 PUSH2 0x25A6 JUMP JUMPDEST SWAP1 PUSH2 0x257F SWAP1 DUP3 MLOAD ISZERO ISZERO DUP2 MSTORE PUSH2 0x100 DUP1 PUSH2 0x2655 PUSH2 0x2643 PUSH2 0x2631 PUSH2 0x2615 PUSH1 0x20 DUP10 ADD MLOAD PUSH2 0x120 PUSH1 0x20 DUP10 ADD MSTORE PUSH2 0x120 DUP9 ADD SWAP1 PUSH2 0x2498 JUMP JUMPDEST PUSH1 0x40 DUP10 ADD MLOAD PUSH1 0x40 DUP9 ADD MSTORE PUSH1 0x60 DUP10 ADD MLOAD DUP8 DUP3 SUB PUSH1 0x60 DUP10 ADD MSTORE PUSH2 0x2498 JUMP JUMPDEST PUSH1 0x80 DUP9 ADD MLOAD DUP7 DUP3 SUB PUSH1 0x80 DUP9 ADD MSTORE PUSH2 0x2498 JUMP JUMPDEST PUSH1 0xA0 DUP8 ADD MLOAD DUP6 DUP3 SUB PUSH1 0xA0 DUP8 ADD MSTORE PUSH2 0x2498 JUMP JUMPDEST PUSH1 0xC0 DUP1 DUP8 ADD MLOAD SWAP1 DUP6 ADD MSTORE PUSH1 0xE0 DUP1 DUP8 ADD MLOAD PUSH1 0x1 PUSH1 0x1 PUSH1 0xA0 SHL SUB AND SWAP1 DUP6 ADD MSTORE SWAP5 ADD MLOAD SWAP2 ADD SWAP1 PUSH2 0x24D9 JUMP JUMPDEST PUSH1 0x20 DUP2 ADD PUSH1 0x20 DUP3 MSTORE DUP3 MLOAD DUP1 SWAP2 MSTORE PUSH1 0x40 DUP3 ADD SWAP2 PUSH1 0x20 PUSH1 0x40 DUP4 PUSH1 0x5 SHL DUP4 ADD ADD SWAP5 ADD SWAP3 PUSH1 0x0 SWAP2 JUMPDEST DUP4 DUP4 LT PUSH2 0x26B0 JUMPI POP POP POP POP POP SWAP1 JUMP JUMPDEST SWAP1 SWAP2 SWAP3 SWAP4 SWAP5 PUSH1 0x20 DUP1 PUSH2 0x26CE PUSH1 0x1 SWAP4 PUSH1 0x3F NOT DUP7 DUP3 SUB ADD DUP8 MSTORE DUP10 MLOAD PUSH2 0x25E2 JUMP JUMPDEST SWAP8 ADD SWAP4 ADD SWAP4 ADD SWAP2 SWAP4 SWAP3 SWAP1 PUSH2 0x26A1 JUMP JUMPDEST PUSH1 0x4 CALLDATALOAD SWAP1 PUSH1 0x1 PUSH1 0x1 PUSH1 0xA0 SHL SUB DUP3 AND DUP3 SUB PUSH2 0x32F JUMPI JUMP JUMPDEST PUSH2 0x120 DUP2 ADD SWAP1 DUP2 LT PUSH1 0x1 PUSH1 0x1 PUSH1 0x40 SHL SUB DUP3 GT OR PUSH2 0x261 JUMPI PUSH1 0x40 MSTORE JUMP JUMPDEST SWAP1 PUSH1 0x1F DUP1 NOT SWAP2 ADD AND DUP2 ADD SWAP1 DUP2 LT PUSH1 0x1 PUSH1 0x1 PUSH1 0x40 SHL SUB DUP3 GT OR PUSH2 0x261 JUMPI PUSH1 0x40 MSTORE JUMP JUMPDEST DUP2 PUSH1 0x1F DUP3 ADD SLT ISZERO PUSH2 0x32F JUMPI DUP1 CALLDATALOAD SWAP1 PUSH1 0x1 PUSH1 0x1 PUSH1 0x40 SHL SUB DUP3 GT PUSH2 0x261 JUMPI PUSH1 0x40 MLOAD SWAP3 PUSH2 0x2764 PUSH1 0x1F DUP5 ADD PUSH1 0x1F NOT AND PUSH1 0x20 ADD DUP6 PUSH2 0x270F JUMP JUMPDEST DUP3 DUP5 MSTORE PUSH1 0x20 DUP4 DUP4 ADD ADD GT PUSH2 0x32F JUMPI DUP2 PUSH1 0x0 SWAP3 PUSH1 0x20 DUP1 SWAP4 ADD DUP4 DUP7 ADD CALLDATACOPY DUP4 ADD ADD MSTORE SWAP1 JUMP JUMPDEST SWAP1 PUSH1 0x40 PUSH1 0x3 NOT DUP4 ADD SLT PUSH2 0x32F JUMPI PUSH1 0x4 CALLDATALOAD PUSH1 0x1 PUSH1 0x1 PUSH1 0xA0 SHL SUB DUP2 AND DUP2 SUB PUSH2 0x32F JUMPI SWAP2 PUSH1 0x24 CALLDATALOAD SWAP1 PUSH1 0x1 PUSH1 0x1 PUSH1 0x40 SHL SUB DUP3 GT PUSH2 0x32F JUMPI PUSH2 0x257F SWAP2 PUSH1 0x4 ADD PUSH2 0x2730 JUMP JUMPDEST SWAP1 PUSH1 0x80 PUSH1 0x3 NOT DUP4 ADD SLT PUSH2 0x32F JUMPI PUSH1 0x4 CALLDATALOAD PUSH1 0x1 PUSH1 0x1 PUSH1 0x40 SHL SUB DUP2 GT PUSH2 0x32F JUMPI DUP3 PUSH2 0x27F0 SWAP2 PUSH1 0x4 ADD PUSH2 0x2730 JUMP JUMPDEST SWAP2 PUSH1 0x24 CALLDATALOAD SWAP2 PUSH1 0x44 CALLDATALOAD PUSH1 0x1 PUSH1 0x1 PUSH1 0x40 SHL SUB DUP2 GT PUSH2 0x32F JUMPI DUP3 PUSH2 0x2813 SWAP2 PUSH1 0x4 ADD PUSH2 0x2730 JUMP JUMPDEST SWAP2 PUSH1 0x64 CALLDATALOAD SWAP1 PUSH1 0x1 PUSH1 0x1 PUSH1 0x40 SHL SUB DUP3 GT PUSH2 0x32F JUMPI PUSH2 0x257F SWAP2 PUSH1 0x4 ADD PUSH2 0x2730 JUMP JUMPDEST SWAP1 PUSH1 0x1 DUP3 DUP2 SHR SWAP3 AND DUP1 ISZERO PUSH2 0x2862 JUMPI JUMPDEST PUSH1 0x20 DUP4 LT EQ PUSH2 0x284C JUMPI JUMP JUMPDEST PUSH4 0x4E487B71 PUSH1 0xE0 SHL PUSH1 0x0 MSTORE PUSH1 0x22 PUSH1 0x4 MSTORE PUSH1 0x24 PUSH1 0x0 REVERT JUMPDEST SWAP2 PUSH1 0x7F AND SWAP2 PUSH2 0x2841 JUMP JUMPDEST SWAP1 PUSH1 0x40 MLOAD SWAP2 DUP3 PUSH1 0x0 DUP3 SLOAD SWAP3 PUSH2 0x2880 DUP5 PUSH2 0x2832 JUMP JUMPDEST DUP1 DUP5 MSTORE SWAP4 PUSH1 0x1 DUP2 AND SWAP1 DUP2 ISZERO PUSH2 0x28EE JUMPI POP PUSH1 0x1 EQ PUSH2 0x28A7 JUMPI JUMPDEST POP PUSH2 0x28A5 SWAP3 POP SUB DUP4 PUSH2 0x270F JUMP JUMPDEST JUMP JUMPDEST SWAP1 POP PUSH1 0x0 SWAP3 SWAP2 SWAP3 MSTORE PUSH1 0x20 PUSH1 0x0 KECCAK256 SWAP1 PUSH1 0x0 SWAP2 JUMPDEST DUP2 DUP4 LT PUSH2 0x28D2 JUMPI POP POP SWAP1 PUSH1 0x20 PUSH2 0x28A5 SWAP3 DUP3 ADD ADD CODESIZE PUSH2 0x2898 JUMP JUMPDEST PUSH1 0x20 SWAP2 SWAP4 POP DUP1 PUSH1 0x1 SWAP2 SLOAD DUP4 DUP6 DUP10 ADD ADD MSTORE ADD SWAP2 ADD SWAP1 SWAP2 DUP5 SWAP3 PUSH2 0x28B9 JUMP JUMPDEST SWAP1 POP PUSH1 0x20 SWAP3 POP PUSH2 0x28A5 SWAP5 SWAP2 POP PUSH1 0xFF NOT AND DUP3 DUP5 ADD MSTORE ISZERO ISZERO PUSH1 0x5 SHL DUP3 ADD ADD CODESIZE PUSH2 0x2898 JUMP JUMPDEST PUSH1 0x1 PUSH1 0x1 PUSH1 0x40 SHL SUB DUP2 GT PUSH2 0x261 JUMPI PUSH1 0x5 SHL PUSH1 0x20 ADD SWAP1 JUMP JUMPDEST PUSH1 0x40 MLOAD SWAP1 PUSH2 0x2934 DUP3 PUSH2 0x26F3 JUMP JUMPDEST PUSH1 0x0 PUSH2 0x100 DUP4 PUSH1 0x60 DUP2 MSTORE PUSH1 0x60 PUSH1 0x20 DUP3 ADD MSTORE DUP3 PUSH1 0x40 DUP3 ADD MSTORE PUSH1 0x60 DUP1 DUP3 ADD MSTORE PUSH1 0x60 PUSH1 0x80 DUP3 ADD MSTORE DUP3 PUSH1 0xA0 DUP3 ADD MSTORE DUP3 PUSH1 0xC0 DUP3 ADD MSTORE DUP3 PUSH1 0xE0 DUP3 ADD MSTORE ADD MSTORE JUMP JUMPDEST SWAP1 PUSH2 0x2978 DUP3 PUSH2 0x2910 JUMP JUMPDEST PUSH2 0x2985 PUSH1 0x40 MLOAD SWAP2 DUP3 PUSH2 0x270F JUMP JUMPDEST DUP3 DUP2 MSTORE DUP1 SWAP3 PUSH2 0x2996 PUSH1 0x1F NOT SWAP2 PUSH2 0x2910 JUMP JUMPDEST ADD SWAP1 PUSH1 0x0 JUMPDEST DUP3 DUP2 LT PUSH2 0x29A7 JUMPI POP POP POP JUMP JUMPDEST PUSH1 0x20 SWAP1 PUSH2 0x29B2 PUSH2 0x2927 JUMP JUMPDEST DUP3 DUP3 DUP6 ADD ADD MSTORE ADD PUSH2 0x299B JUMP JUMPDEST DUP1 MLOAD DUP3 LT ISZERO PUSH2 0x23FE JUMPI PUSH1 0x20 SWAP2 PUSH1 0x5 SHL ADD ADD SWAP1 JUMP JUMPDEST PUSH1 0x3 DUP3 LT ISZERO PUSH2 0x5A3 JUMPI MSTORE JUMP JUMPDEST PUSH1 0x40 MLOAD SWAP1 PUSH2 0x29EB DUP3 PUSH2 0x26F3 JUMP JUMPDEST PUSH1 0x0 PUSH2 0x100 DUP4 DUP3 DUP2 MSTORE PUSH1 0x60 PUSH1 0x20 DUP3 ADD MSTORE DUP3 PUSH1 0x40 DUP3 ADD MSTORE PUSH1 0x60 DUP1 DUP3 ADD MSTORE PUSH1 0x60 PUSH1 0x80 DUP3 ADD MSTORE PUSH1 0x60 PUSH1 0xA0 DUP3 ADD MSTORE DUP3 PUSH1 0xC0 DUP3 ADD MSTORE DUP3 PUSH1 0xE0 DUP3 ADD MSTORE ADD MSTORE JUMP JUMPDEST SWAP1 PUSH2 0x2A2F DUP3 PUSH2 0x2910 JUMP JUMPDEST PUSH2 0x2A3C PUSH1 0x40 MLOAD SWAP2 DUP3 PUSH2 0x270F JUMP JUMPDEST DUP3 DUP2 MSTORE DUP1 SWAP3 PUSH2 0x2A4D PUSH1 0x1F NOT SWAP2 PUSH2 0x2910 JUMP JUMPDEST ADD SWAP1 PUSH1 0x0 JUMPDEST DUP3 DUP2 LT PUSH2 0x2A5E JUMPI POP POP POP JUMP JUMPDEST PUSH1 0x20 SWAP1 PUSH2 0x2A69 PUSH2 0x29DE JUMP JUMPDEST DUP3 DUP3 DUP6 ADD ADD MSTORE ADD PUSH2 0x2A52 JUMP JUMPDEST ISZERO PUSH2 0x2A7C JUMPI JUMP JUMPDEST PUSH1 0x40 MLOAD PUSH3 0x461BCD PUSH1 0xE5 SHL DUP2 MSTORE PUSH1 0x20 PUSH1 0x4 DUP3 ADD MSTORE PUSH1 0xA PUSH1 0x24 DUP3 ADD MSTORE PUSH10 0x27B7363C9037BBB732B9 PUSH1 0xB1 SHL PUSH1 0x44 DUP3 ADD MSTORE PUSH1 0x64 SWAP1 REVERT JUMPDEST SWAP1 PUSH1 0x3 DUP2 LT ISZERO PUSH2 0x5A3 JUMPI DUP2 SLOAD PUSH1 0xFF PUSH1 0xA0 SHL NOT AND PUSH1 0xA0 SWAP2 SWAP1 SWAP2 SHL PUSH1 0xFF PUSH1 0xA0 SHL AND OR SWAP1 SSTORE JUMP JUMPDEST PUSH1 0x0 NOT DUP2 EQ PUSH2 0x2AE1 JUMPI PUSH1 0x1 ADD SWAP1 JUMP JUMPDEST PUSH4 0x4E487B71 PUSH1 0xE0 SHL PUSH1 0x0 MSTORE PUSH1 0x11 PUSH1 0x4 MSTORE PUSH1 0x24 PUSH1 0x0 REVERT JUMPDEST PUSH1 0x40 MLOAD SWAP1 PUSH2 0x2B06 PUSH1 0x60 DUP4 PUSH2 0x270F JUMP JUMPDEST PUSH1 0x21 DUP3 MSTORE PUSH1 0x1B PUSH1 0xFA SHL PUSH1 0x40 DUP4 PUSH32 0x526567697374726174696F6E206973206177616974696E6720617070726F7661 PUSH1 0x20 DUP3 ADD MSTORE ADD MSTORE JUMP JUMPDEST ISZERO PUSH2 0x2B43 JUMPI JUMP JUMPDEST PUSH1 0x40 MLOAD PUSH3 0x461BCD PUSH1 0xE5 SHL DUP2 MSTORE PUSH1 0x20 PUSH1 0x4 DUP3 ADD MSTORE PUSH1 0x18 PUSH1 0x24 DUP3 ADD MSTORE PUSH32 0x4E6F20766F746572206461746120617661696C61626C652E0000000000000000 PUSH1 0x44 DUP3 ADD MSTORE PUSH1 0x64 SWAP1 REVERT JUMPDEST ISZERO PUSH2 0x2B8F JUMPI JUMP JUMPDEST PUSH1 0x40 MLOAD PUSH3 0x461BCD PUSH1 0xE5 SHL DUP2 MSTORE PUSH1 0x20 PUSH1 0x4 DUP3 ADD MSTORE PUSH1 0x29 PUSH1 0x24 DUP3 ADD MSTORE PUSH32 0x5468697320766F74657220646F6573206E6F742061707065617220696E206F75 PUSH1 0x44 DUP3 ADD MSTORE PUSH9 0x391039BCB9BA32B697 PUSH1 0xB9 SHL PUSH1 0x64 DUP3 ADD MSTORE PUSH1 0x84 SWAP1 REVERT JUMPDEST PUSH2 0x2BEE PUSH2 0x2927 JUMP JUMPDEST POP PUSH2 0x2BF7 PUSH2 0x2927 JUMP JUMPDEST PUSH1 0xA SLOAD PUSH1 0x0 DUP1 JUMPDEST DUP3 DUP2 LT PUSH2 0x2C0B JUMPI POP POP POP SWAP1 JUMP JUMPDEST PUSH2 0x2C14 DUP2 PUSH2 0x242F JUMP JUMPDEST PUSH1 0x1 DUP1 PUSH1 0xA0 SHL SUB SWAP2 SLOAD SWAP1 PUSH1 0x3 SHL SHR AND PUSH1 0x0 MSTORE PUSH1 0x7 PUSH1 0x20 MSTORE PUSH1 0x40 PUSH1 0x0 KECCAK256 PUSH1 0x40 MLOAD SWAP1 PUSH2 0x2C3D DUP3 PUSH2 0x26F3 JUMP JUMPDEST PUSH2 0x2C46 DUP2 PUSH2 0x286C JUMP JUMPDEST DUP3 MSTORE PUSH2 0x2C54 PUSH1 0x1 DUP3 ADD PUSH2 0x286C JUMP JUMPDEST PUSH1 0x20 DUP4 ADD MSTORE PUSH1 0x2 DUP2 ADD SLOAD PUSH1 0x40 DUP4 ADD MSTORE PUSH2 0x2C6F PUSH1 0x3 DUP3 ADD PUSH2 0x286C JUMP JUMPDEST PUSH1 0x60 DUP4 ADD MSTORE PUSH2 0x2C80 PUSH1 0x4 DUP3 ADD PUSH2 0x286C JUMP JUMPDEST PUSH1 0x80 DUP4 ADD MSTORE PUSH1 0x5 DUP2 ADD SLOAD PUSH1 0xA0 DUP4 ADD MSTORE PUSH2 0x2CC1 PUSH1 0xFF PUSH1 0x7 PUSH1 0x6 DUP5 ADD SLOAD SWAP4 PUSH1 0xC0 DUP7 ADD SWAP5 DUP6 MSTORE ADD SLOAD PUSH1 0x1 DUP1 PUSH1 0xA0 SHL SUB DUP2 AND PUSH1 0xE0 DUP7 ADD MSTORE PUSH1 0xA0 SHR AND PUSH2 0x100 DUP5 ADD PUSH2 0x29D2 JUMP JUMPDEST MLOAD DUP4 DUP2 GT PUSH2 0x2CD4 JUMPI JUMPDEST POP POP PUSH1 0x1 ADD PUSH2 0x2BFE JUMP JUMPDEST SWAP1 SWAP5 POP SWAP2 POP PUSH1 0x1 CODESIZE PUSH2 0x2CCA JUMP JUMPDEST PUSH2 0x2CE9 PUSH2 0x2927 JUMP JUMPDEST POP PUSH1 0x3 SLOAD TIMESTAMP GT ISZERO PUSH2 0x2CFC JUMPI PUSH2 0x257F PUSH2 0x2BE6 JUMP JUMPDEST PUSH1 0x40 MLOAD PUSH2 0x2D08 DUP2 PUSH2 0x26F3 JUMP JUMPDEST PUSH1 0x40 DUP1 MLOAD PUSH2 0x2D16 DUP3 DUP3 PUSH2 0x270F JUMP JUMPDEST PUSH1 0xF DUP2 MSTORE PUSH15 0x139BDD08191958DA591959081E595D PUSH1 0x8A SHL PUSH1 0x20 DUP3 ADD MSTORE DUP3 MSTORE DUP1 MLOAD PUSH2 0x2D41 PUSH1 0x60 DUP3 PUSH2 0x270F JUMP JUMPDEST PUSH1 0x36 DUP2 MSTORE PUSH32 0x506C65617365207761697420756E74696C2074686520656C656374696F6E2065 PUSH1 0x20 DUP3 ADD MSTORE PUSH22 0x373239903A379039B2B2903A3432903BB4B73732B917 PUSH1 0x51 SHL DUP3 DUP3 ADD MSTORE PUSH1 0x20 DUP4 ADD MSTORE PUSH1 0x0 DUP2 DUP4 ADD MSTORE DUP1 MLOAD PUSH2 0x2DA1 PUSH1 0x20 DUP3 PUSH2 0x270F JUMP JUMPDEST PUSH1 0x0 DUP2 MSTORE PUSH1 0x60 DUP4 ADD MSTORE MLOAD PUSH2 0x2DB6 PUSH1 0x20 DUP3 PUSH2 0x270F JUMP JUMPDEST PUSH1 0x0 DUP2 MSTORE PUSH1 0x80 DUP3 ADD MSTORE PUSH1 0x0 PUSH1 0xA0 DUP3 ADD MSTORE PUSH1 0x0 PUSH1 0xC0 DUP3 ADD MSTORE PUSH1 0x0 PUSH1 0xE0 DUP3 ADD MSTORE PUSH1 0x0 PUSH2 0x100 DUP3 ADD MSTORE SWAP1 JUMP INVALID LOG2 PUSH5 0x6970667358 0x22 SLT KECCAK256 0xA8 0xD5 0xBE 0xAC 0xD5 NUMBER DUP1 POP 0xBC 0xAE SWAP6 PUSH7 0x498DA354DB907E 0xDD 0x4C 0xFC 0x4C 0xD4 SWAP11 0x2F SELFDESTRUCT 0xEE 0xD2 NUMBER NUMBER COINBASE PUSH5 0x736F6C6343 STOP ADDMOD SHR STOP CALLER "},"methodIdentifiers":{"CurrentVotingStatus()":"bab912a2","ListofAcceptedCandidates()":"3cfde26c","ListofAcceptedVoters()":"23a2b2ed","ListofRegisteredCandidates()":"1ee9367c","ListofRegisteredVoters()":"60fc4e32","acceptedCandidates(uint256)":"9e7a8145","acceptedVoters(uint256)":"53dd128c","approveCandidate(address,string)":"7eb21b51","approveVoter(address,string)":"fad761d3","candidates(address)":"8ab66a90","candidatesRegistered(uint256)":"0366ac37","electionName()":"85e8e7a7","findCandidate(address)":"dbf7be47","findVoter(address)":"57f3a8e5","getAllVotersWhoCasted()":"8987cb32","owner()":"8da5cb5b","registerCandidate(string,uint256,string,string)":"71565d2e","registerVoter(string,uint256,string,string)":"cd6cf311","rejectCandidate(address,string)":"59632c22","rejectVoter(address,string)":"4a2846a8","startendVoting(uint256,uint256)":"f33698f1","updateCandidate(string)":"79432db5","updateVoter(string)":"82ff2aeb","vote(address)":"6dd7d8ea","voters(address)":"a3ec138d","votersRegistered(uint256)":"849c5657","votersWhoCasted(uint256)":"5f1bc34e","votingEndTime()":"1ea736e0","votingStartTime()":"2019a608","winningCandidate()":"d28178d7"}}}}}