{
  "_format": "hh-sol-artifact-1",
  "contractName": "VotingSystem",
  "sourceName": "contracts/VotingSystem.sol",
  "abi": [
    {
      "inputs": [
        {
          "internalType": "string",
          "name": "_name",
          "type": "string"
        }
      ],
      "stateMutability": "nonpayable",
      "type": "constructor"
    },
    {
      "inputs": [],
      "name": "CurrentVotingStatus",
      "outputs": [
        {
          "components": [
            {
              "internalType": "uint256",
              "name": "registeredId",
              "type": "uint256"
            },
            {
              "internalType": "uint256",
              "name": "voteCalculation",
              "type": "uint256"
            },
            {
              "internalType": "address",
              "name": "candidatesAddress",
              "type": "address"
            },
            {
              "internalType": "enum VotingSystem.ConfirmationStatus",
              "name": "status",
              "type": "uint8"
            },
            {
              "internalType": "string",
              "name": "ipfsHash",
              "type": "string"
            },
            {
              "internalType": "string",
              "name": "message",
              "type": "string"
            }
          ],
          "internalType": "struct VotingSystem.Candidate",
          "name": "",
          "type": "tuple"
        }
      ],
      "stateMutability": "view",
      "type": "function"
    },
    {
      "inputs": [],
      "name": "ListofAcceptedCandidates",
      "outputs": [
        {
          "components": [
            {
              "internalType": "uint256",
              "name": "registeredId",
              "type": "uint256"
            },
            {
              "internalType": "uint256",
              "name": "voteCalculation",
              "type": "uint256"
            },
            {
              "internalType": "address",
              "name": "candidatesAddress",
              "type": "address"
            },
            {
              "internalType": "enum VotingSystem.ConfirmationStatus",
              "name": "status",
              "type": "uint8"
            },
            {
              "internalType": "string",
              "name": "ipfsHash",
              "type": "string"
            },
            {
              "internalType": "string",
              "name": "message",
              "type": "string"
            }
          ],
          "internalType": "struct VotingSystem.Candidate[]",
          "name": "",
          "type": "tuple[]"
        }
      ],
      "stateMutability": "view",
      "type": "function"
    },
    {
      "inputs": [],
      "name": "ListofAcceptedVoters",
      "outputs": [
        {
          "components": [
            {
              "internalType": "bool",
              "name": "alreadyVoted",
              "type": "bool"
            },
            {
              "internalType": "string",
              "name": "message",
              "type": "string"
            },
            {
              "internalType": "string",
              "name": "ipfsHash",
              "type": "string"
            },
            {
              "internalType": "uint256",
              "name": "registeredId",
              "type": "uint256"
            },
            {
              "internalType": "address",
              "name": "votersAddress",
              "type": "address"
            },
            {
              "internalType": "enum VotingSystem.ConfirmationStatus",
              "name": "status",
              "type": "uint8"
            }
          ],
          "internalType": "struct VotingSystem.Voter[]",
          "name": "",
          "type": "tuple[]"
        }
      ],
      "stateMutability": "view",
      "type": "function"
    },
    {
      "inputs": [],
      "name": "ListofRegisteredCandidates",
      "outputs": [
        {
          "components": [
            {
              "internalType": "uint256",
              "name": "registeredId",
              "type": "uint256"
            },
            {
              "internalType": "uint256",
              "name": "voteCalculation",
              "type": "uint256"
            },
            {
              "internalType": "address",
              "name": "candidatesAddress",
              "type": "address"
            },
            {
              "internalType": "enum VotingSystem.ConfirmationStatus",
              "name": "status",
              "type": "uint8"
            },
            {
              "internalType": "string",
              "name": "ipfsHash",
              "type": "string"
            },
            {
              "internalType": "string",
              "name": "message",
              "type": "string"
            }
          ],
          "internalType": "struct VotingSystem.Candidate[]",
          "name": "",
          "type": "tuple[]"
        }
      ],
      "stateMutability": "view",
      "type": "function"
    },
    {
      "inputs": [],
      "name": "ListofRegisteredVoters",
      "outputs": [
        {
          "components": [
            {
              "internalType": "bool",
              "name": "alreadyVoted",
              "type": "bool"
            },
            {
              "internalType": "string",
              "name": "message",
              "type": "string"
            },
            {
              "internalType": "string",
              "name": "ipfsHash",
              "type": "string"
            },
            {
              "internalType": "uint256",
              "name": "registeredId",
              "type": "uint256"
            },
            {
              "internalType": "address",
              "name": "votersAddress",
              "type": "address"
            },
            {
              "internalType": "enum VotingSystem.ConfirmationStatus",
              "name": "status",
              "type": "uint8"
            }
          ],
          "internalType": "struct VotingSystem.Voter[]",
          "name": "",
          "type": "tuple[]"
        }
      ],
      "stateMutability": "view",
      "type": "function"
    },
    {
      "inputs": [],
      "name": "ListofRejectedCandidates",
      "outputs": [
        {
          "components": [
            {
              "internalType": "uint256",
              "name": "registeredId",
              "type": "uint256"
            },
            {
              "internalType": "uint256",
              "name": "voteCalculation",
              "type": "uint256"
            },
            {
              "internalType": "address",
              "name": "candidatesAddress",
              "type": "address"
            },
            {
              "internalType": "enum VotingSystem.ConfirmationStatus",
              "name": "status",
              "type": "uint8"
            },
            {
              "internalType": "string",
              "name": "ipfsHash",
              "type": "string"
            },
            {
              "internalType": "string",
              "name": "message",
              "type": "string"
            }
          ],
          "internalType": "struct VotingSystem.Candidate[]",
          "name": "",
          "type": "tuple[]"
        }
      ],
      "stateMutability": "view",
      "type": "function"
    },
    {
      "inputs": [],
      "name": "ListofRejectedVoters",
      "outputs": [
        {
          "components": [
            {
              "internalType": "bool",
              "name": "alreadyVoted",
              "type": "bool"
            },
            {
              "internalType": "string",
              "name": "message",
              "type": "string"
            },
            {
              "internalType": "string",
              "name": "ipfsHash",
              "type": "string"
            },
            {
              "internalType": "uint256",
              "name": "registeredId",
              "type": "uint256"
            },
            {
              "internalType": "address",
              "name": "votersAddress",
              "type": "address"
            },
            {
              "internalType": "enum VotingSystem.ConfirmationStatus",
              "name": "status",
              "type": "uint8"
            }
          ],
          "internalType": "struct VotingSystem.Voter[]",
          "name": "",
          "type": "tuple[]"
        }
      ],
      "stateMutability": "view",
      "type": "function"
    },
    {
      "inputs": [
        {
          "internalType": "uint256",
          "name": "",
          "type": "uint256"
        }
      ],
      "name": "acceptedCandidates",
      "outputs": [
        {
          "internalType": "address",
          "name": "",
          "type": "address"
        }
      ],
      "stateMutability": "view",
      "type": "function"
    },
    {
      "inputs": [
        {
          "internalType": "uint256",
          "name": "",
          "type": "uint256"
        }
      ],
      "name": "acceptedVoters",
      "outputs": [
        {
          "internalType": "address",
          "name": "",
          "type": "address"
        }
      ],
      "stateMutability": "view",
      "type": "function"
    },
    {
      "inputs": [
        {
          "internalType": "address",
          "name": "_candidatesAddress",
          "type": "address"
        },
        {
          "internalType": "string",
          "name": "_message",
          "type": "string"
        }
      ],
      "name": "approveCandidate",
      "outputs": [],
      "stateMutability": "nonpayable",
      "type": "function"
    },
    {
      "inputs": [
        {
          "internalType": "address",
          "name": "_votersAddress",
          "type": "address"
        },
        {
          "internalType": "string",
          "name": "_message",
          "type": "string"
        }
      ],
      "name": "approveVoter",
      "outputs": [],
      "stateMutability": "nonpayable",
      "type": "function"
    },
    {
      "inputs": [
        {
          "internalType": "address",
          "name": "",
          "type": "address"
        }
      ],
      "name": "candidates",
      "outputs": [
        {
          "internalType": "uint256",
          "name": "registeredId",
          "type": "uint256"
        },
        {
          "internalType": "uint256",
          "name": "voteCalculation",
          "type": "uint256"
        },
        {
          "internalType": "address",
          "name": "candidatesAddress",
          "type": "address"
        },
        {
          "internalType": "enum VotingSystem.ConfirmationStatus",
          "name": "status",
          "type": "uint8"
        },
        {
          "internalType": "string",
          "name": "ipfsHash",
          "type": "string"
        },
        {
          "internalType": "string",
          "name": "message",
          "type": "string"
        }
      ],
      "stateMutability": "view",
      "type": "function"
    },
    {
      "inputs": [
        {
          "internalType": "uint256",
          "name": "",
          "type": "uint256"
        }
      ],
      "name": "candidatesRegistered",
      "outputs": [
        {
          "internalType": "address",
          "name": "",
          "type": "address"
        }
      ],
      "stateMutability": "view",
      "type": "function"
    },
    {
      "inputs": [
        {
          "internalType": "address",
          "name": "newOwner",
          "type": "address"
        }
      ],
      "name": "changeOwner",
      "outputs": [],
      "stateMutability": "nonpayable",
      "type": "function"
    },
    {
      "inputs": [],
      "name": "electionName",
      "outputs": [
        {
          "internalType": "string",
          "name": "",
          "type": "string"
        }
      ],
      "stateMutability": "view",
      "type": "function"
    },
    {
      "inputs": [],
      "name": "getAllVotersWhoCasted",
      "outputs": [
        {
          "components": [
            {
              "internalType": "bool",
              "name": "alreadyVoted",
              "type": "bool"
            },
            {
              "internalType": "string",
              "name": "message",
              "type": "string"
            },
            {
              "internalType": "string",
              "name": "ipfsHash",
              "type": "string"
            },
            {
              "internalType": "uint256",
              "name": "registeredId",
              "type": "uint256"
            },
            {
              "internalType": "address",
              "name": "votersAddress",
              "type": "address"
            },
            {
              "internalType": "enum VotingSystem.ConfirmationStatus",
              "name": "status",
              "type": "uint8"
            }
          ],
          "internalType": "struct VotingSystem.Voter[]",
          "name": "",
          "type": "tuple[]"
        }
      ],
      "stateMutability": "view",
      "type": "function"
    },
    {
      "inputs": [],
      "name": "owner",
      "outputs": [
        {
          "internalType": "address",
          "name": "",
          "type": "address"
        }
      ],
      "stateMutability": "view",
      "type": "function"
    },
    {
      "inputs": [
        {
          "internalType": "string",
          "name": "_ipfsHash",
          "type": "string"
        }
      ],
      "name": "registerCandidate",
      "outputs": [],
      "stateMutability": "nonpayable",
      "type": "function"
    },
    {
      "inputs": [
        {
          "internalType": "string",
          "name": "_ipfsHash",
          "type": "string"
        }
      ],
      "name": "registerVoter",
      "outputs": [],
      "stateMutability": "nonpayable",
      "type": "function"
    },
    {
      "inputs": [
        {
          "internalType": "address",
          "name": "_candidatesAddress",
          "type": "address"
        },
        {
          "internalType": "string",
          "name": "_message",
          "type": "string"
        }
      ],
      "name": "rejectCandidate",
      "outputs": [],
      "stateMutability": "nonpayable",
      "type": "function"
    },
    {
      "inputs": [
        {
          "internalType": "address",
          "name": "_votersAddress",
          "type": "address"
        },
        {
          "internalType": "string",
          "name": "_message",
          "type": "string"
        }
      ],
      "name": "rejectVoter",
      "outputs": [],
      "stateMutability": "nonpayable",
      "type": "function"
    },
    {
      "inputs": [
        {
          "internalType": "uint256",
          "name": "",
          "type": "uint256"
        }
      ],
      "name": "rejectedCandidates",
      "outputs": [
        {
          "internalType": "address",
          "name": "",
          "type": "address"
        }
      ],
      "stateMutability": "view",
      "type": "function"
    },
    {
      "inputs": [
        {
          "internalType": "uint256",
          "name": "",
          "type": "uint256"
        }
      ],
      "name": "rejectedVoters",
      "outputs": [
        {
          "internalType": "address",
          "name": "",
          "type": "address"
        }
      ],
      "stateMutability": "view",
      "type": "function"
    },
    {
      "inputs": [],
      "name": "resetContract",
      "outputs": [],
      "stateMutability": "nonpayable",
      "type": "function"
    },
    {
      "inputs": [],
      "name": "resultPublicationTime",
      "outputs": [
        {
          "internalType": "uint256",
          "name": "",
          "type": "uint256"
        }
      ],
      "stateMutability": "view",
      "type": "function"
    },
    {
      "inputs": [
        {
          "internalType": "string",
          "name": "_ipfsHash",
          "type": "string"
        },
        {
          "internalType": "address",
          "name": "_addr",
          "type": "address"
        }
      ],
      "name": "searchCandidate",
      "outputs": [
        {
          "components": [
            {
              "internalType": "uint256",
              "name": "registeredId",
              "type": "uint256"
            },
            {
              "internalType": "uint256",
              "name": "voteCalculation",
              "type": "uint256"
            },
            {
              "internalType": "address",
              "name": "candidatesAddress",
              "type": "address"
            },
            {
              "internalType": "enum VotingSystem.ConfirmationStatus",
              "name": "status",
              "type": "uint8"
            },
            {
              "internalType": "string",
              "name": "ipfsHash",
              "type": "string"
            },
            {
              "internalType": "string",
              "name": "message",
              "type": "string"
            }
          ],
          "internalType": "struct VotingSystem.Candidate[]",
          "name": "",
          "type": "tuple[]"
        }
      ],
      "stateMutability": "view",
      "type": "function"
    },
    {
      "inputs": [
        {
          "internalType": "address",
          "name": "_addr",
          "type": "address"
        }
      ],
      "name": "searchVoter",
      "outputs": [
        {
          "components": [
            {
              "internalType": "bool",
              "name": "alreadyVoted",
              "type": "bool"
            },
            {
              "internalType": "string",
              "name": "message",
              "type": "string"
            },
            {
              "internalType": "string",
              "name": "ipfsHash",
              "type": "string"
            },
            {
              "internalType": "uint256",
              "name": "registeredId",
              "type": "uint256"
            },
            {
              "internalType": "address",
              "name": "votersAddress",
              "type": "address"
            },
            {
              "internalType": "enum VotingSystem.ConfirmationStatus",
              "name": "status",
              "type": "uint8"
            }
          ],
          "internalType": "struct VotingSystem.Voter",
          "name": "",
          "type": "tuple"
        }
      ],
      "stateMutability": "view",
      "type": "function"
    },
    {
      "inputs": [
        {
          "internalType": "uint256",
          "name": "_resultPublicationTime",
          "type": "uint256"
        }
      ],
      "name": "setResultPublicationTime",
      "outputs": [],
      "stateMutability": "nonpayable",
      "type": "function"
    },
    {
      "inputs": [
        {
          "internalType": "uint256",
          "name": "_votingStartTime",
          "type": "uint256"
        },
        {
          "internalType": "uint256",
          "name": "_votingEndTime",
          "type": "uint256"
        }
      ],
      "name": "startendVoting",
      "outputs": [],
      "stateMutability": "nonpayable",
      "type": "function"
    },
    {
      "inputs": [
        {
          "internalType": "string",
          "name": "_ipfsHash",
          "type": "string"
        }
      ],
      "name": "updateCandidate",
      "outputs": [],
      "stateMutability": "nonpayable",
      "type": "function"
    },
    {
      "inputs": [
        {
          "internalType": "address",
          "name": "_addr",
          "type": "address"
        },
        {
          "internalType": "string",
          "name": "_ipfsHash",
          "type": "string"
        }
      ],
      "name": "updateVoter",
      "outputs": [],
      "stateMutability": "nonpayable",
      "type": "function"
    },
    {
      "inputs": [
        {
          "internalType": "address",
          "name": "_candidatesAddress",
          "type": "address"
        }
      ],
      "name": "vote",
      "outputs": [],
      "stateMutability": "nonpayable",
      "type": "function"
    },
    {
      "inputs": [
        {
          "internalType": "address",
          "name": "",
          "type": "address"
        }
      ],
      "name": "voters",
      "outputs": [
        {
          "internalType": "bool",
          "name": "alreadyVoted",
          "type": "bool"
        },
        {
          "internalType": "string",
          "name": "message",
          "type": "string"
        },
        {
          "internalType": "string",
          "name": "ipfsHash",
          "type": "string"
        },
        {
          "internalType": "uint256",
          "name": "registeredId",
          "type": "uint256"
        },
        {
          "internalType": "address",
          "name": "votersAddress",
          "type": "address"
        },
        {
          "internalType": "enum VotingSystem.ConfirmationStatus",
          "name": "status",
          "type": "uint8"
        }
      ],
      "stateMutability": "view",
      "type": "function"
    },
    {
      "inputs": [
        {
          "internalType": "uint256",
          "name": "",
          "type": "uint256"
        }
      ],
      "name": "votersRegistered",
      "outputs": [
        {
          "internalType": "address",
          "name": "",
          "type": "address"
        }
      ],
      "stateMutability": "view",
      "type": "function"
    },
    {
      "inputs": [
        {
          "internalType": "uint256",
          "name": "",
          "type": "uint256"
        }
      ],
      "name": "votersWhoCasted",
      "outputs": [
        {
          "internalType": "address",
          "name": "",
          "type": "address"
        }
      ],
      "stateMutability": "view",
      "type": "function"
    },
    {
      "inputs": [],
      "name": "votingEndTime",
      "outputs": [
        {
          "internalType": "uint256",
          "name": "",
          "type": "uint256"
        }
      ],
      "stateMutability": "view",
      "type": "function"
    },
    {
      "inputs": [],
      "name": "votingStartTime",
      "outputs": [
        {
          "internalType": "uint256",
          "name": "",
          "type": "uint256"
        }
      ],
      "stateMutability": "view",
      "type": "function"
    },
    {
      "inputs": [],
      "name": "winningCandidate",
      "outputs": [
        {
          "components": [
            {
              "internalType": "uint256",
              "name": "registeredId",
              "type": "uint256"
            },
            {
              "internalType": "uint256",
              "name": "voteCalculation",
              "type": "uint256"
            },
            {
              "internalType": "address",
              "name": "candidatesAddress",
              "type": "address"
            },
            {
              "internalType": "enum VotingSystem.ConfirmationStatus",
              "name": "status",
              "type": "uint8"
            },
            {
              "internalType": "string",
              "name": "ipfsHash",
              "type": "string"
            },
            {
              "internalType": "string",
              "name": "message",
              "type": "string"
            }
          ],
          "internalType": "struct VotingSystem.Candidate",
          "name": "",
          "type": "tuple"
        }
      ],
      "stateMutability": "view",
      "type": "function"
    }
  ],
  "bytecode": "0x60806040523461023b5761337f8038038061001981610240565b92833981019060208183031261023b578051906001600160401b03821161023b570181601f8201121561023b578051906001600160401b0382116102105761006a601f8301601f1916602001610240565b928284526020838301011161023b5760005b82811061022657600083850160200181905280546001600160a01b03191633179055835184906001600160401b03811161021057600154600181811c91168015610206575b60208210146101f057601f811161018b575b50602091601f82116001146101275791819260009261011c575b50508160011b916000199060031b1c1916176001555b6001600555600160065560405161311990816102668239f35b0151905082806100ed565b601f198216926001600052806000209160005b8581106101735750836001951061015a575b505050811b01600155610103565b015160001960f88460031b161c1916905582808061014c565b9192602060018192868501518155019401920161013a565b60016000527fb10e2d527612073b26eecdfd717e6a320cf44b4afac2b0732d9fcbe2b7fa0cf6601f830160051c810191602084106101e6575b601f0160051c01905b8181106101da57506100d3565b600081556001016101cd565b90915081906101c4565b634e487b7160e01b600052602260045260246000fd5b90607f16906100c1565b634e487b7160e01b600052604160045260246000fd5b8060208092840101518282870101520161007c565b600080fd5b6040519190601f01601f191682016001600160401b038111838210176102105760405256fe6080604052600436101561001257600080fd5b60003560e01c80630366ac371461278c578063073f966d146126fc5780631ea736e0146126de5780631ee9367c1461264e5780632019a6081461263057806323a2b2ed146125a35780633afa3e071461257a5780633cfde26c146124a2578063429b0b22146122565780634a2846a81461204057806353dd128c1461201757806359632c2214611e015780635b45cfca14611d0e5780635e894b1214611ce55780635f1bc34e14611cbc57806360fc4e3214611c2f5780636428a486146119205780636dd7d8ea1461170f57806379432db5146115c15780637c021ecc1461145c5780637eb21b5114611225578063849c5657146111fc57806385e8e7a71461111b5780638987cb321461108e5780638ab66a9014610fe55780638da5cb5b14610fbc578063964a43b914610ee05780639e7a814514610e9e5780639eb88db614610be1578063a3ec138d14610b30578063a6f9dae114610a8e578063ac94ba4c14610a70578063b181a8fc146106a2578063b381a935146105ef578063bab912a2146105d3578063d28178d71461059f578063f33698f11461047a5763fad761d3146101be57600080fd5b34610475576101cc36612b19565b906101e260018060a01b03600054163314612d83565b6001600160a01b0381811660008181526007602052604090206004810180549294939092161561041e57815460ff60a01b1916600160a01b179091558351600191909101906001600160401b03811161039857610249816102438454612b58565b84612df7565b602094601f82116001146103b95761027d9293949582916000926103ae575b50508160011b916000199060031b1c19161790565b90555b600c5490600160401b821015610398576102a58260016102c99401600c55600c612884565b9080546001600160a01b0360039390931b83811b199091169290931690921b179055565b60005b600e548082101561039657826102e183612818565b905460039190911b1c6001600160a01b03161461030157506001016102cc565b600019810192508211610380576102a561031d61033593612818565b905460039190911b1c6001600160a01b031691612818565b600e54801561036a576000190161036561035082600e612884565b81549060018060a01b039060031b1b19169055565b600e55005b634e487b7160e01b600052603160045260246000fd5b634e487b7160e01b600052601160045260246000fd5b005b634e487b7160e01b600052604160045260246000fd5b015190503880610268565b601f1982169583600052806000209160005b888110610406575083600195969798106103ed575b505050811b019055610280565b015160001960f88460031b161c191690553880806103e0565b919260206001819286850151815501940192016103cb565b60405162461bcd60e51b815260206004820152602960248201527f5468697320766f74657220646f6573206e6f742061707065617220696e206f75604482015268391039bcb9ba32b69760b91b6064820152608490fd5b600080fd5b3461047557604036600319011261047557600435602435906104a760018060a01b03600054163314612d83565b60025461055a574281111561051657818110156104c657600255600355005b60405162461bcd60e51b815260206004820152602260248201527f53746172742074696d65206d757374206265206265666f726520656e642074696044820152616d6560f01b6064820152608490fd5b606460405162461bcd60e51b815260206004820152602060248201527f53746172742074696d65206d75737420626520696e20746865206675747572656044820152fd5b60405162461bcd60e51b815260206004820152601860248201527f566f74696e6720616c7265616479207363686564756c656400000000000000006044820152606490fd5b34610475576000366003190112610475576105cf6105bb612ff4565b6040519182916020835260208301906128ea565b0390f35b34610475576000366003190112610475576105cf6105bb612f26565b3461047557602036600319011261047557610608612b03565b610610612cf1565b5060018060a01b031660005260076020526105cf604060002061068e60ff60046040519361063d85612a71565b828154161515855261065160018201612b92565b602086015261066260028201612b92565b604086015260038101546060860152015460018060a01b038116608085015260a01c1660a08301612ce5565b6040519182916020835260208301906129af565b34610475576000366003190112610475576106c860018060a01b03600054163314612d83565b6003548015159081610a66575b5015610a07576106e6600154612b58565b601f81116109c8575b50600060015560006002556000600355600060045560005b600954811015610766578061071d6001926127b1565b838060a01b0391549060031b1c16600052600860205261076060046040600020600081556000858201556000600282015561075a60038201612ed7565b01612ed7565b01610707565b60095460006009558061098f575b50600b546000600b5580610956575b50600d546000600d558061091d575b5060005b600a548110156107f257806107ac600192612869565b838060a01b0391549060031b1c16600052600760205260006004604082208281556107d8858201612ed7565b6107e460028201612ed7565b826003820155015501610796565b600a546000600a55806108e4575b50600c546000600c55806108ab575b50600e546000600e5580610872575b50600f546000600f5580610839575b60016005819055600655005b600f60005261086c907f8d1108e10bcb7c27dddfc02ed9d693a074039d026cf4ea4240b40f7d581ac80290810190612de0565b8061082d565b600e6000526108a5907fbb7b4a454dc3493923482f07822329ed19e8244eff582cc204f8554c3620c3fd90810190612de0565b8061081e565b600c6000526108de907fdf6966c971051c3d54ec59162606531493a51404a002842f56009d7e5cf4a8c790810190612de0565b8061080f565b600a600052610917907fc65a7bb8d6351c1cf70c95a316cc6a92839c986682d98bc35f958f4883f9d2a890810190612de0565b80610800565b600d600052610950907fd7b6990105719101dabeb77144f2a3385c8033acd3af97e9423a695e81ad1eb590810190612de0565b80610792565b600b600052610989907f0175b7a638427703f0dbe7bb9bbf987a2551717b34e79f33b5b1008d1fa01db990810190612de0565b80610783565b60096000526109c2907f6e1540171b6c0c960b71a7020d9f60077f6af931a8bbf590da0223dacf75c7af90810190612de0565b80610774565b6001600052610a0190601f0160051c7fb10e2d527612073b26eecdfd717e6a320cf44b4afac2b0732d9fcbe2b7fa0cf690810190612de0565b806106ef565b60405162461bcd60e51b815260206004820152603160248201527f456c656374696f6e206973207374696c6c206f6e676f696e672e2043616e6e6f6044820152703a103932b9b2ba1031b7b73a3930b1ba1760791b6064820152608490fd5b90504211816106d5565b34610475576000366003190112610475576020600454604051908152f35b3461047557602036600319011261047557610aa7612b03565b60005490610abf336001600160a01b03841614612d83565b6001600160a01b0316908115610adf576001600160a01b03191617600055005b60405162461bcd60e51b8152602060048201526024808201527f4e6577206f776e65722063616e6e6f7420626520746865207a65726f206164646044820152637265737360e01b6064820152608490fd5b34610475576020366003190112610475576001600160a01b03610b51612b03565b166000526007602052604060002060ff815416610b7060018301612b92565b916105cf610b8060028301612b92565b610bba6004600385015494015491610bac6040519788971515885260c0602089015260c08801906128a9565b9086820360408801526128a9565b60608501939093526001600160a01b038116608085015260a080850191901c60ff1661289c565b34610475576020366003190112610475576004356001600160401b03811161047557610c11903690600401612aad565b60055460405190610c2182612a71565b815260208101906000825260408101338152606082016000815260808301948552610c4a612e3c565b60a08401908152336000908152600860205260409020935184559351600184015590516002830180546001600160a01b0319166001600160a01b039290921691909117815590516003811015610e8857610ca391612dbc565b6003810192519283516001600160401b03811161039857610cc8816102438454612b58565b6020601f8211600114610e1f579080610cfb9260049697600092610e145750508160011b916000199060031b1c19161790565b90555b0190519081516001600160401b03811161039857610d20816102438454612b58565b602092601f8211600114610db157610d5192938291600092610da65750508160011b916000199060031b1c19161790565b90555b600954600160401b81101561039857610d78816001610d9693016009556009612884565b81543360039290921b91821b6001600160a01b0390921b1916179055565b610da1600554612d74565b600555005b015190508480610268565b601f1982169383600052806000209160005b868110610dfc5750836001959610610de3575b505050811b019055610d54565b015160001960f88460031b161c19169055838080610dd6565b91926020600181928685015181550194019201610dc3565b015190508780610268565b601f1982169583600052816000209660005b818110610e705750916004969791846001959410610e57575b505050811b019055610cfe565b015160001960f88460031b161c19169055868080610e4a565b83830151895560019098019760209384019301610e31565b634e487b7160e01b600052602160045260246000fd5b3461047557602036600319011261047557600435600b5481101561047557610ec7602091612833565b905460405160039290921b1c6001600160a01b03168152f35b3461047557600036600319011261047557600e54610efd81612d24565b9060005b818110610f1657604051806105cf8582612a11565b80610f22600192612818565b838060a01b0391549060031b1c1660005260076020526040600020610fa060ff600460405193610f5185612a71565b8281541615158552610f64878201612b92565b6020860152610f7560028201612b92565b6040860152600381015460608601520154858060a01b038116608085015260a01c1660a08301612ce5565b610faa8286612cd1565b52610fb58185612cd1565b5001610f01565b34610475576000366003190112610475576000546040516001600160a01b039091168152602090f35b34610475576020366003190112610475576001600160a01b03611006612b03565b166000526008602052604060002080546105cf60018301549261108060028201549161106f611043600461103c60038501612b92565b9301612b92565b936040519788978852602088015260018060a01b038116604088015260ff606088019160a01c1661289c565b60c0608086015260c08501906128a9565b9083820360a08501526128a9565b3461047557600036600319011261047557600f546110ab81612d24565b9060005b8181106110c457604051806105cf8582612a11565b806110d060019261284e565b838060a01b0391549060031b1c16600052600760205260406000206110ff60ff600460405193610f5185612a71565b6111098286612cd1565b526111148185612cd1565b50016110af565b3461047557600036600319011261047557604051600060015461113d81612b58565b80845290600181169081156111d85750600114611179575b6105cf8361116581850382612a8c565b6040519182916020835260208301906128a9565b600160009081527fb10e2d527612073b26eecdfd717e6a320cf44b4afac2b0732d9fcbe2b7fa0cf6939250905b8082106111be57509091508101602001611165611155565b9192600181602092548385880101520191019092916111a6565b60ff191660208086019190915291151560051b840190910191506111659050611155565b3461047557602036600319011261047557600435600a5481101561047557610ec7602091612869565b346104755761123336612b19565b9061124960018060a01b03600054163314612d83565b6001600160a01b0381811660008181526008602052604090206002810180549294939092161561140157815460ff60a01b1916600160a01b179091558351600491909101906001600160401b038111610398576112aa816102438454612b58565b602094601f821160011461139c576112dd9293949582916000926113915750508160011b916000199060031b1c19161790565b90555b600b5490600160401b821015610398576102a58260016113059401600b55600b612884565b60005b600d5480821015610396578261131d836127e2565b905460039190911b1c6001600160a01b03161461133d5750600101611308565b600019810192508211610380576102a5611359611371936127e2565b905460039190911b1c6001600160a01b0316916127e2565b600d54801561036a576000190161138c61035082600d612884565b600d55005b015190508680610268565b601f1982169583600052806000209160005b8881106113e9575083600195969798106113d0575b505050811b0190556112e0565b015160001960f88460031b161c191690558580806113c3565b919260206001819286850151815501940192016113ae565b60405162461bcd60e51b815260206004820152602d60248201527f546869732063616e64696461746520646f6573206e6f7420617070656172206960448201526c371037bab91039bcb9ba32b69760991b6064820152608490fd5b346104755761146a36612b19565b9061148060018060a01b03600054163314612d83565b61149660025480159081156115b7575b50612e81565b6001600160a01b0390811660009081526007602052604090206004810154909116156115725760020181516001600160401b038111610398576114dd816102438454612b58565b602092601f82116001146115125761150e92938291600092610da65750508160011b916000199060031b1c19161790565b9055005b601f1982169383600052806000209160005b86811061155a5750836001959610611541575b505050811b019055005b015160001960f88460031b161c19169055838080611537565b91926020600181928685015181550194019201611524565b60405162461bcd60e51b815260206004820152601860248201527f4e6f20766f746572206461746120617661696c61626c652e00000000000000006044820152606490fd5b9050421084611490565b34610475576020366003190112610475576004356001600160401b038111610475576115f1903690600401612aad565b61160660025480159081156117055750612e81565b33600090815260086020526040902060028101546001600160a01b0316156116c05760030181516001600160401b03811161039857611649816102438454612b58565b602092601f821160011461167a5761150e92938291600092610da65750508160011b916000199060031b1c19161790565b601f1982169383600052806000209160005b8681106116a8575083600195961061154157505050811b019055005b9192602060018192868501518155019401920161168c565b60405162461bcd60e51b815260206004820152601c60248201527f4e6f2063616e646964617465206461746120617661696c61626c652e000000006044820152606490fd5b9050421083611490565b3461047557602036600319011261047557611728612b03565b60025442106118db5760035442116118a357336000526007602052604060002060ff600482015460a01c166003811015610e885760010361185e5780549160ff83166118205760018060a01b0316600052600860205260406000209060ff600283015460a01c166003811015610e88576001036117db576001809360ff1916179055016117b58154612d74565b9055600f54600160401b81101561039857610d788160016103969301600f55600f612884565b60405162461bcd60e51b815260206004820152601a60248201527f43616e646964617465206973206e6f742061636365707465642e0000000000006044820152606490fd5b60405162461bcd60e51b8152602060048201526016602482015275165bdd481a185d9948185b1c9958591e481d9bdd195960521b6044820152606490fd5b60405162461bcd60e51b815260206004820152601e60248201527f596f7520617265206e6f74206120636f6e6669726d656420766f7465722e00006044820152606490fd5b60405162461bcd60e51b815260206004820152601060248201526f159bdd1a5b99c81a185cc8195b99195960821b6044820152606490fd5b60405162461bcd60e51b815260206004820152601a60248201527f566f74696e6720686173206e6f742073746172746564207965740000000000006044820152606490fd5b34610475576020366003190112610475576004356001600160401b03811161047557611950903690600401612aad565b336000908152600760205260409020600401546001600160a01b0316611bda5760065460405161197f81612a71565b6000815261198b612e3c565b90602081019182526040810193845260608101928352608081019233845260a08201926000845233600052600760205260406000209251151560ff801985541691161783556001830190518051906001600160401b038211610398576119fb826119f58554612b58565b85612df7565b602090601f8311600114611b7357611a2b929160009183611afe5750508160011b916000199060031b1c19161790565b90555b6002820194519485516001600160401b03811161039857611a53816102438454612b58565b6020601f8211600114611b09579080611a87926004979899600092611afe5750508160011b916000199060031b1c19161790565b90555b516003828101919091559351910180546001600160a01b0319166001600160a01b039290921691909117815590519091811015610e8857611aca91612dbc565b600a54600160401b81101561039857610d78816001611aee9301600a55600a612884565b611af9600654612d74565b600655005b015190508980610268565b601f1982169783600052816000209860005b818110611b5b575091600497989991846001959410611b42575b505050811b019055611a8a565b015160001960f88460031b161c19169055888080611b35565b838301518b556001909a019960209384019301611b1b565b90601f1983169184600052816000209260005b818110611bc25750908460019594939210611ba9575b505050811b019055611a2e565b015160001960f88460031b161c19169055888080611b9c565b92936020600181928786015181550195019301611b86565b60405162461bcd60e51b815260206004820152602760248201527f596f75206861766520616c726561647920726567697374657265642061732061604482015266103b37ba32b91760c91b6064820152608490fd5b3461047557600036600319011261047557600a54611c4c81612d24565b9060005b818110611c6557604051806105cf8582612a11565b80611c71600192612869565b838060a01b0391549060031b1c1660005260076020526040600020611ca060ff600460405193610f5185612a71565b611caa8286612cd1565b52611cb58185612cd1565b5001611c50565b3461047557602036600319011261047557600435600f5481101561047557610ec760209161284e565b3461047557602036600319011261047557600435600d5481101561047557610ec76020916127e2565b3461047557602036600319011261047557600435611d3760018060a01b03600054163314612d83565b600454611db057600354811115611d4d57600455005b60405162461bcd60e51b815260206004820152603560248201527f526573756c74207075626c69636174696f6e2074696d65206d75737420626520604482015274616674657220766f74696e6720656e642074696d6560581b6064820152608490fd5b60405162461bcd60e51b815260206004820152602360248201527f526573756c74207075626c69636174696f6e2074696d6520616c7265616479206044820152621cd95d60ea1b6064820152608490fd5b3461047557611e0f36612b19565b90611e2560018060a01b03600054163314612d83565b6001600160a01b03818116600081815260086020526040902060028101805492949390921615611fd257815460ff60a01b1916600160a11b179091558351600491909101906001600160401b03811161039857611e86816102438454612b58565b602094601f8211600114611f6d57611eb99293949582916000926113915750508160011b916000199060031b1c19161790565b90555b600d5490600160401b821015610398576102a5826001611ee19401600d55600d612884565b60005b600b54808210156103965782611ef983612833565b905460039190911b1c6001600160a01b031614611f195750600101611ee4565b600019810192508211610380576102a5611f35611f4d93612833565b905460039190911b1c6001600160a01b031691612833565b600b54801561036a5760001901611f6861035082600b612884565b600b55005b601f1982169583600052806000209160005b888110611fba57508360019596979810611fa1575b505050811b019055611ebc565b015160001960f88460031b161c19169055858080611f94565b91926020600181928685015181550194019201611f7f565b60405162461bcd60e51b815260206004820152601b60248201527f4e6f2063616e646964617465206461746120617661696c61626c6500000000006044820152606490fd5b3461047557602036600319011261047557600435600c5481101561047557610ec76020916127fd565b346104755761204e36612b19565b9061206460018060a01b03600054163314612d83565b6001600160a01b0381811660008181526007602052604090206004810180549294939092161561221157815460ff60a01b1916600160a11b179091558351600191909101906001600160401b038111610398576120c5816102438454612b58565b602094601f82116001146121ac576120f89293949582916000926113915750508160011b916000199060031b1c19161790565b90555b600e5490600160401b821015610398576102a58260016121209401600e55600e612884565b60005b600c54808210156103965782612138836127fd565b905460039190911b1c6001600160a01b0316146121585750600101612123565b600019810192508211610380576102a561217461218c936127fd565b905460039190911b1c6001600160a01b0316916127fd565b600c54801561036a57600019016121a761035082600c612884565b600c55005b601f1982169583600052806000209160005b8881106121f9575083600195969798106121e0575b505050811b0190556120fb565b015160001960f88460031b161c191690558580806121d3565b919260206001819286850151815501940192016121be565b60405162461bcd60e51b815260206004820152601760248201527f4e6f20766f746572206461746120617661696c61626c650000000000000000006044820152606490fd5b34610475576040366003190112610475576004356001600160401b03811161047557612286903690600401612aad565b6024356001600160a01b03811690819003610475576009549060208301906000805b8481106123c757506122b990612c81565b9360009160005b8581106122d557604051806105cf898261294f565b6122de816127b1565b60018060a01b0391549060031b1c16600052600860205260406000206040519061230782612a71565b805482526001810154602083015260028101546001600160a01b038116604084019081529185916123419060a01c60ff1660608601612ce5565b612360600461235260038401612b92565b926080870193845201612b92565b60a08501525160208151910120865189201491826123b3575b5050612389575b506001016122c0565b846123ac9161239b600194978b612cd1565b526123a6818a612cd1565b50612d74565b9390612380565b516001600160a01b0316149050838a612379565b6123d0816127b1565b60018060a01b0391549060031b1c166000526008602052604060002083604051916123fa83612a71565b805483526001810154602084015260028101546001600160a01b0381166040850190815293906124339060a01c60ff1660608301612ce5565b60a0612454600461244660038601612b92565b946080850195865201612b92565b91015251602081519101208851872014918261248e575b505061247a575b6001016122a8565b90612486600191612d74565b919050612472565b516001600160a01b0316149050838861246b565b3461047557600036600319011261047557600b546124bf81612c81565b9060005b8181106124d857604051806105cf858261294f565b806124e4600192612833565b838060a01b0391549060031b1c166000526008602052604060002061255960046040519261251184612a71565b8054845285810154602085015261254260ff6002830154888060a01b038116604088015260a01c1660608601612ce5565b61254e60038201612b92565b608085015201612b92565b60a08201526125688286612cd1565b526125738185612cd1565b50016124c3565b3461047557602036600319011261047557600435600e5481101561047557610ec7602091612818565b3461047557600036600319011261047557600c546125c081612d24565b9060005b8181106125d957604051806105cf8582612a11565b806125e56001926127fd565b838060a01b0391549060031b1c166000526007602052604060002061261460ff600460405193610f5185612a71565b61261e8286612cd1565b526126298185612cd1565b50016125c4565b34610475576000366003190112610475576020600254604051908152f35b346104755760003660031901126104755760095461266b81612c81565b9060005b81811061268457604051806105cf858261294f565b806126906001926127b1565b838060a01b0391549060031b1c16600052600860205260406000206126bd60046040519261251184612a71565b60a08201526126cc8286612cd1565b526126d78185612cd1565b500161266f565b34610475576000366003190112610475576020600354604051908152f35b3461047557600036600319011261047557600d5461271981612c81565b9060005b81811061273257604051806105cf858261294f565b8061273e6001926127e2565b838060a01b0391549060031b1c166000526008602052604060002061276b60046040519261251184612a71565b60a082015261277a8286612cd1565b526127858185612cd1565b500161271d565b346104755760203660031901126104755760043560095481101561047557610ec76020915b6009548110156127cc57600960005260206000200190600090565b634e487b7160e01b600052603260045260246000fd5b600d548110156127cc57600d60005260206000200190600090565b600c548110156127cc57600c60005260206000200190600090565b600e548110156127cc57600e60005260206000200190600090565b600b548110156127cc57600b60005260206000200190600090565b600f548110156127cc57600f60005260206000200190600090565b600a548110156127cc57600a60005260206000200190600090565b80548210156127cc5760005260206000200190600090565b906003821015610e885752565b919082519283825260005b8481106128d5575050826000602080949584010152601f8019910116010190565b806020809284010151828286010152016128b4565b61294c91815181526020820151602082015260018060a01b0360408301511660408201526129206060830151606083019061289c565b60a061293b608084015160c0608085015260c08401906128a9565b9201519060a08184039101526128a9565b90565b602081016020825282518091526040820191602060408360051b8301019401926000915b83831061298257505050505090565b90919293946020806129a0600193603f1986820301875289516128ea565b97019301930191939290612973565b9061294c9082511515815260a0806129eb6129d9602087015160c0602087015260c08601906128a9565b604087015185820360408701526128a9565b9460608101516060850152600180831b036080820151166080850152015191019061289c565b602081016020825282518091526040820191602060408360051b8301019401926000915b838310612a4457505050505090565b9091929394602080612a62600193603f1986820301875289516129af565b97019301930191939290612a35565b60c081019081106001600160401b0382111761039857604052565b90601f801991011681019081106001600160401b0382111761039857604052565b81601f82011215610475578035906001600160401b0382116103985760405192612ae1601f8401601f191660200185612a8c565b8284526020838301011161047557816000926020809301838601378301015290565b600435906001600160a01b038216820361047557565b906040600319830112610475576004356001600160a01b03811681036104755791602435906001600160401b0382116104755761294c91600401612aad565b90600182811c92168015612b88575b6020831014612b7257565b634e487b7160e01b600052602260045260246000fd5b91607f1691612b67565b9060405191826000825492612ba684612b58565b8084529360018116908115612c145750600114612bcd575b50612bcb92500383612a8c565b565b90506000929192526020600020906000915b818310612bf8575050906020612bcb9282010138612bbe565b6020919350806001915483858901015201910190918492612bdf565b905060209250612bcb94915060ff191682840152151560051b82010138612bbe565b6001600160401b0381116103985760051b60200190565b60405190612c5a82612a71565b606060a0836000815260006020820152600060408201526000838201528260808201520152565b90612c8b82612c36565b612c986040519182612a8c565b8281528092612ca9601f1991612c36565b019060005b828110612cba57505050565b602090612cc5612c4d565b82828501015201612cae565b80518210156127cc5760209160051b010190565b6003821015610e885752565b60405190612cfe82612a71565b600060a08382815260606020820152606060408201528260608201528260808201520152565b90612d2e82612c36565b612d3b6040519182612a8c565b8281528092612d4c601f1991612c36565b019060005b828110612d5d57505050565b602090612d68612cf1565b82828501015201612d51565b60001981146103805760010190565b15612d8a57565b60405162461bcd60e51b815260206004820152600a60248201526927b7363c9037bbb732b960b11b6044820152606490fd5b906003811015610e8857815460ff60a01b191660a09190911b60ff60a01b16179055565b818110612deb575050565b60008155600101612de0565b9190601f8111612e0657505050565b612bcb926000526020600020906020601f840160051c83019310612e32575b601f0160051c0190612de0565b9091508190612e25565b60405190612e4b606083612a8c565b60218252601b60fa1b6040837f526567697374726174696f6e206973206177616974696e6720617070726f766160208201520152565b15612e8857565b60405162461bcd60e51b815260206004820152602160248201527f43616e6e6f74206d6f6469667920616674657220766f74696e672073746172746044820152607360f81b6064820152608490fd5b612ee18154612b58565b9081612eeb575050565b81601f60009311600114612efd575055565b81835260208320612f1991601f0160051c810190600101612de0565b8082528160208120915555565b612f2e612c4d565b50612f37612c4d565b600b546000805b828110612f4b5750505090565b612f5481612833565b60018060a01b0391549060031b1c166000526008602052604060002060405190612f7d82612a71565b80548252612fcf600460018301549260208501938452612fb860ff600283015460018060a01b038116604089015260a01c1660608701612ce5565b612fc460038201612b92565b608086015201612b92565b60a083015251838111612fe7575b5050600101612f3e565b9094509150600138612fdd565b612ffc612c4d565b50600b54156130925760035442106130165761294c612f26565b60405161302281612a71565b60008152600060208201526000604082015260006060820152604051613049602082612a8c565b600081526080820152604051613060604082612a8c565b601f81527f506c65617365207761697420756e74696c20656c656374696f6e20656e647300602082015260a082015290565b60405162461bcd60e51b8152602060048201526024808201527f4e6f2043616e6469646174657320616363657074656420666f7220656c65637460448201526334b7b71760e11b6064820152608490fdfea26469706673582212209d588eea1a7441486b40c78844ec340a11cb1f4ddd2634ab8f68e8b40175766264736f6c634300081c0033",
  "linkReferences": {},
  "deployedLinkReferences": {}
}