{
  "_format": "hh-sol-artifact-1",
  "contractName": "VotingSystem",
  "sourceName": "contracts/VotingSystem.sol",
  "abi": [
    {
      "inputs": [
        {
          "internalType": "string",
          "name": "_name",
          "type": "string"
        }
      ],
      "stateMutability": "nonpayable",
      "type": "constructor"
    },
    {
      "inputs": [],
      "name": "CurrentVotingStatus",
      "outputs": [
        {
          "components": [
            {
              "internalType": "string",
              "name": "name",
              "type": "string"
            },
            {
              "internalType": "string",
              "name": "message",
              "type": "string"
            },
            {
              "internalType": "uint256",
              "name": "age",
              "type": "uint256"
            },
            {
              "internalType": "string",
              "name": "email",
              "type": "string"
            },
            {
              "internalType": "string",
              "name": "phone",
              "type": "string"
            },
            {
              "internalType": "uint256",
              "name": "registeredId",
              "type": "uint256"
            },
            {
              "internalType": "uint256",
              "name": "voteCalculation",
              "type": "uint256"
            },
            {
              "internalType": "address",
              "name": "candidatesAddress",
              "type": "address"
            },
            {
              "internalType": "enum VotingSystem.ConfirmationStatus",
              "name": "status",
              "type": "uint8"
            }
          ],
          "internalType": "struct VotingSystem.Candidate",
          "name": "",
          "type": "tuple"
        }
      ],
      "stateMutability": "view",
      "type": "function"
    },
    {
      "inputs": [],
      "name": "ListofAcceptedCandidates",
      "outputs": [
        {
          "components": [
            {
              "internalType": "string",
              "name": "name",
              "type": "string"
            },
            {
              "internalType": "string",
              "name": "message",
              "type": "string"
            },
            {
              "internalType": "uint256",
              "name": "age",
              "type": "uint256"
            },
            {
              "internalType": "string",
              "name": "email",
              "type": "string"
            },
            {
              "internalType": "string",
              "name": "phone",
              "type": "string"
            },
            {
              "internalType": "uint256",
              "name": "registeredId",
              "type": "uint256"
            },
            {
              "internalType": "uint256",
              "name": "voteCalculation",
              "type": "uint256"
            },
            {
              "internalType": "address",
              "name": "candidatesAddress",
              "type": "address"
            },
            {
              "internalType": "enum VotingSystem.ConfirmationStatus",
              "name": "status",
              "type": "uint8"
            }
          ],
          "internalType": "struct VotingSystem.Candidate[]",
          "name": "",
          "type": "tuple[]"
        }
      ],
      "stateMutability": "view",
      "type": "function"
    },
    {
      "inputs": [],
      "name": "ListofAcceptedVoters",
      "outputs": [
        {
          "components": [
            {
              "internalType": "bool",
              "name": "alreadyVoted",
              "type": "bool"
            },
            {
              "internalType": "string",
              "name": "name",
              "type": "string"
            },
            {
              "internalType": "uint256",
              "name": "age",
              "type": "uint256"
            },
            {
              "internalType": "string",
              "name": "email",
              "type": "string"
            },
            {
              "internalType": "string",
              "name": "phone",
              "type": "string"
            },
            {
              "internalType": "string",
              "name": "message",
              "type": "string"
            },
            {
              "internalType": "uint256",
              "name": "registeredId",
              "type": "uint256"
            },
            {
              "internalType": "address",
              "name": "votersAddress",
              "type": "address"
            },
            {
              "internalType": "enum VotingSystem.ConfirmationStatus",
              "name": "status",
              "type": "uint8"
            }
          ],
          "internalType": "struct VotingSystem.Voter[]",
          "name": "",
          "type": "tuple[]"
        }
      ],
      "stateMutability": "view",
      "type": "function"
    },
    {
      "inputs": [],
      "name": "ListofRegisteredCandidates",
      "outputs": [
        {
          "components": [
            {
              "internalType": "string",
              "name": "name",
              "type": "string"
            },
            {
              "internalType": "string",
              "name": "message",
              "type": "string"
            },
            {
              "internalType": "uint256",
              "name": "age",
              "type": "uint256"
            },
            {
              "internalType": "string",
              "name": "email",
              "type": "string"
            },
            {
              "internalType": "string",
              "name": "phone",
              "type": "string"
            },
            {
              "internalType": "uint256",
              "name": "registeredId",
              "type": "uint256"
            },
            {
              "internalType": "uint256",
              "name": "voteCalculation",
              "type": "uint256"
            },
            {
              "internalType": "address",
              "name": "candidatesAddress",
              "type": "address"
            },
            {
              "internalType": "enum VotingSystem.ConfirmationStatus",
              "name": "status",
              "type": "uint8"
            }
          ],
          "internalType": "struct VotingSystem.Candidate[]",
          "name": "",
          "type": "tuple[]"
        }
      ],
      "stateMutability": "view",
      "type": "function"
    },
    {
      "inputs": [],
      "name": "ListofRegisteredVoters",
      "outputs": [
        {
          "components": [
            {
              "internalType": "bool",
              "name": "alreadyVoted",
              "type": "bool"
            },
            {
              "internalType": "string",
              "name": "name",
              "type": "string"
            },
            {
              "internalType": "uint256",
              "name": "age",
              "type": "uint256"
            },
            {
              "internalType": "string",
              "name": "email",
              "type": "string"
            },
            {
              "internalType": "string",
              "name": "phone",
              "type": "string"
            },
            {
              "internalType": "string",
              "name": "message",
              "type": "string"
            },
            {
              "internalType": "uint256",
              "name": "registeredId",
              "type": "uint256"
            },
            {
              "internalType": "address",
              "name": "votersAddress",
              "type": "address"
            },
            {
              "internalType": "enum VotingSystem.ConfirmationStatus",
              "name": "status",
              "type": "uint8"
            }
          ],
          "internalType": "struct VotingSystem.Voter[]",
          "name": "",
          "type": "tuple[]"
        }
      ],
      "stateMutability": "view",
      "type": "function"
    },
    {
      "inputs": [],
      "name": "ListofRejectedCandidates",
      "outputs": [
        {
          "components": [
            {
              "internalType": "string",
              "name": "name",
              "type": "string"
            },
            {
              "internalType": "string",
              "name": "message",
              "type": "string"
            },
            {
              "internalType": "uint256",
              "name": "age",
              "type": "uint256"
            },
            {
              "internalType": "string",
              "name": "email",
              "type": "string"
            },
            {
              "internalType": "string",
              "name": "phone",
              "type": "string"
            },
            {
              "internalType": "uint256",
              "name": "registeredId",
              "type": "uint256"
            },
            {
              "internalType": "uint256",
              "name": "voteCalculation",
              "type": "uint256"
            },
            {
              "internalType": "address",
              "name": "candidatesAddress",
              "type": "address"
            },
            {
              "internalType": "enum VotingSystem.ConfirmationStatus",
              "name": "status",
              "type": "uint8"
            }
          ],
          "internalType": "struct VotingSystem.Candidate[]",
          "name": "",
          "type": "tuple[]"
        }
      ],
      "stateMutability": "view",
      "type": "function"
    },
    {
      "inputs": [],
      "name": "ListofRejectedVoters",
      "outputs": [
        {
          "components": [
            {
              "internalType": "bool",
              "name": "alreadyVoted",
              "type": "bool"
            },
            {
              "internalType": "string",
              "name": "name",
              "type": "string"
            },
            {
              "internalType": "uint256",
              "name": "age",
              "type": "uint256"
            },
            {
              "internalType": "string",
              "name": "email",
              "type": "string"
            },
            {
              "internalType": "string",
              "name": "phone",
              "type": "string"
            },
            {
              "internalType": "string",
              "name": "message",
              "type": "string"
            },
            {
              "internalType": "uint256",
              "name": "registeredId",
              "type": "uint256"
            },
            {
              "internalType": "address",
              "name": "votersAddress",
              "type": "address"
            },
            {
              "internalType": "enum VotingSystem.ConfirmationStatus",
              "name": "status",
              "type": "uint8"
            }
          ],
          "internalType": "struct VotingSystem.Voter[]",
          "name": "",
          "type": "tuple[]"
        }
      ],
      "stateMutability": "view",
      "type": "function"
    },
    {
      "inputs": [
        {
          "internalType": "uint256",
          "name": "",
          "type": "uint256"
        }
      ],
      "name": "acceptedCandidates",
      "outputs": [
        {
          "internalType": "address",
          "name": "",
          "type": "address"
        }
      ],
      "stateMutability": "view",
      "type": "function"
    },
    {
      "inputs": [
        {
          "internalType": "uint256",
          "name": "",
          "type": "uint256"
        }
      ],
      "name": "acceptedVoters",
      "outputs": [
        {
          "internalType": "address",
          "name": "",
          "type": "address"
        }
      ],
      "stateMutability": "view",
      "type": "function"
    },
    {
      "inputs": [
        {
          "internalType": "address",
          "name": "_candidatesAddress",
          "type": "address"
        },
        {
          "internalType": "string",
          "name": "_message",
          "type": "string"
        }
      ],
      "name": "approveCandidate",
      "outputs": [],
      "stateMutability": "nonpayable",
      "type": "function"
    },
    {
      "inputs": [
        {
          "internalType": "address",
          "name": "_votersAddress",
          "type": "address"
        },
        {
          "internalType": "string",
          "name": "_message",
          "type": "string"
        }
      ],
      "name": "approveVoter",
      "outputs": [],
      "stateMutability": "nonpayable",
      "type": "function"
    },
    {
      "inputs": [
        {
          "internalType": "address",
          "name": "",
          "type": "address"
        }
      ],
      "name": "candidates",
      "outputs": [
        {
          "internalType": "string",
          "name": "name",
          "type": "string"
        },
        {
          "internalType": "string",
          "name": "message",
          "type": "string"
        },
        {
          "internalType": "uint256",
          "name": "age",
          "type": "uint256"
        },
        {
          "internalType": "string",
          "name": "email",
          "type": "string"
        },
        {
          "internalType": "string",
          "name": "phone",
          "type": "string"
        },
        {
          "internalType": "uint256",
          "name": "registeredId",
          "type": "uint256"
        },
        {
          "internalType": "uint256",
          "name": "voteCalculation",
          "type": "uint256"
        },
        {
          "internalType": "address",
          "name": "candidatesAddress",
          "type": "address"
        },
        {
          "internalType": "enum VotingSystem.ConfirmationStatus",
          "name": "status",
          "type": "uint8"
        }
      ],
      "stateMutability": "view",
      "type": "function"
    },
    {
      "inputs": [
        {
          "internalType": "uint256",
          "name": "",
          "type": "uint256"
        }
      ],
      "name": "candidatesRegistered",
      "outputs": [
        {
          "internalType": "address",
          "name": "",
          "type": "address"
        }
      ],
      "stateMutability": "view",
      "type": "function"
    },
    {
      "inputs": [],
      "name": "electionName",
      "outputs": [
        {
          "internalType": "string",
          "name": "",
          "type": "string"
        }
      ],
      "stateMutability": "view",
      "type": "function"
    },
    {
      "inputs": [
        {
          "internalType": "address",
          "name": "_candidatesAddress",
          "type": "address"
        }
      ],
      "name": "findCandidate",
      "outputs": [
        {
          "components": [
            {
              "internalType": "string",
              "name": "name",
              "type": "string"
            },
            {
              "internalType": "string",
              "name": "message",
              "type": "string"
            },
            {
              "internalType": "uint256",
              "name": "age",
              "type": "uint256"
            },
            {
              "internalType": "string",
              "name": "email",
              "type": "string"
            },
            {
              "internalType": "string",
              "name": "phone",
              "type": "string"
            },
            {
              "internalType": "uint256",
              "name": "registeredId",
              "type": "uint256"
            },
            {
              "internalType": "uint256",
              "name": "voteCalculation",
              "type": "uint256"
            },
            {
              "internalType": "address",
              "name": "candidatesAddress",
              "type": "address"
            },
            {
              "internalType": "enum VotingSystem.ConfirmationStatus",
              "name": "status",
              "type": "uint8"
            }
          ],
          "internalType": "struct VotingSystem.Candidate",
          "name": "",
          "type": "tuple"
        }
      ],
      "stateMutability": "view",
      "type": "function"
    },
    {
      "inputs": [
        {
          "internalType": "address",
          "name": "_votersAddress",
          "type": "address"
        }
      ],
      "name": "findVoter",
      "outputs": [
        {
          "components": [
            {
              "internalType": "bool",
              "name": "alreadyVoted",
              "type": "bool"
            },
            {
              "internalType": "string",
              "name": "name",
              "type": "string"
            },
            {
              "internalType": "uint256",
              "name": "age",
              "type": "uint256"
            },
            {
              "internalType": "string",
              "name": "email",
              "type": "string"
            },
            {
              "internalType": "string",
              "name": "phone",
              "type": "string"
            },
            {
              "internalType": "string",
              "name": "message",
              "type": "string"
            },
            {
              "internalType": "uint256",
              "name": "registeredId",
              "type": "uint256"
            },
            {
              "internalType": "address",
              "name": "votersAddress",
              "type": "address"
            },
            {
              "internalType": "enum VotingSystem.ConfirmationStatus",
              "name": "status",
              "type": "uint8"
            }
          ],
          "internalType": "struct VotingSystem.Voter",
          "name": "",
          "type": "tuple"
        }
      ],
      "stateMutability": "view",
      "type": "function"
    },
    {
      "inputs": [],
      "name": "getAllVotersWhoCasted",
      "outputs": [
        {
          "components": [
            {
              "internalType": "bool",
              "name": "alreadyVoted",
              "type": "bool"
            },
            {
              "internalType": "string",
              "name": "name",
              "type": "string"
            },
            {
              "internalType": "uint256",
              "name": "age",
              "type": "uint256"
            },
            {
              "internalType": "string",
              "name": "email",
              "type": "string"
            },
            {
              "internalType": "string",
              "name": "phone",
              "type": "string"
            },
            {
              "internalType": "string",
              "name": "message",
              "type": "string"
            },
            {
              "internalType": "uint256",
              "name": "registeredId",
              "type": "uint256"
            },
            {
              "internalType": "address",
              "name": "votersAddress",
              "type": "address"
            },
            {
              "internalType": "enum VotingSystem.ConfirmationStatus",
              "name": "status",
              "type": "uint8"
            }
          ],
          "internalType": "struct VotingSystem.Voter[]",
          "name": "",
          "type": "tuple[]"
        }
      ],
      "stateMutability": "view",
      "type": "function"
    },
    {
      "inputs": [],
      "name": "owner",
      "outputs": [
        {
          "internalType": "address",
          "name": "",
          "type": "address"
        }
      ],
      "stateMutability": "view",
      "type": "function"
    },
    {
      "inputs": [
        {
          "internalType": "string",
          "name": "_name",
          "type": "string"
        },
        {
          "internalType": "uint256",
          "name": "_age",
          "type": "uint256"
        },
        {
          "internalType": "string",
          "name": "_email",
          "type": "string"
        },
        {
          "internalType": "string",
          "name": "_phone",
          "type": "string"
        }
      ],
      "name": "registerCandidate",
      "outputs": [],
      "stateMutability": "nonpayable",
      "type": "function"
    },
    {
      "inputs": [
        {
          "internalType": "string",
          "name": "_name",
          "type": "string"
        },
        {
          "internalType": "uint256",
          "name": "_age",
          "type": "uint256"
        },
        {
          "internalType": "string",
          "name": "_email",
          "type": "string"
        },
        {
          "internalType": "string",
          "name": "_phone",
          "type": "string"
        }
      ],
      "name": "registerVoter",
      "outputs": [],
      "stateMutability": "nonpayable",
      "type": "function"
    },
    {
      "inputs": [
        {
          "internalType": "address",
          "name": "_candidatesAddress",
          "type": "address"
        },
        {
          "internalType": "string",
          "name": "_message",
          "type": "string"
        }
      ],
      "name": "rejectCandidate",
      "outputs": [],
      "stateMutability": "nonpayable",
      "type": "function"
    },
    {
      "inputs": [
        {
          "internalType": "address",
          "name": "_votersAddress",
          "type": "address"
        },
        {
          "internalType": "string",
          "name": "_message",
          "type": "string"
        }
      ],
      "name": "rejectVoter",
      "outputs": [],
      "stateMutability": "nonpayable",
      "type": "function"
    },
    {
      "inputs": [
        {
          "internalType": "uint256",
          "name": "",
          "type": "uint256"
        }
      ],
      "name": "rejectedCandidates",
      "outputs": [
        {
          "internalType": "address",
          "name": "",
          "type": "address"
        }
      ],
      "stateMutability": "view",
      "type": "function"
    },
    {
      "inputs": [
        {
          "internalType": "uint256",
          "name": "",
          "type": "uint256"
        }
      ],
      "name": "rejectedVoters",
      "outputs": [
        {
          "internalType": "address",
          "name": "",
          "type": "address"
        }
      ],
      "stateMutability": "view",
      "type": "function"
    },
    {
      "inputs": [],
      "name": "resultPublicationTime",
      "outputs": [
        {
          "internalType": "uint256",
          "name": "",
          "type": "uint256"
        }
      ],
      "stateMutability": "view",
      "type": "function"
    },
    {
      "inputs": [
        {
          "internalType": "uint256",
          "name": "_resultPublicationTime",
          "type": "uint256"
        }
      ],
      "name": "setResultPublicationTime",
      "outputs": [],
      "stateMutability": "nonpayable",
      "type": "function"
    },
    {
      "inputs": [
        {
          "internalType": "uint256",
          "name": "_votingStartTime",
          "type": "uint256"
        },
        {
          "internalType": "uint256",
          "name": "_votingEndTime",
          "type": "uint256"
        }
      ],
      "name": "startendVoting",
      "outputs": [],
      "stateMutability": "nonpayable",
      "type": "function"
    },
    {
      "inputs": [
        {
          "internalType": "string",
          "name": "_name",
          "type": "string"
        }
      ],
      "name": "updateCandidate",
      "outputs": [],
      "stateMutability": "nonpayable",
      "type": "function"
    },
    {
      "inputs": [
        {
          "internalType": "string",
          "name": "_name",
          "type": "string"
        }
      ],
      "name": "updateVoter",
      "outputs": [],
      "stateMutability": "nonpayable",
      "type": "function"
    },
    {
      "inputs": [
        {
          "internalType": "address",
          "name": "_candidatesAddress",
          "type": "address"
        }
      ],
      "name": "vote",
      "outputs": [],
      "stateMutability": "nonpayable",
      "type": "function"
    },
    {
      "inputs": [
        {
          "internalType": "address",
          "name": "",
          "type": "address"
        }
      ],
      "name": "voters",
      "outputs": [
        {
          "internalType": "bool",
          "name": "alreadyVoted",
          "type": "bool"
        },
        {
          "internalType": "string",
          "name": "name",
          "type": "string"
        },
        {
          "internalType": "uint256",
          "name": "age",
          "type": "uint256"
        },
        {
          "internalType": "string",
          "name": "email",
          "type": "string"
        },
        {
          "internalType": "string",
          "name": "phone",
          "type": "string"
        },
        {
          "internalType": "string",
          "name": "message",
          "type": "string"
        },
        {
          "internalType": "uint256",
          "name": "registeredId",
          "type": "uint256"
        },
        {
          "internalType": "address",
          "name": "votersAddress",
          "type": "address"
        },
        {
          "internalType": "enum VotingSystem.ConfirmationStatus",
          "name": "status",
          "type": "uint8"
        }
      ],
      "stateMutability": "view",
      "type": "function"
    },
    {
      "inputs": [
        {
          "internalType": "uint256",
          "name": "",
          "type": "uint256"
        }
      ],
      "name": "votersRegistered",
      "outputs": [
        {
          "internalType": "address",
          "name": "",
          "type": "address"
        }
      ],
      "stateMutability": "view",
      "type": "function"
    },
    {
      "inputs": [
        {
          "internalType": "uint256",
          "name": "",
          "type": "uint256"
        }
      ],
      "name": "votersWhoCasted",
      "outputs": [
        {
          "internalType": "address",
          "name": "",
          "type": "address"
        }
      ],
      "stateMutability": "view",
      "type": "function"
    },
    {
      "inputs": [],
      "name": "votingEndTime",
      "outputs": [
        {
          "internalType": "uint256",
          "name": "",
          "type": "uint256"
        }
      ],
      "stateMutability": "view",
      "type": "function"
    },
    {
      "inputs": [],
      "name": "votingStartTime",
      "outputs": [
        {
          "internalType": "uint256",
          "name": "",
          "type": "uint256"
        }
      ],
      "stateMutability": "view",
      "type": "function"
    },
    {
      "inputs": [],
      "name": "winningCandidate",
      "outputs": [
        {
          "components": [
            {
              "internalType": "string",
              "name": "name",
              "type": "string"
            },
            {
              "internalType": "string",
              "name": "message",
              "type": "string"
            },
            {
              "internalType": "uint256",
              "name": "age",
              "type": "uint256"
            },
            {
              "internalType": "string",
              "name": "email",
              "type": "string"
            },
            {
              "internalType": "string",
              "name": "phone",
              "type": "string"
            },
            {
              "internalType": "uint256",
              "name": "registeredId",
              "type": "uint256"
            },
            {
              "internalType": "uint256",
              "name": "voteCalculation",
              "type": "uint256"
            },
            {
              "internalType": "address",
              "name": "candidatesAddress",
              "type": "address"
            },
            {
              "internalType": "enum VotingSystem.ConfirmationStatus",
              "name": "status",
              "type": "uint8"
            }
          ],
          "internalType": "struct VotingSystem.Candidate",
          "name": "",
          "type": "tuple"
        }
      ],
      "stateMutability": "view",
      "type": "function"
    }
  ],
  "bytecode": "0x60806040523461023b576134b38038038061001981610240565b92833981019060208183031261023b578051906001600160401b03821161023b570181601f8201121561023b578051906001600160401b0382116102105761006a601f8301601f1916602001610240565b928284526020838301011161023b5760005b82811061022657600083850160200181905280546001600160a01b03191633179055835184906001600160401b03811161021057600154600181811c91168015610206575b60208210146101f057601f811161018b575b50602091601f82116001146101275791819260009261011c575b50508160011b916000199060031b1c1916176001555b6001600555600160065560405161324d90816102668239f35b0151905082806100ed565b601f198216926001600052806000209160005b8581106101735750836001951061015a575b505050811b01600155610103565b015160001960f88460031b161c1916905582808061014c565b9192602060018192868501518155019401920161013a565b60016000527fb10e2d527612073b26eecdfd717e6a320cf44b4afac2b0732d9fcbe2b7fa0cf6601f830160051c810191602084106101e6575b601f0160051c01905b8181106101da57506100d3565b600081556001016101cd565b90915081906101c4565b634e487b7160e01b600052602260045260246000fd5b90607f16906100c1565b634e487b7160e01b600052604160045260246000fd5b8060208092840101518282870101520161007c565b600080fd5b6040519190601f01601f191682016001600160401b038111838210176102105760405256fe6080604052600436101561001257600080fd5b60003560e01c80630366ac37146127c6578063073f966d146127395780631ea736e01461271b5780631ee9367c1461268e5780632019a6081461267057806323a2b2ed146125e35780633afa3e07146125ba5780633cfde26c146124b55780634a2846a8146122de57806353dd128c146122b557806357f3a8e51461213b57806359632c2214611f655780635b45cfca14611e725780635e894b1214611e495780635f1bc34e14611e2057806360fc4e3214611d935780636dd7d8ea14611b6657806371565d2e146115f657806379432db5146114bb5780637eb21b51146112cf57806382ff2aeb1461116f578063849c56571461114657806385e8e7a7146110655780638987cb3214610fd85780638ab66a9014610ee55780638da5cb5b14610ebc578063964a43b914610db35780639e7a814514610d71578063a3ec138d14610c75578063ac94ba4c14610c57578063bab912a214610c3b578063cd6cf311146106bc578063d28178d71461068c578063dbf7be47146104f1578063f33698f1146103cc5763fad761d3146101a857600080fd5b346103c7576101b636612bc4565b906101cc60018060a01b03600054163314612eb3565b60018060a01b03168060005260076020526040600020600781019060018060a01b038254161561037057815460ff60a01b1916600160a01b179091558251600591909101906001600160401b0381116102a2576102298254612c70565b601f8111610328575b506020601f82116001146102c357819293946000926102b8575b50508160011b916000199060031b1c19161790555b600c54600160401b8110156102a2578060016102829201600c55600c6128be565b81546001600160a01b0360039290921b91821b191692901b919091179055005b634e487b7160e01b600052604160045260246000fd5b01519050388061024c565b601f1982169083600052806000209160005b818110610310575095836001959697106102f7575b505050811b019055610261565b015160001960f88460031b161c191690553880806102ea565b9192602060018192868b0151815501940192016102d5565b826000526020600020601f830160051c81019160208410610366575b601f0160051c01905b81811061035a5750610232565b6000815560010161034d565b9091508190610344565b60405162461bcd60e51b815260206004820152602960248201527f5468697320766f74657220646f6573206e6f742061707065617220696e206f75604482015268391039bcb9ba32b69760b91b6064820152608490fd5b600080fd5b346103c75760403660031901126103c757600435602435906103f960018060a01b03600054163314612eb3565b6002546104ac5742811115610468578181101561041857600255600355005b60405162461bcd60e51b815260206004820152602260248201527f53746172742074696d65206d757374206265206265666f726520656e642074696044820152616d6560f01b6064820152608490fd5b606460405162461bcd60e51b815260206004820152602060248201527f53746172742074696d65206d75737420626520696e20746865206675747572656044820152fd5b60405162461bcd60e51b815260206004820152601860248201527f566f74696e6720616c7265616479207363686564756c656400000000000000006044820152606490fd5b346103c75760203660031901126103c75761050a612b1b565b610512612d65565b5060018060a01b03166000526008602052604060002060076040519161053783612b31565b61054081612caa565b835261054e60018201612caa565b60208401526002810154604084015261056960038201612caa565b606084015261057a60048201612caa565b6080840152600581015460a0840152600681015460c0840152015460e0820160018060a01b03821681526105b960ff61010085019360a01c1683612e10565b516001600160a01b0316156106515751600381101561063b57600019016105f6576105f290604051918291602083526020830190612924565b0390f35b60405162461bcd60e51b815260206004820152601960248201527f43616e646964617465206973206e6f74206163636570746564000000000000006044820152606490fd5b634e487b7160e01b600052602160045260246000fd5b60405162461bcd60e51b815260206004820152601360248201527210d85b991a59185d19481b9bdd08199bdd5b99606a1b6044820152606490fd5b346103c75760003660031901126103c7576105f26106a86130c1565b604051918291602083526020830190612924565b346103c7576106ca36612c03565b600693919354604051916106dd83612b31565b6000835260208301938452604083019485526060830195865260808301908152610705612f35565b9560a0840196875260c0840192835260e08401953387526101008501956000875233600052600760205260406000209551151560ff801988541691161786556001860190518051906001600160401b0382116102a25781906107678454612c70565b601f8111610be8575b50602090601f8311600114610b8357600092610b78575b50508160011b916000199060031b1c19161790555b51600285015551805160038501916001600160401b0382116102a25781906107c48454612c70565b601f8111610b25575b50602090601f8311600114610ac057600092610ab5575b50508160011b916000199060031b1c19161790555b51805160048401916001600160401b0382116102a257819061081b8454612c70565b601f8111610a62575b50602090601f83116001146109fd576000926109f2575b50508160011b916000199060031b1c19161790555b6005820194519485516001600160401b0381116102a2576108718254612c70565b601f81116109aa575b506020601f82116001146109405781906007969798600092610935575b50508160011b916000199060031b1c19161790555b5160068201559251920180546001600160a01b0319166001600160a01b039390931692909217825551600381101561063b576108e791612eec565b600a54600160401b8110156102a2578060016109089201600a55600a6128be565b81546001600160a01b0360039290921b91821b19163390911b17905560065461093090612f10565b600655005b015190508880610897565b601f1982169783600052816000209860005b818110610992575091600797989991846001959410610979575b505050811b0190556108ac565b015160001960f88460031b161c1916905588808061096c565b838301518b556001909a019960209384019301610952565b826000526020600020601f830160051c810191602084106109e8575b601f0160051c01905b8181106109dc575061087a565b600081556001016109cf565b90915081906109c6565b01519050888061083b565b60008581528281209350601f198516905b818110610a4a5750908460019594939210610a31575b505050811b019055610850565b015160001960f88460031b161c19169055888080610a24565b92936020600181928786015181550195019301610a0e565b909150836000526020600020601f840160051c81019160208510610aab575b90601f859493920160051c01905b818110610a9c5750610824565b60008155849350600101610a8f565b9091508190610a81565b0151905089806107e4565b60008581528281209350601f198516905b818110610b0d5750908460019594939210610af4575b505050811b0190556107f9565b015160001960f88460031b161c19169055898080610ae7565b92936020600181928786015181550195019301610ad1565b909150836000526020600020601f840160051c81019160208510610b6e575b90601f859493920160051c01905b818110610b5f57506107cd565b60008155849350600101610b52565b9091508190610b44565b015190508b80610787565b60008581528281209350601f198516905b818110610bd05750908460019594939210610bb7575b505050811b01905561079c565b015160001960f88460031b161c191690558b8080610baa565b92936020600181928786015181550195019301610b94565b909150836000526020600020601f840160051c81019160208510610c31575b90601f859493920160051c01905b818110610c225750610770565b60008155849350600101610c15565b9091508190610c07565b346103c75760003660031901126103c7576105f26106a8612fc6565b346103c75760003660031901126103c7576020600454604051908152f35b346103c75760203660031901126103c7576001600160a01b03610c96612b1b565b1660005260076020526020604060002060ff815416906105f2610cbb60018301612caa565b610d496002840154610d3b610cd260038701612caa565b91610d2d610ce260048901612caa565b91610cef60058a01612caa565b94610d1a600760068c01549b0154986101206040519e8f9e8f901515815201526101208d01906128d6565b9160408c01528a820360608c01526128d6565b9088820360808a01526128d6565b9086820360a08801526128d6565b60c08501939093526001600160a01b03811660e085015261010084019060a01c60ff16612917565b346103c75760203660031901126103c757600435600b548110156103c757610d9a60209161286d565b905460405160039290921b1c6001600160a01b03168152f35b346103c75760003660031901126103c757600e54610dd081612e63565b9060005b818110610de957604051806105f28582612abb565b80610df5600192612852565b838060a01b0391549060031b1c1660005260076020526040600020610ea060ff600760405193610e2485612b31565b8281541615158552610e37878201612caa565b602086015260028101546040860152610e5260038201612caa565b6060860152610e6360048201612caa565b6080860152610e7460058201612caa565b60a0860152600681015460c08601520154858060a01b03811660e085015260a01c166101008301612e10565b610eaa8286612dfc565b52610eb58185612dfc565b5001610dd4565b346103c75760003660031901126103c7576000546040516001600160a01b039091168152602090f35b346103c75760203660031901126103c7576001600160a01b03610f06612b1b565b1660005260086020526040600020610120610f2082612caa565b916105f2610f3060018301612caa565b600283015492610fae610f4560038301612caa565b94610fa0610f5560048501612caa565b91600585015497610f8d6007600688015497015497610f7f6040519d8d8f9e8f90815201906128d6565b8c810360208e0152906128d6565b9160408b015289820360608b01526128d6565b9087820360808901526128d6565b9360a086015260c085015260018060a01b03811660e085015260ff61010085019160a01c16612917565b346103c75760003660031901126103c757600f54610ff581612e63565b9060005b81811061100e57604051806105f28582612abb565b8061101a600192612888565b838060a01b0391549060031b1c166000526007602052604060002061104960ff600760405193610e2485612b31565b6110538286612dfc565b5261105e8185612dfc565b5001610ff9565b346103c75760003660031901126103c757604051600060015461108781612c70565b808452906001811690811561112257506001146110c3575b6105f2836110af81850382612b4d565b6040519182916020835260208301906128d6565b600160009081527fb10e2d527612073b26eecdfd717e6a320cf44b4afac2b0732d9fcbe2b7fa0cf6939250905b808210611108575090915081016020016110af61109f565b9192600181602092548385880101520191019092916110f0565b60ff191660208086019190915291151560051b840190910191506110af905061109f565b346103c75760203660031901126103c757600435600a548110156103c757610d9a6020916128a3565b346103c75760203660031901126103c7576004356001600160401b0381116103c75761119f903690600401612b6e565b336000526007602052600160406000206111c5828060a01b036007830154161515612f7a565b0181516001600160401b0381116102a2576111e08254612c70565b601f8111611287575b50602092601f8211600114611227579281929360009261121c575b5050600019600383901b1c191660019190911b179055005b015190508380611204565b601f1982169383600052806000209160005b86811061126f5750836001959610611256575b505050811b019055005b015160001960f88460031b161c1916905583808061124c565b91926020600181928685015181550194019201611239565b826000526020600020601f830160051c810191602084106112c5575b601f0160051c01905b8181106112b957506111e9565b600081556001016112ac565b90915081906112a3565b346103c7576112dd36612bc4565b906112f360018060a01b03600054163314612eb3565b6001600160a01b03908116600081815260086020526040902060078101805492939092161561146057815460ff60a01b1916600160a01b179091558251600191909101906001600160401b0381116102a25761134f8254612c70565b601f8111611418575b506020601f82116001146113b357819293946000926113a8575b50508160011b916000199060031b1c19161790555b600b54600160401b8110156102a2578060016102829201600b55600b6128be565b015190508480611372565b601f1982169083600052806000209160005b818110611400575095836001959697106113e7575b505050811b019055611387565b015160001960f88460031b161c191690558480806113da565b9192602060018192868b0151815501940192016113c5565b826000526020600020601f830160051c81019160208410611456575b601f0160051c01905b81811061144a5750611358565b6000815560010161143d565b9091508190611434565b60405162461bcd60e51b815260206004820152602d60248201527f546869732063616e64696461746520646f6573206e6f7420617070656172206960448201526c371037bab91039bcb9ba32b69760991b6064820152608490fd5b346103c75760203660031901126103c7576004356001600160401b0381116103c7576114eb903690600401612b6e565b3360009081526008602052604090206007810154611513906001600160a01b03161515612f7a565b81516001600160401b0381116102a25761152d8254612c70565b601f81116115ae575b50602092601f8211600114611568579281929360009261121c575050600019600383901b1c191660019190911b179055005b601f1982169383600052806000209160005b868110611596575083600195961061125657505050811b019055005b9192602060018192868501518155019401920161157a565b826000526020600020601f830160051c810191602084106115ec575b601f0160051c01905b8181106115e05750611536565b600081556001016115d3565b90915081906115ca565b346103c75761160436612c03565b92600554916040519161161683612b31565b8252611620612f35565b926020830193845260408301948552606083019182526080830195865260a0830190815260c08301916000835260e084019533875261010085019560008752336000526008602052604060002095518051906001600160401b0382116102a257819061168c8954612c70565b601f8111611b13575b50602090601f8311600114611aae57600092611aa3575b50508160011b916000199060031b1c19161786555b51805160018701916001600160401b0382116102a25781906116e38454612c70565b601f8111611a50575b50602090601f83116001146119eb576000926119e0575b50508160011b916000199060031b1c19161790555b51600285015551805160038501916001600160401b0382116102a25781906117408454612c70565b601f811161198d575b50602090601f83116001146119285760009261191d575b50508160011b916000199060031b1c19161790555b6004830195519586516001600160401b0381116102a2576117968254612c70565b601f81116118d5575b506020601f821160011461186b5781906007979899600092611860575b50508160011b916000199060031b1c19161790555b5160058301555160068201559251920180546001600160a01b0319166001600160a01b039390931692909217825551600381101561063b5761181291612eec565b600954600160401b8110156102a257806001611833920160095560096128be565b81546001600160a01b0360039290921b91821b19163390911b17905560055461185b90612f10565b600555005b0151905089806117bc565b601f1982169883600052816000209960005b8181106118bd575091600798999a918460019594106118a4575b505050811b0190556117d1565b015160001960f88460031b161c19169055898080611897565b838301518c556001909b019a6020938401930161187d565b826000526020600020601f830160051c81019160208410611913575b601f0160051c01905b818110611907575061179f565b600081556001016118fa565b90915081906118f1565b015190508980611760565b60008581528281209350601f198516905b818110611975575090846001959493921061195c575b505050811b019055611775565b015160001960f88460031b161c1916905589808061194f565b92936020600181928786015181550195019301611939565b909150836000526020600020601f840160051c810191602085106119d6575b90601f859493920160051c01905b8181106119c75750611749565b600081558493506001016119ba565b90915081906119ac565b015190508b80611703565b60008581528281209350601f198516905b818110611a385750908460019594939210611a1f575b505050811b019055611718565b015160001960f88460031b161c191690558b8080611a12565b929360206001819287860151815501950193016119fc565b909150836000526020600020601f840160051c81019160208510611a99575b90601f859493920160051c01905b818110611a8a57506116ec565b60008155849350600101611a7d565b9091508190611a6f565b015190508b806116ac565b60008a81528281209350601f198516905b818110611afb5750908460019594939210611ae2575b505050811b0186556116c1565b015160001960f88460031b161c191690558b8080611ad5565b92936020600181928786015181550195019301611abf565b909150886000526020600020601f840160051c81019160208510611b5c575b90601f859493920160051c01905b818110611b4d5750611695565b60008155849350600101611b40565b9091508190611b32565b346103c75760203660031901126103c757611b7f612b1b565b6002544210611d4e576003544211611d1657336000526007602052604060002060ff600782015460a01c16600381101561063b57600103611cd15780549160ff8316611c935760018060a01b0316600052600860205260406000209060ff600783015460a01c16600381101561063b57600103611c4e57600160069360ff191617905501611c0d8154612f10565b9055600f54600160401b8110156102a257806001611c309201600f55600f6128be565b81546001600160a01b0360039290921b91821b19163390911b179055005b60405162461bcd60e51b815260206004820152601a60248201527f43616e646964617465206973206e6f742061636365707465642e0000000000006044820152606490fd5b60405162461bcd60e51b8152602060048201526016602482015275165bdd481a185d9948185b1c9958591e481d9bdd195960521b6044820152606490fd5b60405162461bcd60e51b815260206004820152601e60248201527f596f7520617265206e6f74206120636f6e6669726d656420766f7465722e00006044820152606490fd5b60405162461bcd60e51b815260206004820152601060248201526f159bdd1a5b99c81a185cc8195b99195960821b6044820152606490fd5b60405162461bcd60e51b815260206004820152601a60248201527f566f74696e6720686173206e6f742073746172746564207965740000000000006044820152606490fd5b346103c75760003660031901126103c757600a54611db081612e63565b9060005b818110611dc957604051806105f28582612abb565b80611dd56001926128a3565b838060a01b0391549060031b1c1660005260076020526040600020611e0460ff600760405193610e2485612b31565b611e0e8286612dfc565b52611e198185612dfc565b5001611db4565b346103c75760203660031901126103c757600435600f548110156103c757610d9a602091612888565b346103c75760203660031901126103c757600435600d548110156103c757610d9a60209161281c565b346103c75760203660031901126103c757600435611e9b60018060a01b03600054163314612eb3565b600454611f1457600354811115611eb157600455005b60405162461bcd60e51b815260206004820152603560248201527f526573756c74207075626c69636174696f6e2074696d65206d75737420626520604482015274616674657220766f74696e6720656e642074696d6560581b6064820152608490fd5b60405162461bcd60e51b815260206004820152602360248201527f526573756c74207075626c69636174696f6e2074696d6520616c7265616479206044820152621cd95d60ea1b6064820152608490fd5b346103c757611f7336612bc4565b90611f8960018060a01b03600054163314612eb3565b6001600160a01b0390811660008181526008602052604090206007810180549293909216156120f657815460ff60a01b1916600160a11b179091558251600191909101906001600160401b0381116102a257611fe58254612c70565b601f81116120ae575b506020601f8211600114612049578192939460009261203e575b50508160011b916000199060031b1c19161790555b600d54600160401b8110156102a2578060016102829201600d55600d6128be565b015190508480612008565b601f1982169083600052806000209160005b8181106120965750958360019596971061207d575b505050811b01905561201d565b015160001960f88460031b161c19169055848080612070565b9192602060018192868b01518155019401920161205b565b826000526020600020601f830160051c810191602084106120ec575b601f0160051c01905b8181106120e05750611fee565b600081556001016120d3565b90915081906120ca565b60405162461bcd60e51b815260206004820152601b60248201527f4e6f2063616e646964617465206461746120617661696c61626c6500000000006044820152606490fd5b346103c75760203660031901126103c757612154612b1b565b61215c612e1c565b5060018060a01b03166000526007602052604060002060076040519161218183612b31565b60ff8154161515835261219660018201612caa565b6020840152600281015460408401526121b160038201612caa565b60608401526121c260048201612caa565b60808401526121d360058201612caa565b60a0840152600681015460c0840152015460e0820160018060a01b038216815261220860ff61010085019360a01c1683612e10565b516001600160a01b03161561227e5751600381101561063b5760001901612241576105f290604051918291602083526020830190612a20565b60405162461bcd60e51b8152602060048201526015602482015274159bdd195c881a5cc81b9bdd081858d8d95c1d1959605a1b6044820152606490fd5b60405162461bcd60e51b815260206004820152600f60248201526e159bdd195c881b9bdd08199bdd5b99608a1b6044820152606490fd5b346103c75760203660031901126103c757600435600c548110156103c757610d9a602091612837565b346103c7576122ec36612bc4565b9061230260018060a01b03600054163314612eb3565b60018060a01b03168060005260076020526040600020600781019060018060a01b038254161561247057815460ff60a01b1916600160a11b179091558251600591909101906001600160401b0381116102a25761235f8254612c70565b601f8111612428575b506020601f82116001146123c357819293946000926123b8575b50508160011b916000199060031b1c19161790555b600e54600160401b8110156102a2578060016102829201600e55600e6128be565b015190508480612382565b601f1982169083600052806000209160005b818110612410575095836001959697106123f7575b505050811b019055612397565b015160001960f88460031b161c191690558480806123ea565b9192602060018192868b0151815501940192016123d5565b826000526020600020601f830160051c81019160208410612466575b601f0160051c01905b81811061245a5750612368565b6000815560010161244d565b9091508190612444565b60405162461bcd60e51b815260206004820152601760248201527f4e6f20766f746572206461746120617661696c61626c650000000000000000006044820152606490fd5b346103c75760003660031901126103c757600b546124d281612dac565b9060005b8181106124eb57604051806105f285826129c0565b806124f760019261286d565b838060a01b0391549060031b1c166000526008602052604060002061259e60ff60076040519361252685612b31565b61252f81612caa565b855261253c878201612caa565b60208601526002810154604086015261255760038201612caa565b606086015261256860048201612caa565b6080860152600581015460a0860152600681015460c08601520154858060a01b03811660e085015260a01c166101008301612e10565b6125a88286612dfc565b526125b38185612dfc565b50016124d6565b346103c75760203660031901126103c757600435600e548110156103c757610d9a602091612852565b346103c75760003660031901126103c757600c5461260081612e63565b9060005b81811061261957604051806105f28582612abb565b80612625600192612837565b838060a01b0391549060031b1c166000526007602052604060002061265460ff600760405193610e2485612b31565b61265e8286612dfc565b526126698185612dfc565b5001612604565b346103c75760003660031901126103c7576020600254604051908152f35b346103c75760003660031901126103c7576009546126ab81612dac565b9060005b8181106126c457604051806105f285826129c0565b806126d06001926127eb565b838060a01b0391549060031b1c16600052600860205260406000206126ff60ff60076040519361252685612b31565b6127098286612dfc565b526127148185612dfc565b50016126af565b346103c75760003660031901126103c7576020600354604051908152f35b346103c75760003660031901126103c757600d5461275681612dac565b9060005b81811061276f57604051806105f285826129c0565b8061277b60019261281c565b838060a01b0391549060031b1c16600052600860205260406000206127aa60ff60076040519361252685612b31565b6127b48286612dfc565b526127bf8185612dfc565b500161275a565b346103c75760203660031901126103c7576004356009548110156103c757610d9a6020915b60095481101561280657600960005260206000200190600090565b634e487b7160e01b600052603260045260246000fd5b600d5481101561280657600d60005260206000200190600090565b600c5481101561280657600c60005260206000200190600090565b600e5481101561280657600e60005260206000200190600090565b600b5481101561280657600b60005260206000200190600090565b600f5481101561280657600f60005260206000200190600090565b600a5481101561280657600a60005260206000200190600090565b80548210156128065760005260206000200190600090565b919082519283825260005b848110612902575050826000602080949584010152601f8019910116010190565b806020809284010151828286010152016128e1565b90600382101561063b5752565b906129bd906101008061298b61297961295d61294b885161012088526101208801906128d6565b602089015187820360208901526128d6565b60408801516040870152606088015186820360608801526128d6565b608087015185820360808701526128d6565b60a0808701519085015260c0808701519085015260e0808701516001600160a01b031690850152940151910190612917565b90565b602081016020825282518091526040820191602060408360051b8301019401926000915b8383106129f357505050505090565b9091929394602080612a11600193603f198682030187528951612924565b970193019301919392906129e4565b906129bd9082511515815261010080612a93612a81612a6f612a53602089015161012060208901526101208801906128d6565b60408901516040880152606089015187820360608901526128d6565b608088015186820360808801526128d6565b60a087015185820360a08701526128d6565b60c0808701519085015260e0808701516001600160a01b031690850152940151910190612917565b602081016020825282518091526040820191602060408360051b8301019401926000915b838310612aee57505050505090565b9091929394602080612b0c600193603f198682030187528951612a20565b97019301930191939290612adf565b600435906001600160a01b03821682036103c757565b61012081019081106001600160401b038211176102a257604052565b90601f801991011681019081106001600160401b038211176102a257604052565b81601f820112156103c7578035906001600160401b0382116102a25760405192612ba2601f8401601f191660200185612b4d565b828452602083830101116103c757816000926020809301838601378301015290565b9060406003198301126103c7576004356001600160a01b03811681036103c75791602435906001600160401b0382116103c7576129bd91600401612b6e565b9060806003198301126103c7576004356001600160401b0381116103c75782612c2e91600401612b6e565b91602435916044356001600160401b0381116103c75782612c5191600401612b6e565b91606435906001600160401b0382116103c7576129bd91600401612b6e565b90600182811c92168015612ca0575b6020831014612c8a57565b634e487b7160e01b600052602260045260246000fd5b91607f1691612c7f565b9060405191826000825492612cbe84612c70565b8084529360018116908115612d2c5750600114612ce5575b50612ce392500383612b4d565b565b90506000929192526020600020906000915b818310612d10575050906020612ce39282010138612cd6565b6020919350806001915483858901015201910190918492612cf7565b905060209250612ce394915060ff191682840152151560051b82010138612cd6565b6001600160401b0381116102a25760051b60200190565b60405190612d7282612b31565b6000610100836060815260606020820152826040820152606080820152606060808201528260a08201528260c08201528260e08201520152565b90612db682612d4e565b612dc36040519182612b4d565b8281528092612dd4601f1991612d4e565b019060005b828110612de557505050565b602090612df0612d65565b82828501015201612dd9565b80518210156128065760209160051b010190565b600382101561063b5752565b60405190612e2982612b31565b6000610100838281526060602082015282604082015260608082015260606080820152606060a08201528260c08201528260e08201520152565b90612e6d82612d4e565b612e7a6040519182612b4d565b8281528092612e8b601f1991612d4e565b019060005b828110612e9c57505050565b602090612ea7612e1c565b82828501015201612e90565b15612eba57565b60405162461bcd60e51b815260206004820152600a60248201526927b7363c9037bbb732b960b11b6044820152606490fd5b90600381101561063b57815460ff60a01b191660a09190911b60ff60a01b16179055565b6000198114612f1f5760010190565b634e487b7160e01b600052601160045260246000fd5b60405190612f44606083612b4d565b60218252601b60fa1b6040837f526567697374726174696f6e206973206177616974696e6720617070726f766160208201520152565b15612f8157565b60405162461bcd60e51b815260206004820152601860248201527f4e6f20766f746572206461746120617661696c61626c652e00000000000000006044820152606490fd5b612fce612d65565b50612fd7612d65565b600b546000805b828110612feb5750505090565b612ff48161286d565b60018060a01b0391549060031b1c16600052600860205260406000206040519061301d82612b31565b61302681612caa565b825261303460018201612caa565b60208301526002810154604083015261304f60038201612caa565b606083015261306060048201612caa565b6080830152600581015460a08301526130a160ff600760068401549360c08601948552015460018060a01b03811660e086015260a01c166101008401612e10565b518381116130b4575b5050600101612fde565b90945091506001386130aa565b6130c9612d65565b50600b54156131c65760035442106130e3576129bd612fc6565b6040516130ef81612b31565b604080516130fd8282612b4d565b600f81526e139bdd08191958da591959081e595d608a1b602082015282528051613128606082612b4d565b603681527f506c65617365207761697420756e74696c2074686520656c656374696f6e2065602082015275373239903a379039b2b2903a3432903bb4b73732b91760511b8282015260208301526000818301528051613188602082612b4d565b6000815260608301525161319d602082612b4d565b600081526080820152600060a0820152600060c0820152600060e0820152600061010082015290565b60405162461bcd60e51b8152602060048201526024808201527f4e6f2043616e6469646174657320616363657074656420666f7220656c65637460448201526334b7b71760e11b6064820152608490fdfea26469706673582212208eaa5895ccdc8689811aedfa622351db8f0cbe69ae10a9a991783534c1c217a364736f6c634300081c0033",
  "linkReferences": {},
  "deployedLinkReferences": {}
}