{
  "_format": "hh-sol-artifact-1",
  "contractName": "VotingSystem",
  "sourceName": "contracts/VotingSystem.sol",
  "abi": [
    {
      "inputs": [
        {
          "internalType": "string",
          "name": "_name",
          "type": "string"
        }
      ],
      "stateMutability": "nonpayable",
      "type": "constructor"
    },
    {
      "inputs": [],
      "name": "CurrentVotingStatus",
      "outputs": [
        {
          "components": [
            {
              "internalType": "string",
              "name": "name",
              "type": "string"
            },
            {
              "internalType": "string",
              "name": "message",
              "type": "string"
            },
            {
              "internalType": "uint256",
              "name": "age",
              "type": "uint256"
            },
            {
              "internalType": "string",
              "name": "email",
              "type": "string"
            },
            {
              "internalType": "string",
              "name": "phone",
              "type": "string"
            },
            {
              "internalType": "uint256",
              "name": "registeredId",
              "type": "uint256"
            },
            {
              "internalType": "uint256",
              "name": "voteCalculation",
              "type": "uint256"
            },
            {
              "internalType": "address",
              "name": "candidatesAddress",
              "type": "address"
            },
            {
              "internalType": "enum VotingSystem.ConfirmationStatus",
              "name": "status",
              "type": "uint8"
            }
          ],
          "internalType": "struct VotingSystem.Candidate",
          "name": "",
          "type": "tuple"
        }
      ],
      "stateMutability": "view",
      "type": "function"
    },
    {
      "inputs": [],
      "name": "ListofAcceptedCandidates",
      "outputs": [
        {
          "components": [
            {
              "internalType": "string",
              "name": "name",
              "type": "string"
            },
            {
              "internalType": "string",
              "name": "message",
              "type": "string"
            },
            {
              "internalType": "uint256",
              "name": "age",
              "type": "uint256"
            },
            {
              "internalType": "string",
              "name": "email",
              "type": "string"
            },
            {
              "internalType": "string",
              "name": "phone",
              "type": "string"
            },
            {
              "internalType": "uint256",
              "name": "registeredId",
              "type": "uint256"
            },
            {
              "internalType": "uint256",
              "name": "voteCalculation",
              "type": "uint256"
            },
            {
              "internalType": "address",
              "name": "candidatesAddress",
              "type": "address"
            },
            {
              "internalType": "enum VotingSystem.ConfirmationStatus",
              "name": "status",
              "type": "uint8"
            }
          ],
          "internalType": "struct VotingSystem.Candidate[]",
          "name": "",
          "type": "tuple[]"
        }
      ],
      "stateMutability": "view",
      "type": "function"
    },
    {
      "inputs": [],
      "name": "ListofAcceptedVoters",
      "outputs": [
        {
          "components": [
            {
              "internalType": "bool",
              "name": "alreadyVoted",
              "type": "bool"
            },
            {
              "internalType": "string",
              "name": "name",
              "type": "string"
            },
            {
              "internalType": "uint256",
              "name": "age",
              "type": "uint256"
            },
            {
              "internalType": "string",
              "name": "email",
              "type": "string"
            },
            {
              "internalType": "string",
              "name": "phone",
              "type": "string"
            },
            {
              "internalType": "string",
              "name": "message",
              "type": "string"
            },
            {
              "internalType": "uint256",
              "name": "registeredId",
              "type": "uint256"
            },
            {
              "internalType": "address",
              "name": "votersAddress",
              "type": "address"
            },
            {
              "internalType": "enum VotingSystem.ConfirmationStatus",
              "name": "status",
              "type": "uint8"
            }
          ],
          "internalType": "struct VotingSystem.Voter[]",
          "name": "",
          "type": "tuple[]"
        }
      ],
      "stateMutability": "view",
      "type": "function"
    },
    {
      "inputs": [],
      "name": "ListofRegisteredCandidates",
      "outputs": [
        {
          "components": [
            {
              "internalType": "string",
              "name": "name",
              "type": "string"
            },
            {
              "internalType": "string",
              "name": "message",
              "type": "string"
            },
            {
              "internalType": "uint256",
              "name": "age",
              "type": "uint256"
            },
            {
              "internalType": "string",
              "name": "email",
              "type": "string"
            },
            {
              "internalType": "string",
              "name": "phone",
              "type": "string"
            },
            {
              "internalType": "uint256",
              "name": "registeredId",
              "type": "uint256"
            },
            {
              "internalType": "uint256",
              "name": "voteCalculation",
              "type": "uint256"
            },
            {
              "internalType": "address",
              "name": "candidatesAddress",
              "type": "address"
            },
            {
              "internalType": "enum VotingSystem.ConfirmationStatus",
              "name": "status",
              "type": "uint8"
            }
          ],
          "internalType": "struct VotingSystem.Candidate[]",
          "name": "",
          "type": "tuple[]"
        }
      ],
      "stateMutability": "view",
      "type": "function"
    },
    {
      "inputs": [],
      "name": "ListofRegisteredVoters",
      "outputs": [
        {
          "components": [
            {
              "internalType": "bool",
              "name": "alreadyVoted",
              "type": "bool"
            },
            {
              "internalType": "string",
              "name": "name",
              "type": "string"
            },
            {
              "internalType": "uint256",
              "name": "age",
              "type": "uint256"
            },
            {
              "internalType": "string",
              "name": "email",
              "type": "string"
            },
            {
              "internalType": "string",
              "name": "phone",
              "type": "string"
            },
            {
              "internalType": "string",
              "name": "message",
              "type": "string"
            },
            {
              "internalType": "uint256",
              "name": "registeredId",
              "type": "uint256"
            },
            {
              "internalType": "address",
              "name": "votersAddress",
              "type": "address"
            },
            {
              "internalType": "enum VotingSystem.ConfirmationStatus",
              "name": "status",
              "type": "uint8"
            }
          ],
          "internalType": "struct VotingSystem.Voter[]",
          "name": "",
          "type": "tuple[]"
        }
      ],
      "stateMutability": "view",
      "type": "function"
    },
    {
      "inputs": [
        {
          "internalType": "uint256",
          "name": "",
          "type": "uint256"
        }
      ],
      "name": "acceptedCandidates",
      "outputs": [
        {
          "internalType": "address",
          "name": "",
          "type": "address"
        }
      ],
      "stateMutability": "view",
      "type": "function"
    },
    {
      "inputs": [
        {
          "internalType": "uint256",
          "name": "",
          "type": "uint256"
        }
      ],
      "name": "acceptedVoters",
      "outputs": [
        {
          "internalType": "address",
          "name": "",
          "type": "address"
        }
      ],
      "stateMutability": "view",
      "type": "function"
    },
    {
      "inputs": [
        {
          "internalType": "address",
          "name": "_candidatesAddress",
          "type": "address"
        },
        {
          "internalType": "string",
          "name": "_message",
          "type": "string"
        }
      ],
      "name": "approveCandidate",
      "outputs": [],
      "stateMutability": "nonpayable",
      "type": "function"
    },
    {
      "inputs": [
        {
          "internalType": "address",
          "name": "_votersAddress",
          "type": "address"
        },
        {
          "internalType": "string",
          "name": "_message",
          "type": "string"
        }
      ],
      "name": "approveVoter",
      "outputs": [],
      "stateMutability": "nonpayable",
      "type": "function"
    },
    {
      "inputs": [
        {
          "internalType": "address",
          "name": "",
          "type": "address"
        }
      ],
      "name": "candidates",
      "outputs": [
        {
          "internalType": "string",
          "name": "name",
          "type": "string"
        },
        {
          "internalType": "string",
          "name": "message",
          "type": "string"
        },
        {
          "internalType": "uint256",
          "name": "age",
          "type": "uint256"
        },
        {
          "internalType": "string",
          "name": "email",
          "type": "string"
        },
        {
          "internalType": "string",
          "name": "phone",
          "type": "string"
        },
        {
          "internalType": "uint256",
          "name": "registeredId",
          "type": "uint256"
        },
        {
          "internalType": "uint256",
          "name": "voteCalculation",
          "type": "uint256"
        },
        {
          "internalType": "address",
          "name": "candidatesAddress",
          "type": "address"
        },
        {
          "internalType": "enum VotingSystem.ConfirmationStatus",
          "name": "status",
          "type": "uint8"
        }
      ],
      "stateMutability": "view",
      "type": "function"
    },
    {
      "inputs": [
        {
          "internalType": "uint256",
          "name": "",
          "type": "uint256"
        }
      ],
      "name": "candidatesRegistered",
      "outputs": [
        {
          "internalType": "address",
          "name": "",
          "type": "address"
        }
      ],
      "stateMutability": "view",
      "type": "function"
    },
    {
      "inputs": [],
      "name": "electionName",
      "outputs": [
        {
          "internalType": "string",
          "name": "",
          "type": "string"
        }
      ],
      "stateMutability": "view",
      "type": "function"
    },
    {
      "inputs": [
        {
          "internalType": "address",
          "name": "_candidatesAddress",
          "type": "address"
        }
      ],
      "name": "findCandidate",
      "outputs": [
        {
          "components": [
            {
              "internalType": "string",
              "name": "name",
              "type": "string"
            },
            {
              "internalType": "string",
              "name": "message",
              "type": "string"
            },
            {
              "internalType": "uint256",
              "name": "age",
              "type": "uint256"
            },
            {
              "internalType": "string",
              "name": "email",
              "type": "string"
            },
            {
              "internalType": "string",
              "name": "phone",
              "type": "string"
            },
            {
              "internalType": "uint256",
              "name": "registeredId",
              "type": "uint256"
            },
            {
              "internalType": "uint256",
              "name": "voteCalculation",
              "type": "uint256"
            },
            {
              "internalType": "address",
              "name": "candidatesAddress",
              "type": "address"
            },
            {
              "internalType": "enum VotingSystem.ConfirmationStatus",
              "name": "status",
              "type": "uint8"
            }
          ],
          "internalType": "struct VotingSystem.Candidate",
          "name": "",
          "type": "tuple"
        }
      ],
      "stateMutability": "view",
      "type": "function"
    },
    {
      "inputs": [
        {
          "internalType": "address",
          "name": "_votersAddress",
          "type": "address"
        }
      ],
      "name": "findVoter",
      "outputs": [
        {
          "components": [
            {
              "internalType": "bool",
              "name": "alreadyVoted",
              "type": "bool"
            },
            {
              "internalType": "string",
              "name": "name",
              "type": "string"
            },
            {
              "internalType": "uint256",
              "name": "age",
              "type": "uint256"
            },
            {
              "internalType": "string",
              "name": "email",
              "type": "string"
            },
            {
              "internalType": "string",
              "name": "phone",
              "type": "string"
            },
            {
              "internalType": "string",
              "name": "message",
              "type": "string"
            },
            {
              "internalType": "uint256",
              "name": "registeredId",
              "type": "uint256"
            },
            {
              "internalType": "address",
              "name": "votersAddress",
              "type": "address"
            },
            {
              "internalType": "enum VotingSystem.ConfirmationStatus",
              "name": "status",
              "type": "uint8"
            }
          ],
          "internalType": "struct VotingSystem.Voter",
          "name": "",
          "type": "tuple"
        }
      ],
      "stateMutability": "view",
      "type": "function"
    },
    {
      "inputs": [],
      "name": "getAllVotersWhoCasted",
      "outputs": [
        {
          "components": [
            {
              "internalType": "bool",
              "name": "alreadyVoted",
              "type": "bool"
            },
            {
              "internalType": "string",
              "name": "name",
              "type": "string"
            },
            {
              "internalType": "uint256",
              "name": "age",
              "type": "uint256"
            },
            {
              "internalType": "string",
              "name": "email",
              "type": "string"
            },
            {
              "internalType": "string",
              "name": "phone",
              "type": "string"
            },
            {
              "internalType": "string",
              "name": "message",
              "type": "string"
            },
            {
              "internalType": "uint256",
              "name": "registeredId",
              "type": "uint256"
            },
            {
              "internalType": "address",
              "name": "votersAddress",
              "type": "address"
            },
            {
              "internalType": "enum VotingSystem.ConfirmationStatus",
              "name": "status",
              "type": "uint8"
            }
          ],
          "internalType": "struct VotingSystem.Voter[]",
          "name": "",
          "type": "tuple[]"
        }
      ],
      "stateMutability": "view",
      "type": "function"
    },
    {
      "inputs": [],
      "name": "owner",
      "outputs": [
        {
          "internalType": "address",
          "name": "",
          "type": "address"
        }
      ],
      "stateMutability": "view",
      "type": "function"
    },
    {
      "inputs": [
        {
          "internalType": "string",
          "name": "_name",
          "type": "string"
        },
        {
          "internalType": "uint256",
          "name": "_age",
          "type": "uint256"
        },
        {
          "internalType": "string",
          "name": "_email",
          "type": "string"
        },
        {
          "internalType": "string",
          "name": "_phone",
          "type": "string"
        }
      ],
      "name": "registerCandidate",
      "outputs": [],
      "stateMutability": "nonpayable",
      "type": "function"
    },
    {
      "inputs": [
        {
          "internalType": "string",
          "name": "_name",
          "type": "string"
        },
        {
          "internalType": "uint256",
          "name": "_age",
          "type": "uint256"
        },
        {
          "internalType": "string",
          "name": "_email",
          "type": "string"
        },
        {
          "internalType": "string",
          "name": "_phone",
          "type": "string"
        }
      ],
      "name": "registerVoter",
      "outputs": [],
      "stateMutability": "nonpayable",
      "type": "function"
    },
    {
      "inputs": [
        {
          "internalType": "address",
          "name": "_candidatesAddress",
          "type": "address"
        },
        {
          "internalType": "string",
          "name": "_message",
          "type": "string"
        }
      ],
      "name": "rejectCandidate",
      "outputs": [],
      "stateMutability": "nonpayable",
      "type": "function"
    },
    {
      "inputs": [
        {
          "internalType": "address",
          "name": "_votersAddress",
          "type": "address"
        },
        {
          "internalType": "string",
          "name": "_message",
          "type": "string"
        }
      ],
      "name": "rejectVoter",
      "outputs": [],
      "stateMutability": "nonpayable",
      "type": "function"
    },
    {
      "inputs": [],
      "name": "resultPublicationTime",
      "outputs": [
        {
          "internalType": "uint256",
          "name": "",
          "type": "uint256"
        }
      ],
      "stateMutability": "view",
      "type": "function"
    },
    {
      "inputs": [
        {
          "internalType": "uint256",
          "name": "_resultPublicationTime",
          "type": "uint256"
        }
      ],
      "name": "setResultPublicationTime",
      "outputs": [],
      "stateMutability": "nonpayable",
      "type": "function"
    },
    {
      "inputs": [
        {
          "internalType": "uint256",
          "name": "_votingStartTime",
          "type": "uint256"
        },
        {
          "internalType": "uint256",
          "name": "_votingEndTime",
          "type": "uint256"
        }
      ],
      "name": "startendVoting",
      "outputs": [],
      "stateMutability": "nonpayable",
      "type": "function"
    },
    {
      "inputs": [
        {
          "internalType": "string",
          "name": "_name",
          "type": "string"
        }
      ],
      "name": "updateCandidate",
      "outputs": [],
      "stateMutability": "nonpayable",
      "type": "function"
    },
    {
      "inputs": [
        {
          "internalType": "string",
          "name": "_name",
          "type": "string"
        }
      ],
      "name": "updateVoter",
      "outputs": [],
      "stateMutability": "nonpayable",
      "type": "function"
    },
    {
      "inputs": [
        {
          "internalType": "address",
          "name": "_candidatesAddress",
          "type": "address"
        }
      ],
      "name": "vote",
      "outputs": [],
      "stateMutability": "nonpayable",
      "type": "function"
    },
    {
      "inputs": [
        {
          "internalType": "address",
          "name": "",
          "type": "address"
        }
      ],
      "name": "voters",
      "outputs": [
        {
          "internalType": "bool",
          "name": "alreadyVoted",
          "type": "bool"
        },
        {
          "internalType": "string",
          "name": "name",
          "type": "string"
        },
        {
          "internalType": "uint256",
          "name": "age",
          "type": "uint256"
        },
        {
          "internalType": "string",
          "name": "email",
          "type": "string"
        },
        {
          "internalType": "string",
          "name": "phone",
          "type": "string"
        },
        {
          "internalType": "string",
          "name": "message",
          "type": "string"
        },
        {
          "internalType": "uint256",
          "name": "registeredId",
          "type": "uint256"
        },
        {
          "internalType": "address",
          "name": "votersAddress",
          "type": "address"
        },
        {
          "internalType": "enum VotingSystem.ConfirmationStatus",
          "name": "status",
          "type": "uint8"
        }
      ],
      "stateMutability": "view",
      "type": "function"
    },
    {
      "inputs": [
        {
          "internalType": "uint256",
          "name": "",
          "type": "uint256"
        }
      ],
      "name": "votersRegistered",
      "outputs": [
        {
          "internalType": "address",
          "name": "",
          "type": "address"
        }
      ],
      "stateMutability": "view",
      "type": "function"
    },
    {
      "inputs": [
        {
          "internalType": "uint256",
          "name": "",
          "type": "uint256"
        }
      ],
      "name": "votersWhoCasted",
      "outputs": [
        {
          "internalType": "address",
          "name": "",
          "type": "address"
        }
      ],
      "stateMutability": "view",
      "type": "function"
    },
    {
      "inputs": [],
      "name": "votingEndTime",
      "outputs": [
        {
          "internalType": "uint256",
          "name": "",
          "type": "uint256"
        }
      ],
      "stateMutability": "view",
      "type": "function"
    },
    {
      "inputs": [],
      "name": "votingStartTime",
      "outputs": [
        {
          "internalType": "uint256",
          "name": "",
          "type": "uint256"
        }
      ],
      "stateMutability": "view",
      "type": "function"
    },
    {
      "inputs": [],
      "name": "winningCandidate",
      "outputs": [
        {
          "components": [
            {
              "internalType": "string",
              "name": "name",
              "type": "string"
            },
            {
              "internalType": "string",
              "name": "message",
              "type": "string"
            },
            {
              "internalType": "uint256",
              "name": "age",
              "type": "uint256"
            },
            {
              "internalType": "string",
              "name": "email",
              "type": "string"
            },
            {
              "internalType": "string",
              "name": "phone",
              "type": "string"
            },
            {
              "internalType": "uint256",
              "name": "registeredId",
              "type": "uint256"
            },
            {
              "internalType": "uint256",
              "name": "voteCalculation",
              "type": "uint256"
            },
            {
              "internalType": "address",
              "name": "candidatesAddress",
              "type": "address"
            },
            {
              "internalType": "enum VotingSystem.ConfirmationStatus",
              "name": "status",
              "type": "uint8"
            }
          ],
          "internalType": "struct VotingSystem.Candidate",
          "name": "",
          "type": "tuple"
        }
      ],
      "stateMutability": "view",
      "type": "function"
    }
  ],
  "bytecode": "0x60806040523461023b576131fe8038038061001981610240565b92833981019060208183031261023b578051906001600160401b03821161023b570181601f8201121561023b578051906001600160401b0382116102105761006a601f8301601f1916602001610240565b928284526020838301011161023b5760005b82811061022657600083850160200181905280546001600160a01b03191633179055835184906001600160401b03811161021057600154600181811c91168015610206575b60208210146101f057601f811161018b575b50602091601f82116001146101275791819260009261011c575b50508160011b916000199060031b1c1916176001555b60016005556001600655604051612f9890816102668239f35b0151905082806100ed565b601f198216926001600052806000209160005b8581106101735750836001951061015a575b505050811b01600155610103565b015160001960f88460031b161c1916905582808061014c565b9192602060018192868501518155019401920161013a565b60016000527fb10e2d527612073b26eecdfd717e6a320cf44b4afac2b0732d9fcbe2b7fa0cf6601f830160051c810191602084106101e6575b601f0160051c01905b8181106101da57506100d3565b600081556001016101cd565b90915081906101c4565b634e487b7160e01b600052602260045260246000fd5b90607f16906100c1565b634e487b7160e01b600052604160045260246000fd5b8060208092840101518282870101520161007c565b600080fd5b6040519190601f01601f191682016001600160401b038111838210176102105760405256fe6080604052600436101561001257600080fd5b60003560e01c80630366ac37146124e95780631ea736e0146124cb5780631ee9367c1461243e5780632019a6081461242057806323a2b2ed146123935780633cfde26c1461228e5780634a2846a81461210057806353dd128c146120d757806357f3a8e514611f5d57806359632c2214611dd15780635b45cfca14611cde5780635f1bc34e14611cb557806360fc4e3214611c285780636dd7d8ea146119fb57806371565d2e1461148b57806379432db5146113505780637eb21b51146111c057806382ff2aeb14611060578063849c56571461103757806385e8e7a714610f565780638987cb3214610e4d5780638ab66a9014610d5a5780638da5cb5b14610d315780639e7a814514610cef578063a3ec138d14610bf3578063ac94ba4c14610bd5578063bab912a214610bb9578063cd6cf3111461063a578063d28178d71461060a578063dbf7be471461046f578063f33698f11461034a5763fad761d31461017c57600080fd5b346103455761018a366128b1565b906101a060018060a01b03600054163314612ba0565b60018060a01b031680600052600760205260056040600020600781016101d060018060a01b038254161515612cb3565b805460ff60a01b1916600160a01b17905583519101906001600160401b038111610277576101fe825461295d565b601f81116102fd575b506020601f8211600114610298578192939460009261028d575b50508160011b916000199060031b1c19161790555b600c54600160401b811015610277578060016102579201600c55600c6125ab565b81546001600160a01b0360039290921b91821b191692901b919091179055005b634e487b7160e01b600052604160045260246000fd5b015190503880610221565b601f1982169083600052806000209160005b8181106102e5575095836001959697106102cc575b505050811b019055610236565b015160001960f88460031b161c191690553880806102bf565b9192602060018192868b0151815501940192016102aa565b826000526020600020601f830160051c8101916020841061033b575b601f0160051c01905b81811061032f5750610207565b60008155600101610322565b9091508190610319565b600080fd5b34610345576040366003190112610345576004356024359061037760018060a01b03600054163314612ba0565b60025461042a57428111156103e6578181101561039657600255600355005b60405162461bcd60e51b815260206004820152602260248201527f53746172742074696d65206d757374206265206265666f726520656e642074696044820152616d6560f01b6064820152608490fd5b606460405162461bcd60e51b815260206004820152602060248201527f53746172742074696d65206d75737420626520696e20746865206675747572656044820152fd5b60405162461bcd60e51b815260206004820152601860248201527f566f74696e6720616c7265616479207363686564756c656400000000000000006044820152606490fd5b3461034557602036600319011261034557610488612808565b610490612a52565b5060018060a01b0316600052600860205260406000206007604051916104b58361281e565b6104be81612997565b83526104cc60018201612997565b6020840152600281015460408401526104e760038201612997565b60608401526104f860048201612997565b6080840152600581015460a0840152600681015460c0840152015460e0820160018060a01b038216815261053760ff61010085019360a01c1683612afd565b516001600160a01b0316156105cf575160038110156105b957600019016105745761057090604051918291602083526020830190612611565b0390f35b60405162461bcd60e51b815260206004820152601960248201527f43616e646964617465206973206e6f74206163636570746564000000000000006044820152606490fd5b634e487b7160e01b600052602160045260246000fd5b60405162461bcd60e51b815260206004820152601360248201527210d85b991a59185d19481b9bdd08199bdd5b99606a1b6044820152606490fd5b3461034557600036600319011261034557610570610626612e0c565b604051918291602083526020830190612611565b3461034557610648366128f0565b6006939193546040519161065b8361281e565b6000835260208301938452604083019485526060830195865260808301908152610683612c22565b9560a0840196875260c0840192835260e08401953387526101008501956000875233600052600760205260406000209551151560ff801988541691161786556001860190518051906001600160401b0382116102775781906106e5845461295d565b601f8111610b66575b50602090601f8311600114610b0157600092610af6575b50508160011b916000199060031b1c19161790555b51600285015551805160038501916001600160401b038211610277578190610742845461295d565b601f8111610aa3575b50602090601f8311600114610a3e57600092610a33575b50508160011b916000199060031b1c19161790555b51805160048401916001600160401b038211610277578190610799845461295d565b601f81116109e0575b50602090601f831160011461097b57600092610970575b50508160011b916000199060031b1c19161790555b6005820194519485516001600160401b038111610277576107ef825461295d565b601f8111610928575b506020601f82116001146108be57819060079697986000926108b3575b50508160011b916000199060031b1c19161790555b5160068201559251920180546001600160a01b0319166001600160a01b03939093169290921782555160038110156105b95761086591612bd9565b600a54600160401b811015610277578060016108869201600a55600a6125ab565b81546001600160a01b0360039290921b91821b19163390911b1790556006546108ae90612bfd565b600655005b015190508880610815565b601f1982169783600052816000209860005b8181106109105750916007979899918460019594106108f7575b505050811b01905561082a565b015160001960f88460031b161c191690558880806108ea565b838301518b556001909a0199602093840193016108d0565b826000526020600020601f830160051c81019160208410610966575b601f0160051c01905b81811061095a57506107f8565b6000815560010161094d565b9091508190610944565b0151905088806107b9565b60008581528281209350601f198516905b8181106109c857509084600195949392106109af575b505050811b0190556107ce565b015160001960f88460031b161c191690558880806109a2565b9293602060018192878601518155019501930161098c565b909150836000526020600020601f840160051c81019160208510610a29575b90601f859493920160051c01905b818110610a1a57506107a2565b60008155849350600101610a0d565b90915081906109ff565b015190508980610762565b60008581528281209350601f198516905b818110610a8b5750908460019594939210610a72575b505050811b019055610777565b015160001960f88460031b161c19169055898080610a65565b92936020600181928786015181550195019301610a4f565b909150836000526020600020601f840160051c81019160208510610aec575b90601f859493920160051c01905b818110610add575061074b565b60008155849350600101610ad0565b9091508190610ac2565b015190508b80610705565b60008581528281209350601f198516905b818110610b4e5750908460019594939210610b35575b505050811b01905561071a565b015160001960f88460031b161c191690558b8080610b28565b92936020600181928786015181550195019301610b12565b909150836000526020600020601f840160051c81019160208510610baf575b90601f859493920160051c01905b818110610ba057506106ee565b60008155849350600101610b93565b9091508190610b85565b3461034557600036600319011261034557610570610626612d11565b34610345576000366003190112610345576020600454604051908152f35b34610345576020366003190112610345576001600160a01b03610c14612808565b1660005260076020526020604060002060ff81541690610570610c3960018301612997565b610cc76002840154610cb9610c5060038701612997565b91610cab610c6060048901612997565b91610c6d60058a01612997565b94610c98600760068c01549b0154986101206040519e8f9e8f901515815201526101208d01906125c3565b9160408c01528a820360608c01526125c3565b9088820360808a01526125c3565b9086820360a08801526125c3565b60c08501939093526001600160a01b03811660e085015261010084019060a01c60ff16612604565b3461034557602036600319011261034557600435600b5481101561034557610d1860209161255a565b905460405160039290921b1c6001600160a01b03168152f35b34610345576000366003190112610345576000546040516001600160a01b039091168152602090f35b34610345576020366003190112610345576001600160a01b03610d7b612808565b1660005260086020526040600020610120610d9582612997565b91610570610da560018301612997565b600283015492610e23610dba60038301612997565b94610e15610dca60048501612997565b91600585015497610e026007600688015497015497610df46040519d8d8f9e8f90815201906125c3565b8c810360208e0152906125c3565b9160408b015289820360608b01526125c3565b9087820360808901526125c3565b9360a086015260c085015260018060a01b03811660e085015260ff61010085019160a01c16612604565b3461034557600036600319011261034557600d54610e6a81612b50565b9060005b818110610e83576040518061057085826127a8565b80610e8f600192612575565b838060a01b0391549060031b1c1660005260076020526040600020610f3a60ff600760405193610ebe8561281e565b8281541615158552610ed1878201612997565b602086015260028101546040860152610eec60038201612997565b6060860152610efd60048201612997565b6080860152610f0e60058201612997565b60a0860152600681015460c08601520154858060a01b03811660e085015260a01c166101008301612afd565b610f448286612ae9565b52610f4f8185612ae9565b5001610e6e565b34610345576000366003190112610345576040516000600154610f788161295d565b80845290600181169081156110135750600114610fb4575b61057083610fa08185038261283a565b6040519182916020835260208301906125c3565b600160009081527fb10e2d527612073b26eecdfd717e6a320cf44b4afac2b0732d9fcbe2b7fa0cf6939250905b808210610ff957509091508101602001610fa0610f90565b919260018160209254838588010152019101909291610fe1565b60ff191660208086019190915291151560051b84019091019150610fa09050610f90565b3461034557602036600319011261034557600435600a5481101561034557610d18602091612590565b34610345576020366003190112610345576004356001600160401b0381116103455761109090369060040161285b565b336000526007602052600160406000206110b6828060a01b036007830154161515612c67565b0181516001600160401b038111610277576110d1825461295d565b601f8111611178575b50602092601f8211600114611118579281929360009261110d575b5050600019600383901b1c191660019190911b179055005b0151905083806110f5565b601f1982169383600052806000209160005b8681106111605750836001959610611147575b505050811b019055005b015160001960f88460031b161c1916905583808061113d565b9192602060018192868501518155019401920161112a565b826000526020600020601f830160051c810191602084106111b6575b601f0160051c01905b8181106111aa57506110da565b6000815560010161119d565b9091508190611194565b34610345576111ce366128b1565b906111e460018060a01b03600054163314612ba0565b6001600160a01b039081166000818152600860205260409020600781018054929360019361121491161515612cb3565b8260a01b60ff60a01b198254161790550182516001600160401b0381116102775761123f825461295d565b601f8111611308575b506020601f82116001146112a35781929394600092611298575b50508160011b916000199060031b1c19161790555b600b54600160401b811015610277578060016102579201600b55600b6125ab565b015190508480611262565b601f1982169083600052806000209160005b8181106112f0575095836001959697106112d7575b505050811b019055611277565b015160001960f88460031b161c191690558480806112ca565b9192602060018192868b0151815501940192016112b5565b826000526020600020601f830160051c81019160208410611346575b601f0160051c01905b81811061133a5750611248565b6000815560010161132d565b9091508190611324565b34610345576020366003190112610345576004356001600160401b0381116103455761138090369060040161285b565b33600090815260086020526040902060078101546113a8906001600160a01b03161515612c67565b81516001600160401b038111610277576113c2825461295d565b601f8111611443575b50602092601f82116001146113fd579281929360009261110d575050600019600383901b1c191660019190911b179055005b601f1982169383600052806000209160005b86811061142b575083600195961061114757505050811b019055005b9192602060018192868501518155019401920161140f565b826000526020600020601f830160051c81019160208410611481575b601f0160051c01905b81811061147557506113cb565b60008155600101611468565b909150819061145f565b3461034557611499366128f0565b9260055491604051916114ab8361281e565b82526114b5612c22565b926020830193845260408301948552606083019182526080830195865260a0830190815260c08301916000835260e084019533875261010085019560008752336000526008602052604060002095518051906001600160401b038211610277578190611521895461295d565b601f81116119a8575b50602090601f831160011461194357600092611938575b50508160011b916000199060031b1c19161786555b51805160018701916001600160401b038211610277578190611578845461295d565b601f81116118e5575b50602090601f831160011461188057600092611875575b50508160011b916000199060031b1c19161790555b51600285015551805160038501916001600160401b0382116102775781906115d5845461295d565b601f8111611822575b50602090601f83116001146117bd576000926117b2575b50508160011b916000199060031b1c19161790555b6004830195519586516001600160401b0381116102775761162b825461295d565b601f811161176a575b506020601f821160011461170057819060079798996000926116f5575b50508160011b916000199060031b1c19161790555b5160058301555160068201559251920180546001600160a01b0319166001600160a01b03939093169290921782555160038110156105b9576116a791612bd9565b600954600160401b811015610277578060016116c8920160095560096125ab565b81546001600160a01b0360039290921b91821b19163390911b1790556005546116f090612bfd565b600555005b015190508980611651565b601f1982169883600052816000209960005b818110611752575091600798999a91846001959410611739575b505050811b019055611666565b015160001960f88460031b161c1916905589808061172c565b838301518c556001909b019a60209384019301611712565b826000526020600020601f830160051c810191602084106117a8575b601f0160051c01905b81811061179c5750611634565b6000815560010161178f565b9091508190611786565b0151905089806115f5565b60008581528281209350601f198516905b81811061180a57509084600195949392106117f1575b505050811b01905561160a565b015160001960f88460031b161c191690558980806117e4565b929360206001819287860151815501950193016117ce565b909150836000526020600020601f840160051c8101916020851061186b575b90601f859493920160051c01905b81811061185c57506115de565b6000815584935060010161184f565b9091508190611841565b015190508b80611598565b60008581528281209350601f198516905b8181106118cd57509084600195949392106118b4575b505050811b0190556115ad565b015160001960f88460031b161c191690558b80806118a7565b92936020600181928786015181550195019301611891565b909150836000526020600020601f840160051c8101916020851061192e575b90601f859493920160051c01905b81811061191f5750611581565b60008155849350600101611912565b9091508190611904565b015190508b80611541565b60008a81528281209350601f198516905b8181106119905750908460019594939210611977575b505050811b018655611556565b015160001960f88460031b161c191690558b808061196a565b92936020600181928786015181550195019301611954565b909150886000526020600020601f840160051c810191602085106119f1575b90601f859493920160051c01905b8181106119e2575061152a565b600081558493506001016119d5565b90915081906119c7565b3461034557602036600319011261034557611a14612808565b6002544210611be3576003544211611bab57336000526007602052604060002060ff600782015460a01c1660038110156105b957600103611b665780549160ff8316611b285760018060a01b0316600052600860205260406000209060ff600783015460a01c1660038110156105b957600103611ae357600160069360ff191617905501611aa28154612bfd565b9055600d54600160401b81101561027757806001611ac59201600d55600d6125ab565b81546001600160a01b0360039290921b91821b19163390911b179055005b60405162461bcd60e51b815260206004820152601a60248201527f43616e646964617465206973206e6f742061636365707465642e0000000000006044820152606490fd5b60405162461bcd60e51b8152602060048201526016602482015275165bdd481a185d9948185b1c9958591e481d9bdd195960521b6044820152606490fd5b60405162461bcd60e51b815260206004820152601e60248201527f596f7520617265206e6f74206120636f6e6669726d656420766f7465722e00006044820152606490fd5b60405162461bcd60e51b815260206004820152601060248201526f159bdd1a5b99c81a185cc8195b99195960821b6044820152606490fd5b60405162461bcd60e51b815260206004820152601a60248201527f566f74696e6720686173206e6f742073746172746564207965740000000000006044820152606490fd5b3461034557600036600319011261034557600a54611c4581612b50565b9060005b818110611c5e576040518061057085826127a8565b80611c6a600192612590565b838060a01b0391549060031b1c1660005260076020526040600020611c9960ff600760405193610ebe8561281e565b611ca38286612ae9565b52611cae8185612ae9565b5001611c49565b3461034557602036600319011261034557600435600d5481101561034557610d18602091612575565b3461034557602036600319011261034557600435611d0760018060a01b03600054163314612ba0565b600454611d8057600354811115611d1d57600455005b60405162461bcd60e51b815260206004820152603560248201527f526573756c74207075626c69636174696f6e2074696d65206d75737420626520604482015274616674657220766f74696e6720656e642074696d6560581b6064820152608490fd5b60405162461bcd60e51b815260206004820152602360248201527f526573756c74207075626c69636174696f6e2074696d6520616c7265616479206044820152621cd95d60ea1b6064820152608490fd5b3461034557611ddf366128b1565b90611df560018060a01b03600054163314612ba0565b6001600160a01b03908116600090815260086020526040902060078101805490921615611f1857815460ff60a01b1916600160a11b179091558151600191909101906001600160401b03811161027757611e4f825461295d565b601f8111611ed0575b50602092601f8211600114611e8a579281929360009261110d575050600019600383901b1c191660019190911b179055005b601f1982169383600052806000209160005b868110611eb8575083600195961061114757505050811b019055005b91926020600181928685015181550194019201611e9c565b826000526020600020601f830160051c81019160208410611f0e575b601f0160051c01905b818110611f025750611e58565b60008155600101611ef5565b9091508190611eec565b60405162461bcd60e51b815260206004820152601b60248201527f4e6f2063616e646964617465206461746120617661696c61626c6500000000006044820152606490fd5b3461034557602036600319011261034557611f76612808565b611f7e612b09565b5060018060a01b031660005260076020526040600020600760405191611fa38361281e565b60ff81541615158352611fb860018201612997565b602084015260028101546040840152611fd360038201612997565b6060840152611fe460048201612997565b6080840152611ff560058201612997565b60a0840152600681015460c0840152015460e0820160018060a01b038216815261202a60ff61010085019360a01c1683612afd565b516001600160a01b0316156120a0575160038110156105b95760001901612063576105709060405191829160208352602083019061270d565b60405162461bcd60e51b8152602060048201526015602482015274159bdd195c881a5cc81b9bdd081858d8d95c1d1959605a1b6044820152606490fd5b60405162461bcd60e51b815260206004820152600f60248201526e159bdd195c881b9bdd08199bdd5b99608a1b6044820152606490fd5b3461034557602036600319011261034557600435600c5481101561034557610d1860209161253f565b346103455761210e366128b1565b9061212460018060a01b03600054163314612ba0565b6001600160a01b03908116600090815260076020819052604090912090810180549092161561224957815460ff60a01b1916600160a11b179091558151600591909101906001600160401b03811161027757612180825461295d565b601f8111612201575b50602092601f82116001146121bb579281929360009261110d575050600019600383901b1c191660019190911b179055005b601f1982169383600052806000209160005b8681106121e9575083600195961061114757505050811b019055005b919260206001819286850151815501940192016121cd565b826000526020600020601f830160051c8101916020841061223f575b601f0160051c01905b8181106122335750612189565b60008155600101612226565b909150819061221d565b60405162461bcd60e51b815260206004820152601760248201527f4e6f20766f746572206461746120617661696c61626c650000000000000000006044820152606490fd5b3461034557600036600319011261034557600b546122ab81612a99565b9060005b8181106122c4576040518061057085826126ad565b806122d060019261255a565b838060a01b0391549060031b1c166000526008602052604060002061237760ff6007604051936122ff8561281e565b61230881612997565b8552612315878201612997565b60208601526002810154604086015261233060038201612997565b606086015261234160048201612997565b6080860152600581015460a0860152600681015460c08601520154858060a01b03811660e085015260a01c166101008301612afd565b6123818286612ae9565b5261238c8185612ae9565b50016122af565b3461034557600036600319011261034557600c546123b081612b50565b9060005b8181106123c9576040518061057085826127a8565b806123d560019261253f565b838060a01b0391549060031b1c166000526007602052604060002061240460ff600760405193610ebe8561281e565b61240e8286612ae9565b526124198185612ae9565b50016123b4565b34610345576000366003190112610345576020600254604051908152f35b346103455760003660031901126103455760095461245b81612a99565b9060005b818110612474576040518061057085826126ad565b8061248060019261250e565b838060a01b0391549060031b1c16600052600860205260406000206124af60ff6007604051936122ff8561281e565b6124b98286612ae9565b526124c48185612ae9565b500161245f565b34610345576000366003190112610345576020600354604051908152f35b346103455760203660031901126103455760043560095481101561034557610d186020915b60095481101561252957600960005260206000200190600090565b634e487b7160e01b600052603260045260246000fd5b600c5481101561252957600c60005260206000200190600090565b600b5481101561252957600b60005260206000200190600090565b600d5481101561252957600d60005260206000200190600090565b600a5481101561252957600a60005260206000200190600090565b80548210156125295760005260206000200190600090565b919082519283825260005b8481106125ef575050826000602080949584010152601f8019910116010190565b806020809284010151828286010152016125ce565b9060038210156105b95752565b906126aa906101008061267861266661264a612638885161012088526101208801906125c3565b602089015187820360208901526125c3565b60408801516040870152606088015186820360608801526125c3565b608087015185820360808701526125c3565b60a0808701519085015260c0808701519085015260e0808701516001600160a01b031690850152940151910190612604565b90565b602081016020825282518091526040820191602060408360051b8301019401926000915b8383106126e057505050505090565b90919293946020806126fe600193603f198682030187528951612611565b970193019301919392906126d1565b906126aa908251151581526101008061278061276e61275c612740602089015161012060208901526101208801906125c3565b60408901516040880152606089015187820360608901526125c3565b608088015186820360808801526125c3565b60a087015185820360a08701526125c3565b60c0808701519085015260e0808701516001600160a01b031690850152940151910190612604565b602081016020825282518091526040820191602060408360051b8301019401926000915b8383106127db57505050505090565b90919293946020806127f9600193603f19868203018752895161270d565b970193019301919392906127cc565b600435906001600160a01b038216820361034557565b61012081019081106001600160401b0382111761027757604052565b90601f801991011681019081106001600160401b0382111761027757604052565b81601f82011215610345578035906001600160401b038211610277576040519261288f601f8401601f19166020018561283a565b8284526020838301011161034557816000926020809301838601378301015290565b906040600319830112610345576004356001600160a01b03811681036103455791602435906001600160401b038211610345576126aa9160040161285b565b906080600319830112610345576004356001600160401b038111610345578261291b9160040161285b565b91602435916044356001600160401b038111610345578261293e9160040161285b565b91606435906001600160401b038211610345576126aa9160040161285b565b90600182811c9216801561298d575b602083101461297757565b634e487b7160e01b600052602260045260246000fd5b91607f169161296c565b90604051918260008254926129ab8461295d565b8084529360018116908115612a1957506001146129d2575b506129d09250038361283a565b565b90506000929192526020600020906000915b8183106129fd5750509060206129d092820101386129c3565b60209193508060019154838589010152019101909184926129e4565b9050602092506129d094915060ff191682840152151560051b820101386129c3565b6001600160401b0381116102775760051b60200190565b60405190612a5f8261281e565b6000610100836060815260606020820152826040820152606080820152606060808201528260a08201528260c08201528260e08201520152565b90612aa382612a3b565b612ab0604051918261283a565b8281528092612ac1601f1991612a3b565b019060005b828110612ad257505050565b602090612add612a52565b82828501015201612ac6565b80518210156125295760209160051b010190565b60038210156105b95752565b60405190612b168261281e565b6000610100838281526060602082015282604082015260608082015260606080820152606060a08201528260c08201528260e08201520152565b90612b5a82612a3b565b612b67604051918261283a565b8281528092612b78601f1991612a3b565b019060005b828110612b8957505050565b602090612b94612b09565b82828501015201612b7d565b15612ba757565b60405162461bcd60e51b815260206004820152600a60248201526927b7363c9037bbb732b960b11b6044820152606490fd5b9060038110156105b957815460ff60a01b191660a09190911b60ff60a01b16179055565b6000198114612c0c5760010190565b634e487b7160e01b600052601160045260246000fd5b60405190612c3160608361283a565b60218252601b60fa1b6040837f526567697374726174696f6e206973206177616974696e6720617070726f766160208201520152565b15612c6e57565b60405162461bcd60e51b815260206004820152601860248201527f4e6f20766f746572206461746120617661696c61626c652e00000000000000006044820152606490fd5b15612cba57565b60405162461bcd60e51b815260206004820152602960248201527f5468697320766f74657220646f6573206e6f742061707065617220696e206f75604482015268391039bcb9ba32b69760b91b6064820152608490fd5b612d19612a52565b50612d22612a52565b600b546000805b828110612d365750505090565b612d3f8161255a565b60018060a01b0391549060031b1c166000526008602052604060002060405190612d688261281e565b612d7181612997565b8252612d7f60018201612997565b602083015260028101546040830152612d9a60038201612997565b6060830152612dab60048201612997565b6080830152600581015460a0830152612dec60ff600760068401549360c08601948552015460018060a01b03811660e086015260a01c166101008401612afd565b51838111612dff575b5050600101612d29565b9094509150600138612df5565b612e14612a52565b50600b5415612f11576003544210612e2e576126aa612d11565b604051612e3a8161281e565b60408051612e48828261283a565b600f81526e139bdd08191958da591959081e595d608a1b602082015282528051612e7360608261283a565b603681527f506c65617365207761697420756e74696c2074686520656c656374696f6e2065602082015275373239903a379039b2b2903a3432903bb4b73732b91760511b8282015260208301526000818301528051612ed360208261283a565b60008152606083015251612ee860208261283a565b600081526080820152600060a0820152600060c0820152600060e0820152600061010082015290565b60405162461bcd60e51b8152602060048201526024808201527f4e6f2043616e6469646174657320616363657074656420666f7220656c65637460448201526334b7b71760e11b6064820152608490fdfea2646970667358221220726d13c8b6110a827fb84c1ba5b48efde08b8d6291e0ae987e0279a0624f86c664736f6c634300081c0033",
  "linkReferences": {},
  "deployedLinkReferences": {}
}