{
  "_format": "hh-sol-artifact-1",
  "contractName": "VotingSystem",
  "sourceName": "contracts/VotingSystem.sol",
  "abi": [
    {
      "inputs": [
        {
          "internalType": "string",
          "name": "_name",
          "type": "string"
        }
      ],
      "stateMutability": "nonpayable",
      "type": "constructor"
    },
    {
      "inputs": [],
      "name": "CurrentVotingStatus",
      "outputs": [
        {
          "components": [
            {
              "internalType": "uint256",
              "name": "registeredId",
              "type": "uint256"
            },
            {
              "internalType": "uint256",
              "name": "voteCalculation",
              "type": "uint256"
            },
            {
              "internalType": "address",
              "name": "candidatesAddress",
              "type": "address"
            },
            {
              "internalType": "enum VotingSystem.ConfirmationStatus",
              "name": "status",
              "type": "uint8"
            },
            {
              "internalType": "string",
              "name": "ipfsHash",
              "type": "string"
            },
            {
              "internalType": "string",
              "name": "message",
              "type": "string"
            }
          ],
          "internalType": "struct VotingSystem.Candidate",
          "name": "",
          "type": "tuple"
        }
      ],
      "stateMutability": "view",
      "type": "function"
    },
    {
      "inputs": [],
      "name": "ListofAcceptedCandidates",
      "outputs": [
        {
          "components": [
            {
              "internalType": "uint256",
              "name": "registeredId",
              "type": "uint256"
            },
            {
              "internalType": "uint256",
              "name": "voteCalculation",
              "type": "uint256"
            },
            {
              "internalType": "address",
              "name": "candidatesAddress",
              "type": "address"
            },
            {
              "internalType": "enum VotingSystem.ConfirmationStatus",
              "name": "status",
              "type": "uint8"
            },
            {
              "internalType": "string",
              "name": "ipfsHash",
              "type": "string"
            },
            {
              "internalType": "string",
              "name": "message",
              "type": "string"
            }
          ],
          "internalType": "struct VotingSystem.Candidate[]",
          "name": "",
          "type": "tuple[]"
        }
      ],
      "stateMutability": "view",
      "type": "function"
    },
    {
      "inputs": [],
      "name": "ListofAcceptedVoters",
      "outputs": [
        {
          "components": [
            {
              "internalType": "bool",
              "name": "alreadyVoted",
              "type": "bool"
            },
            {
              "internalType": "string",
              "name": "message",
              "type": "string"
            },
            {
              "internalType": "string",
              "name": "ipfsHash",
              "type": "string"
            },
            {
              "internalType": "uint256",
              "name": "registeredId",
              "type": "uint256"
            },
            {
              "internalType": "address",
              "name": "votersAddress",
              "type": "address"
            },
            {
              "internalType": "enum VotingSystem.ConfirmationStatus",
              "name": "status",
              "type": "uint8"
            }
          ],
          "internalType": "struct VotingSystem.Voter[]",
          "name": "",
          "type": "tuple[]"
        }
      ],
      "stateMutability": "view",
      "type": "function"
    },
    {
      "inputs": [],
      "name": "ListofRegisteredCandidates",
      "outputs": [
        {
          "components": [
            {
              "internalType": "uint256",
              "name": "registeredId",
              "type": "uint256"
            },
            {
              "internalType": "uint256",
              "name": "voteCalculation",
              "type": "uint256"
            },
            {
              "internalType": "address",
              "name": "candidatesAddress",
              "type": "address"
            },
            {
              "internalType": "enum VotingSystem.ConfirmationStatus",
              "name": "status",
              "type": "uint8"
            },
            {
              "internalType": "string",
              "name": "ipfsHash",
              "type": "string"
            },
            {
              "internalType": "string",
              "name": "message",
              "type": "string"
            }
          ],
          "internalType": "struct VotingSystem.Candidate[]",
          "name": "",
          "type": "tuple[]"
        }
      ],
      "stateMutability": "view",
      "type": "function"
    },
    {
      "inputs": [],
      "name": "ListofRegisteredVoters",
      "outputs": [
        {
          "components": [
            {
              "internalType": "bool",
              "name": "alreadyVoted",
              "type": "bool"
            },
            {
              "internalType": "string",
              "name": "message",
              "type": "string"
            },
            {
              "internalType": "string",
              "name": "ipfsHash",
              "type": "string"
            },
            {
              "internalType": "uint256",
              "name": "registeredId",
              "type": "uint256"
            },
            {
              "internalType": "address",
              "name": "votersAddress",
              "type": "address"
            },
            {
              "internalType": "enum VotingSystem.ConfirmationStatus",
              "name": "status",
              "type": "uint8"
            }
          ],
          "internalType": "struct VotingSystem.Voter[]",
          "name": "",
          "type": "tuple[]"
        }
      ],
      "stateMutability": "view",
      "type": "function"
    },
    {
      "inputs": [],
      "name": "ListofRejectedCandidates",
      "outputs": [
        {
          "components": [
            {
              "internalType": "uint256",
              "name": "registeredId",
              "type": "uint256"
            },
            {
              "internalType": "uint256",
              "name": "voteCalculation",
              "type": "uint256"
            },
            {
              "internalType": "address",
              "name": "candidatesAddress",
              "type": "address"
            },
            {
              "internalType": "enum VotingSystem.ConfirmationStatus",
              "name": "status",
              "type": "uint8"
            },
            {
              "internalType": "string",
              "name": "ipfsHash",
              "type": "string"
            },
            {
              "internalType": "string",
              "name": "message",
              "type": "string"
            }
          ],
          "internalType": "struct VotingSystem.Candidate[]",
          "name": "",
          "type": "tuple[]"
        }
      ],
      "stateMutability": "view",
      "type": "function"
    },
    {
      "inputs": [],
      "name": "ListofRejectedVoters",
      "outputs": [
        {
          "components": [
            {
              "internalType": "bool",
              "name": "alreadyVoted",
              "type": "bool"
            },
            {
              "internalType": "string",
              "name": "message",
              "type": "string"
            },
            {
              "internalType": "string",
              "name": "ipfsHash",
              "type": "string"
            },
            {
              "internalType": "uint256",
              "name": "registeredId",
              "type": "uint256"
            },
            {
              "internalType": "address",
              "name": "votersAddress",
              "type": "address"
            },
            {
              "internalType": "enum VotingSystem.ConfirmationStatus",
              "name": "status",
              "type": "uint8"
            }
          ],
          "internalType": "struct VotingSystem.Voter[]",
          "name": "",
          "type": "tuple[]"
        }
      ],
      "stateMutability": "view",
      "type": "function"
    },
    {
      "inputs": [
        {
          "internalType": "uint256",
          "name": "",
          "type": "uint256"
        }
      ],
      "name": "acceptedCandidates",
      "outputs": [
        {
          "internalType": "address",
          "name": "",
          "type": "address"
        }
      ],
      "stateMutability": "view",
      "type": "function"
    },
    {
      "inputs": [
        {
          "internalType": "uint256",
          "name": "",
          "type": "uint256"
        }
      ],
      "name": "acceptedVoters",
      "outputs": [
        {
          "internalType": "address",
          "name": "",
          "type": "address"
        }
      ],
      "stateMutability": "view",
      "type": "function"
    },
    {
      "inputs": [
        {
          "internalType": "address",
          "name": "_candidatesAddress",
          "type": "address"
        },
        {
          "internalType": "string",
          "name": "_message",
          "type": "string"
        }
      ],
      "name": "approveCandidate",
      "outputs": [],
      "stateMutability": "nonpayable",
      "type": "function"
    },
    {
      "inputs": [
        {
          "internalType": "address",
          "name": "_votersAddress",
          "type": "address"
        },
        {
          "internalType": "string",
          "name": "_message",
          "type": "string"
        }
      ],
      "name": "approveVoter",
      "outputs": [],
      "stateMutability": "nonpayable",
      "type": "function"
    },
    {
      "inputs": [
        {
          "internalType": "address",
          "name": "",
          "type": "address"
        }
      ],
      "name": "candidates",
      "outputs": [
        {
          "internalType": "uint256",
          "name": "registeredId",
          "type": "uint256"
        },
        {
          "internalType": "uint256",
          "name": "voteCalculation",
          "type": "uint256"
        },
        {
          "internalType": "address",
          "name": "candidatesAddress",
          "type": "address"
        },
        {
          "internalType": "enum VotingSystem.ConfirmationStatus",
          "name": "status",
          "type": "uint8"
        },
        {
          "internalType": "string",
          "name": "ipfsHash",
          "type": "string"
        },
        {
          "internalType": "string",
          "name": "message",
          "type": "string"
        }
      ],
      "stateMutability": "view",
      "type": "function"
    },
    {
      "inputs": [
        {
          "internalType": "uint256",
          "name": "",
          "type": "uint256"
        }
      ],
      "name": "candidatesRegistered",
      "outputs": [
        {
          "internalType": "address",
          "name": "",
          "type": "address"
        }
      ],
      "stateMutability": "view",
      "type": "function"
    },
    {
      "inputs": [
        {
          "internalType": "address",
          "name": "newOwner",
          "type": "address"
        }
      ],
      "name": "changeOwner",
      "outputs": [],
      "stateMutability": "nonpayable",
      "type": "function"
    },
    {
      "inputs": [],
      "name": "electionName",
      "outputs": [
        {
          "internalType": "string",
          "name": "",
          "type": "string"
        }
      ],
      "stateMutability": "view",
      "type": "function"
    },
    {
      "inputs": [],
      "name": "getAllVotersWhoCasted",
      "outputs": [
        {
          "components": [
            {
              "internalType": "bool",
              "name": "alreadyVoted",
              "type": "bool"
            },
            {
              "internalType": "string",
              "name": "message",
              "type": "string"
            },
            {
              "internalType": "string",
              "name": "ipfsHash",
              "type": "string"
            },
            {
              "internalType": "uint256",
              "name": "registeredId",
              "type": "uint256"
            },
            {
              "internalType": "address",
              "name": "votersAddress",
              "type": "address"
            },
            {
              "internalType": "enum VotingSystem.ConfirmationStatus",
              "name": "status",
              "type": "uint8"
            }
          ],
          "internalType": "struct VotingSystem.Voter[]",
          "name": "",
          "type": "tuple[]"
        }
      ],
      "stateMutability": "view",
      "type": "function"
    },
    {
      "inputs": [],
      "name": "owner",
      "outputs": [
        {
          "internalType": "address",
          "name": "",
          "type": "address"
        }
      ],
      "stateMutability": "view",
      "type": "function"
    },
    {
      "inputs": [
        {
          "internalType": "string",
          "name": "_ipfsHash",
          "type": "string"
        }
      ],
      "name": "registerCandidate",
      "outputs": [],
      "stateMutability": "nonpayable",
      "type": "function"
    },
    {
      "inputs": [
        {
          "internalType": "string",
          "name": "_ipfsHash",
          "type": "string"
        }
      ],
      "name": "registerVoter",
      "outputs": [],
      "stateMutability": "nonpayable",
      "type": "function"
    },
    {
      "inputs": [
        {
          "internalType": "address",
          "name": "_candidatesAddress",
          "type": "address"
        },
        {
          "internalType": "string",
          "name": "_message",
          "type": "string"
        }
      ],
      "name": "rejectCandidate",
      "outputs": [],
      "stateMutability": "nonpayable",
      "type": "function"
    },
    {
      "inputs": [
        {
          "internalType": "address",
          "name": "_votersAddress",
          "type": "address"
        },
        {
          "internalType": "string",
          "name": "_message",
          "type": "string"
        }
      ],
      "name": "rejectVoter",
      "outputs": [],
      "stateMutability": "nonpayable",
      "type": "function"
    },
    {
      "inputs": [
        {
          "internalType": "uint256",
          "name": "",
          "type": "uint256"
        }
      ],
      "name": "rejectedCandidates",
      "outputs": [
        {
          "internalType": "address",
          "name": "",
          "type": "address"
        }
      ],
      "stateMutability": "view",
      "type": "function"
    },
    {
      "inputs": [
        {
          "internalType": "uint256",
          "name": "",
          "type": "uint256"
        }
      ],
      "name": "rejectedVoters",
      "outputs": [
        {
          "internalType": "address",
          "name": "",
          "type": "address"
        }
      ],
      "stateMutability": "view",
      "type": "function"
    },
    {
      "inputs": [],
      "name": "resetContract",
      "outputs": [],
      "stateMutability": "nonpayable",
      "type": "function"
    },
    {
      "inputs": [],
      "name": "resultPublicationTime",
      "outputs": [
        {
          "internalType": "uint256",
          "name": "",
          "type": "uint256"
        }
      ],
      "stateMutability": "view",
      "type": "function"
    },
    {
      "inputs": [
        {
          "internalType": "string",
          "name": "_ipfsHash",
          "type": "string"
        },
        {
          "internalType": "address",
          "name": "_addr",
          "type": "address"
        }
      ],
      "name": "searchCandidate",
      "outputs": [
        {
          "components": [
            {
              "internalType": "uint256",
              "name": "registeredId",
              "type": "uint256"
            },
            {
              "internalType": "uint256",
              "name": "voteCalculation",
              "type": "uint256"
            },
            {
              "internalType": "address",
              "name": "candidatesAddress",
              "type": "address"
            },
            {
              "internalType": "enum VotingSystem.ConfirmationStatus",
              "name": "status",
              "type": "uint8"
            },
            {
              "internalType": "string",
              "name": "ipfsHash",
              "type": "string"
            },
            {
              "internalType": "string",
              "name": "message",
              "type": "string"
            }
          ],
          "internalType": "struct VotingSystem.Candidate[]",
          "name": "",
          "type": "tuple[]"
        }
      ],
      "stateMutability": "view",
      "type": "function"
    },
    {
      "inputs": [
        {
          "internalType": "address",
          "name": "_addr",
          "type": "address"
        }
      ],
      "name": "searchVoter",
      "outputs": [
        {
          "components": [
            {
              "internalType": "bool",
              "name": "alreadyVoted",
              "type": "bool"
            },
            {
              "internalType": "string",
              "name": "message",
              "type": "string"
            },
            {
              "internalType": "string",
              "name": "ipfsHash",
              "type": "string"
            },
            {
              "internalType": "uint256",
              "name": "registeredId",
              "type": "uint256"
            },
            {
              "internalType": "address",
              "name": "votersAddress",
              "type": "address"
            },
            {
              "internalType": "enum VotingSystem.ConfirmationStatus",
              "name": "status",
              "type": "uint8"
            }
          ],
          "internalType": "struct VotingSystem.Voter",
          "name": "",
          "type": "tuple"
        }
      ],
      "stateMutability": "view",
      "type": "function"
    },
    {
      "inputs": [
        {
          "internalType": "uint256",
          "name": "_resultPublicationTime",
          "type": "uint256"
        }
      ],
      "name": "setResultPublicationTime",
      "outputs": [],
      "stateMutability": "nonpayable",
      "type": "function"
    },
    {
      "inputs": [
        {
          "internalType": "uint256",
          "name": "_votingStartTime",
          "type": "uint256"
        },
        {
          "internalType": "uint256",
          "name": "_votingEndTime",
          "type": "uint256"
        }
      ],
      "name": "startendVoting",
      "outputs": [],
      "stateMutability": "nonpayable",
      "type": "function"
    },
    {
      "inputs": [
        {
          "internalType": "string",
          "name": "_ipfsHash",
          "type": "string"
        }
      ],
      "name": "updateCandidate",
      "outputs": [],
      "stateMutability": "nonpayable",
      "type": "function"
    },
    {
      "inputs": [
        {
          "internalType": "string",
          "name": "_ipfsHash",
          "type": "string"
        }
      ],
      "name": "updateVoter",
      "outputs": [],
      "stateMutability": "nonpayable",
      "type": "function"
    },
    {
      "inputs": [
        {
          "internalType": "address",
          "name": "_candidatesAddress",
          "type": "address"
        }
      ],
      "name": "vote",
      "outputs": [],
      "stateMutability": "nonpayable",
      "type": "function"
    },
    {
      "inputs": [
        {
          "internalType": "address",
          "name": "",
          "type": "address"
        }
      ],
      "name": "voters",
      "outputs": [
        {
          "internalType": "bool",
          "name": "alreadyVoted",
          "type": "bool"
        },
        {
          "internalType": "string",
          "name": "message",
          "type": "string"
        },
        {
          "internalType": "string",
          "name": "ipfsHash",
          "type": "string"
        },
        {
          "internalType": "uint256",
          "name": "registeredId",
          "type": "uint256"
        },
        {
          "internalType": "address",
          "name": "votersAddress",
          "type": "address"
        },
        {
          "internalType": "enum VotingSystem.ConfirmationStatus",
          "name": "status",
          "type": "uint8"
        }
      ],
      "stateMutability": "view",
      "type": "function"
    },
    {
      "inputs": [
        {
          "internalType": "uint256",
          "name": "",
          "type": "uint256"
        }
      ],
      "name": "votersRegistered",
      "outputs": [
        {
          "internalType": "address",
          "name": "",
          "type": "address"
        }
      ],
      "stateMutability": "view",
      "type": "function"
    },
    {
      "inputs": [
        {
          "internalType": "uint256",
          "name": "",
          "type": "uint256"
        }
      ],
      "name": "votersWhoCasted",
      "outputs": [
        {
          "internalType": "address",
          "name": "",
          "type": "address"
        }
      ],
      "stateMutability": "view",
      "type": "function"
    },
    {
      "inputs": [],
      "name": "votingEndTime",
      "outputs": [
        {
          "internalType": "uint256",
          "name": "",
          "type": "uint256"
        }
      ],
      "stateMutability": "view",
      "type": "function"
    },
    {
      "inputs": [],
      "name": "votingStartTime",
      "outputs": [
        {
          "internalType": "uint256",
          "name": "",
          "type": "uint256"
        }
      ],
      "stateMutability": "view",
      "type": "function"
    },
    {
      "inputs": [],
      "name": "winningCandidate",
      "outputs": [
        {
          "components": [
            {
              "internalType": "uint256",
              "name": "registeredId",
              "type": "uint256"
            },
            {
              "internalType": "uint256",
              "name": "voteCalculation",
              "type": "uint256"
            },
            {
              "internalType": "address",
              "name": "candidatesAddress",
              "type": "address"
            },
            {
              "internalType": "enum VotingSystem.ConfirmationStatus",
              "name": "status",
              "type": "uint8"
            },
            {
              "internalType": "string",
              "name": "ipfsHash",
              "type": "string"
            },
            {
              "internalType": "string",
              "name": "message",
              "type": "string"
            }
          ],
          "internalType": "struct VotingSystem.Candidate",
          "name": "",
          "type": "tuple"
        }
      ],
      "stateMutability": "view",
      "type": "function"
    }
  ],
  "bytecode": "0x60806040523461023b5761335c8038038061001981610240565b92833981019060208183031261023b578051906001600160401b03821161023b570181601f8201121561023b578051906001600160401b0382116102105761006a601f8301601f1916602001610240565b928284526020838301011161023b5760005b82811061022657600083850160200181905280546001600160a01b03191633179055835184906001600160401b03811161021057600154600181811c91168015610206575b60208210146101f057601f811161018b575b50602091601f82116001146101275791819260009261011c575b50508160011b916000199060031b1c1916176001555b600160055560016006556040516130f690816102668239f35b0151905082806100ed565b601f198216926001600052806000209160005b8581106101735750836001951061015a575b505050811b01600155610103565b015160001960f88460031b161c1916905582808061014c565b9192602060018192868501518155019401920161013a565b60016000527fb10e2d527612073b26eecdfd717e6a320cf44b4afac2b0732d9fcbe2b7fa0cf6601f830160051c810191602084106101e6575b601f0160051c01905b8181106101da57506100d3565b600081556001016101cd565b90915081906101c4565b634e487b7160e01b600052602260045260246000fd5b90607f16906100c1565b634e487b7160e01b600052604160045260246000fd5b8060208092840101518282870101520161007c565b600080fd5b6040519190601f01601f191682016001600160401b038111838210176102105760405256fe6080604052600436101561001257600080fd5b60003560e01c80630366ac3714612769578063073f966d146126d95780631ea736e0146126bb5780631ee9367c1461262b5780632019a6081461260d57806323a2b2ed146125805780633afa3e07146125575780633cfde26c1461247f578063429b0b22146122335780634a2846a81461201d57806353dd128c14611ff457806359632c2214611dde5780635b45cfca14611ceb5780635e894b1214611cc25780635f1bc34e14611c9957806360fc4e3214611c0c5780636428a486146119725780636dd7d8ea1461176157806379432db51461161d5780637eb21b51146113e657806382ff2aeb14611279578063849c56571461125057806385e8e7a71461116f5780638987cb32146110e25780638ab66a90146110395780638da5cb5b14611010578063964a43b914610f345780639e7a814514610ef25780639eb88db614610c35578063a3ec138d14610b84578063a6f9dae114610ae2578063ac94ba4c14610ac4578063b181a8fc146106f6578063b381a935146105ef578063bab912a2146105d3578063d28178d71461059f578063f33698f11461047a5763fad761d3146101be57600080fd5b34610475576101cc36612af6565b906101e260018060a01b03600054163314612d60565b6001600160a01b0381811660008181526007602052604090206004810180549294939092161561041e57815460ff60a01b1916600160a01b179091558351600191909101906001600160401b03811161039857610249816102438454612b35565b84612dd4565b602094601f82116001146103b95761027d9293949582916000926103ae575b50508160011b916000199060031b1c19161790565b90555b600c5490600160401b821015610398576102a58260016102c99401600c55600c612861565b9080546001600160a01b0360039390931b83811b199091169290931690921b179055565b60005b600e548082101561039657826102e1836127f5565b905460039190911b1c6001600160a01b03161461030157506001016102cc565b600019810192508211610380576102a561031d610335936127f5565b905460039190911b1c6001600160a01b0316916127f5565b600e54801561036a576000190161036561035082600e612861565b81549060018060a01b039060031b1b19169055565b600e55005b634e487b7160e01b600052603160045260246000fd5b634e487b7160e01b600052601160045260246000fd5b005b634e487b7160e01b600052604160045260246000fd5b015190503880610268565b601f1982169583600052806000209160005b888110610406575083600195969798106103ed575b505050811b019055610280565b015160001960f88460031b161c191690553880806103e0565b919260206001819286850151815501940192016103cb565b60405162461bcd60e51b815260206004820152602960248201527f5468697320766f74657220646f6573206e6f742061707065617220696e206f75604482015268391039bcb9ba32b69760b91b6064820152608490fd5b600080fd5b3461047557604036600319011261047557600435602435906104a760018060a01b03600054163314612d60565b60025461055a574281111561051657818110156104c657600255600355005b60405162461bcd60e51b815260206004820152602260248201527f53746172742074696d65206d757374206265206265666f726520656e642074696044820152616d6560f01b6064820152608490fd5b606460405162461bcd60e51b815260206004820152602060248201527f53746172742074696d65206d75737420626520696e20746865206675747572656044820152fd5b60405162461bcd60e51b815260206004820152601860248201527f566f74696e6720616c7265616479207363686564756c656400000000000000006044820152606490fd5b34610475576000366003190112610475576105cf6105bb612fd1565b6040519182916020835260208301906128c7565b0390f35b34610475576000366003190112610475576105cf6105bb612f03565b3461047557602036600319011261047557610608612ae0565b610610612cce565b506001600160a01b03908116600081815260076020526040902060040154909116156106bf5760005260076020526105cf60406000206106ab60ff60046040519361065a85612a4e565b828154161515855261066e60018201612b6f565b602086015261067f60028201612b6f565b604086015260038101546060860152015460018060a01b038116608085015260a01c1660a08301612cc2565b60405191829160208352602083019061298c565b60405162461bcd60e51b815260206004820152600f60248201526e159bdd195c881b9bdd08199bdd5b99608a1b6044820152606490fd5b346104755760003660031901126104755761071c60018060a01b03600054163314612d60565b6003548015159081610aba575b5015610a5b5761073a600154612b35565b601f8111610a1c575b50600060015560006002556000600355600060045560005b6009548110156107ba578061077160019261278e565b838060a01b0391549060031b1c1660005260086020526107b46004604060002060008155600085820155600060028201556107ae60038201612eb4565b01612eb4565b0161075b565b6009546000600955806109e3575b50600b546000600b55806109aa575b50600d546000600d5580610971575b5060005b600a548110156108465780610800600192612846565b838060a01b0391549060031b1c166000526007602052600060046040822082815561082c858201612eb4565b61083860028201612eb4565b8260038201550155016107ea565b600a546000600a5580610938575b50600c546000600c55806108ff575b50600e546000600e55806108c6575b50600f546000600f558061088d575b60016005819055600655005b600f6000526108c0907f8d1108e10bcb7c27dddfc02ed9d693a074039d026cf4ea4240b40f7d581ac80290810190612dbd565b80610881565b600e6000526108f9907fbb7b4a454dc3493923482f07822329ed19e8244eff582cc204f8554c3620c3fd90810190612dbd565b80610872565b600c600052610932907fdf6966c971051c3d54ec59162606531493a51404a002842f56009d7e5cf4a8c790810190612dbd565b80610863565b600a60005261096b907fc65a7bb8d6351c1cf70c95a316cc6a92839c986682d98bc35f958f4883f9d2a890810190612dbd565b80610854565b600d6000526109a4907fd7b6990105719101dabeb77144f2a3385c8033acd3af97e9423a695e81ad1eb590810190612dbd565b806107e6565b600b6000526109dd907f0175b7a638427703f0dbe7bb9bbf987a2551717b34e79f33b5b1008d1fa01db990810190612dbd565b806107d7565b6009600052610a16907f6e1540171b6c0c960b71a7020d9f60077f6af931a8bbf590da0223dacf75c7af90810190612dbd565b806107c8565b6001600052610a5590601f0160051c7fb10e2d527612073b26eecdfd717e6a320cf44b4afac2b0732d9fcbe2b7fa0cf690810190612dbd565b80610743565b60405162461bcd60e51b815260206004820152603160248201527f456c656374696f6e206973207374696c6c206f6e676f696e672e2043616e6e6f6044820152703a103932b9b2ba1031b7b73a3930b1ba1760791b6064820152608490fd5b9050421181610729565b34610475576000366003190112610475576020600454604051908152f35b3461047557602036600319011261047557610afb612ae0565b60005490610b13336001600160a01b03841614612d60565b6001600160a01b0316908115610b33576001600160a01b03191617600055005b60405162461bcd60e51b8152602060048201526024808201527f4e6577206f776e65722063616e6e6f7420626520746865207a65726f206164646044820152637265737360e01b6064820152608490fd5b34610475576020366003190112610475576001600160a01b03610ba5612ae0565b166000526007602052604060002060ff815416610bc460018301612b6f565b916105cf610bd460028301612b6f565b610c0e6004600385015494015491610c006040519788971515885260c0602089015260c0880190612886565b908682036040880152612886565b60608501939093526001600160a01b038116608085015260a080850191901c60ff16612879565b34610475576020366003190112610475576004356001600160401b03811161047557610c65903690600401612a8a565b60055460405190610c7582612a4e565b815260208101906000825260408101338152606082016000815260808301948552610c9e612e19565b60a08401908152336000908152600860205260409020935184559351600184015590516002830180546001600160a01b0319166001600160a01b039290921691909117815590516003811015610edc57610cf791612d99565b6003810192519283516001600160401b03811161039857610d1c816102438454612b35565b6020601f8211600114610e73579080610d4f9260049697600092610e685750508160011b916000199060031b1c19161790565b90555b0190519081516001600160401b03811161039857610d74816102438454612b35565b602092601f8211600114610e0557610da592938291600092610dfa5750508160011b916000199060031b1c19161790565b90555b600954600160401b81101561039857610dcc816001610dea93016009556009612861565b81543360039290921b91821b6001600160a01b0390921b1916179055565b610df5600554612d51565b600555005b015190508480610268565b601f1982169383600052806000209160005b868110610e505750836001959610610e37575b505050811b019055610da8565b015160001960f88460031b161c19169055838080610e2a565b91926020600181928685015181550194019201610e17565b015190508780610268565b601f1982169583600052816000209660005b818110610ec45750916004969791846001959410610eab575b505050811b019055610d52565b015160001960f88460031b161c19169055868080610e9e565b83830151895560019098019760209384019301610e85565b634e487b7160e01b600052602160045260246000fd5b3461047557602036600319011261047557600435600b5481101561047557610f1b602091612810565b905460405160039290921b1c6001600160a01b03168152f35b3461047557600036600319011261047557600e54610f5181612d01565b9060005b818110610f6a57604051806105cf85826129ee565b80610f766001926127f5565b838060a01b0391549060031b1c1660005260076020526040600020610ff460ff600460405193610fa585612a4e565b8281541615158552610fb8878201612b6f565b6020860152610fc960028201612b6f565b6040860152600381015460608601520154858060a01b038116608085015260a01c1660a08301612cc2565b610ffe8286612cae565b526110098185612cae565b5001610f55565b34610475576000366003190112610475576000546040516001600160a01b039091168152602090f35b34610475576020366003190112610475576001600160a01b0361105a612ae0565b166000526008602052604060002080546105cf6001830154926110d46002820154916110c3611097600461109060038501612b6f565b9301612b6f565b936040519788978852602088015260018060a01b038116604088015260ff606088019160a01c16612879565b60c0608086015260c0850190612886565b9083820360a0850152612886565b3461047557600036600319011261047557600f546110ff81612d01565b9060005b81811061111857604051806105cf85826129ee565b8061112460019261282b565b838060a01b0391549060031b1c166000526007602052604060002061115360ff600460405193610fa585612a4e565b61115d8286612cae565b526111688185612cae565b5001611103565b3461047557600036600319011261047557604051600060015461119181612b35565b808452906001811690811561122c57506001146111cd575b6105cf836111b981850382612a69565b604051918291602083526020830190612886565b600160009081527fb10e2d527612073b26eecdfd717e6a320cf44b4afac2b0732d9fcbe2b7fa0cf6939250905b808210611212575090915081016020016111b96111a9565b9192600181602092548385880101520191019092916111fa565b60ff191660208086019190915291151560051b840190910191506111b990506111a9565b3461047557602036600319011261047557600435600a5481101561047557610f1b602091612846565b34610475576020366003190112610475576004356001600160401b038111610475576112a9903690600401612a8a565b6112bf60025480159081156113dc575b50612e5e565b33600090815260076020526040902060048101546001600160a01b0316156113975760020181516001600160401b03811161039857611302816102438454612b35565b602092601f82116001146113375761133392938291600092610dfa5750508160011b916000199060031b1c19161790565b9055005b601f1982169383600052806000209160005b86811061137f5750836001959610611366575b505050811b019055005b015160001960f88460031b161c1916905583808061135c565b91926020600181928685015181550194019201611349565b60405162461bcd60e51b815260206004820152601860248201527f4e6f20766f746572206461746120617661696c61626c652e00000000000000006044820152606490fd5b90504210836112b9565b34610475576113f436612af6565b9061140a60018060a01b03600054163314612d60565b6001600160a01b038181166000818152600860205260409020600281018054929493909216156115c257815460ff60a01b1916600160a01b179091558351600491909101906001600160401b0381116103985761146b816102438454612b35565b602094601f821160011461155d5761149e9293949582916000926115525750508160011b916000199060031b1c19161790565b90555b600b5490600160401b821015610398576102a58260016114c69401600b55600b612861565b60005b600d548082101561039657826114de836127bf565b905460039190911b1c6001600160a01b0316146114fe57506001016114c9565b600019810192508211610380576102a561151a611532936127bf565b905460039190911b1c6001600160a01b0316916127bf565b600d54801561036a576000190161154d61035082600d612861565b600d55005b015190508680610268565b601f1982169583600052806000209160005b8881106115aa57508360019596979810611591575b505050811b0190556114a1565b015160001960f88460031b161c19169055858080611584565b9192602060018192868501518155019401920161156f565b60405162461bcd60e51b815260206004820152602d60248201527f546869732063616e64696461746520646f6573206e6f7420617070656172206960448201526c371037bab91039bcb9ba32b69760991b6064820152608490fd5b34610475576020366003190112610475576004356001600160401b0381116104755761164d903690600401612a8a565b61166260025480159081156113dc5750612e5e565b33600090815260086020526040902060028101546001600160a01b03161561171c5760030181516001600160401b038111610398576116a5816102438454612b35565b602092601f82116001146116d65761133392938291600092610dfa5750508160011b916000199060031b1c19161790565b601f1982169383600052806000209160005b868110611704575083600195961061136657505050811b019055005b919260206001819286850151815501940192016116e8565b60405162461bcd60e51b815260206004820152601c60248201527f4e6f2063616e646964617465206461746120617661696c61626c652e000000006044820152606490fd5b346104755760203660031901126104755761177a612ae0565b600254421061192d5760035442116118f557336000526007602052604060002060ff600482015460a01c166003811015610edc576001036118b05780549160ff83166118725760018060a01b0316600052600860205260406000209060ff600283015460a01c166003811015610edc5760010361182d576001809360ff1916179055016118078154612d51565b9055600f54600160401b81101561039857610dcc8160016103969301600f55600f612861565b60405162461bcd60e51b815260206004820152601a60248201527f43616e646964617465206973206e6f742061636365707465642e0000000000006044820152606490fd5b60405162461bcd60e51b8152602060048201526016602482015275165bdd481a185d9948185b1c9958591e481d9bdd195960521b6044820152606490fd5b60405162461bcd60e51b815260206004820152601e60248201527f596f7520617265206e6f74206120636f6e6669726d656420766f7465722e00006044820152606490fd5b60405162461bcd60e51b815260206004820152601060248201526f159bdd1a5b99c81a185cc8195b99195960821b6044820152606490fd5b60405162461bcd60e51b815260206004820152601a60248201527f566f74696e6720686173206e6f742073746172746564207965740000000000006044820152606490fd5b34610475576020366003190112610475576004356001600160401b038111610475576119a2903690600401612a8a565b6006546040516119b181612a4e565b600081526119bd612e19565b90602081019182526040810193845260608101928352608081019233845260a08201926000845233600052600760205260406000209251151560ff801985541691161783556001830190518051906001600160401b03821161039857611a2d82611a278554612b35565b85612dd4565b602090601f8311600114611ba557611a5d929160009183611b305750508160011b916000199060031b1c19161790565b90555b6002820194519485516001600160401b03811161039857611a85816102438454612b35565b6020601f8211600114611b3b579080611ab9926004979899600092611b305750508160011b916000199060031b1c19161790565b90555b516003828101919091559351910180546001600160a01b0319166001600160a01b039290921691909117815590519091811015610edc57611afc91612d99565b600a54600160401b81101561039857610dcc816001611b209301600a55600a612861565b611b2b600654612d51565b600655005b015190508980610268565b601f1982169783600052816000209860005b818110611b8d575091600497989991846001959410611b74575b505050811b019055611abc565b015160001960f88460031b161c19169055888080611b67565b838301518b556001909a019960209384019301611b4d565b90601f1983169184600052816000209260005b818110611bf45750908460019594939210611bdb575b505050811b019055611a60565b015160001960f88460031b161c19169055888080611bce565b92936020600181928786015181550195019301611bb8565b3461047557600036600319011261047557600a54611c2981612d01565b9060005b818110611c4257604051806105cf85826129ee565b80611c4e600192612846565b838060a01b0391549060031b1c1660005260076020526040600020611c7d60ff600460405193610fa585612a4e565b611c878286612cae565b52611c928185612cae565b5001611c2d565b3461047557602036600319011261047557600435600f5481101561047557610f1b60209161282b565b3461047557602036600319011261047557600435600d5481101561047557610f1b6020916127bf565b3461047557602036600319011261047557600435611d1460018060a01b03600054163314612d60565b600454611d8d57600354811115611d2a57600455005b60405162461bcd60e51b815260206004820152603560248201527f526573756c74207075626c69636174696f6e2074696d65206d75737420626520604482015274616674657220766f74696e6720656e642074696d6560581b6064820152608490fd5b60405162461bcd60e51b815260206004820152602360248201527f526573756c74207075626c69636174696f6e2074696d6520616c7265616479206044820152621cd95d60ea1b6064820152608490fd5b3461047557611dec36612af6565b90611e0260018060a01b03600054163314612d60565b6001600160a01b03818116600081815260086020526040902060028101805492949390921615611faf57815460ff60a01b1916600160a11b179091558351600491909101906001600160401b03811161039857611e63816102438454612b35565b602094601f8211600114611f4a57611e969293949582916000926115525750508160011b916000199060031b1c19161790565b90555b600d5490600160401b821015610398576102a5826001611ebe9401600d55600d612861565b60005b600b54808210156103965782611ed683612810565b905460039190911b1c6001600160a01b031614611ef65750600101611ec1565b600019810192508211610380576102a5611f12611f2a93612810565b905460039190911b1c6001600160a01b031691612810565b600b54801561036a5760001901611f4561035082600b612861565b600b55005b601f1982169583600052806000209160005b888110611f9757508360019596979810611f7e575b505050811b019055611e99565b015160001960f88460031b161c19169055858080611f71565b91926020600181928685015181550194019201611f5c565b60405162461bcd60e51b815260206004820152601b60248201527f4e6f2063616e646964617465206461746120617661696c61626c6500000000006044820152606490fd5b3461047557602036600319011261047557600435600c5481101561047557610f1b6020916127da565b346104755761202b36612af6565b9061204160018060a01b03600054163314612d60565b6001600160a01b038181166000818152600760205260409020600481018054929493909216156121ee57815460ff60a01b1916600160a11b179091558351600191909101906001600160401b038111610398576120a2816102438454612b35565b602094601f8211600114612189576120d59293949582916000926115525750508160011b916000199060031b1c19161790565b90555b600e5490600160401b821015610398576102a58260016120fd9401600e55600e612861565b60005b600c54808210156103965782612115836127da565b905460039190911b1c6001600160a01b0316146121355750600101612100565b600019810192508211610380576102a5612151612169936127da565b905460039190911b1c6001600160a01b0316916127da565b600c54801561036a576000190161218461035082600c612861565b600c55005b601f1982169583600052806000209160005b8881106121d6575083600195969798106121bd575b505050811b0190556120d8565b015160001960f88460031b161c191690558580806121b0565b9192602060018192868501518155019401920161219b565b60405162461bcd60e51b815260206004820152601760248201527f4e6f20766f746572206461746120617661696c61626c650000000000000000006044820152606490fd5b34610475576040366003190112610475576004356001600160401b03811161047557612263903690600401612a8a565b6024356001600160a01b03811690819003610475576009549060208301906000805b8481106123a4575061229690612c5e565b9360009160005b8581106122b257604051806105cf898261292c565b6122bb8161278e565b60018060a01b0391549060031b1c1660005260086020526040600020604051906122e482612a4e565b805482526001810154602083015260028101546001600160a01b0381166040840190815291859161231e9060a01c60ff1660608601612cc2565b61233d600461232f60038401612b6f565b926080870193845201612b6f565b60a0850152516020815191012086518920149182612390575b5050612366575b5060010161229d565b8461238991612378600194978b612cae565b52612383818a612cae565b50612d51565b939061235d565b516001600160a01b0316149050838a612356565b6123ad8161278e565b60018060a01b0391549060031b1c166000526008602052604060002083604051916123d783612a4e565b805483526001810154602084015260028101546001600160a01b0381166040850190815293906124109060a01c60ff1660608301612cc2565b60a0612431600461242360038601612b6f565b946080850195865201612b6f565b91015251602081519101208851872014918261246b575b5050612457575b600101612285565b90612463600191612d51565b91905061244f565b516001600160a01b03161490508388612448565b3461047557600036600319011261047557600b5461249c81612c5e565b9060005b8181106124b557604051806105cf858261292c565b806124c1600192612810565b838060a01b0391549060031b1c16600052600860205260406000206125366004604051926124ee84612a4e565b8054845285810154602085015261251f60ff6002830154888060a01b038116604088015260a01c1660608601612cc2565b61252b60038201612b6f565b608085015201612b6f565b60a08201526125458286612cae565b526125508185612cae565b50016124a0565b3461047557602036600319011261047557600435600e5481101561047557610f1b6020916127f5565b3461047557600036600319011261047557600c5461259d81612d01565b9060005b8181106125b657604051806105cf85826129ee565b806125c26001926127da565b838060a01b0391549060031b1c16600052600760205260406000206125f160ff600460405193610fa585612a4e565b6125fb8286612cae565b526126068185612cae565b50016125a1565b34610475576000366003190112610475576020600254604051908152f35b346104755760003660031901126104755760095461264881612c5e565b9060005b81811061266157604051806105cf858261292c565b8061266d60019261278e565b838060a01b0391549060031b1c166000526008602052604060002061269a6004604051926124ee84612a4e565b60a08201526126a98286612cae565b526126b48185612cae565b500161264c565b34610475576000366003190112610475576020600354604051908152f35b3461047557600036600319011261047557600d546126f681612c5e565b9060005b81811061270f57604051806105cf858261292c565b8061271b6001926127bf565b838060a01b0391549060031b1c16600052600860205260406000206127486004604051926124ee84612a4e565b60a08201526127578286612cae565b526127628185612cae565b50016126fa565b346104755760203660031901126104755760043560095481101561047557610f1b6020915b6009548110156127a957600960005260206000200190600090565b634e487b7160e01b600052603260045260246000fd5b600d548110156127a957600d60005260206000200190600090565b600c548110156127a957600c60005260206000200190600090565b600e548110156127a957600e60005260206000200190600090565b600b548110156127a957600b60005260206000200190600090565b600f548110156127a957600f60005260206000200190600090565b600a548110156127a957600a60005260206000200190600090565b80548210156127a95760005260206000200190600090565b906003821015610edc5752565b919082519283825260005b8481106128b2575050826000602080949584010152601f8019910116010190565b80602080928401015182828601015201612891565b61292991815181526020820151602082015260018060a01b0360408301511660408201526128fd60608301516060830190612879565b60a0612918608084015160c0608085015260c0840190612886565b9201519060a0818403910152612886565b90565b602081016020825282518091526040820191602060408360051b8301019401926000915b83831061295f57505050505090565b909192939460208061297d600193603f1986820301875289516128c7565b97019301930191939290612950565b906129299082511515815260a0806129c86129b6602087015160c0602087015260c0860190612886565b60408701518582036040870152612886565b9460608101516060850152600180831b0360808201511660808501520151910190612879565b602081016020825282518091526040820191602060408360051b8301019401926000915b838310612a2157505050505090565b9091929394602080612a3f600193603f19868203018752895161298c565b97019301930191939290612a12565b60c081019081106001600160401b0382111761039857604052565b90601f801991011681019081106001600160401b0382111761039857604052565b81601f82011215610475578035906001600160401b0382116103985760405192612abe601f8401601f191660200185612a69565b8284526020838301011161047557816000926020809301838601378301015290565b600435906001600160a01b038216820361047557565b906040600319830112610475576004356001600160a01b03811681036104755791602435906001600160401b0382116104755761292991600401612a8a565b90600182811c92168015612b65575b6020831014612b4f57565b634e487b7160e01b600052602260045260246000fd5b91607f1691612b44565b9060405191826000825492612b8384612b35565b8084529360018116908115612bf15750600114612baa575b50612ba892500383612a69565b565b90506000929192526020600020906000915b818310612bd5575050906020612ba89282010138612b9b565b6020919350806001915483858901015201910190918492612bbc565b905060209250612ba894915060ff191682840152151560051b82010138612b9b565b6001600160401b0381116103985760051b60200190565b60405190612c3782612a4e565b606060a0836000815260006020820152600060408201526000838201528260808201520152565b90612c6882612c13565b612c756040519182612a69565b8281528092612c86601f1991612c13565b019060005b828110612c9757505050565b602090612ca2612c2a565b82828501015201612c8b565b80518210156127a95760209160051b010190565b6003821015610edc5752565b60405190612cdb82612a4e565b600060a08382815260606020820152606060408201528260608201528260808201520152565b90612d0b82612c13565b612d186040519182612a69565b8281528092612d29601f1991612c13565b019060005b828110612d3a57505050565b602090612d45612cce565b82828501015201612d2e565b60001981146103805760010190565b15612d6757565b60405162461bcd60e51b815260206004820152600a60248201526927b7363c9037bbb732b960b11b6044820152606490fd5b906003811015610edc57815460ff60a01b191660a09190911b60ff60a01b16179055565b818110612dc8575050565b60008155600101612dbd565b9190601f8111612de357505050565b612ba8926000526020600020906020601f840160051c83019310612e0f575b601f0160051c0190612dbd565b9091508190612e02565b60405190612e28606083612a69565b60218252601b60fa1b6040837f526567697374726174696f6e206973206177616974696e6720617070726f766160208201520152565b15612e6557565b60405162461bcd60e51b815260206004820152602160248201527f43616e6e6f74206d6f6469667920616674657220766f74696e672073746172746044820152607360f81b6064820152608490fd5b612ebe8154612b35565b9081612ec8575050565b81601f60009311600114612eda575055565b81835260208320612ef691601f0160051c810190600101612dbd565b8082528160208120915555565b612f0b612c2a565b50612f14612c2a565b600b546000805b828110612f285750505090565b612f3181612810565b60018060a01b0391549060031b1c166000526008602052604060002060405190612f5a82612a4e565b80548252612fac600460018301549260208501938452612f9560ff600283015460018060a01b038116604089015260a01c1660608701612cc2565b612fa160038201612b6f565b608086015201612b6f565b60a083015251838111612fc4575b5050600101612f1b565b9094509150600138612fba565b612fd9612c2a565b50600b541561306f576003544210612ff357612929612f03565b604051612fff81612a4e565b60008152600060208201526000604082015260006060820152604051613026602082612a69565b60008152608082015260405161303d604082612a69565b601f81527f506c65617365207761697420756e74696c20656c656374696f6e20656e647300602082015260a082015290565b60405162461bcd60e51b8152602060048201526024808201527f4e6f2043616e6469646174657320616363657074656420666f7220656c65637460448201526334b7b71760e11b6064820152608490fdfea2646970667358221220daa73b50461934aa85c5e86e4b1ad359067f81055cd9d400201218e448b6a75664736f6c634300081c0033",
  "linkReferences": {},
  "deployedLinkReferences": {}
}