{
  "_format": "hh-sol-artifact-1",
  "contractName": "VotingSystem",
  "sourceName": "contracts/VotingSystem.sol",
  "abi": [
    {
      "inputs": [
        {
          "internalType": "string",
          "name": "_name",
          "type": "string"
        }
      ],
      "stateMutability": "nonpayable",
      "type": "constructor"
    },
    {
      "inputs": [],
      "name": "CurrentVotingStatus",
      "outputs": [
        {
          "components": [
            {
              "internalType": "uint256",
              "name": "registeredId",
              "type": "uint256"
            },
            {
              "internalType": "uint256",
              "name": "voteCalculation",
              "type": "uint256"
            },
            {
              "internalType": "address",
              "name": "candidatesAddress",
              "type": "address"
            },
            {
              "internalType": "enum VotingSystem.ConfirmationStatus",
              "name": "status",
              "type": "uint8"
            },
            {
              "internalType": "string",
              "name": "ipfsHash",
              "type": "string"
            },
            {
              "internalType": "string",
              "name": "message",
              "type": "string"
            }
          ],
          "internalType": "struct VotingSystem.Candidate",
          "name": "",
          "type": "tuple"
        }
      ],
      "stateMutability": "view",
      "type": "function"
    },
    {
      "inputs": [],
      "name": "ListofAcceptedCandidates",
      "outputs": [
        {
          "components": [
            {
              "internalType": "uint256",
              "name": "registeredId",
              "type": "uint256"
            },
            {
              "internalType": "uint256",
              "name": "voteCalculation",
              "type": "uint256"
            },
            {
              "internalType": "address",
              "name": "candidatesAddress",
              "type": "address"
            },
            {
              "internalType": "enum VotingSystem.ConfirmationStatus",
              "name": "status",
              "type": "uint8"
            },
            {
              "internalType": "string",
              "name": "ipfsHash",
              "type": "string"
            },
            {
              "internalType": "string",
              "name": "message",
              "type": "string"
            }
          ],
          "internalType": "struct VotingSystem.Candidate[]",
          "name": "",
          "type": "tuple[]"
        }
      ],
      "stateMutability": "view",
      "type": "function"
    },
    {
      "inputs": [],
      "name": "ListofAcceptedVoters",
      "outputs": [
        {
          "components": [
            {
              "internalType": "bool",
              "name": "alreadyVoted",
              "type": "bool"
            },
            {
              "internalType": "string",
              "name": "message",
              "type": "string"
            },
            {
              "internalType": "string",
              "name": "ipfsHash",
              "type": "string"
            },
            {
              "internalType": "uint256",
              "name": "registeredId",
              "type": "uint256"
            },
            {
              "internalType": "address",
              "name": "votersAddress",
              "type": "address"
            },
            {
              "internalType": "enum VotingSystem.ConfirmationStatus",
              "name": "status",
              "type": "uint8"
            }
          ],
          "internalType": "struct VotingSystem.Voter[]",
          "name": "",
          "type": "tuple[]"
        }
      ],
      "stateMutability": "view",
      "type": "function"
    },
    {
      "inputs": [],
      "name": "ListofRegisteredCandidates",
      "outputs": [
        {
          "components": [
            {
              "internalType": "uint256",
              "name": "registeredId",
              "type": "uint256"
            },
            {
              "internalType": "uint256",
              "name": "voteCalculation",
              "type": "uint256"
            },
            {
              "internalType": "address",
              "name": "candidatesAddress",
              "type": "address"
            },
            {
              "internalType": "enum VotingSystem.ConfirmationStatus",
              "name": "status",
              "type": "uint8"
            },
            {
              "internalType": "string",
              "name": "ipfsHash",
              "type": "string"
            },
            {
              "internalType": "string",
              "name": "message",
              "type": "string"
            }
          ],
          "internalType": "struct VotingSystem.Candidate[]",
          "name": "",
          "type": "tuple[]"
        }
      ],
      "stateMutability": "view",
      "type": "function"
    },
    {
      "inputs": [],
      "name": "ListofRegisteredVoters",
      "outputs": [
        {
          "components": [
            {
              "internalType": "bool",
              "name": "alreadyVoted",
              "type": "bool"
            },
            {
              "internalType": "string",
              "name": "message",
              "type": "string"
            },
            {
              "internalType": "string",
              "name": "ipfsHash",
              "type": "string"
            },
            {
              "internalType": "uint256",
              "name": "registeredId",
              "type": "uint256"
            },
            {
              "internalType": "address",
              "name": "votersAddress",
              "type": "address"
            },
            {
              "internalType": "enum VotingSystem.ConfirmationStatus",
              "name": "status",
              "type": "uint8"
            }
          ],
          "internalType": "struct VotingSystem.Voter[]",
          "name": "",
          "type": "tuple[]"
        }
      ],
      "stateMutability": "view",
      "type": "function"
    },
    {
      "inputs": [],
      "name": "ListofRejectedCandidates",
      "outputs": [
        {
          "components": [
            {
              "internalType": "uint256",
              "name": "registeredId",
              "type": "uint256"
            },
            {
              "internalType": "uint256",
              "name": "voteCalculation",
              "type": "uint256"
            },
            {
              "internalType": "address",
              "name": "candidatesAddress",
              "type": "address"
            },
            {
              "internalType": "enum VotingSystem.ConfirmationStatus",
              "name": "status",
              "type": "uint8"
            },
            {
              "internalType": "string",
              "name": "ipfsHash",
              "type": "string"
            },
            {
              "internalType": "string",
              "name": "message",
              "type": "string"
            }
          ],
          "internalType": "struct VotingSystem.Candidate[]",
          "name": "",
          "type": "tuple[]"
        }
      ],
      "stateMutability": "view",
      "type": "function"
    },
    {
      "inputs": [],
      "name": "ListofRejectedVoters",
      "outputs": [
        {
          "components": [
            {
              "internalType": "bool",
              "name": "alreadyVoted",
              "type": "bool"
            },
            {
              "internalType": "string",
              "name": "message",
              "type": "string"
            },
            {
              "internalType": "string",
              "name": "ipfsHash",
              "type": "string"
            },
            {
              "internalType": "uint256",
              "name": "registeredId",
              "type": "uint256"
            },
            {
              "internalType": "address",
              "name": "votersAddress",
              "type": "address"
            },
            {
              "internalType": "enum VotingSystem.ConfirmationStatus",
              "name": "status",
              "type": "uint8"
            }
          ],
          "internalType": "struct VotingSystem.Voter[]",
          "name": "",
          "type": "tuple[]"
        }
      ],
      "stateMutability": "view",
      "type": "function"
    },
    {
      "inputs": [
        {
          "internalType": "uint256",
          "name": "",
          "type": "uint256"
        }
      ],
      "name": "acceptedCandidates",
      "outputs": [
        {
          "internalType": "address",
          "name": "",
          "type": "address"
        }
      ],
      "stateMutability": "view",
      "type": "function"
    },
    {
      "inputs": [
        {
          "internalType": "uint256",
          "name": "",
          "type": "uint256"
        }
      ],
      "name": "acceptedVoters",
      "outputs": [
        {
          "internalType": "address",
          "name": "",
          "type": "address"
        }
      ],
      "stateMutability": "view",
      "type": "function"
    },
    {
      "inputs": [
        {
          "internalType": "address",
          "name": "_candidatesAddress",
          "type": "address"
        },
        {
          "internalType": "string",
          "name": "_message",
          "type": "string"
        }
      ],
      "name": "approveCandidate",
      "outputs": [],
      "stateMutability": "nonpayable",
      "type": "function"
    },
    {
      "inputs": [
        {
          "internalType": "address",
          "name": "_votersAddress",
          "type": "address"
        },
        {
          "internalType": "string",
          "name": "_message",
          "type": "string"
        }
      ],
      "name": "approveVoter",
      "outputs": [],
      "stateMutability": "nonpayable",
      "type": "function"
    },
    {
      "inputs": [
        {
          "internalType": "address",
          "name": "",
          "type": "address"
        }
      ],
      "name": "candidates",
      "outputs": [
        {
          "internalType": "uint256",
          "name": "registeredId",
          "type": "uint256"
        },
        {
          "internalType": "uint256",
          "name": "voteCalculation",
          "type": "uint256"
        },
        {
          "internalType": "address",
          "name": "candidatesAddress",
          "type": "address"
        },
        {
          "internalType": "enum VotingSystem.ConfirmationStatus",
          "name": "status",
          "type": "uint8"
        },
        {
          "internalType": "string",
          "name": "ipfsHash",
          "type": "string"
        },
        {
          "internalType": "string",
          "name": "message",
          "type": "string"
        }
      ],
      "stateMutability": "view",
      "type": "function"
    },
    {
      "inputs": [
        {
          "internalType": "uint256",
          "name": "",
          "type": "uint256"
        }
      ],
      "name": "candidatesRegistered",
      "outputs": [
        {
          "internalType": "address",
          "name": "",
          "type": "address"
        }
      ],
      "stateMutability": "view",
      "type": "function"
    },
    {
      "inputs": [
        {
          "internalType": "address",
          "name": "newOwner",
          "type": "address"
        }
      ],
      "name": "changeOwner",
      "outputs": [],
      "stateMutability": "nonpayable",
      "type": "function"
    },
    {
      "inputs": [],
      "name": "electionName",
      "outputs": [
        {
          "internalType": "string",
          "name": "",
          "type": "string"
        }
      ],
      "stateMutability": "view",
      "type": "function"
    },
    {
      "inputs": [],
      "name": "getAllVotersWhoCasted",
      "outputs": [
        {
          "components": [
            {
              "internalType": "bool",
              "name": "alreadyVoted",
              "type": "bool"
            },
            {
              "internalType": "string",
              "name": "message",
              "type": "string"
            },
            {
              "internalType": "string",
              "name": "ipfsHash",
              "type": "string"
            },
            {
              "internalType": "uint256",
              "name": "registeredId",
              "type": "uint256"
            },
            {
              "internalType": "address",
              "name": "votersAddress",
              "type": "address"
            },
            {
              "internalType": "enum VotingSystem.ConfirmationStatus",
              "name": "status",
              "type": "uint8"
            }
          ],
          "internalType": "struct VotingSystem.Voter[]",
          "name": "",
          "type": "tuple[]"
        }
      ],
      "stateMutability": "view",
      "type": "function"
    },
    {
      "inputs": [],
      "name": "owner",
      "outputs": [
        {
          "internalType": "address",
          "name": "",
          "type": "address"
        }
      ],
      "stateMutability": "view",
      "type": "function"
    },
    {
      "inputs": [
        {
          "internalType": "string",
          "name": "_ipfsHash",
          "type": "string"
        }
      ],
      "name": "registerCandidate",
      "outputs": [],
      "stateMutability": "nonpayable",
      "type": "function"
    },
    {
      "inputs": [
        {
          "internalType": "string",
          "name": "_ipfsHash",
          "type": "string"
        }
      ],
      "name": "registerVoter",
      "outputs": [],
      "stateMutability": "nonpayable",
      "type": "function"
    },
    {
      "inputs": [
        {
          "internalType": "address",
          "name": "_candidatesAddress",
          "type": "address"
        },
        {
          "internalType": "string",
          "name": "_message",
          "type": "string"
        }
      ],
      "name": "rejectCandidate",
      "outputs": [],
      "stateMutability": "nonpayable",
      "type": "function"
    },
    {
      "inputs": [
        {
          "internalType": "address",
          "name": "_votersAddress",
          "type": "address"
        },
        {
          "internalType": "string",
          "name": "_message",
          "type": "string"
        }
      ],
      "name": "rejectVoter",
      "outputs": [],
      "stateMutability": "nonpayable",
      "type": "function"
    },
    {
      "inputs": [
        {
          "internalType": "uint256",
          "name": "",
          "type": "uint256"
        }
      ],
      "name": "rejectedCandidates",
      "outputs": [
        {
          "internalType": "address",
          "name": "",
          "type": "address"
        }
      ],
      "stateMutability": "view",
      "type": "function"
    },
    {
      "inputs": [
        {
          "internalType": "uint256",
          "name": "",
          "type": "uint256"
        }
      ],
      "name": "rejectedVoters",
      "outputs": [
        {
          "internalType": "address",
          "name": "",
          "type": "address"
        }
      ],
      "stateMutability": "view",
      "type": "function"
    },
    {
      "inputs": [],
      "name": "resetContract",
      "outputs": [],
      "stateMutability": "nonpayable",
      "type": "function"
    },
    {
      "inputs": [],
      "name": "resultPublicationTime",
      "outputs": [
        {
          "internalType": "uint256",
          "name": "",
          "type": "uint256"
        }
      ],
      "stateMutability": "view",
      "type": "function"
    },
    {
      "inputs": [
        {
          "internalType": "string",
          "name": "_ipfsHash",
          "type": "string"
        },
        {
          "internalType": "address",
          "name": "_addr",
          "type": "address"
        }
      ],
      "name": "searchCandidate",
      "outputs": [
        {
          "components": [
            {
              "internalType": "uint256",
              "name": "registeredId",
              "type": "uint256"
            },
            {
              "internalType": "uint256",
              "name": "voteCalculation",
              "type": "uint256"
            },
            {
              "internalType": "address",
              "name": "candidatesAddress",
              "type": "address"
            },
            {
              "internalType": "enum VotingSystem.ConfirmationStatus",
              "name": "status",
              "type": "uint8"
            },
            {
              "internalType": "string",
              "name": "ipfsHash",
              "type": "string"
            },
            {
              "internalType": "string",
              "name": "message",
              "type": "string"
            }
          ],
          "internalType": "struct VotingSystem.Candidate[]",
          "name": "",
          "type": "tuple[]"
        }
      ],
      "stateMutability": "view",
      "type": "function"
    },
    {
      "inputs": [
        {
          "internalType": "address",
          "name": "_addr",
          "type": "address"
        }
      ],
      "name": "searchVoter",
      "outputs": [
        {
          "components": [
            {
              "internalType": "bool",
              "name": "alreadyVoted",
              "type": "bool"
            },
            {
              "internalType": "string",
              "name": "message",
              "type": "string"
            },
            {
              "internalType": "string",
              "name": "ipfsHash",
              "type": "string"
            },
            {
              "internalType": "uint256",
              "name": "registeredId",
              "type": "uint256"
            },
            {
              "internalType": "address",
              "name": "votersAddress",
              "type": "address"
            },
            {
              "internalType": "enum VotingSystem.ConfirmationStatus",
              "name": "status",
              "type": "uint8"
            }
          ],
          "internalType": "struct VotingSystem.Voter",
          "name": "",
          "type": "tuple"
        }
      ],
      "stateMutability": "view",
      "type": "function"
    },
    {
      "inputs": [
        {
          "internalType": "uint256",
          "name": "_resultPublicationTime",
          "type": "uint256"
        }
      ],
      "name": "setResultPublicationTime",
      "outputs": [],
      "stateMutability": "nonpayable",
      "type": "function"
    },
    {
      "inputs": [
        {
          "internalType": "uint256",
          "name": "_votingStartTime",
          "type": "uint256"
        },
        {
          "internalType": "uint256",
          "name": "_votingEndTime",
          "type": "uint256"
        }
      ],
      "name": "startendVoting",
      "outputs": [],
      "stateMutability": "nonpayable",
      "type": "function"
    },
    {
      "inputs": [
        {
          "internalType": "string",
          "name": "_ipfsHash",
          "type": "string"
        }
      ],
      "name": "updateCandidate",
      "outputs": [],
      "stateMutability": "nonpayable",
      "type": "function"
    },
    {
      "inputs": [
        {
          "internalType": "address",
          "name": "_addr",
          "type": "address"
        },
        {
          "internalType": "string",
          "name": "_ipfsHash",
          "type": "string"
        }
      ],
      "name": "updateVoter",
      "outputs": [],
      "stateMutability": "nonpayable",
      "type": "function"
    },
    {
      "inputs": [
        {
          "internalType": "address",
          "name": "_candidatesAddress",
          "type": "address"
        }
      ],
      "name": "vote",
      "outputs": [],
      "stateMutability": "nonpayable",
      "type": "function"
    },
    {
      "inputs": [
        {
          "internalType": "address",
          "name": "",
          "type": "address"
        }
      ],
      "name": "voters",
      "outputs": [
        {
          "internalType": "bool",
          "name": "alreadyVoted",
          "type": "bool"
        },
        {
          "internalType": "string",
          "name": "message",
          "type": "string"
        },
        {
          "internalType": "string",
          "name": "ipfsHash",
          "type": "string"
        },
        {
          "internalType": "uint256",
          "name": "registeredId",
          "type": "uint256"
        },
        {
          "internalType": "address",
          "name": "votersAddress",
          "type": "address"
        },
        {
          "internalType": "enum VotingSystem.ConfirmationStatus",
          "name": "status",
          "type": "uint8"
        }
      ],
      "stateMutability": "view",
      "type": "function"
    },
    {
      "inputs": [
        {
          "internalType": "uint256",
          "name": "",
          "type": "uint256"
        }
      ],
      "name": "votersRegistered",
      "outputs": [
        {
          "internalType": "address",
          "name": "",
          "type": "address"
        }
      ],
      "stateMutability": "view",
      "type": "function"
    },
    {
      "inputs": [
        {
          "internalType": "uint256",
          "name": "",
          "type": "uint256"
        }
      ],
      "name": "votersWhoCasted",
      "outputs": [
        {
          "internalType": "address",
          "name": "",
          "type": "address"
        }
      ],
      "stateMutability": "view",
      "type": "function"
    },
    {
      "inputs": [],
      "name": "votingEndTime",
      "outputs": [
        {
          "internalType": "uint256",
          "name": "",
          "type": "uint256"
        }
      ],
      "stateMutability": "view",
      "type": "function"
    },
    {
      "inputs": [],
      "name": "votingStartTime",
      "outputs": [
        {
          "internalType": "uint256",
          "name": "",
          "type": "uint256"
        }
      ],
      "stateMutability": "view",
      "type": "function"
    },
    {
      "inputs": [],
      "name": "winningCandidate",
      "outputs": [
        {
          "components": [
            {
              "internalType": "uint256",
              "name": "registeredId",
              "type": "uint256"
            },
            {
              "internalType": "uint256",
              "name": "voteCalculation",
              "type": "uint256"
            },
            {
              "internalType": "address",
              "name": "candidatesAddress",
              "type": "address"
            },
            {
              "internalType": "enum VotingSystem.ConfirmationStatus",
              "name": "status",
              "type": "uint8"
            },
            {
              "internalType": "string",
              "name": "ipfsHash",
              "type": "string"
            },
            {
              "internalType": "string",
              "name": "message",
              "type": "string"
            }
          ],
          "internalType": "struct VotingSystem.Candidate",
          "name": "",
          "type": "tuple"
        }
      ],
      "stateMutability": "view",
      "type": "function"
    }
  ],
  "bytecode": "0x60806040523461023b5761330a8038038061001981610240565b92833981019060208183031261023b578051906001600160401b03821161023b570181601f8201121561023b578051906001600160401b0382116102105761006a601f8301601f1916602001610240565b928284526020838301011161023b5760005b82811061022657600083850160200181905280546001600160a01b03191633179055835184906001600160401b03811161021057600154600181811c91168015610206575b60208210146101f057601f811161018b575b50602091601f82116001146101275791819260009261011c575b50508160011b916000199060031b1c1916176001555b600160055560016006556040516130a490816102668239f35b0151905082806100ed565b601f198216926001600052806000209160005b8581106101735750836001951061015a575b505050811b01600155610103565b015160001960f88460031b161c1916905582808061014c565b9192602060018192868501518155019401920161013a565b60016000527fb10e2d527612073b26eecdfd717e6a320cf44b4afac2b0732d9fcbe2b7fa0cf6601f830160051c810191602084106101e6575b601f0160051c01905b8181106101da57506100d3565b600081556001016101cd565b90915081906101c4565b634e487b7160e01b600052602260045260246000fd5b90607f16906100c1565b634e487b7160e01b600052604160045260246000fd5b8060208092840101518282870101520161007c565b600080fd5b6040519190601f01601f191682016001600160401b038111838210176102105760405256fe6080604052600436101561001257600080fd5b60003560e01c80630366ac3714612717578063073f966d146126875780631ea736e0146126695780631ee9367c146125d95780632019a608146125bb57806323a2b2ed1461252e5780633afa3e07146125055780633cfde26c1461242d578063429b0b22146121e15780634a2846a814611fcb57806353dd128c14611fa257806359632c2214611d8c5780635b45cfca14611c995780635e894b1214611c705780635f1bc34e14611c4757806360fc4e3214611bba5780636428a486146119205780636dd7d8ea1461170f57806379432db5146115c15780637c021ecc1461145c5780637eb21b5114611225578063849c5657146111fc57806385e8e7a71461111b5780638987cb321461108e5780638ab66a9014610fe55780638da5cb5b14610fbc578063964a43b914610ee05780639e7a814514610e9e5780639eb88db614610be1578063a3ec138d14610b30578063a6f9dae114610a8e578063ac94ba4c14610a70578063b181a8fc146106a2578063b381a935146105ef578063bab912a2146105d3578063d28178d71461059f578063f33698f11461047a5763fad761d3146101be57600080fd5b34610475576101cc36612aa4565b906101e260018060a01b03600054163314612d0e565b6001600160a01b0381811660008181526007602052604090206004810180549294939092161561041e57815460ff60a01b1916600160a01b179091558351600191909101906001600160401b03811161039857610249816102438454612ae3565b84612d82565b602094601f82116001146103b95761027d9293949582916000926103ae575b50508160011b916000199060031b1c19161790565b90555b600c5490600160401b821015610398576102a58260016102c99401600c55600c61280f565b9080546001600160a01b0360039390931b83811b199091169290931690921b179055565b60005b600e548082101561039657826102e1836127a3565b905460039190911b1c6001600160a01b03161461030157506001016102cc565b600019810192508211610380576102a561031d610335936127a3565b905460039190911b1c6001600160a01b0316916127a3565b600e54801561036a576000190161036561035082600e61280f565b81549060018060a01b039060031b1b19169055565b600e55005b634e487b7160e01b600052603160045260246000fd5b634e487b7160e01b600052601160045260246000fd5b005b634e487b7160e01b600052604160045260246000fd5b015190503880610268565b601f1982169583600052806000209160005b888110610406575083600195969798106103ed575b505050811b019055610280565b015160001960f88460031b161c191690553880806103e0565b919260206001819286850151815501940192016103cb565b60405162461bcd60e51b815260206004820152602960248201527f5468697320766f74657220646f6573206e6f742061707065617220696e206f75604482015268391039bcb9ba32b69760b91b6064820152608490fd5b600080fd5b3461047557604036600319011261047557600435602435906104a760018060a01b03600054163314612d0e565b60025461055a574281111561051657818110156104c657600255600355005b60405162461bcd60e51b815260206004820152602260248201527f53746172742074696d65206d757374206265206265666f726520656e642074696044820152616d6560f01b6064820152608490fd5b606460405162461bcd60e51b815260206004820152602060248201527f53746172742074696d65206d75737420626520696e20746865206675747572656044820152fd5b60405162461bcd60e51b815260206004820152601860248201527f566f74696e6720616c7265616479207363686564756c656400000000000000006044820152606490fd5b34610475576000366003190112610475576105cf6105bb612f7f565b604051918291602083526020830190612875565b0390f35b34610475576000366003190112610475576105cf6105bb612eb1565b3461047557602036600319011261047557610608612a8e565b610610612c7c565b5060018060a01b031660005260076020526105cf604060002061068e60ff60046040519361063d856129fc565b828154161515855261065160018201612b1d565b602086015261066260028201612b1d565b604086015260038101546060860152015460018060a01b038116608085015260a01c1660a08301612c70565b60405191829160208352602083019061293a565b34610475576000366003190112610475576106c860018060a01b03600054163314612d0e565b6003548015159081610a66575b5015610a07576106e6600154612ae3565b601f81116109c8575b50600060015560006002556000600355600060045560005b600954811015610766578061071d60019261273c565b838060a01b0391549060031b1c16600052600860205261076060046040600020600081556000858201556000600282015561075a60038201612e62565b01612e62565b01610707565b60095460006009558061098f575b50600b546000600b5580610956575b50600d546000600d558061091d575b5060005b600a548110156107f257806107ac6001926127f4565b838060a01b0391549060031b1c16600052600760205260006004604082208281556107d8858201612e62565b6107e460028201612e62565b826003820155015501610796565b600a546000600a55806108e4575b50600c546000600c55806108ab575b50600e546000600e5580610872575b50600f546000600f5580610839575b60016005819055600655005b600f60005261086c907f8d1108e10bcb7c27dddfc02ed9d693a074039d026cf4ea4240b40f7d581ac80290810190612d6b565b8061082d565b600e6000526108a5907fbb7b4a454dc3493923482f07822329ed19e8244eff582cc204f8554c3620c3fd90810190612d6b565b8061081e565b600c6000526108de907fdf6966c971051c3d54ec59162606531493a51404a002842f56009d7e5cf4a8c790810190612d6b565b8061080f565b600a600052610917907fc65a7bb8d6351c1cf70c95a316cc6a92839c986682d98bc35f958f4883f9d2a890810190612d6b565b80610800565b600d600052610950907fd7b6990105719101dabeb77144f2a3385c8033acd3af97e9423a695e81ad1eb590810190612d6b565b80610792565b600b600052610989907f0175b7a638427703f0dbe7bb9bbf987a2551717b34e79f33b5b1008d1fa01db990810190612d6b565b80610783565b60096000526109c2907f6e1540171b6c0c960b71a7020d9f60077f6af931a8bbf590da0223dacf75c7af90810190612d6b565b80610774565b6001600052610a0190601f0160051c7fb10e2d527612073b26eecdfd717e6a320cf44b4afac2b0732d9fcbe2b7fa0cf690810190612d6b565b806106ef565b60405162461bcd60e51b815260206004820152603160248201527f456c656374696f6e206973207374696c6c206f6e676f696e672e2043616e6e6f6044820152703a103932b9b2ba1031b7b73a3930b1ba1760791b6064820152608490fd5b90504211816106d5565b34610475576000366003190112610475576020600454604051908152f35b3461047557602036600319011261047557610aa7612a8e565b60005490610abf336001600160a01b03841614612d0e565b6001600160a01b0316908115610adf576001600160a01b03191617600055005b60405162461bcd60e51b8152602060048201526024808201527f4e6577206f776e65722063616e6e6f7420626520746865207a65726f206164646044820152637265737360e01b6064820152608490fd5b34610475576020366003190112610475576001600160a01b03610b51612a8e565b166000526007602052604060002060ff815416610b7060018301612b1d565b916105cf610b8060028301612b1d565b610bba6004600385015494015491610bac6040519788971515885260c0602089015260c0880190612834565b908682036040880152612834565b60608501939093526001600160a01b038116608085015260a080850191901c60ff16612827565b34610475576020366003190112610475576004356001600160401b03811161047557610c11903690600401612a38565b60055460405190610c21826129fc565b815260208101906000825260408101338152606082016000815260808301948552610c4a612dc7565b60a08401908152336000908152600860205260409020935184559351600184015590516002830180546001600160a01b0319166001600160a01b039290921691909117815590516003811015610e8857610ca391612d47565b6003810192519283516001600160401b03811161039857610cc8816102438454612ae3565b6020601f8211600114610e1f579080610cfb9260049697600092610e145750508160011b916000199060031b1c19161790565b90555b0190519081516001600160401b03811161039857610d20816102438454612ae3565b602092601f8211600114610db157610d5192938291600092610da65750508160011b916000199060031b1c19161790565b90555b600954600160401b81101561039857610d78816001610d969301600955600961280f565b81543360039290921b91821b6001600160a01b0390921b1916179055565b610da1600554612cff565b600555005b015190508480610268565b601f1982169383600052806000209160005b868110610dfc5750836001959610610de3575b505050811b019055610d54565b015160001960f88460031b161c19169055838080610dd6565b91926020600181928685015181550194019201610dc3565b015190508780610268565b601f1982169583600052816000209660005b818110610e705750916004969791846001959410610e57575b505050811b019055610cfe565b015160001960f88460031b161c19169055868080610e4a565b83830151895560019098019760209384019301610e31565b634e487b7160e01b600052602160045260246000fd5b3461047557602036600319011261047557600435600b5481101561047557610ec76020916127be565b905460405160039290921b1c6001600160a01b03168152f35b3461047557600036600319011261047557600e54610efd81612caf565b9060005b818110610f1657604051806105cf858261299c565b80610f226001926127a3565b838060a01b0391549060031b1c1660005260076020526040600020610fa060ff600460405193610f51856129fc565b8281541615158552610f64878201612b1d565b6020860152610f7560028201612b1d565b6040860152600381015460608601520154858060a01b038116608085015260a01c1660a08301612c70565b610faa8286612c5c565b52610fb58185612c5c565b5001610f01565b34610475576000366003190112610475576000546040516001600160a01b039091168152602090f35b34610475576020366003190112610475576001600160a01b03611006612a8e565b166000526008602052604060002080546105cf60018301549261108060028201549161106f611043600461103c60038501612b1d565b9301612b1d565b936040519788978852602088015260018060a01b038116604088015260ff606088019160a01c16612827565b60c0608086015260c0850190612834565b9083820360a0850152612834565b3461047557600036600319011261047557600f546110ab81612caf565b9060005b8181106110c457604051806105cf858261299c565b806110d06001926127d9565b838060a01b0391549060031b1c16600052600760205260406000206110ff60ff600460405193610f51856129fc565b6111098286612c5c565b526111148185612c5c565b50016110af565b3461047557600036600319011261047557604051600060015461113d81612ae3565b80845290600181169081156111d85750600114611179575b6105cf8361116581850382612a17565b604051918291602083526020830190612834565b600160009081527fb10e2d527612073b26eecdfd717e6a320cf44b4afac2b0732d9fcbe2b7fa0cf6939250905b8082106111be57509091508101602001611165611155565b9192600181602092548385880101520191019092916111a6565b60ff191660208086019190915291151560051b840190910191506111659050611155565b3461047557602036600319011261047557600435600a5481101561047557610ec76020916127f4565b346104755761123336612aa4565b9061124960018060a01b03600054163314612d0e565b6001600160a01b0381811660008181526008602052604090206002810180549294939092161561140157815460ff60a01b1916600160a01b179091558351600491909101906001600160401b038111610398576112aa816102438454612ae3565b602094601f821160011461139c576112dd9293949582916000926113915750508160011b916000199060031b1c19161790565b90555b600b5490600160401b821015610398576102a58260016113059401600b55600b61280f565b60005b600d5480821015610396578261131d8361276d565b905460039190911b1c6001600160a01b03161461133d5750600101611308565b600019810192508211610380576102a56113596113719361276d565b905460039190911b1c6001600160a01b03169161276d565b600d54801561036a576000190161138c61035082600d61280f565b600d55005b015190508680610268565b601f1982169583600052806000209160005b8881106113e9575083600195969798106113d0575b505050811b0190556112e0565b015160001960f88460031b161c191690558580806113c3565b919260206001819286850151815501940192016113ae565b60405162461bcd60e51b815260206004820152602d60248201527f546869732063616e64696461746520646f6573206e6f7420617070656172206960448201526c371037bab91039bcb9ba32b69760991b6064820152608490fd5b346104755761146a36612aa4565b9061148060018060a01b03600054163314612d0e565b61149660025480159081156115b7575b50612e0c565b6001600160a01b0390811660009081526007602052604090206004810154909116156115725760020181516001600160401b038111610398576114dd816102438454612ae3565b602092601f82116001146115125761150e92938291600092610da65750508160011b916000199060031b1c19161790565b9055005b601f1982169383600052806000209160005b86811061155a5750836001959610611541575b505050811b019055005b015160001960f88460031b161c19169055838080611537565b91926020600181928685015181550194019201611524565b60405162461bcd60e51b815260206004820152601860248201527f4e6f20766f746572206461746120617661696c61626c652e00000000000000006044820152606490fd5b9050421084611490565b34610475576020366003190112610475576004356001600160401b038111610475576115f1903690600401612a38565b61160660025480159081156117055750612e0c565b33600090815260086020526040902060028101546001600160a01b0316156116c05760030181516001600160401b03811161039857611649816102438454612ae3565b602092601f821160011461167a5761150e92938291600092610da65750508160011b916000199060031b1c19161790565b601f1982169383600052806000209160005b8681106116a8575083600195961061154157505050811b019055005b9192602060018192868501518155019401920161168c565b60405162461bcd60e51b815260206004820152601c60248201527f4e6f2063616e646964617465206461746120617661696c61626c652e000000006044820152606490fd5b9050421083611490565b3461047557602036600319011261047557611728612a8e565b60025442106118db5760035442116118a357336000526007602052604060002060ff600482015460a01c166003811015610e885760010361185e5780549160ff83166118205760018060a01b0316600052600860205260406000209060ff600283015460a01c166003811015610e88576001036117db576001809360ff1916179055016117b58154612cff565b9055600f54600160401b81101561039857610d788160016103969301600f55600f61280f565b60405162461bcd60e51b815260206004820152601a60248201527f43616e646964617465206973206e6f742061636365707465642e0000000000006044820152606490fd5b60405162461bcd60e51b8152602060048201526016602482015275165bdd481a185d9948185b1c9958591e481d9bdd195960521b6044820152606490fd5b60405162461bcd60e51b815260206004820152601e60248201527f596f7520617265206e6f74206120636f6e6669726d656420766f7465722e00006044820152606490fd5b60405162461bcd60e51b815260206004820152601060248201526f159bdd1a5b99c81a185cc8195b99195960821b6044820152606490fd5b60405162461bcd60e51b815260206004820152601a60248201527f566f74696e6720686173206e6f742073746172746564207965740000000000006044820152606490fd5b34610475576020366003190112610475576004356001600160401b03811161047557611950903690600401612a38565b60065460405161195f816129fc565b6000815261196b612dc7565b90602081019182526040810193845260608101928352608081019233845260a08201926000845233600052600760205260406000209251151560ff801985541691161783556001830190518051906001600160401b038211610398576119db826119d58554612ae3565b85612d82565b602090601f8311600114611b5357611a0b929160009183611ade5750508160011b916000199060031b1c19161790565b90555b6002820194519485516001600160401b03811161039857611a33816102438454612ae3565b6020601f8211600114611ae9579080611a67926004979899600092611ade5750508160011b916000199060031b1c19161790565b90555b516003828101919091559351910180546001600160a01b0319166001600160a01b039290921691909117815590519091811015610e8857611aaa91612d47565b600a54600160401b81101561039857610d78816001611ace9301600a55600a61280f565b611ad9600654612cff565b600655005b015190508980610268565b601f1982169783600052816000209860005b818110611b3b575091600497989991846001959410611b22575b505050811b019055611a6a565b015160001960f88460031b161c19169055888080611b15565b838301518b556001909a019960209384019301611afb565b90601f1983169184600052816000209260005b818110611ba25750908460019594939210611b89575b505050811b019055611a0e565b015160001960f88460031b161c19169055888080611b7c565b92936020600181928786015181550195019301611b66565b3461047557600036600319011261047557600a54611bd781612caf565b9060005b818110611bf057604051806105cf858261299c565b80611bfc6001926127f4565b838060a01b0391549060031b1c1660005260076020526040600020611c2b60ff600460405193610f51856129fc565b611c358286612c5c565b52611c408185612c5c565b5001611bdb565b3461047557602036600319011261047557600435600f5481101561047557610ec76020916127d9565b3461047557602036600319011261047557600435600d5481101561047557610ec760209161276d565b3461047557602036600319011261047557600435611cc260018060a01b03600054163314612d0e565b600454611d3b57600354811115611cd857600455005b60405162461bcd60e51b815260206004820152603560248201527f526573756c74207075626c69636174696f6e2074696d65206d75737420626520604482015274616674657220766f74696e6720656e642074696d6560581b6064820152608490fd5b60405162461bcd60e51b815260206004820152602360248201527f526573756c74207075626c69636174696f6e2074696d6520616c7265616479206044820152621cd95d60ea1b6064820152608490fd5b3461047557611d9a36612aa4565b90611db060018060a01b03600054163314612d0e565b6001600160a01b03818116600081815260086020526040902060028101805492949390921615611f5d57815460ff60a01b1916600160a11b179091558351600491909101906001600160401b03811161039857611e11816102438454612ae3565b602094601f8211600114611ef857611e449293949582916000926113915750508160011b916000199060031b1c19161790565b90555b600d5490600160401b821015610398576102a5826001611e6c9401600d55600d61280f565b60005b600b54808210156103965782611e84836127be565b905460039190911b1c6001600160a01b031614611ea45750600101611e6f565b600019810192508211610380576102a5611ec0611ed8936127be565b905460039190911b1c6001600160a01b0316916127be565b600b54801561036a5760001901611ef361035082600b61280f565b600b55005b601f1982169583600052806000209160005b888110611f4557508360019596979810611f2c575b505050811b019055611e47565b015160001960f88460031b161c19169055858080611f1f565b91926020600181928685015181550194019201611f0a565b60405162461bcd60e51b815260206004820152601b60248201527f4e6f2063616e646964617465206461746120617661696c61626c6500000000006044820152606490fd5b3461047557602036600319011261047557600435600c5481101561047557610ec7602091612788565b3461047557611fd936612aa4565b90611fef60018060a01b03600054163314612d0e565b6001600160a01b0381811660008181526007602052604090206004810180549294939092161561219c57815460ff60a01b1916600160a11b179091558351600191909101906001600160401b03811161039857612050816102438454612ae3565b602094601f8211600114612137576120839293949582916000926113915750508160011b916000199060031b1c19161790565b90555b600e5490600160401b821015610398576102a58260016120ab9401600e55600e61280f565b60005b600c548082101561039657826120c383612788565b905460039190911b1c6001600160a01b0316146120e357506001016120ae565b600019810192508211610380576102a56120ff61211793612788565b905460039190911b1c6001600160a01b031691612788565b600c54801561036a576000190161213261035082600c61280f565b600c55005b601f1982169583600052806000209160005b8881106121845750836001959697981061216b575b505050811b019055612086565b015160001960f88460031b161c1916905585808061215e565b91926020600181928685015181550194019201612149565b60405162461bcd60e51b815260206004820152601760248201527f4e6f20766f746572206461746120617661696c61626c650000000000000000006044820152606490fd5b34610475576040366003190112610475576004356001600160401b03811161047557612211903690600401612a38565b6024356001600160a01b03811690819003610475576009549060208301906000805b848110612352575061224490612c0c565b9360009160005b85811061226057604051806105cf89826128da565b6122698161273c565b60018060a01b0391549060031b1c166000526008602052604060002060405190612292826129fc565b805482526001810154602083015260028101546001600160a01b038116604084019081529185916122cc9060a01c60ff1660608601612c70565b6122eb60046122dd60038401612b1d565b926080870193845201612b1d565b60a085015251602081519101208651892014918261233e575b5050612314575b5060010161224b565b8461233791612326600194978b612c5c565b52612331818a612c5c565b50612cff565b939061230b565b516001600160a01b0316149050838a612304565b61235b8161273c565b60018060a01b0391549060031b1c16600052600860205260406000208360405191612385836129fc565b805483526001810154602084015260028101546001600160a01b0381166040850190815293906123be9060a01c60ff1660608301612c70565b60a06123df60046123d160038601612b1d565b946080850195865201612b1d565b910152516020815191012088518720149182612419575b5050612405575b600101612233565b90612411600191612cff565b9190506123fd565b516001600160a01b031614905083886123f6565b3461047557600036600319011261047557600b5461244a81612c0c565b9060005b81811061246357604051806105cf85826128da565b8061246f6001926127be565b838060a01b0391549060031b1c16600052600860205260406000206124e460046040519261249c846129fc565b805484528581015460208501526124cd60ff6002830154888060a01b038116604088015260a01c1660608601612c70565b6124d960038201612b1d565b608085015201612b1d565b60a08201526124f38286612c5c565b526124fe8185612c5c565b500161244e565b3461047557602036600319011261047557600435600e5481101561047557610ec76020916127a3565b3461047557600036600319011261047557600c5461254b81612caf565b9060005b81811061256457604051806105cf858261299c565b80612570600192612788565b838060a01b0391549060031b1c166000526007602052604060002061259f60ff600460405193610f51856129fc565b6125a98286612c5c565b526125b48185612c5c565b500161254f565b34610475576000366003190112610475576020600254604051908152f35b34610475576000366003190112610475576009546125f681612c0c565b9060005b81811061260f57604051806105cf85826128da565b8061261b60019261273c565b838060a01b0391549060031b1c166000526008602052604060002061264860046040519261249c846129fc565b60a08201526126578286612c5c565b526126628185612c5c565b50016125fa565b34610475576000366003190112610475576020600354604051908152f35b3461047557600036600319011261047557600d546126a481612c0c565b9060005b8181106126bd57604051806105cf85826128da565b806126c960019261276d565b838060a01b0391549060031b1c16600052600860205260406000206126f660046040519261249c846129fc565b60a08201526127058286612c5c565b526127108185612c5c565b50016126a8565b346104755760203660031901126104755760043560095481101561047557610ec76020915b60095481101561275757600960005260206000200190600090565b634e487b7160e01b600052603260045260246000fd5b600d5481101561275757600d60005260206000200190600090565b600c5481101561275757600c60005260206000200190600090565b600e5481101561275757600e60005260206000200190600090565b600b5481101561275757600b60005260206000200190600090565b600f5481101561275757600f60005260206000200190600090565b600a5481101561275757600a60005260206000200190600090565b80548210156127575760005260206000200190600090565b906003821015610e885752565b919082519283825260005b848110612860575050826000602080949584010152601f8019910116010190565b8060208092840101518282860101520161283f565b6128d791815181526020820151602082015260018060a01b0360408301511660408201526128ab60608301516060830190612827565b60a06128c6608084015160c0608085015260c0840190612834565b9201519060a0818403910152612834565b90565b602081016020825282518091526040820191602060408360051b8301019401926000915b83831061290d57505050505090565b909192939460208061292b600193603f198682030187528951612875565b970193019301919392906128fe565b906128d79082511515815260a080612976612964602087015160c0602087015260c0860190612834565b60408701518582036040870152612834565b9460608101516060850152600180831b0360808201511660808501520151910190612827565b602081016020825282518091526040820191602060408360051b8301019401926000915b8383106129cf57505050505090565b90919293946020806129ed600193603f19868203018752895161293a565b970193019301919392906129c0565b60c081019081106001600160401b0382111761039857604052565b90601f801991011681019081106001600160401b0382111761039857604052565b81601f82011215610475578035906001600160401b0382116103985760405192612a6c601f8401601f191660200185612a17565b8284526020838301011161047557816000926020809301838601378301015290565b600435906001600160a01b038216820361047557565b906040600319830112610475576004356001600160a01b03811681036104755791602435906001600160401b038211610475576128d791600401612a38565b90600182811c92168015612b13575b6020831014612afd57565b634e487b7160e01b600052602260045260246000fd5b91607f1691612af2565b9060405191826000825492612b3184612ae3565b8084529360018116908115612b9f5750600114612b58575b50612b5692500383612a17565b565b90506000929192526020600020906000915b818310612b83575050906020612b569282010138612b49565b6020919350806001915483858901015201910190918492612b6a565b905060209250612b5694915060ff191682840152151560051b82010138612b49565b6001600160401b0381116103985760051b60200190565b60405190612be5826129fc565b606060a0836000815260006020820152600060408201526000838201528260808201520152565b90612c1682612bc1565b612c236040519182612a17565b8281528092612c34601f1991612bc1565b019060005b828110612c4557505050565b602090612c50612bd8565b82828501015201612c39565b80518210156127575760209160051b010190565b6003821015610e885752565b60405190612c89826129fc565b600060a08382815260606020820152606060408201528260608201528260808201520152565b90612cb982612bc1565b612cc66040519182612a17565b8281528092612cd7601f1991612bc1565b019060005b828110612ce857505050565b602090612cf3612c7c565b82828501015201612cdc565b60001981146103805760010190565b15612d1557565b60405162461bcd60e51b815260206004820152600a60248201526927b7363c9037bbb732b960b11b6044820152606490fd5b906003811015610e8857815460ff60a01b191660a09190911b60ff60a01b16179055565b818110612d76575050565b60008155600101612d6b565b9190601f8111612d9157505050565b612b56926000526020600020906020601f840160051c83019310612dbd575b601f0160051c0190612d6b565b9091508190612db0565b60405190612dd6606083612a17565b60218252601b60fa1b6040837f526567697374726174696f6e206973206177616974696e6720617070726f766160208201520152565b15612e1357565b60405162461bcd60e51b815260206004820152602160248201527f43616e6e6f74206d6f6469667920616674657220766f74696e672073746172746044820152607360f81b6064820152608490fd5b612e6c8154612ae3565b9081612e76575050565b81601f60009311600114612e88575055565b81835260208320612ea491601f0160051c810190600101612d6b565b8082528160208120915555565b612eb9612bd8565b50612ec2612bd8565b600b546000805b828110612ed65750505090565b612edf816127be565b60018060a01b0391549060031b1c166000526008602052604060002060405190612f08826129fc565b80548252612f5a600460018301549260208501938452612f4360ff600283015460018060a01b038116604089015260a01c1660608701612c70565b612f4f60038201612b1d565b608086015201612b1d565b60a083015251838111612f72575b5050600101612ec9565b9094509150600138612f68565b612f87612bd8565b50600b541561301d576003544210612fa1576128d7612eb1565b604051612fad816129fc565b60008152600060208201526000604082015260006060820152604051612fd4602082612a17565b600081526080820152604051612feb604082612a17565b601f81527f506c65617365207761697420756e74696c20656c656374696f6e20656e647300602082015260a082015290565b60405162461bcd60e51b8152602060048201526024808201527f4e6f2043616e6469646174657320616363657074656420666f7220656c65637460448201526334b7b71760e11b6064820152608490fdfea26469706673582212209750a55f2025c69a3ac258bba38734c19b2642e36acffbc8d1210470268db75a64736f6c634300081c0033",
  "linkReferences": {},
  "deployedLinkReferences": {}
}