{
  "_format": "hh-sol-artifact-1",
  "contractName": "VotingSystem",
  "sourceName": "contracts/VotingSystem.sol",
  "abi": [
    {
      "inputs": [
        {
          "internalType": "string",
          "name": "_name",
          "type": "string"
        }
      ],
      "stateMutability": "nonpayable",
      "type": "constructor"
    },
    {
      "inputs": [],
      "name": "CurrentVotingStatus",
      "outputs": [
        {
          "components": [
            {
              "internalType": "string",
              "name": "name",
              "type": "string"
            },
            {
              "internalType": "string",
              "name": "message",
              "type": "string"
            },
            {
              "internalType": "uint256",
              "name": "age",
              "type": "uint256"
            },
            {
              "internalType": "string",
              "name": "email",
              "type": "string"
            },
            {
              "internalType": "string",
              "name": "phone",
              "type": "string"
            },
            {
              "internalType": "uint256",
              "name": "registeredId",
              "type": "uint256"
            },
            {
              "internalType": "uint256",
              "name": "voteCalculation",
              "type": "uint256"
            },
            {
              "internalType": "address",
              "name": "candidatesAddress",
              "type": "address"
            },
            {
              "internalType": "enum VotingSystem.ConfirmationStatus",
              "name": "status",
              "type": "uint8"
            }
          ],
          "internalType": "struct VotingSystem.Candidate",
          "name": "",
          "type": "tuple"
        }
      ],
      "stateMutability": "view",
      "type": "function"
    },
    {
      "inputs": [],
      "name": "ListofAcceptedCandidates",
      "outputs": [
        {
          "components": [
            {
              "internalType": "string",
              "name": "name",
              "type": "string"
            },
            {
              "internalType": "string",
              "name": "message",
              "type": "string"
            },
            {
              "internalType": "uint256",
              "name": "age",
              "type": "uint256"
            },
            {
              "internalType": "string",
              "name": "email",
              "type": "string"
            },
            {
              "internalType": "string",
              "name": "phone",
              "type": "string"
            },
            {
              "internalType": "uint256",
              "name": "registeredId",
              "type": "uint256"
            },
            {
              "internalType": "uint256",
              "name": "voteCalculation",
              "type": "uint256"
            },
            {
              "internalType": "address",
              "name": "candidatesAddress",
              "type": "address"
            },
            {
              "internalType": "enum VotingSystem.ConfirmationStatus",
              "name": "status",
              "type": "uint8"
            }
          ],
          "internalType": "struct VotingSystem.Candidate[]",
          "name": "",
          "type": "tuple[]"
        }
      ],
      "stateMutability": "view",
      "type": "function"
    },
    {
      "inputs": [],
      "name": "ListofAcceptedVoters",
      "outputs": [
        {
          "components": [
            {
              "internalType": "bool",
              "name": "alreadyVoted",
              "type": "bool"
            },
            {
              "internalType": "string",
              "name": "name",
              "type": "string"
            },
            {
              "internalType": "uint256",
              "name": "age",
              "type": "uint256"
            },
            {
              "internalType": "string",
              "name": "email",
              "type": "string"
            },
            {
              "internalType": "string",
              "name": "phone",
              "type": "string"
            },
            {
              "internalType": "string",
              "name": "message",
              "type": "string"
            },
            {
              "internalType": "uint256",
              "name": "registeredId",
              "type": "uint256"
            },
            {
              "internalType": "address",
              "name": "votersAddress",
              "type": "address"
            },
            {
              "internalType": "enum VotingSystem.ConfirmationStatus",
              "name": "status",
              "type": "uint8"
            }
          ],
          "internalType": "struct VotingSystem.Voter[]",
          "name": "",
          "type": "tuple[]"
        }
      ],
      "stateMutability": "view",
      "type": "function"
    },
    {
      "inputs": [],
      "name": "ListofRegisteredCandidates",
      "outputs": [
        {
          "components": [
            {
              "internalType": "string",
              "name": "name",
              "type": "string"
            },
            {
              "internalType": "string",
              "name": "message",
              "type": "string"
            },
            {
              "internalType": "uint256",
              "name": "age",
              "type": "uint256"
            },
            {
              "internalType": "string",
              "name": "email",
              "type": "string"
            },
            {
              "internalType": "string",
              "name": "phone",
              "type": "string"
            },
            {
              "internalType": "uint256",
              "name": "registeredId",
              "type": "uint256"
            },
            {
              "internalType": "uint256",
              "name": "voteCalculation",
              "type": "uint256"
            },
            {
              "internalType": "address",
              "name": "candidatesAddress",
              "type": "address"
            },
            {
              "internalType": "enum VotingSystem.ConfirmationStatus",
              "name": "status",
              "type": "uint8"
            }
          ],
          "internalType": "struct VotingSystem.Candidate[]",
          "name": "",
          "type": "tuple[]"
        }
      ],
      "stateMutability": "view",
      "type": "function"
    },
    {
      "inputs": [],
      "name": "ListofRegisteredVoters",
      "outputs": [
        {
          "components": [
            {
              "internalType": "bool",
              "name": "alreadyVoted",
              "type": "bool"
            },
            {
              "internalType": "string",
              "name": "name",
              "type": "string"
            },
            {
              "internalType": "uint256",
              "name": "age",
              "type": "uint256"
            },
            {
              "internalType": "string",
              "name": "email",
              "type": "string"
            },
            {
              "internalType": "string",
              "name": "phone",
              "type": "string"
            },
            {
              "internalType": "string",
              "name": "message",
              "type": "string"
            },
            {
              "internalType": "uint256",
              "name": "registeredId",
              "type": "uint256"
            },
            {
              "internalType": "address",
              "name": "votersAddress",
              "type": "address"
            },
            {
              "internalType": "enum VotingSystem.ConfirmationStatus",
              "name": "status",
              "type": "uint8"
            }
          ],
          "internalType": "struct VotingSystem.Voter[]",
          "name": "",
          "type": "tuple[]"
        }
      ],
      "stateMutability": "view",
      "type": "function"
    },
    {
      "inputs": [],
      "name": "ListofRejectedCandidates",
      "outputs": [
        {
          "components": [
            {
              "internalType": "string",
              "name": "name",
              "type": "string"
            },
            {
              "internalType": "string",
              "name": "message",
              "type": "string"
            },
            {
              "internalType": "uint256",
              "name": "age",
              "type": "uint256"
            },
            {
              "internalType": "string",
              "name": "email",
              "type": "string"
            },
            {
              "internalType": "string",
              "name": "phone",
              "type": "string"
            },
            {
              "internalType": "uint256",
              "name": "registeredId",
              "type": "uint256"
            },
            {
              "internalType": "uint256",
              "name": "voteCalculation",
              "type": "uint256"
            },
            {
              "internalType": "address",
              "name": "candidatesAddress",
              "type": "address"
            },
            {
              "internalType": "enum VotingSystem.ConfirmationStatus",
              "name": "status",
              "type": "uint8"
            }
          ],
          "internalType": "struct VotingSystem.Candidate[]",
          "name": "",
          "type": "tuple[]"
        }
      ],
      "stateMutability": "view",
      "type": "function"
    },
    {
      "inputs": [],
      "name": "ListofRejectedVoters",
      "outputs": [
        {
          "components": [
            {
              "internalType": "bool",
              "name": "alreadyVoted",
              "type": "bool"
            },
            {
              "internalType": "string",
              "name": "name",
              "type": "string"
            },
            {
              "internalType": "uint256",
              "name": "age",
              "type": "uint256"
            },
            {
              "internalType": "string",
              "name": "email",
              "type": "string"
            },
            {
              "internalType": "string",
              "name": "phone",
              "type": "string"
            },
            {
              "internalType": "string",
              "name": "message",
              "type": "string"
            },
            {
              "internalType": "uint256",
              "name": "registeredId",
              "type": "uint256"
            },
            {
              "internalType": "address",
              "name": "votersAddress",
              "type": "address"
            },
            {
              "internalType": "enum VotingSystem.ConfirmationStatus",
              "name": "status",
              "type": "uint8"
            }
          ],
          "internalType": "struct VotingSystem.Voter[]",
          "name": "",
          "type": "tuple[]"
        }
      ],
      "stateMutability": "view",
      "type": "function"
    },
    {
      "inputs": [
        {
          "internalType": "uint256",
          "name": "",
          "type": "uint256"
        }
      ],
      "name": "acceptedCandidates",
      "outputs": [
        {
          "internalType": "address",
          "name": "",
          "type": "address"
        }
      ],
      "stateMutability": "view",
      "type": "function"
    },
    {
      "inputs": [
        {
          "internalType": "uint256",
          "name": "",
          "type": "uint256"
        }
      ],
      "name": "acceptedVoters",
      "outputs": [
        {
          "internalType": "address",
          "name": "",
          "type": "address"
        }
      ],
      "stateMutability": "view",
      "type": "function"
    },
    {
      "inputs": [
        {
          "internalType": "address",
          "name": "_candidatesAddress",
          "type": "address"
        },
        {
          "internalType": "string",
          "name": "_message",
          "type": "string"
        }
      ],
      "name": "approveCandidate",
      "outputs": [],
      "stateMutability": "nonpayable",
      "type": "function"
    },
    {
      "inputs": [
        {
          "internalType": "address",
          "name": "_votersAddress",
          "type": "address"
        },
        {
          "internalType": "string",
          "name": "_message",
          "type": "string"
        }
      ],
      "name": "approveVoter",
      "outputs": [],
      "stateMutability": "nonpayable",
      "type": "function"
    },
    {
      "inputs": [
        {
          "internalType": "address",
          "name": "",
          "type": "address"
        }
      ],
      "name": "candidates",
      "outputs": [
        {
          "internalType": "string",
          "name": "name",
          "type": "string"
        },
        {
          "internalType": "string",
          "name": "message",
          "type": "string"
        },
        {
          "internalType": "uint256",
          "name": "age",
          "type": "uint256"
        },
        {
          "internalType": "string",
          "name": "email",
          "type": "string"
        },
        {
          "internalType": "string",
          "name": "phone",
          "type": "string"
        },
        {
          "internalType": "uint256",
          "name": "registeredId",
          "type": "uint256"
        },
        {
          "internalType": "uint256",
          "name": "voteCalculation",
          "type": "uint256"
        },
        {
          "internalType": "address",
          "name": "candidatesAddress",
          "type": "address"
        },
        {
          "internalType": "enum VotingSystem.ConfirmationStatus",
          "name": "status",
          "type": "uint8"
        }
      ],
      "stateMutability": "view",
      "type": "function"
    },
    {
      "inputs": [
        {
          "internalType": "uint256",
          "name": "",
          "type": "uint256"
        }
      ],
      "name": "candidatesRegistered",
      "outputs": [
        {
          "internalType": "address",
          "name": "",
          "type": "address"
        }
      ],
      "stateMutability": "view",
      "type": "function"
    },
    {
      "inputs": [],
      "name": "electionName",
      "outputs": [
        {
          "internalType": "string",
          "name": "",
          "type": "string"
        }
      ],
      "stateMutability": "view",
      "type": "function"
    },
    {
      "inputs": [
        {
          "internalType": "address",
          "name": "_candidatesAddress",
          "type": "address"
        }
      ],
      "name": "findCandidate",
      "outputs": [
        {
          "components": [
            {
              "internalType": "string",
              "name": "name",
              "type": "string"
            },
            {
              "internalType": "string",
              "name": "message",
              "type": "string"
            },
            {
              "internalType": "uint256",
              "name": "age",
              "type": "uint256"
            },
            {
              "internalType": "string",
              "name": "email",
              "type": "string"
            },
            {
              "internalType": "string",
              "name": "phone",
              "type": "string"
            },
            {
              "internalType": "uint256",
              "name": "registeredId",
              "type": "uint256"
            },
            {
              "internalType": "uint256",
              "name": "voteCalculation",
              "type": "uint256"
            },
            {
              "internalType": "address",
              "name": "candidatesAddress",
              "type": "address"
            },
            {
              "internalType": "enum VotingSystem.ConfirmationStatus",
              "name": "status",
              "type": "uint8"
            }
          ],
          "internalType": "struct VotingSystem.Candidate",
          "name": "",
          "type": "tuple"
        }
      ],
      "stateMutability": "view",
      "type": "function"
    },
    {
      "inputs": [
        {
          "internalType": "address",
          "name": "_votersAddress",
          "type": "address"
        }
      ],
      "name": "findVoter",
      "outputs": [
        {
          "components": [
            {
              "internalType": "bool",
              "name": "alreadyVoted",
              "type": "bool"
            },
            {
              "internalType": "string",
              "name": "name",
              "type": "string"
            },
            {
              "internalType": "uint256",
              "name": "age",
              "type": "uint256"
            },
            {
              "internalType": "string",
              "name": "email",
              "type": "string"
            },
            {
              "internalType": "string",
              "name": "phone",
              "type": "string"
            },
            {
              "internalType": "string",
              "name": "message",
              "type": "string"
            },
            {
              "internalType": "uint256",
              "name": "registeredId",
              "type": "uint256"
            },
            {
              "internalType": "address",
              "name": "votersAddress",
              "type": "address"
            },
            {
              "internalType": "enum VotingSystem.ConfirmationStatus",
              "name": "status",
              "type": "uint8"
            }
          ],
          "internalType": "struct VotingSystem.Voter",
          "name": "",
          "type": "tuple"
        }
      ],
      "stateMutability": "view",
      "type": "function"
    },
    {
      "inputs": [],
      "name": "getAllVotersWhoCasted",
      "outputs": [
        {
          "components": [
            {
              "internalType": "bool",
              "name": "alreadyVoted",
              "type": "bool"
            },
            {
              "internalType": "string",
              "name": "name",
              "type": "string"
            },
            {
              "internalType": "uint256",
              "name": "age",
              "type": "uint256"
            },
            {
              "internalType": "string",
              "name": "email",
              "type": "string"
            },
            {
              "internalType": "string",
              "name": "phone",
              "type": "string"
            },
            {
              "internalType": "string",
              "name": "message",
              "type": "string"
            },
            {
              "internalType": "uint256",
              "name": "registeredId",
              "type": "uint256"
            },
            {
              "internalType": "address",
              "name": "votersAddress",
              "type": "address"
            },
            {
              "internalType": "enum VotingSystem.ConfirmationStatus",
              "name": "status",
              "type": "uint8"
            }
          ],
          "internalType": "struct VotingSystem.Voter[]",
          "name": "",
          "type": "tuple[]"
        }
      ],
      "stateMutability": "view",
      "type": "function"
    },
    {
      "inputs": [],
      "name": "owner",
      "outputs": [
        {
          "internalType": "address",
          "name": "",
          "type": "address"
        }
      ],
      "stateMutability": "view",
      "type": "function"
    },
    {
      "inputs": [
        {
          "internalType": "string",
          "name": "_name",
          "type": "string"
        },
        {
          "internalType": "uint256",
          "name": "_age",
          "type": "uint256"
        },
        {
          "internalType": "string",
          "name": "_email",
          "type": "string"
        },
        {
          "internalType": "string",
          "name": "_phone",
          "type": "string"
        }
      ],
      "name": "registerCandidate",
      "outputs": [],
      "stateMutability": "nonpayable",
      "type": "function"
    },
    {
      "inputs": [
        {
          "internalType": "string",
          "name": "_name",
          "type": "string"
        },
        {
          "internalType": "uint256",
          "name": "_age",
          "type": "uint256"
        },
        {
          "internalType": "string",
          "name": "_email",
          "type": "string"
        },
        {
          "internalType": "string",
          "name": "_phone",
          "type": "string"
        }
      ],
      "name": "registerVoter",
      "outputs": [],
      "stateMutability": "nonpayable",
      "type": "function"
    },
    {
      "inputs": [
        {
          "internalType": "address",
          "name": "_candidatesAddress",
          "type": "address"
        },
        {
          "internalType": "string",
          "name": "_message",
          "type": "string"
        }
      ],
      "name": "rejectCandidate",
      "outputs": [],
      "stateMutability": "nonpayable",
      "type": "function"
    },
    {
      "inputs": [
        {
          "internalType": "address",
          "name": "_votersAddress",
          "type": "address"
        },
        {
          "internalType": "string",
          "name": "_message",
          "type": "string"
        }
      ],
      "name": "rejectVoter",
      "outputs": [],
      "stateMutability": "nonpayable",
      "type": "function"
    },
    {
      "inputs": [
        {
          "internalType": "uint256",
          "name": "",
          "type": "uint256"
        }
      ],
      "name": "rejectedCandidates",
      "outputs": [
        {
          "internalType": "address",
          "name": "",
          "type": "address"
        }
      ],
      "stateMutability": "view",
      "type": "function"
    },
    {
      "inputs": [
        {
          "internalType": "uint256",
          "name": "",
          "type": "uint256"
        }
      ],
      "name": "rejectedVoters",
      "outputs": [
        {
          "internalType": "address",
          "name": "",
          "type": "address"
        }
      ],
      "stateMutability": "view",
      "type": "function"
    },
    {
      "inputs": [],
      "name": "resultPublicationTime",
      "outputs": [
        {
          "internalType": "uint256",
          "name": "",
          "type": "uint256"
        }
      ],
      "stateMutability": "view",
      "type": "function"
    },
    {
      "inputs": [
        {
          "internalType": "string",
          "name": "_name",
          "type": "string"
        },
        {
          "internalType": "address",
          "name": "_addr",
          "type": "address"
        }
      ],
      "name": "searchCandidate",
      "outputs": [
        {
          "components": [
            {
              "internalType": "string",
              "name": "name",
              "type": "string"
            },
            {
              "internalType": "string",
              "name": "message",
              "type": "string"
            },
            {
              "internalType": "uint256",
              "name": "age",
              "type": "uint256"
            },
            {
              "internalType": "string",
              "name": "email",
              "type": "string"
            },
            {
              "internalType": "string",
              "name": "phone",
              "type": "string"
            },
            {
              "internalType": "uint256",
              "name": "registeredId",
              "type": "uint256"
            },
            {
              "internalType": "uint256",
              "name": "voteCalculation",
              "type": "uint256"
            },
            {
              "internalType": "address",
              "name": "candidatesAddress",
              "type": "address"
            },
            {
              "internalType": "enum VotingSystem.ConfirmationStatus",
              "name": "status",
              "type": "uint8"
            }
          ],
          "internalType": "struct VotingSystem.Candidate[]",
          "name": "",
          "type": "tuple[]"
        }
      ],
      "stateMutability": "view",
      "type": "function"
    },
    {
      "inputs": [
        {
          "internalType": "string",
          "name": "_name",
          "type": "string"
        },
        {
          "internalType": "address",
          "name": "_addr",
          "type": "address"
        }
      ],
      "name": "searchVoter",
      "outputs": [
        {
          "components": [
            {
              "internalType": "bool",
              "name": "alreadyVoted",
              "type": "bool"
            },
            {
              "internalType": "string",
              "name": "name",
              "type": "string"
            },
            {
              "internalType": "uint256",
              "name": "age",
              "type": "uint256"
            },
            {
              "internalType": "string",
              "name": "email",
              "type": "string"
            },
            {
              "internalType": "string",
              "name": "phone",
              "type": "string"
            },
            {
              "internalType": "string",
              "name": "message",
              "type": "string"
            },
            {
              "internalType": "uint256",
              "name": "registeredId",
              "type": "uint256"
            },
            {
              "internalType": "address",
              "name": "votersAddress",
              "type": "address"
            },
            {
              "internalType": "enum VotingSystem.ConfirmationStatus",
              "name": "status",
              "type": "uint8"
            }
          ],
          "internalType": "struct VotingSystem.Voter[]",
          "name": "",
          "type": "tuple[]"
        }
      ],
      "stateMutability": "view",
      "type": "function"
    },
    {
      "inputs": [
        {
          "internalType": "uint256",
          "name": "_resultPublicationTime",
          "type": "uint256"
        }
      ],
      "name": "setResultPublicationTime",
      "outputs": [],
      "stateMutability": "nonpayable",
      "type": "function"
    },
    {
      "inputs": [
        {
          "internalType": "uint256",
          "name": "_votingStartTime",
          "type": "uint256"
        },
        {
          "internalType": "uint256",
          "name": "_votingEndTime",
          "type": "uint256"
        }
      ],
      "name": "startendVoting",
      "outputs": [],
      "stateMutability": "nonpayable",
      "type": "function"
    },
    {
      "inputs": [
        {
          "internalType": "string",
          "name": "_name",
          "type": "string"
        }
      ],
      "name": "updateCandidate",
      "outputs": [],
      "stateMutability": "nonpayable",
      "type": "function"
    },
    {
      "inputs": [
        {
          "internalType": "string",
          "name": "_name",
          "type": "string"
        }
      ],
      "name": "updateVoter",
      "outputs": [],
      "stateMutability": "nonpayable",
      "type": "function"
    },
    {
      "inputs": [
        {
          "internalType": "address",
          "name": "_candidatesAddress",
          "type": "address"
        }
      ],
      "name": "vote",
      "outputs": [],
      "stateMutability": "nonpayable",
      "type": "function"
    },
    {
      "inputs": [
        {
          "internalType": "address",
          "name": "",
          "type": "address"
        }
      ],
      "name": "voters",
      "outputs": [
        {
          "internalType": "bool",
          "name": "alreadyVoted",
          "type": "bool"
        },
        {
          "internalType": "string",
          "name": "name",
          "type": "string"
        },
        {
          "internalType": "uint256",
          "name": "age",
          "type": "uint256"
        },
        {
          "internalType": "string",
          "name": "email",
          "type": "string"
        },
        {
          "internalType": "string",
          "name": "phone",
          "type": "string"
        },
        {
          "internalType": "string",
          "name": "message",
          "type": "string"
        },
        {
          "internalType": "uint256",
          "name": "registeredId",
          "type": "uint256"
        },
        {
          "internalType": "address",
          "name": "votersAddress",
          "type": "address"
        },
        {
          "internalType": "enum VotingSystem.ConfirmationStatus",
          "name": "status",
          "type": "uint8"
        }
      ],
      "stateMutability": "view",
      "type": "function"
    },
    {
      "inputs": [
        {
          "internalType": "uint256",
          "name": "",
          "type": "uint256"
        }
      ],
      "name": "votersRegistered",
      "outputs": [
        {
          "internalType": "address",
          "name": "",
          "type": "address"
        }
      ],
      "stateMutability": "view",
      "type": "function"
    },
    {
      "inputs": [
        {
          "internalType": "uint256",
          "name": "",
          "type": "uint256"
        }
      ],
      "name": "votersWhoCasted",
      "outputs": [
        {
          "internalType": "address",
          "name": "",
          "type": "address"
        }
      ],
      "stateMutability": "view",
      "type": "function"
    },
    {
      "inputs": [],
      "name": "votingEndTime",
      "outputs": [
        {
          "internalType": "uint256",
          "name": "",
          "type": "uint256"
        }
      ],
      "stateMutability": "view",
      "type": "function"
    },
    {
      "inputs": [],
      "name": "votingStartTime",
      "outputs": [
        {
          "internalType": "uint256",
          "name": "",
          "type": "uint256"
        }
      ],
      "stateMutability": "view",
      "type": "function"
    },
    {
      "inputs": [],
      "name": "winningCandidate",
      "outputs": [
        {
          "components": [
            {
              "internalType": "string",
              "name": "name",
              "type": "string"
            },
            {
              "internalType": "string",
              "name": "message",
              "type": "string"
            },
            {
              "internalType": "uint256",
              "name": "age",
              "type": "uint256"
            },
            {
              "internalType": "string",
              "name": "email",
              "type": "string"
            },
            {
              "internalType": "string",
              "name": "phone",
              "type": "string"
            },
            {
              "internalType": "uint256",
              "name": "registeredId",
              "type": "uint256"
            },
            {
              "internalType": "uint256",
              "name": "voteCalculation",
              "type": "uint256"
            },
            {
              "internalType": "address",
              "name": "candidatesAddress",
              "type": "address"
            },
            {
              "internalType": "enum VotingSystem.ConfirmationStatus",
              "name": "status",
              "type": "uint8"
            }
          ],
          "internalType": "struct VotingSystem.Candidate",
          "name": "",
          "type": "tuple"
        }
      ],
      "stateMutability": "view",
      "type": "function"
    }
  ],
  "bytecode": "0x60806040523461023b57613ce58038038061001981610240565b92833981019060208183031261023b578051906001600160401b03821161023b570181601f8201121561023b578051906001600160401b0382116102105761006a601f8301601f1916602001610240565b928284526020838301011161023b5760005b82811061022657600083850160200181905280546001600160a01b03191633179055835184906001600160401b03811161021057600154600181811c91168015610206575b60208210146101f057601f811161018b575b50602091601f82116001146101275791819260009261011c575b50508160011b916000199060031b1c1916176001555b60016005556001600655604051613a7f90816102668239f35b0151905082806100ed565b601f198216926001600052806000209160005b8581106101735750836001951061015a575b505050811b01600155610103565b015160001960f88460031b161c1916905582808061014c565b9192602060018192868501518155019401920161013a565b60016000527fb10e2d527612073b26eecdfd717e6a320cf44b4afac2b0732d9fcbe2b7fa0cf6601f830160051c810191602084106101e6575b601f0160051c01905b8181106101da57506100d3565b600081556001016101cd565b90915081906101c4565b634e487b7160e01b600052602260045260246000fd5b90607f16906100c1565b634e487b7160e01b600052604160045260246000fd5b8060208092840101518282870101520161007c565b600080fd5b6040519190601f01601f191682016001600160401b038111838210176102105760405256fe6080604052600436101561001257600080fd5b60003560e01c80630366ac3714612fc3578063073f966d14612f365780631ea736e014612f185780631ee9367c14612e8b5780632019a60814612e6d57806323a2b2ed14612de05780633afa3e0714612db75780633cfde26c14612cb2578063429b0b2214612a5d5780634a2846a8146127f15780634d867f4e1461257c57806353dd128c1461255357806357f3a8e5146123d957806359632c221461216f5780635b45cfca1461207c5780635e894b12146120535780635f1bc34e1461202a57806360fc4e3214611f9d5780636dd7d8ea14611d8b57806371565d2e1461183557806379432db5146116a65780637eb21b511461142657806382ff2aeb14611265578063849c56571461123c57806385e8e7a71461115b5780638987cb32146110ce5780638ab66a9014610fdb5780638da5cb5b14610fb2578063964a43b914610ea95780639e7a814514610e67578063a3ec138d14610d6b578063ac94ba4c14610d4d578063bab912a214610d31578063cd6cf311146107ae578063d28178d71461077e578063dbf7be47146105e3578063f33698f1146104be5763fad761d3146101be57600080fd5b346104b9576101cc36613402565b906101e260018060a01b03600054163314613700565b6001600160a01b03818116600081815260076020819052604090912090810180549294939092161561046257815460ff60a01b1916600160a01b179091558351600591909101906001600160401b0381116103945761024182546134ae565b601f811161041a575b50602094601f82116001146103b5579481929394956000926103aa575b50508160011b916000199060031b1c19161790555b600c5490600160401b821015610394576102a18260016102c59401600c55600c6130bb565b9080546001600160a01b0360039390931b83811b199091169290931690921b179055565b60005b600e548082101561039257826102dd8361304f565b905460039190911b1c6001600160a01b0316146102fd57506001016102c8565b60001981019250821161037c576102a16103196103319361304f565b905460039190911b1c6001600160a01b03169161304f565b600e548015610366576000190161036161034c82600e6130bb565b81549060018060a01b039060031b1b19169055565b600e55005b634e487b7160e01b600052603160045260246000fd5b634e487b7160e01b600052601160045260246000fd5b005b634e487b7160e01b600052604160045260246000fd5b015190503880610267565b601f1982169583600052806000209160005b888110610402575083600195969798106103e9575b505050811b01905561027c565b015160001960f88460031b161c191690553880806103dc565b919260206001819286850151815501940192016103c7565b826000526020600020601f830160051c81019160208410610458575b601f0160051c01905b81811061044c575061024a565b6000815560010161043f565b9091508190610436565b60405162461bcd60e51b815260206004820152602960248201527f5468697320766f74657220646f6573206e6f742061707065617220696e206f75604482015268391039bcb9ba32b69760b91b6064820152608490fd5b600080fd5b346104b95760403660031901126104b957600435602435906104eb60018060a01b03600054163314613700565b60025461059e574281111561055a578181101561050a57600255600355005b60405162461bcd60e51b815260206004820152602260248201527f53746172742074696d65206d757374206265206265666f726520656e642074696044820152616d6560f01b6064820152608490fd5b606460405162461bcd60e51b815260206004820152602060248201527f53746172742074696d65206d75737420626520696e20746865206675747572656044820152fd5b60405162461bcd60e51b815260206004820152601860248201527f566f74696e6720616c7265616479207363686564756c656400000000000000006044820152606490fd5b346104b95760203660031901126104b9576105fc6133ab565b6106046135a3565b5060018060a01b03166000526008602052604060002060076040519161062983613318565b610632816134e8565b8352610640600182016134e8565b60208401526002810154604084015261065b600382016134e8565b606084015261066c600482016134e8565b6080840152600581015460a0840152600681015460c0840152015460e0820160018060a01b03821681526106ab60ff61010085019360a01c168361364e565b516001600160a01b0316156107435751600381101561072d57600019016106e8576106e490604051918291602083526020830190613121565b0390f35b60405162461bcd60e51b815260206004820152601960248201527f43616e646964617465206973206e6f74206163636570746564000000000000006044820152606490fd5b634e487b7160e01b600052602160045260246000fd5b60405162461bcd60e51b815260206004820152601360248201527210d85b991a59185d19481b9bdd08199bdd5b99606a1b6044820152606490fd5b346104b95760003660031901126104b9576106e461079a6138f3565b604051918291602083526020830190613121565b346104b9576107bc36613441565b600693919354604051916107cf83613318565b60008352602083019384526040830194855260608301958652608083019081526107f761375d565b9560a0840196875260c0840192835260e08401953387526101008501956000875233600052600760205260406000209551151560ff801988541691161786556001860190518051906001600160401b03821161039457819061085984546134ae565b601f8111610cde575b50602090601f8311600114610c7957600092610c6e575b50508160011b916000199060031b1c19161790555b51600285015551805160038501916001600160401b0382116103945781906108b684546134ae565b601f8111610c1b575b50602090601f8311600114610bb657600092610bab575b50508160011b916000199060031b1c19161790555b51805160048401916001600160401b03821161039457819061090d84546134ae565b601f8111610b58575b50602090601f8311600114610af357600092610ae8575b50508160011b916000199060031b1c19161790555b6005820194519485516001600160401b0381116103945761096382546134ae565b601f8111610aa0575b506020601f8211600114610a365781906007969798600092610a2b575b50508160011b916000199060031b1c19161790555b5160068201559251920180546001600160a01b0319166001600160a01b039390931692909217825551600381101561072d576109d991613739565b600a54600160401b811015610394576109fd816001610a1b9301600a55600a6130bb565b81543360039290921b91821b6001600160a01b0390921b1916179055565b610a266006546136f1565b600655005b015190508880610989565b601f1982169783600052816000209860005b818110610a88575091600797989991846001959410610a6f575b505050811b01905561099e565b015160001960f88460031b161c19169055888080610a62565b838301518b556001909a019960209384019301610a48565b826000526020600020601f830160051c81019160208410610ade575b601f0160051c01905b818110610ad2575061096c565b60008155600101610ac5565b9091508190610abc565b01519050888061092d565b60008581528281209350601f198516905b818110610b405750908460019594939210610b27575b505050811b019055610942565b015160001960f88460031b161c19169055888080610b1a565b92936020600181928786015181550195019301610b04565b909150836000526020600020601f840160051c81019160208510610ba1575b90601f859493920160051c01905b818110610b925750610916565b60008155849350600101610b85565b9091508190610b77565b0151905089806108d6565b60008581528281209350601f198516905b818110610c035750908460019594939210610bea575b505050811b0190556108eb565b015160001960f88460031b161c19169055898080610bdd565b92936020600181928786015181550195019301610bc7565b909150836000526020600020601f840160051c81019160208510610c64575b90601f859493920160051c01905b818110610c5557506108bf565b60008155849350600101610c48565b9091508190610c3a565b015190508b80610879565b60008581528281209350601f198516905b818110610cc65750908460019594939210610cad575b505050811b01905561088e565b015160001960f88460031b161c191690558b8080610ca0565b92936020600181928786015181550195019301610c8a565b909150836000526020600020601f840160051c81019160208510610d27575b90601f859493920160051c01905b818110610d185750610862565b60008155849350600101610d0b565b9091508190610cfd565b346104b95760003660031901126104b9576106e461079a6137f8565b346104b95760003660031901126104b9576020600454604051908152f35b346104b95760203660031901126104b9576001600160a01b03610d8c6133ab565b1660005260076020526020604060002060ff815416906106e4610db1600183016134e8565b610e3f6002840154610e31610dc8600387016134e8565b91610e23610dd8600489016134e8565b91610de560058a016134e8565b94610e10600760068c01549b0154986101206040519e8f9e8f901515815201526101208d01906130d3565b9160408c01528a820360608c01526130d3565b9088820360808a01526130d3565b9086820360a08801526130d3565b60c08501939093526001600160a01b03811660e085015261010084019060a01c60ff16613114565b346104b95760203660031901126104b957600435600b548110156104b957610e9060209161306a565b905460405160039290921b1c6001600160a01b03168152f35b346104b95760003660031901126104b957600e54610ec6816136a1565b9060005b818110610edf57604051806106e485826132b8565b80610eeb60019261304f565b838060a01b0391549060031b1c1660005260076020526040600020610f9660ff600760405193610f1a85613318565b8281541615158552610f2d8782016134e8565b602086015260028101546040860152610f48600382016134e8565b6060860152610f59600482016134e8565b6080860152610f6a600582016134e8565b60a0860152600681015460c08601520154858060a01b03811660e085015260a01c16610100830161364e565b610fa0828661363a565b52610fab818561363a565b5001610eca565b346104b95760003660031901126104b9576000546040516001600160a01b039091168152602090f35b346104b95760203660031901126104b9576001600160a01b03610ffc6133ab565b1660005260086020526040600020610120611016826134e8565b916106e4611026600183016134e8565b6002830154926110a461103b600383016134e8565b9461109661104b600485016134e8565b9160058501549761108360076006880154970154976110756040519d8d8f9e8f90815201906130d3565b8c810360208e0152906130d3565b9160408b015289820360608b01526130d3565b9087820360808901526130d3565b9360a086015260c085015260018060a01b03811660e085015260ff61010085019160a01c16613114565b346104b95760003660031901126104b957600f546110eb816136a1565b9060005b81811061110457604051806106e485826132b8565b806111106001926130a0565b838060a01b0391549060031b1c166000526007602052604060002061113f60ff600760405193610f1a85613318565b611149828661363a565b52611154818561363a565b50016110ef565b346104b95760003660031901126104b957604051600060015461117d816134ae565b808452906001811690811561121857506001146111b9575b6106e4836111a581850382613334565b6040519182916020835260208301906130d3565b600160009081527fb10e2d527612073b26eecdfd717e6a320cf44b4afac2b0732d9fcbe2b7fa0cf6939250905b8082106111fe575090915081016020016111a5611195565b9192600181602092548385880101520191019092916111e6565b60ff191660208086019190915291151560051b840190910191506111a59050611195565b346104b95760203660031901126104b957600435600a548110156104b957610e90602091613085565b346104b95760203660031901126104b9576004356001600160401b0381116104b957611295903690600401613355565b6112ab600254801590811561141c575b506137a2565b336000526007602052604060002060018060a01b03600782015416156113d75760010181516001600160401b038111610394576112e882546134ae565b601f811161138f575b50602092601f821160011461132f5792819293600092611324575b5050600019600383901b1c191660019190911b179055005b01519050838061130c565b601f1982169383600052806000209160005b868110611377575083600195961061135e575b505050811b019055005b015160001960f88460031b161c19169055838080611354565b91926020600181928685015181550194019201611341565b826000526020600020601f830160051c810191602084106113cd575b601f0160051c01905b8181106113c157506112f1565b600081556001016113b4565b90915081906113ab565b60405162461bcd60e51b815260206004820152601860248201527f4e6f20766f746572206461746120617661696c61626c652e00000000000000006044820152606490fd5b90504210836112a5565b346104b95761143436613402565b9061144a60018060a01b03600054163314613700565b6001600160a01b0381811660008181526008602052604090206007810180549294939092161561164b57815460ff60a01b1916600160a01b179091558351600191909101906001600160401b038111610394576114a782546134ae565b601f8111611603575b50602094601f821160011461159e57948192939495600092611593575b50508160011b916000199060031b1c19161790555b600b5490600160401b821015610394576102a18260016115079401600b55600b6130bb565b60005b600d5480821015610392578261151f83613019565b905460039190911b1c6001600160a01b03161461153f575060010161150a565b60001981019250821161037c576102a161155b61157393613019565b905460039190911b1c6001600160a01b031691613019565b600d548015610366576000190161158e61034c82600d6130bb565b600d55005b0151905085806114cd565b601f1982169583600052806000209160005b8881106115eb575083600195969798106115d2575b505050811b0190556114e2565b015160001960f88460031b161c191690558580806115c5565b919260206001819286850151815501940192016115b0565b826000526020600020601f830160051c81019160208410611641575b601f0160051c01905b81811061163557506114b0565b60008155600101611628565b909150819061161f565b60405162461bcd60e51b815260206004820152602d60248201527f546869732063616e64696461746520646f6573206e6f7420617070656172206960448201526c371037bab91039bcb9ba32b69760991b6064820152608490fd5b346104b95760203660031901126104b9576004356001600160401b0381116104b9576116d6903690600401613355565b6116eb600254801590811561141c57506137a2565b33600090815260086020526040902060078101546001600160a01b0316156117f05781516001600160401b0381116103945761172782546134ae565b601f81116117a8575b50602092601f82116001146117625792819293600092611324575050600019600383901b1c191660019190911b179055005b601f1982169383600052806000209160005b868110611790575083600195961061135e57505050811b019055005b91926020600181928685015181550194019201611774565b826000526020600020601f830160051c810191602084106117e6575b601f0160051c01905b8181106117da5750611730565b600081556001016117cd565b90915081906117c4565b60405162461bcd60e51b815260206004820152601c60248201527f4e6f2063616e646964617465206461746120617661696c61626c652e000000006044820152606490fd5b346104b95761184336613441565b92600554916040519161185583613318565b825261185f61375d565b926020830193845260408301948552606083019182526080830195865260a0830190815260c08301916000835260e084019533875261010085019560008752336000526008602052604060002095518051906001600160401b0382116103945781906118cb89546134ae565b601f8111611d38575b50602090601f8311600114611cd357600092611cc8575b50508160011b916000199060031b1c19161786555b51805160018701916001600160401b03821161039457819061192284546134ae565b601f8111611c75575b50602090601f8311600114611c1057600092611c05575b50508160011b916000199060031b1c19161790555b51600285015551805160038501916001600160401b03821161039457819061197f84546134ae565b601f8111611bb2575b50602090601f8311600114611b4d57600092611b42575b50508160011b916000199060031b1c19161790555b6004830195519586516001600160401b038111610394576119d582546134ae565b601f8111611afa575b506020601f8211600114611a905781906007979899600092611a85575b50508160011b916000199060031b1c19161790555b5160058301555160068201559251920180546001600160a01b0319166001600160a01b039390931692909217825551600381101561072d57611a5191613739565b600954600160401b811015610394576109fd816001611a75930160095560096130bb565b611a806005546136f1565b600555005b0151905089806119fb565b601f1982169883600052816000209960005b818110611ae2575091600798999a91846001959410611ac9575b505050811b019055611a10565b015160001960f88460031b161c19169055898080611abc565b838301518c556001909b019a60209384019301611aa2565b826000526020600020601f830160051c81019160208410611b38575b601f0160051c01905b818110611b2c57506119de565b60008155600101611b1f565b9091508190611b16565b01519050898061199f565b60008581528281209350601f198516905b818110611b9a5750908460019594939210611b81575b505050811b0190556119b4565b015160001960f88460031b161c19169055898080611b74565b92936020600181928786015181550195019301611b5e565b909150836000526020600020601f840160051c81019160208510611bfb575b90601f859493920160051c01905b818110611bec5750611988565b60008155849350600101611bdf565b9091508190611bd1565b015190508b80611942565b60008581528281209350601f198516905b818110611c5d5750908460019594939210611c44575b505050811b019055611957565b015160001960f88460031b161c191690558b8080611c37565b92936020600181928786015181550195019301611c21565b909150836000526020600020601f840160051c81019160208510611cbe575b90601f859493920160051c01905b818110611caf575061192b565b60008155849350600101611ca2565b9091508190611c94565b015190508b806118eb565b60008a81528281209350601f198516905b818110611d205750908460019594939210611d07575b505050811b018655611900565b015160001960f88460031b161c191690558b8080611cfa565b92936020600181928786015181550195019301611ce4565b909150886000526020600020601f840160051c81019160208510611d81575b90601f859493920160051c01905b818110611d7257506118d4565b60008155849350600101611d65565b9091508190611d57565b346104b95760203660031901126104b957611da46133ab565b6002544210611f58576003544211611f2057336000526007602052604060002060ff600782015460a01c16600381101561072d57600103611edb5780549160ff8316611e9d5760018060a01b0316600052600860205260406000209060ff600783015460a01c16600381101561072d57600103611e5857600160069360ff191617905501611e3281546136f1565b9055600f54600160401b811015610394576109fd8160016103929301600f55600f6130bb565b60405162461bcd60e51b815260206004820152601a60248201527f43616e646964617465206973206e6f742061636365707465642e0000000000006044820152606490fd5b60405162461bcd60e51b8152602060048201526016602482015275165bdd481a185d9948185b1c9958591e481d9bdd195960521b6044820152606490fd5b60405162461bcd60e51b815260206004820152601e60248201527f596f7520617265206e6f74206120636f6e6669726d656420766f7465722e00006044820152606490fd5b60405162461bcd60e51b815260206004820152601060248201526f159bdd1a5b99c81a185cc8195b99195960821b6044820152606490fd5b60405162461bcd60e51b815260206004820152601a60248201527f566f74696e6720686173206e6f742073746172746564207965740000000000006044820152606490fd5b346104b95760003660031901126104b957600a54611fba816136a1565b9060005b818110611fd357604051806106e485826132b8565b80611fdf600192613085565b838060a01b0391549060031b1c166000526007602052604060002061200e60ff600760405193610f1a85613318565b612018828661363a565b52612023818561363a565b5001611fbe565b346104b95760203660031901126104b957600435600f548110156104b957610e906020916130a0565b346104b95760203660031901126104b957600435600d548110156104b957610e90602091613019565b346104b95760203660031901126104b9576004356120a560018060a01b03600054163314613700565b60045461211e576003548111156120bb57600455005b60405162461bcd60e51b815260206004820152603560248201527f526573756c74207075626c69636174696f6e2074696d65206d75737420626520604482015274616674657220766f74696e6720656e642074696d6560581b6064820152608490fd5b60405162461bcd60e51b815260206004820152602360248201527f526573756c74207075626c69636174696f6e2074696d6520616c7265616479206044820152621cd95d60ea1b6064820152608490fd5b346104b95761217d36613402565b9061219360018060a01b03600054163314613700565b6001600160a01b0381811660008181526008602052604090206007810180549294939092161561239457815460ff60a01b1916600160a11b179091558351600191909101906001600160401b038111610394576121f082546134ae565b601f811161234c575b50602094601f82116001146122e7579481929394956000926122dc575b50508160011b916000199060031b1c19161790555b600d5490600160401b821015610394576102a18260016122509401600d55600d6130bb565b60005b600b548082101561039257826122688361306a565b905460039190911b1c6001600160a01b0316146122885750600101612253565b60001981019250821161037c576102a16122a46122bc9361306a565b905460039190911b1c6001600160a01b03169161306a565b600b54801561036657600019016122d761034c82600b6130bb565b600b55005b015190508580612216565b601f1982169583600052806000209160005b8881106123345750836001959697981061231b575b505050811b01905561222b565b015160001960f88460031b161c1916905585808061230e565b919260206001819286850151815501940192016122f9565b826000526020600020601f830160051c8101916020841061238a575b601f0160051c01905b81811061237e57506121f9565b60008155600101612371565b9091508190612368565b60405162461bcd60e51b815260206004820152601b60248201527f4e6f2063616e646964617465206461746120617661696c61626c6500000000006044820152606490fd5b346104b95760203660031901126104b9576123f26133ab565b6123fa61365a565b5060018060a01b03166000526007602052604060002060076040519161241f83613318565b60ff81541615158352612434600182016134e8565b60208401526002810154604084015261244f600382016134e8565b6060840152612460600482016134e8565b6080840152612471600582016134e8565b60a0840152600681015460c0840152015460e0820160018060a01b03821681526124a660ff61010085019360a01c168361364e565b516001600160a01b03161561251c5751600381101561072d57600019016124df576106e49060405191829160208352602083019061321d565b60405162461bcd60e51b8152602060048201526015602482015274159bdd195c881a5cc81b9bdd081858d8d95c1d1959605a1b6044820152606490fd5b60405162461bcd60e51b815260206004820152600f60248201526e159bdd195c881b9bdd08199bdd5b99608a1b6044820152606490fd5b346104b95760203660031901126104b957600435600c548110156104b957610e90602091613034565b346104b95761258a366133c1565b600a549060208301906000805b8481106126e657506125a8906136a1565b9360009160005b8581106125c457604051806106e489826132b8565b6125cd81613085565b60018060a01b0391549060031b1c1660005260076020526040600020604051906125f682613318565b60ff81541615158252600761260d600183016134e8565b91602084019283526002810154604085015261262b600382016134e8565b606085015261263c600482016134e8565b608085015261264d600582016134e8565b60a0850152600681015460c085015201549061268260ff60e085019360018060a01b038116855260a01c16610100850161364e565b5160208151910120855188201490816126cf575b506126a5575b506001016125af565b846126c8916126b7600194978b61363a565b526126c2818a61363a565b506136f1565b939061269c565b516001600160a01b03858116911614905089612696565b6126ef81613085565b60018060a01b0391549060031b1c16600052600760205260406000206040519061271882613318565b60ff815416151582526127a46007612732600184016134e8565b926020850193845260028101546040860152612750600382016134e8565b6060860152612761600482016134e8565b6080860152612772600582016134e8565b60a0860152600681015460c086015201549261010060ff60e083019560018060a01b038116875260a01c16910161364e565b5160208151910120875186201490816127da575b506127c6575b600101612597565b906127d26001916136f1565b9190506127be565b516001600160a01b038581169116149050876127b8565b346104b9576127ff36613402565b9061281560018060a01b03600054163314613700565b6001600160a01b038181166000818152600760208190526040909120908101805492949390921615612a1857815460ff60a01b1916600160a11b179091558351600591909101906001600160401b0381116103945761287482546134ae565b601f81116129d0575b50602094601f821160011461296b57948192939495600092612960575b50508160011b916000199060031b1c19161790555b600e5490600160401b821015610394576102a18260016128d49401600e55600e6130bb565b60005b600c548082101561039257826128ec83613034565b905460039190911b1c6001600160a01b03161461290c57506001016128d7565b60001981019250821161037c576102a161292861294093613034565b905460039190911b1c6001600160a01b031691613034565b600c548015610366576000190161295b61034c82600c6130bb565b600c55005b01519050858061289a565b601f1982169583600052806000209160005b8881106129b85750836001959697981061299f575b505050811b0190556128af565b015160001960f88460031b161c19169055858080612992565b9192602060018192868501518155019401920161297d565b826000526020600020601f830160051c81019160208410612a0e575b601f0160051c01905b818110612a02575061287d565b600081556001016129f5565b90915081906129ec565b60405162461bcd60e51b815260206004820152601760248201527f4e6f20766f746572206461746120617661696c61626c650000000000000000006044820152606490fd5b346104b957612a6b366133c1565b600954602083019290916000805b848110612baf5750612a8a906135ea565b9360009160005b858110612aa657604051806106e489826131bd565b612aaf81612fe8565b60018060a01b0391549060031b1c1660005260086020526040600020600760405191612ada83613318565b612ae3816134e8565b8352612af1600182016134e8565b602084015260028101546040840152612b0c600382016134e8565b6060840152612b1d600482016134e8565b6080840152600581015460a0840152600681015460c08401520154612b5b60ff60e084019260018060a01b038116845260a01c16610100840161364e565b81516020815191012087518620149081612b98575b50612b7f575b50600101612a91565b84612b91916126b7600194978b61363a565b9390612b76565b516001600160a01b03858116911614905089612b70565b612bb881612fe8565b60018060a01b0391549060031b1c1660005260086020526040600020600760405191612be383613318565b612bec816134e8565b8352612bfa600182016134e8565b602084015260028101546040840152612c15600382016134e8565b6060840152612c26600482016134e8565b6080840152600581015460a0840152600681015460c0840152015490612c6560ff60e083019360018060a01b038116855260a01c16610100830161364e565b516020815191012085518820149081612c9b575b50612c87575b600101612a79565b90612c936001916136f1565b919050612c7f565b516001600160a01b03858116911614905087612c79565b346104b95760003660031901126104b957600b54612ccf816135ea565b9060005b818110612ce857604051806106e485826131bd565b80612cf460019261306a565b838060a01b0391549060031b1c1660005260086020526040600020612d9b60ff600760405193612d2385613318565b612d2c816134e8565b8552612d398782016134e8565b602086015260028101546040860152612d54600382016134e8565b6060860152612d65600482016134e8565b6080860152600581015460a0860152600681015460c08601520154858060a01b03811660e085015260a01c16610100830161364e565b612da5828661363a565b52612db0818561363a565b5001612cd3565b346104b95760203660031901126104b957600435600e548110156104b957610e9060209161304f565b346104b95760003660031901126104b957600c54612dfd816136a1565b9060005b818110612e1657604051806106e485826132b8565b80612e22600192613034565b838060a01b0391549060031b1c1660005260076020526040600020612e5160ff600760405193610f1a85613318565b612e5b828661363a565b52612e66818561363a565b5001612e01565b346104b95760003660031901126104b9576020600254604051908152f35b346104b95760003660031901126104b957600954612ea8816135ea565b9060005b818110612ec157604051806106e485826131bd565b80612ecd600192612fe8565b838060a01b0391549060031b1c1660005260086020526040600020612efc60ff600760405193612d2385613318565b612f06828661363a565b52612f11818561363a565b5001612eac565b346104b95760003660031901126104b9576020600354604051908152f35b346104b95760003660031901126104b957600d54612f53816135ea565b9060005b818110612f6c57604051806106e485826131bd565b80612f78600192613019565b838060a01b0391549060031b1c1660005260086020526040600020612fa760ff600760405193612d2385613318565b612fb1828661363a565b52612fbc818561363a565b5001612f57565b346104b95760203660031901126104b9576004356009548110156104b957610e906020915b60095481101561300357600960005260206000200190600090565b634e487b7160e01b600052603260045260246000fd5b600d5481101561300357600d60005260206000200190600090565b600c5481101561300357600c60005260206000200190600090565b600e5481101561300357600e60005260206000200190600090565b600b5481101561300357600b60005260206000200190600090565b600a5481101561300357600a60005260206000200190600090565b600f5481101561300357600f60005260206000200190600090565b80548210156130035760005260206000200190600090565b919082519283825260005b8481106130ff575050826000602080949584010152601f8019910116010190565b806020809284010151828286010152016130de565b90600382101561072d5752565b906131ba906101008061318861317661315a613148885161012088526101208801906130d3565b602089015187820360208901526130d3565b60408801516040870152606088015186820360608801526130d3565b608087015185820360808701526130d3565b60a0808701519085015260c0808701519085015260e0808701516001600160a01b031690850152940151910190613114565b90565b602081016020825282518091526040820191602060408360051b8301019401926000915b8383106131f057505050505090565b909192939460208061320e600193603f198682030187528951613121565b970193019301919392906131e1565b906131ba908251151581526101008061329061327e61326c613250602089015161012060208901526101208801906130d3565b60408901516040880152606089015187820360608901526130d3565b608088015186820360808801526130d3565b60a087015185820360a08701526130d3565b60c0808701519085015260e0808701516001600160a01b031690850152940151910190613114565b602081016020825282518091526040820191602060408360051b8301019401926000915b8383106132eb57505050505090565b9091929394602080613309600193603f19868203018752895161321d565b970193019301919392906132dc565b61012081019081106001600160401b0382111761039457604052565b90601f801991011681019081106001600160401b0382111761039457604052565b81601f820112156104b9578035906001600160401b0382116103945760405192613389601f8401601f191660200185613334565b828452602083830101116104b957816000926020809301838601378301015290565b600435906001600160a01b03821682036104b957565b60406003198201126104b957600435906001600160401b0382116104b9576133eb91600401613355565b906024356001600160a01b03811681036104b95790565b9060406003198301126104b9576004356001600160a01b03811681036104b95791602435906001600160401b0382116104b9576131ba91600401613355565b9060806003198301126104b9576004356001600160401b0381116104b9578261346c91600401613355565b91602435916044356001600160401b0381116104b9578261348f91600401613355565b91606435906001600160401b0382116104b9576131ba91600401613355565b90600182811c921680156134de575b60208310146134c857565b634e487b7160e01b600052602260045260246000fd5b91607f16916134bd565b90604051918260008254926134fc846134ae565b808452936001811690811561356a5750600114613523575b5061352192500383613334565b565b90506000929192526020600020906000915b81831061354e5750509060206135219282010138613514565b6020919350806001915483858901015201910190918492613535565b90506020925061352194915060ff191682840152151560051b82010138613514565b6001600160401b0381116103945760051b60200190565b604051906135b082613318565b6000610100836060815260606020820152826040820152606080820152606060808201528260a08201528260c08201528260e08201520152565b906135f48261358c565b6136016040519182613334565b8281528092613612601f199161358c565b019060005b82811061362357505050565b60209061362e6135a3565b82828501015201613617565b80518210156130035760209160051b010190565b600382101561072d5752565b6040519061366782613318565b6000610100838281526060602082015282604082015260608082015260606080820152606060a08201528260c08201528260e08201520152565b906136ab8261358c565b6136b86040519182613334565b82815280926136c9601f199161358c565b019060005b8281106136da57505050565b6020906136e561365a565b828285010152016136ce565b600019811461037c5760010190565b1561370757565b60405162461bcd60e51b815260206004820152600a60248201526927b7363c9037bbb732b960b11b6044820152606490fd5b90600381101561072d57815460ff60a01b191660a09190911b60ff60a01b16179055565b6040519061376c606083613334565b60218252601b60fa1b6040837f526567697374726174696f6e206973206177616974696e6720617070726f766160208201520152565b156137a957565b60405162461bcd60e51b815260206004820152602160248201527f43616e6e6f74206d6f6469667920616674657220766f74696e672073746172746044820152607360f81b6064820152608490fd5b6138006135a3565b506138096135a3565b600b546000805b82811061381d5750505090565b6138268161306a565b60018060a01b0391549060031b1c16600052600860205260406000206040519061384f82613318565b613858816134e8565b8252613866600182016134e8565b602083015260028101546040830152613881600382016134e8565b6060830152613892600482016134e8565b6080830152600581015460a08301526138d360ff600760068401549360c08601948552015460018060a01b03811660e086015260a01c16610100840161364e565b518381116138e6575b5050600101613810565b90945091506001386138dc565b6138fb6135a3565b50600b54156139f8576003544210613915576131ba6137f8565b60405161392181613318565b6040805161392f8282613334565b600f81526e139bdd08191958da591959081e595d608a1b60208201528252805161395a606082613334565b603681527f506c65617365207761697420756e74696c2074686520656c656374696f6e2065602082015275373239903a379039b2b2903a3432903bb4b73732b91760511b82820152602083015260008183015280516139ba602082613334565b600081526060830152516139cf602082613334565b600081526080820152600060a0820152600060c0820152600060e0820152600061010082015290565b60405162461bcd60e51b8152602060048201526024808201527f4e6f2043616e6469646174657320616363657074656420666f7220656c65637460448201526334b7b71760e11b6064820152608490fdfea26469706673582212209b4ea82e06b9ad4d09db40638f91d0cf1d0c1b055921a9083a35000d9800729564736f6c634300081c0033",
  "linkReferences": {},
  "deployedLinkReferences": {}
}