{
  "_format": "hh-sol-artifact-1",
  "contractName": "VotingSystem",
  "sourceName": "contracts/VotingSystem.sol",
  "abi": [
    {
      "inputs": [
        {
          "internalType": "string",
          "name": "_name",
          "type": "string"
        }
      ],
      "stateMutability": "nonpayable",
      "type": "constructor"
    },
    {
      "inputs": [],
      "name": "CurrentVotingStatus",
      "outputs": [
        {
          "components": [
            {
              "internalType": "string",
              "name": "name",
              "type": "string"
            },
            {
              "internalType": "string",
              "name": "message",
              "type": "string"
            },
            {
              "internalType": "uint256",
              "name": "age",
              "type": "uint256"
            },
            {
              "internalType": "string",
              "name": "email",
              "type": "string"
            },
            {
              "internalType": "string",
              "name": "phone",
              "type": "string"
            },
            {
              "internalType": "uint256",
              "name": "registeredId",
              "type": "uint256"
            },
            {
              "internalType": "uint256",
              "name": "voteCalculation",
              "type": "uint256"
            },
            {
              "internalType": "address",
              "name": "candidatesAddress",
              "type": "address"
            },
            {
              "internalType": "enum VotingSystem.ConfirmationStatus",
              "name": "status",
              "type": "uint8"
            }
          ],
          "internalType": "struct VotingSystem.Candidate",
          "name": "",
          "type": "tuple"
        }
      ],
      "stateMutability": "view",
      "type": "function"
    },
    {
      "inputs": [],
      "name": "ListofAcceptedCandidates",
      "outputs": [
        {
          "components": [
            {
              "internalType": "string",
              "name": "name",
              "type": "string"
            },
            {
              "internalType": "string",
              "name": "message",
              "type": "string"
            },
            {
              "internalType": "uint256",
              "name": "age",
              "type": "uint256"
            },
            {
              "internalType": "string",
              "name": "email",
              "type": "string"
            },
            {
              "internalType": "string",
              "name": "phone",
              "type": "string"
            },
            {
              "internalType": "uint256",
              "name": "registeredId",
              "type": "uint256"
            },
            {
              "internalType": "uint256",
              "name": "voteCalculation",
              "type": "uint256"
            },
            {
              "internalType": "address",
              "name": "candidatesAddress",
              "type": "address"
            },
            {
              "internalType": "enum VotingSystem.ConfirmationStatus",
              "name": "status",
              "type": "uint8"
            }
          ],
          "internalType": "struct VotingSystem.Candidate[]",
          "name": "",
          "type": "tuple[]"
        }
      ],
      "stateMutability": "view",
      "type": "function"
    },
    {
      "inputs": [],
      "name": "ListofAcceptedVoters",
      "outputs": [
        {
          "components": [
            {
              "internalType": "bool",
              "name": "alreadyVoted",
              "type": "bool"
            },
            {
              "internalType": "string",
              "name": "name",
              "type": "string"
            },
            {
              "internalType": "uint256",
              "name": "age",
              "type": "uint256"
            },
            {
              "internalType": "string",
              "name": "email",
              "type": "string"
            },
            {
              "internalType": "string",
              "name": "phone",
              "type": "string"
            },
            {
              "internalType": "string",
              "name": "message",
              "type": "string"
            },
            {
              "internalType": "uint256",
              "name": "registeredId",
              "type": "uint256"
            },
            {
              "internalType": "address",
              "name": "votersAddress",
              "type": "address"
            },
            {
              "internalType": "enum VotingSystem.ConfirmationStatus",
              "name": "status",
              "type": "uint8"
            }
          ],
          "internalType": "struct VotingSystem.Voter[]",
          "name": "",
          "type": "tuple[]"
        }
      ],
      "stateMutability": "view",
      "type": "function"
    },
    {
      "inputs": [],
      "name": "ListofRegisteredCandidates",
      "outputs": [
        {
          "components": [
            {
              "internalType": "string",
              "name": "name",
              "type": "string"
            },
            {
              "internalType": "string",
              "name": "message",
              "type": "string"
            },
            {
              "internalType": "uint256",
              "name": "age",
              "type": "uint256"
            },
            {
              "internalType": "string",
              "name": "email",
              "type": "string"
            },
            {
              "internalType": "string",
              "name": "phone",
              "type": "string"
            },
            {
              "internalType": "uint256",
              "name": "registeredId",
              "type": "uint256"
            },
            {
              "internalType": "uint256",
              "name": "voteCalculation",
              "type": "uint256"
            },
            {
              "internalType": "address",
              "name": "candidatesAddress",
              "type": "address"
            },
            {
              "internalType": "enum VotingSystem.ConfirmationStatus",
              "name": "status",
              "type": "uint8"
            }
          ],
          "internalType": "struct VotingSystem.Candidate[]",
          "name": "",
          "type": "tuple[]"
        }
      ],
      "stateMutability": "view",
      "type": "function"
    },
    {
      "inputs": [],
      "name": "ListofRegisteredVoters",
      "outputs": [
        {
          "components": [
            {
              "internalType": "bool",
              "name": "alreadyVoted",
              "type": "bool"
            },
            {
              "internalType": "string",
              "name": "name",
              "type": "string"
            },
            {
              "internalType": "uint256",
              "name": "age",
              "type": "uint256"
            },
            {
              "internalType": "string",
              "name": "email",
              "type": "string"
            },
            {
              "internalType": "string",
              "name": "phone",
              "type": "string"
            },
            {
              "internalType": "string",
              "name": "message",
              "type": "string"
            },
            {
              "internalType": "uint256",
              "name": "registeredId",
              "type": "uint256"
            },
            {
              "internalType": "address",
              "name": "votersAddress",
              "type": "address"
            },
            {
              "internalType": "enum VotingSystem.ConfirmationStatus",
              "name": "status",
              "type": "uint8"
            }
          ],
          "internalType": "struct VotingSystem.Voter[]",
          "name": "",
          "type": "tuple[]"
        }
      ],
      "stateMutability": "view",
      "type": "function"
    },
    {
      "inputs": [],
      "name": "ListofRejectedCandidates",
      "outputs": [
        {
          "components": [
            {
              "internalType": "string",
              "name": "name",
              "type": "string"
            },
            {
              "internalType": "string",
              "name": "message",
              "type": "string"
            },
            {
              "internalType": "uint256",
              "name": "age",
              "type": "uint256"
            },
            {
              "internalType": "string",
              "name": "email",
              "type": "string"
            },
            {
              "internalType": "string",
              "name": "phone",
              "type": "string"
            },
            {
              "internalType": "uint256",
              "name": "registeredId",
              "type": "uint256"
            },
            {
              "internalType": "uint256",
              "name": "voteCalculation",
              "type": "uint256"
            },
            {
              "internalType": "address",
              "name": "candidatesAddress",
              "type": "address"
            },
            {
              "internalType": "enum VotingSystem.ConfirmationStatus",
              "name": "status",
              "type": "uint8"
            }
          ],
          "internalType": "struct VotingSystem.Candidate[]",
          "name": "",
          "type": "tuple[]"
        }
      ],
      "stateMutability": "view",
      "type": "function"
    },
    {
      "inputs": [],
      "name": "ListofRejectedVoters",
      "outputs": [
        {
          "components": [
            {
              "internalType": "bool",
              "name": "alreadyVoted",
              "type": "bool"
            },
            {
              "internalType": "string",
              "name": "name",
              "type": "string"
            },
            {
              "internalType": "uint256",
              "name": "age",
              "type": "uint256"
            },
            {
              "internalType": "string",
              "name": "email",
              "type": "string"
            },
            {
              "internalType": "string",
              "name": "phone",
              "type": "string"
            },
            {
              "internalType": "string",
              "name": "message",
              "type": "string"
            },
            {
              "internalType": "uint256",
              "name": "registeredId",
              "type": "uint256"
            },
            {
              "internalType": "address",
              "name": "votersAddress",
              "type": "address"
            },
            {
              "internalType": "enum VotingSystem.ConfirmationStatus",
              "name": "status",
              "type": "uint8"
            }
          ],
          "internalType": "struct VotingSystem.Voter[]",
          "name": "",
          "type": "tuple[]"
        }
      ],
      "stateMutability": "view",
      "type": "function"
    },
    {
      "inputs": [
        {
          "internalType": "uint256",
          "name": "",
          "type": "uint256"
        }
      ],
      "name": "acceptedCandidates",
      "outputs": [
        {
          "internalType": "address",
          "name": "",
          "type": "address"
        }
      ],
      "stateMutability": "view",
      "type": "function"
    },
    {
      "inputs": [
        {
          "internalType": "uint256",
          "name": "",
          "type": "uint256"
        }
      ],
      "name": "acceptedVoters",
      "outputs": [
        {
          "internalType": "address",
          "name": "",
          "type": "address"
        }
      ],
      "stateMutability": "view",
      "type": "function"
    },
    {
      "inputs": [
        {
          "internalType": "address",
          "name": "_candidatesAddress",
          "type": "address"
        },
        {
          "internalType": "string",
          "name": "_message",
          "type": "string"
        }
      ],
      "name": "approveCandidate",
      "outputs": [],
      "stateMutability": "nonpayable",
      "type": "function"
    },
    {
      "inputs": [
        {
          "internalType": "address",
          "name": "_votersAddress",
          "type": "address"
        },
        {
          "internalType": "string",
          "name": "_message",
          "type": "string"
        }
      ],
      "name": "approveVoter",
      "outputs": [],
      "stateMutability": "nonpayable",
      "type": "function"
    },
    {
      "inputs": [
        {
          "internalType": "address",
          "name": "",
          "type": "address"
        }
      ],
      "name": "candidates",
      "outputs": [
        {
          "internalType": "string",
          "name": "name",
          "type": "string"
        },
        {
          "internalType": "string",
          "name": "message",
          "type": "string"
        },
        {
          "internalType": "uint256",
          "name": "age",
          "type": "uint256"
        },
        {
          "internalType": "string",
          "name": "email",
          "type": "string"
        },
        {
          "internalType": "string",
          "name": "phone",
          "type": "string"
        },
        {
          "internalType": "uint256",
          "name": "registeredId",
          "type": "uint256"
        },
        {
          "internalType": "uint256",
          "name": "voteCalculation",
          "type": "uint256"
        },
        {
          "internalType": "address",
          "name": "candidatesAddress",
          "type": "address"
        },
        {
          "internalType": "enum VotingSystem.ConfirmationStatus",
          "name": "status",
          "type": "uint8"
        }
      ],
      "stateMutability": "view",
      "type": "function"
    },
    {
      "inputs": [
        {
          "internalType": "uint256",
          "name": "",
          "type": "uint256"
        }
      ],
      "name": "candidatesRegistered",
      "outputs": [
        {
          "internalType": "address",
          "name": "",
          "type": "address"
        }
      ],
      "stateMutability": "view",
      "type": "function"
    },
    {
      "inputs": [
        {
          "internalType": "address",
          "name": "newOwner",
          "type": "address"
        }
      ],
      "name": "changeOwner",
      "outputs": [],
      "stateMutability": "nonpayable",
      "type": "function"
    },
    {
      "inputs": [],
      "name": "electionName",
      "outputs": [
        {
          "internalType": "string",
          "name": "",
          "type": "string"
        }
      ],
      "stateMutability": "view",
      "type": "function"
    },
    {
      "inputs": [
        {
          "internalType": "address",
          "name": "_candidatesAddress",
          "type": "address"
        }
      ],
      "name": "findCandidate",
      "outputs": [
        {
          "components": [
            {
              "internalType": "string",
              "name": "name",
              "type": "string"
            },
            {
              "internalType": "string",
              "name": "message",
              "type": "string"
            },
            {
              "internalType": "uint256",
              "name": "age",
              "type": "uint256"
            },
            {
              "internalType": "string",
              "name": "email",
              "type": "string"
            },
            {
              "internalType": "string",
              "name": "phone",
              "type": "string"
            },
            {
              "internalType": "uint256",
              "name": "registeredId",
              "type": "uint256"
            },
            {
              "internalType": "uint256",
              "name": "voteCalculation",
              "type": "uint256"
            },
            {
              "internalType": "address",
              "name": "candidatesAddress",
              "type": "address"
            },
            {
              "internalType": "enum VotingSystem.ConfirmationStatus",
              "name": "status",
              "type": "uint8"
            }
          ],
          "internalType": "struct VotingSystem.Candidate",
          "name": "",
          "type": "tuple"
        }
      ],
      "stateMutability": "view",
      "type": "function"
    },
    {
      "inputs": [
        {
          "internalType": "address",
          "name": "_votersAddress",
          "type": "address"
        }
      ],
      "name": "findVoter",
      "outputs": [
        {
          "components": [
            {
              "internalType": "bool",
              "name": "alreadyVoted",
              "type": "bool"
            },
            {
              "internalType": "string",
              "name": "name",
              "type": "string"
            },
            {
              "internalType": "uint256",
              "name": "age",
              "type": "uint256"
            },
            {
              "internalType": "string",
              "name": "email",
              "type": "string"
            },
            {
              "internalType": "string",
              "name": "phone",
              "type": "string"
            },
            {
              "internalType": "string",
              "name": "message",
              "type": "string"
            },
            {
              "internalType": "uint256",
              "name": "registeredId",
              "type": "uint256"
            },
            {
              "internalType": "address",
              "name": "votersAddress",
              "type": "address"
            },
            {
              "internalType": "enum VotingSystem.ConfirmationStatus",
              "name": "status",
              "type": "uint8"
            }
          ],
          "internalType": "struct VotingSystem.Voter",
          "name": "",
          "type": "tuple"
        }
      ],
      "stateMutability": "view",
      "type": "function"
    },
    {
      "inputs": [],
      "name": "getAllVotersWhoCasted",
      "outputs": [
        {
          "components": [
            {
              "internalType": "bool",
              "name": "alreadyVoted",
              "type": "bool"
            },
            {
              "internalType": "string",
              "name": "name",
              "type": "string"
            },
            {
              "internalType": "uint256",
              "name": "age",
              "type": "uint256"
            },
            {
              "internalType": "string",
              "name": "email",
              "type": "string"
            },
            {
              "internalType": "string",
              "name": "phone",
              "type": "string"
            },
            {
              "internalType": "string",
              "name": "message",
              "type": "string"
            },
            {
              "internalType": "uint256",
              "name": "registeredId",
              "type": "uint256"
            },
            {
              "internalType": "address",
              "name": "votersAddress",
              "type": "address"
            },
            {
              "internalType": "enum VotingSystem.ConfirmationStatus",
              "name": "status",
              "type": "uint8"
            }
          ],
          "internalType": "struct VotingSystem.Voter[]",
          "name": "",
          "type": "tuple[]"
        }
      ],
      "stateMutability": "view",
      "type": "function"
    },
    {
      "inputs": [],
      "name": "owner",
      "outputs": [
        {
          "internalType": "address",
          "name": "",
          "type": "address"
        }
      ],
      "stateMutability": "view",
      "type": "function"
    },
    {
      "inputs": [
        {
          "internalType": "string",
          "name": "_name",
          "type": "string"
        },
        {
          "internalType": "uint256",
          "name": "_age",
          "type": "uint256"
        },
        {
          "internalType": "string",
          "name": "_email",
          "type": "string"
        },
        {
          "internalType": "string",
          "name": "_phone",
          "type": "string"
        }
      ],
      "name": "registerCandidate",
      "outputs": [],
      "stateMutability": "nonpayable",
      "type": "function"
    },
    {
      "inputs": [
        {
          "internalType": "string",
          "name": "_name",
          "type": "string"
        },
        {
          "internalType": "uint256",
          "name": "_age",
          "type": "uint256"
        },
        {
          "internalType": "string",
          "name": "_email",
          "type": "string"
        },
        {
          "internalType": "string",
          "name": "_phone",
          "type": "string"
        }
      ],
      "name": "registerVoter",
      "outputs": [],
      "stateMutability": "nonpayable",
      "type": "function"
    },
    {
      "inputs": [
        {
          "internalType": "address",
          "name": "_candidatesAddress",
          "type": "address"
        },
        {
          "internalType": "string",
          "name": "_message",
          "type": "string"
        }
      ],
      "name": "rejectCandidate",
      "outputs": [],
      "stateMutability": "nonpayable",
      "type": "function"
    },
    {
      "inputs": [
        {
          "internalType": "address",
          "name": "_votersAddress",
          "type": "address"
        },
        {
          "internalType": "string",
          "name": "_message",
          "type": "string"
        }
      ],
      "name": "rejectVoter",
      "outputs": [],
      "stateMutability": "nonpayable",
      "type": "function"
    },
    {
      "inputs": [
        {
          "internalType": "uint256",
          "name": "",
          "type": "uint256"
        }
      ],
      "name": "rejectedCandidates",
      "outputs": [
        {
          "internalType": "address",
          "name": "",
          "type": "address"
        }
      ],
      "stateMutability": "view",
      "type": "function"
    },
    {
      "inputs": [
        {
          "internalType": "uint256",
          "name": "",
          "type": "uint256"
        }
      ],
      "name": "rejectedVoters",
      "outputs": [
        {
          "internalType": "address",
          "name": "",
          "type": "address"
        }
      ],
      "stateMutability": "view",
      "type": "function"
    },
    {
      "inputs": [],
      "name": "resetContract",
      "outputs": [],
      "stateMutability": "nonpayable",
      "type": "function"
    },
    {
      "inputs": [],
      "name": "resultPublicationTime",
      "outputs": [
        {
          "internalType": "uint256",
          "name": "",
          "type": "uint256"
        }
      ],
      "stateMutability": "view",
      "type": "function"
    },
    {
      "inputs": [
        {
          "internalType": "string",
          "name": "_name",
          "type": "string"
        },
        {
          "internalType": "address",
          "name": "_addr",
          "type": "address"
        }
      ],
      "name": "searchCandidate",
      "outputs": [
        {
          "components": [
            {
              "internalType": "string",
              "name": "name",
              "type": "string"
            },
            {
              "internalType": "string",
              "name": "message",
              "type": "string"
            },
            {
              "internalType": "uint256",
              "name": "age",
              "type": "uint256"
            },
            {
              "internalType": "string",
              "name": "email",
              "type": "string"
            },
            {
              "internalType": "string",
              "name": "phone",
              "type": "string"
            },
            {
              "internalType": "uint256",
              "name": "registeredId",
              "type": "uint256"
            },
            {
              "internalType": "uint256",
              "name": "voteCalculation",
              "type": "uint256"
            },
            {
              "internalType": "address",
              "name": "candidatesAddress",
              "type": "address"
            },
            {
              "internalType": "enum VotingSystem.ConfirmationStatus",
              "name": "status",
              "type": "uint8"
            }
          ],
          "internalType": "struct VotingSystem.Candidate[]",
          "name": "",
          "type": "tuple[]"
        }
      ],
      "stateMutability": "view",
      "type": "function"
    },
    {
      "inputs": [
        {
          "internalType": "string",
          "name": "_name",
          "type": "string"
        },
        {
          "internalType": "address",
          "name": "_addr",
          "type": "address"
        }
      ],
      "name": "searchVoter",
      "outputs": [
        {
          "components": [
            {
              "internalType": "bool",
              "name": "alreadyVoted",
              "type": "bool"
            },
            {
              "internalType": "string",
              "name": "name",
              "type": "string"
            },
            {
              "internalType": "uint256",
              "name": "age",
              "type": "uint256"
            },
            {
              "internalType": "string",
              "name": "email",
              "type": "string"
            },
            {
              "internalType": "string",
              "name": "phone",
              "type": "string"
            },
            {
              "internalType": "string",
              "name": "message",
              "type": "string"
            },
            {
              "internalType": "uint256",
              "name": "registeredId",
              "type": "uint256"
            },
            {
              "internalType": "address",
              "name": "votersAddress",
              "type": "address"
            },
            {
              "internalType": "enum VotingSystem.ConfirmationStatus",
              "name": "status",
              "type": "uint8"
            }
          ],
          "internalType": "struct VotingSystem.Voter[]",
          "name": "",
          "type": "tuple[]"
        }
      ],
      "stateMutability": "view",
      "type": "function"
    },
    {
      "inputs": [
        {
          "internalType": "uint256",
          "name": "_resultPublicationTime",
          "type": "uint256"
        }
      ],
      "name": "setResultPublicationTime",
      "outputs": [],
      "stateMutability": "nonpayable",
      "type": "function"
    },
    {
      "inputs": [
        {
          "internalType": "uint256",
          "name": "_votingStartTime",
          "type": "uint256"
        },
        {
          "internalType": "uint256",
          "name": "_votingEndTime",
          "type": "uint256"
        }
      ],
      "name": "startendVoting",
      "outputs": [],
      "stateMutability": "nonpayable",
      "type": "function"
    },
    {
      "inputs": [
        {
          "internalType": "string",
          "name": "_name",
          "type": "string"
        }
      ],
      "name": "updateCandidate",
      "outputs": [],
      "stateMutability": "nonpayable",
      "type": "function"
    },
    {
      "inputs": [
        {
          "internalType": "string",
          "name": "_name",
          "type": "string"
        }
      ],
      "name": "updateVoter",
      "outputs": [],
      "stateMutability": "nonpayable",
      "type": "function"
    },
    {
      "inputs": [
        {
          "internalType": "address",
          "name": "_candidatesAddress",
          "type": "address"
        }
      ],
      "name": "vote",
      "outputs": [],
      "stateMutability": "nonpayable",
      "type": "function"
    },
    {
      "inputs": [
        {
          "internalType": "address",
          "name": "",
          "type": "address"
        }
      ],
      "name": "voters",
      "outputs": [
        {
          "internalType": "bool",
          "name": "alreadyVoted",
          "type": "bool"
        },
        {
          "internalType": "string",
          "name": "name",
          "type": "string"
        },
        {
          "internalType": "uint256",
          "name": "age",
          "type": "uint256"
        },
        {
          "internalType": "string",
          "name": "email",
          "type": "string"
        },
        {
          "internalType": "string",
          "name": "phone",
          "type": "string"
        },
        {
          "internalType": "string",
          "name": "message",
          "type": "string"
        },
        {
          "internalType": "uint256",
          "name": "registeredId",
          "type": "uint256"
        },
        {
          "internalType": "address",
          "name": "votersAddress",
          "type": "address"
        },
        {
          "internalType": "enum VotingSystem.ConfirmationStatus",
          "name": "status",
          "type": "uint8"
        }
      ],
      "stateMutability": "view",
      "type": "function"
    },
    {
      "inputs": [
        {
          "internalType": "uint256",
          "name": "",
          "type": "uint256"
        }
      ],
      "name": "votersRegistered",
      "outputs": [
        {
          "internalType": "address",
          "name": "",
          "type": "address"
        }
      ],
      "stateMutability": "view",
      "type": "function"
    },
    {
      "inputs": [
        {
          "internalType": "uint256",
          "name": "",
          "type": "uint256"
        }
      ],
      "name": "votersWhoCasted",
      "outputs": [
        {
          "internalType": "address",
          "name": "",
          "type": "address"
        }
      ],
      "stateMutability": "view",
      "type": "function"
    },
    {
      "inputs": [],
      "name": "votingEndTime",
      "outputs": [
        {
          "internalType": "uint256",
          "name": "",
          "type": "uint256"
        }
      ],
      "stateMutability": "view",
      "type": "function"
    },
    {
      "inputs": [],
      "name": "votingStartTime",
      "outputs": [
        {
          "internalType": "uint256",
          "name": "",
          "type": "uint256"
        }
      ],
      "stateMutability": "view",
      "type": "function"
    },
    {
      "inputs": [],
      "name": "winningCandidate",
      "outputs": [
        {
          "components": [
            {
              "internalType": "string",
              "name": "name",
              "type": "string"
            },
            {
              "internalType": "string",
              "name": "message",
              "type": "string"
            },
            {
              "internalType": "uint256",
              "name": "age",
              "type": "uint256"
            },
            {
              "internalType": "string",
              "name": "email",
              "type": "string"
            },
            {
              "internalType": "string",
              "name": "phone",
              "type": "string"
            },
            {
              "internalType": "uint256",
              "name": "registeredId",
              "type": "uint256"
            },
            {
              "internalType": "uint256",
              "name": "voteCalculation",
              "type": "uint256"
            },
            {
              "internalType": "address",
              "name": "candidatesAddress",
              "type": "address"
            },
            {
              "internalType": "enum VotingSystem.ConfirmationStatus",
              "name": "status",
              "type": "uint8"
            }
          ],
          "internalType": "struct VotingSystem.Candidate",
          "name": "",
          "type": "tuple"
        }
      ],
      "stateMutability": "view",
      "type": "function"
    }
  ],
  "bytecode": "0x60806040523461023b57613de28038038061001981610240565b92833981019060208183031261023b578051906001600160401b03821161023b570181601f8201121561023b578051906001600160401b0382116102105761006a601f8301601f1916602001610240565b928284526020838301011161023b5760005b82811061022657600083850160200181905280546001600160a01b03191633179055835184906001600160401b03811161021057600154600181811c91168015610206575b60208210146101f057601f811161018b575b50602091601f82116001146101275791819260009261011c575b50508160011b916000199060031b1c1916176001555b60016005556001600655604051613b7c90816102668239f35b0151905082806100ed565b601f198216926001600052806000209160005b8581106101735750836001951061015a575b505050811b01600155610103565b015160001960f88460031b161c1916905582808061014c565b9192602060018192868501518155019401920161013a565b60016000527fb10e2d527612073b26eecdfd717e6a320cf44b4afac2b0732d9fcbe2b7fa0cf6601f830160051c810191602084106101e6575b601f0160051c01905b8181106101da57506100d3565b600081556001016101cd565b90915081906101c4565b634e487b7160e01b600052602260045260246000fd5b90607f16906100c1565b634e487b7160e01b600052604160045260246000fd5b8060208092840101518282870101520161007c565b600080fd5b6040519190601f01601f191682016001600160401b038111838210176102105760405256fe6080604052600436101561001257600080fd5b60003560e01c80630366ac3714613015578063073f966d14612f885780631ea736e014612f6a5780631ee9367c14612edd5780632019a60814612ebf57806323a2b2ed14612e325780633afa3e0714612e095780633cfde26c14612d04578063429b0b2214612aaf5780634a2846a8146128975780634d867f4e1461262257806353dd128c146125f957806357f3a8e51461247f57806359632c22146122695780635b45cfca146121765780635e894b121461214d5780635f1bc34e1461212457806360fc4e32146120975780636dd7d8ea14611e8557806371565d2e14611a9057806379432db51461194f5780637eb21b511461171857806382ff2aeb146115a2578063849c56571461157957806385e8e7a7146114985780638987cb321461140b5780638ab66a90146113185780638da5cb5b146112ef578063964a43b9146111e65780639e7a8145146111a4578063a3ec138d146110a8578063a6f9dae114611006578063ac94ba4c14610fe8578063b181a8fc14610be1578063bab912a214610bc5578063cd6cf31114610782578063d28178d714610752578063dbf7be47146105b7578063f33698f1146104925763fad761d3146101d457600080fd5b3461048d576101e236613454565b906101f860018060a01b03600054163314613752565b6001600160a01b03818116600081815260076020819052604090912090810180549294939092161561043657815460ff60a01b1916600160a01b179091558351600591909101906001600160401b0381116103b0576102618161025b8454613500565b846137c6565b602094601f82116001146103d1576102959293949582916000926103c6575b50508160011b916000199060031b1c19161790565b90555b600c5490600160401b8210156103b0576102bd8260016102e19401600c55600c61310d565b9080546001600160a01b0360039390931b83811b199091169290931690921b179055565b60005b600e54808210156103ae57826102f9836130a1565b905460039190911b1c6001600160a01b03161461031957506001016102e4565b600019810192508211610398576102bd61033561034d936130a1565b905460039190911b1c6001600160a01b0316916130a1565b600e548015610382576000190161037d61036882600e61310d565b81549060018060a01b039060031b1b19169055565b600e55005b634e487b7160e01b600052603160045260246000fd5b634e487b7160e01b600052601160045260246000fd5b005b634e487b7160e01b600052604160045260246000fd5b015190503880610280565b601f1982169583600052806000209160005b88811061041e57508360019596979810610405575b505050811b019055610298565b015160001960f88460031b161c191690553880806103f8565b919260206001819286850151815501940192016103e3565b60405162461bcd60e51b815260206004820152602960248201527f5468697320766f74657220646f6573206e6f742061707065617220696e206f75604482015268391039bcb9ba32b69760b91b6064820152608490fd5b600080fd5b3461048d57604036600319011261048d57600435602435906104bf60018060a01b03600054163314613752565b600254610572574281111561052e57818110156104de57600255600355005b60405162461bcd60e51b815260206004820152602260248201527f53746172742074696d65206d757374206265206265666f726520656e642074696044820152616d6560f01b6064820152608490fd5b606460405162461bcd60e51b815260206004820152602060248201527f53746172742074696d65206d75737420626520696e20746865206675747572656044820152fd5b60405162461bcd60e51b815260206004820152601860248201527f566f74696e6720616c7265616479207363686564756c656400000000000000006044820152606490fd5b3461048d57602036600319011261048d576105d06133fd565b6105d86135f5565b5060018060a01b0316600052600860205260406000206007604051916105fd8361336a565b6106068161353a565b83526106146001820161353a565b60208401526002810154604084015261062f6003820161353a565b60608401526106406004820161353a565b6080840152600581015460a0840152600681015460c0840152015460e0820160018060a01b038216815261067f60ff61010085019360a01c16836136a0565b516001600160a01b0316156107175751600381101561070157600019016106bc576106b890604051918291602083526020830190613173565b0390f35b60405162461bcd60e51b815260206004820152601960248201527f43616e646964617465206973206e6f74206163636570746564000000000000006044820152606490fd5b634e487b7160e01b600052602160045260246000fd5b60405162461bcd60e51b815260206004820152601360248201527210d85b991a59185d19481b9bdd08199bdd5b99606a1b6044820152606490fd5b3461048d57600036600319011261048d576106b861076e6139f0565b604051918291602083526020830190613173565b3461048d5761079036613493565b600693919354604051916107a38361336a565b60008352602083019384526040830194855260608301958652608083019081526107cb61380b565b9560a0840196875260c0840192835260e08401953387526101008501956000875233600052600760205260406000209551151560ff801988541691161786556001860190518051906001600160401b0382116103b0576108358261082f8554613500565b856137c6565b602090601f8311600114610b5e57610865929160009183610b535750508160011b916000199060031b1c19161790565b90555b51600285015551805160038501916001600160401b0382116103b0576108928261082f8554613500565b602090601f8311600114610aec576108c2929160009183610ae15750508160011b916000199060031b1c19161790565b90555b51805160048401916001600160401b0382116103b0576108e98261082f8554613500565b602090601f8311600114610a7a57610919929160009183610a055750508160011b916000199060031b1c19161790565b90555b6005820194519485516001600160401b0381116103b0576109418161025b8454613500565b6020601f8211600114610a10579080610975926007979899600092610a055750508160011b916000199060031b1c19161790565b90555b5160068201559251920180546001600160a01b0319166001600160a01b0393909316929092178255516003811015610701576109b39161378b565b600a54600160401b8110156103b0576109d78160016109f59301600a55600a61310d565b81543360039290921b91821b6001600160a01b0390921b1916179055565b610a00600654613743565b600655005b015190508980610280565b601f1982169783600052816000209860005b818110610a62575091600797989991846001959410610a49575b505050811b019055610978565b015160001960f88460031b161c19169055888080610a3c565b838301518b556001909a019960209384019301610a22565b90601f1983169184600052816000209260005b818110610ac95750908460019594939210610ab0575b505050811b01905561091c565b015160001960f88460031b161c19169055888080610aa3565b92936020600181928786015181550195019301610a8d565b015190508a80610280565b90601f1983169184600052816000209260005b818110610b3b5750908460019594939210610b22575b505050811b0190556108c5565b015160001960f88460031b161c19169055898080610b15565b92936020600181928786015181550195019301610aff565b015190508c80610280565b90601f1983169184600052816000209260005b818110610bad5750908460019594939210610b94575b505050811b019055610868565b015160001960f88460031b161c191690558b8080610b87565b92936020600181928786015181550195019301610b71565b3461048d57600036600319011261048d576106b861076e6138f5565b3461048d57600036600319011261048d57610c0760018060a01b03600054163314613752565b6003548015159081610fde575b5015610f7f57610c25600154613500565b601f8111610f40575b50600060015560006002556000600355600060045560005b600954811015610cc05780610c5c60019261303a565b838060a01b0391549060031b1c1660005260086020526000600760408220610c83816138a6565b610c8e8582016138a6565b826002820155610ca0600382016138a6565b610cac600482016138a6565b826005820155826006820155015501610c46565b600954600060095580610f07575b50600b546000600b5580610ece575b50600d546000600d5580610e95575b5060005b600a54811015610d6a5780610d066001926130d7565b838060a01b0391549060031b1c1660005260076020526000600760408220828155610d328582016138a6565b826002820155610d44600382016138a6565b610d50600482016138a6565b610d5c600582016138a6565b826006820155015501610cf0565b600a546000600a5580610e5c575b50600c546000600c5580610e23575b50600e546000600e5580610dea575b50600f546000600f5580610db1575b60016005819055600655005b600f600052610de4907f8d1108e10bcb7c27dddfc02ed9d693a074039d026cf4ea4240b40f7d581ac802908101906137af565b80610da5565b600e600052610e1d907fbb7b4a454dc3493923482f07822329ed19e8244eff582cc204f8554c3620c3fd908101906137af565b80610d96565b600c600052610e56907fdf6966c971051c3d54ec59162606531493a51404a002842f56009d7e5cf4a8c7908101906137af565b80610d87565b600a600052610e8f907fc65a7bb8d6351c1cf70c95a316cc6a92839c986682d98bc35f958f4883f9d2a8908101906137af565b80610d78565b600d600052610ec8907fd7b6990105719101dabeb77144f2a3385c8033acd3af97e9423a695e81ad1eb5908101906137af565b80610cec565b600b600052610f01907f0175b7a638427703f0dbe7bb9bbf987a2551717b34e79f33b5b1008d1fa01db9908101906137af565b80610cdd565b6009600052610f3a907f6e1540171b6c0c960b71a7020d9f60077f6af931a8bbf590da0223dacf75c7af908101906137af565b80610cce565b6001600052610f7990601f0160051c7fb10e2d527612073b26eecdfd717e6a320cf44b4afac2b0732d9fcbe2b7fa0cf6908101906137af565b80610c2e565b60405162461bcd60e51b815260206004820152603160248201527f456c656374696f6e206973207374696c6c206f6e676f696e672e2043616e6e6f6044820152703a103932b9b2ba1031b7b73a3930b1ba1760791b6064820152608490fd5b9050421181610c14565b3461048d57600036600319011261048d576020600454604051908152f35b3461048d57602036600319011261048d5761101f6133fd565b60005490611037336001600160a01b03841614613752565b6001600160a01b0316908115611057576001600160a01b03191617600055005b60405162461bcd60e51b8152602060048201526024808201527f4e6577206f776e65722063616e6e6f7420626520746865207a65726f206164646044820152637265737360e01b6064820152608490fd5b3461048d57602036600319011261048d576001600160a01b036110c96133fd565b1660005260076020526020604060002060ff815416906106b86110ee6001830161353a565b61117c600284015461116e6111056003870161353a565b916111606111156004890161353a565b9161112260058a0161353a565b9461114d600760068c01549b0154986101206040519e8f9e8f901515815201526101208d0190613125565b9160408c01528a820360608c0152613125565b9088820360808a0152613125565b9086820360a0880152613125565b60c08501939093526001600160a01b03811660e085015261010084019060a01c60ff16613166565b3461048d57602036600319011261048d57600435600b5481101561048d576111cd6020916130bc565b905460405160039290921b1c6001600160a01b03168152f35b3461048d57600036600319011261048d57600e54611203816136f3565b9060005b81811061121c57604051806106b8858261330a565b806112286001926130a1565b838060a01b0391549060031b1c16600052600760205260406000206112d360ff6007604051936112578561336a565b828154161515855261126a87820161353a565b6020860152600281015460408601526112856003820161353a565b60608601526112966004820161353a565b60808601526112a76005820161353a565b60a0860152600681015460c08601520154858060a01b03811660e085015260a01c1661010083016136a0565b6112dd828661368c565b526112e8818561368c565b5001611207565b3461048d57600036600319011261048d576000546040516001600160a01b039091168152602090f35b3461048d57602036600319011261048d576001600160a01b036113396133fd565b16600052600860205260406000206101206113538261353a565b916106b86113636001830161353a565b6002830154926113e16113786003830161353a565b946113d36113886004850161353a565b916005850154976113c060076006880154970154976113b26040519d8d8f9e8f9081520190613125565b8c810360208e015290613125565b9160408b015289820360608b0152613125565b908782036080890152613125565b9360a086015260c085015260018060a01b03811660e085015260ff61010085019160a01c16613166565b3461048d57600036600319011261048d57600f54611428816136f3565b9060005b81811061144157604051806106b8858261330a565b8061144d6001926130f2565b838060a01b0391549060031b1c166000526007602052604060002061147c60ff6007604051936112578561336a565b611486828661368c565b52611491818561368c565b500161142c565b3461048d57600036600319011261048d5760405160006001546114ba81613500565b808452906001811690811561155557506001146114f6575b6106b8836114e281850382613386565b604051918291602083526020830190613125565b600160009081527fb10e2d527612073b26eecdfd717e6a320cf44b4afac2b0732d9fcbe2b7fa0cf6939250905b80821061153b575090915081016020016114e26114d2565b919260018160209254838588010152019101909291611523565b60ff191660208086019190915291151560051b840190910191506114e290506114d2565b3461048d57602036600319011261048d57600435600a5481101561048d576111cd6020916130d7565b3461048d57602036600319011261048d576004356001600160401b03811161048d576115d29036906004016133a7565b6115e8600254801590811561170e575b50613850565b336000526007602052604060002060018060a01b03600782015416156116c95760010181516001600160401b0381116103b0576116298161025b8454613500565b602092601f82116001146116695761165a9293829160009261165e5750508160011b916000199060031b1c19161790565b9055005b015190508480610280565b601f1982169383600052806000209160005b8681106116b15750836001959610611698575b505050811b019055005b015160001960f88460031b161c1916905583808061168e565b9192602060018192868501518155019401920161167b565b60405162461bcd60e51b815260206004820152601860248201527f4e6f20766f746572206461746120617661696c61626c652e00000000000000006044820152606490fd5b90504210836115e2565b3461048d5761172636613454565b9061173c60018060a01b03600054163314613752565b6001600160a01b038181166000818152600860205260409020600781018054929493909216156118f457815460ff60a01b1916600160a01b179091558351600191909101906001600160401b0381116103b05761179d8161025b8454613500565b602094601f821160011461188f576117d09293949582916000926118845750508160011b916000199060031b1c19161790565b90555b600b5490600160401b8210156103b0576102bd8260016117f89401600b55600b61310d565b60005b600d54808210156103ae57826118108361306b565b905460039190911b1c6001600160a01b03161461183057506001016117fb565b600019810192508211610398576102bd61184c6118649361306b565b905460039190911b1c6001600160a01b03169161306b565b600d548015610382576000190161187f61036882600d61310d565b600d55005b015190508680610280565b601f1982169583600052806000209160005b8881106118dc575083600195969798106118c3575b505050811b0190556117d3565b015160001960f88460031b161c191690558580806118b6565b919260206001819286850151815501940192016118a1565b60405162461bcd60e51b815260206004820152602d60248201527f546869732063616e64696461746520646f6573206e6f7420617070656172206960448201526c371037bab91039bcb9ba32b69760991b6064820152608490fd5b3461048d57602036600319011261048d576004356001600160401b03811161048d5761197f9036906004016133a7565b611994600254801590811561170e5750613850565b33600090815260086020526040902060078101546001600160a01b031615611a4b5781516001600160401b0381116103b0576119d48161025b8454613500565b602092601f8211600114611a055761165a9293829160009261165e5750508160011b916000199060031b1c19161790565b601f1982169383600052806000209160005b868110611a33575083600195961061169857505050811b019055005b91926020600181928685015181550194019201611a17565b60405162461bcd60e51b815260206004820152601c60248201527f4e6f2063616e646964617465206461746120617661696c61626c652e000000006044820152606490fd5b3461048d57611a9e36613493565b926005549160405191611ab08361336a565b8252611aba61380b565b926020830193845260408301948552606083019182526080830195865260a0830190815260c08301916000835260e084019533875261010085019560008752336000526008602052604060002095518051906001600160401b0382116103b057611b2e82611b288a54613500565b8a6137c6565b602090601f8311600114611e1e57611b5e929160009183610b535750508160011b916000199060031b1c19161790565b86555b51805160018701916001600160401b0382116103b057611b858261082f8554613500565b602090601f8311600114611db757611bb5929160009183610b535750508160011b916000199060031b1c19161790565b90555b51600285015551805160038501916001600160401b0382116103b057611be28261082f8554613500565b602090601f8311600114611d5057611c12929160009183610ae15750508160011b916000199060031b1c19161790565b90555b6004830195519586516001600160401b0381116103b057611c3a8161025b8454613500565b6020601f8211600114611ce6579080611c6e92600798999a600092610ae15750508160011b916000199060031b1c19161790565b90555b5160058301555160068201559251920180546001600160a01b0319166001600160a01b039390931692909217825551600381101561070157611cb29161378b565b600954600160401b8110156103b0576109d7816001611cd69301600955600961310d565b611ce1600554613743565b600555005b601f1982169883600052816000209960005b818110611d38575091600798999a91846001959410611d1f575b505050811b019055611c71565b015160001960f88460031b161c19169055898080611d12565b838301518c556001909b019a60209384019301611cf8565b90601f1983169184600052816000209260005b818110611d9f5750908460019594939210611d86575b505050811b019055611c15565b015160001960f88460031b161c19169055898080611d79565b92936020600181928786015181550195019301611d63565b90601f1983169184600052816000209260005b818110611e065750908460019594939210611ded575b505050811b019055611bb8565b015160001960f88460031b161c191690558b8080611de0565b92936020600181928786015181550195019301611dca565b90601f1983169189600052816000209260005b818110611e6d5750908460019594939210611e54575b505050811b018655611b61565b015160001960f88460031b161c191690558b8080611e47565b92936020600181928786015181550195019301611e31565b3461048d57602036600319011261048d57611e9e6133fd565b600254421061205257600354421161201a57336000526007602052604060002060ff600782015460a01c16600381101561070157600103611fd55780549160ff8316611f975760018060a01b0316600052600860205260406000209060ff600783015460a01c16600381101561070157600103611f5257600160069360ff191617905501611f2c8154613743565b9055600f54600160401b8110156103b0576109d78160016103ae9301600f55600f61310d565b60405162461bcd60e51b815260206004820152601a60248201527f43616e646964617465206973206e6f742061636365707465642e0000000000006044820152606490fd5b60405162461bcd60e51b8152602060048201526016602482015275165bdd481a185d9948185b1c9958591e481d9bdd195960521b6044820152606490fd5b60405162461bcd60e51b815260206004820152601e60248201527f596f7520617265206e6f74206120636f6e6669726d656420766f7465722e00006044820152606490fd5b60405162461bcd60e51b815260206004820152601060248201526f159bdd1a5b99c81a185cc8195b99195960821b6044820152606490fd5b60405162461bcd60e51b815260206004820152601a60248201527f566f74696e6720686173206e6f742073746172746564207965740000000000006044820152606490fd5b3461048d57600036600319011261048d57600a546120b4816136f3565b9060005b8181106120cd57604051806106b8858261330a565b806120d96001926130d7565b838060a01b0391549060031b1c166000526007602052604060002061210860ff6007604051936112578561336a565b612112828661368c565b5261211d818561368c565b50016120b8565b3461048d57602036600319011261048d57600435600f5481101561048d576111cd6020916130f2565b3461048d57602036600319011261048d57600435600d5481101561048d576111cd60209161306b565b3461048d57602036600319011261048d5760043561219f60018060a01b03600054163314613752565b600454612218576003548111156121b557600455005b60405162461bcd60e51b815260206004820152603560248201527f526573756c74207075626c69636174696f6e2074696d65206d75737420626520604482015274616674657220766f74696e6720656e642074696d6560581b6064820152608490fd5b60405162461bcd60e51b815260206004820152602360248201527f526573756c74207075626c69636174696f6e2074696d6520616c7265616479206044820152621cd95d60ea1b6064820152608490fd5b3461048d5761227736613454565b9061228d60018060a01b03600054163314613752565b6001600160a01b0381811660008181526008602052604090206007810180549294939092161561243a57815460ff60a01b1916600160a11b179091558351600191909101906001600160401b0381116103b0576122ee8161025b8454613500565b602094601f82116001146123d5576123219293949582916000926118845750508160011b916000199060031b1c19161790565b90555b600d5490600160401b8210156103b0576102bd8260016123499401600d55600d61310d565b60005b600b54808210156103ae5782612361836130bc565b905460039190911b1c6001600160a01b031614612381575060010161234c565b600019810192508211610398576102bd61239d6123b5936130bc565b905460039190911b1c6001600160a01b0316916130bc565b600b54801561038257600019016123d061036882600b61310d565b600b55005b601f1982169583600052806000209160005b88811061242257508360019596979810612409575b505050811b019055612324565b015160001960f88460031b161c191690558580806123fc565b919260206001819286850151815501940192016123e7565b60405162461bcd60e51b815260206004820152601b60248201527f4e6f2063616e646964617465206461746120617661696c61626c6500000000006044820152606490fd5b3461048d57602036600319011261048d576124986133fd565b6124a06136ac565b5060018060a01b0316600052600760205260406000206007604051916124c58361336a565b60ff815416151583526124da6001820161353a565b6020840152600281015460408401526124f56003820161353a565b60608401526125066004820161353a565b60808401526125176005820161353a565b60a0840152600681015460c0840152015460e0820160018060a01b038216815261254c60ff61010085019360a01c16836136a0565b516001600160a01b0316156125c2575160038110156107015760001901612585576106b89060405191829160208352602083019061326f565b60405162461bcd60e51b8152602060048201526015602482015274159bdd195c881a5cc81b9bdd081858d8d95c1d1959605a1b6044820152606490fd5b60405162461bcd60e51b815260206004820152600f60248201526e159bdd195c881b9bdd08199bdd5b99608a1b6044820152606490fd5b3461048d57602036600319011261048d57600435600c5481101561048d576111cd602091613086565b3461048d5761263036613413565b600a549060208301906000805b84811061278c575061264e906136f3565b9360009160005b85811061266a57604051806106b8898261330a565b612673816130d7565b60018060a01b0391549060031b1c16600052600760205260406000206040519061269c8261336a565b60ff8154161515825260076126b36001830161353a565b9160208401928352600281015460408501526126d16003820161353a565b60608501526126e26004820161353a565b60808501526126f36005820161353a565b60a0850152600681015460c085015201549061272860ff60e085019360018060a01b038116855260a01c1661010085016136a0565b516020815191012085518820149081612775575b5061274b575b50600101612655565b8461276e9161275d600194978b61368c565b52612768818a61368c565b50613743565b9390612742565b516001600160a01b0385811691161490508961273c565b612795816130d7565b60018060a01b0391549060031b1c1660005260076020526040600020604051906127be8261336a565b60ff8154161515825261284a60076127d86001840161353a565b9260208501938452600281015460408601526127f66003820161353a565b60608601526128076004820161353a565b60808601526128186005820161353a565b60a0860152600681015460c086015201549261010060ff60e083019560018060a01b038116875260a01c1691016136a0565b516020815191012087518620149081612880575b5061286c575b60010161263d565b90612878600191613743565b919050612864565b516001600160a01b0385811691161490508761285e565b3461048d576128a536613454565b906128bb60018060a01b03600054163314613752565b6001600160a01b038181166000818152600760208190526040909120908101805492949390921615612a6a57815460ff60a01b1916600160a11b179091558351600591909101906001600160401b0381116103b05761291e8161025b8454613500565b602094601f8211600114612a05576129519293949582916000926118845750508160011b916000199060031b1c19161790565b90555b600e5490600160401b8210156103b0576102bd8260016129799401600e55600e61310d565b60005b600c54808210156103ae578261299183613086565b905460039190911b1c6001600160a01b0316146129b1575060010161297c565b600019810192508211610398576102bd6129cd6129e593613086565b905460039190911b1c6001600160a01b031691613086565b600c5480156103825760001901612a0061036882600c61310d565b600c55005b601f1982169583600052806000209160005b888110612a5257508360019596979810612a39575b505050811b019055612954565b015160001960f88460031b161c19169055858080612a2c565b91926020600181928685015181550194019201612a17565b60405162461bcd60e51b815260206004820152601760248201527f4e6f20766f746572206461746120617661696c61626c650000000000000000006044820152606490fd5b3461048d57612abd36613413565b600954602083019290916000805b848110612c015750612adc9061363c565b9360009160005b858110612af857604051806106b8898261320f565b612b018161303a565b60018060a01b0391549060031b1c1660005260086020526040600020600760405191612b2c8361336a565b612b358161353a565b8352612b436001820161353a565b602084015260028101546040840152612b5e6003820161353a565b6060840152612b6f6004820161353a565b6080840152600581015460a0840152600681015460c08401520154612bad60ff60e084019260018060a01b038116845260a01c1661010084016136a0565b81516020815191012087518620149081612bea575b50612bd1575b50600101612ae3565b84612be39161275d600194978b61368c565b9390612bc8565b516001600160a01b03858116911614905089612bc2565b612c0a8161303a565b60018060a01b0391549060031b1c1660005260086020526040600020600760405191612c358361336a565b612c3e8161353a565b8352612c4c6001820161353a565b602084015260028101546040840152612c676003820161353a565b6060840152612c786004820161353a565b6080840152600581015460a0840152600681015460c0840152015490612cb760ff60e083019360018060a01b038116855260a01c1661010083016136a0565b516020815191012085518820149081612ced575b50612cd9575b600101612acb565b90612ce5600191613743565b919050612cd1565b516001600160a01b03858116911614905087612ccb565b3461048d57600036600319011261048d57600b54612d218161363c565b9060005b818110612d3a57604051806106b8858261320f565b80612d466001926130bc565b838060a01b0391549060031b1c1660005260086020526040600020612ded60ff600760405193612d758561336a565b612d7e8161353a565b8552612d8b87820161353a565b602086015260028101546040860152612da66003820161353a565b6060860152612db76004820161353a565b6080860152600581015460a0860152600681015460c08601520154858060a01b03811660e085015260a01c1661010083016136a0565b612df7828661368c565b52612e02818561368c565b5001612d25565b3461048d57602036600319011261048d57600435600e5481101561048d576111cd6020916130a1565b3461048d57600036600319011261048d57600c54612e4f816136f3565b9060005b818110612e6857604051806106b8858261330a565b80612e74600192613086565b838060a01b0391549060031b1c1660005260076020526040600020612ea360ff6007604051936112578561336a565b612ead828661368c565b52612eb8818561368c565b5001612e53565b3461048d57600036600319011261048d576020600254604051908152f35b3461048d57600036600319011261048d57600954612efa8161363c565b9060005b818110612f1357604051806106b8858261320f565b80612f1f60019261303a565b838060a01b0391549060031b1c1660005260086020526040600020612f4e60ff600760405193612d758561336a565b612f58828661368c565b52612f63818561368c565b5001612efe565b3461048d57600036600319011261048d576020600354604051908152f35b3461048d57600036600319011261048d57600d54612fa58161363c565b9060005b818110612fbe57604051806106b8858261320f565b80612fca60019261306b565b838060a01b0391549060031b1c1660005260086020526040600020612ff960ff600760405193612d758561336a565b613003828661368c565b5261300e818561368c565b5001612fa9565b3461048d57602036600319011261048d5760043560095481101561048d576111cd6020915b60095481101561305557600960005260206000200190600090565b634e487b7160e01b600052603260045260246000fd5b600d5481101561305557600d60005260206000200190600090565b600c5481101561305557600c60005260206000200190600090565b600e5481101561305557600e60005260206000200190600090565b600b5481101561305557600b60005260206000200190600090565b600a5481101561305557600a60005260206000200190600090565b600f5481101561305557600f60005260206000200190600090565b80548210156130555760005260206000200190600090565b919082519283825260005b848110613151575050826000602080949584010152601f8019910116010190565b80602080928401015182828601015201613130565b9060038210156107015752565b9061320c90610100806131da6131c86131ac61319a88516101208852610120880190613125565b60208901518782036020890152613125565b6040880151604087015260608801518682036060880152613125565b60808701518582036080870152613125565b60a0808701519085015260c0808701519085015260e0808701516001600160a01b031690850152940151910190613166565b90565b602081016020825282518091526040820191602060408360051b8301019401926000915b83831061324257505050505090565b9091929394602080613260600193603f198682030187528951613173565b97019301930191939290613233565b9061320c90825115158152610100806132e26132d06132be6132a260208901516101206020890152610120880190613125565b6040890151604088015260608901518782036060890152613125565b60808801518682036080880152613125565b60a087015185820360a0870152613125565b60c0808701519085015260e0808701516001600160a01b031690850152940151910190613166565b602081016020825282518091526040820191602060408360051b8301019401926000915b83831061333d57505050505090565b909192939460208061335b600193603f19868203018752895161326f565b9701930193019193929061332e565b61012081019081106001600160401b038211176103b057604052565b90601f801991011681019081106001600160401b038211176103b057604052565b81601f8201121561048d578035906001600160401b0382116103b057604051926133db601f8401601f191660200185613386565b8284526020838301011161048d57816000926020809301838601378301015290565b600435906001600160a01b038216820361048d57565b604060031982011261048d57600435906001600160401b03821161048d5761343d916004016133a7565b906024356001600160a01b038116810361048d5790565b90604060031983011261048d576004356001600160a01b038116810361048d5791602435906001600160401b03821161048d5761320c916004016133a7565b90608060031983011261048d576004356001600160401b03811161048d57826134be916004016133a7565b91602435916044356001600160401b03811161048d57826134e1916004016133a7565b91606435906001600160401b03821161048d5761320c916004016133a7565b90600182811c92168015613530575b602083101461351a57565b634e487b7160e01b600052602260045260246000fd5b91607f169161350f565b906040519182600082549261354e84613500565b80845293600181169081156135bc5750600114613575575b5061357392500383613386565b565b90506000929192526020600020906000915b8183106135a05750509060206135739282010138613566565b6020919350806001915483858901015201910190918492613587565b90506020925061357394915060ff191682840152151560051b82010138613566565b6001600160401b0381116103b05760051b60200190565b604051906136028261336a565b6000610100836060815260606020820152826040820152606080820152606060808201528260a08201528260c08201528260e08201520152565b90613646826135de565b6136536040519182613386565b8281528092613664601f19916135de565b019060005b82811061367557505050565b6020906136806135f5565b82828501015201613669565b80518210156130555760209160051b010190565b60038210156107015752565b604051906136b98261336a565b6000610100838281526060602082015282604082015260608082015260606080820152606060a08201528260c08201528260e08201520152565b906136fd826135de565b61370a6040519182613386565b828152809261371b601f19916135de565b019060005b82811061372c57505050565b6020906137376136ac565b82828501015201613720565b60001981146103985760010190565b1561375957565b60405162461bcd60e51b815260206004820152600a60248201526927b7363c9037bbb732b960b11b6044820152606490fd5b90600381101561070157815460ff60a01b191660a09190911b60ff60a01b16179055565b8181106137ba575050565b600081556001016137af565b9190601f81116137d557505050565b613573926000526020600020906020601f840160051c83019310613801575b601f0160051c01906137af565b90915081906137f4565b6040519061381a606083613386565b60218252601b60fa1b6040837f526567697374726174696f6e206973206177616974696e6720617070726f766160208201520152565b1561385757565b60405162461bcd60e51b815260206004820152602160248201527f43616e6e6f74206d6f6469667920616674657220766f74696e672073746172746044820152607360f81b6064820152608490fd5b6138b08154613500565b90816138ba575050565b81601f600093116001146138cc575055565b818352602083206138e891601f0160051c8101906001016137af565b8082528160208120915555565b6138fd6135f5565b506139066135f5565b600b546000805b82811061391a5750505090565b613923816130bc565b60018060a01b0391549060031b1c16600052600860205260406000206040519061394c8261336a565b6139558161353a565b82526139636001820161353a565b60208301526002810154604083015261397e6003820161353a565b606083015261398f6004820161353a565b6080830152600581015460a08301526139d060ff600760068401549360c08601948552015460018060a01b03811660e086015260a01c1661010084016136a0565b518381116139e3575b505060010161390d565b90945091506001386139d9565b6139f86135f5565b50600b5415613af5576003544210613a125761320c6138f5565b604051613a1e8161336a565b60408051613a2c8282613386565b600f81526e139bdd08191958da591959081e595d608a1b602082015282528051613a57606082613386565b603681527f506c65617365207761697420756e74696c2074686520656c656374696f6e2065602082015275373239903a379039b2b2903a3432903bb4b73732b91760511b8282015260208301526000818301528051613ab7602082613386565b60008152606083015251613acc602082613386565b600081526080820152600060a0820152600060c0820152600060e0820152600061010082015290565b60405162461bcd60e51b8152602060048201526024808201527f4e6f2043616e6469646174657320616363657074656420666f7220656c65637460448201526334b7b71760e11b6064820152608490fdfea264697066735822122064ffdd737dc2d4a6884c61a6799407c94ba329449896f32a52146e74bcedb8d664736f6c634300081c0033",
  "linkReferences": {},
  "deployedLinkReferences": {}
}