{
  "_format": "hh-sol-artifact-1",
  "contractName": "VotingSystem",
  "sourceName": "contracts/VotingSystem.sol",
  "abi": [
    {
      "inputs": [
        {
          "internalType": "string",
          "name": "_name",
          "type": "string"
        }
      ],
      "stateMutability": "nonpayable",
      "type": "constructor"
    },
    {
      "inputs": [],
      "name": "CurrentVotingStatus",
      "outputs": [
        {
          "components": [
            {
              "internalType": "string",
              "name": "name",
              "type": "string"
            },
            {
              "internalType": "string",
              "name": "message",
              "type": "string"
            },
            {
              "internalType": "uint256",
              "name": "age",
              "type": "uint256"
            },
            {
              "internalType": "string",
              "name": "email",
              "type": "string"
            },
            {
              "internalType": "string",
              "name": "phone",
              "type": "string"
            },
            {
              "internalType": "uint256",
              "name": "registeredId",
              "type": "uint256"
            },
            {
              "internalType": "uint256",
              "name": "voteCalculation",
              "type": "uint256"
            },
            {
              "internalType": "address",
              "name": "candidatesAddress",
              "type": "address"
            },
            {
              "internalType": "enum VotingSystem.ConfirmationStatus",
              "name": "status",
              "type": "uint8"
            }
          ],
          "internalType": "struct VotingSystem.Candidate",
          "name": "",
          "type": "tuple"
        }
      ],
      "stateMutability": "view",
      "type": "function"
    },
    {
      "inputs": [],
      "name": "ListofAcceptedCandidates",
      "outputs": [
        {
          "components": [
            {
              "internalType": "string",
              "name": "name",
              "type": "string"
            },
            {
              "internalType": "string",
              "name": "message",
              "type": "string"
            },
            {
              "internalType": "uint256",
              "name": "age",
              "type": "uint256"
            },
            {
              "internalType": "string",
              "name": "email",
              "type": "string"
            },
            {
              "internalType": "string",
              "name": "phone",
              "type": "string"
            },
            {
              "internalType": "uint256",
              "name": "registeredId",
              "type": "uint256"
            },
            {
              "internalType": "uint256",
              "name": "voteCalculation",
              "type": "uint256"
            },
            {
              "internalType": "address",
              "name": "candidatesAddress",
              "type": "address"
            },
            {
              "internalType": "enum VotingSystem.ConfirmationStatus",
              "name": "status",
              "type": "uint8"
            }
          ],
          "internalType": "struct VotingSystem.Candidate[]",
          "name": "",
          "type": "tuple[]"
        }
      ],
      "stateMutability": "view",
      "type": "function"
    },
    {
      "inputs": [],
      "name": "ListofAcceptedVoters",
      "outputs": [
        {
          "components": [
            {
              "internalType": "bool",
              "name": "alreadyVoted",
              "type": "bool"
            },
            {
              "internalType": "string",
              "name": "name",
              "type": "string"
            },
            {
              "internalType": "uint256",
              "name": "age",
              "type": "uint256"
            },
            {
              "internalType": "string",
              "name": "email",
              "type": "string"
            },
            {
              "internalType": "string",
              "name": "phone",
              "type": "string"
            },
            {
              "internalType": "string",
              "name": "message",
              "type": "string"
            },
            {
              "internalType": "uint256",
              "name": "registeredId",
              "type": "uint256"
            },
            {
              "internalType": "address",
              "name": "votersAddress",
              "type": "address"
            },
            {
              "internalType": "enum VotingSystem.ConfirmationStatus",
              "name": "status",
              "type": "uint8"
            }
          ],
          "internalType": "struct VotingSystem.Voter[]",
          "name": "",
          "type": "tuple[]"
        }
      ],
      "stateMutability": "view",
      "type": "function"
    },
    {
      "inputs": [],
      "name": "ListofRegisteredCandidates",
      "outputs": [
        {
          "components": [
            {
              "internalType": "string",
              "name": "name",
              "type": "string"
            },
            {
              "internalType": "string",
              "name": "message",
              "type": "string"
            },
            {
              "internalType": "uint256",
              "name": "age",
              "type": "uint256"
            },
            {
              "internalType": "string",
              "name": "email",
              "type": "string"
            },
            {
              "internalType": "string",
              "name": "phone",
              "type": "string"
            },
            {
              "internalType": "uint256",
              "name": "registeredId",
              "type": "uint256"
            },
            {
              "internalType": "uint256",
              "name": "voteCalculation",
              "type": "uint256"
            },
            {
              "internalType": "address",
              "name": "candidatesAddress",
              "type": "address"
            },
            {
              "internalType": "enum VotingSystem.ConfirmationStatus",
              "name": "status",
              "type": "uint8"
            }
          ],
          "internalType": "struct VotingSystem.Candidate[]",
          "name": "",
          "type": "tuple[]"
        }
      ],
      "stateMutability": "view",
      "type": "function"
    },
    {
      "inputs": [],
      "name": "ListofRegisteredVoters",
      "outputs": [
        {
          "components": [
            {
              "internalType": "bool",
              "name": "alreadyVoted",
              "type": "bool"
            },
            {
              "internalType": "string",
              "name": "name",
              "type": "string"
            },
            {
              "internalType": "uint256",
              "name": "age",
              "type": "uint256"
            },
            {
              "internalType": "string",
              "name": "email",
              "type": "string"
            },
            {
              "internalType": "string",
              "name": "phone",
              "type": "string"
            },
            {
              "internalType": "string",
              "name": "message",
              "type": "string"
            },
            {
              "internalType": "uint256",
              "name": "registeredId",
              "type": "uint256"
            },
            {
              "internalType": "address",
              "name": "votersAddress",
              "type": "address"
            },
            {
              "internalType": "enum VotingSystem.ConfirmationStatus",
              "name": "status",
              "type": "uint8"
            }
          ],
          "internalType": "struct VotingSystem.Voter[]",
          "name": "",
          "type": "tuple[]"
        }
      ],
      "stateMutability": "view",
      "type": "function"
    },
    {
      "inputs": [
        {
          "internalType": "uint256",
          "name": "",
          "type": "uint256"
        }
      ],
      "name": "acceptedCandidates",
      "outputs": [
        {
          "internalType": "address",
          "name": "",
          "type": "address"
        }
      ],
      "stateMutability": "view",
      "type": "function"
    },
    {
      "inputs": [
        {
          "internalType": "uint256",
          "name": "",
          "type": "uint256"
        }
      ],
      "name": "acceptedVoters",
      "outputs": [
        {
          "internalType": "address",
          "name": "",
          "type": "address"
        }
      ],
      "stateMutability": "view",
      "type": "function"
    },
    {
      "inputs": [
        {
          "internalType": "address",
          "name": "_candidatesAddress",
          "type": "address"
        },
        {
          "internalType": "string",
          "name": "_message",
          "type": "string"
        }
      ],
      "name": "approveCandidate",
      "outputs": [],
      "stateMutability": "nonpayable",
      "type": "function"
    },
    {
      "inputs": [
        {
          "internalType": "address",
          "name": "_votersAddress",
          "type": "address"
        },
        {
          "internalType": "string",
          "name": "_message",
          "type": "string"
        }
      ],
      "name": "approveVoter",
      "outputs": [],
      "stateMutability": "nonpayable",
      "type": "function"
    },
    {
      "inputs": [
        {
          "internalType": "address",
          "name": "",
          "type": "address"
        }
      ],
      "name": "candidates",
      "outputs": [
        {
          "internalType": "string",
          "name": "name",
          "type": "string"
        },
        {
          "internalType": "string",
          "name": "message",
          "type": "string"
        },
        {
          "internalType": "uint256",
          "name": "age",
          "type": "uint256"
        },
        {
          "internalType": "string",
          "name": "email",
          "type": "string"
        },
        {
          "internalType": "string",
          "name": "phone",
          "type": "string"
        },
        {
          "internalType": "uint256",
          "name": "registeredId",
          "type": "uint256"
        },
        {
          "internalType": "uint256",
          "name": "voteCalculation",
          "type": "uint256"
        },
        {
          "internalType": "address",
          "name": "candidatesAddress",
          "type": "address"
        },
        {
          "internalType": "enum VotingSystem.ConfirmationStatus",
          "name": "status",
          "type": "uint8"
        }
      ],
      "stateMutability": "view",
      "type": "function"
    },
    {
      "inputs": [
        {
          "internalType": "uint256",
          "name": "",
          "type": "uint256"
        }
      ],
      "name": "candidatesRegistered",
      "outputs": [
        {
          "internalType": "address",
          "name": "",
          "type": "address"
        }
      ],
      "stateMutability": "view",
      "type": "function"
    },
    {
      "inputs": [],
      "name": "electionName",
      "outputs": [
        {
          "internalType": "string",
          "name": "",
          "type": "string"
        }
      ],
      "stateMutability": "view",
      "type": "function"
    },
    {
      "inputs": [
        {
          "internalType": "address",
          "name": "_candidatesAddress",
          "type": "address"
        }
      ],
      "name": "findCandidate",
      "outputs": [
        {
          "components": [
            {
              "internalType": "string",
              "name": "name",
              "type": "string"
            },
            {
              "internalType": "string",
              "name": "message",
              "type": "string"
            },
            {
              "internalType": "uint256",
              "name": "age",
              "type": "uint256"
            },
            {
              "internalType": "string",
              "name": "email",
              "type": "string"
            },
            {
              "internalType": "string",
              "name": "phone",
              "type": "string"
            },
            {
              "internalType": "uint256",
              "name": "registeredId",
              "type": "uint256"
            },
            {
              "internalType": "uint256",
              "name": "voteCalculation",
              "type": "uint256"
            },
            {
              "internalType": "address",
              "name": "candidatesAddress",
              "type": "address"
            },
            {
              "internalType": "enum VotingSystem.ConfirmationStatus",
              "name": "status",
              "type": "uint8"
            }
          ],
          "internalType": "struct VotingSystem.Candidate",
          "name": "",
          "type": "tuple"
        }
      ],
      "stateMutability": "view",
      "type": "function"
    },
    {
      "inputs": [
        {
          "internalType": "address",
          "name": "_votersAddress",
          "type": "address"
        }
      ],
      "name": "findVoter",
      "outputs": [
        {
          "components": [
            {
              "internalType": "bool",
              "name": "alreadyVoted",
              "type": "bool"
            },
            {
              "internalType": "string",
              "name": "name",
              "type": "string"
            },
            {
              "internalType": "uint256",
              "name": "age",
              "type": "uint256"
            },
            {
              "internalType": "string",
              "name": "email",
              "type": "string"
            },
            {
              "internalType": "string",
              "name": "phone",
              "type": "string"
            },
            {
              "internalType": "string",
              "name": "message",
              "type": "string"
            },
            {
              "internalType": "uint256",
              "name": "registeredId",
              "type": "uint256"
            },
            {
              "internalType": "address",
              "name": "votersAddress",
              "type": "address"
            },
            {
              "internalType": "enum VotingSystem.ConfirmationStatus",
              "name": "status",
              "type": "uint8"
            }
          ],
          "internalType": "struct VotingSystem.Voter",
          "name": "",
          "type": "tuple"
        }
      ],
      "stateMutability": "view",
      "type": "function"
    },
    {
      "inputs": [],
      "name": "getAllVotersWhoCasted",
      "outputs": [
        {
          "components": [
            {
              "internalType": "bool",
              "name": "alreadyVoted",
              "type": "bool"
            },
            {
              "internalType": "string",
              "name": "name",
              "type": "string"
            },
            {
              "internalType": "uint256",
              "name": "age",
              "type": "uint256"
            },
            {
              "internalType": "string",
              "name": "email",
              "type": "string"
            },
            {
              "internalType": "string",
              "name": "phone",
              "type": "string"
            },
            {
              "internalType": "string",
              "name": "message",
              "type": "string"
            },
            {
              "internalType": "uint256",
              "name": "registeredId",
              "type": "uint256"
            },
            {
              "internalType": "address",
              "name": "votersAddress",
              "type": "address"
            },
            {
              "internalType": "enum VotingSystem.ConfirmationStatus",
              "name": "status",
              "type": "uint8"
            }
          ],
          "internalType": "struct VotingSystem.Voter[]",
          "name": "",
          "type": "tuple[]"
        }
      ],
      "stateMutability": "view",
      "type": "function"
    },
    {
      "inputs": [],
      "name": "owner",
      "outputs": [
        {
          "internalType": "address",
          "name": "",
          "type": "address"
        }
      ],
      "stateMutability": "view",
      "type": "function"
    },
    {
      "inputs": [
        {
          "internalType": "string",
          "name": "_name",
          "type": "string"
        },
        {
          "internalType": "uint256",
          "name": "_age",
          "type": "uint256"
        },
        {
          "internalType": "string",
          "name": "_email",
          "type": "string"
        },
        {
          "internalType": "string",
          "name": "_phone",
          "type": "string"
        }
      ],
      "name": "registerCandidate",
      "outputs": [],
      "stateMutability": "nonpayable",
      "type": "function"
    },
    {
      "inputs": [
        {
          "internalType": "string",
          "name": "_name",
          "type": "string"
        },
        {
          "internalType": "uint256",
          "name": "_age",
          "type": "uint256"
        },
        {
          "internalType": "string",
          "name": "_email",
          "type": "string"
        },
        {
          "internalType": "string",
          "name": "_phone",
          "type": "string"
        }
      ],
      "name": "registerVoter",
      "outputs": [],
      "stateMutability": "nonpayable",
      "type": "function"
    },
    {
      "inputs": [
        {
          "internalType": "address",
          "name": "_candidatesAddress",
          "type": "address"
        },
        {
          "internalType": "string",
          "name": "_message",
          "type": "string"
        }
      ],
      "name": "rejectCandidate",
      "outputs": [],
      "stateMutability": "nonpayable",
      "type": "function"
    },
    {
      "inputs": [
        {
          "internalType": "address",
          "name": "_votersAddress",
          "type": "address"
        },
        {
          "internalType": "string",
          "name": "_message",
          "type": "string"
        }
      ],
      "name": "rejectVoter",
      "outputs": [],
      "stateMutability": "nonpayable",
      "type": "function"
    },
    {
      "inputs": [
        {
          "internalType": "uint256",
          "name": "_votingStartTime",
          "type": "uint256"
        },
        {
          "internalType": "uint256",
          "name": "_votingEndTime",
          "type": "uint256"
        }
      ],
      "name": "startendVoting",
      "outputs": [],
      "stateMutability": "nonpayable",
      "type": "function"
    },
    {
      "inputs": [
        {
          "internalType": "string",
          "name": "_name",
          "type": "string"
        }
      ],
      "name": "updateCandidate",
      "outputs": [],
      "stateMutability": "nonpayable",
      "type": "function"
    },
    {
      "inputs": [
        {
          "internalType": "string",
          "name": "_name",
          "type": "string"
        }
      ],
      "name": "updateVoter",
      "outputs": [],
      "stateMutability": "nonpayable",
      "type": "function"
    },
    {
      "inputs": [
        {
          "internalType": "address",
          "name": "_candidatesAddress",
          "type": "address"
        }
      ],
      "name": "vote",
      "outputs": [],
      "stateMutability": "nonpayable",
      "type": "function"
    },
    {
      "inputs": [
        {
          "internalType": "address",
          "name": "",
          "type": "address"
        }
      ],
      "name": "voters",
      "outputs": [
        {
          "internalType": "bool",
          "name": "alreadyVoted",
          "type": "bool"
        },
        {
          "internalType": "string",
          "name": "name",
          "type": "string"
        },
        {
          "internalType": "uint256",
          "name": "age",
          "type": "uint256"
        },
        {
          "internalType": "string",
          "name": "email",
          "type": "string"
        },
        {
          "internalType": "string",
          "name": "phone",
          "type": "string"
        },
        {
          "internalType": "string",
          "name": "message",
          "type": "string"
        },
        {
          "internalType": "uint256",
          "name": "registeredId",
          "type": "uint256"
        },
        {
          "internalType": "address",
          "name": "votersAddress",
          "type": "address"
        },
        {
          "internalType": "enum VotingSystem.ConfirmationStatus",
          "name": "status",
          "type": "uint8"
        }
      ],
      "stateMutability": "view",
      "type": "function"
    },
    {
      "inputs": [
        {
          "internalType": "uint256",
          "name": "",
          "type": "uint256"
        }
      ],
      "name": "votersRegistered",
      "outputs": [
        {
          "internalType": "address",
          "name": "",
          "type": "address"
        }
      ],
      "stateMutability": "view",
      "type": "function"
    },
    {
      "inputs": [
        {
          "internalType": "uint256",
          "name": "",
          "type": "uint256"
        }
      ],
      "name": "votersWhoCasted",
      "outputs": [
        {
          "internalType": "address",
          "name": "",
          "type": "address"
        }
      ],
      "stateMutability": "view",
      "type": "function"
    },
    {
      "inputs": [],
      "name": "votingEndTime",
      "outputs": [
        {
          "internalType": "uint256",
          "name": "",
          "type": "uint256"
        }
      ],
      "stateMutability": "view",
      "type": "function"
    },
    {
      "inputs": [],
      "name": "votingStartTime",
      "outputs": [
        {
          "internalType": "uint256",
          "name": "",
          "type": "uint256"
        }
      ],
      "stateMutability": "view",
      "type": "function"
    },
    {
      "inputs": [],
      "name": "winningCandidate",
      "outputs": [
        {
          "components": [
            {
              "internalType": "string",
              "name": "name",
              "type": "string"
            },
            {
              "internalType": "string",
              "name": "message",
              "type": "string"
            },
            {
              "internalType": "uint256",
              "name": "age",
              "type": "uint256"
            },
            {
              "internalType": "string",
              "name": "email",
              "type": "string"
            },
            {
              "internalType": "string",
              "name": "phone",
              "type": "string"
            },
            {
              "internalType": "uint256",
              "name": "registeredId",
              "type": "uint256"
            },
            {
              "internalType": "uint256",
              "name": "voteCalculation",
              "type": "uint256"
            },
            {
              "internalType": "address",
              "name": "candidatesAddress",
              "type": "address"
            },
            {
              "internalType": "enum VotingSystem.ConfirmationStatus",
              "name": "status",
              "type": "uint8"
            }
          ],
          "internalType": "struct VotingSystem.Candidate",
          "name": "",
          "type": "tuple"
        }
      ],
      "stateMutability": "view",
      "type": "function"
    }
  ],
  "bytecode": "0x60806040523461023b57612f868038038061001981610240565b92833981019060208183031261023b578051906001600160401b03821161023b570181601f8201121561023b578051906001600160401b0382116102105761006a601f8301601f1916602001610240565b928284526020838301011161023b5760005b82811061022657600083850160200181905280546001600160a01b03191633179055835184906001600160401b03811161021057600154600181811c91168015610206575b60208210146101f057601f811161018b575b50602091601f82116001146101275791819260009261011c575b50508160011b916000199060031b1c1916176001555b60016004556001600555604051612d2090816102668239f35b0151905082806100ed565b601f198216926001600052806000209160005b8581106101735750836001951061015a575b505050811b01600155610103565b015160001960f88460031b161c1916905582808061014c565b9192602060018192868501518155019401920161013a565b60016000527fb10e2d527612073b26eecdfd717e6a320cf44b4afac2b0732d9fcbe2b7fa0cf6601f830160051c810191602084106101e6575b601f0160051c01905b8181106101da57506100d3565b600081556001016101cd565b90915081906101c4565b634e487b7160e01b600052602260045260246000fd5b90607f16906100c1565b634e487b7160e01b600052604160045260246000fd5b8060208092840101518282870101520161007c565b600080fd5b6040519190601f01601f191682016001600160401b038111838210176102105760405256fe6080604052600436101561001257600080fd5b60003560e01c80630366ac37146123c75780631ea736e0146123a95780631ee9367c1461231c5780632019a608146122fe57806323a2b2ed146122715780633cfde26c1461216c5780634a2846a814611fe057806353dd128c14611fb757806357f3a8e514611e3d57806359632c2214611caf5780635f1bc34e14611c8657806360fc4e3214611bf95780636dd7d8ea146119cc57806371565d2e1461145c57806379432db5146113245780637eb21b511461119557806382ff2aeb14611035578063849c56571461100c57806385e8e7a714610f2b5780638987cb3214610e225780638ab66a9014610d2f5780638da5cb5b14610d065780639e7a814514610cc4578063a3ec138d14610bc8578063bab912a214610bac578063cd6cf3111461062d578063d28178d7146105f4578063dbf7be4714610459578063f33698f1146103345763fad761d31461016657600080fd5b3461032f576101743661278f565b9061018a60018060a01b03600054163314612a7e565b6001600160a01b03908116600081815260066020526040902060078101805492936005936101ba91161515612b91565b805460ff60a01b1916600160a01b17905583519101906001600160401b038111610261576101e8825461283b565b601f81116102e7575b506020601f82116001146102825781929394600092610277575b50508160011b916000199060031b1c19161790555b600b54600160401b811015610261578060016102419201600b55600b612489565b81546001600160a01b0360039290921b91821b191692901b919091179055005b634e487b7160e01b600052604160045260246000fd5b01519050388061020b565b601f1982169083600052806000209160005b8181106102cf575095836001959697106102b6575b505050811b019055610220565b015160001960f88460031b161c191690553880806102a9565b9192602060018192868b015181550194019201610294565b826000526020600020601f830160051c81019160208410610325575b601f0160051c01905b81811061031957506101f1565b6000815560010161030c565b9091508190610303565b600080fd5b3461032f57604036600319011261032f576004356024359061036160018060a01b03600054163314612a7e565b60025461041457428111156103d0578181101561038057600255600355005b60405162461bcd60e51b815260206004820152602260248201527f53746172742074696d65206d757374206265206265666f726520656e642074696044820152616d6560f01b6064820152608490fd5b606460405162461bcd60e51b815260206004820152602060248201527f53746172742074696d65206d75737420626520696e20746865206675747572656044820152fd5b60405162461bcd60e51b815260206004820152601860248201527f566f74696e6720616c7265616479207363686564756c656400000000000000006044820152606490fd5b3461032f57602036600319011261032f576104726126e6565b61047a612930565b5060018060a01b03166000526007602052604060002060076040519161049f836126fc565b6104a881612875565b83526104b660018201612875565b6020840152600281015460408401526104d160038201612875565b60608401526104e260048201612875565b6080840152600581015460a0840152600681015460c0840152015460e0820160018060a01b038216815261052160ff61010085019360a01c16836129db565b516001600160a01b0316156105b9575160038110156105a3576000190161055e5761055a906040519182916020835260208301906124ef565b0390f35b60405162461bcd60e51b815260206004820152601960248201527f43616e646964617465206973206e6f74206163636570746564000000000000006044820152606490fd5b634e487b7160e01b600052602160045260246000fd5b60405162461bcd60e51b815260206004820152601360248201527210d85b991a59185d19481b9bdd08199bdd5b99606a1b6044820152606490fd5b3461032f57600036600319011261032f5761060d612930565b5061055a610619612bef565b6040519182916020835260208301906124ef565b3461032f5761063b366127ce565b6005939193546040519161064e836126fc565b6000835260208301938452604083019485526060830195865260808301908152610676612b00565b9560a0840196875260c0840192835260e08401953387526101008501956000875233600052600660205260406000209551151560ff801988541691161786556001860190518051906001600160401b0382116102615781906106d8845461283b565b601f8111610b59575b50602090601f8311600114610af457600092610ae9575b50508160011b916000199060031b1c19161790555b51600285015551805160038501916001600160401b038211610261578190610735845461283b565b601f8111610a96575b50602090601f8311600114610a3157600092610a26575b50508160011b916000199060031b1c19161790555b51805160048401916001600160401b03821161026157819061078c845461283b565b601f81116109d3575b50602090601f831160011461096e57600092610963575b50508160011b916000199060031b1c19161790555b6005820194519485516001600160401b038111610261576107e2825461283b565b601f811161091b575b506020601f82116001146108b157819060079697986000926108a6575b50508160011b916000199060031b1c19161790555b5160068201559251920180546001600160a01b0319166001600160a01b03939093169290921782555160038110156105a35761085891612ab7565b600954600160401b8110156102615780600161087992016009556009612489565b81546001600160a01b0360039290921b91821b19163390911b1790556005546108a190612adb565b600555005b015190508880610808565b601f1982169783600052816000209860005b8181106109035750916007979899918460019594106108ea575b505050811b01905561081d565b015160001960f88460031b161c191690558880806108dd565b838301518b556001909a0199602093840193016108c3565b826000526020600020601f830160051c81019160208410610959575b601f0160051c01905b81811061094d57506107eb565b60008155600101610940565b9091508190610937565b0151905088806107ac565b60008581528281209350601f198516905b8181106109bb57509084600195949392106109a2575b505050811b0190556107c1565b015160001960f88460031b161c19169055888080610995565b9293602060018192878601518155019501930161097f565b909150836000526020600020601f840160051c81019160208510610a1c575b90601f859493920160051c01905b818110610a0d5750610795565b60008155849350600101610a00565b90915081906109f2565b015190508980610755565b60008581528281209350601f198516905b818110610a7e5750908460019594939210610a65575b505050811b01905561076a565b015160001960f88460031b161c19169055898080610a58565b92936020600181928786015181550195019301610a42565b909150836000526020600020601f840160051c81019160208510610adf575b90601f859493920160051c01905b818110610ad0575061073e565b60008155849350600101610ac3565b9091508190610ab5565b015190508b806106f8565b60008581528281209350601f198516905b818110610b415750908460019594939210610b28575b505050811b01905561070d565b015160001960f88460031b161c191690558b8080610b1b565b92936020600181928786015181550195019301610b05565b909150836000526020600020601f840160051c81019160208510610ba2575b90601f859493920160051c01905b818110610b9357506106e1565b60008155849350600101610b86565b9091508190610b78565b3461032f57600036600319011261032f5761055a610619612bef565b3461032f57602036600319011261032f576001600160a01b03610be96126e6565b1660005260066020526020604060002060ff8154169061055a610c0e60018301612875565b610c9c6002840154610c8e610c2560038701612875565b91610c80610c3560048901612875565b91610c4260058a01612875565b94610c6d600760068c01549b0154986101206040519e8f9e8f901515815201526101208d01906124a1565b9160408c01528a820360608c01526124a1565b9088820360808a01526124a1565b9086820360a08801526124a1565b60c08501939093526001600160a01b03811660e085015261010084019060a01c60ff166124e2565b3461032f57602036600319011261032f57600435600a5481101561032f57610ced602091612438565b905460405160039290921b1c6001600160a01b03168152f35b3461032f57600036600319011261032f576000546040516001600160a01b039091168152602090f35b3461032f57602036600319011261032f576001600160a01b03610d506126e6565b1660005260076020526040600020610120610d6a82612875565b9161055a610d7a60018301612875565b600283015492610df8610d8f60038301612875565b94610dea610d9f60048501612875565b91600585015497610dd76007600688015497015497610dc96040519d8d8f9e8f90815201906124a1565b8c810360208e0152906124a1565b9160408b015289820360608b01526124a1565b9087820360808901526124a1565b9360a086015260c085015260018060a01b03811660e085015260ff61010085019160a01c166124e2565b3461032f57600036600319011261032f57600c54610e3f81612a2e565b9060005b818110610e58576040518061055a8582612686565b80610e64600192612453565b838060a01b0391549060031b1c1660005260066020526040600020610f0f60ff600760405193610e93856126fc565b8281541615158552610ea6878201612875565b602086015260028101546040860152610ec160038201612875565b6060860152610ed260048201612875565b6080860152610ee360058201612875565b60a0860152600681015460c08601520154858060a01b03811660e085015260a01c1661010083016129db565b610f1982866129c7565b52610f2481856129c7565b5001610e43565b3461032f57600036600319011261032f576040516000600154610f4d8161283b565b8084529060018116908115610fe85750600114610f89575b61055a83610f7581850382612718565b6040519182916020835260208301906124a1565b600160009081527fb10e2d527612073b26eecdfd717e6a320cf44b4afac2b0732d9fcbe2b7fa0cf6939250905b808210610fce57509091508101602001610f75610f65565b919260018160209254838588010152019101909291610fb6565b60ff191660208086019190915291151560051b84019091019150610f759050610f65565b3461032f57602036600319011261032f5760043560095481101561032f57610ced60209161246e565b3461032f57602036600319011261032f576004356001600160401b03811161032f57611065903690600401612739565b3360005260066020526001604060002061108b828060a01b036007830154161515612b45565b0181516001600160401b038111610261576110a6825461283b565b601f811161114d575b50602092601f82116001146110ed57928192936000926110e2575b5050600019600383901b1c191660019190911b179055005b0151905083806110ca565b601f1982169383600052806000209160005b868110611135575083600195961061111c575b505050811b019055005b015160001960f88460031b161c19169055838080611112565b919260206001819286850151815501940192016110ff565b826000526020600020601f830160051c8101916020841061118b575b601f0160051c01905b81811061117f57506110af565b60008155600101611172565b9091508190611169565b3461032f576111a33661278f565b906111b960018060a01b03600054163314612a7e565b60018060a01b031680600052600760205260016040600020600781016111e8838060a01b038254161515612b91565b8260a01b60ff60a01b198254161790550182516001600160401b03811161026157611213825461283b565b601f81116112dc575b506020601f8211600114611277578192939460009261126c575b50508160011b916000199060031b1c19161790555b600a54600160401b811015610261578060016102419201600a55600a612489565b015190508480611236565b601f1982169083600052806000209160005b8181106112c4575095836001959697106112ab575b505050811b01905561124b565b015160001960f88460031b161c1916905584808061129e565b9192602060018192868b015181550194019201611289565b826000526020600020601f830160051c8101916020841061131a575b601f0160051c01905b81811061130e575061121c565b60008155600101611301565b90915081906112f8565b3461032f57602036600319011261032f576004356001600160401b03811161032f57611354903690600401612739565b336000526007602052604060002061137960018060a01b036007830154161515612b45565b81516001600160401b03811161026157611393825461283b565b601f8111611414575b50602092601f82116001146113ce57928192936000926110e2575050600019600383901b1c191660019190911b179055005b601f1982169383600052806000209160005b8681106113fc575083600195961061111c57505050811b019055005b919260206001819286850151815501940192016113e0565b826000526020600020601f830160051c81019160208410611452575b601f0160051c01905b818110611446575061139c565b60008155600101611439565b9091508190611430565b3461032f5761146a366127ce565b92600454916040519161147c836126fc565b8252611486612b00565b926020830193845260408301948552606083019182526080830195865260a0830190815260c08301916000835260e084019533875261010085019560008752336000526007602052604060002095518051906001600160401b0382116102615781906114f2895461283b565b601f8111611979575b50602090601f831160011461191457600092611909575b50508160011b916000199060031b1c19161786555b51805160018701916001600160401b038211610261578190611549845461283b565b601f81116118b6575b50602090601f831160011461185157600092611846575b50508160011b916000199060031b1c19161790555b51600285015551805160038501916001600160401b0382116102615781906115a6845461283b565b601f81116117f3575b50602090601f831160011461178e57600092611783575b50508160011b916000199060031b1c19161790555b6004830195519586516001600160401b038111610261576115fc825461283b565b601f811161173b575b506020601f82116001146116d157819060079798996000926116c6575b50508160011b916000199060031b1c19161790555b5160058301555160068201559251920180546001600160a01b0319166001600160a01b03939093169290921782555160038110156105a35761167891612ab7565b600854600160401b8110156102615780600161169992016008556008612489565b81546001600160a01b0360039290921b91821b19163390911b1790556004546116c190612adb565b600455005b015190508980611622565b601f1982169883600052816000209960005b818110611723575091600798999a9184600195941061170a575b505050811b019055611637565b015160001960f88460031b161c191690558980806116fd565b838301518c556001909b019a602093840193016116e3565b826000526020600020601f830160051c81019160208410611779575b601f0160051c01905b81811061176d5750611605565b60008155600101611760565b9091508190611757565b0151905089806115c6565b60008581528281209350601f198516905b8181106117db57509084600195949392106117c2575b505050811b0190556115db565b015160001960f88460031b161c191690558980806117b5565b9293602060018192878601518155019501930161179f565b909150836000526020600020601f840160051c8101916020851061183c575b90601f859493920160051c01905b81811061182d57506115af565b60008155849350600101611820565b9091508190611812565b015190508b80611569565b60008581528281209350601f198516905b81811061189e5750908460019594939210611885575b505050811b01905561157e565b015160001960f88460031b161c191690558b8080611878565b92936020600181928786015181550195019301611862565b909150836000526020600020601f840160051c810191602085106118ff575b90601f859493920160051c01905b8181106118f05750611552565b600081558493506001016118e3565b90915081906118d5565b015190508b80611512565b60008a81528281209350601f198516905b8181106119615750908460019594939210611948575b505050811b018655611527565b015160001960f88460031b161c191690558b808061193b565b92936020600181928786015181550195019301611925565b909150886000526020600020601f840160051c810191602085106119c2575b90601f859493920160051c01905b8181106119b357506114fb565b600081558493506001016119a6565b9091508190611998565b3461032f57602036600319011261032f576119e56126e6565b6002544210611bb4576003544211611b7c57336000526006602052604060002060ff600782015460a01c1660038110156105a357600103611b375780549160ff8316611af95760018060a01b0316600052600760205260406000209060ff600783015460a01c1660038110156105a357600103611ab457600160069360ff191617905501611a738154612adb565b9055600c54600160401b81101561026157806001611a969201600c55600c612489565b81546001600160a01b0360039290921b91821b19163390911b179055005b60405162461bcd60e51b815260206004820152601a60248201527f43616e646964617465206973206e6f742061636365707465642e0000000000006044820152606490fd5b60405162461bcd60e51b8152602060048201526016602482015275165bdd481a185d9948185b1c9958591e481d9bdd195960521b6044820152606490fd5b60405162461bcd60e51b815260206004820152601e60248201527f596f7520617265206e6f74206120636f6e6669726d656420766f7465722e00006044820152606490fd5b60405162461bcd60e51b815260206004820152601060248201526f159bdd1a5b99c81a185cc8195b99195960821b6044820152606490fd5b60405162461bcd60e51b815260206004820152601a60248201527f566f74696e6720686173206e6f742073746172746564207965740000000000006044820152606490fd5b3461032f57600036600319011261032f57600954611c1681612a2e565b9060005b818110611c2f576040518061055a8582612686565b80611c3b60019261246e565b838060a01b0391549060031b1c1660005260066020526040600020611c6a60ff600760405193610e93856126fc565b611c7482866129c7565b52611c7f81856129c7565b5001611c1a565b3461032f57602036600319011261032f57600435600c5481101561032f57610ced602091612453565b3461032f57611cbd3661278f565b90611cd360018060a01b03600054163314612a7e565b6001600160a01b039081166000908152600760208190526040909120908101805490921615611df857815460ff60a01b1916600160a11b179091558151600191909101906001600160401b03811161026157611d2f825461283b565b601f8111611db0575b50602092601f8211600114611d6a57928192936000926110e2575050600019600383901b1c191660019190911b179055005b601f1982169383600052806000209160005b868110611d98575083600195961061111c57505050811b019055005b91926020600181928685015181550194019201611d7c565b826000526020600020601f830160051c81019160208410611dee575b601f0160051c01905b818110611de25750611d38565b60008155600101611dd5565b9091508190611dcc565b60405162461bcd60e51b815260206004820152601b60248201527f4e6f2063616e646964617465206461746120617661696c61626c6500000000006044820152606490fd5b3461032f57602036600319011261032f57611e566126e6565b611e5e6129e7565b5060018060a01b031660005260066020526040600020600760405191611e83836126fc565b60ff81541615158352611e9860018201612875565b602084015260028101546040840152611eb360038201612875565b6060840152611ec460048201612875565b6080840152611ed560058201612875565b60a0840152600681015460c0840152015460e0820160018060a01b0382168152611f0a60ff61010085019360a01c16836129db565b516001600160a01b031615611f80575160038110156105a35760001901611f435761055a906040519182916020835260208301906125eb565b60405162461bcd60e51b8152602060048201526015602482015274159bdd195c881a5cc81b9bdd081858d8d95c1d1959605a1b6044820152606490fd5b60405162461bcd60e51b815260206004820152600f60248201526e159bdd195c881b9bdd08199bdd5b99608a1b6044820152606490fd5b3461032f57602036600319011261032f57600435600b5481101561032f57610ced60209161241d565b3461032f57611fee3661278f565b9061200460018060a01b03600054163314612a7e565b6001600160a01b0390811660009081526006602052604090206007810180549092161561212757815460ff60a01b1916600160a11b179091558151600591909101906001600160401b0381116102615761205e825461283b565b601f81116120df575b50602092601f821160011461209957928192936000926110e2575050600019600383901b1c191660019190911b179055005b601f1982169383600052806000209160005b8681106120c7575083600195961061111c57505050811b019055005b919260206001819286850151815501940192016120ab565b826000526020600020601f830160051c8101916020841061211d575b601f0160051c01905b8181106121115750612067565b60008155600101612104565b90915081906120fb565b60405162461bcd60e51b815260206004820152601760248201527f4e6f20766f746572206461746120617661696c61626c650000000000000000006044820152606490fd5b3461032f57600036600319011261032f57600a5461218981612977565b9060005b8181106121a2576040518061055a858261258b565b806121ae600192612438565b838060a01b0391549060031b1c166000526007602052604060002061225560ff6007604051936121dd856126fc565b6121e681612875565b85526121f3878201612875565b60208601526002810154604086015261220e60038201612875565b606086015261221f60048201612875565b6080860152600581015460a0860152600681015460c08601520154858060a01b03811660e085015260a01c1661010083016129db565b61225f82866129c7565b5261226a81856129c7565b500161218d565b3461032f57600036600319011261032f57600b5461228e81612a2e565b9060005b8181106122a7576040518061055a8582612686565b806122b360019261241d565b838060a01b0391549060031b1c16600052600660205260406000206122e260ff600760405193610e93856126fc565b6122ec82866129c7565b526122f781856129c7565b5001612292565b3461032f57600036600319011261032f576020600254604051908152f35b3461032f57600036600319011261032f5760085461233981612977565b9060005b818110612352576040518061055a858261258b565b8061235e6001926123ec565b838060a01b0391549060031b1c166000526007602052604060002061238d60ff6007604051936121dd856126fc565b61239782866129c7565b526123a281856129c7565b500161233d565b3461032f57600036600319011261032f576020600354604051908152f35b3461032f57602036600319011261032f5760043560085481101561032f57610ced6020915b60085481101561240757600860005260206000200190600090565b634e487b7160e01b600052603260045260246000fd5b600b5481101561240757600b60005260206000200190600090565b600a5481101561240757600a60005260206000200190600090565b600c5481101561240757600c60005260206000200190600090565b60095481101561240757600960005260206000200190600090565b80548210156124075760005260206000200190600090565b919082519283825260005b8481106124cd575050826000602080949584010152601f8019910116010190565b806020809284010151828286010152016124ac565b9060038210156105a35752565b906125889061010080612556612544612528612516885161012088526101208801906124a1565b602089015187820360208901526124a1565b60408801516040870152606088015186820360608801526124a1565b608087015185820360808701526124a1565b60a0808701519085015260c0808701519085015260e0808701516001600160a01b0316908501529401519101906124e2565b90565b602081016020825282518091526040820191602060408360051b8301019401926000915b8383106125be57505050505090565b90919293946020806125dc600193603f1986820301875289516124ef565b970193019301919392906125af565b90612588908251151581526101008061265e61264c61263a61261e602089015161012060208901526101208801906124a1565b60408901516040880152606089015187820360608901526124a1565b608088015186820360808801526124a1565b60a087015185820360a08701526124a1565b60c0808701519085015260e0808701516001600160a01b0316908501529401519101906124e2565b602081016020825282518091526040820191602060408360051b8301019401926000915b8383106126b957505050505090565b90919293946020806126d7600193603f1986820301875289516125eb565b970193019301919392906126aa565b600435906001600160a01b038216820361032f57565b61012081019081106001600160401b0382111761026157604052565b90601f801991011681019081106001600160401b0382111761026157604052565b81601f8201121561032f578035906001600160401b038211610261576040519261276d601f8401601f191660200185612718565b8284526020838301011161032f57816000926020809301838601378301015290565b90604060031983011261032f576004356001600160a01b038116810361032f5791602435906001600160401b03821161032f5761258891600401612739565b90608060031983011261032f576004356001600160401b03811161032f57826127f991600401612739565b91602435916044356001600160401b03811161032f578261281c91600401612739565b91606435906001600160401b03821161032f5761258891600401612739565b90600182811c9216801561286b575b602083101461285557565b634e487b7160e01b600052602260045260246000fd5b91607f169161284a565b90604051918260008254926128898461283b565b80845293600181169081156128f757506001146128b0575b506128ae92500383612718565b565b90506000929192526020600020906000915b8183106128db5750509060206128ae92820101386128a1565b60209193508060019154838589010152019101909184926128c2565b9050602092506128ae94915060ff191682840152151560051b820101386128a1565b6001600160401b0381116102615760051b60200190565b6040519061293d826126fc565b6000610100836060815260606020820152826040820152606080820152606060808201528260a08201528260c08201528260e08201520152565b9061298182612919565b61298e6040519182612718565b828152809261299f601f1991612919565b019060005b8281106129b057505050565b6020906129bb612930565b828285010152016129a4565b80518210156124075760209160051b010190565b60038210156105a35752565b604051906129f4826126fc565b6000610100838281526060602082015282604082015260608082015260606080820152606060a08201528260c08201528260e08201520152565b90612a3882612919565b612a456040519182612718565b8281528092612a56601f1991612919565b019060005b828110612a6757505050565b602090612a726129e7565b82828501015201612a5b565b15612a8557565b60405162461bcd60e51b815260206004820152600a60248201526927b7363c9037bbb732b960b11b6044820152606490fd5b9060038110156105a357815460ff60a01b191660a09190911b60ff60a01b16179055565b6000198114612aea5760010190565b634e487b7160e01b600052601160045260246000fd5b60405190612b0f606083612718565b60218252601b60fa1b6040837f526567697374726174696f6e206973206177616974696e6720617070726f766160208201520152565b15612b4c57565b60405162461bcd60e51b815260206004820152601860248201527f4e6f20766f746572206461746120617661696c61626c652e00000000000000006044820152606490fd5b15612b9857565b60405162461bcd60e51b815260206004820152602960248201527f5468697320766f74657220646f6573206e6f742061707065617220696e206f75604482015268391039bcb9ba32b69760b91b6064820152608490fd5b612bf7612930565b50612c00612930565b600a546000805b828110612c145750505090565b612c1d81612438565b60018060a01b0391549060031b1c166000526007602052604060002060405190612c46826126fc565b612c4f81612875565b8252612c5d60018201612875565b602083015260028101546040830152612c7860038201612875565b6060830152612c8960048201612875565b6080830152600581015460a0830152612cca60ff600760068401549360c08601948552015460018060a01b03811660e086015260a01c1661010084016129db565b51838111612cdd575b5050600101612c07565b9094509150600138612cd356fea2646970667358221220731988d1931961936ac0f22416e5a9abcf30924ac15f0c4903482edf3664238164736f6c634300081c0033",
  "linkReferences": {},
  "deployedLinkReferences": {}
}