{
  "_format": "hh-sol-artifact-1",
  "contractName": "VotingSystem",
  "sourceName": "contracts/VotingSystem.sol",
  "abi": [
    {
      "inputs": [
        {
          "internalType": "string",
          "name": "_name",
          "type": "string"
        }
      ],
      "stateMutability": "nonpayable",
      "type": "constructor"
    },
    {
      "inputs": [],
      "name": "CurrentVotingStatus",
      "outputs": [
        {
          "components": [
            {
              "internalType": "string",
              "name": "name",
              "type": "string"
            },
            {
              "internalType": "string",
              "name": "message",
              "type": "string"
            },
            {
              "internalType": "uint256",
              "name": "age",
              "type": "uint256"
            },
            {
              "internalType": "string",
              "name": "email",
              "type": "string"
            },
            {
              "internalType": "string",
              "name": "phone",
              "type": "string"
            },
            {
              "internalType": "uint256",
              "name": "registeredId",
              "type": "uint256"
            },
            {
              "internalType": "uint256",
              "name": "voteCalculation",
              "type": "uint256"
            },
            {
              "internalType": "address",
              "name": "candidatesAddress",
              "type": "address"
            },
            {
              "internalType": "enum VotingSystem.ConfirmationStatus",
              "name": "status",
              "type": "uint8"
            }
          ],
          "internalType": "struct VotingSystem.Candidate",
          "name": "",
          "type": "tuple"
        }
      ],
      "stateMutability": "view",
      "type": "function"
    },
    {
      "inputs": [],
      "name": "ListofAcceptedCandidates",
      "outputs": [
        {
          "components": [
            {
              "internalType": "string",
              "name": "name",
              "type": "string"
            },
            {
              "internalType": "string",
              "name": "message",
              "type": "string"
            },
            {
              "internalType": "uint256",
              "name": "age",
              "type": "uint256"
            },
            {
              "internalType": "string",
              "name": "email",
              "type": "string"
            },
            {
              "internalType": "string",
              "name": "phone",
              "type": "string"
            },
            {
              "internalType": "uint256",
              "name": "registeredId",
              "type": "uint256"
            },
            {
              "internalType": "uint256",
              "name": "voteCalculation",
              "type": "uint256"
            },
            {
              "internalType": "address",
              "name": "candidatesAddress",
              "type": "address"
            },
            {
              "internalType": "enum VotingSystem.ConfirmationStatus",
              "name": "status",
              "type": "uint8"
            }
          ],
          "internalType": "struct VotingSystem.Candidate[]",
          "name": "",
          "type": "tuple[]"
        }
      ],
      "stateMutability": "view",
      "type": "function"
    },
    {
      "inputs": [],
      "name": "ListofAcceptedVoters",
      "outputs": [
        {
          "components": [
            {
              "internalType": "bool",
              "name": "alreadyVoted",
              "type": "bool"
            },
            {
              "internalType": "string",
              "name": "name",
              "type": "string"
            },
            {
              "internalType": "uint256",
              "name": "age",
              "type": "uint256"
            },
            {
              "internalType": "string",
              "name": "email",
              "type": "string"
            },
            {
              "internalType": "string",
              "name": "phone",
              "type": "string"
            },
            {
              "internalType": "string",
              "name": "message",
              "type": "string"
            },
            {
              "internalType": "uint256",
              "name": "registeredId",
              "type": "uint256"
            },
            {
              "internalType": "address",
              "name": "votersAddress",
              "type": "address"
            },
            {
              "internalType": "enum VotingSystem.ConfirmationStatus",
              "name": "status",
              "type": "uint8"
            }
          ],
          "internalType": "struct VotingSystem.Voter[]",
          "name": "",
          "type": "tuple[]"
        }
      ],
      "stateMutability": "view",
      "type": "function"
    },
    {
      "inputs": [],
      "name": "ListofRegisteredCandidates",
      "outputs": [
        {
          "components": [
            {
              "internalType": "string",
              "name": "name",
              "type": "string"
            },
            {
              "internalType": "string",
              "name": "message",
              "type": "string"
            },
            {
              "internalType": "uint256",
              "name": "age",
              "type": "uint256"
            },
            {
              "internalType": "string",
              "name": "email",
              "type": "string"
            },
            {
              "internalType": "string",
              "name": "phone",
              "type": "string"
            },
            {
              "internalType": "uint256",
              "name": "registeredId",
              "type": "uint256"
            },
            {
              "internalType": "uint256",
              "name": "voteCalculation",
              "type": "uint256"
            },
            {
              "internalType": "address",
              "name": "candidatesAddress",
              "type": "address"
            },
            {
              "internalType": "enum VotingSystem.ConfirmationStatus",
              "name": "status",
              "type": "uint8"
            }
          ],
          "internalType": "struct VotingSystem.Candidate[]",
          "name": "",
          "type": "tuple[]"
        }
      ],
      "stateMutability": "view",
      "type": "function"
    },
    {
      "inputs": [],
      "name": "ListofRegisteredVoters",
      "outputs": [
        {
          "components": [
            {
              "internalType": "bool",
              "name": "alreadyVoted",
              "type": "bool"
            },
            {
              "internalType": "string",
              "name": "name",
              "type": "string"
            },
            {
              "internalType": "uint256",
              "name": "age",
              "type": "uint256"
            },
            {
              "internalType": "string",
              "name": "email",
              "type": "string"
            },
            {
              "internalType": "string",
              "name": "phone",
              "type": "string"
            },
            {
              "internalType": "string",
              "name": "message",
              "type": "string"
            },
            {
              "internalType": "uint256",
              "name": "registeredId",
              "type": "uint256"
            },
            {
              "internalType": "address",
              "name": "votersAddress",
              "type": "address"
            },
            {
              "internalType": "enum VotingSystem.ConfirmationStatus",
              "name": "status",
              "type": "uint8"
            }
          ],
          "internalType": "struct VotingSystem.Voter[]",
          "name": "",
          "type": "tuple[]"
        }
      ],
      "stateMutability": "view",
      "type": "function"
    },
    {
      "inputs": [
        {
          "internalType": "uint256",
          "name": "",
          "type": "uint256"
        }
      ],
      "name": "acceptedCandidates",
      "outputs": [
        {
          "internalType": "address",
          "name": "",
          "type": "address"
        }
      ],
      "stateMutability": "view",
      "type": "function"
    },
    {
      "inputs": [
        {
          "internalType": "uint256",
          "name": "",
          "type": "uint256"
        }
      ],
      "name": "acceptedVoters",
      "outputs": [
        {
          "internalType": "address",
          "name": "",
          "type": "address"
        }
      ],
      "stateMutability": "view",
      "type": "function"
    },
    {
      "inputs": [
        {
          "internalType": "address",
          "name": "_candidatesAddress",
          "type": "address"
        },
        {
          "internalType": "string",
          "name": "_message",
          "type": "string"
        }
      ],
      "name": "approveCandidate",
      "outputs": [],
      "stateMutability": "nonpayable",
      "type": "function"
    },
    {
      "inputs": [
        {
          "internalType": "address",
          "name": "_votersAddress",
          "type": "address"
        },
        {
          "internalType": "string",
          "name": "_message",
          "type": "string"
        }
      ],
      "name": "approveVoter",
      "outputs": [],
      "stateMutability": "nonpayable",
      "type": "function"
    },
    {
      "inputs": [
        {
          "internalType": "address",
          "name": "",
          "type": "address"
        }
      ],
      "name": "candidates",
      "outputs": [
        {
          "internalType": "string",
          "name": "name",
          "type": "string"
        },
        {
          "internalType": "string",
          "name": "message",
          "type": "string"
        },
        {
          "internalType": "uint256",
          "name": "age",
          "type": "uint256"
        },
        {
          "internalType": "string",
          "name": "email",
          "type": "string"
        },
        {
          "internalType": "string",
          "name": "phone",
          "type": "string"
        },
        {
          "internalType": "uint256",
          "name": "registeredId",
          "type": "uint256"
        },
        {
          "internalType": "uint256",
          "name": "voteCalculation",
          "type": "uint256"
        },
        {
          "internalType": "address",
          "name": "candidatesAddress",
          "type": "address"
        },
        {
          "internalType": "enum VotingSystem.ConfirmationStatus",
          "name": "status",
          "type": "uint8"
        }
      ],
      "stateMutability": "view",
      "type": "function"
    },
    {
      "inputs": [
        {
          "internalType": "uint256",
          "name": "",
          "type": "uint256"
        }
      ],
      "name": "candidatesRegistered",
      "outputs": [
        {
          "internalType": "address",
          "name": "",
          "type": "address"
        }
      ],
      "stateMutability": "view",
      "type": "function"
    },
    {
      "inputs": [],
      "name": "electionEndTime",
      "outputs": [
        {
          "internalType": "uint256",
          "name": "",
          "type": "uint256"
        }
      ],
      "stateMutability": "view",
      "type": "function"
    },
    {
      "inputs": [],
      "name": "electionName",
      "outputs": [
        {
          "internalType": "string",
          "name": "",
          "type": "string"
        }
      ],
      "stateMutability": "view",
      "type": "function"
    },
    {
      "inputs": [],
      "name": "electionStartTime",
      "outputs": [
        {
          "internalType": "uint256",
          "name": "",
          "type": "uint256"
        }
      ],
      "stateMutability": "view",
      "type": "function"
    },
    {
      "inputs": [
        {
          "internalType": "address",
          "name": "_candidatesAddress",
          "type": "address"
        }
      ],
      "name": "findCandidate",
      "outputs": [
        {
          "components": [
            {
              "internalType": "string",
              "name": "name",
              "type": "string"
            },
            {
              "internalType": "string",
              "name": "message",
              "type": "string"
            },
            {
              "internalType": "uint256",
              "name": "age",
              "type": "uint256"
            },
            {
              "internalType": "string",
              "name": "email",
              "type": "string"
            },
            {
              "internalType": "string",
              "name": "phone",
              "type": "string"
            },
            {
              "internalType": "uint256",
              "name": "registeredId",
              "type": "uint256"
            },
            {
              "internalType": "uint256",
              "name": "voteCalculation",
              "type": "uint256"
            },
            {
              "internalType": "address",
              "name": "candidatesAddress",
              "type": "address"
            },
            {
              "internalType": "enum VotingSystem.ConfirmationStatus",
              "name": "status",
              "type": "uint8"
            }
          ],
          "internalType": "struct VotingSystem.Candidate",
          "name": "",
          "type": "tuple"
        }
      ],
      "stateMutability": "view",
      "type": "function"
    },
    {
      "inputs": [
        {
          "internalType": "address",
          "name": "_votersAddress",
          "type": "address"
        }
      ],
      "name": "findVoter",
      "outputs": [
        {
          "components": [
            {
              "internalType": "bool",
              "name": "alreadyVoted",
              "type": "bool"
            },
            {
              "internalType": "string",
              "name": "name",
              "type": "string"
            },
            {
              "internalType": "uint256",
              "name": "age",
              "type": "uint256"
            },
            {
              "internalType": "string",
              "name": "email",
              "type": "string"
            },
            {
              "internalType": "string",
              "name": "phone",
              "type": "string"
            },
            {
              "internalType": "string",
              "name": "message",
              "type": "string"
            },
            {
              "internalType": "uint256",
              "name": "registeredId",
              "type": "uint256"
            },
            {
              "internalType": "address",
              "name": "votersAddress",
              "type": "address"
            },
            {
              "internalType": "enum VotingSystem.ConfirmationStatus",
              "name": "status",
              "type": "uint8"
            }
          ],
          "internalType": "struct VotingSystem.Voter",
          "name": "",
          "type": "tuple"
        }
      ],
      "stateMutability": "view",
      "type": "function"
    },
    {
      "inputs": [],
      "name": "getAllVotersWhoCasted",
      "outputs": [
        {
          "components": [
            {
              "internalType": "bool",
              "name": "alreadyVoted",
              "type": "bool"
            },
            {
              "internalType": "string",
              "name": "name",
              "type": "string"
            },
            {
              "internalType": "uint256",
              "name": "age",
              "type": "uint256"
            },
            {
              "internalType": "string",
              "name": "email",
              "type": "string"
            },
            {
              "internalType": "string",
              "name": "phone",
              "type": "string"
            },
            {
              "internalType": "string",
              "name": "message",
              "type": "string"
            },
            {
              "internalType": "uint256",
              "name": "registeredId",
              "type": "uint256"
            },
            {
              "internalType": "address",
              "name": "votersAddress",
              "type": "address"
            },
            {
              "internalType": "enum VotingSystem.ConfirmationStatus",
              "name": "status",
              "type": "uint8"
            }
          ],
          "internalType": "struct VotingSystem.Voter[]",
          "name": "",
          "type": "tuple[]"
        }
      ],
      "stateMutability": "view",
      "type": "function"
    },
    {
      "inputs": [],
      "name": "owner",
      "outputs": [
        {
          "internalType": "address",
          "name": "",
          "type": "address"
        }
      ],
      "stateMutability": "view",
      "type": "function"
    },
    {
      "inputs": [
        {
          "internalType": "string",
          "name": "_name",
          "type": "string"
        },
        {
          "internalType": "uint256",
          "name": "_age",
          "type": "uint256"
        },
        {
          "internalType": "string",
          "name": "_email",
          "type": "string"
        },
        {
          "internalType": "string",
          "name": "_phone",
          "type": "string"
        }
      ],
      "name": "registerCandidate",
      "outputs": [],
      "stateMutability": "nonpayable",
      "type": "function"
    },
    {
      "inputs": [
        {
          "internalType": "string",
          "name": "_name",
          "type": "string"
        },
        {
          "internalType": "uint256",
          "name": "_age",
          "type": "uint256"
        },
        {
          "internalType": "string",
          "name": "_email",
          "type": "string"
        },
        {
          "internalType": "string",
          "name": "_phone",
          "type": "string"
        }
      ],
      "name": "registerVoter",
      "outputs": [],
      "stateMutability": "nonpayable",
      "type": "function"
    },
    {
      "inputs": [
        {
          "internalType": "address",
          "name": "_candidatesAddress",
          "type": "address"
        },
        {
          "internalType": "string",
          "name": "_message",
          "type": "string"
        }
      ],
      "name": "rejectCandidate",
      "outputs": [],
      "stateMutability": "nonpayable",
      "type": "function"
    },
    {
      "inputs": [
        {
          "internalType": "address",
          "name": "_votersAddress",
          "type": "address"
        },
        {
          "internalType": "string",
          "name": "_message",
          "type": "string"
        }
      ],
      "name": "rejectVoter",
      "outputs": [],
      "stateMutability": "nonpayable",
      "type": "function"
    },
    {
      "inputs": [
        {
          "internalType": "string",
          "name": "_name",
          "type": "string"
        }
      ],
      "name": "updateCandidate",
      "outputs": [],
      "stateMutability": "nonpayable",
      "type": "function"
    },
    {
      "inputs": [
        {
          "internalType": "string",
          "name": "_name",
          "type": "string"
        }
      ],
      "name": "updateVoter",
      "outputs": [],
      "stateMutability": "nonpayable",
      "type": "function"
    },
    {
      "inputs": [
        {
          "internalType": "address",
          "name": "_candidatesAddress",
          "type": "address"
        }
      ],
      "name": "vote",
      "outputs": [],
      "stateMutability": "nonpayable",
      "type": "function"
    },
    {
      "inputs": [
        {
          "internalType": "address",
          "name": "",
          "type": "address"
        }
      ],
      "name": "voters",
      "outputs": [
        {
          "internalType": "bool",
          "name": "alreadyVoted",
          "type": "bool"
        },
        {
          "internalType": "string",
          "name": "name",
          "type": "string"
        },
        {
          "internalType": "uint256",
          "name": "age",
          "type": "uint256"
        },
        {
          "internalType": "string",
          "name": "email",
          "type": "string"
        },
        {
          "internalType": "string",
          "name": "phone",
          "type": "string"
        },
        {
          "internalType": "string",
          "name": "message",
          "type": "string"
        },
        {
          "internalType": "uint256",
          "name": "registeredId",
          "type": "uint256"
        },
        {
          "internalType": "address",
          "name": "votersAddress",
          "type": "address"
        },
        {
          "internalType": "enum VotingSystem.ConfirmationStatus",
          "name": "status",
          "type": "uint8"
        }
      ],
      "stateMutability": "view",
      "type": "function"
    },
    {
      "inputs": [
        {
          "internalType": "uint256",
          "name": "",
          "type": "uint256"
        }
      ],
      "name": "votersRegistered",
      "outputs": [
        {
          "internalType": "address",
          "name": "",
          "type": "address"
        }
      ],
      "stateMutability": "view",
      "type": "function"
    },
    {
      "inputs": [
        {
          "internalType": "uint256",
          "name": "",
          "type": "uint256"
        }
      ],
      "name": "votersWhoCasted",
      "outputs": [
        {
          "internalType": "address",
          "name": "",
          "type": "address"
        }
      ],
      "stateMutability": "view",
      "type": "function"
    },
    {
      "inputs": [],
      "name": "winningCandidate",
      "outputs": [
        {
          "components": [
            {
              "internalType": "string",
              "name": "name",
              "type": "string"
            },
            {
              "internalType": "string",
              "name": "message",
              "type": "string"
            },
            {
              "internalType": "uint256",
              "name": "age",
              "type": "uint256"
            },
            {
              "internalType": "string",
              "name": "email",
              "type": "string"
            },
            {
              "internalType": "string",
              "name": "phone",
              "type": "string"
            },
            {
              "internalType": "uint256",
              "name": "registeredId",
              "type": "uint256"
            },
            {
              "internalType": "uint256",
              "name": "voteCalculation",
              "type": "uint256"
            },
            {
              "internalType": "address",
              "name": "candidatesAddress",
              "type": "address"
            },
            {
              "internalType": "enum VotingSystem.ConfirmationStatus",
              "name": "status",
              "type": "uint8"
            }
          ],
          "internalType": "struct VotingSystem.Candidate",
          "name": "",
          "type": "tuple"
        }
      ],
      "stateMutability": "view",
      "type": "function"
    }
  ],
  "bytecode": "0x60806040523461023b57612dc78038038061001981610240565b92833981019060208183031261023b578051906001600160401b03821161023b570181601f8201121561023b578051906001600160401b0382116102105761006a601f8301601f1916602001610240565b928284526020838301011161023b5760005b82811061022657600083850160200181905280546001600160a01b03191633179055835184906001600160401b03811161021057600154600181811c91168015610206575b60208210146101f057601f811161018b575b50602091601f82116001146101275791819260009261011c575b50508160011b916000199060031b1c1916176001555b60016004556001600555604051612b6190816102668239f35b0151905082806100ed565b601f198216926001600052806000209160005b8581106101735750836001951061015a575b505050811b01600155610103565b015160001960f88460031b161c1916905582808061014c565b9192602060018192868501518155019401920161013a565b60016000527fb10e2d527612073b26eecdfd717e6a320cf44b4afac2b0732d9fcbe2b7fa0cf6601f830160051c810191602084106101e6575b601f0160051c01905b8181106101da57506100d3565b600081556001016101cd565b90915081906101c4565b634e487b7160e01b600052602260045260246000fd5b90607f16906100c1565b634e487b7160e01b600052604160045260246000fd5b8060208092840101518282870101520161007c565b600080fd5b6040519190601f01601f191682016001600160401b038111838210176102105760405256fe6080604052600436101561001257600080fd5b60003560e01c80630366ac37146122085780631ee9367c1461217b57806323a2b2ed146120ee5780633cfde26c14611fe95780634a2846a814611e5d57806353dd128c14611e3457806357f3a8e514611cba57806359632c2214611b2c5780635f1bc34e14611b0357806360fc4e3214611a765780636dd7d8ea146118d857806371565d2e1461136857806379432db5146112305780637eb21b51146110a157806382ff2aeb14610f41578063849c565714610f1857806385e8e7a714610e375780638987cb3214610d2e5780638ab66a9014610c3b5780638da5cb5b14610c125780639e136e6414610bf45780639e7a814514610bb2578063a3ec138d14610ab6578063bab912a214610a9a578063c5980c9414610a7c578063cd6cf311146104fd578063d28178d7146104c4578063dbf7be47146103295763fad761d31461015b57600080fd5b3461032457610169366125d0565b9061017f60018060a01b036000541633146128bf565b6001600160a01b03908116600081815260066020526040902060078101805492936005936101af911615156129d2565b805460ff60a01b1916600160a01b17905583519101906001600160401b038111610256576101dd825461267c565b601f81116102dc575b506020601f8211600114610277578192939460009261026c575b50508160011b916000199060031b1c19161790555b600b54600160401b811015610256578060016102369201600b55600b6122ca565b81546001600160a01b0360039290921b91821b191692901b919091179055005b634e487b7160e01b600052604160045260246000fd5b015190503880610200565b601f1982169083600052806000209160005b8181106102c4575095836001959697106102ab575b505050811b019055610215565b015160001960f88460031b161c1916905538808061029e565b9192602060018192868b015181550194019201610289565b826000526020600020601f830160051c8101916020841061031a575b601f0160051c01905b81811061030e57506101e6565b60008155600101610301565b90915081906102f8565b600080fd5b3461032457602036600319011261032457610342612527565b61034a612771565b5060018060a01b03166000526007602052604060002060076040519161036f8361253d565b610378816126b6565b8352610386600182016126b6565b6020840152600281015460408401526103a1600382016126b6565b60608401526103b2600482016126b6565b6080840152600581015460a0840152600681015460c0840152015460e0820160018060a01b03821681526103f160ff61010085019360a01c168361281c565b516001600160a01b03161561048957516003811015610473576000190161042e5761042a90604051918291602083526020830190612330565b0390f35b60405162461bcd60e51b815260206004820152601960248201527f43616e646964617465206973206e6f74206163636570746564000000000000006044820152606490fd5b634e487b7160e01b600052602160045260246000fd5b60405162461bcd60e51b815260206004820152601360248201527210d85b991a59185d19481b9bdd08199bdd5b99606a1b6044820152606490fd5b34610324576000366003190112610324576104dd612771565b5061042a6104e9612a30565b604051918291602083526020830190612330565b346103245761050b3661260f565b6005939193546040519161051e8361253d565b6000835260208301938452604083019485526060830195865260808301908152610546612941565b9560a0840196875260c0840192835260e08401953387526101008501956000875233600052600660205260406000209551151560ff801988541691161786556001860190518051906001600160401b0382116102565781906105a8845461267c565b601f8111610a29575b50602090601f83116001146109c4576000926109b9575b50508160011b916000199060031b1c19161790555b51600285015551805160038501916001600160401b038211610256578190610605845461267c565b601f8111610966575b50602090601f8311600114610901576000926108f6575b50508160011b916000199060031b1c19161790555b51805160048401916001600160401b03821161025657819061065c845461267c565b601f81116108a3575b50602090601f831160011461083e57600092610833575b50508160011b916000199060031b1c19161790555b6005820194519485516001600160401b038111610256576106b2825461267c565b601f81116107eb575b506020601f82116001146107815781906007969798600092610776575b50508160011b916000199060031b1c19161790555b5160068201559251920180546001600160a01b0319166001600160a01b039390931692909217825551600381101561047357610728916128f8565b600954600160401b81101561025657806001610749920160095560096122ca565b81546001600160a01b0360039290921b91821b19163390911b1790556005546107719061291c565b600555005b0151905088806106d8565b601f1982169783600052816000209860005b8181106107d35750916007979899918460019594106107ba575b505050811b0190556106ed565b015160001960f88460031b161c191690558880806107ad565b838301518b556001909a019960209384019301610793565b826000526020600020601f830160051c81019160208410610829575b601f0160051c01905b81811061081d57506106bb565b60008155600101610810565b9091508190610807565b01519050888061067c565b60008581528281209350601f198516905b81811061088b5750908460019594939210610872575b505050811b019055610691565b015160001960f88460031b161c19169055888080610865565b9293602060018192878601518155019501930161084f565b909150836000526020600020601f840160051c810191602085106108ec575b90601f859493920160051c01905b8181106108dd5750610665565b600081558493506001016108d0565b90915081906108c2565b015190508980610625565b60008581528281209350601f198516905b81811061094e5750908460019594939210610935575b505050811b01905561063a565b015160001960f88460031b161c19169055898080610928565b92936020600181928786015181550195019301610912565b909150836000526020600020601f840160051c810191602085106109af575b90601f859493920160051c01905b8181106109a0575061060e565b60008155849350600101610993565b9091508190610985565b015190508b806105c8565b60008581528281209350601f198516905b818110610a1157509084600195949392106109f8575b505050811b0190556105dd565b015160001960f88460031b161c191690558b80806109eb565b929360206001819287860151815501950193016109d5565b909150836000526020600020601f840160051c81019160208510610a72575b90601f859493920160051c01905b818110610a6357506105b1565b60008155849350600101610a56565b9091508190610a48565b34610324576000366003190112610324576020600254604051908152f35b346103245760003660031901126103245761042a6104e9612a30565b34610324576020366003190112610324576001600160a01b03610ad7612527565b1660005260066020526020604060002060ff8154169061042a610afc600183016126b6565b610b8a6002840154610b7c610b13600387016126b6565b91610b6e610b23600489016126b6565b91610b3060058a016126b6565b94610b5b600760068c01549b0154986101206040519e8f9e8f901515815201526101208d01906122e2565b9160408c01528a820360608c01526122e2565b9088820360808a01526122e2565b9086820360a08801526122e2565b60c08501939093526001600160a01b03811660e085015261010084019060a01c60ff16612323565b3461032457602036600319011261032457600435600a5481101561032457610bdb602091612279565b905460405160039290921b1c6001600160a01b03168152f35b34610324576000366003190112610324576020600354604051908152f35b34610324576000366003190112610324576000546040516001600160a01b039091168152602090f35b34610324576020366003190112610324576001600160a01b03610c5c612527565b1660005260076020526040600020610120610c76826126b6565b9161042a610c86600183016126b6565b600283015492610d04610c9b600383016126b6565b94610cf6610cab600485016126b6565b91600585015497610ce36007600688015497015497610cd56040519d8d8f9e8f90815201906122e2565b8c810360208e0152906122e2565b9160408b015289820360608b01526122e2565b9087820360808901526122e2565b9360a086015260c085015260018060a01b03811660e085015260ff61010085019160a01c16612323565b3461032457600036600319011261032457600c54610d4b8161286f565b9060005b818110610d64576040518061042a85826124c7565b80610d70600192612294565b838060a01b0391549060031b1c1660005260066020526040600020610e1b60ff600760405193610d9f8561253d565b8281541615158552610db28782016126b6565b602086015260028101546040860152610dcd600382016126b6565b6060860152610dde600482016126b6565b6080860152610def600582016126b6565b60a0860152600681015460c08601520154858060a01b03811660e085015260a01c16610100830161281c565b610e258286612808565b52610e308185612808565b5001610d4f565b34610324576000366003190112610324576040516000600154610e598161267c565b8084529060018116908115610ef45750600114610e95575b61042a83610e8181850382612559565b6040519182916020835260208301906122e2565b600160009081527fb10e2d527612073b26eecdfd717e6a320cf44b4afac2b0732d9fcbe2b7fa0cf6939250905b808210610eda57509091508101602001610e81610e71565b919260018160209254838588010152019101909291610ec2565b60ff191660208086019190915291151560051b84019091019150610e819050610e71565b346103245760203660031901126103245760043560095481101561032457610bdb6020916122af565b34610324576020366003190112610324576004356001600160401b03811161032457610f7190369060040161257a565b33600052600660205260016040600020610f97828060a01b036007830154161515612986565b0181516001600160401b03811161025657610fb2825461267c565b601f8111611059575b50602092601f8211600114610ff95792819293600092610fee575b5050600019600383901b1c191660019190911b179055005b015190508380610fd6565b601f1982169383600052806000209160005b8681106110415750836001959610611028575b505050811b019055005b015160001960f88460031b161c1916905583808061101e565b9192602060018192868501518155019401920161100b565b826000526020600020601f830160051c81019160208410611097575b601f0160051c01905b81811061108b5750610fbb565b6000815560010161107e565b9091508190611075565b34610324576110af366125d0565b906110c560018060a01b036000541633146128bf565b60018060a01b031680600052600760205260016040600020600781016110f4838060a01b0382541615156129d2565b8260a01b60ff60a01b198254161790550182516001600160401b0381116102565761111f825461267c565b601f81116111e8575b506020601f82116001146111835781929394600092611178575b50508160011b916000199060031b1c19161790555b600a54600160401b811015610256578060016102369201600a55600a6122ca565b015190508480611142565b601f1982169083600052806000209160005b8181106111d0575095836001959697106111b7575b505050811b019055611157565b015160001960f88460031b161c191690558480806111aa565b9192602060018192868b015181550194019201611195565b826000526020600020601f830160051c81019160208410611226575b601f0160051c01905b81811061121a5750611128565b6000815560010161120d565b9091508190611204565b34610324576020366003190112610324576004356001600160401b0381116103245761126090369060040161257a565b336000526007602052604060002061128560018060a01b036007830154161515612986565b81516001600160401b0381116102565761129f825461267c565b601f8111611320575b50602092601f82116001146112da5792819293600092610fee575050600019600383901b1c191660019190911b179055005b601f1982169383600052806000209160005b868110611308575083600195961061102857505050811b019055005b919260206001819286850151815501940192016112ec565b826000526020600020601f830160051c8101916020841061135e575b601f0160051c01905b81811061135257506112a8565b60008155600101611345565b909150819061133c565b34610324576113763661260f565b9260045491604051916113888361253d565b8252611392612941565b926020830193845260408301948552606083019182526080830195865260a0830190815260c08301916000835260e084019533875261010085019560008752336000526007602052604060002095518051906001600160401b0382116102565781906113fe895461267c565b601f8111611885575b50602090601f831160011461182057600092611815575b50508160011b916000199060031b1c19161786555b51805160018701916001600160401b038211610256578190611455845461267c565b601f81116117c2575b50602090601f831160011461175d57600092611752575b50508160011b916000199060031b1c19161790555b51600285015551805160038501916001600160401b0382116102565781906114b2845461267c565b601f81116116ff575b50602090601f831160011461169a5760009261168f575b50508160011b916000199060031b1c19161790555b6004830195519586516001600160401b03811161025657611508825461267c565b601f8111611647575b506020601f82116001146115dd57819060079798996000926115d2575b50508160011b916000199060031b1c19161790555b5160058301555160068201559251920180546001600160a01b0319166001600160a01b039390931692909217825551600381101561047357611584916128f8565b600854600160401b811015610256578060016115a5920160085560086122ca565b81546001600160a01b0360039290921b91821b19163390911b1790556004546115cd9061291c565b600455005b01519050898061152e565b601f1982169883600052816000209960005b81811061162f575091600798999a91846001959410611616575b505050811b019055611543565b015160001960f88460031b161c19169055898080611609565b838301518c556001909b019a602093840193016115ef565b826000526020600020601f830160051c81019160208410611685575b601f0160051c01905b8181106116795750611511565b6000815560010161166c565b9091508190611663565b0151905089806114d2565b60008581528281209350601f198516905b8181106116e757509084600195949392106116ce575b505050811b0190556114e7565b015160001960f88460031b161c191690558980806116c1565b929360206001819287860151815501950193016116ab565b909150836000526020600020601f840160051c81019160208510611748575b90601f859493920160051c01905b81811061173957506114bb565b6000815584935060010161172c565b909150819061171e565b015190508b80611475565b60008581528281209350601f198516905b8181106117aa5750908460019594939210611791575b505050811b01905561148a565b015160001960f88460031b161c191690558b8080611784565b9293602060018192878601518155019501930161176e565b909150836000526020600020601f840160051c8101916020851061180b575b90601f859493920160051c01905b8181106117fc575061145e565b600081558493506001016117ef565b90915081906117e1565b015190508b8061141e565b60008a81528281209350601f198516905b81811061186d5750908460019594939210611854575b505050811b018655611433565b015160001960f88460031b161c191690558b8080611847565b92936020600181928786015181550195019301611831565b909150886000526020600020601f840160051c810191602085106118ce575b90601f859493920160051c01905b8181106118bf5750611407565b600081558493506001016118b2565b90915081906118a4565b34610324576020366003190112610324576118f1612527565b336000526006602052604060002060ff600782015460a01c16600381101561047357600103611a315780549160ff83166119f35760018060a01b0316600052600760205260406000209060ff600783015460a01c166003811015610473576001036119ae57600160069360ff19161790550161196d815461291c565b9055600c54600160401b811015610256578060016119909201600c55600c6122ca565b81546001600160a01b0360039290921b91821b19163390911b179055005b60405162461bcd60e51b815260206004820152601a60248201527f43616e646964617465206973206e6f742061636365707465642e0000000000006044820152606490fd5b60405162461bcd60e51b8152602060048201526016602482015275165bdd481a185d9948185b1c9958591e481d9bdd195960521b6044820152606490fd5b60405162461bcd60e51b815260206004820152601e60248201527f596f7520617265206e6f74206120636f6e6669726d656420766f7465722e00006044820152606490fd5b3461032457600036600319011261032457600954611a938161286f565b9060005b818110611aac576040518061042a85826124c7565b80611ab86001926122af565b838060a01b0391549060031b1c1660005260066020526040600020611ae760ff600760405193610d9f8561253d565b611af18286612808565b52611afc8185612808565b5001611a97565b3461032457602036600319011261032457600435600c5481101561032457610bdb602091612294565b3461032457611b3a366125d0565b90611b5060018060a01b036000541633146128bf565b6001600160a01b039081166000908152600760208190526040909120908101805490921615611c7557815460ff60a01b1916600160a11b179091558151600191909101906001600160401b03811161025657611bac825461267c565b601f8111611c2d575b50602092601f8211600114611be75792819293600092610fee575050600019600383901b1c191660019190911b179055005b601f1982169383600052806000209160005b868110611c15575083600195961061102857505050811b019055005b91926020600181928685015181550194019201611bf9565b826000526020600020601f830160051c81019160208410611c6b575b601f0160051c01905b818110611c5f5750611bb5565b60008155600101611c52565b9091508190611c49565b60405162461bcd60e51b815260206004820152601b60248201527f4e6f2063616e646964617465206461746120617661696c61626c6500000000006044820152606490fd5b3461032457602036600319011261032457611cd3612527565b611cdb612828565b5060018060a01b031660005260066020526040600020600760405191611d008361253d565b60ff81541615158352611d15600182016126b6565b602084015260028101546040840152611d30600382016126b6565b6060840152611d41600482016126b6565b6080840152611d52600582016126b6565b60a0840152600681015460c0840152015460e0820160018060a01b0382168152611d8760ff61010085019360a01c168361281c565b516001600160a01b031615611dfd575160038110156104735760001901611dc05761042a9060405191829160208352602083019061242c565b60405162461bcd60e51b8152602060048201526015602482015274159bdd195c881a5cc81b9bdd081858d8d95c1d1959605a1b6044820152606490fd5b60405162461bcd60e51b815260206004820152600f60248201526e159bdd195c881b9bdd08199bdd5b99608a1b6044820152606490fd5b3461032457602036600319011261032457600435600b5481101561032457610bdb60209161225e565b3461032457611e6b366125d0565b90611e8160018060a01b036000541633146128bf565b6001600160a01b03908116600090815260066020526040902060078101805490921615611fa457815460ff60a01b1916600160a11b179091558151600591909101906001600160401b03811161025657611edb825461267c565b601f8111611f5c575b50602092601f8211600114611f165792819293600092610fee575050600019600383901b1c191660019190911b179055005b601f1982169383600052806000209160005b868110611f44575083600195961061102857505050811b019055005b91926020600181928685015181550194019201611f28565b826000526020600020601f830160051c81019160208410611f9a575b601f0160051c01905b818110611f8e5750611ee4565b60008155600101611f81565b9091508190611f78565b60405162461bcd60e51b815260206004820152601760248201527f4e6f20766f746572206461746120617661696c61626c650000000000000000006044820152606490fd5b3461032457600036600319011261032457600a54612006816127b8565b9060005b81811061201f576040518061042a85826123cc565b8061202b600192612279565b838060a01b0391549060031b1c16600052600760205260406000206120d260ff60076040519361205a8561253d565b612063816126b6565b85526120708782016126b6565b60208601526002810154604086015261208b600382016126b6565b606086015261209c600482016126b6565b6080860152600581015460a0860152600681015460c08601520154858060a01b03811660e085015260a01c16610100830161281c565b6120dc8286612808565b526120e78185612808565b500161200a565b3461032457600036600319011261032457600b5461210b8161286f565b9060005b818110612124576040518061042a85826124c7565b8061213060019261225e565b838060a01b0391549060031b1c166000526006602052604060002061215f60ff600760405193610d9f8561253d565b6121698286612808565b526121748185612808565b500161210f565b3461032457600036600319011261032457600854612198816127b8565b9060005b8181106121b1576040518061042a85826123cc565b806121bd60019261222d565b838060a01b0391549060031b1c16600052600760205260406000206121ec60ff60076040519361205a8561253d565b6121f68286612808565b526122018185612808565b500161219c565b346103245760203660031901126103245760043560085481101561032457610bdb6020915b60085481101561224857600860005260206000200190600090565b634e487b7160e01b600052603260045260246000fd5b600b5481101561224857600b60005260206000200190600090565b600a5481101561224857600a60005260206000200190600090565b600c5481101561224857600c60005260206000200190600090565b60095481101561224857600960005260206000200190600090565b80548210156122485760005260206000200190600090565b919082519283825260005b84811061230e575050826000602080949584010152601f8019910116010190565b806020809284010151828286010152016122ed565b9060038210156104735752565b906123c99061010080612397612385612369612357885161012088526101208801906122e2565b602089015187820360208901526122e2565b60408801516040870152606088015186820360608801526122e2565b608087015185820360808701526122e2565b60a0808701519085015260c0808701519085015260e0808701516001600160a01b031690850152940151910190612323565b90565b602081016020825282518091526040820191602060408360051b8301019401926000915b8383106123ff57505050505090565b909192939460208061241d600193603f198682030187528951612330565b970193019301919392906123f0565b906123c9908251151581526101008061249f61248d61247b61245f602089015161012060208901526101208801906122e2565b60408901516040880152606089015187820360608901526122e2565b608088015186820360808801526122e2565b60a087015185820360a08701526122e2565b60c0808701519085015260e0808701516001600160a01b031690850152940151910190612323565b602081016020825282518091526040820191602060408360051b8301019401926000915b8383106124fa57505050505090565b9091929394602080612518600193603f19868203018752895161242c565b970193019301919392906124eb565b600435906001600160a01b038216820361032457565b61012081019081106001600160401b0382111761025657604052565b90601f801991011681019081106001600160401b0382111761025657604052565b81601f82011215610324578035906001600160401b03821161025657604051926125ae601f8401601f191660200185612559565b8284526020838301011161032457816000926020809301838601378301015290565b906040600319830112610324576004356001600160a01b03811681036103245791602435906001600160401b038211610324576123c99160040161257a565b906080600319830112610324576004356001600160401b038111610324578261263a9160040161257a565b91602435916044356001600160401b038111610324578261265d9160040161257a565b91606435906001600160401b038211610324576123c99160040161257a565b90600182811c921680156126ac575b602083101461269657565b634e487b7160e01b600052602260045260246000fd5b91607f169161268b565b90604051918260008254926126ca8461267c565b808452936001811690811561273857506001146126f1575b506126ef92500383612559565b565b90506000929192526020600020906000915b81831061271c5750509060206126ef92820101386126e2565b6020919350806001915483858901015201910190918492612703565b9050602092506126ef94915060ff191682840152151560051b820101386126e2565b6001600160401b0381116102565760051b60200190565b6040519061277e8261253d565b6000610100836060815260606020820152826040820152606080820152606060808201528260a08201528260c08201528260e08201520152565b906127c28261275a565b6127cf6040519182612559565b82815280926127e0601f199161275a565b019060005b8281106127f157505050565b6020906127fc612771565b828285010152016127e5565b80518210156122485760209160051b010190565b60038210156104735752565b604051906128358261253d565b6000610100838281526060602082015282604082015260608082015260606080820152606060a08201528260c08201528260e08201520152565b906128798261275a565b6128866040519182612559565b8281528092612897601f199161275a565b019060005b8281106128a857505050565b6020906128b3612828565b8282850101520161289c565b156128c657565b60405162461bcd60e51b815260206004820152600a60248201526927b7363c9037bbb732b960b11b6044820152606490fd5b90600381101561047357815460ff60a01b191660a09190911b60ff60a01b16179055565b600019811461292b5760010190565b634e487b7160e01b600052601160045260246000fd5b60405190612950606083612559565b60218252601b60fa1b6040837f526567697374726174696f6e206973206177616974696e6720617070726f766160208201520152565b1561298d57565b60405162461bcd60e51b815260206004820152601860248201527f4e6f20766f746572206461746120617661696c61626c652e00000000000000006044820152606490fd5b156129d957565b60405162461bcd60e51b815260206004820152602960248201527f5468697320766f74657220646f6573206e6f742061707065617220696e206f75604482015268391039bcb9ba32b69760b91b6064820152608490fd5b612a38612771565b50612a41612771565b600a546000805b828110612a555750505090565b612a5e81612279565b60018060a01b0391549060031b1c166000526007602052604060002060405190612a878261253d565b612a90816126b6565b8252612a9e600182016126b6565b602083015260028101546040830152612ab9600382016126b6565b6060830152612aca600482016126b6565b6080830152600581015460a0830152612b0b60ff600760068401549360c08601948552015460018060a01b03811660e086015260a01c16610100840161281c565b51838111612b1e575b5050600101612a48565b9094509150600138612b1456fea26469706673582212208b715491c3b839eb344abc69fcca9fe28427ae42fd5218e80351059b211a22ed64736f6c634300081c0033",
  "linkReferences": {},
  "deployedLinkReferences": {}
}